{"block":{"difficulty":"0x2","extraData":"0xd98301090a846765746889676f312e31352e3133856c696e757800000000000092dba323f65a271bc42f6da825d7420f25ee1662ef1e67736ea12d5512a4f52302335389797118be8c76ff352ce5c0eb77c88d77718f2f3ce1e15d37d69524a801","gasLimit":"0x1c9c380","gasUsed":"0x1d415","hash":"0xf4b5a4b513650031a264f0bafaed1dc18c3ac8f4006817137902bd529ec84ab5","logsBloom":"0x00000000000000020000000000000000000000000001008800000000000000000004000000000000000000000002000000000000000000000000000000200000140000000040000000000008000000000000008000042000000200000000000000000000000000000000000000000080000000400000000000000010000000000000000000000000000000000000000000100000000000000000000000000140020000000000000000000000000200000000000001000000000000000000000000000002000000000000000000000000000000000000000000000010000000000010000000000000000000000000000000000000000000000000000000000000","miner":"0x0000000000000000000000000000000000000000","mixHash":"0x0000000000000000000000000000000000000000000000000000000000000000","nonce":"0x0000000000000000","number":"0xd002e6","parentHash":"0x49d4ba8c2357e9a848490c2e076a8379cb58bc927b7a62324b70553903c7c58a","receiptsRoot":"0xfafccdaf81051e6efdc64c7185b874f9327fcf4ca73ac2f19aabe7813410ad55","sha3Uncles":"0x1dcc4de8dec75d7aab85b567b6ccd41ad312451b948a7413f0a142fd40d49347","size":"0x3d8","stateRoot":"0x7c0ce9291b6ceaf34fd92b5c9fb672a0a4c06d2c16f7e34c101b3f19c378cb4d","timestamp":"0x65243e48","totalDifficulty":"0x1a005cd","transactions":[{"blockHash":"0xf4b5a4b513650031a264f0bafaed1dc18c3ac8f4006817137902bd529ec84ab5","blockNumber":"0xd002e6","from":"0x5d87a7ae59344ff099b11beb64f9db4ad5041c9d","gas":"0x1eb79","gasPrice":"0x2faf080","hash":"0x5fa26b569a91176c191b3ffc71217ffbd688ab77cc2418044b3418999e4f8c4a","index":"0xd002e5","input":"0x414bf389000000000000000000000000201eba5cc46d216ce6dc03f6a759e8e766e956ae00000000000000000000000078c1b0c915c4faa5fffa6cabf0219da63d7f4cb800000000000000000000000000000000000000000000000000000000000001f40000000000000000000000005d87a7ae59344ff099b11beb64f9db4ad5041c9d0000000000000000000000000000000000000000000000000000000065243e6700000000000000000000000000000000000000000000000000000000000ea60000000000000000000000000000000000000000000000000022e7446055847cb60000000000000000000000000000000000000000000000000000000000000000","l1BlockNumber":"0x11774e4","l1Timestamp":"0x65243e48","l1TxOrigin":null,"nonce":"0xfb4","queueIndex":null,"queueOrigin":"sequencer","r":"0x580bd67885333b8eecd8a1adf685d985b1b5c03db6baf64f9b2569e43dd12626","rawTransaction":"0xf9016e820fb48402faf0808301eb7994319b69888b0d11cec22caa5034e25fffbdc8842180b90104414bf389000000000000000000000000201eba5cc46d216ce6dc03f6a759e8e766e956ae00000000000000000000000078c1b0c915c4faa5fffa6cabf0219da63d7f4cb800000000000000000000000000000000000000000000000000000000000001f40000000000000000000000005d87a7ae59344ff099b11beb64f9db4ad5041c9d0000000000000000000000000000000000000000000000000000000065243e6700000000000000000000000000000000000000000000000000000000000ea60000000000000000000000000000000000000000000000000022e7446055847cb60000000000000000000000000000000000000000000000000000000000000000822734a0580bd67885333b8eecd8a1adf685d985b1b5c03db6baf64f9b2569e43dd12626a002d5d02dcff0444309514acda3bde590fbac616b2f763f95fbbd118e522142a0","s":"0x2d5d02dcff0444309514acda3bde590fbac616b2f763f95fbbd118e522142a0","to":"0x319b69888b0d11cec22caa5034e25fffbdc88421","transactionIndex":"0x0","v":"0x2734","value":"0x0"}],"transactionsRoot":"0x7370d746ad24b9e4c87aa2cb6c80c2b22ff3af736ccd4684f439c90ac0fd2fad","uncles":[]},"receipts":{"0x5fa26b569a91176c191b3ffc71217ffbd688ab77cc2418044b3418999e4f8c4a":{"blockHash":"0xf4b5a4b513650031a264f0bafaed1dc18c3ac8f4006817137902bd529ec84ab5","blockNumber":"0xd002e6","from":"0x5d87a7ae59344ff099b11beb64f9db4ad5041c9d","gas":"0x1eb79","gasPrice":"0x2faf080","hash":"0x5fa26b569a91176c191b3ffc71217ffbd688ab77cc2418044b3418999e4f8c4a","index":"0xd002e5","input":"0x414bf389000000000000000000000000201eba5cc46d216ce6dc03f6a759e8e766e956ae00000000000000000000000078c1b0c915c4faa5fffa6cabf0219da63d7f4cb800000000000000000000000000000000000000000000000000000000000001f40000000000000000000000005d87a7ae59344ff099b11beb64f9db4ad5041c9d0000000000000000000000000000000000000000000000000000000065243e6700000000000000000000000000000000000000000000000000000000000ea60000000000000000000000000000000000000000000000000022e7446055847cb60000000000000000000000000000000000000000000000000000000000000000","l1BlockNumber":"0x11774e4","l1Timestamp":"0x65243e48","l1TxOrigin":null,"nonce":"0xfb4","queueIndex":null,"queueOrigin":"sequencer","r":"0x580bd67885333b8eecd8a1adf685d985b1b5c03db6baf64f9b2569e43dd12626","rawTransaction":"0xf9016e820fb48402faf0808301eb7994319b69888b0d11cec22caa5034e25fffbdc8842180b90104414bf389000000000000000000000000201eba5cc46d216ce6dc03f6a759e8e766e956ae00000000000000000000000078c1b0c915c4faa5fffa6cabf0219da63d7f4cb800000000000000000000000000000000000000000000000000000000000001f40000000000000000000000005d87a7ae59344ff099b11beb64f9db4ad5041c9d0000000000000000000000000000000000000000000000000000000065243e6700000000000000000000000000000000000000000000000000000000000ea60000000000000000000000000000000000000000000000000022e7446055847cb60000000000000000000000000000000000000000000000000000000000000000822734a0580bd67885333b8eecd8a1adf685d985b1b5c03db6baf64f9b2569e43dd12626a002d5d02dcff0444309514acda3bde590fbac616b2f763f95fbbd118e522142a0","s":"0x2d5d02dcff0444309514acda3bde590fbac616b2f763f95fbbd118e522142a0","to":"0x319b69888b0d11cec22caa5034e25fffbdc88421","transactionIndex":"0x0","v":"0x2734","value":"0x0","contractAddress":null,"cumulativeGasUsed":"0x1d415","daFee":"0x0","daGasPrice":"0x0","daGasUsed":"0x12c","gasUsed":"0x1d415","l1Fee":"0x19709d787180660","l1FeeScalar":"1","l1GasPrice":"0x38a987f04864","l1GasUsed":"0x72f","logs":[{"address":"0x78c1b0c915c4faa5fffa6cabf0219da63d7f4cb8","blockHash":"0xf4b5a4b513650031a264f0bafaed1dc18c3ac8f4006817137902bd529ec84ab5","blockNumber":"0xd002e6","data":"0x000000000000000000000000000000000000000000000000239d9e968b81f76c","logIndex":"0x0","removed":false,"topics":["0xddf252ad1be2c89b69c2b068fc378daa952ba7f163c4a11628f55a4df523b3ef","0x000000000000000000000000d08c50f7e69e9aeb2867deff4a8053d9a855e26a","0x0000000000000000000000005d87a7ae59344ff099b11beb64f9db4ad5041c9d"],"transactionHash":"0x5fa26b569a91176c191b3ffc71217ffbd688ab77cc2418044b3418999e4f8c4a","transactionIndex":"0x0"},{"address":"0x201eba5cc46d216ce6dc03f6a759e8e766e956ae","blockHash":"0xf4b5a4b513650031a264f0bafaed1dc18c3ac8f4006817137902bd529ec84ab5","blockNumber":"0xd002e6","data":"0x00000000000000000000000000000000000000000000000000000000000ea600","logIndex":"0x1","removed":false,"topics":["0xddf252ad1be2c89b69c2b068fc378daa952ba7f163c4a11628f55a4df523b3ef","0x0000000000000000000000005d87a7ae59344ff099b11beb64f9db4ad5041c9d","0x000000000000000000000000d08c50f7e69e9aeb2867deff4a8053d9a855e26a"],"transactionHash":"0x5fa26b569a91176c191b3ffc71217ffbd688ab77cc2418044b3418999e4f8c4a","transactionIndex":"0x0"},{"address":"0x201eba5cc46d216ce6dc03f6a759e8e766e956ae","blockHash":"0xf4b5a4b513650031a264f0bafaed1dc18c3ac8f4006817137902bd529ec84ab5","blockNumber":"0xd002e6","data":"0xffffffffffffffffffffffffffffffffffffffffffffffffffffffff90ff8e9f","logIndex":"0x2","removed":false,"topics":["0x8c5be1e5ebec7d5bd14f71427d1e84f3dd0314c0f7b2291e5b200ac8c7c3b925","0x0000000000000000000000005d87a7ae59344ff099b11beb64f9db4ad5041c9d","0x000000000000000000000000319b69888b0d11cec22caa5034e25fffbdc88421"],"transactionHash":"0x5fa26b569a91176c191b3ffc71217ffbd688ab77cc2418044b3418999e4f8c4a","transactionIndex":"0x0"},{"address":"0xd08c50f7e69e9aeb2867deff4a8053d9a855e26a","blockHash":"0xf4b5a4b513650031a264f0bafaed1dc18c3ac8f4006817137902bd529ec84ab5","blockNumber":"0xd002e6","data":"0x00000000000000000000000000000000000000000000000000000000000ea600ffffffffffffffffffffffffffffffffffffffffffffffffdc626169747e0894000000000000000000000000000000000018f4402ff07687fe1b21d289c1e25e000000000000000000000000000000000000000000000000006787d5d3ab8a8c0000000000000000000000000000000000000000000000000000000000045dd200000000000000000000000000000000000000000000000000000000000000a30000000000000000000000000000000000000000000000000000000000000000","logIndex":"0x3","removed":false,"topics":["0x19b47279256b2a23a1665c810c8d55a1758940ee09377d4f8d26497a3577dc83","0x000000000000000000000000319b69888b0d11cec22caa5034e25fffbdc88421","0x0000000000000000000000005d87a7ae59344ff099b11beb64f9db4ad5041c9d"],"transactionHash":"0x5fa26b569a91176c191b3ffc71217ffbd688ab77cc2418044b3418999e4f8c4a","transactionIndex":"0x0"}],"logsBloom":"0x00000000000000020000000000000000000000000001008800000000000000000004000000000000000000000002000000000000000000000000000000200000140000000040000000000008000000000000008000042000000200000000000000000000000000000000000000000080000000400000000000000010000000000000000000000000000000000000000000100000000000000000000000000140020000000000000000000000000200000000000001000000000000000000000000000002000000000000000000000000000000000000000000000010000000000010000000000000000000000000000000000000000000000000000000000000","status":"0x1","transactionHash":"0x5fa26b569a91176c191b3ffc71217ffbd688ab77cc2418044b3418999e4f8c4a"}}}