{"block":{"difficulty":"0x2","extraData":"0xd98301090a846765746889676f312e31352e3133856c696e75780000000000002f9e14f7b08d421b84fcc92f459027cba904f65b67e9f3ab92532e0467cc07da7bd5adf2fd3c8e97497a4b39d54be7956209f5f659e689e534838f11f84800ad01","gasLimit":"0x1c9c380","gasUsed":"0x1df53","hash":"0xb8d3b274e3e366985033e36b62b65233aa8342c08d4ea8e401106ea58312f549","logsBloom":"0x00000000000000000000000000000000000000000001008800000000000000000004000000000000000000000002000000100000000000000000000000200000140000000040000000000008000000000000008000042000000200000000008000000000000000000000001000000080000000000000000000000010000000000000000000000000000000000000000000100000000000000000000000000040020000000000000000000000000200000000000001000000000000000000000000000002000000000000000000000000000000000000000000000010000000000010000000000000000000000000000000000000000000000000000000000000","miner":"0x0000000000000000000000000000000000000000","mixHash":"0x0000000000000000000000000000000000000000000000000000000000000000","nonce":"0x0000000000000000","number":"0xd00252","parentHash":"0x10a4deebc5c6554db4ce00d8f0b7406370bf8ca5df952eb87d9037ebf184c2d5","receiptsRoot":"0x6d3a176974f56eb4b81935ca38ed67e364e85e3d1dcfea268a79bb9249808385","sha3Uncles":"0x1dcc4de8dec75d7aab85b567b6ccd41ad312451b948a7413f0a142fd40d49347","size":"0x3d8","stateRoot":"0x9a2f69c8cebc3044b20efafe351c3662275a267fa73b70a5da05fa5e325becb7","timestamp":"0x65243dfc","totalDifficulty":"0x1a004a5","transactions":[{"blockHash":"0xb8d3b274e3e366985033e36b62b65233aa8342c08d4ea8e401106ea58312f549","blockNumber":"0xd00252","from":"0x8108755b63171f3be7fc274828e032653bd713dc","gas":"0x1f6e4","gasPrice":"0x2faf080","hash":"0x3e2812d63a43e584061f4ecbe0a6e053fb1fa7c692cb6251663d12077212a232","index":"0xd00251","input":"0x414bf389000000000000000000000000201eba5cc46d216ce6dc03f6a759e8e766e956ae00000000000000000000000078c1b0c915c4faa5fffa6cabf0219da63d7f4cb800000000000000000000000000000000000000000000000000000000000001f40000000000000000000000008108755b63171f3be7fc274828e032653bd713dc0000000000000000000000000000000000000000000000000000000065243e1900000000000000000000000000000000000000000000000000000000001228700000000000000000000000000000000000000000000000002b42713e35c72c8f0000000000000000000000000000000000000000000000000000000000000000","l1BlockNumber":"0x11774dd","l1Timestamp":"0x65243dfc","l1TxOrigin":null,"nonce":"0xf54","queueIndex":null,"queueOrigin":"sequencer","r":"0xf88b75d84e6d5ce2b85884f6e18c11fc188d17cf2d329854127d732de189cd3d","rawTransaction":"0xf9016e820f548402faf0808301f6e494319b69888b0d11cec22caa5034e25fffbdc8842180b90104414bf389000000000000000000000000201eba5cc46d216ce6dc03f6a759e8e766e956ae00000000000000000000000078c1b0c915c4faa5fffa6cabf0219da63d7f4cb800000000000000000000000000000000000000000000000000000000000001f40000000000000000000000008108755b63171f3be7fc274828e032653bd713dc0000000000000000000000000000000000000000000000000000000065243e1900000000000000000000000000000000000000000000000000000000001228700000000000000000000000000000000000000000000000002b42713e35c72c8f0000000000000000000000000000000000000000000000000000000000000000822734a0f88b75d84e6d5ce2b85884f6e18c11fc188d17cf2d329854127d732de189cd3da035e3288c5d5aaa52c5be6ab80ad8e2475225b87298e7f1d6f2438f88256e44c9","s":"0x35e3288c5d5aaa52c5be6ab80ad8e2475225b87298e7f1d6f2438f88256e44c9","to":"0x319b69888b0d11cec22caa5034e25fffbdc88421","transactionIndex":"0x0","v":"0x2734","value":"0x0"}],"transactionsRoot":"0x1cc5bab236cada427767f44420b12614471622354eace0f09815eb7e7f5a764a","uncles":[]},"receipts":{"0x3e2812d63a43e584061f4ecbe0a6e053fb1fa7c692cb6251663d12077212a232":{"blockHash":"0xb8d3b274e3e366985033e36b62b65233aa8342c08d4ea8e401106ea58312f549","blockNumber":"0xd00252","from":"0x8108755b63171f3be7fc274828e032653bd713dc","gas":"0x1f6e4","gasPrice":"0x2faf080","hash":"0x3e2812d63a43e584061f4ecbe0a6e053fb1fa7c692cb6251663d12077212a232","index":"0xd00251","input":"0x414bf389000000000000000000000000201eba5cc46d216ce6dc03f6a759e8e766e956ae00000000000000000000000078c1b0c915c4faa5fffa6cabf0219da63d7f4cb800000000000000000000000000000000000000000000000000000000000001f40000000000000000000000008108755b63171f3be7fc274828e032653bd713dc0000000000000000000000000000000000000000000000000000000065243e1900000000000000000000000000000000000000000000000000000000001228700000000000000000000000000000000000000000000000002b42713e35c72c8f0000000000000000000000000000000000000000000000000000000000000000","l1BlockNumber":"0x11774dd","l1Timestamp":"0x65243dfc","l1TxOrigin":null,"nonce":"0xf54","queueIndex":null,"queueOrigin":"sequencer","r":"0xf88b75d84e6d5ce2b85884f6e18c11fc188d17cf2d329854127d732de189cd3d","rawTransaction":"0xf9016e820f548402faf0808301f6e494319b69888b0d11cec22caa5034e25fffbdc8842180b90104414bf389000000000000000000000000201eba5cc46d216ce6dc03f6a759e8e766e956ae00000000000000000000000078c1b0c915c4faa5fffa6cabf0219da63d7f4cb800000000000000000000000000000000000000000000000000000000000001f40000000000000000000000008108755b63171f3be7fc274828e032653bd713dc0000000000000000000000000000000000000000000000000000000065243e1900000000000000000000000000000000000000000000000000000000001228700000000000000000000000000000000000000000000000002b42713e35c72c8f0000000000000000000000000000000000000000000000000000000000000000822734a0f88b75d84e6d5ce2b85884f6e18c11fc188d17cf2d329854127d732de189cd3da035e3288c5d5aaa52c5be6ab80ad8e2475225b87298e7f1d6f2438f88256e44c9","s":"0x35e3288c5d5aaa52c5be6ab80ad8e2475225b87298e7f1d6f2438f88256e44c9","to":"0x319b69888b0d11cec22caa5034e25fffbdc88421","transactionIndex":"0x0","v":"0x2734","value":"0x0","contractAddress":null,"cumulativeGasUsed":"0x1df53","daFee":"0x0","daGasPrice":"0x0","daGasUsed":"0x12c","gasUsed":"0x1df53","l1Fee":"0x19709d787180660","l1FeeScalar":"1","l1GasPrice":"0x38a987f04864","l1GasUsed":"0x72f","logs":[{"address":"0x78c1b0c915c4faa5fffa6cabf0219da63d7f4cb8","blockHash":"0xb8d3b274e3e366985033e36b62b65233aa8342c08d4ea8e401106ea58312f549","blockNumber":"0xd00252","data":"0x0000000000000000000000000000000000000000000000002c24738dd8d5b015","logIndex":"0x0","removed":false,"topics":["0xddf252ad1be2c89b69c2b068fc378daa952ba7f163c4a11628f55a4df523b3ef","0x000000000000000000000000d08c50f7e69e9aeb2867deff4a8053d9a855e26a","0x0000000000000000000000008108755b63171f3be7fc274828e032653bd713dc"],"transactionHash":"0x3e2812d63a43e584061f4ecbe0a6e053fb1fa7c692cb6251663d12077212a232","transactionIndex":"0x0"},{"address":"0x201eba5cc46d216ce6dc03f6a759e8e766e956ae","blockHash":"0xb8d3b274e3e366985033e36b62b65233aa8342c08d4ea8e401106ea58312f549","blockNumber":"0xd00252","data":"0x0000000000000000000000000000000000000000000000000000000000122870","logIndex":"0x1","removed":false,"topics":["0xddf252ad1be2c89b69c2b068fc378daa952ba7f163c4a11628f55a4df523b3ef","0x0000000000000000000000008108755b63171f3be7fc274828e032653bd713dc","0x000000000000000000000000d08c50f7e69e9aeb2867deff4a8053d9a855e26a"],"transactionHash":"0x3e2812d63a43e584061f4ecbe0a6e053fb1fa7c692cb6251663d12077212a232","transactionIndex":"0x0"},{"address":"0x201eba5cc46d216ce6dc03f6a759e8e766e956ae","blockHash":"0xb8d3b274e3e366985033e36b62b65233aa8342c08d4ea8e401106ea58312f549","blockNumber":"0xd00252","data":"0xffffffffffffffffffffffffffffffffffffffffffffffffffffffff957c3d1f","logIndex":"0x2","removed":false,"topics":["0x8c5be1e5ebec7d5bd14f71427d1e84f3dd0314c0f7b2291e5b200ac8c7c3b925","0x0000000000000000000000008108755b63171f3be7fc274828e032653bd713dc","0x000000000000000000000000319b69888b0d11cec22caa5034e25fffbdc88421"],"transactionHash":"0x3e2812d63a43e584061f4ecbe0a6e053fb1fa7c692cb6251663d12077212a232","transactionIndex":"0x0"},{"address":"0xd08c50f7e69e9aeb2867deff4a8053d9a855e26a","blockHash":"0xb8d3b274e3e366985033e36b62b65233aa8342c08d4ea8e401106ea58312f549","blockNumber":"0xd00252","data":"0x0000000000000000000000000000000000000000000000000000000000122870ffffffffffffffffffffffffffffffffffffffffffffffffd3db8c72272a4feb000000000000000000000000000000000018f3c20a719529505961d55e1297b4000000000000000000000000000000000000000000000000006787d5d3ab8a8c0000000000000000000000000000000000000000000000000000000000045dd000000000000000000000000000000000000000000000000000000000000000ca0000000000000000000000000000000000000000000000000000000000000000","logIndex":"0x3","removed":false,"topics":["0x19b47279256b2a23a1665c810c8d55a1758940ee09377d4f8d26497a3577dc83","0x000000000000000000000000319b69888b0d11cec22caa5034e25fffbdc88421","0x0000000000000000000000008108755b63171f3be7fc274828e032653bd713dc"],"transactionHash":"0x3e2812d63a43e584061f4ecbe0a6e053fb1fa7c692cb6251663d12077212a232","transactionIndex":"0x0"}],"logsBloom":"0x00000000000000000000000000000000000000000001008800000000000000000004000000000000000000000002000000100000000000000000000000200000140000000040000000000008000000000000008000042000000200000000008000000000000000000000001000000080000000000000000000000010000000000000000000000000000000000000000000100000000000000000000000000040020000000000000000000000000200000000000001000000000000000000000000000002000000000000000000000000000000000000000000000010000000000010000000000000000000000000000000000000000000000000000000000000","status":"0x1","transactionHash":"0x3e2812d63a43e584061f4ecbe0a6e053fb1fa7c692cb6251663d12077212a232"}}}