{"block":{"difficulty":"0x2","extraData":"0xd98301090a846765746889676f312e31352e3133856c696e7578000000000000b6a241691a4f1f07d849319a53fef197b618b16b70a062768556f789330980bc6be41ae519b5aeb858713c92a4aa17b7d631ada4e9ae615c36d8bafa6ceb103a00","gasLimit":"0x1c9c380","gasUsed":"0x5208","hash":"0x33028af9ea4c3d7b0aab3d47876139470fac293eb788b6136b2267e13c09f969","logsBloom":"0x00000000000000000000000000000000000000000000000000000000000000000000000000000000000000000000000000000000000000000000000000000000000000000000000000000000000000000000000000000000000000000000000000000000000000000000000000000000000000000000000000000000000000000000000000000000000000000000000000000000000000000000000000000000000000000000000000000000000000000000000000000000000000000000000000000000000000000000000000000000000000000000000000000000000000000000000000000000000000000000000000000000000000000000000000000000","miner":"0x0000000000000000000000000000000000000000","mixHash":"0x0000000000000000000000000000000000000000000000000000000000000000","nonce":"0x0000000000000000","number":"0xcff3cc","parentHash":"0xa562e45a6058be9aec8c633aaa72a2b0f09dc3793b0c709c8b3f5bedf51faf03","receiptsRoot":"0x056b23fbba480696b65fe5a59b8f2148a1299103c4f57df839233af2cf4ca2d2","sha3Uncles":"0x1dcc4de8dec75d7aab85b567b6ccd41ad312451b948a7413f0a142fd40d49347","size":"0x2d4","stateRoot":"0xb778949d703eced62215800a589bbe13af96cb779f670b33373179ffa1b3850f","timestamp":"0x6524375c","totalDifficulty":"0x19fe799","transactions":[{"blockHash":"0x33028af9ea4c3d7b0aab3d47876139470fac293eb788b6136b2267e13c09f969","blockNumber":"0xcff3cc","from":"0xea869669210a69b035b382e0f2a498b87dc6a45c","gas":"0x5208","gasPrice":"0x2faf080","hash":"0xccaed7cdc7999769e7b8702a4e179a7805822bd9bcc0c0c8a968f616d84d985c","index":"0xcff3cb","input":"0x","l1BlockNumber":"0x1177450","l1Timestamp":"0x6524375c","l1TxOrigin":null,"nonce":"0x0","queueIndex":null,"queueOrigin":"sequencer","r":"0x43e8eb1be665797078ea986716f183cadc7b13e1ee288b746d0363f68e9caa73","rawTransaction":"0xf86d808402faf080825208944a40457fd9585cd830a00b4af1b81540f19a64c088a688906bd8b0000080822733a043e8eb1be665797078ea986716f183cadc7b13e1ee288b746d0363f68e9caa73a03761a85cbd6e450ba863c07054f724310630193b749381951c8d246d8625a7a8","s":"0x3761a85cbd6e450ba863c07054f724310630193b749381951c8d246d8625a7a8","to":"0x4a40457fd9585cd830a00b4af1b81540f19a64c0","transactionIndex":"0x0","v":"0x2733","value":"0xa688906bd8b00000"}],"transactionsRoot":"0x4821896911280ece98ce2c5867c862b3135f9a9e1024d0cc62df64982e7bb0b7","uncles":[]},"receipts":{"0xccaed7cdc7999769e7b8702a4e179a7805822bd9bcc0c0c8a968f616d84d985c":{"blockHash":"0x33028af9ea4c3d7b0aab3d47876139470fac293eb788b6136b2267e13c09f969","blockNumber":"0xcff3cc","from":"0xea869669210a69b035b382e0f2a498b87dc6a45c","gas":"0x5208","gasPrice":"0x2faf080","hash":"0xccaed7cdc7999769e7b8702a4e179a7805822bd9bcc0c0c8a968f616d84d985c","index":"0xcff3cb","input":"0x","l1BlockNumber":"0x1177450","l1Timestamp":"0x6524375c","l1TxOrigin":null,"nonce":"0x0","queueIndex":null,"queueOrigin":"sequencer","r":"0x43e8eb1be665797078ea986716f183cadc7b13e1ee288b746d0363f68e9caa73","rawTransaction":"0xf86d808402faf080825208944a40457fd9585cd830a00b4af1b81540f19a64c088a688906bd8b0000080822733a043e8eb1be665797078ea986716f183cadc7b13e1ee288b746d0363f68e9caa73a03761a85cbd6e450ba863c07054f724310630193b749381951c8d246d8625a7a8","s":"0x3761a85cbd6e450ba863c07054f724310630193b749381951c8d246d8625a7a8","to":"0x4a40457fd9585cd830a00b4af1b81540f19a64c0","transactionIndex":"0x0","v":"0x2733","value":"0xa688906bd8b00000","contractAddress":null,"cumulativeGasUsed":"0x5208","daFee":"0x0","daGasPrice":"0x0","daGasUsed":"0x29","gasUsed":"0x5208","l1Fee":"0x1c5145ff7a866d0","l1FeeScalar":"1","l1GasPrice":"0x3f1249c65230","l1GasUsed":"0x72f","logs":[],"logsBloom":"0x00000000000000000000000000000000000000000000000000000000000000000000000000000000000000000000000000000000000000000000000000000000000000000000000000000000000000000000000000000000000000000000000000000000000000000000000000000000000000000000000000000000000000000000000000000000000000000000000000000000000000000000000000000000000000000000000000000000000000000000000000000000000000000000000000000000000000000000000000000000000000000000000000000000000000000000000000000000000000000000000000000000000000000000000000000000","status":"0x1","transactionHash":"0xccaed7cdc7999769e7b8702a4e179a7805822bd9bcc0c0c8a968f616d84d985c"}}}