{"block":{"difficulty":"0x2","extraData":"0xd98301090a846765746889676f312e31352e3133856c696e7578000000000000bcc047bbf5c22938925d8d8d6f13c1d902ad1e620e7cf236d4936d57801bfa6615571f4c93816aab8a1338a055253f97b710f13f3d37cc44a8a45c3bc441032900","gasLimit":"0x1c9c380","gasUsed":"0xb4ce","hash":"0x301201808ba8d9f86f96cbcab99ab1a83393b52a94dbeeab4e5e3c98aac6f3bd","logsBloom":"0x00000000000000000000000000000000000000000000000000000000000000000000000000000000000000000000000000000000000000000000000000200000000000000000000000000000000000000000000010000000000080000000000000000000000000000000000100000000000000000000000000000000000000000000000000000000200000000000000000000000000000000000000000000000020000004000000000000000000000000000000000000000000100000000000000000000000000000000000000000000800000000000000000000000000000000010000000001000000000000000000000000000000000000000000040000000","miner":"0x0000000000000000000000000000000000000000","mixHash":"0x0000000000000000000000000000000000000000000000000000000000000000","nonce":"0x0000000000000000","number":"0xd0018d","parentHash":"0x28e9340115d4a4dda1b4a177e907a9a8a30ce14764b9ae1c10535fd4a1b0d00b","receiptsRoot":"0x3e0ac6354e555a22b5059f0af108706544c37b63c606bcbcc150927a3a4a9c07","sha3Uncles":"0x1dcc4de8dec75d7aab85b567b6ccd41ad312451b948a7413f0a142fd40d49347","size":"0x311","stateRoot":"0x3bb90f4def1f4f40b415874ab3a814f97ac7219590037350b902b053821bdf2d","timestamp":"0x65243d86","totalDifficulty":"0x1a0031b","transactions":[{"blockHash":"0x301201808ba8d9f86f96cbcab99ab1a83393b52a94dbeeab4e5e3c98aac6f3bd","blockNumber":"0xd0018d","from":"0x5f3291147af755f4b13408dabbbeaa86ef007039","gas":"0xb4ce","gasPrice":"0x2faf080","hash":"0x9fb061b147e4bf138f06077ccda014f6d3f3d41a9bad32438516b52d63c71841","index":"0xd0018c","input":"0x095ea7b3000000000000000000000000218bf598d1453383e2f4aa7b14ffb9bfb102d63700000000000000000000000000000000000000000000000000047481a08c6000","l1BlockNumber":"0x11774d4","l1Timestamp":"0x65243d86","l1TxOrigin":null,"nonce":"0x4","queueIndex":null,"queueOrigin":"sequencer","r":"0x4e89a71558e17bd468593ef0934571ee17e8bd02bfa59ccd3383407d23dbdd71","rawTransaction":"0xf8aa048402faf08082b4ce94deaddeaddeaddeaddeaddeaddeaddeaddead111180b844095ea7b3000000000000000000000000218bf598d1453383e2f4aa7b14ffb9bfb102d63700000000000000000000000000000000000000000000000000047481a08c6000822733a04e89a71558e17bd468593ef0934571ee17e8bd02bfa59ccd3383407d23dbdd71a00274d733a636584afd10b330c4eb2f37599c149f7e413faabdb996ed66342d2c","s":"0x274d733a636584afd10b330c4eb2f37599c149f7e413faabdb996ed66342d2c","to":"0xdeaddeaddeaddeaddeaddeaddeaddeaddead1111","transactionIndex":"0x0","v":"0x2733","value":"0x0"}],"transactionsRoot":"0xe0801a4e406039a773d4efca643000056376a69fe94121c09c029645cd6a2e1b","uncles":[]},"receipts":{"0x9fb061b147e4bf138f06077ccda014f6d3f3d41a9bad32438516b52d63c71841":{"blockHash":"0x301201808ba8d9f86f96cbcab99ab1a83393b52a94dbeeab4e5e3c98aac6f3bd","blockNumber":"0xd0018d","from":"0x5f3291147af755f4b13408dabbbeaa86ef007039","gas":"0xb4ce","gasPrice":"0x2faf080","hash":"0x9fb061b147e4bf138f06077ccda014f6d3f3d41a9bad32438516b52d63c71841","index":"0xd0018c","input":"0x095ea7b3000000000000000000000000218bf598d1453383e2f4aa7b14ffb9bfb102d63700000000000000000000000000000000000000000000000000047481a08c6000","l1BlockNumber":"0x11774d4","l1Timestamp":"0x65243d86","l1TxOrigin":null,"nonce":"0x4","queueIndex":null,"queueOrigin":"sequencer","r":"0x4e89a71558e17bd468593ef0934571ee17e8bd02bfa59ccd3383407d23dbdd71","rawTransaction":"0xf8aa048402faf08082b4ce94deaddeaddeaddeaddeaddeaddeaddeaddead111180b844095ea7b3000000000000000000000000218bf598d1453383e2f4aa7b14ffb9bfb102d63700000000000000000000000000000000000000000000000000047481a08c6000822733a04e89a71558e17bd468593ef0934571ee17e8bd02bfa59ccd3383407d23dbdd71a00274d733a636584afd10b330c4eb2f37599c149f7e413faabdb996ed66342d2c","s":"0x274d733a636584afd10b330c4eb2f37599c149f7e413faabdb996ed66342d2c","to":"0xdeaddeaddeaddeaddeaddeaddeaddeaddead1111","transactionIndex":"0x0","v":"0x2733","value":"0x0","contractAddress":null,"cumulativeGasUsed":"0xb4ce","daFee":"0x0","daGasPrice":"0x0","daGasUsed":"0x67","gasUsed":"0xb4ce","l1Fee":"0x1a09f6380cb9fe0","l1FeeScalar":"1","l1GasPrice":"0x39ff1464e55c","l1GasUsed":"0x72f","logs":[{"address":"0xdeaddeaddeaddeaddeaddeaddeaddeaddead1111","blockHash":"0x301201808ba8d9f86f96cbcab99ab1a83393b52a94dbeeab4e5e3c98aac6f3bd","blockNumber":"0xd0018d","data":"0x00000000000000000000000000000000000000000000000000047481a08c6000","logIndex":"0x0","removed":false,"topics":["0x8c5be1e5ebec7d5bd14f71427d1e84f3dd0314c0f7b2291e5b200ac8c7c3b925","0x0000000000000000000000005f3291147af755f4b13408dabbbeaa86ef007039","0x000000000000000000000000218bf598d1453383e2f4aa7b14ffb9bfb102d637"],"transactionHash":"0x9fb061b147e4bf138f06077ccda014f6d3f3d41a9bad32438516b52d63c71841","transactionIndex":"0x0"}],"logsBloom":"0x00000000000000000000000000000000000000000000000000000000000000000000000000000000000000000000000000000000000000000000000000200000000000000000000000000000000000000000000010000000000080000000000000000000000000000000000100000000000000000000000000000000000000000000000000000000200000000000000000000000000000000000000000000000020000004000000000000000000000000000000000000000000100000000000000000000000000000000000000000000800000000000000000000000000000000010000000001000000000000000000000000000000000000000000040000000","status":"0x1","transactionHash":"0x9fb061b147e4bf138f06077ccda014f6d3f3d41a9bad32438516b52d63c71841"}}}