{"block":{"difficulty":"0x2","extraData":"0xd98301090a846765746889676f312e31352e3133856c696e7578000000000000ef3b7abc65463e7532876a29b8db5ab161561588a665fcd40093829ccb4c52484a3302e45ca61851524843e90acad2621c7adbfb3059872e66aa402e132824d201","gasLimit":"0x1c9c380","gasUsed":"0x1e44d","hash":"0x677bb7ccbf84f630211bf13b9c1cbde09c8372eeebf5875af847657bb45851c6","logsBloom":"0x00000000000000000000000000000000000000000000008800000000000000000000000000000000000000000002000000000000000000000000000000200000140000000040000000000008001000004000000000040000000400100000000000000400000000000000000100000000000000000000000000000012000000000000000000000000000000080000000000100000000000000000000000000000020000000000000000000000000000000000000001000000000110000000000000000002000000000000200000000000000000000000000000000000000000000010000000001000000000000000000000000000000000000000000000000000","miner":"0x0000000000000000000000000000000000000000","mixHash":"0x0000000000000000000000000000000000000000000000000000000000000000","nonce":"0x0000000000000000","number":"0xd00318","parentHash":"0xd4a71477a6288550c552a72eabd65e72651c2340588ed107ca1dac70322d2b5c","receiptsRoot":"0xe2e12bd9bdc5e5df3e82c7a8d47145da85ade31b0b7edec40d03027c0624db20","sha3Uncles":"0x1dcc4de8dec75d7aab85b567b6ccd41ad312451b948a7413f0a142fd40d49347","size":"0x3d9","stateRoot":"0x08e9be75b1f121c3a8c94877d1c4e8a75c6d062933a3cbc2f2f0fc04db745f85","timestamp":"0x65243e61","totalDifficulty":"0x1a00631","transactions":[{"blockHash":"0x677bb7ccbf84f630211bf13b9c1cbde09c8372eeebf5875af847657bb45851c6","blockNumber":"0xd00318","from":"0xdff45a3a21f00f7edfb28816e8589c337421cc91","gas":"0xf4240","gasPrice":"0x69f4060","hash":"0x6b609481662a3aacd1c99d7f75d83f8cc0a4585e40172893b9f16a438be3c560","index":"0xd00317","input":"0x414bf38900000000000000000000000078c1b0c915c4faa5fffa6cabf0219da63d7f4cb8000000000000000000000000deaddeaddeaddeaddeaddeaddeaddeaddead111100000000000000000000000000000000000000000000000000000000000009c4000000000000000000000000dff45a3a21f00f7edfb28816e8589c337421cc91000000000000000000000000000000000000000000000000000002c726d69a0800000000000000000000000000000000000000000000006c6b935b8bbd400000000000000000000000000000000000000000000000000000068f5b6ac3649000000000000000000000000000000000000000000003bbd2bc0fad35ff7cb941da","l1BlockNumber":"0x11774e6","l1Timestamp":"0x65243e61","l1TxOrigin":null,"nonce":"0x2adf0","queueIndex":null,"queueOrigin":"sequencer","r":"0x89e5ff485c69c248ddb3e2726bef74816e964b96f83506b8c0013cf4c13dc2bd","rawTransaction":"0xf9016f8302adf084069f4060830f424094319b69888b0d11cec22caa5034e25fffbdc8842180b90104414bf38900000000000000000000000078c1b0c915c4faa5fffa6cabf0219da63d7f4cb8000000000000000000000000deaddeaddeaddeaddeaddeaddeaddeaddead111100000000000000000000000000000000000000000000000000000000000009c4000000000000000000000000dff45a3a21f00f7edfb28816e8589c337421cc91000000000000000000000000000000000000000000000000000002c726d69a0800000000000000000000000000000000000000000000006c6b935b8bbd400000000000000000000000000000000000000000000000000000068f5b6ac3649000000000000000000000000000000000000000000003bbd2bc0fad35ff7cb941da822733a089e5ff485c69c248ddb3e2726bef74816e964b96f83506b8c0013cf4c13dc2bda0024e4a8bf763b050958456e20f09ca7520d8e30fbabea31cfd8b280bbd752d74","s":"0x24e4a8bf763b050958456e20f09ca7520d8e30fbabea31cfd8b280bbd752d74","to":"0x319b69888b0d11cec22caa5034e25fffbdc88421","transactionIndex":"0x0","v":"0x2733","value":"0x0"}],"transactionsRoot":"0x5511ca6f77411b15da18426cd5421d8469c1d1052edda3435e5c0f75469748a4","uncles":[]},"receipts":{"0x6b609481662a3aacd1c99d7f75d83f8cc0a4585e40172893b9f16a438be3c560":{"blockHash":"0x677bb7ccbf84f630211bf13b9c1cbde09c8372eeebf5875af847657bb45851c6","blockNumber":"0xd00318","from":"0xdff45a3a21f00f7edfb28816e8589c337421cc91","gas":"0xf4240","gasPrice":"0x69f4060","hash":"0x6b609481662a3aacd1c99d7f75d83f8cc0a4585e40172893b9f16a438be3c560","index":"0xd00317","input":"0x414bf38900000000000000000000000078c1b0c915c4faa5fffa6cabf0219da63d7f4cb8000000000000000000000000deaddeaddeaddeaddeaddeaddeaddeaddead111100000000000000000000000000000000000000000000000000000000000009c4000000000000000000000000dff45a3a21f00f7edfb28816e8589c337421cc91000000000000000000000000000000000000000000000000000002c726d69a0800000000000000000000000000000000000000000000006c6b935b8bbd400000000000000000000000000000000000000000000000000000068f5b6ac3649000000000000000000000000000000000000000000003bbd2bc0fad35ff7cb941da","l1BlockNumber":"0x11774e6","l1Timestamp":"0x65243e61","l1TxOrigin":null,"nonce":"0x2adf0","queueIndex":null,"queueOrigin":"sequencer","r":"0x89e5ff485c69c248ddb3e2726bef74816e964b96f83506b8c0013cf4c13dc2bd","rawTransaction":"0xf9016f8302adf084069f4060830f424094319b69888b0d11cec22caa5034e25fffbdc8842180b90104414bf38900000000000000000000000078c1b0c915c4faa5fffa6cabf0219da63d7f4cb8000000000000000000000000deaddeaddeaddeaddeaddeaddeaddeaddead111100000000000000000000000000000000000000000000000000000000000009c4000000000000000000000000dff45a3a21f00f7edfb28816e8589c337421cc91000000000000000000000000000000000000000000000000000002c726d69a0800000000000000000000000000000000000000000000006c6b935b8bbd400000000000000000000000000000000000000000000000000000068f5b6ac3649000000000000000000000000000000000000000000003bbd2bc0fad35ff7cb941da822733a089e5ff485c69c248ddb3e2726bef74816e964b96f83506b8c0013cf4c13dc2bda0024e4a8bf763b050958456e20f09ca7520d8e30fbabea31cfd8b280bbd752d74","s":"0x24e4a8bf763b050958456e20f09ca7520d8e30fbabea31cfd8b280bbd752d74","to":"0x319b69888b0d11cec22caa5034e25fffbdc88421","transactionIndex":"0x0","v":"0x2733","value":"0x0","contractAddress":null,"cumulativeGasUsed":"0x1e44d","daFee":"0x0","daGasPrice":"0x0","daGasUsed":"0x12d","gasUsed":"0x1e44d","l1Fee":"0x19709d787180660","l1FeeScalar":"1","l1GasPrice":"0x38a987f04864","l1GasUsed":"0x72f","logs":[{"address":"0xdeaddeaddeaddeaddeaddeaddeaddeaddead1111","blockHash":"0x677bb7ccbf84f630211bf13b9c1cbde09c8372eeebf5875af847657bb45851c6","blockNumber":"0xd00318","data":"0x000000000000000000000000000000000000000000000000068f9be7b7a766e2","logIndex":"0x0","removed":false,"topics":["0xddf252ad1be2c89b69c2b068fc378daa952ba7f163c4a11628f55a4df523b3ef","0x0000000000000000000000009ec313ff05946b6f3860a99b470625abba7eb0a2","0x000000000000000000000000dff45a3a21f00f7edfb28816e8589c337421cc91"],"transactionHash":"0x6b609481662a3aacd1c99d7f75d83f8cc0a4585e40172893b9f16a438be3c560","transactionIndex":"0x0"},{"address":"0x78c1b0c915c4faa5fffa6cabf0219da63d7f4cb8","blockHash":"0x677bb7ccbf84f630211bf13b9c1cbde09c8372eeebf5875af847657bb45851c6","blockNumber":"0xd00318","data":"0x00000000000000000000000000000000000000000000006c6b935b8bbd400000","logIndex":"0x1","removed":false,"topics":["0xddf252ad1be2c89b69c2b068fc378daa952ba7f163c4a11628f55a4df523b3ef","0x000000000000000000000000dff45a3a21f00f7edfb28816e8589c337421cc91","0x0000000000000000000000009ec313ff05946b6f3860a99b470625abba7eb0a2"],"transactionHash":"0x6b609481662a3aacd1c99d7f75d83f8cc0a4585e40172893b9f16a438be3c560","transactionIndex":"0x0"},{"address":"0x78c1b0c915c4faa5fffa6cabf0219da63d7f4cb8","blockHash":"0x677bb7ccbf84f630211bf13b9c1cbde09c8372eeebf5875af847657bb45851c6","blockNumber":"0xd00318","data":"0x00000000000000000000000000000000000000001feb356eab93b55d435c0000","logIndex":"0x2","removed":false,"topics":["0x8c5be1e5ebec7d5bd14f71427d1e84f3dd0314c0f7b2291e5b200ac8c7c3b925","0x000000000000000000000000dff45a3a21f00f7edfb28816e8589c337421cc91","0x000000000000000000000000319b69888b0d11cec22caa5034e25fffbdc88421"],"transactionHash":"0x6b609481662a3aacd1c99d7f75d83f8cc0a4585e40172893b9f16a438be3c560","transactionIndex":"0x0"},{"address":"0x9ec313ff05946b6f3860a99b470625abba7eb0a2","blockHash":"0x677bb7ccbf84f630211bf13b9c1cbde09c8372eeebf5875af847657bb45851c6","blockNumber":"0xd00318","data":"0x00000000000000000000000000000000000000000000006c6b935b8bbd400000fffffffffffffffffffffffffffffffffffffffffffffffff97064184858991e000000000000000000000000000000000000000003f0c2d042444b5e3e85b175000000000000000000000000000000000000000000001ff43001a43f66794a81fffffffffffffffffffffffffffffffffffffffffffffffffffffffffffeb9e600000000000000000000000000000000000000000000000016345785d8a000000000000000000000000000000000000000000000000000000000000000000000","logIndex":"0x3","removed":false,"topics":["0x19b47279256b2a23a1665c810c8d55a1758940ee09377d4f8d26497a3577dc83","0x000000000000000000000000319b69888b0d11cec22caa5034e25fffbdc88421","0x000000000000000000000000dff45a3a21f00f7edfb28816e8589c337421cc91"],"transactionHash":"0x6b609481662a3aacd1c99d7f75d83f8cc0a4585e40172893b9f16a438be3c560","transactionIndex":"0x0"}],"logsBloom":"0x00000000000000000000000000000000000000000000008800000000000000000000000000000000000000000002000000000000000000000000000000200000140000000040000000000008001000004000000000040000000400100000000000000400000000000000000100000000000000000000000000000012000000000000000000000000000000080000000000100000000000000000000000000000020000000000000000000000000000000000000001000000000110000000000000000002000000000000200000000000000000000000000000000000000000000010000000001000000000000000000000000000000000000000000000000000","status":"0x1","transactionHash":"0x6b609481662a3aacd1c99d7f75d83f8cc0a4585e40172893b9f16a438be3c560"}}}