{"block":{"difficulty":"0x2","extraData":"0xd98301090a846765746889676f312e31352e3133856c696e757800000000000050d2e47337caa092f62f74af61347a5fe728a6dd21ee76f8b79942aa7cc152933a14242d78cebd469724ff79a7819f751d93f711186739810b8cb3fb28e7dd0501","gasLimit":"0x1c9c380","gasUsed":"0x221c9","hash":"0x57bb75820dac96d450d09859aa7e3c303de73f5985e50b5856bc3b15bd7f87c5","logsBloom":"0x00000000000040000000000000000000000000000001008800000000000000000000000000000000000000000002000000000000000000000000000000200000140000000040000000000008000000000000008000442000000000000020000000000020020000000000000000000800010000000000040000000010000000000000000000000000000000000000000004100000000000000000000000000000020000000000000009800000000000000000000001000000000000000000000000000002000000000000000000000000000000000000000000000002000020000010020000000000000000000000000000000000000000000000000000000000","miner":"0x0000000000000000000000000000000000000000","mixHash":"0x0000000000000000000000000000000000000000000000000000000000000000","nonce":"0x0000000000000000","number":"0xd001a1","parentHash":"0x58f37012325b20e4ba7bab42dd353de1d0ffe196cd2f9bd4d418b71c96b61170","receiptsRoot":"0xa44b4622e2d616cf2e93fc88a4aa8b83fd60f308dd81d0cb5a133e4c8a707b13","sha3Uncles":"0x1dcc4de8dec75d7aab85b567b6ccd41ad312451b948a7413f0a142fd40d49347","size":"0x517","stateRoot":"0x16f19980d6c8a14cc6eaae55914e4e3a464696d54274d4991eff7497e56c8dcc","timestamp":"0x65243d95","totalDifficulty":"0x1a00343","transactions":[{"blockHash":"0x57bb75820dac96d450d09859aa7e3c303de73f5985e50b5856bc3b15bd7f87c5","blockNumber":"0xd001a1","from":"0x49d31251e9182106f1c6dc10e7b2bd1fa8e59596","gas":"0x4041f","gasPrice":"0x2faf080","hash":"0x9f6507da6b1ec6d6a52dfba34ceeb61eaf6509cc1651ded86dc084d7a4791191","index":"0xd001a0","input":"0xac9650d800000000000000000000000000000000000000000000000000000000000000200000000000000000000000000000000000000000000000000000000000000002000000000000000000000000000000000000000000000000000000000000004000000000000000000000000000000000000000000000000000000000000001800000000000000000000000000000000000000000000000000000000000000104414bf389000000000000000000000000201eba5cc46d216ce6dc03f6a759e8e766e956ae00000000000000000000000078c1b0c915c4faa5fffa6cabf0219da63d7f4cb80000000000000000000000000000000000000000000000000000000000000064000000000000000000000000319b69888b0d11cec22caa5034e25fffbdc884210000000000000000000000000000000000000000000000000000000065243ebd000000000000000000000000000000000000000000000000000000000001264f00000000000000000000000000000000000000000000000002aaa126a1ceb9e70000000000000000000000000000000000000000000000000000000000000000000000000000000000000000000000000000000000000000000000000000000000000000000000000000000000000000000000000000000000000044cf3f26d600000000000000000000000000000000000000000000000002aaa126a1ceb9e700000000000000000000000049d31251e9182106f1c6dc10e7b2bd1fa8e5959600000000000000000000000000000000000000000000000000000000","l1BlockNumber":"0x11774d5","l1Timestamp":"0x65243d95","l1TxOrigin":null,"nonce":"0x80","queueIndex":null,"queueOrigin":"sequencer","r":"0x956817e814c0bdf61a8ad28f2cf0b4f0320b813ba61ad9ff3c6326b91ca47f0f","rawTransaction":"0xf902ad81808402faf0808304041f94319b69888b0d11cec22caa5034e25fffbdc8842180b90244ac9650d800000000000000000000000000000000000000000000000000000000000000200000000000000000000000000000000000000000000000000000000000000002000000000000000000000000000000000000000000000000000000000000004000000000000000000000000000000000000000000000000000000000000001800000000000000000000000000000000000000000000000000000000000000104414bf389000000000000000000000000201eba5cc46d216ce6dc03f6a759e8e766e956ae00000000000000000000000078c1b0c915c4faa5fffa6cabf0219da63d7f4cb80000000000000000000000000000000000000000000000000000000000000064000000000000000000000000319b69888b0d11cec22caa5034e25fffbdc884210000000000000000000000000000000000000000000000000000000065243ebd000000000000000000000000000000000000000000000000000000000001264f00000000000000000000000000000000000000000000000002aaa126a1ceb9e70000000000000000000000000000000000000000000000000000000000000000000000000000000000000000000000000000000000000000000000000000000000000000000000000000000000000000000000000000000000000044cf3f26d600000000000000000000000000000000000000000000000002aaa126a1ceb9e700000000000000000000000049d31251e9182106f1c6dc10e7b2bd1fa8e5959600000000000000000000000000000000000000000000000000000000822733a0956817e814c0bdf61a8ad28f2cf0b4f0320b813ba61ad9ff3c6326b91ca47f0fa06f95127d8c78a259c1e5ced116234c48cd74fde524479813a83105cd52be8519","s":"0x6f95127d8c78a259c1e5ced116234c48cd74fde524479813a83105cd52be8519","to":"0x319b69888b0d11cec22caa5034e25fffbdc88421","transactionIndex":"0x0","v":"0x2733","value":"0x0"}],"transactionsRoot":"0xe00a17f6a44ceb0634ef1430e52fdbbae045e75389702cf18ab2a77c385bd2b0","uncles":[]},"receipts":{"0x9f6507da6b1ec6d6a52dfba34ceeb61eaf6509cc1651ded86dc084d7a4791191":{"blockHash":"0x57bb75820dac96d450d09859aa7e3c303de73f5985e50b5856bc3b15bd7f87c5","blockNumber":"0xd001a1","from":"0x49d31251e9182106f1c6dc10e7b2bd1fa8e59596","gas":"0x4041f","gasPrice":"0x2faf080","hash":"0x9f6507da6b1ec6d6a52dfba34ceeb61eaf6509cc1651ded86dc084d7a4791191","index":"0xd001a0","input":"0xac9650d800000000000000000000000000000000000000000000000000000000000000200000000000000000000000000000000000000000000000000000000000000002000000000000000000000000000000000000000000000000000000000000004000000000000000000000000000000000000000000000000000000000000001800000000000000000000000000000000000000000000000000000000000000104414bf389000000000000000000000000201eba5cc46d216ce6dc03f6a759e8e766e956ae00000000000000000000000078c1b0c915c4faa5fffa6cabf0219da63d7f4cb80000000000000000000000000000000000000000000000000000000000000064000000000000000000000000319b69888b0d11cec22caa5034e25fffbdc884210000000000000000000000000000000000000000000000000000000065243ebd000000000000000000000000000000000000000000000000000000000001264f00000000000000000000000000000000000000000000000002aaa126a1ceb9e70000000000000000000000000000000000000000000000000000000000000000000000000000000000000000000000000000000000000000000000000000000000000000000000000000000000000000000000000000000000000044cf3f26d600000000000000000000000000000000000000000000000002aaa126a1ceb9e700000000000000000000000049d31251e9182106f1c6dc10e7b2bd1fa8e5959600000000000000000000000000000000000000000000000000000000","l1BlockNumber":"0x11774d5","l1Timestamp":"0x65243d95","l1TxOrigin":null,"nonce":"0x80","queueIndex":null,"queueOrigin":"sequencer","r":"0x956817e814c0bdf61a8ad28f2cf0b4f0320b813ba61ad9ff3c6326b91ca47f0f","rawTransaction":"0xf902ad81808402faf0808304041f94319b69888b0d11cec22caa5034e25fffbdc8842180b90244ac9650d800000000000000000000000000000000000000000000000000000000000000200000000000000000000000000000000000000000000000000000000000000002000000000000000000000000000000000000000000000000000000000000004000000000000000000000000000000000000000000000000000000000000001800000000000000000000000000000000000000000000000000000000000000104414bf389000000000000000000000000201eba5cc46d216ce6dc03f6a759e8e766e956ae00000000000000000000000078c1b0c915c4faa5fffa6cabf0219da63d7f4cb80000000000000000000000000000000000000000000000000000000000000064000000000000000000000000319b69888b0d11cec22caa5034e25fffbdc884210000000000000000000000000000000000000000000000000000000065243ebd000000000000000000000000000000000000000000000000000000000001264f00000000000000000000000000000000000000000000000002aaa126a1ceb9e70000000000000000000000000000000000000000000000000000000000000000000000000000000000000000000000000000000000000000000000000000000000000000000000000000000000000000000000000000000000000044cf3f26d600000000000000000000000000000000000000000000000002aaa126a1ceb9e700000000000000000000000049d31251e9182106f1c6dc10e7b2bd1fa8e5959600000000000000000000000000000000000000000000000000000000822733a0956817e814c0bdf61a8ad28f2cf0b4f0320b813ba61ad9ff3c6326b91ca47f0fa06f95127d8c78a259c1e5ced116234c48cd74fde524479813a83105cd52be8519","s":"0x6f95127d8c78a259c1e5ced116234c48cd74fde524479813a83105cd52be8519","to":"0x319b69888b0d11cec22caa5034e25fffbdc88421","transactionIndex":"0x0","v":"0x2733","value":"0x0","contractAddress":null,"cumulativeGasUsed":"0x221c9","daFee":"0x0","daGasPrice":"0x0","daGasUsed":"0x26b","gasUsed":"0x221c9","l1Fee":"0x1a09f6380cb9fe0","l1FeeScalar":"1","l1GasPrice":"0x39ff1464e55c","l1GasUsed":"0x72f","logs":[{"address":"0x78c1b0c915c4faa5fffa6cabf0219da63d7f4cb8","blockHash":"0x57bb75820dac96d450d09859aa7e3c303de73f5985e50b5856bc3b15bd7f87c5","blockNumber":"0xd001a1","data":"0x00000000000000000000000000000000000000000000000002ccc2cef6b2a999","logIndex":"0x0","removed":false,"topics":["0xddf252ad1be2c89b69c2b068fc378daa952ba7f163c4a11628f55a4df523b3ef","0x000000000000000000000000d145db1dfc3fcd2e999b47f3a02c85bd7750ed09","0x000000000000000000000000319b69888b0d11cec22caa5034e25fffbdc88421"],"transactionHash":"0x9f6507da6b1ec6d6a52dfba34ceeb61eaf6509cc1651ded86dc084d7a4791191","transactionIndex":"0x0"},{"address":"0x201eba5cc46d216ce6dc03f6a759e8e766e956ae","blockHash":"0x57bb75820dac96d450d09859aa7e3c303de73f5985e50b5856bc3b15bd7f87c5","blockNumber":"0xd001a1","data":"0x000000000000000000000000000000000000000000000000000000000001264f","logIndex":"0x1","removed":false,"topics":["0xddf252ad1be2c89b69c2b068fc378daa952ba7f163c4a11628f55a4df523b3ef","0x00000000000000000000000049d31251e9182106f1c6dc10e7b2bd1fa8e59596","0x000000000000000000000000d145db1dfc3fcd2e999b47f3a02c85bd7750ed09"],"transactionHash":"0x9f6507da6b1ec6d6a52dfba34ceeb61eaf6509cc1651ded86dc084d7a4791191","transactionIndex":"0x0"},{"address":"0x201eba5cc46d216ce6dc03f6a759e8e766e956ae","blockHash":"0x57bb75820dac96d450d09859aa7e3c303de73f5985e50b5856bc3b15bd7f87c5","blockNumber":"0xd001a1","data":"0x000000000000000000000000000000000000000000000000000000003b950fd1","logIndex":"0x2","removed":false,"topics":["0x8c5be1e5ebec7d5bd14f71427d1e84f3dd0314c0f7b2291e5b200ac8c7c3b925","0x00000000000000000000000049d31251e9182106f1c6dc10e7b2bd1fa8e59596","0x000000000000000000000000319b69888b0d11cec22caa5034e25fffbdc88421"],"transactionHash":"0x9f6507da6b1ec6d6a52dfba34ceeb61eaf6509cc1651ded86dc084d7a4791191","transactionIndex":"0x0"},{"address":"0xd145db1dfc3fcd2e999b47f3a02c85bd7750ed09","blockHash":"0x57bb75820dac96d450d09859aa7e3c303de73f5985e50b5856bc3b15bd7f87c5","blockNumber":"0xd001a1","data":"0x000000000000000000000000000000000000000000000000000000000001264ffffffffffffffffffffffffffffffffffffffffffffffffffd333d31094d5667000000000000000000000000000000000018f85c2725e31f1287cbb9410db89f000000000000000000000000000000000000000000000000000cb4b905eb5e490000000000000000000000000000000000000000000000000000000000045ddf00000000000000000000000000000000000000000000000000000000000000020000000000000000000000000000000000000000000000000000000000000000","logIndex":"0x3","removed":false,"topics":["0x19b47279256b2a23a1665c810c8d55a1758940ee09377d4f8d26497a3577dc83","0x000000000000000000000000319b69888b0d11cec22caa5034e25fffbdc88421","0x000000000000000000000000319b69888b0d11cec22caa5034e25fffbdc88421"],"transactionHash":"0x9f6507da6b1ec6d6a52dfba34ceeb61eaf6509cc1651ded86dc084d7a4791191","transactionIndex":"0x0"},{"address":"0x78c1b0c915c4faa5fffa6cabf0219da63d7f4cb8","blockHash":"0x57bb75820dac96d450d09859aa7e3c303de73f5985e50b5856bc3b15bd7f87c5","blockNumber":"0xd001a1","data":"0x00000000000000000000000000000000000000000000000002ccc2cef6b2a999","logIndex":"0x4","removed":false,"topics":["0xddf252ad1be2c89b69c2b068fc378daa952ba7f163c4a11628f55a4df523b3ef","0x000000000000000000000000319b69888b0d11cec22caa5034e25fffbdc88421","0x0000000000000000000000000000000000000000000000000000000000000000"],"transactionHash":"0x9f6507da6b1ec6d6a52dfba34ceeb61eaf6509cc1651ded86dc084d7a4791191","transactionIndex":"0x0"},{"address":"0x78c1b0c915c4faa5fffa6cabf0219da63d7f4cb8","blockHash":"0x57bb75820dac96d450d09859aa7e3c303de73f5985e50b5856bc3b15bd7f87c5","blockNumber":"0xd001a1","data":"0x00000000000000000000000000000000000000000000000002ccc2cef6b2a999","logIndex":"0x5","removed":false,"topics":["0x7fcf532c15f0a6db0bd6d0e038bea71d30d808c7d98cb3bf7268a95bf5081b65","0x000000000000000000000000319b69888b0d11cec22caa5034e25fffbdc88421"],"transactionHash":"0x9f6507da6b1ec6d6a52dfba34ceeb61eaf6509cc1651ded86dc084d7a4791191","transactionIndex":"0x0"}],"logsBloom":"0x00000000000040000000000000000000000000000001008800000000000000000000000000000000000000000002000000000000000000000000000000200000140000000040000000000008000000000000008000442000000000000020000000000020020000000000000000000800010000000000040000000010000000000000000000000000000000000000000004100000000000000000000000000000020000000000000009800000000000000000000001000000000000000000000000000002000000000000000000000000000000000000000000000002000020000010020000000000000000000000000000000000000000000000000000000000","status":"0x1","transactionHash":"0x9f6507da6b1ec6d6a52dfba34ceeb61eaf6509cc1651ded86dc084d7a4791191"}}}