{"block":{"difficulty":"0x2","extraData":"0xd98301090a846765746889676f312e31352e3133856c696e7578000000000000a9088addfff7b5647595e5dfb15772833861c6173b7219dba50470391079d7a0399d725ea347833b92a6cb4a43773cc96c14a22448ef046d13a8947cf10671e701","gasLimit":"0x1c9c380","gasUsed":"0x1b65a","hash":"0x77768b792c8dbc0a74a7eeb78433b80b1017ece3f3e01eb42396f0b649a0f1fb","logsBloom":"0x00000000000000000000000000000000000000000000008800000000000000000000040000000000000000000002000000000000000000000000000000200000140004000040000000000008000000000000000000040000000000000000000000000000000000000000000000000000010000000000100000000010000000000000000000000000000000000000000000100000400000000000000100000000020000000000000000000000000000000000000021000000000000000000000000000002000000000000000000000000000000000000000000001000000000000810000000004000000000000000004000000000000000000000000000002000","miner":"0x0000000000000000000000000000000000000000","mixHash":"0x0000000000000000000000000000000000000000000000000000000000000000","nonce":"0x0000000000000000","number":"0xcff394","parentHash":"0xb816b4968ce5b05959f6324677770d2d8717735434dc25d7c0da3b982f4d7e1c","receiptsRoot":"0xae57f3358323816c970e1c510afda9c3ad91710bb1e3b4696b17d4551b6b9efd","sha3Uncles":"0x1dcc4de8dec75d7aab85b567b6ccd41ad312451b948a7413f0a142fd40d49347","size":"0x3d8","stateRoot":"0x191be358e6918cdb179fdf332115bdbec4ca699487de81b7b30cb5dbaf41fbbd","timestamp":"0x65243743","totalDifficulty":"0x19fe729","transactions":[{"blockHash":"0x77768b792c8dbc0a74a7eeb78433b80b1017ece3f3e01eb42396f0b649a0f1fb","blockNumber":"0xcff394","from":"0x84039a153e7d1b2f7e1002c78c01d597a10a8e4b","gas":"0x1e045","gasPrice":"0x2faf080","hash":"0x6b614af1e6d97ca2d39cb40d9f3dd8e3adce250f00b8c7a62c642a7195d602d5","index":"0xcff393","input":"0x414bf38900000000000000000000000097174506aafcc846a40832719bd8899a588bd05c00000000000000000000000078c1b0c915c4faa5fffa6cabf0219da63d7f4cb8000000000000000000000000000000000000000000000000000000000000271000000000000000000000000084039a153e7d1b2f7e1002c78c01d597a10a8e4b000000000000000000000000000000000000000000000000000000006524376500000000000000000000000000000000000000000000001d8975efc972f12a450000000000000000000000000000000000000000000000003cb27640f381ec5a0000000000000000000000000000000000000000000000000000000000000000","l1BlockNumber":"0x117744e","l1Timestamp":"0x65243743","l1TxOrigin":null,"nonce":"0x307","queueIndex":null,"queueOrigin":"sequencer","r":"0xd0c6a53b7b017378b3e59186b9055dc991068dce0ded1a2d5e2fe1159fef403c","rawTransaction":"0xf9016e8203078402faf0808301e04594319b69888b0d11cec22caa5034e25fffbdc8842180b90104414bf38900000000000000000000000097174506aafcc846a40832719bd8899a588bd05c00000000000000000000000078c1b0c915c4faa5fffa6cabf0219da63d7f4cb8000000000000000000000000000000000000000000000000000000000000271000000000000000000000000084039a153e7d1b2f7e1002c78c01d597a10a8e4b000000000000000000000000000000000000000000000000000000006524376500000000000000000000000000000000000000000000001d8975efc972f12a450000000000000000000000000000000000000000000000003cb27640f381ec5a0000000000000000000000000000000000000000000000000000000000000000822734a0d0c6a53b7b017378b3e59186b9055dc991068dce0ded1a2d5e2fe1159fef403ca0130f0fd765c4291f14b3ce87b842dd93d32168247bda9f7fd8aeefec75739af5","s":"0x130f0fd765c4291f14b3ce87b842dd93d32168247bda9f7fd8aeefec75739af5","to":"0x319b69888b0d11cec22caa5034e25fffbdc88421","transactionIndex":"0x0","v":"0x2734","value":"0x0"}],"transactionsRoot":"0x96088723ac36058abd0a3a43ffc42b2e7adffe7aecee6f05a303d7f99a5baada","uncles":[]},"receipts":{"0x6b614af1e6d97ca2d39cb40d9f3dd8e3adce250f00b8c7a62c642a7195d602d5":{"blockHash":"0x77768b792c8dbc0a74a7eeb78433b80b1017ece3f3e01eb42396f0b649a0f1fb","blockNumber":"0xcff394","from":"0x84039a153e7d1b2f7e1002c78c01d597a10a8e4b","gas":"0x1e045","gasPrice":"0x2faf080","hash":"0x6b614af1e6d97ca2d39cb40d9f3dd8e3adce250f00b8c7a62c642a7195d602d5","index":"0xcff393","input":"0x414bf38900000000000000000000000097174506aafcc846a40832719bd8899a588bd05c00000000000000000000000078c1b0c915c4faa5fffa6cabf0219da63d7f4cb8000000000000000000000000000000000000000000000000000000000000271000000000000000000000000084039a153e7d1b2f7e1002c78c01d597a10a8e4b000000000000000000000000000000000000000000000000000000006524376500000000000000000000000000000000000000000000001d8975efc972f12a450000000000000000000000000000000000000000000000003cb27640f381ec5a0000000000000000000000000000000000000000000000000000000000000000","l1BlockNumber":"0x117744e","l1Timestamp":"0x65243743","l1TxOrigin":null,"nonce":"0x307","queueIndex":null,"queueOrigin":"sequencer","r":"0xd0c6a53b7b017378b3e59186b9055dc991068dce0ded1a2d5e2fe1159fef403c","rawTransaction":"0xf9016e8203078402faf0808301e04594319b69888b0d11cec22caa5034e25fffbdc8842180b90104414bf38900000000000000000000000097174506aafcc846a40832719bd8899a588bd05c00000000000000000000000078c1b0c915c4faa5fffa6cabf0219da63d7f4cb8000000000000000000000000000000000000000000000000000000000000271000000000000000000000000084039a153e7d1b2f7e1002c78c01d597a10a8e4b000000000000000000000000000000000000000000000000000000006524376500000000000000000000000000000000000000000000001d8975efc972f12a450000000000000000000000000000000000000000000000003cb27640f381ec5a0000000000000000000000000000000000000000000000000000000000000000822734a0d0c6a53b7b017378b3e59186b9055dc991068dce0ded1a2d5e2fe1159fef403ca0130f0fd765c4291f14b3ce87b842dd93d32168247bda9f7fd8aeefec75739af5","s":"0x130f0fd765c4291f14b3ce87b842dd93d32168247bda9f7fd8aeefec75739af5","to":"0x319b69888b0d11cec22caa5034e25fffbdc88421","transactionIndex":"0x0","v":"0x2734","value":"0x0","contractAddress":null,"cumulativeGasUsed":"0x1b65a","daFee":"0x0","daGasPrice":"0x0","daGasUsed":"0x12c","gasUsed":"0x1b65a","l1Fee":"0x1c5145ff7a866d0","l1FeeScalar":"1","l1GasPrice":"0x3f1249c65230","l1GasUsed":"0x72f","logs":[{"address":"0x78c1b0c915c4faa5fffa6cabf0219da63d7f4cb8","blockHash":"0x77768b792c8dbc0a74a7eeb78433b80b1017ece3f3e01eb42396f0b649a0f1fb","blockNumber":"0xcff394","data":"0x0000000000000000000000000000000000000000000000003fe446953637eb52","logIndex":"0x0","removed":false,"topics":["0xddf252ad1be2c89b69c2b068fc378daa952ba7f163c4a11628f55a4df523b3ef","0x0000000000000000000000003a873fe63bedad2e9f9b9b63bf8bedb5f1789167","0x00000000000000000000000084039a153e7d1b2f7e1002c78c01d597a10a8e4b"],"transactionHash":"0x6b614af1e6d97ca2d39cb40d9f3dd8e3adce250f00b8c7a62c642a7195d602d5","transactionIndex":"0x0"},{"address":"0x97174506aafcc846a40832719bd8899a588bd05c","blockHash":"0x77768b792c8dbc0a74a7eeb78433b80b1017ece3f3e01eb42396f0b649a0f1fb","blockNumber":"0xcff394","data":"0x00000000000000000000000000000000000000000000001d8975efc972f12a45","logIndex":"0x1","removed":false,"topics":["0xddf252ad1be2c89b69c2b068fc378daa952ba7f163c4a11628f55a4df523b3ef","0x00000000000000000000000084039a153e7d1b2f7e1002c78c01d597a10a8e4b","0x0000000000000000000000003a873fe63bedad2e9f9b9b63bf8bedb5f1789167"],"transactionHash":"0x6b614af1e6d97ca2d39cb40d9f3dd8e3adce250f00b8c7a62c642a7195d602d5","transactionIndex":"0x0"},{"address":"0x97174506aafcc846a40832719bd8899a588bd05c","blockHash":"0x77768b792c8dbc0a74a7eeb78433b80b1017ece3f3e01eb42396f0b649a0f1fb","blockNumber":"0xcff394","data":"0xffffffffffffffffffffffffffffffffffffffffffff145f4107d8310e6086a1","logIndex":"0x2","removed":false,"topics":["0x8c5be1e5ebec7d5bd14f71427d1e84f3dd0314c0f7b2291e5b200ac8c7c3b925","0x00000000000000000000000084039a153e7d1b2f7e1002c78c01d597a10a8e4b","0x000000000000000000000000319b69888b0d11cec22caa5034e25fffbdc88421"],"transactionHash":"0x6b614af1e6d97ca2d39cb40d9f3dd8e3adce250f00b8c7a62c642a7195d602d5","transactionIndex":"0x0"},{"address":"0x3a873fe63bedad2e9f9b9b63bf8bedb5f1789167","blockHash":"0x77768b792c8dbc0a74a7eeb78433b80b1017ece3f3e01eb42396f0b649a0f1fb","blockNumber":"0xcff394","data":"0xffffffffffffffffffffffffffffffffffffffffffffffffc01bb96ac9c814ae00000000000000000000000000000000000000000000001d8975efc972f12a45000000000000000000000000000000000000000ad3065835135ab9a7d09d9cd300000000000000000000000000000000000000000004050e8f20b2f8a1c79e70000000000000000000000000000000000000000000000000000000000000ba1600000000000000000000000000000000000000000000000000000000000000000000000000000000000000000000000000000000000000001832593daccf35cb","logIndex":"0x3","removed":false,"topics":["0x19b47279256b2a23a1665c810c8d55a1758940ee09377d4f8d26497a3577dc83","0x000000000000000000000000319b69888b0d11cec22caa5034e25fffbdc88421","0x00000000000000000000000084039a153e7d1b2f7e1002c78c01d597a10a8e4b"],"transactionHash":"0x6b614af1e6d97ca2d39cb40d9f3dd8e3adce250f00b8c7a62c642a7195d602d5","transactionIndex":"0x0"}],"logsBloom":"0x00000000000000000000000000000000000000000000008800000000000000000000040000000000000000000002000000000000000000000000000000200000140004000040000000000008000000000000000000040000000000000000000000000000000000000000000000000000010000000000100000000010000000000000000000000000000000000000000000100000400000000000000100000000020000000000000000000000000000000000000021000000000000000000000000000002000000000000000000000000000000000000000000001000000000000810000000004000000000000000004000000000000000000000000000002000","status":"0x1","transactionHash":"0x6b614af1e6d97ca2d39cb40d9f3dd8e3adce250f00b8c7a62c642a7195d602d5"}}}