{"block":{"difficulty":"0x2","extraData":"0xd98301090a846765746889676f312e31352e3133856c696e75780000000000001c9174bafdfe7c1427af155ea44346937377a02bb86cd557072e52ca9ebe10007a282a95757cfda3b1c74599e70e5c20d48a1047815df368224ace79eb81ecf500","gasLimit":"0x1c9c380","gasUsed":"0x23bb1","hash":"0x01ed3bdf9c8e0b187907c31f07fe120e4bbcb554a79d16ec55406bcf97798b55","logsBloom":"0x00000000000001000000000001002000000020000001000000000000000000000000000000000000000000000000000020000100000000040080000000200000000000000200000000000008004000000000008000002000200000000000000000000000000000000000000100000000000000000000000000000010004000004140000000000000000000000000000000000000004000000000000000000000020009000000000000000000000000000000000001000000000100000000000000000002000000000000000000000000000000000000000000000000000000000010000000001004000000001000000000002020000000000000000000000004","miner":"0x0000000000000000000000000000000000000000","mixHash":"0x0000000000000000000000000000000000000000000000000000000000000000","nonce":"0x0000000000000000","number":"0xd00348","parentHash":"0xe012f3151b95e460f8ebbd4012992accbc36788c793e389db6a262b8e4395df7","receiptsRoot":"0xf333dc43a458aa813511cb737202821f7871134304dc594a159ab43a8509ea71","sha3Uncles":"0x1dcc4de8dec75d7aab85b567b6ccd41ad312451b948a7413f0a142fd40d49347","size":"0x3f8","stateRoot":"0x86d3e4489a36f34dbad90b26653c7becf933a3b957d994df4ff3083e7a83abd9","timestamp":"0x65243e70","totalDifficulty":"0x1a00691","transactions":[{"blockHash":"0x01ed3bdf9c8e0b187907c31f07fe120e4bbcb554a79d16ec55406bcf97798b55","blockNumber":"0xd00348","from":"0x0f62abf945622381cf128d3568fef20660798126","gas":"0x2542f","gasPrice":"0x2faf080","hash":"0xf97bbfc6fc23c9b36736e2549d829bc644a7baded8dbdd14240268ddb07afb97","index":"0xd00347","input":"0x75ceafe6000000000000000000000000000000000000000000000000000000000000002000000000000000000000000000000000000000000000000000000000000000a00000000000000000000000000f62abf945622381cf128d3568fef206607981260000000000000000000000000000000000000000000000000001550f7dca7000000000000000000000000000000000000000000000000000000000000008cf610000000000000000000000000000000000000000000000000000000065243e90000000000000000000000000000000000000000000000000000000000000002bdeaddeaddeaddeaddeaddeaddeaddeaddead1111000bb8201eba5cc46d216ce6dc03f6a759e8e766e956ae000000000000000000000000000000000000000000","l1BlockNumber":"0x11774e7","l1Timestamp":"0x65243e70","l1TxOrigin":null,"nonce":"0x8e5","queueIndex":null,"queueOrigin":"sequencer","r":"0x4e9dd9ea4606259c165d9def5b77acf5705c6394fa45f8a94ae81960cfeac9c4","rawTransaction":"0xf9018e8208e58402faf0808302542f9425c030116feb2e7bba054b9de0915e5f51b03e3180b9012475ceafe6000000000000000000000000000000000000000000000000000000000000002000000000000000000000000000000000000000000000000000000000000000a00000000000000000000000000f62abf945622381cf128d3568fef206607981260000000000000000000000000000000000000000000000000001550f7dca7000000000000000000000000000000000000000000000000000000000000008cf610000000000000000000000000000000000000000000000000000000065243e90000000000000000000000000000000000000000000000000000000000000002bdeaddeaddeaddeaddeaddeaddeaddeaddead1111000bb8201eba5cc46d216ce6dc03f6a759e8e766e956ae000000000000000000000000000000000000000000822733a04e9dd9ea4606259c165d9def5b77acf5705c6394fa45f8a94ae81960cfeac9c4a0269f992580fa87f77536b6ca7d8a4b891dbaac9d1c312ba02d2a99a1958870c1","s":"0x269f992580fa87f77536b6ca7d8a4b891dbaac9d1c312ba02d2a99a1958870c1","to":"0x25c030116feb2e7bba054b9de0915e5f51b03e31","transactionIndex":"0x0","v":"0x2733","value":"0x0"}],"transactionsRoot":"0x2b946ff74b2822d5aa9679732b6f5aedc38267d25e62f6a7a1de4ede1c0e894a","uncles":[]},"receipts":{"0xf97bbfc6fc23c9b36736e2549d829bc644a7baded8dbdd14240268ddb07afb97":{"blockHash":"0x01ed3bdf9c8e0b187907c31f07fe120e4bbcb554a79d16ec55406bcf97798b55","blockNumber":"0xd00348","from":"0x0f62abf945622381cf128d3568fef20660798126","gas":"0x2542f","gasPrice":"0x2faf080","hash":"0xf97bbfc6fc23c9b36736e2549d829bc644a7baded8dbdd14240268ddb07afb97","index":"0xd00347","input":"0x75ceafe6000000000000000000000000000000000000000000000000000000000000002000000000000000000000000000000000000000000000000000000000000000a00000000000000000000000000f62abf945622381cf128d3568fef206607981260000000000000000000000000000000000000000000000000001550f7dca7000000000000000000000000000000000000000000000000000000000000008cf610000000000000000000000000000000000000000000000000000000065243e90000000000000000000000000000000000000000000000000000000000000002bdeaddeaddeaddeaddeaddeaddeaddeaddead1111000bb8201eba5cc46d216ce6dc03f6a759e8e766e956ae000000000000000000000000000000000000000000","l1BlockNumber":"0x11774e7","l1Timestamp":"0x65243e70","l1TxOrigin":null,"nonce":"0x8e5","queueIndex":null,"queueOrigin":"sequencer","r":"0x4e9dd9ea4606259c165d9def5b77acf5705c6394fa45f8a94ae81960cfeac9c4","rawTransaction":"0xf9018e8208e58402faf0808302542f9425c030116feb2e7bba054b9de0915e5f51b03e3180b9012475ceafe6000000000000000000000000000000000000000000000000000000000000002000000000000000000000000000000000000000000000000000000000000000a00000000000000000000000000f62abf945622381cf128d3568fef206607981260000000000000000000000000000000000000000000000000001550f7dca7000000000000000000000000000000000000000000000000000000000000008cf610000000000000000000000000000000000000000000000000000000065243e90000000000000000000000000000000000000000000000000000000000000002bdeaddeaddeaddeaddeaddeaddeaddeaddead1111000bb8201eba5cc46d216ce6dc03f6a759e8e766e956ae000000000000000000000000000000000000000000822733a04e9dd9ea4606259c165d9def5b77acf5705c6394fa45f8a94ae81960cfeac9c4a0269f992580fa87f77536b6ca7d8a4b891dbaac9d1c312ba02d2a99a1958870c1","s":"0x269f992580fa87f77536b6ca7d8a4b891dbaac9d1c312ba02d2a99a1958870c1","to":"0x25c030116feb2e7bba054b9de0915e5f51b03e31","transactionIndex":"0x0","v":"0x2733","value":"0x0","contractAddress":null,"cumulativeGasUsed":"0x23bb1","daFee":"0x0","daGasPrice":"0x0","daGasUsed":"0x14c","gasUsed":"0x23bb1","l1Fee":"0x19709d787180660","l1FeeScalar":"1","l1GasPrice":"0x38a987f04864","l1GasUsed":"0x72f","logs":[{"address":"0x201eba5cc46d216ce6dc03f6a759e8e766e956ae","blockHash":"0x01ed3bdf9c8e0b187907c31f07fe120e4bbcb554a79d16ec55406bcf97798b55","blockNumber":"0xd00348","data":"0x000000000000000000000000000000000000000000000000000000000008fd69","logIndex":"0x0","removed":false,"topics":["0xddf252ad1be2c89b69c2b068fc378daa952ba7f163c4a11628f55a4df523b3ef","0x000000000000000000000000be18aad013699c1cdd903cb3e6d596ef99c37650","0x0000000000000000000000000f62abf945622381cf128d3568fef20660798126"],"transactionHash":"0xf97bbfc6fc23c9b36736e2549d829bc644a7baded8dbdd14240268ddb07afb97","transactionIndex":"0x0"},{"address":"0xdeaddeaddeaddeaddeaddeaddeaddeaddead1111","blockHash":"0x01ed3bdf9c8e0b187907c31f07fe120e4bbcb554a79d16ec55406bcf97798b55","blockNumber":"0xd00348","data":"0x0000000000000000000000000000000000000000000000000001550f7dca6025","logIndex":"0x1","removed":false,"topics":["0xddf252ad1be2c89b69c2b068fc378daa952ba7f163c4a11628f55a4df523b3ef","0x0000000000000000000000000f62abf945622381cf128d3568fef20660798126","0x000000000000000000000000be18aad013699c1cdd903cb3e6d596ef99c37650"],"transactionHash":"0xf97bbfc6fc23c9b36736e2549d829bc644a7baded8dbdd14240268ddb07afb97","transactionIndex":"0x0"},{"address":"0xdeaddeaddeaddeaddeaddeaddeaddeaddead1111","blockHash":"0x01ed3bdf9c8e0b187907c31f07fe120e4bbcb554a79d16ec55406bcf97798b55","blockNumber":"0xd00348","data":"0xffffffffffffffffffffffffffffffffffffffffffffffffffc72ca1dad69383","logIndex":"0x2","removed":false,"topics":["0x8c5be1e5ebec7d5bd14f71427d1e84f3dd0314c0f7b2291e5b200ac8c7c3b925","0x0000000000000000000000000f62abf945622381cf128d3568fef20660798126","0x00000000000000000000000025c030116feb2e7bba054b9de0915e5f51b03e31"],"transactionHash":"0xf97bbfc6fc23c9b36736e2549d829bc644a7baded8dbdd14240268ddb07afb97","transactionIndex":"0x0"},{"address":"0xbe18aad013699c1cdd903cb3e6d596ef99c37650","blockHash":"0x01ed3bdf9c8e0b187907c31f07fe120e4bbcb554a79d16ec55406bcf97798b55","blockNumber":"0xd00348","data":"0x0000000000000000000000000000000000000000000000000000000000000000000000000000000000000000000000000000000000000000000000000008fd690000000000000000000000000000000000000000000000000001550f7dca602500000000000000000000000000000000000000000000000000000000000317c7","logIndex":"0x3","removed":false,"topics":["0x0fe977d619f8172f7fdbe8bb8928ef80952817d96936509f67d66346bc4cd10f","0x000000000000000000000000201eba5cc46d216ce6dc03f6a759e8e766e956ae","0x000000000000000000000000deaddeaddeaddeaddeaddeaddeaddeaddead1111","0x0000000000000000000000000000000000000000000000000000000000000bb8"],"transactionHash":"0xf97bbfc6fc23c9b36736e2549d829bc644a7baded8dbdd14240268ddb07afb97","transactionIndex":"0x0"}],"logsBloom":"0x00000000000001000000000001002000000020000001000000000000000000000000000000000000000000000000000020000100000000040080000000200000000000000200000000000008004000000000008000002000200000000000000000000000000000000000000100000000000000000000000000000010004000004140000000000000000000000000000000000000004000000000000000000000020009000000000000000000000000000000000001000000000100000000000000000002000000000000000000000000000000000000000000000000000000000010000000001004000000001000000000002020000000000000000000000004","status":"0x1","transactionHash":"0xf97bbfc6fc23c9b36736e2549d829bc644a7baded8dbdd14240268ddb07afb97"}}}