{"block":{"difficulty":"0x2","extraData":"0xd98301090a846765746889676f312e31352e3133856c696e757800000000000054c49794190e3ff50dfd7ad8c5efcee92adef2710cfdbe1c8ea512df3848830441609bfa94dd23b7a9615473a84c5e9e3d0db4e702e537261583ffe8a31f600a01","gasLimit":"0x1c9c380","gasUsed":"0x1d1f1","hash":"0x8b77576ad69a5d4c5d98deafb0d318d3b631faad1e29dfc9c35ff89f179b68a1","logsBloom":"0x40000000000000000000000000000000000000000001008800000000000000000000000000000000000000000002000000000000000000000000000000200000840000000040000000000008000000000000008000002004000000000000000000000001000000000000000100000000000000000000000000000010000000000000000000000000000000000000000000000000000000000008000000000000020000000800000000000000000000000000000001000020000100000000000000000002000000000000000000000000000000000000000800000000000000000010000000001000010000000000000000000000000000000000000000000000","miner":"0x0000000000000000000000000000000000000000","mixHash":"0x0000000000000000000000000000000000000000000000000000000000000000","nonce":"0x0000000000000000","number":"0xd0033e","parentHash":"0xc4469d82a9944b6fe7b54dbd0252de7847166bb3843e09649039acb213accf67","receiptsRoot":"0x20b954627c7ccf7125ecea202a0ee9074e356f63043cda536f3fe07dffd27480","sha3Uncles":"0x1dcc4de8dec75d7aab85b567b6ccd41ad312451b948a7413f0a142fd40d49347","size":"0x3d8","stateRoot":"0x9efffe2527439017c2470403787016bade0e5da3f9f78f0b84a74184ee4bcc04","timestamp":"0x65243e6b","totalDifficulty":"0x1a0067d","transactions":[{"blockHash":"0x8b77576ad69a5d4c5d98deafb0d318d3b631faad1e29dfc9c35ff89f179b68a1","blockNumber":"0xd0033e","from":"0xc3dc0211a8737363a55a93d20b5e9f37286d400f","gas":"0x1e942","gasPrice":"0x2faf080","hash":"0x4f9808181baad789f64290aee92de72fd8cadf1a047fb79bc434abec289d6c89","index":"0xd0033d","input":"0x414bf389000000000000000000000000deaddeaddeaddeaddeaddeaddeaddeaddead1111000000000000000000000000201eba5cc46d216ce6dc03f6a759e8e766e956ae00000000000000000000000000000000000000000000000000000000000001f4000000000000000000000000c3dc0211a8737363a55a93d20b5e9f37286d400f0000000000000000000000000000000000000000000000000000000065243e8d0000000000000000000000000000000000000000000000000002386f26fc100000000000000000000000000000000000000000000000000000000000000ee0ff0000000000000000000000000000000000000000000000000000000000000000","l1BlockNumber":"0x11774e7","l1Timestamp":"0x65243e6b","l1TxOrigin":null,"nonce":"0x930","queueIndex":null,"queueOrigin":"sequencer","r":"0xdec130cc064ce47b6e60b194019c48d16d1ebf451729cd41135ef31557258f0c","rawTransaction":"0xf9016e8209308402faf0808301e94294319b69888b0d11cec22caa5034e25fffbdc8842180b90104414bf389000000000000000000000000deaddeaddeaddeaddeaddeaddeaddeaddead1111000000000000000000000000201eba5cc46d216ce6dc03f6a759e8e766e956ae00000000000000000000000000000000000000000000000000000000000001f4000000000000000000000000c3dc0211a8737363a55a93d20b5e9f37286d400f0000000000000000000000000000000000000000000000000000000065243e8d0000000000000000000000000000000000000000000000000002386f26fc100000000000000000000000000000000000000000000000000000000000000ee0ff0000000000000000000000000000000000000000000000000000000000000000822733a0dec130cc064ce47b6e60b194019c48d16d1ebf451729cd41135ef31557258f0ca07a6b3ee737e753518035fccb6264cc5159c2664572abf43b74107faba97bff2a","s":"0x7a6b3ee737e753518035fccb6264cc5159c2664572abf43b74107faba97bff2a","to":"0x319b69888b0d11cec22caa5034e25fffbdc88421","transactionIndex":"0x0","v":"0x2733","value":"0x0"}],"transactionsRoot":"0xd00fc8b64156de99c28c5cc183c8795540da8c586ec7e0bd71074d86360acab1","uncles":[]},"receipts":{"0x4f9808181baad789f64290aee92de72fd8cadf1a047fb79bc434abec289d6c89":{"blockHash":"0x8b77576ad69a5d4c5d98deafb0d318d3b631faad1e29dfc9c35ff89f179b68a1","blockNumber":"0xd0033e","from":"0xc3dc0211a8737363a55a93d20b5e9f37286d400f","gas":"0x1e942","gasPrice":"0x2faf080","hash":"0x4f9808181baad789f64290aee92de72fd8cadf1a047fb79bc434abec289d6c89","index":"0xd0033d","input":"0x414bf389000000000000000000000000deaddeaddeaddeaddeaddeaddeaddeaddead1111000000000000000000000000201eba5cc46d216ce6dc03f6a759e8e766e956ae00000000000000000000000000000000000000000000000000000000000001f4000000000000000000000000c3dc0211a8737363a55a93d20b5e9f37286d400f0000000000000000000000000000000000000000000000000000000065243e8d0000000000000000000000000000000000000000000000000002386f26fc100000000000000000000000000000000000000000000000000000000000000ee0ff0000000000000000000000000000000000000000000000000000000000000000","l1BlockNumber":"0x11774e7","l1Timestamp":"0x65243e6b","l1TxOrigin":null,"nonce":"0x930","queueIndex":null,"queueOrigin":"sequencer","r":"0xdec130cc064ce47b6e60b194019c48d16d1ebf451729cd41135ef31557258f0c","rawTransaction":"0xf9016e8209308402faf0808301e94294319b69888b0d11cec22caa5034e25fffbdc8842180b90104414bf389000000000000000000000000deaddeaddeaddeaddeaddeaddeaddeaddead1111000000000000000000000000201eba5cc46d216ce6dc03f6a759e8e766e956ae00000000000000000000000000000000000000000000000000000000000001f4000000000000000000000000c3dc0211a8737363a55a93d20b5e9f37286d400f0000000000000000000000000000000000000000000000000000000065243e8d0000000000000000000000000000000000000000000000000002386f26fc100000000000000000000000000000000000000000000000000000000000000ee0ff0000000000000000000000000000000000000000000000000000000000000000822733a0dec130cc064ce47b6e60b194019c48d16d1ebf451729cd41135ef31557258f0ca07a6b3ee737e753518035fccb6264cc5159c2664572abf43b74107faba97bff2a","s":"0x7a6b3ee737e753518035fccb6264cc5159c2664572abf43b74107faba97bff2a","to":"0x319b69888b0d11cec22caa5034e25fffbdc88421","transactionIndex":"0x0","v":"0x2733","value":"0x0","contractAddress":null,"cumulativeGasUsed":"0x1d1f1","daFee":"0x0","daGasPrice":"0x0","daGasUsed":"0x12c","gasUsed":"0x1d1f1","l1Fee":"0x19709d787180660","l1FeeScalar":"1","l1GasPrice":"0x38a987f04864","l1GasUsed":"0x72f","logs":[{"address":"0x201eba5cc46d216ce6dc03f6a759e8e766e956ae","blockHash":"0x8b77576ad69a5d4c5d98deafb0d318d3b631faad1e29dfc9c35ff89f179b68a1","blockNumber":"0xd0033e","data":"0x00000000000000000000000000000000000000000000000000000000000f2ebc","logIndex":"0x0","removed":false,"topics":["0xddf252ad1be2c89b69c2b068fc378daa952ba7f163c4a11628f55a4df523b3ef","0x000000000000000000000000628f7131cf43e88ebe3921ae78c4ba0c31872bd4","0x000000000000000000000000c3dc0211a8737363a55a93d20b5e9f37286d400f"],"transactionHash":"0x4f9808181baad789f64290aee92de72fd8cadf1a047fb79bc434abec289d6c89","transactionIndex":"0x0"},{"address":"0xdeaddeaddeaddeaddeaddeaddeaddeaddead1111","blockHash":"0x8b77576ad69a5d4c5d98deafb0d318d3b631faad1e29dfc9c35ff89f179b68a1","blockNumber":"0xd0033e","data":"0x0000000000000000000000000000000000000000000000000002386f26fc1000","logIndex":"0x1","removed":false,"topics":["0xddf252ad1be2c89b69c2b068fc378daa952ba7f163c4a11628f55a4df523b3ef","0x000000000000000000000000c3dc0211a8737363a55a93d20b5e9f37286d400f","0x000000000000000000000000628f7131cf43e88ebe3921ae78c4ba0c31872bd4"],"transactionHash":"0x4f9808181baad789f64290aee92de72fd8cadf1a047fb79bc434abec289d6c89","transactionIndex":"0x0"},{"address":"0xdeaddeaddeaddeaddeaddeaddeaddeaddead1111","blockHash":"0x8b77576ad69a5d4c5d98deafb0d318d3b631faad1e29dfc9c35ff89f179b68a1","blockNumber":"0xd0033e","data":"0xfffffffffffffffffffffffffffffffffffffffffffffffffd75094929ce1fff","logIndex":"0x2","removed":false,"topics":["0x8c5be1e5ebec7d5bd14f71427d1e84f3dd0314c0f7b2291e5b200ac8c7c3b925","0x000000000000000000000000c3dc0211a8737363a55a93d20b5e9f37286d400f","0x000000000000000000000000319b69888b0d11cec22caa5034e25fffbdc88421"],"transactionHash":"0x4f9808181baad789f64290aee92de72fd8cadf1a047fb79bc434abec289d6c89","transactionIndex":"0x0"},{"address":"0x628f7131cf43e88ebe3921ae78c4ba0c31872bd4","blockHash":"0x8b77576ad69a5d4c5d98deafb0d318d3b631faad1e29dfc9c35ff89f179b68a1","blockNumber":"0xd0033e","data":"0xfffffffffffffffffffffffffffffffffffffffffffffffffffffffffff0d1440000000000000000000000000000000000000000000000000002386f26fc100000000000000000000000000000000000000061e6cfe7b4bfd0d89688dd8b22db00000000000000000000000000000000000000000000000000002c65dde06c200000000000000000000000000000000000000000000000000000000000031760000000000000000000000000000000000000000000000000000000000000000000000000000000000000000000000000000000000000000000000018bcfe5680","logIndex":"0x3","removed":false,"topics":["0x19b47279256b2a23a1665c810c8d55a1758940ee09377d4f8d26497a3577dc83","0x000000000000000000000000319b69888b0d11cec22caa5034e25fffbdc88421","0x000000000000000000000000c3dc0211a8737363a55a93d20b5e9f37286d400f"],"transactionHash":"0x4f9808181baad789f64290aee92de72fd8cadf1a047fb79bc434abec289d6c89","transactionIndex":"0x0"}],"logsBloom":"0x40000000000000000000000000000000000000000001008800000000000000000000000000000000000000000002000000000000000000000000000000200000840000000040000000000008000000000000008000002004000000000000000000000001000000000000000100000000000000000000000000000010000000000000000000000000000000000000000000000000000000000008000000000000020000000800000000000000000000000000000001000020000100000000000000000002000000000000000000000000000000000000000800000000000000000010000000001000010000000000000000000000000000000000000000000000","status":"0x1","transactionHash":"0x4f9808181baad789f64290aee92de72fd8cadf1a047fb79bc434abec289d6c89"}}}