{"block":{"difficulty":"0x2","extraData":"0xd98301090a846765746889676f312e31352e3133856c696e75780000000000001c1d3b8c16316e8f5794ed48d37ab5dcec8256dbecf109cf094a334f78fa8a6377325f99f3233ee36fa89886530d3212da53dab2ba5f1ea33713cff47ab7532d01","gasLimit":"0x1c9c380","gasUsed":"0x204dd","hash":"0xd1c6c316efac0e36599d921784cf85c95a703b9a022e0b7f147b942593795540","logsBloom":"0x0000000000000000000000000000000000004080000100880000000000000000000000000000000000000000000200000000000000200000000000000000000004800000004400000000000800000000000000c000002000000000000000000000000000000000000000000008000000000000100000800000000010000000000000000000000000000000000000000000000000000000000000000000000000000000000000000000000000000000000000000001000000000000000000000000000002000000000000000000000000002000000000000000000000000000000000000000000000000000000000000000000000000010000000000000000010","miner":"0x0000000000000000000000000000000000000000","mixHash":"0x0000000000000000000000000000000000000000000000000000000000000000","nonce":"0x0000000000000000","number":"0xd001c6","parentHash":"0x8e5a4d02f9cfe178fb1f9111c158d137a707ca48c95874920f11d27c402ffacb","receiptsRoot":"0x846617800e76f606239c511498a3fb507e7ac3aa6e489b86f8b3d0079be33848","sha3Uncles":"0x1dcc4de8dec75d7aab85b567b6ccd41ad312451b948a7413f0a142fd40d49347","size":"0x3d8","stateRoot":"0xe921ddd05d71acdb26726d5ff2453f600826e79a52c1f564280b38414c06b5e1","timestamp":"0x65243daa","totalDifficulty":"0x1a0038d","transactions":[{"blockHash":"0xd1c6c316efac0e36599d921784cf85c95a703b9a022e0b7f147b942593795540","blockNumber":"0xd001c6","from":"0x94cdbb06d61c6d311ed5aefb137a76a14af0d010","gas":"0x21d08","gasPrice":"0x2faf080","hash":"0x031a3d98ed135670af4ccafafeba748224e2b0c517c8b271e6e110fc04e97a1e","index":"0xd001c5","input":"0x414bf38900000000000000000000000009bc4e0d864854c6afb6eb9a9cdf58ac190d0df9000000000000000000000000201eba5cc46d216ce6dc03f6a759e8e766e956ae000000000000000000000000000000000000000000000000000000000000006400000000000000000000000094cdbb06d61c6d311ed5aefb137a76a14af0d0100000000000000000000000000000000000000000000000000000000065243dcc00000000000000000000000000000000000000000000000000000000001339e0000000000000000000000000000000000000000000000000000000000012d55a0000000000000000000000000000000000000000000000000000000000000000","l1BlockNumber":"0x11774d7","l1Timestamp":"0x65243daa","l1TxOrigin":null,"nonce":"0x10d9","queueIndex":null,"queueOrigin":"sequencer","r":"0x581d54654603f8e8848710b827a61a72a6f2dc044bc0c62b06334bda59410e3b","rawTransaction":"0xf9016e8210d98402faf08083021d0894319b69888b0d11cec22caa5034e25fffbdc8842180b90104414bf38900000000000000000000000009bc4e0d864854c6afb6eb9a9cdf58ac190d0df9000000000000000000000000201eba5cc46d216ce6dc03f6a759e8e766e956ae000000000000000000000000000000000000000000000000000000000000006400000000000000000000000094cdbb06d61c6d311ed5aefb137a76a14af0d0100000000000000000000000000000000000000000000000000000000065243dcc00000000000000000000000000000000000000000000000000000000001339e0000000000000000000000000000000000000000000000000000000000012d55a0000000000000000000000000000000000000000000000000000000000000000822734a0581d54654603f8e8848710b827a61a72a6f2dc044bc0c62b06334bda59410e3ba04d0ffe20dfd516fa85e2b25cf05968f7cf3c6637ad22262042cc9e0869ff9af7","s":"0x4d0ffe20dfd516fa85e2b25cf05968f7cf3c6637ad22262042cc9e0869ff9af7","to":"0x319b69888b0d11cec22caa5034e25fffbdc88421","transactionIndex":"0x0","v":"0x2734","value":"0x0"}],"transactionsRoot":"0x5b7b34211af10ae602951badb7bf507cda03b82087174bd449d2ebd165cbb592","uncles":[]},"receipts":{"0x031a3d98ed135670af4ccafafeba748224e2b0c517c8b271e6e110fc04e97a1e":{"blockHash":"0xd1c6c316efac0e36599d921784cf85c95a703b9a022e0b7f147b942593795540","blockNumber":"0xd001c6","from":"0x94cdbb06d61c6d311ed5aefb137a76a14af0d010","gas":"0x21d08","gasPrice":"0x2faf080","hash":"0x031a3d98ed135670af4ccafafeba748224e2b0c517c8b271e6e110fc04e97a1e","index":"0xd001c5","input":"0x414bf38900000000000000000000000009bc4e0d864854c6afb6eb9a9cdf58ac190d0df9000000000000000000000000201eba5cc46d216ce6dc03f6a759e8e766e956ae000000000000000000000000000000000000000000000000000000000000006400000000000000000000000094cdbb06d61c6d311ed5aefb137a76a14af0d0100000000000000000000000000000000000000000000000000000000065243dcc00000000000000000000000000000000000000000000000000000000001339e0000000000000000000000000000000000000000000000000000000000012d55a0000000000000000000000000000000000000000000000000000000000000000","l1BlockNumber":"0x11774d7","l1Timestamp":"0x65243daa","l1TxOrigin":null,"nonce":"0x10d9","queueIndex":null,"queueOrigin":"sequencer","r":"0x581d54654603f8e8848710b827a61a72a6f2dc044bc0c62b06334bda59410e3b","rawTransaction":"0xf9016e8210d98402faf08083021d0894319b69888b0d11cec22caa5034e25fffbdc8842180b90104414bf38900000000000000000000000009bc4e0d864854c6afb6eb9a9cdf58ac190d0df9000000000000000000000000201eba5cc46d216ce6dc03f6a759e8e766e956ae000000000000000000000000000000000000000000000000000000000000006400000000000000000000000094cdbb06d61c6d311ed5aefb137a76a14af0d0100000000000000000000000000000000000000000000000000000000065243dcc00000000000000000000000000000000000000000000000000000000001339e0000000000000000000000000000000000000000000000000000000000012d55a0000000000000000000000000000000000000000000000000000000000000000822734a0581d54654603f8e8848710b827a61a72a6f2dc044bc0c62b06334bda59410e3ba04d0ffe20dfd516fa85e2b25cf05968f7cf3c6637ad22262042cc9e0869ff9af7","s":"0x4d0ffe20dfd516fa85e2b25cf05968f7cf3c6637ad22262042cc9e0869ff9af7","to":"0x319b69888b0d11cec22caa5034e25fffbdc88421","transactionIndex":"0x0","v":"0x2734","value":"0x0","contractAddress":null,"cumulativeGasUsed":"0x204dd","daFee":"0x0","daGasPrice":"0x0","daGasUsed":"0x12c","gasUsed":"0x204dd","l1Fee":"0x19709d787180660","l1FeeScalar":"1","l1GasPrice":"0x38a987f04864","l1GasUsed":"0x72f","logs":[{"address":"0x201eba5cc46d216ce6dc03f6a759e8e766e956ae","blockHash":"0xd1c6c316efac0e36599d921784cf85c95a703b9a022e0b7f147b942593795540","blockNumber":"0xd001c6","data":"0x00000000000000000000000000000000000000000000000000000000001337c0","logIndex":"0x0","removed":false,"topics":["0xddf252ad1be2c89b69c2b068fc378daa952ba7f163c4a11628f55a4df523b3ef","0x0000000000000000000000006488f911c6cd86c289aa319c5a826dcf8f1ca065","0x00000000000000000000000094cdbb06d61c6d311ed5aefb137a76a14af0d010"],"transactionHash":"0x031a3d98ed135670af4ccafafeba748224e2b0c517c8b271e6e110fc04e97a1e","transactionIndex":"0x0"},{"address":"0x09bc4e0d864854c6afb6eb9a9cdf58ac190d0df9","blockHash":"0xd1c6c316efac0e36599d921784cf85c95a703b9a022e0b7f147b942593795540","blockNumber":"0xd001c6","data":"0x00000000000000000000000000000000000000000000000000000000001339e0","logIndex":"0x1","removed":false,"topics":["0xddf252ad1be2c89b69c2b068fc378daa952ba7f163c4a11628f55a4df523b3ef","0x00000000000000000000000094cdbb06d61c6d311ed5aefb137a76a14af0d010","0x0000000000000000000000006488f911c6cd86c289aa319c5a826dcf8f1ca065"],"transactionHash":"0x031a3d98ed135670af4ccafafeba748224e2b0c517c8b271e6e110fc04e97a1e","transactionIndex":"0x0"},{"address":"0x6488f911c6cd86c289aa319c5a826dcf8f1ca065","blockHash":"0xd1c6c316efac0e36599d921784cf85c95a703b9a022e0b7f147b942593795540","blockNumber":"0xd001c6","data":"0x00000000000000000000000000000000000000000000000000000000001339e0ffffffffffffffffffffffffffffffffffffffffffffffffffffffffffecc8400000000000000000000000000000000000000000fff5211ef1753840e85e393a0000000000000000000000000000000000000000000000000000aa91ae904e92fffffffffffffffffffffffffffffffffffffffffffffffffffffffffffffffc00000000000000000000000000000000000000000000000000000000000000290000000000000000000000000000000000000000000000000000000000000000","logIndex":"0x2","removed":false,"topics":["0x19b47279256b2a23a1665c810c8d55a1758940ee09377d4f8d26497a3577dc83","0x000000000000000000000000319b69888b0d11cec22caa5034e25fffbdc88421","0x00000000000000000000000094cdbb06d61c6d311ed5aefb137a76a14af0d010"],"transactionHash":"0x031a3d98ed135670af4ccafafeba748224e2b0c517c8b271e6e110fc04e97a1e","transactionIndex":"0x0"}],"logsBloom":"0x0000000000000000000000000000000000004080000100880000000000000000000000000000000000000000000200000000000000200000000000000000000004800000004400000000000800000000000000c000002000000000000000000000000000000000000000000008000000000000100000800000000010000000000000000000000000000000000000000000000000000000000000000000000000000000000000000000000000000000000000000001000000000000000000000000000002000000000000000000000000002000000000000000000000000000000000000000000000000000000000000000000000000010000000000000000010","status":"0x1","transactionHash":"0x031a3d98ed135670af4ccafafeba748224e2b0c517c8b271e6e110fc04e97a1e"}}}