{"block":{"difficulty":"0x2","extraData":"0xd98301090a846765746889676f312e31352e3133856c696e75780000000000002e9c3d21272c81195ed16a5a5feb1aecd4cdd12c0f58f7bd972b4d5f7c57358d5e4e17490de2de2b8f81b455d38a95385451e9b190fa5ff3c9e31038ef5ed7c401","gasLimit":"0x1c9c380","gasUsed":"0x23ab3","hash":"0x9374c0927771aed2c282bd5f56c2809a63dd20ca9d9e6a47090ac5726b78a385","logsBloom":"0x00040000000010000000000000000000000000000001000200000000000000000000000000000000000800000002000000000000000000000000000000200000140000000040000000000008000000000000008000042000000000000000000000000000000000000000000000010000000000000000000000000010000000000000000100000000000000000000040000100000040000000000000040000000020000000000000000000000000000000000000000000000004000000000000000000002000000000000000000000000000000000000000000000000000000000010000000000000000000000000000000000000000000004000002000000000","miner":"0x0000000000000000000000000000000000000000","mixHash":"0x0000000000000000000000000000000000000000000000000000000000000000","nonce":"0x0000000000000000","number":"0xd00156","parentHash":"0xf468549454fb1e8b3d5748ae6f2c978652f91352794099f9bc574ae3ac1198cc","receiptsRoot":"0x572f72727f60f4eb9ebecaa84c663ecaa4d4f65a3146f9d4b64b1b5e59d1e333","sha3Uncles":"0x1dcc4de8dec75d7aab85b567b6ccd41ad312451b948a7413f0a142fd40d49347","size":"0x3d8","stateRoot":"0xc4a1e238ba0bf6339002cd82c627a3655a7d16c3f98742792b282f4dfcab10c9","timestamp":"0x65243d6d","totalDifficulty":"0x1a002ad","transactions":[{"blockHash":"0x9374c0927771aed2c282bd5f56c2809a63dd20ca9d9e6a47090ac5726b78a385","blockNumber":"0xd00156","from":"0xfa58732cc21c2cbb38c8bb9541a6829f379e0c96","gas":"0x253bc","gasPrice":"0x2faf080","hash":"0x99a5bcaf80e9366ba4e261f735c76838e69aea118d3e548406cc375057b78fac","index":"0xd00155","input":"0x414bf389000000000000000000000000201eba5cc46d216ce6dc03f6a759e8e766e956ae00000000000000000000000078c1b0c915c4faa5fffa6cabf0219da63d7f4cb800000000000000000000000000000000000000000000000000000000000001f4000000000000000000000000fa58732cc21c2cbb38c8bb9541a6829f379e0c960000000000000000000000000000000000000000000000000000000065243d8c0000000000000000000000000000000000000000000000000000000000118c3000000000000000000000000000000000000000000000000029e3eaa9057913fe0000000000000000000000000000000000000000000000000000000000000000","l1BlockNumber":"0x11774d1","l1Timestamp":"0x65243d6d","l1TxOrigin":null,"nonce":"0xdcb","queueIndex":null,"queueOrigin":"sequencer","r":"0x72b9c3c1a8692d108865f79620cc66153857175bfac25b5749e5b0757606325d","rawTransaction":"0xf9016e820dcb8402faf080830253bc945989fb161568b9f133edf5cf6787f5597762797f80b90104414bf389000000000000000000000000201eba5cc46d216ce6dc03f6a759e8e766e956ae00000000000000000000000078c1b0c915c4faa5fffa6cabf0219da63d7f4cb800000000000000000000000000000000000000000000000000000000000001f4000000000000000000000000fa58732cc21c2cbb38c8bb9541a6829f379e0c960000000000000000000000000000000000000000000000000000000065243d8c0000000000000000000000000000000000000000000000000000000000118c3000000000000000000000000000000000000000000000000029e3eaa9057913fe0000000000000000000000000000000000000000000000000000000000000000822733a072b9c3c1a8692d108865f79620cc66153857175bfac25b5749e5b0757606325da0063555ac9955a92ae77da891c02ba4b6a9dbdbe4405ad26db24218b8f302b9b6","s":"0x63555ac9955a92ae77da891c02ba4b6a9dbdbe4405ad26db24218b8f302b9b6","to":"0x5989fb161568b9f133edf5cf6787f5597762797f","transactionIndex":"0x0","v":"0x2733","value":"0x0"}],"transactionsRoot":"0x7656fb8344c3fa403fbb94c08c3a4551443a921eb6499e670f1ed7e5b633609c","uncles":[]},"receipts":{"0x99a5bcaf80e9366ba4e261f735c76838e69aea118d3e548406cc375057b78fac":{"blockHash":"0x9374c0927771aed2c282bd5f56c2809a63dd20ca9d9e6a47090ac5726b78a385","blockNumber":"0xd00156","from":"0xfa58732cc21c2cbb38c8bb9541a6829f379e0c96","gas":"0x253bc","gasPrice":"0x2faf080","hash":"0x99a5bcaf80e9366ba4e261f735c76838e69aea118d3e548406cc375057b78fac","index":"0xd00155","input":"0x414bf389000000000000000000000000201eba5cc46d216ce6dc03f6a759e8e766e956ae00000000000000000000000078c1b0c915c4faa5fffa6cabf0219da63d7f4cb800000000000000000000000000000000000000000000000000000000000001f4000000000000000000000000fa58732cc21c2cbb38c8bb9541a6829f379e0c960000000000000000000000000000000000000000000000000000000065243d8c0000000000000000000000000000000000000000000000000000000000118c3000000000000000000000000000000000000000000000000029e3eaa9057913fe0000000000000000000000000000000000000000000000000000000000000000","l1BlockNumber":"0x11774d1","l1Timestamp":"0x65243d6d","l1TxOrigin":null,"nonce":"0xdcb","queueIndex":null,"queueOrigin":"sequencer","r":"0x72b9c3c1a8692d108865f79620cc66153857175bfac25b5749e5b0757606325d","rawTransaction":"0xf9016e820dcb8402faf080830253bc945989fb161568b9f133edf5cf6787f5597762797f80b90104414bf389000000000000000000000000201eba5cc46d216ce6dc03f6a759e8e766e956ae00000000000000000000000078c1b0c915c4faa5fffa6cabf0219da63d7f4cb800000000000000000000000000000000000000000000000000000000000001f4000000000000000000000000fa58732cc21c2cbb38c8bb9541a6829f379e0c960000000000000000000000000000000000000000000000000000000065243d8c0000000000000000000000000000000000000000000000000000000000118c3000000000000000000000000000000000000000000000000029e3eaa9057913fe0000000000000000000000000000000000000000000000000000000000000000822733a072b9c3c1a8692d108865f79620cc66153857175bfac25b5749e5b0757606325da0063555ac9955a92ae77da891c02ba4b6a9dbdbe4405ad26db24218b8f302b9b6","s":"0x63555ac9955a92ae77da891c02ba4b6a9dbdbe4405ad26db24218b8f302b9b6","to":"0x5989fb161568b9f133edf5cf6787f5597762797f","transactionIndex":"0x0","v":"0x2733","value":"0x0","contractAddress":null,"cumulativeGasUsed":"0x23ab3","daFee":"0x0","daGasPrice":"0x0","daGasUsed":"0x12c","gasUsed":"0x23ab3","l1Fee":"0x1a09f6380cb9fe0","l1FeeScalar":"1","l1GasPrice":"0x39ff1464e55c","l1GasUsed":"0x72f","logs":[{"address":"0x78c1b0c915c4faa5fffa6cabf0219da63d7f4cb8","blockHash":"0x9374c0927771aed2c282bd5f56c2809a63dd20ca9d9e6a47090ac5726b78a385","blockNumber":"0xd00156","data":"0x0000000000000000000000000000000000000000000000002abec5a73f0dd5b5","logIndex":"0x0","removed":false,"topics":["0xddf252ad1be2c89b69c2b068fc378daa952ba7f163c4a11628f55a4df523b3ef","0x000000000000000000000000262255f4770aebe2d0c8b97a46287dcecc2a0aff","0x000000000000000000000000fa58732cc21c2cbb38c8bb9541a6829f379e0c96"],"transactionHash":"0x99a5bcaf80e9366ba4e261f735c76838e69aea118d3e548406cc375057b78fac","transactionIndex":"0x0"},{"address":"0x201eba5cc46d216ce6dc03f6a759e8e766e956ae","blockHash":"0x9374c0927771aed2c282bd5f56c2809a63dd20ca9d9e6a47090ac5726b78a385","blockNumber":"0xd00156","data":"0x0000000000000000000000000000000000000000000000000000000000118c30","logIndex":"0x1","removed":false,"topics":["0xddf252ad1be2c89b69c2b068fc378daa952ba7f163c4a11628f55a4df523b3ef","0x000000000000000000000000fa58732cc21c2cbb38c8bb9541a6829f379e0c96","0x000000000000000000000000262255f4770aebe2d0c8b97a46287dcecc2a0aff"],"transactionHash":"0x99a5bcaf80e9366ba4e261f735c76838e69aea118d3e548406cc375057b78fac","transactionIndex":"0x0"},{"address":"0x201eba5cc46d216ce6dc03f6a759e8e766e956ae","blockHash":"0x9374c0927771aed2c282bd5f56c2809a63dd20ca9d9e6a47090ac5726b78a385","blockNumber":"0xd00156","data":"0xfffffffffffffffffffffffffffffffffffffffffffffffffffffffff9be48ef","logIndex":"0x2","removed":false,"topics":["0x8c5be1e5ebec7d5bd14f71427d1e84f3dd0314c0f7b2291e5b200ac8c7c3b925","0x000000000000000000000000fa58732cc21c2cbb38c8bb9541a6829f379e0c96","0x0000000000000000000000005989fb161568b9f133edf5cf6787f5597762797f"],"transactionHash":"0x99a5bcaf80e9366ba4e261f735c76838e69aea118d3e548406cc375057b78fac","transactionIndex":"0x0"},{"address":"0x262255f4770aebe2d0c8b97a46287dcecc2a0aff","blockHash":"0x9374c0927771aed2c282bd5f56c2809a63dd20ca9d9e6a47090ac5726b78a385","blockNumber":"0xd00156","data":"0x0000000000000000000000000000000000000000000000000000000000118c30ffffffffffffffffffffffffffffffffffffffffffffffffd5413a58c0f22a4b000000000000000000000000000000000018fa72f8e9fc7329425fc7a2da069500000000000000000000000000000000000000000000000025235183d5a62c890000000000000000000000000000000000000000000000000000000000045de500000000000000000000000000000000000000000000000000000000000000c30000000000000000000000000000000000000000000000000000000000000000","logIndex":"0x3","removed":false,"topics":["0x19b47279256b2a23a1665c810c8d55a1758940ee09377d4f8d26497a3577dc83","0x0000000000000000000000005989fb161568b9f133edf5cf6787f5597762797f","0x000000000000000000000000fa58732cc21c2cbb38c8bb9541a6829f379e0c96"],"transactionHash":"0x99a5bcaf80e9366ba4e261f735c76838e69aea118d3e548406cc375057b78fac","transactionIndex":"0x0"}],"logsBloom":"0x00040000000010000000000000000000000000000001000200000000000000000000000000000000000800000002000000000000000000000000000000200000140000000040000000000008000000000000008000042000000000000000000000000000000000000000000000010000000000000000000000000010000000000000000100000000000000000000040000100000040000000000000040000000020000000000000000000000000000000000000000000000004000000000000000000002000000000000000000000000000000000000000000000000000000000010000000000000000000000000000000000000000000004000002000000000","status":"0x1","transactionHash":"0x99a5bcaf80e9366ba4e261f735c76838e69aea118d3e548406cc375057b78fac"}}}