{"block":{"difficulty":"0x2","extraData":"0xd98301090a846765746889676f312e31352e3133856c696e75780000000000003ea986b9abbb62fdcb51e5b0129b3aae892d9485d30f7daad4720239d0a5b64730c6caf94f192f4bba6c723cfb5c32de57f45d05ae3e9e1833b47032fe9fd18700","gasLimit":"0x1c9c380","gasUsed":"0x1e33f","hash":"0x09dc1df30ea9055879c17c969f3f6e475f1cd9970ac45e45038f7dea7b5db08d","logsBloom":"0x00000000000000000000000000000000000000000001008800000000001000000004000000000000000000000002000000000000000000000000000000200000140000000040000000000008000000000000008000042000000200000000000000000000000000000000000000000080000000000000200000000010000000000000000000000000000000000000000000100000000000000000000000000040020000000000000000000000000200000000000001000000000000000000000100000002000000000000000000000000000000000000000000000010000000000010000000000000000000000000000000000000000000000000000000000000","miner":"0x0000000000000000000000000000000000000000","mixHash":"0x0000000000000000000000000000000000000000000000000000000000000000","nonce":"0x0000000000000000","number":"0xd00184","parentHash":"0x9536ddad13675df168be710e905090f4babfff2a95b90e614ff01585b53fd104","receiptsRoot":"0xefb2a9a7d528bdfa9204a6253ae2555122d6c1328d22b467ad001b67f24c310e","sha3Uncles":"0x1dcc4de8dec75d7aab85b567b6ccd41ad312451b948a7413f0a142fd40d49347","size":"0x3d8","stateRoot":"0xa7624a91409c3e76c68d82d35c2f9f908046dd27de15f021dd0432187ead9efd","timestamp":"0x65243d81","totalDifficulty":"0x1a00309","transactions":[{"blockHash":"0x09dc1df30ea9055879c17c969f3f6e475f1cd9970ac45e45038f7dea7b5db08d","blockNumber":"0xd00184","from":"0x75dad89d46e687e99e11d558207654a927fee778","gas":"0x1fae0","gasPrice":"0x2faf080","hash":"0xd88bf3b23b55bfe19ce20d12ca053ab4fe9b978b026532eef1c4d77cac198e80","index":"0xd00183","input":"0x414bf389000000000000000000000000201eba5cc46d216ce6dc03f6a759e8e766e956ae00000000000000000000000078c1b0c915c4faa5fffa6cabf0219da63d7f4cb800000000000000000000000000000000000000000000000000000000000001f400000000000000000000000075dad89d46e687e99e11d558207654a927fee7780000000000000000000000000000000000000000000000000000000065243da10000000000000000000000000000000000000000000000000000000000100590000000000000000000000000000000000000000000000000262c37180c55750f0000000000000000000000000000000000000000000000000000000000000000","l1BlockNumber":"0x11774d3","l1Timestamp":"0x65243d81","l1TxOrigin":null,"nonce":"0xba5","queueIndex":null,"queueOrigin":"sequencer","r":"0x6aba9acfcce530f436bc6d6b968920f4ed2c4f85af2befe2c2d493c8f956f573","rawTransaction":"0xf9016e820ba58402faf0808301fae094319b69888b0d11cec22caa5034e25fffbdc8842180b90104414bf389000000000000000000000000201eba5cc46d216ce6dc03f6a759e8e766e956ae00000000000000000000000078c1b0c915c4faa5fffa6cabf0219da63d7f4cb800000000000000000000000000000000000000000000000000000000000001f400000000000000000000000075dad89d46e687e99e11d558207654a927fee7780000000000000000000000000000000000000000000000000000000065243da10000000000000000000000000000000000000000000000000000000000100590000000000000000000000000000000000000000000000000262c37180c55750f0000000000000000000000000000000000000000000000000000000000000000822733a06aba9acfcce530f436bc6d6b968920f4ed2c4f85af2befe2c2d493c8f956f573a00658867ff4db1ab1d7dda6762c8b7e3a8efeeb7f520e86948eb07a8c952e50ca","s":"0x658867ff4db1ab1d7dda6762c8b7e3a8efeeb7f520e86948eb07a8c952e50ca","to":"0x319b69888b0d11cec22caa5034e25fffbdc88421","transactionIndex":"0x0","v":"0x2733","value":"0x0"}],"transactionsRoot":"0x8981aa5c990b41b9681604135e0cdb2958875a2dce3f589feca11b0997f75c72","uncles":[]},"receipts":{"0xd88bf3b23b55bfe19ce20d12ca053ab4fe9b978b026532eef1c4d77cac198e80":{"blockHash":"0x09dc1df30ea9055879c17c969f3f6e475f1cd9970ac45e45038f7dea7b5db08d","blockNumber":"0xd00184","from":"0x75dad89d46e687e99e11d558207654a927fee778","gas":"0x1fae0","gasPrice":"0x2faf080","hash":"0xd88bf3b23b55bfe19ce20d12ca053ab4fe9b978b026532eef1c4d77cac198e80","index":"0xd00183","input":"0x414bf389000000000000000000000000201eba5cc46d216ce6dc03f6a759e8e766e956ae00000000000000000000000078c1b0c915c4faa5fffa6cabf0219da63d7f4cb800000000000000000000000000000000000000000000000000000000000001f400000000000000000000000075dad89d46e687e99e11d558207654a927fee7780000000000000000000000000000000000000000000000000000000065243da10000000000000000000000000000000000000000000000000000000000100590000000000000000000000000000000000000000000000000262c37180c55750f0000000000000000000000000000000000000000000000000000000000000000","l1BlockNumber":"0x11774d3","l1Timestamp":"0x65243d81","l1TxOrigin":null,"nonce":"0xba5","queueIndex":null,"queueOrigin":"sequencer","r":"0x6aba9acfcce530f436bc6d6b968920f4ed2c4f85af2befe2c2d493c8f956f573","rawTransaction":"0xf9016e820ba58402faf0808301fae094319b69888b0d11cec22caa5034e25fffbdc8842180b90104414bf389000000000000000000000000201eba5cc46d216ce6dc03f6a759e8e766e956ae00000000000000000000000078c1b0c915c4faa5fffa6cabf0219da63d7f4cb800000000000000000000000000000000000000000000000000000000000001f400000000000000000000000075dad89d46e687e99e11d558207654a927fee7780000000000000000000000000000000000000000000000000000000065243da10000000000000000000000000000000000000000000000000000000000100590000000000000000000000000000000000000000000000000262c37180c55750f0000000000000000000000000000000000000000000000000000000000000000822733a06aba9acfcce530f436bc6d6b968920f4ed2c4f85af2befe2c2d493c8f956f573a00658867ff4db1ab1d7dda6762c8b7e3a8efeeb7f520e86948eb07a8c952e50ca","s":"0x658867ff4db1ab1d7dda6762c8b7e3a8efeeb7f520e86948eb07a8c952e50ca","to":"0x319b69888b0d11cec22caa5034e25fffbdc88421","transactionIndex":"0x0","v":"0x2733","value":"0x0","contractAddress":null,"cumulativeGasUsed":"0x1e33f","daFee":"0x0","daGasPrice":"0x0","daGasUsed":"0x12c","gasUsed":"0x1e33f","l1Fee":"0x1a09f6380cb9fe0","l1FeeScalar":"1","l1GasPrice":"0x39ff1464e55c","l1GasUsed":"0x72f","logs":[{"address":"0x78c1b0c915c4faa5fffa6cabf0219da63d7f4cb8","blockHash":"0x09dc1df30ea9055879c17c969f3f6e475f1cd9970ac45e45038f7dea7b5db08d","blockNumber":"0xd00184","data":"0x00000000000000000000000000000000000000000000000026f3a5eebe37dab7","logIndex":"0x0","removed":false,"topics":["0xddf252ad1be2c89b69c2b068fc378daa952ba7f163c4a11628f55a4df523b3ef","0x000000000000000000000000d08c50f7e69e9aeb2867deff4a8053d9a855e26a","0x00000000000000000000000075dad89d46e687e99e11d558207654a927fee778"],"transactionHash":"0xd88bf3b23b55bfe19ce20d12ca053ab4fe9b978b026532eef1c4d77cac198e80","transactionIndex":"0x0"},{"address":"0x201eba5cc46d216ce6dc03f6a759e8e766e956ae","blockHash":"0x09dc1df30ea9055879c17c969f3f6e475f1cd9970ac45e45038f7dea7b5db08d","blockNumber":"0xd00184","data":"0x0000000000000000000000000000000000000000000000000000000000100590","logIndex":"0x1","removed":false,"topics":["0xddf252ad1be2c89b69c2b068fc378daa952ba7f163c4a11628f55a4df523b3ef","0x00000000000000000000000075dad89d46e687e99e11d558207654a927fee778","0x000000000000000000000000d08c50f7e69e9aeb2867deff4a8053d9a855e26a"],"transactionHash":"0xd88bf3b23b55bfe19ce20d12ca053ab4fe9b978b026532eef1c4d77cac198e80","transactionIndex":"0x0"},{"address":"0x201eba5cc46d216ce6dc03f6a759e8e766e956ae","blockHash":"0x09dc1df30ea9055879c17c969f3f6e475f1cd9970ac45e45038f7dea7b5db08d","blockNumber":"0xd00184","data":"0xffffffffffffffffffffffffffffffffffffffffffffffffffffffffb02138ff","logIndex":"0x2","removed":false,"topics":["0x8c5be1e5ebec7d5bd14f71427d1e84f3dd0314c0f7b2291e5b200ac8c7c3b925","0x00000000000000000000000075dad89d46e687e99e11d558207654a927fee778","0x000000000000000000000000319b69888b0d11cec22caa5034e25fffbdc88421"],"transactionHash":"0xd88bf3b23b55bfe19ce20d12ca053ab4fe9b978b026532eef1c4d77cac198e80","transactionIndex":"0x0"},{"address":"0xd08c50f7e69e9aeb2867deff4a8053d9a855e26a","blockHash":"0x09dc1df30ea9055879c17c969f3f6e475f1cd9970ac45e45038f7dea7b5db08d","blockNumber":"0xd00184","data":"0x0000000000000000000000000000000000000000000000000000000000100590ffffffffffffffffffffffffffffffffffffffffffffffffd90c5a1141c82549000000000000000000000000000000000018f3feb74148fd69f67929cc4da030000000000000000000000000000000000000000000000000006787d5d3ab8a8c0000000000000000000000000000000000000000000000000000000000045dd100000000000000000000000000000000000000000000000000000000000000b20000000000000000000000000000000000000000000000000000000000000000","logIndex":"0x3","removed":false,"topics":["0x19b47279256b2a23a1665c810c8d55a1758940ee09377d4f8d26497a3577dc83","0x000000000000000000000000319b69888b0d11cec22caa5034e25fffbdc88421","0x00000000000000000000000075dad89d46e687e99e11d558207654a927fee778"],"transactionHash":"0xd88bf3b23b55bfe19ce20d12ca053ab4fe9b978b026532eef1c4d77cac198e80","transactionIndex":"0x0"}],"logsBloom":"0x00000000000000000000000000000000000000000001008800000000001000000004000000000000000000000002000000000000000000000000000000200000140000000040000000000008000000000000008000042000000200000000000000000000000000000000000000000080000000000000200000000010000000000000000000000000000000000000000000100000000000000000000000000040020000000000000000000000000200000000000001000000000000000000000100000002000000000000000000000000000000000000000000000010000000000010000000000000000000000000000000000000000000000000000000000000","status":"0x1","transactionHash":"0xd88bf3b23b55bfe19ce20d12ca053ab4fe9b978b026532eef1c4d77cac198e80"}}}