{"block":{"difficulty":"0x2","extraData":"0xd98301090a846765746889676f312e31352e3133856c696e7578000000000000b4909932d5633ac9f73264b093c907c3af002138d402e93cc06b93eb4825126733b53aba7563c410a05d2e9aa798ebe6284df71b2372bd5dc1219eb20b192fad01","gasLimit":"0x1c9c380","gasUsed":"0x1d20f","hash":"0x40b290dbbb7279b69995639f7c13b06e301b1347dfc9cf8309cb3f5b5f94c19b","logsBloom":"0x40000000000000000000000000000000000000000001008800000000000000000000000000000000000000000002000000000000000000000000000000200000841000000040000000000008000000000000008000002004000000000000000000000001000000000000000100000000000000000000000000000010000000000000000000000000000000000000000000000000000000000008000000000000020000000000000000000000000000000000000001000020000100000000000000000002000000000000000200000000000000000000000000000000000000000010000000001000001000000000000000000000000000000000000000000000","miner":"0x0000000000000000000000000000000000000000","mixHash":"0x0000000000000000000000000000000000000000000000000000000000000000","nonce":"0x0000000000000000","number":"0xd002be","parentHash":"0xd4fab660d25b078e98b06b3025f0055324a8da4d817b591d8d78decb825d3b9d","receiptsRoot":"0x91a0ccedd98610b19b4ca6f265bf5460a299811160cc5883aa0d88b5390dd6da","sha3Uncles":"0x1dcc4de8dec75d7aab85b567b6ccd41ad312451b948a7413f0a142fd40d49347","size":"0x3d8","stateRoot":"0x78490559b12b55d9a384f21f50d38451b1e7b8fd2dfc0ae477754c4887ef0cdd","timestamp":"0x65243e34","totalDifficulty":"0x1a0057d","transactions":[{"blockHash":"0x40b290dbbb7279b69995639f7c13b06e301b1347dfc9cf8309cb3f5b5f94c19b","blockNumber":"0xd002be","from":"0x29ed7f63ff9e3aff1847c3f7a0386e379c493fc8","gas":"0x1e960","gasPrice":"0x2faf080","hash":"0x12a951887e7ca5562c544ec242191256d15dc3cc4dc501e3be8af1f83c208e7e","index":"0xd002bd","input":"0x414bf389000000000000000000000000deaddeaddeaddeaddeaddeaddeaddeaddead1111000000000000000000000000201eba5cc46d216ce6dc03f6a759e8e766e956ae00000000000000000000000000000000000000000000000000000000000001f400000000000000000000000029ed7f63ff9e3aff1847c3f7a0386e379c493fc80000000000000000000000000000000000000000000000000000000065243e540000000000000000000000000000000000000000000000000001e2083dbb200000000000000000000000000000000000000000000000000000000000000c91da0000000000000000000000000000000000000000000000000000000000000000","l1BlockNumber":"0x11774e2","l1Timestamp":"0x65243e34","l1TxOrigin":null,"nonce":"0x10b5","queueIndex":null,"queueOrigin":"sequencer","r":"0xb3b1c53163e9c14536373d87e225b99aaab0422bccb8e9f35f39a058ab2de025","rawTransaction":"0xf9016e8210b58402faf0808301e96094319b69888b0d11cec22caa5034e25fffbdc8842180b90104414bf389000000000000000000000000deaddeaddeaddeaddeaddeaddeaddeaddead1111000000000000000000000000201eba5cc46d216ce6dc03f6a759e8e766e956ae00000000000000000000000000000000000000000000000000000000000001f400000000000000000000000029ed7f63ff9e3aff1847c3f7a0386e379c493fc80000000000000000000000000000000000000000000000000000000065243e540000000000000000000000000000000000000000000000000001e2083dbb200000000000000000000000000000000000000000000000000000000000000c91da0000000000000000000000000000000000000000000000000000000000000000822734a0b3b1c53163e9c14536373d87e225b99aaab0422bccb8e9f35f39a058ab2de025a07af4db486ce37db3225af11808ac44870bbc00b015c5ca0574968aa7cdda66e0","s":"0x7af4db486ce37db3225af11808ac44870bbc00b015c5ca0574968aa7cdda66e0","to":"0x319b69888b0d11cec22caa5034e25fffbdc88421","transactionIndex":"0x0","v":"0x2734","value":"0x0"}],"transactionsRoot":"0x9a971b7c6764f7f84f8ba462322e6f168c8b7fc116d662e7d57fd7556aee93ff","uncles":[]},"receipts":{"0x12a951887e7ca5562c544ec242191256d15dc3cc4dc501e3be8af1f83c208e7e":{"blockHash":"0x40b290dbbb7279b69995639f7c13b06e301b1347dfc9cf8309cb3f5b5f94c19b","blockNumber":"0xd002be","from":"0x29ed7f63ff9e3aff1847c3f7a0386e379c493fc8","gas":"0x1e960","gasPrice":"0x2faf080","hash":"0x12a951887e7ca5562c544ec242191256d15dc3cc4dc501e3be8af1f83c208e7e","index":"0xd002bd","input":"0x414bf389000000000000000000000000deaddeaddeaddeaddeaddeaddeaddeaddead1111000000000000000000000000201eba5cc46d216ce6dc03f6a759e8e766e956ae00000000000000000000000000000000000000000000000000000000000001f400000000000000000000000029ed7f63ff9e3aff1847c3f7a0386e379c493fc80000000000000000000000000000000000000000000000000000000065243e540000000000000000000000000000000000000000000000000001e2083dbb200000000000000000000000000000000000000000000000000000000000000c91da0000000000000000000000000000000000000000000000000000000000000000","l1BlockNumber":"0x11774e2","l1Timestamp":"0x65243e34","l1TxOrigin":null,"nonce":"0x10b5","queueIndex":null,"queueOrigin":"sequencer","r":"0xb3b1c53163e9c14536373d87e225b99aaab0422bccb8e9f35f39a058ab2de025","rawTransaction":"0xf9016e8210b58402faf0808301e96094319b69888b0d11cec22caa5034e25fffbdc8842180b90104414bf389000000000000000000000000deaddeaddeaddeaddeaddeaddeaddeaddead1111000000000000000000000000201eba5cc46d216ce6dc03f6a759e8e766e956ae00000000000000000000000000000000000000000000000000000000000001f400000000000000000000000029ed7f63ff9e3aff1847c3f7a0386e379c493fc80000000000000000000000000000000000000000000000000000000065243e540000000000000000000000000000000000000000000000000001e2083dbb200000000000000000000000000000000000000000000000000000000000000c91da0000000000000000000000000000000000000000000000000000000000000000822734a0b3b1c53163e9c14536373d87e225b99aaab0422bccb8e9f35f39a058ab2de025a07af4db486ce37db3225af11808ac44870bbc00b015c5ca0574968aa7cdda66e0","s":"0x7af4db486ce37db3225af11808ac44870bbc00b015c5ca0574968aa7cdda66e0","to":"0x319b69888b0d11cec22caa5034e25fffbdc88421","transactionIndex":"0x0","v":"0x2734","value":"0x0","contractAddress":null,"cumulativeGasUsed":"0x1d20f","daFee":"0x0","daGasPrice":"0x0","daGasUsed":"0x12c","gasUsed":"0x1d20f","l1Fee":"0x19709d787180660","l1FeeScalar":"1","l1GasPrice":"0x38a987f04864","l1GasUsed":"0x72f","logs":[{"address":"0x201eba5cc46d216ce6dc03f6a759e8e766e956ae","blockHash":"0x40b290dbbb7279b69995639f7c13b06e301b1347dfc9cf8309cb3f5b5f94c19b","blockNumber":"0xd002be","data":"0x00000000000000000000000000000000000000000000000000000000000cd386","logIndex":"0x0","removed":false,"topics":["0xddf252ad1be2c89b69c2b068fc378daa952ba7f163c4a11628f55a4df523b3ef","0x000000000000000000000000628f7131cf43e88ebe3921ae78c4ba0c31872bd4","0x00000000000000000000000029ed7f63ff9e3aff1847c3f7a0386e379c493fc8"],"transactionHash":"0x12a951887e7ca5562c544ec242191256d15dc3cc4dc501e3be8af1f83c208e7e","transactionIndex":"0x0"},{"address":"0xdeaddeaddeaddeaddeaddeaddeaddeaddead1111","blockHash":"0x40b290dbbb7279b69995639f7c13b06e301b1347dfc9cf8309cb3f5b5f94c19b","blockNumber":"0xd002be","data":"0x0000000000000000000000000000000000000000000000000001e2083dbb2000","logIndex":"0x1","removed":false,"topics":["0xddf252ad1be2c89b69c2b068fc378daa952ba7f163c4a11628f55a4df523b3ef","0x00000000000000000000000029ed7f63ff9e3aff1847c3f7a0386e379c493fc8","0x000000000000000000000000628f7131cf43e88ebe3921ae78c4ba0c31872bd4"],"transactionHash":"0x12a951887e7ca5562c544ec242191256d15dc3cc4dc501e3be8af1f83c208e7e","transactionIndex":"0x0"},{"address":"0xdeaddeaddeaddeaddeaddeaddeaddeaddead1111","blockHash":"0x40b290dbbb7279b69995639f7c13b06e301b1347dfc9cf8309cb3f5b5f94c19b","blockNumber":"0xd002be","data":"0xfffffffffffffffffffffffffffffffffffffffffffffffffadf9303c64c8fff","logIndex":"0x2","removed":false,"topics":["0x8c5be1e5ebec7d5bd14f71427d1e84f3dd0314c0f7b2291e5b200ac8c7c3b925","0x00000000000000000000000029ed7f63ff9e3aff1847c3f7a0386e379c493fc8","0x000000000000000000000000319b69888b0d11cec22caa5034e25fffbdc88421"],"transactionHash":"0x12a951887e7ca5562c544ec242191256d15dc3cc4dc501e3be8af1f83c208e7e","transactionIndex":"0x0"},{"address":"0x628f7131cf43e88ebe3921ae78c4ba0c31872bd4","blockHash":"0x40b290dbbb7279b69995639f7c13b06e301b1347dfc9cf8309cb3f5b5f94c19b","blockNumber":"0xd002be","data":"0xfffffffffffffffffffffffffffffffffffffffffffffffffffffffffff32c7a0000000000000000000000000000000000000000000000000001e2083dbb200000000000000000000000000000000000000062153738bd4ddfcd72d1e2a0304700000000000000000000000000000000000000000000000000002c65dde06c200000000000000000000000000000000000000000000000000000000000031785000000000000000000000000000000000000000000000000000000000000000000000000000000000000000000000000000000000000000000000014fa60e500","logIndex":"0x3","removed":false,"topics":["0x19b47279256b2a23a1665c810c8d55a1758940ee09377d4f8d26497a3577dc83","0x000000000000000000000000319b69888b0d11cec22caa5034e25fffbdc88421","0x00000000000000000000000029ed7f63ff9e3aff1847c3f7a0386e379c493fc8"],"transactionHash":"0x12a951887e7ca5562c544ec242191256d15dc3cc4dc501e3be8af1f83c208e7e","transactionIndex":"0x0"}],"logsBloom":"0x40000000000000000000000000000000000000000001008800000000000000000000000000000000000000000002000000000000000000000000000000200000841000000040000000000008000000000000008000002004000000000000000000000001000000000000000100000000000000000000000000000010000000000000000000000000000000000000000000000000000000000008000000000000020000000000000000000000000000000000000001000020000100000000000000000002000000000000000200000000000000000000000000000000000000000010000000001000001000000000000000000000000000000000000000000000","status":"0x1","transactionHash":"0x12a951887e7ca5562c544ec242191256d15dc3cc4dc501e3be8af1f83c208e7e"}}}