{"block":{"difficulty":"0x2","extraData":"0xd98301090a846765746889676f312e31352e3133856c696e7578000000000000e30d326a2b75319795560c2905fc5d585df7d7f30a6361ef89951ce0835649de60e3755ce42468156d57673f8c13a417a059448bacb62c5be8b6a8a3588e433101","gasLimit":"0x1c9c380","gasUsed":"0x1c4d2","hash":"0x756dee99a5d8539ac6b2eccd08982a34016e9e79ac920d833fe0144e6688aa9a","logsBloom":"0x00000000000000000010000000000000000000000000001000100000001001000000000000000080000000000000008000000800000000010000000000000240000000000000000040000008000000000000000000000000000000000000000110000000020000000000000000000800080000000000000000000010000000000002000000000000000001000000000000800000000000000020000000300000000000000000000001000000010000000000200000000000000400000000000000000002000000000000000400000000000002100000000000000000020020001000000000000000000000000000000000000000000000000000000000000000","miner":"0x0000000000000000000000000000000000000000","mixHash":"0x0000000000000000000000000000000000000000000000000000000000000000","nonce":"0x0000000000000000","number":"0xd00b1d","parentHash":"0x9b23a9e0d5f69c4dfc3e39895d7ada4729e76822a84eb333710c560009012d49","receiptsRoot":"0x050ae3944fc90eb85fcaeff7dcaf8b6e9ed7e1e84cc57b74d2edc9f53c79f449","sha3Uncles":"0x1dcc4de8dec75d7aab85b567b6ccd41ad312451b948a7413f0a142fd40d49347","size":"0x375","stateRoot":"0xe3f3132228da73a365d5236657ed4a3bba98956b86e8a415e87550120b444332","timestamp":"0x6524420c","totalDifficulty":"0x1a0163b","transactions":[{"blockHash":"0x756dee99a5d8539ac6b2eccd08982a34016e9e79ac920d833fe0144e6688aa9a","blockNumber":"0xd00b1d","from":"0x68b4e83ea6c2cf32846134c477aa07db0dd1838c","gas":"0x1cfc2","gasPrice":"0x30291a0","hash":"0xb3fe0b3fb1c71673293a3a40a788556291f9c9831cfd721e1777267cfcbc7041","index":"0xd00b1c","input":"0x32b7006d000000000000000000000000deaddeaddeaddeaddeaddeaddeaddeaddead00000000000000000000000000000000000000000000000000000003e871b540c000000000000000000000000000000000000000000000000000000000000000000000000000000000000000000000000000000000000000000000000000000000800000000000000000000000000000000000000000000000000000000000000000","l1BlockNumber":"0x1177534","l1Timestamp":"0x6524420c","l1TxOrigin":null,"nonce":"0x67","queueIndex":null,"queueOrigin":"sequencer","r":"0xcd28fa77d249b95db8bdbf39924d7c31a29e5f6a14c0f4ca0f58ec2982da972a","rawTransaction":"0xf9010b6784030291a08301cfc294420000000000000000000000000000000000001080b8a432b7006d000000000000000000000000deaddeaddeaddeaddeaddeaddeaddeaddead00000000000000000000000000000000000000000000000000000003e871b540c000000000000000000000000000000000000000000000000000000000000000000000000000000000000000000000000000000000000000000000000000000000800000000000000000000000000000000000000000000000000000000000000000822733a0cd28fa77d249b95db8bdbf39924d7c31a29e5f6a14c0f4ca0f58ec2982da972aa0582805138a18cfff0efc3eea944be0ddfbc3303ec3e7b6edf982c62dd201ca13","s":"0x582805138a18cfff0efc3eea944be0ddfbc3303ec3e7b6edf982c62dd201ca13","to":"0x4200000000000000000000000000000000000010","transactionIndex":"0x0","v":"0x2733","value":"0x0"}],"transactionsRoot":"0x124f22f556b5926fdc002ced0350eced0ad9b5ed2200b0590a8b45defd63877d","uncles":[]},"receipts":{"0xb3fe0b3fb1c71673293a3a40a788556291f9c9831cfd721e1777267cfcbc7041":{"blockHash":"0x756dee99a5d8539ac6b2eccd08982a34016e9e79ac920d833fe0144e6688aa9a","blockNumber":"0xd00b1d","from":"0x68b4e83ea6c2cf32846134c477aa07db0dd1838c","gas":"0x1cfc2","gasPrice":"0x30291a0","hash":"0xb3fe0b3fb1c71673293a3a40a788556291f9c9831cfd721e1777267cfcbc7041","index":"0xd00b1c","input":"0x32b7006d000000000000000000000000deaddeaddeaddeaddeaddeaddeaddeaddead00000000000000000000000000000000000000000000000000000003e871b540c000000000000000000000000000000000000000000000000000000000000000000000000000000000000000000000000000000000000000000000000000000000800000000000000000000000000000000000000000000000000000000000000000","l1BlockNumber":"0x1177534","l1Timestamp":"0x6524420c","l1TxOrigin":null,"nonce":"0x67","queueIndex":null,"queueOrigin":"sequencer","r":"0xcd28fa77d249b95db8bdbf39924d7c31a29e5f6a14c0f4ca0f58ec2982da972a","rawTransaction":"0xf9010b6784030291a08301cfc294420000000000000000000000000000000000001080b8a432b7006d000000000000000000000000deaddeaddeaddeaddeaddeaddeaddeaddead00000000000000000000000000000000000000000000000000000003e871b540c000000000000000000000000000000000000000000000000000000000000000000000000000000000000000000000000000000000000000000000000000000000800000000000000000000000000000000000000000000000000000000000000000822733a0cd28fa77d249b95db8bdbf39924d7c31a29e5f6a14c0f4ca0f58ec2982da972aa0582805138a18cfff0efc3eea944be0ddfbc3303ec3e7b6edf982c62dd201ca13","s":"0x582805138a18cfff0efc3eea944be0ddfbc3303ec3e7b6edf982c62dd201ca13","to":"0x4200000000000000000000000000000000000010","transactionIndex":"0x0","v":"0x2733","value":"0x0","contractAddress":null,"cumulativeGasUsed":"0x1c4d2","daFee":"0x0","daGasPrice":"0x0","daGasUsed":"0xc8","gasUsed":"0x1c4d2","l1Fee":"0x1911132b46ddf60","l1FeeScalar":"1","l1GasPrice":"0x37d4bc06bddc","l1GasUsed":"0x72f","logs":[{"address":"0xdeaddeaddeaddeaddeaddeaddeaddeaddead0000","blockHash":"0x756dee99a5d8539ac6b2eccd08982a34016e9e79ac920d833fe0144e6688aa9a","blockNumber":"0xd00b1d","data":"0x0000000000000000000000000000000000000000000000000003e871b540c000","logIndex":"0x0","removed":false,"topics":["0xddf252ad1be2c89b69c2b068fc378daa952ba7f163c4a11628f55a4df523b3ef","0x00000000000000000000000068b4e83ea6c2cf32846134c477aa07db0dd1838c","0x0000000000000000000000000000000000000000000000000000000000000000"],"transactionHash":"0xb3fe0b3fb1c71673293a3a40a788556291f9c9831cfd721e1777267cfcbc7041","transactionIndex":"0x0"},{"address":"0xdeaddeaddeaddeaddeaddeaddeaddeaddead0000","blockHash":"0x756dee99a5d8539ac6b2eccd08982a34016e9e79ac920d833fe0144e6688aa9a","blockNumber":"0xd00b1d","data":"0x0000000000000000000000000000000000000000000000000003e871b540c000","logIndex":"0x1","removed":false,"topics":["0xcc16f5dbb4873280815c1ee09dbd06736cffcc184412cf7a71a0fdb75d397ca5","0x00000000000000000000000068b4e83ea6c2cf32846134c477aa07db0dd1838c"],"transactionHash":"0xb3fe0b3fb1c71673293a3a40a788556291f9c9831cfd721e1777267cfcbc7041","transactionIndex":"0x0"},{"address":"0x4200000000000000000000000000000000000007","blockHash":"0x756dee99a5d8539ac6b2eccd08982a34016e9e79ac920d833fe0144e6688aa9a","blockNumber":"0xd00b1d","data":"0x000000000000000000000000420000000000000000000000000000000000001000000000000000000000000000000000000000000000000000000000000000800000000000000000000000000000000000000000000000000000000000037acf000000000000000000000000000000000000000000000000000000000000000000000000000000000000000000000000000000000000000000000000000000a4f82b418e00000000000000000000000068b4e83ea6c2cf32846134c477aa07db0dd1838c00000000000000000000000068b4e83ea6c2cf32846134c477aa07db0dd1838c0000000000000000000000000000000000000000000000000003e871b540c0000000000000000000000000000000000000000000000000000000000000000080000000000000000000000000000000000000000000000000000000000000000000000000000000000000000000000000000000000000000000000000","logIndex":"0x2","removed":false,"topics":["0xcb0f7ffd78f9aee47a248fae8db181db6eee833039123e026dcbff529522e52a","0x00000000000000000000000095fc37a27a2f68e3a647cdc081f0a89bb47c3012"],"transactionHash":"0xb3fe0b3fb1c71673293a3a40a788556291f9c9831cfd721e1777267cfcbc7041","transactionIndex":"0x0"},{"address":"0x4200000000000000000000000000000000000010","blockHash":"0x756dee99a5d8539ac6b2eccd08982a34016e9e79ac920d833fe0144e6688aa9a","blockNumber":"0xd00b1d","data":"0x00000000000000000000000068b4e83ea6c2cf32846134c477aa07db0dd1838c0000000000000000000000000000000000000000000000000003e871b540c00000000000000000000000000000000000000000000000000000000000000000600000000000000000000000000000000000000000000000000000000000000000","logIndex":"0x3","removed":false,"topics":["0x73d170910aba9e6d50b102db522b1dbcd796216f5128b445aa2135272886497e","0x0000000000000000000000003c3a81e81dc49a522a592e7622a7e711c06bf354","0x000000000000000000000000deaddeaddeaddeaddeaddeaddeaddeaddead0000","0x00000000000000000000000068b4e83ea6c2cf32846134c477aa07db0dd1838c"],"transactionHash":"0xb3fe0b3fb1c71673293a3a40a788556291f9c9831cfd721e1777267cfcbc7041","transactionIndex":"0x0"}],"logsBloom":"0x00000000000000000010000000000000000000000000001000100000001001000000000000000080000000000000008000000800000000010000000000000240000000000000000040000008000000000000000000000000000000000000000110000000020000000000000000000800080000000000000000000010000000000002000000000000000001000000000000800000000000000020000000300000000000000000000001000000010000000000200000000000000400000000000000000002000000000000000400000000000002100000000000000000020020001000000000000000000000000000000000000000000000000000000000000000","status":"0x1","transactionHash":"0xb3fe0b3fb1c71673293a3a40a788556291f9c9831cfd721e1777267cfcbc7041"}}}