{"block":{"difficulty":"0x2","extraData":"0xd98301090a846765746889676f312e31352e3133856c696e757800000000000025a2eacc33869632bcd2425431ac8ca0ba2ffd2fb5e52d469ced38d22e1d339c3f881c6024321534cff3545bdc39840c4deca8f970b12a291f92bd53c7b9841500","gasLimit":"0x1c9c380","gasUsed":"0x1d29f","hash":"0x82bfe0fb909ce493feeda06c15057414ca17834297599f34f2319d00c9ceb226","logsBloom":"0x00000000000000000000000000000000000000000001008800000000000000000004000000000000000000000002000000000000000000000000000000200000140000000040000000000008000000000000008000042000000200000000000000000000000000000000000000000080000000000000000000000010000000000000000000000000000000100000000000100080000000000000000000000040020000000000000000000000000200000000000001000000000000000000000000000002001000000000000000000000000000000000000000000010000000000010000000000000000000000000000000000000000000000000000000000000","miner":"0x0000000000000000000000000000000000000000","mixHash":"0x0000000000000000000000000000000000000000000000000000000000000000","nonce":"0x0000000000000000","number":"0xd0021f","parentHash":"0xc4297c58e817634146f249ab04ebf4bf9e90bee6130fbed62bab6daf36c9e23d","receiptsRoot":"0x219d90a6e6c999002aee8909ac244163fbf221c71d6d4be6853b7b7e37d1f82d","sha3Uncles":"0x1dcc4de8dec75d7aab85b567b6ccd41ad312451b948a7413f0a142fd40d49347","size":"0x3d8","stateRoot":"0xd4a90ec5f240261dea9158a7db96b692c7149e089a66348893a824e6b612adf4","timestamp":"0x65243dd7","totalDifficulty":"0x1a0043f","transactions":[{"blockHash":"0x82bfe0fb909ce493feeda06c15057414ca17834297599f34f2319d00c9ceb226","blockNumber":"0xd0021f","from":"0x964a26e6222e196482275fa631888b224d326264","gas":"0x1e9f2","gasPrice":"0x2faf080","hash":"0x6bbf6e4eb1382930ee2b04cb21b728a6e633013c7904387c170f8858cf08b32f","index":"0xd0021e","input":"0x414bf38900000000000000000000000078c1b0c915c4faa5fffa6cabf0219da63d7f4cb8000000000000000000000000201eba5cc46d216ce6dc03f6a759e8e766e956ae00000000000000000000000000000000000000000000000000000000000001f4000000000000000000000000964a26e6222e196482275fa631888b224d3262640000000000000000000000000000000000000000000000000000000065243df80000000000000000000000000000000000000000000000002885ec877824000000000000000000000000000000000000000000000000000000000000001051b20000000000000000000000000000000000000000000000000000000000000000","l1BlockNumber":"0x11774da","l1Timestamp":"0x65243dd7","l1TxOrigin":null,"nonce":"0x7c7","queueIndex":null,"queueOrigin":"sequencer","r":"0x5f1abfc94b761f62ec0aadd00c978313eaef4e664decd817af9dfd0ec813991c","rawTransaction":"0xf9016e8207c78402faf0808301e9f294319b69888b0d11cec22caa5034e25fffbdc8842180b90104414bf38900000000000000000000000078c1b0c915c4faa5fffa6cabf0219da63d7f4cb8000000000000000000000000201eba5cc46d216ce6dc03f6a759e8e766e956ae00000000000000000000000000000000000000000000000000000000000001f4000000000000000000000000964a26e6222e196482275fa631888b224d3262640000000000000000000000000000000000000000000000000000000065243df80000000000000000000000000000000000000000000000002885ec877824000000000000000000000000000000000000000000000000000000000000001051b20000000000000000000000000000000000000000000000000000000000000000822733a05f1abfc94b761f62ec0aadd00c978313eaef4e664decd817af9dfd0ec813991ca078ef991265829a9d5f80c16f9848ee03d1cbffa6e5cd5eddeccac0c7f0233fee","s":"0x78ef991265829a9d5f80c16f9848ee03d1cbffa6e5cd5eddeccac0c7f0233fee","to":"0x319b69888b0d11cec22caa5034e25fffbdc88421","transactionIndex":"0x0","v":"0x2733","value":"0x0"}],"transactionsRoot":"0x4ef39b83889e29020761714655d3c5bbb0e129a17a362f6a191aba30ce971a8e","uncles":[]},"receipts":{"0x6bbf6e4eb1382930ee2b04cb21b728a6e633013c7904387c170f8858cf08b32f":{"blockHash":"0x82bfe0fb909ce493feeda06c15057414ca17834297599f34f2319d00c9ceb226","blockNumber":"0xd0021f","from":"0x964a26e6222e196482275fa631888b224d326264","gas":"0x1e9f2","gasPrice":"0x2faf080","hash":"0x6bbf6e4eb1382930ee2b04cb21b728a6e633013c7904387c170f8858cf08b32f","index":"0xd0021e","input":"0x414bf38900000000000000000000000078c1b0c915c4faa5fffa6cabf0219da63d7f4cb8000000000000000000000000201eba5cc46d216ce6dc03f6a759e8e766e956ae00000000000000000000000000000000000000000000000000000000000001f4000000000000000000000000964a26e6222e196482275fa631888b224d3262640000000000000000000000000000000000000000000000000000000065243df80000000000000000000000000000000000000000000000002885ec877824000000000000000000000000000000000000000000000000000000000000001051b20000000000000000000000000000000000000000000000000000000000000000","l1BlockNumber":"0x11774da","l1Timestamp":"0x65243dd7","l1TxOrigin":null,"nonce":"0x7c7","queueIndex":null,"queueOrigin":"sequencer","r":"0x5f1abfc94b761f62ec0aadd00c978313eaef4e664decd817af9dfd0ec813991c","rawTransaction":"0xf9016e8207c78402faf0808301e9f294319b69888b0d11cec22caa5034e25fffbdc8842180b90104414bf38900000000000000000000000078c1b0c915c4faa5fffa6cabf0219da63d7f4cb8000000000000000000000000201eba5cc46d216ce6dc03f6a759e8e766e956ae00000000000000000000000000000000000000000000000000000000000001f4000000000000000000000000964a26e6222e196482275fa631888b224d3262640000000000000000000000000000000000000000000000000000000065243df80000000000000000000000000000000000000000000000002885ec877824000000000000000000000000000000000000000000000000000000000000001051b20000000000000000000000000000000000000000000000000000000000000000822733a05f1abfc94b761f62ec0aadd00c978313eaef4e664decd817af9dfd0ec813991ca078ef991265829a9d5f80c16f9848ee03d1cbffa6e5cd5eddeccac0c7f0233fee","s":"0x78ef991265829a9d5f80c16f9848ee03d1cbffa6e5cd5eddeccac0c7f0233fee","to":"0x319b69888b0d11cec22caa5034e25fffbdc88421","transactionIndex":"0x0","v":"0x2733","value":"0x0","contractAddress":null,"cumulativeGasUsed":"0x1d29f","daFee":"0x0","daGasPrice":"0x0","daGasUsed":"0x12c","gasUsed":"0x1d29f","l1Fee":"0x19709d787180660","l1FeeScalar":"1","l1GasPrice":"0x38a987f04864","l1GasUsed":"0x72f","logs":[{"address":"0x201eba5cc46d216ce6dc03f6a759e8e766e956ae","blockHash":"0x82bfe0fb909ce493feeda06c15057414ca17834297599f34f2319d00c9ceb226","blockNumber":"0xd0021f","data":"0x000000000000000000000000000000000000000000000000000000000010a6f5","logIndex":"0x0","removed":false,"topics":["0xddf252ad1be2c89b69c2b068fc378daa952ba7f163c4a11628f55a4df523b3ef","0x000000000000000000000000d08c50f7e69e9aeb2867deff4a8053d9a855e26a","0x000000000000000000000000964a26e6222e196482275fa631888b224d326264"],"transactionHash":"0x6bbf6e4eb1382930ee2b04cb21b728a6e633013c7904387c170f8858cf08b32f","transactionIndex":"0x0"},{"address":"0x78c1b0c915c4faa5fffa6cabf0219da63d7f4cb8","blockHash":"0x82bfe0fb909ce493feeda06c15057414ca17834297599f34f2319d00c9ceb226","blockNumber":"0xd0021f","data":"0x0000000000000000000000000000000000000000000000002885ec8778240000","logIndex":"0x1","removed":false,"topics":["0xddf252ad1be2c89b69c2b068fc378daa952ba7f163c4a11628f55a4df523b3ef","0x000000000000000000000000964a26e6222e196482275fa631888b224d326264","0x000000000000000000000000d08c50f7e69e9aeb2867deff4a8053d9a855e26a"],"transactionHash":"0x6bbf6e4eb1382930ee2b04cb21b728a6e633013c7904387c170f8858cf08b32f","transactionIndex":"0x0"},{"address":"0x78c1b0c915c4faa5fffa6cabf0219da63d7f4cb8","blockHash":"0x82bfe0fb909ce493feeda06c15057414ca17834297599f34f2319d00c9ceb226","blockNumber":"0xd0021f","data":"0xffffffffffffffffffffffffffffffffffffffffffffffddad23cea01dabffff","logIndex":"0x2","removed":false,"topics":["0x8c5be1e5ebec7d5bd14f71427d1e84f3dd0314c0f7b2291e5b200ac8c7c3b925","0x000000000000000000000000964a26e6222e196482275fa631888b224d326264","0x000000000000000000000000319b69888b0d11cec22caa5034e25fffbdc88421"],"transactionHash":"0x6bbf6e4eb1382930ee2b04cb21b728a6e633013c7904387c170f8858cf08b32f","transactionIndex":"0x0"},{"address":"0xd08c50f7e69e9aeb2867deff4a8053d9a855e26a","blockHash":"0x82bfe0fb909ce493feeda06c15057414ca17834297599f34f2319d00c9ceb226","blockNumber":"0xd0021f","data":"0xffffffffffffffffffffffffffffffffffffffffffffffffffffffffffef590b0000000000000000000000000000000000000000000000002885ec8778240000000000000000000000000000000000000018f43b1575410e9d96d80ca98b0cb1000000000000000000000000000000000000000000000000006787d5d3ab8a8c0000000000000000000000000000000000000000000000000000000000045dd200000000000000000000000000000000000000000000000000000000000000000000000000000000000000000000000000000000000000000001c37921aaa000","logIndex":"0x3","removed":false,"topics":["0x19b47279256b2a23a1665c810c8d55a1758940ee09377d4f8d26497a3577dc83","0x000000000000000000000000319b69888b0d11cec22caa5034e25fffbdc88421","0x000000000000000000000000964a26e6222e196482275fa631888b224d326264"],"transactionHash":"0x6bbf6e4eb1382930ee2b04cb21b728a6e633013c7904387c170f8858cf08b32f","transactionIndex":"0x0"}],"logsBloom":"0x00000000000000000000000000000000000000000001008800000000000000000004000000000000000000000002000000000000000000000000000000200000140000000040000000000008000000000000008000042000000200000000000000000000000000000000000000000080000000000000000000000010000000000000000000000000000000100000000000100080000000000000000000000040020000000000000000000000000200000000000001000000000000000000000000000002001000000000000000000000000000000000000000000010000000000010000000000000000000000000000000000000000000000000000000000000","status":"0x1","transactionHash":"0x6bbf6e4eb1382930ee2b04cb21b728a6e633013c7904387c170f8858cf08b32f"}}}