{"block":{"difficulty":"0x2","extraData":"0xd98301090a846765746889676f312e31352e3133856c696e7578000000000000e66b6eb634e5cfd551de02de1e3a0a8e8b2af4a23ebbe495b8ad34158368502f7d8dcde931a7b14569fb2919b8f43a6357e719bb435335d256240699c8202bc300","gasLimit":"0x1c9c380","gasUsed":"0x1d205","hash":"0xb1a0ba5dffdc512d5454f6c21bd23e8d1c34bb52c9c591a6a18d01c6d2890b87","logsBloom":"0x40100000000000000000000000000000000000000001008800000000100000000000000000000000000000000002000000000000000000000000000000200000840000000040000000000008000000000000008000002004000000000000000000000001000000000000000100000000000000000000000000000010000000000000000000000000000000000000000000000000000000000008000000000000020000000000000000000000000000000000000001000020000100000000000000000002000000000000000000000000000000000000000000000000000000000010000000001000400000000000000000000000000000000000000000000000","miner":"0x0000000000000000000000000000000000000000","mixHash":"0x0000000000000000000000000000000000000000000000000000000000000000","nonce":"0x0000000000000000","number":"0xcff397","parentHash":"0xf18475fa0e2630470f23dd161b1f0d07f4009c42a066139626e47a6dfc8d389d","receiptsRoot":"0xe7346474f88b72f9b9ed9ac308279006f825b9e88642421770fbfcd266fa28b1","sha3Uncles":"0x1dcc4de8dec75d7aab85b567b6ccd41ad312451b948a7413f0a142fd40d49347","size":"0x3d8","stateRoot":"0xa545d92bfb8f706e1563759916074dcfe476666fd72e37877265df146eac1f2f","timestamp":"0x65243748","totalDifficulty":"0x19fe72f","transactions":[{"blockHash":"0xb1a0ba5dffdc512d5454f6c21bd23e8d1c34bb52c9c591a6a18d01c6d2890b87","blockNumber":"0xcff397","from":"0xd7094ec61467b428909576e19152269a7852d5d4","gas":"0x271df","gasPrice":"0x2faf080","hash":"0xb8fb09624ca8a2bddf39a67c865681551b14d56e02e47d02de5ecf8b54f86678","index":"0xcff396","input":"0x414bf389000000000000000000000000deaddeaddeaddeaddeaddeaddeaddeaddead1111000000000000000000000000201eba5cc46d216ce6dc03f6a759e8e766e956ae00000000000000000000000000000000000000000000000000000000000001f4000000000000000000000000d7094ec61467b428909576e19152269a7852d5d40000000000000000000000000000000000000000000000000000000065243766000000000000000000000000000000000000000000000000000206697785a00000000000000000000000000000000000000000000000000000000000000d78100000000000000000000000000000000000000000000000000000000000000000","l1BlockNumber":"0x117744e","l1Timestamp":"0x65243748","l1TxOrigin":null,"nonce":"0x1219","queueIndex":null,"queueOrigin":"sequencer","r":"0xd23f79065952285a5803eed704f5e53799354c6650d3337a811f01006a43fd08","rawTransaction":"0xf9016e8212198402faf080830271df94319b69888b0d11cec22caa5034e25fffbdc8842180b90104414bf389000000000000000000000000deaddeaddeaddeaddeaddeaddeaddeaddead1111000000000000000000000000201eba5cc46d216ce6dc03f6a759e8e766e956ae00000000000000000000000000000000000000000000000000000000000001f4000000000000000000000000d7094ec61467b428909576e19152269a7852d5d40000000000000000000000000000000000000000000000000000000065243766000000000000000000000000000000000000000000000000000206697785a00000000000000000000000000000000000000000000000000000000000000d78100000000000000000000000000000000000000000000000000000000000000000822734a0d23f79065952285a5803eed704f5e53799354c6650d3337a811f01006a43fd08a066e0a4a68509baa853349aa9096276dcc5829ab23fd1d85ab1dd7599bfd78bef","s":"0x66e0a4a68509baa853349aa9096276dcc5829ab23fd1d85ab1dd7599bfd78bef","to":"0x319b69888b0d11cec22caa5034e25fffbdc88421","transactionIndex":"0x0","v":"0x2734","value":"0x0"}],"transactionsRoot":"0x55cdedd172524eceae72b159997d12067c9d0653792822c022ed2b717dc6fb17","uncles":[]},"receipts":{"0xb8fb09624ca8a2bddf39a67c865681551b14d56e02e47d02de5ecf8b54f86678":{"blockHash":"0xb1a0ba5dffdc512d5454f6c21bd23e8d1c34bb52c9c591a6a18d01c6d2890b87","blockNumber":"0xcff397","from":"0xd7094ec61467b428909576e19152269a7852d5d4","gas":"0x271df","gasPrice":"0x2faf080","hash":"0xb8fb09624ca8a2bddf39a67c865681551b14d56e02e47d02de5ecf8b54f86678","index":"0xcff396","input":"0x414bf389000000000000000000000000deaddeaddeaddeaddeaddeaddeaddeaddead1111000000000000000000000000201eba5cc46d216ce6dc03f6a759e8e766e956ae00000000000000000000000000000000000000000000000000000000000001f4000000000000000000000000d7094ec61467b428909576e19152269a7852d5d40000000000000000000000000000000000000000000000000000000065243766000000000000000000000000000000000000000000000000000206697785a00000000000000000000000000000000000000000000000000000000000000d78100000000000000000000000000000000000000000000000000000000000000000","l1BlockNumber":"0x117744e","l1Timestamp":"0x65243748","l1TxOrigin":null,"nonce":"0x1219","queueIndex":null,"queueOrigin":"sequencer","r":"0xd23f79065952285a5803eed704f5e53799354c6650d3337a811f01006a43fd08","rawTransaction":"0xf9016e8212198402faf080830271df94319b69888b0d11cec22caa5034e25fffbdc8842180b90104414bf389000000000000000000000000deaddeaddeaddeaddeaddeaddeaddeaddead1111000000000000000000000000201eba5cc46d216ce6dc03f6a759e8e766e956ae00000000000000000000000000000000000000000000000000000000000001f4000000000000000000000000d7094ec61467b428909576e19152269a7852d5d40000000000000000000000000000000000000000000000000000000065243766000000000000000000000000000000000000000000000000000206697785a00000000000000000000000000000000000000000000000000000000000000d78100000000000000000000000000000000000000000000000000000000000000000822734a0d23f79065952285a5803eed704f5e53799354c6650d3337a811f01006a43fd08a066e0a4a68509baa853349aa9096276dcc5829ab23fd1d85ab1dd7599bfd78bef","s":"0x66e0a4a68509baa853349aa9096276dcc5829ab23fd1d85ab1dd7599bfd78bef","to":"0x319b69888b0d11cec22caa5034e25fffbdc88421","transactionIndex":"0x0","v":"0x2734","value":"0x0","contractAddress":null,"cumulativeGasUsed":"0x1d205","daFee":"0x0","daGasPrice":"0x0","daGasUsed":"0x12c","gasUsed":"0x1d205","l1Fee":"0x1c5145ff7a866d0","l1FeeScalar":"1","l1GasPrice":"0x3f1249c65230","l1GasUsed":"0x72f","logs":[{"address":"0x201eba5cc46d216ce6dc03f6a759e8e766e956ae","blockHash":"0xb1a0ba5dffdc512d5454f6c21bd23e8d1c34bb52c9c591a6a18d01c6d2890b87","blockNumber":"0xcff397","data":"0x00000000000000000000000000000000000000000000000000000000000dc184","logIndex":"0x0","removed":false,"topics":["0xddf252ad1be2c89b69c2b068fc378daa952ba7f163c4a11628f55a4df523b3ef","0x000000000000000000000000628f7131cf43e88ebe3921ae78c4ba0c31872bd4","0x000000000000000000000000d7094ec61467b428909576e19152269a7852d5d4"],"transactionHash":"0xb8fb09624ca8a2bddf39a67c865681551b14d56e02e47d02de5ecf8b54f86678","transactionIndex":"0x0"},{"address":"0xdeaddeaddeaddeaddeaddeaddeaddeaddead1111","blockHash":"0xb1a0ba5dffdc512d5454f6c21bd23e8d1c34bb52c9c591a6a18d01c6d2890b87","blockNumber":"0xcff397","data":"0x000000000000000000000000000000000000000000000000000206697785a000","logIndex":"0x1","removed":false,"topics":["0xddf252ad1be2c89b69c2b068fc378daa952ba7f163c4a11628f55a4df523b3ef","0x000000000000000000000000d7094ec61467b428909576e19152269a7852d5d4","0x000000000000000000000000628f7131cf43e88ebe3921ae78c4ba0c31872bd4"],"transactionHash":"0xb8fb09624ca8a2bddf39a67c865681551b14d56e02e47d02de5ecf8b54f86678","transactionIndex":"0x0"},{"address":"0xdeaddeaddeaddeaddeaddeaddeaddeaddead1111","blockHash":"0xb1a0ba5dffdc512d5454f6c21bd23e8d1c34bb52c9c591a6a18d01c6d2890b87","blockNumber":"0xcff397","data":"0xfffffffffffffffffffffffffffffffffffffffffffffffffacd7dafcc646fff","logIndex":"0x2","removed":false,"topics":["0x8c5be1e5ebec7d5bd14f71427d1e84f3dd0314c0f7b2291e5b200ac8c7c3b925","0x000000000000000000000000d7094ec61467b428909576e19152269a7852d5d4","0x000000000000000000000000319b69888b0d11cec22caa5034e25fffbdc88421"],"transactionHash":"0xb8fb09624ca8a2bddf39a67c865681551b14d56e02e47d02de5ecf8b54f86678","transactionIndex":"0x0"},{"address":"0x628f7131cf43e88ebe3921ae78c4ba0c31872bd4","blockHash":"0xb1a0ba5dffdc512d5454f6c21bd23e8d1c34bb52c9c591a6a18d01c6d2890b87","blockNumber":"0xcff397","data":"0xfffffffffffffffffffffffffffffffffffffffffffffffffffffffffff23e7c000000000000000000000000000000000000000000000000000206697785a000000000000000000000000000000000000000623897cba4f3908ddf4f9a99b3b600000000000000000000000000000000000000000000000000002c65dde06c2000000000000000000000000000000000000000000000000000000000000317a20000000000000000000000000000000000000000000000000000000000000000000000000000000000000000000000000000000000000000000000168fb0a900","logIndex":"0x3","removed":false,"topics":["0x19b47279256b2a23a1665c810c8d55a1758940ee09377d4f8d26497a3577dc83","0x000000000000000000000000319b69888b0d11cec22caa5034e25fffbdc88421","0x000000000000000000000000d7094ec61467b428909576e19152269a7852d5d4"],"transactionHash":"0xb8fb09624ca8a2bddf39a67c865681551b14d56e02e47d02de5ecf8b54f86678","transactionIndex":"0x0"}],"logsBloom":"0x40100000000000000000000000000000000000000001008800000000100000000000000000000000000000000002000000000000000000000000000000200000840000000040000000000008000000000000008000002004000000000000000000000001000000000000000100000000000000000000000000000010000000000000000000000000000000000000000000000000000000000008000000000000020000000000000000000000000000000000000001000020000100000000000000000002000000000000000000000000000000000000000000000000000000000010000000001000400000000000000000000000000000000000000000000000","status":"0x1","transactionHash":"0xb8fb09624ca8a2bddf39a67c865681551b14d56e02e47d02de5ecf8b54f86678"}}}