{"block":{"difficulty":"0x2","extraData":"0xd98301090a846765746889676f312e31352e3133856c696e75780000000000004219971e286c33981a6edf773e896640e9f08489116b3834b62af7c7ff5cbe891df288937026ae8f9ae52afdc2e7cd496f04feba69036de1de98cd250c99042b01","gasLimit":"0x1c9c380","gasUsed":"0x1d421","hash":"0x4e4ba5a2bc0a58cc7244934de3b7a4d1cb597b9eb0449704813c794f9100a8c6","logsBloom":"0x00000000000000000000000000000000000000000001008800000000000000000004000000000000000000000002000000000000000000000000000000200000140000000040000000000008000000000000008000042000000200000000000001000000000000000000000000000080000000000000000000000010000000000000000000000000000000000000000000100000000000000000000000000040020000020000000000000000000200000000000001000000000000000000000000000002000000000000000000000000000000000000000000000010000000000010000000000000000000000000000800000000000000000000000000000000","miner":"0x0000000000000000000000000000000000000000","mixHash":"0x0000000000000000000000000000000000000000000000000000000000000000","nonce":"0x0000000000000000","number":"0xd002f7","parentHash":"0x1dd03f3609ec59c16a2406cbcf6bbb32c4fb656e1b4190ed02be0a3304a36d1d","receiptsRoot":"0xa67d91aaf3d74a4c170ae108255fe5d3d5af23edc71669beb8d89a777abc8b4c","sha3Uncles":"0x1dcc4de8dec75d7aab85b567b6ccd41ad312451b948a7413f0a142fd40d49347","size":"0x3d8","stateRoot":"0xc16e8d86ee6c613394040f61e3e5ff5e76188def8340151347aeedf26554ade8","timestamp":"0x65243e52","totalDifficulty":"0x1a005ef","transactions":[{"blockHash":"0x4e4ba5a2bc0a58cc7244934de3b7a4d1cb597b9eb0449704813c794f9100a8c6","blockNumber":"0xd002f7","from":"0xf7beab40f006edac1ba6e37f468595d2850f9e6f","gas":"0x1eb85","gasPrice":"0x2faf080","hash":"0x0f6a4bb43d8ab2c47b2ed001119395fa669cf513aff702c294b40fa56860d916","index":"0xd002f6","input":"0x414bf389000000000000000000000000201eba5cc46d216ce6dc03f6a759e8e766e956ae00000000000000000000000078c1b0c915c4faa5fffa6cabf0219da63d7f4cb800000000000000000000000000000000000000000000000000000000000001f4000000000000000000000000f7beab40f006edac1ba6e37f468595d2850f9e6f0000000000000000000000000000000000000000000000000000000065243e700000000000000000000000000000000000000000000000000000000000118c3000000000000000000000000000000000000000000000000029d01bce939a97bd0000000000000000000000000000000000000000000000000000000000000000","l1BlockNumber":"0x11774e5","l1Timestamp":"0x65243e52","l1TxOrigin":null,"nonce":"0x9dc","queueIndex":null,"queueOrigin":"sequencer","r":"0x60c5c320c94f6a74bb1af00de63cebfc602ce989f8f6b9d875b711257331a79c","rawTransaction":"0xf9016e8209dc8402faf0808301eb8594319b69888b0d11cec22caa5034e25fffbdc8842180b90104414bf389000000000000000000000000201eba5cc46d216ce6dc03f6a759e8e766e956ae00000000000000000000000078c1b0c915c4faa5fffa6cabf0219da63d7f4cb800000000000000000000000000000000000000000000000000000000000001f4000000000000000000000000f7beab40f006edac1ba6e37f468595d2850f9e6f0000000000000000000000000000000000000000000000000000000065243e700000000000000000000000000000000000000000000000000000000000118c3000000000000000000000000000000000000000000000000029d01bce939a97bd0000000000000000000000000000000000000000000000000000000000000000822734a060c5c320c94f6a74bb1af00de63cebfc602ce989f8f6b9d875b711257331a79ca033e28e732338fa4749ccc7d7665ec5b31d9be013bf495364aed089e9c58b4f9c","s":"0x33e28e732338fa4749ccc7d7665ec5b31d9be013bf495364aed089e9c58b4f9c","to":"0x319b69888b0d11cec22caa5034e25fffbdc88421","transactionIndex":"0x0","v":"0x2734","value":"0x0"}],"transactionsRoot":"0xd26876b03b60e96f5397ef34bb2828b420c50f3bdefa164b7f89cf1e2db7c992","uncles":[]},"receipts":{"0x0f6a4bb43d8ab2c47b2ed001119395fa669cf513aff702c294b40fa56860d916":{"blockHash":"0x4e4ba5a2bc0a58cc7244934de3b7a4d1cb597b9eb0449704813c794f9100a8c6","blockNumber":"0xd002f7","from":"0xf7beab40f006edac1ba6e37f468595d2850f9e6f","gas":"0x1eb85","gasPrice":"0x2faf080","hash":"0x0f6a4bb43d8ab2c47b2ed001119395fa669cf513aff702c294b40fa56860d916","index":"0xd002f6","input":"0x414bf389000000000000000000000000201eba5cc46d216ce6dc03f6a759e8e766e956ae00000000000000000000000078c1b0c915c4faa5fffa6cabf0219da63d7f4cb800000000000000000000000000000000000000000000000000000000000001f4000000000000000000000000f7beab40f006edac1ba6e37f468595d2850f9e6f0000000000000000000000000000000000000000000000000000000065243e700000000000000000000000000000000000000000000000000000000000118c3000000000000000000000000000000000000000000000000029d01bce939a97bd0000000000000000000000000000000000000000000000000000000000000000","l1BlockNumber":"0x11774e5","l1Timestamp":"0x65243e52","l1TxOrigin":null,"nonce":"0x9dc","queueIndex":null,"queueOrigin":"sequencer","r":"0x60c5c320c94f6a74bb1af00de63cebfc602ce989f8f6b9d875b711257331a79c","rawTransaction":"0xf9016e8209dc8402faf0808301eb8594319b69888b0d11cec22caa5034e25fffbdc8842180b90104414bf389000000000000000000000000201eba5cc46d216ce6dc03f6a759e8e766e956ae00000000000000000000000078c1b0c915c4faa5fffa6cabf0219da63d7f4cb800000000000000000000000000000000000000000000000000000000000001f4000000000000000000000000f7beab40f006edac1ba6e37f468595d2850f9e6f0000000000000000000000000000000000000000000000000000000065243e700000000000000000000000000000000000000000000000000000000000118c3000000000000000000000000000000000000000000000000029d01bce939a97bd0000000000000000000000000000000000000000000000000000000000000000822734a060c5c320c94f6a74bb1af00de63cebfc602ce989f8f6b9d875b711257331a79ca033e28e732338fa4749ccc7d7665ec5b31d9be013bf495364aed089e9c58b4f9c","s":"0x33e28e732338fa4749ccc7d7665ec5b31d9be013bf495364aed089e9c58b4f9c","to":"0x319b69888b0d11cec22caa5034e25fffbdc88421","transactionIndex":"0x0","v":"0x2734","value":"0x0","contractAddress":null,"cumulativeGasUsed":"0x1d421","daFee":"0x0","daGasPrice":"0x0","daGasUsed":"0x12c","gasUsed":"0x1d421","l1Fee":"0x19709d787180660","l1FeeScalar":"1","l1GasPrice":"0x38a987f04864","l1GasUsed":"0x72f","logs":[{"address":"0x78c1b0c915c4faa5fffa6cabf0219da63d7f4cb8","blockHash":"0x4e4ba5a2bc0a58cc7244934de3b7a4d1cb597b9eb0449704813c794f9100a8c6","blockNumber":"0xd002f7","data":"0x0000000000000000000000000000000000000000000000002aaa8f502e205c25","logIndex":"0x0","removed":false,"topics":["0xddf252ad1be2c89b69c2b068fc378daa952ba7f163c4a11628f55a4df523b3ef","0x000000000000000000000000d08c50f7e69e9aeb2867deff4a8053d9a855e26a","0x000000000000000000000000f7beab40f006edac1ba6e37f468595d2850f9e6f"],"transactionHash":"0x0f6a4bb43d8ab2c47b2ed001119395fa669cf513aff702c294b40fa56860d916","transactionIndex":"0x0"},{"address":"0x201eba5cc46d216ce6dc03f6a759e8e766e956ae","blockHash":"0x4e4ba5a2bc0a58cc7244934de3b7a4d1cb597b9eb0449704813c794f9100a8c6","blockNumber":"0xd002f7","data":"0x0000000000000000000000000000000000000000000000000000000000118c30","logIndex":"0x1","removed":false,"topics":["0xddf252ad1be2c89b69c2b068fc378daa952ba7f163c4a11628f55a4df523b3ef","0x000000000000000000000000f7beab40f006edac1ba6e37f468595d2850f9e6f","0x000000000000000000000000d08c50f7e69e9aeb2867deff4a8053d9a855e26a"],"transactionHash":"0x0f6a4bb43d8ab2c47b2ed001119395fa669cf513aff702c294b40fa56860d916","transactionIndex":"0x0"},{"address":"0x201eba5cc46d216ce6dc03f6a759e8e766e956ae","blockHash":"0x4e4ba5a2bc0a58cc7244934de3b7a4d1cb597b9eb0449704813c794f9100a8c6","blockNumber":"0xd002f7","data":"0xffffffffffffffffffffffffffffffffffffffffffffffffffffffffbf63a00f","logIndex":"0x2","removed":false,"topics":["0x8c5be1e5ebec7d5bd14f71427d1e84f3dd0314c0f7b2291e5b200ac8c7c3b925","0x000000000000000000000000f7beab40f006edac1ba6e37f468595d2850f9e6f","0x000000000000000000000000319b69888b0d11cec22caa5034e25fffbdc88421"],"transactionHash":"0x0f6a4bb43d8ab2c47b2ed001119395fa669cf513aff702c294b40fa56860d916","transactionIndex":"0x0"},{"address":"0xd08c50f7e69e9aeb2867deff4a8053d9a855e26a","blockHash":"0x4e4ba5a2bc0a58cc7244934de3b7a4d1cb597b9eb0449704813c794f9100a8c6","blockNumber":"0xd002f7","data":"0x0000000000000000000000000000000000000000000000000000000000118c30ffffffffffffffffffffffffffffffffffffffffffffffffd55570afd1dfa3db000000000000000000000000000000000018f45646d22444ddc2a7d5c2d80984000000000000000000000000000000000000000000000000006787d5d3ab8a8c0000000000000000000000000000000000000000000000000000000000045dd200000000000000000000000000000000000000000000000000000000000000c30000000000000000000000000000000000000000000000000000000000000000","logIndex":"0x3","removed":false,"topics":["0x19b47279256b2a23a1665c810c8d55a1758940ee09377d4f8d26497a3577dc83","0x000000000000000000000000319b69888b0d11cec22caa5034e25fffbdc88421","0x000000000000000000000000f7beab40f006edac1ba6e37f468595d2850f9e6f"],"transactionHash":"0x0f6a4bb43d8ab2c47b2ed001119395fa669cf513aff702c294b40fa56860d916","transactionIndex":"0x0"}],"logsBloom":"0x00000000000000000000000000000000000000000001008800000000000000000004000000000000000000000002000000000000000000000000000000200000140000000040000000000008000000000000008000042000000200000000000001000000000000000000000000000080000000000000000000000010000000000000000000000000000000000000000000100000000000000000000000000040020000020000000000000000000200000000000001000000000000000000000000000002000000000000000000000000000000000000000000000010000000000010000000000000000000000000000800000000000000000000000000000000","status":"0x1","transactionHash":"0x0f6a4bb43d8ab2c47b2ed001119395fa669cf513aff702c294b40fa56860d916"}}}