{"block":{"difficulty":"0x2","extraData":"0xd98301090a846765746889676f312e31352e3133856c696e7578000000000000569b49353ed19b74abfa67b540fa04f06e63a88387c3d1a63f7c84be09e49543458ba96021988f0980f01492f8652ff5f2a976acb0b86d34a63990f3f5e9f63501","gasLimit":"0x1c9c380","gasUsed":"0x1fc7c","hash":"0x7457731d2d98432653ec9d58c8203938cbaf0c0e368d29813a9dcde408206c37","logsBloom":"0x0000000000000000000000000000000000004000000100880000000000000000000000000000000000000000000200000000000000200000000000000020000004800000004400000000000800000000000002c000002002000000000000000000000000000000000000000000000000000000100000800000000010000000000000000000000000000000000000000000000010000000000000000000000000020000000000000000000000000000000000000001000000000000000000000000000002000000000000000000000000002000000000000000000000000000000010000000000000000000000000000000000000000010000000000000000000","miner":"0x0000000000000000000000000000000000000000","mixHash":"0x0000000000000000000000000000000000000000000000000000000000000000","nonce":"0x0000000000000000","number":"0xd0013a","parentHash":"0x882b76a6fc499377bc1f3355e8c05ff296cdc0ec066119493c12eb480dbeefb4","receiptsRoot":"0xca29ef7674c3509383d64b6a1d5b6cc9f40b2ff50c982d798ad0d461191e7fa9","sha3Uncles":"0x1dcc4de8dec75d7aab85b567b6ccd41ad312451b948a7413f0a142fd40d49347","size":"0x3d8","stateRoot":"0x82126deaac231028db795c404c71f6a63509f244e2f93559172784fffcda9f02","timestamp":"0x65243d5e","totalDifficulty":"0x1a00275","transactions":[{"blockHash":"0x7457731d2d98432653ec9d58c8203938cbaf0c0e368d29813a9dcde408206c37","blockNumber":"0xd0013a","from":"0x5933de4f17e37dd9aa63c1c722b58e4c6000dbcf","gas":"0x2147b","gasPrice":"0x2faf080","hash":"0xaf0b1fd4dfb9ca015fe36a55dff19126bf1d81f9316f4a09bfdba70b27bab1a0","index":"0xd00139","input":"0x414bf389000000000000000000000000201eba5cc46d216ce6dc03f6a759e8e766e956ae00000000000000000000000009bc4e0d864854c6afb6eb9a9cdf58ac190d0df900000000000000000000000000000000000000000000000000000000000000640000000000000000000000005933de4f17e37dd9aa63c1c722b58e4c6000dbcf0000000000000000000000000000000000000000000000000000000065243d800000000000000000000000000000000000000000000000000000000000122870000000000000000000000000000000000000000000000000000000000011cc850000000000000000000000000000000000000000000000000000000000000000","l1BlockNumber":"0x11774d0","l1Timestamp":"0x65243d5e","l1TxOrigin":null,"nonce":"0x10ad","queueIndex":null,"queueOrigin":"sequencer","r":"0xd884d7663752642cea682f64e1bb7b3ea57084278c476910d09c5b2f143b9cbd","rawTransaction":"0xf9016e8210ad8402faf0808302147b94319b69888b0d11cec22caa5034e25fffbdc8842180b90104414bf389000000000000000000000000201eba5cc46d216ce6dc03f6a759e8e766e956ae00000000000000000000000009bc4e0d864854c6afb6eb9a9cdf58ac190d0df900000000000000000000000000000000000000000000000000000000000000640000000000000000000000005933de4f17e37dd9aa63c1c722b58e4c6000dbcf0000000000000000000000000000000000000000000000000000000065243d800000000000000000000000000000000000000000000000000000000000122870000000000000000000000000000000000000000000000000000000000011cc850000000000000000000000000000000000000000000000000000000000000000822733a0d884d7663752642cea682f64e1bb7b3ea57084278c476910d09c5b2f143b9cbda078919f999a5281fe3d5f75da2302e4d87eaf3a313be2f42cb4c5a75047b6b7df","s":"0x78919f999a5281fe3d5f75da2302e4d87eaf3a313be2f42cb4c5a75047b6b7df","to":"0x319b69888b0d11cec22caa5034e25fffbdc88421","transactionIndex":"0x0","v":"0x2733","value":"0x0"}],"transactionsRoot":"0x27e50a160eff36e248462edb7ebdf13c1877b4f21b59006ba21f8bb915d3cd0b","uncles":[]},"receipts":{"0xaf0b1fd4dfb9ca015fe36a55dff19126bf1d81f9316f4a09bfdba70b27bab1a0":{"blockHash":"0x7457731d2d98432653ec9d58c8203938cbaf0c0e368d29813a9dcde408206c37","blockNumber":"0xd0013a","from":"0x5933de4f17e37dd9aa63c1c722b58e4c6000dbcf","gas":"0x2147b","gasPrice":"0x2faf080","hash":"0xaf0b1fd4dfb9ca015fe36a55dff19126bf1d81f9316f4a09bfdba70b27bab1a0","index":"0xd00139","input":"0x414bf389000000000000000000000000201eba5cc46d216ce6dc03f6a759e8e766e956ae00000000000000000000000009bc4e0d864854c6afb6eb9a9cdf58ac190d0df900000000000000000000000000000000000000000000000000000000000000640000000000000000000000005933de4f17e37dd9aa63c1c722b58e4c6000dbcf0000000000000000000000000000000000000000000000000000000065243d800000000000000000000000000000000000000000000000000000000000122870000000000000000000000000000000000000000000000000000000000011cc850000000000000000000000000000000000000000000000000000000000000000","l1BlockNumber":"0x11774d0","l1Timestamp":"0x65243d5e","l1TxOrigin":null,"nonce":"0x10ad","queueIndex":null,"queueOrigin":"sequencer","r":"0xd884d7663752642cea682f64e1bb7b3ea57084278c476910d09c5b2f143b9cbd","rawTransaction":"0xf9016e8210ad8402faf0808302147b94319b69888b0d11cec22caa5034e25fffbdc8842180b90104414bf389000000000000000000000000201eba5cc46d216ce6dc03f6a759e8e766e956ae00000000000000000000000009bc4e0d864854c6afb6eb9a9cdf58ac190d0df900000000000000000000000000000000000000000000000000000000000000640000000000000000000000005933de4f17e37dd9aa63c1c722b58e4c6000dbcf0000000000000000000000000000000000000000000000000000000065243d800000000000000000000000000000000000000000000000000000000000122870000000000000000000000000000000000000000000000000000000000011cc850000000000000000000000000000000000000000000000000000000000000000822733a0d884d7663752642cea682f64e1bb7b3ea57084278c476910d09c5b2f143b9cbda078919f999a5281fe3d5f75da2302e4d87eaf3a313be2f42cb4c5a75047b6b7df","s":"0x78919f999a5281fe3d5f75da2302e4d87eaf3a313be2f42cb4c5a75047b6b7df","to":"0x319b69888b0d11cec22caa5034e25fffbdc88421","transactionIndex":"0x0","v":"0x2733","value":"0x0","contractAddress":null,"cumulativeGasUsed":"0x1fc7c","daFee":"0x0","daGasPrice":"0x0","daGasUsed":"0x12c","gasUsed":"0x1fc7c","l1Fee":"0x1a09f6380cb9fe0","l1FeeScalar":"1","l1GasPrice":"0x39ff1464e55c","l1GasUsed":"0x72f","logs":[{"address":"0x09bc4e0d864854c6afb6eb9a9cdf58ac190d0df9","blockHash":"0x7457731d2d98432653ec9d58c8203938cbaf0c0e368d29813a9dcde408206c37","blockNumber":"0xd0013a","data":"0x0000000000000000000000000000000000000000000000000000000000122983","logIndex":"0x0","removed":false,"topics":["0xddf252ad1be2c89b69c2b068fc378daa952ba7f163c4a11628f55a4df523b3ef","0x0000000000000000000000006488f911c6cd86c289aa319c5a826dcf8f1ca065","0x0000000000000000000000005933de4f17e37dd9aa63c1c722b58e4c6000dbcf"],"transactionHash":"0xaf0b1fd4dfb9ca015fe36a55dff19126bf1d81f9316f4a09bfdba70b27bab1a0","transactionIndex":"0x0"},{"address":"0x201eba5cc46d216ce6dc03f6a759e8e766e956ae","blockHash":"0x7457731d2d98432653ec9d58c8203938cbaf0c0e368d29813a9dcde408206c37","blockNumber":"0xd0013a","data":"0x0000000000000000000000000000000000000000000000000000000000122870","logIndex":"0x1","removed":false,"topics":["0xddf252ad1be2c89b69c2b068fc378daa952ba7f163c4a11628f55a4df523b3ef","0x0000000000000000000000005933de4f17e37dd9aa63c1c722b58e4c6000dbcf","0x0000000000000000000000006488f911c6cd86c289aa319c5a826dcf8f1ca065"],"transactionHash":"0xaf0b1fd4dfb9ca015fe36a55dff19126bf1d81f9316f4a09bfdba70b27bab1a0","transactionIndex":"0x0"},{"address":"0x201eba5cc46d216ce6dc03f6a759e8e766e956ae","blockHash":"0x7457731d2d98432653ec9d58c8203938cbaf0c0e368d29813a9dcde408206c37","blockNumber":"0xd0013a","data":"0xffffffffffffffffffffffffffffffffffffffffffffffffffffffff8ca29d1f","logIndex":"0x2","removed":false,"topics":["0x8c5be1e5ebec7d5bd14f71427d1e84f3dd0314c0f7b2291e5b200ac8c7c3b925","0x0000000000000000000000005933de4f17e37dd9aa63c1c722b58e4c6000dbcf","0x000000000000000000000000319b69888b0d11cec22caa5034e25fffbdc88421"],"transactionHash":"0xaf0b1fd4dfb9ca015fe36a55dff19126bf1d81f9316f4a09bfdba70b27bab1a0","transactionIndex":"0x0"},{"address":"0x6488f911c6cd86c289aa319c5a826dcf8f1ca065","blockHash":"0x7457731d2d98432653ec9d58c8203938cbaf0c0e368d29813a9dcde408206c37","blockNumber":"0xd0013a","data":"0xffffffffffffffffffffffffffffffffffffffffffffffffffffffffffedd67d00000000000000000000000000000000000000000000000000000000001228700000000000000000000000000000000000000000fff52090a6258f8962498b5d0000000000000000000000000000000000000000000000000000aa91ae904e92fffffffffffffffffffffffffffffffffffffffffffffffffffffffffffffffc00000000000000000000000000000000000000000000000000000000000000000000000000000000000000000000000000000000000000000000000000000027","logIndex":"0x3","removed":false,"topics":["0x19b47279256b2a23a1665c810c8d55a1758940ee09377d4f8d26497a3577dc83","0x000000000000000000000000319b69888b0d11cec22caa5034e25fffbdc88421","0x0000000000000000000000005933de4f17e37dd9aa63c1c722b58e4c6000dbcf"],"transactionHash":"0xaf0b1fd4dfb9ca015fe36a55dff19126bf1d81f9316f4a09bfdba70b27bab1a0","transactionIndex":"0x0"}],"logsBloom":"0x0000000000000000000000000000000000004000000100880000000000000000000000000000000000000000000200000000000000200000000000000020000004800000004400000000000800000000000002c000002002000000000000000000000000000000000000000000000000000000100000800000000010000000000000000000000000000000000000000000000010000000000000000000000000020000000000000000000000000000000000000001000000000000000000000000000002000000000000000000000000002000000000000000000000000000000010000000000000000000000000000000000000000010000000000000000000","status":"0x1","transactionHash":"0xaf0b1fd4dfb9ca015fe36a55dff19126bf1d81f9316f4a09bfdba70b27bab1a0"}}}