{"block":{"difficulty":"0x2","extraData":"0xd98301090a846765746889676f312e31352e3133856c696e75780000000000007dc2a51a55b50620274bbe20f2e509913f6dea5212d245a2a7f19058b217e2692c4e72b54c551540fe63e41f747b22b679943b6ebe5ab851d41d2be939b62c0f00","gasLimit":"0x1c9c380","gasUsed":"0x2375d","hash":"0x9057f6c7b843d16fcff3f99ac4d89ad228fb315c475da363443f582e7e25b1c7","logsBloom":"0x00000000000000000000000000000000000000000001001000000000000000000800000000000000000000000002000000000000000000000000000000200000040000008040000000000408000000000000008000002000000000000000000000000000000000000000000100000000000000000000000000000010000000000000000000000000000000000000040000020000000000000000000040000400060000000000000000000000000000000000000000000000004100000000000000000002000000000000000000000000000000000000000000000000000000000010000000001000000000000000004000000000000000000000001000000000","miner":"0x0000000000000000000000000000000000000000","mixHash":"0x0000000000000000000000000000000000000000000000000000000000000000","nonce":"0x0000000000000000","number":"0xcff35d","parentHash":"0x10c15d0e1d26f153f1cd4c9483c3a00029ce5f60ea6b3695b78f7be6488680b1","receiptsRoot":"0x0622d14653e7fe487e1e4678e8e242644d71eac6ce60f9cc29ff49f9cdbb1b11","sha3Uncles":"0x1dcc4de8dec75d7aab85b567b6ccd41ad312451b948a7413f0a142fd40d49347","size":"0x3d8","stateRoot":"0x9c076f5f90f9d99602bc998e458fcd9b6f908fe3ac1db181fbec2ab3227853a0","timestamp":"0x6524372f","totalDifficulty":"0x19fe6bb","transactions":[{"blockHash":"0x9057f6c7b843d16fcff3f99ac4d89ad228fb315c475da363443f582e7e25b1c7","blockNumber":"0xcff35d","from":"0x7185cccf4d8169d88ece6a6ef3d418a2097d0629","gas":"0x2504e","gasPrice":"0x2faf080","hash":"0x74f799f5e76833a811ae5afe69282e19e9c8e60632ac9a699ab0d7a1d11ced35","index":"0xcff35c","input":"0x414bf389000000000000000000000000deaddeaddeaddeaddeaddeaddeaddeaddead1111000000000000000000000000201eba5cc46d216ce6dc03f6a759e8e766e956ae00000000000000000000000000000000000000000000000000000000000001f40000000000000000000000007185cccf4d8169d88ece6a6ef3d418a2097d062900000000000000000000000000000000000000000000000000000000652437510000000000000000000000000000000000000000000000000001c2332b29f00000000000000000000000000000000000000000000000000000000000000ba1890000000000000000000000000000000000000000000000000000000000000000","l1BlockNumber":"0x117744d","l1Timestamp":"0x6524372f","l1TxOrigin":null,"nonce":"0xf70","queueIndex":null,"queueOrigin":"sequencer","r":"0xdf0656f5b3119157fa718da706e19b7cd7e1ccad39d22d952e099100f52ce515","rawTransaction":"0xf9016e820f708402faf0808302504e945989fb161568b9f133edf5cf6787f5597762797f80b90104414bf389000000000000000000000000deaddeaddeaddeaddeaddeaddeaddeaddead1111000000000000000000000000201eba5cc46d216ce6dc03f6a759e8e766e956ae00000000000000000000000000000000000000000000000000000000000001f40000000000000000000000007185cccf4d8169d88ece6a6ef3d418a2097d062900000000000000000000000000000000000000000000000000000000652437510000000000000000000000000000000000000000000000000001c2332b29f00000000000000000000000000000000000000000000000000000000000000ba1890000000000000000000000000000000000000000000000000000000000000000822734a0df0656f5b3119157fa718da706e19b7cd7e1ccad39d22d952e099100f52ce515a03e56ad3b78e0afea1740b9119782b18a970e1623390194302957fc0b4ed833ca","s":"0x3e56ad3b78e0afea1740b9119782b18a970e1623390194302957fc0b4ed833ca","to":"0x5989fb161568b9f133edf5cf6787f5597762797f","transactionIndex":"0x0","v":"0x2734","value":"0x0"}],"transactionsRoot":"0xe20b139d01c88f2bcb7813ff12f216e488132cd2d051822affa756ddebda0316","uncles":[]},"receipts":{"0x74f799f5e76833a811ae5afe69282e19e9c8e60632ac9a699ab0d7a1d11ced35":{"blockHash":"0x9057f6c7b843d16fcff3f99ac4d89ad228fb315c475da363443f582e7e25b1c7","blockNumber":"0xcff35d","from":"0x7185cccf4d8169d88ece6a6ef3d418a2097d0629","gas":"0x2504e","gasPrice":"0x2faf080","hash":"0x74f799f5e76833a811ae5afe69282e19e9c8e60632ac9a699ab0d7a1d11ced35","index":"0xcff35c","input":"0x414bf389000000000000000000000000deaddeaddeaddeaddeaddeaddeaddeaddead1111000000000000000000000000201eba5cc46d216ce6dc03f6a759e8e766e956ae00000000000000000000000000000000000000000000000000000000000001f40000000000000000000000007185cccf4d8169d88ece6a6ef3d418a2097d062900000000000000000000000000000000000000000000000000000000652437510000000000000000000000000000000000000000000000000001c2332b29f00000000000000000000000000000000000000000000000000000000000000ba1890000000000000000000000000000000000000000000000000000000000000000","l1BlockNumber":"0x117744d","l1Timestamp":"0x6524372f","l1TxOrigin":null,"nonce":"0xf70","queueIndex":null,"queueOrigin":"sequencer","r":"0xdf0656f5b3119157fa718da706e19b7cd7e1ccad39d22d952e099100f52ce515","rawTransaction":"0xf9016e820f708402faf0808302504e945989fb161568b9f133edf5cf6787f5597762797f80b90104414bf389000000000000000000000000deaddeaddeaddeaddeaddeaddeaddeaddead1111000000000000000000000000201eba5cc46d216ce6dc03f6a759e8e766e956ae00000000000000000000000000000000000000000000000000000000000001f40000000000000000000000007185cccf4d8169d88ece6a6ef3d418a2097d062900000000000000000000000000000000000000000000000000000000652437510000000000000000000000000000000000000000000000000001c2332b29f00000000000000000000000000000000000000000000000000000000000000ba1890000000000000000000000000000000000000000000000000000000000000000822734a0df0656f5b3119157fa718da706e19b7cd7e1ccad39d22d952e099100f52ce515a03e56ad3b78e0afea1740b9119782b18a970e1623390194302957fc0b4ed833ca","s":"0x3e56ad3b78e0afea1740b9119782b18a970e1623390194302957fc0b4ed833ca","to":"0x5989fb161568b9f133edf5cf6787f5597762797f","transactionIndex":"0x0","v":"0x2734","value":"0x0","contractAddress":null,"cumulativeGasUsed":"0x2375d","daFee":"0x0","daGasPrice":"0x0","daGasUsed":"0x12c","gasUsed":"0x2375d","l1Fee":"0x1c5145ff7a866d0","l1FeeScalar":"1","l1GasPrice":"0x3f1249c65230","l1GasUsed":"0x72f","logs":[{"address":"0x201eba5cc46d216ce6dc03f6a759e8e766e956ae","blockHash":"0x9057f6c7b843d16fcff3f99ac4d89ad228fb315c475da363443f582e7e25b1c7","blockNumber":"0xcff35d","data":"0x00000000000000000000000000000000000000000000000000000000000bde4e","logIndex":"0x0","removed":false,"topics":["0xddf252ad1be2c89b69c2b068fc378daa952ba7f163c4a11628f55a4df523b3ef","0x000000000000000000000000a125af1a4704044501fe12ca9567ef1550e430e8","0x0000000000000000000000007185cccf4d8169d88ece6a6ef3d418a2097d0629"],"transactionHash":"0x74f799f5e76833a811ae5afe69282e19e9c8e60632ac9a699ab0d7a1d11ced35","transactionIndex":"0x0"},{"address":"0xdeaddeaddeaddeaddeaddeaddeaddeaddead1111","blockHash":"0x9057f6c7b843d16fcff3f99ac4d89ad228fb315c475da363443f582e7e25b1c7","blockNumber":"0xcff35d","data":"0x0000000000000000000000000000000000000000000000000001c2332b29f000","logIndex":"0x1","removed":false,"topics":["0xddf252ad1be2c89b69c2b068fc378daa952ba7f163c4a11628f55a4df523b3ef","0x0000000000000000000000007185cccf4d8169d88ece6a6ef3d418a2097d0629","0x000000000000000000000000a125af1a4704044501fe12ca9567ef1550e430e8"],"transactionHash":"0x74f799f5e76833a811ae5afe69282e19e9c8e60632ac9a699ab0d7a1d11ced35","transactionIndex":"0x0"},{"address":"0xdeaddeaddeaddeaddeaddeaddeaddeaddead1111","blockHash":"0x9057f6c7b843d16fcff3f99ac4d89ad228fb315c475da363443f582e7e25b1c7","blockNumber":"0xcff35d","data":"0xffffffffffffffffffffffffffffffffffffffffffffffffff86ba65fa978fff","logIndex":"0x2","removed":false,"topics":["0x8c5be1e5ebec7d5bd14f71427d1e84f3dd0314c0f7b2291e5b200ac8c7c3b925","0x0000000000000000000000007185cccf4d8169d88ece6a6ef3d418a2097d0629","0x0000000000000000000000005989fb161568b9f133edf5cf6787f5597762797f"],"transactionHash":"0x74f799f5e76833a811ae5afe69282e19e9c8e60632ac9a699ab0d7a1d11ced35","transactionIndex":"0x0"},{"address":"0xa125af1a4704044501fe12ca9567ef1550e430e8","blockHash":"0x9057f6c7b843d16fcff3f99ac4d89ad228fb315c475da363443f582e7e25b1c7","blockNumber":"0xcff35d","data":"0xfffffffffffffffffffffffffffffffffffffffffffffffffffffffffff421b20000000000000000000000000000000000000000000000000001c2332b29f0000000000000000000000000000000000000006284c3213a4efdbd47af173f250900000000000000000000000000000000000000000000000000c2df904b49ba7000000000000000000000000000000000000000000000000000000000000317de00000000000000000000000000000000000000000000000000000000000000000000000000000000000000000000000000000000000000000000001397bb1980","logIndex":"0x3","removed":false,"topics":["0x19b47279256b2a23a1665c810c8d55a1758940ee09377d4f8d26497a3577dc83","0x0000000000000000000000005989fb161568b9f133edf5cf6787f5597762797f","0x0000000000000000000000007185cccf4d8169d88ece6a6ef3d418a2097d0629"],"transactionHash":"0x74f799f5e76833a811ae5afe69282e19e9c8e60632ac9a699ab0d7a1d11ced35","transactionIndex":"0x0"}],"logsBloom":"0x00000000000000000000000000000000000000000001001000000000000000000800000000000000000000000002000000000000000000000000000000200000040000008040000000000408000000000000008000002000000000000000000000000000000000000000000100000000000000000000000000000010000000000000000000000000000000000000040000020000000000000000000040000400060000000000000000000000000000000000000000000000004100000000000000000002000000000000000000000000000000000000000000000000000000000010000000001000000000000000004000000000000000000000001000000000","status":"0x1","transactionHash":"0x74f799f5e76833a811ae5afe69282e19e9c8e60632ac9a699ab0d7a1d11ced35"}}}