{"block":{"difficulty":"0x2","extraData":"0xd98301090a846765746889676f312e31352e3133856c696e75780000000000009721e09c827f13cff375b2a030561809b9c61c7dcd731a83b539176c5c1c6396142076e978f655bd8be0bd6273f32b1e901c54a8b4c9044d0c84f8ffd3de298301","gasLimit":"0x1c9c380","gasUsed":"0x8696","hash":"0xa8a19b9937bf7140547b6f7452d0a598cb62d1604d3e386c88cd2c227e44bab4","logsBloom":"0x00000000040000000000000000000000000000000004000000000000000000000000000000000000000000000000000000000000000000000000000000000000000000000000000000000008000000000000000000000000000000000000000000000000000000000000000100000000000000000000000000000010000000000000000000000000000000000000000000000000000000000000000000000000000100000000000000000000000000000000000000000000000100000000000000000003000000000000000000000000000000000000000000000000200000000000000000001000000000000001000000000000000000000000000000000000","miner":"0x0000000000000000000000000000000000000000","mixHash":"0x0000000000000000000000000000000000000000000000000000000000000000","nonce":"0x0000000000000000","number":"0xd00294","parentHash":"0x19fe5ecc75ed5534876eba3e7f06f37e0924bfae586413a47c7e29fdf7dc5da7","receiptsRoot":"0x575880e17d175c6c6cacaec794e72a06e5afe751a4ec99ad4a7c539fb4c8b246","sha3Uncles":"0x1dcc4de8dec75d7aab85b567b6ccd41ad312451b948a7413f0a142fd40d49347","size":"0x313","stateRoot":"0xd5515b8cd036f98e01eb6b183b0926a502136e099bf4d3b9ed2d35fcac462f62","timestamp":"0x65243e20","totalDifficulty":"0x1a00529","transactions":[{"blockHash":"0xa8a19b9937bf7140547b6f7452d0a598cb62d1604d3e386c88cd2c227e44bab4","blockNumber":"0xd00294","from":"0xe4edb277e41dc89ab076a1f049f4a3efa700bce8","gas":"0x8696","gasPrice":"0x3938700","hash":"0xcebd46c3040f46ba1b99fc4b471b6aaa841e9c6282c9b6095a67f04b13bc52e6","index":"0xd00293","input":"0xa9059cbb0000000000000000000000000ed94ddc597721a976d86a5d2be11d0d445dffb90000000000000000000000000000000000000000000000000597b7ff93f81030","l1BlockNumber":"0x11774e1","l1Timestamp":"0x65243e20","l1TxOrigin":null,"nonce":"0x12b9","queueIndex":null,"queueOrigin":"sequencer","r":"0x9b5f467c6e4f57e2d3e813aaa1dd334a272a0626bca7a3a0439db7c26140fa88","rawTransaction":"0xf8ac8212b9840393870082869694deaddeaddeaddeaddeaddeaddeaddeaddead111180b844a9059cbb0000000000000000000000000ed94ddc597721a976d86a5d2be11d0d445dffb90000000000000000000000000000000000000000000000000597b7ff93f81030822733a09b5f467c6e4f57e2d3e813aaa1dd334a272a0626bca7a3a0439db7c26140fa88a05c2ecaf5de7292b3e0e5f072df5209f4a19c21e8b4b1b65e0df793b8873a8116","s":"0x5c2ecaf5de7292b3e0e5f072df5209f4a19c21e8b4b1b65e0df793b8873a8116","to":"0xdeaddeaddeaddeaddeaddeaddeaddeaddead1111","transactionIndex":"0x0","v":"0x2733","value":"0x0"}],"transactionsRoot":"0xae757d4a8904ce0d4d7552fa651313505db5c92c6f4e880c412dcc6985e4ebb6","uncles":[]},"receipts":{"0xcebd46c3040f46ba1b99fc4b471b6aaa841e9c6282c9b6095a67f04b13bc52e6":{"blockHash":"0xa8a19b9937bf7140547b6f7452d0a598cb62d1604d3e386c88cd2c227e44bab4","blockNumber":"0xd00294","from":"0xe4edb277e41dc89ab076a1f049f4a3efa700bce8","gas":"0x8696","gasPrice":"0x3938700","hash":"0xcebd46c3040f46ba1b99fc4b471b6aaa841e9c6282c9b6095a67f04b13bc52e6","index":"0xd00293","input":"0xa9059cbb0000000000000000000000000ed94ddc597721a976d86a5d2be11d0d445dffb90000000000000000000000000000000000000000000000000597b7ff93f81030","l1BlockNumber":"0x11774e1","l1Timestamp":"0x65243e20","l1TxOrigin":null,"nonce":"0x12b9","queueIndex":null,"queueOrigin":"sequencer","r":"0x9b5f467c6e4f57e2d3e813aaa1dd334a272a0626bca7a3a0439db7c26140fa88","rawTransaction":"0xf8ac8212b9840393870082869694deaddeaddeaddeaddeaddeaddeaddeaddead111180b844a9059cbb0000000000000000000000000ed94ddc597721a976d86a5d2be11d0d445dffb90000000000000000000000000000000000000000000000000597b7ff93f81030822733a09b5f467c6e4f57e2d3e813aaa1dd334a272a0626bca7a3a0439db7c26140fa88a05c2ecaf5de7292b3e0e5f072df5209f4a19c21e8b4b1b65e0df793b8873a8116","s":"0x5c2ecaf5de7292b3e0e5f072df5209f4a19c21e8b4b1b65e0df793b8873a8116","to":"0xdeaddeaddeaddeaddeaddeaddeaddeaddead1111","transactionIndex":"0x0","v":"0x2733","value":"0x0","contractAddress":null,"cumulativeGasUsed":"0x8696","daFee":"0x0","daGasPrice":"0x0","daGasUsed":"0x69","gasUsed":"0x8696","l1Fee":"0x19709d787180660","l1FeeScalar":"1","l1GasPrice":"0x38a987f04864","l1GasUsed":"0x72f","logs":[{"address":"0xdeaddeaddeaddeaddeaddeaddeaddeaddead1111","blockHash":"0xa8a19b9937bf7140547b6f7452d0a598cb62d1604d3e386c88cd2c227e44bab4","blockNumber":"0xd00294","data":"0x0000000000000000000000000000000000000000000000000597b7ff93f81030","logIndex":"0x0","removed":false,"topics":["0xddf252ad1be2c89b69c2b068fc378daa952ba7f163c4a11628f55a4df523b3ef","0x000000000000000000000000e4edb277e41dc89ab076a1f049f4a3efa700bce8","0x0000000000000000000000000ed94ddc597721a976d86a5d2be11d0d445dffb9"],"transactionHash":"0xcebd46c3040f46ba1b99fc4b471b6aaa841e9c6282c9b6095a67f04b13bc52e6","transactionIndex":"0x0"}],"logsBloom":"0x00000000040000000000000000000000000000000004000000000000000000000000000000000000000000000000000000000000000000000000000000000000000000000000000000000008000000000000000000000000000000000000000000000000000000000000000100000000000000000000000000000010000000000000000000000000000000000000000000000000000000000000000000000000000100000000000000000000000000000000000000000000000100000000000000000003000000000000000000000000000000000000000000000000200000000000000000001000000000000001000000000000000000000000000000000000","status":"0x1","transactionHash":"0xcebd46c3040f46ba1b99fc4b471b6aaa841e9c6282c9b6095a67f04b13bc52e6"}}}