{"block":{"difficulty":"0x2","extraData":"0xd98301090a846765746889676f312e31352e3133856c696e757800000000000099fe0db25692705e58bdac31b1b651bba7d74005a0e7a83bf7fd9bd00056547c223ee3001171ee7fdf57f762ce0803dc77d55d56ef02825ac46d245f5d934fe001","gasLimit":"0x1c9c380","gasUsed":"0x1e465","hash":"0xf2f33f038a154e05dde9f077f032e8bfc9f65539961e2b138ff77f7f0b4159fc","logsBloom":"0x00000000000000000000000000000000000000000000000000000000000000000000000000000000000000000000000000000000000000000000000000000000000000000000000000000000000000000000000000000000000000000000000000000000000000000000000000000000000000000000000000000000000000000000000000000000000000000000000000000000000000000000000000000000000000000000000000000000000000000000000000000000000000000000000000000000000000000000000000000000000000000000000000000000000000000000000000000000000000000000000000000000000000000000000000000000","miner":"0x0000000000000000000000000000000000000000","mixHash":"0x0000000000000000000000000000000000000000000000000000000000000000","nonce":"0x0000000000000000","number":"0xd00063","parentHash":"0xa6d56eb11d61a28055966ff373621f0720f8faa5b11daee37662d84a2981f6fc","receiptsRoot":"0x783856b4da8bb58c90ac065a6f32f83adb8529399a5d4d82c1b113280712f88e","sha3Uncles":"0x1dcc4de8dec75d7aab85b567b6ccd41ad312451b948a7413f0a142fd40d49347","size":"0x3d8","stateRoot":"0x31e15d432b69b87359338acd914737289266c39e01914a33d6efcfa7f82642b5","timestamp":"0x65243cfc","totalDifficulty":"0x1a000c7","transactions":[{"blockHash":"0xf2f33f038a154e05dde9f077f032e8bfc9f65539961e2b138ff77f7f0b4159fc","blockNumber":"0xd00063","from":"0x3e7194cb265c4d1eb1cce051fa89289efb656217","gas":"0x1ea0d","gasPrice":"0x2faf080","hash":"0xef517fc0c6cc0b8a026b6e63311800766d4d84b4ddd8cc8147fcef4d8aaec431","index":"0xd00062","input":"0x414bf389000000000000000000000000201eba5cc46d216ce6dc03f6a759e8e766e956ae000000000000000000000000deaddeaddeaddeaddeaddeaddeaddeaddead111100000000000000000000000000000000000000000000000000000000000001f40000000000000000000000003e7194cb265c4d1eb1cce051fa89289efb6562170000000000000000000000000000000000000000000000000000000065243d1a00000000000000000000000000000000000000000000000000000000000fde80000000000000000000000000000000000000000000000000000244e7afc698060000000000000000000000000000000000000000000000000000000000000000","l1BlockNumber":"0x11774c8","l1Timestamp":"0x65243cfc","l1TxOrigin":null,"nonce":"0x8fc","queueIndex":null,"queueOrigin":"sequencer","r":"0x847677814fcbef5722c4ee04849f0b63f118a48a063978829c25d4ae3e5577a6","rawTransaction":"0xf9016e8208fc8402faf0808301ea0d94319b69888b0d11cec22caa5034e25fffbdc8842180b90104414bf389000000000000000000000000201eba5cc46d216ce6dc03f6a759e8e766e956ae000000000000000000000000deaddeaddeaddeaddeaddeaddeaddeaddead111100000000000000000000000000000000000000000000000000000000000001f40000000000000000000000003e7194cb265c4d1eb1cce051fa89289efb6562170000000000000000000000000000000000000000000000000000000065243d1a00000000000000000000000000000000000000000000000000000000000fde80000000000000000000000000000000000000000000000000000244e7afc698060000000000000000000000000000000000000000000000000000000000000000822733a0847677814fcbef5722c4ee04849f0b63f118a48a063978829c25d4ae3e5577a6a0687f83d35b6da5f001e61d29e2ca8833def9b8a23e03ceb68a42037eff680258","s":"0x687f83d35b6da5f001e61d29e2ca8833def9b8a23e03ceb68a42037eff680258","to":"0x319b69888b0d11cec22caa5034e25fffbdc88421","transactionIndex":"0x0","v":"0x2733","value":"0x0"}],"transactionsRoot":"0x975f80c4f73491ea0547a739faf849c7ad29674df6df1dcb938a1d465e7791f3","uncles":[]},"receipts":{"0xef517fc0c6cc0b8a026b6e63311800766d4d84b4ddd8cc8147fcef4d8aaec431":{"blockHash":"0xf2f33f038a154e05dde9f077f032e8bfc9f65539961e2b138ff77f7f0b4159fc","blockNumber":"0xd00063","from":"0x3e7194cb265c4d1eb1cce051fa89289efb656217","gas":"0x1ea0d","gasPrice":"0x2faf080","hash":"0xef517fc0c6cc0b8a026b6e63311800766d4d84b4ddd8cc8147fcef4d8aaec431","index":"0xd00062","input":"0x414bf389000000000000000000000000201eba5cc46d216ce6dc03f6a759e8e766e956ae000000000000000000000000deaddeaddeaddeaddeaddeaddeaddeaddead111100000000000000000000000000000000000000000000000000000000000001f40000000000000000000000003e7194cb265c4d1eb1cce051fa89289efb6562170000000000000000000000000000000000000000000000000000000065243d1a00000000000000000000000000000000000000000000000000000000000fde80000000000000000000000000000000000000000000000000000244e7afc698060000000000000000000000000000000000000000000000000000000000000000","l1BlockNumber":"0x11774c8","l1Timestamp":"0x65243cfc","l1TxOrigin":null,"nonce":"0x8fc","queueIndex":null,"queueOrigin":"sequencer","r":"0x847677814fcbef5722c4ee04849f0b63f118a48a063978829c25d4ae3e5577a6","rawTransaction":"0xf9016e8208fc8402faf0808301ea0d94319b69888b0d11cec22caa5034e25fffbdc8842180b90104414bf389000000000000000000000000201eba5cc46d216ce6dc03f6a759e8e766e956ae000000000000000000000000deaddeaddeaddeaddeaddeaddeaddeaddead111100000000000000000000000000000000000000000000000000000000000001f40000000000000000000000003e7194cb265c4d1eb1cce051fa89289efb6562170000000000000000000000000000000000000000000000000000000065243d1a00000000000000000000000000000000000000000000000000000000000fde80000000000000000000000000000000000000000000000000000244e7afc698060000000000000000000000000000000000000000000000000000000000000000822733a0847677814fcbef5722c4ee04849f0b63f118a48a063978829c25d4ae3e5577a6a0687f83d35b6da5f001e61d29e2ca8833def9b8a23e03ceb68a42037eff680258","s":"0x687f83d35b6da5f001e61d29e2ca8833def9b8a23e03ceb68a42037eff680258","to":"0x319b69888b0d11cec22caa5034e25fffbdc88421","transactionIndex":"0x0","v":"0x2733","value":"0x0","contractAddress":null,"cumulativeGasUsed":"0x1e465","daFee":"0x0","daGasPrice":"0x0","daGasUsed":"0x12c","gasUsed":"0x1e465","l1Fee":"0x1a09f6380cb9fe0","l1FeeScalar":"1","l1GasPrice":"0x39ff1464e55c","l1GasUsed":"0x72f","logs":[],"logsBloom":"0x00000000000000000000000000000000000000000000000000000000000000000000000000000000000000000000000000000000000000000000000000000000000000000000000000000000000000000000000000000000000000000000000000000000000000000000000000000000000000000000000000000000000000000000000000000000000000000000000000000000000000000000000000000000000000000000000000000000000000000000000000000000000000000000000000000000000000000000000000000000000000000000000000000000000000000000000000000000000000000000000000000000000000000000000000000000","status":"0x0","transactionHash":"0xef517fc0c6cc0b8a026b6e63311800766d4d84b4ddd8cc8147fcef4d8aaec431"}}}