{"block":{"difficulty":"0x2","extraData":"0xd98301090a846765746889676f312e31352e3133856c696e75780000000000001252abd705acdaa773dd4b8c58bb79424e9e8f611ca0acbdd5b5fb88f0685657404023e75bad0ed8efdeca93bd4a664a682fb3f22600bd5da4f81df7ff65bdd700","gasLimit":"0x1c9c380","gasUsed":"0x1e14f","hash":"0xd7883e9679ea773d85c92640b1de80fe38f4ad9c317fc6d9f0f7e1e95039dfdb","logsBloom":"0x40000000000000000000002000000000000000000001008800000000000000000000000000000000000000000002000000000000000000000000000000200000840000000040000000000008000000000000008000002004000000000000000000000001000000000000000100000000000000000000000000000010000000000000000000000000000000000000000000000000000000000008000000000000020000000000000000000000000000000000000001000020000100000000000200000002000000000000000000000000000000000000000000000000000000000010000000001000000000000000000000000000000000000000000000000000","miner":"0x0000000000000000000000000000000000000000","mixHash":"0x0000000000000000000000000000000000000000000000000000000000000000","nonce":"0x0000000000000000","number":"0xcff3d7","parentHash":"0xa3c689530b1fc97558b46bdbdee844b9d9b729c679b1cbdcce0905e366232d1e","receiptsRoot":"0x9b81887d805b7880a135bf61a713855b173fcb168fe772d9829508fad23d9bef","sha3Uncles":"0x1dcc4de8dec75d7aab85b567b6ccd41ad312451b948a7413f0a142fd40d49347","size":"0x3d8","stateRoot":"0x3b7400496aa86786a1f4d22e0ecad99acc44a461e3d77ee84ea6a00a09b8a83c","timestamp":"0x65243761","totalDifficulty":"0x19fe7af","transactions":[{"blockHash":"0xd7883e9679ea773d85c92640b1de80fe38f4ad9c317fc6d9f0f7e1e95039dfdb","blockNumber":"0xcff3d7","from":"0xf113890385964b5edc3ea1da72108e8b1c94dc04","gas":"0x1f8de","gasPrice":"0x2faf080","hash":"0x98b107c7856d804d35c039c5f7fb543bf5529bf3e0385d7533ef523ce8a480ed","index":"0xcff3d6","input":"0x414bf389000000000000000000000000deaddeaddeaddeaddeaddeaddeaddeaddead1111000000000000000000000000201eba5cc46d216ce6dc03f6a759e8e766e956ae00000000000000000000000000000000000000000000000000000000000001f4000000000000000000000000f113890385964b5edc3ea1da72108e8b1c94dc0400000000000000000000000000000000000000000000000000000000652437800000000000000000000000000000000000000000000000000001eb208c2dc00000000000000000000000000000000000000000000000000000000000000cc7e30000000000000000000000000000000000000000000000000000000000000000","l1BlockNumber":"0x1177450","l1Timestamp":"0x65243761","l1TxOrigin":null,"nonce":"0x8cb","queueIndex":null,"queueOrigin":"sequencer","r":"0xde5367579bc5ef47cbfc092013ac2747667231ecd07e154b5de35234940c1539","rawTransaction":"0xf9016e8208cb8402faf0808301f8de94319b69888b0d11cec22caa5034e25fffbdc8842180b90104414bf389000000000000000000000000deaddeaddeaddeaddeaddeaddeaddeaddead1111000000000000000000000000201eba5cc46d216ce6dc03f6a759e8e766e956ae00000000000000000000000000000000000000000000000000000000000001f4000000000000000000000000f113890385964b5edc3ea1da72108e8b1c94dc0400000000000000000000000000000000000000000000000000000000652437800000000000000000000000000000000000000000000000000001eb208c2dc00000000000000000000000000000000000000000000000000000000000000cc7e30000000000000000000000000000000000000000000000000000000000000000822734a0de5367579bc5ef47cbfc092013ac2747667231ecd07e154b5de35234940c1539a0336e0713cbce8e9de3fa2bafb4bbd3381a555aecf6062c8b36a2207328922fe4","s":"0x336e0713cbce8e9de3fa2bafb4bbd3381a555aecf6062c8b36a2207328922fe4","to":"0x319b69888b0d11cec22caa5034e25fffbdc88421","transactionIndex":"0x0","v":"0x2734","value":"0x0"}],"transactionsRoot":"0x135bed4c0347e7fc0981abf1909944d1506716da2bef14bb00862511629f2052","uncles":[]},"receipts":{"0x98b107c7856d804d35c039c5f7fb543bf5529bf3e0385d7533ef523ce8a480ed":{"blockHash":"0xd7883e9679ea773d85c92640b1de80fe38f4ad9c317fc6d9f0f7e1e95039dfdb","blockNumber":"0xcff3d7","from":"0xf113890385964b5edc3ea1da72108e8b1c94dc04","gas":"0x1f8de","gasPrice":"0x2faf080","hash":"0x98b107c7856d804d35c039c5f7fb543bf5529bf3e0385d7533ef523ce8a480ed","index":"0xcff3d6","input":"0x414bf389000000000000000000000000deaddeaddeaddeaddeaddeaddeaddeaddead1111000000000000000000000000201eba5cc46d216ce6dc03f6a759e8e766e956ae00000000000000000000000000000000000000000000000000000000000001f4000000000000000000000000f113890385964b5edc3ea1da72108e8b1c94dc0400000000000000000000000000000000000000000000000000000000652437800000000000000000000000000000000000000000000000000001eb208c2dc00000000000000000000000000000000000000000000000000000000000000cc7e30000000000000000000000000000000000000000000000000000000000000000","l1BlockNumber":"0x1177450","l1Timestamp":"0x65243761","l1TxOrigin":null,"nonce":"0x8cb","queueIndex":null,"queueOrigin":"sequencer","r":"0xde5367579bc5ef47cbfc092013ac2747667231ecd07e154b5de35234940c1539","rawTransaction":"0xf9016e8208cb8402faf0808301f8de94319b69888b0d11cec22caa5034e25fffbdc8842180b90104414bf389000000000000000000000000deaddeaddeaddeaddeaddeaddeaddeaddead1111000000000000000000000000201eba5cc46d216ce6dc03f6a759e8e766e956ae00000000000000000000000000000000000000000000000000000000000001f4000000000000000000000000f113890385964b5edc3ea1da72108e8b1c94dc0400000000000000000000000000000000000000000000000000000000652437800000000000000000000000000000000000000000000000000001eb208c2dc00000000000000000000000000000000000000000000000000000000000000cc7e30000000000000000000000000000000000000000000000000000000000000000822734a0de5367579bc5ef47cbfc092013ac2747667231ecd07e154b5de35234940c1539a0336e0713cbce8e9de3fa2bafb4bbd3381a555aecf6062c8b36a2207328922fe4","s":"0x336e0713cbce8e9de3fa2bafb4bbd3381a555aecf6062c8b36a2207328922fe4","to":"0x319b69888b0d11cec22caa5034e25fffbdc88421","transactionIndex":"0x0","v":"0x2734","value":"0x0","contractAddress":null,"cumulativeGasUsed":"0x1e14f","daFee":"0x0","daGasPrice":"0x0","daGasUsed":"0x12c","gasUsed":"0x1e14f","l1Fee":"0x1c5145ff7a866d0","l1FeeScalar":"1","l1GasPrice":"0x3f1249c65230","l1GasUsed":"0x72f","logs":[{"address":"0x201eba5cc46d216ce6dc03f6a759e8e766e956ae","blockHash":"0xd7883e9679ea773d85c92640b1de80fe38f4ad9c317fc6d9f0f7e1e95039dfdb","blockNumber":"0xcff3d7","data":"0x00000000000000000000000000000000000000000000000000000000000d0aa9","logIndex":"0x0","removed":false,"topics":["0xddf252ad1be2c89b69c2b068fc378daa952ba7f163c4a11628f55a4df523b3ef","0x000000000000000000000000628f7131cf43e88ebe3921ae78c4ba0c31872bd4","0x000000000000000000000000f113890385964b5edc3ea1da72108e8b1c94dc04"],"transactionHash":"0x98b107c7856d804d35c039c5f7fb543bf5529bf3e0385d7533ef523ce8a480ed","transactionIndex":"0x0"},{"address":"0xdeaddeaddeaddeaddeaddeaddeaddeaddead1111","blockHash":"0xd7883e9679ea773d85c92640b1de80fe38f4ad9c317fc6d9f0f7e1e95039dfdb","blockNumber":"0xcff3d7","data":"0x0000000000000000000000000000000000000000000000000001eb208c2dc000","logIndex":"0x1","removed":false,"topics":["0xddf252ad1be2c89b69c2b068fc378daa952ba7f163c4a11628f55a4df523b3ef","0x000000000000000000000000f113890385964b5edc3ea1da72108e8b1c94dc04","0x000000000000000000000000628f7131cf43e88ebe3921ae78c4ba0c31872bd4"],"transactionHash":"0x98b107c7856d804d35c039c5f7fb543bf5529bf3e0385d7533ef523ce8a480ed","transactionIndex":"0x0"},{"address":"0xdeaddeaddeaddeaddeaddeaddeaddeaddead1111","blockHash":"0xd7883e9679ea773d85c92640b1de80fe38f4ad9c317fc6d9f0f7e1e95039dfdb","blockNumber":"0xcff3d7","data":"0xfffffffffffffffffffffffffffffffffffffffffffffffffd95f3c113a62fff","logIndex":"0x2","removed":false,"topics":["0x8c5be1e5ebec7d5bd14f71427d1e84f3dd0314c0f7b2291e5b200ac8c7c3b925","0x000000000000000000000000f113890385964b5edc3ea1da72108e8b1c94dc04","0x000000000000000000000000319b69888b0d11cec22caa5034e25fffbdc88421"],"transactionHash":"0x98b107c7856d804d35c039c5f7fb543bf5529bf3e0385d7533ef523ce8a480ed","transactionIndex":"0x0"},{"address":"0x628f7131cf43e88ebe3921ae78c4ba0c31872bd4","blockHash":"0xd7883e9679ea773d85c92640b1de80fe38f4ad9c317fc6d9f0f7e1e95039dfdb","blockNumber":"0xcff3d7","data":"0xfffffffffffffffffffffffffffffffffffffffffffffffffffffffffff2f5570000000000000000000000000000000000000000000000000001eb208c2dc000000000000000000000000000000000000000622eebb69d6d7f63dad5af3d882e00000000000000000000000000000000000000000000000000002c65dde06c20000000000000000000000000000000000000000000000000000000000003179a0000000000000000000000000000000000000000000000000000000000000000000000000000000000000000000000000000000000000000000000155fb4d600","logIndex":"0x3","removed":false,"topics":["0x19b47279256b2a23a1665c810c8d55a1758940ee09377d4f8d26497a3577dc83","0x000000000000000000000000319b69888b0d11cec22caa5034e25fffbdc88421","0x000000000000000000000000f113890385964b5edc3ea1da72108e8b1c94dc04"],"transactionHash":"0x98b107c7856d804d35c039c5f7fb543bf5529bf3e0385d7533ef523ce8a480ed","transactionIndex":"0x0"}],"logsBloom":"0x40000000000000000000002000000000000000000001008800000000000000000000000000000000000000000002000000000000000000000000000000200000840000000040000000000008000000000000008000002004000000000000000000000001000000000000000100000000000000000000000000000010000000000000000000000000000000000000000000000000000000000008000000000000020000000000000000000000000000000000000001000020000100000000000200000002000000000000000000000000000000000000000000000000000000000010000000001000000000000000000000000000000000000000000000000000","status":"0x1","transactionHash":"0x98b107c7856d804d35c039c5f7fb543bf5529bf3e0385d7533ef523ce8a480ed"}}}