{"block":{"difficulty":"0x2","extraData":"0xd98301090a846765746889676f312e31352e3133856c696e7578000000000000a79b4abc089f06d8a89b8b88948fe897c117b9cc4e553dc71580c8e93d1d736d0e2a950763bc5b38cf10e3424726700927cf6fc843276f2f29bce95c7070bfe201","gasLimit":"0x1c9c380","gasUsed":"0x869f","hash":"0x89a9f4e04eed3c6d2512dbfbf7fcd580c9587ebe91a3e3fb9524b5cf83e2c4f3","logsBloom":"0x00000000000000000000000000000000000000000000000000000000000000000000000000000000000000000000000000000000000000000000000000000000000000000000000000000000000000000000000000000000000000000000000000000000000000000000000000000000000000000000000000000000000000000000000000000000000000000000000000000000000000000000000000000000000000000000000000000000000000000000000000000000000000000000000000000000000000000000000000000000000000000000000000000000000000000000000000000000000000000000000000000000000000000000000000000000","miner":"0x0000000000000000000000000000000000000000","mixHash":"0x0000000000000000000000000000000000000000000000000000000000000000","nonce":"0x0000000000000000","number":"0xd00212","parentHash":"0x1a97215d0e47908fbb2578f69580fd3e339defef8f04b4a54fc473bdf386253d","receiptsRoot":"0x693234d8ce29f9e74987fc603307c4aba59a3c3c2a4c19bfd8c55342c745e46c","sha3Uncles":"0x1dcc4de8dec75d7aab85b567b6ccd41ad312451b948a7413f0a142fd40d49347","size":"0x314","stateRoot":"0xdd1f157d99a6ceb061bc5e3f9056ec44e62ac8e3a765aaa0318ffe92a6175b1c","timestamp":"0x65243dd2","totalDifficulty":"0x1a00425","transactions":[{"blockHash":"0x89a9f4e04eed3c6d2512dbfbf7fcd580c9587ebe91a3e3fb9524b5cf83e2c4f3","blockNumber":"0xd00212","from":"0x206f2077b9fa2c618745066046bcadaacf6bc1a7","gas":"0x13880","gasPrice":"0x2faf080","hash":"0x1f95d1e6ff0bf778959ae95345e1a535a0e416c7ad02522bdde8239ea127ed57","index":"0xd00211","input":"0x7ff15f3e000000000000000000000000000000000000000000000000000000000000000100000000000000000000000000000000000000000000000000000281756b4100","l1BlockNumber":"0x11774da","l1Timestamp":"0x65243dd2","l1TxOrigin":null,"nonce":"0xbd0","queueIndex":null,"queueOrigin":"sequencer","r":"0xd52777b19d3812d9e7f17c6122ab1edcc3d9299295e338c1e62ef0d210cb1445","rawTransaction":"0xf8ad820bd08402faf0808301388094690ef4bf1f67012c53e95627001156e7b1cdadab80b8447ff15f3e000000000000000000000000000000000000000000000000000000000000000100000000000000000000000000000000000000000000000000000281756b4100822734a0d52777b19d3812d9e7f17c6122ab1edcc3d9299295e338c1e62ef0d210cb1445a07ae0c7f2785fc8be60927e772a689c82369151bc5afa7e1a1bff8166c0647ead","s":"0x7ae0c7f2785fc8be60927e772a689c82369151bc5afa7e1a1bff8166c0647ead","to":"0x690ef4bf1f67012c53e95627001156e7b1cdadab","transactionIndex":"0x0","v":"0x2734","value":"0x0"}],"transactionsRoot":"0x61fb199110247ab770060bdf75f815383abf266047067c4196f7ce4d546d082a","uncles":[]},"receipts":{"0x1f95d1e6ff0bf778959ae95345e1a535a0e416c7ad02522bdde8239ea127ed57":{"blockHash":"0x89a9f4e04eed3c6d2512dbfbf7fcd580c9587ebe91a3e3fb9524b5cf83e2c4f3","blockNumber":"0xd00212","from":"0x206f2077b9fa2c618745066046bcadaacf6bc1a7","gas":"0x13880","gasPrice":"0x2faf080","hash":"0x1f95d1e6ff0bf778959ae95345e1a535a0e416c7ad02522bdde8239ea127ed57","index":"0xd00211","input":"0x7ff15f3e000000000000000000000000000000000000000000000000000000000000000100000000000000000000000000000000000000000000000000000281756b4100","l1BlockNumber":"0x11774da","l1Timestamp":"0x65243dd2","l1TxOrigin":null,"nonce":"0xbd0","queueIndex":null,"queueOrigin":"sequencer","r":"0xd52777b19d3812d9e7f17c6122ab1edcc3d9299295e338c1e62ef0d210cb1445","rawTransaction":"0xf8ad820bd08402faf0808301388094690ef4bf1f67012c53e95627001156e7b1cdadab80b8447ff15f3e000000000000000000000000000000000000000000000000000000000000000100000000000000000000000000000000000000000000000000000281756b4100822734a0d52777b19d3812d9e7f17c6122ab1edcc3d9299295e338c1e62ef0d210cb1445a07ae0c7f2785fc8be60927e772a689c82369151bc5afa7e1a1bff8166c0647ead","s":"0x7ae0c7f2785fc8be60927e772a689c82369151bc5afa7e1a1bff8166c0647ead","to":"0x690ef4bf1f67012c53e95627001156e7b1cdadab","transactionIndex":"0x0","v":"0x2734","value":"0x0","contractAddress":null,"cumulativeGasUsed":"0x869f","daFee":"0x0","daGasPrice":"0x0","daGasUsed":"0x6a","gasUsed":"0x869f","l1Fee":"0x19709d787180660","l1FeeScalar":"1","l1GasPrice":"0x38a987f04864","l1GasUsed":"0x72f","logs":[],"logsBloom":"0x00000000000000000000000000000000000000000000000000000000000000000000000000000000000000000000000000000000000000000000000000000000000000000000000000000000000000000000000000000000000000000000000000000000000000000000000000000000000000000000000000000000000000000000000000000000000000000000000000000000000000000000000000000000000000000000000000000000000000000000000000000000000000000000000000000000000000000000000000000000000000000000000000000000000000000000000000000000000000000000000000000000000000000000000000000000","status":"0x1","transactionHash":"0x1f95d1e6ff0bf778959ae95345e1a535a0e416c7ad02522bdde8239ea127ed57"}}}