{"block":{"difficulty":"0x2","extraData":"0xd98301090a846765746889676f312e31352e3133856c696e7578000000000000a38a2b014de8251142686da7456b41bcde246ec66ee9b9b2a547ab3aff3fbcff21efab073405bda3d4d44cb213ed86cdb7fa84230644133544ecee732f4c472b00","gasLimit":"0x1c9c380","gasUsed":"0x204dd","hash":"0x2da48a66d022539461d7022d39c2541b8e18b0f78c75cc85cf8553c0a17a10d9","logsBloom":"0x0000000000000000000000000000000000004000000100880000000000000000000000000000000000000000000200000000000000200800000000000000000004800000004400000000000800000000000000c000002000000000000000000000000000000000000000000000000000000000100000800000000810000000000000000000000000000000000000000000000000020000000000000000000000000000000000000000000000000000000000000001000000000000000000000000000002000000000000000000000000002000000000000000000000000000000000000000000000000000000000000000000000000010000000000000000000","miner":"0x0000000000000000000000000000000000000000","mixHash":"0x0000000000000000000000000000000000000000000000000000000000000000","nonce":"0x0000000000000000","number":"0xd00137","parentHash":"0x2cdd51141ba16597b8a659b85a8e01c08579cc32af29bca242d9c54742fcab88","receiptsRoot":"0xa3296616774e7c2c667b361bb7c0b8cd09ff5a61cedb247a8a9c2aaefc510324","sha3Uncles":"0x1dcc4de8dec75d7aab85b567b6ccd41ad312451b948a7413f0a142fd40d49347","size":"0x3d8","stateRoot":"0xfc316335a4f06939a0c520e8e7486c5285d0a80d56dc0d311e46a3c6d1810930","timestamp":"0x65243d5e","totalDifficulty":"0x1a0026f","transactions":[{"blockHash":"0x2da48a66d022539461d7022d39c2541b8e18b0f78c75cc85cf8553c0a17a10d9","blockNumber":"0xd00137","from":"0xb6c3c2324952b4a8f6c74a8cd86f36cd0cca829a","gas":"0x21d08","gasPrice":"0x2faf080","hash":"0x542605bda6bd97475bb52f91503fce3c74238e3c003339c7fb2ef2c514e6aced","index":"0xd00136","input":"0x414bf38900000000000000000000000009bc4e0d864854c6afb6eb9a9cdf58ac190d0df9000000000000000000000000201eba5cc46d216ce6dc03f6a759e8e766e956ae0000000000000000000000000000000000000000000000000000000000000064000000000000000000000000b6c3c2324952b4a8f6c74a8cd86f36cd0cca829a0000000000000000000000000000000000000000000000000000000065243d7f000000000000000000000000000000000000000000000000000000000010059000000000000000000000000000000000000000000000000000000000000fb1cb0000000000000000000000000000000000000000000000000000000000000000","l1BlockNumber":"0x11774d0","l1Timestamp":"0x65243d5e","l1TxOrigin":null,"nonce":"0x8f3","queueIndex":null,"queueOrigin":"sequencer","r":"0xddf7831ca8cd4823f7e10f566012a5ea1f7a7d1e4f6ecb66d22b6c1538c23353","rawTransaction":"0xf9016e8208f38402faf08083021d0894319b69888b0d11cec22caa5034e25fffbdc8842180b90104414bf38900000000000000000000000009bc4e0d864854c6afb6eb9a9cdf58ac190d0df9000000000000000000000000201eba5cc46d216ce6dc03f6a759e8e766e956ae0000000000000000000000000000000000000000000000000000000000000064000000000000000000000000b6c3c2324952b4a8f6c74a8cd86f36cd0cca829a0000000000000000000000000000000000000000000000000000000065243d7f000000000000000000000000000000000000000000000000000000000010059000000000000000000000000000000000000000000000000000000000000fb1cb0000000000000000000000000000000000000000000000000000000000000000822733a0ddf7831ca8cd4823f7e10f566012a5ea1f7a7d1e4f6ecb66d22b6c1538c23353a02ab346edf67a24172a17d2cf00cfe942d3040fa71d4c344a3dcb0b8166b3e1ed","s":"0x2ab346edf67a24172a17d2cf00cfe942d3040fa71d4c344a3dcb0b8166b3e1ed","to":"0x319b69888b0d11cec22caa5034e25fffbdc88421","transactionIndex":"0x0","v":"0x2733","value":"0x0"}],"transactionsRoot":"0x9672d2249aeb5b82502d6d7b53a003cddb6853e42698f89d85a34cf1c9a24e98","uncles":[]},"receipts":{"0x542605bda6bd97475bb52f91503fce3c74238e3c003339c7fb2ef2c514e6aced":{"blockHash":"0x2da48a66d022539461d7022d39c2541b8e18b0f78c75cc85cf8553c0a17a10d9","blockNumber":"0xd00137","from":"0xb6c3c2324952b4a8f6c74a8cd86f36cd0cca829a","gas":"0x21d08","gasPrice":"0x2faf080","hash":"0x542605bda6bd97475bb52f91503fce3c74238e3c003339c7fb2ef2c514e6aced","index":"0xd00136","input":"0x414bf38900000000000000000000000009bc4e0d864854c6afb6eb9a9cdf58ac190d0df9000000000000000000000000201eba5cc46d216ce6dc03f6a759e8e766e956ae0000000000000000000000000000000000000000000000000000000000000064000000000000000000000000b6c3c2324952b4a8f6c74a8cd86f36cd0cca829a0000000000000000000000000000000000000000000000000000000065243d7f000000000000000000000000000000000000000000000000000000000010059000000000000000000000000000000000000000000000000000000000000fb1cb0000000000000000000000000000000000000000000000000000000000000000","l1BlockNumber":"0x11774d0","l1Timestamp":"0x65243d5e","l1TxOrigin":null,"nonce":"0x8f3","queueIndex":null,"queueOrigin":"sequencer","r":"0xddf7831ca8cd4823f7e10f566012a5ea1f7a7d1e4f6ecb66d22b6c1538c23353","rawTransaction":"0xf9016e8208f38402faf08083021d0894319b69888b0d11cec22caa5034e25fffbdc8842180b90104414bf38900000000000000000000000009bc4e0d864854c6afb6eb9a9cdf58ac190d0df9000000000000000000000000201eba5cc46d216ce6dc03f6a759e8e766e956ae0000000000000000000000000000000000000000000000000000000000000064000000000000000000000000b6c3c2324952b4a8f6c74a8cd86f36cd0cca829a0000000000000000000000000000000000000000000000000000000065243d7f000000000000000000000000000000000000000000000000000000000010059000000000000000000000000000000000000000000000000000000000000fb1cb0000000000000000000000000000000000000000000000000000000000000000822733a0ddf7831ca8cd4823f7e10f566012a5ea1f7a7d1e4f6ecb66d22b6c1538c23353a02ab346edf67a24172a17d2cf00cfe942d3040fa71d4c344a3dcb0b8166b3e1ed","s":"0x2ab346edf67a24172a17d2cf00cfe942d3040fa71d4c344a3dcb0b8166b3e1ed","to":"0x319b69888b0d11cec22caa5034e25fffbdc88421","transactionIndex":"0x0","v":"0x2733","value":"0x0","contractAddress":null,"cumulativeGasUsed":"0x204dd","daFee":"0x0","daGasPrice":"0x0","daGasUsed":"0x12c","gasUsed":"0x204dd","l1Fee":"0x1a09f6380cb9fe0","l1FeeScalar":"1","l1GasPrice":"0x39ff1464e55c","l1GasUsed":"0x72f","logs":[{"address":"0x201eba5cc46d216ce6dc03f6a759e8e766e956ae","blockHash":"0x2da48a66d022539461d7022d39c2541b8e18b0f78c75cc85cf8553c0a17a10d9","blockNumber":"0xd00137","data":"0x00000000000000000000000000000000000000000000000000000000001003ca","logIndex":"0x0","removed":false,"topics":["0xddf252ad1be2c89b69c2b068fc378daa952ba7f163c4a11628f55a4df523b3ef","0x0000000000000000000000006488f911c6cd86c289aa319c5a826dcf8f1ca065","0x000000000000000000000000b6c3c2324952b4a8f6c74a8cd86f36cd0cca829a"],"transactionHash":"0x542605bda6bd97475bb52f91503fce3c74238e3c003339c7fb2ef2c514e6aced","transactionIndex":"0x0"},{"address":"0x09bc4e0d864854c6afb6eb9a9cdf58ac190d0df9","blockHash":"0x2da48a66d022539461d7022d39c2541b8e18b0f78c75cc85cf8553c0a17a10d9","blockNumber":"0xd00137","data":"0x0000000000000000000000000000000000000000000000000000000000100590","logIndex":"0x1","removed":false,"topics":["0xddf252ad1be2c89b69c2b068fc378daa952ba7f163c4a11628f55a4df523b3ef","0x000000000000000000000000b6c3c2324952b4a8f6c74a8cd86f36cd0cca829a","0x0000000000000000000000006488f911c6cd86c289aa319c5a826dcf8f1ca065"],"transactionHash":"0x542605bda6bd97475bb52f91503fce3c74238e3c003339c7fb2ef2c514e6aced","transactionIndex":"0x0"},{"address":"0x6488f911c6cd86c289aa319c5a826dcf8f1ca065","blockHash":"0x2da48a66d022539461d7022d39c2541b8e18b0f78c75cc85cf8553c0a17a10d9","blockNumber":"0xd00137","data":"0x0000000000000000000000000000000000000000000000000000000000100590ffffffffffffffffffffffffffffffffffffffffffffffffffffffffffeffc360000000000000000000000000000000000000000fff520756632d0c4ae8daaac0000000000000000000000000000000000000000000000000000aa91ae904e92fffffffffffffffffffffffffffffffffffffffffffffffffffffffffffffffc00000000000000000000000000000000000000000000000000000000000000220000000000000000000000000000000000000000000000000000000000000000","logIndex":"0x2","removed":false,"topics":["0x19b47279256b2a23a1665c810c8d55a1758940ee09377d4f8d26497a3577dc83","0x000000000000000000000000319b69888b0d11cec22caa5034e25fffbdc88421","0x000000000000000000000000b6c3c2324952b4a8f6c74a8cd86f36cd0cca829a"],"transactionHash":"0x542605bda6bd97475bb52f91503fce3c74238e3c003339c7fb2ef2c514e6aced","transactionIndex":"0x0"}],"logsBloom":"0x0000000000000000000000000000000000004000000100880000000000000000000000000000000000000000000200000000000000200800000000000000000004800000004400000000000800000000000000c000002000000000000000000000000000000000000000000000000000000000100000800000000810000000000000000000000000000000000000000000000000020000000000000000000000000000000000000000000000000000000000000001000000000000000000000000000002000000000000000000000000002000000000000000000000000000000000000000000000000000000000000000000000000010000000000000000000","status":"0x1","transactionHash":"0x542605bda6bd97475bb52f91503fce3c74238e3c003339c7fb2ef2c514e6aced"}}}