{"block":{"difficulty":"0x2","extraData":"0xd98301090a846765746889676f312e31352e3133856c696e757800000000000060519b117cb7f303a9358991ed64748cee77f02b6f4820f2d08f7b36476c30c9587680ed1e33a54f3f9942df8c31db488a15d5dfc0ea7a54c4bb6e6a0b0ef89b01","gasLimit":"0x1c9c380","gasUsed":"0x1e3f1","hash":"0x5026470edcbe93095af966d721b9cfbfbf8792870d0193b641d061c83621aeee","logsBloom":"0x00000000000000000000000000000000000000000000000000000000000000000000000000000000000000000000000000000000000000000000000000000000000000000000000000000000000000000000000000000000000000000000000000000000000000000000000000000000000000000000000000000000000000000000000000000000000000000000000000000000000000000000000000000000000000000000000000000000000000000000000000000000000000000000000000000000000000000000000000000000000000000000000000000000000000000000000000000000000000000000000000000000000000000000000000000000","miner":"0x0000000000000000000000000000000000000000","mixHash":"0x0000000000000000000000000000000000000000000000000000000000000000","nonce":"0x0000000000000000","number":"0xcff35f","parentHash":"0x928f0887a077493843adef208ee602f36f591852ff2eaba836c814d98eaee5e2","receiptsRoot":"0xbeb893428c9aa79dd03e36a48363a4c8837c47c63115a8e0470ac5f499f8bceb","sha3Uncles":"0x1dcc4de8dec75d7aab85b567b6ccd41ad312451b948a7413f0a142fd40d49347","size":"0x3d8","stateRoot":"0x767fee7abac44c418dce6c3ad1415b501cba992cb06a96831f68fcc22f482b30","timestamp":"0x65243734","totalDifficulty":"0x19fe6bf","transactions":[{"blockHash":"0x5026470edcbe93095af966d721b9cfbfbf8792870d0193b641d061c83621aeee","blockNumber":"0xcff35f","from":"0x0990bef335c85d6793cc96db0869a76774689f61","gas":"0x1e997","gasPrice":"0x2faf080","hash":"0x195c989153d2fee726a6ea6f040dd310e4d75a96ad8a15a8db4b54f1dc5f50c4","index":"0xcff35e","input":"0x414bf38900000000000000000000000078c1b0c915c4faa5fffa6cabf0219da63d7f4cb8000000000000000000000000201eba5cc46d216ce6dc03f6a759e8e766e956ae00000000000000000000000000000000000000000000000000000000000001f40000000000000000000000000990bef335c85d6793cc96db0869a76774689f6100000000000000000000000000000000000000000000000000000000652437510000000000000000000000000000000000000000000000001988fe4052b8000000000000000000000000000000000000000000000000000000000000000a38360000000000000000000000000000000000000000000000000000000000000000","l1BlockNumber":"0x117744d","l1Timestamp":"0x65243734","l1TxOrigin":null,"nonce":"0x825","queueIndex":null,"queueOrigin":"sequencer","r":"0xd87ae0a385bb32545baebeb5c77e98d6c2f965a9d78dc46832f56408f524a77e","rawTransaction":"0xf9016e8208258402faf0808301e99794319b69888b0d11cec22caa5034e25fffbdc8842180b90104414bf38900000000000000000000000078c1b0c915c4faa5fffa6cabf0219da63d7f4cb8000000000000000000000000201eba5cc46d216ce6dc03f6a759e8e766e956ae00000000000000000000000000000000000000000000000000000000000001f40000000000000000000000000990bef335c85d6793cc96db0869a76774689f6100000000000000000000000000000000000000000000000000000000652437510000000000000000000000000000000000000000000000001988fe4052b8000000000000000000000000000000000000000000000000000000000000000a38360000000000000000000000000000000000000000000000000000000000000000822734a0d87ae0a385bb32545baebeb5c77e98d6c2f965a9d78dc46832f56408f524a77ea0442890dc8ecdf11a0c0ae8a24e57705509e28c4d44c47200cf5d4d98dd467d24","s":"0x442890dc8ecdf11a0c0ae8a24e57705509e28c4d44c47200cf5d4d98dd467d24","to":"0x319b69888b0d11cec22caa5034e25fffbdc88421","transactionIndex":"0x0","v":"0x2734","value":"0x0"}],"transactionsRoot":"0x106e16f7f275df698c6792cd55c9ba31aa34e0e320dbb098d6f04d3417a27e4c","uncles":[]},"receipts":{"0x195c989153d2fee726a6ea6f040dd310e4d75a96ad8a15a8db4b54f1dc5f50c4":{"blockHash":"0x5026470edcbe93095af966d721b9cfbfbf8792870d0193b641d061c83621aeee","blockNumber":"0xcff35f","from":"0x0990bef335c85d6793cc96db0869a76774689f61","gas":"0x1e997","gasPrice":"0x2faf080","hash":"0x195c989153d2fee726a6ea6f040dd310e4d75a96ad8a15a8db4b54f1dc5f50c4","index":"0xcff35e","input":"0x414bf38900000000000000000000000078c1b0c915c4faa5fffa6cabf0219da63d7f4cb8000000000000000000000000201eba5cc46d216ce6dc03f6a759e8e766e956ae00000000000000000000000000000000000000000000000000000000000001f40000000000000000000000000990bef335c85d6793cc96db0869a76774689f6100000000000000000000000000000000000000000000000000000000652437510000000000000000000000000000000000000000000000001988fe4052b8000000000000000000000000000000000000000000000000000000000000000a38360000000000000000000000000000000000000000000000000000000000000000","l1BlockNumber":"0x117744d","l1Timestamp":"0x65243734","l1TxOrigin":null,"nonce":"0x825","queueIndex":null,"queueOrigin":"sequencer","r":"0xd87ae0a385bb32545baebeb5c77e98d6c2f965a9d78dc46832f56408f524a77e","rawTransaction":"0xf9016e8208258402faf0808301e99794319b69888b0d11cec22caa5034e25fffbdc8842180b90104414bf38900000000000000000000000078c1b0c915c4faa5fffa6cabf0219da63d7f4cb8000000000000000000000000201eba5cc46d216ce6dc03f6a759e8e766e956ae00000000000000000000000000000000000000000000000000000000000001f40000000000000000000000000990bef335c85d6793cc96db0869a76774689f6100000000000000000000000000000000000000000000000000000000652437510000000000000000000000000000000000000000000000001988fe4052b8000000000000000000000000000000000000000000000000000000000000000a38360000000000000000000000000000000000000000000000000000000000000000822734a0d87ae0a385bb32545baebeb5c77e98d6c2f965a9d78dc46832f56408f524a77ea0442890dc8ecdf11a0c0ae8a24e57705509e28c4d44c47200cf5d4d98dd467d24","s":"0x442890dc8ecdf11a0c0ae8a24e57705509e28c4d44c47200cf5d4d98dd467d24","to":"0x319b69888b0d11cec22caa5034e25fffbdc88421","transactionIndex":"0x0","v":"0x2734","value":"0x0","contractAddress":null,"cumulativeGasUsed":"0x1e3f1","daFee":"0x0","daGasPrice":"0x0","daGasUsed":"0x12c","gasUsed":"0x1e3f1","l1Fee":"0x1c5145ff7a866d0","l1FeeScalar":"1","l1GasPrice":"0x3f1249c65230","l1GasUsed":"0x72f","logs":[],"logsBloom":"0x00000000000000000000000000000000000000000000000000000000000000000000000000000000000000000000000000000000000000000000000000000000000000000000000000000000000000000000000000000000000000000000000000000000000000000000000000000000000000000000000000000000000000000000000000000000000000000000000000000000000000000000000000000000000000000000000000000000000000000000000000000000000000000000000000000000000000000000000000000000000000000000000000000000000000000000000000000000000000000000000000000000000000000000000000000000","status":"0x0","transactionHash":"0x195c989153d2fee726a6ea6f040dd310e4d75a96ad8a15a8db4b54f1dc5f50c4"}}}