{"block":{"difficulty":"0x2","extraData":"0xd98301090a846765746889676f312e31352e3133856c696e75780000000000001f97ba0219b7210600e809d6539bf0a8d53fab617ca2301bfbd7132cb28752704b6699e570bb96fad5f5dcec8493111ce6aae8edbcbc6b3e22c74d2f4f50aae200","gasLimit":"0x1c9c380","gasUsed":"0x233c1","hash":"0xf1b27c62e2aa929dafedd8732f7dd7fab72fa30cd29b5698e6263bb604921119","logsBloom":"0x00040000000010000000000000000000000000000401000000000000000000000000000000000000000000000002000000000000800000000000000400200000140000000040000000000008000000000000008000042000000000000000000000000000000000000000000000010000000000000000000000000010000000000000000100000000000000000000040000100000040000000000000040000000020000000000000000000000000000000000000000000000004000000000000000000002000000000000000000000000000000000000000000000000000000000010000000000000000000000000000000000000000000000000002000000000","miner":"0x0000000000000000000000000000000000000000","mixHash":"0x0000000000000000000000000000000000000000000000000000000000000000","nonce":"0x0000000000000000","number":"0xcff363","parentHash":"0xc50264cd79b760f87cc10f1654c72a1a105051a41913592012904a04006d1ab6","receiptsRoot":"0x7fd3bf389c35d5aa2a0d51b0ba933df2c7124b09948ec4967feeba497b0fe25f","sha3Uncles":"0x1dcc4de8dec75d7aab85b567b6ccd41ad312451b948a7413f0a142fd40d49347","size":"0x3d8","stateRoot":"0xfd61e3d854d79072e6b62190b751262d48e7412dac92e4a525110e0efe8e3000","timestamp":"0x65243734","totalDifficulty":"0x19fe6c7","transactions":[{"blockHash":"0xf1b27c62e2aa929dafedd8732f7dd7fab72fa30cd29b5698e6263bb604921119","blockNumber":"0xcff363","from":"0x3e28aff2961d25678890b25604f25ebe82fdd369","gas":"0x24ca4","gasPrice":"0x2faf080","hash":"0x9fe7063eb5107638a1cbf415601cebdb4290e0a456cf5028f66452505343c08b","index":"0xcff362","input":"0x414bf38900000000000000000000000078c1b0c915c4faa5fffa6cabf0219da63d7f4cb8000000000000000000000000201eba5cc46d216ce6dc03f6a759e8e766e956ae00000000000000000000000000000000000000000000000000000000000001f40000000000000000000000003e28aff2961d25678890b25604f25ebe82fdd3690000000000000000000000000000000000000000000000000000000065243754000000000000000000000000000000000000000000000000214e8348c4f0000000000000000000000000000000000000000000000000000000000000000d5eba0000000000000000000000000000000000000000000000000000000000000000","l1BlockNumber":"0x117744d","l1Timestamp":"0x65243734","l1TxOrigin":null,"nonce":"0xfcf","queueIndex":null,"queueOrigin":"sequencer","r":"0xda5340961cf155505b94b85ed467ff60dc204b7acbf31a1adb7e3038a18493a","rawTransaction":"0xf9016e820fcf8402faf08083024ca4945989fb161568b9f133edf5cf6787f5597762797f80b90104414bf38900000000000000000000000078c1b0c915c4faa5fffa6cabf0219da63d7f4cb8000000000000000000000000201eba5cc46d216ce6dc03f6a759e8e766e956ae00000000000000000000000000000000000000000000000000000000000001f40000000000000000000000003e28aff2961d25678890b25604f25ebe82fdd3690000000000000000000000000000000000000000000000000000000065243754000000000000000000000000000000000000000000000000214e8348c4f0000000000000000000000000000000000000000000000000000000000000000d5eba0000000000000000000000000000000000000000000000000000000000000000822734a00da5340961cf155505b94b85ed467ff60dc204b7acbf31a1adb7e3038a18493aa0032fd83cc408f4fd6d360a06c6f95dd447dc5b5073f99021ad5eec3263ca9534","s":"0x32fd83cc408f4fd6d360a06c6f95dd447dc5b5073f99021ad5eec3263ca9534","to":"0x5989fb161568b9f133edf5cf6787f5597762797f","transactionIndex":"0x0","v":"0x2734","value":"0x0"}],"transactionsRoot":"0x26364f70da89a53b693c483923c9fdda702a10504fceeb9921c6700662a95a97","uncles":[]},"receipts":{"0x9fe7063eb5107638a1cbf415601cebdb4290e0a456cf5028f66452505343c08b":{"blockHash":"0xf1b27c62e2aa929dafedd8732f7dd7fab72fa30cd29b5698e6263bb604921119","blockNumber":"0xcff363","from":"0x3e28aff2961d25678890b25604f25ebe82fdd369","gas":"0x24ca4","gasPrice":"0x2faf080","hash":"0x9fe7063eb5107638a1cbf415601cebdb4290e0a456cf5028f66452505343c08b","index":"0xcff362","input":"0x414bf38900000000000000000000000078c1b0c915c4faa5fffa6cabf0219da63d7f4cb8000000000000000000000000201eba5cc46d216ce6dc03f6a759e8e766e956ae00000000000000000000000000000000000000000000000000000000000001f40000000000000000000000003e28aff2961d25678890b25604f25ebe82fdd3690000000000000000000000000000000000000000000000000000000065243754000000000000000000000000000000000000000000000000214e8348c4f0000000000000000000000000000000000000000000000000000000000000000d5eba0000000000000000000000000000000000000000000000000000000000000000","l1BlockNumber":"0x117744d","l1Timestamp":"0x65243734","l1TxOrigin":null,"nonce":"0xfcf","queueIndex":null,"queueOrigin":"sequencer","r":"0xda5340961cf155505b94b85ed467ff60dc204b7acbf31a1adb7e3038a18493a","rawTransaction":"0xf9016e820fcf8402faf08083024ca4945989fb161568b9f133edf5cf6787f5597762797f80b90104414bf38900000000000000000000000078c1b0c915c4faa5fffa6cabf0219da63d7f4cb8000000000000000000000000201eba5cc46d216ce6dc03f6a759e8e766e956ae00000000000000000000000000000000000000000000000000000000000001f40000000000000000000000003e28aff2961d25678890b25604f25ebe82fdd3690000000000000000000000000000000000000000000000000000000065243754000000000000000000000000000000000000000000000000214e8348c4f0000000000000000000000000000000000000000000000000000000000000000d5eba0000000000000000000000000000000000000000000000000000000000000000822734a00da5340961cf155505b94b85ed467ff60dc204b7acbf31a1adb7e3038a18493aa0032fd83cc408f4fd6d360a06c6f95dd447dc5b5073f99021ad5eec3263ca9534","s":"0x32fd83cc408f4fd6d360a06c6f95dd447dc5b5073f99021ad5eec3263ca9534","to":"0x5989fb161568b9f133edf5cf6787f5597762797f","transactionIndex":"0x0","v":"0x2734","value":"0x0","contractAddress":null,"cumulativeGasUsed":"0x233c1","daFee":"0x0","daGasPrice":"0x0","daGasUsed":"0x12c","gasUsed":"0x233c1","l1Fee":"0x1c5145ff7a866d0","l1FeeScalar":"1","l1GasPrice":"0x3f1249c65230","l1GasUsed":"0x72f","logs":[{"address":"0x201eba5cc46d216ce6dc03f6a759e8e766e956ae","blockHash":"0xf1b27c62e2aa929dafedd8732f7dd7fab72fa30cd29b5698e6263bb604921119","blockNumber":"0xcff363","data":"0x00000000000000000000000000000000000000000000000000000000000da494","logIndex":"0x0","removed":false,"topics":["0xddf252ad1be2c89b69c2b068fc378daa952ba7f163c4a11628f55a4df523b3ef","0x000000000000000000000000262255f4770aebe2d0c8b97a46287dcecc2a0aff","0x0000000000000000000000003e28aff2961d25678890b25604f25ebe82fdd369"],"transactionHash":"0x9fe7063eb5107638a1cbf415601cebdb4290e0a456cf5028f66452505343c08b","transactionIndex":"0x0"},{"address":"0x78c1b0c915c4faa5fffa6cabf0219da63d7f4cb8","blockHash":"0xf1b27c62e2aa929dafedd8732f7dd7fab72fa30cd29b5698e6263bb604921119","blockNumber":"0xcff363","data":"0x000000000000000000000000000000000000000000000000214e8348c4f00000","logIndex":"0x1","removed":false,"topics":["0xddf252ad1be2c89b69c2b068fc378daa952ba7f163c4a11628f55a4df523b3ef","0x0000000000000000000000003e28aff2961d25678890b25604f25ebe82fdd369","0x000000000000000000000000262255f4770aebe2d0c8b97a46287dcecc2a0aff"],"transactionHash":"0x9fe7063eb5107638a1cbf415601cebdb4290e0a456cf5028f66452505343c08b","transactionIndex":"0x0"},{"address":"0x78c1b0c915c4faa5fffa6cabf0219da63d7f4cb8","blockHash":"0xf1b27c62e2aa929dafedd8732f7dd7fab72fa30cd29b5698e6263bb604921119","blockNumber":"0xcff363","data":"0xfffffffffffffffffffffffffffffffffffffffffffffff76c88b22df533ffff","logIndex":"0x2","removed":false,"topics":["0x8c5be1e5ebec7d5bd14f71427d1e84f3dd0314c0f7b2291e5b200ac8c7c3b925","0x0000000000000000000000003e28aff2961d25678890b25604f25ebe82fdd369","0x0000000000000000000000005989fb161568b9f133edf5cf6787f5597762797f"],"transactionHash":"0x9fe7063eb5107638a1cbf415601cebdb4290e0a456cf5028f66452505343c08b","transactionIndex":"0x0"},{"address":"0x262255f4770aebe2d0c8b97a46287dcecc2a0aff","blockHash":"0xf1b27c62e2aa929dafedd8732f7dd7fab72fa30cd29b5698e6263bb604921119","blockNumber":"0xcff363","data":"0xfffffffffffffffffffffffffffffffffffffffffffffffffffffffffff25b6c000000000000000000000000000000000000000000000000214e8348c4f00000000000000000000000000000000000000018fe4ac23a921be46f80e4ea765a1000000000000000000000000000000000000000000000000024ba1f486431beb00000000000000000000000000000000000000000000000000000000000045df1000000000000000000000000000000000000000000000000000000000000000000000000000000000000000000000000000000000000000000017312e7118000","logIndex":"0x3","removed":false,"topics":["0x19b47279256b2a23a1665c810c8d55a1758940ee09377d4f8d26497a3577dc83","0x0000000000000000000000005989fb161568b9f133edf5cf6787f5597762797f","0x0000000000000000000000003e28aff2961d25678890b25604f25ebe82fdd369"],"transactionHash":"0x9fe7063eb5107638a1cbf415601cebdb4290e0a456cf5028f66452505343c08b","transactionIndex":"0x0"}],"logsBloom":"0x00040000000010000000000000000000000000000401000000000000000000000000000000000000000000000002000000000000800000000000000400200000140000000040000000000008000000000000008000042000000000000000000000000000000000000000000000010000000000000000000000000010000000000000000100000000000000000000040000100000040000000000000040000000020000000000000000000000000000000000000000000000004000000000000000000002000000000000000000000000000000000000000000000000000000000010000000000000000000000000000000000000000000000000002000000000","status":"0x1","transactionHash":"0x9fe7063eb5107638a1cbf415601cebdb4290e0a456cf5028f66452505343c08b"}}}