{"block":{"difficulty":"0x2","extraData":"0xd98301090a846765746889676f312e31352e3133856c696e757800000000000038c2b99f8bfb86823ed0117350bc220370c18ecbdc41052fa254857f1e6cc4d71967ac5ac68f6942d87920186c111b8fc6a459cd27762b43aa79580529c88f2a00","gasLimit":"0x1c9c380","gasUsed":"0x24707","hash":"0xae4055c6e3dc15e4dca3c6231388a65bbe05fd7230d54c50f74a9bd7c25f9f95","logsBloom":"0x40000000000000000000000000000000000000000001008800000000000040000000000000000000000000000002000000000000000000000000000000200000840000000040000000000008000000000000008000002004000000000000000000000001000000000000000100000000000000000000000000000010000000000000000000000000000000000000000000000000000000000008000000000000020000000000000000000000000000000000000001000020000100000000000000000002000000000000000000000000000000000000000000000000000000000010000000001000000000000000800100000000000000000000000000000000","miner":"0x0000000000000000000000000000000000000000","mixHash":"0x0000000000000000000000000000000000000000000000000000000000000000","nonce":"0x0000000000000000","number":"0xd00b1b","parentHash":"0xc07488edada2ac8d13ceab01d6c6a3fb0b88379dcde9dab712a79c658ec4446a","receiptsRoot":"0x9526d450f0de5c954b582fb5eb6a165cd5b1d01a9ea167566d2038e3b4b4e8c9","sha3Uncles":"0x1dcc4de8dec75d7aab85b567b6ccd41ad312451b948a7413f0a142fd40d49347","size":"0x3d8","stateRoot":"0xdde0f9858fc07da6b47b2c03a9ed7dd6305123044dbd94b9489a97aea88b1db5","timestamp":"0x6524420c","totalDifficulty":"0x1a01637","transactions":[{"blockHash":"0xae4055c6e3dc15e4dca3c6231388a65bbe05fd7230d54c50f74a9bd7c25f9f95","blockNumber":"0xd00b1b","from":"0x171cd382a0de9b1cc247ad810cfff0332ed0f3e5","gas":"0x26033","gasPrice":"0x2faf080","hash":"0xaa1e88d1bd173df5aae6738ed3619899e07719ebfd3258e5684d1bc383ee2795","index":"0xd00b1a","input":"0x414bf389000000000000000000000000deaddeaddeaddeaddeaddeaddeaddeaddead1111000000000000000000000000201eba5cc46d216ce6dc03f6a759e8e766e956ae00000000000000000000000000000000000000000000000000000000000001f4000000000000000000000000171cd382a0de9b1cc247ad810cfff0332ed0f3e5000000000000000000000000000000000000000000000000000000006524422d000000000000000000000000000000000000000000000000000278194c1e70000000000000000000000000000000000000000000000000000000000000105c900000000000000000000000000000000000000000000000000000000000000000","l1BlockNumber":"0x1177534","l1Timestamp":"0x6524420c","l1TxOrigin":null,"nonce":"0xeee","queueIndex":null,"queueOrigin":"sequencer","r":"0xe7d69798719b0d59a75662aafed39729f446b2cc4cfb50b7ed24efb83b337d62","rawTransaction":"0xf9016e820eee8402faf0808302603394319b69888b0d11cec22caa5034e25fffbdc8842180b90104414bf389000000000000000000000000deaddeaddeaddeaddeaddeaddeaddeaddead1111000000000000000000000000201eba5cc46d216ce6dc03f6a759e8e766e956ae00000000000000000000000000000000000000000000000000000000000001f4000000000000000000000000171cd382a0de9b1cc247ad810cfff0332ed0f3e5000000000000000000000000000000000000000000000000000000006524422d000000000000000000000000000000000000000000000000000278194c1e70000000000000000000000000000000000000000000000000000000000000105c900000000000000000000000000000000000000000000000000000000000000000822733a0e7d69798719b0d59a75662aafed39729f446b2cc4cfb50b7ed24efb83b337d62a00ac3bbefe47e9411f7e11875711397ea0e98147bca97c9a4b7d18b6452a70ebb","s":"0xac3bbefe47e9411f7e11875711397ea0e98147bca97c9a4b7d18b6452a70ebb","to":"0x319b69888b0d11cec22caa5034e25fffbdc88421","transactionIndex":"0x0","v":"0x2733","value":"0x0"}],"transactionsRoot":"0x017de2c35eca0403df0149ab526b842bb3dfcf5e0fb0ca970d48f93b050a5c12","uncles":[]},"receipts":{"0xaa1e88d1bd173df5aae6738ed3619899e07719ebfd3258e5684d1bc383ee2795":{"blockHash":"0xae4055c6e3dc15e4dca3c6231388a65bbe05fd7230d54c50f74a9bd7c25f9f95","blockNumber":"0xd00b1b","from":"0x171cd382a0de9b1cc247ad810cfff0332ed0f3e5","gas":"0x26033","gasPrice":"0x2faf080","hash":"0xaa1e88d1bd173df5aae6738ed3619899e07719ebfd3258e5684d1bc383ee2795","index":"0xd00b1a","input":"0x414bf389000000000000000000000000deaddeaddeaddeaddeaddeaddeaddeaddead1111000000000000000000000000201eba5cc46d216ce6dc03f6a759e8e766e956ae00000000000000000000000000000000000000000000000000000000000001f4000000000000000000000000171cd382a0de9b1cc247ad810cfff0332ed0f3e5000000000000000000000000000000000000000000000000000000006524422d000000000000000000000000000000000000000000000000000278194c1e70000000000000000000000000000000000000000000000000000000000000105c900000000000000000000000000000000000000000000000000000000000000000","l1BlockNumber":"0x1177534","l1Timestamp":"0x6524420c","l1TxOrigin":null,"nonce":"0xeee","queueIndex":null,"queueOrigin":"sequencer","r":"0xe7d69798719b0d59a75662aafed39729f446b2cc4cfb50b7ed24efb83b337d62","rawTransaction":"0xf9016e820eee8402faf0808302603394319b69888b0d11cec22caa5034e25fffbdc8842180b90104414bf389000000000000000000000000deaddeaddeaddeaddeaddeaddeaddeaddead1111000000000000000000000000201eba5cc46d216ce6dc03f6a759e8e766e956ae00000000000000000000000000000000000000000000000000000000000001f4000000000000000000000000171cd382a0de9b1cc247ad810cfff0332ed0f3e5000000000000000000000000000000000000000000000000000000006524422d000000000000000000000000000000000000000000000000000278194c1e70000000000000000000000000000000000000000000000000000000000000105c900000000000000000000000000000000000000000000000000000000000000000822733a0e7d69798719b0d59a75662aafed39729f446b2cc4cfb50b7ed24efb83b337d62a00ac3bbefe47e9411f7e11875711397ea0e98147bca97c9a4b7d18b6452a70ebb","s":"0xac3bbefe47e9411f7e11875711397ea0e98147bca97c9a4b7d18b6452a70ebb","to":"0x319b69888b0d11cec22caa5034e25fffbdc88421","transactionIndex":"0x0","v":"0x2733","value":"0x0","contractAddress":null,"cumulativeGasUsed":"0x24707","daFee":"0x0","daGasPrice":"0x0","daGasUsed":"0x12c","gasUsed":"0x24707","l1Fee":"0x1911132b46ddf60","l1FeeScalar":"1","l1GasPrice":"0x37d4bc06bddc","l1GasUsed":"0x72f","logs":[{"address":"0x201eba5cc46d216ce6dc03f6a759e8e766e956ae","blockHash":"0xae4055c6e3dc15e4dca3c6231388a65bbe05fd7230d54c50f74a9bd7c25f9f95","blockNumber":"0xd00b1b","data":"0x000000000000000000000000000000000000000000000000000000000010b20c","logIndex":"0x0","removed":false,"topics":["0xddf252ad1be2c89b69c2b068fc378daa952ba7f163c4a11628f55a4df523b3ef","0x000000000000000000000000628f7131cf43e88ebe3921ae78c4ba0c31872bd4","0x000000000000000000000000171cd382a0de9b1cc247ad810cfff0332ed0f3e5"],"transactionHash":"0xaa1e88d1bd173df5aae6738ed3619899e07719ebfd3258e5684d1bc383ee2795","transactionIndex":"0x0"},{"address":"0xdeaddeaddeaddeaddeaddeaddeaddeaddead1111","blockHash":"0xae4055c6e3dc15e4dca3c6231388a65bbe05fd7230d54c50f74a9bd7c25f9f95","blockNumber":"0xd00b1b","data":"0x000000000000000000000000000000000000000000000000000278194c1e7000","logIndex":"0x1","removed":false,"topics":["0xddf252ad1be2c89b69c2b068fc378daa952ba7f163c4a11628f55a4df523b3ef","0x000000000000000000000000171cd382a0de9b1cc247ad810cfff0332ed0f3e5","0x000000000000000000000000628f7131cf43e88ebe3921ae78c4ba0c31872bd4"],"transactionHash":"0xaa1e88d1bd173df5aae6738ed3619899e07719ebfd3258e5684d1bc383ee2795","transactionIndex":"0x0"},{"address":"0xdeaddeaddeaddeaddeaddeaddeaddeaddead1111","blockHash":"0xae4055c6e3dc15e4dca3c6231388a65bbe05fd7230d54c50f74a9bd7c25f9f95","blockNumber":"0xd00b1b","data":"0xfffffffffffffffffffffffffffffffffffffffffffffffffb686cc02b0c0fff","logIndex":"0x2","removed":false,"topics":["0x8c5be1e5ebec7d5bd14f71427d1e84f3dd0314c0f7b2291e5b200ac8c7c3b925","0x000000000000000000000000171cd382a0de9b1cc247ad810cfff0332ed0f3e5","0x000000000000000000000000319b69888b0d11cec22caa5034e25fffbdc88421"],"transactionHash":"0xaa1e88d1bd173df5aae6738ed3619899e07719ebfd3258e5684d1bc383ee2795","transactionIndex":"0x0"},{"address":"0x628f7131cf43e88ebe3921ae78c4ba0c31872bd4","blockHash":"0xae4055c6e3dc15e4dca3c6231388a65bbe05fd7230d54c50f74a9bd7c25f9f95","blockNumber":"0xd00b1b","data":"0xffffffffffffffffffffffffffffffffffffffffffffffffffffffffffef4df4000000000000000000000000000000000000000000000000000278194c1e70000000000000000000000000000000000000006273cbbf83e100505ed2b811217600000000000000000000000000000000000000000000000000002c65dde06c2000000000000000000000000000000000000000000000000000000000000317d100000000000000000000000000000000000000000000000000000000000000000000000000000000000000000000000000000000000000000000001b8249ed7f","logIndex":"0x3","removed":false,"topics":["0x19b47279256b2a23a1665c810c8d55a1758940ee09377d4f8d26497a3577dc83","0x000000000000000000000000319b69888b0d11cec22caa5034e25fffbdc88421","0x000000000000000000000000171cd382a0de9b1cc247ad810cfff0332ed0f3e5"],"transactionHash":"0xaa1e88d1bd173df5aae6738ed3619899e07719ebfd3258e5684d1bc383ee2795","transactionIndex":"0x0"}],"logsBloom":"0x40000000000000000000000000000000000000000001008800000000000040000000000000000000000000000002000000000000000000000000000000200000840000000040000000000008000000000000008000002004000000000000000000000001000000000000000100000000000000000000000000000010000000000000000000000000000000000000000000000000000000000008000000000000020000000000000000000000000000000000000001000020000100000000000000000002000000000000000000000000000000000000000000000000000000000010000000001000000000000000800100000000000000000000000000000000","status":"0x1","transactionHash":"0xaa1e88d1bd173df5aae6738ed3619899e07719ebfd3258e5684d1bc383ee2795"}}}