{"block":{"difficulty":"0x2","extraData":"0xd98301090a846765746889676f312e31352e3133856c696e757800000000000037455982767b47ec2e3ab845dfaab726ed275b56af6d78b92911104f8d7585a745dc08ed7226815cd2144167d5f9b36659a2a32ca3b28815b00bcd3033fcd0e200","gasLimit":"0x1c9c380","gasUsed":"0x1d201","hash":"0xcd3a494d2793049e449fe31cda66fb9462052fd3f338f791eeeb87145fc0596d","logsBloom":"0x40000000000000000000000000000000000000000001008800000000800000000000000000000000000000000002000000000000000000000000000000200000840000000040000000000028000000000000008000002004000000000000000000000001000000000000000100000000000000000000000000000010000000000000000000000000000000000000000000000000000000000008000000000000020000000000000000000000000000000000000001000020000100000000000000000002000000000000000000000000000000000000000000000000000000000010000020001000000000000000000000000000000000000000000000000000","miner":"0x0000000000000000000000000000000000000000","mixHash":"0x0000000000000000000000000000000000000000000000000000000000000000","nonce":"0x0000000000000000","number":"0xd00102","parentHash":"0x9b142f12e58f9608870cbe989e1880e1b76c61ac9bea8a7c57f1461701bd8112","receiptsRoot":"0xea152d6b62d759cc7b6041c3974fe2175dd8bbb3beb3fe675c1f61386969221f","sha3Uncles":"0x1dcc4de8dec75d7aab85b567b6ccd41ad312451b948a7413f0a142fd40d49347","size":"0x3d8","stateRoot":"0x390575e2a1bd09031b5ce86c9821cc384b99161b33889411c2d3d7ce959ecf08","timestamp":"0x65243d3f","totalDifficulty":"0x1a00205","transactions":[{"blockHash":"0xcd3a494d2793049e449fe31cda66fb9462052fd3f338f791eeeb87145fc0596d","blockNumber":"0xd00102","from":"0x6503ec68ea0a709c62f9a85660ea5ca77f05e134","gas":"0x1f8b6","gasPrice":"0x2faf080","hash":"0xe09d96299634bbf1ca449fa3fbc0eddd92a4b80099b61111ecbb5982f2037089","index":"0xd00101","input":"0x414bf389000000000000000000000000deaddeaddeaddeaddeaddeaddeaddeaddead1111000000000000000000000000201eba5cc46d216ce6dc03f6a759e8e766e956ae00000000000000000000000000000000000000000000000000000000000001f40000000000000000000000006503ec68ea0a709c62f9a85660ea5ca77f05e1340000000000000000000000000000000000000000000000000000000065243d610000000000000000000000000000000000000000000000000003205af7670000000000000000000000000000000000000000000000000000000000000014d2420000000000000000000000000000000000000000000000000000000000000000","l1BlockNumber":"0x11774ce","l1Timestamp":"0x65243d3f","l1TxOrigin":null,"nonce":"0xaf2","queueIndex":null,"queueOrigin":"sequencer","r":"0x44bb7a096bbb66db0208c47e24a589c391e479ae224baadcc99d7d2d6eecb206","rawTransaction":"0xf9016e820af28402faf0808301f8b694319b69888b0d11cec22caa5034e25fffbdc8842180b90104414bf389000000000000000000000000deaddeaddeaddeaddeaddeaddeaddeaddead1111000000000000000000000000201eba5cc46d216ce6dc03f6a759e8e766e956ae00000000000000000000000000000000000000000000000000000000000001f40000000000000000000000006503ec68ea0a709c62f9a85660ea5ca77f05e1340000000000000000000000000000000000000000000000000000000065243d610000000000000000000000000000000000000000000000000003205af7670000000000000000000000000000000000000000000000000000000000000014d2420000000000000000000000000000000000000000000000000000000000000000822734a044bb7a096bbb66db0208c47e24a589c391e479ae224baadcc99d7d2d6eecb206a06f6f629e40a9ba97ab6406dc88380889e3a4f79a4c832e26bf1219c27f7fde32","s":"0x6f6f629e40a9ba97ab6406dc88380889e3a4f79a4c832e26bf1219c27f7fde32","to":"0x319b69888b0d11cec22caa5034e25fffbdc88421","transactionIndex":"0x0","v":"0x2734","value":"0x0"}],"transactionsRoot":"0xc157f8db45754ef0b38581534446ddc6bcdce661a27e4584cd45b8d0b04b4e51","uncles":[]},"receipts":{"0xe09d96299634bbf1ca449fa3fbc0eddd92a4b80099b61111ecbb5982f2037089":{"blockHash":"0xcd3a494d2793049e449fe31cda66fb9462052fd3f338f791eeeb87145fc0596d","blockNumber":"0xd00102","from":"0x6503ec68ea0a709c62f9a85660ea5ca77f05e134","gas":"0x1f8b6","gasPrice":"0x2faf080","hash":"0xe09d96299634bbf1ca449fa3fbc0eddd92a4b80099b61111ecbb5982f2037089","index":"0xd00101","input":"0x414bf389000000000000000000000000deaddeaddeaddeaddeaddeaddeaddeaddead1111000000000000000000000000201eba5cc46d216ce6dc03f6a759e8e766e956ae00000000000000000000000000000000000000000000000000000000000001f40000000000000000000000006503ec68ea0a709c62f9a85660ea5ca77f05e1340000000000000000000000000000000000000000000000000000000065243d610000000000000000000000000000000000000000000000000003205af7670000000000000000000000000000000000000000000000000000000000000014d2420000000000000000000000000000000000000000000000000000000000000000","l1BlockNumber":"0x11774ce","l1Timestamp":"0x65243d3f","l1TxOrigin":null,"nonce":"0xaf2","queueIndex":null,"queueOrigin":"sequencer","r":"0x44bb7a096bbb66db0208c47e24a589c391e479ae224baadcc99d7d2d6eecb206","rawTransaction":"0xf9016e820af28402faf0808301f8b694319b69888b0d11cec22caa5034e25fffbdc8842180b90104414bf389000000000000000000000000deaddeaddeaddeaddeaddeaddeaddeaddead1111000000000000000000000000201eba5cc46d216ce6dc03f6a759e8e766e956ae00000000000000000000000000000000000000000000000000000000000001f40000000000000000000000006503ec68ea0a709c62f9a85660ea5ca77f05e1340000000000000000000000000000000000000000000000000000000065243d610000000000000000000000000000000000000000000000000003205af7670000000000000000000000000000000000000000000000000000000000000014d2420000000000000000000000000000000000000000000000000000000000000000822734a044bb7a096bbb66db0208c47e24a589c391e479ae224baadcc99d7d2d6eecb206a06f6f629e40a9ba97ab6406dc88380889e3a4f79a4c832e26bf1219c27f7fde32","s":"0x6f6f629e40a9ba97ab6406dc88380889e3a4f79a4c832e26bf1219c27f7fde32","to":"0x319b69888b0d11cec22caa5034e25fffbdc88421","transactionIndex":"0x0","v":"0x2734","value":"0x0","contractAddress":null,"cumulativeGasUsed":"0x1d201","daFee":"0x0","daGasPrice":"0x0","daGasUsed":"0x12c","gasUsed":"0x1d201","l1Fee":"0x1a09f6380cb9fe0","l1FeeScalar":"1","l1GasPrice":"0x39ff1464e55c","l1GasUsed":"0x72f","logs":[{"address":"0x201eba5cc46d216ce6dc03f6a759e8e766e956ae","blockHash":"0xcd3a494d2793049e449fe31cda66fb9462052fd3f338f791eeeb87145fc0596d","blockNumber":"0xd00102","data":"0x000000000000000000000000000000000000000000000000000000000015445a","logIndex":"0x0","removed":false,"topics":["0xddf252ad1be2c89b69c2b068fc378daa952ba7f163c4a11628f55a4df523b3ef","0x000000000000000000000000628f7131cf43e88ebe3921ae78c4ba0c31872bd4","0x0000000000000000000000006503ec68ea0a709c62f9a85660ea5ca77f05e134"],"transactionHash":"0xe09d96299634bbf1ca449fa3fbc0eddd92a4b80099b61111ecbb5982f2037089","transactionIndex":"0x0"},{"address":"0xdeaddeaddeaddeaddeaddeaddeaddeaddead1111","blockHash":"0xcd3a494d2793049e449fe31cda66fb9462052fd3f338f791eeeb87145fc0596d","blockNumber":"0xd00102","data":"0x0000000000000000000000000000000000000000000000000003205af7670000","logIndex":"0x1","removed":false,"topics":["0xddf252ad1be2c89b69c2b068fc378daa952ba7f163c4a11628f55a4df523b3ef","0x0000000000000000000000006503ec68ea0a709c62f9a85660ea5ca77f05e134","0x000000000000000000000000628f7131cf43e88ebe3921ae78c4ba0c31872bd4"],"transactionHash":"0xe09d96299634bbf1ca449fa3fbc0eddd92a4b80099b61111ecbb5982f2037089","transactionIndex":"0x0"},{"address":"0xdeaddeaddeaddeaddeaddeaddeaddeaddead1111","blockHash":"0xcd3a494d2793049e449fe31cda66fb9462052fd3f338f791eeeb87145fc0596d","blockNumber":"0xd00102","data":"0xfffffffffffffffffffffffffffffffffffffffffffffffffcd8f2a2d5992fff","logIndex":"0x2","removed":false,"topics":["0x8c5be1e5ebec7d5bd14f71427d1e84f3dd0314c0f7b2291e5b200ac8c7c3b925","0x0000000000000000000000006503ec68ea0a709c62f9a85660ea5ca77f05e134","0x000000000000000000000000319b69888b0d11cec22caa5034e25fffbdc88421"],"transactionHash":"0xe09d96299634bbf1ca449fa3fbc0eddd92a4b80099b61111ecbb5982f2037089","transactionIndex":"0x0"},{"address":"0x628f7131cf43e88ebe3921ae78c4ba0c31872bd4","blockHash":"0xcd3a494d2793049e449fe31cda66fb9462052fd3f338f791eeeb87145fc0596d","blockNumber":"0xd00102","data":"0xffffffffffffffffffffffffffffffffffffffffffffffffffffffffffeabba60000000000000000000000000000000000000000000000000003205af7670000000000000000000000000000000000000000622a2994ac2181f4405d0fe6280600000000000000000000000000000000000000000000000000002c65dde06c200000000000000000000000000000000000000000000000000000000000031796000000000000000000000000000000000000000000000000000000000000000000000000000000000000000000000000000000000000000000000022d4dad800","logIndex":"0x3","removed":false,"topics":["0x19b47279256b2a23a1665c810c8d55a1758940ee09377d4f8d26497a3577dc83","0x000000000000000000000000319b69888b0d11cec22caa5034e25fffbdc88421","0x0000000000000000000000006503ec68ea0a709c62f9a85660ea5ca77f05e134"],"transactionHash":"0xe09d96299634bbf1ca449fa3fbc0eddd92a4b80099b61111ecbb5982f2037089","transactionIndex":"0x0"}],"logsBloom":"0x40000000000000000000000000000000000000000001008800000000800000000000000000000000000000000002000000000000000000000000000000200000840000000040000000000028000000000000008000002004000000000000000000000001000000000000000100000000000000000000000000000010000000000000000000000000000000000000000000000000000000000008000000000000020000000000000000000000000000000000000001000020000100000000000000000002000000000000000000000000000000000000000000000000000000000010000020001000000000000000000000000000000000000000000000000000","status":"0x1","transactionHash":"0xe09d96299634bbf1ca449fa3fbc0eddd92a4b80099b61111ecbb5982f2037089"}}}