{"block":{"difficulty":"0x2","extraData":"0xd98301090a846765746889676f312e31352e3133856c696e7578000000000000295613b601f70b1f89c0a53220349d8a040133860efbf0344cb76457c0f7da646e34459e2f55669bf44cf3e7c50e8fdfcb43a9f23405f6af04b79db1db91360c01","gasLimit":"0x1c9c380","gasUsed":"0x1de26","hash":"0x3df2ac4c27ac8818d9f2f0ef4b58b217349490207a5c4b131fb264c2df3a37b0","logsBloom":"0x00000000000000000000000000000000000000004000000000000000000000000000000000000000000000000000000000000000000000000000000000000000000000000000000000000000000000000000000000000000000000000000000000040000000000000000100000000000800000000000000000000000000000000000000000000000000000000000000000000000000040000000000000000000000000000000000000000000000000000000000000000000000000000000000000000000000000000000000000000000000000000000000000000000000000000000000000000000000080000000000000000000000000000000000000000000","miner":"0x0000000000000000000000000000000000000000","mixHash":"0x0000000000000000000000000000000000000000000000000000000000000000","nonce":"0x0000000000000000","number":"0xd0011d","parentHash":"0xcb3c2eb49d3b27451abe4edb27aab5772842984bb58892acabc20f2c861a5b2e","receiptsRoot":"0x50aa91e9d52a96452a423f1890c8d1d5098784516080da39a24e0d37ad40bda7","sha3Uncles":"0x1dcc4de8dec75d7aab85b567b6ccd41ad312451b948a7413f0a142fd40d49347","size":"0x2fa","stateRoot":"0x0b9c0a4356432c8dd5c9ba95c713ff2e21c0490c36f619852ddd19124b24492c","timestamp":"0x65243d54","totalDifficulty":"0x1a0023b","transactions":[{"blockHash":"0x3df2ac4c27ac8818d9f2f0ef4b58b217349490207a5c4b131fb264c2df3a37b0","blockNumber":"0xd0011d","from":"0x008f6007465745c85979bef7d5d26fdb9abad556","gas":"0x1e3d1","gasPrice":"0x2faf080","hash":"0xf46f4d06c39ac25d1f48330eec21475e3cfb52d0ddd9e353d94afe3d784ee2d2","index":"0xd0011c","input":"0x4c85b4250000000000000000000000002a40fd0f4bf6cc4762e6b00adad91d3661b23016","l1BlockNumber":"0x11774cf","l1Timestamp":"0x65243d54","l1TxOrigin":null,"nonce":"0x2","queueIndex":null,"queueOrigin":"sequencer","r":"0x737290319a6f21a0600c2a17f07dd9dbd3625edf9f1feb69acb08b7df0f12bfe","rawTransaction":"0xf892028402faf0808301e3d19453167401aeebff5677c31e1dda945628422d7ed2888076b9e23257c456a44c85b4250000000000000000000000002a40fd0f4bf6cc4762e6b00adad91d3661b23016822733a0737290319a6f21a0600c2a17f07dd9dbd3625edf9f1feb69acb08b7df0f12bfea0495a39cca3a7a8b2c85807120a19c3d736dc198b72363925c128f23fb7ba07e5","s":"0x495a39cca3a7a8b2c85807120a19c3d736dc198b72363925c128f23fb7ba07e5","to":"0x53167401aeebff5677c31e1dda945628422d7ed2","transactionIndex":"0x0","v":"0x2733","value":"0x8076b9e23257c456"}],"transactionsRoot":"0x9a15b6bd52fa91419117b4314f29a7f304173eca3ee4528a21d328a3839f9495","uncles":[]},"receipts":{"0xf46f4d06c39ac25d1f48330eec21475e3cfb52d0ddd9e353d94afe3d784ee2d2":{"blockHash":"0x3df2ac4c27ac8818d9f2f0ef4b58b217349490207a5c4b131fb264c2df3a37b0","blockNumber":"0xd0011d","from":"0x008f6007465745c85979bef7d5d26fdb9abad556","gas":"0x1e3d1","gasPrice":"0x2faf080","hash":"0xf46f4d06c39ac25d1f48330eec21475e3cfb52d0ddd9e353d94afe3d784ee2d2","index":"0xd0011c","input":"0x4c85b4250000000000000000000000002a40fd0f4bf6cc4762e6b00adad91d3661b23016","l1BlockNumber":"0x11774cf","l1Timestamp":"0x65243d54","l1TxOrigin":null,"nonce":"0x2","queueIndex":null,"queueOrigin":"sequencer","r":"0x737290319a6f21a0600c2a17f07dd9dbd3625edf9f1feb69acb08b7df0f12bfe","rawTransaction":"0xf892028402faf0808301e3d19453167401aeebff5677c31e1dda945628422d7ed2888076b9e23257c456a44c85b4250000000000000000000000002a40fd0f4bf6cc4762e6b00adad91d3661b23016822733a0737290319a6f21a0600c2a17f07dd9dbd3625edf9f1feb69acb08b7df0f12bfea0495a39cca3a7a8b2c85807120a19c3d736dc198b72363925c128f23fb7ba07e5","s":"0x495a39cca3a7a8b2c85807120a19c3d736dc198b72363925c128f23fb7ba07e5","to":"0x53167401aeebff5677c31e1dda945628422d7ed2","transactionIndex":"0x0","v":"0x2733","value":"0x8076b9e23257c456","contractAddress":null,"cumulativeGasUsed":"0x1de26","daFee":"0x0","daGasPrice":"0x0","daGasUsed":"0x4f","gasUsed":"0x1de26","l1Fee":"0x1a09f6380cb9fe0","l1FeeScalar":"1","l1GasPrice":"0x39ff1464e55c","l1GasUsed":"0x72f","logs":[{"address":"0x53167401aeebff5677c31e1dda945628422d7ed2","blockHash":"0x3df2ac4c27ac8818d9f2f0ef4b58b217349490207a5c4b131fb264c2df3a37b0","blockNumber":"0xd0011d","data":"0x000000000000000000000000008f6007465745c85979bef7d5d26fdb9abad5560000000000000000000000002a40fd0f4bf6cc4762e6b00adad91d3661b230160000000000000000000000000000000000000000000000000000000000000001000000000000000000000000000000000000000000000000000000000000000100000000000000000000000000000000000000000000000074c9061373959b390000000000000000000000000000000000000000000000000380e9246c6d72bc00000000000000000000000000000000000000000000000005d6d9e75f61148f000000000000000000000000000000000000000000000000012af8617979d0e9000000000000000000000000000000000000000000000000012af8617979d0e90000000000000000000000000000000000000000000000000000000000000001000000000000000000000000000000000000000000000000000000000000000600000000000000000000000000000000000000000000000000000000000000000000000000000000000000000000000000000000000000000000000000000000","logIndex":"0x0","removed":false,"topics":["0x0bd0eb03ae3622020e1cc9e94570c94b9e276bc263af8ac1c42747b11074f5fc"],"transactionHash":"0xf46f4d06c39ac25d1f48330eec21475e3cfb52d0ddd9e353d94afe3d784ee2d2","transactionIndex":"0x0"}],"logsBloom":"0x00000000000000000000000000000000000000004000000000000000000000000000000000000000000000000000000000000000000000000000000000000000000000000000000000000000000000000000000000000000000000000000000000040000000000000000100000000000800000000000000000000000000000000000000000000000000000000000000000000000000040000000000000000000000000000000000000000000000000000000000000000000000000000000000000000000000000000000000000000000000000000000000000000000000000000000000000000000000080000000000000000000000000000000000000000000","status":"0x1","transactionHash":"0xf46f4d06c39ac25d1f48330eec21475e3cfb52d0ddd9e353d94afe3d784ee2d2"}}}