{"block":{"difficulty":"0x2","extraData":"0xd98301090a846765746889676f312e31352e3133856c696e757800000000000001be4087db1f25e002e56e8f6f5af416a5628dd53670268d13e5b280ceeac8ca205c43c8889db2245325ab446c7484fd94230439e96e553042c08099f688f66701","gasLimit":"0x1c9c380","gasUsed":"0x1e443","hash":"0x741e5bdd0972bf058776d11291cb9a6136dfe196e8827d652a314194b30b1f0c","logsBloom":"0x00000000000000000000000000000000000000000000000000000000000000000000000000000000000000000000000000000000000000000000000000000000000000000000000000000000000000000000000000000000000000000000000000000000000000000000000000000000000000000000000000000000000000000000000000000000000000000000000000000000000000000000000000000000000000000000000000000000000000000000000000000000000000000000000000000000000000000000000000000000000000000000000000000000000000000000000000000000000000000000000000000000000000000000000000000000","miner":"0x0000000000000000000000000000000000000000","mixHash":"0x0000000000000000000000000000000000000000000000000000000000000000","nonce":"0x0000000000000000","number":"0xd00b1f","parentHash":"0x794e15cfa422a2c3de094a263a86b811770812019cde51a44d47f1e3dd57def9","receiptsRoot":"0xaba115a6848c1e4c20c5df4a1826a59e19c4e74d2e79923c5ac7fcb48f427f37","sha3Uncles":"0x1dcc4de8dec75d7aab85b567b6ccd41ad312451b948a7413f0a142fd40d49347","size":"0x3d8","stateRoot":"0x79b640744cf1aa976c23d30be596867272b47517a31606bac48c0d0ef37ca531","timestamp":"0x65244211","totalDifficulty":"0x1a0163f","transactions":[{"blockHash":"0x741e5bdd0972bf058776d11291cb9a6136dfe196e8827d652a314194b30b1f0c","blockNumber":"0xd00b1f","from":"0x8c5d2cbd0607e3900d93a91656f5c2ab4f4ec4cb","gas":"0x1e9ea","gasPrice":"0x2faf080","hash":"0x4926d8b96232c18d5339887b37c2d1a10e7c5878fc71aa27a7776cd7ade9299b","index":"0xd00b1e","input":"0x414bf38900000000000000000000000078c1b0c915c4faa5fffa6cabf0219da63d7f4cb8000000000000000000000000201eba5cc46d216ce6dc03f6a759e8e766e956ae00000000000000000000000000000000000000000000000000000000000001f40000000000000000000000008c5d2cbd0607e3900d93a91656f5c2ab4f4ec4cb000000000000000000000000000000000000000000000000000000006524422e0000000000000000000000000000000000000000000000002722a70f1a9a000000000000000000000000000000000000000000000000000000000000000fbc190000000000000000000000000000000000000000000000000000000000000000","l1BlockNumber":"0x1177534","l1Timestamp":"0x65244211","l1TxOrigin":null,"nonce":"0x881","queueIndex":null,"queueOrigin":"sequencer","r":"0x682f178eae9b0865f8e4b49876442c73c0afe5b1dbcba1e12a84bcf577ae8b61","rawTransaction":"0xf9016e8208818402faf0808301e9ea94319b69888b0d11cec22caa5034e25fffbdc8842180b90104414bf38900000000000000000000000078c1b0c915c4faa5fffa6cabf0219da63d7f4cb8000000000000000000000000201eba5cc46d216ce6dc03f6a759e8e766e956ae00000000000000000000000000000000000000000000000000000000000001f40000000000000000000000008c5d2cbd0607e3900d93a91656f5c2ab4f4ec4cb000000000000000000000000000000000000000000000000000000006524422e0000000000000000000000000000000000000000000000002722a70f1a9a000000000000000000000000000000000000000000000000000000000000000fbc190000000000000000000000000000000000000000000000000000000000000000822733a0682f178eae9b0865f8e4b49876442c73c0afe5b1dbcba1e12a84bcf577ae8b61a04ed94a8865745923f2e400d01037cc553f85dc1603517d809cac56c6613ef94d","s":"0x4ed94a8865745923f2e400d01037cc553f85dc1603517d809cac56c6613ef94d","to":"0x319b69888b0d11cec22caa5034e25fffbdc88421","transactionIndex":"0x0","v":"0x2733","value":"0x0"}],"transactionsRoot":"0x9cb61040760ee0280122696627120a7fac89cccfd91d930520218ea92738e69b","uncles":[]},"receipts":{"0x4926d8b96232c18d5339887b37c2d1a10e7c5878fc71aa27a7776cd7ade9299b":{"blockHash":"0x741e5bdd0972bf058776d11291cb9a6136dfe196e8827d652a314194b30b1f0c","blockNumber":"0xd00b1f","from":"0x8c5d2cbd0607e3900d93a91656f5c2ab4f4ec4cb","gas":"0x1e9ea","gasPrice":"0x2faf080","hash":"0x4926d8b96232c18d5339887b37c2d1a10e7c5878fc71aa27a7776cd7ade9299b","index":"0xd00b1e","input":"0x414bf38900000000000000000000000078c1b0c915c4faa5fffa6cabf0219da63d7f4cb8000000000000000000000000201eba5cc46d216ce6dc03f6a759e8e766e956ae00000000000000000000000000000000000000000000000000000000000001f40000000000000000000000008c5d2cbd0607e3900d93a91656f5c2ab4f4ec4cb000000000000000000000000000000000000000000000000000000006524422e0000000000000000000000000000000000000000000000002722a70f1a9a000000000000000000000000000000000000000000000000000000000000000fbc190000000000000000000000000000000000000000000000000000000000000000","l1BlockNumber":"0x1177534","l1Timestamp":"0x65244211","l1TxOrigin":null,"nonce":"0x881","queueIndex":null,"queueOrigin":"sequencer","r":"0x682f178eae9b0865f8e4b49876442c73c0afe5b1dbcba1e12a84bcf577ae8b61","rawTransaction":"0xf9016e8208818402faf0808301e9ea94319b69888b0d11cec22caa5034e25fffbdc8842180b90104414bf38900000000000000000000000078c1b0c915c4faa5fffa6cabf0219da63d7f4cb8000000000000000000000000201eba5cc46d216ce6dc03f6a759e8e766e956ae00000000000000000000000000000000000000000000000000000000000001f40000000000000000000000008c5d2cbd0607e3900d93a91656f5c2ab4f4ec4cb000000000000000000000000000000000000000000000000000000006524422e0000000000000000000000000000000000000000000000002722a70f1a9a000000000000000000000000000000000000000000000000000000000000000fbc190000000000000000000000000000000000000000000000000000000000000000822733a0682f178eae9b0865f8e4b49876442c73c0afe5b1dbcba1e12a84bcf577ae8b61a04ed94a8865745923f2e400d01037cc553f85dc1603517d809cac56c6613ef94d","s":"0x4ed94a8865745923f2e400d01037cc553f85dc1603517d809cac56c6613ef94d","to":"0x319b69888b0d11cec22caa5034e25fffbdc88421","transactionIndex":"0x0","v":"0x2733","value":"0x0","contractAddress":null,"cumulativeGasUsed":"0x1e443","daFee":"0x0","daGasPrice":"0x0","daGasUsed":"0x12c","gasUsed":"0x1e443","l1Fee":"0x1911132b46ddf60","l1FeeScalar":"1","l1GasPrice":"0x37d4bc06bddc","l1GasUsed":"0x72f","logs":[],"logsBloom":"0x00000000000000000000000000000000000000000000000000000000000000000000000000000000000000000000000000000000000000000000000000000000000000000000000000000000000000000000000000000000000000000000000000000000000000000000000000000000000000000000000000000000000000000000000000000000000000000000000000000000000000000000000000000000000000000000000000000000000000000000000000000000000000000000000000000000000000000000000000000000000000000000000000000000000000000000000000000000000000000000000000000000000000000000000000000000","status":"0x0","transactionHash":"0x4926d8b96232c18d5339887b37c2d1a10e7c5878fc71aa27a7776cd7ade9299b"}}}