{"block":{"difficulty":"0x2","extraData":"0xd98301090a846765746889676f312e31352e3133856c696e7578000000000000b3ecbeaaf93a6669c95303211632bc356cd74828fe53d92c16948cf8cb18761960d5619a245a3fd9a2510e94b1db2307a5f32ce4174357e09e8137c56dd898bc01","gasLimit":"0x1c9c380","gasUsed":"0x1e1e5","hash":"0x8f42b39ad8e47229f46fcd093c430ead9cc55d46fdf80a2132500ab6ebeaf1cb","logsBloom":"0x00000000000000000000000000000000040000000001008800000000000000000004000000000000000000000002000000000000000000000000000000200000140000000040000000000008000000000000008000042000000200000000000000000000000000000000000000000080000000000000000000000010000000000000000000000000000000000000000000100000000000000000000001000040020000000000000000040000000200000000000001000000000000000000000000000002000000000000000000000000000000000000000000000010000000000010000000000000000000000000000000000000000000000000000000000000","miner":"0x0000000000000000000000000000000000000000","mixHash":"0x0000000000000000000000000000000000000000000000000000000000000000","nonce":"0x0000000000000000","number":"0xd001ff","parentHash":"0x4678ab98836d6571907563a645e80491980dd0202c6e60a9f5e424788bcc26b7","receiptsRoot":"0xbf574624ab064b894326c89dbb2cf5b913c043c840e2f376bd1e4fed3e85859a","sha3Uncles":"0x1dcc4de8dec75d7aab85b567b6ccd41ad312451b948a7413f0a142fd40d49347","size":"0x3d8","stateRoot":"0x318f75cd71e00b0190631afb539ac022ac45961c8049d562af0ef3cd2fb5f8cc","timestamp":"0x65243dc8","totalDifficulty":"0x1a003ff","transactions":[{"blockHash":"0x8f42b39ad8e47229f46fcd093c430ead9cc55d46fdf80a2132500ab6ebeaf1cb","blockNumber":"0xd001ff","from":"0x0543cc1faa2b1ddee9b1bfecb02c805dd78d5db7","gas":"0x1f977","gasPrice":"0x2faf080","hash":"0x3af01cb8a7e8d4cd68dd33a2405ade7a979fea4f7fc2b76ad0f98842c9235f6e","index":"0xd001fe","input":"0x414bf38900000000000000000000000078c1b0c915c4faa5fffa6cabf0219da63d7f4cb8000000000000000000000000201eba5cc46d216ce6dc03f6a759e8e766e956ae00000000000000000000000000000000000000000000000000000000000001f40000000000000000000000000543cc1faa2b1ddee9b1bfecb02c805dd78d5db70000000000000000000000000000000000000000000000000000000065243de90000000000000000000000000000000000000000000000001aa535d3d0c0000000000000000000000000000000000000000000000000000000000000000aba840000000000000000000000000000000000000000000000000000000000000000","l1BlockNumber":"0x11774d9","l1Timestamp":"0x65243dc8","l1TxOrigin":null,"nonce":"0x124d","queueIndex":null,"queueOrigin":"sequencer","r":"0x9de1176111a8a8c32ca3e37ca8292f8f245cefbd0260035bdad0a76410c9519b","rawTransaction":"0xf9016e82124d8402faf0808301f97794319b69888b0d11cec22caa5034e25fffbdc8842180b90104414bf38900000000000000000000000078c1b0c915c4faa5fffa6cabf0219da63d7f4cb8000000000000000000000000201eba5cc46d216ce6dc03f6a759e8e766e956ae00000000000000000000000000000000000000000000000000000000000001f40000000000000000000000000543cc1faa2b1ddee9b1bfecb02c805dd78d5db70000000000000000000000000000000000000000000000000000000065243de90000000000000000000000000000000000000000000000001aa535d3d0c0000000000000000000000000000000000000000000000000000000000000000aba840000000000000000000000000000000000000000000000000000000000000000822733a09de1176111a8a8c32ca3e37ca8292f8f245cefbd0260035bdad0a76410c9519ba01df1272938086057ea70d438f5a2dd2816d85b91f25538f0c75d25765a8a2b01","s":"0x1df1272938086057ea70d438f5a2dd2816d85b91f25538f0c75d25765a8a2b01","to":"0x319b69888b0d11cec22caa5034e25fffbdc88421","transactionIndex":"0x0","v":"0x2733","value":"0x0"}],"transactionsRoot":"0xca81579593d356fa211c9bfa3682d0aef0c2a3ebdb1e4d09c4756f3b8c5ab1a2","uncles":[]},"receipts":{"0x3af01cb8a7e8d4cd68dd33a2405ade7a979fea4f7fc2b76ad0f98842c9235f6e":{"blockHash":"0x8f42b39ad8e47229f46fcd093c430ead9cc55d46fdf80a2132500ab6ebeaf1cb","blockNumber":"0xd001ff","from":"0x0543cc1faa2b1ddee9b1bfecb02c805dd78d5db7","gas":"0x1f977","gasPrice":"0x2faf080","hash":"0x3af01cb8a7e8d4cd68dd33a2405ade7a979fea4f7fc2b76ad0f98842c9235f6e","index":"0xd001fe","input":"0x414bf38900000000000000000000000078c1b0c915c4faa5fffa6cabf0219da63d7f4cb8000000000000000000000000201eba5cc46d216ce6dc03f6a759e8e766e956ae00000000000000000000000000000000000000000000000000000000000001f40000000000000000000000000543cc1faa2b1ddee9b1bfecb02c805dd78d5db70000000000000000000000000000000000000000000000000000000065243de90000000000000000000000000000000000000000000000001aa535d3d0c0000000000000000000000000000000000000000000000000000000000000000aba840000000000000000000000000000000000000000000000000000000000000000","l1BlockNumber":"0x11774d9","l1Timestamp":"0x65243dc8","l1TxOrigin":null,"nonce":"0x124d","queueIndex":null,"queueOrigin":"sequencer","r":"0x9de1176111a8a8c32ca3e37ca8292f8f245cefbd0260035bdad0a76410c9519b","rawTransaction":"0xf9016e82124d8402faf0808301f97794319b69888b0d11cec22caa5034e25fffbdc8842180b90104414bf38900000000000000000000000078c1b0c915c4faa5fffa6cabf0219da63d7f4cb8000000000000000000000000201eba5cc46d216ce6dc03f6a759e8e766e956ae00000000000000000000000000000000000000000000000000000000000001f40000000000000000000000000543cc1faa2b1ddee9b1bfecb02c805dd78d5db70000000000000000000000000000000000000000000000000000000065243de90000000000000000000000000000000000000000000000001aa535d3d0c0000000000000000000000000000000000000000000000000000000000000000aba840000000000000000000000000000000000000000000000000000000000000000822733a09de1176111a8a8c32ca3e37ca8292f8f245cefbd0260035bdad0a76410c9519ba01df1272938086057ea70d438f5a2dd2816d85b91f25538f0c75d25765a8a2b01","s":"0x1df1272938086057ea70d438f5a2dd2816d85b91f25538f0c75d25765a8a2b01","to":"0x319b69888b0d11cec22caa5034e25fffbdc88421","transactionIndex":"0x0","v":"0x2733","value":"0x0","contractAddress":null,"cumulativeGasUsed":"0x1e1e5","daFee":"0x0","daGasPrice":"0x0","daGasUsed":"0x12c","gasUsed":"0x1e1e5","l1Fee":"0x19709d787180660","l1FeeScalar":"1","l1GasPrice":"0x38a987f04864","l1GasUsed":"0x72f","logs":[{"address":"0x201eba5cc46d216ce6dc03f6a759e8e766e956ae","blockHash":"0x8f42b39ad8e47229f46fcd093c430ead9cc55d46fdf80a2132500ab6ebeaf1cb","blockNumber":"0xd001ff","data":"0x00000000000000000000000000000000000000000000000000000000000af292","logIndex":"0x0","removed":false,"topics":["0xddf252ad1be2c89b69c2b068fc378daa952ba7f163c4a11628f55a4df523b3ef","0x000000000000000000000000d08c50f7e69e9aeb2867deff4a8053d9a855e26a","0x0000000000000000000000000543cc1faa2b1ddee9b1bfecb02c805dd78d5db7"],"transactionHash":"0x3af01cb8a7e8d4cd68dd33a2405ade7a979fea4f7fc2b76ad0f98842c9235f6e","transactionIndex":"0x0"},{"address":"0x78c1b0c915c4faa5fffa6cabf0219da63d7f4cb8","blockHash":"0x8f42b39ad8e47229f46fcd093c430ead9cc55d46fdf80a2132500ab6ebeaf1cb","blockNumber":"0xd001ff","data":"0x0000000000000000000000000000000000000000000000001aa535d3d0c00000","logIndex":"0x1","removed":false,"topics":["0xddf252ad1be2c89b69c2b068fc378daa952ba7f163c4a11628f55a4df523b3ef","0x0000000000000000000000000543cc1faa2b1ddee9b1bfecb02c805dd78d5db7","0x000000000000000000000000d08c50f7e69e9aeb2867deff4a8053d9a855e26a"],"transactionHash":"0x3af01cb8a7e8d4cd68dd33a2405ade7a979fea4f7fc2b76ad0f98842c9235f6e","transactionIndex":"0x0"},{"address":"0x78c1b0c915c4faa5fffa6cabf0219da63d7f4cb8","blockHash":"0x8f42b39ad8e47229f46fcd093c430ead9cc55d46fdf80a2132500ab6ebeaf1cb","blockNumber":"0xd001ff","data":"0xffffffffffffffffffffffffffffffffffffffffffffffa8f045d4f3e2a7ffff","logIndex":"0x2","removed":false,"topics":["0x8c5be1e5ebec7d5bd14f71427d1e84f3dd0314c0f7b2291e5b200ac8c7c3b925","0x0000000000000000000000000543cc1faa2b1ddee9b1bfecb02c805dd78d5db7","0x000000000000000000000000319b69888b0d11cec22caa5034e25fffbdc88421"],"transactionHash":"0x3af01cb8a7e8d4cd68dd33a2405ade7a979fea4f7fc2b76ad0f98842c9235f6e","transactionIndex":"0x0"},{"address":"0xd08c50f7e69e9aeb2867deff4a8053d9a855e26a","blockHash":"0x8f42b39ad8e47229f46fcd093c430ead9cc55d46fdf80a2132500ab6ebeaf1cb","blockNumber":"0xd001ff","data":"0xfffffffffffffffffffffffffffffffffffffffffffffffffffffffffff50d6e0000000000000000000000000000000000000000000000001aa535d3d0c00000000000000000000000000000000000000018f4b2e8596122f6cd77b44b22ceb0000000000000000000000000000000000000000000000000006787d5d3ab8a8c0000000000000000000000000000000000000000000000000000000000045dd30000000000000000000000000000000000000000000000000000000000000000000000000000000000000000000000000000000000000000000128dbec0e0000","logIndex":"0x3","removed":false,"topics":["0x19b47279256b2a23a1665c810c8d55a1758940ee09377d4f8d26497a3577dc83","0x000000000000000000000000319b69888b0d11cec22caa5034e25fffbdc88421","0x0000000000000000000000000543cc1faa2b1ddee9b1bfecb02c805dd78d5db7"],"transactionHash":"0x3af01cb8a7e8d4cd68dd33a2405ade7a979fea4f7fc2b76ad0f98842c9235f6e","transactionIndex":"0x0"}],"logsBloom":"0x00000000000000000000000000000000040000000001008800000000000000000004000000000000000000000002000000000000000000000000000000200000140000000040000000000008000000000000008000042000000200000000000000000000000000000000000000000080000000000000000000000010000000000000000000000000000000000000000000100000000000000000000001000040020000000000000000040000000200000000000001000000000000000000000000000002000000000000000000000000000000000000000000000010000000000010000000000000000000000000000000000000000000000000000000000000","status":"0x1","transactionHash":"0x3af01cb8a7e8d4cd68dd33a2405ade7a979fea4f7fc2b76ad0f98842c9235f6e"}}}