{"block":{"difficulty":"0x2","extraData":"0xd98301090a846765746889676f312e31352e3133856c696e7578000000000000a481f145037bfa8e14edd202851eab934c7f7e0f7d762c9a4f1e462f4d3a34e271b5592ff34abbb73c101b7afb8e948b0f0d541c2c2fa17ec322269f8f08569301","gasLimit":"0x1c9c380","gasUsed":"0x229d4","hash":"0x4389e5aeefd20627c7030c7e080a175c85206bcc8a48c9fc3f1a6e2b2a860824","logsBloom":"0x00000000000000000000000000000000000000000000008800000000000000000000040000000000000000000002000000000000000000000000000000200000140004000040000000000008000000000000000000040000000000000000200000000000000000000000000004000000010000000000100000000010000000000000000000000000000000000000000000100000400000000000000100000000020000000000000000000000000000000000000021000000000000000000000000000002000000000000000000000000004000000000000000001000000000000010000000004000000000000000000000000000000000000000000000000000","miner":"0x0000000000000000000000000000000000000000","mixHash":"0x0000000000000000000000000000000000000000000000000000000000000000","nonce":"0x0000000000000000","number":"0xd00083","parentHash":"0xb6bdf384db95070d521cba83d5e02ea8c47e0ab1c1e48cc737f1678567b5c9d9","receiptsRoot":"0x91caa210af55854d2f91dba4d3f25ac7e8877945827453ac6941cdc73bd492d1","sha3Uncles":"0x1dcc4de8dec75d7aab85b567b6ccd41ad312451b948a7413f0a142fd40d49347","size":"0x3d8","stateRoot":"0x3633c3c9e11d622022323a983e7789b3252c2232da314c17d1c0c7cd1159baa6","timestamp":"0x65243d06","totalDifficulty":"0x1a00107","transactions":[{"blockHash":"0x4389e5aeefd20627c7030c7e080a175c85206bcc8a48c9fc3f1a6e2b2a860824","blockNumber":"0xd00083","from":"0x42d3216fbd1cbf987d7870637bfb3b93744a6ce2","gas":"0x24293","gasPrice":"0x2faf080","hash":"0x055167d270c0b791e9879b8972698a634b11dc67eee9a483a81063ce2016fe08","index":"0xd00082","input":"0x414bf38900000000000000000000000078c1b0c915c4faa5fffa6cabf0219da63d7f4cb800000000000000000000000097174506aafcc846a40832719bd8899a588bd05c000000000000000000000000000000000000000000000000000000000000271000000000000000000000000042d3216fbd1cbf987d7870637bfb3b93744a6ce20000000000000000000000000000000000000000000000000000000065243d270000000000000000000000000000000000000000000000003273712796e6182f000000000000000000000000000000000000000000000015b8e8cb6003263e2e0000000000000000000000000000000000000000000000000000000000000000","l1BlockNumber":"0x11774c9","l1Timestamp":"0x65243d06","l1TxOrigin":null,"nonce":"0x344","queueIndex":null,"queueOrigin":"sequencer","r":"0x6f9b8a92ddfce8653ae32b61e2cc9a75d16b3e6fd81b416d36e40f8c896e4b06","rawTransaction":"0xf9016e8203448402faf0808302429394319b69888b0d11cec22caa5034e25fffbdc8842180b90104414bf38900000000000000000000000078c1b0c915c4faa5fffa6cabf0219da63d7f4cb800000000000000000000000097174506aafcc846a40832719bd8899a588bd05c000000000000000000000000000000000000000000000000000000000000271000000000000000000000000042d3216fbd1cbf987d7870637bfb3b93744a6ce20000000000000000000000000000000000000000000000000000000065243d270000000000000000000000000000000000000000000000003273712796e6182f000000000000000000000000000000000000000000000015b8e8cb6003263e2e0000000000000000000000000000000000000000000000000000000000000000822734a06f9b8a92ddfce8653ae32b61e2cc9a75d16b3e6fd81b416d36e40f8c896e4b06a00caaacbeb77df9703a41823e86c4ae00e1e116f04d0fd4e3ef976cc9af8c30de","s":"0xcaaacbeb77df9703a41823e86c4ae00e1e116f04d0fd4e3ef976cc9af8c30de","to":"0x319b69888b0d11cec22caa5034e25fffbdc88421","transactionIndex":"0x0","v":"0x2734","value":"0x0"}],"transactionsRoot":"0x39df87bd40e580afcb22bc2b3378ee5185fe6e3c464961325d6b25695ed30860","uncles":[]},"receipts":{"0x055167d270c0b791e9879b8972698a634b11dc67eee9a483a81063ce2016fe08":{"blockHash":"0x4389e5aeefd20627c7030c7e080a175c85206bcc8a48c9fc3f1a6e2b2a860824","blockNumber":"0xd00083","from":"0x42d3216fbd1cbf987d7870637bfb3b93744a6ce2","gas":"0x24293","gasPrice":"0x2faf080","hash":"0x055167d270c0b791e9879b8972698a634b11dc67eee9a483a81063ce2016fe08","index":"0xd00082","input":"0x414bf38900000000000000000000000078c1b0c915c4faa5fffa6cabf0219da63d7f4cb800000000000000000000000097174506aafcc846a40832719bd8899a588bd05c000000000000000000000000000000000000000000000000000000000000271000000000000000000000000042d3216fbd1cbf987d7870637bfb3b93744a6ce20000000000000000000000000000000000000000000000000000000065243d270000000000000000000000000000000000000000000000003273712796e6182f000000000000000000000000000000000000000000000015b8e8cb6003263e2e0000000000000000000000000000000000000000000000000000000000000000","l1BlockNumber":"0x11774c9","l1Timestamp":"0x65243d06","l1TxOrigin":null,"nonce":"0x344","queueIndex":null,"queueOrigin":"sequencer","r":"0x6f9b8a92ddfce8653ae32b61e2cc9a75d16b3e6fd81b416d36e40f8c896e4b06","rawTransaction":"0xf9016e8203448402faf0808302429394319b69888b0d11cec22caa5034e25fffbdc8842180b90104414bf38900000000000000000000000078c1b0c915c4faa5fffa6cabf0219da63d7f4cb800000000000000000000000097174506aafcc846a40832719bd8899a588bd05c000000000000000000000000000000000000000000000000000000000000271000000000000000000000000042d3216fbd1cbf987d7870637bfb3b93744a6ce20000000000000000000000000000000000000000000000000000000065243d270000000000000000000000000000000000000000000000003273712796e6182f000000000000000000000000000000000000000000000015b8e8cb6003263e2e0000000000000000000000000000000000000000000000000000000000000000822734a06f9b8a92ddfce8653ae32b61e2cc9a75d16b3e6fd81b416d36e40f8c896e4b06a00caaacbeb77df9703a41823e86c4ae00e1e116f04d0fd4e3ef976cc9af8c30de","s":"0xcaaacbeb77df9703a41823e86c4ae00e1e116f04d0fd4e3ef976cc9af8c30de","to":"0x319b69888b0d11cec22caa5034e25fffbdc88421","transactionIndex":"0x0","v":"0x2734","value":"0x0","contractAddress":null,"cumulativeGasUsed":"0x229d4","daFee":"0x0","daGasPrice":"0x0","daGasUsed":"0x12c","gasUsed":"0x229d4","l1Fee":"0x1a09f6380cb9fe0","l1FeeScalar":"1","l1GasPrice":"0x39ff1464e55c","l1GasUsed":"0x72f","logs":[{"address":"0x97174506aafcc846a40832719bd8899a588bd05c","blockHash":"0x4389e5aeefd20627c7030c7e080a175c85206bcc8a48c9fc3f1a6e2b2a860824","blockNumber":"0xd00083","data":"0x000000000000000000000000000000000000000000000016dd96bb21b2791908","logIndex":"0x0","removed":false,"topics":["0xddf252ad1be2c89b69c2b068fc378daa952ba7f163c4a11628f55a4df523b3ef","0x0000000000000000000000003a873fe63bedad2e9f9b9b63bf8bedb5f1789167","0x00000000000000000000000042d3216fbd1cbf987d7870637bfb3b93744a6ce2"],"transactionHash":"0x055167d270c0b791e9879b8972698a634b11dc67eee9a483a81063ce2016fe08","transactionIndex":"0x0"},{"address":"0x78c1b0c915c4faa5fffa6cabf0219da63d7f4cb8","blockHash":"0x4389e5aeefd20627c7030c7e080a175c85206bcc8a48c9fc3f1a6e2b2a860824","blockNumber":"0xd00083","data":"0x0000000000000000000000000000000000000000000000003273712796e6182f","logIndex":"0x1","removed":false,"topics":["0xddf252ad1be2c89b69c2b068fc378daa952ba7f163c4a11628f55a4df523b3ef","0x00000000000000000000000042d3216fbd1cbf987d7870637bfb3b93744a6ce2","0x0000000000000000000000003a873fe63bedad2e9f9b9b63bf8bedb5f1789167"],"transactionHash":"0x055167d270c0b791e9879b8972698a634b11dc67eee9a483a81063ce2016fe08","transactionIndex":"0x0"},{"address":"0x78c1b0c915c4faa5fffa6cabf0219da63d7f4cb8","blockHash":"0x4389e5aeefd20627c7030c7e080a175c85206bcc8a48c9fc3f1a6e2b2a860824","blockNumber":"0xd00083","data":"0xfffffffffffffffffffffffffffffffffffffffffffffe8118f0d1afb2ef6c22","logIndex":"0x2","removed":false,"topics":["0x8c5be1e5ebec7d5bd14f71427d1e84f3dd0314c0f7b2291e5b200ac8c7c3b925","0x00000000000000000000000042d3216fbd1cbf987d7870637bfb3b93744a6ce2","0x000000000000000000000000319b69888b0d11cec22caa5034e25fffbdc88421"],"transactionHash":"0x055167d270c0b791e9879b8972698a634b11dc67eee9a483a81063ce2016fe08","transactionIndex":"0x0"},{"address":"0x3a873fe63bedad2e9f9b9b63bf8bedb5f1789167","blockHash":"0x4389e5aeefd20627c7030c7e080a175c85206bcc8a48c9fc3f1a6e2b2a860824","blockNumber":"0xd00083","data":"0x0000000000000000000000000000000000000000000000003273712796e6182fffffffffffffffffffffffffffffffffffffffffffffffe9226944de4d86e6f8000000000000000000000000000000000000000ad362e9b1f027e9c6d2ad7a5000000000000000000000000000000000000000000004050e8f20b2f8a1c79e70000000000000000000000000000000000000000000000000000000000000ba18000000000000000000000000000000000000000000000000002954548118e7170000000000000000000000000000000000000000000000000000000000000000","logIndex":"0x3","removed":false,"topics":["0x19b47279256b2a23a1665c810c8d55a1758940ee09377d4f8d26497a3577dc83","0x000000000000000000000000319b69888b0d11cec22caa5034e25fffbdc88421","0x00000000000000000000000042d3216fbd1cbf987d7870637bfb3b93744a6ce2"],"transactionHash":"0x055167d270c0b791e9879b8972698a634b11dc67eee9a483a81063ce2016fe08","transactionIndex":"0x0"}],"logsBloom":"0x00000000000000000000000000000000000000000000008800000000000000000000040000000000000000000002000000000000000000000000000000200000140004000040000000000008000000000000000000040000000000000000200000000000000000000000000004000000010000000000100000000010000000000000000000000000000000000000000000100000400000000000000100000000020000000000000000000000000000000000000021000000000000000000000000000002000000000000000000000000004000000000000000001000000000000010000000004000000000000000000000000000000000000000000000000000","status":"0x1","transactionHash":"0x055167d270c0b791e9879b8972698a634b11dc67eee9a483a81063ce2016fe08"}}}