{"block":{"difficulty":"0x2","extraData":"0xd98301090a846765746889676f312e31352e3133856c696e7578000000000000b4ddb4d6a3f60558c3dc8593ceb5d700b73ba467c70963d9fac6216a5060401677a79ab35c8e1f85eab2ce775236c2934029efb1d2a928484b285e5a66bbdf6b01","gasLimit":"0x1c9c380","gasUsed":"0x204dd","hash":"0xf58a9c985eeda448452c3f06ff5e7712f5836b43e908e03326489e320c2fe3c5","logsBloom":"0x0000000000000000000000000000000000004000000100880000000000000000080000000000000000000000000200000000000000200000000000000000000004800000004400000000000800000000000000c000002000800000000000000000000000000000000000000000000000000000100000800000000010000000000000000000000000000000000000000000000000000000000000000000000000004000000000000000000000000000000000000001000000000000000000000000000002000000000000000000000000002000000000000000000000000000000000000000000000000000000000000000000000000010000000000000000000","miner":"0x0000000000000000000000000000000000000000","mixHash":"0x0000000000000000000000000000000000000000000000000000000000000000","nonce":"0x0000000000000000","number":"0xd00375","parentHash":"0x71166b65c7c86dd3737d5d0d8c00f697da03c48c7cdf75fa697daa8483cf107d","receiptsRoot":"0x25c16b72991215bc73b546c35d6797b02cae8f584497310ca816782f89836395","sha3Uncles":"0x1dcc4de8dec75d7aab85b567b6ccd41ad312451b948a7413f0a142fd40d49347","size":"0x3d8","stateRoot":"0x72e1bc17339bfc9556a0681edc737c943ee03e622109c461d29b371946badcd3","timestamp":"0x65243e85","totalDifficulty":"0x1a006eb","transactions":[{"blockHash":"0xf58a9c985eeda448452c3f06ff5e7712f5836b43e908e03326489e320c2fe3c5","blockNumber":"0xd00375","from":"0x7fef994271ce0d34ce8cb5ee2b87b07d61edeeb3","gas":"0x21d08","gasPrice":"0x2faf080","hash":"0x49b5181e5c0e1f11e23d14d0c13496453e8a6b58969d07419e7331247f04ecf7","index":"0xd00374","input":"0x414bf38900000000000000000000000009bc4e0d864854c6afb6eb9a9cdf58ac190d0df9000000000000000000000000201eba5cc46d216ce6dc03f6a759e8e766e956ae00000000000000000000000000000000000000000000000000000000000000640000000000000000000000007fef994271ce0d34ce8cb5ee2b87b07d61edeeb30000000000000000000000000000000000000000000000000000000065243ea600000000000000000000000000000000000000000000000000000000001165200000000000000000000000000000000000000000000000000000000000110a2c0000000000000000000000000000000000000000000000000000000000000000","l1BlockNumber":"0x11774e9","l1Timestamp":"0x65243e85","l1TxOrigin":null,"nonce":"0x1017","queueIndex":null,"queueOrigin":"sequencer","r":"0x4ca75ad7aff043cf1e17f2dd9662b386627189860bc8219e9476af581421a580","rawTransaction":"0xf9016e8210178402faf08083021d0894319b69888b0d11cec22caa5034e25fffbdc8842180b90104414bf38900000000000000000000000009bc4e0d864854c6afb6eb9a9cdf58ac190d0df9000000000000000000000000201eba5cc46d216ce6dc03f6a759e8e766e956ae00000000000000000000000000000000000000000000000000000000000000640000000000000000000000007fef994271ce0d34ce8cb5ee2b87b07d61edeeb30000000000000000000000000000000000000000000000000000000065243ea600000000000000000000000000000000000000000000000000000000001165200000000000000000000000000000000000000000000000000000000000110a2c0000000000000000000000000000000000000000000000000000000000000000822734a04ca75ad7aff043cf1e17f2dd9662b386627189860bc8219e9476af581421a580a07538168ad0f7ca8cc1533cc150a9f894b7c3377b513038b7235187d1b4a397ba","s":"0x7538168ad0f7ca8cc1533cc150a9f894b7c3377b513038b7235187d1b4a397ba","to":"0x319b69888b0d11cec22caa5034e25fffbdc88421","transactionIndex":"0x0","v":"0x2734","value":"0x0"}],"transactionsRoot":"0x072aef7b733a305b0f609ece8c7316cf7eafa5e6a5173b778533f6d877658a39","uncles":[]},"receipts":{"0x49b5181e5c0e1f11e23d14d0c13496453e8a6b58969d07419e7331247f04ecf7":{"blockHash":"0xf58a9c985eeda448452c3f06ff5e7712f5836b43e908e03326489e320c2fe3c5","blockNumber":"0xd00375","from":"0x7fef994271ce0d34ce8cb5ee2b87b07d61edeeb3","gas":"0x21d08","gasPrice":"0x2faf080","hash":"0x49b5181e5c0e1f11e23d14d0c13496453e8a6b58969d07419e7331247f04ecf7","index":"0xd00374","input":"0x414bf38900000000000000000000000009bc4e0d864854c6afb6eb9a9cdf58ac190d0df9000000000000000000000000201eba5cc46d216ce6dc03f6a759e8e766e956ae00000000000000000000000000000000000000000000000000000000000000640000000000000000000000007fef994271ce0d34ce8cb5ee2b87b07d61edeeb30000000000000000000000000000000000000000000000000000000065243ea600000000000000000000000000000000000000000000000000000000001165200000000000000000000000000000000000000000000000000000000000110a2c0000000000000000000000000000000000000000000000000000000000000000","l1BlockNumber":"0x11774e9","l1Timestamp":"0x65243e85","l1TxOrigin":null,"nonce":"0x1017","queueIndex":null,"queueOrigin":"sequencer","r":"0x4ca75ad7aff043cf1e17f2dd9662b386627189860bc8219e9476af581421a580","rawTransaction":"0xf9016e8210178402faf08083021d0894319b69888b0d11cec22caa5034e25fffbdc8842180b90104414bf38900000000000000000000000009bc4e0d864854c6afb6eb9a9cdf58ac190d0df9000000000000000000000000201eba5cc46d216ce6dc03f6a759e8e766e956ae00000000000000000000000000000000000000000000000000000000000000640000000000000000000000007fef994271ce0d34ce8cb5ee2b87b07d61edeeb30000000000000000000000000000000000000000000000000000000065243ea600000000000000000000000000000000000000000000000000000000001165200000000000000000000000000000000000000000000000000000000000110a2c0000000000000000000000000000000000000000000000000000000000000000822734a04ca75ad7aff043cf1e17f2dd9662b386627189860bc8219e9476af581421a580a07538168ad0f7ca8cc1533cc150a9f894b7c3377b513038b7235187d1b4a397ba","s":"0x7538168ad0f7ca8cc1533cc150a9f894b7c3377b513038b7235187d1b4a397ba","to":"0x319b69888b0d11cec22caa5034e25fffbdc88421","transactionIndex":"0x0","v":"0x2734","value":"0x0","contractAddress":null,"cumulativeGasUsed":"0x204dd","daFee":"0x0","daGasPrice":"0x0","daGasUsed":"0x12c","gasUsed":"0x204dd","l1Fee":"0x19709d787180660","l1FeeScalar":"1","l1GasPrice":"0x38a987f04864","l1GasUsed":"0x72f","logs":[{"address":"0x201eba5cc46d216ce6dc03f6a759e8e766e956ae","blockHash":"0xf58a9c985eeda448452c3f06ff5e7712f5836b43e908e03326489e320c2fe3c5","blockNumber":"0xd00375","data":"0x0000000000000000000000000000000000000000000000000000000000116333","logIndex":"0x0","removed":false,"topics":["0xddf252ad1be2c89b69c2b068fc378daa952ba7f163c4a11628f55a4df523b3ef","0x0000000000000000000000006488f911c6cd86c289aa319c5a826dcf8f1ca065","0x0000000000000000000000007fef994271ce0d34ce8cb5ee2b87b07d61edeeb3"],"transactionHash":"0x49b5181e5c0e1f11e23d14d0c13496453e8a6b58969d07419e7331247f04ecf7","transactionIndex":"0x0"},{"address":"0x09bc4e0d864854c6afb6eb9a9cdf58ac190d0df9","blockHash":"0xf58a9c985eeda448452c3f06ff5e7712f5836b43e908e03326489e320c2fe3c5","blockNumber":"0xd00375","data":"0x0000000000000000000000000000000000000000000000000000000000116520","logIndex":"0x1","removed":false,"topics":["0xddf252ad1be2c89b69c2b068fc378daa952ba7f163c4a11628f55a4df523b3ef","0x0000000000000000000000007fef994271ce0d34ce8cb5ee2b87b07d61edeeb3","0x0000000000000000000000006488f911c6cd86c289aa319c5a826dcf8f1ca065"],"transactionHash":"0x49b5181e5c0e1f11e23d14d0c13496453e8a6b58969d07419e7331247f04ecf7","transactionIndex":"0x0"},{"address":"0x6488f911c6cd86c289aa319c5a826dcf8f1ca065","blockHash":"0xf58a9c985eeda448452c3f06ff5e7712f5836b43e908e03326489e320c2fe3c5","blockNumber":"0xd00375","data":"0x0000000000000000000000000000000000000000000000000000000000116520ffffffffffffffffffffffffffffffffffffffffffffffffffffffffffee9ccd0000000000000000000000000000000000000000fff5212942e133ed3a7d5a6c0000000000000000000000000000000000000000000000000000aa91ae904e92fffffffffffffffffffffffffffffffffffffffffffffffffffffffffffffffc00000000000000000000000000000000000000000000000000000000000000250000000000000000000000000000000000000000000000000000000000000000","logIndex":"0x2","removed":false,"topics":["0x19b47279256b2a23a1665c810c8d55a1758940ee09377d4f8d26497a3577dc83","0x000000000000000000000000319b69888b0d11cec22caa5034e25fffbdc88421","0x0000000000000000000000007fef994271ce0d34ce8cb5ee2b87b07d61edeeb3"],"transactionHash":"0x49b5181e5c0e1f11e23d14d0c13496453e8a6b58969d07419e7331247f04ecf7","transactionIndex":"0x0"}],"logsBloom":"0x0000000000000000000000000000000000004000000100880000000000000000080000000000000000000000000200000000000000200000000000000000000004800000004400000000000800000000000000c000002000800000000000000000000000000000000000000000000000000000100000800000000010000000000000000000000000000000000000000000000000000000000000000000000000004000000000000000000000000000000000000001000000000000000000000000000002000000000000000000000000002000000000000000000000000000000000000000000000000000000000000000000000000010000000000000000000","status":"0x1","transactionHash":"0x49b5181e5c0e1f11e23d14d0c13496453e8a6b58969d07419e7331247f04ecf7"}}}