{"block":{"difficulty":"0x2","extraData":"0xd98301090a846765746889676f312e31352e3133856c696e757800000000000031c537abe1e5140ad916fb5e636245761bb6b67a7a2de9c3f6fae8ebba202c116d0bb0482d5aff691bae54e2459245b499d62546b7edbc70dadf8d8a0b1940b701","gasLimit":"0x1c9c380","gasUsed":"0x1e35b","hash":"0x605ceb6db7e7af850699ac9942b26c0b79a481e882659825bdbf24e371dea388","logsBloom":"0x00000000000000000000000000000000000000000001008800000000000000000004000000000000000000000002000000000000000001000000000000200000140000000040000000000008000000000000008000042000000200000000000000000000000000000000000000000080000000000008000000000010000000000000000000000000000000000000000000100000000000000000000000000040020000000000000000000000000200000000000001000000000000000000000000000002000000000000000000000002000000000000000000000010000000000010000000000000000000000000000000000000000000000000000000000000","miner":"0x0000000000000000000000000000000000000000","mixHash":"0x0000000000000000000000000000000000000000000000000000000000000000","nonce":"0x0000000000000000","number":"0xd002a1","parentHash":"0xc95a320beae76f5c83c0e149f5a70017f6f23fcb137db6488d89341971fb19f2","receiptsRoot":"0x1e6ac284ee77a2c966e7495162edca9f757fb6ac9b10cfc2736d8ca4b465ce0f","sha3Uncles":"0x1dcc4de8dec75d7aab85b567b6ccd41ad312451b948a7413f0a142fd40d49347","size":"0x3d8","stateRoot":"0xdb320986f2d053e6937ed9734f6e9f19ff4734d1f6ce190e9d582f067b73ea03","timestamp":"0x65243e25","totalDifficulty":"0x1a00543","transactions":[{"blockHash":"0x605ceb6db7e7af850699ac9942b26c0b79a481e882659825bdbf24e371dea388","blockNumber":"0xd002a1","from":"0x905ef1362364f386007a6e1ca915cc23a5e14357","gas":"0x1fafd","gasPrice":"0x2faf080","hash":"0x2824d3cabf9f463a09674acba04e83c47a349267aeb418f46f4b00704e821460","index":"0xd002a0","input":"0x414bf389000000000000000000000000201eba5cc46d216ce6dc03f6a759e8e766e956ae00000000000000000000000078c1b0c915c4faa5fffa6cabf0219da63d7f4cb800000000000000000000000000000000000000000000000000000000000001f4000000000000000000000000905ef1362364f386007a6e1ca915cc23a5e143570000000000000000000000000000000000000000000000000000000065243e4500000000000000000000000000000000000000000000000000000000000b23900000000000000000000000000000000000000000000000001a8a29f59fbadd480000000000000000000000000000000000000000000000000000000000000000","l1BlockNumber":"0x11774e1","l1Timestamp":"0x65243e25","l1TxOrigin":null,"nonce":"0xbc2","queueIndex":null,"queueOrigin":"sequencer","r":"0xca66ff1b6271fbeb467f15e740b72cd073021b6a06b7ab885c10b8ce39135f1b","rawTransaction":"0xf9016e820bc28402faf0808301fafd94319b69888b0d11cec22caa5034e25fffbdc8842180b90104414bf389000000000000000000000000201eba5cc46d216ce6dc03f6a759e8e766e956ae00000000000000000000000078c1b0c915c4faa5fffa6cabf0219da63d7f4cb800000000000000000000000000000000000000000000000000000000000001f4000000000000000000000000905ef1362364f386007a6e1ca915cc23a5e143570000000000000000000000000000000000000000000000000000000065243e4500000000000000000000000000000000000000000000000000000000000b23900000000000000000000000000000000000000000000000001a8a29f59fbadd480000000000000000000000000000000000000000000000000000000000000000822733a0ca66ff1b6271fbeb467f15e740b72cd073021b6a06b7ab885c10b8ce39135f1ba07f4947626a3635e12f687fe72c4253e6a386dd7d2f2b3b7251579db6c6c8d66a","s":"0x7f4947626a3635e12f687fe72c4253e6a386dd7d2f2b3b7251579db6c6c8d66a","to":"0x319b69888b0d11cec22caa5034e25fffbdc88421","transactionIndex":"0x0","v":"0x2733","value":"0x0"}],"transactionsRoot":"0xb25e4111d300fa3ac238d49f05c124aa24167e037b68e462a968c0d180d7e91e","uncles":[]},"receipts":{"0x2824d3cabf9f463a09674acba04e83c47a349267aeb418f46f4b00704e821460":{"blockHash":"0x605ceb6db7e7af850699ac9942b26c0b79a481e882659825bdbf24e371dea388","blockNumber":"0xd002a1","from":"0x905ef1362364f386007a6e1ca915cc23a5e14357","gas":"0x1fafd","gasPrice":"0x2faf080","hash":"0x2824d3cabf9f463a09674acba04e83c47a349267aeb418f46f4b00704e821460","index":"0xd002a0","input":"0x414bf389000000000000000000000000201eba5cc46d216ce6dc03f6a759e8e766e956ae00000000000000000000000078c1b0c915c4faa5fffa6cabf0219da63d7f4cb800000000000000000000000000000000000000000000000000000000000001f4000000000000000000000000905ef1362364f386007a6e1ca915cc23a5e143570000000000000000000000000000000000000000000000000000000065243e4500000000000000000000000000000000000000000000000000000000000b23900000000000000000000000000000000000000000000000001a8a29f59fbadd480000000000000000000000000000000000000000000000000000000000000000","l1BlockNumber":"0x11774e1","l1Timestamp":"0x65243e25","l1TxOrigin":null,"nonce":"0xbc2","queueIndex":null,"queueOrigin":"sequencer","r":"0xca66ff1b6271fbeb467f15e740b72cd073021b6a06b7ab885c10b8ce39135f1b","rawTransaction":"0xf9016e820bc28402faf0808301fafd94319b69888b0d11cec22caa5034e25fffbdc8842180b90104414bf389000000000000000000000000201eba5cc46d216ce6dc03f6a759e8e766e956ae00000000000000000000000078c1b0c915c4faa5fffa6cabf0219da63d7f4cb800000000000000000000000000000000000000000000000000000000000001f4000000000000000000000000905ef1362364f386007a6e1ca915cc23a5e143570000000000000000000000000000000000000000000000000000000065243e4500000000000000000000000000000000000000000000000000000000000b23900000000000000000000000000000000000000000000000001a8a29f59fbadd480000000000000000000000000000000000000000000000000000000000000000822733a0ca66ff1b6271fbeb467f15e740b72cd073021b6a06b7ab885c10b8ce39135f1ba07f4947626a3635e12f687fe72c4253e6a386dd7d2f2b3b7251579db6c6c8d66a","s":"0x7f4947626a3635e12f687fe72c4253e6a386dd7d2f2b3b7251579db6c6c8d66a","to":"0x319b69888b0d11cec22caa5034e25fffbdc88421","transactionIndex":"0x0","v":"0x2733","value":"0x0","contractAddress":null,"cumulativeGasUsed":"0x1e35b","daFee":"0x0","daGasPrice":"0x0","daGasUsed":"0x12c","gasUsed":"0x1e35b","l1Fee":"0x19709d787180660","l1FeeScalar":"1","l1GasPrice":"0x38a987f04864","l1GasUsed":"0x72f","logs":[{"address":"0x78c1b0c915c4faa5fffa6cabf0219da63d7f4cb8","blockHash":"0x605ceb6db7e7af850699ac9942b26c0b79a481e882659825bdbf24e371dea388","blockNumber":"0xd002a1","data":"0x0000000000000000000000000000000000000000000000001b14d1ffdc7588fc","logIndex":"0x0","removed":false,"topics":["0xddf252ad1be2c89b69c2b068fc378daa952ba7f163c4a11628f55a4df523b3ef","0x000000000000000000000000d08c50f7e69e9aeb2867deff4a8053d9a855e26a","0x000000000000000000000000905ef1362364f386007a6e1ca915cc23a5e14357"],"transactionHash":"0x2824d3cabf9f463a09674acba04e83c47a349267aeb418f46f4b00704e821460","transactionIndex":"0x0"},{"address":"0x201eba5cc46d216ce6dc03f6a759e8e766e956ae","blockHash":"0x605ceb6db7e7af850699ac9942b26c0b79a481e882659825bdbf24e371dea388","blockNumber":"0xd002a1","data":"0x00000000000000000000000000000000000000000000000000000000000b2390","logIndex":"0x1","removed":false,"topics":["0xddf252ad1be2c89b69c2b068fc378daa952ba7f163c4a11628f55a4df523b3ef","0x000000000000000000000000905ef1362364f386007a6e1ca915cc23a5e14357","0x000000000000000000000000d08c50f7e69e9aeb2867deff4a8053d9a855e26a"],"transactionHash":"0x2824d3cabf9f463a09674acba04e83c47a349267aeb418f46f4b00704e821460","transactionIndex":"0x0"},{"address":"0x201eba5cc46d216ce6dc03f6a759e8e766e956ae","blockHash":"0x605ceb6db7e7af850699ac9942b26c0b79a481e882659825bdbf24e371dea388","blockNumber":"0xd002a1","data":"0xffffffffffffffffffffffffffffffffffffffffffffffffffffffffadac1a4f","logIndex":"0x2","removed":false,"topics":["0x8c5be1e5ebec7d5bd14f71427d1e84f3dd0314c0f7b2291e5b200ac8c7c3b925","0x000000000000000000000000905ef1362364f386007a6e1ca915cc23a5e14357","0x000000000000000000000000319b69888b0d11cec22caa5034e25fffbdc88421"],"transactionHash":"0x2824d3cabf9f463a09674acba04e83c47a349267aeb418f46f4b00704e821460","transactionIndex":"0x0"},{"address":"0xd08c50f7e69e9aeb2867deff4a8053d9a855e26a","blockHash":"0x605ceb6db7e7af850699ac9942b26c0b79a481e882659825bdbf24e371dea388","blockNumber":"0xd002a1","data":"0x00000000000000000000000000000000000000000000000000000000000b2390ffffffffffffffffffffffffffffffffffffffffffffffffe4eb2e00238a7704000000000000000000000000000000000018f41f284bfa2bf140b4197f331bc0000000000000000000000000000000000000000000000000006787d5d3ab8a8c0000000000000000000000000000000000000000000000000000000000045dd1000000000000000000000000000000000000000000000000000000000000007c0000000000000000000000000000000000000000000000000000000000000000","logIndex":"0x3","removed":false,"topics":["0x19b47279256b2a23a1665c810c8d55a1758940ee09377d4f8d26497a3577dc83","0x000000000000000000000000319b69888b0d11cec22caa5034e25fffbdc88421","0x000000000000000000000000905ef1362364f386007a6e1ca915cc23a5e14357"],"transactionHash":"0x2824d3cabf9f463a09674acba04e83c47a349267aeb418f46f4b00704e821460","transactionIndex":"0x0"}],"logsBloom":"0x00000000000000000000000000000000000000000001008800000000000000000004000000000000000000000002000000000000000001000000000000200000140000000040000000000008000000000000008000042000000200000000000000000000000000000000000000000080000000000008000000000010000000000000000000000000000000000000000000100000000000000000000000000040020000000000000000000000000200000000000001000000000000000000000000000002000000000000000000000002000000000000000000000010000000000010000000000000000000000000000000000000000000000000000000000000","status":"0x1","transactionHash":"0x2824d3cabf9f463a09674acba04e83c47a349267aeb418f46f4b00704e821460"}}}