{"block":{"difficulty":"0x2","extraData":"0xd98301090a846765746889676f312e31352e3133856c696e7578000000000000c0a83582ec06b634fdb06abd4f762c0d7684d73529286ba33bca37cc6df2c18611de96ad66db9e710fc908a9724edb0fb3def43471c80ba19e3f35e9ebe4ba0700","gasLimit":"0x1c9c380","gasUsed":"0x1e45b","hash":"0xffc24a8c3f4e9dfb21167fb431b9f762999d68f2db4b7bb0d113e1d5c04eb96d","logsBloom":"0x00000000000000000000000000000000000000000000000000000000000000000000000000000000000000000000000000000000000000000000000000000000000000000000000000000000000000000000000000000000000000000000000000000000000000000000000000000000000000000000000000000000000000000000000000000000000000000000000000000000000000000000000000000000000000000000000000000000000000000000000000000000000000000000000000000000000000000000000000000000000000000000000000000000000000000000000000000000000000000000000000000000000000000000000000000000","miner":"0x0000000000000000000000000000000000000000","mixHash":"0x0000000000000000000000000000000000000000000000000000000000000000","nonce":"0x0000000000000000","number":"0xd000ec","parentHash":"0x32ca33a20d0573bdcb479d410a95198ed71b906eb9a458a5d71f7a17716d0b59","receiptsRoot":"0x8a2723dc36f71f11658a7e9ecea9059bfe43b6f7de4a3c7a3c50df1dcd0f6f34","sha3Uncles":"0x1dcc4de8dec75d7aab85b567b6ccd41ad312451b948a7413f0a142fd40d49347","size":"0x3d8","stateRoot":"0x68ebb58190502014bf5e52f73afca898db9ca7bb2727c679a5058bc86786bfb6","timestamp":"0x65243d3a","totalDifficulty":"0x1a001d9","transactions":[{"blockHash":"0xffc24a8c3f4e9dfb21167fb431b9f762999d68f2db4b7bb0d113e1d5c04eb96d","blockNumber":"0xd000ec","from":"0x209a56df83ce350046c777f5d240c4b2d66c9173","gas":"0x1ea03","gasPrice":"0x2faf080","hash":"0x187387630654076cdf9224a506d42dc81c17e36a34953c05a01dccede4174995","index":"0xd000eb","input":"0x414bf389000000000000000000000000201eba5cc46d216ce6dc03f6a759e8e766e956ae000000000000000000000000deaddeaddeaddeaddeaddeaddeaddeaddead111100000000000000000000000000000000000000000000000000000000000001f4000000000000000000000000209a56df83ce350046c777f5d240c4b2d66c91730000000000000000000000000000000000000000000000000000000065243d5800000000000000000000000000000000000000000000000000000000000d46700000000000000000000000000000000000000000000000000001e897d06848bb0000000000000000000000000000000000000000000000000000000000000000","l1BlockNumber":"0x11774cd","l1Timestamp":"0x65243d3a","l1TxOrigin":null,"nonce":"0x8d8","queueIndex":null,"queueOrigin":"sequencer","r":"0xfaa99b3f0d84b781d49c05ffc3f62f5d0b471f59269e2c3e66def56245442ddf","rawTransaction":"0xf9016e8208d88402faf0808301ea0394319b69888b0d11cec22caa5034e25fffbdc8842180b90104414bf389000000000000000000000000201eba5cc46d216ce6dc03f6a759e8e766e956ae000000000000000000000000deaddeaddeaddeaddeaddeaddeaddeaddead111100000000000000000000000000000000000000000000000000000000000001f4000000000000000000000000209a56df83ce350046c777f5d240c4b2d66c91730000000000000000000000000000000000000000000000000000000065243d5800000000000000000000000000000000000000000000000000000000000d46700000000000000000000000000000000000000000000000000001e897d06848bb0000000000000000000000000000000000000000000000000000000000000000822734a0faa99b3f0d84b781d49c05ffc3f62f5d0b471f59269e2c3e66def56245442ddfa0778b4a6e070af4d3c8f80f560658dafb1c0d2cdf9cd787e98c14196e8929cc53","s":"0x778b4a6e070af4d3c8f80f560658dafb1c0d2cdf9cd787e98c14196e8929cc53","to":"0x319b69888b0d11cec22caa5034e25fffbdc88421","transactionIndex":"0x0","v":"0x2734","value":"0x0"}],"transactionsRoot":"0x0422a95cd4af593efb4c8016f0fb3ffa90f489706bd68d01466fa65c684a32a9","uncles":[]},"receipts":{"0x187387630654076cdf9224a506d42dc81c17e36a34953c05a01dccede4174995":{"blockHash":"0xffc24a8c3f4e9dfb21167fb431b9f762999d68f2db4b7bb0d113e1d5c04eb96d","blockNumber":"0xd000ec","from":"0x209a56df83ce350046c777f5d240c4b2d66c9173","gas":"0x1ea03","gasPrice":"0x2faf080","hash":"0x187387630654076cdf9224a506d42dc81c17e36a34953c05a01dccede4174995","index":"0xd000eb","input":"0x414bf389000000000000000000000000201eba5cc46d216ce6dc03f6a759e8e766e956ae000000000000000000000000deaddeaddeaddeaddeaddeaddeaddeaddead111100000000000000000000000000000000000000000000000000000000000001f4000000000000000000000000209a56df83ce350046c777f5d240c4b2d66c91730000000000000000000000000000000000000000000000000000000065243d5800000000000000000000000000000000000000000000000000000000000d46700000000000000000000000000000000000000000000000000001e897d06848bb0000000000000000000000000000000000000000000000000000000000000000","l1BlockNumber":"0x11774cd","l1Timestamp":"0x65243d3a","l1TxOrigin":null,"nonce":"0x8d8","queueIndex":null,"queueOrigin":"sequencer","r":"0xfaa99b3f0d84b781d49c05ffc3f62f5d0b471f59269e2c3e66def56245442ddf","rawTransaction":"0xf9016e8208d88402faf0808301ea0394319b69888b0d11cec22caa5034e25fffbdc8842180b90104414bf389000000000000000000000000201eba5cc46d216ce6dc03f6a759e8e766e956ae000000000000000000000000deaddeaddeaddeaddeaddeaddeaddeaddead111100000000000000000000000000000000000000000000000000000000000001f4000000000000000000000000209a56df83ce350046c777f5d240c4b2d66c91730000000000000000000000000000000000000000000000000000000065243d5800000000000000000000000000000000000000000000000000000000000d46700000000000000000000000000000000000000000000000000001e897d06848bb0000000000000000000000000000000000000000000000000000000000000000822734a0faa99b3f0d84b781d49c05ffc3f62f5d0b471f59269e2c3e66def56245442ddfa0778b4a6e070af4d3c8f80f560658dafb1c0d2cdf9cd787e98c14196e8929cc53","s":"0x778b4a6e070af4d3c8f80f560658dafb1c0d2cdf9cd787e98c14196e8929cc53","to":"0x319b69888b0d11cec22caa5034e25fffbdc88421","transactionIndex":"0x0","v":"0x2734","value":"0x0","contractAddress":null,"cumulativeGasUsed":"0x1e45b","daFee":"0x0","daGasPrice":"0x0","daGasUsed":"0x12c","gasUsed":"0x1e45b","l1Fee":"0x1a09f6380cb9fe0","l1FeeScalar":"1","l1GasPrice":"0x39ff1464e55c","l1GasUsed":"0x72f","logs":[],"logsBloom":"0x00000000000000000000000000000000000000000000000000000000000000000000000000000000000000000000000000000000000000000000000000000000000000000000000000000000000000000000000000000000000000000000000000000000000000000000000000000000000000000000000000000000000000000000000000000000000000000000000000000000000000000000000000000000000000000000000000000000000000000000000000000000000000000000000000000000000000000000000000000000000000000000000000000000000000000000000000000000000000000000000000000000000000000000000000000000","status":"0x0","transactionHash":"0x187387630654076cdf9224a506d42dc81c17e36a34953c05a01dccede4174995"}}}