{"block":{"difficulty":"0x2","extraData":"0xd98301090a846765746889676f312e31352e3133856c696e7578000000000000ce6975473389d4f938f132784171e1004f47b5d39d5171244f7757921c69deab7b96401df46ec3a166cd6b455a594955c0fa91f3a9484861fca8b924418d86a901","gasLimit":"0x1c9c380","gasUsed":"0x1e1db","hash":"0xd032fcda1fdcb107d5a6713e1fad7636b6386158f21b20458bac650b7d4701af","logsBloom":"0x00000000000000000000000000000000000000000001008800000000000000000004000000000000000080000002000000000000000000000000000000200000140000000040000000000008000000000000008000042000000200000000000000000000000000000000000000000080000000000000000000000010000000000000000000000000000000000000000000100000000000000000000000000040020000000000000000000000000200080000000001000000000000000000000000000002000000000000000000000000000000000000000000000010000000000010000000000000000000000000000000000000000000000000040000000000","miner":"0x0000000000000000000000000000000000000000","mixHash":"0x0000000000000000000000000000000000000000000000000000000000000000","nonce":"0x0000000000000000","number":"0xd00359","parentHash":"0x02fe8950545d454ad66cdd12a4f1b83af46384977b3f435a6e1d1de79b594942","receiptsRoot":"0x080d49680c038ca4d095f49d302eedfddd538f50cf3f2dc7d2f5a44e7deee1e1","sha3Uncles":"0x1dcc4de8dec75d7aab85b567b6ccd41ad312451b948a7413f0a142fd40d49347","size":"0x3d8","stateRoot":"0x11b0db9b700a5e6d0bd57f0acd8bb8f2e5e6ea5d3db7759915be3e6082e29514","timestamp":"0x65243e7a","totalDifficulty":"0x1a006b3","transactions":[{"blockHash":"0xd032fcda1fdcb107d5a6713e1fad7636b6386158f21b20458bac650b7d4701af","blockNumber":"0xd00359","from":"0xff4da659835c3612e32fff172556d3759933a894","gas":"0x1f96c","gasPrice":"0x2faf080","hash":"0x5768f82bb6b2fcba7e941c9112e4cb8052d52ba3a89c89a0d24add8d5bfcbb2c","index":"0xd00358","input":"0x414bf38900000000000000000000000078c1b0c915c4faa5fffa6cabf0219da63d7f4cb8000000000000000000000000201eba5cc46d216ce6dc03f6a759e8e766e956ae00000000000000000000000000000000000000000000000000000000000001f4000000000000000000000000ff4da659835c3612e32fff172556d3759933a8940000000000000000000000000000000000000000000000000000000065243e990000000000000000000000000000000000000000000000001aa535d3d0c0000000000000000000000000000000000000000000000000000000000000000abadc0000000000000000000000000000000000000000000000000000000000000000","l1BlockNumber":"0x11774e8","l1Timestamp":"0x65243e7a","l1TxOrigin":null,"nonce":"0x12b7","queueIndex":null,"queueOrigin":"sequencer","r":"0x3bc2928cbfdb63ae4bdb31539b28c31074181f1443f945458e5fcd531b2927a4","rawTransaction":"0xf9016e8212b78402faf0808301f96c94319b69888b0d11cec22caa5034e25fffbdc8842180b90104414bf38900000000000000000000000078c1b0c915c4faa5fffa6cabf0219da63d7f4cb8000000000000000000000000201eba5cc46d216ce6dc03f6a759e8e766e956ae00000000000000000000000000000000000000000000000000000000000001f4000000000000000000000000ff4da659835c3612e32fff172556d3759933a8940000000000000000000000000000000000000000000000000000000065243e990000000000000000000000000000000000000000000000001aa535d3d0c0000000000000000000000000000000000000000000000000000000000000000abadc0000000000000000000000000000000000000000000000000000000000000000822733a03bc2928cbfdb63ae4bdb31539b28c31074181f1443f945458e5fcd531b2927a4a035ba94cf223f38b888fd7c6459516a385706bcbcd3da8b4bee5b26fb1bac84a3","s":"0x35ba94cf223f38b888fd7c6459516a385706bcbcd3da8b4bee5b26fb1bac84a3","to":"0x319b69888b0d11cec22caa5034e25fffbdc88421","transactionIndex":"0x0","v":"0x2733","value":"0x0"}],"transactionsRoot":"0xf44c608d9c4ac2d92c0bfc93e5ead5b09467b82b90ceb4490c983bd681b31daa","uncles":[]},"receipts":{"0x5768f82bb6b2fcba7e941c9112e4cb8052d52ba3a89c89a0d24add8d5bfcbb2c":{"blockHash":"0xd032fcda1fdcb107d5a6713e1fad7636b6386158f21b20458bac650b7d4701af","blockNumber":"0xd00359","from":"0xff4da659835c3612e32fff172556d3759933a894","gas":"0x1f96c","gasPrice":"0x2faf080","hash":"0x5768f82bb6b2fcba7e941c9112e4cb8052d52ba3a89c89a0d24add8d5bfcbb2c","index":"0xd00358","input":"0x414bf38900000000000000000000000078c1b0c915c4faa5fffa6cabf0219da63d7f4cb8000000000000000000000000201eba5cc46d216ce6dc03f6a759e8e766e956ae00000000000000000000000000000000000000000000000000000000000001f4000000000000000000000000ff4da659835c3612e32fff172556d3759933a8940000000000000000000000000000000000000000000000000000000065243e990000000000000000000000000000000000000000000000001aa535d3d0c0000000000000000000000000000000000000000000000000000000000000000abadc0000000000000000000000000000000000000000000000000000000000000000","l1BlockNumber":"0x11774e8","l1Timestamp":"0x65243e7a","l1TxOrigin":null,"nonce":"0x12b7","queueIndex":null,"queueOrigin":"sequencer","r":"0x3bc2928cbfdb63ae4bdb31539b28c31074181f1443f945458e5fcd531b2927a4","rawTransaction":"0xf9016e8212b78402faf0808301f96c94319b69888b0d11cec22caa5034e25fffbdc8842180b90104414bf38900000000000000000000000078c1b0c915c4faa5fffa6cabf0219da63d7f4cb8000000000000000000000000201eba5cc46d216ce6dc03f6a759e8e766e956ae00000000000000000000000000000000000000000000000000000000000001f4000000000000000000000000ff4da659835c3612e32fff172556d3759933a8940000000000000000000000000000000000000000000000000000000065243e990000000000000000000000000000000000000000000000001aa535d3d0c0000000000000000000000000000000000000000000000000000000000000000abadc0000000000000000000000000000000000000000000000000000000000000000822733a03bc2928cbfdb63ae4bdb31539b28c31074181f1443f945458e5fcd531b2927a4a035ba94cf223f38b888fd7c6459516a385706bcbcd3da8b4bee5b26fb1bac84a3","s":"0x35ba94cf223f38b888fd7c6459516a385706bcbcd3da8b4bee5b26fb1bac84a3","to":"0x319b69888b0d11cec22caa5034e25fffbdc88421","transactionIndex":"0x0","v":"0x2733","value":"0x0","contractAddress":null,"cumulativeGasUsed":"0x1e1db","daFee":"0x0","daGasPrice":"0x0","daGasUsed":"0x12c","gasUsed":"0x1e1db","l1Fee":"0x19709d787180660","l1FeeScalar":"1","l1GasPrice":"0x38a987f04864","l1GasUsed":"0x72f","logs":[{"address":"0x201eba5cc46d216ce6dc03f6a759e8e766e956ae","blockHash":"0xd032fcda1fdcb107d5a6713e1fad7636b6386158f21b20458bac650b7d4701af","blockNumber":"0xd00359","data":"0x00000000000000000000000000000000000000000000000000000000000af2eb","logIndex":"0x0","removed":false,"topics":["0xddf252ad1be2c89b69c2b068fc378daa952ba7f163c4a11628f55a4df523b3ef","0x000000000000000000000000d08c50f7e69e9aeb2867deff4a8053d9a855e26a","0x000000000000000000000000ff4da659835c3612e32fff172556d3759933a894"],"transactionHash":"0x5768f82bb6b2fcba7e941c9112e4cb8052d52ba3a89c89a0d24add8d5bfcbb2c","transactionIndex":"0x0"},{"address":"0x78c1b0c915c4faa5fffa6cabf0219da63d7f4cb8","blockHash":"0xd032fcda1fdcb107d5a6713e1fad7636b6386158f21b20458bac650b7d4701af","blockNumber":"0xd00359","data":"0x0000000000000000000000000000000000000000000000001aa535d3d0c00000","logIndex":"0x1","removed":false,"topics":["0xddf252ad1be2c89b69c2b068fc378daa952ba7f163c4a11628f55a4df523b3ef","0x000000000000000000000000ff4da659835c3612e32fff172556d3759933a894","0x000000000000000000000000d08c50f7e69e9aeb2867deff4a8053d9a855e26a"],"transactionHash":"0x5768f82bb6b2fcba7e941c9112e4cb8052d52ba3a89c89a0d24add8d5bfcbb2c","transactionIndex":"0x0"},{"address":"0x78c1b0c915c4faa5fffa6cabf0219da63d7f4cb8","blockHash":"0xd032fcda1fdcb107d5a6713e1fad7636b6386158f21b20458bac650b7d4701af","blockNumber":"0xd00359","data":"0xffffffffffffffffffffffffffffffffffffffffffffffa2f58d8358dd11ffff","logIndex":"0x2","removed":false,"topics":["0x8c5be1e5ebec7d5bd14f71427d1e84f3dd0314c0f7b2291e5b200ac8c7c3b925","0x000000000000000000000000ff4da659835c3612e32fff172556d3759933a894","0x000000000000000000000000319b69888b0d11cec22caa5034e25fffbdc88421"],"transactionHash":"0x5768f82bb6b2fcba7e941c9112e4cb8052d52ba3a89c89a0d24add8d5bfcbb2c","transactionIndex":"0x0"},{"address":"0xd08c50f7e69e9aeb2867deff4a8053d9a855e26a","blockHash":"0xd032fcda1fdcb107d5a6713e1fad7636b6386158f21b20458bac650b7d4701af","blockNumber":"0xd00359","data":"0xfffffffffffffffffffffffffffffffffffffffffffffffffffffffffff50d150000000000000000000000000000000000000000000000001aa535d3d0c00000000000000000000000000000000000000018f44d3b98c096251400139be6b9ac000000000000000000000000000000000000000000000000006787d5d3ab8a8c0000000000000000000000000000000000000000000000000000000000045dd20000000000000000000000000000000000000000000000000000000000000000000000000000000000000000000000000000000000000000000128dbec0e0000","logIndex":"0x3","removed":false,"topics":["0x19b47279256b2a23a1665c810c8d55a1758940ee09377d4f8d26497a3577dc83","0x000000000000000000000000319b69888b0d11cec22caa5034e25fffbdc88421","0x000000000000000000000000ff4da659835c3612e32fff172556d3759933a894"],"transactionHash":"0x5768f82bb6b2fcba7e941c9112e4cb8052d52ba3a89c89a0d24add8d5bfcbb2c","transactionIndex":"0x0"}],"logsBloom":"0x00000000000000000000000000000000000000000001008800000000000000000004000000000000000080000002000000000000000000000000000000200000140000000040000000000008000000000000008000042000000200000000000000000000000000000000000000000080000000000000000000000010000000000000000000000000000000000000000000100000000000000000000000000040020000000000000000000000000200080000000001000000000000000000000000000002000000000000000000000000000000000000000000000010000000000010000000000000000000000000000000000000000000000000040000000000","status":"0x1","transactionHash":"0x5768f82bb6b2fcba7e941c9112e4cb8052d52ba3a89c89a0d24add8d5bfcbb2c"}}}