{"block":{"difficulty":"0x2","extraData":"0xd98301090a846765746889676f312e31352e3133856c696e75780000000000001581d47c218114730e0f96e7084420e6308d1764408933a7d537c8d0cb41ec572ad619ca1a469c2b0f7ee9109e96da9474dadbbe1804f108cd5bc622d7b0e0d401","gasLimit":"0x1c9c380","gasUsed":"0x1e3a1","hash":"0xe24c5ea7ca33f6546d8f2d257a892ba1406deb3e7f5fbd2d34292145960ae9da","logsBloom":"0x00000000000000000000000000000000000000000000000000000000000000000000000000000000000000000000000000000000000000000000000000000000000000000000000000000000000000000000000000000000000000000000000000000000000000000000000000000000000000000000000000000000000000000000000000000000000000000000000000000000000000000000000000000000000000000000000000000000000000000000000000000000000000000000000000000000000000000000000000000000000000000000000000000000000000000000000000000000000000000000000000000000000000000000000000000000","miner":"0x0000000000000000000000000000000000000000","mixHash":"0x0000000000000000000000000000000000000000000000000000000000000000","nonce":"0x0000000000000000","number":"0xd00b22","parentHash":"0xecd44c3ce720b00c53d6e3658be3c7d05a25790f4fe3831c146c8175abaf8b86","receiptsRoot":"0x96582dbc67a6edbfdf8547b095bb51c6dc0f562446a8b402fa771edc1b678497","sha3Uncles":"0x1dcc4de8dec75d7aab85b567b6ccd41ad312451b948a7413f0a142fd40d49347","size":"0x3d8","stateRoot":"0x20290fb1c64505fd3b695aa0c6ea946d9c8cd128686001097f0616305c5a8fb9","timestamp":"0x65244211","totalDifficulty":"0x1a01645","transactions":[{"blockHash":"0xe24c5ea7ca33f6546d8f2d257a892ba1406deb3e7f5fbd2d34292145960ae9da","blockNumber":"0xd00b22","from":"0x993956d1fe0260a524f11bfa4805fbc208a71506","gas":"0x1e946","gasPrice":"0x2faf080","hash":"0x975ca06cad1fde2e9b57ab2ed98c1027d068e1991e198c4925fe32dd86069464","index":"0xd00b21","input":"0x414bf389000000000000000000000000deaddeaddeaddeaddeaddeaddeaddeaddead1111000000000000000000000000201eba5cc46d216ce6dc03f6a759e8e766e956ae00000000000000000000000000000000000000000000000000000000000001f4000000000000000000000000993956d1fe0260a524f11bfa4805fbc208a71506000000000000000000000000000000000000000000000000000000006524422f00000000000000000000000000000000000000000000000000020af59ebef00000000000000000000000000000000000000000000000000000000000000d82e00000000000000000000000000000000000000000000000000000000000000000","l1BlockNumber":"0x1177534","l1Timestamp":"0x65244211","l1TxOrigin":null,"nonce":"0x945","queueIndex":null,"queueOrigin":"sequencer","r":"0x895a5fcabc110e54b91b4cb65b974280033271a88504a01a431252fd142ea95b","rawTransaction":"0xf9016e8209458402faf0808301e94694319b69888b0d11cec22caa5034e25fffbdc8842180b90104414bf389000000000000000000000000deaddeaddeaddeaddeaddeaddeaddeaddead1111000000000000000000000000201eba5cc46d216ce6dc03f6a759e8e766e956ae00000000000000000000000000000000000000000000000000000000000001f4000000000000000000000000993956d1fe0260a524f11bfa4805fbc208a71506000000000000000000000000000000000000000000000000000000006524422f00000000000000000000000000000000000000000000000000020af59ebef00000000000000000000000000000000000000000000000000000000000000d82e00000000000000000000000000000000000000000000000000000000000000000822733a0895a5fcabc110e54b91b4cb65b974280033271a88504a01a431252fd142ea95ba06b4a93a3df177973560ed64686b0a2492aa035a219b8bff84e26f141258a4d38","s":"0x6b4a93a3df177973560ed64686b0a2492aa035a219b8bff84e26f141258a4d38","to":"0x319b69888b0d11cec22caa5034e25fffbdc88421","transactionIndex":"0x0","v":"0x2733","value":"0x0"}],"transactionsRoot":"0x4c41d76f3e84cd8269dbfbdad77a7d0be5a53fd72af27d0c8d843443f2d9eba5","uncles":[]},"receipts":{"0x975ca06cad1fde2e9b57ab2ed98c1027d068e1991e198c4925fe32dd86069464":{"blockHash":"0xe24c5ea7ca33f6546d8f2d257a892ba1406deb3e7f5fbd2d34292145960ae9da","blockNumber":"0xd00b22","from":"0x993956d1fe0260a524f11bfa4805fbc208a71506","gas":"0x1e946","gasPrice":"0x2faf080","hash":"0x975ca06cad1fde2e9b57ab2ed98c1027d068e1991e198c4925fe32dd86069464","index":"0xd00b21","input":"0x414bf389000000000000000000000000deaddeaddeaddeaddeaddeaddeaddeaddead1111000000000000000000000000201eba5cc46d216ce6dc03f6a759e8e766e956ae00000000000000000000000000000000000000000000000000000000000001f4000000000000000000000000993956d1fe0260a524f11bfa4805fbc208a71506000000000000000000000000000000000000000000000000000000006524422f00000000000000000000000000000000000000000000000000020af59ebef00000000000000000000000000000000000000000000000000000000000000d82e00000000000000000000000000000000000000000000000000000000000000000","l1BlockNumber":"0x1177534","l1Timestamp":"0x65244211","l1TxOrigin":null,"nonce":"0x945","queueIndex":null,"queueOrigin":"sequencer","r":"0x895a5fcabc110e54b91b4cb65b974280033271a88504a01a431252fd142ea95b","rawTransaction":"0xf9016e8209458402faf0808301e94694319b69888b0d11cec22caa5034e25fffbdc8842180b90104414bf389000000000000000000000000deaddeaddeaddeaddeaddeaddeaddeaddead1111000000000000000000000000201eba5cc46d216ce6dc03f6a759e8e766e956ae00000000000000000000000000000000000000000000000000000000000001f4000000000000000000000000993956d1fe0260a524f11bfa4805fbc208a71506000000000000000000000000000000000000000000000000000000006524422f00000000000000000000000000000000000000000000000000020af59ebef00000000000000000000000000000000000000000000000000000000000000d82e00000000000000000000000000000000000000000000000000000000000000000822733a0895a5fcabc110e54b91b4cb65b974280033271a88504a01a431252fd142ea95ba06b4a93a3df177973560ed64686b0a2492aa035a219b8bff84e26f141258a4d38","s":"0x6b4a93a3df177973560ed64686b0a2492aa035a219b8bff84e26f141258a4d38","to":"0x319b69888b0d11cec22caa5034e25fffbdc88421","transactionIndex":"0x0","v":"0x2733","value":"0x0","contractAddress":null,"cumulativeGasUsed":"0x1e3a1","daFee":"0x0","daGasPrice":"0x0","daGasUsed":"0x12c","gasUsed":"0x1e3a1","l1Fee":"0x1911132b46ddf60","l1FeeScalar":"1","l1GasPrice":"0x37d4bc06bddc","l1GasUsed":"0x72f","logs":[],"logsBloom":"0x00000000000000000000000000000000000000000000000000000000000000000000000000000000000000000000000000000000000000000000000000000000000000000000000000000000000000000000000000000000000000000000000000000000000000000000000000000000000000000000000000000000000000000000000000000000000000000000000000000000000000000000000000000000000000000000000000000000000000000000000000000000000000000000000000000000000000000000000000000000000000000000000000000000000000000000000000000000000000000000000000000000000000000000000000000000","status":"0x0","transactionHash":"0x975ca06cad1fde2e9b57ab2ed98c1027d068e1991e198c4925fe32dd86069464"}}}