{"block":{"difficulty":"0x2","extraData":"0xd98301090a846765746889676f312e31352e3133856c696e7578000000000000412b4e411e43668063b0a1a0fb13112585e85eacef7504ec88b503af130822cd2bd36b435001bca33d708e89dc3e6bcc973af6e94b35283decd80be4cac1880700","gasLimit":"0x1c9c380","gasUsed":"0x6b411","hash":"0x6e051cbdfbff1488dbe129e5832263d00857c2a7dd26b5d6e5ac4f55319bf763","logsBloom":"0x000400002000100000001000420000000000000000010000000000000000000000000000000000000000004000000000000000000001000002000800002000001000000000000000000000080000000000000080000420000000000000004004000000000200000200000000000108000000000000040000000000100000000000100001080000000040000000000000001080000400000000040000000000000200000000000020000000000000000000002000000000000000000000000000000200020000000000000830000000000000000000000000000000000000204000100a0000040010000000004000000000000008000000080000002000004000","miner":"0x0000000000000000000000000000000000000000","mixHash":"0x0000000000000000000000000000000000000000000000000000000000000000","nonce":"0x0000000000000000","number":"0xd0008f","parentHash":"0x399a13846874665b0f7d2267f9e4b353769bf142be22cc0fd7b4960dcbca7017","receiptsRoot":"0x66d7f76faa16a4ea4c8d33bd2662c56959dc24549039eb736d353bdf447ccf58","sha3Uncles":"0x1dcc4de8dec75d7aab85b567b6ccd41ad312451b948a7413f0a142fd40d49347","size":"0x3d8","stateRoot":"0xd22db07e2364a399638997cbe2b54e11977e4d24ffac10d3cc93dba0972f7244","timestamp":"0x65243d11","totalDifficulty":"0x1a0011f","transactions":[{"blockHash":"0x6e051cbdfbff1488dbe129e5832263d00857c2a7dd26b5d6e5ac4f55319bf763","blockNumber":"0xd0008f","from":"0xccce0cad424893aa8756e4d28fce3dd03d9615de","gas":"0x87163","gasPrice":"0x2faf080","hash":"0xfdd360818960142f939ff640a7713c5285420214c37f84c6a6d37abc01a3074d","index":"0xd0008e","input":"0x8e3c92e4000000000000000000000000000000000000000000000000000000000000002b0000000000000000000000000000000000000000000000000000b5e620f48000000000000000000000000000ccce0cad424893aa8756e4d28fce3dd03d9615de0000000000000000000000001ee3ae551188661553882fdc75f8f62eaa6726ad0000000000000000000000000000000000000000000000000000000000000000000000000000000000000000000000000000000000000000000000000000000000000000000000000000000000000000000000000000000000000000000000000000000000000000000000000000000000000000000000000000000000000000","l1BlockNumber":"0x11774ca","l1Timestamp":"0x65243d11","l1TxOrigin":null,"nonce":"0x162","queueIndex":null,"queueOrigin":"sequencer","r":"0x972aa9c4fa80ad9aa4412e3750f815c7db3bab01c3106c8e7d3db3cf046740aa","rawTransaction":"0xf9016e8201628402faf0808308716394fc13ebe7feb9595d70195e9168aa7f3ace15362180b901048e3c92e4000000000000000000000000000000000000000000000000000000000000002b0000000000000000000000000000000000000000000000000000b5e620f48000000000000000000000000000ccce0cad424893aa8756e4d28fce3dd03d9615de0000000000000000000000001ee3ae551188661553882fdc75f8f62eaa6726ad0000000000000000000000000000000000000000000000000000000000000000000000000000000000000000000000000000000000000000000000000000000000000000000000000000000000000000000000000000000000000000000000000000000000000000000000000000000000000000000000000000000000000000822734a0972aa9c4fa80ad9aa4412e3750f815c7db3bab01c3106c8e7d3db3cf046740aaa068b0f22ff5ebc48c5164bfc539e9dbc200734b0c1acd2adabe0882e636783072","s":"0x68b0f22ff5ebc48c5164bfc539e9dbc200734b0c1acd2adabe0882e636783072","to":"0xfc13ebe7feb9595d70195e9168aa7f3ace153621","transactionIndex":"0x0","v":"0x2734","value":"0x0"}],"transactionsRoot":"0xb38570bf55fafa14c71c3c71ac53a691b78938c83703c62f3aa0dc5cedfc7a81","uncles":[]},"receipts":{"0xfdd360818960142f939ff640a7713c5285420214c37f84c6a6d37abc01a3074d":{"blockHash":"0x6e051cbdfbff1488dbe129e5832263d00857c2a7dd26b5d6e5ac4f55319bf763","blockNumber":"0xd0008f","from":"0xccce0cad424893aa8756e4d28fce3dd03d9615de","gas":"0x87163","gasPrice":"0x2faf080","hash":"0xfdd360818960142f939ff640a7713c5285420214c37f84c6a6d37abc01a3074d","index":"0xd0008e","input":"0x8e3c92e4000000000000000000000000000000000000000000000000000000000000002b0000000000000000000000000000000000000000000000000000b5e620f48000000000000000000000000000ccce0cad424893aa8756e4d28fce3dd03d9615de0000000000000000000000001ee3ae551188661553882fdc75f8f62eaa6726ad0000000000000000000000000000000000000000000000000000000000000000000000000000000000000000000000000000000000000000000000000000000000000000000000000000000000000000000000000000000000000000000000000000000000000000000000000000000000000000000000000000000000000000","l1BlockNumber":"0x11774ca","l1Timestamp":"0x65243d11","l1TxOrigin":null,"nonce":"0x162","queueIndex":null,"queueOrigin":"sequencer","r":"0x972aa9c4fa80ad9aa4412e3750f815c7db3bab01c3106c8e7d3db3cf046740aa","rawTransaction":"0xf9016e8201628402faf0808308716394fc13ebe7feb9595d70195e9168aa7f3ace15362180b901048e3c92e4000000000000000000000000000000000000000000000000000000000000002b0000000000000000000000000000000000000000000000000000b5e620f48000000000000000000000000000ccce0cad424893aa8756e4d28fce3dd03d9615de0000000000000000000000001ee3ae551188661553882fdc75f8f62eaa6726ad0000000000000000000000000000000000000000000000000000000000000000000000000000000000000000000000000000000000000000000000000000000000000000000000000000000000000000000000000000000000000000000000000000000000000000000000000000000000000000000000000000000000000000822734a0972aa9c4fa80ad9aa4412e3750f815c7db3bab01c3106c8e7d3db3cf046740aaa068b0f22ff5ebc48c5164bfc539e9dbc200734b0c1acd2adabe0882e636783072","s":"0x68b0f22ff5ebc48c5164bfc539e9dbc200734b0c1acd2adabe0882e636783072","to":"0xfc13ebe7feb9595d70195e9168aa7f3ace153621","transactionIndex":"0x0","v":"0x2734","value":"0x0","contractAddress":null,"cumulativeGasUsed":"0x6b411","daFee":"0x0","daGasPrice":"0x0","daGasUsed":"0x12c","gasUsed":"0x6b411","l1Fee":"0x1a09f6380cb9fe0","l1FeeScalar":"1","l1GasPrice":"0x39ff1464e55c","l1GasUsed":"0x72f","logs":[{"address":"0x262255f4770aebe2d0c8b97a46287dcecc2a0aff","blockHash":"0x6e051cbdfbff1488dbe129e5832263d00857c2a7dd26b5d6e5ac4f55319bf763","blockNumber":"0xd0008f","data":"0x000000000000000000000000000000000000000000000000000000000000000000000000000000000000000000000000000000000000000000000000000000000000000000000000000000000000000000000000000000000000000000000000","logIndex":"0x0","removed":false,"topics":["0x0c396cd989a39f4459b5fa1aed6a9a8dcdbc45908acfd67e028cd568da98982c","0x0000000000000000000000001ee3ae551188661553882fdc75f8f62eaa6726ad","0x000000000000000000000000000000000000000000000000000000000004482c","0x00000000000000000000000000000000000000000000000000000000000469ce"],"transactionHash":"0xfdd360818960142f939ff640a7713c5285420214c37f84c6a6d37abc01a3074d","transactionIndex":"0x0"},{"address":"0x262255f4770aebe2d0c8b97a46287dcecc2a0aff","blockHash":"0x6e051cbdfbff1488dbe129e5832263d00857c2a7dd26b5d6e5ac4f55319bf763","blockNumber":"0xd0008f","data":"0x0000000000000000000000001ee3ae551188661553882fdc75f8f62eaa6726ad00000000000000000000000000000000000000000000000000000000000000000000000000000000000000000000000000000000000000000000000000000000","logIndex":"0x1","removed":false,"topics":["0x70935338e69775456a85ddef226c395fb668b63fa0115f5f20610b388e6ca9c0","0x0000000000000000000000001ee3ae551188661553882fdc75f8f62eaa6726ad","0x000000000000000000000000000000000000000000000000000000000004482c","0x00000000000000000000000000000000000000000000000000000000000469ce"],"transactionHash":"0xfdd360818960142f939ff640a7713c5285420214c37f84c6a6d37abc01a3074d","transactionIndex":"0x0"},{"address":"0x1ee3ae551188661553882fdc75f8f62eaa6726ad","blockHash":"0x6e051cbdfbff1488dbe129e5832263d00857c2a7dd26b5d6e5ac4f55319bf763","blockNumber":"0xd0008f","data":"0x000000000000000000000000000000000000000000000000000000000000000f00000000000000000000000000000000000000000000000000000000000000000000000000000000000000000000000000000000000000000000000000000000","logIndex":"0x2","removed":false,"topics":["0x4606b8a47eb284e8e80929101ece6ab5fe8d4f8735acc56bd0c92ca872f2cfe7"],"transactionHash":"0xfdd360818960142f939ff640a7713c5285420214c37f84c6a6d37abc01a3074d","transactionIndex":"0x0"},{"address":"0x262255f4770aebe2d0c8b97a46287dcecc2a0aff","blockHash":"0x6e051cbdfbff1488dbe129e5832263d00857c2a7dd26b5d6e5ac4f55319bf763","blockNumber":"0xd0008f","data":"0x000000000000000000000000000000000000000000000000000000000000000000000000000000000000000000000000000000000000000000000000000000000000000000000000000000000000000000000000000000000000000000000000","logIndex":"0x3","removed":false,"topics":["0x0c396cd989a39f4459b5fa1aed6a9a8dcdbc45908acfd67e028cd568da98982c","0x0000000000000000000000001ee3ae551188661553882fdc75f8f62eaa6726ad","0x000000000000000000000000000000000000000000000000000000000004482c","0x00000000000000000000000000000000000000000000000000000000000458ee"],"transactionHash":"0xfdd360818960142f939ff640a7713c5285420214c37f84c6a6d37abc01a3074d","transactionIndex":"0x0"},{"address":"0x262255f4770aebe2d0c8b97a46287dcecc2a0aff","blockHash":"0x6e051cbdfbff1488dbe129e5832263d00857c2a7dd26b5d6e5ac4f55319bf763","blockNumber":"0xd0008f","data":"0x0000000000000000000000001ee3ae551188661553882fdc75f8f62eaa6726ad00000000000000000000000000000000000000000000000000000000000000000000000000000000000000000000000000000000000000000000000000000000","logIndex":"0x4","removed":false,"topics":["0x70935338e69775456a85ddef226c395fb668b63fa0115f5f20610b388e6ca9c0","0x0000000000000000000000001ee3ae551188661553882fdc75f8f62eaa6726ad","0x000000000000000000000000000000000000000000000000000000000004482c","0x00000000000000000000000000000000000000000000000000000000000458ee"],"transactionHash":"0xfdd360818960142f939ff640a7713c5285420214c37f84c6a6d37abc01a3074d","transactionIndex":"0x0"},{"address":"0x1ee3ae551188661553882fdc75f8f62eaa6726ad","blockHash":"0x6e051cbdfbff1488dbe129e5832263d00857c2a7dd26b5d6e5ac4f55319bf763","blockNumber":"0xd0008f","data":"0x000000000000000000000000000000000000000000000000000000000000000f00000000000000000000000000000000000000000000000000000000000000000000000000000000000000000000000000000000000000000000000000000000","logIndex":"0x5","removed":false,"topics":["0x4606b8a47eb284e8e80929101ece6ab5fe8d4f8735acc56bd0c92ca872f2cfe7"],"transactionHash":"0xfdd360818960142f939ff640a7713c5285420214c37f84c6a6d37abc01a3074d","transactionIndex":"0x0"},{"address":"0x201eba5cc46d216ce6dc03f6a759e8e766e956ae","blockHash":"0x6e051cbdfbff1488dbe129e5832263d00857c2a7dd26b5d6e5ac4f55319bf763","blockNumber":"0xd0008f","data":"0x000000000000000000000000000000000000000000000000000000000000002b","logIndex":"0x6","removed":false,"topics":["0xddf252ad1be2c89b69c2b068fc378daa952ba7f163c4a11628f55a4df523b3ef","0x000000000000000000000000ccce0cad424893aa8756e4d28fce3dd03d9615de","0x0000000000000000000000001ee3ae551188661553882fdc75f8f62eaa6726ad"],"transactionHash":"0xfdd360818960142f939ff640a7713c5285420214c37f84c6a6d37abc01a3074d","transactionIndex":"0x0"},{"address":"0x201eba5cc46d216ce6dc03f6a759e8e766e956ae","blockHash":"0x6e051cbdfbff1488dbe129e5832263d00857c2a7dd26b5d6e5ac4f55319bf763","blockNumber":"0xd0008f","data":"0xffffffffffffffffffffffffffffffffffffffffffffffffffffffffffd3fd7b","logIndex":"0x7","removed":false,"topics":["0x8c5be1e5ebec7d5bd14f71427d1e84f3dd0314c0f7b2291e5b200ac8c7c3b925","0x000000000000000000000000ccce0cad424893aa8756e4d28fce3dd03d9615de","0x0000000000000000000000001ee3ae551188661553882fdc75f8f62eaa6726ad"],"transactionHash":"0xfdd360818960142f939ff640a7713c5285420214c37f84c6a6d37abc01a3074d","transactionIndex":"0x0"},{"address":"0x78c1b0c915c4faa5fffa6cabf0219da63d7f4cb8","blockHash":"0x6e051cbdfbff1488dbe129e5832263d00857c2a7dd26b5d6e5ac4f55319bf763","blockNumber":"0xd0008f","data":"0x0000000000000000000000000000000000000000000000000000b5e620f48000","logIndex":"0x8","removed":false,"topics":["0xddf252ad1be2c89b69c2b068fc378daa952ba7f163c4a11628f55a4df523b3ef","0x000000000000000000000000ccce0cad424893aa8756e4d28fce3dd03d9615de","0x0000000000000000000000001ee3ae551188661553882fdc75f8f62eaa6726ad"],"transactionHash":"0xfdd360818960142f939ff640a7713c5285420214c37f84c6a6d37abc01a3074d","transactionIndex":"0x0"},{"address":"0x78c1b0c915c4faa5fffa6cabf0219da63d7f4cb8","blockHash":"0x6e051cbdfbff1488dbe129e5832263d00857c2a7dd26b5d6e5ac4f55319bf763","blockNumber":"0xd0008f","data":"0xffffffffffffffffffffffffffffffffffffffffffffffff7462fd66b69d7fff","logIndex":"0x9","removed":false,"topics":["0x8c5be1e5ebec7d5bd14f71427d1e84f3dd0314c0f7b2291e5b200ac8c7c3b925","0x000000000000000000000000ccce0cad424893aa8756e4d28fce3dd03d9615de","0x0000000000000000000000001ee3ae551188661553882fdc75f8f62eaa6726ad"],"transactionHash":"0xfdd360818960142f939ff640a7713c5285420214c37f84c6a6d37abc01a3074d","transactionIndex":"0x0"},{"address":"0x201eba5cc46d216ce6dc03f6a759e8e766e956ae","blockHash":"0x6e051cbdfbff1488dbe129e5832263d00857c2a7dd26b5d6e5ac4f55319bf763","blockNumber":"0xd0008f","data":"0x000000000000000000000000000000000000000000000000000000000000002c","logIndex":"0xa","removed":false,"topics":["0xddf252ad1be2c89b69c2b068fc378daa952ba7f163c4a11628f55a4df523b3ef","0x0000000000000000000000001ee3ae551188661553882fdc75f8f62eaa6726ad","0x000000000000000000000000262255f4770aebe2d0c8b97a46287dcecc2a0aff"],"transactionHash":"0xfdd360818960142f939ff640a7713c5285420214c37f84c6a6d37abc01a3074d","transactionIndex":"0x0"},{"address":"0x78c1b0c915c4faa5fffa6cabf0219da63d7f4cb8","blockHash":"0x6e051cbdfbff1488dbe129e5832263d00857c2a7dd26b5d6e5ac4f55319bf763","blockNumber":"0xd0008f","data":"0x0000000000000000000000000000000000000000000000000000b5e620f4abcb","logIndex":"0xb","removed":false,"topics":["0xddf252ad1be2c89b69c2b068fc378daa952ba7f163c4a11628f55a4df523b3ef","0x0000000000000000000000001ee3ae551188661553882fdc75f8f62eaa6726ad","0x000000000000000000000000262255f4770aebe2d0c8b97a46287dcecc2a0aff"],"transactionHash":"0xfdd360818960142f939ff640a7713c5285420214c37f84c6a6d37abc01a3074d","transactionIndex":"0x0"},{"address":"0x262255f4770aebe2d0c8b97a46287dcecc2a0aff","blockHash":"0x6e051cbdfbff1488dbe129e5832263d00857c2a7dd26b5d6e5ac4f55319bf763","blockNumber":"0xd0008f","data":"0x0000000000000000000000001ee3ae551188661553882fdc75f8f62eaa6726ad000000000000000000000000000000000000000000000000000000001dffb249000000000000000000000000000000000000000000000000000000000000002c0000000000000000000000000000000000000000000000000000b5e620f4abcb","logIndex":"0xc","removed":false,"topics":["0x7a53080ba414158be7ec69b987b5fb7d07dee101fe85488f0853ae16239d0bde","0x0000000000000000000000001ee3ae551188661553882fdc75f8f62eaa6726ad","0x000000000000000000000000000000000000000000000000000000000004482c","0x00000000000000000000000000000000000000000000000000000000000469ce"],"transactionHash":"0xfdd360818960142f939ff640a7713c5285420214c37f84c6a6d37abc01a3074d","transactionIndex":"0x0"},{"address":"0x1ee3ae551188661553882fdc75f8f62eaa6726ad","blockHash":"0x6e051cbdfbff1488dbe129e5832263d00857c2a7dd26b5d6e5ac4f55319bf763","blockNumber":"0xd0008f","data":"0x00000000000000000000000000000000000000000000000000010e3109767d17","logIndex":"0xd","removed":false,"topics":["0xddf252ad1be2c89b69c2b068fc378daa952ba7f163c4a11628f55a4df523b3ef","0x0000000000000000000000000000000000000000000000000000000000000000","0x000000000000000000000000ccce0cad424893aa8756e4d28fce3dd03d9615de"],"transactionHash":"0xfdd360818960142f939ff640a7713c5285420214c37f84c6a6d37abc01a3074d","transactionIndex":"0x0"},{"address":"0x1ee3ae551188661553882fdc75f8f62eaa6726ad","blockHash":"0x6e051cbdfbff1488dbe129e5832263d00857c2a7dd26b5d6e5ac4f55319bf763","blockNumber":"0xd0008f","data":"0x00000000000000000000000000000000000000000000000000010e3109767d17000000000000000000000000000000000000000000000000000000000000002b0000000000000000000000000000000000000000000000000000b5e620f48000","logIndex":"0xe","removed":false,"topics":["0x4e2ca0515ed1aef1395f66b5303bb5d6f1bf9d61a353fa53f73f8ac9973fa9f6","0x000000000000000000000000ccce0cad424893aa8756e4d28fce3dd03d9615de","0x000000000000000000000000ccce0cad424893aa8756e4d28fce3dd03d9615de"],"transactionHash":"0xfdd360818960142f939ff640a7713c5285420214c37f84c6a6d37abc01a3074d","transactionIndex":"0x0"}],"logsBloom":"0x000400002000100000001000420000000000000000010000000000000000000000000000000000000000004000000000000000000001000002000800002000001000000000000000000000080000000000000080000420000000000000004004000000000200000200000000000108000000000000040000000000100000000000100001080000000040000000000000001080000400000000040000000000000200000000000020000000000000000000002000000000000000000000000000000200020000000000000830000000000000000000000000000000000000204000100a0000040010000000004000000000000008000000080000002000004000","status":"0x1","transactionHash":"0xfdd360818960142f939ff640a7713c5285420214c37f84c6a6d37abc01a3074d"}}}