{"block":{"difficulty":"0x2","extraData":"0xd98301090a846765746889676f312e31352e3133856c696e757800000000000031f0db43e3d29e351c39e0f9549fcdd58c4677b0ce4c265a48be9a52ef125ace0cbb1dfe1639d55f8b3c45ec241ae8de1e94884b7d685939179ad2fdecbd5cc801","gasLimit":"0x1c9c380","gasUsed":"0x2395b","hash":"0xe012f3151b95e460f8ebbd4012992accbc36788c793e389db6a262b8e4395df7","logsBloom":"0x00000000000000000000000000000000000000000001001000000000000000000800000000000000000000000002000000000000000000000000000000200000040000002040000000000408000000000000008000002000000000000000000000000000000000000000000100000000000000000000000000000010000000000000000000000000000000000100040000020000000000000000000040000000020000000000000000000000000000000000000000000000004100000000000000000002000000000000000000000000000000000100000000000000000000000010000000001000000000000000004000000000000000000000001000000000","miner":"0x0000000000000000000000000000000000000000","mixHash":"0x0000000000000000000000000000000000000000000000000000000000000000","nonce":"0x0000000000000000","number":"0xd00347","parentHash":"0xd10976b54d56dfd55f1e67fdb206aa45a7948aa4b71a3e6561a14c83d226168b","receiptsRoot":"0xb9758163e754fc451656835517165a98da5bb2afdb11ec8bfe04608cd02c1e5b","sha3Uncles":"0x1dcc4de8dec75d7aab85b567b6ccd41ad312451b948a7413f0a142fd40d49347","size":"0x3d8","stateRoot":"0x9cbfa2a622e6c28e170b7909dfb52a2a3c0b765b5185126dc3b92e541658d20f","timestamp":"0x65243e70","totalDifficulty":"0x1a0068f","transactions":[{"blockHash":"0xe012f3151b95e460f8ebbd4012992accbc36788c793e389db6a262b8e4395df7","blockNumber":"0xd00347","from":"0x2e014fe4f0268725bd3d66f1adec0c469b0f5875","gas":"0x2525f","gasPrice":"0x2faf080","hash":"0x49314438981b2c78ca0b9bfc95becf130c06c3413b73bb34f2827ad043cda7d2","index":"0xd00346","input":"0x414bf389000000000000000000000000201eba5cc46d216ce6dc03f6a759e8e766e956ae000000000000000000000000deaddeaddeaddeaddeaddeaddeaddeaddead111100000000000000000000000000000000000000000000000000000000000001f40000000000000000000000002e014fe4f0268725bd3d66f1adec0c469b0f58750000000000000000000000000000000000000000000000000000000065243e9000000000000000000000000000000000000000000000000000000000001053b000000000000000000000000000000000000000000000000000025bb9f188f8f70000000000000000000000000000000000000000000000000000000000000000","l1BlockNumber":"0x11774e7","l1Timestamp":"0x65243e70","l1TxOrigin":null,"nonce":"0x825","queueIndex":null,"queueOrigin":"sequencer","r":"0x6fd4cc9fa48a09a3f0361486fcd06c5c094b237908ebef48f035e8b3a35b5122","rawTransaction":"0xf9016e8208258402faf0808302525f945989fb161568b9f133edf5cf6787f5597762797f80b90104414bf389000000000000000000000000201eba5cc46d216ce6dc03f6a759e8e766e956ae000000000000000000000000deaddeaddeaddeaddeaddeaddeaddeaddead111100000000000000000000000000000000000000000000000000000000000001f40000000000000000000000002e014fe4f0268725bd3d66f1adec0c469b0f58750000000000000000000000000000000000000000000000000000000065243e9000000000000000000000000000000000000000000000000000000000001053b000000000000000000000000000000000000000000000000000025bb9f188f8f70000000000000000000000000000000000000000000000000000000000000000822734a06fd4cc9fa48a09a3f0361486fcd06c5c094b237908ebef48f035e8b3a35b5122a058a5def94061313940cbcc9fedb7b29a23b12818aaac741d74c31dce1e5d3462","s":"0x58a5def94061313940cbcc9fedb7b29a23b12818aaac741d74c31dce1e5d3462","to":"0x5989fb161568b9f133edf5cf6787f5597762797f","transactionIndex":"0x0","v":"0x2734","value":"0x0"}],"transactionsRoot":"0x21a8d43a6fc4e589f2eb00aaa9cb06599b3c082041355575af9d64032269ca07","uncles":[]},"receipts":{"0x49314438981b2c78ca0b9bfc95becf130c06c3413b73bb34f2827ad043cda7d2":{"blockHash":"0xe012f3151b95e460f8ebbd4012992accbc36788c793e389db6a262b8e4395df7","blockNumber":"0xd00347","from":"0x2e014fe4f0268725bd3d66f1adec0c469b0f5875","gas":"0x2525f","gasPrice":"0x2faf080","hash":"0x49314438981b2c78ca0b9bfc95becf130c06c3413b73bb34f2827ad043cda7d2","index":"0xd00346","input":"0x414bf389000000000000000000000000201eba5cc46d216ce6dc03f6a759e8e766e956ae000000000000000000000000deaddeaddeaddeaddeaddeaddeaddeaddead111100000000000000000000000000000000000000000000000000000000000001f40000000000000000000000002e014fe4f0268725bd3d66f1adec0c469b0f58750000000000000000000000000000000000000000000000000000000065243e9000000000000000000000000000000000000000000000000000000000001053b000000000000000000000000000000000000000000000000000025bb9f188f8f70000000000000000000000000000000000000000000000000000000000000000","l1BlockNumber":"0x11774e7","l1Timestamp":"0x65243e70","l1TxOrigin":null,"nonce":"0x825","queueIndex":null,"queueOrigin":"sequencer","r":"0x6fd4cc9fa48a09a3f0361486fcd06c5c094b237908ebef48f035e8b3a35b5122","rawTransaction":"0xf9016e8208258402faf0808302525f945989fb161568b9f133edf5cf6787f5597762797f80b90104414bf389000000000000000000000000201eba5cc46d216ce6dc03f6a759e8e766e956ae000000000000000000000000deaddeaddeaddeaddeaddeaddeaddeaddead111100000000000000000000000000000000000000000000000000000000000001f40000000000000000000000002e014fe4f0268725bd3d66f1adec0c469b0f58750000000000000000000000000000000000000000000000000000000065243e9000000000000000000000000000000000000000000000000000000000001053b000000000000000000000000000000000000000000000000000025bb9f188f8f70000000000000000000000000000000000000000000000000000000000000000822734a06fd4cc9fa48a09a3f0361486fcd06c5c094b237908ebef48f035e8b3a35b5122a058a5def94061313940cbcc9fedb7b29a23b12818aaac741d74c31dce1e5d3462","s":"0x58a5def94061313940cbcc9fedb7b29a23b12818aaac741d74c31dce1e5d3462","to":"0x5989fb161568b9f133edf5cf6787f5597762797f","transactionIndex":"0x0","v":"0x2734","value":"0x0","contractAddress":null,"cumulativeGasUsed":"0x2395b","daFee":"0x0","daGasPrice":"0x0","daGasUsed":"0x12c","gasUsed":"0x2395b","l1Fee":"0x19709d787180660","l1FeeScalar":"1","l1GasPrice":"0x38a987f04864","l1GasUsed":"0x72f","logs":[{"address":"0xdeaddeaddeaddeaddeaddeaddeaddeaddead1111","blockHash":"0xe012f3151b95e460f8ebbd4012992accbc36788c793e389db6a262b8e4395df7","blockNumber":"0xd00347","data":"0x0000000000000000000000000000000000000000000000000002680c1b0927d8","logIndex":"0x0","removed":false,"topics":["0xddf252ad1be2c89b69c2b068fc378daa952ba7f163c4a11628f55a4df523b3ef","0x000000000000000000000000a125af1a4704044501fe12ca9567ef1550e430e8","0x0000000000000000000000002e014fe4f0268725bd3d66f1adec0c469b0f5875"],"transactionHash":"0x49314438981b2c78ca0b9bfc95becf130c06c3413b73bb34f2827ad043cda7d2","transactionIndex":"0x0"},{"address":"0x201eba5cc46d216ce6dc03f6a759e8e766e956ae","blockHash":"0xe012f3151b95e460f8ebbd4012992accbc36788c793e389db6a262b8e4395df7","blockNumber":"0xd00347","data":"0x00000000000000000000000000000000000000000000000000000000001053b0","logIndex":"0x1","removed":false,"topics":["0xddf252ad1be2c89b69c2b068fc378daa952ba7f163c4a11628f55a4df523b3ef","0x0000000000000000000000002e014fe4f0268725bd3d66f1adec0c469b0f5875","0x000000000000000000000000a125af1a4704044501fe12ca9567ef1550e430e8"],"transactionHash":"0x49314438981b2c78ca0b9bfc95becf130c06c3413b73bb34f2827ad043cda7d2","transactionIndex":"0x0"},{"address":"0x201eba5cc46d216ce6dc03f6a759e8e766e956ae","blockHash":"0xe012f3151b95e460f8ebbd4012992accbc36788c793e389db6a262b8e4395df7","blockNumber":"0xd00347","data":"0xfffffffffffffffffffffffffffffffffffffffffffffffffffffffffac46e4f","logIndex":"0x2","removed":false,"topics":["0x8c5be1e5ebec7d5bd14f71427d1e84f3dd0314c0f7b2291e5b200ac8c7c3b925","0x0000000000000000000000002e014fe4f0268725bd3d66f1adec0c469b0f5875","0x0000000000000000000000005989fb161568b9f133edf5cf6787f5597762797f"],"transactionHash":"0x49314438981b2c78ca0b9bfc95becf130c06c3413b73bb34f2827ad043cda7d2","transactionIndex":"0x0"},{"address":"0xa125af1a4704044501fe12ca9567ef1550e430e8","blockHash":"0xe012f3151b95e460f8ebbd4012992accbc36788c793e389db6a262b8e4395df7","blockNumber":"0xd00347","data":"0x00000000000000000000000000000000000000000000000000000000001053b0fffffffffffffffffffffffffffffffffffffffffffffffffffd97f3e4f6d828000000000000000000000000000000000000624e8ab8bf3c0cbbc4b9fad6475600000000000000000000000000000000000000000000000000c2e26bdb75966500000000000000000000000000000000000000000000000000000000000317b300000000000000000000000000000000000000000000000000000000000000b50000000000000000000000000000000000000000000000000000000000000000","logIndex":"0x3","removed":false,"topics":["0x19b47279256b2a23a1665c810c8d55a1758940ee09377d4f8d26497a3577dc83","0x0000000000000000000000005989fb161568b9f133edf5cf6787f5597762797f","0x0000000000000000000000002e014fe4f0268725bd3d66f1adec0c469b0f5875"],"transactionHash":"0x49314438981b2c78ca0b9bfc95becf130c06c3413b73bb34f2827ad043cda7d2","transactionIndex":"0x0"}],"logsBloom":"0x00000000000000000000000000000000000000000001001000000000000000000800000000000000000000000002000000000000000000000000000000200000040000002040000000000408000000000000008000002000000000000000000000000000000000000000000100000000000000000000000000000010000000000000000000000000000000000100040000020000000000000000000040000000020000000000000000000000000000000000000000000000004100000000000000000002000000000000000000000000000000000100000000000000000000000010000000001000000000000000004000000000000000000000001000000000","status":"0x1","transactionHash":"0x49314438981b2c78ca0b9bfc95becf130c06c3413b73bb34f2827ad043cda7d2"}}}