{"block":{"difficulty":"0x2","extraData":"0xd98301090a846765746889676f312e31352e3133856c696e75780000000000006c6a860b94ef751da800448b4859e83435d603fd28b1f703b217c49f2900f804477f6fc5bad7c2f2658d2c3082c7ff41f1ed54d96998f9274ee7823060b64d3300","gasLimit":"0x1c9c380","gasUsed":"0x1c79b","hash":"0xae62067d7523602d755e2159de04afa8281aed4bbaf5b2714dd4ea78039e61d7","logsBloom":"0x000000000000000000000000000000000000000000010088000000000000000000040000000000000000000000020000000000000000000000000000002000001c0000000040000000000008000000000000008000042000000200000000000000000000000000000000000000000080000000000000000000000010000000000000000000000000000000000000000000100000000000000000000000000040020000000000000000000000000200000000000001000000000000000000000400000002000000000000000000000000000000000000000000000010000000000010000000000000000000000000000000000000000000000000000000000000","miner":"0x0000000000000000000000000000000000000000","mixHash":"0x0000000000000000000000000000000000000000000000000000000000000000","nonce":"0x0000000000000000","number":"0xd00360","parentHash":"0xe6a8bba2bae2d12a104d401472adbec662f39bd3053571af33d193babfd5d75b","receiptsRoot":"0x4bdf1c35efec56e1d045e7a579a6ef9de30a0d5f543139ff3081c70fbdc2fe82","sha3Uncles":"0x1dcc4de8dec75d7aab85b567b6ccd41ad312451b948a7413f0a142fd40d49347","size":"0x3d8","stateRoot":"0xf81fee8b4f52d45433e28a5f7d9706e3808484ec18c4957dc1f19b3f26414629","timestamp":"0x65243e80","totalDifficulty":"0x1a006c1","transactions":[{"blockHash":"0xae62067d7523602d755e2159de04afa8281aed4bbaf5b2714dd4ea78039e61d7","blockNumber":"0xd00360","from":"0x612f86125c2daa3136b157fa044552f9009b86dd","gas":"0x1dec2","gasPrice":"0x2faf080","hash":"0x740f76545a43bea486bc0935c1599c3167fdd216c54f4fcab6fd112062207ba4","index":"0xd0035f","input":"0x414bf38900000000000000000000000078c1b0c915c4faa5fffa6cabf0219da63d7f4cb8000000000000000000000000201eba5cc46d216ce6dc03f6a759e8e766e956ae00000000000000000000000000000000000000000000000000000000000001f4000000000000000000000000612f86125c2daa3136b157fa044552f9009b86dd0000000000000000000000000000000000000000000000000000000065243e9e00000000000000000000000000000000000000000000000015ed49a0f91e0000000000000000000000000000000000000000000000000000000000000008d4450000000000000000000000000000000000000000000000000000000000000000","l1BlockNumber":"0x11774e8","l1Timestamp":"0x65243e80","l1TxOrigin":null,"nonce":"0x11bc","queueIndex":null,"queueOrigin":"sequencer","r":"0x7eb74c06a2da4b9a671ed7aaeffc4e816f36edafd12159d814391eda7105bb4c","rawTransaction":"0xf9016e8211bc8402faf0808301dec294319b69888b0d11cec22caa5034e25fffbdc8842180b90104414bf38900000000000000000000000078c1b0c915c4faa5fffa6cabf0219da63d7f4cb8000000000000000000000000201eba5cc46d216ce6dc03f6a759e8e766e956ae00000000000000000000000000000000000000000000000000000000000001f4000000000000000000000000612f86125c2daa3136b157fa044552f9009b86dd0000000000000000000000000000000000000000000000000000000065243e9e00000000000000000000000000000000000000000000000015ed49a0f91e0000000000000000000000000000000000000000000000000000000000000008d4450000000000000000000000000000000000000000000000000000000000000000822733a07eb74c06a2da4b9a671ed7aaeffc4e816f36edafd12159d814391eda7105bb4ca0604b2b161388340f64f1e0066ede9e28f7ba7d40d080447508729418cea0d5fd","s":"0x604b2b161388340f64f1e0066ede9e28f7ba7d40d080447508729418cea0d5fd","to":"0x319b69888b0d11cec22caa5034e25fffbdc88421","transactionIndex":"0x0","v":"0x2733","value":"0x0"}],"transactionsRoot":"0x29defbe00582c37e94846153bd3191de23c7fc2c1bbca7b1d994387efe946114","uncles":[]},"receipts":{"0x740f76545a43bea486bc0935c1599c3167fdd216c54f4fcab6fd112062207ba4":{"blockHash":"0xae62067d7523602d755e2159de04afa8281aed4bbaf5b2714dd4ea78039e61d7","blockNumber":"0xd00360","from":"0x612f86125c2daa3136b157fa044552f9009b86dd","gas":"0x1dec2","gasPrice":"0x2faf080","hash":"0x740f76545a43bea486bc0935c1599c3167fdd216c54f4fcab6fd112062207ba4","index":"0xd0035f","input":"0x414bf38900000000000000000000000078c1b0c915c4faa5fffa6cabf0219da63d7f4cb8000000000000000000000000201eba5cc46d216ce6dc03f6a759e8e766e956ae00000000000000000000000000000000000000000000000000000000000001f4000000000000000000000000612f86125c2daa3136b157fa044552f9009b86dd0000000000000000000000000000000000000000000000000000000065243e9e00000000000000000000000000000000000000000000000015ed49a0f91e0000000000000000000000000000000000000000000000000000000000000008d4450000000000000000000000000000000000000000000000000000000000000000","l1BlockNumber":"0x11774e8","l1Timestamp":"0x65243e80","l1TxOrigin":null,"nonce":"0x11bc","queueIndex":null,"queueOrigin":"sequencer","r":"0x7eb74c06a2da4b9a671ed7aaeffc4e816f36edafd12159d814391eda7105bb4c","rawTransaction":"0xf9016e8211bc8402faf0808301dec294319b69888b0d11cec22caa5034e25fffbdc8842180b90104414bf38900000000000000000000000078c1b0c915c4faa5fffa6cabf0219da63d7f4cb8000000000000000000000000201eba5cc46d216ce6dc03f6a759e8e766e956ae00000000000000000000000000000000000000000000000000000000000001f4000000000000000000000000612f86125c2daa3136b157fa044552f9009b86dd0000000000000000000000000000000000000000000000000000000065243e9e00000000000000000000000000000000000000000000000015ed49a0f91e0000000000000000000000000000000000000000000000000000000000000008d4450000000000000000000000000000000000000000000000000000000000000000822733a07eb74c06a2da4b9a671ed7aaeffc4e816f36edafd12159d814391eda7105bb4ca0604b2b161388340f64f1e0066ede9e28f7ba7d40d080447508729418cea0d5fd","s":"0x604b2b161388340f64f1e0066ede9e28f7ba7d40d080447508729418cea0d5fd","to":"0x319b69888b0d11cec22caa5034e25fffbdc88421","transactionIndex":"0x0","v":"0x2733","value":"0x0","contractAddress":null,"cumulativeGasUsed":"0x1c79b","daFee":"0x0","daGasPrice":"0x0","daGasUsed":"0x12c","gasUsed":"0x1c79b","l1Fee":"0x19709d787180660","l1FeeScalar":"1","l1GasPrice":"0x38a987f04864","l1GasUsed":"0x72f","logs":[{"address":"0x201eba5cc46d216ce6dc03f6a759e8e766e956ae","blockHash":"0xae62067d7523602d755e2159de04afa8281aed4bbaf5b2714dd4ea78039e61d7","blockNumber":"0xd00360","data":"0x0000000000000000000000000000000000000000000000000000000000090266","logIndex":"0x0","removed":false,"topics":["0xddf252ad1be2c89b69c2b068fc378daa952ba7f163c4a11628f55a4df523b3ef","0x000000000000000000000000d08c50f7e69e9aeb2867deff4a8053d9a855e26a","0x000000000000000000000000612f86125c2daa3136b157fa044552f9009b86dd"],"transactionHash":"0x740f76545a43bea486bc0935c1599c3167fdd216c54f4fcab6fd112062207ba4","transactionIndex":"0x0"},{"address":"0x78c1b0c915c4faa5fffa6cabf0219da63d7f4cb8","blockHash":"0xae62067d7523602d755e2159de04afa8281aed4bbaf5b2714dd4ea78039e61d7","blockNumber":"0xd00360","data":"0x00000000000000000000000000000000000000000000000015ed49a0f91e0000","logIndex":"0x1","removed":false,"topics":["0xddf252ad1be2c89b69c2b068fc378daa952ba7f163c4a11628f55a4df523b3ef","0x000000000000000000000000612f86125c2daa3136b157fa044552f9009b86dd","0x000000000000000000000000d08c50f7e69e9aeb2867deff4a8053d9a855e26a"],"transactionHash":"0x740f76545a43bea486bc0935c1599c3167fdd216c54f4fcab6fd112062207ba4","transactionIndex":"0x0"},{"address":"0x78c1b0c915c4faa5fffa6cabf0219da63d7f4cb8","blockHash":"0xae62067d7523602d755e2159de04afa8281aed4bbaf5b2714dd4ea78039e61d7","blockNumber":"0xd00360","data":"0xffffffffffffffffffffffffffffffffffffffffffffffae7fdb3375e639ffff","logIndex":"0x2","removed":false,"topics":["0x8c5be1e5ebec7d5bd14f71427d1e84f3dd0314c0f7b2291e5b200ac8c7c3b925","0x000000000000000000000000612f86125c2daa3136b157fa044552f9009b86dd","0x000000000000000000000000319b69888b0d11cec22caa5034e25fffbdc88421"],"transactionHash":"0x740f76545a43bea486bc0935c1599c3167fdd216c54f4fcab6fd112062207ba4","transactionIndex":"0x0"},{"address":"0xd08c50f7e69e9aeb2867deff4a8053d9a855e26a","blockHash":"0xae62067d7523602d755e2159de04afa8281aed4bbaf5b2714dd4ea78039e61d7","blockNumber":"0xd00360","data":"0xfffffffffffffffffffffffffffffffffffffffffffffffffffffffffff6fd9a00000000000000000000000000000000000000000000000015ed49a0f91e0000000000000000000000000000000000000018f4836ca03aeb5d64cb3c0abdcb07000000000000000000000000000000000000000000000000006787d5d3ab8a8c0000000000000000000000000000000000000000000000000000000000045dd200000000000000000000000000000000000000000000000000000000000000000000000000000000000000000000000000000000000000000000f44a4f963000","logIndex":"0x3","removed":false,"topics":["0x19b47279256b2a23a1665c810c8d55a1758940ee09377d4f8d26497a3577dc83","0x000000000000000000000000319b69888b0d11cec22caa5034e25fffbdc88421","0x000000000000000000000000612f86125c2daa3136b157fa044552f9009b86dd"],"transactionHash":"0x740f76545a43bea486bc0935c1599c3167fdd216c54f4fcab6fd112062207ba4","transactionIndex":"0x0"}],"logsBloom":"0x000000000000000000000000000000000000000000010088000000000000000000040000000000000000000000020000000000000000000000000000002000001c0000000040000000000008000000000000008000042000000200000000000000000000000000000000000000000080000000000000000000000010000000000000000000000000000000000000000000100000000000000000000000000040020000000000000000000000000200000000000001000000000000000000000400000002000000000000000000000000000000000000000000000010000000000010000000000000000000000000000000000000000000000000000000000000","status":"0x1","transactionHash":"0x740f76545a43bea486bc0935c1599c3167fdd216c54f4fcab6fd112062207ba4"}}}