{"block":{"difficulty":"0x2","extraData":"0xd98301090a846765746889676f312e31352e3133856c696e75780000000000003a34d515ec4a78f3902f792b161f34a3cd97b706d8b340f3b2cddcb229aeaac826d95c5c844b2a64da2d1fd6b12c8704762004bbf10e28ec6a43f7aa122e261f01","gasLimit":"0x1c9c380","gasUsed":"0x6e6b6","hash":"0x949d7276f408fcd45645824da81961515aaf0e634a76255919383b5d61b73972","logsBloom":"0x00000000000000000000100000000000000000000000000000000000000000000000000000000000000004000000000000000000400000000400000000200000100008000000000000000008000000000000000010040000200480108000000000000400020000800000000100000800000000000800000000000010000000000000080008000000200000080000000000100001000000000002000000000000020000004008000000000000000000000000000000000000000110800000000000000002000000000000280000000000800000000000000000000040000020000010000000001000000000000000000000000000400000400000000040000800","miner":"0x0000000000000000000000000000000000000000","mixHash":"0x0000000000000000000000000000000000000000000000000000000000000000","nonce":"0x0000000000000000","number":"0xd0024a","parentHash":"0xda23c3d34256f1d3105e7ee10355c707c5a6202679442fb0184cc20cc0fcfb10","receiptsRoot":"0x61e9f2e7e8d2f4b46ab64f0cb6eff1fd42ceb7b636fcd534ad6b79b18668cd5c","sha3Uncles":"0x1dcc4de8dec75d7aab85b567b6ccd41ad312451b948a7413f0a142fd40d49347","size":"0x53e","stateRoot":"0xa12c55a4499aa95021ef7ecd17e3571b33072526ce6211cbb5e14e47f4fc4911","timestamp":"0x65243df2","totalDifficulty":"0x1a00495","transactions":[{"blockHash":"0x949d7276f408fcd45645824da81961515aaf0e634a76255919383b5d61b73972","blockNumber":"0xd0024a","from":"0x5f3291147af755f4b13408dabbbeaa86ef007039","gas":"0xafb5b","gasPrice":"0x2faf080","hash":"0x26d4c612b4ff0eb23432592b2986043903d0752f89fe22fb7564f45fe9e37f92","index":"0xd00249","input":"0xac9650d800000000000000000000000000000000000000000000000000000000000000200000000000000000000000000000000000000000000000000000000000000002000000000000000000000000000000000000000000000000000000000000004000000000000000000000000000000000000000000000000000000000000001e000000000000000000000000000000000000000000000000000000000000001648831645600000000000000000000000078c1b0c915c4faa5fffa6cabf0219da63d7f4cb8000000000000000000000000deaddeaddeaddeaddeaddeaddeaddeaddead111100000000000000000000000000000000000000000000000000000000000009c4fffffffffffffffffffffffffffffffffffffffffffffffffffffffffffea390fffffffffffffffffffffffffffffffffffffffffffffffffffffffffffed3ce000000000000000000000000000000000000000000000000425f4e657105b03500000000000000000000000000000000000000000000000000038d7ea4c68000000000000000000000000000000000000000000000000000413457e82c16245c00000000000000000000000000000000000000000000000000037b2c1a9077e50000000000000000000000005f3291147af755f4b13408dabbbeaa86ef007039000000000000000000000000000000000000000000000000000000006524429100000000000000000000000000000000000000000000000000000000000000000000000000000000000000000000000000000000000000000000000463f5daa500000000000000000000000000000000000000000000000000000000","l1BlockNumber":"0x11774dd","l1Timestamp":"0x65243df2","l1TxOrigin":null,"nonce":"0x6","queueIndex":null,"queueOrigin":"sequencer","r":"0x8d514f44357d15fccca073b74fba74f893fe11f756b56bd82769f9183adee430","rawTransaction":"0xf902d4068402faf080830afb5b94218bf598d1453383e2f4aa7b14ffb9bfb102d63788425f4e657105b035b90264ac9650d800000000000000000000000000000000000000000000000000000000000000200000000000000000000000000000000000000000000000000000000000000002000000000000000000000000000000000000000000000000000000000000004000000000000000000000000000000000000000000000000000000000000001e000000000000000000000000000000000000000000000000000000000000001648831645600000000000000000000000078c1b0c915c4faa5fffa6cabf0219da63d7f4cb8000000000000000000000000deaddeaddeaddeaddeaddeaddeaddeaddead111100000000000000000000000000000000000000000000000000000000000009c4fffffffffffffffffffffffffffffffffffffffffffffffffffffffffffea390fffffffffffffffffffffffffffffffffffffffffffffffffffffffffffed3ce000000000000000000000000000000000000000000000000425f4e657105b03500000000000000000000000000000000000000000000000000038d7ea4c68000000000000000000000000000000000000000000000000000413457e82c16245c00000000000000000000000000000000000000000000000000037b2c1a9077e50000000000000000000000005f3291147af755f4b13408dabbbeaa86ef007039000000000000000000000000000000000000000000000000000000006524429100000000000000000000000000000000000000000000000000000000000000000000000000000000000000000000000000000000000000000000000463f5daa500000000000000000000000000000000000000000000000000000000822734a08d514f44357d15fccca073b74fba74f893fe11f756b56bd82769f9183adee430a00ab6518fe0cdc08ad9cecce7e692b26d491eec480e72bb3f621d19b8bd43d4a9","s":"0xab6518fe0cdc08ad9cecce7e692b26d491eec480e72bb3f621d19b8bd43d4a9","to":"0x218bf598d1453383e2f4aa7b14ffb9bfb102d637","transactionIndex":"0x0","v":"0x2734","value":"0x425f4e657105b035"}],"transactionsRoot":"0xfb4282ee589dcf2117e84f8139c80f9e520ca2e3c31aae67ed0444dc6386f4e3","uncles":[]},"receipts":{"0x26d4c612b4ff0eb23432592b2986043903d0752f89fe22fb7564f45fe9e37f92":{"blockHash":"0x949d7276f408fcd45645824da81961515aaf0e634a76255919383b5d61b73972","blockNumber":"0xd0024a","from":"0x5f3291147af755f4b13408dabbbeaa86ef007039","gas":"0xafb5b","gasPrice":"0x2faf080","hash":"0x26d4c612b4ff0eb23432592b2986043903d0752f89fe22fb7564f45fe9e37f92","index":"0xd00249","input":"0xac9650d800000000000000000000000000000000000000000000000000000000000000200000000000000000000000000000000000000000000000000000000000000002000000000000000000000000000000000000000000000000000000000000004000000000000000000000000000000000000000000000000000000000000001e000000000000000000000000000000000000000000000000000000000000001648831645600000000000000000000000078c1b0c915c4faa5fffa6cabf0219da63d7f4cb8000000000000000000000000deaddeaddeaddeaddeaddeaddeaddeaddead111100000000000000000000000000000000000000000000000000000000000009c4fffffffffffffffffffffffffffffffffffffffffffffffffffffffffffea390fffffffffffffffffffffffffffffffffffffffffffffffffffffffffffed3ce000000000000000000000000000000000000000000000000425f4e657105b03500000000000000000000000000000000000000000000000000038d7ea4c68000000000000000000000000000000000000000000000000000413457e82c16245c00000000000000000000000000000000000000000000000000037b2c1a9077e50000000000000000000000005f3291147af755f4b13408dabbbeaa86ef007039000000000000000000000000000000000000000000000000000000006524429100000000000000000000000000000000000000000000000000000000000000000000000000000000000000000000000000000000000000000000000463f5daa500000000000000000000000000000000000000000000000000000000","l1BlockNumber":"0x11774dd","l1Timestamp":"0x65243df2","l1TxOrigin":null,"nonce":"0x6","queueIndex":null,"queueOrigin":"sequencer","r":"0x8d514f44357d15fccca073b74fba74f893fe11f756b56bd82769f9183adee430","rawTransaction":"0xf902d4068402faf080830afb5b94218bf598d1453383e2f4aa7b14ffb9bfb102d63788425f4e657105b035b90264ac9650d800000000000000000000000000000000000000000000000000000000000000200000000000000000000000000000000000000000000000000000000000000002000000000000000000000000000000000000000000000000000000000000004000000000000000000000000000000000000000000000000000000000000001e000000000000000000000000000000000000000000000000000000000000001648831645600000000000000000000000078c1b0c915c4faa5fffa6cabf0219da63d7f4cb8000000000000000000000000deaddeaddeaddeaddeaddeaddeaddeaddead111100000000000000000000000000000000000000000000000000000000000009c4fffffffffffffffffffffffffffffffffffffffffffffffffffffffffffea390fffffffffffffffffffffffffffffffffffffffffffffffffffffffffffed3ce000000000000000000000000000000000000000000000000425f4e657105b03500000000000000000000000000000000000000000000000000038d7ea4c68000000000000000000000000000000000000000000000000000413457e82c16245c00000000000000000000000000000000000000000000000000037b2c1a9077e50000000000000000000000005f3291147af755f4b13408dabbbeaa86ef007039000000000000000000000000000000000000000000000000000000006524429100000000000000000000000000000000000000000000000000000000000000000000000000000000000000000000000000000000000000000000000463f5daa500000000000000000000000000000000000000000000000000000000822734a08d514f44357d15fccca073b74fba74f893fe11f756b56bd82769f9183adee430a00ab6518fe0cdc08ad9cecce7e692b26d491eec480e72bb3f621d19b8bd43d4a9","s":"0xab6518fe0cdc08ad9cecce7e692b26d491eec480e72bb3f621d19b8bd43d4a9","to":"0x218bf598d1453383e2f4aa7b14ffb9bfb102d637","transactionIndex":"0x0","v":"0x2734","value":"0x425f4e657105b035","contractAddress":null,"cumulativeGasUsed":"0x6e6b6","daFee":"0x0","daGasPrice":"0x0","daGasUsed":"0x292","gasUsed":"0x6e6b6","l1Fee":"0x19709d787180660","l1FeeScalar":"1","l1GasPrice":"0x38a987f04864","l1GasUsed":"0x72f","logs":[{"address":"0x78c1b0c915c4faa5fffa6cabf0219da63d7f4cb8","blockHash":"0x949d7276f408fcd45645824da81961515aaf0e634a76255919383b5d61b73972","blockNumber":"0xd0024a","data":"0x000000000000000000000000000000000000000000000000425f4e657105b035","logIndex":"0x0","removed":false,"topics":["0xddf252ad1be2c89b69c2b068fc378daa952ba7f163c4a11628f55a4df523b3ef","0x0000000000000000000000000000000000000000000000000000000000000000","0x000000000000000000000000218bf598d1453383e2f4aa7b14ffb9bfb102d637"],"transactionHash":"0x26d4c612b4ff0eb23432592b2986043903d0752f89fe22fb7564f45fe9e37f92","transactionIndex":"0x0"},{"address":"0x78c1b0c915c4faa5fffa6cabf0219da63d7f4cb8","blockHash":"0x949d7276f408fcd45645824da81961515aaf0e634a76255919383b5d61b73972","blockNumber":"0xd0024a","data":"0x000000000000000000000000000000000000000000000000425f4e657105b035","logIndex":"0x1","removed":false,"topics":["0xe1fffcc4923d04b559f4d29a8bfc6cda04eb5b0d3c460751c2402c5c5cc9109c","0x000000000000000000000000218bf598d1453383e2f4aa7b14ffb9bfb102d637"],"transactionHash":"0x26d4c612b4ff0eb23432592b2986043903d0752f89fe22fb7564f45fe9e37f92","transactionIndex":"0x0"},{"address":"0x78c1b0c915c4faa5fffa6cabf0219da63d7f4cb8","blockHash":"0x949d7276f408fcd45645824da81961515aaf0e634a76255919383b5d61b73972","blockNumber":"0xd0024a","data":"0x000000000000000000000000000000000000000000000000425f4e657105b035","logIndex":"0x2","removed":false,"topics":["0xddf252ad1be2c89b69c2b068fc378daa952ba7f163c4a11628f55a4df523b3ef","0x000000000000000000000000218bf598d1453383e2f4aa7b14ffb9bfb102d637","0x0000000000000000000000009ec313ff05946b6f3860a99b470625abba7eb0a2"],"transactionHash":"0x26d4c612b4ff0eb23432592b2986043903d0752f89fe22fb7564f45fe9e37f92","transactionIndex":"0x0"},{"address":"0xdeaddeaddeaddeaddeaddeaddeaddeaddead1111","blockHash":"0x949d7276f408fcd45645824da81961515aaf0e634a76255919383b5d61b73972","blockNumber":"0xd0024a","data":"0x00000000000000000000000000000000000000000000000000038d7ea4c68000","logIndex":"0x3","removed":false,"topics":["0xddf252ad1be2c89b69c2b068fc378daa952ba7f163c4a11628f55a4df523b3ef","0x0000000000000000000000005f3291147af755f4b13408dabbbeaa86ef007039","0x0000000000000000000000009ec313ff05946b6f3860a99b470625abba7eb0a2"],"transactionHash":"0x26d4c612b4ff0eb23432592b2986043903d0752f89fe22fb7564f45fe9e37f92","transactionIndex":"0x0"},{"address":"0xdeaddeaddeaddeaddeaddeaddeaddeaddead1111","blockHash":"0x949d7276f408fcd45645824da81961515aaf0e634a76255919383b5d61b73972","blockNumber":"0xd0024a","data":"0x0000000000000000000000000000000000000000000000000000e780b647f800","logIndex":"0x4","removed":false,"topics":["0x8c5be1e5ebec7d5bd14f71427d1e84f3dd0314c0f7b2291e5b200ac8c7c3b925","0x0000000000000000000000005f3291147af755f4b13408dabbbeaa86ef007039","0x000000000000000000000000218bf598d1453383e2f4aa7b14ffb9bfb102d637"],"transactionHash":"0x26d4c612b4ff0eb23432592b2986043903d0752f89fe22fb7564f45fe9e37f92","transactionIndex":"0x0"},{"address":"0x9ec313ff05946b6f3860a99b470625abba7eb0a2","blockHash":"0x949d7276f408fcd45645824da81961515aaf0e634a76255919383b5d61b73972","blockNumber":"0xd0024a","data":"0x000000000000000000000000218bf598d1453383e2f4aa7b14ffb9bfb102d637000000000000000000000000000000000000000000000000039f70eae5b8d9ac000000000000000000000000000000000000000000000000425f4e657105b03500000000000000000000000000000000000000000000000000038d7ea4c68000","logIndex":"0x5","removed":false,"topics":["0x7a53080ba414158be7ec69b987b5fb7d07dee101fe85488f0853ae16239d0bde","0x000000000000000000000000218bf598d1453383e2f4aa7b14ffb9bfb102d637","0xfffffffffffffffffffffffffffffffffffffffffffffffffffffffffffea390","0xfffffffffffffffffffffffffffffffffffffffffffffffffffffffffffed3ce"],"transactionHash":"0x26d4c612b4ff0eb23432592b2986043903d0752f89fe22fb7564f45fe9e37f92","transactionIndex":"0x0"},{"address":"0x218bf598d1453383e2f4aa7b14ffb9bfb102d637","blockHash":"0x949d7276f408fcd45645824da81961515aaf0e634a76255919383b5d61b73972","blockNumber":"0xd0024a","data":"0x","logIndex":"0x6","removed":false,"topics":["0xddf252ad1be2c89b69c2b068fc378daa952ba7f163c4a11628f55a4df523b3ef","0x0000000000000000000000000000000000000000000000000000000000000000","0x0000000000000000000000005f3291147af755f4b13408dabbbeaa86ef007039","0x00000000000000000000000000000000000000000000000000000000000133a8"],"transactionHash":"0x26d4c612b4ff0eb23432592b2986043903d0752f89fe22fb7564f45fe9e37f92","transactionIndex":"0x0"},{"address":"0x218bf598d1453383e2f4aa7b14ffb9bfb102d637","blockHash":"0x949d7276f408fcd45645824da81961515aaf0e634a76255919383b5d61b73972","blockNumber":"0xd0024a","data":"0x000000000000000000000000000000000000000000000000039f70eae5b8d9ac000000000000000000000000000000000000000000000000425f4e657105b03500000000000000000000000000000000000000000000000000038d7ea4c68000","logIndex":"0x7","removed":false,"topics":["0x3067048beee31b25b2f1681f88dac838c8bba36af25bfb2b7cf7473a5847e35f","0x00000000000000000000000000000000000000000000000000000000000133a8"],"transactionHash":"0x26d4c612b4ff0eb23432592b2986043903d0752f89fe22fb7564f45fe9e37f92","transactionIndex":"0x0"}],"logsBloom":"0x00000000000000000000100000000000000000000000000000000000000000000000000000000000000004000000000000000000400000000400000000200000100008000000000000000008000000000000000010040000200480108000000000000400020000800000000100000800000000000800000000000010000000000000080008000000200000080000000000100001000000000002000000000000020000004008000000000000000000000000000000000000000110800000000000000002000000000000280000000000800000000000000000000040000020000010000000001000000000000000000000000000400000400000000040000800","status":"0x1","transactionHash":"0x26d4c612b4ff0eb23432592b2986043903d0752f89fe22fb7564f45fe9e37f92"}}}