{"block":{"difficulty":"0x2","extraData":"0xd98301090a846765746889676f312e31352e3133856c696e75780000000000004b7c33d042b641b6f9be1abade195929442478f16fac7294b19945f35453bfd677d6ffd10417af1a4c303d35ec583ff0aff8565552a23d36e26d6bfb18acccaf00","gasLimit":"0x1c9c380","gasUsed":"0x21ab8","hash":"0x4dfc1c33b7ec620c09678952812e9359cef5d20a36c4806950803ea3fd543d7e","logsBloom":"0x00000000000000000010000000000000000000000000008800000000000000000000040000000000000000010002000000000000000000000000000000200000140004000040000000200008000000000000000000040000000000000000000000000000000000000000000000000000010000000000100000000010000000000000000000000000000000000000000000100000400000000000000100000000020000000000000000000000000000000000000021000000000000000000000000000002000000000000000000000000000000000000000000001000000000000010000000004000000000000000000000000000000000000000000000000000","miner":"0x0000000000000000000000000000000000000000","mixHash":"0x0000000000000000000000000000000000000000000000000000000000000000","nonce":"0x0000000000000000","number":"0xd000b1","parentHash":"0xd87c64446b81b8741ac4b299ba9b076fba4556909e655d4cbbf92296ee95d78d","receiptsRoot":"0x14ebc634ac63eb82d7708adc306b029874b66eba9220dc85a8f28e2ebc7bb599","sha3Uncles":"0x1dcc4de8dec75d7aab85b567b6ccd41ad312451b948a7413f0a142fd40d49347","size":"0x3d8","stateRoot":"0xa243f8242eb7e651d1182d2e46eb9af5e17a77e66d3dfc640b3dce27a0bdcbe3","timestamp":"0x65243d1b","totalDifficulty":"0x1a00163","transactions":[{"blockHash":"0x4dfc1c33b7ec620c09678952812e9359cef5d20a36c4806950803ea3fd543d7e","blockNumber":"0xd000b1","from":"0x1934a7d7502c62e910b9f88481cfacef6972dc7b","gas":"0x242af","gasPrice":"0x2faf080","hash":"0x175435de1b083e5b7e746671a0d54cac35fbeedc0622451219b64c014d58466b","index":"0xd000b0","input":"0x414bf38900000000000000000000000078c1b0c915c4faa5fffa6cabf0219da63d7f4cb800000000000000000000000097174506aafcc846a40832719bd8899a588bd05c00000000000000000000000000000000000000000000000000000000000027100000000000000000000000001934a7d7502c62e910b9f88481cfacef6972dc7b0000000000000000000000000000000000000000000000000000000065243d3c0000000000000000000000000000000000000000000000019f4a90239563a1010000000000000000000000000000000000000000000000b2cc4e33aaf13e4d030000000000000000000000000000000000000000000000000000000000000000","l1BlockNumber":"0x11774cb","l1Timestamp":"0x65243d1b","l1TxOrigin":null,"nonce":"0x561","queueIndex":null,"queueOrigin":"sequencer","r":"0x88edc4459b223a9d309a09dedc12af59fbf34c7fe8347b6e8a594d4e885c0771","rawTransaction":"0xf9016e8205618402faf080830242af94319b69888b0d11cec22caa5034e25fffbdc8842180b90104414bf38900000000000000000000000078c1b0c915c4faa5fffa6cabf0219da63d7f4cb800000000000000000000000097174506aafcc846a40832719bd8899a588bd05c00000000000000000000000000000000000000000000000000000000000027100000000000000000000000001934a7d7502c62e910b9f88481cfacef6972dc7b0000000000000000000000000000000000000000000000000000000065243d3c0000000000000000000000000000000000000000000000019f4a90239563a1010000000000000000000000000000000000000000000000b2cc4e33aaf13e4d030000000000000000000000000000000000000000000000000000000000000000822734a088edc4459b223a9d309a09dedc12af59fbf34c7fe8347b6e8a594d4e885c0771a01f8f6ae7b6e647354f72d80400978ef6ce77f6dc32033500155d59d1f65fd4bb","s":"0x1f8f6ae7b6e647354f72d80400978ef6ce77f6dc32033500155d59d1f65fd4bb","to":"0x319b69888b0d11cec22caa5034e25fffbdc88421","transactionIndex":"0x0","v":"0x2734","value":"0x0"}],"transactionsRoot":"0x9956cc04531ff4ab4ecffac9d8240cc678f46f307f8daf616db9fefe6f684a09","uncles":[]},"receipts":{"0x175435de1b083e5b7e746671a0d54cac35fbeedc0622451219b64c014d58466b":{"blockHash":"0x4dfc1c33b7ec620c09678952812e9359cef5d20a36c4806950803ea3fd543d7e","blockNumber":"0xd000b1","from":"0x1934a7d7502c62e910b9f88481cfacef6972dc7b","gas":"0x242af","gasPrice":"0x2faf080","hash":"0x175435de1b083e5b7e746671a0d54cac35fbeedc0622451219b64c014d58466b","index":"0xd000b0","input":"0x414bf38900000000000000000000000078c1b0c915c4faa5fffa6cabf0219da63d7f4cb800000000000000000000000097174506aafcc846a40832719bd8899a588bd05c00000000000000000000000000000000000000000000000000000000000027100000000000000000000000001934a7d7502c62e910b9f88481cfacef6972dc7b0000000000000000000000000000000000000000000000000000000065243d3c0000000000000000000000000000000000000000000000019f4a90239563a1010000000000000000000000000000000000000000000000b2cc4e33aaf13e4d030000000000000000000000000000000000000000000000000000000000000000","l1BlockNumber":"0x11774cb","l1Timestamp":"0x65243d1b","l1TxOrigin":null,"nonce":"0x561","queueIndex":null,"queueOrigin":"sequencer","r":"0x88edc4459b223a9d309a09dedc12af59fbf34c7fe8347b6e8a594d4e885c0771","rawTransaction":"0xf9016e8205618402faf080830242af94319b69888b0d11cec22caa5034e25fffbdc8842180b90104414bf38900000000000000000000000078c1b0c915c4faa5fffa6cabf0219da63d7f4cb800000000000000000000000097174506aafcc846a40832719bd8899a588bd05c00000000000000000000000000000000000000000000000000000000000027100000000000000000000000001934a7d7502c62e910b9f88481cfacef6972dc7b0000000000000000000000000000000000000000000000000000000065243d3c0000000000000000000000000000000000000000000000019f4a90239563a1010000000000000000000000000000000000000000000000b2cc4e33aaf13e4d030000000000000000000000000000000000000000000000000000000000000000822734a088edc4459b223a9d309a09dedc12af59fbf34c7fe8347b6e8a594d4e885c0771a01f8f6ae7b6e647354f72d80400978ef6ce77f6dc32033500155d59d1f65fd4bb","s":"0x1f8f6ae7b6e647354f72d80400978ef6ce77f6dc32033500155d59d1f65fd4bb","to":"0x319b69888b0d11cec22caa5034e25fffbdc88421","transactionIndex":"0x0","v":"0x2734","value":"0x0","contractAddress":null,"cumulativeGasUsed":"0x21ab8","daFee":"0x0","daGasPrice":"0x0","daGasUsed":"0x12c","gasUsed":"0x21ab8","l1Fee":"0x1a09f6380cb9fe0","l1FeeScalar":"1","l1GasPrice":"0x39ff1464e55c","l1GasUsed":"0x72f","logs":[{"address":"0x97174506aafcc846a40832719bd8899a588bd05c","blockHash":"0x4dfc1c33b7ec620c09678952812e9359cef5d20a36c4806950803ea3fd543d7e","blockNumber":"0xd000b1","data":"0x0000000000000000000000000000000000000000000000bc2d902a5b25b1d999","logIndex":"0x0","removed":false,"topics":["0xddf252ad1be2c89b69c2b068fc378daa952ba7f163c4a11628f55a4df523b3ef","0x0000000000000000000000003a873fe63bedad2e9f9b9b63bf8bedb5f1789167","0x0000000000000000000000001934a7d7502c62e910b9f88481cfacef6972dc7b"],"transactionHash":"0x175435de1b083e5b7e746671a0d54cac35fbeedc0622451219b64c014d58466b","transactionIndex":"0x0"},{"address":"0x78c1b0c915c4faa5fffa6cabf0219da63d7f4cb8","blockHash":"0x4dfc1c33b7ec620c09678952812e9359cef5d20a36c4806950803ea3fd543d7e","blockNumber":"0xd000b1","data":"0x0000000000000000000000000000000000000000000000019f4a90239563a101","logIndex":"0x1","removed":false,"topics":["0xddf252ad1be2c89b69c2b068fc378daa952ba7f163c4a11628f55a4df523b3ef","0x0000000000000000000000001934a7d7502c62e910b9f88481cfacef6972dc7b","0x0000000000000000000000003a873fe63bedad2e9f9b9b63bf8bedb5f1789167"],"transactionHash":"0x175435de1b083e5b7e746671a0d54cac35fbeedc0622451219b64c014d58466b","transactionIndex":"0x0"},{"address":"0x78c1b0c915c4faa5fffa6cabf0219da63d7f4cb8","blockHash":"0x4dfc1c33b7ec620c09678952812e9359cef5d20a36c4806950803ea3fd543d7e","blockNumber":"0xd000b1","data":"0xfffffffffffffffffffffffffffffffffffffffffffffd6c9c90e25af87cf808","logIndex":"0x2","removed":false,"topics":["0x8c5be1e5ebec7d5bd14f71427d1e84f3dd0314c0f7b2291e5b200ac8c7c3b925","0x0000000000000000000000001934a7d7502c62e910b9f88481cfacef6972dc7b","0x000000000000000000000000319b69888b0d11cec22caa5034e25fffbdc88421"],"transactionHash":"0x175435de1b083e5b7e746671a0d54cac35fbeedc0622451219b64c014d58466b","transactionIndex":"0x0"},{"address":"0x3a873fe63bedad2e9f9b9b63bf8bedb5f1789167","blockHash":"0x4dfc1c33b7ec620c09678952812e9359cef5d20a36c4806950803ea3fd543d7e","blockNumber":"0xd000b1","data":"0x0000000000000000000000000000000000000000000000019f4a90239563a101ffffffffffffffffffffffffffffffffffffffffffffff43d26fd5a4da4e2667000000000000000000000000000000000000000ad2ff2f5a9f1b638fa0974fbf00000000000000000000000000000000000000000004050e8f20b2f8a1c79e70000000000000000000000000000000000000000000000000000000000000ba16000000000000000000000000000000000000000000000000015434e3d9f9c3e50000000000000000000000000000000000000000000000000000000000000000","logIndex":"0x3","removed":false,"topics":["0x19b47279256b2a23a1665c810c8d55a1758940ee09377d4f8d26497a3577dc83","0x000000000000000000000000319b69888b0d11cec22caa5034e25fffbdc88421","0x0000000000000000000000001934a7d7502c62e910b9f88481cfacef6972dc7b"],"transactionHash":"0x175435de1b083e5b7e746671a0d54cac35fbeedc0622451219b64c014d58466b","transactionIndex":"0x0"}],"logsBloom":"0x00000000000000000010000000000000000000000000008800000000000000000000040000000000000000010002000000000000000000000000000000200000140004000040000000200008000000000000000000040000000000000000000000000000000000000000000000000000010000000000100000000010000000000000000000000000000000000000000000100000400000000000000100000000020000000000000000000000000000000000000021000000000000000000000000000002000000000000000000000000000000000000000000001000000000000010000000004000000000000000000000000000000000000000000000000000","status":"0x1","transactionHash":"0x175435de1b083e5b7e746671a0d54cac35fbeedc0622451219b64c014d58466b"}}}