{"block":{"difficulty":"0x2","extraData":"0xd98301090a846765746889676f312e31352e3133856c696e75780000000000005770d88ab068bc5c9af789d5303465aa1d4af192e7b67056709a572addd76eaa065d0469eef9c672ab13a40237963bee590334c1c482e407ce245cb4bca2d26700","gasLimit":"0x1c9c380","gasUsed":"0x1c2f7","hash":"0x5fd8afa693694a9f5b1d80b7cb2dcfaf8656c7e78fb8b71a1c1a517f0e45a7b5","logsBloom":"0x00000000000000000000000000000000000000004000000000000000000000000000000000000000000000000000000000000000000000000000000000000000000000000000000000000000000000000000000000000000000000000000000000040000000000000000100000000000800000000000000000000000000000000000000000000000000000000000000000000000000040000000000000000000000000000000000000000000000000000000000000000000000000000000000000000000000000000000000000000000000000000000000000000000000000000000000000000000000080000000000000000000000000000000000000000000","miner":"0x0000000000000000000000000000000000000000","mixHash":"0x0000000000000000000000000000000000000000000000000000000000000000","nonce":"0x0000000000000000","number":"0xcff3db","parentHash":"0xd0fdc54ac69f3b1197959da93fcf8b261506f32d4aeef84d356c45ec5fea5aea","receiptsRoot":"0x783e582223ef3a4ab631cd346ca5d290149666a1a5d17eab1ba6be2492aed6c7","sha3Uncles":"0x1dcc4de8dec75d7aab85b567b6ccd41ad312451b948a7413f0a142fd40d49347","size":"0x314","stateRoot":"0xfb69e20a379824be11dcbc2c8b71aaabef607be8803ba7a86fec081806ac9dbf","timestamp":"0x65243761","totalDifficulty":"0x19fe7b7","transactions":[{"blockHash":"0x5fd8afa693694a9f5b1d80b7cb2dcfaf8656c7e78fb8b71a1c1a517f0e45a7b5","blockNumber":"0xcff3db","from":"0xf8d3d0c983c2b7daab675d3a14600abf7494f568","gas":"0x1c831","gasPrice":"0x2faf080","hash":"0x74f843052977224686fd0d85742c81812c6a8c17d476d2fd694f438450179678","index":"0xcff3da","input":"0xb51d0534000000000000000000000000f8d3d0c983c2b7daab675d3a14600abf7494f5680000000000000000000000000000000000000000000000000000000000000001","l1BlockNumber":"0x1177451","l1Timestamp":"0x65243761","l1TxOrigin":null,"nonce":"0x85","queueIndex":null,"queueOrigin":"sequencer","r":"0x5ba56f8fc4e9b83d8fa086e1579d517828182e16f2dcf5ac56993f439d1223ba","rawTransaction":"0xf8ac81858402faf0808301c8319453167401aeebff5677c31e1dda945628422d7ed280b844b51d0534000000000000000000000000f8d3d0c983c2b7daab675d3a14600abf7494f5680000000000000000000000000000000000000000000000000000000000000001822734a05ba56f8fc4e9b83d8fa086e1579d517828182e16f2dcf5ac56993f439d1223baa0489b1927cfd34b82a410b2734c52a8ffc6cd77076aa2426d6da584e4c24b95c5","s":"0x489b1927cfd34b82a410b2734c52a8ffc6cd77076aa2426d6da584e4c24b95c5","to":"0x53167401aeebff5677c31e1dda945628422d7ed2","transactionIndex":"0x0","v":"0x2734","value":"0x0"}],"transactionsRoot":"0x1d5472965c6221035d82b187b03e58521cbbcaa717f76862acaa270dc4c76ce7","uncles":[]},"receipts":{"0x74f843052977224686fd0d85742c81812c6a8c17d476d2fd694f438450179678":{"blockHash":"0x5fd8afa693694a9f5b1d80b7cb2dcfaf8656c7e78fb8b71a1c1a517f0e45a7b5","blockNumber":"0xcff3db","from":"0xf8d3d0c983c2b7daab675d3a14600abf7494f568","gas":"0x1c831","gasPrice":"0x2faf080","hash":"0x74f843052977224686fd0d85742c81812c6a8c17d476d2fd694f438450179678","index":"0xcff3da","input":"0xb51d0534000000000000000000000000f8d3d0c983c2b7daab675d3a14600abf7494f5680000000000000000000000000000000000000000000000000000000000000001","l1BlockNumber":"0x1177451","l1Timestamp":"0x65243761","l1TxOrigin":null,"nonce":"0x85","queueIndex":null,"queueOrigin":"sequencer","r":"0x5ba56f8fc4e9b83d8fa086e1579d517828182e16f2dcf5ac56993f439d1223ba","rawTransaction":"0xf8ac81858402faf0808301c8319453167401aeebff5677c31e1dda945628422d7ed280b844b51d0534000000000000000000000000f8d3d0c983c2b7daab675d3a14600abf7494f5680000000000000000000000000000000000000000000000000000000000000001822734a05ba56f8fc4e9b83d8fa086e1579d517828182e16f2dcf5ac56993f439d1223baa0489b1927cfd34b82a410b2734c52a8ffc6cd77076aa2426d6da584e4c24b95c5","s":"0x489b1927cfd34b82a410b2734c52a8ffc6cd77076aa2426d6da584e4c24b95c5","to":"0x53167401aeebff5677c31e1dda945628422d7ed2","transactionIndex":"0x0","v":"0x2734","value":"0x0","contractAddress":null,"cumulativeGasUsed":"0x1c2f7","daFee":"0x0","daGasPrice":"0x0","daGasUsed":"0x69","gasUsed":"0x1c2f7","l1Fee":"0x1c5145ff7a866d0","l1FeeScalar":"1","l1GasPrice":"0x3f1249c65230","l1GasUsed":"0x72f","logs":[{"address":"0x53167401aeebff5677c31e1dda945628422d7ed2","blockHash":"0x5fd8afa693694a9f5b1d80b7cb2dcfaf8656c7e78fb8b71a1c1a517f0e45a7b5","blockNumber":"0xcff3db","data":"0x000000000000000000000000f8d3d0c983c2b7daab675d3a14600abf7494f568000000000000000000000000f8d3d0c983c2b7daab675d3a14600abf7494f56800000000000000000000000000000000000000000000000000000000000000000000000000000000000000000000000000000000000000000000000000000001000000000000000000000000000000000000000000000000d314c669f9b1000000000000000000000000000000000000000000000000000006551a6eb302c0000000000000000000000000000000000000000000000000000a8dd6b87faf4000000000000000000000000000000000000000000000000000021c5e24e6564000000000000000000000000000000000000000000000000000021c5e24e65640000000000000000000000000000000000000000000000000000000000000000002000000000000000000000000000000000000000000000000000000000000001100000000000000000000000000000000000000000000000000000000000000000000000000000000000000000000000000000000000000000000000000000000","logIndex":"0x0","removed":false,"topics":["0x0bd0eb03ae3622020e1cc9e94570c94b9e276bc263af8ac1c42747b11074f5fc"],"transactionHash":"0x74f843052977224686fd0d85742c81812c6a8c17d476d2fd694f438450179678","transactionIndex":"0x0"}],"logsBloom":"0x00000000000000000000000000000000000000004000000000000000000000000000000000000000000000000000000000000000000000000000000000000000000000000000000000000000000000000000000000000000000000000000000000040000000000000000100000000000800000000000000000000000000000000000000000000000000000000000000000000000000040000000000000000000000000000000000000000000000000000000000000000000000000000000000000000000000000000000000000000000000000000000000000000000000000000000000000000000000080000000000000000000000000000000000000000000","status":"0x1","transactionHash":"0x74f843052977224686fd0d85742c81812c6a8c17d476d2fd694f438450179678"}}}