{"block":{"difficulty":"0x2","extraData":"0xd98301090a846765746889676f312e31352e3133856c696e75780000000000002ebb9326c28ed40fd3d0aa6a13aaacebf0c65ef0cf96a3bece4b41d74f66b83e791829e1ec2227ec312683d5b2a097a959c8bc1b4b91cf29b25453ad4f92acc400","gasLimit":"0x1c9c380","gasUsed":"0x1fc7c","hash":"0x3bd27c2a357db096bf41f14c13a3998a290a45a6429aa388759459e7e8a46c8f","logsBloom":"0x0000000000000000000000000000000000004000000100880000000000000000000000000000000000000000000200000000000000200000000000000020000004800000004400000000000800000000000000c000002000000000000000000000000000000000000000000004000000000000100000800000000010000000000000000000000000000000000000000000000000000000000000000000000000020000000000000000000000000000000000000001000000000000000000000000000002000000000000000000000000002001000000000000000000000000000010000000000000000000000000000000000000000010000000800000000000","miner":"0x0000000000000000000000000000000000000000","mixHash":"0x0000000000000000000000000000000000000000000000000000000000000000","nonce":"0x0000000000000000","number":"0xd00381","parentHash":"0xc85dc2514fe89ac4c654292084ef97842f1190e1ad014efb68b5ad871166d202","receiptsRoot":"0xb39ba5623bdfc239957e851631d69cc1c07842935e9c9326cdf2f4e16af55035","sha3Uncles":"0x1dcc4de8dec75d7aab85b567b6ccd41ad312451b948a7413f0a142fd40d49347","size":"0x3d8","stateRoot":"0x412e66e564386904e9c381ca4e1504d5e99aca8df5e5abcad000a64c266fea37","timestamp":"0x65243e8a","totalDifficulty":"0x1a00703","transactions":[{"blockHash":"0x3bd27c2a357db096bf41f14c13a3998a290a45a6429aa388759459e7e8a46c8f","blockNumber":"0xd00381","from":"0x9295d9acc57aaefc5f36d41e0a6c008fe0bb3e3a","gas":"0x2147b","gasPrice":"0x2faf080","hash":"0xbff34234ce1b9578656ef64a38d4d8b4f4d652cf69b45400cdff49de6e4f3282","index":"0xd00380","input":"0x414bf389000000000000000000000000201eba5cc46d216ce6dc03f6a759e8e766e956ae00000000000000000000000009bc4e0d864854c6afb6eb9a9cdf58ac190d0df900000000000000000000000000000000000000000000000000000000000000640000000000000000000000009295d9acc57aaefc5f36d41e0a6c008fe0bb3e3a0000000000000000000000000000000000000000000000000000000065243eab0000000000000000000000000000000000000000000000000000000000164720000000000000000000000000000000000000000000000000000000000015d65b0000000000000000000000000000000000000000000000000000000000000000","l1BlockNumber":"0x11774e9","l1Timestamp":"0x65243e8a","l1TxOrigin":null,"nonce":"0xdc5","queueIndex":null,"queueOrigin":"sequencer","r":"0xac583fb5459412fa02eb72740ddc7959c7157169541aaab1beac0a828d95f2c7","rawTransaction":"0xf9016e820dc58402faf0808302147b94319b69888b0d11cec22caa5034e25fffbdc8842180b90104414bf389000000000000000000000000201eba5cc46d216ce6dc03f6a759e8e766e956ae00000000000000000000000009bc4e0d864854c6afb6eb9a9cdf58ac190d0df900000000000000000000000000000000000000000000000000000000000000640000000000000000000000009295d9acc57aaefc5f36d41e0a6c008fe0bb3e3a0000000000000000000000000000000000000000000000000000000065243eab0000000000000000000000000000000000000000000000000000000000164720000000000000000000000000000000000000000000000000000000000015d65b0000000000000000000000000000000000000000000000000000000000000000822734a0ac583fb5459412fa02eb72740ddc7959c7157169541aaab1beac0a828d95f2c7a002a8668527e1c8f31bdaaf9b14970eb469daa3b21dfa93d75385f2800a501488","s":"0x2a8668527e1c8f31bdaaf9b14970eb469daa3b21dfa93d75385f2800a501488","to":"0x319b69888b0d11cec22caa5034e25fffbdc88421","transactionIndex":"0x0","v":"0x2734","value":"0x0"}],"transactionsRoot":"0xb632b7a5acbc495859ec0c9fb5c89a3401a1bc6b97aae7efb509157c9d64631f","uncles":[]},"receipts":{"0xbff34234ce1b9578656ef64a38d4d8b4f4d652cf69b45400cdff49de6e4f3282":{"blockHash":"0x3bd27c2a357db096bf41f14c13a3998a290a45a6429aa388759459e7e8a46c8f","blockNumber":"0xd00381","from":"0x9295d9acc57aaefc5f36d41e0a6c008fe0bb3e3a","gas":"0x2147b","gasPrice":"0x2faf080","hash":"0xbff34234ce1b9578656ef64a38d4d8b4f4d652cf69b45400cdff49de6e4f3282","index":"0xd00380","input":"0x414bf389000000000000000000000000201eba5cc46d216ce6dc03f6a759e8e766e956ae00000000000000000000000009bc4e0d864854c6afb6eb9a9cdf58ac190d0df900000000000000000000000000000000000000000000000000000000000000640000000000000000000000009295d9acc57aaefc5f36d41e0a6c008fe0bb3e3a0000000000000000000000000000000000000000000000000000000065243eab0000000000000000000000000000000000000000000000000000000000164720000000000000000000000000000000000000000000000000000000000015d65b0000000000000000000000000000000000000000000000000000000000000000","l1BlockNumber":"0x11774e9","l1Timestamp":"0x65243e8a","l1TxOrigin":null,"nonce":"0xdc5","queueIndex":null,"queueOrigin":"sequencer","r":"0xac583fb5459412fa02eb72740ddc7959c7157169541aaab1beac0a828d95f2c7","rawTransaction":"0xf9016e820dc58402faf0808302147b94319b69888b0d11cec22caa5034e25fffbdc8842180b90104414bf389000000000000000000000000201eba5cc46d216ce6dc03f6a759e8e766e956ae00000000000000000000000009bc4e0d864854c6afb6eb9a9cdf58ac190d0df900000000000000000000000000000000000000000000000000000000000000640000000000000000000000009295d9acc57aaefc5f36d41e0a6c008fe0bb3e3a0000000000000000000000000000000000000000000000000000000065243eab0000000000000000000000000000000000000000000000000000000000164720000000000000000000000000000000000000000000000000000000000015d65b0000000000000000000000000000000000000000000000000000000000000000822734a0ac583fb5459412fa02eb72740ddc7959c7157169541aaab1beac0a828d95f2c7a002a8668527e1c8f31bdaaf9b14970eb469daa3b21dfa93d75385f2800a501488","s":"0x2a8668527e1c8f31bdaaf9b14970eb469daa3b21dfa93d75385f2800a501488","to":"0x319b69888b0d11cec22caa5034e25fffbdc88421","transactionIndex":"0x0","v":"0x2734","value":"0x0","contractAddress":null,"cumulativeGasUsed":"0x1fc7c","daFee":"0x0","daGasPrice":"0x0","daGasUsed":"0x12c","gasUsed":"0x1fc7c","l1Fee":"0x19709d787180660","l1FeeScalar":"1","l1GasPrice":"0x38a987f04864","l1GasUsed":"0x72f","logs":[{"address":"0x09bc4e0d864854c6afb6eb9a9cdf58ac190d0df9","blockHash":"0x3bd27c2a357db096bf41f14c13a3998a290a45a6429aa388759459e7e8a46c8f","blockNumber":"0xd00381","data":"0x0000000000000000000000000000000000000000000000000000000000164872","logIndex":"0x0","removed":false,"topics":["0xddf252ad1be2c89b69c2b068fc378daa952ba7f163c4a11628f55a4df523b3ef","0x0000000000000000000000006488f911c6cd86c289aa319c5a826dcf8f1ca065","0x0000000000000000000000009295d9acc57aaefc5f36d41e0a6c008fe0bb3e3a"],"transactionHash":"0xbff34234ce1b9578656ef64a38d4d8b4f4d652cf69b45400cdff49de6e4f3282","transactionIndex":"0x0"},{"address":"0x201eba5cc46d216ce6dc03f6a759e8e766e956ae","blockHash":"0x3bd27c2a357db096bf41f14c13a3998a290a45a6429aa388759459e7e8a46c8f","blockNumber":"0xd00381","data":"0x0000000000000000000000000000000000000000000000000000000000164720","logIndex":"0x1","removed":false,"topics":["0xddf252ad1be2c89b69c2b068fc378daa952ba7f163c4a11628f55a4df523b3ef","0x0000000000000000000000009295d9acc57aaefc5f36d41e0a6c008fe0bb3e3a","0x0000000000000000000000006488f911c6cd86c289aa319c5a826dcf8f1ca065"],"transactionHash":"0xbff34234ce1b9578656ef64a38d4d8b4f4d652cf69b45400cdff49de6e4f3282","transactionIndex":"0x0"},{"address":"0x201eba5cc46d216ce6dc03f6a759e8e766e956ae","blockHash":"0x3bd27c2a357db096bf41f14c13a3998a290a45a6429aa388759459e7e8a46c8f","blockNumber":"0xd00381","data":"0xffffffffffffffffffffffffffffffffffffffffffffffffffffffffa25da9bf","logIndex":"0x2","removed":false,"topics":["0x8c5be1e5ebec7d5bd14f71427d1e84f3dd0314c0f7b2291e5b200ac8c7c3b925","0x0000000000000000000000009295d9acc57aaefc5f36d41e0a6c008fe0bb3e3a","0x000000000000000000000000319b69888b0d11cec22caa5034e25fffbdc88421"],"transactionHash":"0xbff34234ce1b9578656ef64a38d4d8b4f4d652cf69b45400cdff49de6e4f3282","transactionIndex":"0x0"},{"address":"0x6488f911c6cd86c289aa319c5a826dcf8f1ca065","blockHash":"0x3bd27c2a357db096bf41f14c13a3998a290a45a6429aa388759459e7e8a46c8f","blockNumber":"0xd00381","data":"0xffffffffffffffffffffffffffffffffffffffffffffffffffffffffffe9b78e00000000000000000000000000000000000000000000000000000000001647200000000000000000000000000000000000000000fff52155b1fb34679fd22a7b0000000000000000000000000000000000000000000000000000aa91ae904e92fffffffffffffffffffffffffffffffffffffffffffffffffffffffffffffffc00000000000000000000000000000000000000000000000000000000000000000000000000000000000000000000000000000000000000000000000000000030","logIndex":"0x3","removed":false,"topics":["0x19b47279256b2a23a1665c810c8d55a1758940ee09377d4f8d26497a3577dc83","0x000000000000000000000000319b69888b0d11cec22caa5034e25fffbdc88421","0x0000000000000000000000009295d9acc57aaefc5f36d41e0a6c008fe0bb3e3a"],"transactionHash":"0xbff34234ce1b9578656ef64a38d4d8b4f4d652cf69b45400cdff49de6e4f3282","transactionIndex":"0x0"}],"logsBloom":"0x0000000000000000000000000000000000004000000100880000000000000000000000000000000000000000000200000000000000200000000000000020000004800000004400000000000800000000000000c000002000000000000000000000000000000000000000000004000000000000100000800000000010000000000000000000000000000000000000000000000000000000000000000000000000020000000000000000000000000000000000000001000000000000000000000000000002000000000000000000000000002001000000000000000000000000000010000000000000000000000000000000000000000010000000800000000000","status":"0x1","transactionHash":"0xbff34234ce1b9578656ef64a38d4d8b4f4d652cf69b45400cdff49de6e4f3282"}}}