{"block":{"difficulty":"0x2","extraData":"0xd98301090a846765746889676f312e31352e3133856c696e7578000000000000d76124866d9c3bbb4bcc061339aa1a64a9bf69543018536f7b0160e8d9d3b47431338b7952baac1bafcfe46a8e6a05efc50ec799f5e5767a9729f9360b77d0a700","gasLimit":"0x1c9c380","gasUsed":"0x1c4d2","hash":"0x39b178fe1abcf427be138da343439ad480cd96fd1c517aaffdef682fc81dac35","logsBloom":"0x00000000000000000010000000000000000000000000001000100000001000000000000000000080000000000000008000000800000000010000000000000240000000000000000040000008000000000000000000000000000000000000000110000000020000000000000000000800080000000000000000000010000000000000000000000000000001000000000000800000000000000020000000300000020000020000000001000000010000000000200000000000000000000000000000000002000000000000000400000000080002100000000000000000020020001000000000000000000000000000000000000000000000000000000000000000","miner":"0x0000000000000000000000000000000000000000","mixHash":"0x0000000000000000000000000000000000000000000000000000000000000000","nonce":"0x0000000000000000","number":"0xd001f3","parentHash":"0x7a3ab8e4038c2044da46c03d5000a545fecc771e1806fe00dce9c0491cc6b96b","receiptsRoot":"0x959c2236ae01b815b850e3a22ea80fedecb9d4a5990b398feb443e676ef01747","sha3Uncles":"0x1dcc4de8dec75d7aab85b567b6ccd41ad312451b948a7413f0a142fd40d49347","size":"0x375","stateRoot":"0xd8bc1b3e9b07577eaa4766d1458545aabe02eb019e510ec8008fc87f5510d4b8","timestamp":"0x65243dc3","totalDifficulty":"0x1a003e7","transactions":[{"blockHash":"0x39b178fe1abcf427be138da343439ad480cd96fd1c517aaffdef682fc81dac35","blockNumber":"0xd001f3","from":"0x33e0fce17d6452f03139b916d48189e8c025be9d","gas":"0x1cfc2","gasPrice":"0x30291a0","hash":"0x1880ef97aa767b2b91c3bb19f79af5a9136b2124defa36791ed518c2261469d3","index":"0xd001f2","input":"0x32b7006d000000000000000000000000deaddeaddeaddeaddeaddeaddeaddeaddead000000000000000000000000000000000000000000000000000000132f4579c98000000000000000000000000000000000000000000000000000000000000000000000000000000000000000000000000000000000000000000000000000000000800000000000000000000000000000000000000000000000000000000000000000","l1BlockNumber":"0x11774d9","l1Timestamp":"0x65243dc3","l1TxOrigin":null,"nonce":"0x18","queueIndex":null,"queueOrigin":"sequencer","r":"0x45d9fe6b18fd53457f02f4041f195eacea99946548eabfdf7393fa4c5b0a2bca","rawTransaction":"0xf9010b1884030291a08301cfc294420000000000000000000000000000000000001080b8a432b7006d000000000000000000000000deaddeaddeaddeaddeaddeaddeaddeaddead000000000000000000000000000000000000000000000000000000132f4579c98000000000000000000000000000000000000000000000000000000000000000000000000000000000000000000000000000000000000000000000000000000000800000000000000000000000000000000000000000000000000000000000000000822734a045d9fe6b18fd53457f02f4041f195eacea99946548eabfdf7393fa4c5b0a2bcaa0477cd92ea16611aec492dc6e365e86019977556aa2c294fffc67d81a786fbb4b","s":"0x477cd92ea16611aec492dc6e365e86019977556aa2c294fffc67d81a786fbb4b","to":"0x4200000000000000000000000000000000000010","transactionIndex":"0x0","v":"0x2734","value":"0x0"}],"transactionsRoot":"0x9965df06d37900acddb0853995f932e4a826bddaff8fac18f95c10e82f5a1c9c","uncles":[]},"receipts":{"0x1880ef97aa767b2b91c3bb19f79af5a9136b2124defa36791ed518c2261469d3":{"blockHash":"0x39b178fe1abcf427be138da343439ad480cd96fd1c517aaffdef682fc81dac35","blockNumber":"0xd001f3","from":"0x33e0fce17d6452f03139b916d48189e8c025be9d","gas":"0x1cfc2","gasPrice":"0x30291a0","hash":"0x1880ef97aa767b2b91c3bb19f79af5a9136b2124defa36791ed518c2261469d3","index":"0xd001f2","input":"0x32b7006d000000000000000000000000deaddeaddeaddeaddeaddeaddeaddeaddead000000000000000000000000000000000000000000000000000000132f4579c98000000000000000000000000000000000000000000000000000000000000000000000000000000000000000000000000000000000000000000000000000000000800000000000000000000000000000000000000000000000000000000000000000","l1BlockNumber":"0x11774d9","l1Timestamp":"0x65243dc3","l1TxOrigin":null,"nonce":"0x18","queueIndex":null,"queueOrigin":"sequencer","r":"0x45d9fe6b18fd53457f02f4041f195eacea99946548eabfdf7393fa4c5b0a2bca","rawTransaction":"0xf9010b1884030291a08301cfc294420000000000000000000000000000000000001080b8a432b7006d000000000000000000000000deaddeaddeaddeaddeaddeaddeaddeaddead000000000000000000000000000000000000000000000000000000132f4579c98000000000000000000000000000000000000000000000000000000000000000000000000000000000000000000000000000000000000000000000000000000000800000000000000000000000000000000000000000000000000000000000000000822734a045d9fe6b18fd53457f02f4041f195eacea99946548eabfdf7393fa4c5b0a2bcaa0477cd92ea16611aec492dc6e365e86019977556aa2c294fffc67d81a786fbb4b","s":"0x477cd92ea16611aec492dc6e365e86019977556aa2c294fffc67d81a786fbb4b","to":"0x4200000000000000000000000000000000000010","transactionIndex":"0x0","v":"0x2734","value":"0x0","contractAddress":null,"cumulativeGasUsed":"0x1c4d2","daFee":"0x0","daGasPrice":"0x0","daGasUsed":"0xc8","gasUsed":"0x1c4d2","l1Fee":"0x19709d787180660","l1FeeScalar":"1","l1GasPrice":"0x38a987f04864","l1GasUsed":"0x72f","logs":[{"address":"0xdeaddeaddeaddeaddeaddeaddeaddeaddead0000","blockHash":"0x39b178fe1abcf427be138da343439ad480cd96fd1c517aaffdef682fc81dac35","blockNumber":"0xd001f3","data":"0x00000000000000000000000000000000000000000000000000132f4579c98000","logIndex":"0x0","removed":false,"topics":["0xddf252ad1be2c89b69c2b068fc378daa952ba7f163c4a11628f55a4df523b3ef","0x00000000000000000000000033e0fce17d6452f03139b916d48189e8c025be9d","0x0000000000000000000000000000000000000000000000000000000000000000"],"transactionHash":"0x1880ef97aa767b2b91c3bb19f79af5a9136b2124defa36791ed518c2261469d3","transactionIndex":"0x0"},{"address":"0xdeaddeaddeaddeaddeaddeaddeaddeaddead0000","blockHash":"0x39b178fe1abcf427be138da343439ad480cd96fd1c517aaffdef682fc81dac35","blockNumber":"0xd001f3","data":"0x00000000000000000000000000000000000000000000000000132f4579c98000","logIndex":"0x1","removed":false,"topics":["0xcc16f5dbb4873280815c1ee09dbd06736cffcc184412cf7a71a0fdb75d397ca5","0x00000000000000000000000033e0fce17d6452f03139b916d48189e8c025be9d"],"transactionHash":"0x1880ef97aa767b2b91c3bb19f79af5a9136b2124defa36791ed518c2261469d3","transactionIndex":"0x0"},{"address":"0x4200000000000000000000000000000000000007","blockHash":"0x39b178fe1abcf427be138da343439ad480cd96fd1c517aaffdef682fc81dac35","blockNumber":"0xd001f3","data":"0x000000000000000000000000420000000000000000000000000000000000001000000000000000000000000000000000000000000000000000000000000000800000000000000000000000000000000000000000000000000000000000037aba000000000000000000000000000000000000000000000000000000000000000000000000000000000000000000000000000000000000000000000000000000a4f82b418e00000000000000000000000033e0fce17d6452f03139b916d48189e8c025be9d00000000000000000000000033e0fce17d6452f03139b916d48189e8c025be9d00000000000000000000000000000000000000000000000000132f4579c980000000000000000000000000000000000000000000000000000000000000000080000000000000000000000000000000000000000000000000000000000000000000000000000000000000000000000000000000000000000000000000","logIndex":"0x2","removed":false,"topics":["0xcb0f7ffd78f9aee47a248fae8db181db6eee833039123e026dcbff529522e52a","0x00000000000000000000000095fc37a27a2f68e3a647cdc081f0a89bb47c3012"],"transactionHash":"0x1880ef97aa767b2b91c3bb19f79af5a9136b2124defa36791ed518c2261469d3","transactionIndex":"0x0"},{"address":"0x4200000000000000000000000000000000000010","blockHash":"0x39b178fe1abcf427be138da343439ad480cd96fd1c517aaffdef682fc81dac35","blockNumber":"0xd001f3","data":"0x00000000000000000000000033e0fce17d6452f03139b916d48189e8c025be9d00000000000000000000000000000000000000000000000000132f4579c9800000000000000000000000000000000000000000000000000000000000000000600000000000000000000000000000000000000000000000000000000000000000","logIndex":"0x3","removed":false,"topics":["0x73d170910aba9e6d50b102db522b1dbcd796216f5128b445aa2135272886497e","0x0000000000000000000000003c3a81e81dc49a522a592e7622a7e711c06bf354","0x000000000000000000000000deaddeaddeaddeaddeaddeaddeaddeaddead0000","0x00000000000000000000000033e0fce17d6452f03139b916d48189e8c025be9d"],"transactionHash":"0x1880ef97aa767b2b91c3bb19f79af5a9136b2124defa36791ed518c2261469d3","transactionIndex":"0x0"}],"logsBloom":"0x00000000000000000010000000000000000000000000001000100000001000000000000000000080000000000000008000000800000000010000000000000240000000000000000040000008000000000000000000000000000000000000000110000000020000000000000000000800080000000000000000000010000000000000000000000000000001000000000000800000000000000020000000300000020000020000000001000000010000000000200000000000000000000000000000000002000000000000000400000000080002100000000000000000020020001000000000000000000000000000000000000000000000000000000000000000","status":"0x1","transactionHash":"0x1880ef97aa767b2b91c3bb19f79af5a9136b2124defa36791ed518c2261469d3"}}}