{"block":{"difficulty":"0x2","extraData":"0xd98301090a846765746889676f312e31352e3133856c696e7578000000000000b19b9f3be4e277e38987f8dfd08d5635e3dcc3f49fff9cd5588ab5105449ce1f6649cbf8ba2a3c492699f2cfe82f16d21e363ccfc2c154c486aa7b3bf4f8ecb001","gasLimit":"0x1c9c380","gasUsed":"0x23ab3","hash":"0xf028f1de56a781fe0b782a971c3632414e193efbe02e80c9ca313a1ef9b9e4c1","logsBloom":"0x00040000000010000000020000000000000000000001000000000000000000000000000000000000000000000002800000000000000000000000000000200000140000000040000000000008000000000000008000042000000000000000000000000000000000000000080000010000000000000000000000000010000000000000000100000000000000000000040000100000040000000000000040000000020000000000000000000000000000000000000000000000004000000000000000000002000000000000000000000000000000000000000000000000000000000010000000000000000000000000000000000000000000000000002000000000","miner":"0x0000000000000000000000000000000000000000","mixHash":"0x0000000000000000000000000000000000000000000000000000000000000000","nonce":"0x0000000000000000","number":"0xd00350","parentHash":"0xa85656857255f80f8d2c15ac8a7c2b4ecb8944bfa6d72bf6cbaf5f65a3cea5d4","receiptsRoot":"0xb18fa0340be294307448c4b9f31d1d627e1a93753674ab75fb2611a528c16da7","sha3Uncles":"0x1dcc4de8dec75d7aab85b567b6ccd41ad312451b948a7413f0a142fd40d49347","size":"0x3d8","stateRoot":"0x7b683a7e4f51510bb166ba9bde78bd3d99392c3a83969acf949933a42faa0b2e","timestamp":"0x65243e75","totalDifficulty":"0x1a006a1","transactions":[{"blockHash":"0xf028f1de56a781fe0b782a971c3632414e193efbe02e80c9ca313a1ef9b9e4c1","blockNumber":"0xd00350","from":"0xea86ade3587a64ea3929a474f40acbce157a1a39","gas":"0x253bc","gasPrice":"0x2faf080","hash":"0xe198eacbdc07e4a559f93743d0174f8c0a846fb0fa1b1ddcfdea7e05ca5d8ea6","index":"0xd0034f","input":"0x414bf389000000000000000000000000201eba5cc46d216ce6dc03f6a759e8e766e956ae00000000000000000000000078c1b0c915c4faa5fffa6cabf0219da63d7f4cb800000000000000000000000000000000000000000000000000000000000001f4000000000000000000000000ea86ade3587a64ea3929a474f40acbce157a1a390000000000000000000000000000000000000000000000000000000065243e950000000000000000000000000000000000000000000000000000000000107ac00000000000000000000000000000000000000000000000002757108e4640c8700000000000000000000000000000000000000000000000000000000000000000","l1BlockNumber":"0x11774e7","l1Timestamp":"0x65243e75","l1TxOrigin":null,"nonce":"0x7c8","queueIndex":null,"queueOrigin":"sequencer","r":"0xa8bf11f820a3420636ea924d75cad53b50490a9ede979f61edabd620c956caa4","rawTransaction":"0xf9016e8207c88402faf080830253bc945989fb161568b9f133edf5cf6787f5597762797f80b90104414bf389000000000000000000000000201eba5cc46d216ce6dc03f6a759e8e766e956ae00000000000000000000000078c1b0c915c4faa5fffa6cabf0219da63d7f4cb800000000000000000000000000000000000000000000000000000000000001f4000000000000000000000000ea86ade3587a64ea3929a474f40acbce157a1a390000000000000000000000000000000000000000000000000000000065243e950000000000000000000000000000000000000000000000000000000000107ac00000000000000000000000000000000000000000000000002757108e4640c8700000000000000000000000000000000000000000000000000000000000000000822734a0a8bf11f820a3420636ea924d75cad53b50490a9ede979f61edabd620c956caa4a0213dc734ff01ff9a917273120a997e0a63e90307cd49d6efc187958bf2a1e315","s":"0x213dc734ff01ff9a917273120a997e0a63e90307cd49d6efc187958bf2a1e315","to":"0x5989fb161568b9f133edf5cf6787f5597762797f","transactionIndex":"0x0","v":"0x2734","value":"0x0"}],"transactionsRoot":"0x8f979e3193672b1a687f222dcdbc8d72815130efe02aeef67d8dc90de70ea2a3","uncles":[]},"receipts":{"0xe198eacbdc07e4a559f93743d0174f8c0a846fb0fa1b1ddcfdea7e05ca5d8ea6":{"blockHash":"0xf028f1de56a781fe0b782a971c3632414e193efbe02e80c9ca313a1ef9b9e4c1","blockNumber":"0xd00350","from":"0xea86ade3587a64ea3929a474f40acbce157a1a39","gas":"0x253bc","gasPrice":"0x2faf080","hash":"0xe198eacbdc07e4a559f93743d0174f8c0a846fb0fa1b1ddcfdea7e05ca5d8ea6","index":"0xd0034f","input":"0x414bf389000000000000000000000000201eba5cc46d216ce6dc03f6a759e8e766e956ae00000000000000000000000078c1b0c915c4faa5fffa6cabf0219da63d7f4cb800000000000000000000000000000000000000000000000000000000000001f4000000000000000000000000ea86ade3587a64ea3929a474f40acbce157a1a390000000000000000000000000000000000000000000000000000000065243e950000000000000000000000000000000000000000000000000000000000107ac00000000000000000000000000000000000000000000000002757108e4640c8700000000000000000000000000000000000000000000000000000000000000000","l1BlockNumber":"0x11774e7","l1Timestamp":"0x65243e75","l1TxOrigin":null,"nonce":"0x7c8","queueIndex":null,"queueOrigin":"sequencer","r":"0xa8bf11f820a3420636ea924d75cad53b50490a9ede979f61edabd620c956caa4","rawTransaction":"0xf9016e8207c88402faf080830253bc945989fb161568b9f133edf5cf6787f5597762797f80b90104414bf389000000000000000000000000201eba5cc46d216ce6dc03f6a759e8e766e956ae00000000000000000000000078c1b0c915c4faa5fffa6cabf0219da63d7f4cb800000000000000000000000000000000000000000000000000000000000001f4000000000000000000000000ea86ade3587a64ea3929a474f40acbce157a1a390000000000000000000000000000000000000000000000000000000065243e950000000000000000000000000000000000000000000000000000000000107ac00000000000000000000000000000000000000000000000002757108e4640c8700000000000000000000000000000000000000000000000000000000000000000822734a0a8bf11f820a3420636ea924d75cad53b50490a9ede979f61edabd620c956caa4a0213dc734ff01ff9a917273120a997e0a63e90307cd49d6efc187958bf2a1e315","s":"0x213dc734ff01ff9a917273120a997e0a63e90307cd49d6efc187958bf2a1e315","to":"0x5989fb161568b9f133edf5cf6787f5597762797f","transactionIndex":"0x0","v":"0x2734","value":"0x0","contractAddress":null,"cumulativeGasUsed":"0x23ab3","daFee":"0x0","daGasPrice":"0x0","daGasUsed":"0x12c","gasUsed":"0x23ab3","l1Fee":"0x19709d787180660","l1FeeScalar":"1","l1GasPrice":"0x38a987f04864","l1GasUsed":"0x72f","logs":[{"address":"0x78c1b0c915c4faa5fffa6cabf0219da63d7f4cb8","blockHash":"0xf028f1de56a781fe0b782a971c3632414e193efbe02e80c9ca313a1ef9b9e4c1","blockNumber":"0xd00350","data":"0x000000000000000000000000000000000000000000000000282498baf951c74e","logIndex":"0x0","removed":false,"topics":["0xddf252ad1be2c89b69c2b068fc378daa952ba7f163c4a11628f55a4df523b3ef","0x000000000000000000000000262255f4770aebe2d0c8b97a46287dcecc2a0aff","0x000000000000000000000000ea86ade3587a64ea3929a474f40acbce157a1a39"],"transactionHash":"0xe198eacbdc07e4a559f93743d0174f8c0a846fb0fa1b1ddcfdea7e05ca5d8ea6","transactionIndex":"0x0"},{"address":"0x201eba5cc46d216ce6dc03f6a759e8e766e956ae","blockHash":"0xf028f1de56a781fe0b782a971c3632414e193efbe02e80c9ca313a1ef9b9e4c1","blockNumber":"0xd00350","data":"0x0000000000000000000000000000000000000000000000000000000000107ac0","logIndex":"0x1","removed":false,"topics":["0xddf252ad1be2c89b69c2b068fc378daa952ba7f163c4a11628f55a4df523b3ef","0x000000000000000000000000ea86ade3587a64ea3929a474f40acbce157a1a39","0x000000000000000000000000262255f4770aebe2d0c8b97a46287dcecc2a0aff"],"transactionHash":"0xe198eacbdc07e4a559f93743d0174f8c0a846fb0fa1b1ddcfdea7e05ca5d8ea6","transactionIndex":"0x0"},{"address":"0x201eba5cc46d216ce6dc03f6a759e8e766e956ae","blockHash":"0xf028f1de56a781fe0b782a971c3632414e193efbe02e80c9ca313a1ef9b9e4c1","blockNumber":"0xd00350","data":"0xfffffffffffffffffffffffffffffffffffffffffffffffffffffffffab700cf","logIndex":"0x2","removed":false,"topics":["0x8c5be1e5ebec7d5bd14f71427d1e84f3dd0314c0f7b2291e5b200ac8c7c3b925","0x000000000000000000000000ea86ade3587a64ea3929a474f40acbce157a1a39","0x0000000000000000000000005989fb161568b9f133edf5cf6787f5597762797f"],"transactionHash":"0xe198eacbdc07e4a559f93743d0174f8c0a846fb0fa1b1ddcfdea7e05ca5d8ea6","transactionIndex":"0x0"},{"address":"0x262255f4770aebe2d0c8b97a46287dcecc2a0aff","blockHash":"0xf028f1de56a781fe0b782a971c3632414e193efbe02e80c9ca313a1ef9b9e4c1","blockNumber":"0xd00350","data":"0x0000000000000000000000000000000000000000000000000000000000107ac0ffffffffffffffffffffffffffffffffffffffffffffffffd7db674506ae38b2000000000000000000000000000000000018fa6b8b62d3c4fd7395255be9d37a000000000000000000000000000000000000000000000000252351a417be8b810000000000000000000000000000000000000000000000000000000000045de500000000000000000000000000000000000000000000000000000000000000b70000000000000000000000000000000000000000000000000000000000000000","logIndex":"0x3","removed":false,"topics":["0x19b47279256b2a23a1665c810c8d55a1758940ee09377d4f8d26497a3577dc83","0x0000000000000000000000005989fb161568b9f133edf5cf6787f5597762797f","0x000000000000000000000000ea86ade3587a64ea3929a474f40acbce157a1a39"],"transactionHash":"0xe198eacbdc07e4a559f93743d0174f8c0a846fb0fa1b1ddcfdea7e05ca5d8ea6","transactionIndex":"0x0"}],"logsBloom":"0x00040000000010000000020000000000000000000001000000000000000000000000000000000000000000000002800000000000000000000000000000200000140000000040000000000008000000000000008000042000000000000000000000000000000000000000080000010000000000000000000000000010000000000000000100000000000000000000040000100000040000000000000040000000020000000000000000000000000000000000000000000000004000000000000000000002000000000000000000000000000000000000000000000000000000000010000000000000000000000000000000000000000000000000002000000000","status":"0x1","transactionHash":"0xe198eacbdc07e4a559f93743d0174f8c0a846fb0fa1b1ddcfdea7e05ca5d8ea6"}}}