{"block":{"difficulty":"0x2","extraData":"0xd98301090a846765746889676f312e31352e3133856c696e75780000000000004768e3283b77b52f8d2b9ee9db287fcf5348184c7f3586e40cfdfc983050c2282ea45d0fd14ab843b6ccdf1fd2a71b0057f01c50f6181d63f2360f395421752900","gasLimit":"0x1c9c380","gasUsed":"0x2d8cb","hash":"0x1c29f4e3acabd578eb09e80938f1bf55a39ab4f4acb0e8f187b462c290e4c8fb","logsBloom":"0x00000008000000002000000000400000000000000000000000000000000000000400000000000000020000000040000000004000002000040080000000000000100000000000000000000008004000000000004000440000200000000000000000000000021000000002000000000800000000100000040000000010004810000010000000000000000000000000000100100000000000000000020000000400000001000000000000000000000000000000000000000000000000000040000000000002000000000000000000000000000000000000000000010002000020000000000000000000000000000000000000000020000000000000000000000000","miner":"0x0000000000000000000000000000000000000000","mixHash":"0x0000000000000000000000000000000000000000000000000000000000000000","nonce":"0x0000000000000000","number":"0xcff35b","parentHash":"0xbc54cec5c066d8f3ba7b794cebb7284fcafe71d5ddda904c635816143480071e","receiptsRoot":"0xa89920778648d38c8cd8cff29b20266336614895e7398d85ece37cbf11374e14","sha3Uncles":"0x1dcc4de8dec75d7aab85b567b6ccd41ad312451b948a7413f0a142fd40d49347","size":"0x538","stateRoot":"0x27871546c415c3f7617470e90bc716fed730f42a6a4a4fe33f9a7fd07554ca4a","timestamp":"0x6524372f","totalDifficulty":"0x19fe6b7","transactions":[{"blockHash":"0x1c29f4e3acabd578eb09e80938f1bf55a39ab4f4acb0e8f187b462c290e4c8fb","blockNumber":"0xcff35b","from":"0x940835a935acd498812f07918a15c5744d29a6a7","gas":"0x4d289","gasPrice":"0x2faf080","hash":"0x762af7b13f1bfc1aaab93560940dec5cc4294b357f6dce1e4b2ae550123babcd","index":"0xcff35a","input":"0xac9650d800000000000000000000000000000000000000000000000000000000000000200000000000000000000000000000000000000000000000000000000000000002000000000000000000000000000000000000000000000000000000000000004000000000000000000000000000000000000000000000000000000000000001a0000000000000000000000000000000000000000000000000000000000000012475ceafe6000000000000000000000000000000000000000000000000000000000000002000000000000000000000000000000000000000000000000000000000000000a0000000000000000000000000000000000000000000000000000000000000000000000000000000000000000000000000000000000000000000000000000000640000000000000000000000000000000000000000000000000000f0af5dfe4978000000000000000000000000000000000000000000000000000000006524396a000000000000000000000000000000000000000000000000000000000000002b09bc4e0d864854c6afb6eb9a9cdf58ac190d0df90001f478c1b0c915c4faa5fffa6cabf0219da63d7f4cb800000000000000000000000000000000000000000000000000000000000000000000000000000000000000000000000000000000000000000000000000000000000000000000000000000000000000004449404b7c0000000000000000000000000000000000000000000000000000000000000000000000000000000000000000940835a935acd498812f07918a15c5744d29a6a700000000000000000000000000000000000000000000000000000000","l1BlockNumber":"0x117744d","l1Timestamp":"0x6524372f","l1TxOrigin":null,"nonce":"0x30e","queueIndex":null,"queueOrigin":"sequencer","r":"0x21ff878d775690675544abf90927e9179e155cf09bc9fb6dbe8b9d7c049737e9","rawTransaction":"0xf902ce82030e8402faf0808304d2899425c030116feb2e7bba054b9de0915e5f51b03e3180b90264ac9650d800000000000000000000000000000000000000000000000000000000000000200000000000000000000000000000000000000000000000000000000000000002000000000000000000000000000000000000000000000000000000000000004000000000000000000000000000000000000000000000000000000000000001a0000000000000000000000000000000000000000000000000000000000000012475ceafe6000000000000000000000000000000000000000000000000000000000000002000000000000000000000000000000000000000000000000000000000000000a0000000000000000000000000000000000000000000000000000000000000000000000000000000000000000000000000000000000000000000000000000000640000000000000000000000000000000000000000000000000000f0af5dfe4978000000000000000000000000000000000000000000000000000000006524396a000000000000000000000000000000000000000000000000000000000000002b09bc4e0d864854c6afb6eb9a9cdf58ac190d0df90001f478c1b0c915c4faa5fffa6cabf0219da63d7f4cb800000000000000000000000000000000000000000000000000000000000000000000000000000000000000000000000000000000000000000000000000000000000000000000000000000000000000004449404b7c0000000000000000000000000000000000000000000000000000000000000000000000000000000000000000940835a935acd498812f07918a15c5744d29a6a700000000000000000000000000000000000000000000000000000000822733a021ff878d775690675544abf90927e9179e155cf09bc9fb6dbe8b9d7c049737e9a061756247b6817e51018355fed66f404c732134fd94b2606baa1ea56b6891b527","s":"0x61756247b6817e51018355fed66f404c732134fd94b2606baa1ea56b6891b527","to":"0x25c030116feb2e7bba054b9de0915e5f51b03e31","transactionIndex":"0x0","v":"0x2733","value":"0x0"}],"transactionsRoot":"0x8dd0e8e075b21163c3f3aa186b22b75d91332253eee71db48158f9bdc0e4bda7","uncles":[]},"receipts":{"0x762af7b13f1bfc1aaab93560940dec5cc4294b357f6dce1e4b2ae550123babcd":{"blockHash":"0x1c29f4e3acabd578eb09e80938f1bf55a39ab4f4acb0e8f187b462c290e4c8fb","blockNumber":"0xcff35b","from":"0x940835a935acd498812f07918a15c5744d29a6a7","gas":"0x4d289","gasPrice":"0x2faf080","hash":"0x762af7b13f1bfc1aaab93560940dec5cc4294b357f6dce1e4b2ae550123babcd","index":"0xcff35a","input":"0xac9650d800000000000000000000000000000000000000000000000000000000000000200000000000000000000000000000000000000000000000000000000000000002000000000000000000000000000000000000000000000000000000000000004000000000000000000000000000000000000000000000000000000000000001a0000000000000000000000000000000000000000000000000000000000000012475ceafe6000000000000000000000000000000000000000000000000000000000000002000000000000000000000000000000000000000000000000000000000000000a0000000000000000000000000000000000000000000000000000000000000000000000000000000000000000000000000000000000000000000000000000000640000000000000000000000000000000000000000000000000000f0af5dfe4978000000000000000000000000000000000000000000000000000000006524396a000000000000000000000000000000000000000000000000000000000000002b09bc4e0d864854c6afb6eb9a9cdf58ac190d0df90001f478c1b0c915c4faa5fffa6cabf0219da63d7f4cb800000000000000000000000000000000000000000000000000000000000000000000000000000000000000000000000000000000000000000000000000000000000000000000000000000000000000004449404b7c0000000000000000000000000000000000000000000000000000000000000000000000000000000000000000940835a935acd498812f07918a15c5744d29a6a700000000000000000000000000000000000000000000000000000000","l1BlockNumber":"0x117744d","l1Timestamp":"0x6524372f","l1TxOrigin":null,"nonce":"0x30e","queueIndex":null,"queueOrigin":"sequencer","r":"0x21ff878d775690675544abf90927e9179e155cf09bc9fb6dbe8b9d7c049737e9","rawTransaction":"0xf902ce82030e8402faf0808304d2899425c030116feb2e7bba054b9de0915e5f51b03e3180b90264ac9650d800000000000000000000000000000000000000000000000000000000000000200000000000000000000000000000000000000000000000000000000000000002000000000000000000000000000000000000000000000000000000000000004000000000000000000000000000000000000000000000000000000000000001a0000000000000000000000000000000000000000000000000000000000000012475ceafe6000000000000000000000000000000000000000000000000000000000000002000000000000000000000000000000000000000000000000000000000000000a0000000000000000000000000000000000000000000000000000000000000000000000000000000000000000000000000000000000000000000000000000000640000000000000000000000000000000000000000000000000000f0af5dfe4978000000000000000000000000000000000000000000000000000000006524396a000000000000000000000000000000000000000000000000000000000000002b09bc4e0d864854c6afb6eb9a9cdf58ac190d0df90001f478c1b0c915c4faa5fffa6cabf0219da63d7f4cb800000000000000000000000000000000000000000000000000000000000000000000000000000000000000000000000000000000000000000000000000000000000000000000000000000000000000004449404b7c0000000000000000000000000000000000000000000000000000000000000000000000000000000000000000940835a935acd498812f07918a15c5744d29a6a700000000000000000000000000000000000000000000000000000000822733a021ff878d775690675544abf90927e9179e155cf09bc9fb6dbe8b9d7c049737e9a061756247b6817e51018355fed66f404c732134fd94b2606baa1ea56b6891b527","s":"0x61756247b6817e51018355fed66f404c732134fd94b2606baa1ea56b6891b527","to":"0x25c030116feb2e7bba054b9de0915e5f51b03e31","transactionIndex":"0x0","v":"0x2733","value":"0x0","contractAddress":null,"cumulativeGasUsed":"0x2d8cb","daFee":"0x0","daGasPrice":"0x0","daGasUsed":"0x28c","gasUsed":"0x2d8cb","l1Fee":"0x1c5145ff7a866d0","l1FeeScalar":"1","l1GasPrice":"0x3f1249c65230","l1GasUsed":"0x72f","logs":[{"address":"0x78c1b0c915c4faa5fffa6cabf0219da63d7f4cb8","blockHash":"0x1c29f4e3acabd578eb09e80938f1bf55a39ab4f4acb0e8f187b462c290e4c8fb","blockNumber":"0xcff35b","data":"0x0000000000000000000000000000000000000000000000000000f1e4fdfbb49d","logIndex":"0x0","removed":false,"topics":["0xddf252ad1be2c89b69c2b068fc378daa952ba7f163c4a11628f55a4df523b3ef","0x0000000000000000000000008605c9d608a3f773b87fe1db5582ad35fe212144","0x00000000000000000000000025c030116feb2e7bba054b9de0915e5f51b03e31"],"transactionHash":"0x762af7b13f1bfc1aaab93560940dec5cc4294b357f6dce1e4b2ae550123babcd","transactionIndex":"0x0"},{"address":"0x09bc4e0d864854c6afb6eb9a9cdf58ac190d0df9","blockHash":"0x1c29f4e3acabd578eb09e80938f1bf55a39ab4f4acb0e8f187b462c290e4c8fb","blockNumber":"0xcff35b","data":"0x0000000000000000000000000000000000000000000000000000000000000064","logIndex":"0x1","removed":false,"topics":["0xddf252ad1be2c89b69c2b068fc378daa952ba7f163c4a11628f55a4df523b3ef","0x000000000000000000000000940835a935acd498812f07918a15c5744d29a6a7","0x0000000000000000000000008605c9d608a3f773b87fe1db5582ad35fe212144"],"transactionHash":"0x762af7b13f1bfc1aaab93560940dec5cc4294b357f6dce1e4b2ae550123babcd","transactionIndex":"0x0"},{"address":"0x8605c9d608a3f773b87fe1db5582ad35fe212144","blockHash":"0x1c29f4e3acabd578eb09e80938f1bf55a39ab4f4acb0e8f187b462c290e4c8fb","blockNumber":"0xcff35b","data":"0x000000000000000000000000000000000000000000000000000000000000000100000000000000000000000000000000000000000000000000000000000000640000000000000000000000000000000000000000000000000000f1e4fdfbb49d0000000000000000000000000000000000000000000000000000000000045dff","logIndex":"0x2","removed":false,"topics":["0x0fe977d619f8172f7fdbe8bb8928ef80952817d96936509f67d66346bc4cd10f","0x00000000000000000000000009bc4e0d864854c6afb6eb9a9cdf58ac190d0df9","0x00000000000000000000000078c1b0c915c4faa5fffa6cabf0219da63d7f4cb8","0x00000000000000000000000000000000000000000000000000000000000001f4"],"transactionHash":"0x762af7b13f1bfc1aaab93560940dec5cc4294b357f6dce1e4b2ae550123babcd","transactionIndex":"0x0"},{"address":"0x78c1b0c915c4faa5fffa6cabf0219da63d7f4cb8","blockHash":"0x1c29f4e3acabd578eb09e80938f1bf55a39ab4f4acb0e8f187b462c290e4c8fb","blockNumber":"0xcff35b","data":"0x0000000000000000000000000000000000000000000000000000f1e4fdfbb49d","logIndex":"0x3","removed":false,"topics":["0xddf252ad1be2c89b69c2b068fc378daa952ba7f163c4a11628f55a4df523b3ef","0x00000000000000000000000025c030116feb2e7bba054b9de0915e5f51b03e31","0x0000000000000000000000000000000000000000000000000000000000000000"],"transactionHash":"0x762af7b13f1bfc1aaab93560940dec5cc4294b357f6dce1e4b2ae550123babcd","transactionIndex":"0x0"},{"address":"0x78c1b0c915c4faa5fffa6cabf0219da63d7f4cb8","blockHash":"0x1c29f4e3acabd578eb09e80938f1bf55a39ab4f4acb0e8f187b462c290e4c8fb","blockNumber":"0xcff35b","data":"0x0000000000000000000000000000000000000000000000000000f1e4fdfbb49d","logIndex":"0x4","removed":false,"topics":["0x7fcf532c15f0a6db0bd6d0e038bea71d30d808c7d98cb3bf7268a95bf5081b65","0x00000000000000000000000025c030116feb2e7bba054b9de0915e5f51b03e31"],"transactionHash":"0x762af7b13f1bfc1aaab93560940dec5cc4294b357f6dce1e4b2ae550123babcd","transactionIndex":"0x0"}],"logsBloom":"0x00000008000000002000000000400000000000000000000000000000000000000400000000000000020000000040000000004000002000040080000000000000100000000000000000000008004000000000004000440000200000000000000000000000021000000002000000000800000000100000040000000010004810000010000000000000000000000000000100100000000000000000020000000400000001000000000000000000000000000000000000000000000000000040000000000002000000000000000000000000000000000000000000010002000020000000000000000000000000000000000000000020000000000000000000000000","status":"0x1","transactionHash":"0x762af7b13f1bfc1aaab93560940dec5cc4294b357f6dce1e4b2ae550123babcd"}}}