{"block":{"difficulty":"0x2","extraData":"0xd98301090a846765746889676f312e31352e3133856c696e7578000000000000789b8bae6aaf706bed7c0a9f7318f23293945ec9bdf14c03835eb61b6ebed38f4efdc04e422238bf659cf7efe0cf7b16ce04c2b8015f2ed422a25757c607196b00","gasLimit":"0x1c9c380","gasUsed":"0x1fc7c","hash":"0xe34cabe1fc528b14e397d4bc2d0db363900e6a2fb93326bf6092990a528e2c61","logsBloom":"0x0000010000000000000000000000000000004000000100880000000000000000000000000000000000000000000200000000000000200000000000000020000004800000004400000000000800000000000000c000002000000000000000000000000000000000000000000000010000000000102000800000000010000000000000000000000000000000000000000000000000000000000000000000000000020000000000000000000000000000000000000001000000000000000000000000000002000000000000000000000000002000000000000000000000000000000010000000000000000000000000000000000000000010000000000000000000","miner":"0x0000000000000000000000000000000000000000","mixHash":"0x0000000000000000000000000000000000000000000000000000000000000000","nonce":"0x0000000000000000","number":"0xd002c7","parentHash":"0xb54ceb6a9a83c170d48115980dfedbd2f67f181588a6d76ad19b4ebfced56003","receiptsRoot":"0x6328ed2d0b3014134a9eeb3fed4ff85f41a70f52f46ad8ee215d472cee9a0fd4","sha3Uncles":"0x1dcc4de8dec75d7aab85b567b6ccd41ad312451b948a7413f0a142fd40d49347","size":"0x3d8","stateRoot":"0xdd811ce02ae1a0115cabe92f09fec7c3d49e5e80e68fbfb54e42c207b8c12b85","timestamp":"0x65243e39","totalDifficulty":"0x1a0058f","transactions":[{"blockHash":"0xe34cabe1fc528b14e397d4bc2d0db363900e6a2fb93326bf6092990a528e2c61","blockNumber":"0xd002c7","from":"0x82f88e4508a8cc3e57a2ddc23015adc670ca5365","gas":"0x2147b","gasPrice":"0x2faf080","hash":"0x4790eec511e621ec6cf4313226762d2a06bb9d57ff962fc63761953a83ab039a","index":"0xd002c6","input":"0x414bf389000000000000000000000000201eba5cc46d216ce6dc03f6a759e8e766e956ae00000000000000000000000009bc4e0d864854c6afb6eb9a9cdf58ac190d0df9000000000000000000000000000000000000000000000000000000000000006400000000000000000000000082f88e4508a8cc3e57a2ddc23015adc670ca53650000000000000000000000000000000000000000000000000000000065243e5a0000000000000000000000000000000000000000000000000000000000111700000000000000000000000000000000000000000000000000000000000010c07d0000000000000000000000000000000000000000000000000000000000000000","l1BlockNumber":"0x11774e3","l1Timestamp":"0x65243e39","l1TxOrigin":null,"nonce":"0x906","queueIndex":null,"queueOrigin":"sequencer","r":"0x6c6180647df1e120bf8dd5d1f4f40cd06ecdaf0497b6056bde5f45b62332bfe","rawTransaction":"0xf9016e8209068402faf0808302147b94319b69888b0d11cec22caa5034e25fffbdc8842180b90104414bf389000000000000000000000000201eba5cc46d216ce6dc03f6a759e8e766e956ae00000000000000000000000009bc4e0d864854c6afb6eb9a9cdf58ac190d0df9000000000000000000000000000000000000000000000000000000000000006400000000000000000000000082f88e4508a8cc3e57a2ddc23015adc670ca53650000000000000000000000000000000000000000000000000000000065243e5a0000000000000000000000000000000000000000000000000000000000111700000000000000000000000000000000000000000000000000000000000010c07d0000000000000000000000000000000000000000000000000000000000000000822734a006c6180647df1e120bf8dd5d1f4f40cd06ecdaf0497b6056bde5f45b62332bfea060bf8e323918a917fa0e0d8573649c6899c19bc5895d1229d8f8c8419ec8869f","s":"0x60bf8e323918a917fa0e0d8573649c6899c19bc5895d1229d8f8c8419ec8869f","to":"0x319b69888b0d11cec22caa5034e25fffbdc88421","transactionIndex":"0x0","v":"0x2734","value":"0x0"}],"transactionsRoot":"0xd0306bf8aa30bf3b2621849f1a6665950d02402f00a66b3079f10ed229804d42","uncles":[]},"receipts":{"0x4790eec511e621ec6cf4313226762d2a06bb9d57ff962fc63761953a83ab039a":{"blockHash":"0xe34cabe1fc528b14e397d4bc2d0db363900e6a2fb93326bf6092990a528e2c61","blockNumber":"0xd002c7","from":"0x82f88e4508a8cc3e57a2ddc23015adc670ca5365","gas":"0x2147b","gasPrice":"0x2faf080","hash":"0x4790eec511e621ec6cf4313226762d2a06bb9d57ff962fc63761953a83ab039a","index":"0xd002c6","input":"0x414bf389000000000000000000000000201eba5cc46d216ce6dc03f6a759e8e766e956ae00000000000000000000000009bc4e0d864854c6afb6eb9a9cdf58ac190d0df9000000000000000000000000000000000000000000000000000000000000006400000000000000000000000082f88e4508a8cc3e57a2ddc23015adc670ca53650000000000000000000000000000000000000000000000000000000065243e5a0000000000000000000000000000000000000000000000000000000000111700000000000000000000000000000000000000000000000000000000000010c07d0000000000000000000000000000000000000000000000000000000000000000","l1BlockNumber":"0x11774e3","l1Timestamp":"0x65243e39","l1TxOrigin":null,"nonce":"0x906","queueIndex":null,"queueOrigin":"sequencer","r":"0x6c6180647df1e120bf8dd5d1f4f40cd06ecdaf0497b6056bde5f45b62332bfe","rawTransaction":"0xf9016e8209068402faf0808302147b94319b69888b0d11cec22caa5034e25fffbdc8842180b90104414bf389000000000000000000000000201eba5cc46d216ce6dc03f6a759e8e766e956ae00000000000000000000000009bc4e0d864854c6afb6eb9a9cdf58ac190d0df9000000000000000000000000000000000000000000000000000000000000006400000000000000000000000082f88e4508a8cc3e57a2ddc23015adc670ca53650000000000000000000000000000000000000000000000000000000065243e5a0000000000000000000000000000000000000000000000000000000000111700000000000000000000000000000000000000000000000000000000000010c07d0000000000000000000000000000000000000000000000000000000000000000822734a006c6180647df1e120bf8dd5d1f4f40cd06ecdaf0497b6056bde5f45b62332bfea060bf8e323918a917fa0e0d8573649c6899c19bc5895d1229d8f8c8419ec8869f","s":"0x60bf8e323918a917fa0e0d8573649c6899c19bc5895d1229d8f8c8419ec8869f","to":"0x319b69888b0d11cec22caa5034e25fffbdc88421","transactionIndex":"0x0","v":"0x2734","value":"0x0","contractAddress":null,"cumulativeGasUsed":"0x1fc7c","daFee":"0x0","daGasPrice":"0x0","daGasUsed":"0x12c","gasUsed":"0x1fc7c","l1Fee":"0x19709d787180660","l1FeeScalar":"1","l1GasPrice":"0x38a987f04864","l1GasUsed":"0x72f","logs":[{"address":"0x09bc4e0d864854c6afb6eb9a9cdf58ac190d0df9","blockHash":"0xe34cabe1fc528b14e397d4bc2d0db363900e6a2fb93326bf6092990a528e2c61","blockNumber":"0xd002c7","data":"0x0000000000000000000000000000000000000000000000000000000000111803","logIndex":"0x0","removed":false,"topics":["0xddf252ad1be2c89b69c2b068fc378daa952ba7f163c4a11628f55a4df523b3ef","0x0000000000000000000000006488f911c6cd86c289aa319c5a826dcf8f1ca065","0x00000000000000000000000082f88e4508a8cc3e57a2ddc23015adc670ca5365"],"transactionHash":"0x4790eec511e621ec6cf4313226762d2a06bb9d57ff962fc63761953a83ab039a","transactionIndex":"0x0"},{"address":"0x201eba5cc46d216ce6dc03f6a759e8e766e956ae","blockHash":"0xe34cabe1fc528b14e397d4bc2d0db363900e6a2fb93326bf6092990a528e2c61","blockNumber":"0xd002c7","data":"0x0000000000000000000000000000000000000000000000000000000000111700","logIndex":"0x1","removed":false,"topics":["0xddf252ad1be2c89b69c2b068fc378daa952ba7f163c4a11628f55a4df523b3ef","0x00000000000000000000000082f88e4508a8cc3e57a2ddc23015adc670ca5365","0x0000000000000000000000006488f911c6cd86c289aa319c5a826dcf8f1ca065"],"transactionHash":"0x4790eec511e621ec6cf4313226762d2a06bb9d57ff962fc63761953a83ab039a","transactionIndex":"0x0"},{"address":"0x201eba5cc46d216ce6dc03f6a759e8e766e956ae","blockHash":"0xe34cabe1fc528b14e397d4bc2d0db363900e6a2fb93326bf6092990a528e2c61","blockNumber":"0xd002c7","data":"0xffffffffffffffffffffffffffffffffffffffffffffffffffffffffc56ae62f","logIndex":"0x2","removed":false,"topics":["0x8c5be1e5ebec7d5bd14f71427d1e84f3dd0314c0f7b2291e5b200ac8c7c3b925","0x00000000000000000000000082f88e4508a8cc3e57a2ddc23015adc670ca5365","0x000000000000000000000000319b69888b0d11cec22caa5034e25fffbdc88421"],"transactionHash":"0x4790eec511e621ec6cf4313226762d2a06bb9d57ff962fc63761953a83ab039a","transactionIndex":"0x0"},{"address":"0x6488f911c6cd86c289aa319c5a826dcf8f1ca065","blockHash":"0xe34cabe1fc528b14e397d4bc2d0db363900e6a2fb93326bf6092990a528e2c61","blockNumber":"0xd002c7","data":"0xffffffffffffffffffffffffffffffffffffffffffffffffffffffffffeee7fd00000000000000000000000000000000000000000000000000000000001117000000000000000000000000000000000000000000fff521b4d3e215c0b082d13c0000000000000000000000000000000000000000000000000000aa91ae904e92fffffffffffffffffffffffffffffffffffffffffffffffffffffffffffffffc00000000000000000000000000000000000000000000000000000000000000000000000000000000000000000000000000000000000000000000000000000024","logIndex":"0x3","removed":false,"topics":["0x19b47279256b2a23a1665c810c8d55a1758940ee09377d4f8d26497a3577dc83","0x000000000000000000000000319b69888b0d11cec22caa5034e25fffbdc88421","0x00000000000000000000000082f88e4508a8cc3e57a2ddc23015adc670ca5365"],"transactionHash":"0x4790eec511e621ec6cf4313226762d2a06bb9d57ff962fc63761953a83ab039a","transactionIndex":"0x0"}],"logsBloom":"0x0000010000000000000000000000000000004000000100880000000000000000000000000000000000000000000200000000000000200000000000000020000004800000004400000000000800000000000000c000002000000000000000000000000000000000000000000000010000000000102000800000000010000000000000000000000000000000000000000000000000000000000000000000000000020000000000000000000000000000000000000001000000000000000000000000000002000000000000000000000000002000000000000000000000000000000010000000000000000000000000000000000000000010000000000000000000","status":"0x1","transactionHash":"0x4790eec511e621ec6cf4313226762d2a06bb9d57ff962fc63761953a83ab039a"}}}