{"block":{"difficulty":"0x2","extraData":"0xd98301090a846765746889676f312e31352e3133856c696e7578000000000000d0967005279736fe6014c349543c0d051d5e0e4aa006a467c49761300f36d1a94fbaa5dde58060a2b1e8bf011be048ddb1c891b3341517e2ac237125e9043b8f01","gasLimit":"0x1c9c380","gasUsed":"0x258b0","hash":"0xbf62fc55b71d8035d9ed8540c5f78cc6de2a9fb51d0322930eab424f23b34f64","logsBloom":"0x40000000000000000000080000000000000000000001008800000000000000000000000000000000000000000002000000000000000000000000000000200000840000000040000000000008000000000000008000002004000000000000000000000001000004000000000100000000000000000000000000000010000000000000000000000000000000000000000000000000000000000008000000000000020000000000000000000000000000000000000001000060000100000000000000000002000000000000000000000000000000000000000000000000000000000010000000001000000000000000000000000000000000000000000000000000","miner":"0x0000000000000000000000000000000000000000","mixHash":"0x0000000000000000000000000000000000000000000000000000000000000000","nonce":"0x0000000000000000","number":"0xd000d3","parentHash":"0x74fee3d7fde53061e2397295c7e2a4d7ce06f154a3c55ed37062be6624580802","receiptsRoot":"0xdb99039ff795d1779d5f66070e8e48fe7b958be38ef02f1dee6821bb5218b016","sha3Uncles":"0x1dcc4de8dec75d7aab85b567b6ccd41ad312451b948a7413f0a142fd40d49347","size":"0x3d8","stateRoot":"0x8006635503930fa809bae37d05e750bfc9f7ddc7f93a3692a938e87320b7b6e3","timestamp":"0x65243d2a","totalDifficulty":"0x1a001a7","transactions":[{"blockHash":"0xbf62fc55b71d8035d9ed8540c5f78cc6de2a9fb51d0322930eab424f23b34f64","blockNumber":"0xd000d3","from":"0x32b2ed1b441c9bae6f3935e98299f255d388335c","gas":"0x2722f","gasPrice":"0x2faf080","hash":"0xfea769e66a616663b9298da3e8a61a8346b93ba01c035fcd0fd127f5142e53bd","index":"0xd000d2","input":"0x414bf389000000000000000000000000201eba5cc46d216ce6dc03f6a759e8e766e956ae000000000000000000000000deaddeaddeaddeaddeaddeaddeaddeaddead111100000000000000000000000000000000000000000000000000000000000001f400000000000000000000000032b2ed1b441c9bae6f3935e98299f255d388335c0000000000000000000000000000000000000000000000000000000065243d490000000000000000000000000000000000000000000000000000000000177fa00000000000000000000000000000000000000000000000000003637d0108f3620000000000000000000000000000000000000000000000000000000000000000","l1BlockNumber":"0x11774cc","l1Timestamp":"0x65243d2a","l1TxOrigin":null,"nonce":"0xe2a","queueIndex":null,"queueOrigin":"sequencer","r":"0x1fad3b3867c2b13aff5fb68e1eb395a976dffd386d70f088f655225d71f8ebe4","rawTransaction":"0xf9016e820e2a8402faf0808302722f94319b69888b0d11cec22caa5034e25fffbdc8842180b90104414bf389000000000000000000000000201eba5cc46d216ce6dc03f6a759e8e766e956ae000000000000000000000000deaddeaddeaddeaddeaddeaddeaddeaddead111100000000000000000000000000000000000000000000000000000000000001f400000000000000000000000032b2ed1b441c9bae6f3935e98299f255d388335c0000000000000000000000000000000000000000000000000000000065243d490000000000000000000000000000000000000000000000000000000000177fa00000000000000000000000000000000000000000000000000003637d0108f3620000000000000000000000000000000000000000000000000000000000000000822734a01fad3b3867c2b13aff5fb68e1eb395a976dffd386d70f088f655225d71f8ebe4a03cfa05541b46828e911c8dccc3c26b18641df087720fb4e255925e6dee711e7b","s":"0x3cfa05541b46828e911c8dccc3c26b18641df087720fb4e255925e6dee711e7b","to":"0x319b69888b0d11cec22caa5034e25fffbdc88421","transactionIndex":"0x0","v":"0x2734","value":"0x0"}],"transactionsRoot":"0x5eac4517e871073949971ec04f85d48879b887676e4dc0431db63f8135968697","uncles":[]},"receipts":{"0xfea769e66a616663b9298da3e8a61a8346b93ba01c035fcd0fd127f5142e53bd":{"blockHash":"0xbf62fc55b71d8035d9ed8540c5f78cc6de2a9fb51d0322930eab424f23b34f64","blockNumber":"0xd000d3","from":"0x32b2ed1b441c9bae6f3935e98299f255d388335c","gas":"0x2722f","gasPrice":"0x2faf080","hash":"0xfea769e66a616663b9298da3e8a61a8346b93ba01c035fcd0fd127f5142e53bd","index":"0xd000d2","input":"0x414bf389000000000000000000000000201eba5cc46d216ce6dc03f6a759e8e766e956ae000000000000000000000000deaddeaddeaddeaddeaddeaddeaddeaddead111100000000000000000000000000000000000000000000000000000000000001f400000000000000000000000032b2ed1b441c9bae6f3935e98299f255d388335c0000000000000000000000000000000000000000000000000000000065243d490000000000000000000000000000000000000000000000000000000000177fa00000000000000000000000000000000000000000000000000003637d0108f3620000000000000000000000000000000000000000000000000000000000000000","l1BlockNumber":"0x11774cc","l1Timestamp":"0x65243d2a","l1TxOrigin":null,"nonce":"0xe2a","queueIndex":null,"queueOrigin":"sequencer","r":"0x1fad3b3867c2b13aff5fb68e1eb395a976dffd386d70f088f655225d71f8ebe4","rawTransaction":"0xf9016e820e2a8402faf0808302722f94319b69888b0d11cec22caa5034e25fffbdc8842180b90104414bf389000000000000000000000000201eba5cc46d216ce6dc03f6a759e8e766e956ae000000000000000000000000deaddeaddeaddeaddeaddeaddeaddeaddead111100000000000000000000000000000000000000000000000000000000000001f400000000000000000000000032b2ed1b441c9bae6f3935e98299f255d388335c0000000000000000000000000000000000000000000000000000000065243d490000000000000000000000000000000000000000000000000000000000177fa00000000000000000000000000000000000000000000000000003637d0108f3620000000000000000000000000000000000000000000000000000000000000000822734a01fad3b3867c2b13aff5fb68e1eb395a976dffd386d70f088f655225d71f8ebe4a03cfa05541b46828e911c8dccc3c26b18641df087720fb4e255925e6dee711e7b","s":"0x3cfa05541b46828e911c8dccc3c26b18641df087720fb4e255925e6dee711e7b","to":"0x319b69888b0d11cec22caa5034e25fffbdc88421","transactionIndex":"0x0","v":"0x2734","value":"0x0","contractAddress":null,"cumulativeGasUsed":"0x258b0","daFee":"0x0","daGasPrice":"0x0","daGasUsed":"0x12c","gasUsed":"0x258b0","l1Fee":"0x1a09f6380cb9fe0","l1FeeScalar":"1","l1GasPrice":"0x39ff1464e55c","l1GasUsed":"0x72f","logs":[{"address":"0xdeaddeaddeaddeaddeaddeaddeaddeaddead1111","blockHash":"0xbf62fc55b71d8035d9ed8540c5f78cc6de2a9fb51d0322930eab424f23b34f64","blockNumber":"0xd000d3","data":"0x0000000000000000000000000000000000000000000000000003753130139516","logIndex":"0x0","removed":false,"topics":["0xddf252ad1be2c89b69c2b068fc378daa952ba7f163c4a11628f55a4df523b3ef","0x000000000000000000000000628f7131cf43e88ebe3921ae78c4ba0c31872bd4","0x00000000000000000000000032b2ed1b441c9bae6f3935e98299f255d388335c"],"transactionHash":"0xfea769e66a616663b9298da3e8a61a8346b93ba01c035fcd0fd127f5142e53bd","transactionIndex":"0x0"},{"address":"0x201eba5cc46d216ce6dc03f6a759e8e766e956ae","blockHash":"0xbf62fc55b71d8035d9ed8540c5f78cc6de2a9fb51d0322930eab424f23b34f64","blockNumber":"0xd000d3","data":"0x0000000000000000000000000000000000000000000000000000000000177fa0","logIndex":"0x1","removed":false,"topics":["0xddf252ad1be2c89b69c2b068fc378daa952ba7f163c4a11628f55a4df523b3ef","0x00000000000000000000000032b2ed1b441c9bae6f3935e98299f255d388335c","0x000000000000000000000000628f7131cf43e88ebe3921ae78c4ba0c31872bd4"],"transactionHash":"0xfea769e66a616663b9298da3e8a61a8346b93ba01c035fcd0fd127f5142e53bd","transactionIndex":"0x0"},{"address":"0x201eba5cc46d216ce6dc03f6a759e8e766e956ae","blockHash":"0xbf62fc55b71d8035d9ed8540c5f78cc6de2a9fb51d0322930eab424f23b34f64","blockNumber":"0xd000d3","data":"0xffffffffffffffffffffffffffffffffffffffffffffffffffffffffa0f6518f","logIndex":"0x2","removed":false,"topics":["0x8c5be1e5ebec7d5bd14f71427d1e84f3dd0314c0f7b2291e5b200ac8c7c3b925","0x00000000000000000000000032b2ed1b441c9bae6f3935e98299f255d388335c","0x000000000000000000000000319b69888b0d11cec22caa5034e25fffbdc88421"],"transactionHash":"0xfea769e66a616663b9298da3e8a61a8346b93ba01c035fcd0fd127f5142e53bd","transactionIndex":"0x0"},{"address":"0x628f7131cf43e88ebe3921ae78c4ba0c31872bd4","blockHash":"0xbf62fc55b71d8035d9ed8540c5f78cc6de2a9fb51d0322930eab424f23b34f64","blockNumber":"0xd000d3","data":"0x0000000000000000000000000000000000000000000000000000000000177fa0fffffffffffffffffffffffffffffffffffffffffffffffffffc8acecfec6aea000000000000000000000000000000000000622fee074bc6e8ff82a0313b1c2f00000000000000000000000000000000000000000000000000002c65dde06c20000000000000000000000000000000000000000000000000000000000003179b00000000000000000000000000000000000000000000000000000000000001050000000000000000000000000000000000000000000000000000000000000000","logIndex":"0x3","removed":false,"topics":["0x19b47279256b2a23a1665c810c8d55a1758940ee09377d4f8d26497a3577dc83","0x000000000000000000000000319b69888b0d11cec22caa5034e25fffbdc88421","0x00000000000000000000000032b2ed1b441c9bae6f3935e98299f255d388335c"],"transactionHash":"0xfea769e66a616663b9298da3e8a61a8346b93ba01c035fcd0fd127f5142e53bd","transactionIndex":"0x0"}],"logsBloom":"0x40000000000000000000080000000000000000000001008800000000000000000000000000000000000000000002000000000000000000000000000000200000840000000040000000000008000000000000008000002004000000000000000000000001000004000000000100000000000000000000000000000010000000000000000000000000000000000000000000000000000000000008000000000000020000000000000000000000000000000000000001000060000100000000000000000002000000000000000000000000000000000000000000000000000000000010000000001000000000000000000000000000000000000000000000000000","status":"0x1","transactionHash":"0xfea769e66a616663b9298da3e8a61a8346b93ba01c035fcd0fd127f5142e53bd"}}}