{"block":{"difficulty":"0x2","extraData":"0xd98301090a846765746889676f312e31352e3133856c696e7578000000000000a6e567d7c1132e5eac7ec50f53b53720de78e94ec738c6fb9998afe83bda779c392ea54b12408c2885a1b58b11a1fa05c27282e57b065419f06eccc13f92a0a600","gasLimit":"0x1c9c380","gasUsed":"0x1e13f","hash":"0xd723e27b46f30d65dd7e6defeaf434ed29ae851dc3a7daa73fb83d79496effbc","logsBloom":"0x40000000000000000000000000000000000000000001008800000000000000000000000000000000000000000002000000000000000000000000000000200000840000000040000000000008000000000000008000002004000000000000000000000001000000000000000100000000000000000000000000000110000000000000000000000000000000000000000000000000000000000008000000000000020000000000000000000000000000000000008001000020000100000000000000000002000000000000000000000000000000000000000000000000000010000010000000001000000000000000000000000000000000000000000000000000","miner":"0x0000000000000000000000000000000000000000","mixHash":"0x0000000000000000000000000000000000000000000000000000000000000000","nonce":"0x0000000000000000","number":"0xd0037d","parentHash":"0xf4ee7f117caae131b32fa7dd8838515aad9f1a5dcf831ee8d2b20f012692dbbc","receiptsRoot":"0x6c8869937822097da92cd6becdcbf5e0239d0484fd06570db84c9b63ce5ac96d","sha3Uncles":"0x1dcc4de8dec75d7aab85b567b6ccd41ad312451b948a7413f0a142fd40d49347","size":"0x3d8","stateRoot":"0xec023f0847c91a0f0914ea68c0ceaea72533ac61b639a02d0d6927e563d28e36","timestamp":"0x65243e8a","totalDifficulty":"0x1a006fb","transactions":[{"blockHash":"0xd723e27b46f30d65dd7e6defeaf434ed29ae851dc3a7daa73fb83d79496effbc","blockNumber":"0xd0037d","from":"0x0a2978d382262946db8414ca80bc2064f3f3dfa4","gas":"0x1f8ce","gasPrice":"0x2faf080","hash":"0x6014f1f4e34449fb7f47d0cf7547fff491e642824259775732b7395dba9fd3b6","index":"0xd0037c","input":"0x414bf389000000000000000000000000deaddeaddeaddeaddeaddeaddeaddeaddead1111000000000000000000000000201eba5cc46d216ce6dc03f6a759e8e766e956ae00000000000000000000000000000000000000000000000000000000000001f40000000000000000000000000a2978d382262946db8414ca80bc2064f3f3dfa40000000000000000000000000000000000000000000000000000000065243ea8000000000000000000000000000000000000000000000000000194b9a2ecd00000000000000000000000000000000000000000000000000000000000000a9c600000000000000000000000000000000000000000000000000000000000000000","l1BlockNumber":"0x11774e9","l1Timestamp":"0x65243e8a","l1TxOrigin":null,"nonce":"0x988","queueIndex":null,"queueOrigin":"sequencer","r":"0x199ab851c6e20ef461f666e1eded8d5144e2f8bb7eda0a7b07d0bcf0b3359012","rawTransaction":"0xf9016e8209888402faf0808301f8ce94319b69888b0d11cec22caa5034e25fffbdc8842180b90104414bf389000000000000000000000000deaddeaddeaddeaddeaddeaddeaddeaddead1111000000000000000000000000201eba5cc46d216ce6dc03f6a759e8e766e956ae00000000000000000000000000000000000000000000000000000000000001f40000000000000000000000000a2978d382262946db8414ca80bc2064f3f3dfa40000000000000000000000000000000000000000000000000000000065243ea8000000000000000000000000000000000000000000000000000194b9a2ecd00000000000000000000000000000000000000000000000000000000000000a9c600000000000000000000000000000000000000000000000000000000000000000822733a0199ab851c6e20ef461f666e1eded8d5144e2f8bb7eda0a7b07d0bcf0b3359012a0576d2fae26e6e8ff4e1e6ba8539aabeefb64115a79aa6d983302b24516bdf502","s":"0x576d2fae26e6e8ff4e1e6ba8539aabeefb64115a79aa6d983302b24516bdf502","to":"0x319b69888b0d11cec22caa5034e25fffbdc88421","transactionIndex":"0x0","v":"0x2733","value":"0x0"}],"transactionsRoot":"0x1a3cee701e8a2daa4b1b9786dbcb6ab9653cf12c2c00f59674b6ef9f27fcbc6b","uncles":[]},"receipts":{"0x6014f1f4e34449fb7f47d0cf7547fff491e642824259775732b7395dba9fd3b6":{"blockHash":"0xd723e27b46f30d65dd7e6defeaf434ed29ae851dc3a7daa73fb83d79496effbc","blockNumber":"0xd0037d","from":"0x0a2978d382262946db8414ca80bc2064f3f3dfa4","gas":"0x1f8ce","gasPrice":"0x2faf080","hash":"0x6014f1f4e34449fb7f47d0cf7547fff491e642824259775732b7395dba9fd3b6","index":"0xd0037c","input":"0x414bf389000000000000000000000000deaddeaddeaddeaddeaddeaddeaddeaddead1111000000000000000000000000201eba5cc46d216ce6dc03f6a759e8e766e956ae00000000000000000000000000000000000000000000000000000000000001f40000000000000000000000000a2978d382262946db8414ca80bc2064f3f3dfa40000000000000000000000000000000000000000000000000000000065243ea8000000000000000000000000000000000000000000000000000194b9a2ecd00000000000000000000000000000000000000000000000000000000000000a9c600000000000000000000000000000000000000000000000000000000000000000","l1BlockNumber":"0x11774e9","l1Timestamp":"0x65243e8a","l1TxOrigin":null,"nonce":"0x988","queueIndex":null,"queueOrigin":"sequencer","r":"0x199ab851c6e20ef461f666e1eded8d5144e2f8bb7eda0a7b07d0bcf0b3359012","rawTransaction":"0xf9016e8209888402faf0808301f8ce94319b69888b0d11cec22caa5034e25fffbdc8842180b90104414bf389000000000000000000000000deaddeaddeaddeaddeaddeaddeaddeaddead1111000000000000000000000000201eba5cc46d216ce6dc03f6a759e8e766e956ae00000000000000000000000000000000000000000000000000000000000001f40000000000000000000000000a2978d382262946db8414ca80bc2064f3f3dfa40000000000000000000000000000000000000000000000000000000065243ea8000000000000000000000000000000000000000000000000000194b9a2ecd00000000000000000000000000000000000000000000000000000000000000a9c600000000000000000000000000000000000000000000000000000000000000000822733a0199ab851c6e20ef461f666e1eded8d5144e2f8bb7eda0a7b07d0bcf0b3359012a0576d2fae26e6e8ff4e1e6ba8539aabeefb64115a79aa6d983302b24516bdf502","s":"0x576d2fae26e6e8ff4e1e6ba8539aabeefb64115a79aa6d983302b24516bdf502","to":"0x319b69888b0d11cec22caa5034e25fffbdc88421","transactionIndex":"0x0","v":"0x2733","value":"0x0","contractAddress":null,"cumulativeGasUsed":"0x1e13f","daFee":"0x0","daGasPrice":"0x0","daGasUsed":"0x12c","gasUsed":"0x1e13f","l1Fee":"0x19709d787180660","l1FeeScalar":"1","l1GasPrice":"0x38a987f04864","l1GasUsed":"0x72f","logs":[{"address":"0x201eba5cc46d216ce6dc03f6a759e8e766e956ae","blockHash":"0xd723e27b46f30d65dd7e6defeaf434ed29ae851dc3a7daa73fb83d79496effbc","blockNumber":"0xd0037d","data":"0x00000000000000000000000000000000000000000000000000000000000ad3d0","logIndex":"0x0","removed":false,"topics":["0xddf252ad1be2c89b69c2b068fc378daa952ba7f163c4a11628f55a4df523b3ef","0x000000000000000000000000628f7131cf43e88ebe3921ae78c4ba0c31872bd4","0x0000000000000000000000000a2978d382262946db8414ca80bc2064f3f3dfa4"],"transactionHash":"0x6014f1f4e34449fb7f47d0cf7547fff491e642824259775732b7395dba9fd3b6","transactionIndex":"0x0"},{"address":"0xdeaddeaddeaddeaddeaddeaddeaddeaddead1111","blockHash":"0xd723e27b46f30d65dd7e6defeaf434ed29ae851dc3a7daa73fb83d79496effbc","blockNumber":"0xd0037d","data":"0x000000000000000000000000000000000000000000000000000194b9a2ecd000","logIndex":"0x1","removed":false,"topics":["0xddf252ad1be2c89b69c2b068fc378daa952ba7f163c4a11628f55a4df523b3ef","0x0000000000000000000000000a2978d382262946db8414ca80bc2064f3f3dfa4","0x000000000000000000000000628f7131cf43e88ebe3921ae78c4ba0c31872bd4"],"transactionHash":"0x6014f1f4e34449fb7f47d0cf7547fff491e642824259775732b7395dba9fd3b6","transactionIndex":"0x0"},{"address":"0xdeaddeaddeaddeaddeaddeaddeaddeaddead1111","blockHash":"0xd723e27b46f30d65dd7e6defeaf434ed29ae851dc3a7daa73fb83d79496effbc","blockNumber":"0xd0037d","data":"0xfffffffffffffffffffffffffffffffffffffffffffffffffd603c31bea52fff","logIndex":"0x2","removed":false,"topics":["0x8c5be1e5ebec7d5bd14f71427d1e84f3dd0314c0f7b2291e5b200ac8c7c3b925","0x0000000000000000000000000a2978d382262946db8414ca80bc2064f3f3dfa4","0x000000000000000000000000319b69888b0d11cec22caa5034e25fffbdc88421"],"transactionHash":"0x6014f1f4e34449fb7f47d0cf7547fff491e642824259775732b7395dba9fd3b6","transactionIndex":"0x0"},{"address":"0x628f7131cf43e88ebe3921ae78c4ba0c31872bd4","blockHash":"0xd723e27b46f30d65dd7e6defeaf434ed29ae851dc3a7daa73fb83d79496effbc","blockNumber":"0xd0037d","data":"0xfffffffffffffffffffffffffffffffffffffffffffffffffffffffffff52c30000000000000000000000000000000000000000000000000000194b9a2ecd00000000000000000000000000000000000000061d0d0e3a2efd74334170f224a8900000000000000000000000000000000000000000000000000002c65dde06c20000000000000000000000000000000000000000000000000000000000003174f0000000000000000000000000000000000000000000000000000000000000000000000000000000000000000000000000000000000000000000000119d176480","logIndex":"0x3","removed":false,"topics":["0x19b47279256b2a23a1665c810c8d55a1758940ee09377d4f8d26497a3577dc83","0x000000000000000000000000319b69888b0d11cec22caa5034e25fffbdc88421","0x0000000000000000000000000a2978d382262946db8414ca80bc2064f3f3dfa4"],"transactionHash":"0x6014f1f4e34449fb7f47d0cf7547fff491e642824259775732b7395dba9fd3b6","transactionIndex":"0x0"}],"logsBloom":"0x40000000000000000000000000000000000000000001008800000000000000000000000000000000000000000002000000000000000000000000000000200000840000000040000000000008000000000000008000002004000000000000000000000001000000000000000100000000000000000000000000000110000000000000000000000000000000000000000000000000000000000008000000000000020000000000000000000000000000000000008001000020000100000000000000000002000000000000000000000000000000000000000000000000000010000010000000001000000000000000000000000000000000000000000000000000","status":"0x1","transactionHash":"0x6014f1f4e34449fb7f47d0cf7547fff491e642824259775732b7395dba9fd3b6"}}}