{"block":{"difficulty":"0x2","extraData":"0xd98301090a846765746889676f312e31352e3133856c696e75780000000000006356fd5d63b15dd7f6c6968fdf5ba2700fea11100ae1ba60badf36c3425cbc2125bdad23c9519f3a531bf027c77a63b64f6d4c9630e5b0f9da122051b6df7a5600","gasLimit":"0x1c9c380","gasUsed":"0x5208","hash":"0x75d4325c25dc2e70673abbf6dfd5d3e7eb15739c7a886c35efa7f0179c7e4b20","logsBloom":"0x00000000000000000000000000000000000000000000000000000000000000000000000000000000000000000000000000000000000000000000000000000000000000000000000000000000000000000000000000000000000000000000000000000000000000000000000000000000000000000000000000000000000000000000000000000000000000000000000000000000000000000000000000000000000000000000000000000000000000000000000000000000000000000000000000000000000000000000000000000000000000000000000000000000000000000000000000000000000000000000000000000000000000000000000000000000","miner":"0x0000000000000000000000000000000000000000","mixHash":"0x0000000000000000000000000000000000000000000000000000000000000000","nonce":"0x0000000000000000","number":"0xd000f5","parentHash":"0xdb976640551862ef239f6a72b3c63a627fb3bb401e5b71f2808dde9c37a7f59e","receiptsRoot":"0x056b23fbba480696b65fe5a59b8f2148a1299103c4f57df839233af2cf4ca2d2","sha3Uncles":"0x1dcc4de8dec75d7aab85b567b6ccd41ad312451b948a7413f0a142fd40d49347","size":"0x2d8","stateRoot":"0x5a272fa155eeeed62141ac3156e4dcbcb46fa72c502be76a9cebac0a96c24ef3","timestamp":"0x65243d3a","totalDifficulty":"0x1a001eb","transactions":[{"blockHash":"0x75d4325c25dc2e70673abbf6dfd5d3e7eb15739c7a886c35efa7f0179c7e4b20","blockNumber":"0xd000f5","from":"0xf89d7b9c864f589bbf53a82105107622b35eaa40","gas":"0x15f90","gasPrice":"0x2faf080","hash":"0xc7c43628c9b9f46794790857056add4a5be3214e2bc4bd9c27ea3e572201f213","index":"0xd000f4","input":"0x","l1BlockNumber":"0x11774cd","l1Timestamp":"0x65243d3a","l1TxOrigin":null,"nonce":"0x161ed","queueIndex":null,"queueOrigin":"sequencer","r":"0x79e438854efd19ead438949947a027fb2cf9251452af779c247a511db33eeebb","rawTransaction":"0xf871830161ed8402faf08083015f9094093b76d1f00c6a3f07381fb59da31dcd12206df48806f05b59d3b2000080822734a079e438854efd19ead438949947a027fb2cf9251452af779c247a511db33eeebba07fc7001fe0ae75a9cbeecefd81aa6e06b3321e05cb4a915259cf9cc6ce5e5bc0","s":"0x7fc7001fe0ae75a9cbeecefd81aa6e06b3321e05cb4a915259cf9cc6ce5e5bc0","to":"0x093b76d1f00c6a3f07381fb59da31dcd12206df4","transactionIndex":"0x0","v":"0x2734","value":"0x6f05b59d3b20000"}],"transactionsRoot":"0xc99d0e9d629269e383856de96c44d743bdb36bff4ea23f778ec549f81e70c2b8","uncles":[]},"receipts":{"0xc7c43628c9b9f46794790857056add4a5be3214e2bc4bd9c27ea3e572201f213":{"blockHash":"0x75d4325c25dc2e70673abbf6dfd5d3e7eb15739c7a886c35efa7f0179c7e4b20","blockNumber":"0xd000f5","from":"0xf89d7b9c864f589bbf53a82105107622b35eaa40","gas":"0x15f90","gasPrice":"0x2faf080","hash":"0xc7c43628c9b9f46794790857056add4a5be3214e2bc4bd9c27ea3e572201f213","index":"0xd000f4","input":"0x","l1BlockNumber":"0x11774cd","l1Timestamp":"0x65243d3a","l1TxOrigin":null,"nonce":"0x161ed","queueIndex":null,"queueOrigin":"sequencer","r":"0x79e438854efd19ead438949947a027fb2cf9251452af779c247a511db33eeebb","rawTransaction":"0xf871830161ed8402faf08083015f9094093b76d1f00c6a3f07381fb59da31dcd12206df48806f05b59d3b2000080822734a079e438854efd19ead438949947a027fb2cf9251452af779c247a511db33eeebba07fc7001fe0ae75a9cbeecefd81aa6e06b3321e05cb4a915259cf9cc6ce5e5bc0","s":"0x7fc7001fe0ae75a9cbeecefd81aa6e06b3321e05cb4a915259cf9cc6ce5e5bc0","to":"0x093b76d1f00c6a3f07381fb59da31dcd12206df4","transactionIndex":"0x0","v":"0x2734","value":"0x6f05b59d3b20000","contractAddress":null,"cumulativeGasUsed":"0x5208","daFee":"0x0","daGasPrice":"0x0","daGasUsed":"0x2d","gasUsed":"0x5208","l1Fee":"0x1a09f6380cb9fe0","l1FeeScalar":"1","l1GasPrice":"0x39ff1464e55c","l1GasUsed":"0x72f","logs":[],"logsBloom":"0x00000000000000000000000000000000000000000000000000000000000000000000000000000000000000000000000000000000000000000000000000000000000000000000000000000000000000000000000000000000000000000000000000000000000000000000000000000000000000000000000000000000000000000000000000000000000000000000000000000000000000000000000000000000000000000000000000000000000000000000000000000000000000000000000000000000000000000000000000000000000000000000000000000000000000000000000000000000000000000000000000000000000000000000000000000000","status":"0x1","transactionHash":"0xc7c43628c9b9f46794790857056add4a5be3214e2bc4bd9c27ea3e572201f213"}}}