{"block":{"difficulty":"0x2","extraData":"0xd98301090a846765746889676f312e31352e3133856c696e75780000000000007cd403b8576237e9a6752f38bdbca7f575378d1de0184fc83fd73d4d90958a3f08a12ec1d79a1295ee514f884c8e4db55e7ca226dd408921c9d75056d5b21d5001","gasLimit":"0x1c9c380","gasUsed":"0x1d02d","hash":"0x06a32149984f8d09962dbe871e522da56ae95f756ec6ed04366dd5c79eee726a","logsBloom":"0x00000000000000000000000000000000000000000001008800000000000000000004000000000000000000000002000000000000000000000000000000200000140000000040000000000008000000000000008000042000000200000000000000000400000000000000000000000080000000000000000000000010000000000000000000000000000000000000000000100000000000000000000000000040020000002000000000000000000200000000000001000000000000000000000000000002000000000000000000000000000000000000000000000010000000000010000000000000000000000000000000000000000000000000000000000000","miner":"0x0000000000000000000000000000000000000000","mixHash":"0x0000000000000000000000000000000000000000000000000000000000000000","nonce":"0x0000000000000000","number":"0xcff36b","parentHash":"0x360bacd20af3f3b092d2e71481f455418ca140ba40225ca2809c5db2a512434a","receiptsRoot":"0x37f0a4ce3b7316196ee7d7a13e9226b8097a2cb22626bac53bef54de31677b70","sha3Uncles":"0x1dcc4de8dec75d7aab85b567b6ccd41ad312451b948a7413f0a142fd40d49347","size":"0x3d8","stateRoot":"0xf088a0329fc3df57ad0c37c4f5e29fda725a47d33c66d2b6d96921adf4adeae8","timestamp":"0x65243734","totalDifficulty":"0x19fe6d7","transactions":[{"blockHash":"0x06a32149984f8d09962dbe871e522da56ae95f756ec6ed04366dd5c79eee726a","blockNumber":"0xcff36b","from":"0x7060bb5e0e1a08a2a9039d3134b29fc412c03d98","gas":"0x1e781","gasPrice":"0x2faf080","hash":"0x936b53f630e10cd68e468487a45d1255caec8c52590c1e8fa293166d891c692e","index":"0xcff36a","input":"0x414bf389000000000000000000000000201eba5cc46d216ce6dc03f6a759e8e766e956ae00000000000000000000000078c1b0c915c4faa5fffa6cabf0219da63d7f4cb800000000000000000000000000000000000000000000000000000000000001f40000000000000000000000007060bb5e0e1a08a2a9039d3134b29fc412c03d98000000000000000000000000000000000000000000000000000000006524375600000000000000000000000000000000000000000000000000000000000ecd100000000000000000000000000000000000000000000000002379782ce1d9e8980000000000000000000000000000000000000000000000000000000000000000","l1BlockNumber":"0x117744d","l1Timestamp":"0x65243734","l1TxOrigin":null,"nonce":"0x6be","queueIndex":null,"queueOrigin":"sequencer","r":"0x84dc4ab6ad1767be4922db73102872a4f538d859e53a74b1dac783f44fc02009","rawTransaction":"0xf9016e8206be8402faf0808301e78194319b69888b0d11cec22caa5034e25fffbdc8842180b90104414bf389000000000000000000000000201eba5cc46d216ce6dc03f6a759e8e766e956ae00000000000000000000000078c1b0c915c4faa5fffa6cabf0219da63d7f4cb800000000000000000000000000000000000000000000000000000000000001f40000000000000000000000007060bb5e0e1a08a2a9039d3134b29fc412c03d98000000000000000000000000000000000000000000000000000000006524375600000000000000000000000000000000000000000000000000000000000ecd100000000000000000000000000000000000000000000000002379782ce1d9e8980000000000000000000000000000000000000000000000000000000000000000822734a084dc4ab6ad1767be4922db73102872a4f538d859e53a74b1dac783f44fc02009a00352294851ded05522adc54d7eb93934161b16d3967f8040c13221f0ceed7c9f","s":"0x352294851ded05522adc54d7eb93934161b16d3967f8040c13221f0ceed7c9f","to":"0x319b69888b0d11cec22caa5034e25fffbdc88421","transactionIndex":"0x0","v":"0x2734","value":"0x0"}],"transactionsRoot":"0xfc970e3f3ca928bbbf9f0c29a56ff6e85a527ef99ee3532f19502fd512a78a3a","uncles":[]},"receipts":{"0x936b53f630e10cd68e468487a45d1255caec8c52590c1e8fa293166d891c692e":{"blockHash":"0x06a32149984f8d09962dbe871e522da56ae95f756ec6ed04366dd5c79eee726a","blockNumber":"0xcff36b","from":"0x7060bb5e0e1a08a2a9039d3134b29fc412c03d98","gas":"0x1e781","gasPrice":"0x2faf080","hash":"0x936b53f630e10cd68e468487a45d1255caec8c52590c1e8fa293166d891c692e","index":"0xcff36a","input":"0x414bf389000000000000000000000000201eba5cc46d216ce6dc03f6a759e8e766e956ae00000000000000000000000078c1b0c915c4faa5fffa6cabf0219da63d7f4cb800000000000000000000000000000000000000000000000000000000000001f40000000000000000000000007060bb5e0e1a08a2a9039d3134b29fc412c03d98000000000000000000000000000000000000000000000000000000006524375600000000000000000000000000000000000000000000000000000000000ecd100000000000000000000000000000000000000000000000002379782ce1d9e8980000000000000000000000000000000000000000000000000000000000000000","l1BlockNumber":"0x117744d","l1Timestamp":"0x65243734","l1TxOrigin":null,"nonce":"0x6be","queueIndex":null,"queueOrigin":"sequencer","r":"0x84dc4ab6ad1767be4922db73102872a4f538d859e53a74b1dac783f44fc02009","rawTransaction":"0xf9016e8206be8402faf0808301e78194319b69888b0d11cec22caa5034e25fffbdc8842180b90104414bf389000000000000000000000000201eba5cc46d216ce6dc03f6a759e8e766e956ae00000000000000000000000078c1b0c915c4faa5fffa6cabf0219da63d7f4cb800000000000000000000000000000000000000000000000000000000000001f40000000000000000000000007060bb5e0e1a08a2a9039d3134b29fc412c03d98000000000000000000000000000000000000000000000000000000006524375600000000000000000000000000000000000000000000000000000000000ecd100000000000000000000000000000000000000000000000002379782ce1d9e8980000000000000000000000000000000000000000000000000000000000000000822734a084dc4ab6ad1767be4922db73102872a4f538d859e53a74b1dac783f44fc02009a00352294851ded05522adc54d7eb93934161b16d3967f8040c13221f0ceed7c9f","s":"0x352294851ded05522adc54d7eb93934161b16d3967f8040c13221f0ceed7c9f","to":"0x319b69888b0d11cec22caa5034e25fffbdc88421","transactionIndex":"0x0","v":"0x2734","value":"0x0","contractAddress":null,"cumulativeGasUsed":"0x1d02d","daFee":"0x0","daGasPrice":"0x0","daGasUsed":"0x12c","gasUsed":"0x1d02d","l1Fee":"0x1c5145ff7a866d0","l1FeeScalar":"1","l1GasPrice":"0x3f1249c65230","l1GasUsed":"0x72f","logs":[{"address":"0x78c1b0c915c4faa5fffa6cabf0219da63d7f4cb8","blockHash":"0x06a32149984f8d09962dbe871e522da56ae95f756ec6ed04366dd5c79eee726a","blockNumber":"0xcff36b","data":"0x0000000000000000000000000000000000000000000000002432ce383f46d872","logIndex":"0x0","removed":false,"topics":["0xddf252ad1be2c89b69c2b068fc378daa952ba7f163c4a11628f55a4df523b3ef","0x000000000000000000000000d08c50f7e69e9aeb2867deff4a8053d9a855e26a","0x0000000000000000000000007060bb5e0e1a08a2a9039d3134b29fc412c03d98"],"transactionHash":"0x936b53f630e10cd68e468487a45d1255caec8c52590c1e8fa293166d891c692e","transactionIndex":"0x0"},{"address":"0x201eba5cc46d216ce6dc03f6a759e8e766e956ae","blockHash":"0x06a32149984f8d09962dbe871e522da56ae95f756ec6ed04366dd5c79eee726a","blockNumber":"0xcff36b","data":"0x00000000000000000000000000000000000000000000000000000000000ecd10","logIndex":"0x1","removed":false,"topics":["0xddf252ad1be2c89b69c2b068fc378daa952ba7f163c4a11628f55a4df523b3ef","0x0000000000000000000000007060bb5e0e1a08a2a9039d3134b29fc412c03d98","0x000000000000000000000000d08c50f7e69e9aeb2867deff4a8053d9a855e26a"],"transactionHash":"0x936b53f630e10cd68e468487a45d1255caec8c52590c1e8fa293166d891c692e","transactionIndex":"0x0"},{"address":"0x201eba5cc46d216ce6dc03f6a759e8e766e956ae","blockHash":"0x06a32149984f8d09962dbe871e522da56ae95f756ec6ed04366dd5c79eee726a","blockNumber":"0xcff36b","data":"0xffffffffffffffffffffffffffffffffffffffffffffffffffffffffd4a5fa3f","logIndex":"0x2","removed":false,"topics":["0x8c5be1e5ebec7d5bd14f71427d1e84f3dd0314c0f7b2291e5b200ac8c7c3b925","0x0000000000000000000000007060bb5e0e1a08a2a9039d3134b29fc412c03d98","0x000000000000000000000000319b69888b0d11cec22caa5034e25fffbdc88421"],"transactionHash":"0x936b53f630e10cd68e468487a45d1255caec8c52590c1e8fa293166d891c692e","transactionIndex":"0x0"},{"address":"0xd08c50f7e69e9aeb2867deff4a8053d9a855e26a","blockHash":"0x06a32149984f8d09962dbe871e522da56ae95f756ec6ed04366dd5c79eee726a","blockNumber":"0xcff36b","data":"0x00000000000000000000000000000000000000000000000000000000000ecd10ffffffffffffffffffffffffffffffffffffffffffffffffdbcd31c7c0b9278e00000000000000000000000000000000001906f03d2067780b176d3e49122c24000000000000000000000000000000000000000000000000004794f35730b3980000000000000000000000000000000000000000000000000000000000045e0c00000000000000000000000000000000000000000000000000000000000000a40000000000000000000000000000000000000000000000000000000000000000","logIndex":"0x3","removed":false,"topics":["0x19b47279256b2a23a1665c810c8d55a1758940ee09377d4f8d26497a3577dc83","0x000000000000000000000000319b69888b0d11cec22caa5034e25fffbdc88421","0x0000000000000000000000007060bb5e0e1a08a2a9039d3134b29fc412c03d98"],"transactionHash":"0x936b53f630e10cd68e468487a45d1255caec8c52590c1e8fa293166d891c692e","transactionIndex":"0x0"}],"logsBloom":"0x00000000000000000000000000000000000000000001008800000000000000000004000000000000000000000002000000000000000000000000000000200000140000000040000000000008000000000000008000042000000200000000000000000400000000000000000000000080000000000000000000000010000000000000000000000000000000000000000000100000000000000000000000000040020000002000000000000000000200000000000001000000000000000000000000000002000000000000000000000000000000000000000000000010000000000010000000000000000000000000000000000000000000000000000000000000","status":"0x1","transactionHash":"0x936b53f630e10cd68e468487a45d1255caec8c52590c1e8fa293166d891c692e"}}}