{"block":{"difficulty":"0x2","extraData":"0xd98301090a846765746889676f312e31352e3133856c696e75780000000000008500af2ca6b25624e2bfa4991b5ea7f53c41fcb6801ae196817450145bcb97cb6c8712d274bac4e292d892b036cbb60b2a1270027105239a4a3856337ac618ff00","gasLimit":"0x1c9c380","gasUsed":"0x5208","hash":"0x1b4b7faf78c8a1495281618575d0eb08faffbe18b30afee0e5e36aafb02194aa","logsBloom":"0x00000000000000000000000000000000000000000000000000000000000000000000000000000000000000000000000000000000000000000000000000000000000000000000000000000000000000000000000000000000000000000000000000000000000000000000000000000000000000000000000000000000000000000000000000000000000000000000000000000000000000000000000000000000000000000000000000000000000000000000000000000000000000000000000000000000000000000000000000000000000000000000000000000000000000000000000000000000000000000000000000000000000000000000000000000000","miner":"0x0000000000000000000000000000000000000000","mixHash":"0x0000000000000000000000000000000000000000000000000000000000000000","nonce":"0x0000000000000000","number":"0xd002d6","parentHash":"0x0efd6ccc9d1f796b54a97b7372e0e9a32655f8bc73a3d0580508a95c3e4c2910","receiptsRoot":"0x056b23fbba480696b65fe5a59b8f2148a1299103c4f57df839233af2cf4ca2d2","sha3Uncles":"0x1dcc4de8dec75d7aab85b567b6ccd41ad312451b948a7413f0a142fd40d49347","size":"0x2d8","stateRoot":"0x62ac989846cbfdbf630a34a5d330396efb04046c59030bef7eee5e05ef54f096","timestamp":"0x65243e43","totalDifficulty":"0x1a005ad","transactions":[{"blockHash":"0x1b4b7faf78c8a1495281618575d0eb08faffbe18b30afee0e5e36aafb02194aa","blockNumber":"0xd002d6","from":"0xf89d7b9c864f589bbf53a82105107622b35eaa40","gas":"0x15f90","gasPrice":"0x2faf080","hash":"0x50bcabfa14781c40289f12ea0abf5da8c89109f1e9d90e94dab2a6ac74e51237","index":"0xd002d5","input":"0x","l1BlockNumber":"0x11774e3","l1Timestamp":"0x65243e43","l1TxOrigin":null,"nonce":"0x161f0","queueIndex":null,"queueOrigin":"sequencer","r":"0xf2e79324f99a4867efbc3fa4eae61cd75a7ee7b906ad0d65f8d783a65ff6ffaf","rawTransaction":"0xf871830161f08402faf08083015f90949845a23fa44fa212600c308701c1c86d6b5c599c8829a2241af62c000080822733a0f2e79324f99a4867efbc3fa4eae61cd75a7ee7b906ad0d65f8d783a65ff6ffafa0537993892c25cb6c3f4d51172da3f2910e769540a8666b58358f3497ead15b3c","s":"0x537993892c25cb6c3f4d51172da3f2910e769540a8666b58358f3497ead15b3c","to":"0x9845a23fa44fa212600c308701c1c86d6b5c599c","transactionIndex":"0x0","v":"0x2733","value":"0x29a2241af62c0000"}],"transactionsRoot":"0x984a2b4b6ca611eb2306250c1ca46eaaa34ce2eddfceb3fbbca22cbc488dd8c0","uncles":[]},"receipts":{"0x50bcabfa14781c40289f12ea0abf5da8c89109f1e9d90e94dab2a6ac74e51237":{"blockHash":"0x1b4b7faf78c8a1495281618575d0eb08faffbe18b30afee0e5e36aafb02194aa","blockNumber":"0xd002d6","from":"0xf89d7b9c864f589bbf53a82105107622b35eaa40","gas":"0x15f90","gasPrice":"0x2faf080","hash":"0x50bcabfa14781c40289f12ea0abf5da8c89109f1e9d90e94dab2a6ac74e51237","index":"0xd002d5","input":"0x","l1BlockNumber":"0x11774e3","l1Timestamp":"0x65243e43","l1TxOrigin":null,"nonce":"0x161f0","queueIndex":null,"queueOrigin":"sequencer","r":"0xf2e79324f99a4867efbc3fa4eae61cd75a7ee7b906ad0d65f8d783a65ff6ffaf","rawTransaction":"0xf871830161f08402faf08083015f90949845a23fa44fa212600c308701c1c86d6b5c599c8829a2241af62c000080822733a0f2e79324f99a4867efbc3fa4eae61cd75a7ee7b906ad0d65f8d783a65ff6ffafa0537993892c25cb6c3f4d51172da3f2910e769540a8666b58358f3497ead15b3c","s":"0x537993892c25cb6c3f4d51172da3f2910e769540a8666b58358f3497ead15b3c","to":"0x9845a23fa44fa212600c308701c1c86d6b5c599c","transactionIndex":"0x0","v":"0x2733","value":"0x29a2241af62c0000","contractAddress":null,"cumulativeGasUsed":"0x5208","daFee":"0x0","daGasPrice":"0x0","daGasUsed":"0x2d","gasUsed":"0x5208","l1Fee":"0x19709d787180660","l1FeeScalar":"1","l1GasPrice":"0x38a987f04864","l1GasUsed":"0x72f","logs":[],"logsBloom":"0x00000000000000000000000000000000000000000000000000000000000000000000000000000000000000000000000000000000000000000000000000000000000000000000000000000000000000000000000000000000000000000000000000000000000000000000000000000000000000000000000000000000000000000000000000000000000000000000000000000000000000000000000000000000000000000000000000000000000000000000000000000000000000000000000000000000000000000000000000000000000000000000000000000000000000000000000000000000000000000000000000000000000000000000000000000000","status":"0x1","transactionHash":"0x50bcabfa14781c40289f12ea0abf5da8c89109f1e9d90e94dab2a6ac74e51237"}}}