{"block":{"difficulty":"0x2","extraData":"0xd98301090a846765746889676f312e31352e3133856c696e757800000000000091b607d5301b7642b3d7bf4003ddd9abe36b1748236fc4587c8719855bf64ce7453bcda136fe89224751fbe442a928f55bab345473c301ac72c2ca91b9a02ad300","gasLimit":"0x1c9c380","gasUsed":"0x1e23d","hash":"0x091ee9757c69d3f0b5926d4ece4e455a00fe5fbc44a4590f2b60b6233bc4e6d2","logsBloom":"0x40000000000000000000000000000000000000000001008800000000000000000000000000000000000000000002000000000000000000000000000000200000840000000040000000000008000000000000008000002004000000000000000000000401000000000000000100000000000000000000000000000010000000000000000000000000000000000000000000000000000000000008000000000000020000000000000000000000000010000000000001000020000100000000000000000002008000000000000000000000000000000000000000000000000000000010000000001000000000000000000000000000000000000000000000000000","miner":"0x0000000000000000000000000000000000000000","mixHash":"0x0000000000000000000000000000000000000000000000000000000000000000","nonce":"0x0000000000000000","number":"0xd002bb","parentHash":"0x7951ddd1b0c59712dc2367da0a5133ef7ffe5136797ad37020e7a120786be266","receiptsRoot":"0xd9d25ce7b715c58c54c4459a178b153de6314ce5ef1894a0f113f200c3e8b007","sha3Uncles":"0x1dcc4de8dec75d7aab85b567b6ccd41ad312451b948a7413f0a142fd40d49347","size":"0x3d8","stateRoot":"0x2ddabf481c78c9279d021c9d8a25603993e9f6b58cedb4aeda5680e9781e9164","timestamp":"0x65243e34","totalDifficulty":"0x1a00577","transactions":[{"blockHash":"0x091ee9757c69d3f0b5926d4ece4e455a00fe5fbc44a4590f2b60b6233bc4e6d2","blockNumber":"0xd002bb","from":"0x9f6b90543037cb311fc8b3997c8da9315be84680","gas":"0x1f9da","gasPrice":"0x2faf080","hash":"0xb3c7a0bce72f0b879728dbbdd0f0d2978ed57e7bca9c4bdd63fbe812733a773d","index":"0xd002ba","input":"0x414bf389000000000000000000000000201eba5cc46d216ce6dc03f6a759e8e766e956ae000000000000000000000000deaddeaddeaddeaddeaddeaddeaddeaddead111100000000000000000000000000000000000000000000000000000000000001f40000000000000000000000009f6b90543037cb311fc8b3997c8da9315be846800000000000000000000000000000000000000000000000000000000065243e520000000000000000000000000000000000000000000000000000000000102ca00000000000000000000000000000000000000000000000000002532bfda4030c0000000000000000000000000000000000000000000000000000000000000000","l1BlockNumber":"0x11774e2","l1Timestamp":"0x65243e34","l1TxOrigin":null,"nonce":"0xee1","queueIndex":null,"queueOrigin":"sequencer","r":"0x7ea91c831805e5ad97e44d117b02bea60bc67caae459f58499841b68bda009af","rawTransaction":"0xf9016e820ee18402faf0808301f9da94319b69888b0d11cec22caa5034e25fffbdc8842180b90104414bf389000000000000000000000000201eba5cc46d216ce6dc03f6a759e8e766e956ae000000000000000000000000deaddeaddeaddeaddeaddeaddeaddeaddead111100000000000000000000000000000000000000000000000000000000000001f40000000000000000000000009f6b90543037cb311fc8b3997c8da9315be846800000000000000000000000000000000000000000000000000000000065243e520000000000000000000000000000000000000000000000000000000000102ca00000000000000000000000000000000000000000000000000002532bfda4030c0000000000000000000000000000000000000000000000000000000000000000822734a07ea91c831805e5ad97e44d117b02bea60bc67caae459f58499841b68bda009afa07c8145cbb81edf7549c2cdc7771a605d9476ce5380d78ee6297543316882786b","s":"0x7c8145cbb81edf7549c2cdc7771a605d9476ce5380d78ee6297543316882786b","to":"0x319b69888b0d11cec22caa5034e25fffbdc88421","transactionIndex":"0x0","v":"0x2734","value":"0x0"}],"transactionsRoot":"0x1f135707deada273796dab823112553a5b1e3daac36dba67b8728d4246b396b1","uncles":[]},"receipts":{"0xb3c7a0bce72f0b879728dbbdd0f0d2978ed57e7bca9c4bdd63fbe812733a773d":{"blockHash":"0x091ee9757c69d3f0b5926d4ece4e455a00fe5fbc44a4590f2b60b6233bc4e6d2","blockNumber":"0xd002bb","from":"0x9f6b90543037cb311fc8b3997c8da9315be84680","gas":"0x1f9da","gasPrice":"0x2faf080","hash":"0xb3c7a0bce72f0b879728dbbdd0f0d2978ed57e7bca9c4bdd63fbe812733a773d","index":"0xd002ba","input":"0x414bf389000000000000000000000000201eba5cc46d216ce6dc03f6a759e8e766e956ae000000000000000000000000deaddeaddeaddeaddeaddeaddeaddeaddead111100000000000000000000000000000000000000000000000000000000000001f40000000000000000000000009f6b90543037cb311fc8b3997c8da9315be846800000000000000000000000000000000000000000000000000000000065243e520000000000000000000000000000000000000000000000000000000000102ca00000000000000000000000000000000000000000000000000002532bfda4030c0000000000000000000000000000000000000000000000000000000000000000","l1BlockNumber":"0x11774e2","l1Timestamp":"0x65243e34","l1TxOrigin":null,"nonce":"0xee1","queueIndex":null,"queueOrigin":"sequencer","r":"0x7ea91c831805e5ad97e44d117b02bea60bc67caae459f58499841b68bda009af","rawTransaction":"0xf9016e820ee18402faf0808301f9da94319b69888b0d11cec22caa5034e25fffbdc8842180b90104414bf389000000000000000000000000201eba5cc46d216ce6dc03f6a759e8e766e956ae000000000000000000000000deaddeaddeaddeaddeaddeaddeaddeaddead111100000000000000000000000000000000000000000000000000000000000001f40000000000000000000000009f6b90543037cb311fc8b3997c8da9315be846800000000000000000000000000000000000000000000000000000000065243e520000000000000000000000000000000000000000000000000000000000102ca00000000000000000000000000000000000000000000000000002532bfda4030c0000000000000000000000000000000000000000000000000000000000000000822734a07ea91c831805e5ad97e44d117b02bea60bc67caae459f58499841b68bda009afa07c8145cbb81edf7549c2cdc7771a605d9476ce5380d78ee6297543316882786b","s":"0x7c8145cbb81edf7549c2cdc7771a605d9476ce5380d78ee6297543316882786b","to":"0x319b69888b0d11cec22caa5034e25fffbdc88421","transactionIndex":"0x0","v":"0x2734","value":"0x0","contractAddress":null,"cumulativeGasUsed":"0x1e23d","daFee":"0x0","daGasPrice":"0x0","daGasUsed":"0x12c","gasUsed":"0x1e23d","l1Fee":"0x19709d787180660","l1FeeScalar":"1","l1GasPrice":"0x38a987f04864","l1GasUsed":"0x72f","logs":[{"address":"0xdeaddeaddeaddeaddeaddeaddeaddeaddead1111","blockHash":"0x091ee9757c69d3f0b5926d4ece4e455a00fe5fbc44a4590f2b60b6233bc4e6d2","blockNumber":"0xd002bb","data":"0x00000000000000000000000000000000000000000000000000025f5175c17b46","logIndex":"0x0","removed":false,"topics":["0xddf252ad1be2c89b69c2b068fc378daa952ba7f163c4a11628f55a4df523b3ef","0x000000000000000000000000628f7131cf43e88ebe3921ae78c4ba0c31872bd4","0x0000000000000000000000009f6b90543037cb311fc8b3997c8da9315be84680"],"transactionHash":"0xb3c7a0bce72f0b879728dbbdd0f0d2978ed57e7bca9c4bdd63fbe812733a773d","transactionIndex":"0x0"},{"address":"0x201eba5cc46d216ce6dc03f6a759e8e766e956ae","blockHash":"0x091ee9757c69d3f0b5926d4ece4e455a00fe5fbc44a4590f2b60b6233bc4e6d2","blockNumber":"0xd002bb","data":"0x0000000000000000000000000000000000000000000000000000000000102ca0","logIndex":"0x1","removed":false,"topics":["0xddf252ad1be2c89b69c2b068fc378daa952ba7f163c4a11628f55a4df523b3ef","0x0000000000000000000000009f6b90543037cb311fc8b3997c8da9315be84680","0x000000000000000000000000628f7131cf43e88ebe3921ae78c4ba0c31872bd4"],"transactionHash":"0xb3c7a0bce72f0b879728dbbdd0f0d2978ed57e7bca9c4bdd63fbe812733a773d","transactionIndex":"0x0"},{"address":"0x201eba5cc46d216ce6dc03f6a759e8e766e956ae","blockHash":"0x091ee9757c69d3f0b5926d4ece4e455a00fe5fbc44a4590f2b60b6233bc4e6d2","blockNumber":"0xd002bb","data":"0xffffffffffffffffffffffffffffffffffffffffffffffffffffffff98b1024f","logIndex":"0x2","removed":false,"topics":["0x8c5be1e5ebec7d5bd14f71427d1e84f3dd0314c0f7b2291e5b200ac8c7c3b925","0x0000000000000000000000009f6b90543037cb311fc8b3997c8da9315be84680","0x000000000000000000000000319b69888b0d11cec22caa5034e25fffbdc88421"],"transactionHash":"0xb3c7a0bce72f0b879728dbbdd0f0d2978ed57e7bca9c4bdd63fbe812733a773d","transactionIndex":"0x0"},{"address":"0x628f7131cf43e88ebe3921ae78c4ba0c31872bd4","blockHash":"0x091ee9757c69d3f0b5926d4ece4e455a00fe5fbc44a4590f2b60b6233bc4e6d2","blockNumber":"0xd002bb","data":"0x0000000000000000000000000000000000000000000000000000000000102ca0fffffffffffffffffffffffffffffffffffffffffffffffffffda0ae8a3e84ba000000000000000000000000000000000000620a5d323c1ed4cd5b96e800639d00000000000000000000000000000000000000000000000000002c65dde06c20000000000000000000000000000000000000000000000000000000000003177d00000000000000000000000000000000000000000000000000000000000000b40000000000000000000000000000000000000000000000000000000000000000","logIndex":"0x3","removed":false,"topics":["0x19b47279256b2a23a1665c810c8d55a1758940ee09377d4f8d26497a3577dc83","0x000000000000000000000000319b69888b0d11cec22caa5034e25fffbdc88421","0x0000000000000000000000009f6b90543037cb311fc8b3997c8da9315be84680"],"transactionHash":"0xb3c7a0bce72f0b879728dbbdd0f0d2978ed57e7bca9c4bdd63fbe812733a773d","transactionIndex":"0x0"}],"logsBloom":"0x40000000000000000000000000000000000000000001008800000000000000000000000000000000000000000002000000000000000000000000000000200000840000000040000000000008000000000000008000002004000000000000000000000401000000000000000100000000000000000000000000000010000000000000000000000000000000000000000000000000000000000008000000000000020000000000000000000000000010000000000001000020000100000000000000000002008000000000000000000000000000000000000000000000000000000010000000001000000000000000000000000000000000000000000000000000","status":"0x1","transactionHash":"0xb3c7a0bce72f0b879728dbbdd0f0d2978ed57e7bca9c4bdd63fbe812733a773d"}}}