{"block":{"difficulty":"0x2","extraData":"0xd98301090a846765746889676f312e31352e3133856c696e7578000000000000a3fb460fe730d0767d7800e772e74bd2f4283c740350cbb5a7bef2a023ad8c362dad5155190fe7b60d4d1a2d110e10662be6ac3c06e5b42213d00caf959fd40e00","gasLimit":"0x1c9c380","gasUsed":"0x321b6","hash":"0x25cefecb5ef39cf049e12136f3cd0fc9fc525b555f730b9d1f725db73034e617","logsBloom":"0x00000000000000000000000000000000000000004000000000000000000000000000000000000000000000000000000000000000000000000000000000000000000000000000000000000000000000000000000000000000000000000000000000040000000000000000100000000000800000000000000000000000000000000000000000000000000000000000000000000000000040000000000000000000000000000000000000000000000000000000000000000000000000000000000000000000000000000000000000000000000000000000000000000000000000000000000000000000000080000000000000000000000000000000000000000000","miner":"0x0000000000000000000000000000000000000000","mixHash":"0x0000000000000000000000000000000000000000000000000000000000000000","nonce":"0x0000000000000000","number":"0xd002ad","parentHash":"0xdc596d462bc7626d2209c4860dd77ea60f9b70e6ea0d844d133e193dcfeaa63b","receiptsRoot":"0x05530345cf695cbbf6d9365e9e1fa2727144d6e61a4d197b49535fd20a505753","sha3Uncles":"0x1dcc4de8dec75d7aab85b567b6ccd41ad312451b948a7413f0a142fd40d49347","size":"0x2fa","stateRoot":"0xb91e2f76bc85cc203537077edf07fa06b81c9142291c3f9e112da509759f9256","timestamp":"0x65243e2f","totalDifficulty":"0x1a0055b","transactions":[{"blockHash":"0x25cefecb5ef39cf049e12136f3cd0fc9fc525b555f730b9d1f725db73034e617","blockNumber":"0xd002ad","from":"0xaa709069a1f802e503ed82f89c6470fb7f389bc5","gas":"0x32c83","gasPrice":"0x2faf080","hash":"0x822c813212eaaa15d691890b938d3069606bde63553edc96352594e2e9354a62","index":"0xd002ac","input":"0x4c85b425000000000000000000000000d9acf1dc668717921782640d0f9926b2043adaf4","l1BlockNumber":"0x11774e2","l1Timestamp":"0x65243e2f","l1TxOrigin":null,"nonce":"0x14","queueIndex":null,"queueOrigin":"sequencer","r":"0xce91286994307d326f6f2d7721d43cfdf389662c3d184fd357cf66bc91a2de38","rawTransaction":"0xf892148402faf08083032c839453167401aeebff5677c31e1dda945628422d7ed2880de0b6b3a7640000a44c85b425000000000000000000000000d9acf1dc668717921782640d0f9926b2043adaf4822734a0ce91286994307d326f6f2d7721d43cfdf389662c3d184fd357cf66bc91a2de38a04ff10638ffb1fcb7cbabf619303b9db1e33d96c984bd56e72ee8512393bcf10b","s":"0x4ff10638ffb1fcb7cbabf619303b9db1e33d96c984bd56e72ee8512393bcf10b","to":"0x53167401aeebff5677c31e1dda945628422d7ed2","transactionIndex":"0x0","v":"0x2734","value":"0xde0b6b3a7640000"}],"transactionsRoot":"0x8f89656bcc7db33b4adea613718df776c170e7325faed555267424dc05518118","uncles":[]},"receipts":{"0x822c813212eaaa15d691890b938d3069606bde63553edc96352594e2e9354a62":{"blockHash":"0x25cefecb5ef39cf049e12136f3cd0fc9fc525b555f730b9d1f725db73034e617","blockNumber":"0xd002ad","from":"0xaa709069a1f802e503ed82f89c6470fb7f389bc5","gas":"0x32c83","gasPrice":"0x2faf080","hash":"0x822c813212eaaa15d691890b938d3069606bde63553edc96352594e2e9354a62","index":"0xd002ac","input":"0x4c85b425000000000000000000000000d9acf1dc668717921782640d0f9926b2043adaf4","l1BlockNumber":"0x11774e2","l1Timestamp":"0x65243e2f","l1TxOrigin":null,"nonce":"0x14","queueIndex":null,"queueOrigin":"sequencer","r":"0xce91286994307d326f6f2d7721d43cfdf389662c3d184fd357cf66bc91a2de38","rawTransaction":"0xf892148402faf08083032c839453167401aeebff5677c31e1dda945628422d7ed2880de0b6b3a7640000a44c85b425000000000000000000000000d9acf1dc668717921782640d0f9926b2043adaf4822734a0ce91286994307d326f6f2d7721d43cfdf389662c3d184fd357cf66bc91a2de38a04ff10638ffb1fcb7cbabf619303b9db1e33d96c984bd56e72ee8512393bcf10b","s":"0x4ff10638ffb1fcb7cbabf619303b9db1e33d96c984bd56e72ee8512393bcf10b","to":"0x53167401aeebff5677c31e1dda945628422d7ed2","transactionIndex":"0x0","v":"0x2734","value":"0xde0b6b3a7640000","contractAddress":null,"cumulativeGasUsed":"0x321b6","daFee":"0x0","daGasPrice":"0x0","daGasUsed":"0x4f","gasUsed":"0x321b6","l1Fee":"0x19709d787180660","l1FeeScalar":"1","l1GasPrice":"0x38a987f04864","l1GasUsed":"0x72f","logs":[{"address":"0x53167401aeebff5677c31e1dda945628422d7ed2","blockHash":"0x25cefecb5ef39cf049e12136f3cd0fc9fc525b555f730b9d1f725db73034e617","blockNumber":"0xd002ad","data":"0x000000000000000000000000aa709069a1f802e503ed82f89c6470fb7f389bc5000000000000000000000000d9acf1dc668717921782640d0f9926b2043adaf4000000000000000000000000000000000000000000000000000000000000000100000000000000000000000000000000000000000000000000000000000000010000000000000000000000000000000000000000000000000c9dbd5d80e68ba20000000000000000000000000000000000000000000000000060e466a525a2e800000000000000000000000000000000000000000000000000a17cab133eba2e00000000000000000000000000000000000000000000000000204c22370c8ba200000000000000000000000000000000000000000000000000204c22370c8ba20000000000000000000000000000000000000000000000000000000000000001000000000000000000000000000000000000000000000000000000000000000400000000000000000000000000000000000000000000000000000000000000000000000000000000000000000000000000000000000000000000000000000001","logIndex":"0x0","removed":false,"topics":["0x0bd0eb03ae3622020e1cc9e94570c94b9e276bc263af8ac1c42747b11074f5fc"],"transactionHash":"0x822c813212eaaa15d691890b938d3069606bde63553edc96352594e2e9354a62","transactionIndex":"0x0"}],"logsBloom":"0x00000000000000000000000000000000000000004000000000000000000000000000000000000000000000000000000000000000000000000000000000000000000000000000000000000000000000000000000000000000000000000000000000040000000000000000100000000000800000000000000000000000000000000000000000000000000000000000000000000000000040000000000000000000000000000000000000000000000000000000000000000000000000000000000000000000000000000000000000000000000000000000000000000000000000000000000000000000000080000000000000000000000000000000000000000000","status":"0x1","transactionHash":"0x822c813212eaaa15d691890b938d3069606bde63553edc96352594e2e9354a62"}}}