{"block":{"difficulty":"0x2","extraData":"0xd98301090a846765746889676f312e31352e3133856c696e75780000000000006f3b156f8b030612aa02ee5c38bbb6903df67e1b2654a76c8689d64ba51bf7107a6e3f89a79191cc34bc3df5480a492d30f1edd931de46c2fef8981240a3a9aa01","gasLimit":"0x1c9c380","gasUsed":"0x25462","hash":"0xe8b3c6590138d8d9c05a47b60126bf9964abce5f36abbbdb99a0d0bf0c681ed1","logsBloom":"0x40000000000000000000000000000000000000800001008800000000000000000000000000000000000800000002000000000000000000000000000000200000840000000040000000000008000200000000008000002004000000000000000000000001000000000000000100000000000000000000000000000010000000000000000000000000000000000000000000000000000000000008000000000000020000000000000000000000000000000000000001000020000100000000000000000002000000000000000000000000000000000000000000000000000000000010000000001000000000000000000000000000000000000000000000000000","miner":"0x0000000000000000000000000000000000000000","mixHash":"0x0000000000000000000000000000000000000000000000000000000000000000","nonce":"0x0000000000000000","number":"0xd00245","parentHash":"0x887f312207ec8ecf7d4540b40a928cecd52c713c0dc0719449ba5cbdcdf14e2f","receiptsRoot":"0x14db4fc15e8cd039b474371b2e10df3f55fd52cba83a9bbfc6ffa0d2e137b726","sha3Uncles":"0x1dcc4de8dec75d7aab85b567b6ccd41ad312451b948a7413f0a142fd40d49347","size":"0x3d8","stateRoot":"0x3d912b5eb3d6c870eb8166639adfc3ea990a6ca8d10e500ac5eff7ab8a8504d5","timestamp":"0x65243df2","totalDifficulty":"0x1a0048b","transactions":[{"blockHash":"0xe8b3c6590138d8d9c05a47b60126bf9964abce5f36abbbdb99a0d0bf0c681ed1","blockNumber":"0xd00245","from":"0x9cd79aa60f1213f9f3600d98055ffa881b0671f6","gas":"0x26dc5","gasPrice":"0x2faf080","hash":"0x4588961446bc104e59ba66c461965be0e9d8bd7b98a713680cbce10a9f00cd1a","index":"0xd00244","input":"0x414bf389000000000000000000000000deaddeaddeaddeaddeaddeaddeaddeaddead1111000000000000000000000000201eba5cc46d216ce6dc03f6a759e8e766e956ae00000000000000000000000000000000000000000000000000000000000001f40000000000000000000000009cd79aa60f1213f9f3600d98055ffa881b0671f60000000000000000000000000000000000000000000000000000000065243e1000000000000000000000000000000000000000000000000000018ba1547a300000000000000000000000000000000000000000000000000000000000000a48e20000000000000000000000000000000000000000000000000000000000000000","l1BlockNumber":"0x11774dc","l1Timestamp":"0x65243df2","l1TxOrigin":null,"nonce":"0xa22","queueIndex":null,"queueOrigin":"sequencer","r":"0xf4d4ee857d6f4b6704f44867fe99f1bf31099e50791609df404aa4c438c4baf4","rawTransaction":"0xf9016e820a228402faf08083026dc594319b69888b0d11cec22caa5034e25fffbdc8842180b90104414bf389000000000000000000000000deaddeaddeaddeaddeaddeaddeaddeaddead1111000000000000000000000000201eba5cc46d216ce6dc03f6a759e8e766e956ae00000000000000000000000000000000000000000000000000000000000001f40000000000000000000000009cd79aa60f1213f9f3600d98055ffa881b0671f60000000000000000000000000000000000000000000000000000000065243e1000000000000000000000000000000000000000000000000000018ba1547a300000000000000000000000000000000000000000000000000000000000000a48e20000000000000000000000000000000000000000000000000000000000000000822734a0f4d4ee857d6f4b6704f44867fe99f1bf31099e50791609df404aa4c438c4baf4a06b559d82586e24d24735ed9555cadb3aa111a0be3ec01d076383d361161c2378","s":"0x6b559d82586e24d24735ed9555cadb3aa111a0be3ec01d076383d361161c2378","to":"0x319b69888b0d11cec22caa5034e25fffbdc88421","transactionIndex":"0x0","v":"0x2734","value":"0x0"}],"transactionsRoot":"0xff91bc0328a2837a28166c590639d19d9b132e3adbaf2c63c2d5295dba507dce","uncles":[]},"receipts":{"0x4588961446bc104e59ba66c461965be0e9d8bd7b98a713680cbce10a9f00cd1a":{"blockHash":"0xe8b3c6590138d8d9c05a47b60126bf9964abce5f36abbbdb99a0d0bf0c681ed1","blockNumber":"0xd00245","from":"0x9cd79aa60f1213f9f3600d98055ffa881b0671f6","gas":"0x26dc5","gasPrice":"0x2faf080","hash":"0x4588961446bc104e59ba66c461965be0e9d8bd7b98a713680cbce10a9f00cd1a","index":"0xd00244","input":"0x414bf389000000000000000000000000deaddeaddeaddeaddeaddeaddeaddeaddead1111000000000000000000000000201eba5cc46d216ce6dc03f6a759e8e766e956ae00000000000000000000000000000000000000000000000000000000000001f40000000000000000000000009cd79aa60f1213f9f3600d98055ffa881b0671f60000000000000000000000000000000000000000000000000000000065243e1000000000000000000000000000000000000000000000000000018ba1547a300000000000000000000000000000000000000000000000000000000000000a48e20000000000000000000000000000000000000000000000000000000000000000","l1BlockNumber":"0x11774dc","l1Timestamp":"0x65243df2","l1TxOrigin":null,"nonce":"0xa22","queueIndex":null,"queueOrigin":"sequencer","r":"0xf4d4ee857d6f4b6704f44867fe99f1bf31099e50791609df404aa4c438c4baf4","rawTransaction":"0xf9016e820a228402faf08083026dc594319b69888b0d11cec22caa5034e25fffbdc8842180b90104414bf389000000000000000000000000deaddeaddeaddeaddeaddeaddeaddeaddead1111000000000000000000000000201eba5cc46d216ce6dc03f6a759e8e766e956ae00000000000000000000000000000000000000000000000000000000000001f40000000000000000000000009cd79aa60f1213f9f3600d98055ffa881b0671f60000000000000000000000000000000000000000000000000000000065243e1000000000000000000000000000000000000000000000000000018ba1547a300000000000000000000000000000000000000000000000000000000000000a48e20000000000000000000000000000000000000000000000000000000000000000822734a0f4d4ee857d6f4b6704f44867fe99f1bf31099e50791609df404aa4c438c4baf4a06b559d82586e24d24735ed9555cadb3aa111a0be3ec01d076383d361161c2378","s":"0x6b559d82586e24d24735ed9555cadb3aa111a0be3ec01d076383d361161c2378","to":"0x319b69888b0d11cec22caa5034e25fffbdc88421","transactionIndex":"0x0","v":"0x2734","value":"0x0","contractAddress":null,"cumulativeGasUsed":"0x25462","daFee":"0x0","daGasPrice":"0x0","daGasUsed":"0x12c","gasUsed":"0x25462","l1Fee":"0x19709d787180660","l1FeeScalar":"1","l1GasPrice":"0x38a987f04864","l1GasUsed":"0x72f","logs":[{"address":"0x201eba5cc46d216ce6dc03f6a759e8e766e956ae","blockHash":"0xe8b3c6590138d8d9c05a47b60126bf9964abce5f36abbbdb99a0d0bf0c681ed1","blockNumber":"0xd00245","data":"0x00000000000000000000000000000000000000000000000000000000000a7e9e","logIndex":"0x0","removed":false,"topics":["0xddf252ad1be2c89b69c2b068fc378daa952ba7f163c4a11628f55a4df523b3ef","0x000000000000000000000000628f7131cf43e88ebe3921ae78c4ba0c31872bd4","0x0000000000000000000000009cd79aa60f1213f9f3600d98055ffa881b0671f6"],"transactionHash":"0x4588961446bc104e59ba66c461965be0e9d8bd7b98a713680cbce10a9f00cd1a","transactionIndex":"0x0"},{"address":"0xdeaddeaddeaddeaddeaddeaddeaddeaddead1111","blockHash":"0xe8b3c6590138d8d9c05a47b60126bf9964abce5f36abbbdb99a0d0bf0c681ed1","blockNumber":"0xd00245","data":"0x00000000000000000000000000000000000000000000000000018ba1547a3000","logIndex":"0x1","removed":false,"topics":["0xddf252ad1be2c89b69c2b068fc378daa952ba7f163c4a11628f55a4df523b3ef","0x0000000000000000000000009cd79aa60f1213f9f3600d98055ffa881b0671f6","0x000000000000000000000000628f7131cf43e88ebe3921ae78c4ba0c31872bd4"],"transactionHash":"0x4588961446bc104e59ba66c461965be0e9d8bd7b98a713680cbce10a9f00cd1a","transactionIndex":"0x0"},{"address":"0xdeaddeaddeaddeaddeaddeaddeaddeaddead1111","blockHash":"0xe8b3c6590138d8d9c05a47b60126bf9964abce5f36abbbdb99a0d0bf0c681ed1","blockNumber":"0xd00245","data":"0xfffffffffffffffffffffffffffffffffffffffffffffffffd24561d17bb6fff","logIndex":"0x2","removed":false,"topics":["0x8c5be1e5ebec7d5bd14f71427d1e84f3dd0314c0f7b2291e5b200ac8c7c3b925","0x0000000000000000000000009cd79aa60f1213f9f3600d98055ffa881b0671f6","0x000000000000000000000000319b69888b0d11cec22caa5034e25fffbdc88421"],"transactionHash":"0x4588961446bc104e59ba66c461965be0e9d8bd7b98a713680cbce10a9f00cd1a","transactionIndex":"0x0"},{"address":"0x628f7131cf43e88ebe3921ae78c4ba0c31872bd4","blockHash":"0xe8b3c6590138d8d9c05a47b60126bf9964abce5f36abbbdb99a0d0bf0c681ed1","blockNumber":"0xd00245","data":"0xfffffffffffffffffffffffffffffffffffffffffffffffffffffffffff5816200000000000000000000000000000000000000000000000000018ba1547a3000000000000000000000000000000000000000623b30651d7691d754e20122afc200000000000000000000000000000000000000000000000000002c69f6c7ad9d00000000000000000000000000000000000000000000000000000000000317a400000000000000000000000000000000000000000000000000000000000000000000000000000000000000000000000000000000000000000000001137c3737f","logIndex":"0x3","removed":false,"topics":["0x19b47279256b2a23a1665c810c8d55a1758940ee09377d4f8d26497a3577dc83","0x000000000000000000000000319b69888b0d11cec22caa5034e25fffbdc88421","0x0000000000000000000000009cd79aa60f1213f9f3600d98055ffa881b0671f6"],"transactionHash":"0x4588961446bc104e59ba66c461965be0e9d8bd7b98a713680cbce10a9f00cd1a","transactionIndex":"0x0"}],"logsBloom":"0x40000000000000000000000000000000000000800001008800000000000000000000000000000000000800000002000000000000000000000000000000200000840000000040000000000008000200000000008000002004000000000000000000000001000000000000000100000000000000000000000000000010000000000000000000000000000000000000000000000000000000000008000000000000020000000000000000000000000000000000000001000020000100000000000000000002000000000000000000000000000000000000000000000000000000000010000000001000000000000000000000000000000000000000000000000000","status":"0x1","transactionHash":"0x4588961446bc104e59ba66c461965be0e9d8bd7b98a713680cbce10a9f00cd1a"}}}