{"block":{"difficulty":"0x2","extraData":"0xd98301090a846765746889676f312e31352e3133856c696e75780000000000007993b61bd0d3703f52301207dce1b08b0104c0ad4d54886f7c4b23ff2db5f7cc24b819d1b87b2a211608d12bf9aa8dbdd03c31a01adeb80068d3878ec3310bf201","gasLimit":"0x1c9c380","gasUsed":"0x3192a","hash":"0x9689fa7ce1d3c494364b84e005c659f82d2009a0d4329efb3da4314ae3d5c17f","logsBloom":"0x00000000000000000000100000000000000000004000000008000000000000000000000000000000000000000000000000080000002004020440000000000000100000000000000000200008000000000000004000040020000000008000000000000000020000000000000000000800000008100800000000000010000000000000080008000000000000080000000000100001000001000000000000000000010000004008040000080000000040000000000000000000000000000000000000000002000000000000080000000000800000000000000000000000040020000000000000000000000000000000040000020000400000400000000040000800","miner":"0x0000000000000000000000000000000000000000","mixHash":"0x0000000000000000000000000000000000000000000000000000000000000000","nonce":"0x0000000000000000","number":"0xd001ec","parentHash":"0x444eb40c76701126ec962b68bb24cfaf98a5ea91f44bf96ebc9e4ce101c013d9","receiptsRoot":"0x12a5bcb95c66bbab7af1c00c6d326bd194c2750e702f7bd2ce936ee35c67bf7b","sha3Uncles":"0x1dcc4de8dec75d7aab85b567b6ccd41ad312451b948a7413f0a142fd40d49347","size":"0x49e","stateRoot":"0xe3694421d10eeda04bc89b22468493c1f49a5df6da8399817361e6018ebfc50c","timestamp":"0x65243dbe","totalDifficulty":"0x1a003d9","transactions":[{"blockHash":"0x9689fa7ce1d3c494364b84e005c659f82d2009a0d4329efb3da4314ae3d5c17f","blockNumber":"0xd001ec","from":"0x3f31dd2e7166376da4a8d998c6abe2a3f7906bf1","gas":"0x3ce2e","gasPrice":"0x30291a0","hash":"0x9ad2311ef3b9a2422337566cf20b498fe8f253bf7eb07dcb47152266ecd28e78","index":"0xd001eb","input":"0xac9650d8000000000000000000000000000000000000000000000000000000000000002000000000000000000000000000000000000000000000000000000000000000020000000000000000000000000000000000000000000000000000000000000040000000000000000000000000000000000000000000000000000000000000014000000000000000000000000000000000000000000000000000000000000000c4219f5d1700000000000000000000000000000000000000000000000000000000000121ed000000000000000000000000000000000000000000000000000000000000ea600000000000000000000000000000000000000000000000000902c87b2476e432000000000000000000000000000000000000000000000000000000000000cd3200000000000000000000000000000000000000000000000008bb597c3f34dbb4000000000000000000000000000000000000000000000000000000006524425a00000000000000000000000000000000000000000000000000000000000000000000000000000000000000000000000000000000000000000000000463f5daa500000000000000000000000000000000000000000000000000000000","l1BlockNumber":"0x11774d8","l1Timestamp":"0x65243dbe","l1TxOrigin":null,"nonce":"0x32","queueIndex":null,"queueOrigin":"sequencer","r":"0x65c38bf5f474d4b3d26090e2c5c668d6a3a21faab9ae00b6a99facb3067eb003","rawTransaction":"0xf902343284030291a08303ce2e94218bf598d1453383e2f4aa7b14ffb9bfb102d637880902c87b2476e432b901c4ac9650d8000000000000000000000000000000000000000000000000000000000000002000000000000000000000000000000000000000000000000000000000000000020000000000000000000000000000000000000000000000000000000000000040000000000000000000000000000000000000000000000000000000000000014000000000000000000000000000000000000000000000000000000000000000c4219f5d1700000000000000000000000000000000000000000000000000000000000121ed000000000000000000000000000000000000000000000000000000000000ea600000000000000000000000000000000000000000000000000902c87b2476e432000000000000000000000000000000000000000000000000000000000000cd3200000000000000000000000000000000000000000000000008bb597c3f34dbb4000000000000000000000000000000000000000000000000000000006524425a00000000000000000000000000000000000000000000000000000000000000000000000000000000000000000000000000000000000000000000000463f5daa500000000000000000000000000000000000000000000000000000000822734a065c38bf5f474d4b3d26090e2c5c668d6a3a21faab9ae00b6a99facb3067eb003a060100f63f98906ec8af3f5555df9e77dd29227a91ac108ae7ed1a5ef4cbc50c6","s":"0x60100f63f98906ec8af3f5555df9e77dd29227a91ac108ae7ed1a5ef4cbc50c6","to":"0x218bf598d1453383e2f4aa7b14ffb9bfb102d637","transactionIndex":"0x0","v":"0x2734","value":"0x902c87b2476e432"}],"transactionsRoot":"0x6e01ae8d724490881efb17460c4d23e0b3a2eeb04fa51b595a5a9b2d03de51f9","uncles":[]},"receipts":{"0x9ad2311ef3b9a2422337566cf20b498fe8f253bf7eb07dcb47152266ecd28e78":{"blockHash":"0x9689fa7ce1d3c494364b84e005c659f82d2009a0d4329efb3da4314ae3d5c17f","blockNumber":"0xd001ec","from":"0x3f31dd2e7166376da4a8d998c6abe2a3f7906bf1","gas":"0x3ce2e","gasPrice":"0x30291a0","hash":"0x9ad2311ef3b9a2422337566cf20b498fe8f253bf7eb07dcb47152266ecd28e78","index":"0xd001eb","input":"0xac9650d8000000000000000000000000000000000000000000000000000000000000002000000000000000000000000000000000000000000000000000000000000000020000000000000000000000000000000000000000000000000000000000000040000000000000000000000000000000000000000000000000000000000000014000000000000000000000000000000000000000000000000000000000000000c4219f5d1700000000000000000000000000000000000000000000000000000000000121ed000000000000000000000000000000000000000000000000000000000000ea600000000000000000000000000000000000000000000000000902c87b2476e432000000000000000000000000000000000000000000000000000000000000cd3200000000000000000000000000000000000000000000000008bb597c3f34dbb4000000000000000000000000000000000000000000000000000000006524425a00000000000000000000000000000000000000000000000000000000000000000000000000000000000000000000000000000000000000000000000463f5daa500000000000000000000000000000000000000000000000000000000","l1BlockNumber":"0x11774d8","l1Timestamp":"0x65243dbe","l1TxOrigin":null,"nonce":"0x32","queueIndex":null,"queueOrigin":"sequencer","r":"0x65c38bf5f474d4b3d26090e2c5c668d6a3a21faab9ae00b6a99facb3067eb003","rawTransaction":"0xf902343284030291a08303ce2e94218bf598d1453383e2f4aa7b14ffb9bfb102d637880902c87b2476e432b901c4ac9650d8000000000000000000000000000000000000000000000000000000000000002000000000000000000000000000000000000000000000000000000000000000020000000000000000000000000000000000000000000000000000000000000040000000000000000000000000000000000000000000000000000000000000014000000000000000000000000000000000000000000000000000000000000000c4219f5d1700000000000000000000000000000000000000000000000000000000000121ed000000000000000000000000000000000000000000000000000000000000ea600000000000000000000000000000000000000000000000000902c87b2476e432000000000000000000000000000000000000000000000000000000000000cd3200000000000000000000000000000000000000000000000008bb597c3f34dbb4000000000000000000000000000000000000000000000000000000006524425a00000000000000000000000000000000000000000000000000000000000000000000000000000000000000000000000000000000000000000000000463f5daa500000000000000000000000000000000000000000000000000000000822734a065c38bf5f474d4b3d26090e2c5c668d6a3a21faab9ae00b6a99facb3067eb003a060100f63f98906ec8af3f5555df9e77dd29227a91ac108ae7ed1a5ef4cbc50c6","s":"0x60100f63f98906ec8af3f5555df9e77dd29227a91ac108ae7ed1a5ef4cbc50c6","to":"0x218bf598d1453383e2f4aa7b14ffb9bfb102d637","transactionIndex":"0x0","v":"0x2734","value":"0x902c87b2476e432","contractAddress":null,"cumulativeGasUsed":"0x3192a","daFee":"0x0","daGasPrice":"0x0","daGasUsed":"0x1f2","gasUsed":"0x3192a","l1Fee":"0x19709d787180660","l1FeeScalar":"1","l1GasPrice":"0x38a987f04864","l1GasUsed":"0x72f","logs":[{"address":"0x09bc4e0d864854c6afb6eb9a9cdf58ac190d0df9","blockHash":"0x9689fa7ce1d3c494364b84e005c659f82d2009a0d4329efb3da4314ae3d5c17f","blockNumber":"0xd001ec","data":"0x000000000000000000000000000000000000000000000000000000000000ea60","logIndex":"0x0","removed":false,"topics":["0xddf252ad1be2c89b69c2b068fc378daa952ba7f163c4a11628f55a4df523b3ef","0x0000000000000000000000003f31dd2e7166376da4a8d998c6abe2a3f7906bf1","0x0000000000000000000000001858d52cf57c07a018171d7a1e68dc081f17144f"],"transactionHash":"0x9ad2311ef3b9a2422337566cf20b498fe8f253bf7eb07dcb47152266ecd28e78","transactionIndex":"0x0"},{"address":"0x78c1b0c915c4faa5fffa6cabf0219da63d7f4cb8","blockHash":"0x9689fa7ce1d3c494364b84e005c659f82d2009a0d4329efb3da4314ae3d5c17f","blockNumber":"0xd001ec","data":"0x0000000000000000000000000000000000000000000000000902c87b2476e432","logIndex":"0x1","removed":false,"topics":["0xddf252ad1be2c89b69c2b068fc378daa952ba7f163c4a11628f55a4df523b3ef","0x0000000000000000000000000000000000000000000000000000000000000000","0x000000000000000000000000218bf598d1453383e2f4aa7b14ffb9bfb102d637"],"transactionHash":"0x9ad2311ef3b9a2422337566cf20b498fe8f253bf7eb07dcb47152266ecd28e78","transactionIndex":"0x0"},{"address":"0x78c1b0c915c4faa5fffa6cabf0219da63d7f4cb8","blockHash":"0x9689fa7ce1d3c494364b84e005c659f82d2009a0d4329efb3da4314ae3d5c17f","blockNumber":"0xd001ec","data":"0x0000000000000000000000000000000000000000000000000902c87b2476e432","logIndex":"0x2","removed":false,"topics":["0xe1fffcc4923d04b559f4d29a8bfc6cda04eb5b0d3c460751c2402c5c5cc9109c","0x000000000000000000000000218bf598d1453383e2f4aa7b14ffb9bfb102d637"],"transactionHash":"0x9ad2311ef3b9a2422337566cf20b498fe8f253bf7eb07dcb47152266ecd28e78","transactionIndex":"0x0"},{"address":"0x78c1b0c915c4faa5fffa6cabf0219da63d7f4cb8","blockHash":"0x9689fa7ce1d3c494364b84e005c659f82d2009a0d4329efb3da4314ae3d5c17f","blockNumber":"0xd001ec","data":"0x0000000000000000000000000000000000000000000000000902c87b2476e432","logIndex":"0x3","removed":false,"topics":["0xddf252ad1be2c89b69c2b068fc378daa952ba7f163c4a11628f55a4df523b3ef","0x000000000000000000000000218bf598d1453383e2f4aa7b14ffb9bfb102d637","0x0000000000000000000000001858d52cf57c07a018171d7a1e68dc081f17144f"],"transactionHash":"0x9ad2311ef3b9a2422337566cf20b498fe8f253bf7eb07dcb47152266ecd28e78","transactionIndex":"0x0"},{"address":"0x1858d52cf57c07a018171d7a1e68dc081f17144f","blockHash":"0x9689fa7ce1d3c494364b84e005c659f82d2009a0d4329efb3da4314ae3d5c17f","blockNumber":"0xd001ec","data":"0x000000000000000000000000218bf598d1453383e2f4aa7b14ffb9bfb102d63700000000000000000000000000000000000000000000000000000476d34f34a9000000000000000000000000000000000000000000000000000000000000ea600000000000000000000000000000000000000000000000000902c87b2476e432","logIndex":"0x4","removed":false,"topics":["0x7a53080ba414158be7ec69b987b5fb7d07dee101fe85488f0853ae16239d0bde","0x000000000000000000000000218bf598d1453383e2f4aa7b14ffb9bfb102d637","0x000000000000000000000000000000000000000000000000000000000004574a","0x0000000000000000000000000000000000000000000000000000000000045f74"],"transactionHash":"0x9ad2311ef3b9a2422337566cf20b498fe8f253bf7eb07dcb47152266ecd28e78","transactionIndex":"0x0"},{"address":"0x218bf598d1453383e2f4aa7b14ffb9bfb102d637","blockHash":"0x9689fa7ce1d3c494364b84e005c659f82d2009a0d4329efb3da4314ae3d5c17f","blockNumber":"0xd001ec","data":"0x00000000000000000000000000000000000000000000000000000476d34f34a9000000000000000000000000000000000000000000000000000000000000ea600000000000000000000000000000000000000000000000000902c87b2476e432","logIndex":"0x5","removed":false,"topics":["0x3067048beee31b25b2f1681f88dac838c8bba36af25bfb2b7cf7473a5847e35f","0x00000000000000000000000000000000000000000000000000000000000121ed"],"transactionHash":"0x9ad2311ef3b9a2422337566cf20b498fe8f253bf7eb07dcb47152266ecd28e78","transactionIndex":"0x0"}],"logsBloom":"0x00000000000000000000100000000000000000004000000008000000000000000000000000000000000000000000000000080000002004020440000000000000100000000000000000200008000000000000004000040020000000008000000000000000020000000000000000000800000008100800000000000010000000000000080008000000000000080000000000100001000001000000000000000000010000004008040000080000000040000000000000000000000000000000000000000002000000000000080000000000800000000000000000000000040020000000000000000000000000000000040000020000400000400000000040000800","status":"0x1","transactionHash":"0x9ad2311ef3b9a2422337566cf20b498fe8f253bf7eb07dcb47152266ecd28e78"}}}