{"block":{"difficulty":"0x2","extraData":"0xd98301090a846765746889676f312e31352e3133856c696e7578000000000000ff1eee1d24ae53623607706afaf33aea6a002974de83de4ab63534c5661f61497068e82751a689f0451a04a232e24cc14e6aaf7347ed344a4ba3f9b495da50a200","gasLimit":"0x1c9c380","gasUsed":"0x1a977","hash":"0x7655f2f9b191fdd2bdb87dbc8987ddb97daca2b14f0d34c0f98849e568366de2","logsBloom":"0x00000000000000000000000000000000000000004000000000000000000000000000000000000000000000000000000000000000000000000000000000000000000000000000000000000000000000000000000000000000000000000000000000040000000000000000100000000000800000000000000000000000000000000000000000000000000000000000000000000000000040000000000000000000000000000000000000000000000000000000000000000000000000000000000000000000000000000000000000000000000000000000000000000000000000000000000000000000000080000000000000000000000000000000000000000000","miner":"0x0000000000000000000000000000000000000000","mixHash":"0x0000000000000000000000000000000000000000000000000000000000000000","nonce":"0x0000000000000000","number":"0xd000c8","parentHash":"0x533e24955660bdac9200027714cb80bf8b7a0475698ed90354017d2faf5bda08","receiptsRoot":"0xbbe660adde8520e9770697c010b162d183f81d8c705a3e5ca7e13d2198352876","sha3Uncles":"0x1dcc4de8dec75d7aab85b567b6ccd41ad312451b948a7413f0a142fd40d49347","size":"0x313","stateRoot":"0x98991866e3020488e9551526ed4034149178c26e485a1fe5ed54e8582cbd5888","timestamp":"0x65243d25","totalDifficulty":"0x1a00191","transactions":[{"blockHash":"0x7655f2f9b191fdd2bdb87dbc8987ddb97daca2b14f0d34c0f98849e568366de2","blockNumber":"0xd000c8","from":"0x3dd818246e0558ce27b8bfde9cbe9dc56768977b","gas":"0x1c155","gasPrice":"0x2faf080","hash":"0x2ae4211cce0c9a5f2b6fa2948a4c1aef532f86174fb680e69b774b6a183b252c","index":"0xd000c7","input":"0xb51d053400000000000000000000000073bc785b57067107ec34e13cfb122084f44aa8be0000000000000000000000000000000000000000000000000000000000000001","l1BlockNumber":"0x11774cc","l1Timestamp":"0x65243d25","l1TxOrigin":null,"nonce":"0x4d","queueIndex":null,"queueOrigin":"sequencer","r":"0x4bedf4739c54bdebff3a46b40df9b6d2db02d65fe53dab9cdbb9de30f54cf3f","rawTransaction":"0xf8ab4d8402faf0808301c1559453167401aeebff5677c31e1dda945628422d7ed280b844b51d053400000000000000000000000073bc785b57067107ec34e13cfb122084f44aa8be0000000000000000000000000000000000000000000000000000000000000001822733a004bedf4739c54bdebff3a46b40df9b6d2db02d65fe53dab9cdbb9de30f54cf3fa02ee92b0aef8897e008e8265699464361945dfc78fa8c36b548809664310fb89e","s":"0x2ee92b0aef8897e008e8265699464361945dfc78fa8c36b548809664310fb89e","to":"0x53167401aeebff5677c31e1dda945628422d7ed2","transactionIndex":"0x0","v":"0x2733","value":"0x0"}],"transactionsRoot":"0x576b8a00f4551ebd693fb3f2acf4559af7552304f3e91545e43f48c0a4fdd030","uncles":[]},"receipts":{"0x2ae4211cce0c9a5f2b6fa2948a4c1aef532f86174fb680e69b774b6a183b252c":{"blockHash":"0x7655f2f9b191fdd2bdb87dbc8987ddb97daca2b14f0d34c0f98849e568366de2","blockNumber":"0xd000c8","from":"0x3dd818246e0558ce27b8bfde9cbe9dc56768977b","gas":"0x1c155","gasPrice":"0x2faf080","hash":"0x2ae4211cce0c9a5f2b6fa2948a4c1aef532f86174fb680e69b774b6a183b252c","index":"0xd000c7","input":"0xb51d053400000000000000000000000073bc785b57067107ec34e13cfb122084f44aa8be0000000000000000000000000000000000000000000000000000000000000001","l1BlockNumber":"0x11774cc","l1Timestamp":"0x65243d25","l1TxOrigin":null,"nonce":"0x4d","queueIndex":null,"queueOrigin":"sequencer","r":"0x4bedf4739c54bdebff3a46b40df9b6d2db02d65fe53dab9cdbb9de30f54cf3f","rawTransaction":"0xf8ab4d8402faf0808301c1559453167401aeebff5677c31e1dda945628422d7ed280b844b51d053400000000000000000000000073bc785b57067107ec34e13cfb122084f44aa8be0000000000000000000000000000000000000000000000000000000000000001822733a004bedf4739c54bdebff3a46b40df9b6d2db02d65fe53dab9cdbb9de30f54cf3fa02ee92b0aef8897e008e8265699464361945dfc78fa8c36b548809664310fb89e","s":"0x2ee92b0aef8897e008e8265699464361945dfc78fa8c36b548809664310fb89e","to":"0x53167401aeebff5677c31e1dda945628422d7ed2","transactionIndex":"0x0","v":"0x2733","value":"0x0","contractAddress":null,"cumulativeGasUsed":"0x1a977","daFee":"0x0","daGasPrice":"0x0","daGasUsed":"0x68","gasUsed":"0x1a977","l1Fee":"0x1a09f6380cb9fe0","l1FeeScalar":"1","l1GasPrice":"0x39ff1464e55c","l1GasUsed":"0x72f","logs":[{"address":"0x53167401aeebff5677c31e1dda945628422d7ed2","blockHash":"0x7655f2f9b191fdd2bdb87dbc8987ddb97daca2b14f0d34c0f98849e568366de2","blockNumber":"0xd000c8","data":"0x0000000000000000000000003dd818246e0558ce27b8bfde9cbe9dc56768977b00000000000000000000000073bc785b57067107ec34e13cfb122084f44aa8be0000000000000000000000000000000000000000000000000000000000000000000000000000000000000000000000000000000000000000000000000000000100000000000000000000000000000000000000000000000013fbe85edc90000000000000000000000000000000000000000000000000000000997a2bce4c000000000000000000000000000000000000000000000000000000ffcb9e57d40000000000000000000000000000000000000000000000000000003328b944c40000000000000000000000000000000000000000000000000000003328b944c400000000000000000000000000000000000000000000000000000000000000000000000000000000000000000000000000000000000000000000000000000000000500000000000000000000000000000000000000000000000000000000000000000000000000000000000000000000000000000000000000000000000000000000","logIndex":"0x0","removed":false,"topics":["0x0bd0eb03ae3622020e1cc9e94570c94b9e276bc263af8ac1c42747b11074f5fc"],"transactionHash":"0x2ae4211cce0c9a5f2b6fa2948a4c1aef532f86174fb680e69b774b6a183b252c","transactionIndex":"0x0"}],"logsBloom":"0x00000000000000000000000000000000000000004000000000000000000000000000000000000000000000000000000000000000000000000000000000000000000000000000000000000000000000000000000000000000000000000000000000040000000000000000100000000000800000000000000000000000000000000000000000000000000000000000000000000000000040000000000000000000000000000000000000000000000000000000000000000000000000000000000000000000000000000000000000000000000000000000000000000000000000000000000000000000000080000000000000000000000000000000000000000000","status":"0x1","transactionHash":"0x2ae4211cce0c9a5f2b6fa2948a4c1aef532f86174fb680e69b774b6a183b252c"}}}