{"block":{"difficulty":"0x2","extraData":"0xd98301090a846765746889676f312e31352e3133856c696e7578000000000000496bc78b300e9eae4e188c20e286ffc83c76d9d4b4b34c1bda81609bbd6c174e499c9c01a348640d50b2b9d698354c6b6d1c589ca4be254d248c8e4883950c5101","gasLimit":"0x1c9c380","gasUsed":"0x1e445","hash":"0x114a2b175949d8db3f4e75dcfba2ff884c9a1169c295c42cc4e8b3dd8fd8130c","logsBloom":"0x00000000000000000000000000000000000000000000000000000000000000000000000000000000000000000000000000000000000000000000000000000000000000000000000000000000000000000000000000000000000000000000000000000000000000000000000000000000000000000000000000000000000000000000000000000000000000000000000000000000000000000000000000000000000000000000000000000000000000000000000000000000000000000000000000000000000000000000000000000000000000000000000000000000000000000000000000000000000000000000000000000000000000000000000000000000","miner":"0x0000000000000000000000000000000000000000","mixHash":"0x0000000000000000000000000000000000000000000000000000000000000000","nonce":"0x0000000000000000","number":"0xd0013b","parentHash":"0x7457731d2d98432653ec9d58c8203938cbaf0c0e368d29813a9dcde408206c37","receiptsRoot":"0x978f261b75d75ec7c88f6e2857a5a638c406fb7351433d3aa361b3acb3c650b5","sha3Uncles":"0x1dcc4de8dec75d7aab85b567b6ccd41ad312451b948a7413f0a142fd40d49347","size":"0x3d8","stateRoot":"0x96c2a09944883b5c95e68340fbd3d4308dac2428a309c595eb278487d0166c79","timestamp":"0x65243d63","totalDifficulty":"0x1a00277","transactions":[{"blockHash":"0x114a2b175949d8db3f4e75dcfba2ff884c9a1169c295c42cc4e8b3dd8fd8130c","blockNumber":"0xd0013b","from":"0x255670be5b3237699258ad7e907783a3373a738f","gas":"0x1e9ec","gasPrice":"0x2faf080","hash":"0x3f2e5e071054699103bafe96ca5a16e2d22c5a7a9c9ce7f8cc38710672d77bc7","index":"0xd0013a","input":"0x414bf38900000000000000000000000078c1b0c915c4faa5fffa6cabf0219da63d7f4cb8000000000000000000000000201eba5cc46d216ce6dc03f6a759e8e766e956ae00000000000000000000000000000000000000000000000000000000000001f4000000000000000000000000255670be5b3237699258ad7e907783a3373a738f0000000000000000000000000000000000000000000000000000000065243d8000000000000000000000000000000000000000000000000024a32a033f08000000000000000000000000000000000000000000000000000000000000000ec0200000000000000000000000000000000000000000000000000000000000000000","l1BlockNumber":"0x11774d0","l1Timestamp":"0x65243d63","l1TxOrigin":null,"nonce":"0x1212","queueIndex":null,"queueOrigin":"sequencer","r":"0xe150150cbd89a19b7972170a9ce9cb5bac54ce40d3d23ce52e257ceab3a14a95","rawTransaction":"0xf9016e8212128402faf0808301e9ec94319b69888b0d11cec22caa5034e25fffbdc8842180b90104414bf38900000000000000000000000078c1b0c915c4faa5fffa6cabf0219da63d7f4cb8000000000000000000000000201eba5cc46d216ce6dc03f6a759e8e766e956ae00000000000000000000000000000000000000000000000000000000000001f4000000000000000000000000255670be5b3237699258ad7e907783a3373a738f0000000000000000000000000000000000000000000000000000000065243d8000000000000000000000000000000000000000000000000024a32a033f08000000000000000000000000000000000000000000000000000000000000000ec0200000000000000000000000000000000000000000000000000000000000000000822734a0e150150cbd89a19b7972170a9ce9cb5bac54ce40d3d23ce52e257ceab3a14a95a01cb0aca270975422066c559d3aa1cfbad1f8691edb6b71fe33049b75ebf2029c","s":"0x1cb0aca270975422066c559d3aa1cfbad1f8691edb6b71fe33049b75ebf2029c","to":"0x319b69888b0d11cec22caa5034e25fffbdc88421","transactionIndex":"0x0","v":"0x2734","value":"0x0"}],"transactionsRoot":"0x6ca544607bf15321a98bff65284cf5af8e984d0a6dd9510eb13ae639ce14e1fc","uncles":[]},"receipts":{"0x3f2e5e071054699103bafe96ca5a16e2d22c5a7a9c9ce7f8cc38710672d77bc7":{"blockHash":"0x114a2b175949d8db3f4e75dcfba2ff884c9a1169c295c42cc4e8b3dd8fd8130c","blockNumber":"0xd0013b","from":"0x255670be5b3237699258ad7e907783a3373a738f","gas":"0x1e9ec","gasPrice":"0x2faf080","hash":"0x3f2e5e071054699103bafe96ca5a16e2d22c5a7a9c9ce7f8cc38710672d77bc7","index":"0xd0013a","input":"0x414bf38900000000000000000000000078c1b0c915c4faa5fffa6cabf0219da63d7f4cb8000000000000000000000000201eba5cc46d216ce6dc03f6a759e8e766e956ae00000000000000000000000000000000000000000000000000000000000001f4000000000000000000000000255670be5b3237699258ad7e907783a3373a738f0000000000000000000000000000000000000000000000000000000065243d8000000000000000000000000000000000000000000000000024a32a033f08000000000000000000000000000000000000000000000000000000000000000ec0200000000000000000000000000000000000000000000000000000000000000000","l1BlockNumber":"0x11774d0","l1Timestamp":"0x65243d63","l1TxOrigin":null,"nonce":"0x1212","queueIndex":null,"queueOrigin":"sequencer","r":"0xe150150cbd89a19b7972170a9ce9cb5bac54ce40d3d23ce52e257ceab3a14a95","rawTransaction":"0xf9016e8212128402faf0808301e9ec94319b69888b0d11cec22caa5034e25fffbdc8842180b90104414bf38900000000000000000000000078c1b0c915c4faa5fffa6cabf0219da63d7f4cb8000000000000000000000000201eba5cc46d216ce6dc03f6a759e8e766e956ae00000000000000000000000000000000000000000000000000000000000001f4000000000000000000000000255670be5b3237699258ad7e907783a3373a738f0000000000000000000000000000000000000000000000000000000065243d8000000000000000000000000000000000000000000000000024a32a033f08000000000000000000000000000000000000000000000000000000000000000ec0200000000000000000000000000000000000000000000000000000000000000000822734a0e150150cbd89a19b7972170a9ce9cb5bac54ce40d3d23ce52e257ceab3a14a95a01cb0aca270975422066c559d3aa1cfbad1f8691edb6b71fe33049b75ebf2029c","s":"0x1cb0aca270975422066c559d3aa1cfbad1f8691edb6b71fe33049b75ebf2029c","to":"0x319b69888b0d11cec22caa5034e25fffbdc88421","transactionIndex":"0x0","v":"0x2734","value":"0x0","contractAddress":null,"cumulativeGasUsed":"0x1e445","daFee":"0x0","daGasPrice":"0x0","daGasUsed":"0x12c","gasUsed":"0x1e445","l1Fee":"0x1a09f6380cb9fe0","l1FeeScalar":"1","l1GasPrice":"0x39ff1464e55c","l1GasUsed":"0x72f","logs":[],"logsBloom":"0x00000000000000000000000000000000000000000000000000000000000000000000000000000000000000000000000000000000000000000000000000000000000000000000000000000000000000000000000000000000000000000000000000000000000000000000000000000000000000000000000000000000000000000000000000000000000000000000000000000000000000000000000000000000000000000000000000000000000000000000000000000000000000000000000000000000000000000000000000000000000000000000000000000000000000000000000000000000000000000000000000000000000000000000000000000000","status":"0x0","transactionHash":"0x3f2e5e071054699103bafe96ca5a16e2d22c5a7a9c9ce7f8cc38710672d77bc7"}}}