{"block":{"difficulty":"0x2","extraData":"0xd98301090a846765746889676f312e31352e3133856c696e75780000000000009c6539226e8820867202ea85881f09cca04a9178dde341848832ad22ef459fb71dec0b6c385e19dacbeb4ed56c6d633b2a738bfd97b34c949f699132b79da61b00","gasLimit":"0x1c9c380","gasUsed":"0x2135c","hash":"0x6a9a81e13e7b7eedee8e5af1ca5f03374d383937e04f9ab842248802eb92d557","logsBloom":"0x00000000000000000000000000000000000000000000008800000000000000000000040000000000000000000002000000000000000000000000000000200000140004000040000000000008000000000000000000040000000000000000000000000000000000000000000000000000010000000000100000000010000000000000000000000000000000000000000000100000400000000000000100000000020000000000000000000000000000000000000021000000000000000000000000000002000000000000010000000004000000000000000000001000000000000010000004004000000000000000000000000000000000000000000000000000","miner":"0x0000000000000000000000000000000000000000","mixHash":"0x0000000000000000000000000000000000000000000000000000000000000000","nonce":"0x0000000000000000","number":"0xcff387","parentHash":"0xce8cf9b10ec065bda9d95f4cf4b3ff5e31263209d6e7261240866db265910a8b","receiptsRoot":"0xa9bc9fd0d9d1550ae19f9a4e76e121e9b00d82ddcbdaa3654054d3af5757bab5","sha3Uncles":"0x1dcc4de8dec75d7aab85b567b6ccd41ad312451b948a7413f0a142fd40d49347","size":"0x3d8","stateRoot":"0xbfc8b67fe935ed8dbebf114a6848618b4cf7de07cac66f8531018c755c392165","timestamp":"0x65243743","totalDifficulty":"0x19fe70f","transactions":[{"blockHash":"0x6a9a81e13e7b7eedee8e5af1ca5f03374d383937e04f9ab842248802eb92d557","blockNumber":"0xcff387","from":"0x30920e4f59abd9bc2b483c42a39e655ac2eaa4e9","gas":"0x23ec1","gasPrice":"0x2faf080","hash":"0x0163a7d9f0800470d97d3d106136f8825ddb2469c898ff017e77c797f9639621","index":"0xcff386","input":"0x414bf38900000000000000000000000097174506aafcc846a40832719bd8899a588bd05c00000000000000000000000078c1b0c915c4faa5fffa6cabf0219da63d7f4cb8000000000000000000000000000000000000000000000000000000000000271000000000000000000000000030920e4f59abd9bc2b483c42a39e655ac2eaa4e900000000000000000000000000000000000000000000000000000000652437620000000000000000000000000000000000000000000000fac7a8cc2aa1df60630000000000000000000000000000000000000000000000020353c0676ab6fcb20000000000000000000000000000000000000000000000000000000000000000","l1BlockNumber":"0x117744e","l1Timestamp":"0x65243743","l1TxOrigin":null,"nonce":"0x4c0","queueIndex":null,"queueOrigin":"sequencer","r":"0x3e1f4fdfd60ebfc724d2463ec9d5503a23ba1f3a12b05f1be20a603950720326","rawTransaction":"0xf9016e8204c08402faf08083023ec194319b69888b0d11cec22caa5034e25fffbdc8842180b90104414bf38900000000000000000000000097174506aafcc846a40832719bd8899a588bd05c00000000000000000000000078c1b0c915c4faa5fffa6cabf0219da63d7f4cb8000000000000000000000000000000000000000000000000000000000000271000000000000000000000000030920e4f59abd9bc2b483c42a39e655ac2eaa4e900000000000000000000000000000000000000000000000000000000652437620000000000000000000000000000000000000000000000fac7a8cc2aa1df60630000000000000000000000000000000000000000000000020353c0676ab6fcb20000000000000000000000000000000000000000000000000000000000000000822734a03e1f4fdfd60ebfc724d2463ec9d5503a23ba1f3a12b05f1be20a603950720326a01ce195d1abef620f7f4cb2d576e4ff9ca84f8f20ff6ffc86279bd4a1746abf11","s":"0x1ce195d1abef620f7f4cb2d576e4ff9ca84f8f20ff6ffc86279bd4a1746abf11","to":"0x319b69888b0d11cec22caa5034e25fffbdc88421","transactionIndex":"0x0","v":"0x2734","value":"0x0"}],"transactionsRoot":"0x3fde9fb194718060e9c3d62d5e993ce409199b7b703d4c2bb27ee34b35ebe0e1","uncles":[]},"receipts":{"0x0163a7d9f0800470d97d3d106136f8825ddb2469c898ff017e77c797f9639621":{"blockHash":"0x6a9a81e13e7b7eedee8e5af1ca5f03374d383937e04f9ab842248802eb92d557","blockNumber":"0xcff387","from":"0x30920e4f59abd9bc2b483c42a39e655ac2eaa4e9","gas":"0x23ec1","gasPrice":"0x2faf080","hash":"0x0163a7d9f0800470d97d3d106136f8825ddb2469c898ff017e77c797f9639621","index":"0xcff386","input":"0x414bf38900000000000000000000000097174506aafcc846a40832719bd8899a588bd05c00000000000000000000000078c1b0c915c4faa5fffa6cabf0219da63d7f4cb8000000000000000000000000000000000000000000000000000000000000271000000000000000000000000030920e4f59abd9bc2b483c42a39e655ac2eaa4e900000000000000000000000000000000000000000000000000000000652437620000000000000000000000000000000000000000000000fac7a8cc2aa1df60630000000000000000000000000000000000000000000000020353c0676ab6fcb20000000000000000000000000000000000000000000000000000000000000000","l1BlockNumber":"0x117744e","l1Timestamp":"0x65243743","l1TxOrigin":null,"nonce":"0x4c0","queueIndex":null,"queueOrigin":"sequencer","r":"0x3e1f4fdfd60ebfc724d2463ec9d5503a23ba1f3a12b05f1be20a603950720326","rawTransaction":"0xf9016e8204c08402faf08083023ec194319b69888b0d11cec22caa5034e25fffbdc8842180b90104414bf38900000000000000000000000097174506aafcc846a40832719bd8899a588bd05c00000000000000000000000078c1b0c915c4faa5fffa6cabf0219da63d7f4cb8000000000000000000000000000000000000000000000000000000000000271000000000000000000000000030920e4f59abd9bc2b483c42a39e655ac2eaa4e900000000000000000000000000000000000000000000000000000000652437620000000000000000000000000000000000000000000000fac7a8cc2aa1df60630000000000000000000000000000000000000000000000020353c0676ab6fcb20000000000000000000000000000000000000000000000000000000000000000822734a03e1f4fdfd60ebfc724d2463ec9d5503a23ba1f3a12b05f1be20a603950720326a01ce195d1abef620f7f4cb2d576e4ff9ca84f8f20ff6ffc86279bd4a1746abf11","s":"0x1ce195d1abef620f7f4cb2d576e4ff9ca84f8f20ff6ffc86279bd4a1746abf11","to":"0x319b69888b0d11cec22caa5034e25fffbdc88421","transactionIndex":"0x0","v":"0x2734","value":"0x0","contractAddress":null,"cumulativeGasUsed":"0x2135c","daFee":"0x0","daGasPrice":"0x0","daGasUsed":"0x12c","gasUsed":"0x2135c","l1Fee":"0x1c5145ff7a866d0","l1FeeScalar":"1","l1GasPrice":"0x3f1249c65230","l1GasUsed":"0x72f","logs":[{"address":"0x78c1b0c915c4faa5fffa6cabf0219da63d7f4cb8","blockHash":"0x6a9a81e13e7b7eedee8e5af1ca5f03374d383937e04f9ab842248802eb92d557","blockNumber":"0xcff387","data":"0x0000000000000000000000000000000000000000000000021e731b5f62db90bc","logIndex":"0x0","removed":false,"topics":["0xddf252ad1be2c89b69c2b068fc378daa952ba7f163c4a11628f55a4df523b3ef","0x0000000000000000000000003a873fe63bedad2e9f9b9b63bf8bedb5f1789167","0x00000000000000000000000030920e4f59abd9bc2b483c42a39e655ac2eaa4e9"],"transactionHash":"0x0163a7d9f0800470d97d3d106136f8825ddb2469c898ff017e77c797f9639621","transactionIndex":"0x0"},{"address":"0x97174506aafcc846a40832719bd8899a588bd05c","blockHash":"0x6a9a81e13e7b7eedee8e5af1ca5f03374d383937e04f9ab842248802eb92d557","blockNumber":"0xcff387","data":"0x0000000000000000000000000000000000000000000000fac7a8cc2aa1df6063","logIndex":"0x1","removed":false,"topics":["0xddf252ad1be2c89b69c2b068fc378daa952ba7f163c4a11628f55a4df523b3ef","0x00000000000000000000000030920e4f59abd9bc2b483c42a39e655ac2eaa4e9","0x0000000000000000000000003a873fe63bedad2e9f9b9b63bf8bedb5f1789167"],"transactionHash":"0x0163a7d9f0800470d97d3d106136f8825ddb2469c898ff017e77c797f9639621","transactionIndex":"0x0"},{"address":"0x97174506aafcc846a40832719bd8899a588bd05c","blockHash":"0x6a9a81e13e7b7eedee8e5af1ca5f03374d383937e04f9ab842248802eb92d557","blockNumber":"0xcff387","data":"0xfffffffffffffffffffffffffffffffffffffffffffeb5b2229c31a8deb4b2fc","logIndex":"0x2","removed":false,"topics":["0x8c5be1e5ebec7d5bd14f71427d1e84f3dd0314c0f7b2291e5b200ac8c7c3b925","0x00000000000000000000000030920e4f59abd9bc2b483c42a39e655ac2eaa4e9","0x000000000000000000000000319b69888b0d11cec22caa5034e25fffbdc88421"],"transactionHash":"0x0163a7d9f0800470d97d3d106136f8825ddb2469c898ff017e77c797f9639621","transactionIndex":"0x0"},{"address":"0x3a873fe63bedad2e9f9b9b63bf8bedb5f1789167","blockHash":"0x6a9a81e13e7b7eedee8e5af1ca5f03374d383937e04f9ab842248802eb92d557","blockNumber":"0xcff387","data":"0xfffffffffffffffffffffffffffffffffffffffffffffffde18ce4a09d246f440000000000000000000000000000000000000000000000fac7a8cc2aa1df6063000000000000000000000000000000000000000ad32b706409bf0cb20d06411500000000000000000000000000000000000000000004050e8f20b2f8a1c79e70000000000000000000000000000000000000000000000000000000000000ba170000000000000000000000000000000000000000000000000000000000000000000000000000000000000000000000000000000000000000cd705c675b0a22b7","logIndex":"0x3","removed":false,"topics":["0x19b47279256b2a23a1665c810c8d55a1758940ee09377d4f8d26497a3577dc83","0x000000000000000000000000319b69888b0d11cec22caa5034e25fffbdc88421","0x00000000000000000000000030920e4f59abd9bc2b483c42a39e655ac2eaa4e9"],"transactionHash":"0x0163a7d9f0800470d97d3d106136f8825ddb2469c898ff017e77c797f9639621","transactionIndex":"0x0"}],"logsBloom":"0x00000000000000000000000000000000000000000000008800000000000000000000040000000000000000000002000000000000000000000000000000200000140004000040000000000008000000000000000000040000000000000000000000000000000000000000000000000000010000000000100000000010000000000000000000000000000000000000000000100000400000000000000100000000020000000000000000000000000000000000000021000000000000000000000000000002000000000000010000000004000000000000000000001000000000000010000004004000000000000000000000000000000000000000000000000000","status":"0x1","transactionHash":"0x0163a7d9f0800470d97d3d106136f8825ddb2469c898ff017e77c797f9639621"}}}