{"block":{"difficulty":"0x2","extraData":"0xd98301090a846765746889676f312e31352e3133856c696e7578000000000000f33580e86b84cd2983ce57cc7489bb80fefc7568c0c2e64a465d9380b926aee237b238f298261780e0d589d3abb1cbd3553be12c15f6c8b7c6ccc8eca17c856801","gasLimit":"0x1c9c380","gasUsed":"0x2394c","hash":"0xcda3a93af4dcd7e3d5538c53d304ab9cba4de71aba4ec30c90506ebf59d73186","logsBloom":"0x00000000000000000000000000000000000000000001001000000000000000000800000000000000000000000002000000000000000000000000000000200000040000000040000000000408000000000000008000002000000000000000000000000000000000000000000100000000000000800000000000000010000000000000000000000000000000000000040000020000000000000000000040100000020000000000000000000000000000000000000000000000004100000000000000000002000000000000000000000000000000000000000000000000000000000010000100001000000000000000004000000000000000000000001000000000","miner":"0x0000000000000000000000000000000000000000","mixHash":"0x0000000000000000000000000000000000000000000000000000000000000000","nonce":"0x0000000000000000","number":"0xd00086","parentHash":"0x063d0d2222342fb73d8c59cd9155cccd5b24b69c8d5229a74d6c0573c3029bd4","receiptsRoot":"0x4d53311a4cdcf2ef42e8ee4c520257e1ec67173ad1a3bc34f22e78a871665ceb","sha3Uncles":"0x1dcc4de8dec75d7aab85b567b6ccd41ad312451b948a7413f0a142fd40d49347","size":"0x3d8","stateRoot":"0xe38dee356806e14871527b725c7aa814613daccebae899005151b918a098eee5","timestamp":"0x65243d0b","totalDifficulty":"0x1a0010d","transactions":[{"blockHash":"0xcda3a93af4dcd7e3d5538c53d304ab9cba4de71aba4ec30c90506ebf59d73186","blockNumber":"0xd00086","from":"0xbd48d0466d5a5148b91cdc8b54197f6a6a5a1a9c","gas":"0x2524f","gasPrice":"0x2faf080","hash":"0x51515bdc18014f227c98f11a7e8e6e0c48237f28a2c83a5f6abbfaf9757bee6f","index":"0xd00085","input":"0x414bf389000000000000000000000000201eba5cc46d216ce6dc03f6a759e8e766e956ae000000000000000000000000deaddeaddeaddeaddeaddeaddeaddeaddead111100000000000000000000000000000000000000000000000000000000000001f4000000000000000000000000bd48d0466d5a5148b91cdc8b54197f6a6a5a1a9c0000000000000000000000000000000000000000000000000000000065243d2900000000000000000000000000000000000000000000000000000000001842f0000000000000000000000000000000000000000000000000000381ea69d04d8c0000000000000000000000000000000000000000000000000000000000000000","l1BlockNumber":"0x11774c9","l1Timestamp":"0x65243d0b","l1TxOrigin":null,"nonce":"0xe29","queueIndex":null,"queueOrigin":"sequencer","r":"0xcfc743b22e13ef4f86dbd66583e1861457eef2271e938b0a308f1bb2d19b5a63","rawTransaction":"0xf9016e820e298402faf0808302524f945989fb161568b9f133edf5cf6787f5597762797f80b90104414bf389000000000000000000000000201eba5cc46d216ce6dc03f6a759e8e766e956ae000000000000000000000000deaddeaddeaddeaddeaddeaddeaddeaddead111100000000000000000000000000000000000000000000000000000000000001f4000000000000000000000000bd48d0466d5a5148b91cdc8b54197f6a6a5a1a9c0000000000000000000000000000000000000000000000000000000065243d2900000000000000000000000000000000000000000000000000000000001842f0000000000000000000000000000000000000000000000000000381ea69d04d8c0000000000000000000000000000000000000000000000000000000000000000822734a0cfc743b22e13ef4f86dbd66583e1861457eef2271e938b0a308f1bb2d19b5a63a0264fcf194958a489e1c6faa45ca494ab3e3aaac985402974cbd5939da4f4df86","s":"0x264fcf194958a489e1c6faa45ca494ab3e3aaac985402974cbd5939da4f4df86","to":"0x5989fb161568b9f133edf5cf6787f5597762797f","transactionIndex":"0x0","v":"0x2734","value":"0x0"}],"transactionsRoot":"0xe86b3ff0166da489f281b8c5ae46a83322bec69e2deb869476d98288984852a3","uncles":[]},"receipts":{"0x51515bdc18014f227c98f11a7e8e6e0c48237f28a2c83a5f6abbfaf9757bee6f":{"blockHash":"0xcda3a93af4dcd7e3d5538c53d304ab9cba4de71aba4ec30c90506ebf59d73186","blockNumber":"0xd00086","from":"0xbd48d0466d5a5148b91cdc8b54197f6a6a5a1a9c","gas":"0x2524f","gasPrice":"0x2faf080","hash":"0x51515bdc18014f227c98f11a7e8e6e0c48237f28a2c83a5f6abbfaf9757bee6f","index":"0xd00085","input":"0x414bf389000000000000000000000000201eba5cc46d216ce6dc03f6a759e8e766e956ae000000000000000000000000deaddeaddeaddeaddeaddeaddeaddeaddead111100000000000000000000000000000000000000000000000000000000000001f4000000000000000000000000bd48d0466d5a5148b91cdc8b54197f6a6a5a1a9c0000000000000000000000000000000000000000000000000000000065243d2900000000000000000000000000000000000000000000000000000000001842f0000000000000000000000000000000000000000000000000000381ea69d04d8c0000000000000000000000000000000000000000000000000000000000000000","l1BlockNumber":"0x11774c9","l1Timestamp":"0x65243d0b","l1TxOrigin":null,"nonce":"0xe29","queueIndex":null,"queueOrigin":"sequencer","r":"0xcfc743b22e13ef4f86dbd66583e1861457eef2271e938b0a308f1bb2d19b5a63","rawTransaction":"0xf9016e820e298402faf0808302524f945989fb161568b9f133edf5cf6787f5597762797f80b90104414bf389000000000000000000000000201eba5cc46d216ce6dc03f6a759e8e766e956ae000000000000000000000000deaddeaddeaddeaddeaddeaddeaddeaddead111100000000000000000000000000000000000000000000000000000000000001f4000000000000000000000000bd48d0466d5a5148b91cdc8b54197f6a6a5a1a9c0000000000000000000000000000000000000000000000000000000065243d2900000000000000000000000000000000000000000000000000000000001842f0000000000000000000000000000000000000000000000000000381ea69d04d8c0000000000000000000000000000000000000000000000000000000000000000822734a0cfc743b22e13ef4f86dbd66583e1861457eef2271e938b0a308f1bb2d19b5a63a0264fcf194958a489e1c6faa45ca494ab3e3aaac985402974cbd5939da4f4df86","s":"0x264fcf194958a489e1c6faa45ca494ab3e3aaac985402974cbd5939da4f4df86","to":"0x5989fb161568b9f133edf5cf6787f5597762797f","transactionIndex":"0x0","v":"0x2734","value":"0x0","contractAddress":null,"cumulativeGasUsed":"0x2394c","daFee":"0x0","daGasPrice":"0x0","daGasUsed":"0x12c","gasUsed":"0x2394c","l1Fee":"0x1a09f6380cb9fe0","l1FeeScalar":"1","l1GasPrice":"0x39ff1464e55c","l1GasUsed":"0x72f","logs":[{"address":"0xdeaddeaddeaddeaddeaddeaddeaddeaddead1111","blockHash":"0xcda3a93af4dcd7e3d5538c53d304ab9cba4de71aba4ec30c90506ebf59d73186","blockNumber":"0xd00086","data":"0x0000000000000000000000000000000000000000000000000003943d908b6941","logIndex":"0x0","removed":false,"topics":["0xddf252ad1be2c89b69c2b068fc378daa952ba7f163c4a11628f55a4df523b3ef","0x000000000000000000000000a125af1a4704044501fe12ca9567ef1550e430e8","0x000000000000000000000000bd48d0466d5a5148b91cdc8b54197f6a6a5a1a9c"],"transactionHash":"0x51515bdc18014f227c98f11a7e8e6e0c48237f28a2c83a5f6abbfaf9757bee6f","transactionIndex":"0x0"},{"address":"0x201eba5cc46d216ce6dc03f6a759e8e766e956ae","blockHash":"0xcda3a93af4dcd7e3d5538c53d304ab9cba4de71aba4ec30c90506ebf59d73186","blockNumber":"0xd00086","data":"0x00000000000000000000000000000000000000000000000000000000001842f0","logIndex":"0x1","removed":false,"topics":["0xddf252ad1be2c89b69c2b068fc378daa952ba7f163c4a11628f55a4df523b3ef","0x000000000000000000000000bd48d0466d5a5148b91cdc8b54197f6a6a5a1a9c","0x000000000000000000000000a125af1a4704044501fe12ca9567ef1550e430e8"],"transactionHash":"0x51515bdc18014f227c98f11a7e8e6e0c48237f28a2c83a5f6abbfaf9757bee6f","transactionIndex":"0x0"},{"address":"0x201eba5cc46d216ce6dc03f6a759e8e766e956ae","blockHash":"0xcda3a93af4dcd7e3d5538c53d304ab9cba4de71aba4ec30c90506ebf59d73186","blockNumber":"0xd00086","data":"0xfffffffffffffffffffffffffffffffffffffffffffffffffffffffff712ff0f","logIndex":"0x2","removed":false,"topics":["0x8c5be1e5ebec7d5bd14f71427d1e84f3dd0314c0f7b2291e5b200ac8c7c3b925","0x000000000000000000000000bd48d0466d5a5148b91cdc8b54197f6a6a5a1a9c","0x0000000000000000000000005989fb161568b9f133edf5cf6787f5597762797f"],"transactionHash":"0x51515bdc18014f227c98f11a7e8e6e0c48237f28a2c83a5f6abbfaf9757bee6f","transactionIndex":"0x0"},{"address":"0xa125af1a4704044501fe12ca9567ef1550e430e8","blockHash":"0xcda3a93af4dcd7e3d5538c53d304ab9cba4de71aba4ec30c90506ebf59d73186","blockNumber":"0xd00086","data":"0x00000000000000000000000000000000000000000000000000000000001842f0fffffffffffffffffffffffffffffffffffffffffffffffffffc6bc26f7496bf00000000000000000000000000000000000062599c9d7dd8b4fc434aada9bf7300000000000000000000000000000000000000000000000000c2e1d164a152b300000000000000000000000000000000000000000000000000000000000317bc000000000000000000000000000000000000000000000000000000000000010e0000000000000000000000000000000000000000000000000000000000000000","logIndex":"0x3","removed":false,"topics":["0x19b47279256b2a23a1665c810c8d55a1758940ee09377d4f8d26497a3577dc83","0x0000000000000000000000005989fb161568b9f133edf5cf6787f5597762797f","0x000000000000000000000000bd48d0466d5a5148b91cdc8b54197f6a6a5a1a9c"],"transactionHash":"0x51515bdc18014f227c98f11a7e8e6e0c48237f28a2c83a5f6abbfaf9757bee6f","transactionIndex":"0x0"}],"logsBloom":"0x00000000000000000000000000000000000000000001001000000000000000000800000000000000000000000002000000000000000000000000000000200000040000000040000000000408000000000000008000002000000000000000000000000000000000000000000100000000000000800000000000000010000000000000000000000000000000000000040000020000000000000000000040100000020000000000000000000000000000000000000000000000004100000000000000000002000000000000000000000000000000000000000000000000000000000010000100001000000000000000004000000000000000000000001000000000","status":"0x1","transactionHash":"0x51515bdc18014f227c98f11a7e8e6e0c48237f28a2c83a5f6abbfaf9757bee6f"}}}