{"block":{"difficulty":"0x2","extraData":"0xd98301090a846765746889676f312e31352e3133856c696e757800000000000034e398d2d4316e0ae225bde4f478c542041cb7943aab27faa5d28962cc42033d07fcf4e1327f0c92465f952dd7d2240e1b32baa2552e2276fb0bd7ab0900b48d00","gasLimit":"0x1c9c380","gasUsed":"0x1dfb5","hash":"0x02de4faf392503b22d6276d0bb0e7ddeb42e03f7444a38b983694f816cb605b5","logsBloom":"0x00000000000000000000000000000000000000000000000000000000000000000000000000000000000000000000000000000000000000000000000000000000000000000000000000000000000000000000000000000000000000000000000000000000000000000000000000000000000000000000000000000000000000000000000000000000000000000000000000000000000000000000000000000000000000000000000000000000000000000000000000000000000000000000000000000000000000000000000000000000000000000000000000000000000000000000000000000000000000000000000000000000000000000000000000000000","miner":"0x0000000000000000000000000000000000000000","mixHash":"0x0000000000000000000000000000000000000000000000000000000000000000","nonce":"0x0000000000000000","number":"0xd00307","parentHash":"0xbc2df5e138edadac0f177d3ded96b31e6194a4509c93e58ad9664db8ca707755","receiptsRoot":"0xdba1398d3b5f3f56a2c7203164d59bf9f5975a8ca43ee39c0123b338b4b7691e","sha3Uncles":"0x1dcc4de8dec75d7aab85b567b6ccd41ad312451b948a7413f0a142fd40d49347","size":"0x3d8","stateRoot":"0xa73ff60ffe2feb1047a3b1414eed4f70aeea64cc3585f6b0c7dddb4b3db9963e","timestamp":"0x65243e57","totalDifficulty":"0x1a0060f","transactions":[{"blockHash":"0x02de4faf392503b22d6276d0bb0e7ddeb42e03f7444a38b983694f816cb605b5","blockNumber":"0xd00307","from":"0x09837c1244260cf535320fad73cff127807d9602","gas":"0x1e54a","gasPrice":"0x2faf080","hash":"0x53060be438c1d1b83183683a086900e756d5a32f4f50e9c2989ed2774b818f68","index":"0xd00306","input":"0x414bf389000000000000000000000000deaddeaddeaddeaddeaddeaddeaddeaddead1111000000000000000000000000201eba5cc46d216ce6dc03f6a759e8e766e956ae00000000000000000000000000000000000000000000000000000000000001f400000000000000000000000009837c1244260cf535320fad73cff127807d96020000000000000000000000000000000000000000000000000000000065243e7500000000000000000000000000000000000000000000000000017dfcdece4000000000000000000000000000000000000000000000000000000000000009f3920000000000000000000000000000000000000000000000000000000000000000","l1BlockNumber":"0x11774e5","l1Timestamp":"0x65243e57","l1TxOrigin":null,"nonce":"0xbf3","queueIndex":null,"queueOrigin":"sequencer","r":"0xffd4f73b184ced2fe40e3212fb5a132f19fde8a9bd7ed169558c5e6f73416a78","rawTransaction":"0xf9016e820bf38402faf0808301e54a94319b69888b0d11cec22caa5034e25fffbdc8842180b90104414bf389000000000000000000000000deaddeaddeaddeaddeaddeaddeaddeaddead1111000000000000000000000000201eba5cc46d216ce6dc03f6a759e8e766e956ae00000000000000000000000000000000000000000000000000000000000001f400000000000000000000000009837c1244260cf535320fad73cff127807d96020000000000000000000000000000000000000000000000000000000065243e7500000000000000000000000000000000000000000000000000017dfcdece4000000000000000000000000000000000000000000000000000000000000009f3920000000000000000000000000000000000000000000000000000000000000000822733a0ffd4f73b184ced2fe40e3212fb5a132f19fde8a9bd7ed169558c5e6f73416a78a00290a5c7cc3d6f3061c99455634b9b77ee78b23f300709d7964f5f6960c21490","s":"0x290a5c7cc3d6f3061c99455634b9b77ee78b23f300709d7964f5f6960c21490","to":"0x319b69888b0d11cec22caa5034e25fffbdc88421","transactionIndex":"0x0","v":"0x2733","value":"0x0"}],"transactionsRoot":"0xc13903e866595c0b5919f5f616d4f35115c3df21c7a9b573ba7e300871138adb","uncles":[]},"receipts":{"0x53060be438c1d1b83183683a086900e756d5a32f4f50e9c2989ed2774b818f68":{"blockHash":"0x02de4faf392503b22d6276d0bb0e7ddeb42e03f7444a38b983694f816cb605b5","blockNumber":"0xd00307","from":"0x09837c1244260cf535320fad73cff127807d9602","gas":"0x1e54a","gasPrice":"0x2faf080","hash":"0x53060be438c1d1b83183683a086900e756d5a32f4f50e9c2989ed2774b818f68","index":"0xd00306","input":"0x414bf389000000000000000000000000deaddeaddeaddeaddeaddeaddeaddeaddead1111000000000000000000000000201eba5cc46d216ce6dc03f6a759e8e766e956ae00000000000000000000000000000000000000000000000000000000000001f400000000000000000000000009837c1244260cf535320fad73cff127807d96020000000000000000000000000000000000000000000000000000000065243e7500000000000000000000000000000000000000000000000000017dfcdece4000000000000000000000000000000000000000000000000000000000000009f3920000000000000000000000000000000000000000000000000000000000000000","l1BlockNumber":"0x11774e5","l1Timestamp":"0x65243e57","l1TxOrigin":null,"nonce":"0xbf3","queueIndex":null,"queueOrigin":"sequencer","r":"0xffd4f73b184ced2fe40e3212fb5a132f19fde8a9bd7ed169558c5e6f73416a78","rawTransaction":"0xf9016e820bf38402faf0808301e54a94319b69888b0d11cec22caa5034e25fffbdc8842180b90104414bf389000000000000000000000000deaddeaddeaddeaddeaddeaddeaddeaddead1111000000000000000000000000201eba5cc46d216ce6dc03f6a759e8e766e956ae00000000000000000000000000000000000000000000000000000000000001f400000000000000000000000009837c1244260cf535320fad73cff127807d96020000000000000000000000000000000000000000000000000000000065243e7500000000000000000000000000000000000000000000000000017dfcdece4000000000000000000000000000000000000000000000000000000000000009f3920000000000000000000000000000000000000000000000000000000000000000822733a0ffd4f73b184ced2fe40e3212fb5a132f19fde8a9bd7ed169558c5e6f73416a78a00290a5c7cc3d6f3061c99455634b9b77ee78b23f300709d7964f5f6960c21490","s":"0x290a5c7cc3d6f3061c99455634b9b77ee78b23f300709d7964f5f6960c21490","to":"0x319b69888b0d11cec22caa5034e25fffbdc88421","transactionIndex":"0x0","v":"0x2733","value":"0x0","contractAddress":null,"cumulativeGasUsed":"0x1dfb5","daFee":"0x0","daGasPrice":"0x0","daGasUsed":"0x12c","gasUsed":"0x1dfb5","l1Fee":"0x19709d787180660","l1FeeScalar":"1","l1GasPrice":"0x38a987f04864","l1GasUsed":"0x72f","logs":[],"logsBloom":"0x00000000000000000000000000000000000000000000000000000000000000000000000000000000000000000000000000000000000000000000000000000000000000000000000000000000000000000000000000000000000000000000000000000000000000000000000000000000000000000000000000000000000000000000000000000000000000000000000000000000000000000000000000000000000000000000000000000000000000000000000000000000000000000000000000000000000000000000000000000000000000000000000000000000000000000000000000000000000000000000000000000000000000000000000000000000","status":"0x0","transactionHash":"0x53060be438c1d1b83183683a086900e756d5a32f4f50e9c2989ed2774b818f68"}}}