{"block":{"difficulty":"0x2","extraData":"0xd98301090a846765746889676f312e31352e3133856c696e75780000000000003f6c7c21ec00ffba413e520989239f8968bd7afa982324ff6850e4033fca45a9524bad04cc1e69f8ead678de2640da54d68d3d57c632580ad37e193d95178e1600","gasLimit":"0x1c9c380","gasUsed":"0x23966","hash":"0xc50264cd79b760f87cc10f1654c72a1a105051a41913592012904a04006d1ab6","logsBloom":"0x00000000000000000000000000000000000000000001201000000000000000010800000000000000000000000002000000000000000000000000000000200000040000000040000000000408000000000000008000002000000000000000000000000000000000000000000100000000000000000000000000000010000000000000000000000000000000000000040000020000000000000000000040000000020000000000000000000000000000000000000000000000004100000040000000000002000000000000000000000000000000000000000000000000000000000010000000001000000000000000004000000000000000000000001000000000","miner":"0x0000000000000000000000000000000000000000","mixHash":"0x0000000000000000000000000000000000000000000000000000000000000000","nonce":"0x0000000000000000","number":"0xcff362","parentHash":"0x57ece9b02f028cbe9c58b7a8b30645e54916a0b270cd2fc95978bce3e1ba55c4","receiptsRoot":"0xb2231fe4266356d62913ca766b726cc5382ca1c00425d606f1c7f0116f0f23e4","sha3Uncles":"0x1dcc4de8dec75d7aab85b567b6ccd41ad312451b948a7413f0a142fd40d49347","size":"0x3d8","stateRoot":"0xdc2d0a76c3d7803f4f639256373e56ba32f6128b0471828b7afba7250e1c3f88","timestamp":"0x65243734","totalDifficulty":"0x19fe6c5","transactions":[{"blockHash":"0xc50264cd79b760f87cc10f1654c72a1a105051a41913592012904a04006d1ab6","blockNumber":"0xcff362","from":"0xd50fdf03d2b6ea8b93621d4304142386685d312a","gas":"0x2526a","gasPrice":"0x2faf080","hash":"0xe6367fd3cd742a85d7e80be61ec0375ede5b5f279d51ac87a97a10e6b0b63bf7","index":"0xcff361","input":"0x414bf389000000000000000000000000201eba5cc46d216ce6dc03f6a759e8e766e956ae000000000000000000000000deaddeaddeaddeaddeaddeaddeaddeaddead111100000000000000000000000000000000000000000000000000000000000001f4000000000000000000000000d50fdf03d2b6ea8b93621d4304142386685d312a000000000000000000000000000000000000000000000000000000006524375400000000000000000000000000000000000000000000000000000000001228700000000000000000000000000000000000000000000000000002a2545cef050f0000000000000000000000000000000000000000000000000000000000000000","l1BlockNumber":"0x117744d","l1Timestamp":"0x65243734","l1TxOrigin":null,"nonce":"0xeff","queueIndex":null,"queueOrigin":"sequencer","r":"0xe6f21e90b2afda04f4d5a4e5a97991e320979476f433296824a72812369acc87","rawTransaction":"0xf9016e820eff8402faf0808302526a945989fb161568b9f133edf5cf6787f5597762797f80b90104414bf389000000000000000000000000201eba5cc46d216ce6dc03f6a759e8e766e956ae000000000000000000000000deaddeaddeaddeaddeaddeaddeaddeaddead111100000000000000000000000000000000000000000000000000000000000001f4000000000000000000000000d50fdf03d2b6ea8b93621d4304142386685d312a000000000000000000000000000000000000000000000000000000006524375400000000000000000000000000000000000000000000000000000000001228700000000000000000000000000000000000000000000000000002a2545cef050f0000000000000000000000000000000000000000000000000000000000000000822734a0e6f21e90b2afda04f4d5a4e5a97991e320979476f433296824a72812369acc87a02a42f209d8b76d180b5177b4317e83de084aa3d1a7d140c6af4b0e21fbb8132c","s":"0x2a42f209d8b76d180b5177b4317e83de084aa3d1a7d140c6af4b0e21fbb8132c","to":"0x5989fb161568b9f133edf5cf6787f5597762797f","transactionIndex":"0x0","v":"0x2734","value":"0x0"}],"transactionsRoot":"0x805ea491818a71491114826919d7df0e3ffc7da9177667621fe8e300b590a774","uncles":[]},"receipts":{"0xe6367fd3cd742a85d7e80be61ec0375ede5b5f279d51ac87a97a10e6b0b63bf7":{"blockHash":"0xc50264cd79b760f87cc10f1654c72a1a105051a41913592012904a04006d1ab6","blockNumber":"0xcff362","from":"0xd50fdf03d2b6ea8b93621d4304142386685d312a","gas":"0x2526a","gasPrice":"0x2faf080","hash":"0xe6367fd3cd742a85d7e80be61ec0375ede5b5f279d51ac87a97a10e6b0b63bf7","index":"0xcff361","input":"0x414bf389000000000000000000000000201eba5cc46d216ce6dc03f6a759e8e766e956ae000000000000000000000000deaddeaddeaddeaddeaddeaddeaddeaddead111100000000000000000000000000000000000000000000000000000000000001f4000000000000000000000000d50fdf03d2b6ea8b93621d4304142386685d312a000000000000000000000000000000000000000000000000000000006524375400000000000000000000000000000000000000000000000000000000001228700000000000000000000000000000000000000000000000000002a2545cef050f0000000000000000000000000000000000000000000000000000000000000000","l1BlockNumber":"0x117744d","l1Timestamp":"0x65243734","l1TxOrigin":null,"nonce":"0xeff","queueIndex":null,"queueOrigin":"sequencer","r":"0xe6f21e90b2afda04f4d5a4e5a97991e320979476f433296824a72812369acc87","rawTransaction":"0xf9016e820eff8402faf0808302526a945989fb161568b9f133edf5cf6787f5597762797f80b90104414bf389000000000000000000000000201eba5cc46d216ce6dc03f6a759e8e766e956ae000000000000000000000000deaddeaddeaddeaddeaddeaddeaddeaddead111100000000000000000000000000000000000000000000000000000000000001f4000000000000000000000000d50fdf03d2b6ea8b93621d4304142386685d312a000000000000000000000000000000000000000000000000000000006524375400000000000000000000000000000000000000000000000000000000001228700000000000000000000000000000000000000000000000000002a2545cef050f0000000000000000000000000000000000000000000000000000000000000000822734a0e6f21e90b2afda04f4d5a4e5a97991e320979476f433296824a72812369acc87a02a42f209d8b76d180b5177b4317e83de084aa3d1a7d140c6af4b0e21fbb8132c","s":"0x2a42f209d8b76d180b5177b4317e83de084aa3d1a7d140c6af4b0e21fbb8132c","to":"0x5989fb161568b9f133edf5cf6787f5597762797f","transactionIndex":"0x0","v":"0x2734","value":"0x0","contractAddress":null,"cumulativeGasUsed":"0x23966","daFee":"0x0","daGasPrice":"0x0","daGasUsed":"0x12c","gasUsed":"0x23966","l1Fee":"0x1c5145ff7a866d0","l1FeeScalar":"1","l1GasPrice":"0x3f1249c65230","l1GasUsed":"0x72f","logs":[{"address":"0xdeaddeaddeaddeaddeaddeaddeaddeaddead1111","blockHash":"0xc50264cd79b760f87cc10f1654c72a1a105051a41913592012904a04006d1ab6","blockNumber":"0xcff362","data":"0x0000000000000000000000000000000000000000000000000002b017640e052a","logIndex":"0x0","removed":false,"topics":["0xddf252ad1be2c89b69c2b068fc378daa952ba7f163c4a11628f55a4df523b3ef","0x000000000000000000000000a125af1a4704044501fe12ca9567ef1550e430e8","0x000000000000000000000000d50fdf03d2b6ea8b93621d4304142386685d312a"],"transactionHash":"0xe6367fd3cd742a85d7e80be61ec0375ede5b5f279d51ac87a97a10e6b0b63bf7","transactionIndex":"0x0"},{"address":"0x201eba5cc46d216ce6dc03f6a759e8e766e956ae","blockHash":"0xc50264cd79b760f87cc10f1654c72a1a105051a41913592012904a04006d1ab6","blockNumber":"0xcff362","data":"0x0000000000000000000000000000000000000000000000000000000000122870","logIndex":"0x1","removed":false,"topics":["0xddf252ad1be2c89b69c2b068fc378daa952ba7f163c4a11628f55a4df523b3ef","0x000000000000000000000000d50fdf03d2b6ea8b93621d4304142386685d312a","0x000000000000000000000000a125af1a4704044501fe12ca9567ef1550e430e8"],"transactionHash":"0xe6367fd3cd742a85d7e80be61ec0375ede5b5f279d51ac87a97a10e6b0b63bf7","transactionIndex":"0x0"},{"address":"0x201eba5cc46d216ce6dc03f6a759e8e766e956ae","blockHash":"0xc50264cd79b760f87cc10f1654c72a1a105051a41913592012904a04006d1ab6","blockNumber":"0xcff362","data":"0xfffffffffffffffffffffffffffffffffffffffffffffffffffffffff7dc1b6f","logIndex":"0x2","removed":false,"topics":["0x8c5be1e5ebec7d5bd14f71427d1e84f3dd0314c0f7b2291e5b200ac8c7c3b925","0x000000000000000000000000d50fdf03d2b6ea8b93621d4304142386685d312a","0x0000000000000000000000005989fb161568b9f133edf5cf6787f5597762797f"],"transactionHash":"0xe6367fd3cd742a85d7e80be61ec0375ede5b5f279d51ac87a97a10e6b0b63bf7","transactionIndex":"0x0"},{"address":"0xa125af1a4704044501fe12ca9567ef1550e430e8","blockHash":"0xc50264cd79b760f87cc10f1654c72a1a105051a41913592012904a04006d1ab6","blockNumber":"0xcff362","data":"0x0000000000000000000000000000000000000000000000000000000000122870fffffffffffffffffffffffffffffffffffffffffffffffffffd4fe89bf1fad60000000000000000000000000000000000006284bf994cca2ac58308f47c49e500000000000000000000000000000000000000000000000000c2df904b49ba7000000000000000000000000000000000000000000000000000000000000317de00000000000000000000000000000000000000000000000000000000000000ca0000000000000000000000000000000000000000000000000000000000000000","logIndex":"0x3","removed":false,"topics":["0x19b47279256b2a23a1665c810c8d55a1758940ee09377d4f8d26497a3577dc83","0x0000000000000000000000005989fb161568b9f133edf5cf6787f5597762797f","0x000000000000000000000000d50fdf03d2b6ea8b93621d4304142386685d312a"],"transactionHash":"0xe6367fd3cd742a85d7e80be61ec0375ede5b5f279d51ac87a97a10e6b0b63bf7","transactionIndex":"0x0"}],"logsBloom":"0x00000000000000000000000000000000000000000001201000000000000000010800000000000000000000000002000000000000000000000000000000200000040000000040000000000408000000000000008000002000000000000000000000000000000000000000000100000000000000000000000000000010000000000000000000000000000000000000040000020000000000000000000040000000020000000000000000000000000000000000000000000000004100000040000000000002000000000000000000000000000000000000000000000000000000000010000000001000000000000000004000000000000000000000001000000000","status":"0x1","transactionHash":"0xe6367fd3cd742a85d7e80be61ec0375ede5b5f279d51ac87a97a10e6b0b63bf7"}}}