{"block":{"difficulty":"0x2","extraData":"0xd98301090a846765746889676f312e31352e3133856c696e75780000000000004d7c0db3b636c3a5489851aeffa43b9478502279cd5fb26917d92f0c399160b52ee81ef280f637c473e5f5944a4f04a18973c76e36be852e139d3b1dd5fb3b4800","gasLimit":"0x1c9c380","gasUsed":"0x1e14d","hash":"0x7e568a3e9f70053756846a490f1eba9b7f9c6c412e6d749d240d7822d00eef79","logsBloom":"0x4000000000000000000000000000000000000000000100880000000000000000000000000000000000000000000200000080000000000000000000000020000084000000004000000000000800000000000000800000200400000000000000000000000100000000000000010000000000000000000000000000001000000000000000000000000000000000000000000000000000000000000800000000000002000000000000000000000000000000000000000100002000210000000000000000000a000000000000000000000000000000000000000000000000000000000010000000001000000000000000000000000000000000000000000000000000","miner":"0x0000000000000000000000000000000000000000","mixHash":"0x0000000000000000000000000000000000000000000000000000000000000000","nonce":"0x0000000000000000","number":"0xd00127","parentHash":"0x10fc70c7ba8459941fdec1f3330d21c0a7cc566361d9fa68794b88e2db62cc1e","receiptsRoot":"0xb82529f297db657e74121f84cb7f13224163814b0855fe6a771e6021976f68ce","sha3Uncles":"0x1dcc4de8dec75d7aab85b567b6ccd41ad312451b948a7413f0a142fd40d49347","size":"0x3d8","stateRoot":"0x86d88b391d1d074bd50c4f606b670db5cdb6b74d2186ab19cc0bfcc40b6bed89","timestamp":"0x65243d59","totalDifficulty":"0x1a0024f","transactions":[{"blockHash":"0x7e568a3e9f70053756846a490f1eba9b7f9c6c412e6d749d240d7822d00eef79","blockNumber":"0xd00127","from":"0x9ece8d78685e2b15d908e24d7e4048231f376580","gas":"0x1f8dc","gasPrice":"0x2faf080","hash":"0x5d1949b1d2a451271fa3c411d1b4646a25caea98269d085526fc041a468a6582","index":"0xd00126","input":"0x414bf389000000000000000000000000deaddeaddeaddeaddeaddeaddeaddeaddead1111000000000000000000000000201eba5cc46d216ce6dc03f6a759e8e766e956ae00000000000000000000000000000000000000000000000000000000000001f40000000000000000000000009ece8d78685e2b15d908e24d7e4048231f3765800000000000000000000000000000000000000000000000000000000065243d78000000000000000000000000000000000000000000000000000246139ca8000000000000000000000000000000000000000000000000000000000000000f2b310000000000000000000000000000000000000000000000000000000000000000","l1BlockNumber":"0x11774d0","l1Timestamp":"0x65243d59","l1TxOrigin":null,"nonce":"0xb8c","queueIndex":null,"queueOrigin":"sequencer","r":"0x306881d0232f4f60249754dc0492044e264ae98910e226b2a3e24d47b3755f6b","rawTransaction":"0xf9016e820b8c8402faf0808301f8dc94319b69888b0d11cec22caa5034e25fffbdc8842180b90104414bf389000000000000000000000000deaddeaddeaddeaddeaddeaddeaddeaddead1111000000000000000000000000201eba5cc46d216ce6dc03f6a759e8e766e956ae00000000000000000000000000000000000000000000000000000000000001f40000000000000000000000009ece8d78685e2b15d908e24d7e4048231f3765800000000000000000000000000000000000000000000000000000000065243d78000000000000000000000000000000000000000000000000000246139ca8000000000000000000000000000000000000000000000000000000000000000f2b310000000000000000000000000000000000000000000000000000000000000000822734a0306881d0232f4f60249754dc0492044e264ae98910e226b2a3e24d47b3755f6ba00c35957df1de268a47b393045c305b9c62b176482fa1e5d1d7897f8fb3647479","s":"0xc35957df1de268a47b393045c305b9c62b176482fa1e5d1d7897f8fb3647479","to":"0x319b69888b0d11cec22caa5034e25fffbdc88421","transactionIndex":"0x0","v":"0x2734","value":"0x0"}],"transactionsRoot":"0xe9e4f1234e08293c8bece69ca3e75c08b176a97a92d6480a07bcd69b12740bea","uncles":[]},"receipts":{"0x5d1949b1d2a451271fa3c411d1b4646a25caea98269d085526fc041a468a6582":{"blockHash":"0x7e568a3e9f70053756846a490f1eba9b7f9c6c412e6d749d240d7822d00eef79","blockNumber":"0xd00127","from":"0x9ece8d78685e2b15d908e24d7e4048231f376580","gas":"0x1f8dc","gasPrice":"0x2faf080","hash":"0x5d1949b1d2a451271fa3c411d1b4646a25caea98269d085526fc041a468a6582","index":"0xd00126","input":"0x414bf389000000000000000000000000deaddeaddeaddeaddeaddeaddeaddeaddead1111000000000000000000000000201eba5cc46d216ce6dc03f6a759e8e766e956ae00000000000000000000000000000000000000000000000000000000000001f40000000000000000000000009ece8d78685e2b15d908e24d7e4048231f3765800000000000000000000000000000000000000000000000000000000065243d78000000000000000000000000000000000000000000000000000246139ca8000000000000000000000000000000000000000000000000000000000000000f2b310000000000000000000000000000000000000000000000000000000000000000","l1BlockNumber":"0x11774d0","l1Timestamp":"0x65243d59","l1TxOrigin":null,"nonce":"0xb8c","queueIndex":null,"queueOrigin":"sequencer","r":"0x306881d0232f4f60249754dc0492044e264ae98910e226b2a3e24d47b3755f6b","rawTransaction":"0xf9016e820b8c8402faf0808301f8dc94319b69888b0d11cec22caa5034e25fffbdc8842180b90104414bf389000000000000000000000000deaddeaddeaddeaddeaddeaddeaddeaddead1111000000000000000000000000201eba5cc46d216ce6dc03f6a759e8e766e956ae00000000000000000000000000000000000000000000000000000000000001f40000000000000000000000009ece8d78685e2b15d908e24d7e4048231f3765800000000000000000000000000000000000000000000000000000000065243d78000000000000000000000000000000000000000000000000000246139ca8000000000000000000000000000000000000000000000000000000000000000f2b310000000000000000000000000000000000000000000000000000000000000000822734a0306881d0232f4f60249754dc0492044e264ae98910e226b2a3e24d47b3755f6ba00c35957df1de268a47b393045c305b9c62b176482fa1e5d1d7897f8fb3647479","s":"0xc35957df1de268a47b393045c305b9c62b176482fa1e5d1d7897f8fb3647479","to":"0x319b69888b0d11cec22caa5034e25fffbdc88421","transactionIndex":"0x0","v":"0x2734","value":"0x0","contractAddress":null,"cumulativeGasUsed":"0x1e14d","daFee":"0x0","daGasPrice":"0x0","daGasUsed":"0x12c","gasUsed":"0x1e14d","l1Fee":"0x1a09f6380cb9fe0","l1FeeScalar":"1","l1GasPrice":"0x39ff1464e55c","l1GasUsed":"0x72f","logs":[{"address":"0x201eba5cc46d216ce6dc03f6a759e8e766e956ae","blockHash":"0x7e568a3e9f70053756846a490f1eba9b7f9c6c412e6d749d240d7822d00eef79","blockNumber":"0xd00127","data":"0x00000000000000000000000000000000000000000000000000000000000f7a71","logIndex":"0x0","removed":false,"topics":["0xddf252ad1be2c89b69c2b068fc378daa952ba7f163c4a11628f55a4df523b3ef","0x000000000000000000000000628f7131cf43e88ebe3921ae78c4ba0c31872bd4","0x0000000000000000000000009ece8d78685e2b15d908e24d7e4048231f376580"],"transactionHash":"0x5d1949b1d2a451271fa3c411d1b4646a25caea98269d085526fc041a468a6582","transactionIndex":"0x0"},{"address":"0xdeaddeaddeaddeaddeaddeaddeaddeaddead1111","blockHash":"0x7e568a3e9f70053756846a490f1eba9b7f9c6c412e6d749d240d7822d00eef79","blockNumber":"0xd00127","data":"0x000000000000000000000000000000000000000000000000000246139ca80000","logIndex":"0x1","removed":false,"topics":["0xddf252ad1be2c89b69c2b068fc378daa952ba7f163c4a11628f55a4df523b3ef","0x0000000000000000000000009ece8d78685e2b15d908e24d7e4048231f376580","0x000000000000000000000000628f7131cf43e88ebe3921ae78c4ba0c31872bd4"],"transactionHash":"0x5d1949b1d2a451271fa3c411d1b4646a25caea98269d085526fc041a468a6582","transactionIndex":"0x0"},{"address":"0xdeaddeaddeaddeaddeaddeaddeaddeaddead1111","blockHash":"0x7e568a3e9f70053756846a490f1eba9b7f9c6c412e6d749d240d7822d00eef79","blockNumber":"0xd00127","data":"0xfffffffffffffffffffffffffffffffffffffffffffffffffcc299ea15f60fff","logIndex":"0x2","removed":false,"topics":["0x8c5be1e5ebec7d5bd14f71427d1e84f3dd0314c0f7b2291e5b200ac8c7c3b925","0x0000000000000000000000009ece8d78685e2b15d908e24d7e4048231f376580","0x000000000000000000000000319b69888b0d11cec22caa5034e25fffbdc88421"],"transactionHash":"0x5d1949b1d2a451271fa3c411d1b4646a25caea98269d085526fc041a468a6582","transactionIndex":"0x0"},{"address":"0x628f7131cf43e88ebe3921ae78c4ba0c31872bd4","blockHash":"0x7e568a3e9f70053756846a490f1eba9b7f9c6c412e6d749d240d7822d00eef79","blockNumber":"0xd00127","data":"0xfffffffffffffffffffffffffffffffffffffffffffffffffffffffffff0858f000000000000000000000000000000000000000000000000000246139ca80000000000000000000000000000000000000000621e76c7dd31067db4a171b980f100000000000000000000000000000000000000000000000000002c65dde06c20000000000000000000000000000000000000000000000000000000000003178d00000000000000000000000000000000000000000000000000000000000000000000000000000000000000000000000000000000000000000000001954fc4000","logIndex":"0x3","removed":false,"topics":["0x19b47279256b2a23a1665c810c8d55a1758940ee09377d4f8d26497a3577dc83","0x000000000000000000000000319b69888b0d11cec22caa5034e25fffbdc88421","0x0000000000000000000000009ece8d78685e2b15d908e24d7e4048231f376580"],"transactionHash":"0x5d1949b1d2a451271fa3c411d1b4646a25caea98269d085526fc041a468a6582","transactionIndex":"0x0"}],"logsBloom":"0x4000000000000000000000000000000000000000000100880000000000000000000000000000000000000000000200000080000000000000000000000020000084000000004000000000000800000000000000800000200400000000000000000000000100000000000000010000000000000000000000000000001000000000000000000000000000000000000000000000000000000000000800000000000002000000000000000000000000000000000000000100002000210000000000000000000a000000000000000000000000000000000000000000000000000000000010000000001000000000000000000000000000000000000000000000000000","status":"0x1","transactionHash":"0x5d1949b1d2a451271fa3c411d1b4646a25caea98269d085526fc041a468a6582"}}}