{"block":{"difficulty":"0x2","extraData":"0xd98301090a846765746889676f312e31352e3133856c696e75780000000000002c93201762abeec273ce00bfc1248462a0bb968cce1ba550aad5febabf5be5fd57ae9b6f7e17119c66eb41173cd97409ff4dbf4688cdce75809a32042e3ad7a100","gasLimit":"0x1c9c380","gasUsed":"0x868a","hash":"0xb8345ce947f76f2dcf4598976cfa8af2668d4c561534dc6e811d64fd9e515f94","logsBloom":"0x00000000040000000000000000000000000000000004000000000000000000000000000000000000000000000000000000000000000000000000000000000000000000000000000000000008000000000000000000000000000000000000000000000000000000000000000100000000000000000000000000000010000000000000000000000000000000000000000000000000000000000000000000000000000100000000000000000000000000000000000000000000000100000000000000000003000000000000000000000000000000000000000000000000200000000000000000001000000000000001000000000000000000000000000000000000","miner":"0x0000000000000000000000000000000000000000","mixHash":"0x0000000000000000000000000000000000000000000000000000000000000000","nonce":"0x0000000000000000","number":"0xd0010d","parentHash":"0xe21301d3ea6aa808cde4057d8b65cbe281968c0fa8b791c30b770c6bc2bb0e20","receiptsRoot":"0x43cabb375345dc19ec83726700dbecd17abfbc4703dd28e36a13c72bde8d6a06","sha3Uncles":"0x1dcc4de8dec75d7aab85b567b6ccd41ad312451b948a7413f0a142fd40d49347","size":"0x312","stateRoot":"0x6066af23f3b8b7842f5c22f7db1ac1419d26583060af0ae955d685afad040213","timestamp":"0x65243d44","totalDifficulty":"0x1a0021b","transactions":[{"blockHash":"0xb8345ce947f76f2dcf4598976cfa8af2668d4c561534dc6e811d64fd9e515f94","blockNumber":"0xd0010d","from":"0x0ed94ddc597721a976d86a5d2be11d0d445dffb9","gas":"0x868a","gasPrice":"0x2faf080","hash":"0xf277595dfa332f5378409b3d7ffc55b383c486173dfe1ab266139818c6293953","index":"0xd0010c","input":"0xa9059cbb000000000000000000000000e4edb277e41dc89ab076a1f049f4a3efa700bce800000000000000000000000000000000000000000000000005a00bda9b52b33d","l1BlockNumber":"0x11774ce","l1Timestamp":"0x65243d44","l1TxOrigin":null,"nonce":"0xd1","queueIndex":null,"queueOrigin":"sequencer","r":"0x7832cb31524665bd34090333e39d910a884295cf27b49b05480b74cc92b96b13","rawTransaction":"0xf8ab81d18402faf08082868a94deaddeaddeaddeaddeaddeaddeaddeaddead111180b844a9059cbb000000000000000000000000e4edb277e41dc89ab076a1f049f4a3efa700bce800000000000000000000000000000000000000000000000005a00bda9b52b33d822733a07832cb31524665bd34090333e39d910a884295cf27b49b05480b74cc92b96b13a04ec2ccd0dcffb73bae4dff8ecfc5d109331b350938c1752665d25221163b311c","s":"0x4ec2ccd0dcffb73bae4dff8ecfc5d109331b350938c1752665d25221163b311c","to":"0xdeaddeaddeaddeaddeaddeaddeaddeaddead1111","transactionIndex":"0x0","v":"0x2733","value":"0x0"}],"transactionsRoot":"0xfb68cbe8945fa78849653ea4662907299b863e3c811f84ede0aa566a644bd87c","uncles":[]},"receipts":{"0xf277595dfa332f5378409b3d7ffc55b383c486173dfe1ab266139818c6293953":{"blockHash":"0xb8345ce947f76f2dcf4598976cfa8af2668d4c561534dc6e811d64fd9e515f94","blockNumber":"0xd0010d","from":"0x0ed94ddc597721a976d86a5d2be11d0d445dffb9","gas":"0x868a","gasPrice":"0x2faf080","hash":"0xf277595dfa332f5378409b3d7ffc55b383c486173dfe1ab266139818c6293953","index":"0xd0010c","input":"0xa9059cbb000000000000000000000000e4edb277e41dc89ab076a1f049f4a3efa700bce800000000000000000000000000000000000000000000000005a00bda9b52b33d","l1BlockNumber":"0x11774ce","l1Timestamp":"0x65243d44","l1TxOrigin":null,"nonce":"0xd1","queueIndex":null,"queueOrigin":"sequencer","r":"0x7832cb31524665bd34090333e39d910a884295cf27b49b05480b74cc92b96b13","rawTransaction":"0xf8ab81d18402faf08082868a94deaddeaddeaddeaddeaddeaddeaddeaddead111180b844a9059cbb000000000000000000000000e4edb277e41dc89ab076a1f049f4a3efa700bce800000000000000000000000000000000000000000000000005a00bda9b52b33d822733a07832cb31524665bd34090333e39d910a884295cf27b49b05480b74cc92b96b13a04ec2ccd0dcffb73bae4dff8ecfc5d109331b350938c1752665d25221163b311c","s":"0x4ec2ccd0dcffb73bae4dff8ecfc5d109331b350938c1752665d25221163b311c","to":"0xdeaddeaddeaddeaddeaddeaddeaddeaddead1111","transactionIndex":"0x0","v":"0x2733","value":"0x0","contractAddress":null,"cumulativeGasUsed":"0x868a","daFee":"0x0","daGasPrice":"0x0","daGasUsed":"0x68","gasUsed":"0x868a","l1Fee":"0x1a09f6380cb9fe0","l1FeeScalar":"1","l1GasPrice":"0x39ff1464e55c","l1GasUsed":"0x72f","logs":[{"address":"0xdeaddeaddeaddeaddeaddeaddeaddeaddead1111","blockHash":"0xb8345ce947f76f2dcf4598976cfa8af2668d4c561534dc6e811d64fd9e515f94","blockNumber":"0xd0010d","data":"0x00000000000000000000000000000000000000000000000005a00bda9b52b33d","logIndex":"0x0","removed":false,"topics":["0xddf252ad1be2c89b69c2b068fc378daa952ba7f163c4a11628f55a4df523b3ef","0x0000000000000000000000000ed94ddc597721a976d86a5d2be11d0d445dffb9","0x000000000000000000000000e4edb277e41dc89ab076a1f049f4a3efa700bce8"],"transactionHash":"0xf277595dfa332f5378409b3d7ffc55b383c486173dfe1ab266139818c6293953","transactionIndex":"0x0"}],"logsBloom":"0x00000000040000000000000000000000000000000004000000000000000000000000000000000000000000000000000000000000000000000000000000000000000000000000000000000008000000000000000000000000000000000000000000000000000000000000000100000000000000000000000000000010000000000000000000000000000000000000000000000000000000000000000000000000000100000000000000000000000000000000000000000000000100000000000000000003000000000000000000000000000000000000000000000000200000000000000000001000000000000001000000000000000000000000000000000000","status":"0x1","transactionHash":"0xf277595dfa332f5378409b3d7ffc55b383c486173dfe1ab266139818c6293953"}}}