{"block":{"difficulty":"0x2","extraData":"0xd98301090a846765746889676f312e31352e3133856c696e7578000000000000f6dd441a268ddf8f14b0be089209a98904695ed9e54ddd435ef41bf20d835d5e0bf6fac128c0294ec26d41c5eead8c8e66b4ead7fd1d26eb6f4ff663c5adeeb700","gasLimit":"0x1c9c380","gasUsed":"0x5208","hash":"0xa67de27dab6c182d4a75ddb59e75e86f73ff2c551c9f0d382803eedb4f20ef7d","logsBloom":"0x00000000000000000000000000000000000000000000000000000000000000000000000000000000000000000000000000000000000000000000000000000000000000000000000000000000000000000000000000000000000000000000000000000000000000000000000000000000000000000000000000000000000000000000000000000000000000000000000000000000000000000000000000000000000000000000000000000000000000000000000000000000000000000000000000000000000000000000000000000000000000000000000000000000000000000000000000000000000000000000000000000000000000000000000000000000","miner":"0x0000000000000000000000000000000000000000","mixHash":"0x0000000000000000000000000000000000000000000000000000000000000000","nonce":"0x0000000000000000","number":"0xd0032c","parentHash":"0xa9297c0debdf06d8cd4fe8353e8837b44eadcfede38826655a84323bffa8831f","receiptsRoot":"0x056b23fbba480696b65fe5a59b8f2148a1299103c4f57df839233af2cf4ca2d2","sha3Uncles":"0x1dcc4de8dec75d7aab85b567b6ccd41ad312451b948a7413f0a142fd40d49347","size":"0x2cd","stateRoot":"0xc2429a5349bde40647097da52ea3fcf8f1e1d2c3f5cb99f0aa0ed96f86da5af6","timestamp":"0x65243e66","totalDifficulty":"0x1a00659","transactions":[{"blockHash":"0xa67de27dab6c182d4a75ddb59e75e86f73ff2c551c9f0d382803eedb4f20ef7d","blockNumber":"0xd0032c","from":"0xb52e9bccd899d3c5ef91256aff62ccc163109667","gas":"0x5208","gasPrice":"0x2faf080","hash":"0x83b4c9d9867c7f415891ff19647a4a6ea46bfb13536205f7241dbaed9a63f677","index":"0xd0032b","input":"0x","l1BlockNumber":"0x11774e6","l1Timestamp":"0x65243e66","l1TxOrigin":null,"nonce":"0xb6","queueIndex":null,"queueOrigin":"sequencer","r":"0x4eee163851b3f291cd54b132de1b689082d5946fdd28742ffa7d346bdab214f9","rawTransaction":"0xf86681b68402faf08082520894f0bbddfb5b88a8b40bf7a6704c6b21584f5afff88080822733a04eee163851b3f291cd54b132de1b689082d5946fdd28742ffa7d346bdab214f9a076ee59753b954ee6ca5e10230cc00ae6378b1a9bc331c15c1ec1a804c6e0c0f5","s":"0x76ee59753b954ee6ca5e10230cc00ae6378b1a9bc331c15c1ec1a804c6e0c0f5","to":"0xf0bbddfb5b88a8b40bf7a6704c6b21584f5afff8","transactionIndex":"0x0","v":"0x2733","value":"0x0"}],"transactionsRoot":"0x704b9b5e1d8e0d380af7910dcda0eb12db1897b08141419133316f45681f902e","uncles":[]},"receipts":{"0x83b4c9d9867c7f415891ff19647a4a6ea46bfb13536205f7241dbaed9a63f677":{"blockHash":"0xa67de27dab6c182d4a75ddb59e75e86f73ff2c551c9f0d382803eedb4f20ef7d","blockNumber":"0xd0032c","from":"0xb52e9bccd899d3c5ef91256aff62ccc163109667","gas":"0x5208","gasPrice":"0x2faf080","hash":"0x83b4c9d9867c7f415891ff19647a4a6ea46bfb13536205f7241dbaed9a63f677","index":"0xd0032b","input":"0x","l1BlockNumber":"0x11774e6","l1Timestamp":"0x65243e66","l1TxOrigin":null,"nonce":"0xb6","queueIndex":null,"queueOrigin":"sequencer","r":"0x4eee163851b3f291cd54b132de1b689082d5946fdd28742ffa7d346bdab214f9","rawTransaction":"0xf86681b68402faf08082520894f0bbddfb5b88a8b40bf7a6704c6b21584f5afff88080822733a04eee163851b3f291cd54b132de1b689082d5946fdd28742ffa7d346bdab214f9a076ee59753b954ee6ca5e10230cc00ae6378b1a9bc331c15c1ec1a804c6e0c0f5","s":"0x76ee59753b954ee6ca5e10230cc00ae6378b1a9bc331c15c1ec1a804c6e0c0f5","to":"0xf0bbddfb5b88a8b40bf7a6704c6b21584f5afff8","transactionIndex":"0x0","v":"0x2733","value":"0x0","contractAddress":null,"cumulativeGasUsed":"0x5208","daFee":"0x0","daGasPrice":"0x0","daGasUsed":"0x22","gasUsed":"0x5208","l1Fee":"0x19709d787180660","l1FeeScalar":"1","l1GasPrice":"0x38a987f04864","l1GasUsed":"0x72f","logs":[],"logsBloom":"0x00000000000000000000000000000000000000000000000000000000000000000000000000000000000000000000000000000000000000000000000000000000000000000000000000000000000000000000000000000000000000000000000000000000000000000000000000000000000000000000000000000000000000000000000000000000000000000000000000000000000000000000000000000000000000000000000000000000000000000000000000000000000000000000000000000000000000000000000000000000000000000000000000000000000000000000000000000000000000000000000000000000000000000000000000000000","status":"0x1","transactionHash":"0x83b4c9d9867c7f415891ff19647a4a6ea46bfb13536205f7241dbaed9a63f677"}}}