{"block":{"difficulty":"0x2","extraData":"0xd98301090a846765746889676f312e31352e3133856c696e75780000000000006e1ba0b7f129133212476cd3cc356d7aa87ede8b3a45c2d5cd6aa7dd9395374a7b4317fe953789952af147cfdb55060ada0bfa53891a143cfc8f3a4b7c64416c00","gasLimit":"0x1c9c380","gasUsed":"0xb4ce","hash":"0x5f1fdc74cdd998fac6043ab2d5cbc8237d34e9520a8529d3e616526515c0e82b","logsBloom":"0x00000000000000000000000000000000000000000000000000000000020000000000000000000000000000000000000000000000000000000000000000200000000000000000000000000000000000000000000000002000000400000000000000000000000000000000000100000000000000000000000400000000000000000000000000000000000000000000000000000000000000000000000400000000020000000000000000000000000000000000000000000000000100000000000000000000000000000000000000000000000000000000000000000000000000000010000000001000000000000000000000000000000000000000000000020000","miner":"0x0000000000000000000000000000000000000000","mixHash":"0x0000000000000000000000000000000000000000000000000000000000000000","nonce":"0x0000000000000000","number":"0xd00395","parentHash":"0xbf6870b73115654c1e64bc5ed9ceea824f65ef540722f0cc7686afdf3956d75b","receiptsRoot":"0x0b5911d765169391dd4c706c761da88697ddbb6d9a83ae92fdb18e167b5c3cdd","sha3Uncles":"0x1dcc4de8dec75d7aab85b567b6ccd41ad312451b948a7413f0a142fd40d49347","size":"0x311","stateRoot":"0x33e6fbe760826a93d4f4b1c96daefa1a4bb54444455d6970d2917ff125b66b92","timestamp":"0x65243e94","totalDifficulty":"0x1a0072b","transactions":[{"blockHash":"0x5f1fdc74cdd998fac6043ab2d5cbc8237d34e9520a8529d3e616526515c0e82b","blockNumber":"0xd00395","from":"0xc73c20a1e5c084607957a7e0674c1e8896b89a6d","gas":"0xb4ce","gasPrice":"0x2faf080","hash":"0x1e90c4bea3171b7cad06cf34c6f9e432d577b88e3222c27bb3f3c817fec90acb","index":"0xd00394","input":"0x095ea7b3000000000000000000000000cfa5ae7c2ce8fadc6426c1ff872ca45378fb7cf3000000000000000000000000000000000000000000000000001aae4e22436000","l1BlockNumber":"0x11774ea","l1Timestamp":"0x65243e94","l1TxOrigin":null,"nonce":"0x1","queueIndex":null,"queueOrigin":"sequencer","r":"0x9f06d624ab13b877eee33fbd392491475729454836501b2cb90773493d8c4c39","rawTransaction":"0xf8aa018402faf08082b4ce94deaddeaddeaddeaddeaddeaddeaddeaddead111180b844095ea7b3000000000000000000000000cfa5ae7c2ce8fadc6426c1ff872ca45378fb7cf3000000000000000000000000000000000000000000000000001aae4e22436000822733a09f06d624ab13b877eee33fbd392491475729454836501b2cb90773493d8c4c39a0178117dd4999d98c86e774418b8b107ee8c3abc6d3448522c7f8f96e5a2e4cdb","s":"0x178117dd4999d98c86e774418b8b107ee8c3abc6d3448522c7f8f96e5a2e4cdb","to":"0xdeaddeaddeaddeaddeaddeaddeaddeaddead1111","transactionIndex":"0x0","v":"0x2733","value":"0x0"}],"transactionsRoot":"0x739aed9209343b3092e9d9802435e0bc0d26171f00ba80bc28ff1fa2fe1b75b3","uncles":[]},"receipts":{"0x1e90c4bea3171b7cad06cf34c6f9e432d577b88e3222c27bb3f3c817fec90acb":{"blockHash":"0x5f1fdc74cdd998fac6043ab2d5cbc8237d34e9520a8529d3e616526515c0e82b","blockNumber":"0xd00395","from":"0xc73c20a1e5c084607957a7e0674c1e8896b89a6d","gas":"0xb4ce","gasPrice":"0x2faf080","hash":"0x1e90c4bea3171b7cad06cf34c6f9e432d577b88e3222c27bb3f3c817fec90acb","index":"0xd00394","input":"0x095ea7b3000000000000000000000000cfa5ae7c2ce8fadc6426c1ff872ca45378fb7cf3000000000000000000000000000000000000000000000000001aae4e22436000","l1BlockNumber":"0x11774ea","l1Timestamp":"0x65243e94","l1TxOrigin":null,"nonce":"0x1","queueIndex":null,"queueOrigin":"sequencer","r":"0x9f06d624ab13b877eee33fbd392491475729454836501b2cb90773493d8c4c39","rawTransaction":"0xf8aa018402faf08082b4ce94deaddeaddeaddeaddeaddeaddeaddeaddead111180b844095ea7b3000000000000000000000000cfa5ae7c2ce8fadc6426c1ff872ca45378fb7cf3000000000000000000000000000000000000000000000000001aae4e22436000822733a09f06d624ab13b877eee33fbd392491475729454836501b2cb90773493d8c4c39a0178117dd4999d98c86e774418b8b107ee8c3abc6d3448522c7f8f96e5a2e4cdb","s":"0x178117dd4999d98c86e774418b8b107ee8c3abc6d3448522c7f8f96e5a2e4cdb","to":"0xdeaddeaddeaddeaddeaddeaddeaddeaddead1111","transactionIndex":"0x0","v":"0x2733","value":"0x0","contractAddress":null,"cumulativeGasUsed":"0xb4ce","daFee":"0x0","daGasPrice":"0x0","daGasUsed":"0x67","gasUsed":"0xb4ce","l1Fee":"0x19709d787180660","l1FeeScalar":"1","l1GasPrice":"0x38a987f04864","l1GasUsed":"0x72f","logs":[{"address":"0xdeaddeaddeaddeaddeaddeaddeaddeaddead1111","blockHash":"0x5f1fdc74cdd998fac6043ab2d5cbc8237d34e9520a8529d3e616526515c0e82b","blockNumber":"0xd00395","data":"0x000000000000000000000000000000000000000000000000001aae4e22436000","logIndex":"0x0","removed":false,"topics":["0x8c5be1e5ebec7d5bd14f71427d1e84f3dd0314c0f7b2291e5b200ac8c7c3b925","0x000000000000000000000000c73c20a1e5c084607957a7e0674c1e8896b89a6d","0x000000000000000000000000cfa5ae7c2ce8fadc6426c1ff872ca45378fb7cf3"],"transactionHash":"0x1e90c4bea3171b7cad06cf34c6f9e432d577b88e3222c27bb3f3c817fec90acb","transactionIndex":"0x0"}],"logsBloom":"0x00000000000000000000000000000000000000000000000000000000020000000000000000000000000000000000000000000000000000000000000000200000000000000000000000000000000000000000000000002000000400000000000000000000000000000000000100000000000000000000000400000000000000000000000000000000000000000000000000000000000000000000000400000000020000000000000000000000000000000000000000000000000100000000000000000000000000000000000000000000000000000000000000000000000000000010000000001000000000000000000000000000000000000000000000020000","status":"0x1","transactionHash":"0x1e90c4bea3171b7cad06cf34c6f9e432d577b88e3222c27bb3f3c817fec90acb"}}}