{"block":{"difficulty":"0x2","extraData":"0xd98301090a846765746889676f312e31352e3133856c696e757800000000000098926497cc80ce6e369fa457535f73ba863dd77cb1c750cdb3760232afc53b035d1fa36a9dc7a3bf11d45b2cd2c58e9c23c135a3eb1683a1f4b70823f20730c400","gasLimit":"0x1c9c380","gasUsed":"0x4b432","hash":"0x4122cf32b2ed84aa9c8919bc728f6947c45d3ac4bae63d34ae6cb9a38e7a9859","logsBloom":"0x00000000000000080000000000000000000002000000000000000000000000000000000000000000000000000001000000000000000100000000000002002000000000000000000000000000000000000000000000000000000000000000000000000000000002000040000000000000000000000000000000000000000000000000000000000001000000000000000000000000000000000000000000000000000000000000000000000000000000000000000000000000000000000000000000000000000000000000000000000000000000000000000000000000000000000000000010000400000000000000000002000000000000000000000000000000","miner":"0x0000000000000000000000000000000000000000","mixHash":"0x0000000000000000000000000000000000000000000000000000000000000000","nonce":"0x0000000000000000","number":"0xd00302","parentHash":"0x3b1a8fcdcbfc43a375eb4c61eb0617019f794d22afa47a6846536e6cada3231d","receiptsRoot":"0x2f1889b88ad6a0422ba5c0709116313de852d6e4907062e9fdfdc5b4dfc40bd8","sha3Uncles":"0x1dcc4de8dec75d7aab85b567b6ccd41ad312451b948a7413f0a142fd40d49347","size":"0x4f8","stateRoot":"0xfd3a6e3c11f43c5720a376125fbdd9cc7f89ab28d992f36c04c42c8bade69150","timestamp":"0x65243e52","totalDifficulty":"0x1a00605","transactions":[{"blockHash":"0x4122cf32b2ed84aa9c8919bc728f6947c45d3ac4bae63d34ae6cb9a38e7a9859","blockNumber":"0xd00302","from":"0x492581c19e78e6716beb89ff7f75f8a7df73942d","gas":"0x4c647","gasPrice":"0x2faf080","hash":"0x8ceeafe72441e39016c622b1da2ad2042db38a7062c835dfadcb50e6ab2c243f","index":"0xd00301","input":"0x5704518f0000000000000000000000000000000000000000000000000000000000000066c6a9f5f6280b1bbdcaf9444583638d33f931bd23e0d3c27cea6dce915058055300000000000000000000000000000000000000000000000000000000000000800000000000000000000000007dfb5e7808b5eb4fb8b9e7169537575f6ff1a218000000000000000000000000000000000000000000000000000000000000018021ef740841fe7d04eec6f79c56f1c752e56f842b1e2f161b819d98e083d3530b1d6e1405b44079c0e9e8525c437fb777f120a22762cb692a3d5be142c064092012ae6d73b55b8119ec3a274fd65aea1b799aec5ca90da0a7251393ab68d6921b0fbbb3cefd1f95886294fdfc59609e999c8e44587cf693c88fd1d2c30cd815682d971548ad0032240cec5631f22ddad647857bd91d551b930a7d10c17b1d82ac0804b4b9ac2f123f07c4b912c19c5cdc236fe78976c79224e789900349fb7f3600c903f8cb1c5ed3a69741b85cfdb35581e1fd4ec6a0d80692467f07ea89597d2c176f19fee655a930f99d11cc547fc57a95907fc8300d029033f255b7f1d65e00000000000000000000000000000000bf3887e5a88e6940dd42a91ec392742a0000000000000000000000000000000032e7b9e6c84aa7a6185bfad54ce0564000000000000000000000000000000000f71ae86649e1f9a3490a205afa8c1d97000000000000000000000000000000007becc95404e5311442ff095ae199624c","l1BlockNumber":"0x11774e5","l1Timestamp":"0x65243e52","l1TxOrigin":null,"nonce":"0x48b5","queueIndex":null,"queueOrigin":"sequencer","r":"0x8adf7ed8bf150acbed2265d9973368b43ac8a2c5be0b63a4544a969313693bd5","rawTransaction":"0xf9028e8248b58402faf0808304c647941e40cd8569f3c91f5101d54ae01a75574a9cce6080b902245704518f0000000000000000000000000000000000000000000000000000000000000066c6a9f5f6280b1bbdcaf9444583638d33f931bd23e0d3c27cea6dce915058055300000000000000000000000000000000000000000000000000000000000000800000000000000000000000007dfb5e7808b5eb4fb8b9e7169537575f6ff1a218000000000000000000000000000000000000000000000000000000000000018021ef740841fe7d04eec6f79c56f1c752e56f842b1e2f161b819d98e083d3530b1d6e1405b44079c0e9e8525c437fb777f120a22762cb692a3d5be142c064092012ae6d73b55b8119ec3a274fd65aea1b799aec5ca90da0a7251393ab68d6921b0fbbb3cefd1f95886294fdfc59609e999c8e44587cf693c88fd1d2c30cd815682d971548ad0032240cec5631f22ddad647857bd91d551b930a7d10c17b1d82ac0804b4b9ac2f123f07c4b912c19c5cdc236fe78976c79224e789900349fb7f3600c903f8cb1c5ed3a69741b85cfdb35581e1fd4ec6a0d80692467f07ea89597d2c176f19fee655a930f99d11cc547fc57a95907fc8300d029033f255b7f1d65e00000000000000000000000000000000bf3887e5a88e6940dd42a91ec392742a0000000000000000000000000000000032e7b9e6c84aa7a6185bfad54ce0564000000000000000000000000000000000f71ae86649e1f9a3490a205afa8c1d97000000000000000000000000000000007becc95404e5311442ff095ae199624c822733a08adf7ed8bf150acbed2265d9973368b43ac8a2c5be0b63a4544a969313693bd5a078c9e41dd733b1889478262beae6dee3ff0adbe7398ebe28e11b84d12d7abff5","s":"0x78c9e41dd733b1889478262beae6dee3ff0adbe7398ebe28e11b84d12d7abff5","to":"0x1e40cd8569f3c91f5101d54ae01a75574a9cce60","transactionIndex":"0x0","v":"0x2733","value":"0x0"}],"transactionsRoot":"0x7ba5bad08ffbdc7aa8b648d05f5123088ac4e1fef63f1891577b2adfa5e70155","uncles":[]},"receipts":{"0x8ceeafe72441e39016c622b1da2ad2042db38a7062c835dfadcb50e6ab2c243f":{"blockHash":"0x4122cf32b2ed84aa9c8919bc728f6947c45d3ac4bae63d34ae6cb9a38e7a9859","blockNumber":"0xd00302","from":"0x492581c19e78e6716beb89ff7f75f8a7df73942d","gas":"0x4c647","gasPrice":"0x2faf080","hash":"0x8ceeafe72441e39016c622b1da2ad2042db38a7062c835dfadcb50e6ab2c243f","index":"0xd00301","input":"0x5704518f0000000000000000000000000000000000000000000000000000000000000066c6a9f5f6280b1bbdcaf9444583638d33f931bd23e0d3c27cea6dce915058055300000000000000000000000000000000000000000000000000000000000000800000000000000000000000007dfb5e7808b5eb4fb8b9e7169537575f6ff1a218000000000000000000000000000000000000000000000000000000000000018021ef740841fe7d04eec6f79c56f1c752e56f842b1e2f161b819d98e083d3530b1d6e1405b44079c0e9e8525c437fb777f120a22762cb692a3d5be142c064092012ae6d73b55b8119ec3a274fd65aea1b799aec5ca90da0a7251393ab68d6921b0fbbb3cefd1f95886294fdfc59609e999c8e44587cf693c88fd1d2c30cd815682d971548ad0032240cec5631f22ddad647857bd91d551b930a7d10c17b1d82ac0804b4b9ac2f123f07c4b912c19c5cdc236fe78976c79224e789900349fb7f3600c903f8cb1c5ed3a69741b85cfdb35581e1fd4ec6a0d80692467f07ea89597d2c176f19fee655a930f99d11cc547fc57a95907fc8300d029033f255b7f1d65e00000000000000000000000000000000bf3887e5a88e6940dd42a91ec392742a0000000000000000000000000000000032e7b9e6c84aa7a6185bfad54ce0564000000000000000000000000000000000f71ae86649e1f9a3490a205afa8c1d97000000000000000000000000000000007becc95404e5311442ff095ae199624c","l1BlockNumber":"0x11774e5","l1Timestamp":"0x65243e52","l1TxOrigin":null,"nonce":"0x48b5","queueIndex":null,"queueOrigin":"sequencer","r":"0x8adf7ed8bf150acbed2265d9973368b43ac8a2c5be0b63a4544a969313693bd5","rawTransaction":"0xf9028e8248b58402faf0808304c647941e40cd8569f3c91f5101d54ae01a75574a9cce6080b902245704518f0000000000000000000000000000000000000000000000000000000000000066c6a9f5f6280b1bbdcaf9444583638d33f931bd23e0d3c27cea6dce915058055300000000000000000000000000000000000000000000000000000000000000800000000000000000000000007dfb5e7808b5eb4fb8b9e7169537575f6ff1a218000000000000000000000000000000000000000000000000000000000000018021ef740841fe7d04eec6f79c56f1c752e56f842b1e2f161b819d98e083d3530b1d6e1405b44079c0e9e8525c437fb777f120a22762cb692a3d5be142c064092012ae6d73b55b8119ec3a274fd65aea1b799aec5ca90da0a7251393ab68d6921b0fbbb3cefd1f95886294fdfc59609e999c8e44587cf693c88fd1d2c30cd815682d971548ad0032240cec5631f22ddad647857bd91d551b930a7d10c17b1d82ac0804b4b9ac2f123f07c4b912c19c5cdc236fe78976c79224e789900349fb7f3600c903f8cb1c5ed3a69741b85cfdb35581e1fd4ec6a0d80692467f07ea89597d2c176f19fee655a930f99d11cc547fc57a95907fc8300d029033f255b7f1d65e00000000000000000000000000000000bf3887e5a88e6940dd42a91ec392742a0000000000000000000000000000000032e7b9e6c84aa7a6185bfad54ce0564000000000000000000000000000000000f71ae86649e1f9a3490a205afa8c1d97000000000000000000000000000000007becc95404e5311442ff095ae199624c822733a08adf7ed8bf150acbed2265d9973368b43ac8a2c5be0b63a4544a969313693bd5a078c9e41dd733b1889478262beae6dee3ff0adbe7398ebe28e11b84d12d7abff5","s":"0x78c9e41dd733b1889478262beae6dee3ff0adbe7398ebe28e11b84d12d7abff5","to":"0x1e40cd8569f3c91f5101d54ae01a75574a9cce60","transactionIndex":"0x0","v":"0x2733","value":"0x0","contractAddress":null,"cumulativeGasUsed":"0x4b432","daFee":"0x0","daGasPrice":"0x0","daGasUsed":"0x24c","gasUsed":"0x4b432","l1Fee":"0x19709d787180660","l1FeeScalar":"1","l1GasPrice":"0x38a987f04864","l1GasUsed":"0x72f","logs":[{"address":"0x38de71124f7a447a01d67945a51edce9ff491251","blockHash":"0x4122cf32b2ed84aa9c8919bc728f6947c45d3ac4bae63d34ae6cb9a38e7a9859","blockNumber":"0xd00302","data":"0x7becc95404e5311442ff095ae199624cf71ae86649e1f9a3490a205afa8c1d977becc95404e5311442ff095ae199624cf71ae86649e1f9a3490a205afa8c1d970000000000000000000000000000000000000000000000000000000000000014","logIndex":"0x0","removed":false,"topics":["0x74bbc026808dcba59692d6a8bb20596849ca718e10e2432c6cdf48af865bc5d9","0x0000000000000000000000000000000000000000000000000000000000000066","0x0000000000000000000000001e40cd8569f3c91f5101d54ae01a75574a9cce60"],"transactionHash":"0x8ceeafe72441e39016c622b1da2ad2042db38a7062c835dfadcb50e6ab2c243f","transactionIndex":"0x0"}],"logsBloom":"0x00000000000000080000000000000000000002000000000000000000000000000000000000000000000000000001000000000000000100000000000002002000000000000000000000000000000000000000000000000000000000000000000000000000000002000040000000000000000000000000000000000000000000000000000000000001000000000000000000000000000000000000000000000000000000000000000000000000000000000000000000000000000000000000000000000000000000000000000000000000000000000000000000000000000000000000000010000400000000000000000002000000000000000000000000000000","status":"0x1","transactionHash":"0x8ceeafe72441e39016c622b1da2ad2042db38a7062c835dfadcb50e6ab2c243f"}}}