{"block":{"difficulty":"0x2","extraData":"0xd98301090a846765746889676f312e31352e3133856c696e75780000000000007e91367759f9423e5e2eb1aee4b52c2e1076144b891cd1c65dd17d632c5c9e6d5d10e94c0d5bf980a83378b92e0d382aa204f11baa6b711abf8caf164f8317c401","gasLimit":"0x1c9c380","gasUsed":"0x14e2a","hash":"0xad590a5b562f9887d0a0438f9f2d36b32c9aee63e5163b018112f60984f8c0dc","logsBloom":"0x00000000000000000000000000000000000000000000000000000000000000000000000000000000000000000000000000000000000000000000000000000000000000000000000000000000000020000000000000000000000000000000000000000000000000000000000000000000100000000000000000000000000000000000000000000000000000000000000000000000000000000000000000000000000000100000000000000000000000000000000000000000000000000000000000000040000000000000000000000000000000000000000000000000000000000000000000800000000000000000000000000000000000000040000000000000","miner":"0x0000000000000000000000000000000000000000","mixHash":"0x0000000000000000000000000000000000000000000000000000000000000000","nonce":"0x0000000000000000","number":"0xd00169","parentHash":"0xfce80298c629b14d20d1dd0b729297ce45353df6d04116e4bda48a761f1b9c7a","receiptsRoot":"0xf04664b34d9e74c38eb71896c13a063de0f358205464e0faa6041cf493dbdd4b","sha3Uncles":"0x1dcc4de8dec75d7aab85b567b6ccd41ad312451b948a7413f0a142fd40d49347","size":"0x315","stateRoot":"0x4f2dec2864e4240ff9a016b57bc8a875f5b23378a4fb45b8759a06f683a7018b","timestamp":"0x65243d77","totalDifficulty":"0x1a002d3","transactions":[{"blockHash":"0xad590a5b562f9887d0a0438f9f2d36b32c9aee63e5163b018112f60984f8c0dc","blockNumber":"0xd00169","from":"0x53e9fb844da0b40dc6b2c38f366dfe45e7f00f57","gas":"0x14e2a","gasPrice":"0x2faf080","hash":"0x392623a553e66ceb6bc99d7275dc5033abed2b5849d7d68fed58453493df0925","index":"0xd00168","input":"0x17835d1c00000000000000000000000000000000000000000005b191001810ff01a42d3c0000000000000000000000000000000000000000000000000000000065243d78","l1BlockNumber":"0x11774d2","l1Timestamp":"0x65243d77","l1TxOrigin":null,"nonce":"0x445d","queueIndex":null,"queueOrigin":"sequencer","r":"0xb59d27119983abc423645db7a1aa0da977e9e4d704b92ab8057fd60289de7e4e","rawTransaction":"0xf8ad82445d8402faf08083014e2a94391536d06480e554cfa60f9e2be0f3bbe5a377ca80b84417835d1c00000000000000000000000000000000000000000005b191001810ff01a42d3c0000000000000000000000000000000000000000000000000000000065243d78822734a0b59d27119983abc423645db7a1aa0da977e9e4d704b92ab8057fd60289de7e4ea063f21b17338d0d34ea7ae3c14399883d65f866faa95788a5067f73e6969226ba","s":"0x63f21b17338d0d34ea7ae3c14399883d65f866faa95788a5067f73e6969226ba","to":"0x391536d06480e554cfa60f9e2be0f3bbe5a377ca","transactionIndex":"0x0","v":"0x2734","value":"0x0"}],"transactionsRoot":"0xd3a81fe642276a0a6d4995d9e6f0ef419745b0555916e3c67c21ea61c4e49604","uncles":[]},"receipts":{"0x392623a553e66ceb6bc99d7275dc5033abed2b5849d7d68fed58453493df0925":{"blockHash":"0xad590a5b562f9887d0a0438f9f2d36b32c9aee63e5163b018112f60984f8c0dc","blockNumber":"0xd00169","from":"0x53e9fb844da0b40dc6b2c38f366dfe45e7f00f57","gas":"0x14e2a","gasPrice":"0x2faf080","hash":"0x392623a553e66ceb6bc99d7275dc5033abed2b5849d7d68fed58453493df0925","index":"0xd00168","input":"0x17835d1c00000000000000000000000000000000000000000005b191001810ff01a42d3c0000000000000000000000000000000000000000000000000000000065243d78","l1BlockNumber":"0x11774d2","l1Timestamp":"0x65243d77","l1TxOrigin":null,"nonce":"0x445d","queueIndex":null,"queueOrigin":"sequencer","r":"0xb59d27119983abc423645db7a1aa0da977e9e4d704b92ab8057fd60289de7e4e","rawTransaction":"0xf8ad82445d8402faf08083014e2a94391536d06480e554cfa60f9e2be0f3bbe5a377ca80b84417835d1c00000000000000000000000000000000000000000005b191001810ff01a42d3c0000000000000000000000000000000000000000000000000000000065243d78822734a0b59d27119983abc423645db7a1aa0da977e9e4d704b92ab8057fd60289de7e4ea063f21b17338d0d34ea7ae3c14399883d65f866faa95788a5067f73e6969226ba","s":"0x63f21b17338d0d34ea7ae3c14399883d65f866faa95788a5067f73e6969226ba","to":"0x391536d06480e554cfa60f9e2be0f3bbe5a377ca","transactionIndex":"0x0","v":"0x2734","value":"0x0","contractAddress":null,"cumulativeGasUsed":"0x14e2a","daFee":"0x0","daGasPrice":"0x0","daGasUsed":"0x6a","gasUsed":"0x14e2a","l1Fee":"0x1a09f6380cb9fe0","l1FeeScalar":"1","l1GasPrice":"0x39ff1464e55c","l1GasUsed":"0x72f","logs":[{"address":"0x2ed161d59b5a42d502b9f11f6247c0a027e6b373","blockHash":"0xad590a5b562f9887d0a0438f9f2d36b32c9aee63e5163b018112f60984f8c0dc","blockNumber":"0xd00169","data":"0x000000000000000000000000cabae6f6ea1ecab08ad02fe02ce9a44f09aebfa20000000000000000000000000000000000054daa0475b05f7f55630e60000000000000000000000000000000391536d06480e554cfa60f9e2be0f3bbe5a377ca","logIndex":"0x0","removed":false,"topics":["0xc37a77b91cc3fc2d0e4b43fd2f347ec67adda10e39215de4742836cc3e42c97a"],"transactionHash":"0x392623a553e66ceb6bc99d7275dc5033abed2b5849d7d68fed58453493df0925","transactionIndex":"0x0"},{"address":"0x2ed161d59b5a42d502b9f11f6247c0a027e6b373","blockHash":"0xad590a5b562f9887d0a0438f9f2d36b32c9aee63e5163b018112f60984f8c0dc","blockNumber":"0xd00169","data":"0x000000000000000000000000deaddeaddeaddeaddeaddeaddeaddeaddead11110000000000000000000000000000000000004dc34085d3ec3e694b2b18000000000000000000000000000000391536d06480e554cfa60f9e2be0f3bbe5a377ca","logIndex":"0x1","removed":false,"topics":["0xc37a77b91cc3fc2d0e4b43fd2f347ec67adda10e39215de4742836cc3e42c97a"],"transactionHash":"0x392623a553e66ceb6bc99d7275dc5033abed2b5849d7d68fed58453493df0925","transactionIndex":"0x0"},{"address":"0x2ed161d59b5a42d502b9f11f6247c0a027e6b373","blockHash":"0xad590a5b562f9887d0a0438f9f2d36b32c9aee63e5163b018112f60984f8c0dc","blockNumber":"0xd00169","data":"0x00000000000000000000000078c1b0c915c4faa5fffa6cabf0219da63d7f4cb80000000000000000000000000000000000000004b5abb135bc7683e931000000000000000000000000000000391536d06480e554cfa60f9e2be0f3bbe5a377ca","logIndex":"0x2","removed":false,"topics":["0xc37a77b91cc3fc2d0e4b43fd2f347ec67adda10e39215de4742836cc3e42c97a"],"transactionHash":"0x392623a553e66ceb6bc99d7275dc5033abed2b5849d7d68fed58453493df0925","transactionIndex":"0x0"}],"logsBloom":"0x00000000000000000000000000000000000000000000000000000000000000000000000000000000000000000000000000000000000000000000000000000000000000000000000000000000000020000000000000000000000000000000000000000000000000000000000000000000100000000000000000000000000000000000000000000000000000000000000000000000000000000000000000000000000000100000000000000000000000000000000000000000000000000000000000000040000000000000000000000000000000000000000000000000000000000000000000800000000000000000000000000000000000000040000000000000","status":"0x1","transactionHash":"0x392623a553e66ceb6bc99d7275dc5033abed2b5849d7d68fed58453493df0925"}}}