{"block":{"difficulty":"0x2","extraData":"0xd98301090a846765746889676f312e31352e3133856c696e7578000000000000a7b2b4657a20e8e6248c14dc854f7ef5975ac252b13cf0bbccd1bf08c7bcf8e719de74f38413dc161d9c02e340b67c445ab87a2decd559b147db9b0300ae7ef701","gasLimit":"0x1c9c380","gasUsed":"0x1d203","hash":"0xfc7ee1dbd17500a2dc519cba7f065c35f3bee942321c5e947652113b398b07a3","logsBloom":"0x40000000000000000000000000000000000000000001008800000000000000000000000000000000000000000002000000000000000000000000000000200000840000000040000000000008000000000000008000002004000000000000000000000001000000000000000100000000000000000000000000000010000000000000000000000000000000000000000000000100000000000028000000000000020000000000000000000000000000000000000001000020000100000000000000000002000000000000000000000000000000000000000000000000000000000010000000001000000000000000000000000000000000000000000000000000","miner":"0x0000000000000000000000000000000000000000","mixHash":"0x0000000000000000000000000000000000000000000000000000000000000000","nonce":"0x0000000000000000","number":"0xd0027e","parentHash":"0x9336ef32711e6d8683f927cb682db868c11669b3f9889d940dd5d362b847d11a","receiptsRoot":"0xc7bdc34944fa1e120a9b2812274eebb39ab98d744259df4710048080c75ef011","sha3Uncles":"0x1dcc4de8dec75d7aab85b567b6ccd41ad312451b948a7413f0a142fd40d49347","size":"0x3d8","stateRoot":"0x108bdda0d81ad01ae9f1eb3116e22841c09851014ea0acbd48419d5c67b7f9df","timestamp":"0x65243e11","totalDifficulty":"0x1a004fd","transactions":[{"blockHash":"0xfc7ee1dbd17500a2dc519cba7f065c35f3bee942321c5e947652113b398b07a3","blockNumber":"0xd0027e","from":"0x26b3a5a875e9fcf8c766dda981e5157acdc7252a","gas":"0x1e954","gasPrice":"0x2faf080","hash":"0x5ec9f89a9704aefe524295289c78149868e42725ae1d08da7985d3aa8cced763","index":"0xd0027d","input":"0x414bf389000000000000000000000000deaddeaddeaddeaddeaddeaddeaddeaddead1111000000000000000000000000201eba5cc46d216ce6dc03f6a759e8e766e956ae00000000000000000000000000000000000000000000000000000000000001f400000000000000000000000026b3a5a875e9fcf8c766dda981e5157acdc7252a0000000000000000000000000000000000000000000000000000000065243e330000000000000000000000000000000000000000000000000001c6bf5263400000000000000000000000000000000000000000000000000000000000000bce900000000000000000000000000000000000000000000000000000000000000000","l1BlockNumber":"0x11774df","l1Timestamp":"0x65243e11","l1TxOrigin":null,"nonce":"0xcfd","queueIndex":null,"queueOrigin":"sequencer","r":"0x1317dd1dca10c469288deae3e86fc528501530925163ef77f87211e79fa9fe01","rawTransaction":"0xf9016e820cfd8402faf0808301e95494319b69888b0d11cec22caa5034e25fffbdc8842180b90104414bf389000000000000000000000000deaddeaddeaddeaddeaddeaddeaddeaddead1111000000000000000000000000201eba5cc46d216ce6dc03f6a759e8e766e956ae00000000000000000000000000000000000000000000000000000000000001f400000000000000000000000026b3a5a875e9fcf8c766dda981e5157acdc7252a0000000000000000000000000000000000000000000000000000000065243e330000000000000000000000000000000000000000000000000001c6bf5263400000000000000000000000000000000000000000000000000000000000000bce900000000000000000000000000000000000000000000000000000000000000000822734a01317dd1dca10c469288deae3e86fc528501530925163ef77f87211e79fa9fe01a00c13b2ec984ed652019350227d438b242153e3a0fcb51f41f287875385d8bd65","s":"0xc13b2ec984ed652019350227d438b242153e3a0fcb51f41f287875385d8bd65","to":"0x319b69888b0d11cec22caa5034e25fffbdc88421","transactionIndex":"0x0","v":"0x2734","value":"0x0"}],"transactionsRoot":"0x033770136dd7135d098109406b3b0f26e5906ebc1f720ad9fc80be2fd21a78e0","uncles":[]},"receipts":{"0x5ec9f89a9704aefe524295289c78149868e42725ae1d08da7985d3aa8cced763":{"blockHash":"0xfc7ee1dbd17500a2dc519cba7f065c35f3bee942321c5e947652113b398b07a3","blockNumber":"0xd0027e","from":"0x26b3a5a875e9fcf8c766dda981e5157acdc7252a","gas":"0x1e954","gasPrice":"0x2faf080","hash":"0x5ec9f89a9704aefe524295289c78149868e42725ae1d08da7985d3aa8cced763","index":"0xd0027d","input":"0x414bf389000000000000000000000000deaddeaddeaddeaddeaddeaddeaddeaddead1111000000000000000000000000201eba5cc46d216ce6dc03f6a759e8e766e956ae00000000000000000000000000000000000000000000000000000000000001f400000000000000000000000026b3a5a875e9fcf8c766dda981e5157acdc7252a0000000000000000000000000000000000000000000000000000000065243e330000000000000000000000000000000000000000000000000001c6bf5263400000000000000000000000000000000000000000000000000000000000000bce900000000000000000000000000000000000000000000000000000000000000000","l1BlockNumber":"0x11774df","l1Timestamp":"0x65243e11","l1TxOrigin":null,"nonce":"0xcfd","queueIndex":null,"queueOrigin":"sequencer","r":"0x1317dd1dca10c469288deae3e86fc528501530925163ef77f87211e79fa9fe01","rawTransaction":"0xf9016e820cfd8402faf0808301e95494319b69888b0d11cec22caa5034e25fffbdc8842180b90104414bf389000000000000000000000000deaddeaddeaddeaddeaddeaddeaddeaddead1111000000000000000000000000201eba5cc46d216ce6dc03f6a759e8e766e956ae00000000000000000000000000000000000000000000000000000000000001f400000000000000000000000026b3a5a875e9fcf8c766dda981e5157acdc7252a0000000000000000000000000000000000000000000000000000000065243e330000000000000000000000000000000000000000000000000001c6bf5263400000000000000000000000000000000000000000000000000000000000000bce900000000000000000000000000000000000000000000000000000000000000000822734a01317dd1dca10c469288deae3e86fc528501530925163ef77f87211e79fa9fe01a00c13b2ec984ed652019350227d438b242153e3a0fcb51f41f287875385d8bd65","s":"0xc13b2ec984ed652019350227d438b242153e3a0fcb51f41f287875385d8bd65","to":"0x319b69888b0d11cec22caa5034e25fffbdc88421","transactionIndex":"0x0","v":"0x2734","value":"0x0","contractAddress":null,"cumulativeGasUsed":"0x1d203","daFee":"0x0","daGasPrice":"0x0","daGasUsed":"0x12c","gasUsed":"0x1d203","l1Fee":"0x19709d787180660","l1FeeScalar":"1","l1GasPrice":"0x38a987f04864","l1GasUsed":"0x72f","logs":[{"address":"0x201eba5cc46d216ce6dc03f6a759e8e766e956ae","blockHash":"0xfc7ee1dbd17500a2dc519cba7f065c35f3bee942321c5e947652113b398b07a3","blockNumber":"0xd0027e","data":"0x00000000000000000000000000000000000000000000000000000000000c0c40","logIndex":"0x0","removed":false,"topics":["0xddf252ad1be2c89b69c2b068fc378daa952ba7f163c4a11628f55a4df523b3ef","0x000000000000000000000000628f7131cf43e88ebe3921ae78c4ba0c31872bd4","0x00000000000000000000000026b3a5a875e9fcf8c766dda981e5157acdc7252a"],"transactionHash":"0x5ec9f89a9704aefe524295289c78149868e42725ae1d08da7985d3aa8cced763","transactionIndex":"0x0"},{"address":"0xdeaddeaddeaddeaddeaddeaddeaddeaddead1111","blockHash":"0xfc7ee1dbd17500a2dc519cba7f065c35f3bee942321c5e947652113b398b07a3","blockNumber":"0xd0027e","data":"0x0000000000000000000000000000000000000000000000000001c6bf52634000","logIndex":"0x1","removed":false,"topics":["0xddf252ad1be2c89b69c2b068fc378daa952ba7f163c4a11628f55a4df523b3ef","0x00000000000000000000000026b3a5a875e9fcf8c766dda981e5157acdc7252a","0x000000000000000000000000628f7131cf43e88ebe3921ae78c4ba0c31872bd4"],"transactionHash":"0x5ec9f89a9704aefe524295289c78149868e42725ae1d08da7985d3aa8cced763","transactionIndex":"0x0"},{"address":"0xdeaddeaddeaddeaddeaddeaddeaddeaddead1111","blockHash":"0xfc7ee1dbd17500a2dc519cba7f065c35f3bee942321c5e947652113b398b07a3","blockNumber":"0xd0027e","data":"0xfffffffffffffffffffffffffffffffffffffffffffffffffc1bc89736885fff","logIndex":"0x2","removed":false,"topics":["0x8c5be1e5ebec7d5bd14f71427d1e84f3dd0314c0f7b2291e5b200ac8c7c3b925","0x00000000000000000000000026b3a5a875e9fcf8c766dda981e5157acdc7252a","0x000000000000000000000000319b69888b0d11cec22caa5034e25fffbdc88421"],"transactionHash":"0x5ec9f89a9704aefe524295289c78149868e42725ae1d08da7985d3aa8cced763","transactionIndex":"0x0"},{"address":"0x628f7131cf43e88ebe3921ae78c4ba0c31872bd4","blockHash":"0xfc7ee1dbd17500a2dc519cba7f065c35f3bee942321c5e947652113b398b07a3","blockNumber":"0xd0027e","data":"0xfffffffffffffffffffffffffffffffffffffffffffffffffffffffffff3f3c00000000000000000000000000000000000000000000000000001c6bf52634000000000000000000000000000000000000000624b6cf61cab36eea1fdd4386c5b00000000000000000000000000000000000000000000000000002c69f6c7ad9d00000000000000000000000000000000000000000000000000000000000317b1000000000000000000000000000000000000000000000000000000000000000000000000000000000000000000000000000000000000000000000013ca651200","logIndex":"0x3","removed":false,"topics":["0x19b47279256b2a23a1665c810c8d55a1758940ee09377d4f8d26497a3577dc83","0x000000000000000000000000319b69888b0d11cec22caa5034e25fffbdc88421","0x00000000000000000000000026b3a5a875e9fcf8c766dda981e5157acdc7252a"],"transactionHash":"0x5ec9f89a9704aefe524295289c78149868e42725ae1d08da7985d3aa8cced763","transactionIndex":"0x0"}],"logsBloom":"0x40000000000000000000000000000000000000000001008800000000000000000000000000000000000000000002000000000000000000000000000000200000840000000040000000000008000000000000008000002004000000000000000000000001000000000000000100000000000000000000000000000010000000000000000000000000000000000000000000000100000000000028000000000000020000000000000000000000000000000000000001000020000100000000000000000002000000000000000000000000000000000000000000000000000000000010000000001000000000000000000000000000000000000000000000000000","status":"0x1","transactionHash":"0x5ec9f89a9704aefe524295289c78149868e42725ae1d08da7985d3aa8cced763"}}}