{"block":{"difficulty":"0x2","extraData":"0xd98301090a846765746889676f312e31352e3133856c696e757800000000000077b95d8589e51db6abc73c2b073aabc767489fc42fbadbd5fc78d245496fc879120a3d3be36eac85be8e154b34bac50b925383b9d357a7a498f176f4bd058ec000","gasLimit":"0x1c9c380","gasUsed":"0x23a48","hash":"0x3a02a543aa14d41f1e9d90ac7c828aa380f3fc2382ac1164e2ee511f9dd2acbf","logsBloom":"0x00000000200000000000000001c00000000020000001000000000000000000000000000000000000000000000000000000000000000000040080000000200000100000020000000800010008000000000000008000042000200000000000000000000000000000000000000000000000000000000000004000000010004000004050000000000000000000000000000000100000004000010000000000000000020001000000000000100000000000000000000000000000000000000000000000000002000000000000000000000000000000000000000000010000000000000010000000000004000000000000000000000020000000000000000000100000","miner":"0x0000000000000000000000000000000000000000","mixHash":"0x0000000000000000000000000000000000000000000000000000000000000000","nonce":"0x0000000000000000","number":"0xd00234","parentHash":"0xc269e0fa85c8c0fd8102490ebdfda92f1217c1a10fb1e2b571131a1f1c796ead","receiptsRoot":"0x9d3414b1f1cd1a7939ff18d79b7df603f670bc8c035686a175e86e26c1757ca0","sha3Uncles":"0x1dcc4de8dec75d7aab85b567b6ccd41ad312451b948a7413f0a142fd40d49347","size":"0x3f8","stateRoot":"0x398ae969dd735c6b9458ad2eed1c6cb409f924aa9947a9d3c2634ae4e821b137","timestamp":"0x65243de8","totalDifficulty":"0x1a00469","transactions":[{"blockHash":"0x3a02a543aa14d41f1e9d90ac7c828aa380f3fc2382ac1164e2ee511f9dd2acbf","blockNumber":"0xd00234","from":"0x3ec953fb6eb55d18c98cf0a62ea26a19a6d460f7","gas":"0x252b7","gasPrice":"0x2faf080","hash":"0x5dec2244d1a0b554b443285a3ad1a11180042cd142a27ebb5b97bc7e42018c7c","index":"0xd00233","input":"0x75ceafe6000000000000000000000000000000000000000000000000000000000000002000000000000000000000000000000000000000000000000000000000000000a00000000000000000000000003ec953fb6eb55d18c98cf0a62ea26a19a6d460f70000000000000000000000000000000000000000000000000000000000129da00000000000000000000000000000000000000000000000002c4ba0ba7a06f0140000000000000000000000000000000000000000000000000000000065243e07000000000000000000000000000000000000000000000000000000000000002b201eba5cc46d216ce6dc03f6a759e8e766e956ae000bb878c1b0c915c4faa5fffa6cabf0219da63d7f4cb8000000000000000000000000000000000000000000","l1BlockNumber":"0x11774dc","l1Timestamp":"0x65243de8","l1TxOrigin":null,"nonce":"0xc64","queueIndex":null,"queueOrigin":"sequencer","r":"0x80afd817d2ebfb894053d5b16a85091bd6c5e1b4415409ffb514772dee44f48c","rawTransaction":"0xf9018e820c648402faf080830252b79425c030116feb2e7bba054b9de0915e5f51b03e3180b9012475ceafe6000000000000000000000000000000000000000000000000000000000000002000000000000000000000000000000000000000000000000000000000000000a00000000000000000000000003ec953fb6eb55d18c98cf0a62ea26a19a6d460f70000000000000000000000000000000000000000000000000000000000129da00000000000000000000000000000000000000000000000002c4ba0ba7a06f0140000000000000000000000000000000000000000000000000000000065243e07000000000000000000000000000000000000000000000000000000000000002b201eba5cc46d216ce6dc03f6a759e8e766e956ae000bb878c1b0c915c4faa5fffa6cabf0219da63d7f4cb8000000000000000000000000000000000000000000822733a080afd817d2ebfb894053d5b16a85091bd6c5e1b4415409ffb514772dee44f48ca06a3463aa6d5a4027188f3dbb6558f358c5d63e7ee09f57608c3a512646b744d3","s":"0x6a3463aa6d5a4027188f3dbb6558f358c5d63e7ee09f57608c3a512646b744d3","to":"0x25c030116feb2e7bba054b9de0915e5f51b03e31","transactionIndex":"0x0","v":"0x2733","value":"0x0"}],"transactionsRoot":"0xd970b68fdbdf6a0c9353ff1015175ad97a3cd33f777d0cde076766c56f5ae794","uncles":[]},"receipts":{"0x5dec2244d1a0b554b443285a3ad1a11180042cd142a27ebb5b97bc7e42018c7c":{"blockHash":"0x3a02a543aa14d41f1e9d90ac7c828aa380f3fc2382ac1164e2ee511f9dd2acbf","blockNumber":"0xd00234","from":"0x3ec953fb6eb55d18c98cf0a62ea26a19a6d460f7","gas":"0x252b7","gasPrice":"0x2faf080","hash":"0x5dec2244d1a0b554b443285a3ad1a11180042cd142a27ebb5b97bc7e42018c7c","index":"0xd00233","input":"0x75ceafe6000000000000000000000000000000000000000000000000000000000000002000000000000000000000000000000000000000000000000000000000000000a00000000000000000000000003ec953fb6eb55d18c98cf0a62ea26a19a6d460f70000000000000000000000000000000000000000000000000000000000129da00000000000000000000000000000000000000000000000002c4ba0ba7a06f0140000000000000000000000000000000000000000000000000000000065243e07000000000000000000000000000000000000000000000000000000000000002b201eba5cc46d216ce6dc03f6a759e8e766e956ae000bb878c1b0c915c4faa5fffa6cabf0219da63d7f4cb8000000000000000000000000000000000000000000","l1BlockNumber":"0x11774dc","l1Timestamp":"0x65243de8","l1TxOrigin":null,"nonce":"0xc64","queueIndex":null,"queueOrigin":"sequencer","r":"0x80afd817d2ebfb894053d5b16a85091bd6c5e1b4415409ffb514772dee44f48c","rawTransaction":"0xf9018e820c648402faf080830252b79425c030116feb2e7bba054b9de0915e5f51b03e3180b9012475ceafe6000000000000000000000000000000000000000000000000000000000000002000000000000000000000000000000000000000000000000000000000000000a00000000000000000000000003ec953fb6eb55d18c98cf0a62ea26a19a6d460f70000000000000000000000000000000000000000000000000000000000129da00000000000000000000000000000000000000000000000002c4ba0ba7a06f0140000000000000000000000000000000000000000000000000000000065243e07000000000000000000000000000000000000000000000000000000000000002b201eba5cc46d216ce6dc03f6a759e8e766e956ae000bb878c1b0c915c4faa5fffa6cabf0219da63d7f4cb8000000000000000000000000000000000000000000822733a080afd817d2ebfb894053d5b16a85091bd6c5e1b4415409ffb514772dee44f48ca06a3463aa6d5a4027188f3dbb6558f358c5d63e7ee09f57608c3a512646b744d3","s":"0x6a3463aa6d5a4027188f3dbb6558f358c5d63e7ee09f57608c3a512646b744d3","to":"0x25c030116feb2e7bba054b9de0915e5f51b03e31","transactionIndex":"0x0","v":"0x2733","value":"0x0","contractAddress":null,"cumulativeGasUsed":"0x23a48","daFee":"0x0","daGasPrice":"0x0","daGasUsed":"0x14c","gasUsed":"0x23a48","l1Fee":"0x19709d787180660","l1FeeScalar":"1","l1GasPrice":"0x38a987f04864","l1GasUsed":"0x72f","logs":[{"address":"0x78c1b0c915c4faa5fffa6cabf0219da63d7f4cb8","blockHash":"0x3a02a543aa14d41f1e9d90ac7c828aa380f3fc2382ac1164e2ee511f9dd2acbf","blockNumber":"0xd00234","data":"0x0000000000000000000000000000000000000000000000002d330c7f96a3d068","logIndex":"0x0","removed":false,"topics":["0xddf252ad1be2c89b69c2b068fc378daa952ba7f163c4a11628f55a4df523b3ef","0x000000000000000000000000cddf50c3dfac95939167eff4c05d38781f549ea9","0x0000000000000000000000003ec953fb6eb55d18c98cf0a62ea26a19a6d460f7"],"transactionHash":"0x5dec2244d1a0b554b443285a3ad1a11180042cd142a27ebb5b97bc7e42018c7c","transactionIndex":"0x0"},{"address":"0x201eba5cc46d216ce6dc03f6a759e8e766e956ae","blockHash":"0x3a02a543aa14d41f1e9d90ac7c828aa380f3fc2382ac1164e2ee511f9dd2acbf","blockNumber":"0xd00234","data":"0x0000000000000000000000000000000000000000000000000000000000129da0","logIndex":"0x1","removed":false,"topics":["0xddf252ad1be2c89b69c2b068fc378daa952ba7f163c4a11628f55a4df523b3ef","0x0000000000000000000000003ec953fb6eb55d18c98cf0a62ea26a19a6d460f7","0x000000000000000000000000cddf50c3dfac95939167eff4c05d38781f549ea9"],"transactionHash":"0x5dec2244d1a0b554b443285a3ad1a11180042cd142a27ebb5b97bc7e42018c7c","transactionIndex":"0x0"},{"address":"0x201eba5cc46d216ce6dc03f6a759e8e766e956ae","blockHash":"0x3a02a543aa14d41f1e9d90ac7c828aa380f3fc2382ac1164e2ee511f9dd2acbf","blockNumber":"0xd00234","data":"0xfffffffffffffffffffffffffffffffffffffffffffffffffffffffff97b4c7f","logIndex":"0x2","removed":false,"topics":["0x8c5be1e5ebec7d5bd14f71427d1e84f3dd0314c0f7b2291e5b200ac8c7c3b925","0x0000000000000000000000003ec953fb6eb55d18c98cf0a62ea26a19a6d460f7","0x00000000000000000000000025c030116feb2e7bba054b9de0915e5f51b03e31"],"transactionHash":"0x5dec2244d1a0b554b443285a3ad1a11180042cd142a27ebb5b97bc7e42018c7c","transactionIndex":"0x0"},{"address":"0xcddf50c3dfac95939167eff4c05d38781f549ea9","blockHash":"0x3a02a543aa14d41f1e9d90ac7c828aa380f3fc2382ac1164e2ee511f9dd2acbf","blockNumber":"0xd00234","data":"0x00000000000000000000000000000000000000000000000000000000000000010000000000000000000000000000000000000000000000000000000000129da00000000000000000000000000000000000000000000000002d330c7f96a3d0680000000000000000000000000000000000000000000000000000000000045dde","logIndex":"0x3","removed":false,"topics":["0x0fe977d619f8172f7fdbe8bb8928ef80952817d96936509f67d66346bc4cd10f","0x000000000000000000000000201eba5cc46d216ce6dc03f6a759e8e766e956ae","0x00000000000000000000000078c1b0c915c4faa5fffa6cabf0219da63d7f4cb8","0x0000000000000000000000000000000000000000000000000000000000000bb8"],"transactionHash":"0x5dec2244d1a0b554b443285a3ad1a11180042cd142a27ebb5b97bc7e42018c7c","transactionIndex":"0x0"}],"logsBloom":"0x00000000200000000000000001c00000000020000001000000000000000000000000000000000000000000000000000000000000000000040080000000200000100000020000000800010008000000000000008000042000200000000000000000000000000000000000000000000000000000000000004000000010004000004050000000000000000000000000000000100000004000010000000000000000020001000000000000100000000000000000000000000000000000000000000000000002000000000000000000000000000000000000000000010000000000000010000000000004000000000000000000000020000000000000000000100000","status":"0x1","transactionHash":"0x5dec2244d1a0b554b443285a3ad1a11180042cd142a27ebb5b97bc7e42018c7c"}}}