{"block":{"difficulty":"0x2","extraData":"0xd98301090a846765746889676f312e31352e3133856c696e757800000000000018a2af60cac5a3988e2b1acabd5cbc4a29ceca830a023b8cec78e59e137c2981145df7cea609c17e581b8b6149235a2ea3160a05fc62e823badf1699044de50000","gasLimit":"0x1c9c380","gasUsed":"0x1e35d","hash":"0x9f2bda56ee370624ec87b1341f2b4048994e1a97ee3465e4c7fb5275da6223e2","logsBloom":"0x00000000000000000000000000000000000001000001008800000000000000000004000000000000000000000002000000000000000000000000000000200000140000000040000400010008000000000000008000042000000200000000000000000000000000000000000000000080000000000000000000000010000000000000000000000000000000000000000000100000000000000000000000000040020000000000000000000000000200000000000001000000000000000000000000000002000000000000000000000000000000000000000000000010000000000010000000000000000000000000000000000000000000000000000000000000","miner":"0x0000000000000000000000000000000000000000","mixHash":"0x0000000000000000000000000000000000000000000000000000000000000000","nonce":"0x0000000000000000","number":"0xd00290","parentHash":"0xa58804755bf098845bf1ab87065be9b5a5e875f82fa12a281544d94c554ddbbe","receiptsRoot":"0xe191ff5ce9b903a3205cbbf70f48e9cf2345af559d934b06730760016a009172","sha3Uncles":"0x1dcc4de8dec75d7aab85b567b6ccd41ad312451b948a7413f0a142fd40d49347","size":"0x3d8","stateRoot":"0x6dda326530655ab89afdafc7a859ece7c54a829d32627042d43186c7fa5f24d4","timestamp":"0x65243e20","totalDifficulty":"0x1a00521","transactions":[{"blockHash":"0x9f2bda56ee370624ec87b1341f2b4048994e1a97ee3465e4c7fb5275da6223e2","blockNumber":"0xd00290","from":"0xd19b0b130dc280e8698f232d38c1436214882406","gas":"0x1faff","gasPrice":"0x2faf080","hash":"0x51b5e2ff390536d7cbf5cb38b01ddab2173d98a4b50b8a05b5ade38535ab573b","index":"0xd0028f","input":"0x414bf389000000000000000000000000201eba5cc46d216ce6dc03f6a759e8e766e956ae00000000000000000000000078c1b0c915c4faa5fffa6cabf0219da63d7f4cb800000000000000000000000000000000000000000000000000000000000001f4000000000000000000000000d19b0b130dc280e8698f232d38c14362148824060000000000000000000000000000000000000000000000000000000065243e3f00000000000000000000000000000000000000000000000000000000001339e00000000000000000000000000000000000000000000000002dcf76f3b3c437fe0000000000000000000000000000000000000000000000000000000000000000","l1BlockNumber":"0x11774e0","l1Timestamp":"0x65243e20","l1TxOrigin":null,"nonce":"0x1159","queueIndex":null,"queueOrigin":"sequencer","r":"0x29b08d0ec0243652a1d65133d7b666d48ab97242c1b3cf2ad8632cb76fef75e","rawTransaction":"0xf9016e8211598402faf0808301faff94319b69888b0d11cec22caa5034e25fffbdc8842180b90104414bf389000000000000000000000000201eba5cc46d216ce6dc03f6a759e8e766e956ae00000000000000000000000078c1b0c915c4faa5fffa6cabf0219da63d7f4cb800000000000000000000000000000000000000000000000000000000000001f4000000000000000000000000d19b0b130dc280e8698f232d38c14362148824060000000000000000000000000000000000000000000000000000000065243e3f00000000000000000000000000000000000000000000000000000000001339e00000000000000000000000000000000000000000000000002dcf76f3b3c437fe0000000000000000000000000000000000000000000000000000000000000000822734a0029b08d0ec0243652a1d65133d7b666d48ab97242c1b3cf2ad8632cb76fef75ea03bbccc8154fa5ff6127b0fa19f46272b8ee44f31cff0e461a86651e2984b3bfd","s":"0x3bbccc8154fa5ff6127b0fa19f46272b8ee44f31cff0e461a86651e2984b3bfd","to":"0x319b69888b0d11cec22caa5034e25fffbdc88421","transactionIndex":"0x0","v":"0x2734","value":"0x0"}],"transactionsRoot":"0x2658d27a75e2da4f3a77ca0aa4c52c0190901ea7147a42e151d6eda4274b88c3","uncles":[]},"receipts":{"0x51b5e2ff390536d7cbf5cb38b01ddab2173d98a4b50b8a05b5ade38535ab573b":{"blockHash":"0x9f2bda56ee370624ec87b1341f2b4048994e1a97ee3465e4c7fb5275da6223e2","blockNumber":"0xd00290","from":"0xd19b0b130dc280e8698f232d38c1436214882406","gas":"0x1faff","gasPrice":"0x2faf080","hash":"0x51b5e2ff390536d7cbf5cb38b01ddab2173d98a4b50b8a05b5ade38535ab573b","index":"0xd0028f","input":"0x414bf389000000000000000000000000201eba5cc46d216ce6dc03f6a759e8e766e956ae00000000000000000000000078c1b0c915c4faa5fffa6cabf0219da63d7f4cb800000000000000000000000000000000000000000000000000000000000001f4000000000000000000000000d19b0b130dc280e8698f232d38c14362148824060000000000000000000000000000000000000000000000000000000065243e3f00000000000000000000000000000000000000000000000000000000001339e00000000000000000000000000000000000000000000000002dcf76f3b3c437fe0000000000000000000000000000000000000000000000000000000000000000","l1BlockNumber":"0x11774e0","l1Timestamp":"0x65243e20","l1TxOrigin":null,"nonce":"0x1159","queueIndex":null,"queueOrigin":"sequencer","r":"0x29b08d0ec0243652a1d65133d7b666d48ab97242c1b3cf2ad8632cb76fef75e","rawTransaction":"0xf9016e8211598402faf0808301faff94319b69888b0d11cec22caa5034e25fffbdc8842180b90104414bf389000000000000000000000000201eba5cc46d216ce6dc03f6a759e8e766e956ae00000000000000000000000078c1b0c915c4faa5fffa6cabf0219da63d7f4cb800000000000000000000000000000000000000000000000000000000000001f4000000000000000000000000d19b0b130dc280e8698f232d38c14362148824060000000000000000000000000000000000000000000000000000000065243e3f00000000000000000000000000000000000000000000000000000000001339e00000000000000000000000000000000000000000000000002dcf76f3b3c437fe0000000000000000000000000000000000000000000000000000000000000000822734a0029b08d0ec0243652a1d65133d7b666d48ab97242c1b3cf2ad8632cb76fef75ea03bbccc8154fa5ff6127b0fa19f46272b8ee44f31cff0e461a86651e2984b3bfd","s":"0x3bbccc8154fa5ff6127b0fa19f46272b8ee44f31cff0e461a86651e2984b3bfd","to":"0x319b69888b0d11cec22caa5034e25fffbdc88421","transactionIndex":"0x0","v":"0x2734","value":"0x0","contractAddress":null,"cumulativeGasUsed":"0x1e35d","daFee":"0x0","daGasPrice":"0x0","daGasUsed":"0x12c","gasUsed":"0x1e35d","l1Fee":"0x19709d787180660","l1FeeScalar":"1","l1GasPrice":"0x38a987f04864","l1GasUsed":"0x72f","logs":[{"address":"0x78c1b0c915c4faa5fffa6cabf0219da63d7f4cb8","blockHash":"0x9f2bda56ee370624ec87b1341f2b4048994e1a97ee3465e4c7fb5275da6223e2","blockNumber":"0xd00290","data":"0x0000000000000000000000000000000000000000000000002ebf92d83944fe0b","logIndex":"0x0","removed":false,"topics":["0xddf252ad1be2c89b69c2b068fc378daa952ba7f163c4a11628f55a4df523b3ef","0x000000000000000000000000d08c50f7e69e9aeb2867deff4a8053d9a855e26a","0x000000000000000000000000d19b0b130dc280e8698f232d38c1436214882406"],"transactionHash":"0x51b5e2ff390536d7cbf5cb38b01ddab2173d98a4b50b8a05b5ade38535ab573b","transactionIndex":"0x0"},{"address":"0x201eba5cc46d216ce6dc03f6a759e8e766e956ae","blockHash":"0x9f2bda56ee370624ec87b1341f2b4048994e1a97ee3465e4c7fb5275da6223e2","blockNumber":"0xd00290","data":"0x00000000000000000000000000000000000000000000000000000000001339e0","logIndex":"0x1","removed":false,"topics":["0xddf252ad1be2c89b69c2b068fc378daa952ba7f163c4a11628f55a4df523b3ef","0x000000000000000000000000d19b0b130dc280e8698f232d38c1436214882406","0x000000000000000000000000d08c50f7e69e9aeb2867deff4a8053d9a855e26a"],"transactionHash":"0x51b5e2ff390536d7cbf5cb38b01ddab2173d98a4b50b8a05b5ade38535ab573b","transactionIndex":"0x0"},{"address":"0x201eba5cc46d216ce6dc03f6a759e8e766e956ae","blockHash":"0x9f2bda56ee370624ec87b1341f2b4048994e1a97ee3465e4c7fb5275da6223e2","blockNumber":"0xd00290","data":"0xffffffffffffffffffffffffffffffffffffffffffffffffffffffff888859ef","logIndex":"0x2","removed":false,"topics":["0x8c5be1e5ebec7d5bd14f71427d1e84f3dd0314c0f7b2291e5b200ac8c7c3b925","0x000000000000000000000000d19b0b130dc280e8698f232d38c1436214882406","0x000000000000000000000000319b69888b0d11cec22caa5034e25fffbdc88421"],"transactionHash":"0x51b5e2ff390536d7cbf5cb38b01ddab2173d98a4b50b8a05b5ade38535ab573b","transactionIndex":"0x0"},{"address":"0xd08c50f7e69e9aeb2867deff4a8053d9a855e26a","blockHash":"0x9f2bda56ee370624ec87b1341f2b4048994e1a97ee3465e4c7fb5275da6223e2","blockNumber":"0xd00290","data":"0x00000000000000000000000000000000000000000000000000000000001339e0ffffffffffffffffffffffffffffffffffffffffffffffffd1406d27c6bb01f5000000000000000000000000000000000018f4621f12a42f06b49aee9ad16be5000000000000000000000000000000000000000000000000006787d5d3ab8a8c0000000000000000000000000000000000000000000000000000000000045dd200000000000000000000000000000000000000000000000000000000000000d60000000000000000000000000000000000000000000000000000000000000000","logIndex":"0x3","removed":false,"topics":["0x19b47279256b2a23a1665c810c8d55a1758940ee09377d4f8d26497a3577dc83","0x000000000000000000000000319b69888b0d11cec22caa5034e25fffbdc88421","0x000000000000000000000000d19b0b130dc280e8698f232d38c1436214882406"],"transactionHash":"0x51b5e2ff390536d7cbf5cb38b01ddab2173d98a4b50b8a05b5ade38535ab573b","transactionIndex":"0x0"}],"logsBloom":"0x00000000000000000000000000000000000001000001008800000000000000000004000000000000000000000002000000000000000000000000000000200000140000000040000400010008000000000000008000042000000200000000000000000000000000000000000000000080000000000000000000000010000000000000000000000000000000000000000000100000000000000000000000000040020000000000000000000000000200000000000001000000000000000000000000000002000000000000000000000000000000000000000000000010000000000010000000000000000000000000000000000000000000000000000000000000","status":"0x1","transactionHash":"0x51b5e2ff390536d7cbf5cb38b01ddab2173d98a4b50b8a05b5ade38535ab573b"}}}