{"block":{"difficulty":"0x2","extraData":"0xd98301090a846765746889676f312e31352e3133856c696e7578000000000000de31807595b325b50ae3aef6f4dabe8bd83117163e3d575b97c9b42e60a9beb4624c1ec0cb604656c2a0b50a9b312870426ce6673b2ff9aefe0c8b402c21c5e501","gasLimit":"0x1c9c380","gasUsed":"0x869f","hash":"0xe161bc6fa1d78f27246620511fea08ab2b5d03d40f46c4c7a99873864b63b580","logsBloom":"0x00000000000000000000000000000000000000000000000000000000000000000000000000000000000000000000000000000000000000000000000000000000000000000000000000000000000000000000000000000000000000000000000000000000000000000000000000000000000000000000000000000000000000000000000000000000000000000000000000000000000000000000000000000000000000000000000000000000000000000000000000000000000000000000000000000000000000000000000000000000000000000000000000000000000000000000000000000000000000000000000000000000000000000000000000000000","miner":"0x0000000000000000000000000000000000000000","mixHash":"0x0000000000000000000000000000000000000000000000000000000000000000","nonce":"0x0000000000000000","number":"0xcff3cd","parentHash":"0x33028af9ea4c3d7b0aab3d47876139470fac293eb788b6136b2267e13c09f969","receiptsRoot":"0x693234d8ce29f9e74987fc603307c4aba59a3c3c2a4c19bfd8c55342c745e46c","sha3Uncles":"0x1dcc4de8dec75d7aab85b567b6ccd41ad312451b948a7413f0a142fd40d49347","size":"0x314","stateRoot":"0x9dc0850b2016bd759d56dff6d31b3d74ac64a9526e36dbb01e2bec5f1834a2f8","timestamp":"0x6524375c","totalDifficulty":"0x19fe79b","transactions":[{"blockHash":"0xe161bc6fa1d78f27246620511fea08ab2b5d03d40f46c4c7a99873864b63b580","blockNumber":"0xcff3cd","from":"0x206f2077b9fa2c618745066046bcadaacf6bc1a7","gas":"0x13880","gasPrice":"0x2faf080","hash":"0x0ee8df6b38324515a6d186ea8eaafdf31ff9dfe698382f8e3e56eb2b38b2246a","index":"0xcff3cc","input":"0x7ff15f3e00000000000000000000000000000000000000000000000000000000000000010000000000000000000000000000000000000000000000000000027f00e352c0","l1BlockNumber":"0x1177450","l1Timestamp":"0x6524375c","l1TxOrigin":null,"nonce":"0xb20","queueIndex":null,"queueOrigin":"sequencer","r":"0x16bbb5c32575960f3a2ac73cbffa096bf629809e40bb53f186956f7b5dcecc82","rawTransaction":"0xf8ad820b208402faf0808301388094690ef4bf1f67012c53e95627001156e7b1cdadab80b8447ff15f3e00000000000000000000000000000000000000000000000000000000000000010000000000000000000000000000000000000000000000000000027f00e352c0822734a016bbb5c32575960f3a2ac73cbffa096bf629809e40bb53f186956f7b5dcecc82a07534eabaf0a41de88aa14b35e4f30a6c18b018121b42408a4d327206f4a011b1","s":"0x7534eabaf0a41de88aa14b35e4f30a6c18b018121b42408a4d327206f4a011b1","to":"0x690ef4bf1f67012c53e95627001156e7b1cdadab","transactionIndex":"0x0","v":"0x2734","value":"0x0"}],"transactionsRoot":"0x57feab64171eb9d37f1be7857a1637f94012bde6412f45ee4961d1de251107ce","uncles":[]},"receipts":{"0x0ee8df6b38324515a6d186ea8eaafdf31ff9dfe698382f8e3e56eb2b38b2246a":{"blockHash":"0xe161bc6fa1d78f27246620511fea08ab2b5d03d40f46c4c7a99873864b63b580","blockNumber":"0xcff3cd","from":"0x206f2077b9fa2c618745066046bcadaacf6bc1a7","gas":"0x13880","gasPrice":"0x2faf080","hash":"0x0ee8df6b38324515a6d186ea8eaafdf31ff9dfe698382f8e3e56eb2b38b2246a","index":"0xcff3cc","input":"0x7ff15f3e00000000000000000000000000000000000000000000000000000000000000010000000000000000000000000000000000000000000000000000027f00e352c0","l1BlockNumber":"0x1177450","l1Timestamp":"0x6524375c","l1TxOrigin":null,"nonce":"0xb20","queueIndex":null,"queueOrigin":"sequencer","r":"0x16bbb5c32575960f3a2ac73cbffa096bf629809e40bb53f186956f7b5dcecc82","rawTransaction":"0xf8ad820b208402faf0808301388094690ef4bf1f67012c53e95627001156e7b1cdadab80b8447ff15f3e00000000000000000000000000000000000000000000000000000000000000010000000000000000000000000000000000000000000000000000027f00e352c0822734a016bbb5c32575960f3a2ac73cbffa096bf629809e40bb53f186956f7b5dcecc82a07534eabaf0a41de88aa14b35e4f30a6c18b018121b42408a4d327206f4a011b1","s":"0x7534eabaf0a41de88aa14b35e4f30a6c18b018121b42408a4d327206f4a011b1","to":"0x690ef4bf1f67012c53e95627001156e7b1cdadab","transactionIndex":"0x0","v":"0x2734","value":"0x0","contractAddress":null,"cumulativeGasUsed":"0x869f","daFee":"0x0","daGasPrice":"0x0","daGasUsed":"0x6a","gasUsed":"0x869f","l1Fee":"0x1c5145ff7a866d0","l1FeeScalar":"1","l1GasPrice":"0x3f1249c65230","l1GasUsed":"0x72f","logs":[],"logsBloom":"0x00000000000000000000000000000000000000000000000000000000000000000000000000000000000000000000000000000000000000000000000000000000000000000000000000000000000000000000000000000000000000000000000000000000000000000000000000000000000000000000000000000000000000000000000000000000000000000000000000000000000000000000000000000000000000000000000000000000000000000000000000000000000000000000000000000000000000000000000000000000000000000000000000000000000000000000000000000000000000000000000000000000000000000000000000000000","status":"0x1","transactionHash":"0x0ee8df6b38324515a6d186ea8eaafdf31ff9dfe698382f8e3e56eb2b38b2246a"}}}