{"block":{"difficulty":"0x2","extraData":"0xd98301090a846765746889676f312e31352e3133856c696e75780000000000005955de983156eb92edaf1237d7d1f11f4d1501e3df86eda610789ad10779e18939c5a67cf1ca332e7fde19879b1b3e00908c4620ec16549d436bf97aa986d0e900","gasLimit":"0x1c9c380","gasUsed":"0x1d2a9","hash":"0x214832d748b160fea034c912e4368d5d0c07826e7295873cc207c534871e628a","logsBloom":"0x00000000000000000000000000000000000000000001008800000000000000000004000000000000000000000002000000000000000000000000000000200000140000000040000000000008000000000000008000042000000200000000000000000000000000000000000000000088000000000000000000000010000000000000000000000000000000000000000000100000000000000000000000000040020000000000000000000000000200000000000001000000000000000000000000000002000000400000000000000000000000000000000000000010000000000010000000000000000000000000000000000000000000000000000000002000","miner":"0x0000000000000000000000000000000000000000","mixHash":"0x0000000000000000000000000000000000000000000000000000000000000000","nonce":"0x0000000000000000","number":"0xd002f8","parentHash":"0x4e4ba5a2bc0a58cc7244934de3b7a4d1cb597b9eb0449704813c794f9100a8c6","receiptsRoot":"0xb1a5b4cfa6c956417418c5605905f0f8bc3c57b1ad26c01e345a91df6eea825b","sha3Uncles":"0x1dcc4de8dec75d7aab85b567b6ccd41ad312451b948a7413f0a142fd40d49347","size":"0x3d8","stateRoot":"0x4a69d19803d05060864d5e4f890a9bd1a2822bc32b5eb1e679469a6877406654","timestamp":"0x65243e52","totalDifficulty":"0x1a005f1","transactions":[{"blockHash":"0x214832d748b160fea034c912e4368d5d0c07826e7295873cc207c534871e628a","blockNumber":"0xd002f8","from":"0xecb70c44d5822f7bafa16b0206085f26dd35aecb","gas":"0x1e9fd","gasPrice":"0x2faf080","hash":"0x462225b5c7e241f30cfea5af641265bd2e798869bfb7fcd0955b3aa0e350756f","index":"0xd002f7","input":"0x414bf38900000000000000000000000078c1b0c915c4faa5fffa6cabf0219da63d7f4cb8000000000000000000000000201eba5cc46d216ce6dc03f6a759e8e766e956ae00000000000000000000000000000000000000000000000000000000000001f4000000000000000000000000ecb70c44d5822f7bafa16b0206085f26dd35aecb0000000000000000000000000000000000000000000000000000000065243e700000000000000000000000000000000000000000000000002cf6cad5704400000000000000000000000000000000000000000000000000000000000000121a2d0000000000000000000000000000000000000000000000000000000000000000","l1BlockNumber":"0x11774e5","l1Timestamp":"0x65243e52","l1TxOrigin":null,"nonce":"0xf5b","queueIndex":null,"queueOrigin":"sequencer","r":"0xe37ccb03db2c4d73de8d9119958d360b4889de3bff6165277e978b262a9c5374","rawTransaction":"0xf9016e820f5b8402faf0808301e9fd94319b69888b0d11cec22caa5034e25fffbdc8842180b90104414bf38900000000000000000000000078c1b0c915c4faa5fffa6cabf0219da63d7f4cb8000000000000000000000000201eba5cc46d216ce6dc03f6a759e8e766e956ae00000000000000000000000000000000000000000000000000000000000001f4000000000000000000000000ecb70c44d5822f7bafa16b0206085f26dd35aecb0000000000000000000000000000000000000000000000000000000065243e700000000000000000000000000000000000000000000000002cf6cad5704400000000000000000000000000000000000000000000000000000000000000121a2d0000000000000000000000000000000000000000000000000000000000000000822733a0e37ccb03db2c4d73de8d9119958d360b4889de3bff6165277e978b262a9c5374a015d04d135205106d80a15b1bd58d61bae9672bb6f1ff15de351b1ca3833231f9","s":"0x15d04d135205106d80a15b1bd58d61bae9672bb6f1ff15de351b1ca3833231f9","to":"0x319b69888b0d11cec22caa5034e25fffbdc88421","transactionIndex":"0x0","v":"0x2733","value":"0x0"}],"transactionsRoot":"0x4c8e2d6c535130f90aaa482b5b88e90a275bd878cd11c2075f9809373e9f60d7","uncles":[]},"receipts":{"0x462225b5c7e241f30cfea5af641265bd2e798869bfb7fcd0955b3aa0e350756f":{"blockHash":"0x214832d748b160fea034c912e4368d5d0c07826e7295873cc207c534871e628a","blockNumber":"0xd002f8","from":"0xecb70c44d5822f7bafa16b0206085f26dd35aecb","gas":"0x1e9fd","gasPrice":"0x2faf080","hash":"0x462225b5c7e241f30cfea5af641265bd2e798869bfb7fcd0955b3aa0e350756f","index":"0xd002f7","input":"0x414bf38900000000000000000000000078c1b0c915c4faa5fffa6cabf0219da63d7f4cb8000000000000000000000000201eba5cc46d216ce6dc03f6a759e8e766e956ae00000000000000000000000000000000000000000000000000000000000001f4000000000000000000000000ecb70c44d5822f7bafa16b0206085f26dd35aecb0000000000000000000000000000000000000000000000000000000065243e700000000000000000000000000000000000000000000000002cf6cad5704400000000000000000000000000000000000000000000000000000000000000121a2d0000000000000000000000000000000000000000000000000000000000000000","l1BlockNumber":"0x11774e5","l1Timestamp":"0x65243e52","l1TxOrigin":null,"nonce":"0xf5b","queueIndex":null,"queueOrigin":"sequencer","r":"0xe37ccb03db2c4d73de8d9119958d360b4889de3bff6165277e978b262a9c5374","rawTransaction":"0xf9016e820f5b8402faf0808301e9fd94319b69888b0d11cec22caa5034e25fffbdc8842180b90104414bf38900000000000000000000000078c1b0c915c4faa5fffa6cabf0219da63d7f4cb8000000000000000000000000201eba5cc46d216ce6dc03f6a759e8e766e956ae00000000000000000000000000000000000000000000000000000000000001f4000000000000000000000000ecb70c44d5822f7bafa16b0206085f26dd35aecb0000000000000000000000000000000000000000000000000000000065243e700000000000000000000000000000000000000000000000002cf6cad5704400000000000000000000000000000000000000000000000000000000000000121a2d0000000000000000000000000000000000000000000000000000000000000000822733a0e37ccb03db2c4d73de8d9119958d360b4889de3bff6165277e978b262a9c5374a015d04d135205106d80a15b1bd58d61bae9672bb6f1ff15de351b1ca3833231f9","s":"0x15d04d135205106d80a15b1bd58d61bae9672bb6f1ff15de351b1ca3833231f9","to":"0x319b69888b0d11cec22caa5034e25fffbdc88421","transactionIndex":"0x0","v":"0x2733","value":"0x0","contractAddress":null,"cumulativeGasUsed":"0x1d2a9","daFee":"0x0","daGasPrice":"0x0","daGasUsed":"0x12c","gasUsed":"0x1d2a9","l1Fee":"0x19709d787180660","l1FeeScalar":"1","l1GasPrice":"0x38a987f04864","l1GasUsed":"0x72f","logs":[{"address":"0x201eba5cc46d216ce6dc03f6a759e8e766e956ae","blockHash":"0x214832d748b160fea034c912e4368d5d0c07826e7295873cc207c534871e628a","blockNumber":"0xd002f8","data":"0x000000000000000000000000000000000000000000000000000000000012795d","logIndex":"0x0","removed":false,"topics":["0xddf252ad1be2c89b69c2b068fc378daa952ba7f163c4a11628f55a4df523b3ef","0x000000000000000000000000d08c50f7e69e9aeb2867deff4a8053d9a855e26a","0x000000000000000000000000ecb70c44d5822f7bafa16b0206085f26dd35aecb"],"transactionHash":"0x462225b5c7e241f30cfea5af641265bd2e798869bfb7fcd0955b3aa0e350756f","transactionIndex":"0x0"},{"address":"0x78c1b0c915c4faa5fffa6cabf0219da63d7f4cb8","blockHash":"0x214832d748b160fea034c912e4368d5d0c07826e7295873cc207c534871e628a","blockNumber":"0xd002f8","data":"0x0000000000000000000000000000000000000000000000002cf6cad570440000","logIndex":"0x1","removed":false,"topics":["0xddf252ad1be2c89b69c2b068fc378daa952ba7f163c4a11628f55a4df523b3ef","0x000000000000000000000000ecb70c44d5822f7bafa16b0206085f26dd35aecb","0x000000000000000000000000d08c50f7e69e9aeb2867deff4a8053d9a855e26a"],"transactionHash":"0x462225b5c7e241f30cfea5af641265bd2e798869bfb7fcd0955b3aa0e350756f","transactionIndex":"0x0"},{"address":"0x78c1b0c915c4faa5fffa6cabf0219da63d7f4cb8","blockHash":"0x214832d748b160fea034c912e4368d5d0c07826e7295873cc207c534871e628a","blockNumber":"0xd002f8","data":"0xffffffffffffffffffffffffffffffffffffffffffffffb33fd3f93ad9f3ffff","logIndex":"0x2","removed":false,"topics":["0x8c5be1e5ebec7d5bd14f71427d1e84f3dd0314c0f7b2291e5b200ac8c7c3b925","0x000000000000000000000000ecb70c44d5822f7bafa16b0206085f26dd35aecb","0x000000000000000000000000319b69888b0d11cec22caa5034e25fffbdc88421"],"transactionHash":"0x462225b5c7e241f30cfea5af641265bd2e798869bfb7fcd0955b3aa0e350756f","transactionIndex":"0x0"},{"address":"0xd08c50f7e69e9aeb2867deff4a8053d9a855e26a","blockHash":"0x214832d748b160fea034c912e4368d5d0c07826e7295873cc207c534871e628a","blockNumber":"0xd002f8","data":"0xffffffffffffffffffffffffffffffffffffffffffffffffffffffffffed86a30000000000000000000000000000000000000000000000002cf6cad570440000000000000000000000000000000000000018f4c5674fa73ae98bfaaa4b66ef8a000000000000000000000000000000000000000000000000006787d5d3ab8a8c0000000000000000000000000000000000000000000000000000000000045dd300000000000000000000000000000000000000000000000000000000000000000000000000000000000000000000000000000000000000000001f4f31e57a000","logIndex":"0x3","removed":false,"topics":["0x19b47279256b2a23a1665c810c8d55a1758940ee09377d4f8d26497a3577dc83","0x000000000000000000000000319b69888b0d11cec22caa5034e25fffbdc88421","0x000000000000000000000000ecb70c44d5822f7bafa16b0206085f26dd35aecb"],"transactionHash":"0x462225b5c7e241f30cfea5af641265bd2e798869bfb7fcd0955b3aa0e350756f","transactionIndex":"0x0"}],"logsBloom":"0x00000000000000000000000000000000000000000001008800000000000000000004000000000000000000000002000000000000000000000000000000200000140000000040000000000008000000000000008000042000000200000000000000000000000000000000000000000088000000000000000000000010000000000000000000000000000000000000000000100000000000000000000000000040020000000000000000000000000200000000000001000000000000000000000000000002000000400000000000000000000000000000000000000010000000000010000000000000000000000000000000000000000000000000000000002000","status":"0x1","transactionHash":"0x462225b5c7e241f30cfea5af641265bd2e798869bfb7fcd0955b3aa0e350756f"}}}