{"block":{"difficulty":"0x2","extraData":"0xd98301090a846765746889676f312e31352e3133856c696e7578000000000000e6c4b10b8a2791ca39e3ca93af8af68f888bec3e6cc14337196a16413aa8521570e824c4ae99e54f69e31eed3177b0057df81341dffc21acedc47a19b517824c01","gasLimit":"0x1c9c380","gasUsed":"0x1d2bd","hash":"0xf173644300bbfffddf9e378ef77837709cbe2e9b32d1c908e3f14e87c2e2c279","logsBloom":"0x40000000000000000000000000000000000000000001008800000000000000000000000000000000000000000102000000000000000000000000000000200000840000000040000000000008000000000000008000002004000000000000000000000001000000000000000100000000000000000000000000000010000000000000000000000000000000000000000000000000000000000008000000000000020000000000000000000000000000000000000001000022000100000000000000000002000000000000000000000000000000000000000000008000000000000010000000001000000000000000000000000000000000000000000000000000","miner":"0x0000000000000000000000000000000000000000","mixHash":"0x0000000000000000000000000000000000000000000000000000000000000000","nonce":"0x0000000000000000","number":"0xd002d2","parentHash":"0x9c9077fe40c7194197053c9759bfe45e0e3c7322ae373b2c4cbc630f1dea5378","receiptsRoot":"0xf1a80aebefe96de33835ede3a3309684658231d4c1120fa139cab9ca5ff229c8","sha3Uncles":"0x1dcc4de8dec75d7aab85b567b6ccd41ad312451b948a7413f0a142fd40d49347","size":"0x3d8","stateRoot":"0x28fae06f0d00a8db4b7c772f49ffbba00e26b4a746a15414dd76f7273f253b06","timestamp":"0x65243e3e","totalDifficulty":"0x1a005a5","transactions":[{"blockHash":"0xf173644300bbfffddf9e378ef77837709cbe2e9b32d1c908e3f14e87c2e2c279","blockNumber":"0xd002d2","from":"0xfa83225d14a9670df93808e35662fe993022d0f8","gas":"0x1ea1b","gasPrice":"0x2faf080","hash":"0x8aa44d0a604bdc8eb7cd627bd373eea51054763d671f8eaa28183c37b4864f53","index":"0xd002d1","input":"0x414bf389000000000000000000000000201eba5cc46d216ce6dc03f6a759e8e766e956ae000000000000000000000000deaddeaddeaddeaddeaddeaddeaddeaddead111100000000000000000000000000000000000000000000000000000000000001f4000000000000000000000000fa83225d14a9670df93808e35662fe993022d0f80000000000000000000000000000000000000000000000000000000065243e5f000000000000000000000000000000000000000000000000000000000010a1d0000000000000000000000000000000000000000000000000000264e08a6b55d20000000000000000000000000000000000000000000000000000000000000000","l1BlockNumber":"0x11774e3","l1Timestamp":"0x65243e3e","l1TxOrigin":null,"nonce":"0xc76","queueIndex":null,"queueOrigin":"sequencer","r":"0x73c498fd75c3c7c6b778abef33695c3afff5e6f6383405a482e07f85287afadb","rawTransaction":"0xf9016e820c768402faf0808301ea1b94319b69888b0d11cec22caa5034e25fffbdc8842180b90104414bf389000000000000000000000000201eba5cc46d216ce6dc03f6a759e8e766e956ae000000000000000000000000deaddeaddeaddeaddeaddeaddeaddeaddead111100000000000000000000000000000000000000000000000000000000000001f4000000000000000000000000fa83225d14a9670df93808e35662fe993022d0f80000000000000000000000000000000000000000000000000000000065243e5f000000000000000000000000000000000000000000000000000000000010a1d0000000000000000000000000000000000000000000000000000264e08a6b55d20000000000000000000000000000000000000000000000000000000000000000822734a073c498fd75c3c7c6b778abef33695c3afff5e6f6383405a482e07f85287afadba00eaf573c8748baa11e7b7e2f70c527e92d76cb23bec22bd7a90b7499e3a6580d","s":"0xeaf573c8748baa11e7b7e2f70c527e92d76cb23bec22bd7a90b7499e3a6580d","to":"0x319b69888b0d11cec22caa5034e25fffbdc88421","transactionIndex":"0x0","v":"0x2734","value":"0x0"}],"transactionsRoot":"0x507a8cd044db9fead8fe1cc7411caaed585e7357cdeabb67c63896590de60757","uncles":[]},"receipts":{"0x8aa44d0a604bdc8eb7cd627bd373eea51054763d671f8eaa28183c37b4864f53":{"blockHash":"0xf173644300bbfffddf9e378ef77837709cbe2e9b32d1c908e3f14e87c2e2c279","blockNumber":"0xd002d2","from":"0xfa83225d14a9670df93808e35662fe993022d0f8","gas":"0x1ea1b","gasPrice":"0x2faf080","hash":"0x8aa44d0a604bdc8eb7cd627bd373eea51054763d671f8eaa28183c37b4864f53","index":"0xd002d1","input":"0x414bf389000000000000000000000000201eba5cc46d216ce6dc03f6a759e8e766e956ae000000000000000000000000deaddeaddeaddeaddeaddeaddeaddeaddead111100000000000000000000000000000000000000000000000000000000000001f4000000000000000000000000fa83225d14a9670df93808e35662fe993022d0f80000000000000000000000000000000000000000000000000000000065243e5f000000000000000000000000000000000000000000000000000000000010a1d0000000000000000000000000000000000000000000000000000264e08a6b55d20000000000000000000000000000000000000000000000000000000000000000","l1BlockNumber":"0x11774e3","l1Timestamp":"0x65243e3e","l1TxOrigin":null,"nonce":"0xc76","queueIndex":null,"queueOrigin":"sequencer","r":"0x73c498fd75c3c7c6b778abef33695c3afff5e6f6383405a482e07f85287afadb","rawTransaction":"0xf9016e820c768402faf0808301ea1b94319b69888b0d11cec22caa5034e25fffbdc8842180b90104414bf389000000000000000000000000201eba5cc46d216ce6dc03f6a759e8e766e956ae000000000000000000000000deaddeaddeaddeaddeaddeaddeaddeaddead111100000000000000000000000000000000000000000000000000000000000001f4000000000000000000000000fa83225d14a9670df93808e35662fe993022d0f80000000000000000000000000000000000000000000000000000000065243e5f000000000000000000000000000000000000000000000000000000000010a1d0000000000000000000000000000000000000000000000000000264e08a6b55d20000000000000000000000000000000000000000000000000000000000000000822734a073c498fd75c3c7c6b778abef33695c3afff5e6f6383405a482e07f85287afadba00eaf573c8748baa11e7b7e2f70c527e92d76cb23bec22bd7a90b7499e3a6580d","s":"0xeaf573c8748baa11e7b7e2f70c527e92d76cb23bec22bd7a90b7499e3a6580d","to":"0x319b69888b0d11cec22caa5034e25fffbdc88421","transactionIndex":"0x0","v":"0x2734","value":"0x0","contractAddress":null,"cumulativeGasUsed":"0x1d2bd","daFee":"0x0","daGasPrice":"0x0","daGasUsed":"0x12c","gasUsed":"0x1d2bd","l1Fee":"0x19709d787180660","l1FeeScalar":"1","l1GasPrice":"0x38a987f04864","l1GasUsed":"0x72f","logs":[{"address":"0xdeaddeaddeaddeaddeaddeaddeaddeaddead1111","blockHash":"0xf173644300bbfffddf9e378ef77837709cbe2e9b32d1c908e3f14e87c2e2c279","blockNumber":"0xd002d2","data":"0x0000000000000000000000000000000000000000000000000002716282cb910b","logIndex":"0x0","removed":false,"topics":["0xddf252ad1be2c89b69c2b068fc378daa952ba7f163c4a11628f55a4df523b3ef","0x000000000000000000000000628f7131cf43e88ebe3921ae78c4ba0c31872bd4","0x000000000000000000000000fa83225d14a9670df93808e35662fe993022d0f8"],"transactionHash":"0x8aa44d0a604bdc8eb7cd627bd373eea51054763d671f8eaa28183c37b4864f53","transactionIndex":"0x0"},{"address":"0x201eba5cc46d216ce6dc03f6a759e8e766e956ae","blockHash":"0xf173644300bbfffddf9e378ef77837709cbe2e9b32d1c908e3f14e87c2e2c279","blockNumber":"0xd002d2","data":"0x000000000000000000000000000000000000000000000000000000000010a1d0","logIndex":"0x1","removed":false,"topics":["0xddf252ad1be2c89b69c2b068fc378daa952ba7f163c4a11628f55a4df523b3ef","0x000000000000000000000000fa83225d14a9670df93808e35662fe993022d0f8","0x000000000000000000000000628f7131cf43e88ebe3921ae78c4ba0c31872bd4"],"transactionHash":"0x8aa44d0a604bdc8eb7cd627bd373eea51054763d671f8eaa28183c37b4864f53","transactionIndex":"0x0"},{"address":"0x201eba5cc46d216ce6dc03f6a759e8e766e956ae","blockHash":"0xf173644300bbfffddf9e378ef77837709cbe2e9b32d1c908e3f14e87c2e2c279","blockNumber":"0xd002d2","data":"0xffffffffffffffffffffffffffffffffffffffffffffffffffffffffaa05807f","logIndex":"0x2","removed":false,"topics":["0x8c5be1e5ebec7d5bd14f71427d1e84f3dd0314c0f7b2291e5b200ac8c7c3b925","0x000000000000000000000000fa83225d14a9670df93808e35662fe993022d0f8","0x000000000000000000000000319b69888b0d11cec22caa5034e25fffbdc88421"],"transactionHash":"0x8aa44d0a604bdc8eb7cd627bd373eea51054763d671f8eaa28183c37b4864f53","transactionIndex":"0x0"},{"address":"0x628f7131cf43e88ebe3921ae78c4ba0c31872bd4","blockHash":"0xf173644300bbfffddf9e378ef77837709cbe2e9b32d1c908e3f14e87c2e2c279","blockNumber":"0xd002d2","data":"0x000000000000000000000000000000000000000000000000000000000010a1d0fffffffffffffffffffffffffffffffffffffffffffffffffffd8e9d7d346ef5000000000000000000000000000000000000621bcf33fd2674c9bd16228ddbe100000000000000000000000000000000000000000000000000002c65dde06c20000000000000000000000000000000000000000000000000000000000003178b00000000000000000000000000000000000000000000000000000000000000b90000000000000000000000000000000000000000000000000000000000000000","logIndex":"0x3","removed":false,"topics":["0x19b47279256b2a23a1665c810c8d55a1758940ee09377d4f8d26497a3577dc83","0x000000000000000000000000319b69888b0d11cec22caa5034e25fffbdc88421","0x000000000000000000000000fa83225d14a9670df93808e35662fe993022d0f8"],"transactionHash":"0x8aa44d0a604bdc8eb7cd627bd373eea51054763d671f8eaa28183c37b4864f53","transactionIndex":"0x0"}],"logsBloom":"0x40000000000000000000000000000000000000000001008800000000000000000000000000000000000000000102000000000000000000000000000000200000840000000040000000000008000000000000008000002004000000000000000000000001000000000000000100000000000000000000000000000010000000000000000000000000000000000000000000000000000000000008000000000000020000000000000000000000000000000000000001000022000100000000000000000002000000000000000000000000000000000000000000008000000000000010000000001000000000000000000000000000000000000000000000000000","status":"0x1","transactionHash":"0x8aa44d0a604bdc8eb7cd627bd373eea51054763d671f8eaa28183c37b4864f53"}}}