{"block":{"difficulty":"0x2","extraData":"0xd98301090a846765746889676f312e31352e3133856c696e7578000000000000bd1adba9856df21f78318af970b9843692aa8dcd4a63f01688fa48374f4296916dc7d0ed39fffdb4e0f6965328bd7b5228fbd26b269766619f8f45436a9a4aa300","gasLimit":"0x1c9c380","gasUsed":"0x237ef","hash":"0xe3931e98287bf908c86ea5587e7e2bb5417ebeec8882df0cf072273d36e3aeb6","logsBloom":"0x00040000000010000000000000000000000000000001000000100000000000000000000000000000000000000002000000000000000000000000000000200000140000000040000000004008000000000000008000042000000000000000000000000000000000000000000000010000000000000000000000000010000000000000000100000000000000000000040000100000040000000000000040000000020000000000000000000000000000000000000000000000004000000000000008000002000000000000000000000000000000000000000000000000000000000010000000000000000000000000000000000000000000000000002000000000","miner":"0x0000000000000000000000000000000000000000","mixHash":"0x0000000000000000000000000000000000000000000000000000000000000000","nonce":"0x0000000000000000","number":"0xd0005e","parentHash":"0xd701a774fc2709461ca4adb1133cb622eb3815608afd6074458de78190869089","receiptsRoot":"0xb54d64d3c69be0b93eed14a579df3bff188a372b3c214a8850437bb445cb15a6","sha3Uncles":"0x1dcc4de8dec75d7aab85b567b6ccd41ad312451b948a7413f0a142fd40d49347","size":"0x3d8","stateRoot":"0xb77d3147ce3bbf24e3b36a4f222cb96a8676d5eb102879a713e459a58020ba16","timestamp":"0x65243cf7","totalDifficulty":"0x1a000bd","transactions":[{"blockHash":"0xe3931e98287bf908c86ea5587e7e2bb5417ebeec8882df0cf072273d36e3aeb6","blockNumber":"0xd0005e","from":"0xfa96ee3e4ec75a46316ae570ab2d533362d7ec65","gas":"0x250e3","gasPrice":"0x2faf080","hash":"0x0eceae73f97cfe31c2129dd507405d670038114e1165d4283ceb8e23a37eaf6c","index":"0xd0005d","input":"0x414bf38900000000000000000000000078c1b0c915c4faa5fffa6cabf0219da63d7f4cb8000000000000000000000000201eba5cc46d216ce6dc03f6a759e8e766e956ae00000000000000000000000000000000000000000000000000000000000001f4000000000000000000000000fa96ee3e4ec75a46316ae570ab2d533362d7ec650000000000000000000000000000000000000000000000000000000065243d1700000000000000000000000000000000000000000000000027b0c2d8d99e000000000000000000000000000000000000000000000000000000000000000ff3a70000000000000000000000000000000000000000000000000000000000000000","l1BlockNumber":"0x11774c8","l1Timestamp":"0x65243cf7","l1TxOrigin":null,"nonce":"0xd2e","queueIndex":null,"queueOrigin":"sequencer","r":"0xc2506008bd2064cc5b5bc93c6e053c0fa1bf34459d09be5e213d88a6b7e13456","rawTransaction":"0xf9016e820d2e8402faf080830250e3945989fb161568b9f133edf5cf6787f5597762797f80b90104414bf38900000000000000000000000078c1b0c915c4faa5fffa6cabf0219da63d7f4cb8000000000000000000000000201eba5cc46d216ce6dc03f6a759e8e766e956ae00000000000000000000000000000000000000000000000000000000000001f4000000000000000000000000fa96ee3e4ec75a46316ae570ab2d533362d7ec650000000000000000000000000000000000000000000000000000000065243d1700000000000000000000000000000000000000000000000027b0c2d8d99e000000000000000000000000000000000000000000000000000000000000000ff3a70000000000000000000000000000000000000000000000000000000000000000822733a0c2506008bd2064cc5b5bc93c6e053c0fa1bf34459d09be5e213d88a6b7e13456a0773b3f5b0f3e330141ddeb3877bb49444a6b10a333f7ab9058d8a0bbec031855","s":"0x773b3f5b0f3e330141ddeb3877bb49444a6b10a333f7ab9058d8a0bbec031855","to":"0x5989fb161568b9f133edf5cf6787f5597762797f","transactionIndex":"0x0","v":"0x2733","value":"0x0"}],"transactionsRoot":"0xe5b6415dd28511934465c994756156a1e7e249975eb5040655f586991766ce00","uncles":[]},"receipts":{"0x0eceae73f97cfe31c2129dd507405d670038114e1165d4283ceb8e23a37eaf6c":{"blockHash":"0xe3931e98287bf908c86ea5587e7e2bb5417ebeec8882df0cf072273d36e3aeb6","blockNumber":"0xd0005e","from":"0xfa96ee3e4ec75a46316ae570ab2d533362d7ec65","gas":"0x250e3","gasPrice":"0x2faf080","hash":"0x0eceae73f97cfe31c2129dd507405d670038114e1165d4283ceb8e23a37eaf6c","index":"0xd0005d","input":"0x414bf38900000000000000000000000078c1b0c915c4faa5fffa6cabf0219da63d7f4cb8000000000000000000000000201eba5cc46d216ce6dc03f6a759e8e766e956ae00000000000000000000000000000000000000000000000000000000000001f4000000000000000000000000fa96ee3e4ec75a46316ae570ab2d533362d7ec650000000000000000000000000000000000000000000000000000000065243d1700000000000000000000000000000000000000000000000027b0c2d8d99e000000000000000000000000000000000000000000000000000000000000000ff3a70000000000000000000000000000000000000000000000000000000000000000","l1BlockNumber":"0x11774c8","l1Timestamp":"0x65243cf7","l1TxOrigin":null,"nonce":"0xd2e","queueIndex":null,"queueOrigin":"sequencer","r":"0xc2506008bd2064cc5b5bc93c6e053c0fa1bf34459d09be5e213d88a6b7e13456","rawTransaction":"0xf9016e820d2e8402faf080830250e3945989fb161568b9f133edf5cf6787f5597762797f80b90104414bf38900000000000000000000000078c1b0c915c4faa5fffa6cabf0219da63d7f4cb8000000000000000000000000201eba5cc46d216ce6dc03f6a759e8e766e956ae00000000000000000000000000000000000000000000000000000000000001f4000000000000000000000000fa96ee3e4ec75a46316ae570ab2d533362d7ec650000000000000000000000000000000000000000000000000000000065243d1700000000000000000000000000000000000000000000000027b0c2d8d99e000000000000000000000000000000000000000000000000000000000000000ff3a70000000000000000000000000000000000000000000000000000000000000000822733a0c2506008bd2064cc5b5bc93c6e053c0fa1bf34459d09be5e213d88a6b7e13456a0773b3f5b0f3e330141ddeb3877bb49444a6b10a333f7ab9058d8a0bbec031855","s":"0x773b3f5b0f3e330141ddeb3877bb49444a6b10a333f7ab9058d8a0bbec031855","to":"0x5989fb161568b9f133edf5cf6787f5597762797f","transactionIndex":"0x0","v":"0x2733","value":"0x0","contractAddress":null,"cumulativeGasUsed":"0x237ef","daFee":"0x0","daGasPrice":"0x0","daGasUsed":"0x12c","gasUsed":"0x237ef","l1Fee":"0x1a09f6380cb9fe0","l1FeeScalar":"1","l1GasPrice":"0x39ff1464e55c","l1GasUsed":"0x72f","logs":[{"address":"0x201eba5cc46d216ce6dc03f6a759e8e766e956ae","blockHash":"0xe3931e98287bf908c86ea5587e7e2bb5417ebeec8882df0cf072273d36e3aeb6","blockNumber":"0xd0005e","data":"0x00000000000000000000000000000000000000000000000000000000001046fe","logIndex":"0x0","removed":false,"topics":["0xddf252ad1be2c89b69c2b068fc378daa952ba7f163c4a11628f55a4df523b3ef","0x000000000000000000000000262255f4770aebe2d0c8b97a46287dcecc2a0aff","0x000000000000000000000000fa96ee3e4ec75a46316ae570ab2d533362d7ec65"],"transactionHash":"0x0eceae73f97cfe31c2129dd507405d670038114e1165d4283ceb8e23a37eaf6c","transactionIndex":"0x0"},{"address":"0x78c1b0c915c4faa5fffa6cabf0219da63d7f4cb8","blockHash":"0xe3931e98287bf908c86ea5587e7e2bb5417ebeec8882df0cf072273d36e3aeb6","blockNumber":"0xd0005e","data":"0x00000000000000000000000000000000000000000000000027b0c2d8d99e0000","logIndex":"0x1","removed":false,"topics":["0xddf252ad1be2c89b69c2b068fc378daa952ba7f163c4a11628f55a4df523b3ef","0x000000000000000000000000fa96ee3e4ec75a46316ae570ab2d533362d7ec65","0x000000000000000000000000262255f4770aebe2d0c8b97a46287dcecc2a0aff"],"transactionHash":"0x0eceae73f97cfe31c2129dd507405d670038114e1165d4283ceb8e23a37eaf6c","transactionIndex":"0x0"},{"address":"0x78c1b0c915c4faa5fffa6cabf0219da63d7f4cb8","blockHash":"0xe3931e98287bf908c86ea5587e7e2bb5417ebeec8882df0cf072273d36e3aeb6","blockNumber":"0xd0005e","data":"0xfffffffffffffffffffffffffffffffffffffffffffffff8f39c2ae01fb5ffff","logIndex":"0x2","removed":false,"topics":["0x8c5be1e5ebec7d5bd14f71427d1e84f3dd0314c0f7b2291e5b200ac8c7c3b925","0x000000000000000000000000fa96ee3e4ec75a46316ae570ab2d533362d7ec65","0x0000000000000000000000005989fb161568b9f133edf5cf6787f5597762797f"],"transactionHash":"0x0eceae73f97cfe31c2129dd507405d670038114e1165d4283ceb8e23a37eaf6c","transactionIndex":"0x0"},{"address":"0x262255f4770aebe2d0c8b97a46287dcecc2a0aff","blockHash":"0xe3931e98287bf908c86ea5587e7e2bb5417ebeec8882df0cf072273d36e3aeb6","blockNumber":"0xd0005e","data":"0xffffffffffffffffffffffffffffffffffffffffffffffffffffffffffefb90200000000000000000000000000000000000000000000000027b0c2d8d99e0000000000000000000000000000000000000018fa73011bd78fb6b624435f837d3e000000000000000000000000000000000000000000000000252351828aa347860000000000000000000000000000000000000000000000000000000000045de500000000000000000000000000000000000000000000000000000000000000000000000000000000000000000000000000000000000000000001ba32424a3000","logIndex":"0x3","removed":false,"topics":["0x19b47279256b2a23a1665c810c8d55a1758940ee09377d4f8d26497a3577dc83","0x0000000000000000000000005989fb161568b9f133edf5cf6787f5597762797f","0x000000000000000000000000fa96ee3e4ec75a46316ae570ab2d533362d7ec65"],"transactionHash":"0x0eceae73f97cfe31c2129dd507405d670038114e1165d4283ceb8e23a37eaf6c","transactionIndex":"0x0"}],"logsBloom":"0x00040000000010000000000000000000000000000001000000100000000000000000000000000000000000000002000000000000000000000000000000200000140000000040000000004008000000000000008000042000000000000000000000000000000000000000000000010000000000000000000000000010000000000000000100000000000000000000040000100000040000000000000040000000020000000000000000000000000000000000000000000000004000000000000008000002000000000000000000000000000000000000000000000000000000000010000000000000000000000000000000000000000000000000002000000000","status":"0x1","transactionHash":"0x0eceae73f97cfe31c2129dd507405d670038114e1165d4283ceb8e23a37eaf6c"}}}