{"block":{"difficulty":"0x2","extraData":"0xd98301090a846765746889676f312e31352e3133856c696e757800000000000037d53d04a73027bebb26404732d9ded8707989c9e9de2e6c82c1a08bbd7b6fa90a0b7c13869618d0730dd87168933d608d9c5e464ecc8ccc0db99b6bfbcf983101","gasLimit":"0x1c9c380","gasUsed":"0x1d2a9","hash":"0xfe5778d9a6f8b98072ea42e6e6ed23837ebb429216816bf689862f8fe3b061bc","logsBloom":"0x00000000000000000000000000000000000000000001008800000000000000000004000000000000000000000002000000000000000000000000000000200000140000000040000000000008000000000000008000042000000200000020000000000000000000000000000000000080000100000000000000000010000000000400000000000000000000000000000000100000000000000000000000000040020000000000000000000000000200000000000001000000000000000000000000000002000000000000000000000000000000000000000000000010000000000010000000000000000000000000000000000000000000000000000000000000","miner":"0x0000000000000000000000000000000000000000","mixHash":"0x0000000000000000000000000000000000000000000000000000000000000000","nonce":"0x0000000000000000","number":"0xd0023a","parentHash":"0x8b692a43a62336494441587d732ef8b9b0f594472455efb483c6f8bba87855f2","receiptsRoot":"0xfcc38bff9409e03be09e780f20a75567c2242041563971d015f2e518ca1658ff","sha3Uncles":"0x1dcc4de8dec75d7aab85b567b6ccd41ad312451b948a7413f0a142fd40d49347","size":"0x3d8","stateRoot":"0xf2dc5e089ae2791503ec3f60eb832d26317210b6c80f531b45ecc4fb9dde0355","timestamp":"0x65243de8","totalDifficulty":"0x1a00475","transactions":[{"blockHash":"0xfe5778d9a6f8b98072ea42e6e6ed23837ebb429216816bf689862f8fe3b061bc","blockNumber":"0xd0023a","from":"0x9af19d58a8eecac98f5311812c46a61ef5bdcfb4","gas":"0x1f966","gasPrice":"0x2faf080","hash":"0xd4ed34d96890eb8b4be8550115688934b09b2b5b165a989b906ea7284cf4947a","index":"0xd00239","input":"0x414bf38900000000000000000000000078c1b0c915c4faa5fffa6cabf0219da63d7f4cb8000000000000000000000000201eba5cc46d216ce6dc03f6a759e8e766e956ae00000000000000000000000000000000000000000000000000000000000001f40000000000000000000000009af19d58a8eecac98f5311812c46a61ef5bdcfb40000000000000000000000000000000000000000000000000000000065243e090000000000000000000000000000000000000000000000001db2cea96b56000000000000000000000000000000000000000000000000000000000000000bf57e0000000000000000000000000000000000000000000000000000000000000000","l1BlockNumber":"0x11774dc","l1Timestamp":"0x65243de8","l1TxOrigin":null,"nonce":"0x81a","queueIndex":null,"queueOrigin":"sequencer","r":"0xb9effbbb545739f6ddc6abc1ccb69cb4e3ea06dc44826730e1d0d3b375058c98","rawTransaction":"0xf9016e82081a8402faf0808301f96694319b69888b0d11cec22caa5034e25fffbdc8842180b90104414bf38900000000000000000000000078c1b0c915c4faa5fffa6cabf0219da63d7f4cb8000000000000000000000000201eba5cc46d216ce6dc03f6a759e8e766e956ae00000000000000000000000000000000000000000000000000000000000001f40000000000000000000000009af19d58a8eecac98f5311812c46a61ef5bdcfb40000000000000000000000000000000000000000000000000000000065243e090000000000000000000000000000000000000000000000001db2cea96b56000000000000000000000000000000000000000000000000000000000000000bf57e0000000000000000000000000000000000000000000000000000000000000000822734a0b9effbbb545739f6ddc6abc1ccb69cb4e3ea06dc44826730e1d0d3b375058c98a01513fa6d373df0097227fc75b9499f77c0901578163d28dced0f937c95b10d7e","s":"0x1513fa6d373df0097227fc75b9499f77c0901578163d28dced0f937c95b10d7e","to":"0x319b69888b0d11cec22caa5034e25fffbdc88421","transactionIndex":"0x0","v":"0x2734","value":"0x0"}],"transactionsRoot":"0x3e48227cffdd5928a4e58caffc9f8bdcb9646d563cf0f44b476ba2372e7c9c6b","uncles":[]},"receipts":{"0xd4ed34d96890eb8b4be8550115688934b09b2b5b165a989b906ea7284cf4947a":{"blockHash":"0xfe5778d9a6f8b98072ea42e6e6ed23837ebb429216816bf689862f8fe3b061bc","blockNumber":"0xd0023a","from":"0x9af19d58a8eecac98f5311812c46a61ef5bdcfb4","gas":"0x1f966","gasPrice":"0x2faf080","hash":"0xd4ed34d96890eb8b4be8550115688934b09b2b5b165a989b906ea7284cf4947a","index":"0xd00239","input":"0x414bf38900000000000000000000000078c1b0c915c4faa5fffa6cabf0219da63d7f4cb8000000000000000000000000201eba5cc46d216ce6dc03f6a759e8e766e956ae00000000000000000000000000000000000000000000000000000000000001f40000000000000000000000009af19d58a8eecac98f5311812c46a61ef5bdcfb40000000000000000000000000000000000000000000000000000000065243e090000000000000000000000000000000000000000000000001db2cea96b56000000000000000000000000000000000000000000000000000000000000000bf57e0000000000000000000000000000000000000000000000000000000000000000","l1BlockNumber":"0x11774dc","l1Timestamp":"0x65243de8","l1TxOrigin":null,"nonce":"0x81a","queueIndex":null,"queueOrigin":"sequencer","r":"0xb9effbbb545739f6ddc6abc1ccb69cb4e3ea06dc44826730e1d0d3b375058c98","rawTransaction":"0xf9016e82081a8402faf0808301f96694319b69888b0d11cec22caa5034e25fffbdc8842180b90104414bf38900000000000000000000000078c1b0c915c4faa5fffa6cabf0219da63d7f4cb8000000000000000000000000201eba5cc46d216ce6dc03f6a759e8e766e956ae00000000000000000000000000000000000000000000000000000000000001f40000000000000000000000009af19d58a8eecac98f5311812c46a61ef5bdcfb40000000000000000000000000000000000000000000000000000000065243e090000000000000000000000000000000000000000000000001db2cea96b56000000000000000000000000000000000000000000000000000000000000000bf57e0000000000000000000000000000000000000000000000000000000000000000822734a0b9effbbb545739f6ddc6abc1ccb69cb4e3ea06dc44826730e1d0d3b375058c98a01513fa6d373df0097227fc75b9499f77c0901578163d28dced0f937c95b10d7e","s":"0x1513fa6d373df0097227fc75b9499f77c0901578163d28dced0f937c95b10d7e","to":"0x319b69888b0d11cec22caa5034e25fffbdc88421","transactionIndex":"0x0","v":"0x2734","value":"0x0","contractAddress":null,"cumulativeGasUsed":"0x1d2a9","daFee":"0x0","daGasPrice":"0x0","daGasUsed":"0x12c","gasUsed":"0x1d2a9","l1Fee":"0x19709d787180660","l1FeeScalar":"1","l1GasPrice":"0x38a987f04864","l1GasUsed":"0x72f","logs":[{"address":"0x201eba5cc46d216ce6dc03f6a759e8e766e956ae","blockHash":"0xfe5778d9a6f8b98072ea42e6e6ed23837ebb429216816bf689862f8fe3b061bc","blockNumber":"0xd0023a","data":"0x00000000000000000000000000000000000000000000000000000000000c33be","logIndex":"0x0","removed":false,"topics":["0xddf252ad1be2c89b69c2b068fc378daa952ba7f163c4a11628f55a4df523b3ef","0x000000000000000000000000d08c50f7e69e9aeb2867deff4a8053d9a855e26a","0x0000000000000000000000009af19d58a8eecac98f5311812c46a61ef5bdcfb4"],"transactionHash":"0xd4ed34d96890eb8b4be8550115688934b09b2b5b165a989b906ea7284cf4947a","transactionIndex":"0x0"},{"address":"0x78c1b0c915c4faa5fffa6cabf0219da63d7f4cb8","blockHash":"0xfe5778d9a6f8b98072ea42e6e6ed23837ebb429216816bf689862f8fe3b061bc","blockNumber":"0xd0023a","data":"0x0000000000000000000000000000000000000000000000001db2cea96b560000","logIndex":"0x1","removed":false,"topics":["0xddf252ad1be2c89b69c2b068fc378daa952ba7f163c4a11628f55a4df523b3ef","0x0000000000000000000000009af19d58a8eecac98f5311812c46a61ef5bdcfb4","0x000000000000000000000000d08c50f7e69e9aeb2867deff4a8053d9a855e26a"],"transactionHash":"0xd4ed34d96890eb8b4be8550115688934b09b2b5b165a989b906ea7284cf4947a","transactionIndex":"0x0"},{"address":"0x78c1b0c915c4faa5fffa6cabf0219da63d7f4cb8","blockHash":"0xfe5778d9a6f8b98072ea42e6e6ed23837ebb429216816bf689862f8fe3b061bc","blockNumber":"0xd0023a","data":"0xffffffffffffffffffffffffffffffffffffffffffffffde0dbab1bff263ffff","logIndex":"0x2","removed":false,"topics":["0x8c5be1e5ebec7d5bd14f71427d1e84f3dd0314c0f7b2291e5b200ac8c7c3b925","0x0000000000000000000000009af19d58a8eecac98f5311812c46a61ef5bdcfb4","0x000000000000000000000000319b69888b0d11cec22caa5034e25fffbdc88421"],"transactionHash":"0xd4ed34d96890eb8b4be8550115688934b09b2b5b165a989b906ea7284cf4947a","transactionIndex":"0x0"},{"address":"0xd08c50f7e69e9aeb2867deff4a8053d9a855e26a","blockHash":"0xfe5778d9a6f8b98072ea42e6e6ed23837ebb429216816bf689862f8fe3b061bc","blockNumber":"0xd0023a","data":"0xfffffffffffffffffffffffffffffffffffffffffffffffffffffffffff3cc420000000000000000000000000000000000000000000000001db2cea96b560000000000000000000000000000000000000018f4aabf4b9adc4d9f792d00e7e0cd000000000000000000000000000000000000000000000000006787d5d3ab8a8c0000000000000000000000000000000000000000000000000000000000045dd3000000000000000000000000000000000000000000000000000000000000000000000000000000000000000000000000000000000000000000014adfc9c4f000","logIndex":"0x3","removed":false,"topics":["0x19b47279256b2a23a1665c810c8d55a1758940ee09377d4f8d26497a3577dc83","0x000000000000000000000000319b69888b0d11cec22caa5034e25fffbdc88421","0x0000000000000000000000009af19d58a8eecac98f5311812c46a61ef5bdcfb4"],"transactionHash":"0xd4ed34d96890eb8b4be8550115688934b09b2b5b165a989b906ea7284cf4947a","transactionIndex":"0x0"}],"logsBloom":"0x00000000000000000000000000000000000000000001008800000000000000000004000000000000000000000002000000000000000000000000000000200000140000000040000000000008000000000000008000042000000200000020000000000000000000000000000000000080000100000000000000000010000000000400000000000000000000000000000000100000000000000000000000000040020000000000000000000000000200000000000001000000000000000000000000000002000000000000000000000000000000000000000000000010000000000010000000000000000000000000000000000000000000000000000000000000","status":"0x1","transactionHash":"0xd4ed34d96890eb8b4be8550115688934b09b2b5b165a989b906ea7284cf4947a"}}}