{"block":{"difficulty":"0x2","extraData":"0xd98301090a846765746889676f312e31352e3133856c696e75780000000000002ff2e66097465d3858a5d6e58660a2b1f22bc1e61575da60e8644577469484a65005d9f069bb44d92935e4c6bc9675d618233bca6e69be7cdda4410f734398c500","gasLimit":"0x1c9c380","gasUsed":"0x1d421","hash":"0x1732f127e7faadccdc18b402462008af7b10588be1103c41d7aea885eb3bb5fd","logsBloom":"0x00000000000000000000000000000000000000000001008800000000000000000004000000000000000000000002000000000000000000000000000000200000140000000040000000000008000000000000008000042000000200000000000000000000000000000000000000000080000000000000000000001010000000020000000000000000000000000000000100100000000000000000000000000040020000000000000000000000000200000000000001000000000000000000000000000002000000000000000000000000000000000000000000000010000000000010000000000000000000000000000000000000000000000000000000000000","miner":"0x0000000000000000000000000000000000000000","mixHash":"0x0000000000000000000000000000000000000000000000000000000000000000","nonce":"0x0000000000000000","number":"0xd001d5","parentHash":"0xa4754d2331ec9f4c677d8602a819e923ae79b16f6bda64dee3d395961313b262","receiptsRoot":"0x43e325f9bc0f462ba34196c6a9479c5a3a03853194a333b9900650116465e678","sha3Uncles":"0x1dcc4de8dec75d7aab85b567b6ccd41ad312451b948a7413f0a142fd40d49347","size":"0x3d8","stateRoot":"0xb32adf6ac11d6ed6bf6756acbeb2dc7d4ec64db1f5e926ac7a08440f89313834","timestamp":"0x65243db4","totalDifficulty":"0x1a003ab","transactions":[{"blockHash":"0x1732f127e7faadccdc18b402462008af7b10588be1103c41d7aea885eb3bb5fd","blockNumber":"0xd001d5","from":"0x2cfd67b9feb20af821874561a7a99d63bb4207c7","gas":"0x1eb85","gasPrice":"0x2faf080","hash":"0x3f4b58475bb280cf11e9a1b5913969ecc02607b1d85559ac04ec12635cac4651","index":"0xd001d4","input":"0x414bf389000000000000000000000000201eba5cc46d216ce6dc03f6a759e8e766e956ae00000000000000000000000078c1b0c915c4faa5fffa6cabf0219da63d7f4cb800000000000000000000000000000000000000000000000000000000000001f40000000000000000000000002cfd67b9feb20af821874561a7a99d63bb4207c70000000000000000000000000000000000000000000000000000000065243dd400000000000000000000000000000000000000000000000000000000001276900000000000000000000000000000000000000000000000002bfe4284760b7c4d0000000000000000000000000000000000000000000000000000000000000000","l1BlockNumber":"0x11774d7","l1Timestamp":"0x65243db4","l1TxOrigin":null,"nonce":"0xfc5","queueIndex":null,"queueOrigin":"sequencer","r":"0xc335a63460040619096e4dd3b4c7fa0ede04ebb3b0fcc20471613951534a9217","rawTransaction":"0xf9016e820fc58402faf0808301eb8594319b69888b0d11cec22caa5034e25fffbdc8842180b90104414bf389000000000000000000000000201eba5cc46d216ce6dc03f6a759e8e766e956ae00000000000000000000000078c1b0c915c4faa5fffa6cabf0219da63d7f4cb800000000000000000000000000000000000000000000000000000000000001f40000000000000000000000002cfd67b9feb20af821874561a7a99d63bb4207c70000000000000000000000000000000000000000000000000000000065243dd400000000000000000000000000000000000000000000000000000000001276900000000000000000000000000000000000000000000000002bfe4284760b7c4d0000000000000000000000000000000000000000000000000000000000000000822734a0c335a63460040619096e4dd3b4c7fa0ede04ebb3b0fcc20471613951534a9217a0733988ab6eaef01c8d179df5e220a9403ca75cfeda058cf77888ff523d9489e1","s":"0x733988ab6eaef01c8d179df5e220a9403ca75cfeda058cf77888ff523d9489e1","to":"0x319b69888b0d11cec22caa5034e25fffbdc88421","transactionIndex":"0x0","v":"0x2734","value":"0x0"}],"transactionsRoot":"0x001993bbd8c2554b2415bad669b6e33c038dd342b4281f4d654b321f844b77c2","uncles":[]},"receipts":{"0x3f4b58475bb280cf11e9a1b5913969ecc02607b1d85559ac04ec12635cac4651":{"blockHash":"0x1732f127e7faadccdc18b402462008af7b10588be1103c41d7aea885eb3bb5fd","blockNumber":"0xd001d5","from":"0x2cfd67b9feb20af821874561a7a99d63bb4207c7","gas":"0x1eb85","gasPrice":"0x2faf080","hash":"0x3f4b58475bb280cf11e9a1b5913969ecc02607b1d85559ac04ec12635cac4651","index":"0xd001d4","input":"0x414bf389000000000000000000000000201eba5cc46d216ce6dc03f6a759e8e766e956ae00000000000000000000000078c1b0c915c4faa5fffa6cabf0219da63d7f4cb800000000000000000000000000000000000000000000000000000000000001f40000000000000000000000002cfd67b9feb20af821874561a7a99d63bb4207c70000000000000000000000000000000000000000000000000000000065243dd400000000000000000000000000000000000000000000000000000000001276900000000000000000000000000000000000000000000000002bfe4284760b7c4d0000000000000000000000000000000000000000000000000000000000000000","l1BlockNumber":"0x11774d7","l1Timestamp":"0x65243db4","l1TxOrigin":null,"nonce":"0xfc5","queueIndex":null,"queueOrigin":"sequencer","r":"0xc335a63460040619096e4dd3b4c7fa0ede04ebb3b0fcc20471613951534a9217","rawTransaction":"0xf9016e820fc58402faf0808301eb8594319b69888b0d11cec22caa5034e25fffbdc8842180b90104414bf389000000000000000000000000201eba5cc46d216ce6dc03f6a759e8e766e956ae00000000000000000000000078c1b0c915c4faa5fffa6cabf0219da63d7f4cb800000000000000000000000000000000000000000000000000000000000001f40000000000000000000000002cfd67b9feb20af821874561a7a99d63bb4207c70000000000000000000000000000000000000000000000000000000065243dd400000000000000000000000000000000000000000000000000000000001276900000000000000000000000000000000000000000000000002bfe4284760b7c4d0000000000000000000000000000000000000000000000000000000000000000822734a0c335a63460040619096e4dd3b4c7fa0ede04ebb3b0fcc20471613951534a9217a0733988ab6eaef01c8d179df5e220a9403ca75cfeda058cf77888ff523d9489e1","s":"0x733988ab6eaef01c8d179df5e220a9403ca75cfeda058cf77888ff523d9489e1","to":"0x319b69888b0d11cec22caa5034e25fffbdc88421","transactionIndex":"0x0","v":"0x2734","value":"0x0","contractAddress":null,"cumulativeGasUsed":"0x1d421","daFee":"0x0","daGasPrice":"0x0","daGasUsed":"0x12c","gasUsed":"0x1d421","l1Fee":"0x19709d787180660","l1FeeScalar":"1","l1GasPrice":"0x38a987f04864","l1GasUsed":"0x72f","logs":[{"address":"0x78c1b0c915c4faa5fffa6cabf0219da63d7f4cb8","blockHash":"0x1732f127e7faadccdc18b402462008af7b10588be1103c41d7aea885eb3bb5fd","blockNumber":"0xd001d5","data":"0x0000000000000000000000000000000000000000000000002ce41a1439c293bd","logIndex":"0x0","removed":false,"topics":["0xddf252ad1be2c89b69c2b068fc378daa952ba7f163c4a11628f55a4df523b3ef","0x000000000000000000000000d08c50f7e69e9aeb2867deff4a8053d9a855e26a","0x0000000000000000000000002cfd67b9feb20af821874561a7a99d63bb4207c7"],"transactionHash":"0x3f4b58475bb280cf11e9a1b5913969ecc02607b1d85559ac04ec12635cac4651","transactionIndex":"0x0"},{"address":"0x201eba5cc46d216ce6dc03f6a759e8e766e956ae","blockHash":"0x1732f127e7faadccdc18b402462008af7b10588be1103c41d7aea885eb3bb5fd","blockNumber":"0xd001d5","data":"0x0000000000000000000000000000000000000000000000000000000000127690","logIndex":"0x1","removed":false,"topics":["0xddf252ad1be2c89b69c2b068fc378daa952ba7f163c4a11628f55a4df523b3ef","0x0000000000000000000000002cfd67b9feb20af821874561a7a99d63bb4207c7","0x000000000000000000000000d08c50f7e69e9aeb2867deff4a8053d9a855e26a"],"transactionHash":"0x3f4b58475bb280cf11e9a1b5913969ecc02607b1d85559ac04ec12635cac4651","transactionIndex":"0x0"},{"address":"0x201eba5cc46d216ce6dc03f6a759e8e766e956ae","blockHash":"0x1732f127e7faadccdc18b402462008af7b10588be1103c41d7aea885eb3bb5fd","blockNumber":"0xd001d5","data":"0xffffffffffffffffffffffffffffffffffffffffffffffffffffffff95fb7f3f","logIndex":"0x2","removed":false,"topics":["0x8c5be1e5ebec7d5bd14f71427d1e84f3dd0314c0f7b2291e5b200ac8c7c3b925","0x0000000000000000000000002cfd67b9feb20af821874561a7a99d63bb4207c7","0x000000000000000000000000319b69888b0d11cec22caa5034e25fffbdc88421"],"transactionHash":"0x3f4b58475bb280cf11e9a1b5913969ecc02607b1d85559ac04ec12635cac4651","transactionIndex":"0x0"},{"address":"0xd08c50f7e69e9aeb2867deff4a8053d9a855e26a","blockHash":"0x1732f127e7faadccdc18b402462008af7b10588be1103c41d7aea885eb3bb5fd","blockNumber":"0xd001d5","data":"0x0000000000000000000000000000000000000000000000000000000000127690ffffffffffffffffffffffffffffffffffffffffffffffffd31be5ebc63d6c43000000000000000000000000000000000018f43c0008f9842c5f28f20300b76a000000000000000000000000000000000000000000000000006787d5d3ab8a8c0000000000000000000000000000000000000000000000000000000000045dd200000000000000000000000000000000000000000000000000000000000000cd0000000000000000000000000000000000000000000000000000000000000000","logIndex":"0x3","removed":false,"topics":["0x19b47279256b2a23a1665c810c8d55a1758940ee09377d4f8d26497a3577dc83","0x000000000000000000000000319b69888b0d11cec22caa5034e25fffbdc88421","0x0000000000000000000000002cfd67b9feb20af821874561a7a99d63bb4207c7"],"transactionHash":"0x3f4b58475bb280cf11e9a1b5913969ecc02607b1d85559ac04ec12635cac4651","transactionIndex":"0x0"}],"logsBloom":"0x00000000000000000000000000000000000000000001008800000000000000000004000000000000000000000002000000000000000000000000000000200000140000000040000000000008000000000000008000042000000200000000000000000000000000000000000000000080000000000000000000001010000000020000000000000000000000000000000100100000000000000000000000000040020000000000000000000000000200000000000001000000000000000000000000000002000000000000000000000000000000000000000000000010000000000010000000000000000000000000000000000000000000000000000000000000","status":"0x1","transactionHash":"0x3f4b58475bb280cf11e9a1b5913969ecc02607b1d85559ac04ec12635cac4651"}}}