{"block":{"difficulty":"0x2","extraData":"0xd98301090a846765746889676f312e31352e3133856c696e757800000000000007fe110b7be501427f294cba8e85ccd5757a7dc8b0b6eb09d18cc5489f675de9250320f175574c665035a7e1819105c8be54e49a987b049079e24200257ac94c01","gasLimit":"0x1c9c380","gasUsed":"0x5208","hash":"0x4c43f484b034a65761d4b06b8c181adc13f2a1014f6fac7b95c545b5365e11ef","logsBloom":"0x00000000000000000000000000000000000000000000000000000000000000000000000000000000000000000000000000000000000000000000000000000000000000000000000000000000000000000000000000000000000000000000000000000000000000000000000000000000000000000000000000000000000000000000000000000000000000000000000000000000000000000000000000000000000000000000000000000000000000000000000000000000000000000000000000000000000000000000000000000000000000000000000000000000000000000000000000000000000000000000000000000000000000000000000000000000","miner":"0x0000000000000000000000000000000000000000","mixHash":"0x0000000000000000000000000000000000000000000000000000000000000000","nonce":"0x0000000000000000","number":"0xd002bf","parentHash":"0x40b290dbbb7279b69995639f7c13b06e301b1347dfc9cf8309cb3f5b5f94c19b","receiptsRoot":"0x056b23fbba480696b65fe5a59b8f2148a1299103c4f57df839233af2cf4ca2d2","sha3Uncles":"0x1dcc4de8dec75d7aab85b567b6ccd41ad312451b948a7413f0a142fd40d49347","size":"0x2cd","stateRoot":"0x3a75714573572dd5089678d8f92dc66d4639fc0c083879c0307f8e6f034d6689","timestamp":"0x65243e34","totalDifficulty":"0x1a0057f","transactions":[{"blockHash":"0x4c43f484b034a65761d4b06b8c181adc13f2a1014f6fac7b95c545b5365e11ef","blockNumber":"0xd002bf","from":"0xb52e9bccd899d3c5ef91256aff62ccc163109667","gas":"0x5208","gasPrice":"0x2faf080","hash":"0x0fd684569689b1322519e022307ccb39c256c6966f613c507a195a8e18f9e129","index":"0xd002be","input":"0x","l1BlockNumber":"0x11774e2","l1Timestamp":"0x65243e34","l1TxOrigin":null,"nonce":"0xb2","queueIndex":null,"queueOrigin":"sequencer","r":"0xa47ab45a5309c30ac1339d2f7777ff999c2328a41d561f483833e2d4151c30e8","rawTransaction":"0xf86681b28402faf08082520894e3d4feea1379c2346174563f884a2073e6ac723c8080822734a0a47ab45a5309c30ac1339d2f7777ff999c2328a41d561f483833e2d4151c30e8a00c884b7ad608910a7c5cda6358e7da083d895f9a63ca51323584167392553646","s":"0xc884b7ad608910a7c5cda6358e7da083d895f9a63ca51323584167392553646","to":"0xe3d4feea1379c2346174563f884a2073e6ac723c","transactionIndex":"0x0","v":"0x2734","value":"0x0"}],"transactionsRoot":"0x6ffde98ab9b5425413b029b969ac944b75aea8149759c344494906c78af291ec","uncles":[]},"receipts":{"0x0fd684569689b1322519e022307ccb39c256c6966f613c507a195a8e18f9e129":{"blockHash":"0x4c43f484b034a65761d4b06b8c181adc13f2a1014f6fac7b95c545b5365e11ef","blockNumber":"0xd002bf","from":"0xb52e9bccd899d3c5ef91256aff62ccc163109667","gas":"0x5208","gasPrice":"0x2faf080","hash":"0x0fd684569689b1322519e022307ccb39c256c6966f613c507a195a8e18f9e129","index":"0xd002be","input":"0x","l1BlockNumber":"0x11774e2","l1Timestamp":"0x65243e34","l1TxOrigin":null,"nonce":"0xb2","queueIndex":null,"queueOrigin":"sequencer","r":"0xa47ab45a5309c30ac1339d2f7777ff999c2328a41d561f483833e2d4151c30e8","rawTransaction":"0xf86681b28402faf08082520894e3d4feea1379c2346174563f884a2073e6ac723c8080822734a0a47ab45a5309c30ac1339d2f7777ff999c2328a41d561f483833e2d4151c30e8a00c884b7ad608910a7c5cda6358e7da083d895f9a63ca51323584167392553646","s":"0xc884b7ad608910a7c5cda6358e7da083d895f9a63ca51323584167392553646","to":"0xe3d4feea1379c2346174563f884a2073e6ac723c","transactionIndex":"0x0","v":"0x2734","value":"0x0","contractAddress":null,"cumulativeGasUsed":"0x5208","daFee":"0x0","daGasPrice":"0x0","daGasUsed":"0x22","gasUsed":"0x5208","l1Fee":"0x19709d787180660","l1FeeScalar":"1","l1GasPrice":"0x38a987f04864","l1GasUsed":"0x72f","logs":[],"logsBloom":"0x00000000000000000000000000000000000000000000000000000000000000000000000000000000000000000000000000000000000000000000000000000000000000000000000000000000000000000000000000000000000000000000000000000000000000000000000000000000000000000000000000000000000000000000000000000000000000000000000000000000000000000000000000000000000000000000000000000000000000000000000000000000000000000000000000000000000000000000000000000000000000000000000000000000000000000000000000000000000000000000000000000000000000000000000000000000","status":"0x1","transactionHash":"0x0fd684569689b1322519e022307ccb39c256c6966f613c507a195a8e18f9e129"}}}