{"block":{"difficulty":"0x2","extraData":"0xd98301090a846765746889676f312e31352e3133856c696e7578000000000000308c1c54f74abeddce3cedaaf165db6ea21fcbd6f00508578e586aadd4b68da646d5c4d0455d87860fb90e959e5514e1218b13c8d5a0dfbc47a928f8d47ff1ca00","gasLimit":"0x1c9c380","gasUsed":"0xb4ce","hash":"0x0f74cd700dc34b5b236e43dc484b580dff03ea48f16a388c81cb7e63865444bd","logsBloom":"0x00000000000000000000000000000000000000010000000000000000000000000000000000000000010000000000000000000000000000000000000000200000000000020000000000000000000000000000000000000000000000000000000000000000000000000000000100000000000000000000000002000000000000000000000000000000000000000000000000000000000000000000000000000000020000000000800000000000000000000000000000000000000100000000000000002000000000000000000000000000000000000000000000000000000000000010000000001000000000000000000000000000000000000000000000000000","miner":"0x0000000000000000000000000000000000000000","mixHash":"0x0000000000000000000000000000000000000000000000000000000000000000","nonce":"0x0000000000000000","number":"0xd002dc","parentHash":"0x530481b0b98b4b583fd9662d3fd91dc7a4dcbf5be4241f810b0851e38f13bfa2","receiptsRoot":"0x85f700191fc4e3d2b06d66b497ae35f931d1079bc40c1df2358985f92e15ea00","sha3Uncles":"0x1dcc4de8dec75d7aab85b567b6ccd41ad312451b948a7413f0a142fd40d49347","size":"0x310","stateRoot":"0x81837fe36f4ce53337e3c108121ad13efc83b6af94c97495094716ecc5978652","timestamp":"0x65243e43","totalDifficulty":"0x1a005b9","transactions":[{"blockHash":"0x0f74cd700dc34b5b236e43dc484b580dff03ea48f16a388c81cb7e63865444bd","blockNumber":"0xd002dc","from":"0x5846fbda3e831e9268ca075ae80a52d7dd12293b","gas":"0xb4ce","gasPrice":"0x3b9aca00","hash":"0xbe1b4cfcb8d053d186383a87a0767b159d8a8c184eb018cbf9b79982f3ee19de","index":"0xd002db","input":"0x095ea7b30000000000000000000000004bf659ca398a73aaf73818f0c64c838b9e229c0800000000000000000000000000000000000000000000000000060a24181e4000","l1BlockNumber":"0x11774e3","l1Timestamp":"0x65243e43","l1TxOrigin":null,"nonce":"0x2","queueIndex":null,"queueOrigin":"sequencer","r":"0xe352866f01af2105fd86d3d7c3a7198a47b94477e5034cc14a1bf8ecf0f017f0","rawTransaction":"0xf8a902843b9aca0082b4ce94deaddeaddeaddeaddeaddeaddeaddeaddead111180b844095ea7b30000000000000000000000004bf659ca398a73aaf73818f0c64c838b9e229c0800000000000000000000000000000000000000000000000000060a24181e4000822733a0e352866f01af2105fd86d3d7c3a7198a47b94477e5034cc14a1bf8ecf0f017f09f62199cb3a3b200c862f49ecae36bbd930b84300081f74daa0638ac819addcf","s":"0x62199cb3a3b200c862f49ecae36bbd930b84300081f74daa0638ac819addcf","to":"0xdeaddeaddeaddeaddeaddeaddeaddeaddead1111","transactionIndex":"0x0","v":"0x2733","value":"0x0"}],"transactionsRoot":"0xfa8d2c24f794586e56d2e7d50aec202c065c04e3c8a70694a61e4ad8de10d61c","uncles":[]},"receipts":{"0xbe1b4cfcb8d053d186383a87a0767b159d8a8c184eb018cbf9b79982f3ee19de":{"blockHash":"0x0f74cd700dc34b5b236e43dc484b580dff03ea48f16a388c81cb7e63865444bd","blockNumber":"0xd002dc","from":"0x5846fbda3e831e9268ca075ae80a52d7dd12293b","gas":"0xb4ce","gasPrice":"0x3b9aca00","hash":"0xbe1b4cfcb8d053d186383a87a0767b159d8a8c184eb018cbf9b79982f3ee19de","index":"0xd002db","input":"0x095ea7b30000000000000000000000004bf659ca398a73aaf73818f0c64c838b9e229c0800000000000000000000000000000000000000000000000000060a24181e4000","l1BlockNumber":"0x11774e3","l1Timestamp":"0x65243e43","l1TxOrigin":null,"nonce":"0x2","queueIndex":null,"queueOrigin":"sequencer","r":"0xe352866f01af2105fd86d3d7c3a7198a47b94477e5034cc14a1bf8ecf0f017f0","rawTransaction":"0xf8a902843b9aca0082b4ce94deaddeaddeaddeaddeaddeaddeaddeaddead111180b844095ea7b30000000000000000000000004bf659ca398a73aaf73818f0c64c838b9e229c0800000000000000000000000000000000000000000000000000060a24181e4000822733a0e352866f01af2105fd86d3d7c3a7198a47b94477e5034cc14a1bf8ecf0f017f09f62199cb3a3b200c862f49ecae36bbd930b84300081f74daa0638ac819addcf","s":"0x62199cb3a3b200c862f49ecae36bbd930b84300081f74daa0638ac819addcf","to":"0xdeaddeaddeaddeaddeaddeaddeaddeaddead1111","transactionIndex":"0x0","v":"0x2733","value":"0x0","contractAddress":null,"cumulativeGasUsed":"0xb4ce","daFee":"0x0","daGasPrice":"0x0","daGasUsed":"0x67","gasUsed":"0xb4ce","l1Fee":"0x19709d787180660","l1FeeScalar":"1","l1GasPrice":"0x38a987f04864","l1GasUsed":"0x72f","logs":[{"address":"0xdeaddeaddeaddeaddeaddeaddeaddeaddead1111","blockHash":"0x0f74cd700dc34b5b236e43dc484b580dff03ea48f16a388c81cb7e63865444bd","blockNumber":"0xd002dc","data":"0x00000000000000000000000000000000000000000000000000060a24181e4000","logIndex":"0x0","removed":false,"topics":["0x8c5be1e5ebec7d5bd14f71427d1e84f3dd0314c0f7b2291e5b200ac8c7c3b925","0x0000000000000000000000005846fbda3e831e9268ca075ae80a52d7dd12293b","0x0000000000000000000000004bf659ca398a73aaf73818f0c64c838b9e229c08"],"transactionHash":"0xbe1b4cfcb8d053d186383a87a0767b159d8a8c184eb018cbf9b79982f3ee19de","transactionIndex":"0x0"}],"logsBloom":"0x00000000000000000000000000000000000000010000000000000000000000000000000000000000010000000000000000000000000000000000000000200000000000020000000000000000000000000000000000000000000000000000000000000000000000000000000100000000000000000000000002000000000000000000000000000000000000000000000000000000000000000000000000000000020000000000800000000000000000000000000000000000000100000000000000002000000000000000000000000000000000000000000000000000000000000010000000001000000000000000000000000000000000000000000000000000","status":"0x1","transactionHash":"0xbe1b4cfcb8d053d186383a87a0767b159d8a8c184eb018cbf9b79982f3ee19de"}}}