{"block":{"difficulty":"0x2","extraData":"0xd98301090a846765746889676f312e31352e3133856c696e757800000000000021a7aa2585cd346b6f7a3d97f82723c2bcbbf06b6042f2c5ae439ba987cb7c70068f57399f4c4b7a977d1d4ca2a5b07ec53df63af3154bce0f2a6344837526ec00","gasLimit":"0x1c9c380","gasUsed":"0x237e3","hash":"0x3d49324613e8ba71bdc41bde654b53572fac503746e055dd81cb619d270241b5","logsBloom":"0x00040000000010000000000000000000000000000001000000000000000000000000000000000000000000000002000000001000000000000000000000200000140000000040000000000008000000000000408000042000000000000000000000000000000000000000000000010000000000000000000000000010000000000000000100000000000000000000040000100000040000000000000040000000020000000000000000000000000000000000000000000000004000000000000000000002000000000000000000000000000000000400000000000000000000000010000000000000000000000000000000000000000000000000002000000000","miner":"0x0000000000000000000000000000000000000000","mixHash":"0x0000000000000000000000000000000000000000000000000000000000000000","nonce":"0x0000000000000000","number":"0xd001a5","parentHash":"0xdc1aa8d78309153dd0376a31e86206fdf9361afbf6f876eab035cd6d309587b8","receiptsRoot":"0x207ab9903f279d825e0cb2eee3b79f23a990c316c131ec7d5951e51af9eef9f2","sha3Uncles":"0x1dcc4de8dec75d7aab85b567b6ccd41ad312451b948a7413f0a142fd40d49347","size":"0x3d8","stateRoot":"0x5915099d219a6df1acf050136014624e2435ac09623e6890a33df08bade08c2b","timestamp":"0x65243d9b","totalDifficulty":"0x1a0034b","transactions":[{"blockHash":"0x3d49324613e8ba71bdc41bde654b53572fac503746e055dd81cb619d270241b5","blockNumber":"0xd001a5","from":"0x05eb8b85019200f346116af3a5a1bc17085ae87a","gas":"0x250d7","gasPrice":"0x2faf080","hash":"0xbb41e1e0b169b80c73a0799699cf7bd11cf59a447c05ef9e1d36e584c4f728bc","index":"0xd001a4","input":"0x414bf38900000000000000000000000078c1b0c915c4faa5fffa6cabf0219da63d7f4cb8000000000000000000000000201eba5cc46d216ce6dc03f6a759e8e766e956ae00000000000000000000000000000000000000000000000000000000000001f400000000000000000000000005eb8b85019200f346116af3a5a1bc17085ae87a0000000000000000000000000000000000000000000000000000000065243db900000000000000000000000000000000000000000000000027f7d0bdb920000000000000000000000000000000000000000000000000000000000000001010370000000000000000000000000000000000000000000000000000000000000000","l1BlockNumber":"0x11774d5","l1Timestamp":"0x65243d9b","l1TxOrigin":null,"nonce":"0xd46","queueIndex":null,"queueOrigin":"sequencer","r":"0xd366ff72f1ca8c3aedcdb1fba6a79be368b489d07295950a2ffd616ee35deb61","rawTransaction":"0xf9016e820d468402faf080830250d7945989fb161568b9f133edf5cf6787f5597762797f80b90104414bf38900000000000000000000000078c1b0c915c4faa5fffa6cabf0219da63d7f4cb8000000000000000000000000201eba5cc46d216ce6dc03f6a759e8e766e956ae00000000000000000000000000000000000000000000000000000000000001f400000000000000000000000005eb8b85019200f346116af3a5a1bc17085ae87a0000000000000000000000000000000000000000000000000000000065243db900000000000000000000000000000000000000000000000027f7d0bdb920000000000000000000000000000000000000000000000000000000000000001010370000000000000000000000000000000000000000000000000000000000000000822734a0d366ff72f1ca8c3aedcdb1fba6a79be368b489d07295950a2ffd616ee35deb61a056544fd7f03ffa6318c6647bee83b9630598c15993a3af7a528b3048735e7667","s":"0x56544fd7f03ffa6318c6647bee83b9630598c15993a3af7a528b3048735e7667","to":"0x5989fb161568b9f133edf5cf6787f5597762797f","transactionIndex":"0x0","v":"0x2734","value":"0x0"}],"transactionsRoot":"0x94efa017ae05739e1c1795ac90ef5a0ea0624ef948fb8374862ec9c7a19887e6","uncles":[]},"receipts":{"0xbb41e1e0b169b80c73a0799699cf7bd11cf59a447c05ef9e1d36e584c4f728bc":{"blockHash":"0x3d49324613e8ba71bdc41bde654b53572fac503746e055dd81cb619d270241b5","blockNumber":"0xd001a5","from":"0x05eb8b85019200f346116af3a5a1bc17085ae87a","gas":"0x250d7","gasPrice":"0x2faf080","hash":"0xbb41e1e0b169b80c73a0799699cf7bd11cf59a447c05ef9e1d36e584c4f728bc","index":"0xd001a4","input":"0x414bf38900000000000000000000000078c1b0c915c4faa5fffa6cabf0219da63d7f4cb8000000000000000000000000201eba5cc46d216ce6dc03f6a759e8e766e956ae00000000000000000000000000000000000000000000000000000000000001f400000000000000000000000005eb8b85019200f346116af3a5a1bc17085ae87a0000000000000000000000000000000000000000000000000000000065243db900000000000000000000000000000000000000000000000027f7d0bdb920000000000000000000000000000000000000000000000000000000000000001010370000000000000000000000000000000000000000000000000000000000000000","l1BlockNumber":"0x11774d5","l1Timestamp":"0x65243d9b","l1TxOrigin":null,"nonce":"0xd46","queueIndex":null,"queueOrigin":"sequencer","r":"0xd366ff72f1ca8c3aedcdb1fba6a79be368b489d07295950a2ffd616ee35deb61","rawTransaction":"0xf9016e820d468402faf080830250d7945989fb161568b9f133edf5cf6787f5597762797f80b90104414bf38900000000000000000000000078c1b0c915c4faa5fffa6cabf0219da63d7f4cb8000000000000000000000000201eba5cc46d216ce6dc03f6a759e8e766e956ae00000000000000000000000000000000000000000000000000000000000001f400000000000000000000000005eb8b85019200f346116af3a5a1bc17085ae87a0000000000000000000000000000000000000000000000000000000065243db900000000000000000000000000000000000000000000000027f7d0bdb920000000000000000000000000000000000000000000000000000000000000001010370000000000000000000000000000000000000000000000000000000000000000822734a0d366ff72f1ca8c3aedcdb1fba6a79be368b489d07295950a2ffd616ee35deb61a056544fd7f03ffa6318c6647bee83b9630598c15993a3af7a528b3048735e7667","s":"0x56544fd7f03ffa6318c6647bee83b9630598c15993a3af7a528b3048735e7667","to":"0x5989fb161568b9f133edf5cf6787f5597762797f","transactionIndex":"0x0","v":"0x2734","value":"0x0","contractAddress":null,"cumulativeGasUsed":"0x237e3","daFee":"0x0","daGasPrice":"0x0","daGasUsed":"0x12c","gasUsed":"0x237e3","l1Fee":"0x1a09f6380cb9fe0","l1FeeScalar":"1","l1GasPrice":"0x39ff1464e55c","l1GasUsed":"0x72f","logs":[{"address":"0x201eba5cc46d216ce6dc03f6a759e8e766e956ae","blockHash":"0x3d49324613e8ba71bdc41bde654b53572fac503746e055dd81cb619d270241b5","blockNumber":"0xd001a5","data":"0x0000000000000000000000000000000000000000000000000000000000106424","logIndex":"0x0","removed":false,"topics":["0xddf252ad1be2c89b69c2b068fc378daa952ba7f163c4a11628f55a4df523b3ef","0x000000000000000000000000262255f4770aebe2d0c8b97a46287dcecc2a0aff","0x00000000000000000000000005eb8b85019200f346116af3a5a1bc17085ae87a"],"transactionHash":"0xbb41e1e0b169b80c73a0799699cf7bd11cf59a447c05ef9e1d36e584c4f728bc","transactionIndex":"0x0"},{"address":"0x78c1b0c915c4faa5fffa6cabf0219da63d7f4cb8","blockHash":"0x3d49324613e8ba71bdc41bde654b53572fac503746e055dd81cb619d270241b5","blockNumber":"0xd001a5","data":"0x00000000000000000000000000000000000000000000000027f7d0bdb9200000","logIndex":"0x1","removed":false,"topics":["0xddf252ad1be2c89b69c2b068fc378daa952ba7f163c4a11628f55a4df523b3ef","0x00000000000000000000000005eb8b85019200f346116af3a5a1bc17085ae87a","0x000000000000000000000000262255f4770aebe2d0c8b97a46287dcecc2a0aff"],"transactionHash":"0xbb41e1e0b169b80c73a0799699cf7bd11cf59a447c05ef9e1d36e584c4f728bc","transactionIndex":"0x0"},{"address":"0x78c1b0c915c4faa5fffa6cabf0219da63d7f4cb8","blockHash":"0x3d49324613e8ba71bdc41bde654b53572fac503746e055dd81cb619d270241b5","blockNumber":"0xd001a5","data":"0xfffffffffffffffffffffffffffffffffffffffffffffff83eebd5dbc01fffff","logIndex":"0x2","removed":false,"topics":["0x8c5be1e5ebec7d5bd14f71427d1e84f3dd0314c0f7b2291e5b200ac8c7c3b925","0x00000000000000000000000005eb8b85019200f346116af3a5a1bc17085ae87a","0x0000000000000000000000005989fb161568b9f133edf5cf6787f5597762797f"],"transactionHash":"0xbb41e1e0b169b80c73a0799699cf7bd11cf59a447c05ef9e1d36e584c4f728bc","transactionIndex":"0x0"},{"address":"0x262255f4770aebe2d0c8b97a46287dcecc2a0aff","blockHash":"0x3d49324613e8ba71bdc41bde654b53572fac503746e055dd81cb619d270241b5","blockNumber":"0xd001a5","data":"0xffffffffffffffffffffffffffffffffffffffffffffffffffffffffffef9bdc00000000000000000000000000000000000000000000000027f7d0bdb9200000000000000000000000000000000000000018fa71c6e25c834c6d892c2d8e21c1000000000000000000000000000000000000000000000000252351859d41d5170000000000000000000000000000000000000000000000000000000000045de500000000000000000000000000000000000000000000000000000000000000000000000000000000000000000000000000000000000000000001bd49e2150000","logIndex":"0x3","removed":false,"topics":["0x19b47279256b2a23a1665c810c8d55a1758940ee09377d4f8d26497a3577dc83","0x0000000000000000000000005989fb161568b9f133edf5cf6787f5597762797f","0x00000000000000000000000005eb8b85019200f346116af3a5a1bc17085ae87a"],"transactionHash":"0xbb41e1e0b169b80c73a0799699cf7bd11cf59a447c05ef9e1d36e584c4f728bc","transactionIndex":"0x0"}],"logsBloom":"0x00040000000010000000000000000000000000000001000000000000000000000000000000000000000000000002000000001000000000000000000000200000140000000040000000000008000000000000408000042000000000000000000000000000000000000000000000010000000000000000000000000010000000000000000100000000000000000000040000100000040000000000000040000000020000000000000000000000000000000000000000000000004000000000000000000002000000000000000000000000000000000400000000000000000000000010000000000000000000000000000000000000000000000000002000000000","status":"0x1","transactionHash":"0xbb41e1e0b169b80c73a0799699cf7bd11cf59a447c05ef9e1d36e584c4f728bc"}}}