{"block":{"difficulty":"0x2","extraData":"0xd98301090a846765746889676f312e31352e3133856c696e757800000000000042b4d5b1cba1b5e619e19c5e70b022bfd2d38d78564d4699d13a965eae975e6732c1d6f84ac2d01c63e7aa37e6c61636abdcda19c2b6f8c277e957b3a4e234fa00","gasLimit":"0x1c9c380","gasUsed":"0x1d255","hash":"0x928f0887a077493843adef208ee602f36f591852ff2eaba836c814d98eaee5e2","logsBloom":"0x00000000000000000000000000000000000000000001008810000000000000000004000000000000000000000002000000000000000000000000000000220000140000000040000000000008000000000000008000042000000200000000000000000000000000000000000000000080000000000000000000000010000000000000000000000000000000000000000000100000000000000000000000000040020000000000000000000000000200000000000001800000000000000000000000000002000000000000000000000000000000000000000000000010000000000010000000000000000000000000000000000000000000000000000000000000","miner":"0x0000000000000000000000000000000000000000","mixHash":"0x0000000000000000000000000000000000000000000000000000000000000000","nonce":"0x0000000000000000","number":"0xcff35e","parentHash":"0x9057f6c7b843d16fcff3f99ac4d89ad228fb315c475da363443f582e7e25b1c7","receiptsRoot":"0xc87af68445424eeebdfe4887506dc171a8306db44f10f6fd36c3dc8c3e98959c","sha3Uncles":"0x1dcc4de8dec75d7aab85b567b6ccd41ad312451b948a7413f0a142fd40d49347","size":"0x3d8","stateRoot":"0xd1d210c4677fc20639de4e8cb238611a77c64ae43df32d356760c4d8f8af952c","timestamp":"0x6524372f","totalDifficulty":"0x19fe6bd","transactions":[{"blockHash":"0x928f0887a077493843adef208ee602f36f591852ff2eaba836c814d98eaee5e2","blockNumber":"0xcff35e","from":"0x05552f284f1bcb65403b57f17d68f626a92d7a63","gas":"0x1e9a7","gasPrice":"0x2faf080","hash":"0x4c638a8f7da9616983465bae7fbb5266ca190e4314605576806e8291b093ce8c","index":"0xcff35d","input":"0x414bf38900000000000000000000000078c1b0c915c4faa5fffa6cabf0219da63d7f4cb8000000000000000000000000201eba5cc46d216ce6dc03f6a759e8e766e956ae00000000000000000000000000000000000000000000000000000000000001f400000000000000000000000005552f284f1bcb65403b57f17d68f626a92d7a63000000000000000000000000000000000000000000000000000000006524375100000000000000000000000000000000000000000000000016345785d8a00000000000000000000000000000000000000000000000000000000000000008e2fc0000000000000000000000000000000000000000000000000000000000000000","l1BlockNumber":"0x117744d","l1Timestamp":"0x6524372f","l1TxOrigin":null,"nonce":"0x1270","queueIndex":null,"queueOrigin":"sequencer","r":"0xd1d138bf315d716a59d2267a62d57c7cb86e96d720926e5bcf779e7383222bc","rawTransaction":"0xf9016e8212708402faf0808301e9a794319b69888b0d11cec22caa5034e25fffbdc8842180b90104414bf38900000000000000000000000078c1b0c915c4faa5fffa6cabf0219da63d7f4cb8000000000000000000000000201eba5cc46d216ce6dc03f6a759e8e766e956ae00000000000000000000000000000000000000000000000000000000000001f400000000000000000000000005552f284f1bcb65403b57f17d68f626a92d7a63000000000000000000000000000000000000000000000000000000006524375100000000000000000000000000000000000000000000000016345785d8a00000000000000000000000000000000000000000000000000000000000000008e2fc0000000000000000000000000000000000000000000000000000000000000000822733a00d1d138bf315d716a59d2267a62d57c7cb86e96d720926e5bcf779e7383222bca04274f47ec4609e603ecedcc9eeba9fb228c0e2ab3c1f406c734745a573088791","s":"0x4274f47ec4609e603ecedcc9eeba9fb228c0e2ab3c1f406c734745a573088791","to":"0x319b69888b0d11cec22caa5034e25fffbdc88421","transactionIndex":"0x0","v":"0x2733","value":"0x0"}],"transactionsRoot":"0x10a8e0d2bc183de7ab13e9051dbcacb9bbf82b325eadf1c4619f4d094be2cf58","uncles":[]},"receipts":{"0x4c638a8f7da9616983465bae7fbb5266ca190e4314605576806e8291b093ce8c":{"blockHash":"0x928f0887a077493843adef208ee602f36f591852ff2eaba836c814d98eaee5e2","blockNumber":"0xcff35e","from":"0x05552f284f1bcb65403b57f17d68f626a92d7a63","gas":"0x1e9a7","gasPrice":"0x2faf080","hash":"0x4c638a8f7da9616983465bae7fbb5266ca190e4314605576806e8291b093ce8c","index":"0xcff35d","input":"0x414bf38900000000000000000000000078c1b0c915c4faa5fffa6cabf0219da63d7f4cb8000000000000000000000000201eba5cc46d216ce6dc03f6a759e8e766e956ae00000000000000000000000000000000000000000000000000000000000001f400000000000000000000000005552f284f1bcb65403b57f17d68f626a92d7a63000000000000000000000000000000000000000000000000000000006524375100000000000000000000000000000000000000000000000016345785d8a00000000000000000000000000000000000000000000000000000000000000008e2fc0000000000000000000000000000000000000000000000000000000000000000","l1BlockNumber":"0x117744d","l1Timestamp":"0x6524372f","l1TxOrigin":null,"nonce":"0x1270","queueIndex":null,"queueOrigin":"sequencer","r":"0xd1d138bf315d716a59d2267a62d57c7cb86e96d720926e5bcf779e7383222bc","rawTransaction":"0xf9016e8212708402faf0808301e9a794319b69888b0d11cec22caa5034e25fffbdc8842180b90104414bf38900000000000000000000000078c1b0c915c4faa5fffa6cabf0219da63d7f4cb8000000000000000000000000201eba5cc46d216ce6dc03f6a759e8e766e956ae00000000000000000000000000000000000000000000000000000000000001f400000000000000000000000005552f284f1bcb65403b57f17d68f626a92d7a63000000000000000000000000000000000000000000000000000000006524375100000000000000000000000000000000000000000000000016345785d8a00000000000000000000000000000000000000000000000000000000000000008e2fc0000000000000000000000000000000000000000000000000000000000000000822733a00d1d138bf315d716a59d2267a62d57c7cb86e96d720926e5bcf779e7383222bca04274f47ec4609e603ecedcc9eeba9fb228c0e2ab3c1f406c734745a573088791","s":"0x4274f47ec4609e603ecedcc9eeba9fb228c0e2ab3c1f406c734745a573088791","to":"0x319b69888b0d11cec22caa5034e25fffbdc88421","transactionIndex":"0x0","v":"0x2733","value":"0x0","contractAddress":null,"cumulativeGasUsed":"0x1d255","daFee":"0x0","daGasPrice":"0x0","daGasUsed":"0x12c","gasUsed":"0x1d255","l1Fee":"0x1c5145ff7a866d0","l1FeeScalar":"1","l1GasPrice":"0x3f1249c65230","l1GasUsed":"0x72f","logs":[{"address":"0x201eba5cc46d216ce6dc03f6a759e8e766e956ae","blockHash":"0x928f0887a077493843adef208ee602f36f591852ff2eaba836c814d98eaee5e2","blockNumber":"0xcff35e","data":"0x000000000000000000000000000000000000000000000000000000000009116a","logIndex":"0x0","removed":false,"topics":["0xddf252ad1be2c89b69c2b068fc378daa952ba7f163c4a11628f55a4df523b3ef","0x000000000000000000000000d08c50f7e69e9aeb2867deff4a8053d9a855e26a","0x00000000000000000000000005552f284f1bcb65403b57f17d68f626a92d7a63"],"transactionHash":"0x4c638a8f7da9616983465bae7fbb5266ca190e4314605576806e8291b093ce8c","transactionIndex":"0x0"},{"address":"0x78c1b0c915c4faa5fffa6cabf0219da63d7f4cb8","blockHash":"0x928f0887a077493843adef208ee602f36f591852ff2eaba836c814d98eaee5e2","blockNumber":"0xcff35e","data":"0x00000000000000000000000000000000000000000000000016345785d8a00000","logIndex":"0x1","removed":false,"topics":["0xddf252ad1be2c89b69c2b068fc378daa952ba7f163c4a11628f55a4df523b3ef","0x00000000000000000000000005552f284f1bcb65403b57f17d68f626a92d7a63","0x000000000000000000000000d08c50f7e69e9aeb2867deff4a8053d9a855e26a"],"transactionHash":"0x4c638a8f7da9616983465bae7fbb5266ca190e4314605576806e8291b093ce8c","transactionIndex":"0x0"},{"address":"0x78c1b0c915c4faa5fffa6cabf0219da63d7f4cb8","blockHash":"0x928f0887a077493843adef208ee602f36f591852ff2eaba836c814d98eaee5e2","blockNumber":"0xcff35e","data":"0xffffffffffffffffffffffffffffffffffffffffffffffa5c895e54f3aebffff","logIndex":"0x2","removed":false,"topics":["0x8c5be1e5ebec7d5bd14f71427d1e84f3dd0314c0f7b2291e5b200ac8c7c3b925","0x00000000000000000000000005552f284f1bcb65403b57f17d68f626a92d7a63","0x000000000000000000000000319b69888b0d11cec22caa5034e25fffbdc88421"],"transactionHash":"0x4c638a8f7da9616983465bae7fbb5266ca190e4314605576806e8291b093ce8c","transactionIndex":"0x0"},{"address":"0xd08c50f7e69e9aeb2867deff4a8053d9a855e26a","blockHash":"0x928f0887a077493843adef208ee602f36f591852ff2eaba836c814d98eaee5e2","blockNumber":"0xcff35e","data":"0xfffffffffffffffffffffffffffffffffffffffffffffffffffffffffff6ee9600000000000000000000000000000000000000000000000016345785d8a00000000000000000000000000000000000000019080b340aa8c858a37a47d71b9447000000000000000000000000000000000000000000000000004794f35730b3980000000000000000000000000000000000000000000000000000000000045e1000000000000000000000000000000000000000000000000000000000000000000000000000000000000000000000000000000000000000000000f761ef610000","logIndex":"0x3","removed":false,"topics":["0x19b47279256b2a23a1665c810c8d55a1758940ee09377d4f8d26497a3577dc83","0x000000000000000000000000319b69888b0d11cec22caa5034e25fffbdc88421","0x00000000000000000000000005552f284f1bcb65403b57f17d68f626a92d7a63"],"transactionHash":"0x4c638a8f7da9616983465bae7fbb5266ca190e4314605576806e8291b093ce8c","transactionIndex":"0x0"}],"logsBloom":"0x00000000000000000000000000000000000000000001008810000000000000000004000000000000000000000002000000000000000000000000000000220000140000000040000000000008000000000000008000042000000200000000000000000000000000000000000000000080000000000000000000000010000000000000000000000000000000000000000000100000000000000000000000000040020000000000000000000000000200000000000001800000000000000000000000000002000000000000000000000000000000000000000000000010000000000010000000000000000000000000000000000000000000000000000000000000","status":"0x1","transactionHash":"0x4c638a8f7da9616983465bae7fbb5266ca190e4314605576806e8291b093ce8c"}}}