{"block":{"difficulty":"0x2","extraData":"0xd98301090a846765746889676f312e31352e3133856c696e7578000000000000b26923cc12f12b592d407e8bb62d2754264609326bae6e2f3540313e84d91cda68942ebde273616738a2c4849ca190be3d1a8562de4c44c9950f4cb0ad0f4e7101","gasLimit":"0x1c9c380","gasUsed":"0xb4ce","hash":"0xfc983eff30e60cbc369dbabb6c6b451c4ec8fdb84071f5c810d7f6928f9fb0f3","logsBloom":"0x00000000000000000000000000000000000000000000008800000000000000000000000000000000000000000000000000000000000000000000000000200000000000000000000000000000000000000000000010000000000080000000000000000000000000000000000100000000000000000000000000000000000000000000000000000000200000000000000000000000000000000000000000000000020000000000000000000000000000000000000001000000000100000000000000000000000000000000000000000000000000000000000000000000000000000010000000001000000000000000000000000000000000000000000000000000","miner":"0x0000000000000000000000000000000000000000","mixHash":"0x0000000000000000000000000000000000000000000000000000000000000000","nonce":"0x0000000000000000","number":"0xd000ce","parentHash":"0xe799de882ee9c68816cc717b7c26e0f303f1b672a7ecedcde8869dbe53ff9fbc","receiptsRoot":"0x2f336288d7d65b1b7a7f3d45f841bcb232a1004d9623d1c5c43b413593119c49","sha3Uncles":"0x1dcc4de8dec75d7aab85b567b6ccd41ad312451b948a7413f0a142fd40d49347","size":"0x311","stateRoot":"0x9e2d6dc74174bb803b1f86b4d578e2e70a076a050c59a6dea3cec58429fd364e","timestamp":"0x65243d25","totalDifficulty":"0x1a0019d","transactions":[{"blockHash":"0xfc983eff30e60cbc369dbabb6c6b451c4ec8fdb84071f5c810d7f6928f9fb0f3","blockNumber":"0xd000ce","from":"0x5f3291147af755f4b13408dabbbeaa86ef007039","gas":"0xb4ce","gasPrice":"0x2faf080","hash":"0x327d98a0aff1849f46f974d2e102345571fcad1f502d34777f05a9929e0fa6cc","index":"0xd000cd","input":"0x095ea7b3000000000000000000000000319b69888b0d11cec22caa5034e25fffbdc8842100000000000000000000000000000000000000000000000000060a24181e4000","l1BlockNumber":"0x11774cc","l1Timestamp":"0x65243d25","l1TxOrigin":null,"nonce":"0x2","queueIndex":null,"queueOrigin":"sequencer","r":"0xf71edeafab8da63988730f4366982269f4de0c5f591e6cc0723eed46310e1c46","rawTransaction":"0xf8aa028402faf08082b4ce94deaddeaddeaddeaddeaddeaddeaddeaddead111180b844095ea7b3000000000000000000000000319b69888b0d11cec22caa5034e25fffbdc8842100000000000000000000000000000000000000000000000000060a24181e4000822734a0f71edeafab8da63988730f4366982269f4de0c5f591e6cc0723eed46310e1c46a00cd3989a2cf6d4522f0b863446a458441ed76f1a8ae87113d7579b7342318cd8","s":"0xcd3989a2cf6d4522f0b863446a458441ed76f1a8ae87113d7579b7342318cd8","to":"0xdeaddeaddeaddeaddeaddeaddeaddeaddead1111","transactionIndex":"0x0","v":"0x2734","value":"0x0"}],"transactionsRoot":"0x3bbad7a2297da5e2358103c49cbc3b065faff05096924e43c2ec8420ed995e0e","uncles":[]},"receipts":{"0x327d98a0aff1849f46f974d2e102345571fcad1f502d34777f05a9929e0fa6cc":{"blockHash":"0xfc983eff30e60cbc369dbabb6c6b451c4ec8fdb84071f5c810d7f6928f9fb0f3","blockNumber":"0xd000ce","from":"0x5f3291147af755f4b13408dabbbeaa86ef007039","gas":"0xb4ce","gasPrice":"0x2faf080","hash":"0x327d98a0aff1849f46f974d2e102345571fcad1f502d34777f05a9929e0fa6cc","index":"0xd000cd","input":"0x095ea7b3000000000000000000000000319b69888b0d11cec22caa5034e25fffbdc8842100000000000000000000000000000000000000000000000000060a24181e4000","l1BlockNumber":"0x11774cc","l1Timestamp":"0x65243d25","l1TxOrigin":null,"nonce":"0x2","queueIndex":null,"queueOrigin":"sequencer","r":"0xf71edeafab8da63988730f4366982269f4de0c5f591e6cc0723eed46310e1c46","rawTransaction":"0xf8aa028402faf08082b4ce94deaddeaddeaddeaddeaddeaddeaddeaddead111180b844095ea7b3000000000000000000000000319b69888b0d11cec22caa5034e25fffbdc8842100000000000000000000000000000000000000000000000000060a24181e4000822734a0f71edeafab8da63988730f4366982269f4de0c5f591e6cc0723eed46310e1c46a00cd3989a2cf6d4522f0b863446a458441ed76f1a8ae87113d7579b7342318cd8","s":"0xcd3989a2cf6d4522f0b863446a458441ed76f1a8ae87113d7579b7342318cd8","to":"0xdeaddeaddeaddeaddeaddeaddeaddeaddead1111","transactionIndex":"0x0","v":"0x2734","value":"0x0","contractAddress":null,"cumulativeGasUsed":"0xb4ce","daFee":"0x0","daGasPrice":"0x0","daGasUsed":"0x67","gasUsed":"0xb4ce","l1Fee":"0x1a09f6380cb9fe0","l1FeeScalar":"1","l1GasPrice":"0x39ff1464e55c","l1GasUsed":"0x72f","logs":[{"address":"0xdeaddeaddeaddeaddeaddeaddeaddeaddead1111","blockHash":"0xfc983eff30e60cbc369dbabb6c6b451c4ec8fdb84071f5c810d7f6928f9fb0f3","blockNumber":"0xd000ce","data":"0x00000000000000000000000000000000000000000000000000060a24181e4000","logIndex":"0x0","removed":false,"topics":["0x8c5be1e5ebec7d5bd14f71427d1e84f3dd0314c0f7b2291e5b200ac8c7c3b925","0x0000000000000000000000005f3291147af755f4b13408dabbbeaa86ef007039","0x000000000000000000000000319b69888b0d11cec22caa5034e25fffbdc88421"],"transactionHash":"0x327d98a0aff1849f46f974d2e102345571fcad1f502d34777f05a9929e0fa6cc","transactionIndex":"0x0"}],"logsBloom":"0x00000000000000000000000000000000000000000000008800000000000000000000000000000000000000000000000000000000000000000000000000200000000000000000000000000000000000000000000010000000000080000000000000000000000000000000000100000000000000000000000000000000000000000000000000000000200000000000000000000000000000000000000000000000020000000000000000000000000000000000000001000000000100000000000000000000000000000000000000000000000000000000000000000000000000000010000000001000000000000000000000000000000000000000000000000000","status":"0x1","transactionHash":"0x327d98a0aff1849f46f974d2e102345571fcad1f502d34777f05a9929e0fa6cc"}}}