{"block":{"difficulty":"0x2","extraData":"0xd98301090a846765746889676f312e31352e3133856c696e757800000000000028588fe006f9b607c4820d4180eed6351ec3a9e84629798dec105182d16ca2f70b3328be871be5cb6445cd003cb1c8b4041f89b5419a3b8b4438ac0a0c918b5600","gasLimit":"0x1c9c380","gasUsed":"0x1e123","hash":"0x7123e8dd90e6b620077175d49941f9b1580afd828c4c51ff3ef14333084cf4e2","logsBloom":"0x40000000000000000000000000000000000000000001008800000000000000000000000000000000000000000002000000000000000000000000000000200000840000000040000000000008000000000000008000002004000000000000000000000001000000000000000100000000000000000000000000000010000000004000000000000000000000000000000000000000000000100008000000000000020000000000000000000000000000000000000001000020000100010000000000000002000000000000000000000000000000000000000000000000000000000010000000001000000000000000000000000000000000000000000000000000","miner":"0x0000000000000000000000000000000000000000","mixHash":"0x0000000000000000000000000000000000000000000000000000000000000000","nonce":"0x0000000000000000","number":"0xd000ea","parentHash":"0xad10f102110f04e4456efca33dbb20a1a92e7aae01d5cd2da17c0d15c7e3f6dd","receiptsRoot":"0xe7431367663278c090a44367b4ea1928540b89c08dc391092e67479b177bed40","sha3Uncles":"0x1dcc4de8dec75d7aab85b567b6ccd41ad312451b948a7413f0a142fd40d49347","size":"0x3d8","stateRoot":"0x602670ac82316bb9f9f6ee14aadbdf830ab9fcae421397836ee4375aeefed001","timestamp":"0x65243d35","totalDifficulty":"0x1a001d5","transactions":[{"blockHash":"0x7123e8dd90e6b620077175d49941f9b1580afd828c4c51ff3ef14333084cf4e2","blockNumber":"0xd000ea","from":"0xc32c887690d194daa8c3b407683404cf2e7777be","gas":"0x1f8b1","gasPrice":"0x2faf080","hash":"0x160936424acf22fe6ded5743096606e2954b8d94b8f49fba47a7dd30d8bff145","index":"0xd000e9","input":"0x414bf389000000000000000000000000deaddeaddeaddeaddeaddeaddeaddeaddead1111000000000000000000000000201eba5cc46d216ce6dc03f6a759e8e766e956ae00000000000000000000000000000000000000000000000000000000000001f4000000000000000000000000c32c887690d194daa8c3b407683404cf2e7777be0000000000000000000000000000000000000000000000000000000065243d5600000000000000000000000000000000000000000000000000019dd1f15f700000000000000000000000000000000000000000000000000000000000000ac9640000000000000000000000000000000000000000000000000000000000000000","l1BlockNumber":"0x11774cd","l1Timestamp":"0x65243d35","l1TxOrigin":null,"nonce":"0x667","queueIndex":null,"queueOrigin":"sequencer","r":"0x671f12226f124ac921932aed4ae98e3e169fbedfa77b5091a926fdf8c5839dda","rawTransaction":"0xf9016e8206678402faf0808301f8b194319b69888b0d11cec22caa5034e25fffbdc8842180b90104414bf389000000000000000000000000deaddeaddeaddeaddeaddeaddeaddeaddead1111000000000000000000000000201eba5cc46d216ce6dc03f6a759e8e766e956ae00000000000000000000000000000000000000000000000000000000000001f4000000000000000000000000c32c887690d194daa8c3b407683404cf2e7777be0000000000000000000000000000000000000000000000000000000065243d5600000000000000000000000000000000000000000000000000019dd1f15f700000000000000000000000000000000000000000000000000000000000000ac9640000000000000000000000000000000000000000000000000000000000000000822733a0671f12226f124ac921932aed4ae98e3e169fbedfa77b5091a926fdf8c5839ddaa022512c6aa7897408350d219c57560f01a68d33e9d5a4b4aff7c0255da3fed81a","s":"0x22512c6aa7897408350d219c57560f01a68d33e9d5a4b4aff7c0255da3fed81a","to":"0x319b69888b0d11cec22caa5034e25fffbdc88421","transactionIndex":"0x0","v":"0x2733","value":"0x0"}],"transactionsRoot":"0x625615e682ef5480f7a3a8e2e7be596c7a4f6bfc1c5238bbb2580987895349e4","uncles":[]},"receipts":{"0x160936424acf22fe6ded5743096606e2954b8d94b8f49fba47a7dd30d8bff145":{"blockHash":"0x7123e8dd90e6b620077175d49941f9b1580afd828c4c51ff3ef14333084cf4e2","blockNumber":"0xd000ea","from":"0xc32c887690d194daa8c3b407683404cf2e7777be","gas":"0x1f8b1","gasPrice":"0x2faf080","hash":"0x160936424acf22fe6ded5743096606e2954b8d94b8f49fba47a7dd30d8bff145","index":"0xd000e9","input":"0x414bf389000000000000000000000000deaddeaddeaddeaddeaddeaddeaddeaddead1111000000000000000000000000201eba5cc46d216ce6dc03f6a759e8e766e956ae00000000000000000000000000000000000000000000000000000000000001f4000000000000000000000000c32c887690d194daa8c3b407683404cf2e7777be0000000000000000000000000000000000000000000000000000000065243d5600000000000000000000000000000000000000000000000000019dd1f15f700000000000000000000000000000000000000000000000000000000000000ac9640000000000000000000000000000000000000000000000000000000000000000","l1BlockNumber":"0x11774cd","l1Timestamp":"0x65243d35","l1TxOrigin":null,"nonce":"0x667","queueIndex":null,"queueOrigin":"sequencer","r":"0x671f12226f124ac921932aed4ae98e3e169fbedfa77b5091a926fdf8c5839dda","rawTransaction":"0xf9016e8206678402faf0808301f8b194319b69888b0d11cec22caa5034e25fffbdc8842180b90104414bf389000000000000000000000000deaddeaddeaddeaddeaddeaddeaddeaddead1111000000000000000000000000201eba5cc46d216ce6dc03f6a759e8e766e956ae00000000000000000000000000000000000000000000000000000000000001f4000000000000000000000000c32c887690d194daa8c3b407683404cf2e7777be0000000000000000000000000000000000000000000000000000000065243d5600000000000000000000000000000000000000000000000000019dd1f15f700000000000000000000000000000000000000000000000000000000000000ac9640000000000000000000000000000000000000000000000000000000000000000822733a0671f12226f124ac921932aed4ae98e3e169fbedfa77b5091a926fdf8c5839ddaa022512c6aa7897408350d219c57560f01a68d33e9d5a4b4aff7c0255da3fed81a","s":"0x22512c6aa7897408350d219c57560f01a68d33e9d5a4b4aff7c0255da3fed81a","to":"0x319b69888b0d11cec22caa5034e25fffbdc88421","transactionIndex":"0x0","v":"0x2733","value":"0x0","contractAddress":null,"cumulativeGasUsed":"0x1e123","daFee":"0x0","daGasPrice":"0x0","daGasUsed":"0x12c","gasUsed":"0x1e123","l1Fee":"0x1a09f6380cb9fe0","l1FeeScalar":"1","l1GasPrice":"0x39ff1464e55c","l1GasUsed":"0x72f","logs":[{"address":"0x201eba5cc46d216ce6dc03f6a759e8e766e956ae","blockHash":"0x7123e8dd90e6b620077175d49941f9b1580afd828c4c51ff3ef14333084cf4e2","blockNumber":"0xd000ea","data":"0x00000000000000000000000000000000000000000000000000000000000b01bf","logIndex":"0x0","removed":false,"topics":["0xddf252ad1be2c89b69c2b068fc378daa952ba7f163c4a11628f55a4df523b3ef","0x000000000000000000000000628f7131cf43e88ebe3921ae78c4ba0c31872bd4","0x000000000000000000000000c32c887690d194daa8c3b407683404cf2e7777be"],"transactionHash":"0x160936424acf22fe6ded5743096606e2954b8d94b8f49fba47a7dd30d8bff145","transactionIndex":"0x0"},{"address":"0xdeaddeaddeaddeaddeaddeaddeaddeaddead1111","blockHash":"0x7123e8dd90e6b620077175d49941f9b1580afd828c4c51ff3ef14333084cf4e2","blockNumber":"0xd000ea","data":"0x00000000000000000000000000000000000000000000000000019dd1f15f7000","logIndex":"0x1","removed":false,"topics":["0xddf252ad1be2c89b69c2b068fc378daa952ba7f163c4a11628f55a4df523b3ef","0x000000000000000000000000c32c887690d194daa8c3b407683404cf2e7777be","0x000000000000000000000000628f7131cf43e88ebe3921ae78c4ba0c31872bd4"],"transactionHash":"0x160936424acf22fe6ded5743096606e2954b8d94b8f49fba47a7dd30d8bff145","transactionIndex":"0x0"},{"address":"0xdeaddeaddeaddeaddeaddeaddeaddeaddead1111","blockHash":"0x7123e8dd90e6b620077175d49941f9b1580afd828c4c51ff3ef14333084cf4e2","blockNumber":"0xd000ea","data":"0xfffffffffffffffffffffffffffffffffffffffffffffffffe30c2fc5fbc9fff","logIndex":"0x2","removed":false,"topics":["0x8c5be1e5ebec7d5bd14f71427d1e84f3dd0314c0f7b2291e5b200ac8c7c3b925","0x000000000000000000000000c32c887690d194daa8c3b407683404cf2e7777be","0x000000000000000000000000319b69888b0d11cec22caa5034e25fffbdc88421"],"transactionHash":"0x160936424acf22fe6ded5743096606e2954b8d94b8f49fba47a7dd30d8bff145","transactionIndex":"0x0"},{"address":"0x628f7131cf43e88ebe3921ae78c4ba0c31872bd4","blockHash":"0x7123e8dd90e6b620077175d49941f9b1580afd828c4c51ff3ef14333084cf4e2","blockNumber":"0xd000ea","data":"0xfffffffffffffffffffffffffffffffffffffffffffffffffffffffffff4fe4100000000000000000000000000000000000000000000000000019dd1f15f7000000000000000000000000000000000000000621976785512d9f683da9a10bbb800000000000000000000000000000000000000000000000000002c65dde06c200000000000000000000000000000000000000000000000000000000000031789000000000000000000000000000000000000000000000000000000000000000000000000000000000000000000000000000000000000000000000012026b5580","logIndex":"0x3","removed":false,"topics":["0x19b47279256b2a23a1665c810c8d55a1758940ee09377d4f8d26497a3577dc83","0x000000000000000000000000319b69888b0d11cec22caa5034e25fffbdc88421","0x000000000000000000000000c32c887690d194daa8c3b407683404cf2e7777be"],"transactionHash":"0x160936424acf22fe6ded5743096606e2954b8d94b8f49fba47a7dd30d8bff145","transactionIndex":"0x0"}],"logsBloom":"0x40000000000000000000000000000000000000000001008800000000000000000000000000000000000000000002000000000000000000000000000000200000840000000040000000000008000000000000008000002004000000000000000000000001000000000000000100000000000000000000000000000010000000004000000000000000000000000000000000000000000000100008000000000000020000000000000000000000000000000000000001000020000100010000000000000002000000000000000000000000000000000000000000000000000000000010000000001000000000000000000000000000000000000000000000000000","status":"0x1","transactionHash":"0x160936424acf22fe6ded5743096606e2954b8d94b8f49fba47a7dd30d8bff145"}}}