{"block":{"difficulty":"0x2","extraData":"0xd98301090a846765746889676f312e31352e3133856c696e7578000000000000990faf59f427c6d108ec96ecb4b120b9450482ec97aeeb37d7736fe7b201c4a61f388be5ea227012143784f84f0fc6d746cf6650b82774911900bcef7f1bea2a00","gasLimit":"0x1c9c380","gasUsed":"0x1e21f","hash":"0xec977e589951c0cefb77894cefcebd2652f7806f975954632a7ca1c97b95f909","logsBloom":"0x40000000000000000000000000000000000000000001008800000000000000000000000000000200000000000002000000000000000000000000000000200000840000000040000000000008000000000000008000002004000000000000000000000001000000004000000100000000000000000000400000000010000000000000000000000000000000000000000000000000000000000008000000000000020000000000000000000000000000000000000001000020000100000000000000000002000000000000000000000000000000000000000000000000000000000010000000001000000000000000000000000000000000000000000000000000","miner":"0x0000000000000000000000000000000000000000","mixHash":"0x0000000000000000000000000000000000000000000000000000000000000000","nonce":"0x0000000000000000","number":"0xd00120","parentHash":"0xaa6c0cef6fb3832547232ddd2b345cc09cea794f52558e4d0cb2b31ebf7513f8","receiptsRoot":"0x8a5b1a80b30817f0e140965826e2c7caa83c0ce86d8fed71a0aa6add638b87e1","sha3Uncles":"0x1dcc4de8dec75d7aab85b567b6ccd41ad312451b948a7413f0a142fd40d49347","size":"0x3d8","stateRoot":"0x47347aef3d7db934183e7b5ee49ad46913e686e3505e5b3592eb56c9fc5eb881","timestamp":"0x65243d54","totalDifficulty":"0x1a00241","transactions":[{"blockHash":"0xec977e589951c0cefb77894cefcebd2652f7806f975954632a7ca1c97b95f909","blockNumber":"0xd00120","from":"0x33eacd1ef93537ea4c754b3016229b28566f1fc7","gas":"0x1f9bc","gasPrice":"0x2faf080","hash":"0xfc6a93071d3a0ace946d3f54767acbdb10661b8d5ab30527ac749ea5b8290367","index":"0xd0011f","input":"0x414bf389000000000000000000000000201eba5cc46d216ce6dc03f6a759e8e766e956ae000000000000000000000000deaddeaddeaddeaddeaddeaddeaddeaddead111100000000000000000000000000000000000000000000000000000000000001f400000000000000000000000033eacd1ef93537ea4c754b3016229b28566f1fc70000000000000000000000000000000000000000000000000000000065243d7300000000000000000000000000000000000000000000000000000000000be6e00000000000000000000000000000000000000000000000000001b59dbc3d734f0000000000000000000000000000000000000000000000000000000000000000","l1BlockNumber":"0x11774cf","l1Timestamp":"0x65243d54","l1TxOrigin":null,"nonce":"0xe85","queueIndex":null,"queueOrigin":"sequencer","r":"0xe347d8fc01f685d1d721ab14d43d800b56f097c9aeae7493597805b99feeeca2","rawTransaction":"0xf9016e820e858402faf0808301f9bc94319b69888b0d11cec22caa5034e25fffbdc8842180b90104414bf389000000000000000000000000201eba5cc46d216ce6dc03f6a759e8e766e956ae000000000000000000000000deaddeaddeaddeaddeaddeaddeaddeaddead111100000000000000000000000000000000000000000000000000000000000001f400000000000000000000000033eacd1ef93537ea4c754b3016229b28566f1fc70000000000000000000000000000000000000000000000000000000065243d7300000000000000000000000000000000000000000000000000000000000be6e00000000000000000000000000000000000000000000000000001b59dbc3d734f0000000000000000000000000000000000000000000000000000000000000000822734a0e347d8fc01f685d1d721ab14d43d800b56f097c9aeae7493597805b99feeeca2a060a4811a48de96ed4b1a5d825b886662fef453510944d54c86f05ddad16c6e34","s":"0x60a4811a48de96ed4b1a5d825b886662fef453510944d54c86f05ddad16c6e34","to":"0x319b69888b0d11cec22caa5034e25fffbdc88421","transactionIndex":"0x0","v":"0x2734","value":"0x0"}],"transactionsRoot":"0xb5e93ecbdea77def988b29b736d4fa96da065cd843c895e1ee340f965d56a1d8","uncles":[]},"receipts":{"0xfc6a93071d3a0ace946d3f54767acbdb10661b8d5ab30527ac749ea5b8290367":{"blockHash":"0xec977e589951c0cefb77894cefcebd2652f7806f975954632a7ca1c97b95f909","blockNumber":"0xd00120","from":"0x33eacd1ef93537ea4c754b3016229b28566f1fc7","gas":"0x1f9bc","gasPrice":"0x2faf080","hash":"0xfc6a93071d3a0ace946d3f54767acbdb10661b8d5ab30527ac749ea5b8290367","index":"0xd0011f","input":"0x414bf389000000000000000000000000201eba5cc46d216ce6dc03f6a759e8e766e956ae000000000000000000000000deaddeaddeaddeaddeaddeaddeaddeaddead111100000000000000000000000000000000000000000000000000000000000001f400000000000000000000000033eacd1ef93537ea4c754b3016229b28566f1fc70000000000000000000000000000000000000000000000000000000065243d7300000000000000000000000000000000000000000000000000000000000be6e00000000000000000000000000000000000000000000000000001b59dbc3d734f0000000000000000000000000000000000000000000000000000000000000000","l1BlockNumber":"0x11774cf","l1Timestamp":"0x65243d54","l1TxOrigin":null,"nonce":"0xe85","queueIndex":null,"queueOrigin":"sequencer","r":"0xe347d8fc01f685d1d721ab14d43d800b56f097c9aeae7493597805b99feeeca2","rawTransaction":"0xf9016e820e858402faf0808301f9bc94319b69888b0d11cec22caa5034e25fffbdc8842180b90104414bf389000000000000000000000000201eba5cc46d216ce6dc03f6a759e8e766e956ae000000000000000000000000deaddeaddeaddeaddeaddeaddeaddeaddead111100000000000000000000000000000000000000000000000000000000000001f400000000000000000000000033eacd1ef93537ea4c754b3016229b28566f1fc70000000000000000000000000000000000000000000000000000000065243d7300000000000000000000000000000000000000000000000000000000000be6e00000000000000000000000000000000000000000000000000001b59dbc3d734f0000000000000000000000000000000000000000000000000000000000000000822734a0e347d8fc01f685d1d721ab14d43d800b56f097c9aeae7493597805b99feeeca2a060a4811a48de96ed4b1a5d825b886662fef453510944d54c86f05ddad16c6e34","s":"0x60a4811a48de96ed4b1a5d825b886662fef453510944d54c86f05ddad16c6e34","to":"0x319b69888b0d11cec22caa5034e25fffbdc88421","transactionIndex":"0x0","v":"0x2734","value":"0x0","contractAddress":null,"cumulativeGasUsed":"0x1e21f","daFee":"0x0","daGasPrice":"0x0","daGasUsed":"0x12c","gasUsed":"0x1e21f","l1Fee":"0x1a09f6380cb9fe0","l1FeeScalar":"1","l1GasPrice":"0x39ff1464e55c","l1GasUsed":"0x72f","logs":[{"address":"0xdeaddeaddeaddeaddeaddeaddeaddeaddead1111","blockHash":"0xec977e589951c0cefb77894cefcebd2652f7806f975954632a7ca1c97b95f909","blockNumber":"0xd00120","data":"0x0000000000000000000000000000000000000000000000000001be8c0e72f30d","logIndex":"0x0","removed":false,"topics":["0xddf252ad1be2c89b69c2b068fc378daa952ba7f163c4a11628f55a4df523b3ef","0x000000000000000000000000628f7131cf43e88ebe3921ae78c4ba0c31872bd4","0x00000000000000000000000033eacd1ef93537ea4c754b3016229b28566f1fc7"],"transactionHash":"0xfc6a93071d3a0ace946d3f54767acbdb10661b8d5ab30527ac749ea5b8290367","transactionIndex":"0x0"},{"address":"0x201eba5cc46d216ce6dc03f6a759e8e766e956ae","blockHash":"0xec977e589951c0cefb77894cefcebd2652f7806f975954632a7ca1c97b95f909","blockNumber":"0xd00120","data":"0x00000000000000000000000000000000000000000000000000000000000be6e0","logIndex":"0x1","removed":false,"topics":["0xddf252ad1be2c89b69c2b068fc378daa952ba7f163c4a11628f55a4df523b3ef","0x00000000000000000000000033eacd1ef93537ea4c754b3016229b28566f1fc7","0x000000000000000000000000628f7131cf43e88ebe3921ae78c4ba0c31872bd4"],"transactionHash":"0xfc6a93071d3a0ace946d3f54767acbdb10661b8d5ab30527ac749ea5b8290367","transactionIndex":"0x0"},{"address":"0x201eba5cc46d216ce6dc03f6a759e8e766e956ae","blockHash":"0xec977e589951c0cefb77894cefcebd2652f7806f975954632a7ca1c97b95f909","blockNumber":"0xd00120","data":"0xffffffffffffffffffffffffffffffffffffffffffffffffffffffff9c18be5f","logIndex":"0x2","removed":false,"topics":["0x8c5be1e5ebec7d5bd14f71427d1e84f3dd0314c0f7b2291e5b200ac8c7c3b925","0x00000000000000000000000033eacd1ef93537ea4c754b3016229b28566f1fc7","0x000000000000000000000000319b69888b0d11cec22caa5034e25fffbdc88421"],"transactionHash":"0xfc6a93071d3a0ace946d3f54767acbdb10661b8d5ab30527ac749ea5b8290367","transactionIndex":"0x0"},{"address":"0x628f7131cf43e88ebe3921ae78c4ba0c31872bd4","blockHash":"0xec977e589951c0cefb77894cefcebd2652f7806f975954632a7ca1c97b95f909","blockNumber":"0xd00120","data":"0x00000000000000000000000000000000000000000000000000000000000be6e0fffffffffffffffffffffffffffffffffffffffffffffffffffe4173f18d0cf3000000000000000000000000000000000000620269d8dc8bf3b76eec02091dcc00000000000000000000000000000000000000000000000000002c65dde06c20000000000000000000000000000000000000000000000000000000000003177600000000000000000000000000000000000000000000000000000000000000840000000000000000000000000000000000000000000000000000000000000000","logIndex":"0x3","removed":false,"topics":["0x19b47279256b2a23a1665c810c8d55a1758940ee09377d4f8d26497a3577dc83","0x000000000000000000000000319b69888b0d11cec22caa5034e25fffbdc88421","0x00000000000000000000000033eacd1ef93537ea4c754b3016229b28566f1fc7"],"transactionHash":"0xfc6a93071d3a0ace946d3f54767acbdb10661b8d5ab30527ac749ea5b8290367","transactionIndex":"0x0"}],"logsBloom":"0x40000000000000000000000000000000000000000001008800000000000000000000000000000200000000000002000000000000000000000000000000200000840000000040000000000008000000000000008000002004000000000000000000000001000000004000000100000000000000000000400000000010000000000000000000000000000000000000000000000000000000000008000000000000020000000000000000000000000000000000000001000020000100000000000000000002000000000000000000000000000000000000000000000000000000000010000000001000000000000000000000000000000000000000000000000000","status":"0x1","transactionHash":"0xfc6a93071d3a0ace946d3f54767acbdb10661b8d5ab30527ac749ea5b8290367"}}}