{"block":{"difficulty":"0x2","extraData":"0xd98301090a846765746889676f312e31352e3133856c696e7578000000000000f1ea24c8d6296856d414872f012ef854cadca1b148004a7eb96ec5c64fda974274d69eb2e7e0f520983c55bd70c83ac4bdc21bdc4c4525cb82e71de256e513c600","gasLimit":"0x1c9c380","gasUsed":"0x1e1d5","hash":"0x3051b8f75e090c8e9c4116121c23522a082c272c48c1a09ab716f1db41455dc2","logsBloom":"0x00000000000000000000000000000000000000000001008800000000000000000004000000000000000000000002000000000000000000000000000000200000140000000040000000000008000000000000008000042000000200000000000000000000000000000000000000000080000000000000000000000010000000000000000000000000000000000000000000100000000000000002000000000040020000000000000000000000080200000000000001000000000000000000000000000002000000000000000000000000000000000000000000000010000000020010000000000000000000000000000000000000000000000000000000000000","miner":"0x0000000000000000000000000000000000000000","mixHash":"0x0000000000000000000000000000000000000000000000000000000000000000","nonce":"0x0000000000000000","number":"0xd001ce","parentHash":"0x7656597c90611d680a4b858554b907602fb1526a4f867150cf5d101745e2a0f7","receiptsRoot":"0x4119fa8d9b2bf3c944b170cca3a2fd0becc3a51e59bcdcdb0e3f9e9b12f121c1","sha3Uncles":"0x1dcc4de8dec75d7aab85b567b6ccd41ad312451b948a7413f0a142fd40d49347","size":"0x3d8","stateRoot":"0x1fe428df8fb44f404030d9145437183d518835aa7daab6c15ab8baa5570ae8dd","timestamp":"0x65243daf","totalDifficulty":"0x1a0039d","transactions":[{"blockHash":"0x3051b8f75e090c8e9c4116121c23522a082c272c48c1a09ab716f1db41455dc2","blockNumber":"0xd001ce","from":"0x3f8eadd076b81abe60734bf73c433841b189a274","gas":"0x1f966","gasPrice":"0x2faf080","hash":"0x5da64a5c413d447478a49e323f7b173dba905849d09ac0a7449b194c90add2e0","index":"0xd001cd","input":"0x414bf38900000000000000000000000078c1b0c915c4faa5fffa6cabf0219da63d7f4cb8000000000000000000000000201eba5cc46d216ce6dc03f6a759e8e766e956ae00000000000000000000000000000000000000000000000000000000000001f40000000000000000000000003f8eadd076b81abe60734bf73c433841b189a2740000000000000000000000000000000000000000000000000000000065243dcf000000000000000000000000000000000000000000000000214e8348c4f0000000000000000000000000000000000000000000000000000000000000000d69790000000000000000000000000000000000000000000000000000000000000000","l1BlockNumber":"0x11774d7","l1Timestamp":"0x65243daf","l1TxOrigin":null,"nonce":"0xbcb","queueIndex":null,"queueOrigin":"sequencer","r":"0xe5beb242a7c6dbea4a67dd5866076d97bfc2c032ebc945686c02059bbb794407","rawTransaction":"0xf9016e820bcb8402faf0808301f96694319b69888b0d11cec22caa5034e25fffbdc8842180b90104414bf38900000000000000000000000078c1b0c915c4faa5fffa6cabf0219da63d7f4cb8000000000000000000000000201eba5cc46d216ce6dc03f6a759e8e766e956ae00000000000000000000000000000000000000000000000000000000000001f40000000000000000000000003f8eadd076b81abe60734bf73c433841b189a2740000000000000000000000000000000000000000000000000000000065243dcf000000000000000000000000000000000000000000000000214e8348c4f0000000000000000000000000000000000000000000000000000000000000000d69790000000000000000000000000000000000000000000000000000000000000000822733a0e5beb242a7c6dbea4a67dd5866076d97bfc2c032ebc945686c02059bbb794407a0635c3b0eaece88bb60717c7ac7e474b2a30548e4ed92b98e6f9497709a76f203","s":"0x635c3b0eaece88bb60717c7ac7e474b2a30548e4ed92b98e6f9497709a76f203","to":"0x319b69888b0d11cec22caa5034e25fffbdc88421","transactionIndex":"0x0","v":"0x2733","value":"0x0"}],"transactionsRoot":"0x46a05759275b497add3bd47e71fb4db22b69974f5f2efde1df1b1bcee13f5682","uncles":[]},"receipts":{"0x5da64a5c413d447478a49e323f7b173dba905849d09ac0a7449b194c90add2e0":{"blockHash":"0x3051b8f75e090c8e9c4116121c23522a082c272c48c1a09ab716f1db41455dc2","blockNumber":"0xd001ce","from":"0x3f8eadd076b81abe60734bf73c433841b189a274","gas":"0x1f966","gasPrice":"0x2faf080","hash":"0x5da64a5c413d447478a49e323f7b173dba905849d09ac0a7449b194c90add2e0","index":"0xd001cd","input":"0x414bf38900000000000000000000000078c1b0c915c4faa5fffa6cabf0219da63d7f4cb8000000000000000000000000201eba5cc46d216ce6dc03f6a759e8e766e956ae00000000000000000000000000000000000000000000000000000000000001f40000000000000000000000003f8eadd076b81abe60734bf73c433841b189a2740000000000000000000000000000000000000000000000000000000065243dcf000000000000000000000000000000000000000000000000214e8348c4f0000000000000000000000000000000000000000000000000000000000000000d69790000000000000000000000000000000000000000000000000000000000000000","l1BlockNumber":"0x11774d7","l1Timestamp":"0x65243daf","l1TxOrigin":null,"nonce":"0xbcb","queueIndex":null,"queueOrigin":"sequencer","r":"0xe5beb242a7c6dbea4a67dd5866076d97bfc2c032ebc945686c02059bbb794407","rawTransaction":"0xf9016e820bcb8402faf0808301f96694319b69888b0d11cec22caa5034e25fffbdc8842180b90104414bf38900000000000000000000000078c1b0c915c4faa5fffa6cabf0219da63d7f4cb8000000000000000000000000201eba5cc46d216ce6dc03f6a759e8e766e956ae00000000000000000000000000000000000000000000000000000000000001f40000000000000000000000003f8eadd076b81abe60734bf73c433841b189a2740000000000000000000000000000000000000000000000000000000065243dcf000000000000000000000000000000000000000000000000214e8348c4f0000000000000000000000000000000000000000000000000000000000000000d69790000000000000000000000000000000000000000000000000000000000000000822733a0e5beb242a7c6dbea4a67dd5866076d97bfc2c032ebc945686c02059bbb794407a0635c3b0eaece88bb60717c7ac7e474b2a30548e4ed92b98e6f9497709a76f203","s":"0x635c3b0eaece88bb60717c7ac7e474b2a30548e4ed92b98e6f9497709a76f203","to":"0x319b69888b0d11cec22caa5034e25fffbdc88421","transactionIndex":"0x0","v":"0x2733","value":"0x0","contractAddress":null,"cumulativeGasUsed":"0x1e1d5","daFee":"0x0","daGasPrice":"0x0","daGasUsed":"0x12c","gasUsed":"0x1e1d5","l1Fee":"0x19709d787180660","l1FeeScalar":"1","l1GasPrice":"0x38a987f04864","l1GasUsed":"0x72f","logs":[{"address":"0x201eba5cc46d216ce6dc03f6a759e8e766e956ae","blockHash":"0x3051b8f75e090c8e9c4116121c23522a082c272c48c1a09ab716f1db41455dc2","blockNumber":"0xd001ce","data":"0x00000000000000000000000000000000000000000000000000000000000daf8c","logIndex":"0x0","removed":false,"topics":["0xddf252ad1be2c89b69c2b068fc378daa952ba7f163c4a11628f55a4df523b3ef","0x000000000000000000000000d08c50f7e69e9aeb2867deff4a8053d9a855e26a","0x0000000000000000000000003f8eadd076b81abe60734bf73c433841b189a274"],"transactionHash":"0x5da64a5c413d447478a49e323f7b173dba905849d09ac0a7449b194c90add2e0","transactionIndex":"0x0"},{"address":"0x78c1b0c915c4faa5fffa6cabf0219da63d7f4cb8","blockHash":"0x3051b8f75e090c8e9c4116121c23522a082c272c48c1a09ab716f1db41455dc2","blockNumber":"0xd001ce","data":"0x000000000000000000000000000000000000000000000000214e8348c4f00000","logIndex":"0x1","removed":false,"topics":["0xddf252ad1be2c89b69c2b068fc378daa952ba7f163c4a11628f55a4df523b3ef","0x0000000000000000000000003f8eadd076b81abe60734bf73c433841b189a274","0x000000000000000000000000d08c50f7e69e9aeb2867deff4a8053d9a855e26a"],"transactionHash":"0x5da64a5c413d447478a49e323f7b173dba905849d09ac0a7449b194c90add2e0","transactionIndex":"0x0"},{"address":"0x78c1b0c915c4faa5fffa6cabf0219da63d7f4cb8","blockHash":"0x3051b8f75e090c8e9c4116121c23522a082c272c48c1a09ab716f1db41455dc2","blockNumber":"0xd001ce","data":"0xffffffffffffffffffffffffffffffffffffffffffffffc55104636fd023ffff","logIndex":"0x2","removed":false,"topics":["0x8c5be1e5ebec7d5bd14f71427d1e84f3dd0314c0f7b2291e5b200ac8c7c3b925","0x0000000000000000000000003f8eadd076b81abe60734bf73c433841b189a274","0x000000000000000000000000319b69888b0d11cec22caa5034e25fffbdc88421"],"transactionHash":"0x5da64a5c413d447478a49e323f7b173dba905849d09ac0a7449b194c90add2e0","transactionIndex":"0x0"},{"address":"0xd08c50f7e69e9aeb2867deff4a8053d9a855e26a","blockHash":"0x3051b8f75e090c8e9c4116121c23522a082c272c48c1a09ab716f1db41455dc2","blockNumber":"0xd001ce","data":"0xfffffffffffffffffffffffffffffffffffffffffffffffffffffffffff25074000000000000000000000000000000000000000000000000214e8348c4f00000000000000000000000000000000000000018f46d43d2f380abc79c543ad7ade2000000000000000000000000000000000000000000000000006787d5d3ab8a8c0000000000000000000000000000000000000000000000000000000000045dd2000000000000000000000000000000000000000000000000000000000000000000000000000000000000000000000000000000000000000000017312e7118000","logIndex":"0x3","removed":false,"topics":["0x19b47279256b2a23a1665c810c8d55a1758940ee09377d4f8d26497a3577dc83","0x000000000000000000000000319b69888b0d11cec22caa5034e25fffbdc88421","0x0000000000000000000000003f8eadd076b81abe60734bf73c433841b189a274"],"transactionHash":"0x5da64a5c413d447478a49e323f7b173dba905849d09ac0a7449b194c90add2e0","transactionIndex":"0x0"}],"logsBloom":"0x00000000000000000000000000000000000000000001008800000000000000000004000000000000000000000002000000000000000000000000000000200000140000000040000000000008000000000000008000042000000200000000000000000000000000000000000000000080000000000000000000000010000000000000000000000000000000000000000000100000000000000002000000000040020000000000000000000000080200000000000001000000000000000000000000000002000000000000000000000000000000000000000000000010000000020010000000000000000000000000000000000000000000000000000000000000","status":"0x1","transactionHash":"0x5da64a5c413d447478a49e323f7b173dba905849d09ac0a7449b194c90add2e0"}}}