{"block":{"difficulty":"0x2","extraData":"0xd98301090a846765746889676f312e31352e3133856c696e75780000000000004ba8644d309dab0355a5d1704277e41e61ba4062acb75a31c196253d99a030121499537786eb5426199ba8e848c79f198dc60a83947511e3a203e1afd6d6f42200","gasLimit":"0x1c9c380","gasUsed":"0x1fc7c","hash":"0x35d2ce381b9a2a53feed74409daa717fa860e6a908ab9ee06e46f8fe9a171d8c","logsBloom":"0x0000000000000000000000000000000000004000000100880000000000000000000000000000000000000000000200000000000000200000000000000020000004800000004400000000000800000000000000c000002000000000000000000000000000000000000000000000000000000000100000800000000010000000000000000000000000000000000000000000000000000000000008000000000000020000000000000000000000000000000000000001000000000000000000000000000002040000000000000000000000002000000000000000000000000000000810000000000000000000000000000000000000000010000000000000000000","miner":"0x0000000000000000000000000000000000000000","mixHash":"0x0000000000000000000000000000000000000000000000000000000000000000","nonce":"0x0000000000000000","number":"0xd00157","parentHash":"0x9374c0927771aed2c282bd5f56c2809a63dd20ca9d9e6a47090ac5726b78a385","receiptsRoot":"0xd883e32de2cd43129f241da6ca344b4f8118b7f7ad7d3eddc5528c9a615da9ac","sha3Uncles":"0x1dcc4de8dec75d7aab85b567b6ccd41ad312451b948a7413f0a142fd40d49347","size":"0x3d8","stateRoot":"0xfdfc907954e49a5f1de94bda7360cb7999113186c31d3c24c75975c541aa1dfa","timestamp":"0x65243d6d","totalDifficulty":"0x1a002af","transactions":[{"blockHash":"0x35d2ce381b9a2a53feed74409daa717fa860e6a908ab9ee06e46f8fe9a171d8c","blockNumber":"0xd00157","from":"0xf6ec591f45549239f585afd60ac98178f2b92b98","gas":"0x2147b","gasPrice":"0x2faf080","hash":"0xe51307ba8f69047904820457f0fbc9067cfbdb1e5a6e69cbec38a22aec4fe8fd","index":"0xd00156","input":"0x414bf389000000000000000000000000201eba5cc46d216ce6dc03f6a759e8e766e956ae00000000000000000000000009bc4e0d864854c6afb6eb9a9cdf58ac190d0df90000000000000000000000000000000000000000000000000000000000000064000000000000000000000000f6ec591f45549239f585afd60ac98178f2b92b980000000000000000000000000000000000000000000000000000000065243d8d0000000000000000000000000000000000000000000000000000000000111700000000000000000000000000000000000000000000000000000000000010c07d0000000000000000000000000000000000000000000000000000000000000000","l1BlockNumber":"0x11774d2","l1Timestamp":"0x65243d6d","l1TxOrigin":null,"nonce":"0xcb6","queueIndex":null,"queueOrigin":"sequencer","r":"0x96cbc661d18309e09705f414d5aa0f9ee6a601b2f52efda7d91150ba04bb7028","rawTransaction":"0xf9016e820cb68402faf0808302147b94319b69888b0d11cec22caa5034e25fffbdc8842180b90104414bf389000000000000000000000000201eba5cc46d216ce6dc03f6a759e8e766e956ae00000000000000000000000009bc4e0d864854c6afb6eb9a9cdf58ac190d0df90000000000000000000000000000000000000000000000000000000000000064000000000000000000000000f6ec591f45549239f585afd60ac98178f2b92b980000000000000000000000000000000000000000000000000000000065243d8d0000000000000000000000000000000000000000000000000000000000111700000000000000000000000000000000000000000000000000000000000010c07d0000000000000000000000000000000000000000000000000000000000000000822734a096cbc661d18309e09705f414d5aa0f9ee6a601b2f52efda7d91150ba04bb7028a03bd163e4c196ce8ba6374027f4aed22c0f72578e623f7d4fdedafee4e4582d2a","s":"0x3bd163e4c196ce8ba6374027f4aed22c0f72578e623f7d4fdedafee4e4582d2a","to":"0x319b69888b0d11cec22caa5034e25fffbdc88421","transactionIndex":"0x0","v":"0x2734","value":"0x0"}],"transactionsRoot":"0xae591c5417919966f4c3393223e438ef04b6d1f411f95b0b215f9869d2d02dbf","uncles":[]},"receipts":{"0xe51307ba8f69047904820457f0fbc9067cfbdb1e5a6e69cbec38a22aec4fe8fd":{"blockHash":"0x35d2ce381b9a2a53feed74409daa717fa860e6a908ab9ee06e46f8fe9a171d8c","blockNumber":"0xd00157","from":"0xf6ec591f45549239f585afd60ac98178f2b92b98","gas":"0x2147b","gasPrice":"0x2faf080","hash":"0xe51307ba8f69047904820457f0fbc9067cfbdb1e5a6e69cbec38a22aec4fe8fd","index":"0xd00156","input":"0x414bf389000000000000000000000000201eba5cc46d216ce6dc03f6a759e8e766e956ae00000000000000000000000009bc4e0d864854c6afb6eb9a9cdf58ac190d0df90000000000000000000000000000000000000000000000000000000000000064000000000000000000000000f6ec591f45549239f585afd60ac98178f2b92b980000000000000000000000000000000000000000000000000000000065243d8d0000000000000000000000000000000000000000000000000000000000111700000000000000000000000000000000000000000000000000000000000010c07d0000000000000000000000000000000000000000000000000000000000000000","l1BlockNumber":"0x11774d2","l1Timestamp":"0x65243d6d","l1TxOrigin":null,"nonce":"0xcb6","queueIndex":null,"queueOrigin":"sequencer","r":"0x96cbc661d18309e09705f414d5aa0f9ee6a601b2f52efda7d91150ba04bb7028","rawTransaction":"0xf9016e820cb68402faf0808302147b94319b69888b0d11cec22caa5034e25fffbdc8842180b90104414bf389000000000000000000000000201eba5cc46d216ce6dc03f6a759e8e766e956ae00000000000000000000000009bc4e0d864854c6afb6eb9a9cdf58ac190d0df90000000000000000000000000000000000000000000000000000000000000064000000000000000000000000f6ec591f45549239f585afd60ac98178f2b92b980000000000000000000000000000000000000000000000000000000065243d8d0000000000000000000000000000000000000000000000000000000000111700000000000000000000000000000000000000000000000000000000000010c07d0000000000000000000000000000000000000000000000000000000000000000822734a096cbc661d18309e09705f414d5aa0f9ee6a601b2f52efda7d91150ba04bb7028a03bd163e4c196ce8ba6374027f4aed22c0f72578e623f7d4fdedafee4e4582d2a","s":"0x3bd163e4c196ce8ba6374027f4aed22c0f72578e623f7d4fdedafee4e4582d2a","to":"0x319b69888b0d11cec22caa5034e25fffbdc88421","transactionIndex":"0x0","v":"0x2734","value":"0x0","contractAddress":null,"cumulativeGasUsed":"0x1fc7c","daFee":"0x0","daGasPrice":"0x0","daGasUsed":"0x12c","gasUsed":"0x1fc7c","l1Fee":"0x1a09f6380cb9fe0","l1FeeScalar":"1","l1GasPrice":"0x39ff1464e55c","l1GasUsed":"0x72f","logs":[{"address":"0x09bc4e0d864854c6afb6eb9a9cdf58ac190d0df9","blockHash":"0x35d2ce381b9a2a53feed74409daa717fa860e6a908ab9ee06e46f8fe9a171d8c","blockNumber":"0xd00157","data":"0x0000000000000000000000000000000000000000000000000000000000111803","logIndex":"0x0","removed":false,"topics":["0xddf252ad1be2c89b69c2b068fc378daa952ba7f163c4a11628f55a4df523b3ef","0x0000000000000000000000006488f911c6cd86c289aa319c5a826dcf8f1ca065","0x000000000000000000000000f6ec591f45549239f585afd60ac98178f2b92b98"],"transactionHash":"0xe51307ba8f69047904820457f0fbc9067cfbdb1e5a6e69cbec38a22aec4fe8fd","transactionIndex":"0x0"},{"address":"0x201eba5cc46d216ce6dc03f6a759e8e766e956ae","blockHash":"0x35d2ce381b9a2a53feed74409daa717fa860e6a908ab9ee06e46f8fe9a171d8c","blockNumber":"0xd00157","data":"0x0000000000000000000000000000000000000000000000000000000000111700","logIndex":"0x1","removed":false,"topics":["0xddf252ad1be2c89b69c2b068fc378daa952ba7f163c4a11628f55a4df523b3ef","0x000000000000000000000000f6ec591f45549239f585afd60ac98178f2b92b98","0x0000000000000000000000006488f911c6cd86c289aa319c5a826dcf8f1ca065"],"transactionHash":"0xe51307ba8f69047904820457f0fbc9067cfbdb1e5a6e69cbec38a22aec4fe8fd","transactionIndex":"0x0"},{"address":"0x201eba5cc46d216ce6dc03f6a759e8e766e956ae","blockHash":"0x35d2ce381b9a2a53feed74409daa717fa860e6a908ab9ee06e46f8fe9a171d8c","blockNumber":"0xd00157","data":"0xffffffffffffffffffffffffffffffffffffffffffffffffffffffffa94c90bf","logIndex":"0x2","removed":false,"topics":["0x8c5be1e5ebec7d5bd14f71427d1e84f3dd0314c0f7b2291e5b200ac8c7c3b925","0x000000000000000000000000f6ec591f45549239f585afd60ac98178f2b92b98","0x000000000000000000000000319b69888b0d11cec22caa5034e25fffbdc88421"],"transactionHash":"0xe51307ba8f69047904820457f0fbc9067cfbdb1e5a6e69cbec38a22aec4fe8fd","transactionIndex":"0x0"},{"address":"0x6488f911c6cd86c289aa319c5a826dcf8f1ca065","blockHash":"0x35d2ce381b9a2a53feed74409daa717fa860e6a908ab9ee06e46f8fe9a171d8c","blockNumber":"0xd00157","data":"0xffffffffffffffffffffffffffffffffffffffffffffffffffffffffffeee7fd00000000000000000000000000000000000000000000000000000000001117000000000000000000000000000000000000000000fff5209504e9c650f18faf170000000000000000000000000000000000000000000000000000aa91ae904e92fffffffffffffffffffffffffffffffffffffffffffffffffffffffffffffffc00000000000000000000000000000000000000000000000000000000000000000000000000000000000000000000000000000000000000000000000000000024","logIndex":"0x3","removed":false,"topics":["0x19b47279256b2a23a1665c810c8d55a1758940ee09377d4f8d26497a3577dc83","0x000000000000000000000000319b69888b0d11cec22caa5034e25fffbdc88421","0x000000000000000000000000f6ec591f45549239f585afd60ac98178f2b92b98"],"transactionHash":"0xe51307ba8f69047904820457f0fbc9067cfbdb1e5a6e69cbec38a22aec4fe8fd","transactionIndex":"0x0"}],"logsBloom":"0x0000000000000000000000000000000000004000000100880000000000000000000000000000000000000000000200000000000000200000000000000020000004800000004400000000000800000000000000c000002000000000000000000000000000000000000000000000000000000000100000800000000010000000000000000000000000000000000000000000000000000000000008000000000000020000000000000000000000000000000000000001000000000000000000000000000002040000000000000000000000002000000000000000000000000000000810000000000000000000000000000000000000000010000000000000000000","status":"0x1","transactionHash":"0xe51307ba8f69047904820457f0fbc9067cfbdb1e5a6e69cbec38a22aec4fe8fd"}}}