{"block":{"difficulty":"0x2","extraData":"0xd98301090a846765746889676f312e31352e3133856c696e7578000000000000e66530ac15ebd29e2a3863125b303e92332cd4ee443e0512291745cfa4cfe77a7911c32033d37bfe3150cf761a2d402b814b338f614305c415463a6a6d3ebf4a00","gasLimit":"0x1c9c380","gasUsed":"0x1fc88","hash":"0xb816b4968ce5b05959f6324677770d2d8717735434dc25d7c0da3b982f4d7e1c","logsBloom":"0x0000000000000000000000000000000000004000000100880000000000000000000000000000000000000000000200000000000000200800000000000020000004800000004400000000000800000000000000c000002000000000000000000000000000000000000000000000000000000000100000800000000810000000000000000000000000000000000000000000000000020000000000000000000000020000000000000000000000000000000000000001000000000000000000000000000002000000000000000000000000002000000000000000000000000000000010000000000000000000000000000000000000000010000000000000000000","miner":"0x0000000000000000000000000000000000000000","mixHash":"0x0000000000000000000000000000000000000000000000000000000000000000","nonce":"0x0000000000000000","number":"0xcff393","parentHash":"0x0b0f7c667fe9b5177fe82ab836167de77e343b1ec439bfb3996e3e0bb6ba11ef","receiptsRoot":"0xb3535349c1b991d754413d0f5a1b2127afdd1422e9277d370d8974e3efa47ef4","sha3Uncles":"0x1dcc4de8dec75d7aab85b567b6ccd41ad312451b948a7413f0a142fd40d49347","size":"0x3d8","stateRoot":"0x2301525a153a346c337ad6dca75b39a3612ac75a360bc5060974efdfaa22df2f","timestamp":"0x65243743","totalDifficulty":"0x19fe727","transactions":[{"blockHash":"0xb816b4968ce5b05959f6324677770d2d8717735434dc25d7c0da3b982f4d7e1c","blockNumber":"0xcff393","from":"0xb6c3c2324952b4a8f6c74a8cd86f36cd0cca829a","gas":"0x21487","gasPrice":"0x2faf080","hash":"0x0b57a2938a2b797725d8b605f3093f36b943bc57d56bdbb4ca848ea50c4bfb5c","index":"0xcff392","input":"0x414bf389000000000000000000000000201eba5cc46d216ce6dc03f6a759e8e766e956ae00000000000000000000000009bc4e0d864854c6afb6eb9a9cdf58ac190d0df90000000000000000000000000000000000000000000000000000000000000064000000000000000000000000b6c3c2324952b4a8f6c74a8cd86f36cd0cca829a000000000000000000000000000000000000000000000000000000006524376500000000000000000000000000000000000000000000000000000000000f1b3000000000000000000000000000000000000000000000000000000000000eceb90000000000000000000000000000000000000000000000000000000000000000","l1BlockNumber":"0x117744e","l1Timestamp":"0x65243743","l1TxOrigin":null,"nonce":"0x8f2","queueIndex":null,"queueOrigin":"sequencer","r":"0x3c2f36758a6e384f16800cb37047c7efa57789e80ace7c57afa132d9ea411b4b","rawTransaction":"0xf9016e8208f28402faf0808302148794319b69888b0d11cec22caa5034e25fffbdc8842180b90104414bf389000000000000000000000000201eba5cc46d216ce6dc03f6a759e8e766e956ae00000000000000000000000009bc4e0d864854c6afb6eb9a9cdf58ac190d0df90000000000000000000000000000000000000000000000000000000000000064000000000000000000000000b6c3c2324952b4a8f6c74a8cd86f36cd0cca829a000000000000000000000000000000000000000000000000000000006524376500000000000000000000000000000000000000000000000000000000000f1b3000000000000000000000000000000000000000000000000000000000000eceb90000000000000000000000000000000000000000000000000000000000000000822733a03c2f36758a6e384f16800cb37047c7efa57789e80ace7c57afa132d9ea411b4ba002c6a4fdc7c5092760f5733e35d425ff991089676a6faacc80913600a59d12ba","s":"0x2c6a4fdc7c5092760f5733e35d425ff991089676a6faacc80913600a59d12ba","to":"0x319b69888b0d11cec22caa5034e25fffbdc88421","transactionIndex":"0x0","v":"0x2733","value":"0x0"}],"transactionsRoot":"0x1f1f31a7de50c33ac21db4e54c425e1c47b1d4098857ea6888f3d02b1e3a76e5","uncles":[]},"receipts":{"0x0b57a2938a2b797725d8b605f3093f36b943bc57d56bdbb4ca848ea50c4bfb5c":{"blockHash":"0xb816b4968ce5b05959f6324677770d2d8717735434dc25d7c0da3b982f4d7e1c","blockNumber":"0xcff393","from":"0xb6c3c2324952b4a8f6c74a8cd86f36cd0cca829a","gas":"0x21487","gasPrice":"0x2faf080","hash":"0x0b57a2938a2b797725d8b605f3093f36b943bc57d56bdbb4ca848ea50c4bfb5c","index":"0xcff392","input":"0x414bf389000000000000000000000000201eba5cc46d216ce6dc03f6a759e8e766e956ae00000000000000000000000009bc4e0d864854c6afb6eb9a9cdf58ac190d0df90000000000000000000000000000000000000000000000000000000000000064000000000000000000000000b6c3c2324952b4a8f6c74a8cd86f36cd0cca829a000000000000000000000000000000000000000000000000000000006524376500000000000000000000000000000000000000000000000000000000000f1b3000000000000000000000000000000000000000000000000000000000000eceb90000000000000000000000000000000000000000000000000000000000000000","l1BlockNumber":"0x117744e","l1Timestamp":"0x65243743","l1TxOrigin":null,"nonce":"0x8f2","queueIndex":null,"queueOrigin":"sequencer","r":"0x3c2f36758a6e384f16800cb37047c7efa57789e80ace7c57afa132d9ea411b4b","rawTransaction":"0xf9016e8208f28402faf0808302148794319b69888b0d11cec22caa5034e25fffbdc8842180b90104414bf389000000000000000000000000201eba5cc46d216ce6dc03f6a759e8e766e956ae00000000000000000000000009bc4e0d864854c6afb6eb9a9cdf58ac190d0df90000000000000000000000000000000000000000000000000000000000000064000000000000000000000000b6c3c2324952b4a8f6c74a8cd86f36cd0cca829a000000000000000000000000000000000000000000000000000000006524376500000000000000000000000000000000000000000000000000000000000f1b3000000000000000000000000000000000000000000000000000000000000eceb90000000000000000000000000000000000000000000000000000000000000000822733a03c2f36758a6e384f16800cb37047c7efa57789e80ace7c57afa132d9ea411b4ba002c6a4fdc7c5092760f5733e35d425ff991089676a6faacc80913600a59d12ba","s":"0x2c6a4fdc7c5092760f5733e35d425ff991089676a6faacc80913600a59d12ba","to":"0x319b69888b0d11cec22caa5034e25fffbdc88421","transactionIndex":"0x0","v":"0x2733","value":"0x0","contractAddress":null,"cumulativeGasUsed":"0x1fc88","daFee":"0x0","daGasPrice":"0x0","daGasUsed":"0x12c","gasUsed":"0x1fc88","l1Fee":"0x1c5145ff7a866d0","l1FeeScalar":"1","l1GasPrice":"0x3f1249c65230","l1GasUsed":"0x72f","logs":[{"address":"0x09bc4e0d864854c6afb6eb9a9cdf58ac190d0df9","blockHash":"0xb816b4968ce5b05959f6324677770d2d8717735434dc25d7c0da3b982f4d7e1c","blockNumber":"0xcff393","data":"0x00000000000000000000000000000000000000000000000000000000000f1c16","logIndex":"0x0","removed":false,"topics":["0xddf252ad1be2c89b69c2b068fc378daa952ba7f163c4a11628f55a4df523b3ef","0x0000000000000000000000006488f911c6cd86c289aa319c5a826dcf8f1ca065","0x000000000000000000000000b6c3c2324952b4a8f6c74a8cd86f36cd0cca829a"],"transactionHash":"0x0b57a2938a2b797725d8b605f3093f36b943bc57d56bdbb4ca848ea50c4bfb5c","transactionIndex":"0x0"},{"address":"0x201eba5cc46d216ce6dc03f6a759e8e766e956ae","blockHash":"0xb816b4968ce5b05959f6324677770d2d8717735434dc25d7c0da3b982f4d7e1c","blockNumber":"0xcff393","data":"0x00000000000000000000000000000000000000000000000000000000000f1b30","logIndex":"0x1","removed":false,"topics":["0xddf252ad1be2c89b69c2b068fc378daa952ba7f163c4a11628f55a4df523b3ef","0x000000000000000000000000b6c3c2324952b4a8f6c74a8cd86f36cd0cca829a","0x0000000000000000000000006488f911c6cd86c289aa319c5a826dcf8f1ca065"],"transactionHash":"0x0b57a2938a2b797725d8b605f3093f36b943bc57d56bdbb4ca848ea50c4bfb5c","transactionIndex":"0x0"},{"address":"0x201eba5cc46d216ce6dc03f6a759e8e766e956ae","blockHash":"0xb816b4968ce5b05959f6324677770d2d8717735434dc25d7c0da3b982f4d7e1c","blockNumber":"0xcff393","data":"0xffffffffffffffffffffffffffffffffffffffffffffffffffffffffc6f5a4df","logIndex":"0x2","removed":false,"topics":["0x8c5be1e5ebec7d5bd14f71427d1e84f3dd0314c0f7b2291e5b200ac8c7c3b925","0x000000000000000000000000b6c3c2324952b4a8f6c74a8cd86f36cd0cca829a","0x000000000000000000000000319b69888b0d11cec22caa5034e25fffbdc88421"],"transactionHash":"0x0b57a2938a2b797725d8b605f3093f36b943bc57d56bdbb4ca848ea50c4bfb5c","transactionIndex":"0x0"},{"address":"0x6488f911c6cd86c289aa319c5a826dcf8f1ca065","blockHash":"0xb816b4968ce5b05959f6324677770d2d8717735434dc25d7c0da3b982f4d7e1c","blockNumber":"0xcff393","data":"0xfffffffffffffffffffffffffffffffffffffffffffffffffffffffffff0e3ea00000000000000000000000000000000000000000000000000000000000f1b300000000000000000000000000000000000000000fff5186af331709179b5ed1d0000000000000000000000000000000000000000000000000000aa91ae904e92fffffffffffffffffffffffffffffffffffffffffffffffffffffffffffffffc00000000000000000000000000000000000000000000000000000000000000000000000000000000000000000000000000000000000000000000000000000020","logIndex":"0x3","removed":false,"topics":["0x19b47279256b2a23a1665c810c8d55a1758940ee09377d4f8d26497a3577dc83","0x000000000000000000000000319b69888b0d11cec22caa5034e25fffbdc88421","0x000000000000000000000000b6c3c2324952b4a8f6c74a8cd86f36cd0cca829a"],"transactionHash":"0x0b57a2938a2b797725d8b605f3093f36b943bc57d56bdbb4ca848ea50c4bfb5c","transactionIndex":"0x0"}],"logsBloom":"0x0000000000000000000000000000000000004000000100880000000000000000000000000000000000000000000200000000000000200800000000000020000004800000004400000000000800000000000000c000002000000000000000000000000000000000000000000000000000000000100000800000000810000000000000000000000000000000000000000000000000020000000000000000000000020000000000000000000000000000000000000001000000000000000000000000000002000000000000000000000000002000000000000000000000000000000010000000000000000000000000000000000000000010000000000000000000","status":"0x1","transactionHash":"0x0b57a2938a2b797725d8b605f3093f36b943bc57d56bdbb4ca848ea50c4bfb5c"}}}