{"block":{"difficulty":"0x2","extraData":"0xd98301090a846765746889676f312e31352e3133856c696e757800000000000002e7b928ab82df651e65d31b0c09f0d767d6a5637e3959e0fb44742ea6e6a87b5b6f2c3aef74e458f7b6f7d20ea39aae94cdd4d88c5f5ba84ac84444a1b0e79b01","gasLimit":"0x1c9c380","gasUsed":"0x23bb1","hash":"0x1c04499dc7da29bfde17ae406d8082f5c0fca7c60b65e158cdd3947a80fec00f","logsBloom":"0x00000000000001000000000001002000000020000001000000000000000000001000000000000000000000000000000020000100000000040080000800200080000000000000000000000008004000000000008000002000200000000000000000000000000000000000000100000000000000000000000000000010004000004140000000000000000000000000000000000000004000000000000000000000020009000000000000000000000000000000000001000000000100000000000000000002000000000000000000000000000000000000000000000000000000000010000000001004000000000000000000002020000000000000000000000000","miner":"0x0000000000000000000000000000000000000000","mixHash":"0x0000000000000000000000000000000000000000000000000000000000000000","nonce":"0x0000000000000000","number":"0xd0030c","parentHash":"0x5765aa3874ede904473bfe77694bd476c6c8606a53834cb42a8215caf0d49650","receiptsRoot":"0xe86f1b316bcf889c80bdb80823809b5ce154fbfc8ba779ed9bc623e2171bc728","sha3Uncles":"0x1dcc4de8dec75d7aab85b567b6ccd41ad312451b948a7413f0a142fd40d49347","size":"0x3f8","stateRoot":"0x7a782d1027c1d5269156758be4b15d9f63225515cafc8c6496ad560038052d5d","timestamp":"0x65243e5c","totalDifficulty":"0x1a00619","transactions":[{"blockHash":"0x1c04499dc7da29bfde17ae406d8082f5c0fca7c60b65e158cdd3947a80fec00f","blockNumber":"0xd0030c","from":"0xd1e9b1140eac0516e6e199137b40896b24e42e86","gas":"0x2542f","gasPrice":"0x2faf080","hash":"0xa17e581439084ff401abdf01c815369ca2220f96c4a2f375dc2dbcae9c940740","index":"0xd0030b","input":"0x75ceafe6000000000000000000000000000000000000000000000000000000000000002000000000000000000000000000000000000000000000000000000000000000a0000000000000000000000000d1e9b1140eac0516e6e199137b40896b24e42e860000000000000000000000000000000000000000000000000001d8efef48800000000000000000000000000000000000000000000000000000000000000c35e60000000000000000000000000000000000000000000000000000000065243e7a000000000000000000000000000000000000000000000000000000000000002bdeaddeaddeaddeaddeaddeaddeaddeaddead1111000bb8201eba5cc46d216ce6dc03f6a759e8e766e956ae000000000000000000000000000000000000000000","l1BlockNumber":"0x11774e5","l1Timestamp":"0x65243e5c","l1TxOrigin":null,"nonce":"0xe86","queueIndex":null,"queueOrigin":"sequencer","r":"0x52f1f919cd2ab9424e957e69a34b5678f9559f2a8cdabe78bb494ab9f0cf6947","rawTransaction":"0xf9018e820e868402faf0808302542f9425c030116feb2e7bba054b9de0915e5f51b03e3180b9012475ceafe6000000000000000000000000000000000000000000000000000000000000002000000000000000000000000000000000000000000000000000000000000000a0000000000000000000000000d1e9b1140eac0516e6e199137b40896b24e42e860000000000000000000000000000000000000000000000000001d8efef48800000000000000000000000000000000000000000000000000000000000000c35e60000000000000000000000000000000000000000000000000000000065243e7a000000000000000000000000000000000000000000000000000000000000002bdeaddeaddeaddeaddeaddeaddeaddeaddead1111000bb8201eba5cc46d216ce6dc03f6a759e8e766e956ae000000000000000000000000000000000000000000822734a052f1f919cd2ab9424e957e69a34b5678f9559f2a8cdabe78bb494ab9f0cf6947a01354229704a577f24ed23be7d3bb0bbdf2db0d25f9459162be1948cc8953c807","s":"0x1354229704a577f24ed23be7d3bb0bbdf2db0d25f9459162be1948cc8953c807","to":"0x25c030116feb2e7bba054b9de0915e5f51b03e31","transactionIndex":"0x0","v":"0x2734","value":"0x0"}],"transactionsRoot":"0xa6532dae7d7f9d581c384e7a643152017f830a965f6d008cae111ae5d1bf244a","uncles":[]},"receipts":{"0xa17e581439084ff401abdf01c815369ca2220f96c4a2f375dc2dbcae9c940740":{"blockHash":"0x1c04499dc7da29bfde17ae406d8082f5c0fca7c60b65e158cdd3947a80fec00f","blockNumber":"0xd0030c","from":"0xd1e9b1140eac0516e6e199137b40896b24e42e86","gas":"0x2542f","gasPrice":"0x2faf080","hash":"0xa17e581439084ff401abdf01c815369ca2220f96c4a2f375dc2dbcae9c940740","index":"0xd0030b","input":"0x75ceafe6000000000000000000000000000000000000000000000000000000000000002000000000000000000000000000000000000000000000000000000000000000a0000000000000000000000000d1e9b1140eac0516e6e199137b40896b24e42e860000000000000000000000000000000000000000000000000001d8efef48800000000000000000000000000000000000000000000000000000000000000c35e60000000000000000000000000000000000000000000000000000000065243e7a000000000000000000000000000000000000000000000000000000000000002bdeaddeaddeaddeaddeaddeaddeaddeaddead1111000bb8201eba5cc46d216ce6dc03f6a759e8e766e956ae000000000000000000000000000000000000000000","l1BlockNumber":"0x11774e5","l1Timestamp":"0x65243e5c","l1TxOrigin":null,"nonce":"0xe86","queueIndex":null,"queueOrigin":"sequencer","r":"0x52f1f919cd2ab9424e957e69a34b5678f9559f2a8cdabe78bb494ab9f0cf6947","rawTransaction":"0xf9018e820e868402faf0808302542f9425c030116feb2e7bba054b9de0915e5f51b03e3180b9012475ceafe6000000000000000000000000000000000000000000000000000000000000002000000000000000000000000000000000000000000000000000000000000000a0000000000000000000000000d1e9b1140eac0516e6e199137b40896b24e42e860000000000000000000000000000000000000000000000000001d8efef48800000000000000000000000000000000000000000000000000000000000000c35e60000000000000000000000000000000000000000000000000000000065243e7a000000000000000000000000000000000000000000000000000000000000002bdeaddeaddeaddeaddeaddeaddeaddeaddead1111000bb8201eba5cc46d216ce6dc03f6a759e8e766e956ae000000000000000000000000000000000000000000822734a052f1f919cd2ab9424e957e69a34b5678f9559f2a8cdabe78bb494ab9f0cf6947a01354229704a577f24ed23be7d3bb0bbdf2db0d25f9459162be1948cc8953c807","s":"0x1354229704a577f24ed23be7d3bb0bbdf2db0d25f9459162be1948cc8953c807","to":"0x25c030116feb2e7bba054b9de0915e5f51b03e31","transactionIndex":"0x0","v":"0x2734","value":"0x0","contractAddress":null,"cumulativeGasUsed":"0x23bb1","daFee":"0x0","daGasPrice":"0x0","daGasUsed":"0x14c","gasUsed":"0x23bb1","l1Fee":"0x19709d787180660","l1FeeScalar":"1","l1GasPrice":"0x38a987f04864","l1GasUsed":"0x72f","logs":[{"address":"0x201eba5cc46d216ce6dc03f6a759e8e766e956ae","blockHash":"0x1c04499dc7da29bfde17ae406d8082f5c0fca7c60b65e158cdd3947a80fec00f","blockNumber":"0xd0030c","data":"0x00000000000000000000000000000000000000000000000000000000000c75b2","logIndex":"0x0","removed":false,"topics":["0xddf252ad1be2c89b69c2b068fc378daa952ba7f163c4a11628f55a4df523b3ef","0x000000000000000000000000be18aad013699c1cdd903cb3e6d596ef99c37650","0x000000000000000000000000d1e9b1140eac0516e6e199137b40896b24e42e86"],"transactionHash":"0xa17e581439084ff401abdf01c815369ca2220f96c4a2f375dc2dbcae9c940740","transactionIndex":"0x0"},{"address":"0xdeaddeaddeaddeaddeaddeaddeaddeaddead1111","blockHash":"0x1c04499dc7da29bfde17ae406d8082f5c0fca7c60b65e158cdd3947a80fec00f","blockNumber":"0xd0030c","data":"0x0000000000000000000000000000000000000000000000000001d8efef4836ba","logIndex":"0x1","removed":false,"topics":["0xddf252ad1be2c89b69c2b068fc378daa952ba7f163c4a11628f55a4df523b3ef","0x000000000000000000000000d1e9b1140eac0516e6e199137b40896b24e42e86","0x000000000000000000000000be18aad013699c1cdd903cb3e6d596ef99c37650"],"transactionHash":"0xa17e581439084ff401abdf01c815369ca2220f96c4a2f375dc2dbcae9c940740","transactionIndex":"0x0"},{"address":"0xdeaddeaddeaddeaddeaddeaddeaddeaddead1111","blockHash":"0x1c04499dc7da29bfde17ae406d8082f5c0fca7c60b65e158cdd3947a80fec00f","blockNumber":"0xd0030c","data":"0xffffffffffffffffffffffffffffffffffffffffffffffffffa89efa51c784ba","logIndex":"0x2","removed":false,"topics":["0x8c5be1e5ebec7d5bd14f71427d1e84f3dd0314c0f7b2291e5b200ac8c7c3b925","0x000000000000000000000000d1e9b1140eac0516e6e199137b40896b24e42e86","0x00000000000000000000000025c030116feb2e7bba054b9de0915e5f51b03e31"],"transactionHash":"0xa17e581439084ff401abdf01c815369ca2220f96c4a2f375dc2dbcae9c940740","transactionIndex":"0x0"},{"address":"0xbe18aad013699c1cdd903cb3e6d596ef99c37650","blockHash":"0x1c04499dc7da29bfde17ae406d8082f5c0fca7c60b65e158cdd3947a80fec00f","blockNumber":"0xd0030c","data":"0x000000000000000000000000000000000000000000000000000000000000000000000000000000000000000000000000000000000000000000000000000c75b20000000000000000000000000000000000000000000000000001d8efef4836ba00000000000000000000000000000000000000000000000000000000000317cc","logIndex":"0x3","removed":false,"topics":["0x0fe977d619f8172f7fdbe8bb8928ef80952817d96936509f67d66346bc4cd10f","0x000000000000000000000000201eba5cc46d216ce6dc03f6a759e8e766e956ae","0x000000000000000000000000deaddeaddeaddeaddeaddeaddeaddeaddead1111","0x0000000000000000000000000000000000000000000000000000000000000bb8"],"transactionHash":"0xa17e581439084ff401abdf01c815369ca2220f96c4a2f375dc2dbcae9c940740","transactionIndex":"0x0"}],"logsBloom":"0x00000000000001000000000001002000000020000001000000000000000000001000000000000000000000000000000020000100000000040080000800200080000000000000000000000008004000000000008000002000200000000000000000000000000000000000000100000000000000000000000000000010004000004140000000000000000000000000000000000000004000000000000000000000020009000000000000000000000000000000000001000000000100000000000000000002000000000000000000000000000000000000000000000000000000000010000000001004000000000000000000002020000000000000000000000000","status":"0x1","transactionHash":"0xa17e581439084ff401abdf01c815369ca2220f96c4a2f375dc2dbcae9c940740"}}}