{"block":{"difficulty":"0x2","extraData":"0xd98301090a846765746889676f312e31352e3133856c696e757800000000000011582c6a118040464890995e83d10605e9cb8dbb2420b30667968f7dc912d43022d7fc30fca2c8d8be8af5c4e91e993157e7f2c69c85ff1327a2fad9b60741fa00","gasLimit":"0x1c9c380","gasUsed":"0x1ea53","hash":"0xf2ffaa0150dd93c286cdfc5f9039839918dee5e1533ed751206ae4a52d226561","logsBloom":"0x00000000000000000000000000000100000000000001008800000800000000000000000000000000000000000002000000000000000000000000000000200000040000000040000000000008001000404000008000002000000000000000000000000000000000000000000100000000000000000000000000000012800800000000000000000000020000000000000000000000000000000000000000000000020000000000000000000000000000000000000001000000000040000000000000000002000000000000000000000000000000000000000000000000000000000010000000000000000000000000000000000000000000000200000000000000","miner":"0x0000000000000000000000000000000000000000","mixHash":"0x0000000000000000000000000000000000000000000000000000000000000000","nonce":"0x0000000000000000","number":"0xd00328","parentHash":"0xf0ffe7b0d82557b35e0b9aa6e0ccb871d873e7566dd2b01131e8d8f69887a4de","receiptsRoot":"0xd8ec4bc635377b65825de9767a29af99a4b579c86e3a5a461bba53258c77985e","sha3Uncles":"0x1dcc4de8dec75d7aab85b567b6ccd41ad312451b948a7413f0a142fd40d49347","size":"0x3d9","stateRoot":"0xe36acdd73922a43e5e36bd2c97ec8e67332ff33b1c90c438fb53ae136d76551a","timestamp":"0x65243e61","totalDifficulty":"0x1a00651","transactions":[{"blockHash":"0xf2ffaa0150dd93c286cdfc5f9039839918dee5e1533ed751206ae4a52d226561","blockNumber":"0xd00328","from":"0xdff45a3a21f00f7edfb28816e8589c337421cc91","gas":"0xf4240","gasPrice":"0x69f4060","hash":"0xb43d1d879d12eb3545176c94ddaf7af79aa9e19c14f4c90f3abb6cd4df6b5cc9","index":"0xd00327","input":"0xdb3e2198000000000000000000000000201eba5cc46d216ce6dc03f6a759e8e766e956ae000000000000000000000000cabae6f6ea1ecab08ad02fe02ce9a44f09aebfa200000000000000000000000000000000000000000000000000000000000009c4000000000000000000000000dff45a3a21f00f7edfb28816e8589c337421cc91000000000000000000000000000000000000000000000000000002c726d6b62800000000000000000000000000000000000000000000000000000000000f424000000000000000000000000000000000000000000000000000000000106f76d100000000000000000000000000000000000000000eb2fe5ac71291c62ba69533","l1BlockNumber":"0x11774e6","l1Timestamp":"0x65243e61","l1TxOrigin":null,"nonce":"0x2adf6","queueIndex":null,"queueOrigin":"sequencer","r":"0x9e574220bf5fcebc26001a676ae14fed9086f1288d0eb97a93b09085571a7ace","rawTransaction":"0xf9016f8302adf684069f4060830f424094319b69888b0d11cec22caa5034e25fffbdc8842180b90104db3e2198000000000000000000000000201eba5cc46d216ce6dc03f6a759e8e766e956ae000000000000000000000000cabae6f6ea1ecab08ad02fe02ce9a44f09aebfa200000000000000000000000000000000000000000000000000000000000009c4000000000000000000000000dff45a3a21f00f7edfb28816e8589c337421cc91000000000000000000000000000000000000000000000000000002c726d6b62800000000000000000000000000000000000000000000000000000000000f424000000000000000000000000000000000000000000000000000000000106f76d100000000000000000000000000000000000000000eb2fe5ac71291c62ba69533822733a09e574220bf5fcebc26001a676ae14fed9086f1288d0eb97a93b09085571a7acea06f70f9919e180d2ad49a7e513244eab959983876a650076ae72ba151b91c7714","s":"0x6f70f9919e180d2ad49a7e513244eab959983876a650076ae72ba151b91c7714","to":"0x319b69888b0d11cec22caa5034e25fffbdc88421","transactionIndex":"0x0","v":"0x2733","value":"0x0"}],"transactionsRoot":"0x986795fc2a1865e7421fca016c9712a0a5dfb4fed40437b0a9f88b86384bca7b","uncles":[]},"receipts":{"0xb43d1d879d12eb3545176c94ddaf7af79aa9e19c14f4c90f3abb6cd4df6b5cc9":{"blockHash":"0xf2ffaa0150dd93c286cdfc5f9039839918dee5e1533ed751206ae4a52d226561","blockNumber":"0xd00328","from":"0xdff45a3a21f00f7edfb28816e8589c337421cc91","gas":"0xf4240","gasPrice":"0x69f4060","hash":"0xb43d1d879d12eb3545176c94ddaf7af79aa9e19c14f4c90f3abb6cd4df6b5cc9","index":"0xd00327","input":"0xdb3e2198000000000000000000000000201eba5cc46d216ce6dc03f6a759e8e766e956ae000000000000000000000000cabae6f6ea1ecab08ad02fe02ce9a44f09aebfa200000000000000000000000000000000000000000000000000000000000009c4000000000000000000000000dff45a3a21f00f7edfb28816e8589c337421cc91000000000000000000000000000000000000000000000000000002c726d6b62800000000000000000000000000000000000000000000000000000000000f424000000000000000000000000000000000000000000000000000000000106f76d100000000000000000000000000000000000000000eb2fe5ac71291c62ba69533","l1BlockNumber":"0x11774e6","l1Timestamp":"0x65243e61","l1TxOrigin":null,"nonce":"0x2adf6","queueIndex":null,"queueOrigin":"sequencer","r":"0x9e574220bf5fcebc26001a676ae14fed9086f1288d0eb97a93b09085571a7ace","rawTransaction":"0xf9016f8302adf684069f4060830f424094319b69888b0d11cec22caa5034e25fffbdc8842180b90104db3e2198000000000000000000000000201eba5cc46d216ce6dc03f6a759e8e766e956ae000000000000000000000000cabae6f6ea1ecab08ad02fe02ce9a44f09aebfa200000000000000000000000000000000000000000000000000000000000009c4000000000000000000000000dff45a3a21f00f7edfb28816e8589c337421cc91000000000000000000000000000000000000000000000000000002c726d6b62800000000000000000000000000000000000000000000000000000000000f424000000000000000000000000000000000000000000000000000000000106f76d100000000000000000000000000000000000000000eb2fe5ac71291c62ba69533822733a09e574220bf5fcebc26001a676ae14fed9086f1288d0eb97a93b09085571a7acea06f70f9919e180d2ad49a7e513244eab959983876a650076ae72ba151b91c7714","s":"0x6f70f9919e180d2ad49a7e513244eab959983876a650076ae72ba151b91c7714","to":"0x319b69888b0d11cec22caa5034e25fffbdc88421","transactionIndex":"0x0","v":"0x2733","value":"0x0","contractAddress":null,"cumulativeGasUsed":"0x1ea53","daFee":"0x0","daGasPrice":"0x0","daGasUsed":"0x12d","gasUsed":"0x1ea53","l1Fee":"0x19709d787180660","l1FeeScalar":"1","l1GasPrice":"0x38a987f04864","l1GasUsed":"0x72f","logs":[{"address":"0xcabae6f6ea1ecab08ad02fe02ce9a44f09aebfa2","blockHash":"0xf2ffaa0150dd93c286cdfc5f9039839918dee5e1533ed751206ae4a52d226561","blockNumber":"0xd00328","data":"0x00000000000000000000000000000000000000000000000000000000000f4240","logIndex":"0x0","removed":false,"topics":["0xddf252ad1be2c89b69c2b068fc378daa952ba7f163c4a11628f55a4df523b3ef","0x00000000000000000000000002910f26f7039d5df12a1dd292a96c950f4cf9c9","0x000000000000000000000000dff45a3a21f00f7edfb28816e8589c337421cc91"],"transactionHash":"0xb43d1d879d12eb3545176c94ddaf7af79aa9e19c14f4c90f3abb6cd4df6b5cc9","transactionIndex":"0x0"},{"address":"0x201eba5cc46d216ce6dc03f6a759e8e766e956ae","blockHash":"0xf2ffaa0150dd93c286cdfc5f9039839918dee5e1533ed751206ae4a52d226561","blockNumber":"0xd00328","data":"0x00000000000000000000000000000000000000000000000000000000106ed546","logIndex":"0x1","removed":false,"topics":["0xddf252ad1be2c89b69c2b068fc378daa952ba7f163c4a11628f55a4df523b3ef","0x000000000000000000000000dff45a3a21f00f7edfb28816e8589c337421cc91","0x00000000000000000000000002910f26f7039d5df12a1dd292a96c950f4cf9c9"],"transactionHash":"0xb43d1d879d12eb3545176c94ddaf7af79aa9e19c14f4c90f3abb6cd4df6b5cc9","transactionIndex":"0x0"},{"address":"0x201eba5cc46d216ce6dc03f6a759e8e766e956ae","blockHash":"0xf2ffaa0150dd93c286cdfc5f9039839918dee5e1533ed751206ae4a52d226561","blockNumber":"0xd00328","data":"0x000000000000000000000000000000000000000000000000002370c9d76e5a09","logIndex":"0x2","removed":false,"topics":["0x8c5be1e5ebec7d5bd14f71427d1e84f3dd0314c0f7b2291e5b200ac8c7c3b925","0x000000000000000000000000dff45a3a21f00f7edfb28816e8589c337421cc91","0x000000000000000000000000319b69888b0d11cec22caa5034e25fffbdc88421"],"transactionHash":"0xb43d1d879d12eb3545176c94ddaf7af79aa9e19c14f4c90f3abb6cd4df6b5cc9","transactionIndex":"0x0"},{"address":"0x02910f26f7039d5df12a1dd292a96c950f4cf9c9","blockHash":"0xf2ffaa0150dd93c286cdfc5f9039839918dee5e1533ed751206ae4a52d226561","blockNumber":"0xd00328","data":"0x00000000000000000000000000000000000000000000000000000000106ed546fffffffffffffffffffffffffffffffffffffffffffffffffffffffffff0bdc000000000000000000000000000000000000000000f6f63ce25245d88891c04100000000000000000000000000000000000000000000000000000000ef9754ccaffffffffffffffffffffffffffffffffffffffffffffffffffffffffffff24920000000000000000000000000000000000000000000000000000000000035d8f0000000000000000000000000000000000000000000000000000000000000000","logIndex":"0x3","removed":false,"topics":["0x19b47279256b2a23a1665c810c8d55a1758940ee09377d4f8d26497a3577dc83","0x000000000000000000000000319b69888b0d11cec22caa5034e25fffbdc88421","0x000000000000000000000000dff45a3a21f00f7edfb28816e8589c337421cc91"],"transactionHash":"0xb43d1d879d12eb3545176c94ddaf7af79aa9e19c14f4c90f3abb6cd4df6b5cc9","transactionIndex":"0x0"}],"logsBloom":"0x00000000000000000000000000000100000000000001008800000800000000000000000000000000000000000002000000000000000000000000000000200000040000000040000000000008001000404000008000002000000000000000000000000000000000000000000100000000000000000000000000000012800800000000000000000000020000000000000000000000000000000000000000000000020000000000000000000000000000000000000001000000000040000000000000000002000000000000000000000000000000000000000000000000000000000010000000000000000000000000000000000000000000000200000000000000","status":"0x1","transactionHash":"0xb43d1d879d12eb3545176c94ddaf7af79aa9e19c14f4c90f3abb6cd4df6b5cc9"}}}