{"block":{"difficulty":"0x2","extraData":"0xd98301090a846765746889676f312e31352e3133856c696e7578000000000000a944d17b1e84716ac4ef42ad2d4559c264b7b2859a2ca77a8091c509180a7be7799991a9702cd9688e796d80d66a6e8d08d58c95807081e6411a29caf453f10c01","gasLimit":"0x1c9c380","gasUsed":"0x2394c","hash":"0x9540c73ba94a05526822c61f77926fa4310a7f339586c978c72b93d81d34c033","logsBloom":"0x00000000000000000000000000000000000000000001001000000000000000000800000000000000000000000002000000000000000000000000000000200000040000000040000100000408000000000000008000002000000000000000000000000000000000000000000100000000000000000000000000000010000000000000000000000000000000000000040000020000000000000000000040000000020000000000000000000000000000000000000000000000004100000000000000000002000000000000000000000000000000000100000000000000000000000014000000001000000000000000004000000000000000000000001000000000","miner":"0x0000000000000000000000000000000000000000","mixHash":"0x0000000000000000000000000000000000000000000000000000000000000000","nonce":"0x0000000000000000","number":"0xd000e4","parentHash":"0xec3482574e2c4bba48f5381e9c99277db2616923df1b78af54dd0ea6098b8949","receiptsRoot":"0x371448c13239fe430ae4b6b82ef344aae412c9333e2096957286db31341c0f77","sha3Uncles":"0x1dcc4de8dec75d7aab85b567b6ccd41ad312451b948a7413f0a142fd40d49347","size":"0x3d8","stateRoot":"0xb4139304288e2c7d616705bc0353c218ee14c9ab04f03f5cdb7ddd13992bf9ac","timestamp":"0x65243d2f","totalDifficulty":"0x1a001c9","transactions":[{"blockHash":"0x9540c73ba94a05526822c61f77926fa4310a7f339586c978c72b93d81d34c033","blockNumber":"0xd000e4","from":"0xf42e5d8996dda039fb88bbdc67d2e6c5080d5b22","gas":"0x2524f","gasPrice":"0x2faf080","hash":"0x08ec6633cb8d7ec76ea663274f18df2e6e20fa238b3eb8833590c66e0f62d529","index":"0xd000e3","input":"0x414bf389000000000000000000000000201eba5cc46d216ce6dc03f6a759e8e766e956ae000000000000000000000000deaddeaddeaddeaddeaddeaddeaddeaddead111100000000000000000000000000000000000000000000000000000000000001f4000000000000000000000000f42e5d8996dda039fb88bbdc67d2e6c5080d5b220000000000000000000000000000000000000000000000000000000065243d5000000000000000000000000000000000000000000000000000000000000f906000000000000000000000000000000000000000000000000000024005376bd12f0000000000000000000000000000000000000000000000000000000000000000","l1BlockNumber":"0x11774cd","l1Timestamp":"0x65243d2f","l1TxOrigin":null,"nonce":"0x992","queueIndex":null,"queueOrigin":"sequencer","r":"0x906af0b4f54ca106e46e83dda2535e297d6efd192500c7e437b1871a221a291a","rawTransaction":"0xf9016e8209928402faf0808302524f945989fb161568b9f133edf5cf6787f5597762797f80b90104414bf389000000000000000000000000201eba5cc46d216ce6dc03f6a759e8e766e956ae000000000000000000000000deaddeaddeaddeaddeaddeaddeaddeaddead111100000000000000000000000000000000000000000000000000000000000001f4000000000000000000000000f42e5d8996dda039fb88bbdc67d2e6c5080d5b220000000000000000000000000000000000000000000000000000000065243d5000000000000000000000000000000000000000000000000000000000000f906000000000000000000000000000000000000000000000000000024005376bd12f0000000000000000000000000000000000000000000000000000000000000000822733a0906af0b4f54ca106e46e83dda2535e297d6efd192500c7e437b1871a221a291aa057159219825731e0813bed9dd861f47fa5c9e523d5414a402a298daf9b8a1e7d","s":"0x57159219825731e0813bed9dd861f47fa5c9e523d5414a402a298daf9b8a1e7d","to":"0x5989fb161568b9f133edf5cf6787f5597762797f","transactionIndex":"0x0","v":"0x2733","value":"0x0"}],"transactionsRoot":"0x989630d8ece86fca9abb83b3d46825cb18a5cc94b4690660bc65ff490e5b2b7e","uncles":[]},"receipts":{"0x08ec6633cb8d7ec76ea663274f18df2e6e20fa238b3eb8833590c66e0f62d529":{"blockHash":"0x9540c73ba94a05526822c61f77926fa4310a7f339586c978c72b93d81d34c033","blockNumber":"0xd000e4","from":"0xf42e5d8996dda039fb88bbdc67d2e6c5080d5b22","gas":"0x2524f","gasPrice":"0x2faf080","hash":"0x08ec6633cb8d7ec76ea663274f18df2e6e20fa238b3eb8833590c66e0f62d529","index":"0xd000e3","input":"0x414bf389000000000000000000000000201eba5cc46d216ce6dc03f6a759e8e766e956ae000000000000000000000000deaddeaddeaddeaddeaddeaddeaddeaddead111100000000000000000000000000000000000000000000000000000000000001f4000000000000000000000000f42e5d8996dda039fb88bbdc67d2e6c5080d5b220000000000000000000000000000000000000000000000000000000065243d5000000000000000000000000000000000000000000000000000000000000f906000000000000000000000000000000000000000000000000000024005376bd12f0000000000000000000000000000000000000000000000000000000000000000","l1BlockNumber":"0x11774cd","l1Timestamp":"0x65243d2f","l1TxOrigin":null,"nonce":"0x992","queueIndex":null,"queueOrigin":"sequencer","r":"0x906af0b4f54ca106e46e83dda2535e297d6efd192500c7e437b1871a221a291a","rawTransaction":"0xf9016e8209928402faf0808302524f945989fb161568b9f133edf5cf6787f5597762797f80b90104414bf389000000000000000000000000201eba5cc46d216ce6dc03f6a759e8e766e956ae000000000000000000000000deaddeaddeaddeaddeaddeaddeaddeaddead111100000000000000000000000000000000000000000000000000000000000001f4000000000000000000000000f42e5d8996dda039fb88bbdc67d2e6c5080d5b220000000000000000000000000000000000000000000000000000000065243d5000000000000000000000000000000000000000000000000000000000000f906000000000000000000000000000000000000000000000000000024005376bd12f0000000000000000000000000000000000000000000000000000000000000000822733a0906af0b4f54ca106e46e83dda2535e297d6efd192500c7e437b1871a221a291aa057159219825731e0813bed9dd861f47fa5c9e523d5414a402a298daf9b8a1e7d","s":"0x57159219825731e0813bed9dd861f47fa5c9e523d5414a402a298daf9b8a1e7d","to":"0x5989fb161568b9f133edf5cf6787f5597762797f","transactionIndex":"0x0","v":"0x2733","value":"0x0","contractAddress":null,"cumulativeGasUsed":"0x2394c","daFee":"0x0","daGasPrice":"0x0","daGasUsed":"0x12c","gasUsed":"0x2394c","l1Fee":"0x1a09f6380cb9fe0","l1FeeScalar":"1","l1GasPrice":"0x39ff1464e55c","l1GasUsed":"0x72f","logs":[{"address":"0xdeaddeaddeaddeaddeaddeaddeaddeaddead1111","blockHash":"0x9540c73ba94a05526822c61f77926fa4310a7f339586c978c72b93d81d34c033","blockNumber":"0xd000e4","data":"0x00000000000000000000000000000000000000000000000000024bc6a10ac08f","logIndex":"0x0","removed":false,"topics":["0xddf252ad1be2c89b69c2b068fc378daa952ba7f163c4a11628f55a4df523b3ef","0x000000000000000000000000a125af1a4704044501fe12ca9567ef1550e430e8","0x000000000000000000000000f42e5d8996dda039fb88bbdc67d2e6c5080d5b22"],"transactionHash":"0x08ec6633cb8d7ec76ea663274f18df2e6e20fa238b3eb8833590c66e0f62d529","transactionIndex":"0x0"},{"address":"0x201eba5cc46d216ce6dc03f6a759e8e766e956ae","blockHash":"0x9540c73ba94a05526822c61f77926fa4310a7f339586c978c72b93d81d34c033","blockNumber":"0xd000e4","data":"0x00000000000000000000000000000000000000000000000000000000000f9060","logIndex":"0x1","removed":false,"topics":["0xddf252ad1be2c89b69c2b068fc378daa952ba7f163c4a11628f55a4df523b3ef","0x000000000000000000000000f42e5d8996dda039fb88bbdc67d2e6c5080d5b22","0x000000000000000000000000a125af1a4704044501fe12ca9567ef1550e430e8"],"transactionHash":"0x08ec6633cb8d7ec76ea663274f18df2e6e20fa238b3eb8833590c66e0f62d529","transactionIndex":"0x0"},{"address":"0x201eba5cc46d216ce6dc03f6a759e8e766e956ae","blockHash":"0x9540c73ba94a05526822c61f77926fa4310a7f339586c978c72b93d81d34c033","blockNumber":"0xd000e4","data":"0xfffffffffffffffffffffffffffffffffffffffffffffffffffffffff9a8c51f","logIndex":"0x2","removed":false,"topics":["0x8c5be1e5ebec7d5bd14f71427d1e84f3dd0314c0f7b2291e5b200ac8c7c3b925","0x000000000000000000000000f42e5d8996dda039fb88bbdc67d2e6c5080d5b22","0x0000000000000000000000005989fb161568b9f133edf5cf6787f5597762797f"],"transactionHash":"0x08ec6633cb8d7ec76ea663274f18df2e6e20fa238b3eb8833590c66e0f62d529","transactionIndex":"0x0"},{"address":"0xa125af1a4704044501fe12ca9567ef1550e430e8","blockHash":"0x9540c73ba94a05526822c61f77926fa4310a7f339586c978c72b93d81d34c033","blockNumber":"0xd000e4","data":"0x00000000000000000000000000000000000000000000000000000000000f9060fffffffffffffffffffffffffffffffffffffffffffffffffffdb4395ef53f71000000000000000000000000000000000000625997dbbe9d4d0132565f48a0df00000000000000000000000000000000000000000000000000c2e1d164a152b300000000000000000000000000000000000000000000000000000000000317bc00000000000000000000000000000000000000000000000000000000000000ad0000000000000000000000000000000000000000000000000000000000000000","logIndex":"0x3","removed":false,"topics":["0x19b47279256b2a23a1665c810c8d55a1758940ee09377d4f8d26497a3577dc83","0x0000000000000000000000005989fb161568b9f133edf5cf6787f5597762797f","0x000000000000000000000000f42e5d8996dda039fb88bbdc67d2e6c5080d5b22"],"transactionHash":"0x08ec6633cb8d7ec76ea663274f18df2e6e20fa238b3eb8833590c66e0f62d529","transactionIndex":"0x0"}],"logsBloom":"0x00000000000000000000000000000000000000000001001000000000000000000800000000000000000000000002000000000000000000000000000000200000040000000040000100000408000000000000008000002000000000000000000000000000000000000000000100000000000000000000000000000010000000000000000000000000000000000000040000020000000000000000000040000000020000000000000000000000000000000000000000000000004100000000000000000002000000000000000000000000000000000100000000000000000000000014000000001000000000000000004000000000000000000000001000000000","status":"0x1","transactionHash":"0x08ec6633cb8d7ec76ea663274f18df2e6e20fa238b3eb8833590c66e0f62d529"}}}