{"block":{"difficulty":"0x2","extraData":"0xd98301090a846765746889676f312e31352e3133856c696e75780000000000000af160c4e4d81df0570a7ecb083008d87fabcb4bfb9e9b2b403769793fefdaee7ccd4d05b69548783a5e38b122af88e15402d3587794a425e065d08d61e7323b01","gasLimit":"0x1c9c380","gasUsed":"0x2173e","hash":"0xd91a36924629e7b996bde13d313397772d7ebf03f554813bab9edbaa0fe6acdb","logsBloom":"0x00000000000000000000000000000000000000000000008800000000000000000000040000000000000000000002000000000000000000000000000000200000140004000040000000000008000000000000000000040000000000000000000000002000080000000000000000000000010000000000100000000010000000000000000000000000000000000000000000100008400000000000000100000000020000000000000000000000000000000000000021000000000000000000000000000002000000000000000000000000000000000000000000001000000000000010000000004000000000000000000000000000000000000000000000000000","miner":"0x0000000000000000000000000000000000000000","mixHash":"0x0000000000000000000000000000000000000000000000000000000000000000","nonce":"0x0000000000000000","number":"0xd00279","parentHash":"0xd92492ea6e3b264bdef275f7504ca545d9f4855e2bcd35e84d3345f5d2fea8ad","receiptsRoot":"0x3993abf1b0487d35f137fc37a07b7b5d046aa60d1709bccf58b3dc54d112cab3","sha3Uncles":"0x1dcc4de8dec75d7aab85b567b6ccd41ad312451b948a7413f0a142fd40d49347","size":"0x3d8","stateRoot":"0x8d3248eef4d55bbab256012661bb2ef62fac4217aa0113f3544a7d142527ee69","timestamp":"0x65243e11","totalDifficulty":"0x1a004f3","transactions":[{"blockHash":"0xd91a36924629e7b996bde13d313397772d7ebf03f554813bab9edbaa0fe6acdb","blockNumber":"0xd00279","from":"0x9afc34e0220501a99f3a9fb9b204bec3d2058302","gas":"0x242bd","gasPrice":"0x2faf080","hash":"0xc53f826d34299b9004b13d56d03b22917ffe7cf532b6102ae7ce836139f144ba","index":"0xd00278","input":"0x414bf38900000000000000000000000078c1b0c915c4faa5fffa6cabf0219da63d7f4cb800000000000000000000000097174506aafcc846a40832719bd8899a588bd05c00000000000000000000000000000000000000000000000000000000000027100000000000000000000000009afc34e0220501a99f3a9fb9b204bec3d20583020000000000000000000000000000000000000000000000000000000065243e3100000000000000000000000000000000000000000000000207086d359f0353450000000000000000000000000000000000000000000000df3d42ee232a30ca8e0000000000000000000000000000000000000000000000000000000000000000","l1BlockNumber":"0x11774df","l1Timestamp":"0x65243e11","l1TxOrigin":null,"nonce":"0x37b","queueIndex":null,"queueOrigin":"sequencer","r":"0xdd72c81c564d5694383fe0650d01a6725b2ab84d7488d61062a662add5e01338","rawTransaction":"0xf9016e82037b8402faf080830242bd94319b69888b0d11cec22caa5034e25fffbdc8842180b90104414bf38900000000000000000000000078c1b0c915c4faa5fffa6cabf0219da63d7f4cb800000000000000000000000097174506aafcc846a40832719bd8899a588bd05c00000000000000000000000000000000000000000000000000000000000027100000000000000000000000009afc34e0220501a99f3a9fb9b204bec3d20583020000000000000000000000000000000000000000000000000000000065243e3100000000000000000000000000000000000000000000000207086d359f0353450000000000000000000000000000000000000000000000df3d42ee232a30ca8e0000000000000000000000000000000000000000000000000000000000000000822733a0dd72c81c564d5694383fe0650d01a6725b2ab84d7488d61062a662add5e01338a0661c6d80a58da08ee1528b6a964f82a20dbf96106210b7b98e45921a44da94c6","s":"0x661c6d80a58da08ee1528b6a964f82a20dbf96106210b7b98e45921a44da94c6","to":"0x319b69888b0d11cec22caa5034e25fffbdc88421","transactionIndex":"0x0","v":"0x2733","value":"0x0"}],"transactionsRoot":"0xce04397199b3a184b208307dd4b0b8d3ec519b30b893692a0c644cad8e0bb8a2","uncles":[]},"receipts":{"0xc53f826d34299b9004b13d56d03b22917ffe7cf532b6102ae7ce836139f144ba":{"blockHash":"0xd91a36924629e7b996bde13d313397772d7ebf03f554813bab9edbaa0fe6acdb","blockNumber":"0xd00279","from":"0x9afc34e0220501a99f3a9fb9b204bec3d2058302","gas":"0x242bd","gasPrice":"0x2faf080","hash":"0xc53f826d34299b9004b13d56d03b22917ffe7cf532b6102ae7ce836139f144ba","index":"0xd00278","input":"0x414bf38900000000000000000000000078c1b0c915c4faa5fffa6cabf0219da63d7f4cb800000000000000000000000097174506aafcc846a40832719bd8899a588bd05c00000000000000000000000000000000000000000000000000000000000027100000000000000000000000009afc34e0220501a99f3a9fb9b204bec3d20583020000000000000000000000000000000000000000000000000000000065243e3100000000000000000000000000000000000000000000000207086d359f0353450000000000000000000000000000000000000000000000df3d42ee232a30ca8e0000000000000000000000000000000000000000000000000000000000000000","l1BlockNumber":"0x11774df","l1Timestamp":"0x65243e11","l1TxOrigin":null,"nonce":"0x37b","queueIndex":null,"queueOrigin":"sequencer","r":"0xdd72c81c564d5694383fe0650d01a6725b2ab84d7488d61062a662add5e01338","rawTransaction":"0xf9016e82037b8402faf080830242bd94319b69888b0d11cec22caa5034e25fffbdc8842180b90104414bf38900000000000000000000000078c1b0c915c4faa5fffa6cabf0219da63d7f4cb800000000000000000000000097174506aafcc846a40832719bd8899a588bd05c00000000000000000000000000000000000000000000000000000000000027100000000000000000000000009afc34e0220501a99f3a9fb9b204bec3d20583020000000000000000000000000000000000000000000000000000000065243e3100000000000000000000000000000000000000000000000207086d359f0353450000000000000000000000000000000000000000000000df3d42ee232a30ca8e0000000000000000000000000000000000000000000000000000000000000000822733a0dd72c81c564d5694383fe0650d01a6725b2ab84d7488d61062a662add5e01338a0661c6d80a58da08ee1528b6a964f82a20dbf96106210b7b98e45921a44da94c6","s":"0x661c6d80a58da08ee1528b6a964f82a20dbf96106210b7b98e45921a44da94c6","to":"0x319b69888b0d11cec22caa5034e25fffbdc88421","transactionIndex":"0x0","v":"0x2733","value":"0x0","contractAddress":null,"cumulativeGasUsed":"0x2173e","daFee":"0x0","daGasPrice":"0x0","daGasUsed":"0x12c","gasUsed":"0x2173e","l1Fee":"0x19709d787180660","l1FeeScalar":"1","l1GasPrice":"0x38a987f04864","l1GasUsed":"0x72f","logs":[{"address":"0x97174506aafcc846a40832719bd8899a588bd05c","blockHash":"0xd91a36924629e7b996bde13d313397772d7ebf03f554813bab9edbaa0fe6acdb","blockNumber":"0xd00279","data":"0x0000000000000000000000000000000000000000000000eafd1e082503fd76e7","logIndex":"0x0","removed":false,"topics":["0xddf252ad1be2c89b69c2b068fc378daa952ba7f163c4a11628f55a4df523b3ef","0x0000000000000000000000003a873fe63bedad2e9f9b9b63bf8bedb5f1789167","0x0000000000000000000000009afc34e0220501a99f3a9fb9b204bec3d2058302"],"transactionHash":"0xc53f826d34299b9004b13d56d03b22917ffe7cf532b6102ae7ce836139f144ba","transactionIndex":"0x0"},{"address":"0x78c1b0c915c4faa5fffa6cabf0219da63d7f4cb8","blockHash":"0xd91a36924629e7b996bde13d313397772d7ebf03f554813bab9edbaa0fe6acdb","blockNumber":"0xd00279","data":"0x00000000000000000000000000000000000000000000000207086d359f035345","logIndex":"0x1","removed":false,"topics":["0xddf252ad1be2c89b69c2b068fc378daa952ba7f163c4a11628f55a4df523b3ef","0x0000000000000000000000009afc34e0220501a99f3a9fb9b204bec3d2058302","0x0000000000000000000000003a873fe63bedad2e9f9b9b63bf8bedb5f1789167"],"transactionHash":"0xc53f826d34299b9004b13d56d03b22917ffe7cf532b6102ae7ce836139f144ba","transactionIndex":"0x0"},{"address":"0x78c1b0c915c4faa5fffa6cabf0219da63d7f4cb8","blockHash":"0xd91a36924629e7b996bde13d313397772d7ebf03f554813bab9edbaa0fe6acdb","blockNumber":"0xd00279","data":"0xfffffffffffffffffffffffffffffffffffffffffffffe6ea95d1680b580404a","logIndex":"0x2","removed":false,"topics":["0x8c5be1e5ebec7d5bd14f71427d1e84f3dd0314c0f7b2291e5b200ac8c7c3b925","0x0000000000000000000000009afc34e0220501a99f3a9fb9b204bec3d2058302","0x000000000000000000000000319b69888b0d11cec22caa5034e25fffbdc88421"],"transactionHash":"0xc53f826d34299b9004b13d56d03b22917ffe7cf532b6102ae7ce836139f144ba","transactionIndex":"0x0"},{"address":"0x3a873fe63bedad2e9f9b9b63bf8bedb5f1789167","blockHash":"0xd91a36924629e7b996bde13d313397772d7ebf03f554813bab9edbaa0fe6acdb","blockNumber":"0xd00279","data":"0x00000000000000000000000000000000000000000000000207086d359f035345ffffffffffffffffffffffffffffffffffffffffffffff1502e1f7dafc028919000000000000000000000000000000000000000ad1d0401d3c20d27bd7fd68db00000000000000000000000000000000000000000004050e8f20b2f8a1c79e70000000000000000000000000000000000000000000000000000000000000ba0d00000000000000000000000000000000000000000000000001a9311784cf44ab0000000000000000000000000000000000000000000000000000000000000000","logIndex":"0x3","removed":false,"topics":["0x19b47279256b2a23a1665c810c8d55a1758940ee09377d4f8d26497a3577dc83","0x000000000000000000000000319b69888b0d11cec22caa5034e25fffbdc88421","0x0000000000000000000000009afc34e0220501a99f3a9fb9b204bec3d2058302"],"transactionHash":"0xc53f826d34299b9004b13d56d03b22917ffe7cf532b6102ae7ce836139f144ba","transactionIndex":"0x0"}],"logsBloom":"0x00000000000000000000000000000000000000000000008800000000000000000000040000000000000000000002000000000000000000000000000000200000140004000040000000000008000000000000000000040000000000000000000000002000080000000000000000000000010000000000100000000010000000000000000000000000000000000000000000100008400000000000000100000000020000000000000000000000000000000000000021000000000000000000000000000002000000000000000000000000000000000000000000001000000000000010000000004000000000000000000000000000000000000000000000000000","status":"0x1","transactionHash":"0xc53f826d34299b9004b13d56d03b22917ffe7cf532b6102ae7ce836139f144ba"}}}