{"block":{"difficulty":"0x2","extraData":"0xd98301090a846765746889676f312e31352e3133856c696e7578000000000000465fa7696ff5def72f3eebe07cea999ea574e38782121104e26d40b22117578462258d06ff8343ea6f329ea92f6c2aa84cddf53029dddc2377b5cfb72b2eb4d201","gasLimit":"0x1c9c380","gasUsed":"0x25462","hash":"0x19fe5ecc75ed5534876eba3e7f06f37e0924bfae586413a47c7e29fdf7dc5da7","logsBloom":"0x40000000000000000000000000000000000000000001008800000000000000000000000000000000000000000002000000000000000000000000000000200000840000000040000000000008000000000000008000002004000000000000000000010001000000000000000100000000000000000000000000000010000000800000000000000000000000000000000000000000000000000008000000000000020000000000000000000000000000000000000011000020000100000000000000000002000000000000000000000000000000000000000000000000000000000010000000001000000000000000000000000000000000000000000000000000","miner":"0x0000000000000000000000000000000000000000","mixHash":"0x0000000000000000000000000000000000000000000000000000000000000000","nonce":"0x0000000000000000","number":"0xd00293","parentHash":"0x4c94c56444bb9338f5aa40dcebc5ee628aa2d29a16adf434b2816ef5ec0d543a","receiptsRoot":"0xc40d2901ed5173ff13a09b1f882bd64274d89e74e2d03ae12142d6ff7dba03d2","sha3Uncles":"0x1dcc4de8dec75d7aab85b567b6ccd41ad312451b948a7413f0a142fd40d49347","size":"0x3d8","stateRoot":"0xcf1d6eb1dbcd5d1830b2c1959c68f476796fa02f42f0224d6b0ddcd0b9db0bfe","timestamp":"0x65243e20","totalDifficulty":"0x1a00527","transactions":[{"blockHash":"0x19fe5ecc75ed5534876eba3e7f06f37e0924bfae586413a47c7e29fdf7dc5da7","blockNumber":"0xd00293","from":"0x962f79bd99befb7f5b94d354d507c89c13ecafcb","gas":"0x26dc5","gasPrice":"0x2faf080","hash":"0x4d8a39049cafae3240ac3c1c857f8b6b3cbd5c6a9b6761a364352282122bedb0","index":"0xd00292","input":"0x414bf389000000000000000000000000deaddeaddeaddeaddeaddeaddeaddeaddead1111000000000000000000000000201eba5cc46d216ce6dc03f6a759e8e766e956ae00000000000000000000000000000000000000000000000000000000000001f4000000000000000000000000962f79bd99befb7f5b94d354d507c89c13ecafcb0000000000000000000000000000000000000000000000000000000065243e400000000000000000000000000000000000000000000000000002140ded31900000000000000000000000000000000000000000000000000000000000000dd52b0000000000000000000000000000000000000000000000000000000000000000","l1BlockNumber":"0x11774e0","l1Timestamp":"0x65243e20","l1TxOrigin":null,"nonce":"0x11f8","queueIndex":null,"queueOrigin":"sequencer","r":"0xb0c13485f6cd60eaced52529840fe928a300d7a5a75a9305ce200e7431c3ab75","rawTransaction":"0xf9016e8211f88402faf08083026dc594319b69888b0d11cec22caa5034e25fffbdc8842180b90104414bf389000000000000000000000000deaddeaddeaddeaddeaddeaddeaddeaddead1111000000000000000000000000201eba5cc46d216ce6dc03f6a759e8e766e956ae00000000000000000000000000000000000000000000000000000000000001f4000000000000000000000000962f79bd99befb7f5b94d354d507c89c13ecafcb0000000000000000000000000000000000000000000000000000000065243e400000000000000000000000000000000000000000000000000002140ded31900000000000000000000000000000000000000000000000000000000000000dd52b0000000000000000000000000000000000000000000000000000000000000000822733a0b0c13485f6cd60eaced52529840fe928a300d7a5a75a9305ce200e7431c3ab75a077f60e6d74802ffd9993ff80290f8b74bf3547d6307203f228b472402ff74324","s":"0x77f60e6d74802ffd9993ff80290f8b74bf3547d6307203f228b472402ff74324","to":"0x319b69888b0d11cec22caa5034e25fffbdc88421","transactionIndex":"0x0","v":"0x2733","value":"0x0"}],"transactionsRoot":"0x9e6ba2feb33b1bf3d1c11def95cb62eabe0bdc7a4cb032ee11d05ab6c90e4626","uncles":[]},"receipts":{"0x4d8a39049cafae3240ac3c1c857f8b6b3cbd5c6a9b6761a364352282122bedb0":{"blockHash":"0x19fe5ecc75ed5534876eba3e7f06f37e0924bfae586413a47c7e29fdf7dc5da7","blockNumber":"0xd00293","from":"0x962f79bd99befb7f5b94d354d507c89c13ecafcb","gas":"0x26dc5","gasPrice":"0x2faf080","hash":"0x4d8a39049cafae3240ac3c1c857f8b6b3cbd5c6a9b6761a364352282122bedb0","index":"0xd00292","input":"0x414bf389000000000000000000000000deaddeaddeaddeaddeaddeaddeaddeaddead1111000000000000000000000000201eba5cc46d216ce6dc03f6a759e8e766e956ae00000000000000000000000000000000000000000000000000000000000001f4000000000000000000000000962f79bd99befb7f5b94d354d507c89c13ecafcb0000000000000000000000000000000000000000000000000000000065243e400000000000000000000000000000000000000000000000000002140ded31900000000000000000000000000000000000000000000000000000000000000dd52b0000000000000000000000000000000000000000000000000000000000000000","l1BlockNumber":"0x11774e0","l1Timestamp":"0x65243e20","l1TxOrigin":null,"nonce":"0x11f8","queueIndex":null,"queueOrigin":"sequencer","r":"0xb0c13485f6cd60eaced52529840fe928a300d7a5a75a9305ce200e7431c3ab75","rawTransaction":"0xf9016e8211f88402faf08083026dc594319b69888b0d11cec22caa5034e25fffbdc8842180b90104414bf389000000000000000000000000deaddeaddeaddeaddeaddeaddeaddeaddead1111000000000000000000000000201eba5cc46d216ce6dc03f6a759e8e766e956ae00000000000000000000000000000000000000000000000000000000000001f4000000000000000000000000962f79bd99befb7f5b94d354d507c89c13ecafcb0000000000000000000000000000000000000000000000000000000065243e400000000000000000000000000000000000000000000000000002140ded31900000000000000000000000000000000000000000000000000000000000000dd52b0000000000000000000000000000000000000000000000000000000000000000822733a0b0c13485f6cd60eaced52529840fe928a300d7a5a75a9305ce200e7431c3ab75a077f60e6d74802ffd9993ff80290f8b74bf3547d6307203f228b472402ff74324","s":"0x77f60e6d74802ffd9993ff80290f8b74bf3547d6307203f228b472402ff74324","to":"0x319b69888b0d11cec22caa5034e25fffbdc88421","transactionIndex":"0x0","v":"0x2733","value":"0x0","contractAddress":null,"cumulativeGasUsed":"0x25462","daFee":"0x0","daGasPrice":"0x0","daGasUsed":"0x12c","gasUsed":"0x25462","l1Fee":"0x19709d787180660","l1FeeScalar":"1","l1GasPrice":"0x38a987f04864","l1GasUsed":"0x72f","logs":[{"address":"0x201eba5cc46d216ce6dc03f6a759e8e766e956ae","blockHash":"0x19fe5ecc75ed5534876eba3e7f06f37e0924bfae586413a47c7e29fdf7dc5da7","blockNumber":"0xd00293","data":"0x00000000000000000000000000000000000000000000000000000000000e1d70","logIndex":"0x0","removed":false,"topics":["0xddf252ad1be2c89b69c2b068fc378daa952ba7f163c4a11628f55a4df523b3ef","0x000000000000000000000000628f7131cf43e88ebe3921ae78c4ba0c31872bd4","0x000000000000000000000000962f79bd99befb7f5b94d354d507c89c13ecafcb"],"transactionHash":"0x4d8a39049cafae3240ac3c1c857f8b6b3cbd5c6a9b6761a364352282122bedb0","transactionIndex":"0x0"},{"address":"0xdeaddeaddeaddeaddeaddeaddeaddeaddead1111","blockHash":"0x19fe5ecc75ed5534876eba3e7f06f37e0924bfae586413a47c7e29fdf7dc5da7","blockNumber":"0xd00293","data":"0x0000000000000000000000000000000000000000000000000002140ded319000","logIndex":"0x1","removed":false,"topics":["0xddf252ad1be2c89b69c2b068fc378daa952ba7f163c4a11628f55a4df523b3ef","0x000000000000000000000000962f79bd99befb7f5b94d354d507c89c13ecafcb","0x000000000000000000000000628f7131cf43e88ebe3921ae78c4ba0c31872bd4"],"transactionHash":"0x4d8a39049cafae3240ac3c1c857f8b6b3cbd5c6a9b6761a364352282122bedb0","transactionIndex":"0x0"},{"address":"0xdeaddeaddeaddeaddeaddeaddeaddeaddead1111","blockHash":"0x19fe5ecc75ed5534876eba3e7f06f37e0924bfae586413a47c7e29fdf7dc5da7","blockNumber":"0xd00293","data":"0xfffffffffffffffffffffffffffffffffffffffffffffffffab4ec87e5c53fff","logIndex":"0x2","removed":false,"topics":["0x8c5be1e5ebec7d5bd14f71427d1e84f3dd0314c0f7b2291e5b200ac8c7c3b925","0x000000000000000000000000962f79bd99befb7f5b94d354d507c89c13ecafcb","0x000000000000000000000000319b69888b0d11cec22caa5034e25fffbdc88421"],"transactionHash":"0x4d8a39049cafae3240ac3c1c857f8b6b3cbd5c6a9b6761a364352282122bedb0","transactionIndex":"0x0"},{"address":"0x628f7131cf43e88ebe3921ae78c4ba0c31872bd4","blockHash":"0x19fe5ecc75ed5534876eba3e7f06f37e0924bfae586413a47c7e29fdf7dc5da7","blockNumber":"0xd00293","data":"0xfffffffffffffffffffffffffffffffffffffffffffffffffffffffffff1e2900000000000000000000000000000000000000000000000000002140ded319000000000000000000000000000000000000000623b5c9eaae90164c8f19012646f00000000000000000000000000000000000000000000000000002c69f6c7ad9d00000000000000000000000000000000000000000000000000000000000317a400000000000000000000000000000000000000000000000000000000000000000000000000000000000000000000000000000000000000000000001727ae927f","logIndex":"0x3","removed":false,"topics":["0x19b47279256b2a23a1665c810c8d55a1758940ee09377d4f8d26497a3577dc83","0x000000000000000000000000319b69888b0d11cec22caa5034e25fffbdc88421","0x000000000000000000000000962f79bd99befb7f5b94d354d507c89c13ecafcb"],"transactionHash":"0x4d8a39049cafae3240ac3c1c857f8b6b3cbd5c6a9b6761a364352282122bedb0","transactionIndex":"0x0"}],"logsBloom":"0x40000000000000000000000000000000000000000001008800000000000000000000000000000000000000000002000000000000000000000000000000200000840000000040000000000008000000000000008000002004000000000000000000010001000000000000000100000000000000000000000000000010000000800000000000000000000000000000000000000000000000000008000000000000020000000000000000000000000000000000000011000020000100000000000000000002000000000000000000000000000000000000000000000000000000000010000000001000000000000000000000000000000000000000000000000000","status":"0x1","transactionHash":"0x4d8a39049cafae3240ac3c1c857f8b6b3cbd5c6a9b6761a364352282122bedb0"}}}