{"block":{"difficulty":"0x2","extraData":"0xd98301090a846765746889676f312e31352e3133856c696e7578000000000000e4ca73a01e3764681be67fa6b38c4508172a3723b6032a1f3cf7e524ee3e675035dd1052cc6b4876230fb190f692ed1c53842c3976b7c2f3e6f976d0b0d7f59801","gasLimit":"0x1c9c380","gasUsed":"0x1e1e5","hash":"0xedbb35d68472bc9db4dab6fe2cec7cbfe312fdc863e04a41426b42754a95aaa0","logsBloom":"0x00000000000000000000000000000000000000000001008800000000000000000004000000000000000000000002000000000000000000000000000000200000140000000040000400000008000000010000008000042000000200000000000000000000000000000000000000000080000000000000000000000010000000000000000000000000000000000000000000100000000000000000000000000040020000000000000000000000000200000000000001000000000000000000000000000102000000000000000000000000000000000000000000000010000000000010000000000000000000000000000000000000000000000000000000000000","miner":"0x0000000000000000000000000000000000000000","mixHash":"0x0000000000000000000000000000000000000000000000000000000000000000","nonce":"0x0000000000000000","number":"0xd00262","parentHash":"0xbf0f86ad720ffba521a46ff91225d4ad3edd38cf900f9390a71231534fe208c7","receiptsRoot":"0xd455df6b147d85e97a2dd30b3685e76bd24113c43fad7a9e9e580af1191f5185","sha3Uncles":"0x1dcc4de8dec75d7aab85b567b6ccd41ad312451b948a7413f0a142fd40d49347","size":"0x3d8","stateRoot":"0xb4bdccb283ddaf66bd4188d42b68112f434eea299a3e425a2b56d79ce487e85d","timestamp":"0x65243e06","totalDifficulty":"0x1a004c5","transactions":[{"blockHash":"0xedbb35d68472bc9db4dab6fe2cec7cbfe312fdc863e04a41426b42754a95aaa0","blockNumber":"0xd00262","from":"0xe19bd7b1392180f4d3392d71453a7f11fdf27fa3","gas":"0x1f977","gasPrice":"0x2faf080","hash":"0x85764507b0bf50779af669af3885031cd2af0b1d287819eea91e41fd0c0d9a4f","index":"0xd00261","input":"0x414bf38900000000000000000000000078c1b0c915c4faa5fffa6cabf0219da63d7f4cb8000000000000000000000000201eba5cc46d216ce6dc03f6a759e8e766e956ae00000000000000000000000000000000000000000000000000000000000001f4000000000000000000000000e19bd7b1392180f4d3392d71453a7f11fdf27fa30000000000000000000000000000000000000000000000000000000065243e25000000000000000000000000000000000000000000000000186cc6acd4b00000000000000000000000000000000000000000000000000000000000000009d5a50000000000000000000000000000000000000000000000000000000000000000","l1BlockNumber":"0x11774de","l1Timestamp":"0x65243e06","l1TxOrigin":null,"nonce":"0x9c9","queueIndex":null,"queueOrigin":"sequencer","r":"0xe2301a2cb634eedba700733c41d008efb88d883c19525f241310784a790be8d6","rawTransaction":"0xf9016e8209c98402faf0808301f97794319b69888b0d11cec22caa5034e25fffbdc8842180b90104414bf38900000000000000000000000078c1b0c915c4faa5fffa6cabf0219da63d7f4cb8000000000000000000000000201eba5cc46d216ce6dc03f6a759e8e766e956ae00000000000000000000000000000000000000000000000000000000000001f4000000000000000000000000e19bd7b1392180f4d3392d71453a7f11fdf27fa30000000000000000000000000000000000000000000000000000000065243e25000000000000000000000000000000000000000000000000186cc6acd4b00000000000000000000000000000000000000000000000000000000000000009d5a50000000000000000000000000000000000000000000000000000000000000000822733a0e2301a2cb634eedba700733c41d008efb88d883c19525f241310784a790be8d6a04738a6d5bc91c57f84f1b4967f943668dff72b4de549228f9b18853af2049d82","s":"0x4738a6d5bc91c57f84f1b4967f943668dff72b4de549228f9b18853af2049d82","to":"0x319b69888b0d11cec22caa5034e25fffbdc88421","transactionIndex":"0x0","v":"0x2733","value":"0x0"}],"transactionsRoot":"0xc792730d763c1ae6e4dbe5c4c42a6b97b666d4ad86799f19283e4d30202c5285","uncles":[]},"receipts":{"0x85764507b0bf50779af669af3885031cd2af0b1d287819eea91e41fd0c0d9a4f":{"blockHash":"0xedbb35d68472bc9db4dab6fe2cec7cbfe312fdc863e04a41426b42754a95aaa0","blockNumber":"0xd00262","from":"0xe19bd7b1392180f4d3392d71453a7f11fdf27fa3","gas":"0x1f977","gasPrice":"0x2faf080","hash":"0x85764507b0bf50779af669af3885031cd2af0b1d287819eea91e41fd0c0d9a4f","index":"0xd00261","input":"0x414bf38900000000000000000000000078c1b0c915c4faa5fffa6cabf0219da63d7f4cb8000000000000000000000000201eba5cc46d216ce6dc03f6a759e8e766e956ae00000000000000000000000000000000000000000000000000000000000001f4000000000000000000000000e19bd7b1392180f4d3392d71453a7f11fdf27fa30000000000000000000000000000000000000000000000000000000065243e25000000000000000000000000000000000000000000000000186cc6acd4b00000000000000000000000000000000000000000000000000000000000000009d5a50000000000000000000000000000000000000000000000000000000000000000","l1BlockNumber":"0x11774de","l1Timestamp":"0x65243e06","l1TxOrigin":null,"nonce":"0x9c9","queueIndex":null,"queueOrigin":"sequencer","r":"0xe2301a2cb634eedba700733c41d008efb88d883c19525f241310784a790be8d6","rawTransaction":"0xf9016e8209c98402faf0808301f97794319b69888b0d11cec22caa5034e25fffbdc8842180b90104414bf38900000000000000000000000078c1b0c915c4faa5fffa6cabf0219da63d7f4cb8000000000000000000000000201eba5cc46d216ce6dc03f6a759e8e766e956ae00000000000000000000000000000000000000000000000000000000000001f4000000000000000000000000e19bd7b1392180f4d3392d71453a7f11fdf27fa30000000000000000000000000000000000000000000000000000000065243e25000000000000000000000000000000000000000000000000186cc6acd4b00000000000000000000000000000000000000000000000000000000000000009d5a50000000000000000000000000000000000000000000000000000000000000000822733a0e2301a2cb634eedba700733c41d008efb88d883c19525f241310784a790be8d6a04738a6d5bc91c57f84f1b4967f943668dff72b4de549228f9b18853af2049d82","s":"0x4738a6d5bc91c57f84f1b4967f943668dff72b4de549228f9b18853af2049d82","to":"0x319b69888b0d11cec22caa5034e25fffbdc88421","transactionIndex":"0x0","v":"0x2733","value":"0x0","contractAddress":null,"cumulativeGasUsed":"0x1e1e5","daFee":"0x0","daGasPrice":"0x0","daGasUsed":"0x12c","gasUsed":"0x1e1e5","l1Fee":"0x19709d787180660","l1FeeScalar":"1","l1GasPrice":"0x38a987f04864","l1GasUsed":"0x72f","logs":[{"address":"0x201eba5cc46d216ce6dc03f6a759e8e766e956ae","blockHash":"0xedbb35d68472bc9db4dab6fe2cec7cbfe312fdc863e04a41426b42754a95aaa0","blockNumber":"0xd00262","data":"0x00000000000000000000000000000000000000000000000000000000000a0907","logIndex":"0x0","removed":false,"topics":["0xddf252ad1be2c89b69c2b068fc378daa952ba7f163c4a11628f55a4df523b3ef","0x000000000000000000000000d08c50f7e69e9aeb2867deff4a8053d9a855e26a","0x000000000000000000000000e19bd7b1392180f4d3392d71453a7f11fdf27fa3"],"transactionHash":"0x85764507b0bf50779af669af3885031cd2af0b1d287819eea91e41fd0c0d9a4f","transactionIndex":"0x0"},{"address":"0x78c1b0c915c4faa5fffa6cabf0219da63d7f4cb8","blockHash":"0xedbb35d68472bc9db4dab6fe2cec7cbfe312fdc863e04a41426b42754a95aaa0","blockNumber":"0xd00262","data":"0x000000000000000000000000000000000000000000000000186cc6acd4b00000","logIndex":"0x1","removed":false,"topics":["0xddf252ad1be2c89b69c2b068fc378daa952ba7f163c4a11628f55a4df523b3ef","0x000000000000000000000000e19bd7b1392180f4d3392d71453a7f11fdf27fa3","0x000000000000000000000000d08c50f7e69e9aeb2867deff4a8053d9a855e26a"],"transactionHash":"0x85764507b0bf50779af669af3885031cd2af0b1d287819eea91e41fd0c0d9a4f","transactionIndex":"0x0"},{"address":"0x78c1b0c915c4faa5fffa6cabf0219da63d7f4cb8","blockHash":"0xedbb35d68472bc9db4dab6fe2cec7cbfe312fdc863e04a41426b42754a95aaa0","blockNumber":"0xd00262","data":"0xffffffffffffffffffffffffffffffffffffffffffffffd4961cc7083c2bffff","logIndex":"0x2","removed":false,"topics":["0x8c5be1e5ebec7d5bd14f71427d1e84f3dd0314c0f7b2291e5b200ac8c7c3b925","0x000000000000000000000000e19bd7b1392180f4d3392d71453a7f11fdf27fa3","0x000000000000000000000000319b69888b0d11cec22caa5034e25fffbdc88421"],"transactionHash":"0x85764507b0bf50779af669af3885031cd2af0b1d287819eea91e41fd0c0d9a4f","transactionIndex":"0x0"},{"address":"0xd08c50f7e69e9aeb2867deff4a8053d9a855e26a","blockHash":"0xedbb35d68472bc9db4dab6fe2cec7cbfe312fdc863e04a41426b42754a95aaa0","blockNumber":"0xd00262","data":"0xfffffffffffffffffffffffffffffffffffffffffffffffffffffffffff5f6f9000000000000000000000000000000000000000000000000186cc6acd4b00000000000000000000000000000000000000018f4aeb3310622567ca531b04c651e000000000000000000000000000000000000000000000000006787d5d3ab8a8c0000000000000000000000000000000000000000000000000000000000045dd300000000000000000000000000000000000000000000000000000000000000000000000000000000000000000000000000000000000000000001101eedb78000","logIndex":"0x3","removed":false,"topics":["0x19b47279256b2a23a1665c810c8d55a1758940ee09377d4f8d26497a3577dc83","0x000000000000000000000000319b69888b0d11cec22caa5034e25fffbdc88421","0x000000000000000000000000e19bd7b1392180f4d3392d71453a7f11fdf27fa3"],"transactionHash":"0x85764507b0bf50779af669af3885031cd2af0b1d287819eea91e41fd0c0d9a4f","transactionIndex":"0x0"}],"logsBloom":"0x00000000000000000000000000000000000000000001008800000000000000000004000000000000000000000002000000000000000000000000000000200000140000000040000400000008000000010000008000042000000200000000000000000000000000000000000000000080000000000000000000000010000000000000000000000000000000000000000000100000000000000000000000000040020000000000000000000000000200000000000001000000000000000000000000000102000000000000000000000000000000000000000000000010000000000010000000000000000000000000000000000000000000000000000000000000","status":"0x1","transactionHash":"0x85764507b0bf50779af669af3885031cd2af0b1d287819eea91e41fd0c0d9a4f"}}}