{"block":{"difficulty":"0x2","extraData":"0xd98301090a846765746889676f312e31352e3133856c696e7578000000000000760844fb1a25fcfceb40a76ba5211f5f1a5e49767af0f2e7db8de1ce29b8c97264cc02682570bcffa50a537b2eb9d41636c723d732d26091dd0fb026c1fc80af00","gasLimit":"0x1c9c380","gasUsed":"0x2d08d","hash":"0x74fee3d7fde53061e2397295c7e2a4d7ce06f154a3c55ed37062be6624580802","logsBloom":"0x00000000000000000100000000000000000000001004000004000008000000000000000000000000000000000000000000000000000000000000000000042000000000000000000000000000000000000010000000040000040000000000000020000000028000000000000000000800000000000000000001000000000000000080000000000000000000040000000200000000000000000000000000000100000000000000000000000000000000000000000000400000000000000000000000000000000000000000000000000000000000000008000000000000000060000000000000000000000000000000000000000000000000000000080000000000","miner":"0x0000000000000000000000000000000000000000","mixHash":"0x0000000000000000000000000000000000000000000000000000000000000000","nonce":"0x0000000000000000","number":"0xd000d2","parentHash":"0xea7f907d5091f4c0388b7c9145a71dfb38c58109ddb489f1cf103be5e30a4280","receiptsRoot":"0x4f6bdf878aef486fd2e84fc75e81091e8fe62b34051a61d11c811df4346443cb","sha3Uncles":"0x1dcc4de8dec75d7aab85b567b6ccd41ad312451b948a7413f0a142fd40d49347","size":"0x49e","stateRoot":"0x419243f026157a2da500abecaf74daca2513fb263f6647bcfd3584bf1b50eaf3","timestamp":"0x65243d2a","totalDifficulty":"0x1a001a5","transactions":[{"blockHash":"0x74fee3d7fde53061e2397295c7e2a4d7ce06f154a3c55ed37062be6624580802","blockNumber":"0xd000d2","from":"0x647950fdbc7506fc12dafc6cd042b70f4e5c2d71","gas":"0x2e160","gasPrice":"0x2faf080","hash":"0x6a1f58045529a375b9475386e7aa1d07e969462aa8d1dff00047b989ffd1fc6e","index":"0xd000d1","input":"0x986d8002000000000000000000000000647950fdbc7506fc12dafc6cd042b70f4e5c2d710000000000000000000000000000000000000000000000000000000000000001000000000000000000000000000000000000000000000000000000000000000000000000000000000000000000000000000000000000000000000000000000c000000000000000000000000000000000000000000000000000000000000000e000000000000000000000000000000000000000000000000000000000000001400000000000000000000000000000000000000000000000000000000000000000000000000000000000000000000000000000000000000000000000000000002439393863343830352d393631322d346632632d383938312d3132336536393334313061360000000000000000000000000000000000000000000000000000000000000000000000000000000000000000000000000000000000000000000000413578463015f2f5ea25d2e655e92bd29766736194c850753edf77797c11762da429d10a0ba5ce86a8631eda43ab8e15e79e2b9d2a5b1d9c245caf43fea30425251b00000000000000000000000000000000000000000000000000000000000000","l1BlockNumber":"0x11774cc","l1Timestamp":"0x65243d2a","l1TxOrigin":null,"nonce":"0x0","queueIndex":null,"queueOrigin":"sequencer","r":"0x549a429a69ea487961c7b838a3fcdbbc6e1c00ddf3a2309d44000f0ba5096bd6","rawTransaction":"0xf90234808402faf0808302e160947c78b18f496d3d37c44de09da4a5a76eb34b7e748802c68af0bb140000b901c4986d8002000000000000000000000000647950fdbc7506fc12dafc6cd042b70f4e5c2d710000000000000000000000000000000000000000000000000000000000000001000000000000000000000000000000000000000000000000000000000000000000000000000000000000000000000000000000000000000000000000000000c000000000000000000000000000000000000000000000000000000000000000e000000000000000000000000000000000000000000000000000000000000001400000000000000000000000000000000000000000000000000000000000000000000000000000000000000000000000000000000000000000000000000000002439393863343830352d393631322d346632632d383938312d3132336536393334313061360000000000000000000000000000000000000000000000000000000000000000000000000000000000000000000000000000000000000000000000413578463015f2f5ea25d2e655e92bd29766736194c850753edf77797c11762da429d10a0ba5ce86a8631eda43ab8e15e79e2b9d2a5b1d9c245caf43fea30425251b00000000000000000000000000000000000000000000000000000000000000822734a0549a429a69ea487961c7b838a3fcdbbc6e1c00ddf3a2309d44000f0ba5096bd6a0231ddd9a6d71c3591bb9c4ff3726bc96989fa75bd28f31a3f322b8de7134e4bb","s":"0x231ddd9a6d71c3591bb9c4ff3726bc96989fa75bd28f31a3f322b8de7134e4bb","to":"0x7c78b18f496d3d37c44de09da4a5a76eb34b7e74","transactionIndex":"0x0","v":"0x2734","value":"0x2c68af0bb140000"}],"transactionsRoot":"0xdf800a8c2b4fe8015ed2b8da211c755c1f69683e0ceff4c449206fdb6ad19e97","uncles":[]},"receipts":{"0x6a1f58045529a375b9475386e7aa1d07e969462aa8d1dff00047b989ffd1fc6e":{"blockHash":"0x74fee3d7fde53061e2397295c7e2a4d7ce06f154a3c55ed37062be6624580802","blockNumber":"0xd000d2","from":"0x647950fdbc7506fc12dafc6cd042b70f4e5c2d71","gas":"0x2e160","gasPrice":"0x2faf080","hash":"0x6a1f58045529a375b9475386e7aa1d07e969462aa8d1dff00047b989ffd1fc6e","index":"0xd000d1","input":"0x986d8002000000000000000000000000647950fdbc7506fc12dafc6cd042b70f4e5c2d710000000000000000000000000000000000000000000000000000000000000001000000000000000000000000000000000000000000000000000000000000000000000000000000000000000000000000000000000000000000000000000000c000000000000000000000000000000000000000000000000000000000000000e000000000000000000000000000000000000000000000000000000000000001400000000000000000000000000000000000000000000000000000000000000000000000000000000000000000000000000000000000000000000000000000002439393863343830352d393631322d346632632d383938312d3132336536393334313061360000000000000000000000000000000000000000000000000000000000000000000000000000000000000000000000000000000000000000000000413578463015f2f5ea25d2e655e92bd29766736194c850753edf77797c11762da429d10a0ba5ce86a8631eda43ab8e15e79e2b9d2a5b1d9c245caf43fea30425251b00000000000000000000000000000000000000000000000000000000000000","l1BlockNumber":"0x11774cc","l1Timestamp":"0x65243d2a","l1TxOrigin":null,"nonce":"0x0","queueIndex":null,"queueOrigin":"sequencer","r":"0x549a429a69ea487961c7b838a3fcdbbc6e1c00ddf3a2309d44000f0ba5096bd6","rawTransaction":"0xf90234808402faf0808302e160947c78b18f496d3d37c44de09da4a5a76eb34b7e748802c68af0bb140000b901c4986d8002000000000000000000000000647950fdbc7506fc12dafc6cd042b70f4e5c2d710000000000000000000000000000000000000000000000000000000000000001000000000000000000000000000000000000000000000000000000000000000000000000000000000000000000000000000000000000000000000000000000c000000000000000000000000000000000000000000000000000000000000000e000000000000000000000000000000000000000000000000000000000000001400000000000000000000000000000000000000000000000000000000000000000000000000000000000000000000000000000000000000000000000000000002439393863343830352d393631322d346632632d383938312d3132336536393334313061360000000000000000000000000000000000000000000000000000000000000000000000000000000000000000000000000000000000000000000000413578463015f2f5ea25d2e655e92bd29766736194c850753edf77797c11762da429d10a0ba5ce86a8631eda43ab8e15e79e2b9d2a5b1d9c245caf43fea30425251b00000000000000000000000000000000000000000000000000000000000000822734a0549a429a69ea487961c7b838a3fcdbbc6e1c00ddf3a2309d44000f0ba5096bd6a0231ddd9a6d71c3591bb9c4ff3726bc96989fa75bd28f31a3f322b8de7134e4bb","s":"0x231ddd9a6d71c3591bb9c4ff3726bc96989fa75bd28f31a3f322b8de7134e4bb","to":"0x7c78b18f496d3d37c44de09da4a5a76eb34b7e74","transactionIndex":"0x0","v":"0x2734","value":"0x2c68af0bb140000","contractAddress":null,"cumulativeGasUsed":"0x2d08d","daFee":"0x0","daGasPrice":"0x0","daGasUsed":"0x1f2","gasUsed":"0x2d08d","l1Fee":"0x1a09f6380cb9fe0","l1FeeScalar":"1","l1GasPrice":"0x39ff1464e55c","l1GasUsed":"0x72f","logs":[{"address":"0x47cadd4d96bb9576801daea369e6e2e56fee0d19","blockHash":"0x74fee3d7fde53061e2397295c7e2a4d7ce06f154a3c55ed37062be6624580802","blockNumber":"0xd000d2","data":"0x00000000000000000000000000000000000000000000000000000000000000010000000000000000000000000000000000000000000000000000000000000001","logIndex":"0x0","removed":false,"topics":["0xc3d58168c5ae7397731d063d5bbf3d657854427343f4c083240f7aacaa2d0f62","0x0000000000000000000000007c78b18f496d3d37c44de09da4a5a76eb34b7e74","0x0000000000000000000000000000000000000000000000000000000000000000","0x000000000000000000000000647950fdbc7506fc12dafc6cd042b70f4e5c2d71"],"transactionHash":"0x6a1f58045529a375b9475386e7aa1d07e969462aa8d1dff00047b989ffd1fc6e","transactionIndex":"0x0"},{"address":"0x47cadd4d96bb9576801daea369e6e2e56fee0d19","blockHash":"0x74fee3d7fde53061e2397295c7e2a4d7ce06f154a3c55ed37062be6624580802","blockNumber":"0xd000d2","data":"0x","logIndex":"0x1","removed":false,"topics":["0xe9274a84b19e9428826de6bae8c48329354f8f0e73f771b97cae2d9dccd45a27","0x000000000000000000000000647950fdbc7506fc12dafc6cd042b70f4e5c2d71","0x0000000000000000000000000000000000000000000000000000000000000001"],"transactionHash":"0x6a1f58045529a375b9475386e7aa1d07e969462aa8d1dff00047b989ffd1fc6e","transactionIndex":"0x0"},{"address":"0x47cadd4d96bb9576801daea369e6e2e56fee0d19","blockHash":"0x74fee3d7fde53061e2397295c7e2a4d7ce06f154a3c55ed37062be6624580802","blockNumber":"0xd000d2","data":"0x000000000000000000000000000000000000000000000000000000000000002000000000000000000000000000000000000000000000000000000000000000c000000000000000000000000000000000000000000000000000000000000000e00000000000000000000000007c78b18f496d3d37c44de09da4a5a76eb34b7e740000000000000000000000000000000000000000000000000000000065243d2a000000000000000000000000000000000000000000000000000000000000000000000000000000000000000000000000000000000000000000000000000000000000000000000000000000000000000000000000000000000000000000000000000000000000000000000000000000000000000000000000000000000000002439393863343830352d393631322d346632632d383938312d31323365363933343130613600000000000000000000000000000000000000000000000000000000","logIndex":"0x2","removed":false,"topics":["0x11476367c7a4c3dca965f71aed27a373321f502ce956baa94266644456f735c8","0x000000000000000000000000647950fdbc7506fc12dafc6cd042b70f4e5c2d71","0x0000000000000000000000000000000000000000000000000000000000000001"],"transactionHash":"0x6a1f58045529a375b9475386e7aa1d07e969462aa8d1dff00047b989ffd1fc6e","transactionIndex":"0x0"}],"logsBloom":"0x00000000000000000100000000000000000000001004000004000008000000000000000000000000000000000000000000000000000000000000000000042000000000000000000000000000000000000010000000040000040000000000000020000000028000000000000000000800000000000000000001000000000000000080000000000000000000040000000200000000000000000000000000000100000000000000000000000000000000000000000000400000000000000000000000000000000000000000000000000000000000000008000000000000000060000000000000000000000000000000000000000000000000000000080000000000","status":"0x1","transactionHash":"0x6a1f58045529a375b9475386e7aa1d07e969462aa8d1dff00047b989ffd1fc6e"}}}