{"block":{"difficulty":"0x2","extraData":"0xd98301090a846765746889676f312e31352e3133856c696e75780000000000008e846b6eebbc732020441fc312064cadc86187dba7467e67c061cb42fc1616730434feb25dfcadfff8a20dda206956144f1a1c92526f479ce95ccce17dbe4d9501","gasLimit":"0x1c9c380","gasUsed":"0x2f6c4","hash":"0x7c3ef37a5cf01980f204e2437f40530c30e3d730704943c14cb4ad4274ef9054","logsBloom":"0x00000000000000000000000000000000000000004000000000000000000000000000000000000000000000000000000000000000000000000000000000000000000000000000000000000000000000000000000000000000000000000000000000040000000000000000100000000000800000000000000000000000000000000000000000000000000000000000000000000000000040000000000000000000000000000000000000000000000000000000000000000000000000000000000000000000000000000000000000000000000000000000000000000000000000000000000000000000000080000000000000000000000000000000000000000000","miner":"0x0000000000000000000000000000000000000000","mixHash":"0x0000000000000000000000000000000000000000000000000000000000000000","nonce":"0x0000000000000000","number":"0xcff36d","parentHash":"0x0fc66cc5deef78f0ea05716392adbce8d333361d3f1372d14d449bfaa9af963a","receiptsRoot":"0x4c6fd1ab70614cc7494937362f0ea50e7be868987fdfa73c8221788f20cbdac2","sha3Uncles":"0x1dcc4de8dec75d7aab85b567b6ccd41ad312451b948a7413f0a142fd40d49347","size":"0x2fa","stateRoot":"0x78175fa343c9514feafdbf7062d4f604eb4057a5a098808257da7dc1a1be9d9a","timestamp":"0x65243734","totalDifficulty":"0x19fe6db","transactions":[{"blockHash":"0x7c3ef37a5cf01980f204e2437f40530c30e3d730704943c14cb4ad4274ef9054","blockNumber":"0xcff36d","from":"0xe162de15193cf3001879d0a287e9f4b9a50a20ae","gas":"0x300e3","gasPrice":"0x2faf080","hash":"0x9174fdd53ea202e6b15a67e9fa67335db34ca93ef8903106b110cf812d41fdf2","index":"0xcff36c","input":"0x4c85b425000000000000000000000000060820db490f81ea56198963e51c0edbc7b9dbc5","l1BlockNumber":"0x117744d","l1Timestamp":"0x65243734","l1TxOrigin":null,"nonce":"0x2","queueIndex":null,"queueOrigin":"sequencer","r":"0xbc21142d6fc269a409ab1137d50d85ee07d03729973e1f165c32464dd35d38f2","rawTransaction":"0xf892028402faf080830300e39453167401aeebff5677c31e1dda945628422d7ed2880de0b6b3a7640000a44c85b425000000000000000000000000060820db490f81ea56198963e51c0edbc7b9dbc5822734a0bc21142d6fc269a409ab1137d50d85ee07d03729973e1f165c32464dd35d38f2a03252ca22feec9b7a601186672a1e1a201c51ad995013182ff6a181a01ffb25ad","s":"0x3252ca22feec9b7a601186672a1e1a201c51ad995013182ff6a181a01ffb25ad","to":"0x53167401aeebff5677c31e1dda945628422d7ed2","transactionIndex":"0x0","v":"0x2734","value":"0xde0b6b3a7640000"}],"transactionsRoot":"0x789cc0e7bf2ec791778aa76c776d48bdcc808f42b3ee4e95b1260c7eb0d657b3","uncles":[]},"receipts":{"0x9174fdd53ea202e6b15a67e9fa67335db34ca93ef8903106b110cf812d41fdf2":{"blockHash":"0x7c3ef37a5cf01980f204e2437f40530c30e3d730704943c14cb4ad4274ef9054","blockNumber":"0xcff36d","from":"0xe162de15193cf3001879d0a287e9f4b9a50a20ae","gas":"0x300e3","gasPrice":"0x2faf080","hash":"0x9174fdd53ea202e6b15a67e9fa67335db34ca93ef8903106b110cf812d41fdf2","index":"0xcff36c","input":"0x4c85b425000000000000000000000000060820db490f81ea56198963e51c0edbc7b9dbc5","l1BlockNumber":"0x117744d","l1Timestamp":"0x65243734","l1TxOrigin":null,"nonce":"0x2","queueIndex":null,"queueOrigin":"sequencer","r":"0xbc21142d6fc269a409ab1137d50d85ee07d03729973e1f165c32464dd35d38f2","rawTransaction":"0xf892028402faf080830300e39453167401aeebff5677c31e1dda945628422d7ed2880de0b6b3a7640000a44c85b425000000000000000000000000060820db490f81ea56198963e51c0edbc7b9dbc5822734a0bc21142d6fc269a409ab1137d50d85ee07d03729973e1f165c32464dd35d38f2a03252ca22feec9b7a601186672a1e1a201c51ad995013182ff6a181a01ffb25ad","s":"0x3252ca22feec9b7a601186672a1e1a201c51ad995013182ff6a181a01ffb25ad","to":"0x53167401aeebff5677c31e1dda945628422d7ed2","transactionIndex":"0x0","v":"0x2734","value":"0xde0b6b3a7640000","contractAddress":null,"cumulativeGasUsed":"0x2f6c4","daFee":"0x0","daGasPrice":"0x0","daGasUsed":"0x4f","gasUsed":"0x2f6c4","l1Fee":"0x1c5145ff7a866d0","l1FeeScalar":"1","l1GasPrice":"0x3f1249c65230","l1GasUsed":"0x72f","logs":[{"address":"0x53167401aeebff5677c31e1dda945628422d7ed2","blockHash":"0x7c3ef37a5cf01980f204e2437f40530c30e3d730704943c14cb4ad4274ef9054","blockNumber":"0xcff36d","data":"0x000000000000000000000000e162de15193cf3001879d0a287e9f4b9a50a20ae000000000000000000000000060820db490f81ea56198963e51c0edbc7b9dbc5000000000000000000000000000000000000000000000000000000000000000100000000000000000000000000000000000000000000000000000000000000010000000000000000000000000000000000000000000000000c9dbd5d80e68ba20000000000000000000000000000000000000000000000000060e466a525a2e800000000000000000000000000000000000000000000000000a17cab133eba2e00000000000000000000000000000000000000000000000000204c22370c8ba200000000000000000000000000000000000000000000000000204c22370c8ba20000000000000000000000000000000000000000000000000000000000000001000000000000000000000000000000000000000000000000000000000000000300000000000000000000000000000000000000000000000000000000000000000000000000000000000000000000000000000000000000000000000000000001","logIndex":"0x0","removed":false,"topics":["0x0bd0eb03ae3622020e1cc9e94570c94b9e276bc263af8ac1c42747b11074f5fc"],"transactionHash":"0x9174fdd53ea202e6b15a67e9fa67335db34ca93ef8903106b110cf812d41fdf2","transactionIndex":"0x0"}],"logsBloom":"0x00000000000000000000000000000000000000004000000000000000000000000000000000000000000000000000000000000000000000000000000000000000000000000000000000000000000000000000000000000000000000000000000000040000000000000000100000000000800000000000000000000000000000000000000000000000000000000000000000000000000040000000000000000000000000000000000000000000000000000000000000000000000000000000000000000000000000000000000000000000000000000000000000000000000000000000000000000000000080000000000000000000000000000000000000000000","status":"0x1","transactionHash":"0x9174fdd53ea202e6b15a67e9fa67335db34ca93ef8903106b110cf812d41fdf2"}}}