{"block":{"difficulty":"0x2","extraData":"0xd98301090a846765746889676f312e31352e3133856c696e7578000000000000c246159f40926768862bcb0f779c91c000f4c8da0d48ab8d0bf71f44237b039b2c27cdf9a6a124e96f456c90696fc03ce4bedcbcaa4f8e2479c7660b0b0a609701","gasLimit":"0x1c9c380","gasUsed":"0x1d421","hash":"0xd334e5296e2b2b88531cd8d6e5dcd08e6fc62b459afe970f7c515b636f8c5b93","logsBloom":"0x00000000000000000000000000000000000000000001008800000000000000000004000000000000000000000002000000000000000000000000000000200000140000000040000000000008000000000000008000042000000200000000000000000000000000000000002000000080000000000000000000000010200000000000000000000000000000000000000000100000000000000000000000000040020000000000000000000000000200000000000001000000000000000000000000000002000000000000020000000000000000000000000000000010000000000010000000000000000000000000000000000000000000000000000000000000","miner":"0x0000000000000000000000000000000000000000","mixHash":"0x0000000000000000000000000000000000000000000000000000000000000000","nonce":"0x0000000000000000","number":"0xd000a4","parentHash":"0xb2fbd4850f480cef578f264caa361d4249774285a85002c93ba58d1e8450c750","receiptsRoot":"0x8d727c5c61862a1fd67c8b42181c12a019039468584fbcc302215c6703d3a0ba","sha3Uncles":"0x1dcc4de8dec75d7aab85b567b6ccd41ad312451b948a7413f0a142fd40d49347","size":"0x3d8","stateRoot":"0x622588488a5499cfad3d333a9e3f8c799d27bb025f3e45b86023e83da3673e3a","timestamp":"0x65243d16","totalDifficulty":"0x1a00149","transactions":[{"blockHash":"0xd334e5296e2b2b88531cd8d6e5dcd08e6fc62b459afe970f7c515b636f8c5b93","blockNumber":"0xd000a4","from":"0xe30bd56b436549994a249ff28dd4e451b3c1689f","gas":"0x1eb85","gasPrice":"0x2faf080","hash":"0xe233868283da4992328771ed69e6e6dbbb7e9bddfb0344739457dd7842ec6d15","index":"0xd000a3","input":"0x414bf389000000000000000000000000201eba5cc46d216ce6dc03f6a759e8e766e956ae00000000000000000000000078c1b0c915c4faa5fffa6cabf0219da63d7f4cb800000000000000000000000000000000000000000000000000000000000001f4000000000000000000000000e30bd56b436549994a249ff28dd4e451b3c1689f0000000000000000000000000000000000000000000000000000000065243d3700000000000000000000000000000000000000000000000000000000001535b00000000000000000000000000000000000000000000000003289cdd249fd48e70000000000000000000000000000000000000000000000000000000000000000","l1BlockNumber":"0x11774ca","l1Timestamp":"0x65243d16","l1TxOrigin":null,"nonce":"0xecd","queueIndex":null,"queueOrigin":"sequencer","r":"0x6e73ae65ab42bc7009fc9aed887d84f6772c5ae1259c9cf4123012af52bf0e2","rawTransaction":"0xf9016e820ecd8402faf0808301eb8594319b69888b0d11cec22caa5034e25fffbdc8842180b90104414bf389000000000000000000000000201eba5cc46d216ce6dc03f6a759e8e766e956ae00000000000000000000000078c1b0c915c4faa5fffa6cabf0219da63d7f4cb800000000000000000000000000000000000000000000000000000000000001f4000000000000000000000000e30bd56b436549994a249ff28dd4e451b3c1689f0000000000000000000000000000000000000000000000000000000065243d3700000000000000000000000000000000000000000000000000000000001535b00000000000000000000000000000000000000000000000003289cdd249fd48e70000000000000000000000000000000000000000000000000000000000000000822733a006e73ae65ab42bc7009fc9aed887d84f6772c5ae1259c9cf4123012af52bf0e2a03d8a860fa69fbbb7e327a9a427a0ae3831ddfea58183535d2fa4360efea8f0f1","s":"0x3d8a860fa69fbbb7e327a9a427a0ae3831ddfea58183535d2fa4360efea8f0f1","to":"0x319b69888b0d11cec22caa5034e25fffbdc88421","transactionIndex":"0x0","v":"0x2733","value":"0x0"}],"transactionsRoot":"0x9f1d6d10c02224477d48e14477d239cf21ce382615b10d6a8e48b7f5f859744d","uncles":[]},"receipts":{"0xe233868283da4992328771ed69e6e6dbbb7e9bddfb0344739457dd7842ec6d15":{"blockHash":"0xd334e5296e2b2b88531cd8d6e5dcd08e6fc62b459afe970f7c515b636f8c5b93","blockNumber":"0xd000a4","from":"0xe30bd56b436549994a249ff28dd4e451b3c1689f","gas":"0x1eb85","gasPrice":"0x2faf080","hash":"0xe233868283da4992328771ed69e6e6dbbb7e9bddfb0344739457dd7842ec6d15","index":"0xd000a3","input":"0x414bf389000000000000000000000000201eba5cc46d216ce6dc03f6a759e8e766e956ae00000000000000000000000078c1b0c915c4faa5fffa6cabf0219da63d7f4cb800000000000000000000000000000000000000000000000000000000000001f4000000000000000000000000e30bd56b436549994a249ff28dd4e451b3c1689f0000000000000000000000000000000000000000000000000000000065243d3700000000000000000000000000000000000000000000000000000000001535b00000000000000000000000000000000000000000000000003289cdd249fd48e70000000000000000000000000000000000000000000000000000000000000000","l1BlockNumber":"0x11774ca","l1Timestamp":"0x65243d16","l1TxOrigin":null,"nonce":"0xecd","queueIndex":null,"queueOrigin":"sequencer","r":"0x6e73ae65ab42bc7009fc9aed887d84f6772c5ae1259c9cf4123012af52bf0e2","rawTransaction":"0xf9016e820ecd8402faf0808301eb8594319b69888b0d11cec22caa5034e25fffbdc8842180b90104414bf389000000000000000000000000201eba5cc46d216ce6dc03f6a759e8e766e956ae00000000000000000000000078c1b0c915c4faa5fffa6cabf0219da63d7f4cb800000000000000000000000000000000000000000000000000000000000001f4000000000000000000000000e30bd56b436549994a249ff28dd4e451b3c1689f0000000000000000000000000000000000000000000000000000000065243d3700000000000000000000000000000000000000000000000000000000001535b00000000000000000000000000000000000000000000000003289cdd249fd48e70000000000000000000000000000000000000000000000000000000000000000822733a006e73ae65ab42bc7009fc9aed887d84f6772c5ae1259c9cf4123012af52bf0e2a03d8a860fa69fbbb7e327a9a427a0ae3831ddfea58183535d2fa4360efea8f0f1","s":"0x3d8a860fa69fbbb7e327a9a427a0ae3831ddfea58183535d2fa4360efea8f0f1","to":"0x319b69888b0d11cec22caa5034e25fffbdc88421","transactionIndex":"0x0","v":"0x2733","value":"0x0","contractAddress":null,"cumulativeGasUsed":"0x1d421","daFee":"0x0","daGasPrice":"0x0","daGasUsed":"0x12c","gasUsed":"0x1d421","l1Fee":"0x1a09f6380cb9fe0","l1FeeScalar":"1","l1GasPrice":"0x39ff1464e55c","l1GasUsed":"0x72f","logs":[{"address":"0x78c1b0c915c4faa5fffa6cabf0219da63d7f4cb8","blockHash":"0xd334e5296e2b2b88531cd8d6e5dcd08e6fc62b459afe970f7c515b636f8c5b93","blockNumber":"0xd000a4","data":"0x0000000000000000000000000000000000000000000000003391d73f1207ada8","logIndex":"0x0","removed":false,"topics":["0xddf252ad1be2c89b69c2b068fc378daa952ba7f163c4a11628f55a4df523b3ef","0x000000000000000000000000d08c50f7e69e9aeb2867deff4a8053d9a855e26a","0x000000000000000000000000e30bd56b436549994a249ff28dd4e451b3c1689f"],"transactionHash":"0xe233868283da4992328771ed69e6e6dbbb7e9bddfb0344739457dd7842ec6d15","transactionIndex":"0x0"},{"address":"0x201eba5cc46d216ce6dc03f6a759e8e766e956ae","blockHash":"0xd334e5296e2b2b88531cd8d6e5dcd08e6fc62b459afe970f7c515b636f8c5b93","blockNumber":"0xd000a4","data":"0x00000000000000000000000000000000000000000000000000000000001535b0","logIndex":"0x1","removed":false,"topics":["0xddf252ad1be2c89b69c2b068fc378daa952ba7f163c4a11628f55a4df523b3ef","0x000000000000000000000000e30bd56b436549994a249ff28dd4e451b3c1689f","0x000000000000000000000000d08c50f7e69e9aeb2867deff4a8053d9a855e26a"],"transactionHash":"0xe233868283da4992328771ed69e6e6dbbb7e9bddfb0344739457dd7842ec6d15","transactionIndex":"0x0"},{"address":"0x201eba5cc46d216ce6dc03f6a759e8e766e956ae","blockHash":"0xd334e5296e2b2b88531cd8d6e5dcd08e6fc62b459afe970f7c515b636f8c5b93","blockNumber":"0xd000a4","data":"0xffffffffffffffffffffffffffffffffffffffffffffffffffffffff9986efef","logIndex":"0x2","removed":false,"topics":["0x8c5be1e5ebec7d5bd14f71427d1e84f3dd0314c0f7b2291e5b200ac8c7c3b925","0x000000000000000000000000e30bd56b436549994a249ff28dd4e451b3c1689f","0x000000000000000000000000319b69888b0d11cec22caa5034e25fffbdc88421"],"transactionHash":"0xe233868283da4992328771ed69e6e6dbbb7e9bddfb0344739457dd7842ec6d15","transactionIndex":"0x0"},{"address":"0xd08c50f7e69e9aeb2867deff4a8053d9a855e26a","blockHash":"0xd334e5296e2b2b88531cd8d6e5dcd08e6fc62b459afe970f7c515b636f8c5b93","blockNumber":"0xd000a4","data":"0x00000000000000000000000000000000000000000000000000000000001535b0ffffffffffffffffffffffffffffffffffffffffffffffffcc6e28c0edf85258000000000000000000000000000000000018f43e46e8955dae3359c6c6a07ae5000000000000000000000000000000000000000000000000006787d5d3ab8a8c0000000000000000000000000000000000000000000000000000000000045dd200000000000000000000000000000000000000000000000000000000000000ec0000000000000000000000000000000000000000000000000000000000000000","logIndex":"0x3","removed":false,"topics":["0x19b47279256b2a23a1665c810c8d55a1758940ee09377d4f8d26497a3577dc83","0x000000000000000000000000319b69888b0d11cec22caa5034e25fffbdc88421","0x000000000000000000000000e30bd56b436549994a249ff28dd4e451b3c1689f"],"transactionHash":"0xe233868283da4992328771ed69e6e6dbbb7e9bddfb0344739457dd7842ec6d15","transactionIndex":"0x0"}],"logsBloom":"0x00000000000000000000000000000000000000000001008800000000000000000004000000000000000000000002000000000000000000000000000000200000140000000040000000000008000000000000008000042000000200000000000000000000000000000000002000000080000000000000000000000010200000000000000000000000000000000000000000100000000000000000000000000040020000000000000000000000000200000000000001000000000000000000000000000002000000000000020000000000000000000000000000000010000000000010000000000000000000000000000000000000000000000000000000000000","status":"0x1","transactionHash":"0xe233868283da4992328771ed69e6e6dbbb7e9bddfb0344739457dd7842ec6d15"}}}