{"block":{"difficulty":"0x2","extraData":"0xd98301090a846765746889676f312e31352e3133856c696e7578000000000000b0bc2bfff1f3e6b872c11fcaa1666ebb2f8877789b20f9fe8aaf08159906b2d90c3f484b795b363f4054016497652850f26fa2d9f29c3ddd20031566d5fea4ff00","gasLimit":"0x1c9c380","gasUsed":"0x258e1","hash":"0xbbd2b7a74c003c1ace2e7ef833f3bd4cb363a9d96d6a3987bbda49fe5270620a","logsBloom":"0x40000000000000000000000000000000000000000001008800000000000000000000000000000000000000000002000000000000000000000000000000200000840000000040000000000008000000000000808000002004000000000000000000000001000000000000000100000000000000000000000000000010000000000000000000000000000000000000100000000000000000000008000000000000020000000000000000000000000000000000000001000020000100000000000000000002000000000000000000000000000000000000000000000000000000000010000000009000000000000000000000000000000000000000000000000000","miner":"0x0000000000000000000000000000000000000000","mixHash":"0x0000000000000000000000000000000000000000000000000000000000000000","nonce":"0x0000000000000000","number":"0xcff38a","parentHash":"0x14ef7b6adaf41e918fd430fe043ff3017ef55f855f710c086457c74e2f3e6439","receiptsRoot":"0xb70760b11de90163031bc4522e3e3c33de4fb354fbd2a9f11b746d4dc5306e78","sha3Uncles":"0x1dcc4de8dec75d7aab85b567b6ccd41ad312451b948a7413f0a142fd40d49347","size":"0x3d8","stateRoot":"0xcadc58db5ed2d270aca10971a461da7943b331bef1237c805d3d8c4a2e3fa497","timestamp":"0x65243743","totalDifficulty":"0x19fe715","transactions":[{"blockHash":"0xbbd2b7a74c003c1ace2e7ef833f3bd4cb363a9d96d6a3987bbda49fe5270620a","blockNumber":"0xcff38a","from":"0xb0e4e3a2ff0e3efe8e5e2d1ff6ed3f81dc52bd47","gas":"0x27260","gasPrice":"0x2faf080","hash":"0xd8b2660fbaa33819969fe13573b1e6f60584e25ab101118e11ab7f3b06effced","index":"0xcff389","input":"0x414bf389000000000000000000000000201eba5cc46d216ce6dc03f6a759e8e766e956ae000000000000000000000000deaddeaddeaddeaddeaddeaddeaddeaddead111100000000000000000000000000000000000000000000000000000000000001f4000000000000000000000000b0e4e3a2ff0e3efe8e5e2d1ff6ed3f81dc52bd470000000000000000000000000000000000000000000000000000000065243763000000000000000000000000000000000000000000000000000000000016bc50000000000000000000000000000000000000000000000000000348d902e467b10000000000000000000000000000000000000000000000000000000000000000","l1BlockNumber":"0x117744e","l1Timestamp":"0x65243743","l1TxOrigin":null,"nonce":"0x10f5","queueIndex":null,"queueOrigin":"sequencer","r":"0x173ff0dc98d529ecfc74083d7e5cd8f79d907b2ed185f2ca7377e630966900ce","rawTransaction":"0xf9016e8210f58402faf0808302726094319b69888b0d11cec22caa5034e25fffbdc8842180b90104414bf389000000000000000000000000201eba5cc46d216ce6dc03f6a759e8e766e956ae000000000000000000000000deaddeaddeaddeaddeaddeaddeaddeaddead111100000000000000000000000000000000000000000000000000000000000001f4000000000000000000000000b0e4e3a2ff0e3efe8e5e2d1ff6ed3f81dc52bd470000000000000000000000000000000000000000000000000000000065243763000000000000000000000000000000000000000000000000000000000016bc50000000000000000000000000000000000000000000000000000348d902e467b10000000000000000000000000000000000000000000000000000000000000000822733a0173ff0dc98d529ecfc74083d7e5cd8f79d907b2ed185f2ca7377e630966900cea054f0f17ff6cc2e9203814c2a29845b5834d9b3230397364a1b8398730913c782","s":"0x54f0f17ff6cc2e9203814c2a29845b5834d9b3230397364a1b8398730913c782","to":"0x319b69888b0d11cec22caa5034e25fffbdc88421","transactionIndex":"0x0","v":"0x2733","value":"0x0"}],"transactionsRoot":"0x9bfac462d24643d07736cdc66a606ec3180a895962621142fc0d2c9584534881","uncles":[]},"receipts":{"0xd8b2660fbaa33819969fe13573b1e6f60584e25ab101118e11ab7f3b06effced":{"blockHash":"0xbbd2b7a74c003c1ace2e7ef833f3bd4cb363a9d96d6a3987bbda49fe5270620a","blockNumber":"0xcff38a","from":"0xb0e4e3a2ff0e3efe8e5e2d1ff6ed3f81dc52bd47","gas":"0x27260","gasPrice":"0x2faf080","hash":"0xd8b2660fbaa33819969fe13573b1e6f60584e25ab101118e11ab7f3b06effced","index":"0xcff389","input":"0x414bf389000000000000000000000000201eba5cc46d216ce6dc03f6a759e8e766e956ae000000000000000000000000deaddeaddeaddeaddeaddeaddeaddeaddead111100000000000000000000000000000000000000000000000000000000000001f4000000000000000000000000b0e4e3a2ff0e3efe8e5e2d1ff6ed3f81dc52bd470000000000000000000000000000000000000000000000000000000065243763000000000000000000000000000000000000000000000000000000000016bc50000000000000000000000000000000000000000000000000000348d902e467b10000000000000000000000000000000000000000000000000000000000000000","l1BlockNumber":"0x117744e","l1Timestamp":"0x65243743","l1TxOrigin":null,"nonce":"0x10f5","queueIndex":null,"queueOrigin":"sequencer","r":"0x173ff0dc98d529ecfc74083d7e5cd8f79d907b2ed185f2ca7377e630966900ce","rawTransaction":"0xf9016e8210f58402faf0808302726094319b69888b0d11cec22caa5034e25fffbdc8842180b90104414bf389000000000000000000000000201eba5cc46d216ce6dc03f6a759e8e766e956ae000000000000000000000000deaddeaddeaddeaddeaddeaddeaddeaddead111100000000000000000000000000000000000000000000000000000000000001f4000000000000000000000000b0e4e3a2ff0e3efe8e5e2d1ff6ed3f81dc52bd470000000000000000000000000000000000000000000000000000000065243763000000000000000000000000000000000000000000000000000000000016bc50000000000000000000000000000000000000000000000000000348d902e467b10000000000000000000000000000000000000000000000000000000000000000822733a0173ff0dc98d529ecfc74083d7e5cd8f79d907b2ed185f2ca7377e630966900cea054f0f17ff6cc2e9203814c2a29845b5834d9b3230397364a1b8398730913c782","s":"0x54f0f17ff6cc2e9203814c2a29845b5834d9b3230397364a1b8398730913c782","to":"0x319b69888b0d11cec22caa5034e25fffbdc88421","transactionIndex":"0x0","v":"0x2733","value":"0x0","contractAddress":null,"cumulativeGasUsed":"0x258e1","daFee":"0x0","daGasPrice":"0x0","daGasUsed":"0x12c","gasUsed":"0x258e1","l1Fee":"0x1c5145ff7a866d0","l1FeeScalar":"1","l1GasPrice":"0x3f1249c65230","l1GasUsed":"0x72f","logs":[{"address":"0xdeaddeaddeaddeaddeaddeaddeaddeaddead1111","blockHash":"0xbbd2b7a74c003c1ace2e7ef833f3bd4cb363a9d96d6a3987bbda49fe5270620a","blockNumber":"0xcff38a","data":"0x00000000000000000000000000000000000000000000000000035a0202f383ef","logIndex":"0x0","removed":false,"topics":["0xddf252ad1be2c89b69c2b068fc378daa952ba7f163c4a11628f55a4df523b3ef","0x000000000000000000000000628f7131cf43e88ebe3921ae78c4ba0c31872bd4","0x000000000000000000000000b0e4e3a2ff0e3efe8e5e2d1ff6ed3f81dc52bd47"],"transactionHash":"0xd8b2660fbaa33819969fe13573b1e6f60584e25ab101118e11ab7f3b06effced","transactionIndex":"0x0"},{"address":"0x201eba5cc46d216ce6dc03f6a759e8e766e956ae","blockHash":"0xbbd2b7a74c003c1ace2e7ef833f3bd4cb363a9d96d6a3987bbda49fe5270620a","blockNumber":"0xcff38a","data":"0x000000000000000000000000000000000000000000000000000000000016bc50","logIndex":"0x1","removed":false,"topics":["0xddf252ad1be2c89b69c2b068fc378daa952ba7f163c4a11628f55a4df523b3ef","0x000000000000000000000000b0e4e3a2ff0e3efe8e5e2d1ff6ed3f81dc52bd47","0x000000000000000000000000628f7131cf43e88ebe3921ae78c4ba0c31872bd4"],"transactionHash":"0xd8b2660fbaa33819969fe13573b1e6f60584e25ab101118e11ab7f3b06effced","transactionIndex":"0x0"},{"address":"0x201eba5cc46d216ce6dc03f6a759e8e766e956ae","blockHash":"0xbbd2b7a74c003c1ace2e7ef833f3bd4cb363a9d96d6a3987bbda49fe5270620a","blockNumber":"0xcff38a","data":"0xffffffffffffffffffffffffffffffffffffffffffffffffffffffff8bcd24af","logIndex":"0x2","removed":false,"topics":["0x8c5be1e5ebec7d5bd14f71427d1e84f3dd0314c0f7b2291e5b200ac8c7c3b925","0x000000000000000000000000b0e4e3a2ff0e3efe8e5e2d1ff6ed3f81dc52bd47","0x000000000000000000000000319b69888b0d11cec22caa5034e25fffbdc88421"],"transactionHash":"0xd8b2660fbaa33819969fe13573b1e6f60584e25ab101118e11ab7f3b06effced","transactionIndex":"0x0"},{"address":"0x628f7131cf43e88ebe3921ae78c4ba0c31872bd4","blockHash":"0xbbd2b7a74c003c1ace2e7ef833f3bd4cb363a9d96d6a3987bbda49fe5270620a","blockNumber":"0xcff38a","data":"0x000000000000000000000000000000000000000000000000000000000016bc50fffffffffffffffffffffffffffffffffffffffffffffffffffca5fdfd0c7c11000000000000000000000000000000000000624711f8222d515950788166c3cf00000000000000000000000000000000000000000000000000002c69f6c7ad9d00000000000000000000000000000000000000000000000000000000000317ad00000000000000000000000000000000000000000000000000000000000000fc0000000000000000000000000000000000000000000000000000000000000000","logIndex":"0x3","removed":false,"topics":["0x19b47279256b2a23a1665c810c8d55a1758940ee09377d4f8d26497a3577dc83","0x000000000000000000000000319b69888b0d11cec22caa5034e25fffbdc88421","0x000000000000000000000000b0e4e3a2ff0e3efe8e5e2d1ff6ed3f81dc52bd47"],"transactionHash":"0xd8b2660fbaa33819969fe13573b1e6f60584e25ab101118e11ab7f3b06effced","transactionIndex":"0x0"}],"logsBloom":"0x40000000000000000000000000000000000000000001008800000000000000000000000000000000000000000002000000000000000000000000000000200000840000000040000000000008000000000000808000002004000000000000000000000001000000000000000100000000000000000000000000000010000000000000000000000000000000000000100000000000000000000008000000000000020000000000000000000000000000000000000001000020000100000000000000000002000000000000000000000000000000000000000000000000000000000010000000009000000000000000000000000000000000000000000000000000","status":"0x1","transactionHash":"0xd8b2660fbaa33819969fe13573b1e6f60584e25ab101118e11ab7f3b06effced"}}}