{"block":{"difficulty":"0x2","extraData":"0xd98301090a846765746889676f312e31352e3133856c696e75780000000000004ec7c41341bf7a4ab12502c42d8be6acbe30a1ad22ea1f3b05354836dde026634a766ea25f1074efa6a9c8f92701856c827011fafeb7c793e25ca44cb71bffeb00","gasLimit":"0x1c9c380","gasUsed":"0x1e1eb","hash":"0xdc596d462bc7626d2209c4860dd77ea60f9b70e6ea0d844d133e193dcfeaa63b","logsBloom":"0x40000000000000000000000000000000000000000001008800000000000002004000000000000000000000000002000000000000000000000000000000200000840000000040000000000008000000000000008000002004000000000000000000000001000000000000000100000000000000000000000000000010000000000000000000000000000000000000000000000000000000000008000000000000020000000000000000000000000000000000000001000020000100000000000000000002000000000000000000020000000000000000000000000000000000000010000000001000000000000000000000000000000000000000000000000000","miner":"0x0000000000000000000000000000000000000000","mixHash":"0x0000000000000000000000000000000000000000000000000000000000000000","nonce":"0x0000000000000000","number":"0xd002ac","parentHash":"0x72a97ebb21a57fb7b32ba86e023926f0c5904410beeee6879bb46669d5f89ce7","receiptsRoot":"0x5b5a473b52f103427c0db47b0fe6d9c9eeec9522b18f3750951dee106e34ac2c","sha3Uncles":"0x1dcc4de8dec75d7aab85b567b6ccd41ad312451b948a7413f0a142fd40d49347","size":"0x3d8","stateRoot":"0x77eb9ef48334dd10ca9efed51a340d20f0dc8ea27171bf3559beec3eeba267f8","timestamp":"0x65243e2a","totalDifficulty":"0x1a00559","transactions":[{"blockHash":"0xdc596d462bc7626d2209c4860dd77ea60f9b70e6ea0d844d133e193dcfeaa63b","blockNumber":"0xd002ac","from":"0x5d0c62e11b8e2370e26e119d8cb475d68c43f958","gas":"0x1f987","gasPrice":"0x2faf080","hash":"0x7b14d55c8de4a9bda58639d3f96e12ce27d3818372ce280319ea4b35b7d88bf9","index":"0xd002ab","input":"0x414bf389000000000000000000000000201eba5cc46d216ce6dc03f6a759e8e766e956ae000000000000000000000000deaddeaddeaddeaddeaddeaddeaddeaddead111100000000000000000000000000000000000000000000000000000000000001f40000000000000000000000005d0c62e11b8e2370e26e119d8cb475d68c43f9580000000000000000000000000000000000000000000000000000000065243e4c00000000000000000000000000000000000000000000000000000000001499700000000000000000000000000000000000000000000000000002f701671cf4060000000000000000000000000000000000000000000000000000000000000000","l1BlockNumber":"0x11774e2","l1Timestamp":"0x65243e2a","l1TxOrigin":null,"nonce":"0x10ff","queueIndex":null,"queueOrigin":"sequencer","r":"0x9f05609d49e30f6f7ae9d0cf732122e58cc0e2714d7348bdf2a935a0e342676b","rawTransaction":"0xf9016e8210ff8402faf0808301f98794319b69888b0d11cec22caa5034e25fffbdc8842180b90104414bf389000000000000000000000000201eba5cc46d216ce6dc03f6a759e8e766e956ae000000000000000000000000deaddeaddeaddeaddeaddeaddeaddeaddead111100000000000000000000000000000000000000000000000000000000000001f40000000000000000000000005d0c62e11b8e2370e26e119d8cb475d68c43f9580000000000000000000000000000000000000000000000000000000065243e4c00000000000000000000000000000000000000000000000000000000001499700000000000000000000000000000000000000000000000000002f701671cf4060000000000000000000000000000000000000000000000000000000000000000822734a09f05609d49e30f6f7ae9d0cf732122e58cc0e2714d7348bdf2a935a0e342676ba01e2de8efd2491b5979833ec7fa86ca27e1f209f40f143e8021b23eff9ef37673","s":"0x1e2de8efd2491b5979833ec7fa86ca27e1f209f40f143e8021b23eff9ef37673","to":"0x319b69888b0d11cec22caa5034e25fffbdc88421","transactionIndex":"0x0","v":"0x2734","value":"0x0"}],"transactionsRoot":"0x084083ab6b153ffdbfc67226d55d7c366cdde2a74cba38dc60504e7fa7b8ef9b","uncles":[]},"receipts":{"0x7b14d55c8de4a9bda58639d3f96e12ce27d3818372ce280319ea4b35b7d88bf9":{"blockHash":"0xdc596d462bc7626d2209c4860dd77ea60f9b70e6ea0d844d133e193dcfeaa63b","blockNumber":"0xd002ac","from":"0x5d0c62e11b8e2370e26e119d8cb475d68c43f958","gas":"0x1f987","gasPrice":"0x2faf080","hash":"0x7b14d55c8de4a9bda58639d3f96e12ce27d3818372ce280319ea4b35b7d88bf9","index":"0xd002ab","input":"0x414bf389000000000000000000000000201eba5cc46d216ce6dc03f6a759e8e766e956ae000000000000000000000000deaddeaddeaddeaddeaddeaddeaddeaddead111100000000000000000000000000000000000000000000000000000000000001f40000000000000000000000005d0c62e11b8e2370e26e119d8cb475d68c43f9580000000000000000000000000000000000000000000000000000000065243e4c00000000000000000000000000000000000000000000000000000000001499700000000000000000000000000000000000000000000000000002f701671cf4060000000000000000000000000000000000000000000000000000000000000000","l1BlockNumber":"0x11774e2","l1Timestamp":"0x65243e2a","l1TxOrigin":null,"nonce":"0x10ff","queueIndex":null,"queueOrigin":"sequencer","r":"0x9f05609d49e30f6f7ae9d0cf732122e58cc0e2714d7348bdf2a935a0e342676b","rawTransaction":"0xf9016e8210ff8402faf0808301f98794319b69888b0d11cec22caa5034e25fffbdc8842180b90104414bf389000000000000000000000000201eba5cc46d216ce6dc03f6a759e8e766e956ae000000000000000000000000deaddeaddeaddeaddeaddeaddeaddeaddead111100000000000000000000000000000000000000000000000000000000000001f40000000000000000000000005d0c62e11b8e2370e26e119d8cb475d68c43f9580000000000000000000000000000000000000000000000000000000065243e4c00000000000000000000000000000000000000000000000000000000001499700000000000000000000000000000000000000000000000000002f701671cf4060000000000000000000000000000000000000000000000000000000000000000822734a09f05609d49e30f6f7ae9d0cf732122e58cc0e2714d7348bdf2a935a0e342676ba01e2de8efd2491b5979833ec7fa86ca27e1f209f40f143e8021b23eff9ef37673","s":"0x1e2de8efd2491b5979833ec7fa86ca27e1f209f40f143e8021b23eff9ef37673","to":"0x319b69888b0d11cec22caa5034e25fffbdc88421","transactionIndex":"0x0","v":"0x2734","value":"0x0","contractAddress":null,"cumulativeGasUsed":"0x1e1eb","daFee":"0x0","daGasPrice":"0x0","daGasUsed":"0x12c","gasUsed":"0x1e1eb","l1Fee":"0x19709d787180660","l1FeeScalar":"1","l1GasPrice":"0x38a987f04864","l1GasUsed":"0x72f","logs":[{"address":"0xdeaddeaddeaddeaddeaddeaddeaddeaddead1111","blockHash":"0xdc596d462bc7626d2209c4860dd77ea60f9b70e6ea0d844d133e193dcfeaa63b","blockNumber":"0xd002ac","data":"0x0000000000000000000000000000000000000000000000000003067ed1b50de7","logIndex":"0x0","removed":false,"topics":["0xddf252ad1be2c89b69c2b068fc378daa952ba7f163c4a11628f55a4df523b3ef","0x000000000000000000000000628f7131cf43e88ebe3921ae78c4ba0c31872bd4","0x0000000000000000000000005d0c62e11b8e2370e26e119d8cb475d68c43f958"],"transactionHash":"0x7b14d55c8de4a9bda58639d3f96e12ce27d3818372ce280319ea4b35b7d88bf9","transactionIndex":"0x0"},{"address":"0x201eba5cc46d216ce6dc03f6a759e8e766e956ae","blockHash":"0xdc596d462bc7626d2209c4860dd77ea60f9b70e6ea0d844d133e193dcfeaa63b","blockNumber":"0xd002ac","data":"0x0000000000000000000000000000000000000000000000000000000000149970","logIndex":"0x1","removed":false,"topics":["0xddf252ad1be2c89b69c2b068fc378daa952ba7f163c4a11628f55a4df523b3ef","0x0000000000000000000000005d0c62e11b8e2370e26e119d8cb475d68c43f958","0x000000000000000000000000628f7131cf43e88ebe3921ae78c4ba0c31872bd4"],"transactionHash":"0x7b14d55c8de4a9bda58639d3f96e12ce27d3818372ce280319ea4b35b7d88bf9","transactionIndex":"0x0"},{"address":"0x201eba5cc46d216ce6dc03f6a759e8e766e956ae","blockHash":"0xdc596d462bc7626d2209c4860dd77ea60f9b70e6ea0d844d133e193dcfeaa63b","blockNumber":"0xd002ac","data":"0xffffffffffffffffffffffffffffffffffffffffffffffffffffffff868e379f","logIndex":"0x2","removed":false,"topics":["0x8c5be1e5ebec7d5bd14f71427d1e84f3dd0314c0f7b2291e5b200ac8c7c3b925","0x0000000000000000000000005d0c62e11b8e2370e26e119d8cb475d68c43f958","0x000000000000000000000000319b69888b0d11cec22caa5034e25fffbdc88421"],"transactionHash":"0x7b14d55c8de4a9bda58639d3f96e12ce27d3818372ce280319ea4b35b7d88bf9","transactionIndex":"0x0"},{"address":"0x628f7131cf43e88ebe3921ae78c4ba0c31872bd4","blockHash":"0xdc596d462bc7626d2209c4860dd77ea60f9b70e6ea0d844d133e193dcfeaa63b","blockNumber":"0xd002ac","data":"0x0000000000000000000000000000000000000000000000000000000000149970fffffffffffffffffffffffffffffffffffffffffffffffffffcf9812e4af219000000000000000000000000000000000000621918a789eb34a98a60151c435100000000000000000000000000000000000000000000000000002c65dde06c20000000000000000000000000000000000000000000000000000000000003178900000000000000000000000000000000000000000000000000000000000000e50000000000000000000000000000000000000000000000000000000000000000","logIndex":"0x3","removed":false,"topics":["0x19b47279256b2a23a1665c810c8d55a1758940ee09377d4f8d26497a3577dc83","0x000000000000000000000000319b69888b0d11cec22caa5034e25fffbdc88421","0x0000000000000000000000005d0c62e11b8e2370e26e119d8cb475d68c43f958"],"transactionHash":"0x7b14d55c8de4a9bda58639d3f96e12ce27d3818372ce280319ea4b35b7d88bf9","transactionIndex":"0x0"}],"logsBloom":"0x40000000000000000000000000000000000000000001008800000000000002004000000000000000000000000002000000000000000000000000000000200000840000000040000000000008000000000000008000002004000000000000000000000001000000000000000100000000000000000000000000000010000000000000000000000000000000000000000000000000000000000008000000000000020000000000000000000000000000000000000001000020000100000000000000000002000000000000000000020000000000000000000000000000000000000010000000001000000000000000000000000000000000000000000000000000","status":"0x1","transactionHash":"0x7b14d55c8de4a9bda58639d3f96e12ce27d3818372ce280319ea4b35b7d88bf9"}}}