{"block":{"difficulty":"0x2","extraData":"0xd98301090a846765746889676f312e31352e3133856c696e75780000000000003256763c80901da4a86fbfba330bc88fc6e7548694c494437c931a8387c3f6291e0305ea8c5d09944fdba9a97c06f9bb00836cdcf3be74f0c10a5b5b56319bd700","gasLimit":"0x1c9c380","gasUsed":"0x1d2b9","hash":"0x2083b24b1c4e90b6fafde71e69ee0c9f62a0a54add988f758e7722d7fc95a6c4","logsBloom":"0x40000000000000000000010000000000000000000001008800000000000000000000000000000000000000000002000000000000000000000000000000200000840000000040000040080008000000000000008000002004000000000000000000000001000000000000000100000000000000000000000000000010000000000000000000000000000000000000000000000000000000000008000000000000020000000000000000000000000000000000000001000020000100000000000000000002000000000000000000000000000000000000000000000000000000000010000000001000000000000000000000000000000000000000000000000000","miner":"0x0000000000000000000000000000000000000000","mixHash":"0x0000000000000000000000000000000000000000000000000000000000000000","nonce":"0x0000000000000000","number":"0xd00389","parentHash":"0x8d3144dea841db2f3e7ef3d11471dfff428e704f5886acbb670c789dec9c5f1c","receiptsRoot":"0xb2e4e25bcb940c3666d61b4f3dfb2c03a3c8c286b5f3085d95ba955a51ca1719","sha3Uncles":"0x1dcc4de8dec75d7aab85b567b6ccd41ad312451b948a7413f0a142fd40d49347","size":"0x3d8","stateRoot":"0xaf5304eeec1ba91110ba451df023e49b5ab2342732ff29e7e87fb955402d9069","timestamp":"0x65243e8f","totalDifficulty":"0x1a00713","transactions":[{"blockHash":"0x2083b24b1c4e90b6fafde71e69ee0c9f62a0a54add988f758e7722d7fc95a6c4","blockNumber":"0xd00389","from":"0x1f179f0c7556473dff692d1b17fba4f619a72681","gas":"0x1f991","gasPrice":"0x2faf080","hash":"0x1dab4ce7578b17173b9335713a9c9ae8dd7c96db08375bd3f3734cab68cbeaa5","index":"0xd00388","input":"0x414bf389000000000000000000000000201eba5cc46d216ce6dc03f6a759e8e766e956ae000000000000000000000000deaddeaddeaddeaddeaddeaddeaddeaddead111100000000000000000000000000000000000000000000000000000000000001f40000000000000000000000001f179f0c7556473dff692d1b17fba4f619a726810000000000000000000000000000000000000000000000000000000065243eae00000000000000000000000000000000000000000000000000000000000f90600000000000000000000000000000000000000000000000000002397b17fbe5800000000000000000000000000000000000000000000000000000000000000000","l1BlockNumber":"0x11774ea","l1Timestamp":"0x65243e8f","l1TxOrigin":null,"nonce":"0xbca","queueIndex":null,"queueOrigin":"sequencer","r":"0x7752ac73e1dbd6d9901f15911709d4b829599ea6123df20bb7ff12de2388e62e","rawTransaction":"0xf9016e820bca8402faf0808301f99194319b69888b0d11cec22caa5034e25fffbdc8842180b90104414bf389000000000000000000000000201eba5cc46d216ce6dc03f6a759e8e766e956ae000000000000000000000000deaddeaddeaddeaddeaddeaddeaddeaddead111100000000000000000000000000000000000000000000000000000000000001f40000000000000000000000001f179f0c7556473dff692d1b17fba4f619a726810000000000000000000000000000000000000000000000000000000065243eae00000000000000000000000000000000000000000000000000000000000f90600000000000000000000000000000000000000000000000000002397b17fbe5800000000000000000000000000000000000000000000000000000000000000000822733a07752ac73e1dbd6d9901f15911709d4b829599ea6123df20bb7ff12de2388e62ea02a74027f753bc57f89ed1f759c06dc993d2298cdb4d05ccc1698a0bff4c3eca7","s":"0x2a74027f753bc57f89ed1f759c06dc993d2298cdb4d05ccc1698a0bff4c3eca7","to":"0x319b69888b0d11cec22caa5034e25fffbdc88421","transactionIndex":"0x0","v":"0x2733","value":"0x0"}],"transactionsRoot":"0x9c447a3a45fadc745e8a901754e5f825c43837ea6c9e2c43ee8d0f04ddf25236","uncles":[]},"receipts":{"0x1dab4ce7578b17173b9335713a9c9ae8dd7c96db08375bd3f3734cab68cbeaa5":{"blockHash":"0x2083b24b1c4e90b6fafde71e69ee0c9f62a0a54add988f758e7722d7fc95a6c4","blockNumber":"0xd00389","from":"0x1f179f0c7556473dff692d1b17fba4f619a72681","gas":"0x1f991","gasPrice":"0x2faf080","hash":"0x1dab4ce7578b17173b9335713a9c9ae8dd7c96db08375bd3f3734cab68cbeaa5","index":"0xd00388","input":"0x414bf389000000000000000000000000201eba5cc46d216ce6dc03f6a759e8e766e956ae000000000000000000000000deaddeaddeaddeaddeaddeaddeaddeaddead111100000000000000000000000000000000000000000000000000000000000001f40000000000000000000000001f179f0c7556473dff692d1b17fba4f619a726810000000000000000000000000000000000000000000000000000000065243eae00000000000000000000000000000000000000000000000000000000000f90600000000000000000000000000000000000000000000000000002397b17fbe5800000000000000000000000000000000000000000000000000000000000000000","l1BlockNumber":"0x11774ea","l1Timestamp":"0x65243e8f","l1TxOrigin":null,"nonce":"0xbca","queueIndex":null,"queueOrigin":"sequencer","r":"0x7752ac73e1dbd6d9901f15911709d4b829599ea6123df20bb7ff12de2388e62e","rawTransaction":"0xf9016e820bca8402faf0808301f99194319b69888b0d11cec22caa5034e25fffbdc8842180b90104414bf389000000000000000000000000201eba5cc46d216ce6dc03f6a759e8e766e956ae000000000000000000000000deaddeaddeaddeaddeaddeaddeaddeaddead111100000000000000000000000000000000000000000000000000000000000001f40000000000000000000000001f179f0c7556473dff692d1b17fba4f619a726810000000000000000000000000000000000000000000000000000000065243eae00000000000000000000000000000000000000000000000000000000000f90600000000000000000000000000000000000000000000000000002397b17fbe5800000000000000000000000000000000000000000000000000000000000000000822733a07752ac73e1dbd6d9901f15911709d4b829599ea6123df20bb7ff12de2388e62ea02a74027f753bc57f89ed1f759c06dc993d2298cdb4d05ccc1698a0bff4c3eca7","s":"0x2a74027f753bc57f89ed1f759c06dc993d2298cdb4d05ccc1698a0bff4c3eca7","to":"0x319b69888b0d11cec22caa5034e25fffbdc88421","transactionIndex":"0x0","v":"0x2733","value":"0x0","contractAddress":null,"cumulativeGasUsed":"0x1d2b9","daFee":"0x0","daGasPrice":"0x0","daGasUsed":"0x12c","gasUsed":"0x1d2b9","l1Fee":"0x19709d787180660","l1FeeScalar":"1","l1GasPrice":"0x38a987f04864","l1GasUsed":"0x72f","logs":[{"address":"0xdeaddeaddeaddeaddeaddeaddeaddeaddead1111","blockHash":"0x2083b24b1c4e90b6fafde71e69ee0c9f62a0a54add988f758e7722d7fc95a6c4","blockNumber":"0xd00389","data":"0x000000000000000000000000000000000000000000000000000245c711d588ce","logIndex":"0x0","removed":false,"topics":["0xddf252ad1be2c89b69c2b068fc378daa952ba7f163c4a11628f55a4df523b3ef","0x000000000000000000000000628f7131cf43e88ebe3921ae78c4ba0c31872bd4","0x0000000000000000000000001f179f0c7556473dff692d1b17fba4f619a72681"],"transactionHash":"0x1dab4ce7578b17173b9335713a9c9ae8dd7c96db08375bd3f3734cab68cbeaa5","transactionIndex":"0x0"},{"address":"0x201eba5cc46d216ce6dc03f6a759e8e766e956ae","blockHash":"0x2083b24b1c4e90b6fafde71e69ee0c9f62a0a54add988f758e7722d7fc95a6c4","blockNumber":"0xd00389","data":"0x00000000000000000000000000000000000000000000000000000000000f9060","logIndex":"0x1","removed":false,"topics":["0xddf252ad1be2c89b69c2b068fc378daa952ba7f163c4a11628f55a4df523b3ef","0x0000000000000000000000001f179f0c7556473dff692d1b17fba4f619a72681","0x000000000000000000000000628f7131cf43e88ebe3921ae78c4ba0c31872bd4"],"transactionHash":"0x1dab4ce7578b17173b9335713a9c9ae8dd7c96db08375bd3f3734cab68cbeaa5","transactionIndex":"0x0"},{"address":"0x201eba5cc46d216ce6dc03f6a759e8e766e956ae","blockHash":"0x2083b24b1c4e90b6fafde71e69ee0c9f62a0a54add988f758e7722d7fc95a6c4","blockNumber":"0xd00389","data":"0xffffffffffffffffffffffffffffffffffffffffffffffffffffffffb09641ef","logIndex":"0x2","removed":false,"topics":["0x8c5be1e5ebec7d5bd14f71427d1e84f3dd0314c0f7b2291e5b200ac8c7c3b925","0x0000000000000000000000001f179f0c7556473dff692d1b17fba4f619a72681","0x000000000000000000000000319b69888b0d11cec22caa5034e25fffbdc88421"],"transactionHash":"0x1dab4ce7578b17173b9335713a9c9ae8dd7c96db08375bd3f3734cab68cbeaa5","transactionIndex":"0x0"},{"address":"0x628f7131cf43e88ebe3921ae78c4ba0c31872bd4","blockHash":"0x2083b24b1c4e90b6fafde71e69ee0c9f62a0a54add988f758e7722d7fc95a6c4","blockNumber":"0xd00389","data":"0x00000000000000000000000000000000000000000000000000000000000f9060fffffffffffffffffffffffffffffffffffffffffffffffffffdba38ee2a773200000000000000000000000000000000000061d23fd81644370abf0ab8d1f0a800000000000000000000000000000000000000000000000000002c65dde06c20000000000000000000000000000000000000000000000000000000000003175000000000000000000000000000000000000000000000000000000000000000ad0000000000000000000000000000000000000000000000000000000000000000","logIndex":"0x3","removed":false,"topics":["0x19b47279256b2a23a1665c810c8d55a1758940ee09377d4f8d26497a3577dc83","0x000000000000000000000000319b69888b0d11cec22caa5034e25fffbdc88421","0x0000000000000000000000001f179f0c7556473dff692d1b17fba4f619a72681"],"transactionHash":"0x1dab4ce7578b17173b9335713a9c9ae8dd7c96db08375bd3f3734cab68cbeaa5","transactionIndex":"0x0"}],"logsBloom":"0x40000000000000000000010000000000000000000001008800000000000000000000000000000000000000000002000000000000000000000000000000200000840000000040000040080008000000000000008000002004000000000000000000000001000000000000000100000000000000000000000000000010000000000000000000000000000000000000000000000000000000000008000000000000020000000000000000000000000000000000000001000020000100000000000000000002000000000000000000000000000000000000000000000000000000000010000000001000000000000000000000000000000000000000000000000000","status":"0x1","transactionHash":"0x1dab4ce7578b17173b9335713a9c9ae8dd7c96db08375bd3f3734cab68cbeaa5"}}}