{"block":{"difficulty":"0x2","extraData":"0xd98301090a846765746889676f312e31352e3133856c696e75780000000000008a34a72ca07ffcbb63f60785740ee7ee59c6ed622fa6a8aebc0da2d58564ded1362095b3c85025f222f5cc0598f4590b2c51f6ba0ff12674db612ba65d48866b00","gasLimit":"0x1c9c380","gasUsed":"0xb4c2","hash":"0x14ddb5d7bd784de1bacc324bbdf38f5b9f49fb6abf8c9c25d5e92e32bc068f55","logsBloom":"0x00000000040000000000000000000000000000000000000000000000000000000000000000000000000000000000000080000000000000000000000000200000000000020000000000000000040000000000000000000000000000000000000000000000000000000000000100000000000000000000000000000000000000000000000000000000000000000000000000000000000000000000000000000000020000000000800000000000000000000000000000000000000100000000000000002000000000000000000000000000000000000000000000000000000000000010000000001000000000000000000000000000000000000000000000000000","miner":"0x0000000000000000000000000000000000000000","mixHash":"0x0000000000000000000000000000000000000000000000000000000000000000","nonce":"0x0000000000000000","number":"0xd00391","parentHash":"0xc74e9f4646c2ddda31f2c0878cc6ba304adaf4e7af16e69789c9f49567351d85","receiptsRoot":"0xeac2beaae7eb35fbb3aa8a3a52b1fc3101dc8adc25bc3555890b389c223fc500","sha3Uncles":"0x1dcc4de8dec75d7aab85b567b6ccd41ad312451b948a7413f0a142fd40d49347","size":"0x311","stateRoot":"0x5abe4511ff0fe719f76b4ccc24192164450232c1526198acf9f7e2cc5efcfccc","timestamp":"0x65243e8f","totalDifficulty":"0x1a00723","transactions":[{"blockHash":"0x14ddb5d7bd784de1bacc324bbdf38f5b9f49fb6abf8c9c25d5e92e32bc068f55","blockNumber":"0xd00391","from":"0x5846fbda3e831e9268ca075ae80a52d7dd12293b","gas":"0xb4c2","gasPrice":"0x3b9aca00","hash":"0x15c3e5badc98d7c2d2ffd65d7b3fca9e9b15cab311669e3df5df3edb5dbe5163","index":"0xd00390","input":"0x095ea7b30000000000000000000000005752f085206ab87d8a5ef6166779658add4557740000000000000000000000000000000000000000000000000002d79883d20000","l1BlockNumber":"0x11774ea","l1Timestamp":"0x65243e8f","l1TxOrigin":null,"nonce":"0x4","queueIndex":null,"queueOrigin":"sequencer","r":"0x73eda8d4d9c2ec11cae7e1544a55d73b51980938311c4866f22a8f8f5fd75778","rawTransaction":"0xf8aa04843b9aca0082b4c294deaddeaddeaddeaddeaddeaddeaddeaddead111180b844095ea7b30000000000000000000000005752f085206ab87d8a5ef6166779658add4557740000000000000000000000000000000000000000000000000002d79883d20000822733a073eda8d4d9c2ec11cae7e1544a55d73b51980938311c4866f22a8f8f5fd75778a026424ec1191b9a4263f52c7722a78f7f98f064eba9b2a0524eb1eb7c71b2ca32","s":"0x26424ec1191b9a4263f52c7722a78f7f98f064eba9b2a0524eb1eb7c71b2ca32","to":"0xdeaddeaddeaddeaddeaddeaddeaddeaddead1111","transactionIndex":"0x0","v":"0x2733","value":"0x0"}],"transactionsRoot":"0xd71f7e0f64bc6165652988908ed25e27e92ee6e793270847f529678c6f86bfe7","uncles":[]},"receipts":{"0x15c3e5badc98d7c2d2ffd65d7b3fca9e9b15cab311669e3df5df3edb5dbe5163":{"blockHash":"0x14ddb5d7bd784de1bacc324bbdf38f5b9f49fb6abf8c9c25d5e92e32bc068f55","blockNumber":"0xd00391","from":"0x5846fbda3e831e9268ca075ae80a52d7dd12293b","gas":"0xb4c2","gasPrice":"0x3b9aca00","hash":"0x15c3e5badc98d7c2d2ffd65d7b3fca9e9b15cab311669e3df5df3edb5dbe5163","index":"0xd00390","input":"0x095ea7b30000000000000000000000005752f085206ab87d8a5ef6166779658add4557740000000000000000000000000000000000000000000000000002d79883d20000","l1BlockNumber":"0x11774ea","l1Timestamp":"0x65243e8f","l1TxOrigin":null,"nonce":"0x4","queueIndex":null,"queueOrigin":"sequencer","r":"0x73eda8d4d9c2ec11cae7e1544a55d73b51980938311c4866f22a8f8f5fd75778","rawTransaction":"0xf8aa04843b9aca0082b4c294deaddeaddeaddeaddeaddeaddeaddeaddead111180b844095ea7b30000000000000000000000005752f085206ab87d8a5ef6166779658add4557740000000000000000000000000000000000000000000000000002d79883d20000822733a073eda8d4d9c2ec11cae7e1544a55d73b51980938311c4866f22a8f8f5fd75778a026424ec1191b9a4263f52c7722a78f7f98f064eba9b2a0524eb1eb7c71b2ca32","s":"0x26424ec1191b9a4263f52c7722a78f7f98f064eba9b2a0524eb1eb7c71b2ca32","to":"0xdeaddeaddeaddeaddeaddeaddeaddeaddead1111","transactionIndex":"0x0","v":"0x2733","value":"0x0","contractAddress":null,"cumulativeGasUsed":"0xb4c2","daFee":"0x0","daGasPrice":"0x0","daGasUsed":"0x67","gasUsed":"0xb4c2","l1Fee":"0x19709d787180660","l1FeeScalar":"1","l1GasPrice":"0x38a987f04864","l1GasUsed":"0x72f","logs":[{"address":"0xdeaddeaddeaddeaddeaddeaddeaddeaddead1111","blockHash":"0x14ddb5d7bd784de1bacc324bbdf38f5b9f49fb6abf8c9c25d5e92e32bc068f55","blockNumber":"0xd00391","data":"0x0000000000000000000000000000000000000000000000000002d79883d20000","logIndex":"0x0","removed":false,"topics":["0x8c5be1e5ebec7d5bd14f71427d1e84f3dd0314c0f7b2291e5b200ac8c7c3b925","0x0000000000000000000000005846fbda3e831e9268ca075ae80a52d7dd12293b","0x0000000000000000000000005752f085206ab87d8a5ef6166779658add455774"],"transactionHash":"0x15c3e5badc98d7c2d2ffd65d7b3fca9e9b15cab311669e3df5df3edb5dbe5163","transactionIndex":"0x0"}],"logsBloom":"0x00000000040000000000000000000000000000000000000000000000000000000000000000000000000000000000000080000000000000000000000000200000000000020000000000000000040000000000000000000000000000000000000000000000000000000000000100000000000000000000000000000000000000000000000000000000000000000000000000000000000000000000000000000000020000000000800000000000000000000000000000000000000100000000000000002000000000000000000000000000000000000000000000000000000000000010000000001000000000000000000000000000000000000000000000000000","status":"0x1","transactionHash":"0x15c3e5badc98d7c2d2ffd65d7b3fca9e9b15cab311669e3df5df3edb5dbe5163"}}}