{"block":{"difficulty":"0x2","extraData":"0xd98301090a846765746889676f312e31352e3133856c696e7578000000000000ff4b9f5cd214acce896ca424945058ab3c6fc1756670ad15254f8794d24732541431b132778a29622b7ef39f78a3e9458aca257569d10836403cffc58936a58200","gasLimit":"0x1c9c380","gasUsed":"0x204d1","hash":"0xd0fdc54ac69f3b1197959da93fcf8b261506f32d4aeef84d356c45ec5fea5aea","logsBloom":"0x0000000000000000000000000000000000004000000100880000000800000000800000000000000000000000000200000000000000200000000000000000000004800000004400000000000800000000000000c000002000000000000000000000000000000000000000000000000000000000100000800000000010000000000000000000000000000000000000000000000000000000000000000000000000000000000000000000000000000000000000400001000000000000000000000000000002000000000000000000000000002000000000000000000000000000000000000000000000000000000000000000000000000010000000000000000000","miner":"0x0000000000000000000000000000000000000000","mixHash":"0x0000000000000000000000000000000000000000000000000000000000000000","nonce":"0x0000000000000000","number":"0xcff3da","parentHash":"0x5276f379de269d94b0b1e3563d60ca7fac32fcc092dc08c8914e38b41a950ce3","receiptsRoot":"0x73307e09f0af5b39db21cb11e8bb972d069a4a38ba6cb9c2461e7d368bb16706","sha3Uncles":"0x1dcc4de8dec75d7aab85b567b6ccd41ad312451b948a7413f0a142fd40d49347","size":"0x3d8","stateRoot":"0xc76b696887cb3f0ef08d0e1b08795f1af950a7fef9db4ac5c833fe35ed1cd607","timestamp":"0x65243761","totalDifficulty":"0x19fe7b5","transactions":[{"blockHash":"0xd0fdc54ac69f3b1197959da93fcf8b261506f32d4aeef84d356c45ec5fea5aea","blockNumber":"0xcff3da","from":"0x36c55770804259ba523cf9b801e48d62b5007477","gas":"0x21cfc","gasPrice":"0x2faf080","hash":"0x485418c64921cebd4f29c8f43f40d46ccf918e85c7dce6529d930d054bb57269","index":"0xcff3d9","input":"0x414bf38900000000000000000000000009bc4e0d864854c6afb6eb9a9cdf58ac190d0df9000000000000000000000000201eba5cc46d216ce6dc03f6a759e8e766e956ae000000000000000000000000000000000000000000000000000000000000006400000000000000000000000036c55770804259ba523cf9b801e48d62b5007477000000000000000000000000000000000000000000000000000000006524378200000000000000000000000000000000000000000000000000000000000e09c000000000000000000000000000000000000000000000000000000000000dc0580000000000000000000000000000000000000000000000000000000000000000","l1BlockNumber":"0x1177451","l1Timestamp":"0x65243761","l1TxOrigin":null,"nonce":"0x1179","queueIndex":null,"queueOrigin":"sequencer","r":"0xdb50e02081a0cd1526cee1009c80298c61be810497e1e9e86e68f5a32758ebb4","rawTransaction":"0xf9016e8211798402faf08083021cfc94319b69888b0d11cec22caa5034e25fffbdc8842180b90104414bf38900000000000000000000000009bc4e0d864854c6afb6eb9a9cdf58ac190d0df9000000000000000000000000201eba5cc46d216ce6dc03f6a759e8e766e956ae000000000000000000000000000000000000000000000000000000000000006400000000000000000000000036c55770804259ba523cf9b801e48d62b5007477000000000000000000000000000000000000000000000000000000006524378200000000000000000000000000000000000000000000000000000000000e09c000000000000000000000000000000000000000000000000000000000000dc0580000000000000000000000000000000000000000000000000000000000000000822734a0db50e02081a0cd1526cee1009c80298c61be810497e1e9e86e68f5a32758ebb4a05cd49162a9a588bbfacbdd54a6d188c917c90373f5feeff30c583d3db189f7c9","s":"0x5cd49162a9a588bbfacbdd54a6d188c917c90373f5feeff30c583d3db189f7c9","to":"0x319b69888b0d11cec22caa5034e25fffbdc88421","transactionIndex":"0x0","v":"0x2734","value":"0x0"}],"transactionsRoot":"0x7fc048c2cb916fdf37e70ab4ea0c9021237343336c0a43e556ae60ba17a2f105","uncles":[]},"receipts":{"0x485418c64921cebd4f29c8f43f40d46ccf918e85c7dce6529d930d054bb57269":{"blockHash":"0xd0fdc54ac69f3b1197959da93fcf8b261506f32d4aeef84d356c45ec5fea5aea","blockNumber":"0xcff3da","from":"0x36c55770804259ba523cf9b801e48d62b5007477","gas":"0x21cfc","gasPrice":"0x2faf080","hash":"0x485418c64921cebd4f29c8f43f40d46ccf918e85c7dce6529d930d054bb57269","index":"0xcff3d9","input":"0x414bf38900000000000000000000000009bc4e0d864854c6afb6eb9a9cdf58ac190d0df9000000000000000000000000201eba5cc46d216ce6dc03f6a759e8e766e956ae000000000000000000000000000000000000000000000000000000000000006400000000000000000000000036c55770804259ba523cf9b801e48d62b5007477000000000000000000000000000000000000000000000000000000006524378200000000000000000000000000000000000000000000000000000000000e09c000000000000000000000000000000000000000000000000000000000000dc0580000000000000000000000000000000000000000000000000000000000000000","l1BlockNumber":"0x1177451","l1Timestamp":"0x65243761","l1TxOrigin":null,"nonce":"0x1179","queueIndex":null,"queueOrigin":"sequencer","r":"0xdb50e02081a0cd1526cee1009c80298c61be810497e1e9e86e68f5a32758ebb4","rawTransaction":"0xf9016e8211798402faf08083021cfc94319b69888b0d11cec22caa5034e25fffbdc8842180b90104414bf38900000000000000000000000009bc4e0d864854c6afb6eb9a9cdf58ac190d0df9000000000000000000000000201eba5cc46d216ce6dc03f6a759e8e766e956ae000000000000000000000000000000000000000000000000000000000000006400000000000000000000000036c55770804259ba523cf9b801e48d62b5007477000000000000000000000000000000000000000000000000000000006524378200000000000000000000000000000000000000000000000000000000000e09c000000000000000000000000000000000000000000000000000000000000dc0580000000000000000000000000000000000000000000000000000000000000000822734a0db50e02081a0cd1526cee1009c80298c61be810497e1e9e86e68f5a32758ebb4a05cd49162a9a588bbfacbdd54a6d188c917c90373f5feeff30c583d3db189f7c9","s":"0x5cd49162a9a588bbfacbdd54a6d188c917c90373f5feeff30c583d3db189f7c9","to":"0x319b69888b0d11cec22caa5034e25fffbdc88421","transactionIndex":"0x0","v":"0x2734","value":"0x0","contractAddress":null,"cumulativeGasUsed":"0x204d1","daFee":"0x0","daGasPrice":"0x0","daGasUsed":"0x12c","gasUsed":"0x204d1","l1Fee":"0x1c5145ff7a866d0","l1FeeScalar":"1","l1GasPrice":"0x3f1249c65230","l1GasUsed":"0x72f","logs":[{"address":"0x201eba5cc46d216ce6dc03f6a759e8e766e956ae","blockHash":"0xd0fdc54ac69f3b1197959da93fcf8b261506f32d4aeef84d356c45ec5fea5aea","blockNumber":"0xcff3da","data":"0x00000000000000000000000000000000000000000000000000000000000e0831","logIndex":"0x0","removed":false,"topics":["0xddf252ad1be2c89b69c2b068fc378daa952ba7f163c4a11628f55a4df523b3ef","0x0000000000000000000000006488f911c6cd86c289aa319c5a826dcf8f1ca065","0x00000000000000000000000036c55770804259ba523cf9b801e48d62b5007477"],"transactionHash":"0x485418c64921cebd4f29c8f43f40d46ccf918e85c7dce6529d930d054bb57269","transactionIndex":"0x0"},{"address":"0x09bc4e0d864854c6afb6eb9a9cdf58ac190d0df9","blockHash":"0xd0fdc54ac69f3b1197959da93fcf8b261506f32d4aeef84d356c45ec5fea5aea","blockNumber":"0xcff3da","data":"0x00000000000000000000000000000000000000000000000000000000000e09c0","logIndex":"0x1","removed":false,"topics":["0xddf252ad1be2c89b69c2b068fc378daa952ba7f163c4a11628f55a4df523b3ef","0x00000000000000000000000036c55770804259ba523cf9b801e48d62b5007477","0x0000000000000000000000006488f911c6cd86c289aa319c5a826dcf8f1ca065"],"transactionHash":"0x485418c64921cebd4f29c8f43f40d46ccf918e85c7dce6529d930d054bb57269","transactionIndex":"0x0"},{"address":"0x6488f911c6cd86c289aa319c5a826dcf8f1ca065","blockHash":"0xd0fdc54ac69f3b1197959da93fcf8b261506f32d4aeef84d356c45ec5fea5aea","blockNumber":"0xcff3da","data":"0x00000000000000000000000000000000000000000000000000000000000e09c0fffffffffffffffffffffffffffffffffffffffffffffffffffffffffff1f7cf0000000000000000000000000000000000000000fff51834812aac69142405cd0000000000000000000000000000000000000000000000000000aa91ae904e92fffffffffffffffffffffffffffffffffffffffffffffffffffffffffffffffc000000000000000000000000000000000000000000000000000000000000001e0000000000000000000000000000000000000000000000000000000000000000","logIndex":"0x2","removed":false,"topics":["0x19b47279256b2a23a1665c810c8d55a1758940ee09377d4f8d26497a3577dc83","0x000000000000000000000000319b69888b0d11cec22caa5034e25fffbdc88421","0x00000000000000000000000036c55770804259ba523cf9b801e48d62b5007477"],"transactionHash":"0x485418c64921cebd4f29c8f43f40d46ccf918e85c7dce6529d930d054bb57269","transactionIndex":"0x0"}],"logsBloom":"0x0000000000000000000000000000000000004000000100880000000800000000800000000000000000000000000200000000000000200000000000000000000004800000004400000000000800000000000000c000002000000000000000000000000000000000000000000000000000000000100000800000000010000000000000000000000000000000000000000000000000000000000000000000000000000000000000000000000000000000000000400001000000000000000000000000000002000000000000000000000000002000000000000000000000000000000000000000000000000000000000000000000000000010000000000000000000","status":"0x1","transactionHash":"0x485418c64921cebd4f29c8f43f40d46ccf918e85c7dce6529d930d054bb57269"}}}