{"block":{"difficulty":"0x2","extraData":"0xd98301090a846765746889676f312e31352e3133856c696e757800000000000054de9205b517e96ed3a3f16507e20be3a3182f429526cb2567c321b55a085af01924cfe7f6f7aada6c8bc85541f17bcf0f98dacf06fc05df41d17d8506b9e25001","gasLimit":"0x1c9c380","gasUsed":"0x1fc7c","hash":"0x3dcb14db2a83d6809495f99640cdfa58bddfc7bfd7910eb8c4c06b82d04b4413","logsBloom":"0x0000000000000000000000000000000000004000000100880000000000000000000000000000000000000040000200000000000000200000000000000020000004800000004400000000000800000000000000c000002000800000000000000000000000000000000000000000000000000000100000800000000010000000000000000000000000000000000000000000000000000000000000000000000400020000000000000000000000000000000000000001000000000000000000000000000002000000000000000000000000002000000000000000000000000000000010000000000000000000000000000000000000000010000000000000000000","miner":"0x0000000000000000000000000000000000000000","mixHash":"0x0000000000000000000000000000000000000000000000000000000000000000","nonce":"0x0000000000000000","number":"0xcff390","parentHash":"0xa4adba9302ec47604ba79b3fcb7e709b47ab96ae0b0fa3d9d66497e721e7c824","receiptsRoot":"0x4eb74297a352519b97006082b7609990dff26d1ee4242b083564acd6331ed174","sha3Uncles":"0x1dcc4de8dec75d7aab85b567b6ccd41ad312451b948a7413f0a142fd40d49347","size":"0x3d8","stateRoot":"0xcee6e2467fe05faffebbe944a0f462042f52a824a79ac88ca2723bb8b3172be2","timestamp":"0x65243743","totalDifficulty":"0x19fe721","transactions":[{"blockHash":"0x3dcb14db2a83d6809495f99640cdfa58bddfc7bfd7910eb8c4c06b82d04b4413","blockNumber":"0xcff390","from":"0xf5238db042fbb2e74c33ca6237ec1ea70b746ded","gas":"0x2147b","gasPrice":"0x2faf080","hash":"0x4d5342f84ee3e409bd2bb1d268f9581107dcf36c193dd1dcff0ae02ce4992754","index":"0xcff38f","input":"0x414bf389000000000000000000000000201eba5cc46d216ce6dc03f6a759e8e766e956ae00000000000000000000000009bc4e0d864854c6afb6eb9a9cdf58ac190d0df90000000000000000000000000000000000000000000000000000000000000064000000000000000000000000f5238db042fbb2e74c33ca6237ec1ea70b746ded000000000000000000000000000000000000000000000000000000006524376400000000000000000000000000000000000000000000000000000000000c350000000000000000000000000000000000000000000000000000000000000bf7360000000000000000000000000000000000000000000000000000000000000000","l1BlockNumber":"0x117744e","l1Timestamp":"0x65243743","l1TxOrigin":null,"nonce":"0xaaa","queueIndex":null,"queueOrigin":"sequencer","r":"0x7b05511d995f0bc98d127a4b7e4b1bfd8161eb841c87ff05fcf01a86655ffa5f","rawTransaction":"0xf9016e820aaa8402faf0808302147b94319b69888b0d11cec22caa5034e25fffbdc8842180b90104414bf389000000000000000000000000201eba5cc46d216ce6dc03f6a759e8e766e956ae00000000000000000000000009bc4e0d864854c6afb6eb9a9cdf58ac190d0df90000000000000000000000000000000000000000000000000000000000000064000000000000000000000000f5238db042fbb2e74c33ca6237ec1ea70b746ded000000000000000000000000000000000000000000000000000000006524376400000000000000000000000000000000000000000000000000000000000c350000000000000000000000000000000000000000000000000000000000000bf7360000000000000000000000000000000000000000000000000000000000000000822734a07b05511d995f0bc98d127a4b7e4b1bfd8161eb841c87ff05fcf01a86655ffa5fa073a57ab342ccc2f09d553a91d70e7348f2d711fef12b579778c010a7d0c4afc1","s":"0x73a57ab342ccc2f09d553a91d70e7348f2d711fef12b579778c010a7d0c4afc1","to":"0x319b69888b0d11cec22caa5034e25fffbdc88421","transactionIndex":"0x0","v":"0x2734","value":"0x0"}],"transactionsRoot":"0x5fd8a5e64afe905b6e4788a9675a1f3f192a43cad99462a7f337d91632e4905e","uncles":[]},"receipts":{"0x4d5342f84ee3e409bd2bb1d268f9581107dcf36c193dd1dcff0ae02ce4992754":{"blockHash":"0x3dcb14db2a83d6809495f99640cdfa58bddfc7bfd7910eb8c4c06b82d04b4413","blockNumber":"0xcff390","from":"0xf5238db042fbb2e74c33ca6237ec1ea70b746ded","gas":"0x2147b","gasPrice":"0x2faf080","hash":"0x4d5342f84ee3e409bd2bb1d268f9581107dcf36c193dd1dcff0ae02ce4992754","index":"0xcff38f","input":"0x414bf389000000000000000000000000201eba5cc46d216ce6dc03f6a759e8e766e956ae00000000000000000000000009bc4e0d864854c6afb6eb9a9cdf58ac190d0df90000000000000000000000000000000000000000000000000000000000000064000000000000000000000000f5238db042fbb2e74c33ca6237ec1ea70b746ded000000000000000000000000000000000000000000000000000000006524376400000000000000000000000000000000000000000000000000000000000c350000000000000000000000000000000000000000000000000000000000000bf7360000000000000000000000000000000000000000000000000000000000000000","l1BlockNumber":"0x117744e","l1Timestamp":"0x65243743","l1TxOrigin":null,"nonce":"0xaaa","queueIndex":null,"queueOrigin":"sequencer","r":"0x7b05511d995f0bc98d127a4b7e4b1bfd8161eb841c87ff05fcf01a86655ffa5f","rawTransaction":"0xf9016e820aaa8402faf0808302147b94319b69888b0d11cec22caa5034e25fffbdc8842180b90104414bf389000000000000000000000000201eba5cc46d216ce6dc03f6a759e8e766e956ae00000000000000000000000009bc4e0d864854c6afb6eb9a9cdf58ac190d0df90000000000000000000000000000000000000000000000000000000000000064000000000000000000000000f5238db042fbb2e74c33ca6237ec1ea70b746ded000000000000000000000000000000000000000000000000000000006524376400000000000000000000000000000000000000000000000000000000000c350000000000000000000000000000000000000000000000000000000000000bf7360000000000000000000000000000000000000000000000000000000000000000822734a07b05511d995f0bc98d127a4b7e4b1bfd8161eb841c87ff05fcf01a86655ffa5fa073a57ab342ccc2f09d553a91d70e7348f2d711fef12b579778c010a7d0c4afc1","s":"0x73a57ab342ccc2f09d553a91d70e7348f2d711fef12b579778c010a7d0c4afc1","to":"0x319b69888b0d11cec22caa5034e25fffbdc88421","transactionIndex":"0x0","v":"0x2734","value":"0x0","contractAddress":null,"cumulativeGasUsed":"0x1fc7c","daFee":"0x0","daGasPrice":"0x0","daGasUsed":"0x12c","gasUsed":"0x1fc7c","l1Fee":"0x1c5145ff7a866d0","l1FeeScalar":"1","l1GasPrice":"0x3f1249c65230","l1GasUsed":"0x72f","logs":[{"address":"0x09bc4e0d864854c6afb6eb9a9cdf58ac190d0df9","blockHash":"0x3dcb14db2a83d6809495f99640cdfa58bddfc7bfd7910eb8c4c06b82d04b4413","blockNumber":"0xcff390","data":"0x00000000000000000000000000000000000000000000000000000000000c35ba","logIndex":"0x0","removed":false,"topics":["0xddf252ad1be2c89b69c2b068fc378daa952ba7f163c4a11628f55a4df523b3ef","0x0000000000000000000000006488f911c6cd86c289aa319c5a826dcf8f1ca065","0x000000000000000000000000f5238db042fbb2e74c33ca6237ec1ea70b746ded"],"transactionHash":"0x4d5342f84ee3e409bd2bb1d268f9581107dcf36c193dd1dcff0ae02ce4992754","transactionIndex":"0x0"},{"address":"0x201eba5cc46d216ce6dc03f6a759e8e766e956ae","blockHash":"0x3dcb14db2a83d6809495f99640cdfa58bddfc7bfd7910eb8c4c06b82d04b4413","blockNumber":"0xcff390","data":"0x00000000000000000000000000000000000000000000000000000000000c3500","logIndex":"0x1","removed":false,"topics":["0xddf252ad1be2c89b69c2b068fc378daa952ba7f163c4a11628f55a4df523b3ef","0x000000000000000000000000f5238db042fbb2e74c33ca6237ec1ea70b746ded","0x0000000000000000000000006488f911c6cd86c289aa319c5a826dcf8f1ca065"],"transactionHash":"0x4d5342f84ee3e409bd2bb1d268f9581107dcf36c193dd1dcff0ae02ce4992754","transactionIndex":"0x0"},{"address":"0x201eba5cc46d216ce6dc03f6a759e8e766e956ae","blockHash":"0x3dcb14db2a83d6809495f99640cdfa58bddfc7bfd7910eb8c4c06b82d04b4413","blockNumber":"0xcff390","data":"0xffffffffffffffffffffffffffffffffffffffffffffffffffffffffb9b7e76f","logIndex":"0x2","removed":false,"topics":["0x8c5be1e5ebec7d5bd14f71427d1e84f3dd0314c0f7b2291e5b200ac8c7c3b925","0x000000000000000000000000f5238db042fbb2e74c33ca6237ec1ea70b746ded","0x000000000000000000000000319b69888b0d11cec22caa5034e25fffbdc88421"],"transactionHash":"0x4d5342f84ee3e409bd2bb1d268f9581107dcf36c193dd1dcff0ae02ce4992754","transactionIndex":"0x0"},{"address":"0x6488f911c6cd86c289aa319c5a826dcf8f1ca065","blockHash":"0x3dcb14db2a83d6809495f99640cdfa58bddfc7bfd7910eb8c4c06b82d04b4413","blockNumber":"0xcff390","data":"0xfffffffffffffffffffffffffffffffffffffffffffffffffffffffffff3ca4600000000000000000000000000000000000000000000000000000000000c35000000000000000000000000000000000000000000fff5185447ac5516b4db3cf10000000000000000000000000000000000000000000000000000aa91ae904e92fffffffffffffffffffffffffffffffffffffffffffffffffffffffffffffffc0000000000000000000000000000000000000000000000000000000000000000000000000000000000000000000000000000000000000000000000000000001a","logIndex":"0x3","removed":false,"topics":["0x19b47279256b2a23a1665c810c8d55a1758940ee09377d4f8d26497a3577dc83","0x000000000000000000000000319b69888b0d11cec22caa5034e25fffbdc88421","0x000000000000000000000000f5238db042fbb2e74c33ca6237ec1ea70b746ded"],"transactionHash":"0x4d5342f84ee3e409bd2bb1d268f9581107dcf36c193dd1dcff0ae02ce4992754","transactionIndex":"0x0"}],"logsBloom":"0x0000000000000000000000000000000000004000000100880000000000000000000000000000000000000040000200000000000000200000000000000020000004800000004400000000000800000000000000c000002000800000000000000000000000000000000000000000000000000000100000800000000010000000000000000000000000000000000000000000000000000000000000000000000400020000000000000000000000000000000000000001000000000000000000000000000002000000000000000000000000002000000000000000000000000000000010000000000000000000000000000000000000000010000000000000000000","status":"0x1","transactionHash":"0x4d5342f84ee3e409bd2bb1d268f9581107dcf36c193dd1dcff0ae02ce4992754"}}}