{"block":{"difficulty":"0x2","extraData":"0xd98301090a846765746889676f312e31352e3133856c696e7578000000000000d15722b9ee94bedd3a6a9a9835caf256cbc2b7d1f60458dad7259ec28cec684d5add5f16b208243fd478470c5b6fc48223db02a3a549c998b5108e093a72146400","gasLimit":"0x1c9c380","gasUsed":"0x229e6","hash":"0xb8e2788177c7e50a23b37137e6886ecb23744abc45c0b2cf5ec8ecfd478044e4","logsBloom":"0x00000000000000000000000000000000000000000000008800000000000000000000040000080000000000000002000000000000000000000000000000200000140004000040000000000008000000000000000000040000000000000000000000010000000000000000000000000000010000000000100000000010000000000000000000000000000000000000000000100000400000000000000100000000020000000000000000000000000000000000000021000000000000000000000000000002000000000000000000000000000000000000000000001000000000000010000000004000000000000000000000000000002000000000000000000000","miner":"0x0000000000000000000000000000000000000000","mixHash":"0x0000000000000000000000000000000000000000000000000000000000000000","nonce":"0x0000000000000000","number":"0xd00153","parentHash":"0x06be60bd736e63db7fbc5e90960b93a198abc91389f3c4d01636660eaa88e362","receiptsRoot":"0x92cb321cb9a4e48a0950e6375611a24d524dd22112248023147b0001dac80e4d","sha3Uncles":"0x1dcc4de8dec75d7aab85b567b6ccd41ad312451b948a7413f0a142fd40d49347","size":"0x3d8","stateRoot":"0xda949b33a83e14cf6c908bb054cb27ee2f0b53020e5d5ab47e0d1a78dc78e3df","timestamp":"0x65243d6d","totalDifficulty":"0x1a002a7","transactions":[{"blockHash":"0xb8e2788177c7e50a23b37137e6886ecb23744abc45c0b2cf5ec8ecfd478044e4","blockNumber":"0xd00153","from":"0xb04cde76b6251db69dbca03869c07a2340aaa143","gas":"0x242a5","gasPrice":"0x2faf080","hash":"0xb1e116cd3379025747b597a3d01f7024450041bbbef2633e80714ab8634500fe","index":"0xd00152","input":"0x414bf38900000000000000000000000078c1b0c915c4faa5fffa6cabf0219da63d7f4cb800000000000000000000000097174506aafcc846a40832719bd8899a588bd05c0000000000000000000000000000000000000000000000000000000000002710000000000000000000000000b04cde76b6251db69dbca03869c07a2340aaa1430000000000000000000000000000000000000000000000000000000065243d8b000000000000000000000000000000000000000000000001b3ebbacb6ed5a3280000000000000000000000000000000000000000000000bb9fa79ea17c7714b90000000000000000000000000000000000000000000000000000000000000000","l1BlockNumber":"0x11774d1","l1Timestamp":"0x65243d6d","l1TxOrigin":null,"nonce":"0x5f8","queueIndex":null,"queueOrigin":"sequencer","r":"0xf45f8606c9a2963e65387a07174eaa76df105333973cabe84aaf2611544828e3","rawTransaction":"0xf9016e8205f88402faf080830242a594319b69888b0d11cec22caa5034e25fffbdc8842180b90104414bf38900000000000000000000000078c1b0c915c4faa5fffa6cabf0219da63d7f4cb800000000000000000000000097174506aafcc846a40832719bd8899a588bd05c0000000000000000000000000000000000000000000000000000000000002710000000000000000000000000b04cde76b6251db69dbca03869c07a2340aaa1430000000000000000000000000000000000000000000000000000000065243d8b000000000000000000000000000000000000000000000001b3ebbacb6ed5a3280000000000000000000000000000000000000000000000bb9fa79ea17c7714b90000000000000000000000000000000000000000000000000000000000000000822734a0f45f8606c9a2963e65387a07174eaa76df105333973cabe84aaf2611544828e3a0737af59df5f19eb485ea6e2a6370e4f18fe9c87ad63315428b8ac518d87aac23","s":"0x737af59df5f19eb485ea6e2a6370e4f18fe9c87ad63315428b8ac518d87aac23","to":"0x319b69888b0d11cec22caa5034e25fffbdc88421","transactionIndex":"0x0","v":"0x2734","value":"0x0"}],"transactionsRoot":"0x158798832ab89a842cea178f319351def258bf9c29f263e125aa9a2353b0015c","uncles":[]},"receipts":{"0xb1e116cd3379025747b597a3d01f7024450041bbbef2633e80714ab8634500fe":{"blockHash":"0xb8e2788177c7e50a23b37137e6886ecb23744abc45c0b2cf5ec8ecfd478044e4","blockNumber":"0xd00153","from":"0xb04cde76b6251db69dbca03869c07a2340aaa143","gas":"0x242a5","gasPrice":"0x2faf080","hash":"0xb1e116cd3379025747b597a3d01f7024450041bbbef2633e80714ab8634500fe","index":"0xd00152","input":"0x414bf38900000000000000000000000078c1b0c915c4faa5fffa6cabf0219da63d7f4cb800000000000000000000000097174506aafcc846a40832719bd8899a588bd05c0000000000000000000000000000000000000000000000000000000000002710000000000000000000000000b04cde76b6251db69dbca03869c07a2340aaa1430000000000000000000000000000000000000000000000000000000065243d8b000000000000000000000000000000000000000000000001b3ebbacb6ed5a3280000000000000000000000000000000000000000000000bb9fa79ea17c7714b90000000000000000000000000000000000000000000000000000000000000000","l1BlockNumber":"0x11774d1","l1Timestamp":"0x65243d6d","l1TxOrigin":null,"nonce":"0x5f8","queueIndex":null,"queueOrigin":"sequencer","r":"0xf45f8606c9a2963e65387a07174eaa76df105333973cabe84aaf2611544828e3","rawTransaction":"0xf9016e8205f88402faf080830242a594319b69888b0d11cec22caa5034e25fffbdc8842180b90104414bf38900000000000000000000000078c1b0c915c4faa5fffa6cabf0219da63d7f4cb800000000000000000000000097174506aafcc846a40832719bd8899a588bd05c0000000000000000000000000000000000000000000000000000000000002710000000000000000000000000b04cde76b6251db69dbca03869c07a2340aaa1430000000000000000000000000000000000000000000000000000000065243d8b000000000000000000000000000000000000000000000001b3ebbacb6ed5a3280000000000000000000000000000000000000000000000bb9fa79ea17c7714b90000000000000000000000000000000000000000000000000000000000000000822734a0f45f8606c9a2963e65387a07174eaa76df105333973cabe84aaf2611544828e3a0737af59df5f19eb485ea6e2a6370e4f18fe9c87ad63315428b8ac518d87aac23","s":"0x737af59df5f19eb485ea6e2a6370e4f18fe9c87ad63315428b8ac518d87aac23","to":"0x319b69888b0d11cec22caa5034e25fffbdc88421","transactionIndex":"0x0","v":"0x2734","value":"0x0","contractAddress":null,"cumulativeGasUsed":"0x229e6","daFee":"0x0","daGasPrice":"0x0","daGasUsed":"0x12c","gasUsed":"0x229e6","l1Fee":"0x1a09f6380cb9fe0","l1FeeScalar":"1","l1GasPrice":"0x39ff1464e55c","l1GasUsed":"0x72f","logs":[{"address":"0x97174506aafcc846a40832719bd8899a588bd05c","blockHash":"0xb8e2788177c7e50a23b37137e6886ecb23744abc45c0b2cf5ec8ecfd478044e4","blockNumber":"0xd00153","data":"0x0000000000000000000000000000000000000000000000c57fa2f7d268118f14","logIndex":"0x0","removed":false,"topics":["0xddf252ad1be2c89b69c2b068fc378daa952ba7f163c4a11628f55a4df523b3ef","0x0000000000000000000000003a873fe63bedad2e9f9b9b63bf8bedb5f1789167","0x000000000000000000000000b04cde76b6251db69dbca03869c07a2340aaa143"],"transactionHash":"0xb1e116cd3379025747b597a3d01f7024450041bbbef2633e80714ab8634500fe","transactionIndex":"0x0"},{"address":"0x78c1b0c915c4faa5fffa6cabf0219da63d7f4cb8","blockHash":"0xb8e2788177c7e50a23b37137e6886ecb23744abc45c0b2cf5ec8ecfd478044e4","blockNumber":"0xd00153","data":"0x000000000000000000000000000000000000000000000001b3ebbacb6ed5a328","logIndex":"0x1","removed":false,"topics":["0xddf252ad1be2c89b69c2b068fc378daa952ba7f163c4a11628f55a4df523b3ef","0x000000000000000000000000b04cde76b6251db69dbca03869c07a2340aaa143","0x0000000000000000000000003a873fe63bedad2e9f9b9b63bf8bedb5f1789167"],"transactionHash":"0xb1e116cd3379025747b597a3d01f7024450041bbbef2633e80714ab8634500fe","transactionIndex":"0x0"},{"address":"0x78c1b0c915c4faa5fffa6cabf0219da63d7f4cb8","blockHash":"0xb8e2788177c7e50a23b37137e6886ecb23744abc45c0b2cf5ec8ecfd478044e4","blockNumber":"0xd00153","data":"0xfffffffffffffffffffffffffffffffffffffffffffffd427e8aace331091549","logIndex":"0x2","removed":false,"topics":["0x8c5be1e5ebec7d5bd14f71427d1e84f3dd0314c0f7b2291e5b200ac8c7c3b925","0x000000000000000000000000b04cde76b6251db69dbca03869c07a2340aaa143","0x000000000000000000000000319b69888b0d11cec22caa5034e25fffbdc88421"],"transactionHash":"0xb1e116cd3379025747b597a3d01f7024450041bbbef2633e80714ab8634500fe","transactionIndex":"0x0"},{"address":"0x3a873fe63bedad2e9f9b9b63bf8bedb5f1789167","blockHash":"0xb8e2788177c7e50a23b37137e6886ecb23744abc45c0b2cf5ec8ecfd478044e4","blockNumber":"0xd00153","data":"0x000000000000000000000000000000000000000000000001b3ebbacb6ed5a328ffffffffffffffffffffffffffffffffffffffffffffff3a805d082d97ee70ec000000000000000000000000000000000000000ad2cd508e87f2765429b21acf00000000000000000000000000000000000000000004050e8f20b2f8a1c79e70000000000000000000000000000000000000000000000000000000000000ba1400000000000000000000000000000000000000000000000001651b38c424ba7b0000000000000000000000000000000000000000000000000000000000000000","logIndex":"0x3","removed":false,"topics":["0x19b47279256b2a23a1665c810c8d55a1758940ee09377d4f8d26497a3577dc83","0x000000000000000000000000319b69888b0d11cec22caa5034e25fffbdc88421","0x000000000000000000000000b04cde76b6251db69dbca03869c07a2340aaa143"],"transactionHash":"0xb1e116cd3379025747b597a3d01f7024450041bbbef2633e80714ab8634500fe","transactionIndex":"0x0"}],"logsBloom":"0x00000000000000000000000000000000000000000000008800000000000000000000040000080000000000000002000000000000000000000000000000200000140004000040000000000008000000000000000000040000000000000000000000010000000000000000000000000000010000000000100000000010000000000000000000000000000000000000000000100000400000000000000100000000020000000000000000000000000000000000000021000000000000000000000000000002000000000000000000000000000000000000000000001000000000000010000000004000000000000000000000000000002000000000000000000000","status":"0x1","transactionHash":"0xb1e116cd3379025747b597a3d01f7024450041bbbef2633e80714ab8634500fe"}}}