{"block":{"difficulty":"0x2","extraData":"0xd98301090a846765746889676f312e31352e3133856c696e7578000000000000dbe7826d541645ec5dde59583345b3a9f3f2a298c73aa68e3950b027e578d97b00ced052da779a9d040c14f9302b26c9b187c9551d487719a6274f488b4c140a01","gasLimit":"0x1c9c380","gasUsed":"0x26ff4","hash":"0x0e89e156fe9d4ba01673c1ffa837c10998adb263195d0d5238ed16ba375883c1","logsBloom":"0x0000000000000000000000000100000000000000000100000000000000000000040000000000000000000000000000000000400000200044008200000020000000000000000000000000000800400040000000c00000200020000000000000000000000000100000000200000000000000000010000000000000001000400000004000000000000020000000000000010000000000400000000000000000000002000120000000000000000000000000000000000000a000000000000000000000000002000000000000000000000000000000000000000000000000000000000010000000004000000000000000100000000020000000000000000000000000","miner":"0x0000000000000000000000000000000000000000","mixHash":"0x0000000000000000000000000000000000000000000000000000000000000000","nonce":"0x0000000000000000","number":"0xcff38c","parentHash":"0xc0567affea49e83cd86d3a6c7dbbf148b7b84bb90fe750e8a6ba3699326a4220","receiptsRoot":"0x60ac9ebcff47d21ff1e4baf9538d69e07b64167c27baeaf2fc1839384a285d7f","sha3Uncles":"0x1dcc4de8dec75d7aab85b567b6ccd41ad312451b948a7413f0a142fd40d49347","size":"0x3f8","stateRoot":"0xbba6aae1a257fab7124e3c906567cf0dfff7c65b93b158cd9a3c0b32adeee08e","timestamp":"0x65243743","totalDifficulty":"0x19fe719","transactions":[{"blockHash":"0x0e89e156fe9d4ba01673c1ffa837c10998adb263195d0d5238ed16ba375883c1","blockNumber":"0xcff38c","from":"0x89d58350332f0369724dd996a4bbe6b0791cf079","gas":"0x3cdea","gasPrice":"0x2faf080","hash":"0x57d6d643503a49d0846caba3ef982ff36b2ee5cb13441cefe8b7e09039707488","index":"0xcff38b","input":"0x75ceafe6000000000000000000000000000000000000000000000000000000000000002000000000000000000000000000000000000000000000000000000000000000a000000000000000000000000089d58350332f0369724dd996a4bbe6b0791cf07900000000000000000000000000000000000000000000000000000000000186a000000000000000000000000000000000000000000000000000000000000184d30000000000000000000000000000000000000000000000000000000065243980000000000000000000000000000000000000000000000000000000000000002b201eba5cc46d216ce6dc03f6a759e8e766e956ae0001f409bc4e0d864854c6afb6eb9a9cdf58ac190d0df9000000000000000000000000000000000000000000","l1BlockNumber":"0x117744e","l1Timestamp":"0x65243743","l1TxOrigin":null,"nonce":"0x21e8","queueIndex":null,"queueOrigin":"sequencer","r":"0x9a58d85f2f5364de950965f36a174f767478b2000486172bfbf0148b74ab419a","rawTransaction":"0xf9018e8221e88402faf0808303cdea9425c030116feb2e7bba054b9de0915e5f51b03e3180b9012475ceafe6000000000000000000000000000000000000000000000000000000000000002000000000000000000000000000000000000000000000000000000000000000a000000000000000000000000089d58350332f0369724dd996a4bbe6b0791cf07900000000000000000000000000000000000000000000000000000000000186a000000000000000000000000000000000000000000000000000000000000184d30000000000000000000000000000000000000000000000000000000065243980000000000000000000000000000000000000000000000000000000000000002b201eba5cc46d216ce6dc03f6a759e8e766e956ae0001f409bc4e0d864854c6afb6eb9a9cdf58ac190d0df9000000000000000000000000000000000000000000822733a09a58d85f2f5364de950965f36a174f767478b2000486172bfbf0148b74ab419aa0676e09bbbb262f5b0bfd337e6b4a1ddbf4eab892f390ddf97daa9693827425e3","s":"0x676e09bbbb262f5b0bfd337e6b4a1ddbf4eab892f390ddf97daa9693827425e3","to":"0x25c030116feb2e7bba054b9de0915e5f51b03e31","transactionIndex":"0x0","v":"0x2733","value":"0x0"}],"transactionsRoot":"0x385746f607892c796ab63b48e73b7214115cff847d49c4a4dbd9126d1d63ab61","uncles":[]},"receipts":{"0x57d6d643503a49d0846caba3ef982ff36b2ee5cb13441cefe8b7e09039707488":{"blockHash":"0x0e89e156fe9d4ba01673c1ffa837c10998adb263195d0d5238ed16ba375883c1","blockNumber":"0xcff38c","from":"0x89d58350332f0369724dd996a4bbe6b0791cf079","gas":"0x3cdea","gasPrice":"0x2faf080","hash":"0x57d6d643503a49d0846caba3ef982ff36b2ee5cb13441cefe8b7e09039707488","index":"0xcff38b","input":"0x75ceafe6000000000000000000000000000000000000000000000000000000000000002000000000000000000000000000000000000000000000000000000000000000a000000000000000000000000089d58350332f0369724dd996a4bbe6b0791cf07900000000000000000000000000000000000000000000000000000000000186a000000000000000000000000000000000000000000000000000000000000184d30000000000000000000000000000000000000000000000000000000065243980000000000000000000000000000000000000000000000000000000000000002b201eba5cc46d216ce6dc03f6a759e8e766e956ae0001f409bc4e0d864854c6afb6eb9a9cdf58ac190d0df9000000000000000000000000000000000000000000","l1BlockNumber":"0x117744e","l1Timestamp":"0x65243743","l1TxOrigin":null,"nonce":"0x21e8","queueIndex":null,"queueOrigin":"sequencer","r":"0x9a58d85f2f5364de950965f36a174f767478b2000486172bfbf0148b74ab419a","rawTransaction":"0xf9018e8221e88402faf0808303cdea9425c030116feb2e7bba054b9de0915e5f51b03e3180b9012475ceafe6000000000000000000000000000000000000000000000000000000000000002000000000000000000000000000000000000000000000000000000000000000a000000000000000000000000089d58350332f0369724dd996a4bbe6b0791cf07900000000000000000000000000000000000000000000000000000000000186a000000000000000000000000000000000000000000000000000000000000184d30000000000000000000000000000000000000000000000000000000065243980000000000000000000000000000000000000000000000000000000000000002b201eba5cc46d216ce6dc03f6a759e8e766e956ae0001f409bc4e0d864854c6afb6eb9a9cdf58ac190d0df9000000000000000000000000000000000000000000822733a09a58d85f2f5364de950965f36a174f767478b2000486172bfbf0148b74ab419aa0676e09bbbb262f5b0bfd337e6b4a1ddbf4eab892f390ddf97daa9693827425e3","s":"0x676e09bbbb262f5b0bfd337e6b4a1ddbf4eab892f390ddf97daa9693827425e3","to":"0x25c030116feb2e7bba054b9de0915e5f51b03e31","transactionIndex":"0x0","v":"0x2733","value":"0x0","contractAddress":null,"cumulativeGasUsed":"0x26ff4","daFee":"0x0","daGasPrice":"0x0","daGasUsed":"0x14c","gasUsed":"0x26ff4","l1Fee":"0x1c5145ff7a866d0","l1FeeScalar":"1","l1GasPrice":"0x3f1249c65230","l1GasUsed":"0x72f","logs":[{"address":"0x09bc4e0d864854c6afb6eb9a9cdf58ac190d0df9","blockHash":"0x0e89e156fe9d4ba01673c1ffa837c10998adb263195d0d5238ed16ba375883c1","blockNumber":"0xcff38c","data":"0x00000000000000000000000000000000000000000000000000000000000186c7","logIndex":"0x0","removed":false,"topics":["0xddf252ad1be2c89b69c2b068fc378daa952ba7f163c4a11628f55a4df523b3ef","0x000000000000000000000000c865dd3421a6dd706688955fe727c802a98c1df9","0x00000000000000000000000089d58350332f0369724dd996a4bbe6b0791cf079"],"transactionHash":"0x57d6d643503a49d0846caba3ef982ff36b2ee5cb13441cefe8b7e09039707488","transactionIndex":"0x0"},{"address":"0x201eba5cc46d216ce6dc03f6a759e8e766e956ae","blockHash":"0x0e89e156fe9d4ba01673c1ffa837c10998adb263195d0d5238ed16ba375883c1","blockNumber":"0xcff38c","data":"0x00000000000000000000000000000000000000000000000000000000000186a0","logIndex":"0x1","removed":false,"topics":["0xddf252ad1be2c89b69c2b068fc378daa952ba7f163c4a11628f55a4df523b3ef","0x00000000000000000000000089d58350332f0369724dd996a4bbe6b0791cf079","0x000000000000000000000000c865dd3421a6dd706688955fe727c802a98c1df9"],"transactionHash":"0x57d6d643503a49d0846caba3ef982ff36b2ee5cb13441cefe8b7e09039707488","transactionIndex":"0x0"},{"address":"0x201eba5cc46d216ce6dc03f6a759e8e766e956ae","blockHash":"0x0e89e156fe9d4ba01673c1ffa837c10998adb263195d0d5238ed16ba375883c1","blockNumber":"0xcff38c","data":"0x000000000000000000000000000000000000000000000000000000000027c1c7","logIndex":"0x2","removed":false,"topics":["0x8c5be1e5ebec7d5bd14f71427d1e84f3dd0314c0f7b2291e5b200ac8c7c3b925","0x00000000000000000000000089d58350332f0369724dd996a4bbe6b0791cf079","0x00000000000000000000000025c030116feb2e7bba054b9de0915e5f51b03e31"],"transactionHash":"0x57d6d643503a49d0846caba3ef982ff36b2ee5cb13441cefe8b7e09039707488","transactionIndex":"0x0"},{"address":"0xc865dd3421a6dd706688955fe727c802a98c1df9","blockHash":"0x0e89e156fe9d4ba01673c1ffa837c10998adb263195d0d5238ed16ba375883c1","blockNumber":"0xcff38c","data":"0x000000000000000000000000000000000000000000000000000000000000000000000000000000000000000000000000000000000000000000000000000186c700000000000000000000000000000000000000000000000000000000000186a0fffffffffffffffffffffffffffffffffffffffffffffffffffffffffffffff7","logIndex":"0x3","removed":false,"topics":["0x0fe977d619f8172f7fdbe8bb8928ef80952817d96936509f67d66346bc4cd10f","0x00000000000000000000000009bc4e0d864854c6afb6eb9a9cdf58ac190d0df9","0x000000000000000000000000201eba5cc46d216ce6dc03f6a759e8e766e956ae","0x00000000000000000000000000000000000000000000000000000000000001f4"],"transactionHash":"0x57d6d643503a49d0846caba3ef982ff36b2ee5cb13441cefe8b7e09039707488","transactionIndex":"0x0"}],"logsBloom":"0x0000000000000000000000000100000000000000000100000000000000000000040000000000000000000000000000000000400000200044008200000020000000000000000000000000000800400040000000c00000200020000000000000000000000000100000000200000000000000000010000000000000001000400000004000000000000020000000000000010000000000400000000000000000000002000120000000000000000000000000000000000000a000000000000000000000000002000000000000000000000000000000000000000000000000000000000010000000004000000000000000100000000020000000000000000000000000","status":"0x1","transactionHash":"0x57d6d643503a49d0846caba3ef982ff36b2ee5cb13441cefe8b7e09039707488"}}}