{"block":{"difficulty":"0x2","extraData":"0xd98301090a846765746889676f312e31352e3133856c696e75780000000000003f3ee5f0122c58755397226507c6084ebb6d5ad222a60f29190e937a3e4a99d06f3993ddbd02ba06b2d94bbe5c79e34017c2d301c51ca3909387b31cdf0e18fe01","gasLimit":"0x1c9c380","gasUsed":"0x24735","hash":"0xafa01aa65589e1f58bc768d7234f73c2bf56826ef92734a6c2a5ae8510e1a760","logsBloom":"0x40000000000000000000010000000000000000000001008800000000000000000000000000000000000000000002000000000000000000000000000000220000840000000040000000200008000000000000008000002004000000000000000000000001000000000000000100000000000000000000000000000010000000000000000000000000000000000000000000000000000000000008000000000000020000000000000000000000000000000000000001000020000100000000000000000002000000000000000000000000000000000000000000000000000000000010000000001000000000000000000000000000000000000000000000000000","miner":"0x0000000000000000000000000000000000000000","mixHash":"0x0000000000000000000000000000000000000000000000000000000000000000","nonce":"0x0000000000000000","number":"0xd0022b","parentHash":"0xc9146001ffa24a95f96595ab7947e1dcc461b85489c21e13d33bbb2a2bb8d47e","receiptsRoot":"0x3c0361a7badcd564e340ff49021d3f91b620542aa0d2872252e1dfc5914a169f","sha3Uncles":"0x1dcc4de8dec75d7aab85b567b6ccd41ad312451b948a7413f0a142fd40d49347","size":"0x3d8","stateRoot":"0x44666de27a894f48477e74c29879bbaa91fede1f74b698da6be882df452d01a3","timestamp":"0x65243de1","totalDifficulty":"0x1a00457","transactions":[{"blockHash":"0xafa01aa65589e1f58bc768d7234f73c2bf56826ef92734a6c2a5ae8510e1a760","blockNumber":"0xd0022b","from":"0xc2f4b1bfa23d034efb059bc7ad8a4bc199b0a11e","gas":"0x26062","gasPrice":"0x2faf080","hash":"0x8621a948708359dd9e640967028e9847d10e527daa352a1230eab45c4bed8634","index":"0xd0022a","input":"0x414bf389000000000000000000000000deaddeaddeaddeaddeaddeaddeaddeaddead1111000000000000000000000000201eba5cc46d216ce6dc03f6a759e8e766e956ae00000000000000000000000000000000000000000000000000000000000001f4000000000000000000000000c2f4b1bfa23d034efb059bc7ad8a4bc199b0a11e0000000000000000000000000000000000000000000000000000000065243dff0000000000000000000000000000000000000000000000000002c9f40e2610000000000000000000000000000000000000000000000000000000000000128a000000000000000000000000000000000000000000000000000000000000000000","l1BlockNumber":"0x11774db","l1Timestamp":"0x65243de1","l1TxOrigin":null,"nonce":"0x10cf","queueIndex":null,"queueOrigin":"sequencer","r":"0x82f3096c492d8994effaa272c1df5f3f488e35250f91dee565fb9b4d285dba42","rawTransaction":"0xf9016e8210cf8402faf0808302606294319b69888b0d11cec22caa5034e25fffbdc8842180b90104414bf389000000000000000000000000deaddeaddeaddeaddeaddeaddeaddeaddead1111000000000000000000000000201eba5cc46d216ce6dc03f6a759e8e766e956ae00000000000000000000000000000000000000000000000000000000000001f4000000000000000000000000c2f4b1bfa23d034efb059bc7ad8a4bc199b0a11e0000000000000000000000000000000000000000000000000000000065243dff0000000000000000000000000000000000000000000000000002c9f40e2610000000000000000000000000000000000000000000000000000000000000128a000000000000000000000000000000000000000000000000000000000000000000822733a082f3096c492d8994effaa272c1df5f3f488e35250f91dee565fb9b4d285dba42a03270c0c65fc010365ce2fa6ed9ad1fa8f888c80ba84ba08213de3472ef2fbdc8","s":"0x3270c0c65fc010365ce2fa6ed9ad1fa8f888c80ba84ba08213de3472ef2fbdc8","to":"0x319b69888b0d11cec22caa5034e25fffbdc88421","transactionIndex":"0x0","v":"0x2733","value":"0x0"}],"transactionsRoot":"0x251422526de8da1d5141d366aaf22659343d74c9548f9727bc3a99c5bab7d709","uncles":[]},"receipts":{"0x8621a948708359dd9e640967028e9847d10e527daa352a1230eab45c4bed8634":{"blockHash":"0xafa01aa65589e1f58bc768d7234f73c2bf56826ef92734a6c2a5ae8510e1a760","blockNumber":"0xd0022b","from":"0xc2f4b1bfa23d034efb059bc7ad8a4bc199b0a11e","gas":"0x26062","gasPrice":"0x2faf080","hash":"0x8621a948708359dd9e640967028e9847d10e527daa352a1230eab45c4bed8634","index":"0xd0022a","input":"0x414bf389000000000000000000000000deaddeaddeaddeaddeaddeaddeaddeaddead1111000000000000000000000000201eba5cc46d216ce6dc03f6a759e8e766e956ae00000000000000000000000000000000000000000000000000000000000001f4000000000000000000000000c2f4b1bfa23d034efb059bc7ad8a4bc199b0a11e0000000000000000000000000000000000000000000000000000000065243dff0000000000000000000000000000000000000000000000000002c9f40e2610000000000000000000000000000000000000000000000000000000000000128a000000000000000000000000000000000000000000000000000000000000000000","l1BlockNumber":"0x11774db","l1Timestamp":"0x65243de1","l1TxOrigin":null,"nonce":"0x10cf","queueIndex":null,"queueOrigin":"sequencer","r":"0x82f3096c492d8994effaa272c1df5f3f488e35250f91dee565fb9b4d285dba42","rawTransaction":"0xf9016e8210cf8402faf0808302606294319b69888b0d11cec22caa5034e25fffbdc8842180b90104414bf389000000000000000000000000deaddeaddeaddeaddeaddeaddeaddeaddead1111000000000000000000000000201eba5cc46d216ce6dc03f6a759e8e766e956ae00000000000000000000000000000000000000000000000000000000000001f4000000000000000000000000c2f4b1bfa23d034efb059bc7ad8a4bc199b0a11e0000000000000000000000000000000000000000000000000000000065243dff0000000000000000000000000000000000000000000000000002c9f40e2610000000000000000000000000000000000000000000000000000000000000128a000000000000000000000000000000000000000000000000000000000000000000822733a082f3096c492d8994effaa272c1df5f3f488e35250f91dee565fb9b4d285dba42a03270c0c65fc010365ce2fa6ed9ad1fa8f888c80ba84ba08213de3472ef2fbdc8","s":"0x3270c0c65fc010365ce2fa6ed9ad1fa8f888c80ba84ba08213de3472ef2fbdc8","to":"0x319b69888b0d11cec22caa5034e25fffbdc88421","transactionIndex":"0x0","v":"0x2733","value":"0x0","contractAddress":null,"cumulativeGasUsed":"0x24735","daFee":"0x0","daGasPrice":"0x0","daGasUsed":"0x12c","gasUsed":"0x24735","l1Fee":"0x19709d787180660","l1FeeScalar":"1","l1GasPrice":"0x38a987f04864","l1GasUsed":"0x72f","logs":[{"address":"0x201eba5cc46d216ce6dc03f6a759e8e766e956ae","blockHash":"0xafa01aa65589e1f58bc768d7234f73c2bf56826ef92734a6c2a5ae8510e1a760","blockNumber":"0xd0022b","data":"0x000000000000000000000000000000000000000000000000000000000012e764","logIndex":"0x0","removed":false,"topics":["0xddf252ad1be2c89b69c2b068fc378daa952ba7f163c4a11628f55a4df523b3ef","0x000000000000000000000000628f7131cf43e88ebe3921ae78c4ba0c31872bd4","0x000000000000000000000000c2f4b1bfa23d034efb059bc7ad8a4bc199b0a11e"],"transactionHash":"0x8621a948708359dd9e640967028e9847d10e527daa352a1230eab45c4bed8634","transactionIndex":"0x0"},{"address":"0xdeaddeaddeaddeaddeaddeaddeaddeaddead1111","blockHash":"0xafa01aa65589e1f58bc768d7234f73c2bf56826ef92734a6c2a5ae8510e1a760","blockNumber":"0xd0022b","data":"0x0000000000000000000000000000000000000000000000000002c9f40e261000","logIndex":"0x1","removed":false,"topics":["0xddf252ad1be2c89b69c2b068fc378daa952ba7f163c4a11628f55a4df523b3ef","0x000000000000000000000000c2f4b1bfa23d034efb059bc7ad8a4bc199b0a11e","0x000000000000000000000000628f7131cf43e88ebe3921ae78c4ba0c31872bd4"],"transactionHash":"0x8621a948708359dd9e640967028e9847d10e527daa352a1230eab45c4bed8634","transactionIndex":"0x0"},{"address":"0xdeaddeaddeaddeaddeaddeaddeaddeaddead1111","blockHash":"0xafa01aa65589e1f58bc768d7234f73c2bf56826ef92734a6c2a5ae8510e1a760","blockNumber":"0xd0022b","data":"0xfffffffffffffffffffffffffffffffffffffffffffffffffada558293415fff","logIndex":"0x2","removed":false,"topics":["0x8c5be1e5ebec7d5bd14f71427d1e84f3dd0314c0f7b2291e5b200ac8c7c3b925","0x000000000000000000000000c2f4b1bfa23d034efb059bc7ad8a4bc199b0a11e","0x000000000000000000000000319b69888b0d11cec22caa5034e25fffbdc88421"],"transactionHash":"0x8621a948708359dd9e640967028e9847d10e527daa352a1230eab45c4bed8634","transactionIndex":"0x0"},{"address":"0x628f7131cf43e88ebe3921ae78c4ba0c31872bd4","blockHash":"0xafa01aa65589e1f58bc768d7234f73c2bf56826ef92734a6c2a5ae8510e1a760","blockNumber":"0xd0022b","data":"0xffffffffffffffffffffffffffffffffffffffffffffffffffffffffffed189c0000000000000000000000000000000000000000000000000002c9f40e2610000000000000000000000000000000000000006255d4bd58464c867acee05bae4c00000000000000000000000000000000000000000000000000002c7598b3bf7a00000000000000000000000000000000000000000000000000000000000317b900000000000000000000000000000000000000000000000000000000000000000000000000000000000000000000000000000000000000000000001f123d667f","logIndex":"0x3","removed":false,"topics":["0x19b47279256b2a23a1665c810c8d55a1758940ee09377d4f8d26497a3577dc83","0x000000000000000000000000319b69888b0d11cec22caa5034e25fffbdc88421","0x000000000000000000000000c2f4b1bfa23d034efb059bc7ad8a4bc199b0a11e"],"transactionHash":"0x8621a948708359dd9e640967028e9847d10e527daa352a1230eab45c4bed8634","transactionIndex":"0x0"}],"logsBloom":"0x40000000000000000000010000000000000000000001008800000000000000000000000000000000000000000002000000000000000000000000000000220000840000000040000000200008000000000000008000002004000000000000000000000001000000000000000100000000000000000000000000000010000000000000000000000000000000000000000000000000000000000008000000000000020000000000000000000000000000000000000001000020000100000000000000000002000000000000000000000000000000000000000000000000000000000010000000001000000000000000000000000000000000000000000000000000","status":"0x1","transactionHash":"0x8621a948708359dd9e640967028e9847d10e527daa352a1230eab45c4bed8634"}}}