{"block":{"difficulty":"0x2","extraData":"0xd98301090a846765746889676f312e31352e3133856c696e7578000000000000def89c8fc83125c66867b21117f5f228b7b83ee728c9194d7994dd59af17165641af6fb08d2841c6c9c334e1bc24cabe7e58f5eb8439a516edf9b8058aacc85301","gasLimit":"0x1c9c380","gasUsed":"0x237ef","hash":"0x9939e5201b57afd56ab23a0e7ee3bbaeb4e00644ff09f5b43fa7c7b432472473","logsBloom":"0x00040000000010000000000000000000000000000001000000000000000000000000000000000000200000000002000000000000000000000000000000200000140000000040000000000008000000000000008000042000000000000000000000000000000000000000000000010000000000000000000000000010000000000000000100000000000000000000040000100000040000000000000040000000020000000000000000000000000000000000000000000000004000000000000000000002000000000000000000000000000000000000000000000400000000000010000800000000000000000000000000000000000000000000002000000000","miner":"0x0000000000000000000000000000000000000000","mixHash":"0x0000000000000000000000000000000000000000000000000000000000000000","nonce":"0x0000000000000000","number":"0xd00130","parentHash":"0x2867f599fd4191de9178c31d3dc96525415c5c586fb1e72c1ac1c16d8cc496a5","receiptsRoot":"0x2bdfa90ac0faae1c6f3afed55405abb999c7c7d0598f1f3942770def83b10551","sha3Uncles":"0x1dcc4de8dec75d7aab85b567b6ccd41ad312451b948a7413f0a142fd40d49347","size":"0x3d8","stateRoot":"0xc041e153451ab3faac3048b26fecf595210b42f66759ed089f4b4c940466d7a5","timestamp":"0x65243d59","totalDifficulty":"0x1a00261","transactions":[{"blockHash":"0x9939e5201b57afd56ab23a0e7ee3bbaeb4e00644ff09f5b43fa7c7b432472473","blockNumber":"0xd00130","from":"0x6b1d9ef3046d08e47ea3b6d775ab869f28ff292d","gas":"0x250e3","gasPrice":"0x2faf080","hash":"0x94300e2e15a3bbf06d4ad3fe4400305fdec5cb3212dede9d51aa89f297147775","index":"0xd0012f","input":"0x414bf38900000000000000000000000078c1b0c915c4faa5fffa6cabf0219da63d7f4cb8000000000000000000000000201eba5cc46d216ce6dc03f6a759e8e766e956ae00000000000000000000000000000000000000000000000000000000000001f40000000000000000000000006b1d9ef3046d08e47ea3b6d775ab869f28ff292d0000000000000000000000000000000000000000000000000000000065243d7b0000000000000000000000000000000000000000000000002e130268ee4c000000000000000000000000000000000000000000000000000000000000001284750000000000000000000000000000000000000000000000000000000000000000","l1BlockNumber":"0x11774d0","l1Timestamp":"0x65243d59","l1TxOrigin":null,"nonce":"0x8a4","queueIndex":null,"queueOrigin":"sequencer","r":"0x6ed7f933dfaf090c2fd7041ead52241c4b2e895f647c4459d3ec97462b937f91","rawTransaction":"0xf9016e8208a48402faf080830250e3945989fb161568b9f133edf5cf6787f5597762797f80b90104414bf38900000000000000000000000078c1b0c915c4faa5fffa6cabf0219da63d7f4cb8000000000000000000000000201eba5cc46d216ce6dc03f6a759e8e766e956ae00000000000000000000000000000000000000000000000000000000000001f40000000000000000000000006b1d9ef3046d08e47ea3b6d775ab869f28ff292d0000000000000000000000000000000000000000000000000000000065243d7b0000000000000000000000000000000000000000000000002e130268ee4c000000000000000000000000000000000000000000000000000000000000001284750000000000000000000000000000000000000000000000000000000000000000822733a06ed7f933dfaf090c2fd7041ead52241c4b2e895f647c4459d3ec97462b937f91a024346d660159ce422a26664f4c1bd111f944d089e82a63d8d0bbd0c8f667bc38","s":"0x24346d660159ce422a26664f4c1bd111f944d089e82a63d8d0bbd0c8f667bc38","to":"0x5989fb161568b9f133edf5cf6787f5597762797f","transactionIndex":"0x0","v":"0x2733","value":"0x0"}],"transactionsRoot":"0xafe5489a6a21585aea1019d58db26919fc4efabbf9c0f1c49bd36e1504f5a3e2","uncles":[]},"receipts":{"0x94300e2e15a3bbf06d4ad3fe4400305fdec5cb3212dede9d51aa89f297147775":{"blockHash":"0x9939e5201b57afd56ab23a0e7ee3bbaeb4e00644ff09f5b43fa7c7b432472473","blockNumber":"0xd00130","from":"0x6b1d9ef3046d08e47ea3b6d775ab869f28ff292d","gas":"0x250e3","gasPrice":"0x2faf080","hash":"0x94300e2e15a3bbf06d4ad3fe4400305fdec5cb3212dede9d51aa89f297147775","index":"0xd0012f","input":"0x414bf38900000000000000000000000078c1b0c915c4faa5fffa6cabf0219da63d7f4cb8000000000000000000000000201eba5cc46d216ce6dc03f6a759e8e766e956ae00000000000000000000000000000000000000000000000000000000000001f40000000000000000000000006b1d9ef3046d08e47ea3b6d775ab869f28ff292d0000000000000000000000000000000000000000000000000000000065243d7b0000000000000000000000000000000000000000000000002e130268ee4c000000000000000000000000000000000000000000000000000000000000001284750000000000000000000000000000000000000000000000000000000000000000","l1BlockNumber":"0x11774d0","l1Timestamp":"0x65243d59","l1TxOrigin":null,"nonce":"0x8a4","queueIndex":null,"queueOrigin":"sequencer","r":"0x6ed7f933dfaf090c2fd7041ead52241c4b2e895f647c4459d3ec97462b937f91","rawTransaction":"0xf9016e8208a48402faf080830250e3945989fb161568b9f133edf5cf6787f5597762797f80b90104414bf38900000000000000000000000078c1b0c915c4faa5fffa6cabf0219da63d7f4cb8000000000000000000000000201eba5cc46d216ce6dc03f6a759e8e766e956ae00000000000000000000000000000000000000000000000000000000000001f40000000000000000000000006b1d9ef3046d08e47ea3b6d775ab869f28ff292d0000000000000000000000000000000000000000000000000000000065243d7b0000000000000000000000000000000000000000000000002e130268ee4c000000000000000000000000000000000000000000000000000000000000001284750000000000000000000000000000000000000000000000000000000000000000822733a06ed7f933dfaf090c2fd7041ead52241c4b2e895f647c4459d3ec97462b937f91a024346d660159ce422a26664f4c1bd111f944d089e82a63d8d0bbd0c8f667bc38","s":"0x24346d660159ce422a26664f4c1bd111f944d089e82a63d8d0bbd0c8f667bc38","to":"0x5989fb161568b9f133edf5cf6787f5597762797f","transactionIndex":"0x0","v":"0x2733","value":"0x0","contractAddress":null,"cumulativeGasUsed":"0x237ef","daFee":"0x0","daGasPrice":"0x0","daGasUsed":"0x12c","gasUsed":"0x237ef","l1Fee":"0x1a09f6380cb9fe0","l1FeeScalar":"1","l1GasPrice":"0x39ff1464e55c","l1GasUsed":"0x72f","logs":[{"address":"0x201eba5cc46d216ce6dc03f6a759e8e766e956ae","blockHash":"0x9939e5201b57afd56ab23a0e7ee3bbaeb4e00644ff09f5b43fa7c7b432472473","blockNumber":"0xd00130","data":"0x000000000000000000000000000000000000000000000000000000000012e534","logIndex":"0x0","removed":false,"topics":["0xddf252ad1be2c89b69c2b068fc378daa952ba7f163c4a11628f55a4df523b3ef","0x000000000000000000000000262255f4770aebe2d0c8b97a46287dcecc2a0aff","0x0000000000000000000000006b1d9ef3046d08e47ea3b6d775ab869f28ff292d"],"transactionHash":"0x94300e2e15a3bbf06d4ad3fe4400305fdec5cb3212dede9d51aa89f297147775","transactionIndex":"0x0"},{"address":"0x78c1b0c915c4faa5fffa6cabf0219da63d7f4cb8","blockHash":"0x9939e5201b57afd56ab23a0e7ee3bbaeb4e00644ff09f5b43fa7c7b432472473","blockNumber":"0xd00130","data":"0x0000000000000000000000000000000000000000000000002e130268ee4c0000","logIndex":"0x1","removed":false,"topics":["0xddf252ad1be2c89b69c2b068fc378daa952ba7f163c4a11628f55a4df523b3ef","0x0000000000000000000000006b1d9ef3046d08e47ea3b6d775ab869f28ff292d","0x000000000000000000000000262255f4770aebe2d0c8b97a46287dcecc2a0aff"],"transactionHash":"0x94300e2e15a3bbf06d4ad3fe4400305fdec5cb3212dede9d51aa89f297147775","transactionIndex":"0x0"},{"address":"0x78c1b0c915c4faa5fffa6cabf0219da63d7f4cb8","blockHash":"0x9939e5201b57afd56ab23a0e7ee3bbaeb4e00644ff09f5b43fa7c7b432472473","blockNumber":"0xd00130","data":"0xfffffffffffffffffffffffffffffffffffffffffffffff88141ce886a7dffff","logIndex":"0x2","removed":false,"topics":["0x8c5be1e5ebec7d5bd14f71427d1e84f3dd0314c0f7b2291e5b200ac8c7c3b925","0x0000000000000000000000006b1d9ef3046d08e47ea3b6d775ab869f28ff292d","0x0000000000000000000000005989fb161568b9f133edf5cf6787f5597762797f"],"transactionHash":"0x94300e2e15a3bbf06d4ad3fe4400305fdec5cb3212dede9d51aa89f297147775","transactionIndex":"0x0"},{"address":"0x262255f4770aebe2d0c8b97a46287dcecc2a0aff","blockHash":"0x9939e5201b57afd56ab23a0e7ee3bbaeb4e00644ff09f5b43fa7c7b432472473","blockNumber":"0xd00130","data":"0xffffffffffffffffffffffffffffffffffffffffffffffffffffffffffed1acc0000000000000000000000000000000000000000000000002e130268ee4c0000000000000000000000000000000000000018fa741f90e0de35f7c4a76ca0860c00000000000000000000000000000000000000000000000025235183d5a62c890000000000000000000000000000000000000000000000000000000000045de50000000000000000000000000000000000000000000000000000000000000000000000000000000000000000000000000000000000000000000201519d82e000","logIndex":"0x3","removed":false,"topics":["0x19b47279256b2a23a1665c810c8d55a1758940ee09377d4f8d26497a3577dc83","0x0000000000000000000000005989fb161568b9f133edf5cf6787f5597762797f","0x0000000000000000000000006b1d9ef3046d08e47ea3b6d775ab869f28ff292d"],"transactionHash":"0x94300e2e15a3bbf06d4ad3fe4400305fdec5cb3212dede9d51aa89f297147775","transactionIndex":"0x0"}],"logsBloom":"0x00040000000010000000000000000000000000000001000000000000000000000000000000000000200000000002000000000000000000000000000000200000140000000040000000000008000000000000008000042000000000000000000000000000000000000000000000010000000000000000000000000010000000000000000100000000000000000000040000100000040000000000000040000000020000000000000000000000000000000000000000000000004000000000000000000002000000000000000000000000000000000000000000000400000000000010000800000000000000000000000000000000000000000000002000000000","status":"0x1","transactionHash":"0x94300e2e15a3bbf06d4ad3fe4400305fdec5cb3212dede9d51aa89f297147775"}}}