{"block":{"difficulty":"0x2","extraData":"0xd98301090a846765746889676f312e31352e3133856c696e75780000000000003a914e9ee6bb4bef6dcab631e47d3cf4bb02c8c6fd7dc0e1b1f995a59eac90f72f08f62e6ca6beb3ceb4aaa343708d23eaae6fed1531d86b85c0f4477c0a237200","gasLimit":"0x1c9c380","gasUsed":"0x1e203","hash":"0xf18475fa0e2630470f23dd161b1f0d07f4009c42a066139626e47a6dfc8d389d","logsBloom":"0x40000000000000000000000000000000000000000001008800000000004000000000000000000000000000000002000000000000000000000000000000200000840000000040000000000008000000008000008000002004000000000000000000000001000000000000000100000000000000000000000000000010000000000000000000000000000000000000000000000000000000000008000000000000020000000000000000000000000000000000000001000020000100000000000000000002000000000000000000000000000000000000000000000000000000000010000000001000000020000000000000000000000000000000000000000000","miner":"0x0000000000000000000000000000000000000000","mixHash":"0x0000000000000000000000000000000000000000000000000000000000000000","nonce":"0x0000000000000000","number":"0xcff396","parentHash":"0x226f9f6d4fd26d1d3a17b51c47744a2ffac0c395e32596f33908f24abae90e62","receiptsRoot":"0xa7bf9f7b9874243b713994d9d950816cc7f854a0b14de286b93e9134d7f4bac6","sha3Uncles":"0x1dcc4de8dec75d7aab85b567b6ccd41ad312451b948a7413f0a142fd40d49347","size":"0x3d8","stateRoot":"0xd8ba63dd2cab678e930649aee833beea46a31a046762741ad957d8d98956979e","timestamp":"0x65243748","totalDifficulty":"0x19fe72d","transactions":[{"blockHash":"0xf18475fa0e2630470f23dd161b1f0d07f4009c42a066139626e47a6dfc8d389d","blockNumber":"0xcff396","from":"0xb79a251ca60e64c74ef9f27f7186b2a87c409e6e","gas":"0x1f99f","gasPrice":"0x2faf080","hash":"0xb962cf3b90bc113329fd204c753cd578853c37ba02de56ae8a65fb058aaf3140","index":"0xcff395","input":"0x414bf389000000000000000000000000201eba5cc46d216ce6dc03f6a759e8e766e956ae000000000000000000000000deaddeaddeaddeaddeaddeaddeaddeaddead111100000000000000000000000000000000000000000000000000000000000001f4000000000000000000000000b79a251ca60e64c74ef9f27f7186b2a87c409e6e000000000000000000000000000000000000000000000000000000006524376600000000000000000000000000000000000000000000000000000000000cf8500000000000000000000000000000000000000000000000000001de86356f6f2b0000000000000000000000000000000000000000000000000000000000000000","l1BlockNumber":"0x117744e","l1Timestamp":"0x65243748","l1TxOrigin":null,"nonce":"0xb57","queueIndex":null,"queueOrigin":"sequencer","r":"0xab732993022a54ab5c95d6d1f2762278dd558950877f0723e96ba7c826042c8e","rawTransaction":"0xf9016e820b578402faf0808301f99f94319b69888b0d11cec22caa5034e25fffbdc8842180b90104414bf389000000000000000000000000201eba5cc46d216ce6dc03f6a759e8e766e956ae000000000000000000000000deaddeaddeaddeaddeaddeaddeaddeaddead111100000000000000000000000000000000000000000000000000000000000001f4000000000000000000000000b79a251ca60e64c74ef9f27f7186b2a87c409e6e000000000000000000000000000000000000000000000000000000006524376600000000000000000000000000000000000000000000000000000000000cf8500000000000000000000000000000000000000000000000000001de86356f6f2b0000000000000000000000000000000000000000000000000000000000000000822734a0ab732993022a54ab5c95d6d1f2762278dd558950877f0723e96ba7c826042c8ea074c9f279c84b78a5a7d516e8889e1dc8f87dccd883446e08da172b641c625064","s":"0x74c9f279c84b78a5a7d516e8889e1dc8f87dccd883446e08da172b641c625064","to":"0x319b69888b0d11cec22caa5034e25fffbdc88421","transactionIndex":"0x0","v":"0x2734","value":"0x0"}],"transactionsRoot":"0x684dac293195e338ec63c4048691debb5f3bf6acbfb059006ee2f7b769b88240","uncles":[]},"receipts":{"0xb962cf3b90bc113329fd204c753cd578853c37ba02de56ae8a65fb058aaf3140":{"blockHash":"0xf18475fa0e2630470f23dd161b1f0d07f4009c42a066139626e47a6dfc8d389d","blockNumber":"0xcff396","from":"0xb79a251ca60e64c74ef9f27f7186b2a87c409e6e","gas":"0x1f99f","gasPrice":"0x2faf080","hash":"0xb962cf3b90bc113329fd204c753cd578853c37ba02de56ae8a65fb058aaf3140","index":"0xcff395","input":"0x414bf389000000000000000000000000201eba5cc46d216ce6dc03f6a759e8e766e956ae000000000000000000000000deaddeaddeaddeaddeaddeaddeaddeaddead111100000000000000000000000000000000000000000000000000000000000001f4000000000000000000000000b79a251ca60e64c74ef9f27f7186b2a87c409e6e000000000000000000000000000000000000000000000000000000006524376600000000000000000000000000000000000000000000000000000000000cf8500000000000000000000000000000000000000000000000000001de86356f6f2b0000000000000000000000000000000000000000000000000000000000000000","l1BlockNumber":"0x117744e","l1Timestamp":"0x65243748","l1TxOrigin":null,"nonce":"0xb57","queueIndex":null,"queueOrigin":"sequencer","r":"0xab732993022a54ab5c95d6d1f2762278dd558950877f0723e96ba7c826042c8e","rawTransaction":"0xf9016e820b578402faf0808301f99f94319b69888b0d11cec22caa5034e25fffbdc8842180b90104414bf389000000000000000000000000201eba5cc46d216ce6dc03f6a759e8e766e956ae000000000000000000000000deaddeaddeaddeaddeaddeaddeaddeaddead111100000000000000000000000000000000000000000000000000000000000001f4000000000000000000000000b79a251ca60e64c74ef9f27f7186b2a87c409e6e000000000000000000000000000000000000000000000000000000006524376600000000000000000000000000000000000000000000000000000000000cf8500000000000000000000000000000000000000000000000000001de86356f6f2b0000000000000000000000000000000000000000000000000000000000000000822734a0ab732993022a54ab5c95d6d1f2762278dd558950877f0723e96ba7c826042c8ea074c9f279c84b78a5a7d516e8889e1dc8f87dccd883446e08da172b641c625064","s":"0x74c9f279c84b78a5a7d516e8889e1dc8f87dccd883446e08da172b641c625064","to":"0x319b69888b0d11cec22caa5034e25fffbdc88421","transactionIndex":"0x0","v":"0x2734","value":"0x0","contractAddress":null,"cumulativeGasUsed":"0x1e203","daFee":"0x0","daGasPrice":"0x0","daGasUsed":"0x12c","gasUsed":"0x1e203","l1Fee":"0x1c5145ff7a866d0","l1FeeScalar":"1","l1GasPrice":"0x3f1249c65230","l1GasUsed":"0x72f","logs":[{"address":"0xdeaddeaddeaddeaddeaddeaddeaddeaddead1111","blockHash":"0xf18475fa0e2630470f23dd161b1f0d07f4009c42a066139626e47a6dfc8d389d","blockNumber":"0xcff396","data":"0x0000000000000000000000000000000000000000000000000001e84a40f98b90","logIndex":"0x0","removed":false,"topics":["0xddf252ad1be2c89b69c2b068fc378daa952ba7f163c4a11628f55a4df523b3ef","0x000000000000000000000000628f7131cf43e88ebe3921ae78c4ba0c31872bd4","0x000000000000000000000000b79a251ca60e64c74ef9f27f7186b2a87c409e6e"],"transactionHash":"0xb962cf3b90bc113329fd204c753cd578853c37ba02de56ae8a65fb058aaf3140","transactionIndex":"0x0"},{"address":"0x201eba5cc46d216ce6dc03f6a759e8e766e956ae","blockHash":"0xf18475fa0e2630470f23dd161b1f0d07f4009c42a066139626e47a6dfc8d389d","blockNumber":"0xcff396","data":"0x00000000000000000000000000000000000000000000000000000000000cf850","logIndex":"0x1","removed":false,"topics":["0xddf252ad1be2c89b69c2b068fc378daa952ba7f163c4a11628f55a4df523b3ef","0x000000000000000000000000b79a251ca60e64c74ef9f27f7186b2a87c409e6e","0x000000000000000000000000628f7131cf43e88ebe3921ae78c4ba0c31872bd4"],"transactionHash":"0xb962cf3b90bc113329fd204c753cd578853c37ba02de56ae8a65fb058aaf3140","transactionIndex":"0x0"},{"address":"0x201eba5cc46d216ce6dc03f6a759e8e766e956ae","blockHash":"0xf18475fa0e2630470f23dd161b1f0d07f4009c42a066139626e47a6dfc8d389d","blockNumber":"0xcff396","data":"0xffffffffffffffffffffffffffffffffffffffffffffffffffffffffb0682d0f","logIndex":"0x2","removed":false,"topics":["0x8c5be1e5ebec7d5bd14f71427d1e84f3dd0314c0f7b2291e5b200ac8c7c3b925","0x000000000000000000000000b79a251ca60e64c74ef9f27f7186b2a87c409e6e","0x000000000000000000000000319b69888b0d11cec22caa5034e25fffbdc88421"],"transactionHash":"0xb962cf3b90bc113329fd204c753cd578853c37ba02de56ae8a65fb058aaf3140","transactionIndex":"0x0"},{"address":"0x628f7131cf43e88ebe3921ae78c4ba0c31872bd4","blockHash":"0xf18475fa0e2630470f23dd161b1f0d07f4009c42a066139626e47a6dfc8d389d","blockNumber":"0xcff396","data":"0x00000000000000000000000000000000000000000000000000000000000cf850fffffffffffffffffffffffffffffffffffffffffffffffffffe17b5bf067470000000000000000000000000000000000000622cec1b979a546bf6a1144e722b00000000000000000000000000000000000000000000000000002c65dde06c20000000000000000000000000000000000000000000000000000000000003179800000000000000000000000000000000000000000000000000000000000000900000000000000000000000000000000000000000000000000000000000000000","logIndex":"0x3","removed":false,"topics":["0x19b47279256b2a23a1665c810c8d55a1758940ee09377d4f8d26497a3577dc83","0x000000000000000000000000319b69888b0d11cec22caa5034e25fffbdc88421","0x000000000000000000000000b79a251ca60e64c74ef9f27f7186b2a87c409e6e"],"transactionHash":"0xb962cf3b90bc113329fd204c753cd578853c37ba02de56ae8a65fb058aaf3140","transactionIndex":"0x0"}],"logsBloom":"0x40000000000000000000000000000000000000000001008800000000004000000000000000000000000000000002000000000000000000000000000000200000840000000040000000000008000000008000008000002004000000000000000000000001000000000000000100000000000000000000000000000010000000000000000000000000000000000000000000000000000000000008000000000000020000000000000000000000000000000000000001000020000100000000000000000002000000000000000000000000000000000000000000000000000000000010000000001000000020000000000000000000000000000000000000000000","status":"0x1","transactionHash":"0xb962cf3b90bc113329fd204c753cd578853c37ba02de56ae8a65fb058aaf3140"}}}