{"block":{"difficulty":"0x2","extraData":"0xd98301090a846765746889676f312e31352e3133856c696e757800000000000012c5e2400a1554621f7387ad07871c71e5f3178dc163b649ab7cdfeef923a71c4a7e6b3a10750c872157a275a136fbf8bebf81f088952b5b973c7ad2f020266901","gasLimit":"0x1c9c380","gasUsed":"0x1ce09","hash":"0x87e2cf6d99828b6632c896cf514a3f27958ddc5c3b0514dc582b2d68c5acf6e3","logsBloom":"0x40000000000000000000000000000000000000000001008800000000000000000000000000000000000000000002000000000002000000000000000000200000840000000040000000000008000000000000008000002004000000000000000000000001000000000000000100000000000000000000000000000010000000000000000000000000000000000000000000000000000000000008000000000000020000000000008000000000000000000000000001000020000100000000000000000002000000000000000000000000001000000000000000000000000000000010000000001000000000000000000000000000000000000000000000000000","miner":"0x0000000000000000000000000000000000000000","mixHash":"0x0000000000000000000000000000000000000000000000000000000000000000","nonce":"0x0000000000000000","number":"0xd0036a","parentHash":"0x500d345c2ee627d280a4dbff766e0f5e6e26171c07294ed0f6316bd6bc154f1c","receiptsRoot":"0xcd1ec1e1c2d2dcfcc76337a036eeb4511c7fbace2fe2339767ac0fb407bf3874","sha3Uncles":"0x1dcc4de8dec75d7aab85b567b6ccd41ad312451b948a7413f0a142fd40d49347","size":"0x3d8","stateRoot":"0xbc117f7fdbfbabe26be76b31557fd0ddfd701214f51ed882d8a3c653340e6a1b","timestamp":"0x65243e80","totalDifficulty":"0x1a006d5","transactions":[{"blockHash":"0x87e2cf6d99828b6632c896cf514a3f27958ddc5c3b0514dc582b2d68c5acf6e3","blockNumber":"0xd0036a","from":"0xdc32d2c25aeb6f34ff3c46f9bb93a8aff4e9b851","gas":"0x1e54a","gasPrice":"0x2faf080","hash":"0x928a3980dc4dfa8007f2a5f94955f3ebcbd800804233ac5f259b58adbb9e36e9","index":"0xd00369","input":"0x414bf389000000000000000000000000deaddeaddeaddeaddeaddeaddeaddeaddead1111000000000000000000000000201eba5cc46d216ce6dc03f6a759e8e766e956ae00000000000000000000000000000000000000000000000000000000000001f4000000000000000000000000dc32d2c25aeb6f34ff3c46f9bb93a8aff4e9b8510000000000000000000000000000000000000000000000000000000065243ea00000000000000000000000000000000000000000000000000002386f26fc100000000000000000000000000000000000000000000000000000000000000ee06a0000000000000000000000000000000000000000000000000000000000000000","l1BlockNumber":"0x11774e9","l1Timestamp":"0x65243e80","l1TxOrigin":null,"nonce":"0xece","queueIndex":null,"queueOrigin":"sequencer","r":"0x1b1f90039c40ffe007c0b77cd1e7c285e1dd168b68308f4be95cd357eb1ccba6","rawTransaction":"0xf9016e820ece8402faf0808301e54a94319b69888b0d11cec22caa5034e25fffbdc8842180b90104414bf389000000000000000000000000deaddeaddeaddeaddeaddeaddeaddeaddead1111000000000000000000000000201eba5cc46d216ce6dc03f6a759e8e766e956ae00000000000000000000000000000000000000000000000000000000000001f4000000000000000000000000dc32d2c25aeb6f34ff3c46f9bb93a8aff4e9b8510000000000000000000000000000000000000000000000000000000065243ea00000000000000000000000000000000000000000000000000002386f26fc100000000000000000000000000000000000000000000000000000000000000ee06a0000000000000000000000000000000000000000000000000000000000000000822734a01b1f90039c40ffe007c0b77cd1e7c285e1dd168b68308f4be95cd357eb1ccba6a070f3b4fc6f10a3b122f17e53e36fd2b8e8d363cd95feb9b563f608d9863e840f","s":"0x70f3b4fc6f10a3b122f17e53e36fd2b8e8d363cd95feb9b563f608d9863e840f","to":"0x319b69888b0d11cec22caa5034e25fffbdc88421","transactionIndex":"0x0","v":"0x2734","value":"0x0"}],"transactionsRoot":"0x04da05c9f32930c8d763d7dae2681d136e5382b57b564a5e6c69880cd9e0e665","uncles":[]},"receipts":{"0x928a3980dc4dfa8007f2a5f94955f3ebcbd800804233ac5f259b58adbb9e36e9":{"blockHash":"0x87e2cf6d99828b6632c896cf514a3f27958ddc5c3b0514dc582b2d68c5acf6e3","blockNumber":"0xd0036a","from":"0xdc32d2c25aeb6f34ff3c46f9bb93a8aff4e9b851","gas":"0x1e54a","gasPrice":"0x2faf080","hash":"0x928a3980dc4dfa8007f2a5f94955f3ebcbd800804233ac5f259b58adbb9e36e9","index":"0xd00369","input":"0x414bf389000000000000000000000000deaddeaddeaddeaddeaddeaddeaddeaddead1111000000000000000000000000201eba5cc46d216ce6dc03f6a759e8e766e956ae00000000000000000000000000000000000000000000000000000000000001f4000000000000000000000000dc32d2c25aeb6f34ff3c46f9bb93a8aff4e9b8510000000000000000000000000000000000000000000000000000000065243ea00000000000000000000000000000000000000000000000000002386f26fc100000000000000000000000000000000000000000000000000000000000000ee06a0000000000000000000000000000000000000000000000000000000000000000","l1BlockNumber":"0x11774e9","l1Timestamp":"0x65243e80","l1TxOrigin":null,"nonce":"0xece","queueIndex":null,"queueOrigin":"sequencer","r":"0x1b1f90039c40ffe007c0b77cd1e7c285e1dd168b68308f4be95cd357eb1ccba6","rawTransaction":"0xf9016e820ece8402faf0808301e54a94319b69888b0d11cec22caa5034e25fffbdc8842180b90104414bf389000000000000000000000000deaddeaddeaddeaddeaddeaddeaddeaddead1111000000000000000000000000201eba5cc46d216ce6dc03f6a759e8e766e956ae00000000000000000000000000000000000000000000000000000000000001f4000000000000000000000000dc32d2c25aeb6f34ff3c46f9bb93a8aff4e9b8510000000000000000000000000000000000000000000000000000000065243ea00000000000000000000000000000000000000000000000000002386f26fc100000000000000000000000000000000000000000000000000000000000000ee06a0000000000000000000000000000000000000000000000000000000000000000822734a01b1f90039c40ffe007c0b77cd1e7c285e1dd168b68308f4be95cd357eb1ccba6a070f3b4fc6f10a3b122f17e53e36fd2b8e8d363cd95feb9b563f608d9863e840f","s":"0x70f3b4fc6f10a3b122f17e53e36fd2b8e8d363cd95feb9b563f608d9863e840f","to":"0x319b69888b0d11cec22caa5034e25fffbdc88421","transactionIndex":"0x0","v":"0x2734","value":"0x0","contractAddress":null,"cumulativeGasUsed":"0x1ce09","daFee":"0x0","daGasPrice":"0x0","daGasUsed":"0x12c","gasUsed":"0x1ce09","l1Fee":"0x19709d787180660","l1FeeScalar":"1","l1GasPrice":"0x38a987f04864","l1GasUsed":"0x72f","logs":[{"address":"0x201eba5cc46d216ce6dc03f6a759e8e766e956ae","blockHash":"0x87e2cf6d99828b6632c896cf514a3f27958ddc5c3b0514dc582b2d68c5acf6e3","blockNumber":"0xd0036a","data":"0x00000000000000000000000000000000000000000000000000000000000f2e24","logIndex":"0x0","removed":false,"topics":["0xddf252ad1be2c89b69c2b068fc378daa952ba7f163c4a11628f55a4df523b3ef","0x000000000000000000000000628f7131cf43e88ebe3921ae78c4ba0c31872bd4","0x000000000000000000000000dc32d2c25aeb6f34ff3c46f9bb93a8aff4e9b851"],"transactionHash":"0x928a3980dc4dfa8007f2a5f94955f3ebcbd800804233ac5f259b58adbb9e36e9","transactionIndex":"0x0"},{"address":"0xdeaddeaddeaddeaddeaddeaddeaddeaddead1111","blockHash":"0x87e2cf6d99828b6632c896cf514a3f27958ddc5c3b0514dc582b2d68c5acf6e3","blockNumber":"0xd0036a","data":"0x0000000000000000000000000000000000000000000000000002386f26fc1000","logIndex":"0x1","removed":false,"topics":["0xddf252ad1be2c89b69c2b068fc378daa952ba7f163c4a11628f55a4df523b3ef","0x000000000000000000000000dc32d2c25aeb6f34ff3c46f9bb93a8aff4e9b851","0x000000000000000000000000628f7131cf43e88ebe3921ae78c4ba0c31872bd4"],"transactionHash":"0x928a3980dc4dfa8007f2a5f94955f3ebcbd800804233ac5f259b58adbb9e36e9","transactionIndex":"0x0"},{"address":"0xdeaddeaddeaddeaddeaddeaddeaddeaddead1111","blockHash":"0x87e2cf6d99828b6632c896cf514a3f27958ddc5c3b0514dc582b2d68c5acf6e3","blockNumber":"0xd0036a","data":"0xfffffffffffffffffffffffffffffffffffffffffffffffffaf210ef465adfff","logIndex":"0x2","removed":false,"topics":["0x8c5be1e5ebec7d5bd14f71427d1e84f3dd0314c0f7b2291e5b200ac8c7c3b925","0x000000000000000000000000dc32d2c25aeb6f34ff3c46f9bb93a8aff4e9b851","0x000000000000000000000000319b69888b0d11cec22caa5034e25fffbdc88421"],"transactionHash":"0x928a3980dc4dfa8007f2a5f94955f3ebcbd800804233ac5f259b58adbb9e36e9","transactionIndex":"0x0"},{"address":"0x628f7131cf43e88ebe3921ae78c4ba0c31872bd4","blockHash":"0x87e2cf6d99828b6632c896cf514a3f27958ddc5c3b0514dc582b2d68c5acf6e3","blockNumber":"0xd0036a","data":"0xfffffffffffffffffffffffffffffffffffffffffffffffffffffffffff0d1dc0000000000000000000000000000000000000000000000000002386f26fc100000000000000000000000000000000000000061e8b825e786d3eb77c6a3c7539300000000000000000000000000000000000000000000000000002c65dde06c200000000000000000000000000000000000000000000000000000000000031762000000000000000000000000000000000000000000000000000000000000000000000000000000000000000000000000000000000000000000000018bcfe5680","logIndex":"0x3","removed":false,"topics":["0x19b47279256b2a23a1665c810c8d55a1758940ee09377d4f8d26497a3577dc83","0x000000000000000000000000319b69888b0d11cec22caa5034e25fffbdc88421","0x000000000000000000000000dc32d2c25aeb6f34ff3c46f9bb93a8aff4e9b851"],"transactionHash":"0x928a3980dc4dfa8007f2a5f94955f3ebcbd800804233ac5f259b58adbb9e36e9","transactionIndex":"0x0"}],"logsBloom":"0x40000000000000000000000000000000000000000001008800000000000000000000000000000000000000000002000000000002000000000000000000200000840000000040000000000008000000000000008000002004000000000000000000000001000000000000000100000000000000000000000000000010000000000000000000000000000000000000000000000000000000000008000000000000020000000000008000000000000000000000000001000020000100000000000000000002000000000000000000000000001000000000000000000000000000000010000000001000000000000000000000000000000000000000000000000000","status":"0x1","transactionHash":"0x928a3980dc4dfa8007f2a5f94955f3ebcbd800804233ac5f259b58adbb9e36e9"}}}