{"block":{"difficulty":"0x2","extraData":"0xd98301090a846765746889676f312e31352e3133856c696e7578000000000000b1ef4fdcce014d5f5c7e07a924a1fe6c6fe2c7f2d133493f1aa7b3cfdd2d1e6f7458dcdb5fef80a096f70c4f8a594ae9c090010177bcaca224296c75d7aa2f2301","gasLimit":"0x1c9c380","gasUsed":"0x1d2bd","hash":"0xec3482574e2c4bba48f5381e9c99277db2616923df1b78af54dd0ea6098b8949","logsBloom":"0x40000000000000000000000000000000000000000001008800000000000000000000000000000000000000000002000000000000000000000000000000200000840000000040000000000008000000000000008000002004000000000000000000000001000000000000000100000000000000000000000000000010000000000000000000000000000000000000000000000000000000000008000000000000020000000000000000000000000000000000000001000020000100000000000000000002000000000000000000800000000000000000000000000000000200000010000000001000000000000000000000000000000000000000000000000000","miner":"0x0000000000000000000000000000000000000000","mixHash":"0x0000000000000000000000000000000000000000000000000000000000000000","nonce":"0x0000000000000000","number":"0xd000e3","parentHash":"0x51d24d21557b6ded0a85e4069b2315cab2068cd272cfab72303fe6b4a85b3d11","receiptsRoot":"0x25574b18d5a7fd6be400a6e265b19e6338fb5904ae80a17ba557ad10424de712","sha3Uncles":"0x1dcc4de8dec75d7aab85b567b6ccd41ad312451b948a7413f0a142fd40d49347","size":"0x3d8","stateRoot":"0xb9a27d3030432e410aaeb2efe3d4511874852b7471db34cab18c9328d0edbda0","timestamp":"0x65243d2f","totalDifficulty":"0x1a001c7","transactions":[{"blockHash":"0xec3482574e2c4bba48f5381e9c99277db2616923df1b78af54dd0ea6098b8949","blockNumber":"0xd000e3","from":"0x006a02b71b701e3e7027ddbe652e8df01c39b0a6","gas":"0x1f995","gasPrice":"0x2faf080","hash":"0xfce362024f118a8c7bbf943f3f41d6c6b5a00ab4cc94e50a6541609c5749bd41","index":"0xd000e2","input":"0x414bf389000000000000000000000000201eba5cc46d216ce6dc03f6a759e8e766e956ae000000000000000000000000deaddeaddeaddeaddeaddeaddeaddeaddead111100000000000000000000000000000000000000000000000000000000000001f4000000000000000000000000006a02b71b701e3e7027ddbe652e8df01c39b0a60000000000000000000000000000000000000000000000000000000065243d50000000000000000000000000000000000000000000000000000000000010a1d00000000000000000000000000000000000000000000000000002652be16d303a0000000000000000000000000000000000000000000000000000000000000000","l1BlockNumber":"0x11774cc","l1Timestamp":"0x65243d2f","l1TxOrigin":null,"nonce":"0x118d","queueIndex":null,"queueOrigin":"sequencer","r":"0x59630d0359be48bd8bc1c79ad87762cf64e13c424f2551a35bd68c27465faadb","rawTransaction":"0xf9016e82118d8402faf0808301f99594319b69888b0d11cec22caa5034e25fffbdc8842180b90104414bf389000000000000000000000000201eba5cc46d216ce6dc03f6a759e8e766e956ae000000000000000000000000deaddeaddeaddeaddeaddeaddeaddeaddead111100000000000000000000000000000000000000000000000000000000000001f4000000000000000000000000006a02b71b701e3e7027ddbe652e8df01c39b0a60000000000000000000000000000000000000000000000000000000065243d50000000000000000000000000000000000000000000000000000000000010a1d00000000000000000000000000000000000000000000000000002652be16d303a0000000000000000000000000000000000000000000000000000000000000000822733a059630d0359be48bd8bc1c79ad87762cf64e13c424f2551a35bd68c27465faadba07ba87b3458d093b0b6da7431a67c4622389c0d6a4e51132cf1c0d0109d37fd83","s":"0x7ba87b3458d093b0b6da7431a67c4622389c0d6a4e51132cf1c0d0109d37fd83","to":"0x319b69888b0d11cec22caa5034e25fffbdc88421","transactionIndex":"0x0","v":"0x2733","value":"0x0"}],"transactionsRoot":"0x90c2ebb2e960a9c9ecb681f98f0dac9a652916d0364a22b87e36297a34e3295d","uncles":[]},"receipts":{"0xfce362024f118a8c7bbf943f3f41d6c6b5a00ab4cc94e50a6541609c5749bd41":{"blockHash":"0xec3482574e2c4bba48f5381e9c99277db2616923df1b78af54dd0ea6098b8949","blockNumber":"0xd000e3","from":"0x006a02b71b701e3e7027ddbe652e8df01c39b0a6","gas":"0x1f995","gasPrice":"0x2faf080","hash":"0xfce362024f118a8c7bbf943f3f41d6c6b5a00ab4cc94e50a6541609c5749bd41","index":"0xd000e2","input":"0x414bf389000000000000000000000000201eba5cc46d216ce6dc03f6a759e8e766e956ae000000000000000000000000deaddeaddeaddeaddeaddeaddeaddeaddead111100000000000000000000000000000000000000000000000000000000000001f4000000000000000000000000006a02b71b701e3e7027ddbe652e8df01c39b0a60000000000000000000000000000000000000000000000000000000065243d50000000000000000000000000000000000000000000000000000000000010a1d00000000000000000000000000000000000000000000000000002652be16d303a0000000000000000000000000000000000000000000000000000000000000000","l1BlockNumber":"0x11774cc","l1Timestamp":"0x65243d2f","l1TxOrigin":null,"nonce":"0x118d","queueIndex":null,"queueOrigin":"sequencer","r":"0x59630d0359be48bd8bc1c79ad87762cf64e13c424f2551a35bd68c27465faadb","rawTransaction":"0xf9016e82118d8402faf0808301f99594319b69888b0d11cec22caa5034e25fffbdc8842180b90104414bf389000000000000000000000000201eba5cc46d216ce6dc03f6a759e8e766e956ae000000000000000000000000deaddeaddeaddeaddeaddeaddeaddeaddead111100000000000000000000000000000000000000000000000000000000000001f4000000000000000000000000006a02b71b701e3e7027ddbe652e8df01c39b0a60000000000000000000000000000000000000000000000000000000065243d50000000000000000000000000000000000000000000000000000000000010a1d00000000000000000000000000000000000000000000000000002652be16d303a0000000000000000000000000000000000000000000000000000000000000000822733a059630d0359be48bd8bc1c79ad87762cf64e13c424f2551a35bd68c27465faadba07ba87b3458d093b0b6da7431a67c4622389c0d6a4e51132cf1c0d0109d37fd83","s":"0x7ba87b3458d093b0b6da7431a67c4622389c0d6a4e51132cf1c0d0109d37fd83","to":"0x319b69888b0d11cec22caa5034e25fffbdc88421","transactionIndex":"0x0","v":"0x2733","value":"0x0","contractAddress":null,"cumulativeGasUsed":"0x1d2bd","daFee":"0x0","daGasPrice":"0x0","daGasUsed":"0x12c","gasUsed":"0x1d2bd","l1Fee":"0x1a09f6380cb9fe0","l1FeeScalar":"1","l1GasPrice":"0x39ff1464e55c","l1GasUsed":"0x72f","logs":[{"address":"0xdeaddeaddeaddeaddeaddeaddeaddeaddead1111","blockHash":"0xec3482574e2c4bba48f5381e9c99277db2616923df1b78af54dd0ea6098b8949","blockNumber":"0xd000e3","data":"0x000000000000000000000000000000000000000000000000000270cdd18ceb6e","logIndex":"0x0","removed":false,"topics":["0xddf252ad1be2c89b69c2b068fc378daa952ba7f163c4a11628f55a4df523b3ef","0x000000000000000000000000628f7131cf43e88ebe3921ae78c4ba0c31872bd4","0x000000000000000000000000006a02b71b701e3e7027ddbe652e8df01c39b0a6"],"transactionHash":"0xfce362024f118a8c7bbf943f3f41d6c6b5a00ab4cc94e50a6541609c5749bd41","transactionIndex":"0x0"},{"address":"0x201eba5cc46d216ce6dc03f6a759e8e766e956ae","blockHash":"0xec3482574e2c4bba48f5381e9c99277db2616923df1b78af54dd0ea6098b8949","blockNumber":"0xd000e3","data":"0x000000000000000000000000000000000000000000000000000000000010a1d0","logIndex":"0x1","removed":false,"topics":["0xddf252ad1be2c89b69c2b068fc378daa952ba7f163c4a11628f55a4df523b3ef","0x000000000000000000000000006a02b71b701e3e7027ddbe652e8df01c39b0a6","0x000000000000000000000000628f7131cf43e88ebe3921ae78c4ba0c31872bd4"],"transactionHash":"0xfce362024f118a8c7bbf943f3f41d6c6b5a00ab4cc94e50a6541609c5749bd41","transactionIndex":"0x0"},{"address":"0x201eba5cc46d216ce6dc03f6a759e8e766e956ae","blockHash":"0xec3482574e2c4bba48f5381e9c99277db2616923df1b78af54dd0ea6098b8949","blockNumber":"0xd000e3","data":"0xffffffffffffffffffffffffffffffffffffffffffffffffffffffff87c46daf","logIndex":"0x2","removed":false,"topics":["0x8c5be1e5ebec7d5bd14f71427d1e84f3dd0314c0f7b2291e5b200ac8c7c3b925","0x000000000000000000000000006a02b71b701e3e7027ddbe652e8df01c39b0a6","0x000000000000000000000000319b69888b0d11cec22caa5034e25fffbdc88421"],"transactionHash":"0xfce362024f118a8c7bbf943f3f41d6c6b5a00ab4cc94e50a6541609c5749bd41","transactionIndex":"0x0"},{"address":"0x628f7131cf43e88ebe3921ae78c4ba0c31872bd4","blockHash":"0xec3482574e2c4bba48f5381e9c99277db2616923df1b78af54dd0ea6098b8949","blockNumber":"0xd000e3","data":"0x000000000000000000000000000000000000000000000000000000000010a1d0fffffffffffffffffffffffffffffffffffffffffffffffffffd8f322e7314920000000000000000000000000000000000006210258fbab2eb15d55845526a3500000000000000000000000000000000000000000000000000002c65dde06c20000000000000000000000000000000000000000000000000000000000003178100000000000000000000000000000000000000000000000000000000000000b90000000000000000000000000000000000000000000000000000000000000000","logIndex":"0x3","removed":false,"topics":["0x19b47279256b2a23a1665c810c8d55a1758940ee09377d4f8d26497a3577dc83","0x000000000000000000000000319b69888b0d11cec22caa5034e25fffbdc88421","0x000000000000000000000000006a02b71b701e3e7027ddbe652e8df01c39b0a6"],"transactionHash":"0xfce362024f118a8c7bbf943f3f41d6c6b5a00ab4cc94e50a6541609c5749bd41","transactionIndex":"0x0"}],"logsBloom":"0x40000000000000000000000000000000000000000001008800000000000000000000000000000000000000000002000000000000000000000000000000200000840000000040000000000008000000000000008000002004000000000000000000000001000000000000000100000000000000000000000000000010000000000000000000000000000000000000000000000000000000000008000000000000020000000000000000000000000000000000000001000020000100000000000000000002000000000000000000800000000000000000000000000000000200000010000000001000000000000000000000000000000000000000000000000000","status":"0x1","transactionHash":"0xfce362024f118a8c7bbf943f3f41d6c6b5a00ab4cc94e50a6541609c5749bd41"}}}