{"block":{"difficulty":"0x2","extraData":"0xd98301090a846765746889676f312e31352e3133856c696e7578000000000000dcf5bb457c7224df04634fa1df294953ebe0fefca0740f3dc1df2856f8826d5900ca9f95f37c8fac1f02321f20c31e36179300db344cd8c7c54b85ecf9d58c7401","gasLimit":"0x1c9c380","gasUsed":"0xb4ab","hash":"0xabbb515782051ac88893c99b21f8b1621cddad3eeb89c67ce1d68d5517d30441","logsBloom":"0x00000000000000000000000000000000000000000001008800000000000000000000000000000000000000000000000000000000000000000000000000200000000000000000000000000000000000000000008000002000000000000000000000000000000000000000000000000000000000000000000000000000000000000000000000000000000000000000000000000000000000000000000000000000020000000000000009000000000000000000000001000000000000000000000000000000000000000000000000000000000000000000000000000000000000000010020000000000000000000000000000000000000000000000000000000000","miner":"0x0000000000000000000000000000000000000000","mixHash":"0x0000000000000000000000000000000000000000000000000000000000000000","nonce":"0x0000000000000000","number":"0xd000cb","parentHash":"0x98778e6e2bba767c70699b1b24a313c8b545174216724c05eccb0fc59e2a5551","receiptsRoot":"0x220fd463f2fa1370d6606a506485f22ceefd6f78bedd03d25579e09677f58efa","sha3Uncles":"0x1dcc4de8dec75d7aab85b567b6ccd41ad312451b948a7413f0a142fd40d49347","size":"0x311","stateRoot":"0xf27734b545a75c78ca5a415db543d4539992d0726f7ee10a2c0f9d5cb4b1f97e","timestamp":"0x65243d25","totalDifficulty":"0x1a00197","transactions":[{"blockHash":"0xabbb515782051ac88893c99b21f8b1621cddad3eeb89c67ce1d68d5517d30441","blockNumber":"0xd000cb","from":"0x49d31251e9182106f1c6dc10e7b2bd1fa8e59596","gas":"0xb4ab","gasPrice":"0x2faf080","hash":"0xa661c97453a1a93907551792fb23945e72d62262253114892850d3908f4506a8","index":"0xd000ca","input":"0x095ea7b3000000000000000000000000319b69888b0d11cec22caa5034e25fffbdc88421000000000000000000000000000000000000000000000000000000003b9aca00","l1BlockNumber":"0x11774cc","l1Timestamp":"0x65243d25","l1TxOrigin":null,"nonce":"0x7c","queueIndex":null,"queueOrigin":"sequencer","r":"0x3ca3a248a9413fe484353fbbe7136d1e931d2747f26f98662afe7e3162017172","rawTransaction":"0xf8aa7c8402faf08082b4ab94201eba5cc46d216ce6dc03f6a759e8e766e956ae80b844095ea7b3000000000000000000000000319b69888b0d11cec22caa5034e25fffbdc88421000000000000000000000000000000000000000000000000000000003b9aca00822734a03ca3a248a9413fe484353fbbe7136d1e931d2747f26f98662afe7e3162017172a04036497dc5a3b246c7b8f0ed626322f4bd5e6cded6b7cfba56753c85284ac0aa","s":"0x4036497dc5a3b246c7b8f0ed626322f4bd5e6cded6b7cfba56753c85284ac0aa","to":"0x201eba5cc46d216ce6dc03f6a759e8e766e956ae","transactionIndex":"0x0","v":"0x2734","value":"0x0"}],"transactionsRoot":"0x57f2b5522a8d495a40361ad0c5f7ef7c372fb59f23e02966d506c4e9985d22a1","uncles":[]},"receipts":{"0xa661c97453a1a93907551792fb23945e72d62262253114892850d3908f4506a8":{"blockHash":"0xabbb515782051ac88893c99b21f8b1621cddad3eeb89c67ce1d68d5517d30441","blockNumber":"0xd000cb","from":"0x49d31251e9182106f1c6dc10e7b2bd1fa8e59596","gas":"0xb4ab","gasPrice":"0x2faf080","hash":"0xa661c97453a1a93907551792fb23945e72d62262253114892850d3908f4506a8","index":"0xd000ca","input":"0x095ea7b3000000000000000000000000319b69888b0d11cec22caa5034e25fffbdc88421000000000000000000000000000000000000000000000000000000003b9aca00","l1BlockNumber":"0x11774cc","l1Timestamp":"0x65243d25","l1TxOrigin":null,"nonce":"0x7c","queueIndex":null,"queueOrigin":"sequencer","r":"0x3ca3a248a9413fe484353fbbe7136d1e931d2747f26f98662afe7e3162017172","rawTransaction":"0xf8aa7c8402faf08082b4ab94201eba5cc46d216ce6dc03f6a759e8e766e956ae80b844095ea7b3000000000000000000000000319b69888b0d11cec22caa5034e25fffbdc88421000000000000000000000000000000000000000000000000000000003b9aca00822734a03ca3a248a9413fe484353fbbe7136d1e931d2747f26f98662afe7e3162017172a04036497dc5a3b246c7b8f0ed626322f4bd5e6cded6b7cfba56753c85284ac0aa","s":"0x4036497dc5a3b246c7b8f0ed626322f4bd5e6cded6b7cfba56753c85284ac0aa","to":"0x201eba5cc46d216ce6dc03f6a759e8e766e956ae","transactionIndex":"0x0","v":"0x2734","value":"0x0","contractAddress":null,"cumulativeGasUsed":"0xb4ab","daFee":"0x0","daGasPrice":"0x0","daGasUsed":"0x67","gasUsed":"0xb4ab","l1Fee":"0x1a09f6380cb9fe0","l1FeeScalar":"1","l1GasPrice":"0x39ff1464e55c","l1GasUsed":"0x72f","logs":[{"address":"0x201eba5cc46d216ce6dc03f6a759e8e766e956ae","blockHash":"0xabbb515782051ac88893c99b21f8b1621cddad3eeb89c67ce1d68d5517d30441","blockNumber":"0xd000cb","data":"0x000000000000000000000000000000000000000000000000000000003b9aca00","logIndex":"0x0","removed":false,"topics":["0x8c5be1e5ebec7d5bd14f71427d1e84f3dd0314c0f7b2291e5b200ac8c7c3b925","0x00000000000000000000000049d31251e9182106f1c6dc10e7b2bd1fa8e59596","0x000000000000000000000000319b69888b0d11cec22caa5034e25fffbdc88421"],"transactionHash":"0xa661c97453a1a93907551792fb23945e72d62262253114892850d3908f4506a8","transactionIndex":"0x0"}],"logsBloom":"0x00000000000000000000000000000000000000000001008800000000000000000000000000000000000000000000000000000000000000000000000000200000000000000000000000000000000000000000008000002000000000000000000000000000000000000000000000000000000000000000000000000000000000000000000000000000000000000000000000000000000000000000000000000000020000000000000009000000000000000000000001000000000000000000000000000000000000000000000000000000000000000000000000000000000000000010020000000000000000000000000000000000000000000000000000000000","status":"0x1","transactionHash":"0xa661c97453a1a93907551792fb23945e72d62262253114892850d3908f4506a8"}}}