{"block":{"difficulty":"0x2","extraData":"0xd98301090a846765746889676f312e31352e3133856c696e757800000000000015bfaf0eed6ebad8adb59382c5826f0a21bfe59447c6d0a3a9200bff10c5b1a33112c78eaf293b21ff909927384901aa08c91c5b6cc8c7541cccfd6f1b8e087b00","gasLimit":"0x1c9c380","gasUsed":"0x1fc88","hash":"0xcb3c2eb49d3b27451abe4edb27aab5772842984bb58892acabc20f2c861a5b2e","logsBloom":"0x0000000000000000000000000000000000004000000100880000000000000000000000000000000000000000000200000000000000200000000000000020000004800000004404000000000800000000000000c000002000000000000000000000000000002000000000000000000000000000100400800000000010000000000000000000000000000000000000000000000000000000000000000000000000020000000000000000000000000000000000000001000000000000000000000000000002000000000000000000000000002000000000000000000000000000000010000000000000000000000000000000000000000010000000000000000000","miner":"0x0000000000000000000000000000000000000000","mixHash":"0x0000000000000000000000000000000000000000000000000000000000000000","nonce":"0x0000000000000000","number":"0xd0011c","parentHash":"0xf838c18d7b93936ef67391a911986da8b1f6725b2654f8339bbf87d4183938c1","receiptsRoot":"0xfe9038137bc86494d56dc5f0830a203d140a8e718cf1d072b5cabb7d3fefcb94","sha3Uncles":"0x1dcc4de8dec75d7aab85b567b6ccd41ad312451b948a7413f0a142fd40d49347","size":"0x3d8","stateRoot":"0xd2b22d740b1071b8af538af34de131963f5873c479439839ed4e4519350ca450","timestamp":"0x65243d4e","totalDifficulty":"0x1a00239","transactions":[{"blockHash":"0xcb3c2eb49d3b27451abe4edb27aab5772842984bb58892acabc20f2c861a5b2e","blockNumber":"0xd0011c","from":"0xbe18234fe282d1796b96156ac2bc5d3490a61278","gas":"0x21487","gasPrice":"0x2faf080","hash":"0x6350c018a2b957a752e9154c1c1ec029a1b5c2b719b5c2147878be86b77f591f","index":"0xd0011b","input":"0x414bf389000000000000000000000000201eba5cc46d216ce6dc03f6a759e8e766e956ae00000000000000000000000009bc4e0d864854c6afb6eb9a9cdf58ac190d0df90000000000000000000000000000000000000000000000000000000000000064000000000000000000000000be18234fe282d1796b96156ac2bc5d3490a612780000000000000000000000000000000000000000000000000000000065243d7000000000000000000000000000000000000000000000000000000000000c0df000000000000000000000000000000000000000000000000000000000000bd0eb0000000000000000000000000000000000000000000000000000000000000000","l1BlockNumber":"0x11774cf","l1Timestamp":"0x65243d4e","l1TxOrigin":null,"nonce":"0xfec","queueIndex":null,"queueOrigin":"sequencer","r":"0x338639caefe91e5cda72727ae7c8e95d04ebf6a48e4b7a4765ec8b41e36201f6","rawTransaction":"0xf9016e820fec8402faf0808302148794319b69888b0d11cec22caa5034e25fffbdc8842180b90104414bf389000000000000000000000000201eba5cc46d216ce6dc03f6a759e8e766e956ae00000000000000000000000009bc4e0d864854c6afb6eb9a9cdf58ac190d0df90000000000000000000000000000000000000000000000000000000000000064000000000000000000000000be18234fe282d1796b96156ac2bc5d3490a612780000000000000000000000000000000000000000000000000000000065243d7000000000000000000000000000000000000000000000000000000000000c0df000000000000000000000000000000000000000000000000000000000000bd0eb0000000000000000000000000000000000000000000000000000000000000000822733a0338639caefe91e5cda72727ae7c8e95d04ebf6a48e4b7a4765ec8b41e36201f6a0596f39c7db481d071e8d6f6d36175785b5cb584330409d673e017a6228b77583","s":"0x596f39c7db481d071e8d6f6d36175785b5cb584330409d673e017a6228b77583","to":"0x319b69888b0d11cec22caa5034e25fffbdc88421","transactionIndex":"0x0","v":"0x2733","value":"0x0"}],"transactionsRoot":"0xd1edc70322158107da74bac9fd137621150246900d460cfcfeb019c88f54f123","uncles":[]},"receipts":{"0x6350c018a2b957a752e9154c1c1ec029a1b5c2b719b5c2147878be86b77f591f":{"blockHash":"0xcb3c2eb49d3b27451abe4edb27aab5772842984bb58892acabc20f2c861a5b2e","blockNumber":"0xd0011c","from":"0xbe18234fe282d1796b96156ac2bc5d3490a61278","gas":"0x21487","gasPrice":"0x2faf080","hash":"0x6350c018a2b957a752e9154c1c1ec029a1b5c2b719b5c2147878be86b77f591f","index":"0xd0011b","input":"0x414bf389000000000000000000000000201eba5cc46d216ce6dc03f6a759e8e766e956ae00000000000000000000000009bc4e0d864854c6afb6eb9a9cdf58ac190d0df90000000000000000000000000000000000000000000000000000000000000064000000000000000000000000be18234fe282d1796b96156ac2bc5d3490a612780000000000000000000000000000000000000000000000000000000065243d7000000000000000000000000000000000000000000000000000000000000c0df000000000000000000000000000000000000000000000000000000000000bd0eb0000000000000000000000000000000000000000000000000000000000000000","l1BlockNumber":"0x11774cf","l1Timestamp":"0x65243d4e","l1TxOrigin":null,"nonce":"0xfec","queueIndex":null,"queueOrigin":"sequencer","r":"0x338639caefe91e5cda72727ae7c8e95d04ebf6a48e4b7a4765ec8b41e36201f6","rawTransaction":"0xf9016e820fec8402faf0808302148794319b69888b0d11cec22caa5034e25fffbdc8842180b90104414bf389000000000000000000000000201eba5cc46d216ce6dc03f6a759e8e766e956ae00000000000000000000000009bc4e0d864854c6afb6eb9a9cdf58ac190d0df90000000000000000000000000000000000000000000000000000000000000064000000000000000000000000be18234fe282d1796b96156ac2bc5d3490a612780000000000000000000000000000000000000000000000000000000065243d7000000000000000000000000000000000000000000000000000000000000c0df000000000000000000000000000000000000000000000000000000000000bd0eb0000000000000000000000000000000000000000000000000000000000000000822733a0338639caefe91e5cda72727ae7c8e95d04ebf6a48e4b7a4765ec8b41e36201f6a0596f39c7db481d071e8d6f6d36175785b5cb584330409d673e017a6228b77583","s":"0x596f39c7db481d071e8d6f6d36175785b5cb584330409d673e017a6228b77583","to":"0x319b69888b0d11cec22caa5034e25fffbdc88421","transactionIndex":"0x0","v":"0x2733","value":"0x0","contractAddress":null,"cumulativeGasUsed":"0x1fc88","daFee":"0x0","daGasPrice":"0x0","daGasUsed":"0x12c","gasUsed":"0x1fc88","l1Fee":"0x1a09f6380cb9fe0","l1FeeScalar":"1","l1GasPrice":"0x39ff1464e55c","l1GasUsed":"0x72f","logs":[{"address":"0x09bc4e0d864854c6afb6eb9a9cdf58ac190d0df9","blockHash":"0xcb3c2eb49d3b27451abe4edb27aab5772842984bb58892acabc20f2c861a5b2e","blockNumber":"0xd0011c","data":"0x00000000000000000000000000000000000000000000000000000000000c0ea7","logIndex":"0x0","removed":false,"topics":["0xddf252ad1be2c89b69c2b068fc378daa952ba7f163c4a11628f55a4df523b3ef","0x0000000000000000000000006488f911c6cd86c289aa319c5a826dcf8f1ca065","0x000000000000000000000000be18234fe282d1796b96156ac2bc5d3490a61278"],"transactionHash":"0x6350c018a2b957a752e9154c1c1ec029a1b5c2b719b5c2147878be86b77f591f","transactionIndex":"0x0"},{"address":"0x201eba5cc46d216ce6dc03f6a759e8e766e956ae","blockHash":"0xcb3c2eb49d3b27451abe4edb27aab5772842984bb58892acabc20f2c861a5b2e","blockNumber":"0xd0011c","data":"0x00000000000000000000000000000000000000000000000000000000000c0df0","logIndex":"0x1","removed":false,"topics":["0xddf252ad1be2c89b69c2b068fc378daa952ba7f163c4a11628f55a4df523b3ef","0x000000000000000000000000be18234fe282d1796b96156ac2bc5d3490a61278","0x0000000000000000000000006488f911c6cd86c289aa319c5a826dcf8f1ca065"],"transactionHash":"0x6350c018a2b957a752e9154c1c1ec029a1b5c2b719b5c2147878be86b77f591f","transactionIndex":"0x0"},{"address":"0x201eba5cc46d216ce6dc03f6a759e8e766e956ae","blockHash":"0xcb3c2eb49d3b27451abe4edb27aab5772842984bb58892acabc20f2c861a5b2e","blockNumber":"0xd0011c","data":"0xffffffffffffffffffffffffffffffffffffffffffffffffffffffff91be71cf","logIndex":"0x2","removed":false,"topics":["0x8c5be1e5ebec7d5bd14f71427d1e84f3dd0314c0f7b2291e5b200ac8c7c3b925","0x000000000000000000000000be18234fe282d1796b96156ac2bc5d3490a61278","0x000000000000000000000000319b69888b0d11cec22caa5034e25fffbdc88421"],"transactionHash":"0x6350c018a2b957a752e9154c1c1ec029a1b5c2b719b5c2147878be86b77f591f","transactionIndex":"0x0"},{"address":"0x6488f911c6cd86c289aa319c5a826dcf8f1ca065","blockHash":"0xcb3c2eb49d3b27451abe4edb27aab5772842984bb58892acabc20f2c861a5b2e","blockNumber":"0xd0011c","data":"0xfffffffffffffffffffffffffffffffffffffffffffffffffffffffffff3f15900000000000000000000000000000000000000000000000000000000000c0df00000000000000000000000000000000000000000fff52098663108c5bb6e16260000000000000000000000000000000000000000000000000000aa91ae904e92fffffffffffffffffffffffffffffffffffffffffffffffffffffffffffffffc0000000000000000000000000000000000000000000000000000000000000000000000000000000000000000000000000000000000000000000000000000001a","logIndex":"0x3","removed":false,"topics":["0x19b47279256b2a23a1665c810c8d55a1758940ee09377d4f8d26497a3577dc83","0x000000000000000000000000319b69888b0d11cec22caa5034e25fffbdc88421","0x000000000000000000000000be18234fe282d1796b96156ac2bc5d3490a61278"],"transactionHash":"0x6350c018a2b957a752e9154c1c1ec029a1b5c2b719b5c2147878be86b77f591f","transactionIndex":"0x0"}],"logsBloom":"0x0000000000000000000000000000000000004000000100880000000000000000000000000000000000000000000200000000000000200000000000000020000004800000004404000000000800000000000000c000002000000000000000000000000000002000000000000000000000000000100400800000000010000000000000000000000000000000000000000000000000000000000000000000000000020000000000000000000000000000000000000001000000000000000000000000000002000000000000000000000000002000000000000000000000000000000010000000000000000000000000000000000000000010000000000000000000","status":"0x1","transactionHash":"0x6350c018a2b957a752e9154c1c1ec029a1b5c2b719b5c2147878be86b77f591f"}}}