{"block":{"difficulty":"0x2","extraData":"0xd98301090a846765746889676f312e31352e3133856c696e7578000000000000af2167013d7f46c1951d868452312efeb88fb2625ceb7eef00d709b57fb56c0b5663e8ecfa0761455c80ec7332a6654f584614820075411d6d0a125cfc06138f01","gasLimit":"0x1c9c380","gasUsed":"0x204dd","hash":"0x51b658a7d15595b2b696e03cc64b68f0c492b14ee53a4a55eb737e13b265faa6","logsBloom":"0x0000000000000000000000000000000000004000000100880000000000000000000080000000000000000000000200000000000000200000000000000000000004800020004400000000000800000000000000c000002000000000000000000000000000000000000000000000000000000000100000800000000010000000000000000000000000000000000000000000000000000000000000000000000000000000000000000000000000000000000000000001000000000000000000000000000002000000000000000000000000002000000000000000000000000000000000000000000000000000000200000000000000000010000000000000000000","miner":"0x0000000000000000000000000000000000000000","mixHash":"0x0000000000000000000000000000000000000000000000000000000000000000","nonce":"0x0000000000000000","number":"0xd00231","parentHash":"0xafbc3a00867eb52f8b146734d5b774cd6a6538abd892b25e44217a55636056ca","receiptsRoot":"0x84437621f2175136000bf09487b2f075f27bc74d7baf4f6096afcd3d767e09d4","sha3Uncles":"0x1dcc4de8dec75d7aab85b567b6ccd41ad312451b948a7413f0a142fd40d49347","size":"0x3d8","stateRoot":"0x55ed0ed4cb95937d9b007b8f08d30c5be62c34b5de82034bf95c001585c5ea0b","timestamp":"0x65243de8","totalDifficulty":"0x1a00463","transactions":[{"blockHash":"0x51b658a7d15595b2b696e03cc64b68f0c492b14ee53a4a55eb737e13b265faa6","blockNumber":"0xd00231","from":"0x4d626888df91e06decc35eb60bb2cea156782a68","gas":"0x21d08","gasPrice":"0x2faf080","hash":"0xb581f19879ab63d4a49e9a1f466a6bc8f380d2d74dc1cee6fc72b3fee38f4c64","index":"0xd00230","input":"0x414bf38900000000000000000000000009bc4e0d864854c6afb6eb9a9cdf58ac190d0df9000000000000000000000000201eba5cc46d216ce6dc03f6a759e8e766e956ae00000000000000000000000000000000000000000000000000000000000000640000000000000000000000004d626888df91e06decc35eb60bb2cea156782a680000000000000000000000000000000000000000000000000000000065243e060000000000000000000000000000000000000000000000000000000000120160000000000000000000000000000000000000000000000000000000000011a33c0000000000000000000000000000000000000000000000000000000000000000","l1BlockNumber":"0x11774dc","l1Timestamp":"0x65243de8","l1TxOrigin":null,"nonce":"0xe89","queueIndex":null,"queueOrigin":"sequencer","r":"0x1e871c2ca7d271f6ef02c1c2919e281fd72a695e2ff186d315321e2301724b93","rawTransaction":"0xf9016e820e898402faf08083021d0894319b69888b0d11cec22caa5034e25fffbdc8842180b90104414bf38900000000000000000000000009bc4e0d864854c6afb6eb9a9cdf58ac190d0df9000000000000000000000000201eba5cc46d216ce6dc03f6a759e8e766e956ae00000000000000000000000000000000000000000000000000000000000000640000000000000000000000004d626888df91e06decc35eb60bb2cea156782a680000000000000000000000000000000000000000000000000000000065243e060000000000000000000000000000000000000000000000000000000000120160000000000000000000000000000000000000000000000000000000000011a33c0000000000000000000000000000000000000000000000000000000000000000822733a01e871c2ca7d271f6ef02c1c2919e281fd72a695e2ff186d315321e2301724b93a07cde6550556bddb0661d6007dcbb4b88dbfd27f27a699da92af2181617620fc2","s":"0x7cde6550556bddb0661d6007dcbb4b88dbfd27f27a699da92af2181617620fc2","to":"0x319b69888b0d11cec22caa5034e25fffbdc88421","transactionIndex":"0x0","v":"0x2733","value":"0x0"}],"transactionsRoot":"0x346bf3341e46710b5a288d3b787866451a7fda73548a77d45e48139cb79649a3","uncles":[]},"receipts":{"0xb581f19879ab63d4a49e9a1f466a6bc8f380d2d74dc1cee6fc72b3fee38f4c64":{"blockHash":"0x51b658a7d15595b2b696e03cc64b68f0c492b14ee53a4a55eb737e13b265faa6","blockNumber":"0xd00231","from":"0x4d626888df91e06decc35eb60bb2cea156782a68","gas":"0x21d08","gasPrice":"0x2faf080","hash":"0xb581f19879ab63d4a49e9a1f466a6bc8f380d2d74dc1cee6fc72b3fee38f4c64","index":"0xd00230","input":"0x414bf38900000000000000000000000009bc4e0d864854c6afb6eb9a9cdf58ac190d0df9000000000000000000000000201eba5cc46d216ce6dc03f6a759e8e766e956ae00000000000000000000000000000000000000000000000000000000000000640000000000000000000000004d626888df91e06decc35eb60bb2cea156782a680000000000000000000000000000000000000000000000000000000065243e060000000000000000000000000000000000000000000000000000000000120160000000000000000000000000000000000000000000000000000000000011a33c0000000000000000000000000000000000000000000000000000000000000000","l1BlockNumber":"0x11774dc","l1Timestamp":"0x65243de8","l1TxOrigin":null,"nonce":"0xe89","queueIndex":null,"queueOrigin":"sequencer","r":"0x1e871c2ca7d271f6ef02c1c2919e281fd72a695e2ff186d315321e2301724b93","rawTransaction":"0xf9016e820e898402faf08083021d0894319b69888b0d11cec22caa5034e25fffbdc8842180b90104414bf38900000000000000000000000009bc4e0d864854c6afb6eb9a9cdf58ac190d0df9000000000000000000000000201eba5cc46d216ce6dc03f6a759e8e766e956ae00000000000000000000000000000000000000000000000000000000000000640000000000000000000000004d626888df91e06decc35eb60bb2cea156782a680000000000000000000000000000000000000000000000000000000065243e060000000000000000000000000000000000000000000000000000000000120160000000000000000000000000000000000000000000000000000000000011a33c0000000000000000000000000000000000000000000000000000000000000000822733a01e871c2ca7d271f6ef02c1c2919e281fd72a695e2ff186d315321e2301724b93a07cde6550556bddb0661d6007dcbb4b88dbfd27f27a699da92af2181617620fc2","s":"0x7cde6550556bddb0661d6007dcbb4b88dbfd27f27a699da92af2181617620fc2","to":"0x319b69888b0d11cec22caa5034e25fffbdc88421","transactionIndex":"0x0","v":"0x2733","value":"0x0","contractAddress":null,"cumulativeGasUsed":"0x204dd","daFee":"0x0","daGasPrice":"0x0","daGasUsed":"0x12c","gasUsed":"0x204dd","l1Fee":"0x19709d787180660","l1FeeScalar":"1","l1GasPrice":"0x38a987f04864","l1GasUsed":"0x72f","logs":[{"address":"0x201eba5cc46d216ce6dc03f6a759e8e766e956ae","blockHash":"0x51b658a7d15595b2b696e03cc64b68f0c492b14ee53a4a55eb737e13b265faa6","blockNumber":"0xd00231","data":"0x000000000000000000000000000000000000000000000000000000000011ff62","logIndex":"0x0","removed":false,"topics":["0xddf252ad1be2c89b69c2b068fc378daa952ba7f163c4a11628f55a4df523b3ef","0x0000000000000000000000006488f911c6cd86c289aa319c5a826dcf8f1ca065","0x0000000000000000000000004d626888df91e06decc35eb60bb2cea156782a68"],"transactionHash":"0xb581f19879ab63d4a49e9a1f466a6bc8f380d2d74dc1cee6fc72b3fee38f4c64","transactionIndex":"0x0"},{"address":"0x09bc4e0d864854c6afb6eb9a9cdf58ac190d0df9","blockHash":"0x51b658a7d15595b2b696e03cc64b68f0c492b14ee53a4a55eb737e13b265faa6","blockNumber":"0xd00231","data":"0x0000000000000000000000000000000000000000000000000000000000120160","logIndex":"0x1","removed":false,"topics":["0xddf252ad1be2c89b69c2b068fc378daa952ba7f163c4a11628f55a4df523b3ef","0x0000000000000000000000004d626888df91e06decc35eb60bb2cea156782a68","0x0000000000000000000000006488f911c6cd86c289aa319c5a826dcf8f1ca065"],"transactionHash":"0xb581f19879ab63d4a49e9a1f466a6bc8f380d2d74dc1cee6fc72b3fee38f4c64","transactionIndex":"0x0"},{"address":"0x6488f911c6cd86c289aa319c5a826dcf8f1ca065","blockHash":"0x51b658a7d15595b2b696e03cc64b68f0c492b14ee53a4a55eb737e13b265faa6","blockNumber":"0xd00231","data":"0x0000000000000000000000000000000000000000000000000000000000120160ffffffffffffffffffffffffffffffffffffffffffffffffffffffffffee009e0000000000000000000000000000000000000000fff521d06f95f7765fc4af4a0000000000000000000000000000000000000000000000000000aa91ae904e92fffffffffffffffffffffffffffffffffffffffffffffffffffffffffffffffc00000000000000000000000000000000000000000000000000000000000000260000000000000000000000000000000000000000000000000000000000000000","logIndex":"0x2","removed":false,"topics":["0x19b47279256b2a23a1665c810c8d55a1758940ee09377d4f8d26497a3577dc83","0x000000000000000000000000319b69888b0d11cec22caa5034e25fffbdc88421","0x0000000000000000000000004d626888df91e06decc35eb60bb2cea156782a68"],"transactionHash":"0xb581f19879ab63d4a49e9a1f466a6bc8f380d2d74dc1cee6fc72b3fee38f4c64","transactionIndex":"0x0"}],"logsBloom":"0x0000000000000000000000000000000000004000000100880000000000000000000080000000000000000000000200000000000000200000000000000000000004800020004400000000000800000000000000c000002000000000000000000000000000000000000000000000000000000000100000800000000010000000000000000000000000000000000000000000000000000000000000000000000000000000000000000000000000000000000000000001000000000000000000000000000002000000000000000000000000002000000000000000000000000000000000000000000000000000000200000000000000000010000000000000000000","status":"0x1","transactionHash":"0xb581f19879ab63d4a49e9a1f466a6bc8f380d2d74dc1cee6fc72b3fee38f4c64"}}}