{"block":{"difficulty":"0x2","extraData":"0xd98301090a846765746889676f312e31352e3133856c696e757800000000000023abec851a8ad762c461dab3b4e442543b49186002e19bdb3f387684926619fd53249b87c970dc222667ad99139beedcc7edc50539a68063a7061565eb7df96d01","gasLimit":"0x1c9c380","gasUsed":"0x1e3a1","hash":"0x63654fed783fe6a82394a6faecb15fbeee7ab2b3cc7db4a55619875822d974dd","logsBloom":"0x00000000000000000000000000000000000000000000000000000000000000000000000000000000000000000000000000000000000000000000000000000000000000000000000000000000000000000000000000000000000000000000000000000000000000000000000000000000000000000000000000000000000000000000000000000000000000000000000000000000000000000000000000000000000000000000000000000000000000000000000000000000000000000000000000000000000000000000000000000000000000000000000000000000000000000000000000000000000000000000000000000000000000000000000000000000","miner":"0x0000000000000000000000000000000000000000","mixHash":"0x0000000000000000000000000000000000000000000000000000000000000000","nonce":"0x0000000000000000","number":"0xd00396","parentHash":"0x5f1fdc74cdd998fac6043ab2d5cbc8237d34e9520a8529d3e616526515c0e82b","receiptsRoot":"0x96582dbc67a6edbfdf8547b095bb51c6dc0f562446a8b402fa771edc1b678497","sha3Uncles":"0x1dcc4de8dec75d7aab85b567b6ccd41ad312451b948a7413f0a142fd40d49347","size":"0x3d8","stateRoot":"0xe9ecb6146755b2dadc8eee1a55e074a63c73c3a168e4f60e55a2fa14db799995","timestamp":"0x65243e94","totalDifficulty":"0x1a0072d","transactions":[{"blockHash":"0x63654fed783fe6a82394a6faecb15fbeee7ab2b3cc7db4a55619875822d974dd","blockNumber":"0xd00396","from":"0x09454561683bc3dcfb99853aaa46f9388d8b4fd8","gas":"0x1e946","gasPrice":"0x2faf080","hash":"0x3b7eaa11e53e06c324dc6ffca80097574c4c90e2c4e336d24e35156e82a2296e","index":"0xd00395","input":"0x414bf389000000000000000000000000deaddeaddeaddeaddeaddeaddeaddeaddead1111000000000000000000000000201eba5cc46d216ce6dc03f6a759e8e766e956ae00000000000000000000000000000000000000000000000000000000000001f400000000000000000000000009454561683bc3dcfb99853aaa46f9388d8b4fd80000000000000000000000000000000000000000000000000000000065243eb20000000000000000000000000000000000000000000000000002140ded31900000000000000000000000000000000000000000000000000000000000000dec510000000000000000000000000000000000000000000000000000000000000000","l1BlockNumber":"0x11774ea","l1Timestamp":"0x65243e94","l1TxOrigin":null,"nonce":"0xcc5","queueIndex":null,"queueOrigin":"sequencer","r":"0x3541a011d872a20a5e9875d8e1a02189365f8878ec1bfe0f9198d984a6c513fa","rawTransaction":"0xf9016e820cc58402faf0808301e94694319b69888b0d11cec22caa5034e25fffbdc8842180b90104414bf389000000000000000000000000deaddeaddeaddeaddeaddeaddeaddeaddead1111000000000000000000000000201eba5cc46d216ce6dc03f6a759e8e766e956ae00000000000000000000000000000000000000000000000000000000000001f400000000000000000000000009454561683bc3dcfb99853aaa46f9388d8b4fd80000000000000000000000000000000000000000000000000000000065243eb20000000000000000000000000000000000000000000000000002140ded31900000000000000000000000000000000000000000000000000000000000000dec510000000000000000000000000000000000000000000000000000000000000000822734a03541a011d872a20a5e9875d8e1a02189365f8878ec1bfe0f9198d984a6c513faa02cb0d304ff4a86ddf9b5626b8f2d9aee4372e2ded75441099c07f88bf2429e98","s":"0x2cb0d304ff4a86ddf9b5626b8f2d9aee4372e2ded75441099c07f88bf2429e98","to":"0x319b69888b0d11cec22caa5034e25fffbdc88421","transactionIndex":"0x0","v":"0x2734","value":"0x0"}],"transactionsRoot":"0x23769ac2ca511b124a9abd51b867390e649d360bf82b7a8ff102aacb3dab47b6","uncles":[]},"receipts":{"0x3b7eaa11e53e06c324dc6ffca80097574c4c90e2c4e336d24e35156e82a2296e":{"blockHash":"0x63654fed783fe6a82394a6faecb15fbeee7ab2b3cc7db4a55619875822d974dd","blockNumber":"0xd00396","from":"0x09454561683bc3dcfb99853aaa46f9388d8b4fd8","gas":"0x1e946","gasPrice":"0x2faf080","hash":"0x3b7eaa11e53e06c324dc6ffca80097574c4c90e2c4e336d24e35156e82a2296e","index":"0xd00395","input":"0x414bf389000000000000000000000000deaddeaddeaddeaddeaddeaddeaddeaddead1111000000000000000000000000201eba5cc46d216ce6dc03f6a759e8e766e956ae00000000000000000000000000000000000000000000000000000000000001f400000000000000000000000009454561683bc3dcfb99853aaa46f9388d8b4fd80000000000000000000000000000000000000000000000000000000065243eb20000000000000000000000000000000000000000000000000002140ded31900000000000000000000000000000000000000000000000000000000000000dec510000000000000000000000000000000000000000000000000000000000000000","l1BlockNumber":"0x11774ea","l1Timestamp":"0x65243e94","l1TxOrigin":null,"nonce":"0xcc5","queueIndex":null,"queueOrigin":"sequencer","r":"0x3541a011d872a20a5e9875d8e1a02189365f8878ec1bfe0f9198d984a6c513fa","rawTransaction":"0xf9016e820cc58402faf0808301e94694319b69888b0d11cec22caa5034e25fffbdc8842180b90104414bf389000000000000000000000000deaddeaddeaddeaddeaddeaddeaddeaddead1111000000000000000000000000201eba5cc46d216ce6dc03f6a759e8e766e956ae00000000000000000000000000000000000000000000000000000000000001f400000000000000000000000009454561683bc3dcfb99853aaa46f9388d8b4fd80000000000000000000000000000000000000000000000000000000065243eb20000000000000000000000000000000000000000000000000002140ded31900000000000000000000000000000000000000000000000000000000000000dec510000000000000000000000000000000000000000000000000000000000000000822734a03541a011d872a20a5e9875d8e1a02189365f8878ec1bfe0f9198d984a6c513faa02cb0d304ff4a86ddf9b5626b8f2d9aee4372e2ded75441099c07f88bf2429e98","s":"0x2cb0d304ff4a86ddf9b5626b8f2d9aee4372e2ded75441099c07f88bf2429e98","to":"0x319b69888b0d11cec22caa5034e25fffbdc88421","transactionIndex":"0x0","v":"0x2734","value":"0x0","contractAddress":null,"cumulativeGasUsed":"0x1e3a1","daFee":"0x0","daGasPrice":"0x0","daGasUsed":"0x12c","gasUsed":"0x1e3a1","l1Fee":"0x19709d787180660","l1FeeScalar":"1","l1GasPrice":"0x38a987f04864","l1GasUsed":"0x72f","logs":[],"logsBloom":"0x00000000000000000000000000000000000000000000000000000000000000000000000000000000000000000000000000000000000000000000000000000000000000000000000000000000000000000000000000000000000000000000000000000000000000000000000000000000000000000000000000000000000000000000000000000000000000000000000000000000000000000000000000000000000000000000000000000000000000000000000000000000000000000000000000000000000000000000000000000000000000000000000000000000000000000000000000000000000000000000000000000000000000000000000000000000","status":"0x0","transactionHash":"0x3b7eaa11e53e06c324dc6ffca80097574c4c90e2c4e336d24e35156e82a2296e"}}}