{"block":{"difficulty":"0x2","extraData":"0xd98301090a846765746889676f312e31352e3133856c696e757800000000000061dce7c7ed69d5bac62ec0cae44ef46166e5368541045a80ebb6971cbf5399e13044cc9110a2d00641022a0e0ec47c994ef852cc7ee473e56ebd0e5ed880654e00","gasLimit":"0x1c9c380","gasUsed":"0x2d08d","hash":"0xae5aa0b9b949eda2d98b7a97d3c634a8c556648ea9164a8fc1286cc5e3a7b82e","logsBloom":"0x00000000000000000100000000000000000000001000000004000008000000000000000000000000000000000000000000000000000000000000000000042000000000000000000000000000800000000010000000040000040000000000000020000000028000000000000000000800000000000000000001000000000000000080000000000000000000000000000000000000000000000000000000000100000000000000000000000000000000000000000000400000800000000000000000000000000000000000000000000100000000000008000000000000000060000000000000000000000000000000000000000000000000000000080000000000","miner":"0x0000000000000000000000000000000000000000","mixHash":"0x0000000000000000000000000000000000000000000000000000000000000000","nonce":"0x0000000000000000","number":"0xd001bd","parentHash":"0x4f72f1fdae6c0ef15c3c5b0281f4db5e0fed98beac056076493150f8fe5874a7","receiptsRoot":"0x1100151fc7bd656e023a075e7550874724e9c1ebee6908f03ccf9e9c11c0f156","sha3Uncles":"0x1dcc4de8dec75d7aab85b567b6ccd41ad312451b948a7413f0a142fd40d49347","size":"0x49e","stateRoot":"0xc88f419c9164b9e8ab4b90971e16da8f16e683f8ad1865359c1faa2004ef001d","timestamp":"0x65243da5","totalDifficulty":"0x1a0037b","transactions":[{"blockHash":"0xae5aa0b9b949eda2d98b7a97d3c634a8c556648ea9164a8fc1286cc5e3a7b82e","blockNumber":"0xd001bd","from":"0x093b76d1f00c6a3f07381fb59da31dcd12206df4","gas":"0x2e160","gasPrice":"0x2faf080","hash":"0xf01c4b588ad1e4254730fe6b33abf8b568a24a469d6e527ea74463e0029e07a6","index":"0xd001bc","input":"0x986d8002000000000000000000000000093b76d1f00c6a3f07381fb59da31dcd12206df40000000000000000000000000000000000000000000000000000000000000001000000000000000000000000000000000000000000000000000000000000000000000000000000000000000000000000000000000000000000000000000000c000000000000000000000000000000000000000000000000000000000000000e000000000000000000000000000000000000000000000000000000000000001400000000000000000000000000000000000000000000000000000000000000000000000000000000000000000000000000000000000000000000000000000002465336664663039392d326432302d346139302d623534632d6435656238333936623635390000000000000000000000000000000000000000000000000000000000000000000000000000000000000000000000000000000000000000000000415260326abc5f15d12ac19cb2911e8dc5d86afed1aeb82b5dad51230ac04e74b34158df3ee85e36dd92c66e1c40a97f72c02ab1b2b7891e035d5b0102a3b626f71b00000000000000000000000000000000000000000000000000000000000000","l1BlockNumber":"0x11774d6","l1Timestamp":"0x65243da5","l1TxOrigin":null,"nonce":"0x0","queueIndex":null,"queueOrigin":"sequencer","r":"0x4392591bf8992bd5753ca20a2c782ec02d484d44b2ea9db608efbe30ca4a213","rawTransaction":"0xf90234808402faf0808302e160947c78b18f496d3d37c44de09da4a5a76eb34b7e748802c68af0bb140000b901c4986d8002000000000000000000000000093b76d1f00c6a3f07381fb59da31dcd12206df40000000000000000000000000000000000000000000000000000000000000001000000000000000000000000000000000000000000000000000000000000000000000000000000000000000000000000000000000000000000000000000000c000000000000000000000000000000000000000000000000000000000000000e000000000000000000000000000000000000000000000000000000000000001400000000000000000000000000000000000000000000000000000000000000000000000000000000000000000000000000000000000000000000000000000002465336664663039392d326432302d346139302d623534632d6435656238333936623635390000000000000000000000000000000000000000000000000000000000000000000000000000000000000000000000000000000000000000000000415260326abc5f15d12ac19cb2911e8dc5d86afed1aeb82b5dad51230ac04e74b34158df3ee85e36dd92c66e1c40a97f72c02ab1b2b7891e035d5b0102a3b626f71b00000000000000000000000000000000000000000000000000000000000000822733a004392591bf8992bd5753ca20a2c782ec02d484d44b2ea9db608efbe30ca4a213a03156571acd8b35f3071b375bd6f96c9ac1f22a9b62735c94f397c5060ddc1948","s":"0x3156571acd8b35f3071b375bd6f96c9ac1f22a9b62735c94f397c5060ddc1948","to":"0x7c78b18f496d3d37c44de09da4a5a76eb34b7e74","transactionIndex":"0x0","v":"0x2733","value":"0x2c68af0bb140000"}],"transactionsRoot":"0x64256e920e00927532145186df14cdd00ab68129a0f63680d27ddcb24b09a83a","uncles":[]},"receipts":{"0xf01c4b588ad1e4254730fe6b33abf8b568a24a469d6e527ea74463e0029e07a6":{"blockHash":"0xae5aa0b9b949eda2d98b7a97d3c634a8c556648ea9164a8fc1286cc5e3a7b82e","blockNumber":"0xd001bd","from":"0x093b76d1f00c6a3f07381fb59da31dcd12206df4","gas":"0x2e160","gasPrice":"0x2faf080","hash":"0xf01c4b588ad1e4254730fe6b33abf8b568a24a469d6e527ea74463e0029e07a6","index":"0xd001bc","input":"0x986d8002000000000000000000000000093b76d1f00c6a3f07381fb59da31dcd12206df40000000000000000000000000000000000000000000000000000000000000001000000000000000000000000000000000000000000000000000000000000000000000000000000000000000000000000000000000000000000000000000000c000000000000000000000000000000000000000000000000000000000000000e000000000000000000000000000000000000000000000000000000000000001400000000000000000000000000000000000000000000000000000000000000000000000000000000000000000000000000000000000000000000000000000002465336664663039392d326432302d346139302d623534632d6435656238333936623635390000000000000000000000000000000000000000000000000000000000000000000000000000000000000000000000000000000000000000000000415260326abc5f15d12ac19cb2911e8dc5d86afed1aeb82b5dad51230ac04e74b34158df3ee85e36dd92c66e1c40a97f72c02ab1b2b7891e035d5b0102a3b626f71b00000000000000000000000000000000000000000000000000000000000000","l1BlockNumber":"0x11774d6","l1Timestamp":"0x65243da5","l1TxOrigin":null,"nonce":"0x0","queueIndex":null,"queueOrigin":"sequencer","r":"0x4392591bf8992bd5753ca20a2c782ec02d484d44b2ea9db608efbe30ca4a213","rawTransaction":"0xf90234808402faf0808302e160947c78b18f496d3d37c44de09da4a5a76eb34b7e748802c68af0bb140000b901c4986d8002000000000000000000000000093b76d1f00c6a3f07381fb59da31dcd12206df40000000000000000000000000000000000000000000000000000000000000001000000000000000000000000000000000000000000000000000000000000000000000000000000000000000000000000000000000000000000000000000000c000000000000000000000000000000000000000000000000000000000000000e000000000000000000000000000000000000000000000000000000000000001400000000000000000000000000000000000000000000000000000000000000000000000000000000000000000000000000000000000000000000000000000002465336664663039392d326432302d346139302d623534632d6435656238333936623635390000000000000000000000000000000000000000000000000000000000000000000000000000000000000000000000000000000000000000000000415260326abc5f15d12ac19cb2911e8dc5d86afed1aeb82b5dad51230ac04e74b34158df3ee85e36dd92c66e1c40a97f72c02ab1b2b7891e035d5b0102a3b626f71b00000000000000000000000000000000000000000000000000000000000000822733a004392591bf8992bd5753ca20a2c782ec02d484d44b2ea9db608efbe30ca4a213a03156571acd8b35f3071b375bd6f96c9ac1f22a9b62735c94f397c5060ddc1948","s":"0x3156571acd8b35f3071b375bd6f96c9ac1f22a9b62735c94f397c5060ddc1948","to":"0x7c78b18f496d3d37c44de09da4a5a76eb34b7e74","transactionIndex":"0x0","v":"0x2733","value":"0x2c68af0bb140000","contractAddress":null,"cumulativeGasUsed":"0x2d08d","daFee":"0x0","daGasPrice":"0x0","daGasUsed":"0x1f2","gasUsed":"0x2d08d","l1Fee":"0x19709d787180660","l1FeeScalar":"1","l1GasPrice":"0x38a987f04864","l1GasUsed":"0x72f","logs":[{"address":"0x47cadd4d96bb9576801daea369e6e2e56fee0d19","blockHash":"0xae5aa0b9b949eda2d98b7a97d3c634a8c556648ea9164a8fc1286cc5e3a7b82e","blockNumber":"0xd001bd","data":"0x00000000000000000000000000000000000000000000000000000000000000010000000000000000000000000000000000000000000000000000000000000001","logIndex":"0x0","removed":false,"topics":["0xc3d58168c5ae7397731d063d5bbf3d657854427343f4c083240f7aacaa2d0f62","0x0000000000000000000000007c78b18f496d3d37c44de09da4a5a76eb34b7e74","0x0000000000000000000000000000000000000000000000000000000000000000","0x000000000000000000000000093b76d1f00c6a3f07381fb59da31dcd12206df4"],"transactionHash":"0xf01c4b588ad1e4254730fe6b33abf8b568a24a469d6e527ea74463e0029e07a6","transactionIndex":"0x0"},{"address":"0x47cadd4d96bb9576801daea369e6e2e56fee0d19","blockHash":"0xae5aa0b9b949eda2d98b7a97d3c634a8c556648ea9164a8fc1286cc5e3a7b82e","blockNumber":"0xd001bd","data":"0x","logIndex":"0x1","removed":false,"topics":["0xe9274a84b19e9428826de6bae8c48329354f8f0e73f771b97cae2d9dccd45a27","0x000000000000000000000000093b76d1f00c6a3f07381fb59da31dcd12206df4","0x0000000000000000000000000000000000000000000000000000000000000001"],"transactionHash":"0xf01c4b588ad1e4254730fe6b33abf8b568a24a469d6e527ea74463e0029e07a6","transactionIndex":"0x0"},{"address":"0x47cadd4d96bb9576801daea369e6e2e56fee0d19","blockHash":"0xae5aa0b9b949eda2d98b7a97d3c634a8c556648ea9164a8fc1286cc5e3a7b82e","blockNumber":"0xd001bd","data":"0x000000000000000000000000000000000000000000000000000000000000002000000000000000000000000000000000000000000000000000000000000000c000000000000000000000000000000000000000000000000000000000000000e00000000000000000000000007c78b18f496d3d37c44de09da4a5a76eb34b7e740000000000000000000000000000000000000000000000000000000065243da5000000000000000000000000000000000000000000000000000000000000000000000000000000000000000000000000000000000000000000000000000000000000000000000000000000000000000000000000000000000000000000000000000000000000000000000000000000000000000000000000000000000000002465336664663039392d326432302d346139302d623534632d64356562383339366236353900000000000000000000000000000000000000000000000000000000","logIndex":"0x2","removed":false,"topics":["0x11476367c7a4c3dca965f71aed27a373321f502ce956baa94266644456f735c8","0x000000000000000000000000093b76d1f00c6a3f07381fb59da31dcd12206df4","0x0000000000000000000000000000000000000000000000000000000000000001"],"transactionHash":"0xf01c4b588ad1e4254730fe6b33abf8b568a24a469d6e527ea74463e0029e07a6","transactionIndex":"0x0"}],"logsBloom":"0x00000000000000000100000000000000000000001000000004000008000000000000000000000000000000000000000000000000000000000000000000042000000000000000000000000000800000000010000000040000040000000000000020000000028000000000000000000800000000000000000001000000000000000080000000000000000000000000000000000000000000000000000000000100000000000000000000000000000000000000000000400000800000000000000000000000000000000000000000000100000000000008000000000000000060000000000000000000000000000000000000000000000000000000080000000000","status":"0x1","transactionHash":"0xf01c4b588ad1e4254730fe6b33abf8b568a24a469d6e527ea74463e0029e07a6"}}}