{"block":{"difficulty":"0x2","extraData":"0xd98301090a846765746889676f312e31352e3133856c696e757800000000000066f2018e228f666ef2b679d3c6a4685f06a7024a024746e4ce75856ea3d9778338e610532129244d8b7e5536acefbf5db1b1b5df0c732524141c2b9c4d3f540f01","gasLimit":"0x1c9c380","gasUsed":"0x1e1e5","hash":"0x045c001ec02ef90620c8b63bc0c27d3fbd7e7fe633379240ac7968c342092a3f","logsBloom":"0x00000000000000000000000000000000000000000001008800000000000000000004000000000000000000000002000000000000000000000000000000200000140000000044000000000008020000000000008000042000000200000000000000000000000000000000000000000080000000000000000000000010000000000000000000000000000000000002000000100000000000000000000000000040020000000000000000000000000200000000000001000000000000000000000000000002000000000000000000000000000000000000000000000010000000000010000000000000000000000000000000000000000000000000000000000000","miner":"0x0000000000000000000000000000000000000000","mixHash":"0x0000000000000000000000000000000000000000000000000000000000000000","nonce":"0x0000000000000000","number":"0xd0015e","parentHash":"0x8d28925e293d01faf46c4ef581a6996a5822867de57f142b638ce147ef7dd3bf","receiptsRoot":"0xf872e3a8c4a1dea7dfe66b3c5d335b3c1c60d1ddcc9af77e54c14249111f163b","sha3Uncles":"0x1dcc4de8dec75d7aab85b567b6ccd41ad312451b948a7413f0a142fd40d49347","size":"0x3d8","stateRoot":"0xc1e6b0ff7b5e4df657f89451d5a7ed7ae63ded6dcd06089b1307a36f56c5598b","timestamp":"0x65243d72","totalDifficulty":"0x1a002bd","transactions":[{"blockHash":"0x045c001ec02ef90620c8b63bc0c27d3fbd7e7fe633379240ac7968c342092a3f","blockNumber":"0xd0015e","from":"0x67c5970e85b41c86363e0d163c1c4030d917e1c4","gas":"0x1f977","gasPrice":"0x2faf080","hash":"0x1e62d5408e59bf672708eb4c6986c10b72a9fd423cc1d8b3b1bda2f52fcfb9bb","index":"0xd0015d","input":"0x414bf38900000000000000000000000078c1b0c915c4faa5fffa6cabf0219da63d7f4cb8000000000000000000000000201eba5cc46d216ce6dc03f6a759e8e766e956ae00000000000000000000000000000000000000000000000000000000000001f400000000000000000000000067c5970e85b41c86363e0d163c1c4030d917e1c40000000000000000000000000000000000000000000000000000000065243d920000000000000000000000000000000000000000000000002079599a266a000000000000000000000000000000000000000000000000000000000000000d13f40000000000000000000000000000000000000000000000000000000000000000","l1BlockNumber":"0x11774d2","l1Timestamp":"0x65243d72","l1TxOrigin":null,"nonce":"0x90e","queueIndex":null,"queueOrigin":"sequencer","r":"0x7d35d08c5a0889923568429502a542b0f4b883fd3761c754738c8540bc70c58d","rawTransaction":"0xf9016e82090e8402faf0808301f97794319b69888b0d11cec22caa5034e25fffbdc8842180b90104414bf38900000000000000000000000078c1b0c915c4faa5fffa6cabf0219da63d7f4cb8000000000000000000000000201eba5cc46d216ce6dc03f6a759e8e766e956ae00000000000000000000000000000000000000000000000000000000000001f400000000000000000000000067c5970e85b41c86363e0d163c1c4030d917e1c40000000000000000000000000000000000000000000000000000000065243d920000000000000000000000000000000000000000000000002079599a266a000000000000000000000000000000000000000000000000000000000000000d13f40000000000000000000000000000000000000000000000000000000000000000822734a07d35d08c5a0889923568429502a542b0f4b883fd3761c754738c8540bc70c58da02d3beaf802e3b92c053d8fe8b19a7d75917aefe671bf86c954c3c85be683d656","s":"0x2d3beaf802e3b92c053d8fe8b19a7d75917aefe671bf86c954c3c85be683d656","to":"0x319b69888b0d11cec22caa5034e25fffbdc88421","transactionIndex":"0x0","v":"0x2734","value":"0x0"}],"transactionsRoot":"0x537cb0129c44310224dc35719c738d2bf3161e614f25c4fc620fb6473e81519f","uncles":[]},"receipts":{"0x1e62d5408e59bf672708eb4c6986c10b72a9fd423cc1d8b3b1bda2f52fcfb9bb":{"blockHash":"0x045c001ec02ef90620c8b63bc0c27d3fbd7e7fe633379240ac7968c342092a3f","blockNumber":"0xd0015e","from":"0x67c5970e85b41c86363e0d163c1c4030d917e1c4","gas":"0x1f977","gasPrice":"0x2faf080","hash":"0x1e62d5408e59bf672708eb4c6986c10b72a9fd423cc1d8b3b1bda2f52fcfb9bb","index":"0xd0015d","input":"0x414bf38900000000000000000000000078c1b0c915c4faa5fffa6cabf0219da63d7f4cb8000000000000000000000000201eba5cc46d216ce6dc03f6a759e8e766e956ae00000000000000000000000000000000000000000000000000000000000001f400000000000000000000000067c5970e85b41c86363e0d163c1c4030d917e1c40000000000000000000000000000000000000000000000000000000065243d920000000000000000000000000000000000000000000000002079599a266a000000000000000000000000000000000000000000000000000000000000000d13f40000000000000000000000000000000000000000000000000000000000000000","l1BlockNumber":"0x11774d2","l1Timestamp":"0x65243d72","l1TxOrigin":null,"nonce":"0x90e","queueIndex":null,"queueOrigin":"sequencer","r":"0x7d35d08c5a0889923568429502a542b0f4b883fd3761c754738c8540bc70c58d","rawTransaction":"0xf9016e82090e8402faf0808301f97794319b69888b0d11cec22caa5034e25fffbdc8842180b90104414bf38900000000000000000000000078c1b0c915c4faa5fffa6cabf0219da63d7f4cb8000000000000000000000000201eba5cc46d216ce6dc03f6a759e8e766e956ae00000000000000000000000000000000000000000000000000000000000001f400000000000000000000000067c5970e85b41c86363e0d163c1c4030d917e1c40000000000000000000000000000000000000000000000000000000065243d920000000000000000000000000000000000000000000000002079599a266a000000000000000000000000000000000000000000000000000000000000000d13f40000000000000000000000000000000000000000000000000000000000000000822734a07d35d08c5a0889923568429502a542b0f4b883fd3761c754738c8540bc70c58da02d3beaf802e3b92c053d8fe8b19a7d75917aefe671bf86c954c3c85be683d656","s":"0x2d3beaf802e3b92c053d8fe8b19a7d75917aefe671bf86c954c3c85be683d656","to":"0x319b69888b0d11cec22caa5034e25fffbdc88421","transactionIndex":"0x0","v":"0x2734","value":"0x0","contractAddress":null,"cumulativeGasUsed":"0x1e1e5","daFee":"0x0","daGasPrice":"0x0","daGasUsed":"0x12c","gasUsed":"0x1e1e5","l1Fee":"0x1a09f6380cb9fe0","l1FeeScalar":"1","l1GasPrice":"0x39ff1464e55c","l1GasUsed":"0x72f","logs":[{"address":"0x201eba5cc46d216ce6dc03f6a759e8e766e956ae","blockHash":"0x045c001ec02ef90620c8b63bc0c27d3fbd7e7fe633379240ac7968c342092a3f","blockNumber":"0xd0015e","data":"0x00000000000000000000000000000000000000000000000000000000000d5848","logIndex":"0x0","removed":false,"topics":["0xddf252ad1be2c89b69c2b068fc378daa952ba7f163c4a11628f55a4df523b3ef","0x000000000000000000000000d08c50f7e69e9aeb2867deff4a8053d9a855e26a","0x00000000000000000000000067c5970e85b41c86363e0d163c1c4030d917e1c4"],"transactionHash":"0x1e62d5408e59bf672708eb4c6986c10b72a9fd423cc1d8b3b1bda2f52fcfb9bb","transactionIndex":"0x0"},{"address":"0x78c1b0c915c4faa5fffa6cabf0219da63d7f4cb8","blockHash":"0x045c001ec02ef90620c8b63bc0c27d3fbd7e7fe633379240ac7968c342092a3f","blockNumber":"0xd0015e","data":"0x0000000000000000000000000000000000000000000000002079599a266a0000","logIndex":"0x1","removed":false,"topics":["0xddf252ad1be2c89b69c2b068fc378daa952ba7f163c4a11628f55a4df523b3ef","0x00000000000000000000000067c5970e85b41c86363e0d163c1c4030d917e1c4","0x000000000000000000000000d08c50f7e69e9aeb2867deff4a8053d9a855e26a"],"transactionHash":"0x1e62d5408e59bf672708eb4c6986c10b72a9fd423cc1d8b3b1bda2f52fcfb9bb","transactionIndex":"0x0"},{"address":"0x78c1b0c915c4faa5fffa6cabf0219da63d7f4cb8","blockHash":"0x045c001ec02ef90620c8b63bc0c27d3fbd7e7fe633379240ac7968c342092a3f","blockNumber":"0xd0015e","data":"0xffffffffffffffffffffffffffffffffffffffffffffffd77677c3e88265ffff","logIndex":"0x2","removed":false,"topics":["0x8c5be1e5ebec7d5bd14f71427d1e84f3dd0314c0f7b2291e5b200ac8c7c3b925","0x00000000000000000000000067c5970e85b41c86363e0d163c1c4030d917e1c4","0x000000000000000000000000319b69888b0d11cec22caa5034e25fffbdc88421"],"transactionHash":"0x1e62d5408e59bf672708eb4c6986c10b72a9fd423cc1d8b3b1bda2f52fcfb9bb","transactionIndex":"0x0"},{"address":"0xd08c50f7e69e9aeb2867deff4a8053d9a855e26a","blockHash":"0x045c001ec02ef90620c8b63bc0c27d3fbd7e7fe633379240ac7968c342092a3f","blockNumber":"0xd0015e","data":"0xfffffffffffffffffffffffffffffffffffffffffffffffffffffffffff2a7b80000000000000000000000000000000000000000000000002079599a266a0000000000000000000000000000000000000018f41e9267f45564ebb0424b74e6ad000000000000000000000000000000000000000000000000006787d5d3ab8a8c0000000000000000000000000000000000000000000000000000000000045dd10000000000000000000000000000000000000000000000000000000000000000000000000000000000000000000000000000000000000000000169cc07b11000","logIndex":"0x3","removed":false,"topics":["0x19b47279256b2a23a1665c810c8d55a1758940ee09377d4f8d26497a3577dc83","0x000000000000000000000000319b69888b0d11cec22caa5034e25fffbdc88421","0x00000000000000000000000067c5970e85b41c86363e0d163c1c4030d917e1c4"],"transactionHash":"0x1e62d5408e59bf672708eb4c6986c10b72a9fd423cc1d8b3b1bda2f52fcfb9bb","transactionIndex":"0x0"}],"logsBloom":"0x00000000000000000000000000000000000000000001008800000000000000000004000000000000000000000002000000000000000000000000000000200000140000000044000000000008020000000000008000042000000200000000000000000000000000000000000000000080000000000000000000000010000000000000000000000000000000000002000000100000000000000000000000000040020000000000000000000000000200000000000001000000000000000000000000000002000000000000000000000000000000000000000000000010000000000010000000000000000000000000000000000000000000000000000000000000","status":"0x1","transactionHash":"0x1e62d5408e59bf672708eb4c6986c10b72a9fd423cc1d8b3b1bda2f52fcfb9bb"}}}