{"block":{"difficulty":"0x2","extraData":"0xd98301090a846765746889676f312e31352e3133856c696e75780000000000001b057ab431facd85101c3254acbd28be59a7a1bc84ddfc53d6fbf9eb618681ba5a2b2714a9a26e7f1172eba95d2e20ed7cf6003d026da838efb7076d91cd97b201","gasLimit":"0x1c9c380","gasUsed":"0x5208","hash":"0x0ed3993a7948c0d7aa0d6d2325546333e27e28249bc005c96ca208408cf1fe0d","logsBloom":"0x00000000000000000000000000000000000000000000000000000000000000000000000000000000000000000000000000000000000000000000000000000000000000000000000000000000000000000000000000000000000000000000000000000000000000000000000000000000000000000000000000000000000000000000000000000000000000000000000000000000000000000000000000000000000000000000000000000000000000000000000000000000000000000000000000000000000000000000000000000000000000000000000000000000000000000000000000000000000000000000000000000000000000000000000000000000","miner":"0x0000000000000000000000000000000000000000","mixHash":"0x0000000000000000000000000000000000000000000000000000000000000000","nonce":"0x0000000000000000","number":"0xd00282","parentHash":"0x74b0a7e060232810410c3f503fab116d928504d40964c84ba5181afce3067bf1","receiptsRoot":"0x056b23fbba480696b65fe5a59b8f2148a1299103c4f57df839233af2cf4ca2d2","sha3Uncles":"0x1dcc4de8dec75d7aab85b567b6ccd41ad312451b948a7413f0a142fd40d49347","size":"0x2cd","stateRoot":"0xd9667efd9af8a09b794608348970019a77d527759521d67587364751c278f104","timestamp":"0x65243e16","totalDifficulty":"0x1a00505","transactions":[{"blockHash":"0x0ed3993a7948c0d7aa0d6d2325546333e27e28249bc005c96ca208408cf1fe0d","blockNumber":"0xd00282","from":"0xb52e9bccd899d3c5ef91256aff62ccc163109667","gas":"0x5208","gasPrice":"0x2faf080","hash":"0x293025150cabb9ed70d1c53a58425e14fec21fc3097ff1b7226ef917e7da24e3","index":"0xd00281","input":"0x","l1BlockNumber":"0x11774e0","l1Timestamp":"0x65243e16","l1TxOrigin":null,"nonce":"0xaf","queueIndex":null,"queueOrigin":"sequencer","r":"0xa3febe4f8a2c8cd99389d20811ac1dd877c1bf8b05bacc4105a05bd49d09364d","rawTransaction":"0xf86681af8402faf0808252089416e6b71b6c0da062e02d4d302e5a2aee443f82498080822734a0a3febe4f8a2c8cd99389d20811ac1dd877c1bf8b05bacc4105a05bd49d09364da01aba90469d17d125ed0c0a44a90619b091ab1e82f9801a9bfa17b6d293ded4ad","s":"0x1aba90469d17d125ed0c0a44a90619b091ab1e82f9801a9bfa17b6d293ded4ad","to":"0x16e6b71b6c0da062e02d4d302e5a2aee443f8249","transactionIndex":"0x0","v":"0x2734","value":"0x0"}],"transactionsRoot":"0x14705c8ce0f5dba43cc21ff1da828b9a1cb1ed8de3ddbebae0b6f7dab1ee68ba","uncles":[]},"receipts":{"0x293025150cabb9ed70d1c53a58425e14fec21fc3097ff1b7226ef917e7da24e3":{"blockHash":"0x0ed3993a7948c0d7aa0d6d2325546333e27e28249bc005c96ca208408cf1fe0d","blockNumber":"0xd00282","from":"0xb52e9bccd899d3c5ef91256aff62ccc163109667","gas":"0x5208","gasPrice":"0x2faf080","hash":"0x293025150cabb9ed70d1c53a58425e14fec21fc3097ff1b7226ef917e7da24e3","index":"0xd00281","input":"0x","l1BlockNumber":"0x11774e0","l1Timestamp":"0x65243e16","l1TxOrigin":null,"nonce":"0xaf","queueIndex":null,"queueOrigin":"sequencer","r":"0xa3febe4f8a2c8cd99389d20811ac1dd877c1bf8b05bacc4105a05bd49d09364d","rawTransaction":"0xf86681af8402faf0808252089416e6b71b6c0da062e02d4d302e5a2aee443f82498080822734a0a3febe4f8a2c8cd99389d20811ac1dd877c1bf8b05bacc4105a05bd49d09364da01aba90469d17d125ed0c0a44a90619b091ab1e82f9801a9bfa17b6d293ded4ad","s":"0x1aba90469d17d125ed0c0a44a90619b091ab1e82f9801a9bfa17b6d293ded4ad","to":"0x16e6b71b6c0da062e02d4d302e5a2aee443f8249","transactionIndex":"0x0","v":"0x2734","value":"0x0","contractAddress":null,"cumulativeGasUsed":"0x5208","daFee":"0x0","daGasPrice":"0x0","daGasUsed":"0x22","gasUsed":"0x5208","l1Fee":"0x19709d787180660","l1FeeScalar":"1","l1GasPrice":"0x38a987f04864","l1GasUsed":"0x72f","logs":[],"logsBloom":"0x00000000000000000000000000000000000000000000000000000000000000000000000000000000000000000000000000000000000000000000000000000000000000000000000000000000000000000000000000000000000000000000000000000000000000000000000000000000000000000000000000000000000000000000000000000000000000000000000000000000000000000000000000000000000000000000000000000000000000000000000000000000000000000000000000000000000000000000000000000000000000000000000000000000000000000000000000000000000000000000000000000000000000000000000000000000","status":"0x1","transactionHash":"0x293025150cabb9ed70d1c53a58425e14fec21fc3097ff1b7226ef917e7da24e3"}}}