{"block":{"difficulty":"0x2","extraData":"0xd98301090a846765746889676f312e31352e3133856c696e757800000000000052ede1f278469410927ede82984fcc17ebf332b072c2cd3ed1626a143e3ea36e1cafea330616af80d2fe1a390a16e13b2663c9ca4957cfc7142fa2ea917a931b01","gasLimit":"0x1c9c380","gasUsed":"0x1e367","hash":"0xb7147fb362d799cf0e967cbe23d3bbee92e906ef8db60172eeac944ca660d723","logsBloom":"0x00000000000000000000000000000000000000000001008800001000000000000004000000000000000000000002000000000000000000040000000000200000140000000040000000000008000000000000008000042000000200000000000000400000000000000000000000000080000000000000000000000010000000000000000000000000000000000000000000100000000000000000000000000040020000000000000000000000000200000000000001000000000000000000000000000002000000000000000000000000000000000000000000000010000000000010000000000000000000000000000000000000000000000000000000000000","miner":"0x0000000000000000000000000000000000000000","mixHash":"0x0000000000000000000000000000000000000000000000000000000000000000","nonce":"0x0000000000000000","number":"0xd000bc","parentHash":"0xa900ea3952337a735966749e1b5a3066b6ea5df967d3a441085bab598bdf563c","receiptsRoot":"0x2db94c5ee87b7e5902a487598d4a4261ce36d61679d2ebb2386e13de41a1d75e","sha3Uncles":"0x1dcc4de8dec75d7aab85b567b6ccd41ad312451b948a7413f0a142fd40d49347","size":"0x3d8","stateRoot":"0xa448c775fddad1f86a4994f00282e54b1d9d1f7eb121f56ebe89f2cf2f39cc93","timestamp":"0x65243d20","totalDifficulty":"0x1a00179","transactions":[{"blockHash":"0xb7147fb362d799cf0e967cbe23d3bbee92e906ef8db60172eeac944ca660d723","blockNumber":"0xd000bc","from":"0x7026660353a2c88ab5eb1853193b5a8927c59c90","gas":"0x1fb09","gasPrice":"0x2faf080","hash":"0x1650acdf5001c7f1db82822b5ff6cc59d650cf65d669731308fe234413e495ae","index":"0xd000bb","input":"0x414bf389000000000000000000000000201eba5cc46d216ce6dc03f6a759e8e766e956ae00000000000000000000000078c1b0c915c4faa5fffa6cabf0219da63d7f4cb800000000000000000000000000000000000000000000000000000000000001f40000000000000000000000007026660353a2c88ab5eb1853193b5a8927c59c900000000000000000000000000000000000000000000000000000000065243d4000000000000000000000000000000000000000000000000000000000000b71b00000000000000000000000000000000000000000000000001b4592982991dc700000000000000000000000000000000000000000000000000000000000000000","l1BlockNumber":"0x11774cb","l1Timestamp":"0x65243d20","l1TxOrigin":null,"nonce":"0xeb0","queueIndex":null,"queueOrigin":"sequencer","r":"0x3800644348405112d3dd6a12ffa15760ae4a489ac032e16336ce67d40693bac5","rawTransaction":"0xf9016e820eb08402faf0808301fb0994319b69888b0d11cec22caa5034e25fffbdc8842180b90104414bf389000000000000000000000000201eba5cc46d216ce6dc03f6a759e8e766e956ae00000000000000000000000078c1b0c915c4faa5fffa6cabf0219da63d7f4cb800000000000000000000000000000000000000000000000000000000000001f40000000000000000000000007026660353a2c88ab5eb1853193b5a8927c59c900000000000000000000000000000000000000000000000000000000065243d4000000000000000000000000000000000000000000000000000000000000b71b00000000000000000000000000000000000000000000000001b4592982991dc700000000000000000000000000000000000000000000000000000000000000000822733a03800644348405112d3dd6a12ffa15760ae4a489ac032e16336ce67d40693bac5a020394ec546c254ff55848484b3296f005b50c08d1d587ef11d6a8cc34964abc9","s":"0x20394ec546c254ff55848484b3296f005b50c08d1d587ef11d6a8cc34964abc9","to":"0x319b69888b0d11cec22caa5034e25fffbdc88421","transactionIndex":"0x0","v":"0x2733","value":"0x0"}],"transactionsRoot":"0xdfdd9da0960e021af54bc2a6d5d0a0609789233f1c2547974644061f5bd8ebee","uncles":[]},"receipts":{"0x1650acdf5001c7f1db82822b5ff6cc59d650cf65d669731308fe234413e495ae":{"blockHash":"0xb7147fb362d799cf0e967cbe23d3bbee92e906ef8db60172eeac944ca660d723","blockNumber":"0xd000bc","from":"0x7026660353a2c88ab5eb1853193b5a8927c59c90","gas":"0x1fb09","gasPrice":"0x2faf080","hash":"0x1650acdf5001c7f1db82822b5ff6cc59d650cf65d669731308fe234413e495ae","index":"0xd000bb","input":"0x414bf389000000000000000000000000201eba5cc46d216ce6dc03f6a759e8e766e956ae00000000000000000000000078c1b0c915c4faa5fffa6cabf0219da63d7f4cb800000000000000000000000000000000000000000000000000000000000001f40000000000000000000000007026660353a2c88ab5eb1853193b5a8927c59c900000000000000000000000000000000000000000000000000000000065243d4000000000000000000000000000000000000000000000000000000000000b71b00000000000000000000000000000000000000000000000001b4592982991dc700000000000000000000000000000000000000000000000000000000000000000","l1BlockNumber":"0x11774cb","l1Timestamp":"0x65243d20","l1TxOrigin":null,"nonce":"0xeb0","queueIndex":null,"queueOrigin":"sequencer","r":"0x3800644348405112d3dd6a12ffa15760ae4a489ac032e16336ce67d40693bac5","rawTransaction":"0xf9016e820eb08402faf0808301fb0994319b69888b0d11cec22caa5034e25fffbdc8842180b90104414bf389000000000000000000000000201eba5cc46d216ce6dc03f6a759e8e766e956ae00000000000000000000000078c1b0c915c4faa5fffa6cabf0219da63d7f4cb800000000000000000000000000000000000000000000000000000000000001f40000000000000000000000007026660353a2c88ab5eb1853193b5a8927c59c900000000000000000000000000000000000000000000000000000000065243d4000000000000000000000000000000000000000000000000000000000000b71b00000000000000000000000000000000000000000000000001b4592982991dc700000000000000000000000000000000000000000000000000000000000000000822733a03800644348405112d3dd6a12ffa15760ae4a489ac032e16336ce67d40693bac5a020394ec546c254ff55848484b3296f005b50c08d1d587ef11d6a8cc34964abc9","s":"0x20394ec546c254ff55848484b3296f005b50c08d1d587ef11d6a8cc34964abc9","to":"0x319b69888b0d11cec22caa5034e25fffbdc88421","transactionIndex":"0x0","v":"0x2733","value":"0x0","contractAddress":null,"cumulativeGasUsed":"0x1e367","daFee":"0x0","daGasPrice":"0x0","daGasUsed":"0x12c","gasUsed":"0x1e367","l1Fee":"0x1a09f6380cb9fe0","l1FeeScalar":"1","l1GasPrice":"0x39ff1464e55c","l1GasUsed":"0x72f","logs":[{"address":"0x78c1b0c915c4faa5fffa6cabf0219da63d7f4cb8","blockHash":"0xb7147fb362d799cf0e967cbe23d3bbee92e906ef8db60172eeac944ca660d723","blockNumber":"0xd000bc","data":"0x0000000000000000000000000000000000000000000000001bd40dbfd6d3881f","logIndex":"0x0","removed":false,"topics":["0xddf252ad1be2c89b69c2b068fc378daa952ba7f163c4a11628f55a4df523b3ef","0x000000000000000000000000d08c50f7e69e9aeb2867deff4a8053d9a855e26a","0x0000000000000000000000007026660353a2c88ab5eb1853193b5a8927c59c90"],"transactionHash":"0x1650acdf5001c7f1db82822b5ff6cc59d650cf65d669731308fe234413e495ae","transactionIndex":"0x0"},{"address":"0x201eba5cc46d216ce6dc03f6a759e8e766e956ae","blockHash":"0xb7147fb362d799cf0e967cbe23d3bbee92e906ef8db60172eeac944ca660d723","blockNumber":"0xd000bc","data":"0x00000000000000000000000000000000000000000000000000000000000b71b0","logIndex":"0x1","removed":false,"topics":["0xddf252ad1be2c89b69c2b068fc378daa952ba7f163c4a11628f55a4df523b3ef","0x0000000000000000000000007026660353a2c88ab5eb1853193b5a8927c59c90","0x000000000000000000000000d08c50f7e69e9aeb2867deff4a8053d9a855e26a"],"transactionHash":"0x1650acdf5001c7f1db82822b5ff6cc59d650cf65d669731308fe234413e495ae","transactionIndex":"0x0"},{"address":"0x201eba5cc46d216ce6dc03f6a759e8e766e956ae","blockHash":"0xb7147fb362d799cf0e967cbe23d3bbee92e906ef8db60172eeac944ca660d723","blockNumber":"0xd000bc","data":"0xffffffffffffffffffffffffffffffffffffffffffffffffffffffff9ae76a4f","logIndex":"0x2","removed":false,"topics":["0x8c5be1e5ebec7d5bd14f71427d1e84f3dd0314c0f7b2291e5b200ac8c7c3b925","0x0000000000000000000000007026660353a2c88ab5eb1853193b5a8927c59c90","0x000000000000000000000000319b69888b0d11cec22caa5034e25fffbdc88421"],"transactionHash":"0x1650acdf5001c7f1db82822b5ff6cc59d650cf65d669731308fe234413e495ae","transactionIndex":"0x0"},{"address":"0xd08c50f7e69e9aeb2867deff4a8053d9a855e26a","blockHash":"0xb7147fb362d799cf0e967cbe23d3bbee92e906ef8db60172eeac944ca660d723","blockNumber":"0xd000bc","data":"0x00000000000000000000000000000000000000000000000000000000000b71b0ffffffffffffffffffffffffffffffffffffffffffffffffe42bf240292c77e1000000000000000000000000000000000018f4b2ad6b9e1b3be8422ddf5506f0000000000000000000000000000000000000000000000000006787d5d3ab8a8c0000000000000000000000000000000000000000000000000000000000045dd3000000000000000000000000000000000000000000000000000000000000007f0000000000000000000000000000000000000000000000000000000000000000","logIndex":"0x3","removed":false,"topics":["0x19b47279256b2a23a1665c810c8d55a1758940ee09377d4f8d26497a3577dc83","0x000000000000000000000000319b69888b0d11cec22caa5034e25fffbdc88421","0x0000000000000000000000007026660353a2c88ab5eb1853193b5a8927c59c90"],"transactionHash":"0x1650acdf5001c7f1db82822b5ff6cc59d650cf65d669731308fe234413e495ae","transactionIndex":"0x0"}],"logsBloom":"0x00000000000000000000000000000000000000000001008800001000000000000004000000000000000000000002000000000000000000040000000000200000140000000040000000000008000000000000008000042000000200000000000000400000000000000000000000000080000000000000000000000010000000000000000000000000000000000000000000100000000000000000000000000040020000000000000000000000000200000000000001000000000000000000000000000002000000000000000000000000000000000000000000000010000000000010000000000000000000000000000000000000000000000000000000000000","status":"0x1","transactionHash":"0x1650acdf5001c7f1db82822b5ff6cc59d650cf65d669731308fe234413e495ae"}}}