{"block":{"difficulty":"0x2","extraData":"0xd98301090a846765746889676f312e31352e3133856c696e7578000000000000929c0ca3f669796441c874f40bfc96ba5948dca166206de40ea55e1b180251a028e2639531dca0f71d3367be5a738e5e081fe6ca9edfc007d9165d36728b93fe00","gasLimit":"0x1c9c380","gasUsed":"0x2478f","hash":"0x560680f1eba2325e556c8152e10d8171371eb79ee05714d486c6138455f084f5","logsBloom":"0x40000000000000000000000000000000000000000001008800000000000000000000000000000000000000000012000000000000000000000000000000200000840000000040000080000008000000000000008000002004000000000000000000000001000000000000000100000000000000000000000000000010000000000000000000000000000000000000000000000000000000000008000000000000020000000000000000000000000000000000000001000020000100000000000000000002000000000000000000000000000000000000000000000000000000000010000000001000000000000000000000000000000000800000000000000000","miner":"0x0000000000000000000000000000000000000000","mixHash":"0x0000000000000000000000000000000000000000000000000000000000000000","nonce":"0x0000000000000000","number":"0xcff380","parentHash":"0xf8fcf20e033709bbae4f7dc165aa7ddc54656197fa7ca8f36247521cf497f744","receiptsRoot":"0x6695c737a6b7d06dcd333c21e8034d4fc742ffaa5a5cf4b415b0a0a7028b36a1","sha3Uncles":"0x1dcc4de8dec75d7aab85b567b6ccd41ad312451b948a7413f0a142fd40d49347","size":"0x3d8","stateRoot":"0xbaf584344611928cf80ddda5dab6d9d3fd2f7be58a044d5eccb10f719180effb","timestamp":"0x6524373e","totalDifficulty":"0x19fe701","transactions":[{"blockHash":"0x560680f1eba2325e556c8152e10d8171371eb79ee05714d486c6138455f084f5","blockNumber":"0xcff380","from":"0x5e004dca235e358efe27d5ba757041685d613908","gas":"0x27236","gasPrice":"0x2faf080","hash":"0x76eeeaa1c79da62a0f7015073517a3216a5006b1ae4dabc3451d3de4034f7925","index":"0xcff37f","input":"0x414bf389000000000000000000000000201eba5cc46d216ce6dc03f6a759e8e766e956ae000000000000000000000000deaddeaddeaddeaddeaddeaddeaddeaddead111100000000000000000000000000000000000000000000000000000000000001f40000000000000000000000005e004dca235e358efe27d5ba757041685d613908000000000000000000000000000000000000000000000000000000006524375e00000000000000000000000000000000000000000000000000000000000cd1400000000000000000000000000000000000000000000000000001da33f750a4110000000000000000000000000000000000000000000000000000000000000000","l1BlockNumber":"0x117744d","l1Timestamp":"0x6524373e","l1TxOrigin":null,"nonce":"0x12b7","queueIndex":null,"queueOrigin":"sequencer","r":"0xd56a9be228a25daee30c46a2d604ca84768e100688b4e3fe78d034c7adc5bb92","rawTransaction":"0xf9016e8212b78402faf0808302723694319b69888b0d11cec22caa5034e25fffbdc8842180b90104414bf389000000000000000000000000201eba5cc46d216ce6dc03f6a759e8e766e956ae000000000000000000000000deaddeaddeaddeaddeaddeaddeaddeaddead111100000000000000000000000000000000000000000000000000000000000001f40000000000000000000000005e004dca235e358efe27d5ba757041685d613908000000000000000000000000000000000000000000000000000000006524375e00000000000000000000000000000000000000000000000000000000000cd1400000000000000000000000000000000000000000000000000001da33f750a4110000000000000000000000000000000000000000000000000000000000000000822734a0d56a9be228a25daee30c46a2d604ca84768e100688b4e3fe78d034c7adc5bb92a0503bd12ffe10f211bf0afdf48984aeee5421597daef2913f11df1a8a5a3b05d1","s":"0x503bd12ffe10f211bf0afdf48984aeee5421597daef2913f11df1a8a5a3b05d1","to":"0x319b69888b0d11cec22caa5034e25fffbdc88421","transactionIndex":"0x0","v":"0x2734","value":"0x0"}],"transactionsRoot":"0x5d0fc70952972ebd70a01b69764db4c09b7c8214865b828dd0db49957421bdac","uncles":[]},"receipts":{"0x76eeeaa1c79da62a0f7015073517a3216a5006b1ae4dabc3451d3de4034f7925":{"blockHash":"0x560680f1eba2325e556c8152e10d8171371eb79ee05714d486c6138455f084f5","blockNumber":"0xcff380","from":"0x5e004dca235e358efe27d5ba757041685d613908","gas":"0x27236","gasPrice":"0x2faf080","hash":"0x76eeeaa1c79da62a0f7015073517a3216a5006b1ae4dabc3451d3de4034f7925","index":"0xcff37f","input":"0x414bf389000000000000000000000000201eba5cc46d216ce6dc03f6a759e8e766e956ae000000000000000000000000deaddeaddeaddeaddeaddeaddeaddeaddead111100000000000000000000000000000000000000000000000000000000000001f40000000000000000000000005e004dca235e358efe27d5ba757041685d613908000000000000000000000000000000000000000000000000000000006524375e00000000000000000000000000000000000000000000000000000000000cd1400000000000000000000000000000000000000000000000000001da33f750a4110000000000000000000000000000000000000000000000000000000000000000","l1BlockNumber":"0x117744d","l1Timestamp":"0x6524373e","l1TxOrigin":null,"nonce":"0x12b7","queueIndex":null,"queueOrigin":"sequencer","r":"0xd56a9be228a25daee30c46a2d604ca84768e100688b4e3fe78d034c7adc5bb92","rawTransaction":"0xf9016e8212b78402faf0808302723694319b69888b0d11cec22caa5034e25fffbdc8842180b90104414bf389000000000000000000000000201eba5cc46d216ce6dc03f6a759e8e766e956ae000000000000000000000000deaddeaddeaddeaddeaddeaddeaddeaddead111100000000000000000000000000000000000000000000000000000000000001f40000000000000000000000005e004dca235e358efe27d5ba757041685d613908000000000000000000000000000000000000000000000000000000006524375e00000000000000000000000000000000000000000000000000000000000cd1400000000000000000000000000000000000000000000000000001da33f750a4110000000000000000000000000000000000000000000000000000000000000000822734a0d56a9be228a25daee30c46a2d604ca84768e100688b4e3fe78d034c7adc5bb92a0503bd12ffe10f211bf0afdf48984aeee5421597daef2913f11df1a8a5a3b05d1","s":"0x503bd12ffe10f211bf0afdf48984aeee5421597daef2913f11df1a8a5a3b05d1","to":"0x319b69888b0d11cec22caa5034e25fffbdc88421","transactionIndex":"0x0","v":"0x2734","value":"0x0","contractAddress":null,"cumulativeGasUsed":"0x2478f","daFee":"0x0","daGasPrice":"0x0","daGasUsed":"0x12c","gasUsed":"0x2478f","l1Fee":"0x1c5145ff7a866d0","l1FeeScalar":"1","l1GasPrice":"0x3f1249c65230","l1GasUsed":"0x72f","logs":[{"address":"0xdeaddeaddeaddeaddeaddeaddeaddeaddead1111","blockHash":"0x560680f1eba2325e556c8152e10d8171371eb79ee05714d486c6138455f084f5","blockNumber":"0xcff380","data":"0x0000000000000000000000000000000000000000000000000001e449f08839aa","logIndex":"0x0","removed":false,"topics":["0xddf252ad1be2c89b69c2b068fc378daa952ba7f163c4a11628f55a4df523b3ef","0x000000000000000000000000628f7131cf43e88ebe3921ae78c4ba0c31872bd4","0x0000000000000000000000005e004dca235e358efe27d5ba757041685d613908"],"transactionHash":"0x76eeeaa1c79da62a0f7015073517a3216a5006b1ae4dabc3451d3de4034f7925","transactionIndex":"0x0"},{"address":"0x201eba5cc46d216ce6dc03f6a759e8e766e956ae","blockHash":"0x560680f1eba2325e556c8152e10d8171371eb79ee05714d486c6138455f084f5","blockNumber":"0xcff380","data":"0x00000000000000000000000000000000000000000000000000000000000cd140","logIndex":"0x1","removed":false,"topics":["0xddf252ad1be2c89b69c2b068fc378daa952ba7f163c4a11628f55a4df523b3ef","0x0000000000000000000000005e004dca235e358efe27d5ba757041685d613908","0x000000000000000000000000628f7131cf43e88ebe3921ae78c4ba0c31872bd4"],"transactionHash":"0x76eeeaa1c79da62a0f7015073517a3216a5006b1ae4dabc3451d3de4034f7925","transactionIndex":"0x0"},{"address":"0x201eba5cc46d216ce6dc03f6a759e8e766e956ae","blockHash":"0x560680f1eba2325e556c8152e10d8171371eb79ee05714d486c6138455f084f5","blockNumber":"0xcff380","data":"0xffffffffffffffffffffffffffffffffffffffffffffffffffffffff805de5af","logIndex":"0x2","removed":false,"topics":["0x8c5be1e5ebec7d5bd14f71427d1e84f3dd0314c0f7b2291e5b200ac8c7c3b925","0x0000000000000000000000005e004dca235e358efe27d5ba757041685d613908","0x000000000000000000000000319b69888b0d11cec22caa5034e25fffbdc88421"],"transactionHash":"0x76eeeaa1c79da62a0f7015073517a3216a5006b1ae4dabc3451d3de4034f7925","transactionIndex":"0x0"},{"address":"0x628f7131cf43e88ebe3921ae78c4ba0c31872bd4","blockHash":"0x560680f1eba2325e556c8152e10d8171371eb79ee05714d486c6138455f084f5","blockNumber":"0xcff380","data":"0x00000000000000000000000000000000000000000000000000000000000cd140fffffffffffffffffffffffffffffffffffffffffffffffffffe1bb60f77c656000000000000000000000000000000000000625a61db84ce4df2bbb3e2ea19bc00000000000000000000000000000000000000000000000000002c7598b3bf7a00000000000000000000000000000000000000000000000000000000000317bc000000000000000000000000000000000000000000000000000000000000008e0000000000000000000000000000000000000000000000000000000000000000","logIndex":"0x3","removed":false,"topics":["0x19b47279256b2a23a1665c810c8d55a1758940ee09377d4f8d26497a3577dc83","0x000000000000000000000000319b69888b0d11cec22caa5034e25fffbdc88421","0x0000000000000000000000005e004dca235e358efe27d5ba757041685d613908"],"transactionHash":"0x76eeeaa1c79da62a0f7015073517a3216a5006b1ae4dabc3451d3de4034f7925","transactionIndex":"0x0"}],"logsBloom":"0x40000000000000000000000000000000000000000001008800000000000000000000000000000000000000000012000000000000000000000000000000200000840000000040000080000008000000000000008000002004000000000000000000000001000000000000000100000000000000000000000000000010000000000000000000000000000000000000000000000000000000000008000000000000020000000000000000000000000000000000000001000020000100000000000000000002000000000000000000000000000000000000000000000000000000000010000000001000000000000000000000000000000000800000000000000000","status":"0x1","transactionHash":"0x76eeeaa1c79da62a0f7015073517a3216a5006b1ae4dabc3451d3de4034f7925"}}}