{"block":{"difficulty":"0x2","extraData":"0xd98301090a846765746889676f312e31352e3133856c696e7578000000000000bc579b48ffbe13608a25927eabc56775536068cd117cc22d785f4a56c56006d976b7c2278ff289c99fba33653107438e2d8cf96c12e59aebaba9661414863e4a00","gasLimit":"0x1c9c380","gasUsed":"0x1c7a7","hash":"0x22b1ca971ad30713eb10ef02ff87a1c1e1e360bec270ac48c6cc9895a53080b2","logsBloom":"0x00000000000000000000000000000000000000000001008800000000000010000004000000000000000000000002000000000000000000000000000000200000140000000040000000000008000000000000008000042000000200000000000000000000000000000000000000000080000000000000000000000010004000000000000000000000000000000000000008100000000000000000000000000040020000000000000000000000000200000000000001000000000000000000000000000002000000000000000000000000000000000000000000000010000000000010000000000000000000000000000000000000000000000000000000000000","miner":"0x0000000000000000000000000000000000000000","mixHash":"0x0000000000000000000000000000000000000000000000000000000000000000","nonce":"0x0000000000000000","number":"0xd001f7","parentHash":"0x5309b175e176dde6887258e86c0cf16668da0aabef6734d15f1396ec0276449f","receiptsRoot":"0x9f63721725c641672698e7cb3f464dd4f32b58f192498b9060b3e0c4f95854bb","sha3Uncles":"0x1dcc4de8dec75d7aab85b567b6ccd41ad312451b948a7413f0a142fd40d49347","size":"0x3d7","stateRoot":"0xa8905342acfa4e6d3984d2d0dec528d238055df81b22193bacb0210865ec0988","timestamp":"0x65243dc3","totalDifficulty":"0x1a003ef","transactions":[{"blockHash":"0x22b1ca971ad30713eb10ef02ff87a1c1e1e360bec270ac48c6cc9895a53080b2","blockNumber":"0xd001f7","from":"0x979999e5a06b1c4417decf4f8e9fcbb1131eebb5","gas":"0x1dece","gasPrice":"0x2faf080","hash":"0xc0f0b65b73e07147e3d6a8aaba2a92b1f4fedacc770f5f97a7af24f4263b34ef","index":"0xd001f6","input":"0x414bf38900000000000000000000000078c1b0c915c4faa5fffa6cabf0219da63d7f4cb8000000000000000000000000201eba5cc46d216ce6dc03f6a759e8e766e956ae00000000000000000000000000000000000000000000000000000000000001f4000000000000000000000000979999e5a06b1c4417decf4f8e9fcbb1131eebb50000000000000000000000000000000000000000000000000000000065243de500000000000000000000000000000000000000000000000018fae27693b4000000000000000000000000000000000000000000000000000000000000000a0f0f0000000000000000000000000000000000000000000000000000000000000000","l1BlockNumber":"0x11774d9","l1Timestamp":"0x65243dc3","l1TxOrigin":null,"nonce":"0xdde","queueIndex":null,"queueOrigin":"sequencer","r":"0xac46ad44ee97de19b4baaaace09d78b736ef66f0e9a5a1a6d6978ab0589ead2a","rawTransaction":"0xf9016d820dde8402faf0808301dece94319b69888b0d11cec22caa5034e25fffbdc8842180b90104414bf38900000000000000000000000078c1b0c915c4faa5fffa6cabf0219da63d7f4cb8000000000000000000000000201eba5cc46d216ce6dc03f6a759e8e766e956ae00000000000000000000000000000000000000000000000000000000000001f4000000000000000000000000979999e5a06b1c4417decf4f8e9fcbb1131eebb50000000000000000000000000000000000000000000000000000000065243de500000000000000000000000000000000000000000000000018fae27693b4000000000000000000000000000000000000000000000000000000000000000a0f0f0000000000000000000000000000000000000000000000000000000000000000822734a0ac46ad44ee97de19b4baaaace09d78b736ef66f0e9a5a1a6d6978ab0589ead2a9f7b84ec44abc47faf3163767efae6d7b1ad9ed0975dd265111c38fec6f6ea8d","s":"0x7b84ec44abc47faf3163767efae6d7b1ad9ed0975dd265111c38fec6f6ea8d","to":"0x319b69888b0d11cec22caa5034e25fffbdc88421","transactionIndex":"0x0","v":"0x2734","value":"0x0"}],"transactionsRoot":"0x742b9b39376a2f07f31a499ba2e00467f6660d7eaf5a0faf63dc686cbbe7af09","uncles":[]},"receipts":{"0xc0f0b65b73e07147e3d6a8aaba2a92b1f4fedacc770f5f97a7af24f4263b34ef":{"blockHash":"0x22b1ca971ad30713eb10ef02ff87a1c1e1e360bec270ac48c6cc9895a53080b2","blockNumber":"0xd001f7","from":"0x979999e5a06b1c4417decf4f8e9fcbb1131eebb5","gas":"0x1dece","gasPrice":"0x2faf080","hash":"0xc0f0b65b73e07147e3d6a8aaba2a92b1f4fedacc770f5f97a7af24f4263b34ef","index":"0xd001f6","input":"0x414bf38900000000000000000000000078c1b0c915c4faa5fffa6cabf0219da63d7f4cb8000000000000000000000000201eba5cc46d216ce6dc03f6a759e8e766e956ae00000000000000000000000000000000000000000000000000000000000001f4000000000000000000000000979999e5a06b1c4417decf4f8e9fcbb1131eebb50000000000000000000000000000000000000000000000000000000065243de500000000000000000000000000000000000000000000000018fae27693b4000000000000000000000000000000000000000000000000000000000000000a0f0f0000000000000000000000000000000000000000000000000000000000000000","l1BlockNumber":"0x11774d9","l1Timestamp":"0x65243dc3","l1TxOrigin":null,"nonce":"0xdde","queueIndex":null,"queueOrigin":"sequencer","r":"0xac46ad44ee97de19b4baaaace09d78b736ef66f0e9a5a1a6d6978ab0589ead2a","rawTransaction":"0xf9016d820dde8402faf0808301dece94319b69888b0d11cec22caa5034e25fffbdc8842180b90104414bf38900000000000000000000000078c1b0c915c4faa5fffa6cabf0219da63d7f4cb8000000000000000000000000201eba5cc46d216ce6dc03f6a759e8e766e956ae00000000000000000000000000000000000000000000000000000000000001f4000000000000000000000000979999e5a06b1c4417decf4f8e9fcbb1131eebb50000000000000000000000000000000000000000000000000000000065243de500000000000000000000000000000000000000000000000018fae27693b4000000000000000000000000000000000000000000000000000000000000000a0f0f0000000000000000000000000000000000000000000000000000000000000000822734a0ac46ad44ee97de19b4baaaace09d78b736ef66f0e9a5a1a6d6978ab0589ead2a9f7b84ec44abc47faf3163767efae6d7b1ad9ed0975dd265111c38fec6f6ea8d","s":"0x7b84ec44abc47faf3163767efae6d7b1ad9ed0975dd265111c38fec6f6ea8d","to":"0x319b69888b0d11cec22caa5034e25fffbdc88421","transactionIndex":"0x0","v":"0x2734","value":"0x0","contractAddress":null,"cumulativeGasUsed":"0x1c7a7","daFee":"0x0","daGasPrice":"0x0","daGasUsed":"0x12c","gasUsed":"0x1c7a7","l1Fee":"0x19709d787180660","l1FeeScalar":"1","l1GasPrice":"0x38a987f04864","l1GasUsed":"0x72f","logs":[{"address":"0x201eba5cc46d216ce6dc03f6a759e8e766e956ae","blockHash":"0x22b1ca971ad30713eb10ef02ff87a1c1e1e360bec270ac48c6cc9895a53080b2","blockNumber":"0xd001f7","data":"0x00000000000000000000000000000000000000000000000000000000000a439d","logIndex":"0x0","removed":false,"topics":["0xddf252ad1be2c89b69c2b068fc378daa952ba7f163c4a11628f55a4df523b3ef","0x000000000000000000000000d08c50f7e69e9aeb2867deff4a8053d9a855e26a","0x000000000000000000000000979999e5a06b1c4417decf4f8e9fcbb1131eebb5"],"transactionHash":"0xc0f0b65b73e07147e3d6a8aaba2a92b1f4fedacc770f5f97a7af24f4263b34ef","transactionIndex":"0x0"},{"address":"0x78c1b0c915c4faa5fffa6cabf0219da63d7f4cb8","blockHash":"0x22b1ca971ad30713eb10ef02ff87a1c1e1e360bec270ac48c6cc9895a53080b2","blockNumber":"0xd001f7","data":"0x00000000000000000000000000000000000000000000000018fae27693b40000","logIndex":"0x1","removed":false,"topics":["0xddf252ad1be2c89b69c2b068fc378daa952ba7f163c4a11628f55a4df523b3ef","0x000000000000000000000000979999e5a06b1c4417decf4f8e9fcbb1131eebb5","0x000000000000000000000000d08c50f7e69e9aeb2867deff4a8053d9a855e26a"],"transactionHash":"0xc0f0b65b73e07147e3d6a8aaba2a92b1f4fedacc770f5f97a7af24f4263b34ef","transactionIndex":"0x0"},{"address":"0x78c1b0c915c4faa5fffa6cabf0219da63d7f4cb8","blockHash":"0x22b1ca971ad30713eb10ef02ff87a1c1e1e360bec270ac48c6cc9895a53080b2","blockNumber":"0xd001f7","data":"0xffffffffffffffffffffffffffffffffffffffffffffffb94b7a9a5f2183ffff","logIndex":"0x2","removed":false,"topics":["0x8c5be1e5ebec7d5bd14f71427d1e84f3dd0314c0f7b2291e5b200ac8c7c3b925","0x000000000000000000000000979999e5a06b1c4417decf4f8e9fcbb1131eebb5","0x000000000000000000000000319b69888b0d11cec22caa5034e25fffbdc88421"],"transactionHash":"0xc0f0b65b73e07147e3d6a8aaba2a92b1f4fedacc770f5f97a7af24f4263b34ef","transactionIndex":"0x0"},{"address":"0xd08c50f7e69e9aeb2867deff4a8053d9a855e26a","blockHash":"0x22b1ca971ad30713eb10ef02ff87a1c1e1e360bec270ac48c6cc9895a53080b2","blockNumber":"0xd001f7","data":"0xfffffffffffffffffffffffffffffffffffffffffffffffffffffffffff5bc6300000000000000000000000000000000000000000000000018fae27693b40000000000000000000000000000000000000018f4710dfc0a0c6b13cb5c46107f44000000000000000000000000000000000000000000000000006787d5d3ab8a8c0000000000000000000000000000000000000000000000000000000000045dd200000000000000000000000000000000000000000000000000000000000000000000000000000000000000000000000000000000000000000001164e2d4d2000","logIndex":"0x3","removed":false,"topics":["0x19b47279256b2a23a1665c810c8d55a1758940ee09377d4f8d26497a3577dc83","0x000000000000000000000000319b69888b0d11cec22caa5034e25fffbdc88421","0x000000000000000000000000979999e5a06b1c4417decf4f8e9fcbb1131eebb5"],"transactionHash":"0xc0f0b65b73e07147e3d6a8aaba2a92b1f4fedacc770f5f97a7af24f4263b34ef","transactionIndex":"0x0"}],"logsBloom":"0x00000000000000000000000000000000000000000001008800000000000010000004000000000000000000000002000000000000000000000000000000200000140000000040000000000008000000000000008000042000000200000000000000000000000000000000000000000080000000000000000000000010004000000000000000000000000000000000000008100000000000000000000000000040020000000000000000000000000200000000000001000000000000000000000000000002000000000000000000000000000000000000000000000010000000000010000000000000000000000000000000000000000000000000000000000000","status":"0x1","transactionHash":"0xc0f0b65b73e07147e3d6a8aaba2a92b1f4fedacc770f5f97a7af24f4263b34ef"}}}