{"block":{"difficulty":"0x2","extraData":"0xd98301090a846765746889676f312e31352e3133856c696e7578000000000000fb58ed9e61c8a1dd7788788529bf5280a2fa0f6072f3b1e0e57b979668fc6e231fff22430548ec04d311fdc0cc29ad404c49487930117c7c6f59ab9a824f493e01","gasLimit":"0x1c9c380","gasUsed":"0x6ebb4","hash":"0x7c76914131d3d39abe93b2500002581ffef84dea7cecb53402978fd03bf6a70f","logsBloom":"0x00000000010400000000020000408000000000000000000000000000004001000004000000000008100000000000040000000000000010000000000000000000100000000000000000000008000000000000080000040001000000000000000000000000020000000000000000000800000000008008000010000010000100000010000000000000000000000000000000100000000000000000000000001010000000008000000000810000000000000000020000000100000000000000010000010012000a000000000020000a0000000000000000000000010200000030000000000400000000000000000000020000000000001100040020000000800000","miner":"0x0000000000000000000000000000000000000000","mixHash":"0x0000000000000000000000000000000000000000000000000000000000000000","nonce":"0x0000000000000000","number":"0xd001ab","parentHash":"0x9821dd22aacf80a24efdfefeb5c71503ecd3cdf7c5fb9231b5b44710fd261bcf","receiptsRoot":"0x1d80634e22fd38c08585489d3d8d253ec0ce05ce888b6463b3c70db6f6bf3d03","sha3Uncles":"0x1dcc4de8dec75d7aab85b567b6ccd41ad312451b948a7413f0a142fd40d49347","size":"0x375","stateRoot":"0xd94f23750b84689430501f78b7f75b9841bebcf14083367b13fec0f737597d47","timestamp":"0x65243d9b","totalDifficulty":"0x1a00357","transactions":[{"blockHash":"0x7c76914131d3d39abe93b2500002581ffef84dea7cecb53402978fd03bf6a70f","blockNumber":"0xd001ab","from":"0x99b4d8f75969871a9fba915cfd0d372967161acb","gas":"0x705fa","gasPrice":"0x2faf080","hash":"0xdaa34148857fb0c15b1acc22b86d9477dc88604c4e4a10b28e425c31194ea32d","index":"0xd001aa","input":"0xa415bcad00000000000000000000000078c1b0c915c4faa5fffa6cabf0219da63d7f4cb8000000000000000000000000000000000000000000000000000aa87bee5380000000000000000000000000000000000000000000000000000000000000000002000000000000000000000000000000000000000000000000000000000000000000000000000000000000000099b4d8f75969871a9fba915cfd0d372967161acb","l1BlockNumber":"0x11774d5","l1Timestamp":"0x65243d9b","l1TxOrigin":null,"nonce":"0x8","queueIndex":null,"queueOrigin":"sequencer","r":"0xb2f63d5b1eb8332df488541798c039f355d61208d0b261bbf8f652842262185a","rawTransaction":"0xf9010b088402faf080830705fa94cfa5ae7c2ce8fadc6426c1ff872ca45378fb7cf380b8a4a415bcad00000000000000000000000078c1b0c915c4faa5fffa6cabf0219da63d7f4cb8000000000000000000000000000000000000000000000000000aa87bee5380000000000000000000000000000000000000000000000000000000000000000002000000000000000000000000000000000000000000000000000000000000000000000000000000000000000099b4d8f75969871a9fba915cfd0d372967161acb822734a0b2f63d5b1eb8332df488541798c039f355d61208d0b261bbf8f652842262185aa04f67b7ea8a9949a9ddd2c6049abf55bb5101c27b187ab6deb8dc15d391b0e710","s":"0x4f67b7ea8a9949a9ddd2c6049abf55bb5101c27b187ab6deb8dc15d391b0e710","to":"0xcfa5ae7c2ce8fadc6426c1ff872ca45378fb7cf3","transactionIndex":"0x0","v":"0x2734","value":"0x0"}],"transactionsRoot":"0x50a6dc618bd42ac486d7df87b7bc74c605346e52ee676daf6ed844869be9a2ec","uncles":[]},"receipts":{"0xdaa34148857fb0c15b1acc22b86d9477dc88604c4e4a10b28e425c31194ea32d":{"blockHash":"0x7c76914131d3d39abe93b2500002581ffef84dea7cecb53402978fd03bf6a70f","blockNumber":"0xd001ab","from":"0x99b4d8f75969871a9fba915cfd0d372967161acb","gas":"0x705fa","gasPrice":"0x2faf080","hash":"0xdaa34148857fb0c15b1acc22b86d9477dc88604c4e4a10b28e425c31194ea32d","index":"0xd001aa","input":"0xa415bcad00000000000000000000000078c1b0c915c4faa5fffa6cabf0219da63d7f4cb8000000000000000000000000000000000000000000000000000aa87bee5380000000000000000000000000000000000000000000000000000000000000000002000000000000000000000000000000000000000000000000000000000000000000000000000000000000000099b4d8f75969871a9fba915cfd0d372967161acb","l1BlockNumber":"0x11774d5","l1Timestamp":"0x65243d9b","l1TxOrigin":null,"nonce":"0x8","queueIndex":null,"queueOrigin":"sequencer","r":"0xb2f63d5b1eb8332df488541798c039f355d61208d0b261bbf8f652842262185a","rawTransaction":"0xf9010b088402faf080830705fa94cfa5ae7c2ce8fadc6426c1ff872ca45378fb7cf380b8a4a415bcad00000000000000000000000078c1b0c915c4faa5fffa6cabf0219da63d7f4cb8000000000000000000000000000000000000000000000000000aa87bee5380000000000000000000000000000000000000000000000000000000000000000002000000000000000000000000000000000000000000000000000000000000000000000000000000000000000099b4d8f75969871a9fba915cfd0d372967161acb822734a0b2f63d5b1eb8332df488541798c039f355d61208d0b261bbf8f652842262185aa04f67b7ea8a9949a9ddd2c6049abf55bb5101c27b187ab6deb8dc15d391b0e710","s":"0x4f67b7ea8a9949a9ddd2c6049abf55bb5101c27b187ab6deb8dc15d391b0e710","to":"0xcfa5ae7c2ce8fadc6426c1ff872ca45378fb7cf3","transactionIndex":"0x0","v":"0x2734","value":"0x0","contractAddress":null,"cumulativeGasUsed":"0x6ebb4","daFee":"0x0","daGasPrice":"0x0","daGasUsed":"0xc8","gasUsed":"0x6ebb4","l1Fee":"0x1a09f6380cb9fe0","l1FeeScalar":"1","l1GasPrice":"0x39ff1464e55c","l1GasUsed":"0x72f","logs":[{"address":"0x79e2fd1c484eb9ee45001a98ce31f28918f27c41","blockHash":"0x7c76914131d3d39abe93b2500002581ffef84dea7cecb53402978fd03bf6a70f","blockNumber":"0xd001ab","data":"0x0000000000000000000000000000000000000000000000528e68e6ebc2b6e5a500000000000000000000000000000000000000000001f545550325790aed83df","logIndex":"0x0","removed":false,"topics":["0x526824944047da5b81071fb6349412005c5da81380b336103fbe5dd34556c776","0x000000000000000000000000683696523512636b46a826a7e3d1b0658e8e2e1c","0x0000000000000000000000005c75a733656c3e42e44afff1aca1913611f49230"],"transactionHash":"0xdaa34148857fb0c15b1acc22b86d9477dc88604c4e4a10b28e425c31194ea32d","transactionIndex":"0x0"},{"address":"0x683696523512636b46a826a7e3d1b0658e8e2e1c","blockHash":"0x7c76914131d3d39abe93b2500002581ffef84dea7cecb53402978fd03bf6a70f","blockNumber":"0xd001ab","data":"0x000000000000000000000000000000000000000000000000003905b247678f18","logIndex":"0x1","removed":false,"topics":["0xddf252ad1be2c89b69c2b068fc378daa952ba7f163c4a11628f55a4df523b3ef","0x0000000000000000000000000000000000000000000000000000000000000000","0x0000000000000000000000005c75a733656c3e42e44afff1aca1913611f49230"],"transactionHash":"0xdaa34148857fb0c15b1acc22b86d9477dc88604c4e4a10b28e425c31194ea32d","transactionIndex":"0x0"},{"address":"0x79e2fd1c484eb9ee45001a98ce31f28918f27c41","blockHash":"0x7c76914131d3d39abe93b2500002581ffef84dea7cecb53402978fd03bf6a70f","blockNumber":"0xd001ab","data":"0x00000000000000000000000000000000000000000000002b111efb3ae4482f5d00000000000000000000000000000000000000000001f545551166e59cc767a5","logIndex":"0x2","removed":false,"topics":["0x526824944047da5b81071fb6349412005c5da81380b336103fbe5dd34556c776","0x000000000000000000000000683696523512636b46a826a7e3d1b0658e8e2e1c","0x00000000000000000000000053b7183cff6d109189165e7ee4c1ebb922e1e6e5"],"transactionHash":"0xdaa34148857fb0c15b1acc22b86d9477dc88604c4e4a10b28e425c31194ea32d","transactionIndex":"0x0"},{"address":"0x683696523512636b46a826a7e3d1b0658e8e2e1c","blockHash":"0x7c76914131d3d39abe93b2500002581ffef84dea7cecb53402978fd03bf6a70f","blockNumber":"0xd001ab","data":"0x000000000000000000000000000000000000000000000000000e416c91d9e3c6","logIndex":"0x3","removed":false,"topics":["0xddf252ad1be2c89b69c2b068fc378daa952ba7f163c4a11628f55a4df523b3ef","0x0000000000000000000000000000000000000000000000000000000000000000","0x00000000000000000000000053b7183cff6d109189165e7ee4c1ebb922e1e6e5"],"transactionHash":"0xdaa34148857fb0c15b1acc22b86d9477dc88604c4e4a10b28e425c31194ea32d","transactionIndex":"0x0"},{"address":"0x683696523512636b46a826a7e3d1b0658e8e2e1c","blockHash":"0x7c76914131d3d39abe93b2500002581ffef84dea7cecb53402978fd03bf6a70f","blockNumber":"0xd001ab","data":"0x00000000000000000000000000000000000000000000000000476dc4cbdf57eb0000000000000000000000000000000000000000033ceec01b36fd7161ec8d4f","logIndex":"0x4","removed":false,"topics":["0x4c209b5fc8ad50758f13e2e1088ba56a560dff690a1c6fef26394f4c03821c4f","0x0000000000000000000000005c75a733656c3e42e44afff1aca1913611f49230"],"transactionHash":"0xdaa34148857fb0c15b1acc22b86d9477dc88604c4e4a10b28e425c31194ea32d","transactionIndex":"0x0"},{"address":"0x79e2fd1c484eb9ee45001a98ce31f28918f27c41","blockHash":"0x7c76914131d3d39abe93b2500002581ffef84dea7cecb53402978fd03bf6a70f","blockNumber":"0xd001ab","data":"0x000000000000000000000000000000000000000000000000000a844e94c59e410000000000000000000000000000000000000000000096c4fb862c00a44e10f4","logIndex":"0x5","removed":false,"topics":["0x526824944047da5b81071fb6349412005c5da81380b336103fbe5dd34556c776","0x00000000000000000000000018d3e4f9951fedcddd806538857ebed2f5f423b7","0x00000000000000000000000099b4d8f75969871a9fba915cfd0d372967161acb"],"transactionHash":"0xdaa34148857fb0c15b1acc22b86d9477dc88604c4e4a10b28e425c31194ea32d","transactionIndex":"0x0"},{"address":"0x18d3e4f9951fedcddd806538857ebed2f5f423b7","blockHash":"0x7c76914131d3d39abe93b2500002581ffef84dea7cecb53402978fd03bf6a70f","blockNumber":"0xd001ab","data":"0x000000000000000000000000000000000000000000000000000aa87bee538000","logIndex":"0x6","removed":false,"topics":["0xddf252ad1be2c89b69c2b068fc378daa952ba7f163c4a11628f55a4df523b3ef","0x0000000000000000000000000000000000000000000000000000000000000000","0x00000000000000000000000099b4d8f75969871a9fba915cfd0d372967161acb"],"transactionHash":"0xdaa34148857fb0c15b1acc22b86d9477dc88604c4e4a10b28e425c31194ea32d","transactionIndex":"0x0"},{"address":"0x18d3e4f9951fedcddd806538857ebed2f5f423b7","blockHash":"0x7c76914131d3d39abe93b2500002581ffef84dea7cecb53402978fd03bf6a70f","blockNumber":"0xd001ab","data":"0x000000000000000000000000000000000000000000000000000aa87bee538000000000000000000000000000000000000000000003464bae5210633fc5712cb7","logIndex":"0x7","removed":false,"topics":["0x2f00e3cdd69a77be7ed215ec7b2a36784dd158f921fca79ac29deffa353fe6ee","0x00000000000000000000000099b4d8f75969871a9fba915cfd0d372967161acb","0x00000000000000000000000099b4d8f75969871a9fba915cfd0d372967161acb"],"transactionHash":"0xdaa34148857fb0c15b1acc22b86d9477dc88604c4e4a10b28e425c31194ea32d","transactionIndex":"0x0"},{"address":"0xcfa5ae7c2ce8fadc6426c1ff872ca45378fb7cf3","blockHash":"0x7c76914131d3d39abe93b2500002581ffef84dea7cecb53402978fd03bf6a70f","blockNumber":"0xd001ab","data":"0x0000000000000000000000000000000000000000000880e2c2ece465d42dc58a000000000000000000000000000000000000000000000000000000000000000000000000000000000000000000000000000000000037e98765686e187ca0109d0000000000000000000000000000000000000000033ceec01b36fd7161ec8d4f000000000000000000000000000000000000000003464bae5210633fc5712cb7","logIndex":"0x8","removed":false,"topics":["0x804c9b842b2748a22bb64b345453a3de7ca54a6ca45ce00d415894979e22897a","0x00000000000000000000000078c1b0c915c4faa5fffa6cabf0219da63d7f4cb8"],"transactionHash":"0xdaa34148857fb0c15b1acc22b86d9477dc88604c4e4a10b28e425c31194ea32d","transactionIndex":"0x0"},{"address":"0x78c1b0c915c4faa5fffa6cabf0219da63d7f4cb8","blockHash":"0x7c76914131d3d39abe93b2500002581ffef84dea7cecb53402978fd03bf6a70f","blockNumber":"0xd001ab","data":"0x000000000000000000000000000000000000000000000000000aa87bee538000","logIndex":"0x9","removed":false,"topics":["0xddf252ad1be2c89b69c2b068fc378daa952ba7f163c4a11628f55a4df523b3ef","0x000000000000000000000000683696523512636b46a826a7e3d1b0658e8e2e1c","0x00000000000000000000000099b4d8f75969871a9fba915cfd0d372967161acb"],"transactionHash":"0xdaa34148857fb0c15b1acc22b86d9477dc88604c4e4a10b28e425c31194ea32d","transactionIndex":"0x0"},{"address":"0xcfa5ae7c2ce8fadc6426c1ff872ca45378fb7cf3","blockHash":"0x7c76914131d3d39abe93b2500002581ffef84dea7cecb53402978fd03bf6a70f","blockNumber":"0xd001ab","data":"0x00000000000000000000000099b4d8f75969871a9fba915cfd0d372967161acb000000000000000000000000000000000000000000000000000aa87bee538000000000000000000000000000000000000000000000000000000000000000000200000000000000000000000000000000000000000037e98765686e187ca0109d","logIndex":"0xa","removed":false,"topics":["0xc6a898309e823ee50bac64e45ca8adba6690e99e7841c45d754e2a38e9019d9b","0x00000000000000000000000078c1b0c915c4faa5fffa6cabf0219da63d7f4cb8","0x00000000000000000000000099b4d8f75969871a9fba915cfd0d372967161acb","0x0000000000000000000000000000000000000000000000000000000000000000"],"transactionHash":"0xdaa34148857fb0c15b1acc22b86d9477dc88604c4e4a10b28e425c31194ea32d","transactionIndex":"0x0"}],"logsBloom":"0x00000000010400000000020000408000000000000000000000000000004001000004000000000008100000000000040000000000000010000000000000000000100000000000000000000008000000000000080000040001000000000000000000000000020000000000000000000800000000008008000010000010000100000010000000000000000000000000000000100000000000000000000000001010000000008000000000810000000000000000020000000100000000000000010000010012000a000000000020000a0000000000000000000000010200000030000000000400000000000000000000020000000000001100040020000000800000","status":"0x1","transactionHash":"0xdaa34148857fb0c15b1acc22b86d9477dc88604c4e4a10b28e425c31194ea32d"}}}