{"block":{"difficulty":"0x2","extraData":"0xd98301090a846765746889676f312e31352e3133856c696e7578000000000000f8b129558b0a8ecd851363dfabffc6c9efd9e1605da2b39a9622c861952013a44fec71e37fa7f661a99321f495472853d33f3cf2fe2f7543adac3aa896d6bb8801","gasLimit":"0x1c9c380","gasUsed":"0x1e131","hash":"0xd10976b54d56dfd55f1e67fdb206aa45a7948aa4b71a3e6561a14c83d226168b","logsBloom":"0x40100000000000000000000000000000000000000001008800000000100000000000000000000000000000000002000000000000000000000000000000200000840000000040000000000008000000000000008000002004000000000000000000000001000000000000000100000000000000000000000000000010000000000000000000000000000000000000000000000000000000000008000000000000020000000000000000000000000000000000000001000020000100000000000000000002000000000000000000000000000000000000000000000000000000000010000000001000400000000000000000000000000000000000000000000000","miner":"0x0000000000000000000000000000000000000000","mixHash":"0x0000000000000000000000000000000000000000000000000000000000000000","nonce":"0x0000000000000000","number":"0xd00346","parentHash":"0x08c9c994e2f3bf1d25af8f2a1c70e85be453d1b35421afb4741a018bee9c9b99","receiptsRoot":"0x83b801aeb89bad160af8188f214c6f5a15a053c6508e28ff8e7b0a8e1b7bb829","sha3Uncles":"0x1dcc4de8dec75d7aab85b567b6ccd41ad312451b948a7413f0a142fd40d49347","size":"0x3d8","stateRoot":"0xd945cb94ac7e8795b892533dd6fd3fc5996b732834f017575c107838813e67d3","timestamp":"0x65243e70","totalDifficulty":"0x1a0068d","transactions":[{"blockHash":"0xd10976b54d56dfd55f1e67fdb206aa45a7948aa4b71a3e6561a14c83d226168b","blockNumber":"0xd00346","from":"0xd7094ec61467b428909576e19152269a7852d5d4","gas":"0x1f8c0","gasPrice":"0x2faf080","hash":"0x5782d25d27e8cb17b35939095746e517982d77a02ee50b1827a048270457e4b5","index":"0xd00345","input":"0x414bf389000000000000000000000000deaddeaddeaddeaddeaddeaddeaddeaddead1111000000000000000000000000201eba5cc46d216ce6dc03f6a759e8e766e956ae00000000000000000000000000000000000000000000000000000000000001f4000000000000000000000000d7094ec61467b428909576e19152269a7852d5d40000000000000000000000000000000000000000000000000000000065243e900000000000000000000000000000000000000000000000000001d463c80f300000000000000000000000000000000000000000000000000000000000000c3fb10000000000000000000000000000000000000000000000000000000000000000","l1BlockNumber":"0x11774e7","l1Timestamp":"0x65243e70","l1TxOrigin":null,"nonce":"0x121b","queueIndex":null,"queueOrigin":"sequencer","r":"0x801287bf1d005781a94e363f0f4d78fbe5141c564ac4e72dc46e4b5572f87a4c","rawTransaction":"0xf9016e82121b8402faf0808301f8c094319b69888b0d11cec22caa5034e25fffbdc8842180b90104414bf389000000000000000000000000deaddeaddeaddeaddeaddeaddeaddeaddead1111000000000000000000000000201eba5cc46d216ce6dc03f6a759e8e766e956ae00000000000000000000000000000000000000000000000000000000000001f4000000000000000000000000d7094ec61467b428909576e19152269a7852d5d40000000000000000000000000000000000000000000000000000000065243e900000000000000000000000000000000000000000000000000001d463c80f300000000000000000000000000000000000000000000000000000000000000c3fb10000000000000000000000000000000000000000000000000000000000000000822733a0801287bf1d005781a94e363f0f4d78fbe5141c564ac4e72dc46e4b5572f87a4ca07679c01baa8513e66547df8eb2383177acc7dcdeff78d5cb7d305d1435fe8f44","s":"0x7679c01baa8513e66547df8eb2383177acc7dcdeff78d5cb7d305d1435fe8f44","to":"0x319b69888b0d11cec22caa5034e25fffbdc88421","transactionIndex":"0x0","v":"0x2733","value":"0x0"}],"transactionsRoot":"0x57b8f1768ef638ca085992a728019aa519682c9214bd1ba665339efae483b6e9","uncles":[]},"receipts":{"0x5782d25d27e8cb17b35939095746e517982d77a02ee50b1827a048270457e4b5":{"blockHash":"0xd10976b54d56dfd55f1e67fdb206aa45a7948aa4b71a3e6561a14c83d226168b","blockNumber":"0xd00346","from":"0xd7094ec61467b428909576e19152269a7852d5d4","gas":"0x1f8c0","gasPrice":"0x2faf080","hash":"0x5782d25d27e8cb17b35939095746e517982d77a02ee50b1827a048270457e4b5","index":"0xd00345","input":"0x414bf389000000000000000000000000deaddeaddeaddeaddeaddeaddeaddeaddead1111000000000000000000000000201eba5cc46d216ce6dc03f6a759e8e766e956ae00000000000000000000000000000000000000000000000000000000000001f4000000000000000000000000d7094ec61467b428909576e19152269a7852d5d40000000000000000000000000000000000000000000000000000000065243e900000000000000000000000000000000000000000000000000001d463c80f300000000000000000000000000000000000000000000000000000000000000c3fb10000000000000000000000000000000000000000000000000000000000000000","l1BlockNumber":"0x11774e7","l1Timestamp":"0x65243e70","l1TxOrigin":null,"nonce":"0x121b","queueIndex":null,"queueOrigin":"sequencer","r":"0x801287bf1d005781a94e363f0f4d78fbe5141c564ac4e72dc46e4b5572f87a4c","rawTransaction":"0xf9016e82121b8402faf0808301f8c094319b69888b0d11cec22caa5034e25fffbdc8842180b90104414bf389000000000000000000000000deaddeaddeaddeaddeaddeaddeaddeaddead1111000000000000000000000000201eba5cc46d216ce6dc03f6a759e8e766e956ae00000000000000000000000000000000000000000000000000000000000001f4000000000000000000000000d7094ec61467b428909576e19152269a7852d5d40000000000000000000000000000000000000000000000000000000065243e900000000000000000000000000000000000000000000000000001d463c80f300000000000000000000000000000000000000000000000000000000000000c3fb10000000000000000000000000000000000000000000000000000000000000000822733a0801287bf1d005781a94e363f0f4d78fbe5141c564ac4e72dc46e4b5572f87a4ca07679c01baa8513e66547df8eb2383177acc7dcdeff78d5cb7d305d1435fe8f44","s":"0x7679c01baa8513e66547df8eb2383177acc7dcdeff78d5cb7d305d1435fe8f44","to":"0x319b69888b0d11cec22caa5034e25fffbdc88421","transactionIndex":"0x0","v":"0x2733","value":"0x0","contractAddress":null,"cumulativeGasUsed":"0x1e131","daFee":"0x0","daGasPrice":"0x0","daGasUsed":"0x12c","gasUsed":"0x1e131","l1Fee":"0x19709d787180660","l1FeeScalar":"1","l1GasPrice":"0x38a987f04864","l1GasUsed":"0x72f","logs":[{"address":"0x201eba5cc46d216ce6dc03f6a759e8e766e956ae","blockHash":"0xd10976b54d56dfd55f1e67fdb206aa45a7948aa4b71a3e6561a14c83d226168b","blockNumber":"0xd00346","data":"0x00000000000000000000000000000000000000000000000000000000000c7fb0","logIndex":"0x0","removed":false,"topics":["0xddf252ad1be2c89b69c2b068fc378daa952ba7f163c4a11628f55a4df523b3ef","0x000000000000000000000000628f7131cf43e88ebe3921ae78c4ba0c31872bd4","0x000000000000000000000000d7094ec61467b428909576e19152269a7852d5d4"],"transactionHash":"0x5782d25d27e8cb17b35939095746e517982d77a02ee50b1827a048270457e4b5","transactionIndex":"0x0"},{"address":"0xdeaddeaddeaddeaddeaddeaddeaddeaddead1111","blockHash":"0xd10976b54d56dfd55f1e67fdb206aa45a7948aa4b71a3e6561a14c83d226168b","blockNumber":"0xd00346","data":"0x0000000000000000000000000000000000000000000000000001d463c80f3000","logIndex":"0x1","removed":false,"topics":["0xddf252ad1be2c89b69c2b068fc378daa952ba7f163c4a11628f55a4df523b3ef","0x000000000000000000000000d7094ec61467b428909576e19152269a7852d5d4","0x000000000000000000000000628f7131cf43e88ebe3921ae78c4ba0c31872bd4"],"transactionHash":"0x5782d25d27e8cb17b35939095746e517982d77a02ee50b1827a048270457e4b5","transactionIndex":"0x0"},{"address":"0xdeaddeaddeaddeaddeaddeaddeaddeaddead1111","blockHash":"0xd10976b54d56dfd55f1e67fdb206aa45a7948aa4b71a3e6561a14c83d226168b","blockNumber":"0xd00346","data":"0xfffffffffffffffffffffffffffffffffffffffffffffffffacba94c04553fff","logIndex":"0x2","removed":false,"topics":["0x8c5be1e5ebec7d5bd14f71427d1e84f3dd0314c0f7b2291e5b200ac8c7c3b925","0x000000000000000000000000d7094ec61467b428909576e19152269a7852d5d4","0x000000000000000000000000319b69888b0d11cec22caa5034e25fffbdc88421"],"transactionHash":"0x5782d25d27e8cb17b35939095746e517982d77a02ee50b1827a048270457e4b5","transactionIndex":"0x0"},{"address":"0x628f7131cf43e88ebe3921ae78c4ba0c31872bd4","blockHash":"0xd10976b54d56dfd55f1e67fdb206aa45a7948aa4b71a3e6561a14c83d226168b","blockNumber":"0xd00346","data":"0xfffffffffffffffffffffffffffffffffffffffffffffffffffffffffff380500000000000000000000000000000000000000000000000000001d463c80f300000000000000000000000000000000000000061f15b4ea15f096bff3883caa3b000000000000000000000000000000000000000000000000000002c65dde06c2000000000000000000000000000000000000000000000000000000000000317690000000000000000000000000000000000000000000000000000000000000000000000000000000000000000000000000000000000000000000000146262fb80","logIndex":"0x3","removed":false,"topics":["0x19b47279256b2a23a1665c810c8d55a1758940ee09377d4f8d26497a3577dc83","0x000000000000000000000000319b69888b0d11cec22caa5034e25fffbdc88421","0x000000000000000000000000d7094ec61467b428909576e19152269a7852d5d4"],"transactionHash":"0x5782d25d27e8cb17b35939095746e517982d77a02ee50b1827a048270457e4b5","transactionIndex":"0x0"}],"logsBloom":"0x40100000000000000000000000000000000000000001008800000000100000000000000000000000000000000002000000000000000000000000000000200000840000000040000000000008000000000000008000002004000000000000000000000001000000000000000100000000000000000000000000000010000000000000000000000000000000000000000000000000000000000008000000000000020000000000000000000000000000000000000001000020000100000000000000000002000000000000000000000000000000000000000000000000000000000010000000001000400000000000000000000000000000000000000000000000","status":"0x1","transactionHash":"0x5782d25d27e8cb17b35939095746e517982d77a02ee50b1827a048270457e4b5"}}}