{"block":{"difficulty":"0x2","extraData":"0xd98301090a846765746889676f312e31352e3133856c696e7578000000000000958e2f04e5fbbf21683ec31ba3680ecb09e9763dbeba6257d99c9206684a04164e21b977cb096c3b87bcc6d9a639d8935ab47e4f79b75b91617995820506845801","gasLimit":"0x1c9c380","gasUsed":"0x1b64a","hash":"0x4678ab98836d6571907563a645e80491980dd0202c6e60a9f5e424788bcc26b7","logsBloom":"0x00000000000000000000000000000000000000000000008800000000000000000000040000000000000000000002000000000000000000000000000000200000140004000040000000000008000000000000000000040000000000000000000000000000000000000040000000000000010000000000100000000010000000000000000000000000000020000000000000100000400000000000000100000000020000000000000000000000000000000000000021000000000000000000000000000002000000000000000000000000000000000000000000001000000000000010000000004000000000000000000000000200000000000000000000000000","miner":"0x0000000000000000000000000000000000000000","mixHash":"0x0000000000000000000000000000000000000000000000000000000000000000","nonce":"0x0000000000000000","number":"0xd001fe","parentHash":"0xaf173676448bcadf6fc9befd109aa230c96786cc1d6fe7c950cf37b1f5394548","receiptsRoot":"0x7e1c5fecd272ae2c89bfb1cf487dda1ec30e80ae927baea41b5cd25c1d61f39a","sha3Uncles":"0x1dcc4de8dec75d7aab85b567b6ccd41ad312451b948a7413f0a142fd40d49347","size":"0x3d8","stateRoot":"0xd9aa2480f40e0b4ffce9c734b80fedd151fc9850ae495c2c11fbb16addf02806","timestamp":"0x65243dc8","totalDifficulty":"0x1a003fd","transactions":[{"blockHash":"0x4678ab98836d6571907563a645e80491980dd0202c6e60a9f5e424788bcc26b7","blockNumber":"0xd001fe","from":"0xc0326c199fa86aabb073a6fbd61b31e448563ab4","gas":"0x1e035","gasPrice":"0x2faf080","hash":"0x40a29128f1e37fda3c795d50f7728f44647dae86be2e44a7537c0e5fc6bd45cb","index":"0xd001fd","input":"0x414bf38900000000000000000000000097174506aafcc846a40832719bd8899a588bd05c00000000000000000000000078c1b0c915c4faa5fffa6cabf0219da63d7f4cb80000000000000000000000000000000000000000000000000000000000002710000000000000000000000000c0326c199fa86aabb073a6fbd61b31e448563ab40000000000000000000000000000000000000000000000000000000065243de900000000000000000000000000000000000000000000002f17f932d781471f5500000000000000000000000000000000000000000000000060d733eb2c2d50450000000000000000000000000000000000000000000000000000000000000000","l1BlockNumber":"0x11774d9","l1Timestamp":"0x65243dc8","l1TxOrigin":null,"nonce":"0x46b","queueIndex":null,"queueOrigin":"sequencer","r":"0x2ac4dd75628419277ed7bea55c357d0b1bcc52bd1ae1fb7a793f4ae1fab6221d","rawTransaction":"0xf9016e82046b8402faf0808301e03594319b69888b0d11cec22caa5034e25fffbdc8842180b90104414bf38900000000000000000000000097174506aafcc846a40832719bd8899a588bd05c00000000000000000000000078c1b0c915c4faa5fffa6cabf0219da63d7f4cb80000000000000000000000000000000000000000000000000000000000002710000000000000000000000000c0326c199fa86aabb073a6fbd61b31e448563ab40000000000000000000000000000000000000000000000000000000065243de900000000000000000000000000000000000000000000002f17f932d781471f5500000000000000000000000000000000000000000000000060d733eb2c2d50450000000000000000000000000000000000000000000000000000000000000000822734a02ac4dd75628419277ed7bea55c357d0b1bcc52bd1ae1fb7a793f4ae1fab6221da032f6f3de1026b7d4a123e34b86331c213312dcb3ea17fdc129d20de0a927a3ee","s":"0x32f6f3de1026b7d4a123e34b86331c213312dcb3ea17fdc129d20de0a927a3ee","to":"0x319b69888b0d11cec22caa5034e25fffbdc88421","transactionIndex":"0x0","v":"0x2734","value":"0x0"}],"transactionsRoot":"0x918e1e96fa0bbd9baa6ce95fd292183bae44400824992a17304501b0f5375245","uncles":[]},"receipts":{"0x40a29128f1e37fda3c795d50f7728f44647dae86be2e44a7537c0e5fc6bd45cb":{"blockHash":"0x4678ab98836d6571907563a645e80491980dd0202c6e60a9f5e424788bcc26b7","blockNumber":"0xd001fe","from":"0xc0326c199fa86aabb073a6fbd61b31e448563ab4","gas":"0x1e035","gasPrice":"0x2faf080","hash":"0x40a29128f1e37fda3c795d50f7728f44647dae86be2e44a7537c0e5fc6bd45cb","index":"0xd001fd","input":"0x414bf38900000000000000000000000097174506aafcc846a40832719bd8899a588bd05c00000000000000000000000078c1b0c915c4faa5fffa6cabf0219da63d7f4cb80000000000000000000000000000000000000000000000000000000000002710000000000000000000000000c0326c199fa86aabb073a6fbd61b31e448563ab40000000000000000000000000000000000000000000000000000000065243de900000000000000000000000000000000000000000000002f17f932d781471f5500000000000000000000000000000000000000000000000060d733eb2c2d50450000000000000000000000000000000000000000000000000000000000000000","l1BlockNumber":"0x11774d9","l1Timestamp":"0x65243dc8","l1TxOrigin":null,"nonce":"0x46b","queueIndex":null,"queueOrigin":"sequencer","r":"0x2ac4dd75628419277ed7bea55c357d0b1bcc52bd1ae1fb7a793f4ae1fab6221d","rawTransaction":"0xf9016e82046b8402faf0808301e03594319b69888b0d11cec22caa5034e25fffbdc8842180b90104414bf38900000000000000000000000097174506aafcc846a40832719bd8899a588bd05c00000000000000000000000078c1b0c915c4faa5fffa6cabf0219da63d7f4cb80000000000000000000000000000000000000000000000000000000000002710000000000000000000000000c0326c199fa86aabb073a6fbd61b31e448563ab40000000000000000000000000000000000000000000000000000000065243de900000000000000000000000000000000000000000000002f17f932d781471f5500000000000000000000000000000000000000000000000060d733eb2c2d50450000000000000000000000000000000000000000000000000000000000000000822734a02ac4dd75628419277ed7bea55c357d0b1bcc52bd1ae1fb7a793f4ae1fab6221da032f6f3de1026b7d4a123e34b86331c213312dcb3ea17fdc129d20de0a927a3ee","s":"0x32f6f3de1026b7d4a123e34b86331c213312dcb3ea17fdc129d20de0a927a3ee","to":"0x319b69888b0d11cec22caa5034e25fffbdc88421","transactionIndex":"0x0","v":"0x2734","value":"0x0","contractAddress":null,"cumulativeGasUsed":"0x1b64a","daFee":"0x0","daGasPrice":"0x0","daGasUsed":"0x12c","gasUsed":"0x1b64a","l1Fee":"0x19709d787180660","l1FeeScalar":"1","l1GasPrice":"0x38a987f04864","l1GasUsed":"0x72f","logs":[{"address":"0x78c1b0c915c4faa5fffa6cabf0219da63d7f4cb8","blockHash":"0x4678ab98836d6571907563a645e80491980dd0202c6e60a9f5e424788bcc26b7","blockNumber":"0xd001fe","data":"0x00000000000000000000000000000000000000000000000065f000c1a7c3e8b5","logIndex":"0x0","removed":false,"topics":["0xddf252ad1be2c89b69c2b068fc378daa952ba7f163c4a11628f55a4df523b3ef","0x0000000000000000000000003a873fe63bedad2e9f9b9b63bf8bedb5f1789167","0x000000000000000000000000c0326c199fa86aabb073a6fbd61b31e448563ab4"],"transactionHash":"0x40a29128f1e37fda3c795d50f7728f44647dae86be2e44a7537c0e5fc6bd45cb","transactionIndex":"0x0"},{"address":"0x97174506aafcc846a40832719bd8899a588bd05c","blockHash":"0x4678ab98836d6571907563a645e80491980dd0202c6e60a9f5e424788bcc26b7","blockNumber":"0xd001fe","data":"0x00000000000000000000000000000000000000000000002f17f932d781471f55","logIndex":"0x1","removed":false,"topics":["0xddf252ad1be2c89b69c2b068fc378daa952ba7f163c4a11628f55a4df523b3ef","0x000000000000000000000000c0326c199fa86aabb073a6fbd61b31e448563ab4","0x0000000000000000000000003a873fe63bedad2e9f9b9b63bf8bedb5f1789167"],"transactionHash":"0x40a29128f1e37fda3c795d50f7728f44647dae86be2e44a7537c0e5fc6bd45cb","transactionIndex":"0x0"},{"address":"0x97174506aafcc846a40832719bd8899a588bd05c","blockHash":"0x4678ab98836d6571907563a645e80491980dd0202c6e60a9f5e424788bcc26b7","blockNumber":"0xd001fe","data":"0xfffffffffffffffffffffffffffffffffffffffffffeb898b13836ae3dbd262c","logIndex":"0x2","removed":false,"topics":["0x8c5be1e5ebec7d5bd14f71427d1e84f3dd0314c0f7b2291e5b200ac8c7c3b925","0x000000000000000000000000c0326c199fa86aabb073a6fbd61b31e448563ab4","0x000000000000000000000000319b69888b0d11cec22caa5034e25fffbdc88421"],"transactionHash":"0x40a29128f1e37fda3c795d50f7728f44647dae86be2e44a7537c0e5fc6bd45cb","transactionIndex":"0x0"},{"address":"0x3a873fe63bedad2e9f9b9b63bf8bedb5f1789167","blockHash":"0x4678ab98836d6571907563a645e80491980dd0202c6e60a9f5e424788bcc26b7","blockNumber":"0xd001fe","data":"0xffffffffffffffffffffffffffffffffffffffffffffffff9a0fff3e583c174b00000000000000000000000000000000000000000000002f17f932d781471f55000000000000000000000000000000000000000ad2194397394bcb21c68308f500000000000000000000000000000000000000000004050e8f20b2f8a1c79e70000000000000000000000000000000000000000000000000000000000000ba0f0000000000000000000000000000000000000000000000000000000000000000000000000000000000000000000000000000000000000000269440e12681a944","logIndex":"0x3","removed":false,"topics":["0x19b47279256b2a23a1665c810c8d55a1758940ee09377d4f8d26497a3577dc83","0x000000000000000000000000319b69888b0d11cec22caa5034e25fffbdc88421","0x000000000000000000000000c0326c199fa86aabb073a6fbd61b31e448563ab4"],"transactionHash":"0x40a29128f1e37fda3c795d50f7728f44647dae86be2e44a7537c0e5fc6bd45cb","transactionIndex":"0x0"}],"logsBloom":"0x00000000000000000000000000000000000000000000008800000000000000000000040000000000000000000002000000000000000000000000000000200000140004000040000000000008000000000000000000040000000000000000000000000000000000000040000000000000010000000000100000000010000000000000000000000000000020000000000000100000400000000000000100000000020000000000000000000000000000000000000021000000000000000000000000000002000000000000000000000000000000000000000000001000000000000010000000004000000000000000000000000200000000000000000000000000","status":"0x1","transactionHash":"0x40a29128f1e37fda3c795d50f7728f44647dae86be2e44a7537c0e5fc6bd45cb"}}}