{"block":{"difficulty":"0x2","extraData":"0xd98301090a846765746889676f312e31352e3133856c696e7578000000000000ecc771d17dcacbcd1a7d54fd10d4e371070cdc2dfc556cd1231a447606b164df7fe812191bdc1cba1e31d94134cc4c707ba47335479968c8a66244addb60eb0d00","gasLimit":"0x1c9c380","gasUsed":"0x1d2d0","hash":"0x5309b175e176dde6887258e86c0cf16668da0aabef6734d15f1396ec0276449f","logsBloom":"0x40000000000000000000000000000000000010000001008800000000000000000000000000000000000000000002000000000000000000000000000000200000840000000040000000000008000000000000008000022004000000000000000000000001000000000000000100000000000000000000000000000010000000000000000000000000000000000000000000000000000000000008000000000000020000000000000000000000000000000000000001000020000100000000000000000002000000002000000000000000000000000000000000000000000000000010000000001000000000000000000000000000000000000000000000000000","miner":"0x0000000000000000000000000000000000000000","mixHash":"0x0000000000000000000000000000000000000000000000000000000000000000","nonce":"0x0000000000000000","number":"0xd001f6","parentHash":"0x11a54b3f731db62347aced3a52e6ca96c8c811a3904e71f77ab60b6c646a6c95","receiptsRoot":"0xa5b90bdc7dabd3e8d09e028b41425f4433127d78e34ee92054f87744e2ef28d9","sha3Uncles":"0x1dcc4de8dec75d7aab85b567b6ccd41ad312451b948a7413f0a142fd40d49347","size":"0x3d8","stateRoot":"0x4ba1189e038d9a505256941d74659af62d8e08d8dc36ce760d426ec55adc6485","timestamp":"0x65243dc3","totalDifficulty":"0x1a003ed","transactions":[{"blockHash":"0x5309b175e176dde6887258e86c0cf16668da0aabef6734d15f1396ec0276449f","blockNumber":"0xd001f6","from":"0xfda96db66076c78bcb22c384f6baeda520fc3a41","gas":"0x27257","gasPrice":"0x2faf080","hash":"0xac9bddf193670f8483071c46f1340202d2b9a4a1aeb85a6e5fd0a2d3b23f2d82","index":"0xd001f5","input":"0x414bf389000000000000000000000000201eba5cc46d216ce6dc03f6a759e8e766e956ae000000000000000000000000deaddeaddeaddeaddeaddeaddeaddeaddead111100000000000000000000000000000000000000000000000000000000000001f4000000000000000000000000fda96db66076c78bcb22c384f6baeda520fc3a410000000000000000000000000000000000000000000000000000000065243de400000000000000000000000000000000000000000000000000000000000dbba00000000000000000000000000000000000000000000000000001faf03dcbd2560000000000000000000000000000000000000000000000000000000000000000","l1BlockNumber":"0x11774d9","l1Timestamp":"0x65243dc3","l1TxOrigin":null,"nonce":"0xd8a","queueIndex":null,"queueOrigin":"sequencer","r":"0xa7dc4c2082cdd0b10b1064f9702e47a921d399e736948397b2cd97dacc4ff81d","rawTransaction":"0xf9016e820d8a8402faf0808302725794319b69888b0d11cec22caa5034e25fffbdc8842180b90104414bf389000000000000000000000000201eba5cc46d216ce6dc03f6a759e8e766e956ae000000000000000000000000deaddeaddeaddeaddeaddeaddeaddeaddead111100000000000000000000000000000000000000000000000000000000000001f4000000000000000000000000fda96db66076c78bcb22c384f6baeda520fc3a410000000000000000000000000000000000000000000000000000000065243de400000000000000000000000000000000000000000000000000000000000dbba00000000000000000000000000000000000000000000000000001faf03dcbd2560000000000000000000000000000000000000000000000000000000000000000822733a0a7dc4c2082cdd0b10b1064f9702e47a921d399e736948397b2cd97dacc4ff81da06d4066c40461f5b395d4708730fcf15d6f4cc065a84cf67e9808ff0bf3cc7087","s":"0x6d4066c40461f5b395d4708730fcf15d6f4cc065a84cf67e9808ff0bf3cc7087","to":"0x319b69888b0d11cec22caa5034e25fffbdc88421","transactionIndex":"0x0","v":"0x2733","value":"0x0"}],"transactionsRoot":"0xe31863db51369675ce2e558b001631be221751bb05fcc589d7318376d87b48b2","uncles":[]},"receipts":{"0xac9bddf193670f8483071c46f1340202d2b9a4a1aeb85a6e5fd0a2d3b23f2d82":{"blockHash":"0x5309b175e176dde6887258e86c0cf16668da0aabef6734d15f1396ec0276449f","blockNumber":"0xd001f6","from":"0xfda96db66076c78bcb22c384f6baeda520fc3a41","gas":"0x27257","gasPrice":"0x2faf080","hash":"0xac9bddf193670f8483071c46f1340202d2b9a4a1aeb85a6e5fd0a2d3b23f2d82","index":"0xd001f5","input":"0x414bf389000000000000000000000000201eba5cc46d216ce6dc03f6a759e8e766e956ae000000000000000000000000deaddeaddeaddeaddeaddeaddeaddeaddead111100000000000000000000000000000000000000000000000000000000000001f4000000000000000000000000fda96db66076c78bcb22c384f6baeda520fc3a410000000000000000000000000000000000000000000000000000000065243de400000000000000000000000000000000000000000000000000000000000dbba00000000000000000000000000000000000000000000000000001faf03dcbd2560000000000000000000000000000000000000000000000000000000000000000","l1BlockNumber":"0x11774d9","l1Timestamp":"0x65243dc3","l1TxOrigin":null,"nonce":"0xd8a","queueIndex":null,"queueOrigin":"sequencer","r":"0xa7dc4c2082cdd0b10b1064f9702e47a921d399e736948397b2cd97dacc4ff81d","rawTransaction":"0xf9016e820d8a8402faf0808302725794319b69888b0d11cec22caa5034e25fffbdc8842180b90104414bf389000000000000000000000000201eba5cc46d216ce6dc03f6a759e8e766e956ae000000000000000000000000deaddeaddeaddeaddeaddeaddeaddeaddead111100000000000000000000000000000000000000000000000000000000000001f4000000000000000000000000fda96db66076c78bcb22c384f6baeda520fc3a410000000000000000000000000000000000000000000000000000000065243de400000000000000000000000000000000000000000000000000000000000dbba00000000000000000000000000000000000000000000000000001faf03dcbd2560000000000000000000000000000000000000000000000000000000000000000822733a0a7dc4c2082cdd0b10b1064f9702e47a921d399e736948397b2cd97dacc4ff81da06d4066c40461f5b395d4708730fcf15d6f4cc065a84cf67e9808ff0bf3cc7087","s":"0x6d4066c40461f5b395d4708730fcf15d6f4cc065a84cf67e9808ff0bf3cc7087","to":"0x319b69888b0d11cec22caa5034e25fffbdc88421","transactionIndex":"0x0","v":"0x2733","value":"0x0","contractAddress":null,"cumulativeGasUsed":"0x1d2d0","daFee":"0x0","daGasPrice":"0x0","daGasUsed":"0x12c","gasUsed":"0x1d2d0","l1Fee":"0x19709d787180660","l1FeeScalar":"1","l1GasPrice":"0x38a987f04864","l1GasUsed":"0x72f","logs":[{"address":"0xdeaddeaddeaddeaddeaddeaddeaddeaddead1111","blockHash":"0x5309b175e176dde6887258e86c0cf16668da0aabef6734d15f1396ec0276449f","blockNumber":"0xd001f6","data":"0x000000000000000000000000000000000000000000000000000205bf914d9043","logIndex":"0x0","removed":false,"topics":["0xddf252ad1be2c89b69c2b068fc378daa952ba7f163c4a11628f55a4df523b3ef","0x000000000000000000000000628f7131cf43e88ebe3921ae78c4ba0c31872bd4","0x000000000000000000000000fda96db66076c78bcb22c384f6baeda520fc3a41"],"transactionHash":"0xac9bddf193670f8483071c46f1340202d2b9a4a1aeb85a6e5fd0a2d3b23f2d82","transactionIndex":"0x0"},{"address":"0x201eba5cc46d216ce6dc03f6a759e8e766e956ae","blockHash":"0x5309b175e176dde6887258e86c0cf16668da0aabef6734d15f1396ec0276449f","blockNumber":"0xd001f6","data":"0x00000000000000000000000000000000000000000000000000000000000dbba0","logIndex":"0x1","removed":false,"topics":["0xddf252ad1be2c89b69c2b068fc378daa952ba7f163c4a11628f55a4df523b3ef","0x000000000000000000000000fda96db66076c78bcb22c384f6baeda520fc3a41","0x000000000000000000000000628f7131cf43e88ebe3921ae78c4ba0c31872bd4"],"transactionHash":"0xac9bddf193670f8483071c46f1340202d2b9a4a1aeb85a6e5fd0a2d3b23f2d82","transactionIndex":"0x0"},{"address":"0x201eba5cc46d216ce6dc03f6a759e8e766e956ae","blockHash":"0x5309b175e176dde6887258e86c0cf16668da0aabef6734d15f1396ec0276449f","blockNumber":"0xd001f6","data":"0xffffffffffffffffffffffffffffffffffffffffffffffffffffffffa0d3874f","logIndex":"0x2","removed":false,"topics":["0x8c5be1e5ebec7d5bd14f71427d1e84f3dd0314c0f7b2291e5b200ac8c7c3b925","0x000000000000000000000000fda96db66076c78bcb22c384f6baeda520fc3a41","0x000000000000000000000000319b69888b0d11cec22caa5034e25fffbdc88421"],"transactionHash":"0xac9bddf193670f8483071c46f1340202d2b9a4a1aeb85a6e5fd0a2d3b23f2d82","transactionIndex":"0x0"},{"address":"0x628f7131cf43e88ebe3921ae78c4ba0c31872bd4","blockHash":"0x5309b175e176dde6887258e86c0cf16668da0aabef6734d15f1396ec0276449f","blockNumber":"0xd001f6","data":"0x00000000000000000000000000000000000000000000000000000000000dbba0fffffffffffffffffffffffffffffffffffffffffffffffffffdfa406eb26fbd000000000000000000000000000000000000623e7673ca79dd4b8ebd635a2f7e00000000000000000000000000000000000000000000000000002c69f6c7ad9d00000000000000000000000000000000000000000000000000000000000317a600000000000000000000000000000000000000000000000000000000000000990000000000000000000000000000000000000000000000000000000000000000","logIndex":"0x3","removed":false,"topics":["0x19b47279256b2a23a1665c810c8d55a1758940ee09377d4f8d26497a3577dc83","0x000000000000000000000000319b69888b0d11cec22caa5034e25fffbdc88421","0x000000000000000000000000fda96db66076c78bcb22c384f6baeda520fc3a41"],"transactionHash":"0xac9bddf193670f8483071c46f1340202d2b9a4a1aeb85a6e5fd0a2d3b23f2d82","transactionIndex":"0x0"}],"logsBloom":"0x40000000000000000000000000000000000010000001008800000000000000000000000000000000000000000002000000000000000000000000000000200000840000000040000000000008000000000000008000022004000000000000000000000001000000000000000100000000000000000000000000000010000000000000000000000000000000000000000000000000000000000008000000000000020000000000000000000000000000000000000001000020000100000000000000000002000000002000000000000000000000000000000000000000000000000010000000001000000000000000000000000000000000000000000000000000","status":"0x1","transactionHash":"0xac9bddf193670f8483071c46f1340202d2b9a4a1aeb85a6e5fd0a2d3b23f2d82"}}}