{"block":{"difficulty":"0x2","extraData":"0xd98301090a846765746889676f312e31352e3133856c696e7578000000000000557e728b26d56fb288786070523a9c8f7fb6607f520f6b76fb918266aa8abd343dda4d8c47ebb8dd9cd99b19a0fc2b4c8ed855a72e0bec6f908bc208237084b000","gasLimit":"0x1c9c380","gasUsed":"0x1e1fe","hash":"0x8b1f375b62d870e744fa5c401d80a9527c175439a45bfb5f8c88025610e96529","logsBloom":"0x40000000000000000000000000000000000000000001008800000000100000000000000000000000000000001002000000000000000000000000000004200000840000000040000000000008000000000000008000002004000000000000000000000001000000000000000100000000000000000000000000000010000000000000000000000000000000000000000000000000000000000008000000000000020000000000000000000000000000000000000001000020000100000000000000000002000000000000000000000000000000000000000000000000000000000010000000001000000000000000000000000000000000000000000000000000","miner":"0x0000000000000000000000000000000000000000","mixHash":"0x0000000000000000000000000000000000000000000000000000000000000000","nonce":"0x0000000000000000","number":"0xd0021a","parentHash":"0x1b78db36564a21e49b64fc4b390ee856efdaad561ab1654614aa9374b8450bb5","receiptsRoot":"0x1922524a00784dfda39cdbbb8247da20f90a71ccccc7efebd327f24a3cbfeef8","sha3Uncles":"0x1dcc4de8dec75d7aab85b567b6ccd41ad312451b948a7413f0a142fd40d49347","size":"0x3d8","stateRoot":"0x01e4d0cde768d718742bf401d59b62115884d6ff8f2f2b3698f50913b8d26504","timestamp":"0x65243dd7","totalDifficulty":"0x1a00435","transactions":[{"blockHash":"0x8b1f375b62d870e744fa5c401d80a9527c175439a45bfb5f8c88025610e96529","blockNumber":"0xd0021a","from":"0xc89fe6e6eb4f9064c166699380cb31181e03fdf4","gas":"0x1f99a","gasPrice":"0x2faf080","hash":"0x9706279e5a3fd9cd053aeadf2a59021edea7e166ea12f5b7ee496f2e0b94bf44","index":"0xd00219","input":"0x414bf389000000000000000000000000201eba5cc46d216ce6dc03f6a759e8e766e956ae000000000000000000000000deaddeaddeaddeaddeaddeaddeaddeaddead111100000000000000000000000000000000000000000000000000000000000001f4000000000000000000000000c89fe6e6eb4f9064c166699380cb31181e03fdf40000000000000000000000000000000000000000000000000000000065243df600000000000000000000000000000000000000000000000000000000001583d000000000000000000000000000000000000000000000000000031b49ddffd3180000000000000000000000000000000000000000000000000000000000000000","l1BlockNumber":"0x11774da","l1Timestamp":"0x65243dd7","l1TxOrigin":null,"nonce":"0x902","queueIndex":null,"queueOrigin":"sequencer","r":"0x7a20fe06558219d0f43b13e37109ed3aff646daf2ec9955168595604f9d4006f","rawTransaction":"0xf9016e8209028402faf0808301f99a94319b69888b0d11cec22caa5034e25fffbdc8842180b90104414bf389000000000000000000000000201eba5cc46d216ce6dc03f6a759e8e766e956ae000000000000000000000000deaddeaddeaddeaddeaddeaddeaddeaddead111100000000000000000000000000000000000000000000000000000000000001f4000000000000000000000000c89fe6e6eb4f9064c166699380cb31181e03fdf40000000000000000000000000000000000000000000000000000000065243df600000000000000000000000000000000000000000000000000000000001583d000000000000000000000000000000000000000000000000000031b49ddffd3180000000000000000000000000000000000000000000000000000000000000000822734a07a20fe06558219d0f43b13e37109ed3aff646daf2ec9955168595604f9d4006fa046da8b4f2f43c464491c2b754cd38f4acd38229389a97c215f9c9dd8aca7100b","s":"0x46da8b4f2f43c464491c2b754cd38f4acd38229389a97c215f9c9dd8aca7100b","to":"0x319b69888b0d11cec22caa5034e25fffbdc88421","transactionIndex":"0x0","v":"0x2734","value":"0x0"}],"transactionsRoot":"0x21e413f9f5b6c1e81bf1b4ef782a4f0e34d5f6d7743351c730eff7e5d7e950de","uncles":[]},"receipts":{"0x9706279e5a3fd9cd053aeadf2a59021edea7e166ea12f5b7ee496f2e0b94bf44":{"blockHash":"0x8b1f375b62d870e744fa5c401d80a9527c175439a45bfb5f8c88025610e96529","blockNumber":"0xd0021a","from":"0xc89fe6e6eb4f9064c166699380cb31181e03fdf4","gas":"0x1f99a","gasPrice":"0x2faf080","hash":"0x9706279e5a3fd9cd053aeadf2a59021edea7e166ea12f5b7ee496f2e0b94bf44","index":"0xd00219","input":"0x414bf389000000000000000000000000201eba5cc46d216ce6dc03f6a759e8e766e956ae000000000000000000000000deaddeaddeaddeaddeaddeaddeaddeaddead111100000000000000000000000000000000000000000000000000000000000001f4000000000000000000000000c89fe6e6eb4f9064c166699380cb31181e03fdf40000000000000000000000000000000000000000000000000000000065243df600000000000000000000000000000000000000000000000000000000001583d000000000000000000000000000000000000000000000000000031b49ddffd3180000000000000000000000000000000000000000000000000000000000000000","l1BlockNumber":"0x11774da","l1Timestamp":"0x65243dd7","l1TxOrigin":null,"nonce":"0x902","queueIndex":null,"queueOrigin":"sequencer","r":"0x7a20fe06558219d0f43b13e37109ed3aff646daf2ec9955168595604f9d4006f","rawTransaction":"0xf9016e8209028402faf0808301f99a94319b69888b0d11cec22caa5034e25fffbdc8842180b90104414bf389000000000000000000000000201eba5cc46d216ce6dc03f6a759e8e766e956ae000000000000000000000000deaddeaddeaddeaddeaddeaddeaddeaddead111100000000000000000000000000000000000000000000000000000000000001f4000000000000000000000000c89fe6e6eb4f9064c166699380cb31181e03fdf40000000000000000000000000000000000000000000000000000000065243df600000000000000000000000000000000000000000000000000000000001583d000000000000000000000000000000000000000000000000000031b49ddffd3180000000000000000000000000000000000000000000000000000000000000000822734a07a20fe06558219d0f43b13e37109ed3aff646daf2ec9955168595604f9d4006fa046da8b4f2f43c464491c2b754cd38f4acd38229389a97c215f9c9dd8aca7100b","s":"0x46da8b4f2f43c464491c2b754cd38f4acd38229389a97c215f9c9dd8aca7100b","to":"0x319b69888b0d11cec22caa5034e25fffbdc88421","transactionIndex":"0x0","v":"0x2734","value":"0x0","contractAddress":null,"cumulativeGasUsed":"0x1e1fe","daFee":"0x0","daGasPrice":"0x0","daGasUsed":"0x12c","gasUsed":"0x1e1fe","l1Fee":"0x19709d787180660","l1FeeScalar":"1","l1GasPrice":"0x38a987f04864","l1GasUsed":"0x72f","logs":[{"address":"0xdeaddeaddeaddeaddeaddeaddeaddeaddead1111","blockHash":"0x8b1f375b62d870e744fa5c401d80a9527c175439a45bfb5f8c88025610e96529","blockNumber":"0xd0021a","data":"0x00000000000000000000000000000000000000000000000000032b84d814b80f","logIndex":"0x0","removed":false,"topics":["0xddf252ad1be2c89b69c2b068fc378daa952ba7f163c4a11628f55a4df523b3ef","0x000000000000000000000000628f7131cf43e88ebe3921ae78c4ba0c31872bd4","0x000000000000000000000000c89fe6e6eb4f9064c166699380cb31181e03fdf4"],"transactionHash":"0x9706279e5a3fd9cd053aeadf2a59021edea7e166ea12f5b7ee496f2e0b94bf44","transactionIndex":"0x0"},{"address":"0x201eba5cc46d216ce6dc03f6a759e8e766e956ae","blockHash":"0x8b1f375b62d870e744fa5c401d80a9527c175439a45bfb5f8c88025610e96529","blockNumber":"0xd0021a","data":"0x00000000000000000000000000000000000000000000000000000000001583d0","logIndex":"0x1","removed":false,"topics":["0xddf252ad1be2c89b69c2b068fc378daa952ba7f163c4a11628f55a4df523b3ef","0x000000000000000000000000c89fe6e6eb4f9064c166699380cb31181e03fdf4","0x000000000000000000000000628f7131cf43e88ebe3921ae78c4ba0c31872bd4"],"transactionHash":"0x9706279e5a3fd9cd053aeadf2a59021edea7e166ea12f5b7ee496f2e0b94bf44","transactionIndex":"0x0"},{"address":"0x201eba5cc46d216ce6dc03f6a759e8e766e956ae","blockHash":"0x8b1f375b62d870e744fa5c401d80a9527c175439a45bfb5f8c88025610e96529","blockNumber":"0xd0021a","data":"0xffffffffffffffffffffffffffffffffffffffffffffffffffffffffc48233df","logIndex":"0x2","removed":false,"topics":["0x8c5be1e5ebec7d5bd14f71427d1e84f3dd0314c0f7b2291e5b200ac8c7c3b925","0x000000000000000000000000c89fe6e6eb4f9064c166699380cb31181e03fdf4","0x000000000000000000000000319b69888b0d11cec22caa5034e25fffbdc88421"],"transactionHash":"0x9706279e5a3fd9cd053aeadf2a59021edea7e166ea12f5b7ee496f2e0b94bf44","transactionIndex":"0x0"},{"address":"0x628f7131cf43e88ebe3921ae78c4ba0c31872bd4","blockHash":"0x8b1f375b62d870e744fa5c401d80a9527c175439a45bfb5f8c88025610e96529","blockNumber":"0xd0021a","data":"0x00000000000000000000000000000000000000000000000000000000001583d0fffffffffffffffffffffffffffffffffffffffffffffffffffcd47b27eb47f100000000000000000000000000000000000062410bfebb941a6f81cbda0ca0fb00000000000000000000000000000000000000000000000000002c69f6c7ad9d00000000000000000000000000000000000000000000000000000000000317a800000000000000000000000000000000000000000000000000000000000000ef0000000000000000000000000000000000000000000000000000000000000000","logIndex":"0x3","removed":false,"topics":["0x19b47279256b2a23a1665c810c8d55a1758940ee09377d4f8d26497a3577dc83","0x000000000000000000000000319b69888b0d11cec22caa5034e25fffbdc88421","0x000000000000000000000000c89fe6e6eb4f9064c166699380cb31181e03fdf4"],"transactionHash":"0x9706279e5a3fd9cd053aeadf2a59021edea7e166ea12f5b7ee496f2e0b94bf44","transactionIndex":"0x0"}],"logsBloom":"0x40000000000000000000000000000000000000000001008800000000100000000000000000000000000000001002000000000000000000000000000004200000840000000040000000000008000000000000008000002004000000000000000000000001000000000000000100000000000000000000000000000010000000000000000000000000000000000000000000000000000000000008000000000000020000000000000000000000000000000000000001000020000100000000000000000002000000000000000000000000000000000000000000000000000000000010000000001000000000000000000000000000000000000000000000000000","status":"0x1","transactionHash":"0x9706279e5a3fd9cd053aeadf2a59021edea7e166ea12f5b7ee496f2e0b94bf44"}}}