{"block":{"difficulty":"0x2","extraData":"0xd98301090a846765746889676f312e31352e3133856c696e757800000000000055ffc20bc317507c2603e22a6789f0c500360d82fcfa03730c7e6ec5eda0e3b9117c48520a1700fc1fe93a35840a577ab1c3541018092ddf5b98f18139c6283c01","gasLimit":"0x1c9c380","gasUsed":"0x204dd","hash":"0x9d9713392ab148fe1fc406bfd314f5841e8995e5592a28be8949fc42d167f765","logsBloom":"0x0000000000000000000000000000000000004000000100880000000000000000000000000000000000000000000200000000000000200000000000000000004004800000004400000000000800000000000000c000002000000000000000000000000000000000000000000000000000000000100000800000000010000000000000000000000000000000000000000000000000000000000000000000000000000000000000000000000000000000000000000001000000000000000000000000000002000000000000000000000000002000000000000000000000000000000000000000000000000000000000000000000000800030000000000000000000","miner":"0x0000000000000000000000000000000000000000","mixHash":"0x0000000000000000000000000000000000000000000000000000000000000000","nonce":"0x0000000000000000","number":"0xd00059","parentHash":"0x96606f8f72323dff3aee0056bfe70171831562784f26c61b25374a93d852ecb0","receiptsRoot":"0xbbab9bf636d45f5d29ac22e30454623950dc183b21792a27398ae68443338e28","sha3Uncles":"0x1dcc4de8dec75d7aab85b567b6ccd41ad312451b948a7413f0a142fd40d49347","size":"0x3d8","stateRoot":"0x917ca5b4818974c0cdfc5b2cd7f2d301879a04c6174bc5ec9745fbb94cedef91","timestamp":"0x65243cf2","totalDifficulty":"0x1a000b3","transactions":[{"blockHash":"0x9d9713392ab148fe1fc406bfd314f5841e8995e5592a28be8949fc42d167f765","blockNumber":"0xd00059","from":"0x70353547cff976b670814c0cd9deabeb51ff6a1c","gas":"0x21d08","gasPrice":"0x2faf080","hash":"0x7a0681606de25170f319e3f43ce63d735272eea232a10fde511124d629e2d9bc","index":"0xd00058","input":"0x414bf38900000000000000000000000009bc4e0d864854c6afb6eb9a9cdf58ac190d0df9000000000000000000000000201eba5cc46d216ce6dc03f6a759e8e766e956ae000000000000000000000000000000000000000000000000000000000000006400000000000000000000000070353547cff976b670814c0cd9deabeb51ff6a1c0000000000000000000000000000000000000000000000000000000065243d1300000000000000000000000000000000000000000000000000000000001a65d0000000000000000000000000000000000000000000000000000000000019dbca0000000000000000000000000000000000000000000000000000000000000000","l1BlockNumber":"0x11774c7","l1Timestamp":"0x65243cf2","l1TxOrigin":null,"nonce":"0xf41","queueIndex":null,"queueOrigin":"sequencer","r":"0x9d1d39c00d453f2bd603fae5b6c3a78d06916fea9e99d10828e6376534483aca","rawTransaction":"0xf9016e820f418402faf08083021d0894319b69888b0d11cec22caa5034e25fffbdc8842180b90104414bf38900000000000000000000000009bc4e0d864854c6afb6eb9a9cdf58ac190d0df9000000000000000000000000201eba5cc46d216ce6dc03f6a759e8e766e956ae000000000000000000000000000000000000000000000000000000000000006400000000000000000000000070353547cff976b670814c0cd9deabeb51ff6a1c0000000000000000000000000000000000000000000000000000000065243d1300000000000000000000000000000000000000000000000000000000001a65d0000000000000000000000000000000000000000000000000000000000019dbca0000000000000000000000000000000000000000000000000000000000000000822733a09d1d39c00d453f2bd603fae5b6c3a78d06916fea9e99d10828e6376534483acaa03523c9e57f911234b70b18d4944411fb95061d23e9c1af6f3d283864f9c7b424","s":"0x3523c9e57f911234b70b18d4944411fb95061d23e9c1af6f3d283864f9c7b424","to":"0x319b69888b0d11cec22caa5034e25fffbdc88421","transactionIndex":"0x0","v":"0x2733","value":"0x0"}],"transactionsRoot":"0x1e4cfb62af61b3c5ddd80ef9892595394f346a4bda6e2ef923e75a4bcf5fdbb0","uncles":[]},"receipts":{"0x7a0681606de25170f319e3f43ce63d735272eea232a10fde511124d629e2d9bc":{"blockHash":"0x9d9713392ab148fe1fc406bfd314f5841e8995e5592a28be8949fc42d167f765","blockNumber":"0xd00059","from":"0x70353547cff976b670814c0cd9deabeb51ff6a1c","gas":"0x21d08","gasPrice":"0x2faf080","hash":"0x7a0681606de25170f319e3f43ce63d735272eea232a10fde511124d629e2d9bc","index":"0xd00058","input":"0x414bf38900000000000000000000000009bc4e0d864854c6afb6eb9a9cdf58ac190d0df9000000000000000000000000201eba5cc46d216ce6dc03f6a759e8e766e956ae000000000000000000000000000000000000000000000000000000000000006400000000000000000000000070353547cff976b670814c0cd9deabeb51ff6a1c0000000000000000000000000000000000000000000000000000000065243d1300000000000000000000000000000000000000000000000000000000001a65d0000000000000000000000000000000000000000000000000000000000019dbca0000000000000000000000000000000000000000000000000000000000000000","l1BlockNumber":"0x11774c7","l1Timestamp":"0x65243cf2","l1TxOrigin":null,"nonce":"0xf41","queueIndex":null,"queueOrigin":"sequencer","r":"0x9d1d39c00d453f2bd603fae5b6c3a78d06916fea9e99d10828e6376534483aca","rawTransaction":"0xf9016e820f418402faf08083021d0894319b69888b0d11cec22caa5034e25fffbdc8842180b90104414bf38900000000000000000000000009bc4e0d864854c6afb6eb9a9cdf58ac190d0df9000000000000000000000000201eba5cc46d216ce6dc03f6a759e8e766e956ae000000000000000000000000000000000000000000000000000000000000006400000000000000000000000070353547cff976b670814c0cd9deabeb51ff6a1c0000000000000000000000000000000000000000000000000000000065243d1300000000000000000000000000000000000000000000000000000000001a65d0000000000000000000000000000000000000000000000000000000000019dbca0000000000000000000000000000000000000000000000000000000000000000822733a09d1d39c00d453f2bd603fae5b6c3a78d06916fea9e99d10828e6376534483acaa03523c9e57f911234b70b18d4944411fb95061d23e9c1af6f3d283864f9c7b424","s":"0x3523c9e57f911234b70b18d4944411fb95061d23e9c1af6f3d283864f9c7b424","to":"0x319b69888b0d11cec22caa5034e25fffbdc88421","transactionIndex":"0x0","v":"0x2733","value":"0x0","contractAddress":null,"cumulativeGasUsed":"0x204dd","daFee":"0x0","daGasPrice":"0x0","daGasUsed":"0x12c","gasUsed":"0x204dd","l1Fee":"0x1a09f6380cb9fe0","l1FeeScalar":"1","l1GasPrice":"0x39ff1464e55c","l1GasUsed":"0x72f","logs":[{"address":"0x201eba5cc46d216ce6dc03f6a759e8e766e956ae","blockHash":"0x9d9713392ab148fe1fc406bfd314f5841e8995e5592a28be8949fc42d167f765","blockNumber":"0xd00059","data":"0x00000000000000000000000000000000000000000000000000000000001a62e4","logIndex":"0x0","removed":false,"topics":["0xddf252ad1be2c89b69c2b068fc378daa952ba7f163c4a11628f55a4df523b3ef","0x0000000000000000000000006488f911c6cd86c289aa319c5a826dcf8f1ca065","0x00000000000000000000000070353547cff976b670814c0cd9deabeb51ff6a1c"],"transactionHash":"0x7a0681606de25170f319e3f43ce63d735272eea232a10fde511124d629e2d9bc","transactionIndex":"0x0"},{"address":"0x09bc4e0d864854c6afb6eb9a9cdf58ac190d0df9","blockHash":"0x9d9713392ab148fe1fc406bfd314f5841e8995e5592a28be8949fc42d167f765","blockNumber":"0xd00059","data":"0x00000000000000000000000000000000000000000000000000000000001a65d0","logIndex":"0x1","removed":false,"topics":["0xddf252ad1be2c89b69c2b068fc378daa952ba7f163c4a11628f55a4df523b3ef","0x00000000000000000000000070353547cff976b670814c0cd9deabeb51ff6a1c","0x0000000000000000000000006488f911c6cd86c289aa319c5a826dcf8f1ca065"],"transactionHash":"0x7a0681606de25170f319e3f43ce63d735272eea232a10fde511124d629e2d9bc","transactionIndex":"0x0"},{"address":"0x6488f911c6cd86c289aa319c5a826dcf8f1ca065","blockHash":"0x9d9713392ab148fe1fc406bfd314f5841e8995e5592a28be8949fc42d167f765","blockNumber":"0xd00059","data":"0x00000000000000000000000000000000000000000000000000000000001a65d0ffffffffffffffffffffffffffffffffffffffffffffffffffffffffffe59d1c0000000000000000000000000000000000000000fff520184bb61005650da2ef0000000000000000000000000000000000000000000000000000aa91ae904e92fffffffffffffffffffffffffffffffffffffffffffffffffffffffffffffffc00000000000000000000000000000000000000000000000000000000000000390000000000000000000000000000000000000000000000000000000000000000","logIndex":"0x2","removed":false,"topics":["0x19b47279256b2a23a1665c810c8d55a1758940ee09377d4f8d26497a3577dc83","0x000000000000000000000000319b69888b0d11cec22caa5034e25fffbdc88421","0x00000000000000000000000070353547cff976b670814c0cd9deabeb51ff6a1c"],"transactionHash":"0x7a0681606de25170f319e3f43ce63d735272eea232a10fde511124d629e2d9bc","transactionIndex":"0x0"}],"logsBloom":"0x0000000000000000000000000000000000004000000100880000000000000000000000000000000000000000000200000000000000200000000000000000004004800000004400000000000800000000000000c000002000000000000000000000000000000000000000000000000000000000100000800000000010000000000000000000000000000000000000000000000000000000000000000000000000000000000000000000000000000000000000000001000000000000000000000000000002000000000000000000000000002000000000000000000000000000000000000000000000000000000000000000000000800030000000000000000000","status":"0x1","transactionHash":"0x7a0681606de25170f319e3f43ce63d735272eea232a10fde511124d629e2d9bc"}}}