{"block":{"difficulty":"0x2","extraData":"0xd98301090a846765746889676f312e31352e3133856c696e757800000000000019d7221314475f46c61667fd60932d93e31435228b0eba68a9d51b82a70003fb4882a1bca268d7383149d06a6769d0ec1b17186c70f5dbd27c6e9becdcfc521f01","gasLimit":"0x1c9c380","gasUsed":"0xcb09","hash":"0xbb95672c4138dbef3dbca64b210926f0b86114004a3e58761f92e8e71dba79e9","logsBloom":"0x00000000000000000000020000000000000000000000000000000000000000000000000000000000000000000000000000000000000000000000000000000000100000000000000000000008000000000000000000040000000000008000000000000000020000000000000000000800000000000000000000000010000000000000000000000000000000000000000000100001000000000000000000000000000000000000000000000000000000000000000000000000000000000000000000000002000000000000000000080000000000000000000000000000000020000000000000000000000000000000000000000000000000400000000000800000","miner":"0x0000000000000000000000000000000000000000","mixHash":"0x0000000000000000000000000000000000000000000000000000000000000000","nonce":"0x0000000000000000","number":"0xd000e0","parentHash":"0x5c6b8598be6f73f302b3810d912c963d1e771f3bccb945a473a8fd05ce2d4dcf","receiptsRoot":"0xf3d40c3206878cd3440ecc8ed5f564106a1b827bfd50c3c75b0a873caf22c734","sha3Uncles":"0x1dcc4de8dec75d7aab85b567b6ccd41ad312451b948a7413f0a142fd40d49347","size":"0x2d7","stateRoot":"0x7c84c1fb95668194c52c6f64f886c06d68bfc7b3471b46942da6e55cfc81c193","timestamp":"0x65243d2f","totalDifficulty":"0x1a001c1","transactions":[{"blockHash":"0xbb95672c4138dbef3dbca64b210926f0b86114004a3e58761f92e8e71dba79e9","blockNumber":"0xd000e0","from":"0x99b4d8f75969871a9fba915cfd0d372967161acb","gas":"0xcb09","gasPrice":"0x3b9aca00","hash":"0xec4ebf664e261cebbec318686320fd654e0ebbeafd670c24b216192dcad6387b","index":"0xd000df","input":"0xd0e30db0","l1BlockNumber":"0x11774cc","l1Timestamp":"0x65243d2f","l1TxOrigin":null,"nonce":"0x5","queueIndex":null,"queueOrigin":"sequencer","r":"0x9095f9c93732a802ecf7c91f72d111fc1c12fe9668c46c2909e8af81ab67b107","rawTransaction":"0xf87005843b9aca0082cb099478c1b0c915c4faa5fffa6cabf0219da63d7f4cb8872386f26fc1000084d0e30db0822734a09095f9c93732a802ecf7c91f72d111fc1c12fe9668c46c2909e8af81ab67b107a04654e455e03b4e34315fb2bc0be4ef3b5da5f5c739b9aef64d5b2eeaceea7188","s":"0x4654e455e03b4e34315fb2bc0be4ef3b5da5f5c739b9aef64d5b2eeaceea7188","to":"0x78c1b0c915c4faa5fffa6cabf0219da63d7f4cb8","transactionIndex":"0x0","v":"0x2734","value":"0x2386f26fc10000"}],"transactionsRoot":"0x47b932df9d7dbde6b15e7e6d526ef664905b095fdeb0336d30ca041921189ba4","uncles":[]},"receipts":{"0xec4ebf664e261cebbec318686320fd654e0ebbeafd670c24b216192dcad6387b":{"blockHash":"0xbb95672c4138dbef3dbca64b210926f0b86114004a3e58761f92e8e71dba79e9","blockNumber":"0xd000e0","from":"0x99b4d8f75969871a9fba915cfd0d372967161acb","gas":"0xcb09","gasPrice":"0x3b9aca00","hash":"0xec4ebf664e261cebbec318686320fd654e0ebbeafd670c24b216192dcad6387b","index":"0xd000df","input":"0xd0e30db0","l1BlockNumber":"0x11774cc","l1Timestamp":"0x65243d2f","l1TxOrigin":null,"nonce":"0x5","queueIndex":null,"queueOrigin":"sequencer","r":"0x9095f9c93732a802ecf7c91f72d111fc1c12fe9668c46c2909e8af81ab67b107","rawTransaction":"0xf87005843b9aca0082cb099478c1b0c915c4faa5fffa6cabf0219da63d7f4cb8872386f26fc1000084d0e30db0822734a09095f9c93732a802ecf7c91f72d111fc1c12fe9668c46c2909e8af81ab67b107a04654e455e03b4e34315fb2bc0be4ef3b5da5f5c739b9aef64d5b2eeaceea7188","s":"0x4654e455e03b4e34315fb2bc0be4ef3b5da5f5c739b9aef64d5b2eeaceea7188","to":"0x78c1b0c915c4faa5fffa6cabf0219da63d7f4cb8","transactionIndex":"0x0","v":"0x2734","value":"0x2386f26fc10000","contractAddress":null,"cumulativeGasUsed":"0xcb09","daFee":"0x0","daGasPrice":"0x0","daGasUsed":"0x2c","gasUsed":"0xcb09","l1Fee":"0x1a09f6380cb9fe0","l1FeeScalar":"1","l1GasPrice":"0x39ff1464e55c","l1GasUsed":"0x72f","logs":[{"address":"0x78c1b0c915c4faa5fffa6cabf0219da63d7f4cb8","blockHash":"0xbb95672c4138dbef3dbca64b210926f0b86114004a3e58761f92e8e71dba79e9","blockNumber":"0xd000e0","data":"0x000000000000000000000000000000000000000000000000002386f26fc10000","logIndex":"0x0","removed":false,"topics":["0xddf252ad1be2c89b69c2b068fc378daa952ba7f163c4a11628f55a4df523b3ef","0x0000000000000000000000000000000000000000000000000000000000000000","0x00000000000000000000000099b4d8f75969871a9fba915cfd0d372967161acb"],"transactionHash":"0xec4ebf664e261cebbec318686320fd654e0ebbeafd670c24b216192dcad6387b","transactionIndex":"0x0"},{"address":"0x78c1b0c915c4faa5fffa6cabf0219da63d7f4cb8","blockHash":"0xbb95672c4138dbef3dbca64b210926f0b86114004a3e58761f92e8e71dba79e9","blockNumber":"0xd000e0","data":"0x000000000000000000000000000000000000000000000000002386f26fc10000","logIndex":"0x1","removed":false,"topics":["0xe1fffcc4923d04b559f4d29a8bfc6cda04eb5b0d3c460751c2402c5c5cc9109c","0x00000000000000000000000099b4d8f75969871a9fba915cfd0d372967161acb"],"transactionHash":"0xec4ebf664e261cebbec318686320fd654e0ebbeafd670c24b216192dcad6387b","transactionIndex":"0x0"}],"logsBloom":"0x00000000000000000000020000000000000000000000000000000000000000000000000000000000000000000000000000000000000000000000000000000000100000000000000000000008000000000000000000040000000000008000000000000000020000000000000000000800000000000000000000000010000000000000000000000000000000000000000000100001000000000000000000000000000000000000000000000000000000000000000000000000000000000000000000000002000000000000000000080000000000000000000000000000000020000000000000000000000000000000000000000000000000400000000000800000","status":"0x1","transactionHash":"0xec4ebf664e261cebbec318686320fd654e0ebbeafd670c24b216192dcad6387b"}}}