{"block":{"difficulty":"0x2","extraData":"0xd98301090a846765746889676f312e31352e3133856c696e75780000000000006d278bb0ccc444a72c4b35a5d80f4c43a770f7a2118aeef689980c5a35e04e135e2f44b333c3d247721a14f8774e12731b61cf2dedc33a6ed9630cacf278cd4900","gasLimit":"0x1c9c380","gasUsed":"0x26271","hash":"0xf84c4ef91dc6ef633c169fe1627c52223ca312b90c00eede934ae448a4b6db9b","logsBloom":"0x00000000000000000000000000000000000000000001001000000000000000000800000000000000000000000002000000000000000000000000000000200000040000000040000000000408001000004000008000002000000000000000000000000000000000000000000100000000000000000000000000000012000000000000000000000000000000000000040000020000000000000000000040000000020000000000000000000000000000000000000000000000004100000000000000000002000000000000000000000000000000000000000000000000000000000010000000001000000000000000004000000000000000000000001000000000","miner":"0x0000000000000000000000000000000000000000","mixHash":"0x0000000000000000000000000000000000000000000000000000000000000000","nonce":"0x0000000000000000","number":"0xd00331","parentHash":"0x5a5f836c319c6cfbbb3e4a057941e8c5cf799b69acc2b764bb190042038c2033","receiptsRoot":"0xfd0750aa6f2459e7889d6724cb969a5dcbab044377af313165f94b233822d3ec","sha3Uncles":"0x1dcc4de8dec75d7aab85b567b6ccd41ad312451b948a7413f0a142fd40d49347","size":"0x3d9","stateRoot":"0xaad2bcbb5eecaeafee0932570242ec9864b54e9102860b2878d53a68a1f90d4e","timestamp":"0x65243e66","totalDifficulty":"0x1a00663","transactions":[{"blockHash":"0xf84c4ef91dc6ef633c169fe1627c52223ca312b90c00eede934ae448a4b6db9b","blockNumber":"0xd00331","from":"0xdff45a3a21f00f7edfb28816e8589c337421cc91","gas":"0xf4240","gasPrice":"0x69f4060","hash":"0xa79f8252b005b8ea8a120f6b3fffe851d75b999bf47ea3d2ac9c5a2040440c97","index":"0xd00330","input":"0xdb3e2198000000000000000000000000201eba5cc46d216ce6dc03f6a759e8e766e956ae000000000000000000000000deaddeaddeaddeaddeaddeaddeaddeaddead111100000000000000000000000000000000000000000000000000000000000001f4000000000000000000000000dff45a3a21f00f7edfb28816e8589c337421cc91000000000000000000000000000000000000000000000000000002c726d6cb400000000000000000000000000000000000000000000000000429d069189e0000000000000000000000000000000000000000000000000000000000001c4032270000000000000000000000000000000000005db3bbff642fe191b313214ac173","l1BlockNumber":"0x11774e6","l1Timestamp":"0x65243e66","l1TxOrigin":null,"nonce":"0x2adfa","queueIndex":null,"queueOrigin":"sequencer","r":"0xa11cc6d28fc4e773619bf6f7aeeb6e1917662aa761d8d3e33cc4da277136d4ec","rawTransaction":"0xf9016f8302adfa84069f4060830f4240945989fb161568b9f133edf5cf6787f5597762797f80b90104db3e2198000000000000000000000000201eba5cc46d216ce6dc03f6a759e8e766e956ae000000000000000000000000deaddeaddeaddeaddeaddeaddeaddeaddead111100000000000000000000000000000000000000000000000000000000000001f4000000000000000000000000dff45a3a21f00f7edfb28816e8589c337421cc91000000000000000000000000000000000000000000000000000002c726d6cb400000000000000000000000000000000000000000000000000429d069189e0000000000000000000000000000000000000000000000000000000000001c4032270000000000000000000000000000000000005db3bbff642fe191b313214ac173822733a0a11cc6d28fc4e773619bf6f7aeeb6e1917662aa761d8d3e33cc4da277136d4eca0539a4339edc9f3c729a98f3852560768010f41767e33cdf7c9016cac95a33159","s":"0x539a4339edc9f3c729a98f3852560768010f41767e33cdf7c9016cac95a33159","to":"0x5989fb161568b9f133edf5cf6787f5597762797f","transactionIndex":"0x0","v":"0x2733","value":"0x0"}],"transactionsRoot":"0xfd6045d77456d3c2ebe55cf2ae6f4e74a6ef966de53b1b57aa5662ac2a691867","uncles":[]},"receipts":{"0xa79f8252b005b8ea8a120f6b3fffe851d75b999bf47ea3d2ac9c5a2040440c97":{"blockHash":"0xf84c4ef91dc6ef633c169fe1627c52223ca312b90c00eede934ae448a4b6db9b","blockNumber":"0xd00331","from":"0xdff45a3a21f00f7edfb28816e8589c337421cc91","gas":"0xf4240","gasPrice":"0x69f4060","hash":"0xa79f8252b005b8ea8a120f6b3fffe851d75b999bf47ea3d2ac9c5a2040440c97","index":"0xd00330","input":"0xdb3e2198000000000000000000000000201eba5cc46d216ce6dc03f6a759e8e766e956ae000000000000000000000000deaddeaddeaddeaddeaddeaddeaddeaddead111100000000000000000000000000000000000000000000000000000000000001f4000000000000000000000000dff45a3a21f00f7edfb28816e8589c337421cc91000000000000000000000000000000000000000000000000000002c726d6cb400000000000000000000000000000000000000000000000000429d069189e0000000000000000000000000000000000000000000000000000000000001c4032270000000000000000000000000000000000005db3bbff642fe191b313214ac173","l1BlockNumber":"0x11774e6","l1Timestamp":"0x65243e66","l1TxOrigin":null,"nonce":"0x2adfa","queueIndex":null,"queueOrigin":"sequencer","r":"0xa11cc6d28fc4e773619bf6f7aeeb6e1917662aa761d8d3e33cc4da277136d4ec","rawTransaction":"0xf9016f8302adfa84069f4060830f4240945989fb161568b9f133edf5cf6787f5597762797f80b90104db3e2198000000000000000000000000201eba5cc46d216ce6dc03f6a759e8e766e956ae000000000000000000000000deaddeaddeaddeaddeaddeaddeaddeaddead111100000000000000000000000000000000000000000000000000000000000001f4000000000000000000000000dff45a3a21f00f7edfb28816e8589c337421cc91000000000000000000000000000000000000000000000000000002c726d6cb400000000000000000000000000000000000000000000000000429d069189e0000000000000000000000000000000000000000000000000000000000001c4032270000000000000000000000000000000000005db3bbff642fe191b313214ac173822733a0a11cc6d28fc4e773619bf6f7aeeb6e1917662aa761d8d3e33cc4da277136d4eca0539a4339edc9f3c729a98f3852560768010f41767e33cdf7c9016cac95a33159","s":"0x539a4339edc9f3c729a98f3852560768010f41767e33cdf7c9016cac95a33159","to":"0x5989fb161568b9f133edf5cf6787f5597762797f","transactionIndex":"0x0","v":"0x2733","value":"0x0","contractAddress":null,"cumulativeGasUsed":"0x26271","daFee":"0x0","daGasPrice":"0x0","daGasUsed":"0x12d","gasUsed":"0x26271","l1Fee":"0x19709d787180660","l1FeeScalar":"1","l1GasPrice":"0x38a987f04864","l1GasUsed":"0x72f","logs":[{"address":"0xdeaddeaddeaddeaddeaddeaddeaddeaddead1111","blockHash":"0xf84c4ef91dc6ef633c169fe1627c52223ca312b90c00eede934ae448a4b6db9b","blockNumber":"0xd00331","data":"0x0000000000000000000000000000000000000000000000000429d069189e0000","logIndex":"0x0","removed":false,"topics":["0xddf252ad1be2c89b69c2b068fc378daa952ba7f163c4a11628f55a4df523b3ef","0x000000000000000000000000a125af1a4704044501fe12ca9567ef1550e430e8","0x000000000000000000000000dff45a3a21f00f7edfb28816e8589c337421cc91"],"transactionHash":"0xa79f8252b005b8ea8a120f6b3fffe851d75b999bf47ea3d2ac9c5a2040440c97","transactionIndex":"0x0"},{"address":"0x201eba5cc46d216ce6dc03f6a759e8e766e956ae","blockHash":"0xf84c4ef91dc6ef633c169fe1627c52223ca312b90c00eede934ae448a4b6db9b","blockNumber":"0xd00331","data":"0x000000000000000000000000000000000000000000000000000000001c3f1c7a","logIndex":"0x1","removed":false,"topics":["0xddf252ad1be2c89b69c2b068fc378daa952ba7f163c4a11628f55a4df523b3ef","0x000000000000000000000000dff45a3a21f00f7edfb28816e8589c337421cc91","0x000000000000000000000000a125af1a4704044501fe12ca9567ef1550e430e8"],"transactionHash":"0xa79f8252b005b8ea8a120f6b3fffe851d75b999bf47ea3d2ac9c5a2040440c97","transactionIndex":"0x0"},{"address":"0x201eba5cc46d216ce6dc03f6a759e8e766e956ae","blockHash":"0xf84c4ef91dc6ef633c169fe1627c52223ca312b90c00eede934ae448a4b6db9b","blockNumber":"0xd00331","data":"0x00000000000000000000000000000000000000000000000000237e03b2bd55fd","logIndex":"0x2","removed":false,"topics":["0x8c5be1e5ebec7d5bd14f71427d1e84f3dd0314c0f7b2291e5b200ac8c7c3b925","0x000000000000000000000000dff45a3a21f00f7edfb28816e8589c337421cc91","0x0000000000000000000000005989fb161568b9f133edf5cf6787f5597762797f"],"transactionHash":"0xa79f8252b005b8ea8a120f6b3fffe851d75b999bf47ea3d2ac9c5a2040440c97","transactionIndex":"0x0"},{"address":"0xa125af1a4704044501fe12ca9567ef1550e430e8","blockHash":"0xf84c4ef91dc6ef633c169fe1627c52223ca312b90c00eede934ae448a4b6db9b","blockNumber":"0xd00331","data":"0x000000000000000000000000000000000000000000000000000000001c3f1c7afffffffffffffffffffffffffffffffffffffffffffffffffbd62f96e7620000000000000000000000000000000000000000624bfe306264dd4040b5e22e5d3100000000000000000000000000000000000000000000000000c2e26bdb75966500000000000000000000000000000000000000000000000000000000000317b10000000000000000000000000000000000000000000000000000000000013ab30000000000000000000000000000000000000000000000000000000000000000","logIndex":"0x3","removed":false,"topics":["0x19b47279256b2a23a1665c810c8d55a1758940ee09377d4f8d26497a3577dc83","0x0000000000000000000000005989fb161568b9f133edf5cf6787f5597762797f","0x000000000000000000000000dff45a3a21f00f7edfb28816e8589c337421cc91"],"transactionHash":"0xa79f8252b005b8ea8a120f6b3fffe851d75b999bf47ea3d2ac9c5a2040440c97","transactionIndex":"0x0"}],"logsBloom":"0x00000000000000000000000000000000000000000001001000000000000000000800000000000000000000000002000000000000000000000000000000200000040000000040000000000408001000004000008000002000000000000000000000000000000000000000000100000000000000000000000000000012000000000000000000000000000000000000040000020000000000000000000040000000020000000000000000000000000000000000000000000000004100000000000000000002000000000000000000000000000000000000000000000000000000000010000000001000000000000000004000000000000000000000001000000000","status":"0x1","transactionHash":"0xa79f8252b005b8ea8a120f6b3fffe851d75b999bf47ea3d2ac9c5a2040440c97"}}}