{"block":{"difficulty":"0x2","extraData":"0xd98301090a846765746889676f312e31352e3133856c696e757800000000000054f334f9c50426902aba8066bd65e691a03be44122bfda1378cb5156ce8348451e6a8edbd99a788af9707deb4880cf87c5a54af63f46e88a2bc508ce781974dc00","gasLimit":"0x1c9c380","gasUsed":"0x1d205","hash":"0x11eea0e9dcb53fbbe3ef58d5fa12c8542c0ea707f8fb5a69b6b1454e6ee444a2","logsBloom":"0x40000000000000000000000000000000000000000001008800000000000000000000000000000000000000000002000000000000000000000000000000a00000840000000040000000000008000000000000008000002004000000000000000000000001000000000000000100000000000000000000000000000010000000000000000000000000000000000000000000000080000000000008000000000000020000000000000000000000000000000000000001000020000100000000000000000002000000000000000000000000000000000000000040000000000000000010000000001000000000000000000000000000000000000000000000000000","miner":"0x0000000000000000000000000000000000000000","mixHash":"0x0000000000000000000000000000000000000000000000000000000000000000","nonce":"0x0000000000000000","number":"0xd00138","parentHash":"0x2da48a66d022539461d7022d39c2541b8e18b0f78c75cc85cf8553c0a17a10d9","receiptsRoot":"0x15daf62bc4875c69b08cf13bc7d07bda6cacf3b54a2d1b993f23f5a79fa3f490","sha3Uncles":"0x1dcc4de8dec75d7aab85b567b6ccd41ad312451b948a7413f0a142fd40d49347","size":"0x3d8","stateRoot":"0xecb1a008adbfd1179ae74504740e16b243649839b7a5e3b38302e6df0d2bba65","timestamp":"0x65243d5e","totalDifficulty":"0x1a00271","transactions":[{"blockHash":"0x11eea0e9dcb53fbbe3ef58d5fa12c8542c0ea707f8fb5a69b6b1454e6ee444a2","blockNumber":"0xd00138","from":"0x02a269424a9f3c6f7b8a13464fa1204b46923ea6","gas":"0x1e956","gasPrice":"0x2faf080","hash":"0x44cb74a383066995bfa7b42adc207ec9731b12f401c096ecf4c38cf8a4124b42","index":"0xd00137","input":"0x414bf389000000000000000000000000deaddeaddeaddeaddeaddeaddeaddeaddead1111000000000000000000000000201eba5cc46d216ce6dc03f6a759e8e766e956ae00000000000000000000000000000000000000000000000000000000000001f400000000000000000000000002a269424a9f3c6f7b8a13464fa1204b46923ea60000000000000000000000000000000000000000000000000000000065243d7f00000000000000000000000000000000000000000000000000018ba1547a300000000000000000000000000000000000000000000000000000000000000a59d40000000000000000000000000000000000000000000000000000000000000000","l1BlockNumber":"0x11774d0","l1Timestamp":"0x65243d5e","l1TxOrigin":null,"nonce":"0x765","queueIndex":null,"queueOrigin":"sequencer","r":"0x17a9b48bf1ffb12cfbf3d9d144d056735b04b9576a4eeea9bcf90a716dc6d34","rawTransaction":"0xf9016e8207658402faf0808301e95694319b69888b0d11cec22caa5034e25fffbdc8842180b90104414bf389000000000000000000000000deaddeaddeaddeaddeaddeaddeaddeaddead1111000000000000000000000000201eba5cc46d216ce6dc03f6a759e8e766e956ae00000000000000000000000000000000000000000000000000000000000001f400000000000000000000000002a269424a9f3c6f7b8a13464fa1204b46923ea60000000000000000000000000000000000000000000000000000000065243d7f00000000000000000000000000000000000000000000000000018ba1547a300000000000000000000000000000000000000000000000000000000000000a59d40000000000000000000000000000000000000000000000000000000000000000822733a0017a9b48bf1ffb12cfbf3d9d144d056735b04b9576a4eeea9bcf90a716dc6d34a04f6bbc85c060a81514b02e3b9dea25fac44f891db8f699d81594e46b97bdfc04","s":"0x4f6bbc85c060a81514b02e3b9dea25fac44f891db8f699d81594e46b97bdfc04","to":"0x319b69888b0d11cec22caa5034e25fffbdc88421","transactionIndex":"0x0","v":"0x2733","value":"0x0"}],"transactionsRoot":"0x69a71151a38592a7165eb0c8fbb9c3185137c04cf6cfc5c9ffab6e40f97ba8b6","uncles":[]},"receipts":{"0x44cb74a383066995bfa7b42adc207ec9731b12f401c096ecf4c38cf8a4124b42":{"blockHash":"0x11eea0e9dcb53fbbe3ef58d5fa12c8542c0ea707f8fb5a69b6b1454e6ee444a2","blockNumber":"0xd00138","from":"0x02a269424a9f3c6f7b8a13464fa1204b46923ea6","gas":"0x1e956","gasPrice":"0x2faf080","hash":"0x44cb74a383066995bfa7b42adc207ec9731b12f401c096ecf4c38cf8a4124b42","index":"0xd00137","input":"0x414bf389000000000000000000000000deaddeaddeaddeaddeaddeaddeaddeaddead1111000000000000000000000000201eba5cc46d216ce6dc03f6a759e8e766e956ae00000000000000000000000000000000000000000000000000000000000001f400000000000000000000000002a269424a9f3c6f7b8a13464fa1204b46923ea60000000000000000000000000000000000000000000000000000000065243d7f00000000000000000000000000000000000000000000000000018ba1547a300000000000000000000000000000000000000000000000000000000000000a59d40000000000000000000000000000000000000000000000000000000000000000","l1BlockNumber":"0x11774d0","l1Timestamp":"0x65243d5e","l1TxOrigin":null,"nonce":"0x765","queueIndex":null,"queueOrigin":"sequencer","r":"0x17a9b48bf1ffb12cfbf3d9d144d056735b04b9576a4eeea9bcf90a716dc6d34","rawTransaction":"0xf9016e8207658402faf0808301e95694319b69888b0d11cec22caa5034e25fffbdc8842180b90104414bf389000000000000000000000000deaddeaddeaddeaddeaddeaddeaddeaddead1111000000000000000000000000201eba5cc46d216ce6dc03f6a759e8e766e956ae00000000000000000000000000000000000000000000000000000000000001f400000000000000000000000002a269424a9f3c6f7b8a13464fa1204b46923ea60000000000000000000000000000000000000000000000000000000065243d7f00000000000000000000000000000000000000000000000000018ba1547a300000000000000000000000000000000000000000000000000000000000000a59d40000000000000000000000000000000000000000000000000000000000000000822733a0017a9b48bf1ffb12cfbf3d9d144d056735b04b9576a4eeea9bcf90a716dc6d34a04f6bbc85c060a81514b02e3b9dea25fac44f891db8f699d81594e46b97bdfc04","s":"0x4f6bbc85c060a81514b02e3b9dea25fac44f891db8f699d81594e46b97bdfc04","to":"0x319b69888b0d11cec22caa5034e25fffbdc88421","transactionIndex":"0x0","v":"0x2733","value":"0x0","contractAddress":null,"cumulativeGasUsed":"0x1d205","daFee":"0x0","daGasPrice":"0x0","daGasUsed":"0x12c","gasUsed":"0x1d205","l1Fee":"0x1a09f6380cb9fe0","l1FeeScalar":"1","l1GasPrice":"0x39ff1464e55c","l1GasUsed":"0x72f","logs":[{"address":"0x201eba5cc46d216ce6dc03f6a759e8e766e956ae","blockHash":"0x11eea0e9dcb53fbbe3ef58d5fa12c8542c0ea707f8fb5a69b6b1454e6ee444a2","blockNumber":"0xd00138","data":"0x00000000000000000000000000000000000000000000000000000000000a8fe9","logIndex":"0x0","removed":false,"topics":["0xddf252ad1be2c89b69c2b068fc378daa952ba7f163c4a11628f55a4df523b3ef","0x000000000000000000000000628f7131cf43e88ebe3921ae78c4ba0c31872bd4","0x00000000000000000000000002a269424a9f3c6f7b8a13464fa1204b46923ea6"],"transactionHash":"0x44cb74a383066995bfa7b42adc207ec9731b12f401c096ecf4c38cf8a4124b42","transactionIndex":"0x0"},{"address":"0xdeaddeaddeaddeaddeaddeaddeaddeaddead1111","blockHash":"0x11eea0e9dcb53fbbe3ef58d5fa12c8542c0ea707f8fb5a69b6b1454e6ee444a2","blockNumber":"0xd00138","data":"0x00000000000000000000000000000000000000000000000000018ba1547a3000","logIndex":"0x1","removed":false,"topics":["0xddf252ad1be2c89b69c2b068fc378daa952ba7f163c4a11628f55a4df523b3ef","0x00000000000000000000000002a269424a9f3c6f7b8a13464fa1204b46923ea6","0x000000000000000000000000628f7131cf43e88ebe3921ae78c4ba0c31872bd4"],"transactionHash":"0x44cb74a383066995bfa7b42adc207ec9731b12f401c096ecf4c38cf8a4124b42","transactionIndex":"0x0"},{"address":"0xdeaddeaddeaddeaddeaddeaddeaddeaddead1111","blockHash":"0x11eea0e9dcb53fbbe3ef58d5fa12c8542c0ea707f8fb5a69b6b1454e6ee444a2","blockNumber":"0xd00138","data":"0xfffffffffffffffffffffffffffffffffffffffffffffffffdec63c2a308cfff","logIndex":"0x2","removed":false,"topics":["0x8c5be1e5ebec7d5bd14f71427d1e84f3dd0314c0f7b2291e5b200ac8c7c3b925","0x00000000000000000000000002a269424a9f3c6f7b8a13464fa1204b46923ea6","0x000000000000000000000000319b69888b0d11cec22caa5034e25fffbdc88421"],"transactionHash":"0x44cb74a383066995bfa7b42adc207ec9731b12f401c096ecf4c38cf8a4124b42","transactionIndex":"0x0"},{"address":"0x628f7131cf43e88ebe3921ae78c4ba0c31872bd4","blockHash":"0x11eea0e9dcb53fbbe3ef58d5fa12c8542c0ea707f8fb5a69b6b1454e6ee444a2","blockNumber":"0xd00138","data":"0xfffffffffffffffffffffffffffffffffffffffffffffffffffffffffff5701700000000000000000000000000000000000000000000000000018ba1547a300000000000000000000000000000000000000061eaaff280ec863757c09c1302b000000000000000000000000000000000000000000000000000002c65dde06c20000000000000000000000000000000000000000000000000000000000003176400000000000000000000000000000000000000000000000000000000000000000000000000000000000000000000000000000000000000000000001137c37380","logIndex":"0x3","removed":false,"topics":["0x19b47279256b2a23a1665c810c8d55a1758940ee09377d4f8d26497a3577dc83","0x000000000000000000000000319b69888b0d11cec22caa5034e25fffbdc88421","0x00000000000000000000000002a269424a9f3c6f7b8a13464fa1204b46923ea6"],"transactionHash":"0x44cb74a383066995bfa7b42adc207ec9731b12f401c096ecf4c38cf8a4124b42","transactionIndex":"0x0"}],"logsBloom":"0x40000000000000000000000000000000000000000001008800000000000000000000000000000000000000000002000000000000000000000000000000a00000840000000040000000000008000000000000008000002004000000000000000000000001000000000000000100000000000000000000000000000010000000000000000000000000000000000000000000000080000000000008000000000000020000000000000000000000000000000000000001000020000100000000000000000002000000000000000000000000000000000000000040000000000000000010000000001000000000000000000000000000000000000000000000000000","status":"0x1","transactionHash":"0x44cb74a383066995bfa7b42adc207ec9731b12f401c096ecf4c38cf8a4124b42"}}}