{"block":{"difficulty":"0x2","extraData":"0xd98301090a846765746889676f312e31352e3133856c696e7578000000000000b2b01668c76f56f48e34366789e938220baa9ee5fa66869abc71467eb913ec9c55835d68d1e2a5f575b11155ca695917de3450ce11770162b421c6be937a087201","gasLimit":"0x1c9c380","gasUsed":"0xb3da","hash":"0x86dac98bbbe7a19b807ba9690e62c2beee83327ddfad1128e443c5e24f1f69f8","logsBloom":"0x00000000000000000000020000000000000000000010000000000000000000000000000000000000000000000000040000000000000000000000000000200000000000000000000000000000000000000000000000000000000000000000000000000000000000000000000000000000000000000000000000000000000000000000000000000000000000000000000000002000000000000000000000000000020000000000010000000000000000000000000000000000000000000000000000000000000000000000000000080000000000000000000000000000000000000010000400000000000000000000000000000000000000040000000000800000","miner":"0x0000000000000000000000000000000000000000","mixHash":"0x0000000000000000000000000000000000000000000000000000000000000000","nonce":"0x0000000000000000","number":"0xd00280","parentHash":"0x3c5d364c45b2a079e08807f780c94f33299b57153a8d0ed69b893bb58c3b6d5e","receiptsRoot":"0x3bbbc17c5f09bdb322259ae327f48a25847f47ee7cb7869a88f61d6c5d40cf2f","sha3Uncles":"0x1dcc4de8dec75d7aab85b567b6ccd41ad312451b948a7413f0a142fd40d49347","size":"0x311","stateRoot":"0x5c5bb8805c4ae2549dda29071b4e7139e819fbbc865135ab107d6d916b7947bc","timestamp":"0x65243e16","totalDifficulty":"0x1a00501","transactions":[{"blockHash":"0x86dac98bbbe7a19b807ba9690e62c2beee83327ddfad1128e443c5e24f1f69f8","blockNumber":"0xd00280","from":"0x99b4d8f75969871a9fba915cfd0d372967161acb","gas":"0xb3da","gasPrice":"0x2faf080","hash":"0x0b3d0d257a27d166c67d3d8ecef1adc3303e6fb934af20c161a1184f335d3cad","index":"0xd0027f","input":"0x095ea7b30000000000000000000000005c75a733656c3e42e44afff1aca1913611f4923000000000000000000000000000000000000000000000000000b1a2bc2ec50000","l1BlockNumber":"0x11774df","l1Timestamp":"0x65243e16","l1TxOrigin":null,"nonce":"0x9","queueIndex":null,"queueOrigin":"sequencer","r":"0x349fa0719baa9b6530c1f491b41aac1d80f8dfeda2510cb6727ac6ab5186f5e2","rawTransaction":"0xf8aa098402faf08082b3da9425356aeca4210ef7553140edb9b8026089e4939680b844095ea7b30000000000000000000000005c75a733656c3e42e44afff1aca1913611f4923000000000000000000000000000000000000000000000000000b1a2bc2ec50000822733a0349fa0719baa9b6530c1f491b41aac1d80f8dfeda2510cb6727ac6ab5186f5e2a0483b1f13c21e3dc3092855189c4b6ac38db832e8d421209c9ec0844b47f78840","s":"0x483b1f13c21e3dc3092855189c4b6ac38db832e8d421209c9ec0844b47f78840","to":"0x25356aeca4210ef7553140edb9b8026089e49396","transactionIndex":"0x0","v":"0x2733","value":"0x0"}],"transactionsRoot":"0xb721d9d142c73af85afec2d2342a5507192d0f59ed04a32c2d81e57e597765c7","uncles":[]},"receipts":{"0x0b3d0d257a27d166c67d3d8ecef1adc3303e6fb934af20c161a1184f335d3cad":{"blockHash":"0x86dac98bbbe7a19b807ba9690e62c2beee83327ddfad1128e443c5e24f1f69f8","blockNumber":"0xd00280","from":"0x99b4d8f75969871a9fba915cfd0d372967161acb","gas":"0xb3da","gasPrice":"0x2faf080","hash":"0x0b3d0d257a27d166c67d3d8ecef1adc3303e6fb934af20c161a1184f335d3cad","index":"0xd0027f","input":"0x095ea7b30000000000000000000000005c75a733656c3e42e44afff1aca1913611f4923000000000000000000000000000000000000000000000000000b1a2bc2ec50000","l1BlockNumber":"0x11774df","l1Timestamp":"0x65243e16","l1TxOrigin":null,"nonce":"0x9","queueIndex":null,"queueOrigin":"sequencer","r":"0x349fa0719baa9b6530c1f491b41aac1d80f8dfeda2510cb6727ac6ab5186f5e2","rawTransaction":"0xf8aa098402faf08082b3da9425356aeca4210ef7553140edb9b8026089e4939680b844095ea7b30000000000000000000000005c75a733656c3e42e44afff1aca1913611f4923000000000000000000000000000000000000000000000000000b1a2bc2ec50000822733a0349fa0719baa9b6530c1f491b41aac1d80f8dfeda2510cb6727ac6ab5186f5e2a0483b1f13c21e3dc3092855189c4b6ac38db832e8d421209c9ec0844b47f78840","s":"0x483b1f13c21e3dc3092855189c4b6ac38db832e8d421209c9ec0844b47f78840","to":"0x25356aeca4210ef7553140edb9b8026089e49396","transactionIndex":"0x0","v":"0x2733","value":"0x0","contractAddress":null,"cumulativeGasUsed":"0xb3da","daFee":"0x0","daGasPrice":"0x0","daGasUsed":"0x67","gasUsed":"0xb3da","l1Fee":"0x19709d787180660","l1FeeScalar":"1","l1GasPrice":"0x38a987f04864","l1GasUsed":"0x72f","logs":[{"address":"0x25356aeca4210ef7553140edb9b8026089e49396","blockHash":"0x86dac98bbbe7a19b807ba9690e62c2beee83327ddfad1128e443c5e24f1f69f8","blockNumber":"0xd00280","data":"0x00000000000000000000000000000000000000000000000000b1a2bc2ec50000","logIndex":"0x0","removed":false,"topics":["0x8c5be1e5ebec7d5bd14f71427d1e84f3dd0314c0f7b2291e5b200ac8c7c3b925","0x00000000000000000000000099b4d8f75969871a9fba915cfd0d372967161acb","0x0000000000000000000000005c75a733656c3e42e44afff1aca1913611f49230"],"transactionHash":"0x0b3d0d257a27d166c67d3d8ecef1adc3303e6fb934af20c161a1184f335d3cad","transactionIndex":"0x0"}],"logsBloom":"0x00000000000000000000020000000000000000000010000000000000000000000000000000000000000000000000040000000000000000000000000000200000000000000000000000000000000000000000000000000000000000000000000000000000000000000000000000000000000000000000000000000000000000000000000000000000000000000000000000002000000000000000000000000000020000000000010000000000000000000000000000000000000000000000000000000000000000000000000000080000000000000000000000000000000000000010000400000000000000000000000000000000000000040000000000800000","status":"0x1","transactionHash":"0x0b3d0d257a27d166c67d3d8ecef1adc3303e6fb934af20c161a1184f335d3cad"}}}