{"block":{"difficulty":"0x2","extraData":"0xd98301090a846765746889676f312e31352e3133856c696e7578000000000000dab28bf66ba56b2f3c358ed1c7ccca193392481e656aa03bd38cd186602ce8275a897d24ac77d669f0a3b51945cc6a2ed23715a66b23ecdd15672a36d519cb5700","gasLimit":"0x1c9c380","gasUsed":"0x24790","hash":"0x10c15d0e1d26f153f1cd4c9483c3a00029ce5f60ea6b3695b78f7be6488680b1","logsBloom":"0x40000000000000000000000000000000000000000001008800000000000000000000000000000000000000000002000000000000000000000000000000200000840000000040000000000008000000000000008000002004000000000000000000000001000000000000000100000000000000000000000000000010000000000000000000000000000000000000000000000000000000000008000000000000020000000000000000000000000000000000000001000020000100000000000000000002000000000000000000800000000000000000000000000000000200000010000000001000000000000000000000000000000000000000000000000000","miner":"0x0000000000000000000000000000000000000000","mixHash":"0x0000000000000000000000000000000000000000000000000000000000000000","nonce":"0x0000000000000000","number":"0xcff35c","parentHash":"0x1c29f4e3acabd578eb09e80938f1bf55a39ab4f4acb0e8f187b462c290e4c8fb","receiptsRoot":"0x05e9bbb063bc36bfe7d5335ce61123df80427885273a2dc8ad32968d179e2a3c","sha3Uncles":"0x1dcc4de8dec75d7aab85b567b6ccd41ad312451b948a7413f0a142fd40d49347","size":"0x3d8","stateRoot":"0xc6493d3bb9666198b4e08d348806dcccc60daa928bd568824866e5d9e1c36859","timestamp":"0x6524372f","totalDifficulty":"0x19fe6b9","transactions":[{"blockHash":"0x10c15d0e1d26f153f1cd4c9483c3a00029ce5f60ea6b3695b78f7be6488680b1","blockNumber":"0xcff35c","from":"0x006a02b71b701e3e7027ddbe652e8df01c39b0a6","gas":"0x260c9","gasPrice":"0x2faf080","hash":"0x670ebdabeaaccb63d663419cbd03c6d283470580e976edff905f7823a0ce30ec","index":"0xcff35b","input":"0x414bf389000000000000000000000000201eba5cc46d216ce6dc03f6a759e8e766e956ae000000000000000000000000deaddeaddeaddeaddeaddeaddeaddeaddead111100000000000000000000000000000000000000000000000000000000000001f4000000000000000000000000006a02b71b701e3e7027ddbe652e8df01c39b0a6000000000000000000000000000000000000000000000000000000006524375000000000000000000000000000000000000000000000000000000000000d1f600000000000000000000000000000000000000000000000000001e596fc470ab90000000000000000000000000000000000000000000000000000000000000000","l1BlockNumber":"0x117744d","l1Timestamp":"0x6524372f","l1TxOrigin":null,"nonce":"0x118b","queueIndex":null,"queueOrigin":"sequencer","r":"0x54c5e3161b32c5cf6a5af9b5abb6dc28eb1eeba491a5a5c185ad550ad91deef","rawTransaction":"0xf9016e82118b8402faf080830260c994319b69888b0d11cec22caa5034e25fffbdc8842180b90104414bf389000000000000000000000000201eba5cc46d216ce6dc03f6a759e8e766e956ae000000000000000000000000deaddeaddeaddeaddeaddeaddeaddeaddead111100000000000000000000000000000000000000000000000000000000000001f4000000000000000000000000006a02b71b701e3e7027ddbe652e8df01c39b0a6000000000000000000000000000000000000000000000000000000006524375000000000000000000000000000000000000000000000000000000000000d1f600000000000000000000000000000000000000000000000000001e596fc470ab90000000000000000000000000000000000000000000000000000000000000000822733a0054c5e3161b32c5cf6a5af9b5abb6dc28eb1eeba491a5a5c185ad550ad91deefa06b88b24cf62ad47b03910ff8b675bb677b910cc9b70217f5009a923c5095a39b","s":"0x6b88b24cf62ad47b03910ff8b675bb677b910cc9b70217f5009a923c5095a39b","to":"0x319b69888b0d11cec22caa5034e25fffbdc88421","transactionIndex":"0x0","v":"0x2733","value":"0x0"}],"transactionsRoot":"0xb4c1f3364cb5e2baed0cc2cc28972f15963b41c7bbb3e031f6d918f3d1c20484","uncles":[]},"receipts":{"0x670ebdabeaaccb63d663419cbd03c6d283470580e976edff905f7823a0ce30ec":{"blockHash":"0x10c15d0e1d26f153f1cd4c9483c3a00029ce5f60ea6b3695b78f7be6488680b1","blockNumber":"0xcff35c","from":"0x006a02b71b701e3e7027ddbe652e8df01c39b0a6","gas":"0x260c9","gasPrice":"0x2faf080","hash":"0x670ebdabeaaccb63d663419cbd03c6d283470580e976edff905f7823a0ce30ec","index":"0xcff35b","input":"0x414bf389000000000000000000000000201eba5cc46d216ce6dc03f6a759e8e766e956ae000000000000000000000000deaddeaddeaddeaddeaddeaddeaddeaddead111100000000000000000000000000000000000000000000000000000000000001f4000000000000000000000000006a02b71b701e3e7027ddbe652e8df01c39b0a6000000000000000000000000000000000000000000000000000000006524375000000000000000000000000000000000000000000000000000000000000d1f600000000000000000000000000000000000000000000000000001e596fc470ab90000000000000000000000000000000000000000000000000000000000000000","l1BlockNumber":"0x117744d","l1Timestamp":"0x6524372f","l1TxOrigin":null,"nonce":"0x118b","queueIndex":null,"queueOrigin":"sequencer","r":"0x54c5e3161b32c5cf6a5af9b5abb6dc28eb1eeba491a5a5c185ad550ad91deef","rawTransaction":"0xf9016e82118b8402faf080830260c994319b69888b0d11cec22caa5034e25fffbdc8842180b90104414bf389000000000000000000000000201eba5cc46d216ce6dc03f6a759e8e766e956ae000000000000000000000000deaddeaddeaddeaddeaddeaddeaddeaddead111100000000000000000000000000000000000000000000000000000000000001f4000000000000000000000000006a02b71b701e3e7027ddbe652e8df01c39b0a6000000000000000000000000000000000000000000000000000000006524375000000000000000000000000000000000000000000000000000000000000d1f600000000000000000000000000000000000000000000000000001e596fc470ab90000000000000000000000000000000000000000000000000000000000000000822733a0054c5e3161b32c5cf6a5af9b5abb6dc28eb1eeba491a5a5c185ad550ad91deefa06b88b24cf62ad47b03910ff8b675bb677b910cc9b70217f5009a923c5095a39b","s":"0x6b88b24cf62ad47b03910ff8b675bb677b910cc9b70217f5009a923c5095a39b","to":"0x319b69888b0d11cec22caa5034e25fffbdc88421","transactionIndex":"0x0","v":"0x2733","value":"0x0","contractAddress":null,"cumulativeGasUsed":"0x24790","daFee":"0x0","daGasPrice":"0x0","daGasUsed":"0x12c","gasUsed":"0x24790","l1Fee":"0x1c5145ff7a866d0","l1FeeScalar":"1","l1GasPrice":"0x3f1249c65230","l1GasUsed":"0x72f","logs":[{"address":"0xdeaddeaddeaddeaddeaddeaddeaddeaddead1111","blockHash":"0x10c15d0e1d26f153f1cd4c9483c3a00029ce5f60ea6b3695b78f7be6488680b1","blockNumber":"0xcff35c","data":"0x0000000000000000000000000000000000000000000000000001ef7ff1c0a7ae","logIndex":"0x0","removed":false,"topics":["0xddf252ad1be2c89b69c2b068fc378daa952ba7f163c4a11628f55a4df523b3ef","0x000000000000000000000000628f7131cf43e88ebe3921ae78c4ba0c31872bd4","0x000000000000000000000000006a02b71b701e3e7027ddbe652e8df01c39b0a6"],"transactionHash":"0x670ebdabeaaccb63d663419cbd03c6d283470580e976edff905f7823a0ce30ec","transactionIndex":"0x0"},{"address":"0x201eba5cc46d216ce6dc03f6a759e8e766e956ae","blockHash":"0x10c15d0e1d26f153f1cd4c9483c3a00029ce5f60ea6b3695b78f7be6488680b1","blockNumber":"0xcff35c","data":"0x00000000000000000000000000000000000000000000000000000000000d1f60","logIndex":"0x1","removed":false,"topics":["0xddf252ad1be2c89b69c2b068fc378daa952ba7f163c4a11628f55a4df523b3ef","0x000000000000000000000000006a02b71b701e3e7027ddbe652e8df01c39b0a6","0x000000000000000000000000628f7131cf43e88ebe3921ae78c4ba0c31872bd4"],"transactionHash":"0x670ebdabeaaccb63d663419cbd03c6d283470580e976edff905f7823a0ce30ec","transactionIndex":"0x0"},{"address":"0x201eba5cc46d216ce6dc03f6a759e8e766e956ae","blockHash":"0x10c15d0e1d26f153f1cd4c9483c3a00029ce5f60ea6b3695b78f7be6488680b1","blockNumber":"0xcff35c","data":"0xffffffffffffffffffffffffffffffffffffffffffffffffffffffff87d50f7f","logIndex":"0x2","removed":false,"topics":["0x8c5be1e5ebec7d5bd14f71427d1e84f3dd0314c0f7b2291e5b200ac8c7c3b925","0x000000000000000000000000006a02b71b701e3e7027ddbe652e8df01c39b0a6","0x000000000000000000000000319b69888b0d11cec22caa5034e25fffbdc88421"],"transactionHash":"0x670ebdabeaaccb63d663419cbd03c6d283470580e976edff905f7823a0ce30ec","transactionIndex":"0x0"},{"address":"0x628f7131cf43e88ebe3921ae78c4ba0c31872bd4","blockHash":"0x10c15d0e1d26f153f1cd4c9483c3a00029ce5f60ea6b3695b78f7be6488680b1","blockNumber":"0xcff35c","data":"0x00000000000000000000000000000000000000000000000000000000000d1f60fffffffffffffffffffffffffffffffffffffffffffffffffffe10800e3f585200000000000000000000000000000000000062521e520398f3f1e3dbccb7c6a200000000000000000000000000000000000000000000000000002c69f6c7ad9d00000000000000000000000000000000000000000000000000000000000317b600000000000000000000000000000000000000000000000000000000000000910000000000000000000000000000000000000000000000000000000000000000","logIndex":"0x3","removed":false,"topics":["0x19b47279256b2a23a1665c810c8d55a1758940ee09377d4f8d26497a3577dc83","0x000000000000000000000000319b69888b0d11cec22caa5034e25fffbdc88421","0x000000000000000000000000006a02b71b701e3e7027ddbe652e8df01c39b0a6"],"transactionHash":"0x670ebdabeaaccb63d663419cbd03c6d283470580e976edff905f7823a0ce30ec","transactionIndex":"0x0"}],"logsBloom":"0x40000000000000000000000000000000000000000001008800000000000000000000000000000000000000000002000000000000000000000000000000200000840000000040000000000008000000000000008000002004000000000000000000000001000000000000000100000000000000000000000000000010000000000000000000000000000000000000000000000000000000000008000000000000020000000000000000000000000000000000000001000020000100000000000000000002000000000000000000800000000000000000000000000000000200000010000000001000000000000000000000000000000000000000000000000000","status":"0x1","transactionHash":"0x670ebdabeaaccb63d663419cbd03c6d283470580e976edff905f7823a0ce30ec"}}}