{"block":{"difficulty":"0x2","extraData":"0xd98301090a846765746889676f312e31352e3133856c696e75780000000000000b28e7a722ac22a487bb33dbb86101cf6629296da2695675fc34cbe0917ed99c0cefefb87a29d74181cdac78551d92eaf68be8be92655fbd3a6eb9fe37021c2900","gasLimit":"0x1c9c380","gasUsed":"0x1e205","hash":"0xf85301b386fd273b51080bf40bf541acd9edcfbb6596c63fd266ec1a7bfff1c8","logsBloom":"0x40000000000000000000000000000000000000000001008800000000000000000000000000000000000000000002000000000000000000000000000200200000840000000040000000000008000000000000008000002004000000000000000000000001000000000000000100000000000000000000000000000010000000000000000000000000000000000000020000000000000000000008000000000000020000000000000000020000000000000000000001000020000100000000000000000002000000000000000000000000000000000000000000000000000000000010000000001000000000000000000000000000000000000000000000000000","miner":"0x0000000000000000000000000000000000000000","mixHash":"0x0000000000000000000000000000000000000000000000000000000000000000","nonce":"0x0000000000000000","number":"0xd0033b","parentHash":"0x40643dbccc56b70857b46bc07a8b27b435cddf6a3332c66a959414c99f350d50","receiptsRoot":"0x5f3d2ac5ba1932116cfa02e2f234ebc519b39c10dbe3204a5baa736a4c16d6af","sha3Uncles":"0x1dcc4de8dec75d7aab85b567b6ccd41ad312451b948a7413f0a142fd40d49347","size":"0x3d8","stateRoot":"0xe679211fdb8de4c3198008310ceb34153cf356a8d3b060d99f49b75212c86aad","timestamp":"0x65243e6b","totalDifficulty":"0x1a00677","transactions":[{"blockHash":"0xf85301b386fd273b51080bf40bf541acd9edcfbb6596c63fd266ec1a7bfff1c8","blockNumber":"0xd0033b","from":"0xa500b5e6b27d8470171551a969ad83b5b00495f6","gas":"0x1f9a2","gasPrice":"0x2faf080","hash":"0xa311946aed90f05ac0328d8df1b7f079c0d7764a20714a4ce62f25a641704810","index":"0xd0033a","input":"0x414bf389000000000000000000000000201eba5cc46d216ce6dc03f6a759e8e766e956ae000000000000000000000000deaddeaddeaddeaddeaddeaddeaddeaddead111100000000000000000000000000000000000000000000000000000000000001f4000000000000000000000000a500b5e6b27d8470171551a969ad83b5b00495f60000000000000000000000000000000000000000000000000000000065243e8b00000000000000000000000000000000000000000000000000000000001360f00000000000000000000000000000000000000000000000000002c66a14b7eaaf0000000000000000000000000000000000000000000000000000000000000000","l1BlockNumber":"0x11774e7","l1Timestamp":"0x65243e6b","l1TxOrigin":null,"nonce":"0x650","queueIndex":null,"queueOrigin":"sequencer","r":"0xfc178ad3e21287436c424ecda602092002fe15f3df14539d0444980fd0ec1a5d","rawTransaction":"0xf9016e8206508402faf0808301f9a294319b69888b0d11cec22caa5034e25fffbdc8842180b90104414bf389000000000000000000000000201eba5cc46d216ce6dc03f6a759e8e766e956ae000000000000000000000000deaddeaddeaddeaddeaddeaddeaddeaddead111100000000000000000000000000000000000000000000000000000000000001f4000000000000000000000000a500b5e6b27d8470171551a969ad83b5b00495f60000000000000000000000000000000000000000000000000000000065243e8b00000000000000000000000000000000000000000000000000000000001360f00000000000000000000000000000000000000000000000000002c66a14b7eaaf0000000000000000000000000000000000000000000000000000000000000000822733a0fc178ad3e21287436c424ecda602092002fe15f3df14539d0444980fd0ec1a5da050994011478f36cd8b156e283a109e77434e0c10a4bd406a3d20c39d77b4c255","s":"0x50994011478f36cd8b156e283a109e77434e0c10a4bd406a3d20c39d77b4c255","to":"0x319b69888b0d11cec22caa5034e25fffbdc88421","transactionIndex":"0x0","v":"0x2733","value":"0x0"}],"transactionsRoot":"0x8d2a5616720c119698aeb5a118812375d3a5d7ca875c24cb30ed6037ee4348df","uncles":[]},"receipts":{"0xa311946aed90f05ac0328d8df1b7f079c0d7764a20714a4ce62f25a641704810":{"blockHash":"0xf85301b386fd273b51080bf40bf541acd9edcfbb6596c63fd266ec1a7bfff1c8","blockNumber":"0xd0033b","from":"0xa500b5e6b27d8470171551a969ad83b5b00495f6","gas":"0x1f9a2","gasPrice":"0x2faf080","hash":"0xa311946aed90f05ac0328d8df1b7f079c0d7764a20714a4ce62f25a641704810","index":"0xd0033a","input":"0x414bf389000000000000000000000000201eba5cc46d216ce6dc03f6a759e8e766e956ae000000000000000000000000deaddeaddeaddeaddeaddeaddeaddeaddead111100000000000000000000000000000000000000000000000000000000000001f4000000000000000000000000a500b5e6b27d8470171551a969ad83b5b00495f60000000000000000000000000000000000000000000000000000000065243e8b00000000000000000000000000000000000000000000000000000000001360f00000000000000000000000000000000000000000000000000002c66a14b7eaaf0000000000000000000000000000000000000000000000000000000000000000","l1BlockNumber":"0x11774e7","l1Timestamp":"0x65243e6b","l1TxOrigin":null,"nonce":"0x650","queueIndex":null,"queueOrigin":"sequencer","r":"0xfc178ad3e21287436c424ecda602092002fe15f3df14539d0444980fd0ec1a5d","rawTransaction":"0xf9016e8206508402faf0808301f9a294319b69888b0d11cec22caa5034e25fffbdc8842180b90104414bf389000000000000000000000000201eba5cc46d216ce6dc03f6a759e8e766e956ae000000000000000000000000deaddeaddeaddeaddeaddeaddeaddeaddead111100000000000000000000000000000000000000000000000000000000000001f4000000000000000000000000a500b5e6b27d8470171551a969ad83b5b00495f60000000000000000000000000000000000000000000000000000000065243e8b00000000000000000000000000000000000000000000000000000000001360f00000000000000000000000000000000000000000000000000002c66a14b7eaaf0000000000000000000000000000000000000000000000000000000000000000822733a0fc178ad3e21287436c424ecda602092002fe15f3df14539d0444980fd0ec1a5da050994011478f36cd8b156e283a109e77434e0c10a4bd406a3d20c39d77b4c255","s":"0x50994011478f36cd8b156e283a109e77434e0c10a4bd406a3d20c39d77b4c255","to":"0x319b69888b0d11cec22caa5034e25fffbdc88421","transactionIndex":"0x0","v":"0x2733","value":"0x0","contractAddress":null,"cumulativeGasUsed":"0x1e205","daFee":"0x0","daGasPrice":"0x0","daGasUsed":"0x12c","gasUsed":"0x1e205","l1Fee":"0x19709d787180660","l1FeeScalar":"1","l1GasPrice":"0x38a987f04864","l1GasUsed":"0x72f","logs":[{"address":"0xdeaddeaddeaddeaddeaddeaddeaddeaddead1111","blockHash":"0xf85301b386fd273b51080bf40bf541acd9edcfbb6596c63fd266ec1a7bfff1c8","blockNumber":"0xd0033b","data":"0x0000000000000000000000000000000000000000000000000002d4e9a233d55a","logIndex":"0x0","removed":false,"topics":["0xddf252ad1be2c89b69c2b068fc378daa952ba7f163c4a11628f55a4df523b3ef","0x000000000000000000000000628f7131cf43e88ebe3921ae78c4ba0c31872bd4","0x000000000000000000000000a500b5e6b27d8470171551a969ad83b5b00495f6"],"transactionHash":"0xa311946aed90f05ac0328d8df1b7f079c0d7764a20714a4ce62f25a641704810","transactionIndex":"0x0"},{"address":"0x201eba5cc46d216ce6dc03f6a759e8e766e956ae","blockHash":"0xf85301b386fd273b51080bf40bf541acd9edcfbb6596c63fd266ec1a7bfff1c8","blockNumber":"0xd0033b","data":"0x00000000000000000000000000000000000000000000000000000000001360f0","logIndex":"0x1","removed":false,"topics":["0xddf252ad1be2c89b69c2b068fc378daa952ba7f163c4a11628f55a4df523b3ef","0x000000000000000000000000a500b5e6b27d8470171551a969ad83b5b00495f6","0x000000000000000000000000628f7131cf43e88ebe3921ae78c4ba0c31872bd4"],"transactionHash":"0xa311946aed90f05ac0328d8df1b7f079c0d7764a20714a4ce62f25a641704810","transactionIndex":"0x0"},{"address":"0x201eba5cc46d216ce6dc03f6a759e8e766e956ae","blockHash":"0xf85301b386fd273b51080bf40bf541acd9edcfbb6596c63fd266ec1a7bfff1c8","blockNumber":"0xd0033b","data":"0xffffffffffffffffffffffffffffffffffffffffffffffffffffffffd6d7a74f","logIndex":"0x2","removed":false,"topics":["0x8c5be1e5ebec7d5bd14f71427d1e84f3dd0314c0f7b2291e5b200ac8c7c3b925","0x000000000000000000000000a500b5e6b27d8470171551a969ad83b5b00495f6","0x000000000000000000000000319b69888b0d11cec22caa5034e25fffbdc88421"],"transactionHash":"0xa311946aed90f05ac0328d8df1b7f079c0d7764a20714a4ce62f25a641704810","transactionIndex":"0x0"},{"address":"0x628f7131cf43e88ebe3921ae78c4ba0c31872bd4","blockHash":"0xf85301b386fd273b51080bf40bf541acd9edcfbb6596c63fd266ec1a7bfff1c8","blockNumber":"0xd0033b","data":"0x00000000000000000000000000000000000000000000000000000000001360f0fffffffffffffffffffffffffffffffffffffffffffffffffffd2b165dcc2aa600000000000000000000000000000000000061da03ee86ac91282ddb7734209a00000000000000000000000000000000000000000000000000002c65dde06c20000000000000000000000000000000000000000000000000000000000003175600000000000000000000000000000000000000000000000000000000000000d70000000000000000000000000000000000000000000000000000000000000000","logIndex":"0x3","removed":false,"topics":["0x19b47279256b2a23a1665c810c8d55a1758940ee09377d4f8d26497a3577dc83","0x000000000000000000000000319b69888b0d11cec22caa5034e25fffbdc88421","0x000000000000000000000000a500b5e6b27d8470171551a969ad83b5b00495f6"],"transactionHash":"0xa311946aed90f05ac0328d8df1b7f079c0d7764a20714a4ce62f25a641704810","transactionIndex":"0x0"}],"logsBloom":"0x40000000000000000000000000000000000000000001008800000000000000000000000000000000000000000002000000000000000000000000000200200000840000000040000000000008000000000000008000002004000000000000000000000001000000000000000100000000000000000000000000000010000000000000000000000000000000000000020000000000000000000008000000000000020000000000000000020000000000000000000001000020000100000000000000000002000000000000000000000000000000000000000000000000000000000010000000001000000000000000000000000000000000000000000000000000","status":"0x1","transactionHash":"0xa311946aed90f05ac0328d8df1b7f079c0d7764a20714a4ce62f25a641704810"}}}