{"block":{"difficulty":"0x2","extraData":"0xd98301090a846765746889676f312e31352e3133856c696e75780000000000007e7922070462251dd2877a69ba55f0cd75f3ba8cd49bf5d3a4126d339cbe711f011624ecd9b87d2c645ea5cd8a6f01e222fefac8370e252469822fee79694f6b00","gasLimit":"0x1c9c380","gasUsed":"0xb4ab","hash":"0x794e15cfa422a2c3de094a263a86b811770812019cde51a44d47f1e3dd57def9","logsBloom":"0x00000000000000000000000000000000000000000001000000000000020000000000000000000000000000000000000000000000000000000000000000200000000000000000000000000000000000000000008000002000000400000000000000000000000000000000000000000000000000000000000400000000000000080000000000000000000000000000000000000200000000000000000000000000020000000000000000000000000000000000000000000000000000000000000000000000000000002000000000000000000000000000000000000000000000000010000000000000000000000000000000000000000000000000000000000000","miner":"0x0000000000000000000000000000000000000000","mixHash":"0x0000000000000000000000000000000000000000000000000000000000000000","nonce":"0x0000000000000000","number":"0xd00b1e","parentHash":"0x756dee99a5d8539ac6b2eccd08982a34016e9e79ac920d833fe0144e6688aa9a","receiptsRoot":"0x3d3e6d626daa5e253239de4fbcba0cc8c98b73edfd6861ff2152a4639604cb1c","sha3Uncles":"0x1dcc4de8dec75d7aab85b567b6ccd41ad312451b948a7413f0a142fd40d49347","size":"0x311","stateRoot":"0x9e30d801a3e0a5ea183abd6eca905fd1b74d19189d008bf5b4b3daf4eed3672f","timestamp":"0x65244211","totalDifficulty":"0x1a0163d","transactions":[{"blockHash":"0x794e15cfa422a2c3de094a263a86b811770812019cde51a44d47f1e3dd57def9","blockNumber":"0xd00b1e","from":"0xb247b4531d601a04d704657509843106dfa30512","gas":"0xb4ab","gasPrice":"0x2faf080","hash":"0x89a83bb3129833bce32b5f6c42c5337592a21ca081de2f4c1d11c1a9e1f3a0ca","index":"0xd00b1d","input":"0x095ea7b3000000000000000000000000cfa5ae7c2ce8fadc6426c1ff872ca45378fb7cf3000000000000000000000000000000000000000000000000000000000007a120","l1BlockNumber":"0x1177534","l1Timestamp":"0x65244211","l1TxOrigin":null,"nonce":"0x4","queueIndex":null,"queueOrigin":"sequencer","r":"0x25e632d16b1a5bec1a6a0ff24ab099751ef68a94fda21a2eec8d995cbadff350","rawTransaction":"0xf8aa048402faf08082b4ab94201eba5cc46d216ce6dc03f6a759e8e766e956ae80b844095ea7b3000000000000000000000000cfa5ae7c2ce8fadc6426c1ff872ca45378fb7cf3000000000000000000000000000000000000000000000000000000000007a120822734a025e632d16b1a5bec1a6a0ff24ab099751ef68a94fda21a2eec8d995cbadff350a037c1ebb830c50e09f451f94a6f4769433a0f1fdc6f16ecaf3b1ebc34e26ee5ee","s":"0x37c1ebb830c50e09f451f94a6f4769433a0f1fdc6f16ecaf3b1ebc34e26ee5ee","to":"0x201eba5cc46d216ce6dc03f6a759e8e766e956ae","transactionIndex":"0x0","v":"0x2734","value":"0x0"}],"transactionsRoot":"0x22fa919607a0e98a8aea62ae58c2d088487b02c7e4fd4774415781a2c22197c1","uncles":[]},"receipts":{"0x89a83bb3129833bce32b5f6c42c5337592a21ca081de2f4c1d11c1a9e1f3a0ca":{"blockHash":"0x794e15cfa422a2c3de094a263a86b811770812019cde51a44d47f1e3dd57def9","blockNumber":"0xd00b1e","from":"0xb247b4531d601a04d704657509843106dfa30512","gas":"0xb4ab","gasPrice":"0x2faf080","hash":"0x89a83bb3129833bce32b5f6c42c5337592a21ca081de2f4c1d11c1a9e1f3a0ca","index":"0xd00b1d","input":"0x095ea7b3000000000000000000000000cfa5ae7c2ce8fadc6426c1ff872ca45378fb7cf3000000000000000000000000000000000000000000000000000000000007a120","l1BlockNumber":"0x1177534","l1Timestamp":"0x65244211","l1TxOrigin":null,"nonce":"0x4","queueIndex":null,"queueOrigin":"sequencer","r":"0x25e632d16b1a5bec1a6a0ff24ab099751ef68a94fda21a2eec8d995cbadff350","rawTransaction":"0xf8aa048402faf08082b4ab94201eba5cc46d216ce6dc03f6a759e8e766e956ae80b844095ea7b3000000000000000000000000cfa5ae7c2ce8fadc6426c1ff872ca45378fb7cf3000000000000000000000000000000000000000000000000000000000007a120822734a025e632d16b1a5bec1a6a0ff24ab099751ef68a94fda21a2eec8d995cbadff350a037c1ebb830c50e09f451f94a6f4769433a0f1fdc6f16ecaf3b1ebc34e26ee5ee","s":"0x37c1ebb830c50e09f451f94a6f4769433a0f1fdc6f16ecaf3b1ebc34e26ee5ee","to":"0x201eba5cc46d216ce6dc03f6a759e8e766e956ae","transactionIndex":"0x0","v":"0x2734","value":"0x0","contractAddress":null,"cumulativeGasUsed":"0xb4ab","daFee":"0x0","daGasPrice":"0x0","daGasUsed":"0x67","gasUsed":"0xb4ab","l1Fee":"0x1911132b46ddf60","l1FeeScalar":"1","l1GasPrice":"0x37d4bc06bddc","l1GasUsed":"0x72f","logs":[{"address":"0x201eba5cc46d216ce6dc03f6a759e8e766e956ae","blockHash":"0x794e15cfa422a2c3de094a263a86b811770812019cde51a44d47f1e3dd57def9","blockNumber":"0xd00b1e","data":"0x000000000000000000000000000000000000000000000000000000000007a120","logIndex":"0x0","removed":false,"topics":["0x8c5be1e5ebec7d5bd14f71427d1e84f3dd0314c0f7b2291e5b200ac8c7c3b925","0x000000000000000000000000b247b4531d601a04d704657509843106dfa30512","0x000000000000000000000000cfa5ae7c2ce8fadc6426c1ff872ca45378fb7cf3"],"transactionHash":"0x89a83bb3129833bce32b5f6c42c5337592a21ca081de2f4c1d11c1a9e1f3a0ca","transactionIndex":"0x0"}],"logsBloom":"0x00000000000000000000000000000000000000000001000000000000020000000000000000000000000000000000000000000000000000000000000000200000000000000000000000000000000000000000008000002000000400000000000000000000000000000000000000000000000000000000000400000000000000080000000000000000000000000000000000000200000000000000000000000000020000000000000000000000000000000000000000000000000000000000000000000000000000002000000000000000000000000000000000000000000000000010000000000000000000000000000000000000000000000000000000000000","status":"0x1","transactionHash":"0x89a83bb3129833bce32b5f6c42c5337592a21ca081de2f4c1d11c1a9e1f3a0ca"}}}