{"block":{"difficulty":"0x2","extraData":"0xd98301090a846765746889676f312e31352e3133856c696e75780000000000005a82f73a21622cea3705b4fadc89abf6fa16a89582ad499d596163d3466e776c79b79aa6007fe403d504190f6a9a7b23b04241b2b1c0c7612f09d27b07354f9501","gasLimit":"0x1c9c380","gasUsed":"0x76f4e","hash":"0x8e5a4d02f9cfe178fb1f9111c158d137a707ca48c95874920f11d27c402ffacb","logsBloom":"0x00040000200010000000100002000000000000000001000000000000000000000000000000000000100000400000000000000000000100000200080000200000100000000000000000000008000000000001008000042000000000000000000400000000020000020000000000010800000000000004000000000010000000000010000108000000004000800000000000108000040000000004000000000000020000000000002000000000000000000000200000000000000000000000000000020002000000000080083000000000000000000000000000400000000020400010080000040010000000004000000000000008000000080000002000014000","miner":"0x0000000000000000000000000000000000000000","mixHash":"0x0000000000000000000000000000000000000000000000000000000000000000","nonce":"0x0000000000000000","number":"0xd001c5","parentHash":"0x8283b793ce2dcc1cf8c24263be9f477a7c54036797aef1e1a4936ead462ed501","receiptsRoot":"0x28840be57528dfa700e5c2aa03865ba56ce057a8844169d4511b38bd1b3a6cf3","sha3Uncles":"0x1dcc4de8dec75d7aab85b567b6ccd41ad312451b948a7413f0a142fd40d49347","size":"0x3d6","stateRoot":"0x010fc8112079af71b504b68f8feac8d8bed573a3c652d79e604370a9f9215f24","timestamp":"0x65243daa","totalDifficulty":"0x1a0038b","transactions":[{"blockHash":"0x8e5a4d02f9cfe178fb1f9111c158d137a707ca48c95874920f11d27c402ffacb","blockNumber":"0xd001c5","from":"0xd510e5719e13fe6b8a4085a1c908abf42a274e38","gas":"0x9094c","gasPrice":"0x2faf080","hash":"0x549e03b39da81a5ecee85c2b9d619a653be053cfac26fab6abb1e734b6343e08","index":"0xd001c4","input":"0x8e3c92e40000000000000000000000000000000000000000000000000000000000000869000000000000000000000000000000000000000000000000002386f26fc10000000000000000000000000000d510e5719e13fe6b8a4085a1c908abf42a274e380000000000000000000000001ee3ae551188661553882fdc75f8f62eaa6726ad0000000000000000000000000000000000000000000000000000000000000000000000000000000000000000000000000000000000000000000000000000000000000000000000000000000000000000000000000000000000000000000000000000000000000000000000000000000000000000000000000000000000000000","l1BlockNumber":"0x11774d7","l1Timestamp":"0x65243daa","l1TxOrigin":null,"nonce":"0x17","queueIndex":null,"queueOrigin":"sequencer","r":"0x8da2413aaf2600bc9ec04928b13d7cd55dd094a1ed557b3efb795558284c1bd7","rawTransaction":"0xf9016c178402faf0808309094c94fc13ebe7feb9595d70195e9168aa7f3ace15362180b901048e3c92e40000000000000000000000000000000000000000000000000000000000000869000000000000000000000000000000000000000000000000002386f26fc10000000000000000000000000000d510e5719e13fe6b8a4085a1c908abf42a274e380000000000000000000000001ee3ae551188661553882fdc75f8f62eaa6726ad0000000000000000000000000000000000000000000000000000000000000000000000000000000000000000000000000000000000000000000000000000000000000000000000000000000000000000000000000000000000000000000000000000000000000000000000000000000000000000000000000000000000000000822733a08da2413aaf2600bc9ec04928b13d7cd55dd094a1ed557b3efb795558284c1bd7a0566afc1237b310a71983907aa6fdfef45842a789c1a4bb7142fadac86b810428","s":"0x566afc1237b310a71983907aa6fdfef45842a789c1a4bb7142fadac86b810428","to":"0xfc13ebe7feb9595d70195e9168aa7f3ace153621","transactionIndex":"0x0","v":"0x2733","value":"0x0"}],"transactionsRoot":"0x804db73d3acfc830b923fe327817554292008ff641bfadd758552f116c6abc48","uncles":[]},"receipts":{"0x549e03b39da81a5ecee85c2b9d619a653be053cfac26fab6abb1e734b6343e08":{"blockHash":"0x8e5a4d02f9cfe178fb1f9111c158d137a707ca48c95874920f11d27c402ffacb","blockNumber":"0xd001c5","from":"0xd510e5719e13fe6b8a4085a1c908abf42a274e38","gas":"0x9094c","gasPrice":"0x2faf080","hash":"0x549e03b39da81a5ecee85c2b9d619a653be053cfac26fab6abb1e734b6343e08","index":"0xd001c4","input":"0x8e3c92e40000000000000000000000000000000000000000000000000000000000000869000000000000000000000000000000000000000000000000002386f26fc10000000000000000000000000000d510e5719e13fe6b8a4085a1c908abf42a274e380000000000000000000000001ee3ae551188661553882fdc75f8f62eaa6726ad0000000000000000000000000000000000000000000000000000000000000000000000000000000000000000000000000000000000000000000000000000000000000000000000000000000000000000000000000000000000000000000000000000000000000000000000000000000000000000000000000000000000000000","l1BlockNumber":"0x11774d7","l1Timestamp":"0x65243daa","l1TxOrigin":null,"nonce":"0x17","queueIndex":null,"queueOrigin":"sequencer","r":"0x8da2413aaf2600bc9ec04928b13d7cd55dd094a1ed557b3efb795558284c1bd7","rawTransaction":"0xf9016c178402faf0808309094c94fc13ebe7feb9595d70195e9168aa7f3ace15362180b901048e3c92e40000000000000000000000000000000000000000000000000000000000000869000000000000000000000000000000000000000000000000002386f26fc10000000000000000000000000000d510e5719e13fe6b8a4085a1c908abf42a274e380000000000000000000000001ee3ae551188661553882fdc75f8f62eaa6726ad0000000000000000000000000000000000000000000000000000000000000000000000000000000000000000000000000000000000000000000000000000000000000000000000000000000000000000000000000000000000000000000000000000000000000000000000000000000000000000000000000000000000000000822733a08da2413aaf2600bc9ec04928b13d7cd55dd094a1ed557b3efb795558284c1bd7a0566afc1237b310a71983907aa6fdfef45842a789c1a4bb7142fadac86b810428","s":"0x566afc1237b310a71983907aa6fdfef45842a789c1a4bb7142fadac86b810428","to":"0xfc13ebe7feb9595d70195e9168aa7f3ace153621","transactionIndex":"0x0","v":"0x2733","value":"0x0","contractAddress":null,"cumulativeGasUsed":"0x76f4e","daFee":"0x0","daGasPrice":"0x0","daGasUsed":"0x12a","gasUsed":"0x76f4e","l1Fee":"0x19709d787180660","l1FeeScalar":"1","l1GasPrice":"0x38a987f04864","l1GasUsed":"0x72f","logs":[{"address":"0x262255f4770aebe2d0c8b97a46287dcecc2a0aff","blockHash":"0x8e5a4d02f9cfe178fb1f9111c158d137a707ca48c95874920f11d27c402ffacb","blockNumber":"0xd001c5","data":"0x000000000000000000000000000000000000000000000000000000000000000000000000000000000000000000000000000000000000000000000000000000000000000000000000000000000000000000000000000000000000000000000000","logIndex":"0x0","removed":false,"topics":["0x0c396cd989a39f4459b5fa1aed6a9a8dcdbc45908acfd67e028cd568da98982c","0x0000000000000000000000001ee3ae551188661553882fdc75f8f62eaa6726ad","0x000000000000000000000000000000000000000000000000000000000004482c","0x00000000000000000000000000000000000000000000000000000000000469ce"],"transactionHash":"0x549e03b39da81a5ecee85c2b9d619a653be053cfac26fab6abb1e734b6343e08","transactionIndex":"0x0"},{"address":"0x78c1b0c915c4faa5fffa6cabf0219da63d7f4cb8","blockHash":"0x8e5a4d02f9cfe178fb1f9111c158d137a707ca48c95874920f11d27c402ffacb","blockNumber":"0xd001c5","data":"0x0000000000000000000000000000000000000000000000000000075bbf59af0c","logIndex":"0x1","removed":false,"topics":["0xddf252ad1be2c89b69c2b068fc378daa952ba7f163c4a11628f55a4df523b3ef","0x000000000000000000000000262255f4770aebe2d0c8b97a46287dcecc2a0aff","0x0000000000000000000000001ee3ae551188661553882fdc75f8f62eaa6726ad"],"transactionHash":"0x549e03b39da81a5ecee85c2b9d619a653be053cfac26fab6abb1e734b6343e08","transactionIndex":"0x0"},{"address":"0x262255f4770aebe2d0c8b97a46287dcecc2a0aff","blockHash":"0x8e5a4d02f9cfe178fb1f9111c158d137a707ca48c95874920f11d27c402ffacb","blockNumber":"0xd001c5","data":"0x0000000000000000000000001ee3ae551188661553882fdc75f8f62eaa6726ad00000000000000000000000000000000000000000000000000000000000000000000000000000000000000000000000000000000000000000000075bbf59af0c","logIndex":"0x2","removed":false,"topics":["0x70935338e69775456a85ddef226c395fb668b63fa0115f5f20610b388e6ca9c0","0x0000000000000000000000001ee3ae551188661553882fdc75f8f62eaa6726ad","0x000000000000000000000000000000000000000000000000000000000004482c","0x00000000000000000000000000000000000000000000000000000000000469ce"],"transactionHash":"0x549e03b39da81a5ecee85c2b9d619a653be053cfac26fab6abb1e734b6343e08","transactionIndex":"0x0"},{"address":"0x1ee3ae551188661553882fdc75f8f62eaa6726ad","blockHash":"0x8e5a4d02f9cfe178fb1f9111c158d137a707ca48c95874920f11d27c402ffacb","blockNumber":"0xd001c5","data":"0x000000000000000000000000000000000000000000000000000000000000000f00000000000000000000000000000000000000000000000000000000000000000000000000000000000000000000000000000000000000000000075bbf59af0c","logIndex":"0x3","removed":false,"topics":["0x4606b8a47eb284e8e80929101ece6ab5fe8d4f8735acc56bd0c92ca872f2cfe7"],"transactionHash":"0x549e03b39da81a5ecee85c2b9d619a653be053cfac26fab6abb1e734b6343e08","transactionIndex":"0x0"},{"address":"0x78c1b0c915c4faa5fffa6cabf0219da63d7f4cb8","blockHash":"0x8e5a4d02f9cfe178fb1f9111c158d137a707ca48c95874920f11d27c402ffacb","blockNumber":"0xd001c5","data":"0x0000000000000000000000000000000000000000000000000000011a8fe70d75","logIndex":"0x4","removed":false,"topics":["0xddf252ad1be2c89b69c2b068fc378daa952ba7f163c4a11628f55a4df523b3ef","0x0000000000000000000000001ee3ae551188661553882fdc75f8f62eaa6726ad","0x0000000000000000000000000a3305e51bfcdc5ff4ecce0a46712c579fe7999a"],"transactionHash":"0x549e03b39da81a5ecee85c2b9d619a653be053cfac26fab6abb1e734b6343e08","transactionIndex":"0x0"},{"address":"0x262255f4770aebe2d0c8b97a46287dcecc2a0aff","blockHash":"0x8e5a4d02f9cfe178fb1f9111c158d137a707ca48c95874920f11d27c402ffacb","blockNumber":"0xd001c5","data":"0x000000000000000000000000000000000000000000000000000000000000000000000000000000000000000000000000000000000000000000000000000000000000000000000000000000000000000000000000000000000000000000000000","logIndex":"0x5","removed":false,"topics":["0x0c396cd989a39f4459b5fa1aed6a9a8dcdbc45908acfd67e028cd568da98982c","0x0000000000000000000000001ee3ae551188661553882fdc75f8f62eaa6726ad","0x000000000000000000000000000000000000000000000000000000000004482c","0x00000000000000000000000000000000000000000000000000000000000458ee"],"transactionHash":"0x549e03b39da81a5ecee85c2b9d619a653be053cfac26fab6abb1e734b6343e08","transactionIndex":"0x0"},{"address":"0x262255f4770aebe2d0c8b97a46287dcecc2a0aff","blockHash":"0x8e5a4d02f9cfe178fb1f9111c158d137a707ca48c95874920f11d27c402ffacb","blockNumber":"0xd001c5","data":"0x0000000000000000000000001ee3ae551188661553882fdc75f8f62eaa6726ad00000000000000000000000000000000000000000000000000000000000000000000000000000000000000000000000000000000000000000000000000000000","logIndex":"0x6","removed":false,"topics":["0x70935338e69775456a85ddef226c395fb668b63fa0115f5f20610b388e6ca9c0","0x0000000000000000000000001ee3ae551188661553882fdc75f8f62eaa6726ad","0x000000000000000000000000000000000000000000000000000000000004482c","0x00000000000000000000000000000000000000000000000000000000000458ee"],"transactionHash":"0x549e03b39da81a5ecee85c2b9d619a653be053cfac26fab6abb1e734b6343e08","transactionIndex":"0x0"},{"address":"0x1ee3ae551188661553882fdc75f8f62eaa6726ad","blockHash":"0x8e5a4d02f9cfe178fb1f9111c158d137a707ca48c95874920f11d27c402ffacb","blockNumber":"0xd001c5","data":"0x000000000000000000000000000000000000000000000000000000000000000f00000000000000000000000000000000000000000000000000000000000000000000000000000000000000000000000000000000000000000000000000000000","logIndex":"0x7","removed":false,"topics":["0x4606b8a47eb284e8e80929101ece6ab5fe8d4f8735acc56bd0c92ca872f2cfe7"],"transactionHash":"0x549e03b39da81a5ecee85c2b9d619a653be053cfac26fab6abb1e734b6343e08","transactionIndex":"0x0"},{"address":"0x201eba5cc46d216ce6dc03f6a759e8e766e956ae","blockHash":"0x8e5a4d02f9cfe178fb1f9111c158d137a707ca48c95874920f11d27c402ffacb","blockNumber":"0xd001c5","data":"0x0000000000000000000000000000000000000000000000000000000000000869","logIndex":"0x8","removed":false,"topics":["0xddf252ad1be2c89b69c2b068fc378daa952ba7f163c4a11628f55a4df523b3ef","0x000000000000000000000000d510e5719e13fe6b8a4085a1c908abf42a274e38","0x0000000000000000000000001ee3ae551188661553882fdc75f8f62eaa6726ad"],"transactionHash":"0x549e03b39da81a5ecee85c2b9d619a653be053cfac26fab6abb1e734b6343e08","transactionIndex":"0x0"},{"address":"0x201eba5cc46d216ce6dc03f6a759e8e766e956ae","blockHash":"0x8e5a4d02f9cfe178fb1f9111c158d137a707ca48c95874920f11d27c402ffacb","blockNumber":"0xd001c5","data":"0x000000000000000000000000000000000000000000000000000000000019681d","logIndex":"0x9","removed":false,"topics":["0x8c5be1e5ebec7d5bd14f71427d1e84f3dd0314c0f7b2291e5b200ac8c7c3b925","0x000000000000000000000000d510e5719e13fe6b8a4085a1c908abf42a274e38","0x0000000000000000000000001ee3ae551188661553882fdc75f8f62eaa6726ad"],"transactionHash":"0x549e03b39da81a5ecee85c2b9d619a653be053cfac26fab6abb1e734b6343e08","transactionIndex":"0x0"},{"address":"0x78c1b0c915c4faa5fffa6cabf0219da63d7f4cb8","blockHash":"0x8e5a4d02f9cfe178fb1f9111c158d137a707ca48c95874920f11d27c402ffacb","blockNumber":"0xd001c5","data":"0x000000000000000000000000000000000000000000000000002386f26fc10000","logIndex":"0xa","removed":false,"topics":["0xddf252ad1be2c89b69c2b068fc378daa952ba7f163c4a11628f55a4df523b3ef","0x000000000000000000000000d510e5719e13fe6b8a4085a1c908abf42a274e38","0x0000000000000000000000001ee3ae551188661553882fdc75f8f62eaa6726ad"],"transactionHash":"0x549e03b39da81a5ecee85c2b9d619a653be053cfac26fab6abb1e734b6343e08","transactionIndex":"0x0"},{"address":"0x78c1b0c915c4faa5fffa6cabf0219da63d7f4cb8","blockHash":"0x8e5a4d02f9cfe178fb1f9111c158d137a707ca48c95874920f11d27c402ffacb","blockNumber":"0xd001c5","data":"0x00000000000000000000000000000000000000000000000036d138126ecb0000","logIndex":"0xb","removed":false,"topics":["0x8c5be1e5ebec7d5bd14f71427d1e84f3dd0314c0f7b2291e5b200ac8c7c3b925","0x000000000000000000000000d510e5719e13fe6b8a4085a1c908abf42a274e38","0x0000000000000000000000001ee3ae551188661553882fdc75f8f62eaa6726ad"],"transactionHash":"0x549e03b39da81a5ecee85c2b9d619a653be053cfac26fab6abb1e734b6343e08","transactionIndex":"0x0"},{"address":"0x201eba5cc46d216ce6dc03f6a759e8e766e956ae","blockHash":"0x8e5a4d02f9cfe178fb1f9111c158d137a707ca48c95874920f11d27c402ffacb","blockNumber":"0xd001c5","data":"0x000000000000000000000000000000000000000000000000000000000000087f","logIndex":"0xc","removed":false,"topics":["0xddf252ad1be2c89b69c2b068fc378daa952ba7f163c4a11628f55a4df523b3ef","0x0000000000000000000000001ee3ae551188661553882fdc75f8f62eaa6726ad","0x000000000000000000000000262255f4770aebe2d0c8b97a46287dcecc2a0aff"],"transactionHash":"0x549e03b39da81a5ecee85c2b9d619a653be053cfac26fab6abb1e734b6343e08","transactionIndex":"0x0"},{"address":"0x78c1b0c915c4faa5fffa6cabf0219da63d7f4cb8","blockHash":"0x8e5a4d02f9cfe178fb1f9111c158d137a707ca48c95874920f11d27c402ffacb","blockNumber":"0xd001c5","data":"0x00000000000000000000000000000000000000000000000000238d339f2ffbc2","logIndex":"0xd","removed":false,"topics":["0xddf252ad1be2c89b69c2b068fc378daa952ba7f163c4a11628f55a4df523b3ef","0x0000000000000000000000001ee3ae551188661553882fdc75f8f62eaa6726ad","0x000000000000000000000000262255f4770aebe2d0c8b97a46287dcecc2a0aff"],"transactionHash":"0x549e03b39da81a5ecee85c2b9d619a653be053cfac26fab6abb1e734b6343e08","transactionIndex":"0x0"},{"address":"0x262255f4770aebe2d0c8b97a46287dcecc2a0aff","blockHash":"0x8e5a4d02f9cfe178fb1f9111c158d137a707ca48c95874920f11d27c402ffacb","blockNumber":"0xd001c5","data":"0x0000000000000000000000001ee3ae551188661553882fdc75f8f62eaa6726ad00000000000000000000000000000000000000000000000000000005dcfa1376000000000000000000000000000000000000000000000000000000000000087f00000000000000000000000000000000000000000000000000238d339f2ffbc2","logIndex":"0xe","removed":false,"topics":["0x7a53080ba414158be7ec69b987b5fb7d07dee101fe85488f0853ae16239d0bde","0x0000000000000000000000001ee3ae551188661553882fdc75f8f62eaa6726ad","0x000000000000000000000000000000000000000000000000000000000004482c","0x00000000000000000000000000000000000000000000000000000000000469ce"],"transactionHash":"0x549e03b39da81a5ecee85c2b9d619a653be053cfac26fab6abb1e734b6343e08","transactionIndex":"0x0"},{"address":"0x78c1b0c915c4faa5fffa6cabf0219da63d7f4cb8","blockHash":"0x8e5a4d02f9cfe178fb1f9111c158d137a707ca48c95874920f11d27c402ffacb","blockNumber":"0xd001c5","data":"0x0000000000000000000000000000000000000000000000000000000000048664","logIndex":"0xf","removed":false,"topics":["0xddf252ad1be2c89b69c2b068fc378daa952ba7f163c4a11628f55a4df523b3ef","0x0000000000000000000000001ee3ae551188661553882fdc75f8f62eaa6726ad","0x000000000000000000000000262255f4770aebe2d0c8b97a46287dcecc2a0aff"],"transactionHash":"0x549e03b39da81a5ecee85c2b9d619a653be053cfac26fab6abb1e734b6343e08","transactionIndex":"0x0"},{"address":"0x262255f4770aebe2d0c8b97a46287dcecc2a0aff","blockHash":"0x8e5a4d02f9cfe178fb1f9111c158d137a707ca48c95874920f11d27c402ffacb","blockNumber":"0xd001c5","data":"0x0000000000000000000000001ee3ae551188661553882fdc75f8f62eaa6726ad000000000000000000000000000000000000000000000000000000000000000100000000000000000000000000000000000000000000000000000000000000000000000000000000000000000000000000000000000000000000000000048664","logIndex":"0x10","removed":false,"topics":["0x7a53080ba414158be7ec69b987b5fb7d07dee101fe85488f0853ae16239d0bde","0x0000000000000000000000001ee3ae551188661553882fdc75f8f62eaa6726ad","0x000000000000000000000000000000000000000000000000000000000004482c","0x00000000000000000000000000000000000000000000000000000000000458ee"],"transactionHash":"0x549e03b39da81a5ecee85c2b9d619a653be053cfac26fab6abb1e734b6343e08","transactionIndex":"0x0"},{"address":"0x1ee3ae551188661553882fdc75f8f62eaa6726ad","blockHash":"0x8e5a4d02f9cfe178fb1f9111c158d137a707ca48c95874920f11d27c402ffacb","blockNumber":"0xd001c5","data":"0x0000000000000000000000000000000000000000000000000034cc77d0a27532","logIndex":"0x11","removed":false,"topics":["0xddf252ad1be2c89b69c2b068fc378daa952ba7f163c4a11628f55a4df523b3ef","0x0000000000000000000000000000000000000000000000000000000000000000","0x000000000000000000000000d510e5719e13fe6b8a4085a1c908abf42a274e38"],"transactionHash":"0x549e03b39da81a5ecee85c2b9d619a653be053cfac26fab6abb1e734b6343e08","transactionIndex":"0x0"},{"address":"0x1ee3ae551188661553882fdc75f8f62eaa6726ad","blockHash":"0x8e5a4d02f9cfe178fb1f9111c158d137a707ca48c95874920f11d27c402ffacb","blockNumber":"0xd001c5","data":"0x0000000000000000000000000000000000000000000000000034cc77d0a275320000000000000000000000000000000000000000000000000000000000000869000000000000000000000000000000000000000000000000002386f26fc10000","logIndex":"0x12","removed":false,"topics":["0x4e2ca0515ed1aef1395f66b5303bb5d6f1bf9d61a353fa53f73f8ac9973fa9f6","0x000000000000000000000000d510e5719e13fe6b8a4085a1c908abf42a274e38","0x000000000000000000000000d510e5719e13fe6b8a4085a1c908abf42a274e38"],"transactionHash":"0x549e03b39da81a5ecee85c2b9d619a653be053cfac26fab6abb1e734b6343e08","transactionIndex":"0x0"}],"logsBloom":"0x00040000200010000000100002000000000000000001000000000000000000000000000000000000100000400000000000000000000100000200080000200000100000000000000000000008000000000001008000042000000000000000000400000000020000020000000000010800000000000004000000000010000000000010000108000000004000800000000000108000040000000004000000000000020000000000002000000000000000000000200000000000000000000000000000020002000000000080083000000000000000000000000000400000000020400010080000040010000000004000000000000008000000080000002000014000","status":"0x1","transactionHash":"0x549e03b39da81a5ecee85c2b9d619a653be053cfac26fab6abb1e734b6343e08"}}}