{"block":{"difficulty":"0x2","extraData":"0xd98301090a846765746889676f312e31352e3133856c696e7578000000000000cf3bab954953026d84c2e3dbcd776cb794e011a02d2cac4fcfb012efa8eb5a795c6d316d3822eee12652c9226d65cf7143cdb6b9c5c38dc1d7f2f4b4b1e50ce200","gasLimit":"0x1c9c380","gasUsed":"0x23fce","hash":"0x157e5f6b450a6da52f6d60d879b72878540345920190f4f05c631a6c6c60a705","logsBloom":"0x00000000000000000000000000000000000000004000000000000000000000000000000000000000000000000000000000000000000000000000000000000000000000000000000000000000000000000000000000000000000000000000000000040000000000000000100000000000800000000000000000000000000000000000000000000000000000000000000000000000000040000000000000000000000000000000000000000000000000000000000000000000000000000000000000000000000000000000000000000000000000000000000000000000000000000000000000000000000080000000000000000000000000000000000000000000","miner":"0x0000000000000000000000000000000000000000","mixHash":"0x0000000000000000000000000000000000000000000000000000000000000000","nonce":"0x0000000000000000","number":"0xd002da","parentHash":"0x398b178737a5e2fd4a6d6a5632535c69f72d68f19afcd30cfc62ffcb26b4f411","receiptsRoot":"0x0cd72eb96f0690d7ebbed23e44ed99611588c0e52854f9df161388b5c4940458","sha3Uncles":"0x1dcc4de8dec75d7aab85b567b6ccd41ad312451b948a7413f0a142fd40d49347","size":"0x2fa","stateRoot":"0x1bdc19e86756439f59891e5ab58ab17950748420500792ffabb4aceb0da37333","timestamp":"0x65243e43","totalDifficulty":"0x1a005b5","transactions":[{"blockHash":"0x157e5f6b450a6da52f6d60d879b72878540345920190f4f05c631a6c6c60a705","blockNumber":"0xd002da","from":"0x8ce0520430951342d4f3119eeedd0b79ad749b60","gas":"0x24705","gasPrice":"0x2faf080","hash":"0x98e2cf5968332c340b62242db985db5e0e08be9242146f01cd5890a7995cc8b8","index":"0xd002d9","input":"0x4c85b425000000000000000000000000f512fe2048128ee5a83dec707d185957b5b40176","l1BlockNumber":"0x11774e3","l1Timestamp":"0x65243e43","l1TxOrigin":null,"nonce":"0x14","queueIndex":null,"queueOrigin":"sequencer","r":"0x7c5fbcc65483d59d34b426054ea1b12ea453ea6a959c786dd670762226ba964","rawTransaction":"0xf892148402faf080830247059453167401aeebff5677c31e1dda945628422d7ed2887556707a56868750a44c85b425000000000000000000000000f512fe2048128ee5a83dec707d185957b5b40176822733a007c5fbcc65483d59d34b426054ea1b12ea453ea6a959c786dd670762226ba964a02bbe3dac926e60a58df58c8fcd8bec3caf483d1fbd5aab0c938ec8916fdbe10e","s":"0x2bbe3dac926e60a58df58c8fcd8bec3caf483d1fbd5aab0c938ec8916fdbe10e","to":"0x53167401aeebff5677c31e1dda945628422d7ed2","transactionIndex":"0x0","v":"0x2733","value":"0x7556707a56868750"}],"transactionsRoot":"0x3b617f1e12f494a62c346efb54718be2ad3f001efd22a8767bb23d080504367f","uncles":[]},"receipts":{"0x98e2cf5968332c340b62242db985db5e0e08be9242146f01cd5890a7995cc8b8":{"blockHash":"0x157e5f6b450a6da52f6d60d879b72878540345920190f4f05c631a6c6c60a705","blockNumber":"0xd002da","from":"0x8ce0520430951342d4f3119eeedd0b79ad749b60","gas":"0x24705","gasPrice":"0x2faf080","hash":"0x98e2cf5968332c340b62242db985db5e0e08be9242146f01cd5890a7995cc8b8","index":"0xd002d9","input":"0x4c85b425000000000000000000000000f512fe2048128ee5a83dec707d185957b5b40176","l1BlockNumber":"0x11774e3","l1Timestamp":"0x65243e43","l1TxOrigin":null,"nonce":"0x14","queueIndex":null,"queueOrigin":"sequencer","r":"0x7c5fbcc65483d59d34b426054ea1b12ea453ea6a959c786dd670762226ba964","rawTransaction":"0xf892148402faf080830247059453167401aeebff5677c31e1dda945628422d7ed2887556707a56868750a44c85b425000000000000000000000000f512fe2048128ee5a83dec707d185957b5b40176822733a007c5fbcc65483d59d34b426054ea1b12ea453ea6a959c786dd670762226ba964a02bbe3dac926e60a58df58c8fcd8bec3caf483d1fbd5aab0c938ec8916fdbe10e","s":"0x2bbe3dac926e60a58df58c8fcd8bec3caf483d1fbd5aab0c938ec8916fdbe10e","to":"0x53167401aeebff5677c31e1dda945628422d7ed2","transactionIndex":"0x0","v":"0x2733","value":"0x7556707a56868750","contractAddress":null,"cumulativeGasUsed":"0x23fce","daFee":"0x0","daGasPrice":"0x0","daGasUsed":"0x4f","gasUsed":"0x23fce","l1Fee":"0x19709d787180660","l1FeeScalar":"1","l1GasPrice":"0x38a987f04864","l1GasUsed":"0x72f","logs":[{"address":"0x53167401aeebff5677c31e1dda945628422d7ed2","blockHash":"0x157e5f6b450a6da52f6d60d879b72878540345920190f4f05c631a6c6c60a705","blockNumber":"0xd002da","data":"0x0000000000000000000000008ce0520430951342d4f3119eeedd0b79ad749b60000000000000000000000000f512fe2048128ee5a83dec707d185957b5b40176000000000000000000000000000000000000000000000000000000000000000100000000000000000000000000000000000000000000000000000000000000010000000000000000000000000000000000000000000000006aabac12201d353300000000000000000000000000000000000000000000000003333aec1052cbd6000000000000000000000000000000000000000000000000055562341b34a90f000000000000000000000000000000000000000000000000011113a40570ee9c000000000000000000000000000000000000000000000000011113a40570ee9c0000000000000000000000000000000000000000000000000000000000000001000000000000000000000000000000000000000000000000000000000000000800000000000000000000000000000000000000000000000000000000000000000000000000000000000000000000000000000000000000000000000000000000","logIndex":"0x0","removed":false,"topics":["0x0bd0eb03ae3622020e1cc9e94570c94b9e276bc263af8ac1c42747b11074f5fc"],"transactionHash":"0x98e2cf5968332c340b62242db985db5e0e08be9242146f01cd5890a7995cc8b8","transactionIndex":"0x0"}],"logsBloom":"0x00000000000000000000000000000000000000004000000000000000000000000000000000000000000000000000000000000000000000000000000000000000000000000000000000000000000000000000000000000000000000000000000000040000000000000000100000000000800000000000000000000000000000000000000000000000000000000000000000000000000040000000000000000000000000000000000000000000000000000000000000000000000000000000000000000000000000000000000000000000000000000000000000000000000000000000000000000000000080000000000000000000000000000000000000000000","status":"0x1","transactionHash":"0x98e2cf5968332c340b62242db985db5e0e08be9242146f01cd5890a7995cc8b8"}}}