{"block":{"difficulty":"0x2","extraData":"0xd98301090a846765746889676f312e31352e3133856c696e757800000000000035e1e120e3359b0e7b4d0ac5c2ba989e6fdab0787379bebc916f9c95d0aae21f0b0d3488f77d355f8e946701c27922eaaa1d12907ab4076850db8fcd0ae298a300","gasLimit":"0x1c9c380","gasUsed":"0x1b65a","hash":"0xea4af94518483ce785b180ad0d6df4ca3211bd3d804d546343d6df336135dde8","logsBloom":"0x00000000000000000000000000000000000000000000008800000000000000000000040000000000000000000002000000000000000000000000000000200000140004000040000000000008000000000000000000840000000000000000000000000000000000000000000000000000010000000000100000000010000000008000000000000000000000000000000000100000400000000000000100000000020000000000000000000000000000000000000021000000000000000000000000800002000000000000000000000000000000000000000000001000000000000010000000004000000000000000000000000000000000000000000000000000","miner":"0x0000000000000000000000000000000000000000","mixHash":"0x0000000000000000000000000000000000000000000000000000000000000000","nonce":"0x0000000000000000","number":"0xcff377","parentHash":"0x0426bc64129a01ae715e890102fd596a1c4d778c9c5aab43706dfb1391f06fb6","receiptsRoot":"0xbaaa27fdda90b8a37738b693e39823a0e809b14465591b4cbd7559ee4b895ba2","sha3Uncles":"0x1dcc4de8dec75d7aab85b567b6ccd41ad312451b948a7413f0a142fd40d49347","size":"0x3d8","stateRoot":"0xc68b6fb3c1db6403400cdb1e59f1aa064ec574376b83908a532a1c38c7ffbfc4","timestamp":"0x65243739","totalDifficulty":"0x19fe6ef","transactions":[{"blockHash":"0xea4af94518483ce785b180ad0d6df4ca3211bd3d804d546343d6df336135dde8","blockNumber":"0xcff377","from":"0xf9d5fd718a1a9dd1b32dcf176a978a4afc50ead0","gas":"0x1e045","gasPrice":"0x2faf080","hash":"0x468bb5fb879341e333130bf9e95988643920d78f32f96d92e521a0d7f7b5e24e","index":"0xcff376","input":"0x414bf38900000000000000000000000097174506aafcc846a40832719bd8899a588bd05c00000000000000000000000078c1b0c915c4faa5fffa6cabf0219da63d7f4cb80000000000000000000000000000000000000000000000000000000000002710000000000000000000000000f9d5fd718a1a9dd1b32dcf176a978a4afc50ead0000000000000000000000000000000000000000000000000000000006524375b00000000000000000000000000000000000000000000000ac390a4ecd41b89be000000000000000000000000000000000000000000000000161e96170e870fc50000000000000000000000000000000000000000000000000000000000000000","l1BlockNumber":"0x117744d","l1Timestamp":"0x65243739","l1TxOrigin":null,"nonce":"0x425","queueIndex":null,"queueOrigin":"sequencer","r":"0x1581e0d3b8d6e0d8efc60335ef1ed72065d25c974334107c53d4ccc962d1e8b4","rawTransaction":"0xf9016e8204258402faf0808301e04594319b69888b0d11cec22caa5034e25fffbdc8842180b90104414bf38900000000000000000000000097174506aafcc846a40832719bd8899a588bd05c00000000000000000000000078c1b0c915c4faa5fffa6cabf0219da63d7f4cb80000000000000000000000000000000000000000000000000000000000002710000000000000000000000000f9d5fd718a1a9dd1b32dcf176a978a4afc50ead0000000000000000000000000000000000000000000000000000000006524375b00000000000000000000000000000000000000000000000ac390a4ecd41b89be000000000000000000000000000000000000000000000000161e96170e870fc50000000000000000000000000000000000000000000000000000000000000000822733a01581e0d3b8d6e0d8efc60335ef1ed72065d25c974334107c53d4ccc962d1e8b4a05444f67995245fc97211f3b3739f5d0ff06b65b0dda00ce1f7f0de1d66a95b66","s":"0x5444f67995245fc97211f3b3739f5d0ff06b65b0dda00ce1f7f0de1d66a95b66","to":"0x319b69888b0d11cec22caa5034e25fffbdc88421","transactionIndex":"0x0","v":"0x2733","value":"0x0"}],"transactionsRoot":"0xaa95934c5fa1f7220e5747443aa45b28c446d708be72ca9c4e1351f49ea79e57","uncles":[]},"receipts":{"0x468bb5fb879341e333130bf9e95988643920d78f32f96d92e521a0d7f7b5e24e":{"blockHash":"0xea4af94518483ce785b180ad0d6df4ca3211bd3d804d546343d6df336135dde8","blockNumber":"0xcff377","from":"0xf9d5fd718a1a9dd1b32dcf176a978a4afc50ead0","gas":"0x1e045","gasPrice":"0x2faf080","hash":"0x468bb5fb879341e333130bf9e95988643920d78f32f96d92e521a0d7f7b5e24e","index":"0xcff376","input":"0x414bf38900000000000000000000000097174506aafcc846a40832719bd8899a588bd05c00000000000000000000000078c1b0c915c4faa5fffa6cabf0219da63d7f4cb80000000000000000000000000000000000000000000000000000000000002710000000000000000000000000f9d5fd718a1a9dd1b32dcf176a978a4afc50ead0000000000000000000000000000000000000000000000000000000006524375b00000000000000000000000000000000000000000000000ac390a4ecd41b89be000000000000000000000000000000000000000000000000161e96170e870fc50000000000000000000000000000000000000000000000000000000000000000","l1BlockNumber":"0x117744d","l1Timestamp":"0x65243739","l1TxOrigin":null,"nonce":"0x425","queueIndex":null,"queueOrigin":"sequencer","r":"0x1581e0d3b8d6e0d8efc60335ef1ed72065d25c974334107c53d4ccc962d1e8b4","rawTransaction":"0xf9016e8204258402faf0808301e04594319b69888b0d11cec22caa5034e25fffbdc8842180b90104414bf38900000000000000000000000097174506aafcc846a40832719bd8899a588bd05c00000000000000000000000078c1b0c915c4faa5fffa6cabf0219da63d7f4cb80000000000000000000000000000000000000000000000000000000000002710000000000000000000000000f9d5fd718a1a9dd1b32dcf176a978a4afc50ead0000000000000000000000000000000000000000000000000000000006524375b00000000000000000000000000000000000000000000000ac390a4ecd41b89be000000000000000000000000000000000000000000000000161e96170e870fc50000000000000000000000000000000000000000000000000000000000000000822733a01581e0d3b8d6e0d8efc60335ef1ed72065d25c974334107c53d4ccc962d1e8b4a05444f67995245fc97211f3b3739f5d0ff06b65b0dda00ce1f7f0de1d66a95b66","s":"0x5444f67995245fc97211f3b3739f5d0ff06b65b0dda00ce1f7f0de1d66a95b66","to":"0x319b69888b0d11cec22caa5034e25fffbdc88421","transactionIndex":"0x0","v":"0x2733","value":"0x0","contractAddress":null,"cumulativeGasUsed":"0x1b65a","daFee":"0x0","daGasPrice":"0x0","daGasUsed":"0x12c","gasUsed":"0x1b65a","l1Fee":"0x1c5145ff7a866d0","l1FeeScalar":"1","l1GasPrice":"0x3f1249c65230","l1GasUsed":"0x72f","logs":[{"address":"0x78c1b0c915c4faa5fffa6cabf0219da63d7f4cb8","blockHash":"0xea4af94518483ce785b180ad0d6df4ca3211bd3d804d546343d6df336135dde8","blockNumber":"0xcff377","data":"0x00000000000000000000000000000000000000000000000017489dfd52a91e13","logIndex":"0x0","removed":false,"topics":["0xddf252ad1be2c89b69c2b068fc378daa952ba7f163c4a11628f55a4df523b3ef","0x0000000000000000000000003a873fe63bedad2e9f9b9b63bf8bedb5f1789167","0x000000000000000000000000f9d5fd718a1a9dd1b32dcf176a978a4afc50ead0"],"transactionHash":"0x468bb5fb879341e333130bf9e95988643920d78f32f96d92e521a0d7f7b5e24e","transactionIndex":"0x0"},{"address":"0x97174506aafcc846a40832719bd8899a588bd05c","blockHash":"0xea4af94518483ce785b180ad0d6df4ca3211bd3d804d546343d6df336135dde8","blockNumber":"0xcff377","data":"0x00000000000000000000000000000000000000000000000ac390a4ecd41b89be","logIndex":"0x1","removed":false,"topics":["0xddf252ad1be2c89b69c2b068fc378daa952ba7f163c4a11628f55a4df523b3ef","0x000000000000000000000000f9d5fd718a1a9dd1b32dcf176a978a4afc50ead0","0x0000000000000000000000003a873fe63bedad2e9f9b9b63bf8bedb5f1789167"],"transactionHash":"0x468bb5fb879341e333130bf9e95988643920d78f32f96d92e521a0d7f7b5e24e","transactionIndex":"0x0"},{"address":"0x97174506aafcc846a40832719bd8899a588bd05c","blockHash":"0xea4af94518483ce785b180ad0d6df4ca3211bd3d804d546343d6df336135dde8","blockNumber":"0xcff377","data":"0xfffffffffffffffffffffffffffffffffffffffffffeeaa173f4fa5037b585b5","logIndex":"0x2","removed":false,"topics":["0x8c5be1e5ebec7d5bd14f71427d1e84f3dd0314c0f7b2291e5b200ac8c7c3b925","0x000000000000000000000000f9d5fd718a1a9dd1b32dcf176a978a4afc50ead0","0x000000000000000000000000319b69888b0d11cec22caa5034e25fffbdc88421"],"transactionHash":"0x468bb5fb879341e333130bf9e95988643920d78f32f96d92e521a0d7f7b5e24e","transactionIndex":"0x0"},{"address":"0x3a873fe63bedad2e9f9b9b63bf8bedb5f1789167","blockHash":"0xea4af94518483ce785b180ad0d6df4ca3211bd3d804d546343d6df336135dde8","blockNumber":"0xcff377","data":"0xffffffffffffffffffffffffffffffffffffffffffffffffe8b76202ad56e1ed00000000000000000000000000000000000000000000000ac390a4ecd41b89be000000000000000000000000000000000000000ad30287703f99da5080520c3c00000000000000000000000000000000000000000004050e8f20b2f8a1c79e70000000000000000000000000000000000000000000000000000000000000ba16000000000000000000000000000000000000000000000000000000000000000000000000000000000000000000000000000000000000000008d15bde59f8b71f","logIndex":"0x3","removed":false,"topics":["0x19b47279256b2a23a1665c810c8d55a1758940ee09377d4f8d26497a3577dc83","0x000000000000000000000000319b69888b0d11cec22caa5034e25fffbdc88421","0x000000000000000000000000f9d5fd718a1a9dd1b32dcf176a978a4afc50ead0"],"transactionHash":"0x468bb5fb879341e333130bf9e95988643920d78f32f96d92e521a0d7f7b5e24e","transactionIndex":"0x0"}],"logsBloom":"0x00000000000000000000000000000000000000000000008800000000000000000000040000000000000000000002000000000000000000000000000000200000140004000040000000000008000000000000000000840000000000000000000000000000000000000000000000000000010000000000100000000010000000008000000000000000000000000000000000100000400000000000000100000000020000000000000000000000000000000000000021000000000000000000000000800002000000000000000000000000000000000000000000001000000000000010000000004000000000000000000000000000000000000000000000000000","status":"0x1","transactionHash":"0x468bb5fb879341e333130bf9e95988643920d78f32f96d92e521a0d7f7b5e24e"}}}