{"block":{"difficulty":"0x2","extraData":"0xd98301090a846765746889676f312e31352e3133856c696e75780000000000009fd5499a6f6a0cb855468d49013d3846a2b95e29bc8e1eee8bba66149e2438ca54f2e9828d56ba150542b5441720f6a7a31afbc74ba055f34a4094992e32b23b01","gasLimit":"0x1c9c380","gasUsed":"0x1d23f","hash":"0x5276f379de269d94b0b1e3563d60ca7fac32fcc092dc08c8914e38b41a950ce3","logsBloom":"0x00000000000000000000000000000000000000000001008800000000000000000004000004000000000000000002000000000000000000000000000000200400140000000040000000000008000000000000008000042000000200000000000000000000000000000000000000000080000000000000000000000010000000000000000000000000000000000000000000100000000000000000000000000040020000000000000000000000000200000000000001000000000000000000000000000002000000000000200000000000000000000000000000000010000000000010000000000000000000000000000000000000000000000000000000000000","miner":"0x0000000000000000000000000000000000000000","mixHash":"0x0000000000000000000000000000000000000000000000000000000000000000","nonce":"0x0000000000000000","number":"0xcff3d9","parentHash":"0x6c062dafdfa96f59eba86813e71f892034e972a63a546d3c1831f9e81c2dc588","receiptsRoot":"0x2dc1cf5120ef871fe7ab9d54c5c00be8cba8ac7401f10de822488447f921e615","sha3Uncles":"0x1dcc4de8dec75d7aab85b567b6ccd41ad312451b948a7413f0a142fd40d49347","size":"0x3d8","stateRoot":"0x43bde92cc404dfdcda813ccd9c783a68a6200cabe9f6f886165abc29baa2078d","timestamp":"0x65243761","totalDifficulty":"0x19fe7b3","transactions":[{"blockHash":"0x5276f379de269d94b0b1e3563d60ca7fac32fcc092dc08c8914e38b41a950ce3","blockNumber":"0xcff3d9","from":"0x0f992db1d03e6f7a0c4017c54254a7caf68b424f","gas":"0x1e991","gasPrice":"0x2faf080","hash":"0x5eed3464501aa39de0d5f685442947c8a55b1ec0860eca6d2692d600c3968412","index":"0xcff3d8","input":"0x414bf38900000000000000000000000078c1b0c915c4faa5fffa6cabf0219da63d7f4cb8000000000000000000000000201eba5cc46d216ce6dc03f6a759e8e766e956ae00000000000000000000000000000000000000000000000000000000000001f40000000000000000000000000f992db1d03e6f7a0c4017c54254a7caf68b424f000000000000000000000000000000000000000000000000000000006524378100000000000000000000000000000000000000000000000017979cfe362a000000000000000000000000000000000000000000000000000000000000000972c50000000000000000000000000000000000000000000000000000000000000000","l1BlockNumber":"0x1177451","l1Timestamp":"0x65243761","l1TxOrigin":null,"nonce":"0x9bc","queueIndex":null,"queueOrigin":"sequencer","r":"0xaa4c149fc7e75f2a6a29ff129cfbcee36a878507ab490fe3b81105033057d6d6","rawTransaction":"0xf9016e8209bc8402faf0808301e99194319b69888b0d11cec22caa5034e25fffbdc8842180b90104414bf38900000000000000000000000078c1b0c915c4faa5fffa6cabf0219da63d7f4cb8000000000000000000000000201eba5cc46d216ce6dc03f6a759e8e766e956ae00000000000000000000000000000000000000000000000000000000000001f40000000000000000000000000f992db1d03e6f7a0c4017c54254a7caf68b424f000000000000000000000000000000000000000000000000000000006524378100000000000000000000000000000000000000000000000017979cfe362a000000000000000000000000000000000000000000000000000000000000000972c50000000000000000000000000000000000000000000000000000000000000000822734a0aa4c149fc7e75f2a6a29ff129cfbcee36a878507ab490fe3b81105033057d6d6a048cb4201c33a9185c96f611e50c38194fcdc5f30ed075992b6f674d0e707b9a2","s":"0x48cb4201c33a9185c96f611e50c38194fcdc5f30ed075992b6f674d0e707b9a2","to":"0x319b69888b0d11cec22caa5034e25fffbdc88421","transactionIndex":"0x0","v":"0x2734","value":"0x0"}],"transactionsRoot":"0x67fcd4ddb84f03980678c38b464c6f5ae86851df0437834193309c113e2f2d87","uncles":[]},"receipts":{"0x5eed3464501aa39de0d5f685442947c8a55b1ec0860eca6d2692d600c3968412":{"blockHash":"0x5276f379de269d94b0b1e3563d60ca7fac32fcc092dc08c8914e38b41a950ce3","blockNumber":"0xcff3d9","from":"0x0f992db1d03e6f7a0c4017c54254a7caf68b424f","gas":"0x1e991","gasPrice":"0x2faf080","hash":"0x5eed3464501aa39de0d5f685442947c8a55b1ec0860eca6d2692d600c3968412","index":"0xcff3d8","input":"0x414bf38900000000000000000000000078c1b0c915c4faa5fffa6cabf0219da63d7f4cb8000000000000000000000000201eba5cc46d216ce6dc03f6a759e8e766e956ae00000000000000000000000000000000000000000000000000000000000001f40000000000000000000000000f992db1d03e6f7a0c4017c54254a7caf68b424f000000000000000000000000000000000000000000000000000000006524378100000000000000000000000000000000000000000000000017979cfe362a000000000000000000000000000000000000000000000000000000000000000972c50000000000000000000000000000000000000000000000000000000000000000","l1BlockNumber":"0x1177451","l1Timestamp":"0x65243761","l1TxOrigin":null,"nonce":"0x9bc","queueIndex":null,"queueOrigin":"sequencer","r":"0xaa4c149fc7e75f2a6a29ff129cfbcee36a878507ab490fe3b81105033057d6d6","rawTransaction":"0xf9016e8209bc8402faf0808301e99194319b69888b0d11cec22caa5034e25fffbdc8842180b90104414bf38900000000000000000000000078c1b0c915c4faa5fffa6cabf0219da63d7f4cb8000000000000000000000000201eba5cc46d216ce6dc03f6a759e8e766e956ae00000000000000000000000000000000000000000000000000000000000001f40000000000000000000000000f992db1d03e6f7a0c4017c54254a7caf68b424f000000000000000000000000000000000000000000000000000000006524378100000000000000000000000000000000000000000000000017979cfe362a000000000000000000000000000000000000000000000000000000000000000972c50000000000000000000000000000000000000000000000000000000000000000822734a0aa4c149fc7e75f2a6a29ff129cfbcee36a878507ab490fe3b81105033057d6d6a048cb4201c33a9185c96f611e50c38194fcdc5f30ed075992b6f674d0e707b9a2","s":"0x48cb4201c33a9185c96f611e50c38194fcdc5f30ed075992b6f674d0e707b9a2","to":"0x319b69888b0d11cec22caa5034e25fffbdc88421","transactionIndex":"0x0","v":"0x2734","value":"0x0","contractAddress":null,"cumulativeGasUsed":"0x1d23f","daFee":"0x0","daGasPrice":"0x0","daGasUsed":"0x12c","gasUsed":"0x1d23f","l1Fee":"0x1c5145ff7a866d0","l1FeeScalar":"1","l1GasPrice":"0x3f1249c65230","l1GasUsed":"0x72f","logs":[{"address":"0x201eba5cc46d216ce6dc03f6a759e8e766e956ae","blockHash":"0x5276f379de269d94b0b1e3563d60ca7fac32fcc092dc08c8914e38b41a950ce3","blockNumber":"0xcff3d9","data":"0x000000000000000000000000000000000000000000000000000000000009a422","logIndex":"0x0","removed":false,"topics":["0xddf252ad1be2c89b69c2b068fc378daa952ba7f163c4a11628f55a4df523b3ef","0x000000000000000000000000d08c50f7e69e9aeb2867deff4a8053d9a855e26a","0x0000000000000000000000000f992db1d03e6f7a0c4017c54254a7caf68b424f"],"transactionHash":"0x5eed3464501aa39de0d5f685442947c8a55b1ec0860eca6d2692d600c3968412","transactionIndex":"0x0"},{"address":"0x78c1b0c915c4faa5fffa6cabf0219da63d7f4cb8","blockHash":"0x5276f379de269d94b0b1e3563d60ca7fac32fcc092dc08c8914e38b41a950ce3","blockNumber":"0xcff3d9","data":"0x00000000000000000000000000000000000000000000000017979cfe362a0000","logIndex":"0x1","removed":false,"topics":["0xddf252ad1be2c89b69c2b068fc378daa952ba7f163c4a11628f55a4df523b3ef","0x0000000000000000000000000f992db1d03e6f7a0c4017c54254a7caf68b424f","0x000000000000000000000000d08c50f7e69e9aeb2867deff4a8053d9a855e26a"],"transactionHash":"0x5eed3464501aa39de0d5f685442947c8a55b1ec0860eca6d2692d600c3968412","transactionIndex":"0x0"},{"address":"0x78c1b0c915c4faa5fffa6cabf0219da63d7f4cb8","blockHash":"0x5276f379de269d94b0b1e3563d60ca7fac32fcc092dc08c8914e38b41a950ce3","blockNumber":"0xcff3d9","data":"0xffffffffffffffffffffffffffffffffffffffffffffffd4b45db17b6685ffff","logIndex":"0x2","removed":false,"topics":["0x8c5be1e5ebec7d5bd14f71427d1e84f3dd0314c0f7b2291e5b200ac8c7c3b925","0x0000000000000000000000000f992db1d03e6f7a0c4017c54254a7caf68b424f","0x000000000000000000000000319b69888b0d11cec22caa5034e25fffbdc88421"],"transactionHash":"0x5eed3464501aa39de0d5f685442947c8a55b1ec0860eca6d2692d600c3968412","transactionIndex":"0x0"},{"address":"0xd08c50f7e69e9aeb2867deff4a8053d9a855e26a","blockHash":"0x5276f379de269d94b0b1e3563d60ca7fac32fcc092dc08c8914e38b41a950ce3","blockNumber":"0xcff3d9","data":"0xfffffffffffffffffffffffffffffffffffffffffffffffffffffffffff65bde00000000000000000000000000000000000000000000000017979cfe362a000000000000000000000000000000000000001905ef8a7e433aa2b82b2d70ed8451000000000000000000000000000000000000000000000000004794fbb84032d40000000000000000000000000000000000000000000000000000000000045e090000000000000000000000000000000000000000000000000000000000000000000000000000000000000000000000000000000000000000000106d80e571000","logIndex":"0x3","removed":false,"topics":["0x19b47279256b2a23a1665c810c8d55a1758940ee09377d4f8d26497a3577dc83","0x000000000000000000000000319b69888b0d11cec22caa5034e25fffbdc88421","0x0000000000000000000000000f992db1d03e6f7a0c4017c54254a7caf68b424f"],"transactionHash":"0x5eed3464501aa39de0d5f685442947c8a55b1ec0860eca6d2692d600c3968412","transactionIndex":"0x0"}],"logsBloom":"0x00000000000000000000000000000000000000000001008800000000000000000004000004000000000000000002000000000000000000000000000000200400140000000040000000000008000000000000008000042000000200000000000000000000000000000000000000000080000000000000000000000010000000000000000000000000000000000000000000100000000000000000000000000040020000000000000000000000000200000000000001000000000000000000000000000002000000000000200000000000000000000000000000000010000000000010000000000000000000000000000000000000000000000000000000000000","status":"0x1","transactionHash":"0x5eed3464501aa39de0d5f685442947c8a55b1ec0860eca6d2692d600c3968412"}}}