{"block":{"difficulty":"0x2","extraData":"0xd98301090a846765746889676f312e31352e3133856c696e757800000000000013ae8897e227d6cd5b8543aba0fb04faee263a3700b9410bca96f4b3553ca5d1472c406f4031e7fa129d940953a6427315cd25434e0f8de944a5937e3683982401","gasLimit":"0x1c9c380","gasUsed":"0x1a977","hash":"0x14ef7b6adaf41e918fd430fe043ff3017ef55f855f710c086457c74e2f3e6439","logsBloom":"0x00000000000000000000000000000000000000004000000000000000000000000000000000000000000000000000000000000000000000000000000000000000000000000000000000000000000000000000000000000000000000000000000000040000000000000000100000000000800000000000000000000000000000000000000000000000000000000000000000000000000040000000000000000000000000000000000000000000000000000000000000000000000000000000000000000000000000000000000000000000000000000000000000000000000000000000000000000000000080000000000000000000000000000000000000000000","miner":"0x0000000000000000000000000000000000000000","mixHash":"0x0000000000000000000000000000000000000000000000000000000000000000","nonce":"0x0000000000000000","number":"0xcff389","parentHash":"0x655b52db6bfb5ca6cc19f6f5d692bf85210689f4e0cd718566158d66ca8b2553","receiptsRoot":"0x0c23442585b73d68b7ed77ce18d6fb435baf0246d85997b31d3c49ffc7fdd14c","sha3Uncles":"0x1dcc4de8dec75d7aab85b567b6ccd41ad312451b948a7413f0a142fd40d49347","size":"0x313","stateRoot":"0xd0b96e0d9e91f4f4925c0655b9bfca3ca821ac73fafc3b668491d220d770ab7f","timestamp":"0x65243743","totalDifficulty":"0x19fe713","transactions":[{"blockHash":"0x14ef7b6adaf41e918fd430fe043ff3017ef55f855f710c086457c74e2f3e6439","blockNumber":"0xcff389","from":"0xa2e1969526316d8f74c1bf77385ea16f3fa20ebc","gas":"0x1c155","gasPrice":"0x2faf080","hash":"0xb058e52f97df7cf0aa83ac18c199ccc8246406dde4b904c11a537592226c1b32","index":"0xcff388","input":"0xb51d0534000000000000000000000000180fa4fb7d7fb4f2570b2e11ce0a5c4eba4665770000000000000000000000000000000000000000000000000000000000000001","l1BlockNumber":"0x117744e","l1Timestamp":"0x65243743","l1TxOrigin":null,"nonce":"0x60","queueIndex":null,"queueOrigin":"sequencer","r":"0xe2bdcc4ab2a982007f9c25a42b341da3d5a3694b4d78199e63a8a5f98b72b53e","rawTransaction":"0xf8ab608402faf0808301c1559453167401aeebff5677c31e1dda945628422d7ed280b844b51d0534000000000000000000000000180fa4fb7d7fb4f2570b2e11ce0a5c4eba4665770000000000000000000000000000000000000000000000000000000000000001822733a0e2bdcc4ab2a982007f9c25a42b341da3d5a3694b4d78199e63a8a5f98b72b53ea00f674c52c6f0e1eea823c7789fd2d599594b3c4de0546c4ee70347f107ba2247","s":"0xf674c52c6f0e1eea823c7789fd2d599594b3c4de0546c4ee70347f107ba2247","to":"0x53167401aeebff5677c31e1dda945628422d7ed2","transactionIndex":"0x0","v":"0x2733","value":"0x0"}],"transactionsRoot":"0x6af55f7a2e52a8d37024351be6b5c60b38ed0b8233b12ddc6a6e7443a6866dad","uncles":[]},"receipts":{"0xb058e52f97df7cf0aa83ac18c199ccc8246406dde4b904c11a537592226c1b32":{"blockHash":"0x14ef7b6adaf41e918fd430fe043ff3017ef55f855f710c086457c74e2f3e6439","blockNumber":"0xcff389","from":"0xa2e1969526316d8f74c1bf77385ea16f3fa20ebc","gas":"0x1c155","gasPrice":"0x2faf080","hash":"0xb058e52f97df7cf0aa83ac18c199ccc8246406dde4b904c11a537592226c1b32","index":"0xcff388","input":"0xb51d0534000000000000000000000000180fa4fb7d7fb4f2570b2e11ce0a5c4eba4665770000000000000000000000000000000000000000000000000000000000000001","l1BlockNumber":"0x117744e","l1Timestamp":"0x65243743","l1TxOrigin":null,"nonce":"0x60","queueIndex":null,"queueOrigin":"sequencer","r":"0xe2bdcc4ab2a982007f9c25a42b341da3d5a3694b4d78199e63a8a5f98b72b53e","rawTransaction":"0xf8ab608402faf0808301c1559453167401aeebff5677c31e1dda945628422d7ed280b844b51d0534000000000000000000000000180fa4fb7d7fb4f2570b2e11ce0a5c4eba4665770000000000000000000000000000000000000000000000000000000000000001822733a0e2bdcc4ab2a982007f9c25a42b341da3d5a3694b4d78199e63a8a5f98b72b53ea00f674c52c6f0e1eea823c7789fd2d599594b3c4de0546c4ee70347f107ba2247","s":"0xf674c52c6f0e1eea823c7789fd2d599594b3c4de0546c4ee70347f107ba2247","to":"0x53167401aeebff5677c31e1dda945628422d7ed2","transactionIndex":"0x0","v":"0x2733","value":"0x0","contractAddress":null,"cumulativeGasUsed":"0x1a977","daFee":"0x0","daGasPrice":"0x0","daGasUsed":"0x68","gasUsed":"0x1a977","l1Fee":"0x1c5145ff7a866d0","l1FeeScalar":"1","l1GasPrice":"0x3f1249c65230","l1GasUsed":"0x72f","logs":[{"address":"0x53167401aeebff5677c31e1dda945628422d7ed2","blockHash":"0x14ef7b6adaf41e918fd430fe043ff3017ef55f855f710c086457c74e2f3e6439","blockNumber":"0xcff389","data":"0x000000000000000000000000a2e1969526316d8f74c1bf77385ea16f3fa20ebc000000000000000000000000180fa4fb7d7fb4f2570b2e11ce0a5c4eba466577000000000000000000000000000000000000000000000000000000000000000000000000000000000000000000000000000000000000000000000000000000010000000000000000000000000000000000000000000000002cf6cad570440000000000000000000000000000000000000000000000000000015952e2902b0000000000000000000000000000000000000000000000000000023f8a24459d000000000000000000000000000000000000000000000000000000731ba0dab9000000000000000000000000000000000000000000000000000000731ba0dab900000000000000000000000000000000000000000000000000000000000000000000000000000000000000000000000000000000000000000000000000000000000700000000000000000000000000000000000000000000000000000000000000000000000000000000000000000000000000000000000000000000000000000000","logIndex":"0x0","removed":false,"topics":["0x0bd0eb03ae3622020e1cc9e94570c94b9e276bc263af8ac1c42747b11074f5fc"],"transactionHash":"0xb058e52f97df7cf0aa83ac18c199ccc8246406dde4b904c11a537592226c1b32","transactionIndex":"0x0"}],"logsBloom":"0x00000000000000000000000000000000000000004000000000000000000000000000000000000000000000000000000000000000000000000000000000000000000000000000000000000000000000000000000000000000000000000000000000040000000000000000100000000000800000000000000000000000000000000000000000000000000000000000000000000000000040000000000000000000000000000000000000000000000000000000000000000000000000000000000000000000000000000000000000000000000000000000000000000000000000000000000000000000000080000000000000000000000000000000000000000000","status":"0x1","transactionHash":"0xb058e52f97df7cf0aa83ac18c199ccc8246406dde4b904c11a537592226c1b32"}}}