{"block":{"difficulty":"0x2","extraData":"0xd98301090a846765746889676f312e31352e3133856c696e75780000000000004b32cb475113390ba71dafaf810d855e24ce4aa0aa9d8a9eba042bfeec306622197dcfb0a12f77ef86084706d5f26458724d16bc3e9c83f2e0f803246c583ba701","gasLimit":"0x1c9c380","gasUsed":"0x259db","hash":"0x7d2a19fe26df5addcdf96b6901c865726e91b403c1b5e309f4457dc7a3f83b85","logsBloom":"0x00000000000000000000000000000000000000000001008800000000000000000004000000000000000000000002000000000000000000000000000000200000140000000040000000000008000000000000008000042002000200000000000000000000000000000000000000000080000000000000000000000010000000000080000000000000000000000000000000100000000001000000000000000040020000000000000000000000000200000000000001000000000000000000000000000002000000000000000000000000000000000000000000000010000000000010000000000000000000000000000000000000000000000000000000000000","miner":"0x0000000000000000000000000000000000000000","mixHash":"0x0000000000000000000000000000000000000000000000000000000000000000","nonce":"0x0000000000000000","number":"0xcff382","parentHash":"0x46fb25a43aac216685afbc67b1f13e923ea51e779c9d693c35c9ce431b033a42","receiptsRoot":"0xc7a0330fbd046ec00a0287ecd663ff71352745ed011fab5bea484ac94d5368a2","sha3Uncles":"0x1dcc4de8dec75d7aab85b567b6ccd41ad312451b948a7413f0a142fd40d49347","size":"0x3d8","stateRoot":"0x4fd234e16b9799ab1a68d9aa3ac33562f3aca609e62900702fd0f5f1ece1282d","timestamp":"0x6524373e","totalDifficulty":"0x19fe705","transactions":[{"blockHash":"0x7d2a19fe26df5addcdf96b6901c865726e91b403c1b5e309f4457dc7a3f83b85","blockNumber":"0xcff382","from":"0x0927aa917a3868a380ce2753a34d8d1eeba6c14f","gas":"0x2735e","gasPrice":"0x2faf080","hash":"0xb2d027292964070581ba070acf09e869d11744656554409665580df3f3b62551","index":"0xcff381","input":"0x414bf389000000000000000000000000201eba5cc46d216ce6dc03f6a759e8e766e956ae00000000000000000000000078c1b0c915c4faa5fffa6cabf0219da63d7f4cb800000000000000000000000000000000000000000000000000000000000001f40000000000000000000000000927aa917a3868a380ce2753a34d8d1eeba6c14f000000000000000000000000000000000000000000000000000000006524375f0000000000000000000000000000000000000000000000000000000000129da00000000000000000000000000000000000000000000000002c9c00dcb3b80f100000000000000000000000000000000000000000000000000000000000000000","l1BlockNumber":"0x117744e","l1Timestamp":"0x6524373e","l1TxOrigin":null,"nonce":"0x1439","queueIndex":null,"queueOrigin":"sequencer","r":"0x49cd99efd828f04bce416923209625ae6d9ba9d0d2e257b810becd279ad2d241","rawTransaction":"0xf9016e8214398402faf0808302735e94319b69888b0d11cec22caa5034e25fffbdc8842180b90104414bf389000000000000000000000000201eba5cc46d216ce6dc03f6a759e8e766e956ae00000000000000000000000078c1b0c915c4faa5fffa6cabf0219da63d7f4cb800000000000000000000000000000000000000000000000000000000000001f40000000000000000000000000927aa917a3868a380ce2753a34d8d1eeba6c14f000000000000000000000000000000000000000000000000000000006524375f0000000000000000000000000000000000000000000000000000000000129da00000000000000000000000000000000000000000000000002c9c00dcb3b80f100000000000000000000000000000000000000000000000000000000000000000822733a049cd99efd828f04bce416923209625ae6d9ba9d0d2e257b810becd279ad2d241a025b9be83c1e6ea651be280d0b1573a67a44b97629bbbe7207bb88d403a6356b6","s":"0x25b9be83c1e6ea651be280d0b1573a67a44b97629bbbe7207bb88d403a6356b6","to":"0x319b69888b0d11cec22caa5034e25fffbdc88421","transactionIndex":"0x0","v":"0x2733","value":"0x0"}],"transactionsRoot":"0xef7b1b8ac8475cedaa65bdf5645a0bcf37ba9508ffe660ef3b8f57e7246fb052","uncles":[]},"receipts":{"0xb2d027292964070581ba070acf09e869d11744656554409665580df3f3b62551":{"blockHash":"0x7d2a19fe26df5addcdf96b6901c865726e91b403c1b5e309f4457dc7a3f83b85","blockNumber":"0xcff382","from":"0x0927aa917a3868a380ce2753a34d8d1eeba6c14f","gas":"0x2735e","gasPrice":"0x2faf080","hash":"0xb2d027292964070581ba070acf09e869d11744656554409665580df3f3b62551","index":"0xcff381","input":"0x414bf389000000000000000000000000201eba5cc46d216ce6dc03f6a759e8e766e956ae00000000000000000000000078c1b0c915c4faa5fffa6cabf0219da63d7f4cb800000000000000000000000000000000000000000000000000000000000001f40000000000000000000000000927aa917a3868a380ce2753a34d8d1eeba6c14f000000000000000000000000000000000000000000000000000000006524375f0000000000000000000000000000000000000000000000000000000000129da00000000000000000000000000000000000000000000000002c9c00dcb3b80f100000000000000000000000000000000000000000000000000000000000000000","l1BlockNumber":"0x117744e","l1Timestamp":"0x6524373e","l1TxOrigin":null,"nonce":"0x1439","queueIndex":null,"queueOrigin":"sequencer","r":"0x49cd99efd828f04bce416923209625ae6d9ba9d0d2e257b810becd279ad2d241","rawTransaction":"0xf9016e8214398402faf0808302735e94319b69888b0d11cec22caa5034e25fffbdc8842180b90104414bf389000000000000000000000000201eba5cc46d216ce6dc03f6a759e8e766e956ae00000000000000000000000078c1b0c915c4faa5fffa6cabf0219da63d7f4cb800000000000000000000000000000000000000000000000000000000000001f40000000000000000000000000927aa917a3868a380ce2753a34d8d1eeba6c14f000000000000000000000000000000000000000000000000000000006524375f0000000000000000000000000000000000000000000000000000000000129da00000000000000000000000000000000000000000000000002c9c00dcb3b80f100000000000000000000000000000000000000000000000000000000000000000822733a049cd99efd828f04bce416923209625ae6d9ba9d0d2e257b810becd279ad2d241a025b9be83c1e6ea651be280d0b1573a67a44b97629bbbe7207bb88d403a6356b6","s":"0x25b9be83c1e6ea651be280d0b1573a67a44b97629bbbe7207bb88d403a6356b6","to":"0x319b69888b0d11cec22caa5034e25fffbdc88421","transactionIndex":"0x0","v":"0x2733","value":"0x0","contractAddress":null,"cumulativeGasUsed":"0x259db","daFee":"0x0","daGasPrice":"0x0","daGasUsed":"0x12c","gasUsed":"0x259db","l1Fee":"0x1c5145ff7a866d0","l1FeeScalar":"1","l1GasPrice":"0x3f1249c65230","l1GasUsed":"0x72f","logs":[{"address":"0x78c1b0c915c4faa5fffa6cabf0219da63d7f4cb8","blockHash":"0x7d2a19fe26df5addcdf96b6901c865726e91b403c1b5e309f4457dc7a3f83b85","blockNumber":"0xcff382","data":"0x0000000000000000000000000000000000000000000000002d85108d9d43a6e2","logIndex":"0x0","removed":false,"topics":["0xddf252ad1be2c89b69c2b068fc378daa952ba7f163c4a11628f55a4df523b3ef","0x000000000000000000000000d08c50f7e69e9aeb2867deff4a8053d9a855e26a","0x0000000000000000000000000927aa917a3868a380ce2753a34d8d1eeba6c14f"],"transactionHash":"0xb2d027292964070581ba070acf09e869d11744656554409665580df3f3b62551","transactionIndex":"0x0"},{"address":"0x201eba5cc46d216ce6dc03f6a759e8e766e956ae","blockHash":"0x7d2a19fe26df5addcdf96b6901c865726e91b403c1b5e309f4457dc7a3f83b85","blockNumber":"0xcff382","data":"0x0000000000000000000000000000000000000000000000000000000000129da0","logIndex":"0x1","removed":false,"topics":["0xddf252ad1be2c89b69c2b068fc378daa952ba7f163c4a11628f55a4df523b3ef","0x0000000000000000000000000927aa917a3868a380ce2753a34d8d1eeba6c14f","0x000000000000000000000000d08c50f7e69e9aeb2867deff4a8053d9a855e26a"],"transactionHash":"0xb2d027292964070581ba070acf09e869d11744656554409665580df3f3b62551","transactionIndex":"0x0"},{"address":"0x201eba5cc46d216ce6dc03f6a759e8e766e956ae","blockHash":"0x7d2a19fe26df5addcdf96b6901c865726e91b403c1b5e309f4457dc7a3f83b85","blockNumber":"0xcff382","data":"0xffffffffffffffffffffffffffffffffffffffffffffffffffffffff73168b4f","logIndex":"0x2","removed":false,"topics":["0x8c5be1e5ebec7d5bd14f71427d1e84f3dd0314c0f7b2291e5b200ac8c7c3b925","0x0000000000000000000000000927aa917a3868a380ce2753a34d8d1eeba6c14f","0x000000000000000000000000319b69888b0d11cec22caa5034e25fffbdc88421"],"transactionHash":"0xb2d027292964070581ba070acf09e869d11744656554409665580df3f3b62551","transactionIndex":"0x0"},{"address":"0xd08c50f7e69e9aeb2867deff4a8053d9a855e26a","blockHash":"0x7d2a19fe26df5addcdf96b6901c865726e91b403c1b5e309f4457dc7a3f83b85","blockNumber":"0xcff382","data":"0x0000000000000000000000000000000000000000000000000000000000129da0ffffffffffffffffffffffffffffffffffffffffffffffffd27aef7262bc591e000000000000000000000000000000000019064d7204cb424380f7ebc78eb8f4000000000000000000000000000000000000000000000000004794fbb84032d40000000000000000000000000000000000000000000000000000000000045e0a00000000000000000000000000000000000000000000000000000000000000cf0000000000000000000000000000000000000000000000000000000000000000","logIndex":"0x3","removed":false,"topics":["0x19b47279256b2a23a1665c810c8d55a1758940ee09377d4f8d26497a3577dc83","0x000000000000000000000000319b69888b0d11cec22caa5034e25fffbdc88421","0x0000000000000000000000000927aa917a3868a380ce2753a34d8d1eeba6c14f"],"transactionHash":"0xb2d027292964070581ba070acf09e869d11744656554409665580df3f3b62551","transactionIndex":"0x0"}],"logsBloom":"0x00000000000000000000000000000000000000000001008800000000000000000004000000000000000000000002000000000000000000000000000000200000140000000040000000000008000000000000008000042002000200000000000000000000000000000000000000000080000000000000000000000010000000000080000000000000000000000000000000100000000001000000000000000040020000000000000000000000000200000000000001000000000000000000000000000002000000000000000000000000000000000000000000000010000000000010000000000000000000000000000000000000000000000000000000000000","status":"0x1","transactionHash":"0xb2d027292964070581ba070acf09e869d11744656554409665580df3f3b62551"}}}