{"block":{"difficulty":"0x2","extraData":"0xd98301090a846765746889676f312e31352e3133856c696e757800000000000070d7bd8ff2b24f3f6cae7b6e4c0ca1ba5d89a52de0d3881629f2b022d4f31b3965dad781a63fdb60b54226c0c948579e180d2399925d28337dacf7f12e5680f600","gasLimit":"0x1c9c380","gasUsed":"0x1dd45","hash":"0xccdcfe23fda24867354ebdc8948c347ce9c98719d40a89a041ba39e69625e76d","logsBloom":"0x40000000000000100000000000000000000000000001008800000000000000000000000000000000000000000102000000000000000000000000000000200000840000000040000000000008000000000000008000002004000000000000000000000001000000000000000100000000000000000000000000000010000000000000000000000000000000000000000000000000000000000008000000000000020000000000000000000000000000000000000001000020000100000000000000000002000000000000000000000000000000000000000000000000000000000010000000001000000000000000000000000000000000000000000000000000","miner":"0x0000000000000000000000000000000000000000","mixHash":"0x0000000000000000000000000000000000000000000000000000000000000000","nonce":"0x0000000000000000","number":"0xd00140","parentHash":"0x5e272a34ca9c0232d52e549512abcc5df0fbcfb1964a99420f1ca4afa2b80906","receiptsRoot":"0x113a49770e9280509f5c257b569ea4997ef7272b918e223c55d356c55a5f670e","sha3Uncles":"0x1dcc4de8dec75d7aab85b567b6ccd41ad312451b948a7413f0a142fd40d49347","size":"0x3d8","stateRoot":"0x852808264231bf5d5f14a4829e5f084e09efbf93d10ce751e99820154b36eb0c","timestamp":"0x65243d63","totalDifficulty":"0x1a00281","transactions":[{"blockHash":"0xccdcfe23fda24867354ebdc8948c347ce9c98719d40a89a041ba39e69625e76d","blockNumber":"0xd00140","from":"0x1226d74b8c24da868fb7e1f009c6a131b546170b","gas":"0x1f4c4","gasPrice":"0x2faf080","hash":"0x4f812b14f02f2e835347599f068e42d812a0a33682246b048bf745fad377dba7","index":"0xd0013f","input":"0x414bf389000000000000000000000000deaddeaddeaddeaddeaddeaddeaddeaddead1111000000000000000000000000201eba5cc46d216ce6dc03f6a759e8e766e956ae00000000000000000000000000000000000000000000000000000000000001f40000000000000000000000001226d74b8c24da868fb7e1f009c6a131b546170b0000000000000000000000000000000000000000000000000000000065243d820000000000000000000000000000000000000000000000000001f8c501d9b00000000000000000000000000000000000000000000000000000000000000d32160000000000000000000000000000000000000000000000000000000000000000","l1BlockNumber":"0x11774d1","l1Timestamp":"0x65243d63","l1TxOrigin":null,"nonce":"0x7a0","queueIndex":null,"queueOrigin":"sequencer","r":"0xe1f363e868d31c92812e47e22016265c46a11ded41477712dc53fcc28f5fbb4b","rawTransaction":"0xf9016e8207a08402faf0808301f4c494319b69888b0d11cec22caa5034e25fffbdc8842180b90104414bf389000000000000000000000000deaddeaddeaddeaddeaddeaddeaddeaddead1111000000000000000000000000201eba5cc46d216ce6dc03f6a759e8e766e956ae00000000000000000000000000000000000000000000000000000000000001f40000000000000000000000001226d74b8c24da868fb7e1f009c6a131b546170b0000000000000000000000000000000000000000000000000000000065243d820000000000000000000000000000000000000000000000000001f8c501d9b00000000000000000000000000000000000000000000000000000000000000d32160000000000000000000000000000000000000000000000000000000000000000822733a0e1f363e868d31c92812e47e22016265c46a11ded41477712dc53fcc28f5fbb4ba073c739d4bb6a2d8449284d87cb899ffeb0f1547164e91917ed866faa53c664ae","s":"0x73c739d4bb6a2d8449284d87cb899ffeb0f1547164e91917ed866faa53c664ae","to":"0x319b69888b0d11cec22caa5034e25fffbdc88421","transactionIndex":"0x0","v":"0x2733","value":"0x0"}],"transactionsRoot":"0x2ea4bf9d1b0654018bc9f2e6c887e05cf26e7e1eeace96f674c5f59313790f0e","uncles":[]},"receipts":{"0x4f812b14f02f2e835347599f068e42d812a0a33682246b048bf745fad377dba7":{"blockHash":"0xccdcfe23fda24867354ebdc8948c347ce9c98719d40a89a041ba39e69625e76d","blockNumber":"0xd00140","from":"0x1226d74b8c24da868fb7e1f009c6a131b546170b","gas":"0x1f4c4","gasPrice":"0x2faf080","hash":"0x4f812b14f02f2e835347599f068e42d812a0a33682246b048bf745fad377dba7","index":"0xd0013f","input":"0x414bf389000000000000000000000000deaddeaddeaddeaddeaddeaddeaddeaddead1111000000000000000000000000201eba5cc46d216ce6dc03f6a759e8e766e956ae00000000000000000000000000000000000000000000000000000000000001f40000000000000000000000001226d74b8c24da868fb7e1f009c6a131b546170b0000000000000000000000000000000000000000000000000000000065243d820000000000000000000000000000000000000000000000000001f8c501d9b00000000000000000000000000000000000000000000000000000000000000d32160000000000000000000000000000000000000000000000000000000000000000","l1BlockNumber":"0x11774d1","l1Timestamp":"0x65243d63","l1TxOrigin":null,"nonce":"0x7a0","queueIndex":null,"queueOrigin":"sequencer","r":"0xe1f363e868d31c92812e47e22016265c46a11ded41477712dc53fcc28f5fbb4b","rawTransaction":"0xf9016e8207a08402faf0808301f4c494319b69888b0d11cec22caa5034e25fffbdc8842180b90104414bf389000000000000000000000000deaddeaddeaddeaddeaddeaddeaddeaddead1111000000000000000000000000201eba5cc46d216ce6dc03f6a759e8e766e956ae00000000000000000000000000000000000000000000000000000000000001f40000000000000000000000001226d74b8c24da868fb7e1f009c6a131b546170b0000000000000000000000000000000000000000000000000000000065243d820000000000000000000000000000000000000000000000000001f8c501d9b00000000000000000000000000000000000000000000000000000000000000d32160000000000000000000000000000000000000000000000000000000000000000822733a0e1f363e868d31c92812e47e22016265c46a11ded41477712dc53fcc28f5fbb4ba073c739d4bb6a2d8449284d87cb899ffeb0f1547164e91917ed866faa53c664ae","s":"0x73c739d4bb6a2d8449284d87cb899ffeb0f1547164e91917ed866faa53c664ae","to":"0x319b69888b0d11cec22caa5034e25fffbdc88421","transactionIndex":"0x0","v":"0x2733","value":"0x0","contractAddress":null,"cumulativeGasUsed":"0x1dd45","daFee":"0x0","daGasPrice":"0x0","daGasUsed":"0x12c","gasUsed":"0x1dd45","l1Fee":"0x1a09f6380cb9fe0","l1FeeScalar":"1","l1GasPrice":"0x39ff1464e55c","l1GasUsed":"0x72f","logs":[{"address":"0x201eba5cc46d216ce6dc03f6a759e8e766e956ae","blockHash":"0xccdcfe23fda24867354ebdc8948c347ce9c98719d40a89a041ba39e69625e76d","blockNumber":"0xd00140","data":"0x00000000000000000000000000000000000000000000000000000000000d7707","logIndex":"0x0","removed":false,"topics":["0xddf252ad1be2c89b69c2b068fc378daa952ba7f163c4a11628f55a4df523b3ef","0x000000000000000000000000628f7131cf43e88ebe3921ae78c4ba0c31872bd4","0x0000000000000000000000001226d74b8c24da868fb7e1f009c6a131b546170b"],"transactionHash":"0x4f812b14f02f2e835347599f068e42d812a0a33682246b048bf745fad377dba7","transactionIndex":"0x0"},{"address":"0xdeaddeaddeaddeaddeaddeaddeaddeaddead1111","blockHash":"0xccdcfe23fda24867354ebdc8948c347ce9c98719d40a89a041ba39e69625e76d","blockNumber":"0xd00140","data":"0x0000000000000000000000000000000000000000000000000001f8c501d9b000","logIndex":"0x1","removed":false,"topics":["0xddf252ad1be2c89b69c2b068fc378daa952ba7f163c4a11628f55a4df523b3ef","0x0000000000000000000000001226d74b8c24da868fb7e1f009c6a131b546170b","0x000000000000000000000000628f7131cf43e88ebe3921ae78c4ba0c31872bd4"],"transactionHash":"0x4f812b14f02f2e835347599f068e42d812a0a33682246b048bf745fad377dba7","transactionIndex":"0x0"},{"address":"0xdeaddeaddeaddeaddeaddeaddeaddeaddead1111","blockHash":"0xccdcfe23fda24867354ebdc8948c347ce9c98719d40a89a041ba39e69625e76d","blockNumber":"0xd00140","data":"0xfffffffffffffffffffffffffffffffffffffffffffffffffdd97d3f9cd44fff","logIndex":"0x2","removed":false,"topics":["0x8c5be1e5ebec7d5bd14f71427d1e84f3dd0314c0f7b2291e5b200ac8c7c3b925","0x0000000000000000000000001226d74b8c24da868fb7e1f009c6a131b546170b","0x000000000000000000000000319b69888b0d11cec22caa5034e25fffbdc88421"],"transactionHash":"0x4f812b14f02f2e835347599f068e42d812a0a33682246b048bf745fad377dba7","transactionIndex":"0x0"},{"address":"0x628f7131cf43e88ebe3921ae78c4ba0c31872bd4","blockHash":"0xccdcfe23fda24867354ebdc8948c347ce9c98719d40a89a041ba39e69625e76d","blockNumber":"0xd00140","data":"0xfffffffffffffffffffffffffffffffffffffffffffffffffffffffffff288f90000000000000000000000000000000000000000000000000001f8c501d9b00000000000000000000000000000000000000061f60d02f9b5efec91e3cdfdf86600000000000000000000000000000000000000000000000000002c65dde06c20000000000000000000000000000000000000000000000000000000000003176d000000000000000000000000000000000000000000000000000000000000000000000000000000000000000000000000000000000000000000000015f7b2bf80","logIndex":"0x3","removed":false,"topics":["0x19b47279256b2a23a1665c810c8d55a1758940ee09377d4f8d26497a3577dc83","0x000000000000000000000000319b69888b0d11cec22caa5034e25fffbdc88421","0x0000000000000000000000001226d74b8c24da868fb7e1f009c6a131b546170b"],"transactionHash":"0x4f812b14f02f2e835347599f068e42d812a0a33682246b048bf745fad377dba7","transactionIndex":"0x0"}],"logsBloom":"0x40000000000000100000000000000000000000000001008800000000000000000000000000000000000000000102000000000000000000000000000000200000840000000040000000000008000000000000008000002004000000000000000000000001000000000000000100000000000000000000000000000010000000000000000000000000000000000000000000000000000000000008000000000000020000000000000000000000000000000000000001000020000100000000000000000002000000000000000000000000000000000000000000000000000000000010000000001000000000000000000000000000000000000000000000000000","status":"0x1","transactionHash":"0x4f812b14f02f2e835347599f068e42d812a0a33682246b048bf745fad377dba7"}}}