{"block":{"difficulty":"0x2","extraData":"0xd98301090a846765746889676f312e31352e3133856c696e7578000000000000ff4dc9262e54056ec57f21d44d91c86bee2bea32ee23b63452df47c8ee6605ff225fa5bbff9fdf9a0008297b5ce1b70ce8951b66536fb78679026875fb6af8ef01","gasLimit":"0x1c9c380","gasUsed":"0x1d221","hash":"0x403f6a4fbd2e1c977048760d825c6bc5f4d5c155244ec8108e3e5c9909ce3636","logsBloom":"0x40000000000000000000000000000000000000000001008800000000000000000000000000000000000000000002000000000000000000000000000000200000840000000040000000000008000000000000008000002004000000000000000000000001000000000000000100000000000000000000000000000010000000000000000000000000000000000000000000000000000000000008000010000000020000002000000000000000000000000000000001000020000100000000000000000002000000000000000000000000000000000000000000000000000000000010000000001000004000000000000000000000000000000000000000000000","miner":"0x0000000000000000000000000000000000000000","mixHash":"0x0000000000000000000000000000000000000000000000000000000000000000","nonce":"0x0000000000000000","number":"0xd00060","parentHash":"0x4ff3be6e800da098a79d3a6c4facbed8000e8188f63d846de30fc44a8f4233f4","receiptsRoot":"0xd719b2f7bbb68f072229742023c0eb13236c159dcb078bb5ee4520b3e3cfee77","sha3Uncles":"0x1dcc4de8dec75d7aab85b567b6ccd41ad312451b948a7413f0a142fd40d49347","size":"0x3d8","stateRoot":"0x4baeed4aea87424d22b63631a14c11ec6e568a3b345a6bbaf43df2a87a1bb1b8","timestamp":"0x65243cf7","totalDifficulty":"0x1a000c1","transactions":[{"blockHash":"0x403f6a4fbd2e1c977048760d825c6bc5f4d5c155244ec8108e3e5c9909ce3636","blockNumber":"0xd00060","from":"0xcbebe54cae18e9a16d0ea24156031e2c9ff7fa1c","gas":"0x1e972","gasPrice":"0x2faf080","hash":"0x57558955d0ab2300926c301cdc774f1d544abcf62d579b2bca666837187aab09","index":"0xd0005f","input":"0x414bf389000000000000000000000000deaddeaddeaddeaddeaddeaddeaddeaddead1111000000000000000000000000201eba5cc46d216ce6dc03f6a759e8e766e956ae00000000000000000000000000000000000000000000000000000000000001f4000000000000000000000000cbebe54cae18e9a16d0ea24156031e2c9ff7fa1c0000000000000000000000000000000000000000000000000000000065243d180000000000000000000000000000000000000000000000000001a6ea3fd2100000000000000000000000000000000000000000000000000000000000000b124e0000000000000000000000000000000000000000000000000000000000000000","l1BlockNumber":"0x11774c8","l1Timestamp":"0x65243cf7","l1TxOrigin":null,"nonce":"0x1176","queueIndex":null,"queueOrigin":"sequencer","r":"0xafd43b56c2e13b40199ef24c3d4055074b4e320f897532696e72f3e142aaa87a","rawTransaction":"0xf9016e8211768402faf0808301e97294319b69888b0d11cec22caa5034e25fffbdc8842180b90104414bf389000000000000000000000000deaddeaddeaddeaddeaddeaddeaddeaddead1111000000000000000000000000201eba5cc46d216ce6dc03f6a759e8e766e956ae00000000000000000000000000000000000000000000000000000000000001f4000000000000000000000000cbebe54cae18e9a16d0ea24156031e2c9ff7fa1c0000000000000000000000000000000000000000000000000000000065243d180000000000000000000000000000000000000000000000000001a6ea3fd2100000000000000000000000000000000000000000000000000000000000000b124e0000000000000000000000000000000000000000000000000000000000000000822733a0afd43b56c2e13b40199ef24c3d4055074b4e320f897532696e72f3e142aaa87aa00c81930aeea06253bb53c87b9b49b66c4d43c31def222b2880c45b0a81eb1602","s":"0xc81930aeea06253bb53c87b9b49b66c4d43c31def222b2880c45b0a81eb1602","to":"0x319b69888b0d11cec22caa5034e25fffbdc88421","transactionIndex":"0x0","v":"0x2733","value":"0x0"}],"transactionsRoot":"0x309480c7b47b5c7254a37529e03321af20a4667c29886304f35da5f2c8f3b4fe","uncles":[]},"receipts":{"0x57558955d0ab2300926c301cdc774f1d544abcf62d579b2bca666837187aab09":{"blockHash":"0x403f6a4fbd2e1c977048760d825c6bc5f4d5c155244ec8108e3e5c9909ce3636","blockNumber":"0xd00060","from":"0xcbebe54cae18e9a16d0ea24156031e2c9ff7fa1c","gas":"0x1e972","gasPrice":"0x2faf080","hash":"0x57558955d0ab2300926c301cdc774f1d544abcf62d579b2bca666837187aab09","index":"0xd0005f","input":"0x414bf389000000000000000000000000deaddeaddeaddeaddeaddeaddeaddeaddead1111000000000000000000000000201eba5cc46d216ce6dc03f6a759e8e766e956ae00000000000000000000000000000000000000000000000000000000000001f4000000000000000000000000cbebe54cae18e9a16d0ea24156031e2c9ff7fa1c0000000000000000000000000000000000000000000000000000000065243d180000000000000000000000000000000000000000000000000001a6ea3fd2100000000000000000000000000000000000000000000000000000000000000b124e0000000000000000000000000000000000000000000000000000000000000000","l1BlockNumber":"0x11774c8","l1Timestamp":"0x65243cf7","l1TxOrigin":null,"nonce":"0x1176","queueIndex":null,"queueOrigin":"sequencer","r":"0xafd43b56c2e13b40199ef24c3d4055074b4e320f897532696e72f3e142aaa87a","rawTransaction":"0xf9016e8211768402faf0808301e97294319b69888b0d11cec22caa5034e25fffbdc8842180b90104414bf389000000000000000000000000deaddeaddeaddeaddeaddeaddeaddeaddead1111000000000000000000000000201eba5cc46d216ce6dc03f6a759e8e766e956ae00000000000000000000000000000000000000000000000000000000000001f4000000000000000000000000cbebe54cae18e9a16d0ea24156031e2c9ff7fa1c0000000000000000000000000000000000000000000000000000000065243d180000000000000000000000000000000000000000000000000001a6ea3fd2100000000000000000000000000000000000000000000000000000000000000b124e0000000000000000000000000000000000000000000000000000000000000000822733a0afd43b56c2e13b40199ef24c3d4055074b4e320f897532696e72f3e142aaa87aa00c81930aeea06253bb53c87b9b49b66c4d43c31def222b2880c45b0a81eb1602","s":"0xc81930aeea06253bb53c87b9b49b66c4d43c31def222b2880c45b0a81eb1602","to":"0x319b69888b0d11cec22caa5034e25fffbdc88421","transactionIndex":"0x0","v":"0x2733","value":"0x0","contractAddress":null,"cumulativeGasUsed":"0x1d221","daFee":"0x0","daGasPrice":"0x0","daGasUsed":"0x12c","gasUsed":"0x1d221","l1Fee":"0x1a09f6380cb9fe0","l1FeeScalar":"1","l1GasPrice":"0x39ff1464e55c","l1GasUsed":"0x72f","logs":[{"address":"0x201eba5cc46d216ce6dc03f6a759e8e766e956ae","blockHash":"0x403f6a4fbd2e1c977048760d825c6bc5f4d5c155244ec8108e3e5c9909ce3636","blockNumber":"0xd00060","data":"0x00000000000000000000000000000000000000000000000000000000000b4c26","logIndex":"0x0","removed":false,"topics":["0xddf252ad1be2c89b69c2b068fc378daa952ba7f163c4a11628f55a4df523b3ef","0x000000000000000000000000628f7131cf43e88ebe3921ae78c4ba0c31872bd4","0x000000000000000000000000cbebe54cae18e9a16d0ea24156031e2c9ff7fa1c"],"transactionHash":"0x57558955d0ab2300926c301cdc774f1d544abcf62d579b2bca666837187aab09","transactionIndex":"0x0"},{"address":"0xdeaddeaddeaddeaddeaddeaddeaddeaddead1111","blockHash":"0x403f6a4fbd2e1c977048760d825c6bc5f4d5c155244ec8108e3e5c9909ce3636","blockNumber":"0xd00060","data":"0x0000000000000000000000000000000000000000000000000001a6ea3fd21000","logIndex":"0x1","removed":false,"topics":["0xddf252ad1be2c89b69c2b068fc378daa952ba7f163c4a11628f55a4df523b3ef","0x000000000000000000000000cbebe54cae18e9a16d0ea24156031e2c9ff7fa1c","0x000000000000000000000000628f7131cf43e88ebe3921ae78c4ba0c31872bd4"],"transactionHash":"0x57558955d0ab2300926c301cdc774f1d544abcf62d579b2bca666837187aab09","transactionIndex":"0x0"},{"address":"0xdeaddeaddeaddeaddeaddeaddeaddeaddead1111","blockHash":"0x403f6a4fbd2e1c977048760d825c6bc5f4d5c155244ec8108e3e5c9909ce3636","blockNumber":"0xd00060","data":"0xfffffffffffffffffffffffffffffffffffffffffffffffffa29a856aa933fff","logIndex":"0x2","removed":false,"topics":["0x8c5be1e5ebec7d5bd14f71427d1e84f3dd0314c0f7b2291e5b200ac8c7c3b925","0x000000000000000000000000cbebe54cae18e9a16d0ea24156031e2c9ff7fa1c","0x000000000000000000000000319b69888b0d11cec22caa5034e25fffbdc88421"],"transactionHash":"0x57558955d0ab2300926c301cdc774f1d544abcf62d579b2bca666837187aab09","transactionIndex":"0x0"},{"address":"0x628f7131cf43e88ebe3921ae78c4ba0c31872bd4","blockHash":"0x403f6a4fbd2e1c977048760d825c6bc5f4d5c155244ec8108e3e5c9909ce3636","blockNumber":"0xd00060","data":"0xfffffffffffffffffffffffffffffffffffffffffffffffffffffffffff4b3da0000000000000000000000000000000000000000000000000001a6ea3fd2100000000000000000000000000000000000000061e35b7817617d1da03cad63453000000000000000000000000000000000000000000000000000002c65dde06c20000000000000000000000000000000000000000000000000000000000003175e00000000000000000000000000000000000000000000000000000000000000000000000000000000000000000000000000000000000000000000001267bf4680","logIndex":"0x3","removed":false,"topics":["0x19b47279256b2a23a1665c810c8d55a1758940ee09377d4f8d26497a3577dc83","0x000000000000000000000000319b69888b0d11cec22caa5034e25fffbdc88421","0x000000000000000000000000cbebe54cae18e9a16d0ea24156031e2c9ff7fa1c"],"transactionHash":"0x57558955d0ab2300926c301cdc774f1d544abcf62d579b2bca666837187aab09","transactionIndex":"0x0"}],"logsBloom":"0x40000000000000000000000000000000000000000001008800000000000000000000000000000000000000000002000000000000000000000000000000200000840000000040000000000008000000000000008000002004000000000000000000000001000000000000000100000000000000000000000000000010000000000000000000000000000000000000000000000000000000000008000010000000020000002000000000000000000000000000000001000020000100000000000000000002000000000000000000000000000000000000000000000000000000000010000000001000004000000000000000000000000000000000000000000000","status":"0x1","transactionHash":"0x57558955d0ab2300926c301cdc774f1d544abcf62d579b2bca666837187aab09"}}}