{"block":{"difficulty":"0x2","extraData":"0xd98301090a846765746889676f312e31352e3133856c696e757800000000000034cf5ad64c0c6cff916cf13f56c7a0cb1ec4097a5d520f79345a1f9c6b34e329369fa89790ba01553b2589f7240039fe01c80a23cd69abac067f057a0eda5ced00","gasLimit":"0x1c9c380","gasUsed":"0x204dd","hash":"0x03abcf1e9ea6183052d0053111ba996cb67721bd2150d86d452cfd55d81ec53a","logsBloom":"0x0000000000000000000000000000000000004000000100880000000000000000000000000000000000000000000200000000000000200000000000000000000004800000004400000000000800000000000000c000002000000000000000000000000000000000000000000000000000000000100000800000000010100000000000000000000000000000000000000000000000000000000000000000000000000000000000000000000000000000000000000001000000000000000000000000000002000000000000000000000000002000000400000000800000000000000000000000000000000000000000000000000000000010000000000000000000","miner":"0x0000000000000000000000000000000000000000","mixHash":"0x0000000000000000000000000000000000000000000000000000000000000000","nonce":"0x0000000000000000","number":"0xd0033f","parentHash":"0x8b77576ad69a5d4c5d98deafb0d318d3b631faad1e29dfc9c35ff89f179b68a1","receiptsRoot":"0x4813c1c57dc9ca01b81819ea95649ab8f8981c5b7606df147aebc9f3f3636cf6","sha3Uncles":"0x1dcc4de8dec75d7aab85b567b6ccd41ad312451b948a7413f0a142fd40d49347","size":"0x3d8","stateRoot":"0x7e0907374579cb39ef73ca5f3aba87794b5366efa8b93c02f989d18b4d2581a4","timestamp":"0x65243e6b","totalDifficulty":"0x1a0067f","transactions":[{"blockHash":"0x03abcf1e9ea6183052d0053111ba996cb67721bd2150d86d452cfd55d81ec53a","blockNumber":"0xd0033f","from":"0xadd3b7954dca272b8ce8f65eda125b25dd94741c","gas":"0x21d08","gasPrice":"0x2faf080","hash":"0x653956231fec89439182e6d3e90aeb4699b30af55f4b59c9ed492f1b64fe2228","index":"0xd0033e","input":"0x414bf38900000000000000000000000009bc4e0d864854c6afb6eb9a9cdf58ac190d0df9000000000000000000000000201eba5cc46d216ce6dc03f6a759e8e766e956ae0000000000000000000000000000000000000000000000000000000000000064000000000000000000000000add3b7954dca272b8ce8f65eda125b25dd94741c0000000000000000000000000000000000000000000000000000000065243e8d00000000000000000000000000000000000000000000000000000000001053b000000000000000000000000000000000000000000000000000000000000ffe530000000000000000000000000000000000000000000000000000000000000000","l1BlockNumber":"0x11774e7","l1Timestamp":"0x65243e6b","l1TxOrigin":null,"nonce":"0x6c8","queueIndex":null,"queueOrigin":"sequencer","r":"0xb467cfe81f8de371647c01b3553ddae8d83a5d59df616ecb8cdda29a95220646","rawTransaction":"0xf9016e8206c88402faf08083021d0894319b69888b0d11cec22caa5034e25fffbdc8842180b90104414bf38900000000000000000000000009bc4e0d864854c6afb6eb9a9cdf58ac190d0df9000000000000000000000000201eba5cc46d216ce6dc03f6a759e8e766e956ae0000000000000000000000000000000000000000000000000000000000000064000000000000000000000000add3b7954dca272b8ce8f65eda125b25dd94741c0000000000000000000000000000000000000000000000000000000065243e8d00000000000000000000000000000000000000000000000000000000001053b000000000000000000000000000000000000000000000000000000000000ffe530000000000000000000000000000000000000000000000000000000000000000822733a0b467cfe81f8de371647c01b3553ddae8d83a5d59df616ecb8cdda29a95220646a00632f48413e069ac69e3ecee88717f5f8b26cb335b57aa9257893dfb331ad1ce","s":"0x632f48413e069ac69e3ecee88717f5f8b26cb335b57aa9257893dfb331ad1ce","to":"0x319b69888b0d11cec22caa5034e25fffbdc88421","transactionIndex":"0x0","v":"0x2733","value":"0x0"}],"transactionsRoot":"0x99d23a4e566b8bb15edf68a4524e730881cad9d305e8267c2888946068ff15da","uncles":[]},"receipts":{"0x653956231fec89439182e6d3e90aeb4699b30af55f4b59c9ed492f1b64fe2228":{"blockHash":"0x03abcf1e9ea6183052d0053111ba996cb67721bd2150d86d452cfd55d81ec53a","blockNumber":"0xd0033f","from":"0xadd3b7954dca272b8ce8f65eda125b25dd94741c","gas":"0x21d08","gasPrice":"0x2faf080","hash":"0x653956231fec89439182e6d3e90aeb4699b30af55f4b59c9ed492f1b64fe2228","index":"0xd0033e","input":"0x414bf38900000000000000000000000009bc4e0d864854c6afb6eb9a9cdf58ac190d0df9000000000000000000000000201eba5cc46d216ce6dc03f6a759e8e766e956ae0000000000000000000000000000000000000000000000000000000000000064000000000000000000000000add3b7954dca272b8ce8f65eda125b25dd94741c0000000000000000000000000000000000000000000000000000000065243e8d00000000000000000000000000000000000000000000000000000000001053b000000000000000000000000000000000000000000000000000000000000ffe530000000000000000000000000000000000000000000000000000000000000000","l1BlockNumber":"0x11774e7","l1Timestamp":"0x65243e6b","l1TxOrigin":null,"nonce":"0x6c8","queueIndex":null,"queueOrigin":"sequencer","r":"0xb467cfe81f8de371647c01b3553ddae8d83a5d59df616ecb8cdda29a95220646","rawTransaction":"0xf9016e8206c88402faf08083021d0894319b69888b0d11cec22caa5034e25fffbdc8842180b90104414bf38900000000000000000000000009bc4e0d864854c6afb6eb9a9cdf58ac190d0df9000000000000000000000000201eba5cc46d216ce6dc03f6a759e8e766e956ae0000000000000000000000000000000000000000000000000000000000000064000000000000000000000000add3b7954dca272b8ce8f65eda125b25dd94741c0000000000000000000000000000000000000000000000000000000065243e8d00000000000000000000000000000000000000000000000000000000001053b000000000000000000000000000000000000000000000000000000000000ffe530000000000000000000000000000000000000000000000000000000000000000822733a0b467cfe81f8de371647c01b3553ddae8d83a5d59df616ecb8cdda29a95220646a00632f48413e069ac69e3ecee88717f5f8b26cb335b57aa9257893dfb331ad1ce","s":"0x632f48413e069ac69e3ecee88717f5f8b26cb335b57aa9257893dfb331ad1ce","to":"0x319b69888b0d11cec22caa5034e25fffbdc88421","transactionIndex":"0x0","v":"0x2733","value":"0x0","contractAddress":null,"cumulativeGasUsed":"0x204dd","daFee":"0x0","daGasPrice":"0x0","daGasUsed":"0x12c","gasUsed":"0x204dd","l1Fee":"0x19709d787180660","l1FeeScalar":"1","l1GasPrice":"0x38a987f04864","l1GasUsed":"0x72f","logs":[{"address":"0x201eba5cc46d216ce6dc03f6a759e8e766e956ae","blockHash":"0x03abcf1e9ea6183052d0053111ba996cb67721bd2150d86d452cfd55d81ec53a","blockNumber":"0xd0033f","data":"0x00000000000000000000000000000000000000000000000000000000001051e2","logIndex":"0x0","removed":false,"topics":["0xddf252ad1be2c89b69c2b068fc378daa952ba7f163c4a11628f55a4df523b3ef","0x0000000000000000000000006488f911c6cd86c289aa319c5a826dcf8f1ca065","0x000000000000000000000000add3b7954dca272b8ce8f65eda125b25dd94741c"],"transactionHash":"0x653956231fec89439182e6d3e90aeb4699b30af55f4b59c9ed492f1b64fe2228","transactionIndex":"0x0"},{"address":"0x09bc4e0d864854c6afb6eb9a9cdf58ac190d0df9","blockHash":"0x03abcf1e9ea6183052d0053111ba996cb67721bd2150d86d452cfd55d81ec53a","blockNumber":"0xd0033f","data":"0x00000000000000000000000000000000000000000000000000000000001053b0","logIndex":"0x1","removed":false,"topics":["0xddf252ad1be2c89b69c2b068fc378daa952ba7f163c4a11628f55a4df523b3ef","0x000000000000000000000000add3b7954dca272b8ce8f65eda125b25dd94741c","0x0000000000000000000000006488f911c6cd86c289aa319c5a826dcf8f1ca065"],"transactionHash":"0x653956231fec89439182e6d3e90aeb4699b30af55f4b59c9ed492f1b64fe2228","transactionIndex":"0x0"},{"address":"0x6488f911c6cd86c289aa319c5a826dcf8f1ca065","blockHash":"0x03abcf1e9ea6183052d0053111ba996cb67721bd2150d86d452cfd55d81ec53a","blockNumber":"0xd0033f","data":"0x00000000000000000000000000000000000000000000000000000000001053b0ffffffffffffffffffffffffffffffffffffffffffffffffffffffffffefae1e0000000000000000000000000000000000000000fff5218db976ccc791e278cb0000000000000000000000000000000000000000000000000000aa91ae904e92fffffffffffffffffffffffffffffffffffffffffffffffffffffffffffffffc00000000000000000000000000000000000000000000000000000000000000230000000000000000000000000000000000000000000000000000000000000000","logIndex":"0x2","removed":false,"topics":["0x19b47279256b2a23a1665c810c8d55a1758940ee09377d4f8d26497a3577dc83","0x000000000000000000000000319b69888b0d11cec22caa5034e25fffbdc88421","0x000000000000000000000000add3b7954dca272b8ce8f65eda125b25dd94741c"],"transactionHash":"0x653956231fec89439182e6d3e90aeb4699b30af55f4b59c9ed492f1b64fe2228","transactionIndex":"0x0"}],"logsBloom":"0x0000000000000000000000000000000000004000000100880000000000000000000000000000000000000000000200000000000000200000000000000000000004800000004400000000000800000000000000c000002000000000000000000000000000000000000000000000000000000000100000800000000010100000000000000000000000000000000000000000000000000000000000000000000000000000000000000000000000000000000000000001000000000000000000000000000002000000000000000000000000002000000400000000800000000000000000000000000000000000000000000000000000000010000000000000000000","status":"0x1","transactionHash":"0x653956231fec89439182e6d3e90aeb4699b30af55f4b59c9ed492f1b64fe2228"}}}