{"block":{"difficulty":"0x2","extraData":"0xd98301090a846765746889676f312e31352e3133856c696e7578000000000000772f7631d91ca91269ae00a6868b724e0bdb0ab9fc1e76843d8029a800ab91d0672ab6b555f641b900072daa2d250f14fde2af8a273563014e89fad64d782b0f01","gasLimit":"0x1c9c380","gasUsed":"0x59c0f","hash":"0x0f46e894bcc3c52ab55700af388eabb896f243ee5aa737c20b9d881dd2004145","logsBloom":"0x00000000010408000080000000408000000000000000000000000000024001000000000000000008100000000000040000000000000000000000000000200000100000000000000000000008040000000000080000040001000400000000000000000000020000000000000000000800000000000008000410000010000100040010000088000000000000000000040000100000000000000000000000000000020000000000000000800000000000000000000000000100000000000000010000010012000a00000000002000020000000008000000000000010200000030000010000400000000000000000000000000000000000000040000000000000000","miner":"0x0000000000000000000000000000000000000000","mixHash":"0x0000000000000000000000000000000000000000000000000000000000000000","nonce":"0x0000000000000000","number":"0xcff378","parentHash":"0xea4af94518483ce785b180ad0d6df4ca3211bd3d804d546343d6df336135dde8","receiptsRoot":"0x88c08887bb627e88b988e17375c97b5472d1c6140d7b783e7bd6aef8e542b87c","sha3Uncles":"0x1dcc4de8dec75d7aab85b567b6ccd41ad312451b948a7413f0a142fd40d49347","size":"0x353","stateRoot":"0xede45bf50379f2cf60114ca8d9b746fc3c8508454833722f4ae2c64caff75075","timestamp":"0x6524373e","totalDifficulty":"0x19fe6f1","transactions":[{"blockHash":"0x0f46e894bcc3c52ab55700af388eabb896f243ee5aa737c20b9d881dd2004145","blockNumber":"0xcff378","from":"0x4faedbc28235fe926566c7b78d309d588e175f89","gas":"0x4c4b40","gasPrice":"0x2faf080","hash":"0x8f6a880b3441b1f914dbbd3d47012424bf6c616126ac4b8b2d0833692e79cddf","index":"0xcff377","input":"0xe8eda9df00000000000000000000000078c1b0c915c4faa5fffa6cabf0219da63d7f4cb8000000000000000000000000000000000000000000000000003dc3f69da598260000000000000000000000004faedbc28235fe926566c7b78d309d588e175f890000000000000000000000000000000000000000000000000000000000000000","l1BlockNumber":"0x117744d","l1Timestamp":"0x6524373e","l1TxOrigin":null,"nonce":"0x5c","queueIndex":null,"queueOrigin":"sequencer","r":"0x4540a066a74cdbb623442283978eb1509c240fa43db83055c55514f15cfd3b44","rawTransaction":"0xf8eb5c8402faf080834c4b4094cfa5ae7c2ce8fadc6426c1ff872ca45378fb7cf380b884e8eda9df00000000000000000000000078c1b0c915c4faa5fffa6cabf0219da63d7f4cb8000000000000000000000000000000000000000000000000003dc3f69da598260000000000000000000000004faedbc28235fe926566c7b78d309d588e175f890000000000000000000000000000000000000000000000000000000000000000822733a04540a066a74cdbb623442283978eb1509c240fa43db83055c55514f15cfd3b44a07d66002496f1618d04f021dc2cf2fcce58df1a20a9f8b6ad60f88c8c0120a349","s":"0x7d66002496f1618d04f021dc2cf2fcce58df1a20a9f8b6ad60f88c8c0120a349","to":"0xcfa5ae7c2ce8fadc6426c1ff872ca45378fb7cf3","transactionIndex":"0x0","v":"0x2733","value":"0x0"}],"transactionsRoot":"0xa66684e05b5a9cf554161e3500607ce7cdf60f03070fa09b1e79288d12fb0e77","uncles":[]},"receipts":{"0x8f6a880b3441b1f914dbbd3d47012424bf6c616126ac4b8b2d0833692e79cddf":{"blockHash":"0x0f46e894bcc3c52ab55700af388eabb896f243ee5aa737c20b9d881dd2004145","blockNumber":"0xcff378","from":"0x4faedbc28235fe926566c7b78d309d588e175f89","gas":"0x4c4b40","gasPrice":"0x2faf080","hash":"0x8f6a880b3441b1f914dbbd3d47012424bf6c616126ac4b8b2d0833692e79cddf","index":"0xcff377","input":"0xe8eda9df00000000000000000000000078c1b0c915c4faa5fffa6cabf0219da63d7f4cb8000000000000000000000000000000000000000000000000003dc3f69da598260000000000000000000000004faedbc28235fe926566c7b78d309d588e175f890000000000000000000000000000000000000000000000000000000000000000","l1BlockNumber":"0x117744d","l1Timestamp":"0x6524373e","l1TxOrigin":null,"nonce":"0x5c","queueIndex":null,"queueOrigin":"sequencer","r":"0x4540a066a74cdbb623442283978eb1509c240fa43db83055c55514f15cfd3b44","rawTransaction":"0xf8eb5c8402faf080834c4b4094cfa5ae7c2ce8fadc6426c1ff872ca45378fb7cf380b884e8eda9df00000000000000000000000078c1b0c915c4faa5fffa6cabf0219da63d7f4cb8000000000000000000000000000000000000000000000000003dc3f69da598260000000000000000000000004faedbc28235fe926566c7b78d309d588e175f890000000000000000000000000000000000000000000000000000000000000000822733a04540a066a74cdbb623442283978eb1509c240fa43db83055c55514f15cfd3b44a07d66002496f1618d04f021dc2cf2fcce58df1a20a9f8b6ad60f88c8c0120a349","s":"0x7d66002496f1618d04f021dc2cf2fcce58df1a20a9f8b6ad60f88c8c0120a349","to":"0xcfa5ae7c2ce8fadc6426c1ff872ca45378fb7cf3","transactionIndex":"0x0","v":"0x2733","value":"0x0","contractAddress":null,"cumulativeGasUsed":"0x59c0f","daFee":"0x0","daGasPrice":"0x0","daGasUsed":"0xa8","gasUsed":"0x59c0f","l1Fee":"0x1c5145ff7a866d0","l1FeeScalar":"1","l1GasPrice":"0x3f1249c65230","l1GasUsed":"0x72f","logs":[{"address":"0x79e2fd1c484eb9ee45001a98ce31f28918f27c41","blockHash":"0x0f46e894bcc3c52ab55700af388eabb896f243ee5aa737c20b9d881dd2004145","blockNumber":"0xcff378","data":"0x00000000000000000000000000000000000000000000005280743f620b68958000000000000000000000000000000000000000000001f5452615e9fd354d7c5e","logIndex":"0x0","removed":false,"topics":["0x526824944047da5b81071fb6349412005c5da81380b336103fbe5dd34556c776","0x000000000000000000000000683696523512636b46a826a7e3d1b0658e8e2e1c","0x0000000000000000000000005c75a733656c3e42e44afff1aca1913611f49230"],"transactionHash":"0x8f6a880b3441b1f914dbbd3d47012424bf6c616126ac4b8b2d0833692e79cddf","transactionIndex":"0x0"},{"address":"0x683696523512636b46a826a7e3d1b0658e8e2e1c","blockHash":"0x0f46e894bcc3c52ab55700af388eabb896f243ee5aa737c20b9d881dd2004145","blockNumber":"0xcff378","data":"0x000000000000000000000000000000000000000000000000002bdcf261e1ebc6","logIndex":"0x1","removed":false,"topics":["0xddf252ad1be2c89b69c2b068fc378daa952ba7f163c4a11628f55a4df523b3ef","0x0000000000000000000000000000000000000000000000000000000000000000","0x0000000000000000000000005c75a733656c3e42e44afff1aca1913611f49230"],"transactionHash":"0x8f6a880b3441b1f914dbbd3d47012424bf6c616126ac4b8b2d0833692e79cddf","transactionIndex":"0x0"},{"address":"0x79e2fd1c484eb9ee45001a98ce31f28918f27c41","blockHash":"0x0f46e894bcc3c52ab55700af388eabb896f243ee5aa737c20b9d881dd2004145","blockNumber":"0xcff378","data":"0x00000000000000000000000000000000000000000000002b0da1d15876749b5300000000000000000000000000000000000000000001f5452620e139cdc5f74f","logIndex":"0x2","removed":false,"topics":["0x526824944047da5b81071fb6349412005c5da81380b336103fbe5dd34556c776","0x000000000000000000000000683696523512636b46a826a7e3d1b0658e8e2e1c","0x00000000000000000000000053b7183cff6d109189165e7ee4c1ebb922e1e6e5"],"transactionHash":"0x8f6a880b3441b1f914dbbd3d47012424bf6c616126ac4b8b2d0833692e79cddf","transactionIndex":"0x0"},{"address":"0x683696523512636b46a826a7e3d1b0658e8e2e1c","blockHash":"0x0f46e894bcc3c52ab55700af388eabb896f243ee5aa737c20b9d881dd2004145","blockNumber":"0xcff378","data":"0x000000000000000000000000000000000000000000000000000af73c98787af1","logIndex":"0x3","removed":false,"topics":["0xddf252ad1be2c89b69c2b068fc378daa952ba7f163c4a11628f55a4df523b3ef","0x0000000000000000000000000000000000000000000000000000000000000000","0x00000000000000000000000053b7183cff6d109189165e7ee4c1ebb922e1e6e5"],"transactionHash":"0x8f6a880b3441b1f914dbbd3d47012424bf6c616126ac4b8b2d0833692e79cddf","transactionIndex":"0x0"},{"address":"0x683696523512636b46a826a7e3d1b0658e8e2e1c","blockHash":"0x0f46e894bcc3c52ab55700af388eabb896f243ee5aa737c20b9d881dd2004145","blockNumber":"0xcff378","data":"0x0000000000000000000000000000000000000000000000000036f1e7c2ba3d380000000000000000000000000000000000000000033ceea342423e8e26e4c478","logIndex":"0x4","removed":false,"topics":["0x4c209b5fc8ad50758f13e2e1088ba56a560dff690a1c6fef26394f4c03821c4f","0x0000000000000000000000005c75a733656c3e42e44afff1aca1913611f49230"],"transactionHash":"0x8f6a880b3441b1f914dbbd3d47012424bf6c616126ac4b8b2d0833692e79cddf","transactionIndex":"0x0"},{"address":"0xcfa5ae7c2ce8fadc6426c1ff872ca45378fb7cf3","blockHash":"0x0f46e894bcc3c52ab55700af388eabb896f243ee5aa737c20b9d881dd2004145","blockNumber":"0xcff378","data":"0x0000000000000000000000000000000000000000000880e108a230ff9bb6f215000000000000000000000000000000000000000000000000000000000000000000000000000000000000000000000000000000000037e981b7523bc727b37c130000000000000000000000000000000000000000033ceea342423e8e26e4c478000000000000000000000000000000000000000003464aee7fcfd28bd8ab022c","logIndex":"0x5","removed":false,"topics":["0x804c9b842b2748a22bb64b345453a3de7ca54a6ca45ce00d415894979e22897a","0x00000000000000000000000078c1b0c915c4faa5fffa6cabf0219da63d7f4cb8"],"transactionHash":"0x8f6a880b3441b1f914dbbd3d47012424bf6c616126ac4b8b2d0833692e79cddf","transactionIndex":"0x0"},{"address":"0x78c1b0c915c4faa5fffa6cabf0219da63d7f4cb8","blockHash":"0x0f46e894bcc3c52ab55700af388eabb896f243ee5aa737c20b9d881dd2004145","blockNumber":"0xcff378","data":"0x000000000000000000000000000000000000000000000000003dc3f69da59826","logIndex":"0x6","removed":false,"topics":["0xddf252ad1be2c89b69c2b068fc378daa952ba7f163c4a11628f55a4df523b3ef","0x0000000000000000000000004faedbc28235fe926566c7b78d309d588e175f89","0x000000000000000000000000683696523512636b46a826a7e3d1b0658e8e2e1c"],"transactionHash":"0x8f6a880b3441b1f914dbbd3d47012424bf6c616126ac4b8b2d0833692e79cddf","transactionIndex":"0x0"},{"address":"0x78c1b0c915c4faa5fffa6cabf0219da63d7f4cb8","blockHash":"0x0f46e894bcc3c52ab55700af388eabb896f243ee5aa737c20b9d881dd2004145","blockNumber":"0xcff378","data":"0xfffffffffffffffffffffffffffffffffffffffffffffffff1e18555baf667d9","logIndex":"0x7","removed":false,"topics":["0x8c5be1e5ebec7d5bd14f71427d1e84f3dd0314c0f7b2291e5b200ac8c7c3b925","0x0000000000000000000000004faedbc28235fe926566c7b78d309d588e175f89","0x000000000000000000000000cfa5ae7c2ce8fadc6426c1ff872ca45378fb7cf3"],"transactionHash":"0x8f6a880b3441b1f914dbbd3d47012424bf6c616126ac4b8b2d0833692e79cddf","transactionIndex":"0x0"},{"address":"0x79e2fd1c484eb9ee45001a98ce31f28918f27c41","blockHash":"0x0f46e894bcc3c52ab55700af388eabb896f243ee5aa737c20b9d881dd2004145","blockNumber":"0xcff378","data":"0x000000000000000000000000000000000000000000000000003da28d52eebb7c00000000000000000000000000000000000000000001f545265e83c720b4b2cb","logIndex":"0x8","removed":false,"topics":["0x526824944047da5b81071fb6349412005c5da81380b336103fbe5dd34556c776","0x000000000000000000000000683696523512636b46a826a7e3d1b0658e8e2e1c","0x0000000000000000000000004faedbc28235fe926566c7b78d309d588e175f89"],"transactionHash":"0x8f6a880b3441b1f914dbbd3d47012424bf6c616126ac4b8b2d0833692e79cddf","transactionIndex":"0x0"},{"address":"0x683696523512636b46a826a7e3d1b0658e8e2e1c","blockHash":"0x0f46e894bcc3c52ab55700af388eabb896f243ee5aa737c20b9d881dd2004145","blockNumber":"0xcff378","data":"0x000000000000000000000000000000000000000000000000003dc3f69da59826","logIndex":"0x9","removed":false,"topics":["0xddf252ad1be2c89b69c2b068fc378daa952ba7f163c4a11628f55a4df523b3ef","0x0000000000000000000000000000000000000000000000000000000000000000","0x0000000000000000000000004faedbc28235fe926566c7b78d309d588e175f89"],"transactionHash":"0x8f6a880b3441b1f914dbbd3d47012424bf6c616126ac4b8b2d0833692e79cddf","transactionIndex":"0x0"},{"address":"0x683696523512636b46a826a7e3d1b0658e8e2e1c","blockHash":"0x0f46e894bcc3c52ab55700af388eabb896f243ee5aa737c20b9d881dd2004145","blockNumber":"0xcff378","data":"0x000000000000000000000000000000000000000000000000003dc3f69da598260000000000000000000000000000000000000000033ceea342423e8e26e4c478","logIndex":"0xa","removed":false,"topics":["0x4c209b5fc8ad50758f13e2e1088ba56a560dff690a1c6fef26394f4c03821c4f","0x0000000000000000000000004faedbc28235fe926566c7b78d309d588e175f89"],"transactionHash":"0x8f6a880b3441b1f914dbbd3d47012424bf6c616126ac4b8b2d0833692e79cddf","transactionIndex":"0x0"},{"address":"0xcfa5ae7c2ce8fadc6426c1ff872ca45378fb7cf3","blockHash":"0x0f46e894bcc3c52ab55700af388eabb896f243ee5aa737c20b9d881dd2004145","blockNumber":"0xcff378","data":"0x","logIndex":"0xb","removed":false,"topics":["0x00058a56ea94653cdf4f152d227ace22d4c00ad99e2a43f58cb7d9e3feb295f2","0x00000000000000000000000078c1b0c915c4faa5fffa6cabf0219da63d7f4cb8","0x0000000000000000000000004faedbc28235fe926566c7b78d309d588e175f89"],"transactionHash":"0x8f6a880b3441b1f914dbbd3d47012424bf6c616126ac4b8b2d0833692e79cddf","transactionIndex":"0x0"},{"address":"0xcfa5ae7c2ce8fadc6426c1ff872ca45378fb7cf3","blockHash":"0x0f46e894bcc3c52ab55700af388eabb896f243ee5aa737c20b9d881dd2004145","blockNumber":"0xcff378","data":"0x0000000000000000000000004faedbc28235fe926566c7b78d309d588e175f89000000000000000000000000000000000000000000000000003dc3f69da59826","logIndex":"0xc","removed":false,"topics":["0xde6857219544bb5b7746f48ed30be6386fefc61b2f864cacf559893bf50fd951","0x00000000000000000000000078c1b0c915c4faa5fffa6cabf0219da63d7f4cb8","0x0000000000000000000000004faedbc28235fe926566c7b78d309d588e175f89","0x0000000000000000000000000000000000000000000000000000000000000000"],"transactionHash":"0x8f6a880b3441b1f914dbbd3d47012424bf6c616126ac4b8b2d0833692e79cddf","transactionIndex":"0x0"}],"logsBloom":"0x00000000010408000080000000408000000000000000000000000000024001000000000000000008100000000000040000000000000000000000000000200000100000000000000000000008040000000000080000040001000400000000000000000000020000000000000000000800000000000008000410000010000100040010000088000000000000000000040000100000000000000000000000000000020000000000000000800000000000000000000000000100000000000000010000010012000a00000000002000020000000008000000000000010200000030000010000400000000000000000000000000000000000000040000000000000000","status":"0x1","transactionHash":"0x8f6a880b3441b1f914dbbd3d47012424bf6c616126ac4b8b2d0833692e79cddf"}}}