{"block":{"difficulty":"0x2","extraData":"0xd98301090a846765746889676f312e31352e3133856c696e757800000000000004afd5d6f118e3f599bfef202694e1db4d7ff573547a957f132612b606838aa60840d7a9214375bb7772c68ec33f6dbdacf0904a5747fc3ebb3a66bdabd71dda01","gasLimit":"0x1c9c380","gasUsed":"0x1df53","hash":"0x673aea9c852b4bad91d3f7aba8cbb2060dc9ecdb4da4f2cba5872eb9912dc2b7","logsBloom":"0x00000000000000000000000000000000000000000001008800000000000000000004000000000000000000000002000000000000000000000000000000200000140000000040000000000008020000000000008000042000000200000000000000000000000000000000000000000080000000000000000000000010000000000000000000000000000000000000000000100000000000000000000000000040020000002000000000000000000200000000000001000000000000000000000000000002000000000000000000000000000000000000000000000010000000000010000000000000000000000000000000000000040000000000000000000000","miner":"0x0000000000000000000000000000000000000000","mixHash":"0x0000000000000000000000000000000000000000000000000000000000000000","nonce":"0x0000000000000000","number":"0xd001de","parentHash":"0x9332d1f5eaf249e5ee6cbf885200204832d0eed454e5426189a03b9a24b6da2b","receiptsRoot":"0x0bcd7fe45a78475c3e5e460aa2698e0ad3d49d8db821b122a5963cf9856866cb","sha3Uncles":"0x1dcc4de8dec75d7aab85b567b6ccd41ad312451b948a7413f0a142fd40d49347","size":"0x3d8","stateRoot":"0x74c85729c8951a45c10cdac1e3c24bd6a8f4743a85d9160c79ccf89dd4f5ade3","timestamp":"0x65243db9","totalDifficulty":"0x1a003bd","transactions":[{"blockHash":"0x673aea9c852b4bad91d3f7aba8cbb2060dc9ecdb4da4f2cba5872eb9912dc2b7","blockNumber":"0xd001de","from":"0xcc10cdce279d8166b49d47ad2128c4eab2e079b6","gas":"0x1f6e4","gasPrice":"0x2faf080","hash":"0xfc6b70fc92037da42231a35fa8a9486c248a7a25bd12c41c8468971a1d23d059","index":"0xd001dd","input":"0x414bf389000000000000000000000000201eba5cc46d216ce6dc03f6a759e8e766e956ae00000000000000000000000078c1b0c915c4faa5fffa6cabf0219da63d7f4cb800000000000000000000000000000000000000000000000000000000000001f4000000000000000000000000cc10cdce279d8166b49d47ad2128c4eab2e079b60000000000000000000000000000000000000000000000000000000065243dd8000000000000000000000000000000000000000000000000000000000016201000000000000000000000000000000000000000000000000034b5e6a0cc847b820000000000000000000000000000000000000000000000000000000000000000","l1BlockNumber":"0x11774d8","l1Timestamp":"0x65243db9","l1TxOrigin":null,"nonce":"0x1103","queueIndex":null,"queueOrigin":"sequencer","r":"0x19a8f5db9ba3e154c3b77e2a88b5a1feb4fbededb786dbce6e7cfd7e7540e8e5","rawTransaction":"0xf9016e8211038402faf0808301f6e494319b69888b0d11cec22caa5034e25fffbdc8842180b90104414bf389000000000000000000000000201eba5cc46d216ce6dc03f6a759e8e766e956ae00000000000000000000000078c1b0c915c4faa5fffa6cabf0219da63d7f4cb800000000000000000000000000000000000000000000000000000000000001f4000000000000000000000000cc10cdce279d8166b49d47ad2128c4eab2e079b60000000000000000000000000000000000000000000000000000000065243dd8000000000000000000000000000000000000000000000000000000000016201000000000000000000000000000000000000000000000000034b5e6a0cc847b820000000000000000000000000000000000000000000000000000000000000000822734a019a8f5db9ba3e154c3b77e2a88b5a1feb4fbededb786dbce6e7cfd7e7540e8e5a01b6d85bc6f238c5e50855a31451718d10670bd9eb1c3000a0c016d76ceb22bb3","s":"0x1b6d85bc6f238c5e50855a31451718d10670bd9eb1c3000a0c016d76ceb22bb3","to":"0x319b69888b0d11cec22caa5034e25fffbdc88421","transactionIndex":"0x0","v":"0x2734","value":"0x0"}],"transactionsRoot":"0x511a0faa6ca12bd38bea638434ed9fa752d9a82a2f380f68255d18a4d8b4ee1d","uncles":[]},"receipts":{"0xfc6b70fc92037da42231a35fa8a9486c248a7a25bd12c41c8468971a1d23d059":{"blockHash":"0x673aea9c852b4bad91d3f7aba8cbb2060dc9ecdb4da4f2cba5872eb9912dc2b7","blockNumber":"0xd001de","from":"0xcc10cdce279d8166b49d47ad2128c4eab2e079b6","gas":"0x1f6e4","gasPrice":"0x2faf080","hash":"0xfc6b70fc92037da42231a35fa8a9486c248a7a25bd12c41c8468971a1d23d059","index":"0xd001dd","input":"0x414bf389000000000000000000000000201eba5cc46d216ce6dc03f6a759e8e766e956ae00000000000000000000000078c1b0c915c4faa5fffa6cabf0219da63d7f4cb800000000000000000000000000000000000000000000000000000000000001f4000000000000000000000000cc10cdce279d8166b49d47ad2128c4eab2e079b60000000000000000000000000000000000000000000000000000000065243dd8000000000000000000000000000000000000000000000000000000000016201000000000000000000000000000000000000000000000000034b5e6a0cc847b820000000000000000000000000000000000000000000000000000000000000000","l1BlockNumber":"0x11774d8","l1Timestamp":"0x65243db9","l1TxOrigin":null,"nonce":"0x1103","queueIndex":null,"queueOrigin":"sequencer","r":"0x19a8f5db9ba3e154c3b77e2a88b5a1feb4fbededb786dbce6e7cfd7e7540e8e5","rawTransaction":"0xf9016e8211038402faf0808301f6e494319b69888b0d11cec22caa5034e25fffbdc8842180b90104414bf389000000000000000000000000201eba5cc46d216ce6dc03f6a759e8e766e956ae00000000000000000000000078c1b0c915c4faa5fffa6cabf0219da63d7f4cb800000000000000000000000000000000000000000000000000000000000001f4000000000000000000000000cc10cdce279d8166b49d47ad2128c4eab2e079b60000000000000000000000000000000000000000000000000000000065243dd8000000000000000000000000000000000000000000000000000000000016201000000000000000000000000000000000000000000000000034b5e6a0cc847b820000000000000000000000000000000000000000000000000000000000000000822734a019a8f5db9ba3e154c3b77e2a88b5a1feb4fbededb786dbce6e7cfd7e7540e8e5a01b6d85bc6f238c5e50855a31451718d10670bd9eb1c3000a0c016d76ceb22bb3","s":"0x1b6d85bc6f238c5e50855a31451718d10670bd9eb1c3000a0c016d76ceb22bb3","to":"0x319b69888b0d11cec22caa5034e25fffbdc88421","transactionIndex":"0x0","v":"0x2734","value":"0x0","contractAddress":null,"cumulativeGasUsed":"0x1df53","daFee":"0x0","daGasPrice":"0x0","daGasUsed":"0x12c","gasUsed":"0x1df53","l1Fee":"0x19709d787180660","l1FeeScalar":"1","l1GasPrice":"0x38a987f04864","l1GasUsed":"0x72f","logs":[{"address":"0x78c1b0c915c4faa5fffa6cabf0219da63d7f4cb8","blockHash":"0x673aea9c852b4bad91d3f7aba8cbb2060dc9ecdb4da4f2cba5872eb9912dc2b7","blockNumber":"0xd001de","data":"0x00000000000000000000000000000000000000000000000035c949602981f632","logIndex":"0x0","removed":false,"topics":["0xddf252ad1be2c89b69c2b068fc378daa952ba7f163c4a11628f55a4df523b3ef","0x000000000000000000000000d08c50f7e69e9aeb2867deff4a8053d9a855e26a","0x000000000000000000000000cc10cdce279d8166b49d47ad2128c4eab2e079b6"],"transactionHash":"0xfc6b70fc92037da42231a35fa8a9486c248a7a25bd12c41c8468971a1d23d059","transactionIndex":"0x0"},{"address":"0x201eba5cc46d216ce6dc03f6a759e8e766e956ae","blockHash":"0x673aea9c852b4bad91d3f7aba8cbb2060dc9ecdb4da4f2cba5872eb9912dc2b7","blockNumber":"0xd001de","data":"0x0000000000000000000000000000000000000000000000000000000000162010","logIndex":"0x1","removed":false,"topics":["0xddf252ad1be2c89b69c2b068fc378daa952ba7f163c4a11628f55a4df523b3ef","0x000000000000000000000000cc10cdce279d8166b49d47ad2128c4eab2e079b6","0x000000000000000000000000d08c50f7e69e9aeb2867deff4a8053d9a855e26a"],"transactionHash":"0xfc6b70fc92037da42231a35fa8a9486c248a7a25bd12c41c8468971a1d23d059","transactionIndex":"0x0"},{"address":"0x201eba5cc46d216ce6dc03f6a759e8e766e956ae","blockHash":"0x673aea9c852b4bad91d3f7aba8cbb2060dc9ecdb4da4f2cba5872eb9912dc2b7","blockNumber":"0xd001de","data":"0xffffffffffffffffffffffffffffffffffffffffffffffffffffffff8bd0a71f","logIndex":"0x2","removed":false,"topics":["0x8c5be1e5ebec7d5bd14f71427d1e84f3dd0314c0f7b2291e5b200ac8c7c3b925","0x000000000000000000000000cc10cdce279d8166b49d47ad2128c4eab2e079b6","0x000000000000000000000000319b69888b0d11cec22caa5034e25fffbdc88421"],"transactionHash":"0xfc6b70fc92037da42231a35fa8a9486c248a7a25bd12c41c8468971a1d23d059","transactionIndex":"0x0"},{"address":"0xd08c50f7e69e9aeb2867deff4a8053d9a855e26a","blockHash":"0x673aea9c852b4bad91d3f7aba8cbb2060dc9ecdb4da4f2cba5872eb9912dc2b7","blockNumber":"0xd001de","data":"0x0000000000000000000000000000000000000000000000000000000000162010ffffffffffffffffffffffffffffffffffffffffffffffffca36b69fd67e09ce000000000000000000000000000000000018f3abf78a6c017a5a5d61ae386f1c000000000000000000000000000000000000000000000000006787d5d3ab8a8c0000000000000000000000000000000000000000000000000000000000045dd000000000000000000000000000000000000000000000000000000000000000f60000000000000000000000000000000000000000000000000000000000000000","logIndex":"0x3","removed":false,"topics":["0x19b47279256b2a23a1665c810c8d55a1758940ee09377d4f8d26497a3577dc83","0x000000000000000000000000319b69888b0d11cec22caa5034e25fffbdc88421","0x000000000000000000000000cc10cdce279d8166b49d47ad2128c4eab2e079b6"],"transactionHash":"0xfc6b70fc92037da42231a35fa8a9486c248a7a25bd12c41c8468971a1d23d059","transactionIndex":"0x0"}],"logsBloom":"0x00000000000000000000000000000000000000000001008800000000000000000004000000000000000000000002000000000000000000000000000000200000140000000040000000000008020000000000008000042000000200000000000000000000000000000000000000000080000000000000000000000010000000000000000000000000000000000000000000100000000000000000000000000040020000002000000000000000000200000000000001000000000000000000000000000002000000000000000000000000000000000000000000000010000000000010000000000000000000000000000000000000040000000000000000000000","status":"0x1","transactionHash":"0xfc6b70fc92037da42231a35fa8a9486c248a7a25bd12c41c8468971a1d23d059"}}}