{"block":{"difficulty":"0x2","extraData":"0xd98301090a846765746889676f312e31352e3133856c696e75780000000000004774682ac28ac7cebcb4fd8c3f8290f466a6178f2505f754573e5ab34ee7c7970030d2c1facbc5c8c48588b126c9a8a82b5b55450f0d86ed3edc0e0955d955d701","gasLimit":"0x1c9c380","gasUsed":"0x1e3c9","hash":"0x510491a782da9dc585dcaa4d35b6ea51f772ba3e124f25bb7550580d716e321a","logsBloom":"0x00000000000000000000000000000000000000000000000000000000000000000000000000000000000000000000000000000000000000000000000000000000000000000000000000000000000000000000000000000000000000000000000000000000000000000000000000000000000000000000000000000000000000000000000000000000000000000000000000000000000000000000000000000000000000000000000000000000000000000000000000000000000000000000000000000000000000000000000000000000000000000000000000000000000000000000000000000000000000000000000000000000000000000000000000000000","miner":"0x0000000000000000000000000000000000000000","mixHash":"0x0000000000000000000000000000000000000000000000000000000000000000","nonce":"0x0000000000000000","number":"0xd000b5","parentHash":"0xbbe27b31d15a5d6c19677585aac89e54acb2032279fe4de385b5b94adf459241","receiptsRoot":"0xc23c7b3032a5dd464d9107b8e5933162a9904871c5dc0fb5bc09b3f1c84b0e39","sha3Uncles":"0x1dcc4de8dec75d7aab85b567b6ccd41ad312451b948a7413f0a142fd40d49347","size":"0x3d8","stateRoot":"0x9da49571b83ff599ca4409ff7465bd9d8e6500beb1f9a78ae7e604ae6ab8759f","timestamp":"0x65243d20","totalDifficulty":"0x1a0016b","transactions":[{"blockHash":"0x510491a782da9dc585dcaa4d35b6ea51f772ba3e124f25bb7550580d716e321a","blockNumber":"0xd000b5","from":"0x3c17e4b9ae5151190c5860205772966280a77148","gas":"0x1e96e","gasPrice":"0x2faf080","hash":"0x9f1983daed191b426c5433f79f7d4f899cb3fd148956a29e89ee95a861914e56","index":"0xd000b4","input":"0x414bf389000000000000000000000000deaddeaddeaddeaddeaddeaddeaddeaddead1111000000000000000000000000201eba5cc46d216ce6dc03f6a759e8e766e956ae00000000000000000000000000000000000000000000000000000000000001f40000000000000000000000003c17e4b9ae5151190c5860205772966280a771480000000000000000000000000000000000000000000000000000000065243d3e000000000000000000000000000000000000000000000000000162b3f37660000000000000000000000000000000000000000000000000000000000000094b0c0000000000000000000000000000000000000000000000000000000000000000","l1BlockNumber":"0x11774cb","l1Timestamp":"0x65243d20","l1TxOrigin":null,"nonce":"0xd1c","queueIndex":null,"queueOrigin":"sequencer","r":"0xf988fa251fc13e57361878f9c07306d2c7c5b9ce57c1e6585b313fb53031db51","rawTransaction":"0xf9016e820d1c8402faf0808301e96e94319b69888b0d11cec22caa5034e25fffbdc8842180b90104414bf389000000000000000000000000deaddeaddeaddeaddeaddeaddeaddeaddead1111000000000000000000000000201eba5cc46d216ce6dc03f6a759e8e766e956ae00000000000000000000000000000000000000000000000000000000000001f40000000000000000000000003c17e4b9ae5151190c5860205772966280a771480000000000000000000000000000000000000000000000000000000065243d3e000000000000000000000000000000000000000000000000000162b3f37660000000000000000000000000000000000000000000000000000000000000094b0c0000000000000000000000000000000000000000000000000000000000000000822734a0f988fa251fc13e57361878f9c07306d2c7c5b9ce57c1e6585b313fb53031db51a04a9637df72de876a8038d3ce2f0d671c2728c9836a5f0c1fa95647ba0b9fc3d5","s":"0x4a9637df72de876a8038d3ce2f0d671c2728c9836a5f0c1fa95647ba0b9fc3d5","to":"0x319b69888b0d11cec22caa5034e25fffbdc88421","transactionIndex":"0x0","v":"0x2734","value":"0x0"}],"transactionsRoot":"0x6f55f32614e2f5124a820b3e97ccb680168b35ce27c30f39a7a2980f974e69d4","uncles":[]},"receipts":{"0x9f1983daed191b426c5433f79f7d4f899cb3fd148956a29e89ee95a861914e56":{"blockHash":"0x510491a782da9dc585dcaa4d35b6ea51f772ba3e124f25bb7550580d716e321a","blockNumber":"0xd000b5","from":"0x3c17e4b9ae5151190c5860205772966280a77148","gas":"0x1e96e","gasPrice":"0x2faf080","hash":"0x9f1983daed191b426c5433f79f7d4f899cb3fd148956a29e89ee95a861914e56","index":"0xd000b4","input":"0x414bf389000000000000000000000000deaddeaddeaddeaddeaddeaddeaddeaddead1111000000000000000000000000201eba5cc46d216ce6dc03f6a759e8e766e956ae00000000000000000000000000000000000000000000000000000000000001f40000000000000000000000003c17e4b9ae5151190c5860205772966280a771480000000000000000000000000000000000000000000000000000000065243d3e000000000000000000000000000000000000000000000000000162b3f37660000000000000000000000000000000000000000000000000000000000000094b0c0000000000000000000000000000000000000000000000000000000000000000","l1BlockNumber":"0x11774cb","l1Timestamp":"0x65243d20","l1TxOrigin":null,"nonce":"0xd1c","queueIndex":null,"queueOrigin":"sequencer","r":"0xf988fa251fc13e57361878f9c07306d2c7c5b9ce57c1e6585b313fb53031db51","rawTransaction":"0xf9016e820d1c8402faf0808301e96e94319b69888b0d11cec22caa5034e25fffbdc8842180b90104414bf389000000000000000000000000deaddeaddeaddeaddeaddeaddeaddeaddead1111000000000000000000000000201eba5cc46d216ce6dc03f6a759e8e766e956ae00000000000000000000000000000000000000000000000000000000000001f40000000000000000000000003c17e4b9ae5151190c5860205772966280a771480000000000000000000000000000000000000000000000000000000065243d3e000000000000000000000000000000000000000000000000000162b3f37660000000000000000000000000000000000000000000000000000000000000094b0c0000000000000000000000000000000000000000000000000000000000000000822734a0f988fa251fc13e57361878f9c07306d2c7c5b9ce57c1e6585b313fb53031db51a04a9637df72de876a8038d3ce2f0d671c2728c9836a5f0c1fa95647ba0b9fc3d5","s":"0x4a9637df72de876a8038d3ce2f0d671c2728c9836a5f0c1fa95647ba0b9fc3d5","to":"0x319b69888b0d11cec22caa5034e25fffbdc88421","transactionIndex":"0x0","v":"0x2734","value":"0x0","contractAddress":null,"cumulativeGasUsed":"0x1e3c9","daFee":"0x0","daGasPrice":"0x0","daGasUsed":"0x12c","gasUsed":"0x1e3c9","l1Fee":"0x1a09f6380cb9fe0","l1FeeScalar":"1","l1GasPrice":"0x39ff1464e55c","l1GasUsed":"0x72f","logs":[],"logsBloom":"0x00000000000000000000000000000000000000000000000000000000000000000000000000000000000000000000000000000000000000000000000000000000000000000000000000000000000000000000000000000000000000000000000000000000000000000000000000000000000000000000000000000000000000000000000000000000000000000000000000000000000000000000000000000000000000000000000000000000000000000000000000000000000000000000000000000000000000000000000000000000000000000000000000000000000000000000000000000000000000000000000000000000000000000000000000000000","status":"0x0","transactionHash":"0x9f1983daed191b426c5433f79f7d4f899cb3fd148956a29e89ee95a861914e56"}}}