{"block":{"difficulty":"0x2","extraData":"0xd98301090a846765746889676f312e31352e3133856c696e757800000000000075118a63020e39901adceb6837f1fd0bf420f291c2fd7a7d7c1b149368405fc35440492105156d5332a0475cc0612ea05ca43918a7386c9cfafd37603f8c5b1f00","gasLimit":"0x1c9c380","gasUsed":"0x258ae","hash":"0x1efcffd19ca789e9b8dc440d3f7825ed0a5fec3bee6ef5b6ded83e76c8663321","logsBloom":"0x40000000000000000000020000000000000000000001008800000000000000000000000000000000000000000002000000000000000000000000040000200000840000000040000000000008000000000000008000002004000000000000000000000001000000000000000100000000000000000000000000000010000000000000000000000000000000000000000000000000000000000008000000000000020000000000000000000000000000000000000001010020000100000000000000000002000000000000000000000000000000000000000000000000000000000010000000001000000000000000000000000000000000000000000000000000","miner":"0x0000000000000000000000000000000000000000","mixHash":"0x0000000000000000000000000000000000000000000000000000000000000000","nonce":"0x0000000000000000","number":"0xd002a4","parentHash":"0x33f63f7e2def874b2081b7a684717a51b8ac9a285a89956751f2e2e5a8d3ce36","receiptsRoot":"0x1e85e1878587809c9521c5a2e87e6a4fcc4302fa377db287750d742498a2ff62","sha3Uncles":"0x1dcc4de8dec75d7aab85b567b6ccd41ad312451b948a7413f0a142fd40d49347","size":"0x3d8","stateRoot":"0x26f644041360dada54007e6d9dc17bfc801f9d5d67da1c217be798e09bde2634","timestamp":"0x65243e25","totalDifficulty":"0x1a00549","transactions":[{"blockHash":"0x1efcffd19ca789e9b8dc440d3f7825ed0a5fec3bee6ef5b6ded83e76c8663321","blockNumber":"0xd002a4","from":"0x6d068a2e3f6707a58b369c97eb3d0065ab0ee82f","gas":"0x2722d","gasPrice":"0x2faf080","hash":"0x7fc820634a09132dad17647f77a893cde5190820de91e0d7853745b4ab2afc5c","index":"0xd002a3","input":"0x414bf389000000000000000000000000201eba5cc46d216ce6dc03f6a759e8e766e956ae000000000000000000000000deaddeaddeaddeaddeaddeaddeaddeaddead111100000000000000000000000000000000000000000000000000000000000001f40000000000000000000000006d068a2e3f6707a58b369c97eb3d0065ab0ee82f0000000000000000000000000000000000000000000000000000000065243e46000000000000000000000000000000000000000000000000000000000013d6200000000000000000000000000000000000000000000000000002dbe3f2d319c30000000000000000000000000000000000000000000000000000000000000000","l1BlockNumber":"0x11774e1","l1Timestamp":"0x65243e25","l1TxOrigin":null,"nonce":"0x83e","queueIndex":null,"queueOrigin":"sequencer","r":"0xafd5d522a6a769d793e3ebdb50af89ed77ca6e7ef302617b8035460cafb1147e","rawTransaction":"0xf9016e82083e8402faf0808302722d94319b69888b0d11cec22caa5034e25fffbdc8842180b90104414bf389000000000000000000000000201eba5cc46d216ce6dc03f6a759e8e766e956ae000000000000000000000000deaddeaddeaddeaddeaddeaddeaddeaddead111100000000000000000000000000000000000000000000000000000000000001f40000000000000000000000006d068a2e3f6707a58b369c97eb3d0065ab0ee82f0000000000000000000000000000000000000000000000000000000065243e46000000000000000000000000000000000000000000000000000000000013d6200000000000000000000000000000000000000000000000000002dbe3f2d319c30000000000000000000000000000000000000000000000000000000000000000822733a0afd5d522a6a769d793e3ebdb50af89ed77ca6e7ef302617b8035460cafb1147ea071b9fdb2e325a0d29fd28e56d657e403474cf33df7c4e76287d7c8b7a0d94341","s":"0x71b9fdb2e325a0d29fd28e56d657e403474cf33df7c4e76287d7c8b7a0d94341","to":"0x319b69888b0d11cec22caa5034e25fffbdc88421","transactionIndex":"0x0","v":"0x2733","value":"0x0"}],"transactionsRoot":"0x2c555cc06d2491c6e0016f2e84c850080bc3664568f633d0634aab92399ceaa7","uncles":[]},"receipts":{"0x7fc820634a09132dad17647f77a893cde5190820de91e0d7853745b4ab2afc5c":{"blockHash":"0x1efcffd19ca789e9b8dc440d3f7825ed0a5fec3bee6ef5b6ded83e76c8663321","blockNumber":"0xd002a4","from":"0x6d068a2e3f6707a58b369c97eb3d0065ab0ee82f","gas":"0x2722d","gasPrice":"0x2faf080","hash":"0x7fc820634a09132dad17647f77a893cde5190820de91e0d7853745b4ab2afc5c","index":"0xd002a3","input":"0x414bf389000000000000000000000000201eba5cc46d216ce6dc03f6a759e8e766e956ae000000000000000000000000deaddeaddeaddeaddeaddeaddeaddeaddead111100000000000000000000000000000000000000000000000000000000000001f40000000000000000000000006d068a2e3f6707a58b369c97eb3d0065ab0ee82f0000000000000000000000000000000000000000000000000000000065243e46000000000000000000000000000000000000000000000000000000000013d6200000000000000000000000000000000000000000000000000002dbe3f2d319c30000000000000000000000000000000000000000000000000000000000000000","l1BlockNumber":"0x11774e1","l1Timestamp":"0x65243e25","l1TxOrigin":null,"nonce":"0x83e","queueIndex":null,"queueOrigin":"sequencer","r":"0xafd5d522a6a769d793e3ebdb50af89ed77ca6e7ef302617b8035460cafb1147e","rawTransaction":"0xf9016e82083e8402faf0808302722d94319b69888b0d11cec22caa5034e25fffbdc8842180b90104414bf389000000000000000000000000201eba5cc46d216ce6dc03f6a759e8e766e956ae000000000000000000000000deaddeaddeaddeaddeaddeaddeaddeaddead111100000000000000000000000000000000000000000000000000000000000001f40000000000000000000000006d068a2e3f6707a58b369c97eb3d0065ab0ee82f0000000000000000000000000000000000000000000000000000000065243e46000000000000000000000000000000000000000000000000000000000013d6200000000000000000000000000000000000000000000000000002dbe3f2d319c30000000000000000000000000000000000000000000000000000000000000000822733a0afd5d522a6a769d793e3ebdb50af89ed77ca6e7ef302617b8035460cafb1147ea071b9fdb2e325a0d29fd28e56d657e403474cf33df7c4e76287d7c8b7a0d94341","s":"0x71b9fdb2e325a0d29fd28e56d657e403474cf33df7c4e76287d7c8b7a0d94341","to":"0x319b69888b0d11cec22caa5034e25fffbdc88421","transactionIndex":"0x0","v":"0x2733","value":"0x0","contractAddress":null,"cumulativeGasUsed":"0x258ae","daFee":"0x0","daGasPrice":"0x0","daGasUsed":"0x12c","gasUsed":"0x258ae","l1Fee":"0x19709d787180660","l1FeeScalar":"1","l1GasPrice":"0x38a987f04864","l1GasUsed":"0x72f","logs":[{"address":"0xdeaddeaddeaddeaddeaddeaddeaddeaddead1111","blockHash":"0x1efcffd19ca789e9b8dc440d3f7825ed0a5fec3bee6ef5b6ded83e76c8663321","blockNumber":"0xd002a4","data":"0x0000000000000000000000000000000000000000000000000002ead3b3dca220","logIndex":"0x0","removed":false,"topics":["0xddf252ad1be2c89b69c2b068fc378daa952ba7f163c4a11628f55a4df523b3ef","0x000000000000000000000000628f7131cf43e88ebe3921ae78c4ba0c31872bd4","0x0000000000000000000000006d068a2e3f6707a58b369c97eb3d0065ab0ee82f"],"transactionHash":"0x7fc820634a09132dad17647f77a893cde5190820de91e0d7853745b4ab2afc5c","transactionIndex":"0x0"},{"address":"0x201eba5cc46d216ce6dc03f6a759e8e766e956ae","blockHash":"0x1efcffd19ca789e9b8dc440d3f7825ed0a5fec3bee6ef5b6ded83e76c8663321","blockNumber":"0xd002a4","data":"0x000000000000000000000000000000000000000000000000000000000013d620","logIndex":"0x1","removed":false,"topics":["0xddf252ad1be2c89b69c2b068fc378daa952ba7f163c4a11628f55a4df523b3ef","0x0000000000000000000000006d068a2e3f6707a58b369c97eb3d0065ab0ee82f","0x000000000000000000000000628f7131cf43e88ebe3921ae78c4ba0c31872bd4"],"transactionHash":"0x7fc820634a09132dad17647f77a893cde5190820de91e0d7853745b4ab2afc5c","transactionIndex":"0x0"},{"address":"0x201eba5cc46d216ce6dc03f6a759e8e766e956ae","blockHash":"0x1efcffd19ca789e9b8dc440d3f7825ed0a5fec3bee6ef5b6ded83e76c8663321","blockNumber":"0xd002a4","data":"0xffffffffffffffffffffffffffffffffffffffffffffffffffffffffc97523cf","logIndex":"0x2","removed":false,"topics":["0x8c5be1e5ebec7d5bd14f71427d1e84f3dd0314c0f7b2291e5b200ac8c7c3b925","0x0000000000000000000000006d068a2e3f6707a58b369c97eb3d0065ab0ee82f","0x000000000000000000000000319b69888b0d11cec22caa5034e25fffbdc88421"],"transactionHash":"0x7fc820634a09132dad17647f77a893cde5190820de91e0d7853745b4ab2afc5c","transactionIndex":"0x0"},{"address":"0x628f7131cf43e88ebe3921ae78c4ba0c31872bd4","blockHash":"0x1efcffd19ca789e9b8dc440d3f7825ed0a5fec3bee6ef5b6ded83e76c8663321","blockNumber":"0xd002a4","data":"0x000000000000000000000000000000000000000000000000000000000013d620fffffffffffffffffffffffffffffffffffffffffffffffffffd152c4c235de0000000000000000000000000000000000000622a8a6c4779cfdd3d5d2ef9965100000000000000000000000000000000000000000000000000002c65dde06c20000000000000000000000000000000000000000000000000000000000003179600000000000000000000000000000000000000000000000000000000000000dd0000000000000000000000000000000000000000000000000000000000000000","logIndex":"0x3","removed":false,"topics":["0x19b47279256b2a23a1665c810c8d55a1758940ee09377d4f8d26497a3577dc83","0x000000000000000000000000319b69888b0d11cec22caa5034e25fffbdc88421","0x0000000000000000000000006d068a2e3f6707a58b369c97eb3d0065ab0ee82f"],"transactionHash":"0x7fc820634a09132dad17647f77a893cde5190820de91e0d7853745b4ab2afc5c","transactionIndex":"0x0"}],"logsBloom":"0x40000000000000000000020000000000000000000001008800000000000000000000000000000000000000000002000000000000000000000000040000200000840000000040000000000008000000000000008000002004000000000000000000000001000000000000000100000000000000000000000000000010000000000000000000000000000000000000000000000000000000000008000000000000020000000000000000000000000000000000000001010020000100000000000000000002000000000000000000000000000000000000000000000000000000000010000000001000000000000000000000000000000000000000000000000000","status":"0x1","transactionHash":"0x7fc820634a09132dad17647f77a893cde5190820de91e0d7853745b4ab2afc5c"}}}