{"block":{"difficulty":"0x2","extraData":"0xd98301090a846765746889676f312e31352e3133856c696e7578000000000000c5c335258124f870f6740ae534302a16a89900db13ff29e7dc67f21dea35fee35a9d1b5e1d4f411599417725eff0177ca5a7d54360053f13d76d5315e68d09c700","gasLimit":"0x1c9c380","gasUsed":"0x1e1e5","hash":"0x90f5e000ff1970a3dcbbc8a8270c52ef764ac7ab6a2c4cfe31e7875ae4e26619","logsBloom":"0x00000000000000000000000000000000000000000001008800000000000000000004000000000000000000000002000000000000000000000000000000200001140000000040000000000008000000000000008000042000000200000000000000000000800000000000000000000080000000000000000000000010000000000080000000000000000000000000000000100000000000000000000000000040020000000000000000000000000200000000000001000000000000000000000000000002000000000000000000000000000000000000000000000010000000000010000000000000000000000000000000000000000000000000000000000000","miner":"0x0000000000000000000000000000000000000000","mixHash":"0x0000000000000000000000000000000000000000000000000000000000000000","nonce":"0x0000000000000000","number":"0xd000aa","parentHash":"0xaa422c549200f70acf6d10f13172bc926c90f0cc4c13b99575176d772da1f74a","receiptsRoot":"0x13ac10a6a0aeab1f8108b42ac088b9ca814cf5e696df5eeee032148222d7ea6e","sha3Uncles":"0x1dcc4de8dec75d7aab85b567b6ccd41ad312451b948a7413f0a142fd40d49347","size":"0x3d8","stateRoot":"0x581dbd00e75d6ded32d64f7414d5d4549e91cf14bb8c6f5ba9228a7d92e7ab83","timestamp":"0x65243d1b","totalDifficulty":"0x1a00155","transactions":[{"blockHash":"0x90f5e000ff1970a3dcbbc8a8270c52ef764ac7ab6a2c4cfe31e7875ae4e26619","blockNumber":"0xd000aa","from":"0xfbd9ea2d70bff87369f2b371640a7960b3a13199","gas":"0x1f977","gasPrice":"0x2faf080","hash":"0xf3ac7a1b9dddc4f76d52245fbfc3cd852e0106ccd094ac86f9971f9f9ce3f4fe","index":"0xd000a9","input":"0x414bf38900000000000000000000000078c1b0c915c4faa5fffa6cabf0219da63d7f4cb8000000000000000000000000201eba5cc46d216ce6dc03f6a759e8e766e956ae00000000000000000000000000000000000000000000000000000000000001f4000000000000000000000000fbd9ea2d70bff87369f2b371640a7960b3a131990000000000000000000000000000000000000000000000000000000065243d3900000000000000000000000000000000000000000000000015a63bbc199c0000000000000000000000000000000000000000000000000000000000000008b7880000000000000000000000000000000000000000000000000000000000000000","l1BlockNumber":"0x11774cb","l1Timestamp":"0x65243d1b","l1TxOrigin":null,"nonce":"0x78c","queueIndex":null,"queueOrigin":"sequencer","r":"0x5ae9bcaf6f33decba2cfad0901334729729119377657ded7d9176797ae10add2","rawTransaction":"0xf9016e82078c8402faf0808301f97794319b69888b0d11cec22caa5034e25fffbdc8842180b90104414bf38900000000000000000000000078c1b0c915c4faa5fffa6cabf0219da63d7f4cb8000000000000000000000000201eba5cc46d216ce6dc03f6a759e8e766e956ae00000000000000000000000000000000000000000000000000000000000001f4000000000000000000000000fbd9ea2d70bff87369f2b371640a7960b3a131990000000000000000000000000000000000000000000000000000000065243d3900000000000000000000000000000000000000000000000015a63bbc199c0000000000000000000000000000000000000000000000000000000000000008b7880000000000000000000000000000000000000000000000000000000000000000822734a05ae9bcaf6f33decba2cfad0901334729729119377657ded7d9176797ae10add2a06dffd5134162302fb979f649647b5b91df229f743c1f4ccab89124be1ad4aa03","s":"0x6dffd5134162302fb979f649647b5b91df229f743c1f4ccab89124be1ad4aa03","to":"0x319b69888b0d11cec22caa5034e25fffbdc88421","transactionIndex":"0x0","v":"0x2734","value":"0x0"}],"transactionsRoot":"0x88eaa10d23922f33c3cd3b02efe90a45259afd50a7c0b90904c1534beb2c5d30","uncles":[]},"receipts":{"0xf3ac7a1b9dddc4f76d52245fbfc3cd852e0106ccd094ac86f9971f9f9ce3f4fe":{"blockHash":"0x90f5e000ff1970a3dcbbc8a8270c52ef764ac7ab6a2c4cfe31e7875ae4e26619","blockNumber":"0xd000aa","from":"0xfbd9ea2d70bff87369f2b371640a7960b3a13199","gas":"0x1f977","gasPrice":"0x2faf080","hash":"0xf3ac7a1b9dddc4f76d52245fbfc3cd852e0106ccd094ac86f9971f9f9ce3f4fe","index":"0xd000a9","input":"0x414bf38900000000000000000000000078c1b0c915c4faa5fffa6cabf0219da63d7f4cb8000000000000000000000000201eba5cc46d216ce6dc03f6a759e8e766e956ae00000000000000000000000000000000000000000000000000000000000001f4000000000000000000000000fbd9ea2d70bff87369f2b371640a7960b3a131990000000000000000000000000000000000000000000000000000000065243d3900000000000000000000000000000000000000000000000015a63bbc199c0000000000000000000000000000000000000000000000000000000000000008b7880000000000000000000000000000000000000000000000000000000000000000","l1BlockNumber":"0x11774cb","l1Timestamp":"0x65243d1b","l1TxOrigin":null,"nonce":"0x78c","queueIndex":null,"queueOrigin":"sequencer","r":"0x5ae9bcaf6f33decba2cfad0901334729729119377657ded7d9176797ae10add2","rawTransaction":"0xf9016e82078c8402faf0808301f97794319b69888b0d11cec22caa5034e25fffbdc8842180b90104414bf38900000000000000000000000078c1b0c915c4faa5fffa6cabf0219da63d7f4cb8000000000000000000000000201eba5cc46d216ce6dc03f6a759e8e766e956ae00000000000000000000000000000000000000000000000000000000000001f4000000000000000000000000fbd9ea2d70bff87369f2b371640a7960b3a131990000000000000000000000000000000000000000000000000000000065243d3900000000000000000000000000000000000000000000000015a63bbc199c0000000000000000000000000000000000000000000000000000000000000008b7880000000000000000000000000000000000000000000000000000000000000000822734a05ae9bcaf6f33decba2cfad0901334729729119377657ded7d9176797ae10add2a06dffd5134162302fb979f649647b5b91df229f743c1f4ccab89124be1ad4aa03","s":"0x6dffd5134162302fb979f649647b5b91df229f743c1f4ccab89124be1ad4aa03","to":"0x319b69888b0d11cec22caa5034e25fffbdc88421","transactionIndex":"0x0","v":"0x2734","value":"0x0","contractAddress":null,"cumulativeGasUsed":"0x1e1e5","daFee":"0x0","daGasPrice":"0x0","daGasUsed":"0x12c","gasUsed":"0x1e1e5","l1Fee":"0x1a09f6380cb9fe0","l1FeeScalar":"1","l1GasPrice":"0x39ff1464e55c","l1GasUsed":"0x72f","logs":[{"address":"0x201eba5cc46d216ce6dc03f6a759e8e766e956ae","blockHash":"0x90f5e000ff1970a3dcbbc8a8270c52ef764ac7ab6a2c4cfe31e7875ae4e26619","blockNumber":"0xd000aa","data":"0x000000000000000000000000000000000000000000000000000000000008e513","logIndex":"0x0","removed":false,"topics":["0xddf252ad1be2c89b69c2b068fc378daa952ba7f163c4a11628f55a4df523b3ef","0x000000000000000000000000d08c50f7e69e9aeb2867deff4a8053d9a855e26a","0x000000000000000000000000fbd9ea2d70bff87369f2b371640a7960b3a13199"],"transactionHash":"0xf3ac7a1b9dddc4f76d52245fbfc3cd852e0106ccd094ac86f9971f9f9ce3f4fe","transactionIndex":"0x0"},{"address":"0x78c1b0c915c4faa5fffa6cabf0219da63d7f4cb8","blockHash":"0x90f5e000ff1970a3dcbbc8a8270c52ef764ac7ab6a2c4cfe31e7875ae4e26619","blockNumber":"0xd000aa","data":"0x00000000000000000000000000000000000000000000000015a63bbc199c0000","logIndex":"0x1","removed":false,"topics":["0xddf252ad1be2c89b69c2b068fc378daa952ba7f163c4a11628f55a4df523b3ef","0x000000000000000000000000fbd9ea2d70bff87369f2b371640a7960b3a13199","0x000000000000000000000000d08c50f7e69e9aeb2867deff4a8053d9a855e26a"],"transactionHash":"0xf3ac7a1b9dddc4f76d52245fbfc3cd852e0106ccd094ac86f9971f9f9ce3f4fe","transactionIndex":"0x0"},{"address":"0x78c1b0c915c4faa5fffa6cabf0219da63d7f4cb8","blockHash":"0x90f5e000ff1970a3dcbbc8a8270c52ef764ac7ab6a2c4cfe31e7875ae4e26619","blockNumber":"0xd000aa","data":"0xffffffffffffffffffffffffffffffffffffffffffffffdfb35622ca26c1ffff","logIndex":"0x2","removed":false,"topics":["0x8c5be1e5ebec7d5bd14f71427d1e84f3dd0314c0f7b2291e5b200ac8c7c3b925","0x000000000000000000000000fbd9ea2d70bff87369f2b371640a7960b3a13199","0x000000000000000000000000319b69888b0d11cec22caa5034e25fffbdc88421"],"transactionHash":"0xf3ac7a1b9dddc4f76d52245fbfc3cd852e0106ccd094ac86f9971f9f9ce3f4fe","transactionIndex":"0x0"},{"address":"0xd08c50f7e69e9aeb2867deff4a8053d9a855e26a","blockHash":"0x90f5e000ff1970a3dcbbc8a8270c52ef764ac7ab6a2c4cfe31e7875ae4e26619","blockNumber":"0xd000aa","data":"0xfffffffffffffffffffffffffffffffffffffffffffffffffffffffffff71aed00000000000000000000000000000000000000000000000015a63bbc199c0000000000000000000000000000000000000018f4b234a7915809823681ba38b6b5000000000000000000000000000000000000000000000000006787d5d3ab8a8c0000000000000000000000000000000000000000000000000000000000045dd300000000000000000000000000000000000000000000000000000000000000000000000000000000000000000000000000000000000000000000f132afcb6000","logIndex":"0x3","removed":false,"topics":["0x19b47279256b2a23a1665c810c8d55a1758940ee09377d4f8d26497a3577dc83","0x000000000000000000000000319b69888b0d11cec22caa5034e25fffbdc88421","0x000000000000000000000000fbd9ea2d70bff87369f2b371640a7960b3a13199"],"transactionHash":"0xf3ac7a1b9dddc4f76d52245fbfc3cd852e0106ccd094ac86f9971f9f9ce3f4fe","transactionIndex":"0x0"}],"logsBloom":"0x00000000000000000000000000000000000000000001008800000000000000000004000000000000000000000002000000000000000000000000000000200001140000000040000000000008000000000000008000042000000200000000000000000000800000000000000000000080000000000000000000000010000000000080000000000000000000000000000000100000000000000000000000000040020000000000000000000000000200000000000001000000000000000000000000000002000000000000000000000000000000000000000000000010000000000010000000000000000000000000000000000000000000000000000000000000","status":"0x1","transactionHash":"0xf3ac7a1b9dddc4f76d52245fbfc3cd852e0106ccd094ac86f9971f9f9ce3f4fe"}}}