{"block":{"difficulty":"0x2","extraData":"0xd98301090a846765746889676f312e31352e3133856c696e75780000000000007e35091eb79878ea8fbd9290d9f102b1365e6010362e8c1dcab3c308014ae9c145c9a3e3dc967337f855deae5cfef732439ab55e166508fcccf12902ffe698c600","gasLimit":"0x1c9c380","gasUsed":"0x1de0d","hash":"0x3ae6c1d51e8b19c1f634eacf6a40096733edf027d4e0daeedaa7b318ad34ecd8","logsBloom":"0x40000000000000000000000000000000000000000001008800000000000000000004000000000000400000000002000000000000000000000000000000200000840000000040000000000008000000000000008000002004000000000000000000000001000000000000000100000000000000000000000000000010000000000000000000000000000000000000000000000000000000000008000000000000020000000000000000000000000000000000800001000020000100000000000000000002000000000000000000000000000000000000000000000000000000000010000000001000000000000000000000000000000000000000000000000000","miner":"0x0000000000000000000000000000000000000000","mixHash":"0x0000000000000000000000000000000000000000000000000000000000000000","nonce":"0x0000000000000000","number":"0xd00077","parentHash":"0xe27b23247c06ce1a1e0644370f79d9b364e63c29f1d41c09066231e56d451811","receiptsRoot":"0xce67e136aac436f6ffad42bccc5e3a9a39843b551f8262bb5827d0bc351b276a","sha3Uncles":"0x1dcc4de8dec75d7aab85b567b6ccd41ad312451b948a7413f0a142fd40d49347","size":"0x3d8","stateRoot":"0x6bdcab6bf153339aa6adfab55de788da575cc5c52589cabb0600d987449c64ff","timestamp":"0x65243d01","totalDifficulty":"0x1a000ef","transactions":[{"blockHash":"0x3ae6c1d51e8b19c1f634eacf6a40096733edf027d4e0daeedaa7b318ad34ecd8","blockNumber":"0xd00077","from":"0x3ee2fbd0e46c3f50e048599166f23a405da841b0","gas":"0x1f599","gasPrice":"0x2faf080","hash":"0xd44c89d5d2d5869e4db2c481b3c017817dca8d97e8d231f0b3efb2596a596e97","index":"0xd00076","input":"0x414bf389000000000000000000000000201eba5cc46d216ce6dc03f6a759e8e766e956ae000000000000000000000000deaddeaddeaddeaddeaddeaddeaddeaddead111100000000000000000000000000000000000000000000000000000000000001f40000000000000000000000003ee2fbd0e46c3f50e048599166f23a405da841b00000000000000000000000000000000000000000000000000000000065243d230000000000000000000000000000000000000000000000000000000000102ca000000000000000000000000000000000000000000000000000024fa2f1c883a20000000000000000000000000000000000000000000000000000000000000000","l1BlockNumber":"0x11774c9","l1Timestamp":"0x65243d01","l1TxOrigin":null,"nonce":"0x12c0","queueIndex":null,"queueOrigin":"sequencer","r":"0x615ff25068962766929ba5deacc13dedf6701c2d025881f6d8e2c412f854924f","rawTransaction":"0xf9016e8212c08402faf0808301f59994319b69888b0d11cec22caa5034e25fffbdc8842180b90104414bf389000000000000000000000000201eba5cc46d216ce6dc03f6a759e8e766e956ae000000000000000000000000deaddeaddeaddeaddeaddeaddeaddeaddead111100000000000000000000000000000000000000000000000000000000000001f40000000000000000000000003ee2fbd0e46c3f50e048599166f23a405da841b00000000000000000000000000000000000000000000000000000000065243d230000000000000000000000000000000000000000000000000000000000102ca000000000000000000000000000000000000000000000000000024fa2f1c883a20000000000000000000000000000000000000000000000000000000000000000822733a0615ff25068962766929ba5deacc13dedf6701c2d025881f6d8e2c412f854924fa05bee87c7962660a0fdbf9d246f7c68b32495d72a59fb58f72535ed56ba78bb96","s":"0x5bee87c7962660a0fdbf9d246f7c68b32495d72a59fb58f72535ed56ba78bb96","to":"0x319b69888b0d11cec22caa5034e25fffbdc88421","transactionIndex":"0x0","v":"0x2733","value":"0x0"}],"transactionsRoot":"0xd1f2d1a4497f19294e36102d24579d4bbb31cc3b5e2fabbad46774e9c24eb8e5","uncles":[]},"receipts":{"0xd44c89d5d2d5869e4db2c481b3c017817dca8d97e8d231f0b3efb2596a596e97":{"blockHash":"0x3ae6c1d51e8b19c1f634eacf6a40096733edf027d4e0daeedaa7b318ad34ecd8","blockNumber":"0xd00077","from":"0x3ee2fbd0e46c3f50e048599166f23a405da841b0","gas":"0x1f599","gasPrice":"0x2faf080","hash":"0xd44c89d5d2d5869e4db2c481b3c017817dca8d97e8d231f0b3efb2596a596e97","index":"0xd00076","input":"0x414bf389000000000000000000000000201eba5cc46d216ce6dc03f6a759e8e766e956ae000000000000000000000000deaddeaddeaddeaddeaddeaddeaddeaddead111100000000000000000000000000000000000000000000000000000000000001f40000000000000000000000003ee2fbd0e46c3f50e048599166f23a405da841b00000000000000000000000000000000000000000000000000000000065243d230000000000000000000000000000000000000000000000000000000000102ca000000000000000000000000000000000000000000000000000024fa2f1c883a20000000000000000000000000000000000000000000000000000000000000000","l1BlockNumber":"0x11774c9","l1Timestamp":"0x65243d01","l1TxOrigin":null,"nonce":"0x12c0","queueIndex":null,"queueOrigin":"sequencer","r":"0x615ff25068962766929ba5deacc13dedf6701c2d025881f6d8e2c412f854924f","rawTransaction":"0xf9016e8212c08402faf0808301f59994319b69888b0d11cec22caa5034e25fffbdc8842180b90104414bf389000000000000000000000000201eba5cc46d216ce6dc03f6a759e8e766e956ae000000000000000000000000deaddeaddeaddeaddeaddeaddeaddeaddead111100000000000000000000000000000000000000000000000000000000000001f40000000000000000000000003ee2fbd0e46c3f50e048599166f23a405da841b00000000000000000000000000000000000000000000000000000000065243d230000000000000000000000000000000000000000000000000000000000102ca000000000000000000000000000000000000000000000000000024fa2f1c883a20000000000000000000000000000000000000000000000000000000000000000822733a0615ff25068962766929ba5deacc13dedf6701c2d025881f6d8e2c412f854924fa05bee87c7962660a0fdbf9d246f7c68b32495d72a59fb58f72535ed56ba78bb96","s":"0x5bee87c7962660a0fdbf9d246f7c68b32495d72a59fb58f72535ed56ba78bb96","to":"0x319b69888b0d11cec22caa5034e25fffbdc88421","transactionIndex":"0x0","v":"0x2733","value":"0x0","contractAddress":null,"cumulativeGasUsed":"0x1de0d","daFee":"0x0","daGasPrice":"0x0","daGasUsed":"0x12c","gasUsed":"0x1de0d","l1Fee":"0x1a09f6380cb9fe0","l1FeeScalar":"1","l1GasPrice":"0x39ff1464e55c","l1GasUsed":"0x72f","logs":[{"address":"0xdeaddeaddeaddeaddeaddeaddeaddeaddead1111","blockHash":"0x3ae6c1d51e8b19c1f634eacf6a40096733edf027d4e0daeedaa7b318ad34ecd8","blockNumber":"0xd00077","data":"0x00000000000000000000000000000000000000000000000000025bb5f17e3d2e","logIndex":"0x0","removed":false,"topics":["0xddf252ad1be2c89b69c2b068fc378daa952ba7f163c4a11628f55a4df523b3ef","0x000000000000000000000000628f7131cf43e88ebe3921ae78c4ba0c31872bd4","0x0000000000000000000000003ee2fbd0e46c3f50e048599166f23a405da841b0"],"transactionHash":"0xd44c89d5d2d5869e4db2c481b3c017817dca8d97e8d231f0b3efb2596a596e97","transactionIndex":"0x0"},{"address":"0x201eba5cc46d216ce6dc03f6a759e8e766e956ae","blockHash":"0x3ae6c1d51e8b19c1f634eacf6a40096733edf027d4e0daeedaa7b318ad34ecd8","blockNumber":"0xd00077","data":"0x0000000000000000000000000000000000000000000000000000000000102ca0","logIndex":"0x1","removed":false,"topics":["0xddf252ad1be2c89b69c2b068fc378daa952ba7f163c4a11628f55a4df523b3ef","0x0000000000000000000000003ee2fbd0e46c3f50e048599166f23a405da841b0","0x000000000000000000000000628f7131cf43e88ebe3921ae78c4ba0c31872bd4"],"transactionHash":"0xd44c89d5d2d5869e4db2c481b3c017817dca8d97e8d231f0b3efb2596a596e97","transactionIndex":"0x0"},{"address":"0x201eba5cc46d216ce6dc03f6a759e8e766e956ae","blockHash":"0x3ae6c1d51e8b19c1f634eacf6a40096733edf027d4e0daeedaa7b318ad34ecd8","blockNumber":"0xd00077","data":"0xffffffffffffffffffffffffffffffffffffffffffffffffffffffff7fe2741f","logIndex":"0x2","removed":false,"topics":["0x8c5be1e5ebec7d5bd14f71427d1e84f3dd0314c0f7b2291e5b200ac8c7c3b925","0x0000000000000000000000003ee2fbd0e46c3f50e048599166f23a405da841b0","0x000000000000000000000000319b69888b0d11cec22caa5034e25fffbdc88421"],"transactionHash":"0xd44c89d5d2d5869e4db2c481b3c017817dca8d97e8d231f0b3efb2596a596e97","transactionIndex":"0x0"},{"address":"0x628f7131cf43e88ebe3921ae78c4ba0c31872bd4","blockHash":"0x3ae6c1d51e8b19c1f634eacf6a40096733edf027d4e0daeedaa7b318ad34ecd8","blockNumber":"0xd00077","data":"0x0000000000000000000000000000000000000000000000000000000000102ca0fffffffffffffffffffffffffffffffffffffffffffffffffffda44a0e81c2d200000000000000000000000000000000000061bfbb166f471641c36b3857ce4500000000000000000000000000000000000000000000000000002c65dde06c20000000000000000000000000000000000000000000000000000000000003174100000000000000000000000000000000000000000000000000000000000000b40000000000000000000000000000000000000000000000000000000000000000","logIndex":"0x3","removed":false,"topics":["0x19b47279256b2a23a1665c810c8d55a1758940ee09377d4f8d26497a3577dc83","0x000000000000000000000000319b69888b0d11cec22caa5034e25fffbdc88421","0x0000000000000000000000003ee2fbd0e46c3f50e048599166f23a405da841b0"],"transactionHash":"0xd44c89d5d2d5869e4db2c481b3c017817dca8d97e8d231f0b3efb2596a596e97","transactionIndex":"0x0"}],"logsBloom":"0x40000000000000000000000000000000000000000001008800000000000000000004000000000000400000000002000000000000000000000000000000200000840000000040000000000008000000000000008000002004000000000000000000000001000000000000000100000000000000000000000000000010000000000000000000000000000000000000000000000000000000000008000000000000020000000000000000000000000000000000800001000020000100000000000000000002000000000000000000000000000000000000000000000000000000000010000000001000000000000000000000000000000000000000000000000000","status":"0x1","transactionHash":"0xd44c89d5d2d5869e4db2c481b3c017817dca8d97e8d231f0b3efb2596a596e97"}}}