{"block":{"difficulty":"0x2","extraData":"0xd98301090a846765746889676f312e31352e3133856c696e75780000000000000e5801bf0e8979d67a0ea1aa7007738c1a35a34a3d8b586a8b5df8874de3cad035c5701077c5ab5ee7be720391dc48e78380b75cebd35675046c40095bbfca9500","gasLimit":"0x1c9c380","gasUsed":"0x204dd","hash":"0xe3d5e5840c0c5655b5278962f4ba95ebd024d377bb4d004230c470a5c5e30e30","logsBloom":"0x0000000000000000000000000000000000004000000100880000000000000000000040000000000000000000000200000000000000200000000000000000000004800000004400000000000800000000000000c000002000000000000000000000000000001000000000000000000000000000100000800000000010000000000000000000000000000000000000000000000000000000040000000000000000000000000000000000000000000000000000000001000000000000000000000000000002000000000000000000000000002000000000000000000000000000000000000000000000000000000000000000000000000010000000000000000000","miner":"0x0000000000000000000000000000000000000000","mixHash":"0x0000000000000000000000000000000000000000000000000000000000000000","nonce":"0x0000000000000000","number":"0xd001ef","parentHash":"0xf3601b146c85509166314265fd29a492ca0abcf8d4b2de71471df296ae2a7744","receiptsRoot":"0x299f234f27ef21e05abf29e558e147a0773817d067292454c90ee25b214a766b","sha3Uncles":"0x1dcc4de8dec75d7aab85b567b6ccd41ad312451b948a7413f0a142fd40d49347","size":"0x3d8","stateRoot":"0x0369d0d38c5974da878c8808ae2217387d554aa1e0e9ddd4e69a5f05517e427a","timestamp":"0x65243dbe","totalDifficulty":"0x1a003df","transactions":[{"blockHash":"0xe3d5e5840c0c5655b5278962f4ba95ebd024d377bb4d004230c470a5c5e30e30","blockNumber":"0xd001ef","from":"0xf18843ce8179bea0c63954ecd0fed28a91e1fc96","gas":"0x21d08","gasPrice":"0x2faf080","hash":"0x148c519eadc058d5386d968b538098d78aa234bff751eb2e6dd18291c6e9e99a","index":"0xd001ee","input":"0x414bf38900000000000000000000000009bc4e0d864854c6afb6eb9a9cdf58ac190d0df9000000000000000000000000201eba5cc46d216ce6dc03f6a759e8e766e956ae0000000000000000000000000000000000000000000000000000000000000064000000000000000000000000f18843ce8179bea0c63954ecd0fed28a91e1fc960000000000000000000000000000000000000000000000000000000065243ddf00000000000000000000000000000000000000000000000000000000000fb77000000000000000000000000000000000000000000000000000000000000f65430000000000000000000000000000000000000000000000000000000000000000","l1BlockNumber":"0x11774d8","l1Timestamp":"0x65243dbe","l1TxOrigin":null,"nonce":"0xe0f","queueIndex":null,"queueOrigin":"sequencer","r":"0xcfceb708dd4467ac51068bf1d7cba9bb720466a3a02d8d785b90dbd1f5b17c9e","rawTransaction":"0xf9016e820e0f8402faf08083021d0894319b69888b0d11cec22caa5034e25fffbdc8842180b90104414bf38900000000000000000000000009bc4e0d864854c6afb6eb9a9cdf58ac190d0df9000000000000000000000000201eba5cc46d216ce6dc03f6a759e8e766e956ae0000000000000000000000000000000000000000000000000000000000000064000000000000000000000000f18843ce8179bea0c63954ecd0fed28a91e1fc960000000000000000000000000000000000000000000000000000000065243ddf00000000000000000000000000000000000000000000000000000000000fb77000000000000000000000000000000000000000000000000000000000000f65430000000000000000000000000000000000000000000000000000000000000000822734a0cfceb708dd4467ac51068bf1d7cba9bb720466a3a02d8d785b90dbd1f5b17c9ea05c4468ae1a6fc2b1ba2441b81ebf5f46c7fd779d9b90e87607ec52dc0bf5debf","s":"0x5c4468ae1a6fc2b1ba2441b81ebf5f46c7fd779d9b90e87607ec52dc0bf5debf","to":"0x319b69888b0d11cec22caa5034e25fffbdc88421","transactionIndex":"0x0","v":"0x2734","value":"0x0"}],"transactionsRoot":"0x40688098b25a0f04e0d695a2324bf04586d0941565e5996e1b9106b6e8dd7d12","uncles":[]},"receipts":{"0x148c519eadc058d5386d968b538098d78aa234bff751eb2e6dd18291c6e9e99a":{"blockHash":"0xe3d5e5840c0c5655b5278962f4ba95ebd024d377bb4d004230c470a5c5e30e30","blockNumber":"0xd001ef","from":"0xf18843ce8179bea0c63954ecd0fed28a91e1fc96","gas":"0x21d08","gasPrice":"0x2faf080","hash":"0x148c519eadc058d5386d968b538098d78aa234bff751eb2e6dd18291c6e9e99a","index":"0xd001ee","input":"0x414bf38900000000000000000000000009bc4e0d864854c6afb6eb9a9cdf58ac190d0df9000000000000000000000000201eba5cc46d216ce6dc03f6a759e8e766e956ae0000000000000000000000000000000000000000000000000000000000000064000000000000000000000000f18843ce8179bea0c63954ecd0fed28a91e1fc960000000000000000000000000000000000000000000000000000000065243ddf00000000000000000000000000000000000000000000000000000000000fb77000000000000000000000000000000000000000000000000000000000000f65430000000000000000000000000000000000000000000000000000000000000000","l1BlockNumber":"0x11774d8","l1Timestamp":"0x65243dbe","l1TxOrigin":null,"nonce":"0xe0f","queueIndex":null,"queueOrigin":"sequencer","r":"0xcfceb708dd4467ac51068bf1d7cba9bb720466a3a02d8d785b90dbd1f5b17c9e","rawTransaction":"0xf9016e820e0f8402faf08083021d0894319b69888b0d11cec22caa5034e25fffbdc8842180b90104414bf38900000000000000000000000009bc4e0d864854c6afb6eb9a9cdf58ac190d0df9000000000000000000000000201eba5cc46d216ce6dc03f6a759e8e766e956ae0000000000000000000000000000000000000000000000000000000000000064000000000000000000000000f18843ce8179bea0c63954ecd0fed28a91e1fc960000000000000000000000000000000000000000000000000000000065243ddf00000000000000000000000000000000000000000000000000000000000fb77000000000000000000000000000000000000000000000000000000000000f65430000000000000000000000000000000000000000000000000000000000000000822734a0cfceb708dd4467ac51068bf1d7cba9bb720466a3a02d8d785b90dbd1f5b17c9ea05c4468ae1a6fc2b1ba2441b81ebf5f46c7fd779d9b90e87607ec52dc0bf5debf","s":"0x5c4468ae1a6fc2b1ba2441b81ebf5f46c7fd779d9b90e87607ec52dc0bf5debf","to":"0x319b69888b0d11cec22caa5034e25fffbdc88421","transactionIndex":"0x0","v":"0x2734","value":"0x0","contractAddress":null,"cumulativeGasUsed":"0x204dd","daFee":"0x0","daGasPrice":"0x0","daGasUsed":"0x12c","gasUsed":"0x204dd","l1Fee":"0x19709d787180660","l1FeeScalar":"1","l1GasPrice":"0x38a987f04864","l1GasUsed":"0x72f","logs":[{"address":"0x201eba5cc46d216ce6dc03f6a759e8e766e956ae","blockHash":"0xe3d5e5840c0c5655b5278962f4ba95ebd024d377bb4d004230c470a5c5e30e30","blockNumber":"0xd001ef","data":"0x00000000000000000000000000000000000000000000000000000000000fb5b3","logIndex":"0x0","removed":false,"topics":["0xddf252ad1be2c89b69c2b068fc378daa952ba7f163c4a11628f55a4df523b3ef","0x0000000000000000000000006488f911c6cd86c289aa319c5a826dcf8f1ca065","0x000000000000000000000000f18843ce8179bea0c63954ecd0fed28a91e1fc96"],"transactionHash":"0x148c519eadc058d5386d968b538098d78aa234bff751eb2e6dd18291c6e9e99a","transactionIndex":"0x0"},{"address":"0x09bc4e0d864854c6afb6eb9a9cdf58ac190d0df9","blockHash":"0xe3d5e5840c0c5655b5278962f4ba95ebd024d377bb4d004230c470a5c5e30e30","blockNumber":"0xd001ef","data":"0x00000000000000000000000000000000000000000000000000000000000fb770","logIndex":"0x1","removed":false,"topics":["0xddf252ad1be2c89b69c2b068fc378daa952ba7f163c4a11628f55a4df523b3ef","0x000000000000000000000000f18843ce8179bea0c63954ecd0fed28a91e1fc96","0x0000000000000000000000006488f911c6cd86c289aa319c5a826dcf8f1ca065"],"transactionHash":"0x148c519eadc058d5386d968b538098d78aa234bff751eb2e6dd18291c6e9e99a","transactionIndex":"0x0"},{"address":"0x6488f911c6cd86c289aa319c5a826dcf8f1ca065","blockHash":"0xe3d5e5840c0c5655b5278962f4ba95ebd024d377bb4d004230c470a5c5e30e30","blockNumber":"0xd001ef","data":"0x00000000000000000000000000000000000000000000000000000000000fb770fffffffffffffffffffffffffffffffffffffffffffffffffffffffffff04a4d0000000000000000000000000000000000000000fff521724da7b4a40cb6a96d0000000000000000000000000000000000000000000000000000aa91ae904e92fffffffffffffffffffffffffffffffffffffffffffffffffffffffffffffffc00000000000000000000000000000000000000000000000000000000000000210000000000000000000000000000000000000000000000000000000000000000","logIndex":"0x2","removed":false,"topics":["0x19b47279256b2a23a1665c810c8d55a1758940ee09377d4f8d26497a3577dc83","0x000000000000000000000000319b69888b0d11cec22caa5034e25fffbdc88421","0x000000000000000000000000f18843ce8179bea0c63954ecd0fed28a91e1fc96"],"transactionHash":"0x148c519eadc058d5386d968b538098d78aa234bff751eb2e6dd18291c6e9e99a","transactionIndex":"0x0"}],"logsBloom":"0x0000000000000000000000000000000000004000000100880000000000000000000040000000000000000000000200000000000000200000000000000000000004800000004400000000000800000000000000c000002000000000000000000000000000001000000000000000000000000000100000800000000010000000000000000000000000000000000000000000000000000000040000000000000000000000000000000000000000000000000000000001000000000000000000000000000002000000000000000000000000002000000000000000000000000000000000000000000000000000000000000000000000000010000000000000000000","status":"0x1","transactionHash":"0x148c519eadc058d5386d968b538098d78aa234bff751eb2e6dd18291c6e9e99a"}}}