{"block":{"difficulty":"0x2","extraData":"0xd98301090a846765746889676f312e31352e3133856c696e75780000000000005da7216f062057f18848a92c39437fc4841d6ba20560ebcbb5323166aff8374e3aa5a45b1981cf39a19cbcb58ffbb766194587387806c0bfb73e7a05b49195c000","gasLimit":"0x1c9c380","gasUsed":"0x1e48d","hash":"0x226f9f6d4fd26d1d3a17b51c47744a2ffac0c395e32596f33908f24abae90e62","logsBloom":"0x00000000000000000000000000000000000000000000000000000000000000000000000000000000000000000000000000000000000000000000000000000000000000000000000000000000000000000000000000000000000000000000000000000000000000000000000000000000000000000000000000000000000000000000000000000000000000000000000000000000000000000000000000000000000000000000000000000000000000000000000000000000000000000000000000000000000000000000000000000000000000000000000000000000000000000000000000000000000000000000000000000000000000000000000000000000","miner":"0x0000000000000000000000000000000000000000","mixHash":"0x0000000000000000000000000000000000000000000000000000000000000000","nonce":"0x0000000000000000","number":"0xcff395","parentHash":"0x77768b792c8dbc0a74a7eeb78433b80b1017ece3f3e01eb42396f0b649a0f1fb","receiptsRoot":"0x7db5123c51e89cecd0b6fc8586afea10f0d72314d575f686d16e91e20d5b346e","sha3Uncles":"0x1dcc4de8dec75d7aab85b567b6ccd41ad312451b948a7413f0a142fd40d49347","size":"0x3d8","stateRoot":"0x82087de80b0283e45850b412a962b9d5f96718e87627246e083b7e2d7cf8de7b","timestamp":"0x65243748","totalDifficulty":"0x19fe72b","transactions":[{"blockHash":"0x226f9f6d4fd26d1d3a17b51c47744a2ffac0c395e32596f33908f24abae90e62","blockNumber":"0xcff395","from":"0x4f8545ee43f2c277144fd29f8bead83a9115f6cc","gas":"0x1ea36","gasPrice":"0x2faf080","hash":"0xad7a7556f36f90920b2fdd0d8cbdc44c9b2e171ba6cd1a4d7cebeb8f42c40c91","index":"0xcff394","input":"0x414bf389000000000000000000000000201eba5cc46d216ce6dc03f6a759e8e766e956ae000000000000000000000000deaddeaddeaddeaddeaddeaddeaddeaddead111100000000000000000000000000000000000000000000000000000000000001f40000000000000000000000004f8545ee43f2c277144fd29f8bead83a9115f6cc0000000000000000000000000000000000000000000000000000000065243765000000000000000000000000000000000000000000000000000000000017589000000000000000000000000000000000000000000000000000035e14513530400000000000000000000000000000000000000000000000000000000000000000","l1BlockNumber":"0x117744e","l1Timestamp":"0x65243748","l1TxOrigin":null,"nonce":"0x1159","queueIndex":null,"queueOrigin":"sequencer","r":"0x7885a8e877c30383ee02ad333332fed3e6ba6d880abe76439f707cd65653c30c","rawTransaction":"0xf9016e8211598402faf0808301ea3694319b69888b0d11cec22caa5034e25fffbdc8842180b90104414bf389000000000000000000000000201eba5cc46d216ce6dc03f6a759e8e766e956ae000000000000000000000000deaddeaddeaddeaddeaddeaddeaddeaddead111100000000000000000000000000000000000000000000000000000000000001f40000000000000000000000004f8545ee43f2c277144fd29f8bead83a9115f6cc0000000000000000000000000000000000000000000000000000000065243765000000000000000000000000000000000000000000000000000000000017589000000000000000000000000000000000000000000000000000035e14513530400000000000000000000000000000000000000000000000000000000000000000822734a07885a8e877c30383ee02ad333332fed3e6ba6d880abe76439f707cd65653c30ca019ddbb525769449986db5af4c8234278b6fd91ef5d4c03b2f11eccfc9088d355","s":"0x19ddbb525769449986db5af4c8234278b6fd91ef5d4c03b2f11eccfc9088d355","to":"0x319b69888b0d11cec22caa5034e25fffbdc88421","transactionIndex":"0x0","v":"0x2734","value":"0x0"}],"transactionsRoot":"0x43e9f74882479923db23cb7c79a313e95bd89aff470499082130bc997f3ffe1d","uncles":[]},"receipts":{"0xad7a7556f36f90920b2fdd0d8cbdc44c9b2e171ba6cd1a4d7cebeb8f42c40c91":{"blockHash":"0x226f9f6d4fd26d1d3a17b51c47744a2ffac0c395e32596f33908f24abae90e62","blockNumber":"0xcff395","from":"0x4f8545ee43f2c277144fd29f8bead83a9115f6cc","gas":"0x1ea36","gasPrice":"0x2faf080","hash":"0xad7a7556f36f90920b2fdd0d8cbdc44c9b2e171ba6cd1a4d7cebeb8f42c40c91","index":"0xcff394","input":"0x414bf389000000000000000000000000201eba5cc46d216ce6dc03f6a759e8e766e956ae000000000000000000000000deaddeaddeaddeaddeaddeaddeaddeaddead111100000000000000000000000000000000000000000000000000000000000001f40000000000000000000000004f8545ee43f2c277144fd29f8bead83a9115f6cc0000000000000000000000000000000000000000000000000000000065243765000000000000000000000000000000000000000000000000000000000017589000000000000000000000000000000000000000000000000000035e14513530400000000000000000000000000000000000000000000000000000000000000000","l1BlockNumber":"0x117744e","l1Timestamp":"0x65243748","l1TxOrigin":null,"nonce":"0x1159","queueIndex":null,"queueOrigin":"sequencer","r":"0x7885a8e877c30383ee02ad333332fed3e6ba6d880abe76439f707cd65653c30c","rawTransaction":"0xf9016e8211598402faf0808301ea3694319b69888b0d11cec22caa5034e25fffbdc8842180b90104414bf389000000000000000000000000201eba5cc46d216ce6dc03f6a759e8e766e956ae000000000000000000000000deaddeaddeaddeaddeaddeaddeaddeaddead111100000000000000000000000000000000000000000000000000000000000001f40000000000000000000000004f8545ee43f2c277144fd29f8bead83a9115f6cc0000000000000000000000000000000000000000000000000000000065243765000000000000000000000000000000000000000000000000000000000017589000000000000000000000000000000000000000000000000000035e14513530400000000000000000000000000000000000000000000000000000000000000000822734a07885a8e877c30383ee02ad333332fed3e6ba6d880abe76439f707cd65653c30ca019ddbb525769449986db5af4c8234278b6fd91ef5d4c03b2f11eccfc9088d355","s":"0x19ddbb525769449986db5af4c8234278b6fd91ef5d4c03b2f11eccfc9088d355","to":"0x319b69888b0d11cec22caa5034e25fffbdc88421","transactionIndex":"0x0","v":"0x2734","value":"0x0","contractAddress":null,"cumulativeGasUsed":"0x1e48d","daFee":"0x0","daGasPrice":"0x0","daGasUsed":"0x12c","gasUsed":"0x1e48d","l1Fee":"0x1c5145ff7a866d0","l1FeeScalar":"1","l1GasPrice":"0x3f1249c65230","l1GasUsed":"0x72f","logs":[],"logsBloom":"0x00000000000000000000000000000000000000000000000000000000000000000000000000000000000000000000000000000000000000000000000000000000000000000000000000000000000000000000000000000000000000000000000000000000000000000000000000000000000000000000000000000000000000000000000000000000000000000000000000000000000000000000000000000000000000000000000000000000000000000000000000000000000000000000000000000000000000000000000000000000000000000000000000000000000000000000000000000000000000000000000000000000000000000000000000000000","status":"0x0","transactionHash":"0xad7a7556f36f90920b2fdd0d8cbdc44c9b2e171ba6cd1a4d7cebeb8f42c40c91"}}}