{"block":{"difficulty":"0x2","extraData":"0xd98301090a846765746889676f312e31352e3133856c696e7578000000000000dbe6461fb70e27e0c04c169ecd2832294d3845efdcb9a15b9009f0bbde21aa117427520eefcd7a1bfda5b7ffcbebf0b0f88d030add0bd23e70ae8b0c961f152a00","gasLimit":"0x1c9c380","gasUsed":"0x2d08d","hash":"0x578c778886f8feab07fd44aba45fecf7151034fd471f02b64ae4c876c910e518","logsBloom":"0x00000000000000000100000000000000000000001000000004000008000000000000000000000000000000000000000000000000000000000000000000042000000000000000000000000000000000000010000000042000040000000000000020000000028000000000000000000800000000000000000001000000000000000080000000000000000000000000000000000000000000000000000400000100000000000000000000000000000000000000000000400000000000000000000000000000000000000000000000000000000000000008000000000000000060000000000000000000000000000000000000000000000000000000080000020000","miner":"0x0000000000000000000000000000000000000000","mixHash":"0x0000000000000000000000000000000000000000000000000000000000000000","nonce":"0x0000000000000000","number":"0xd00316","parentHash":"0x65e28c33fb9e0c82fb93332ee8d5f64a16fb0da12fc5ef3296948f71f059ab5f","receiptsRoot":"0x5d52f55e521f13d07479130d45f8e3a0897d3d40146ec180f0066b5fe5dad74a","sha3Uncles":"0x1dcc4de8dec75d7aab85b567b6ccd41ad312451b948a7413f0a142fd40d49347","size":"0x49e","stateRoot":"0x2eb30d58743964b0625f278c87003b049a0878715dfa99c79439e1ad755f9a3f","timestamp":"0x65243e61","totalDifficulty":"0x1a0062d","transactions":[{"blockHash":"0x578c778886f8feab07fd44aba45fecf7151034fd471f02b64ae4c876c910e518","blockNumber":"0xd00316","from":"0xc73c20a1e5c084607957a7e0674c1e8896b89a6d","gas":"0x2e160","gasPrice":"0x2faf080","hash":"0x17ea892e5ad5b03e8ef63c1d6a7e031139fea1164f6f51287e9afb569c9c45bb","index":"0xd00315","input":"0x986d8002000000000000000000000000c73c20a1e5c084607957a7e0674c1e8896b89a6d0000000000000000000000000000000000000000000000000000000000000001000000000000000000000000000000000000000000000000000000000000000000000000000000000000000000000000000000000000000000000000000000c000000000000000000000000000000000000000000000000000000000000000e000000000000000000000000000000000000000000000000000000000000001400000000000000000000000000000000000000000000000000000000000000000000000000000000000000000000000000000000000000000000000000000002437336363653063382d383761622d346134392d383532322d363833626266303263343561000000000000000000000000000000000000000000000000000000000000000000000000000000000000000000000000000000000000000000000041d04b4bedbcf6a37d6d12f2b11d0f3b31dbb79f25051d91ab4c822510e935f7e1673331a4ab12781a8206850a20826d87c2c5d503ade21a7151ac045dc2d4e5471b00000000000000000000000000000000000000000000000000000000000000","l1BlockNumber":"0x11774e6","l1Timestamp":"0x65243e61","l1TxOrigin":null,"nonce":"0x0","queueIndex":null,"queueOrigin":"sequencer","r":"0xf0beae1b76d2245d782b493faeedb048a27be63b4d5e8b4b6156b085dd0e8a20","rawTransaction":"0xf90234808402faf0808302e160947c78b18f496d3d37c44de09da4a5a76eb34b7e748802c68af0bb140000b901c4986d8002000000000000000000000000c73c20a1e5c084607957a7e0674c1e8896b89a6d0000000000000000000000000000000000000000000000000000000000000001000000000000000000000000000000000000000000000000000000000000000000000000000000000000000000000000000000000000000000000000000000c000000000000000000000000000000000000000000000000000000000000000e000000000000000000000000000000000000000000000000000000000000001400000000000000000000000000000000000000000000000000000000000000000000000000000000000000000000000000000000000000000000000000000002437336363653063382d383761622d346134392d383532322d363833626266303263343561000000000000000000000000000000000000000000000000000000000000000000000000000000000000000000000000000000000000000000000041d04b4bedbcf6a37d6d12f2b11d0f3b31dbb79f25051d91ab4c822510e935f7e1673331a4ab12781a8206850a20826d87c2c5d503ade21a7151ac045dc2d4e5471b00000000000000000000000000000000000000000000000000000000000000822733a0f0beae1b76d2245d782b493faeedb048a27be63b4d5e8b4b6156b085dd0e8a20a0469dfdbbffd3156d4fb5aca345f1f9d00b8dcd25269b1847572e45e65f5f9102","s":"0x469dfdbbffd3156d4fb5aca345f1f9d00b8dcd25269b1847572e45e65f5f9102","to":"0x7c78b18f496d3d37c44de09da4a5a76eb34b7e74","transactionIndex":"0x0","v":"0x2733","value":"0x2c68af0bb140000"}],"transactionsRoot":"0x0a5e35843615883dcce696fc49f5317f0eda419f78bcea9ee75bd55927e8770b","uncles":[]},"receipts":{"0x17ea892e5ad5b03e8ef63c1d6a7e031139fea1164f6f51287e9afb569c9c45bb":{"blockHash":"0x578c778886f8feab07fd44aba45fecf7151034fd471f02b64ae4c876c910e518","blockNumber":"0xd00316","from":"0xc73c20a1e5c084607957a7e0674c1e8896b89a6d","gas":"0x2e160","gasPrice":"0x2faf080","hash":"0x17ea892e5ad5b03e8ef63c1d6a7e031139fea1164f6f51287e9afb569c9c45bb","index":"0xd00315","input":"0x986d8002000000000000000000000000c73c20a1e5c084607957a7e0674c1e8896b89a6d0000000000000000000000000000000000000000000000000000000000000001000000000000000000000000000000000000000000000000000000000000000000000000000000000000000000000000000000000000000000000000000000c000000000000000000000000000000000000000000000000000000000000000e000000000000000000000000000000000000000000000000000000000000001400000000000000000000000000000000000000000000000000000000000000000000000000000000000000000000000000000000000000000000000000000002437336363653063382d383761622d346134392d383532322d363833626266303263343561000000000000000000000000000000000000000000000000000000000000000000000000000000000000000000000000000000000000000000000041d04b4bedbcf6a37d6d12f2b11d0f3b31dbb79f25051d91ab4c822510e935f7e1673331a4ab12781a8206850a20826d87c2c5d503ade21a7151ac045dc2d4e5471b00000000000000000000000000000000000000000000000000000000000000","l1BlockNumber":"0x11774e6","l1Timestamp":"0x65243e61","l1TxOrigin":null,"nonce":"0x0","queueIndex":null,"queueOrigin":"sequencer","r":"0xf0beae1b76d2245d782b493faeedb048a27be63b4d5e8b4b6156b085dd0e8a20","rawTransaction":"0xf90234808402faf0808302e160947c78b18f496d3d37c44de09da4a5a76eb34b7e748802c68af0bb140000b901c4986d8002000000000000000000000000c73c20a1e5c084607957a7e0674c1e8896b89a6d0000000000000000000000000000000000000000000000000000000000000001000000000000000000000000000000000000000000000000000000000000000000000000000000000000000000000000000000000000000000000000000000c000000000000000000000000000000000000000000000000000000000000000e000000000000000000000000000000000000000000000000000000000000001400000000000000000000000000000000000000000000000000000000000000000000000000000000000000000000000000000000000000000000000000000002437336363653063382d383761622d346134392d383532322d363833626266303263343561000000000000000000000000000000000000000000000000000000000000000000000000000000000000000000000000000000000000000000000041d04b4bedbcf6a37d6d12f2b11d0f3b31dbb79f25051d91ab4c822510e935f7e1673331a4ab12781a8206850a20826d87c2c5d503ade21a7151ac045dc2d4e5471b00000000000000000000000000000000000000000000000000000000000000822733a0f0beae1b76d2245d782b493faeedb048a27be63b4d5e8b4b6156b085dd0e8a20a0469dfdbbffd3156d4fb5aca345f1f9d00b8dcd25269b1847572e45e65f5f9102","s":"0x469dfdbbffd3156d4fb5aca345f1f9d00b8dcd25269b1847572e45e65f5f9102","to":"0x7c78b18f496d3d37c44de09da4a5a76eb34b7e74","transactionIndex":"0x0","v":"0x2733","value":"0x2c68af0bb140000","contractAddress":null,"cumulativeGasUsed":"0x2d08d","daFee":"0x0","daGasPrice":"0x0","daGasUsed":"0x1f2","gasUsed":"0x2d08d","l1Fee":"0x19709d787180660","l1FeeScalar":"1","l1GasPrice":"0x38a987f04864","l1GasUsed":"0x72f","logs":[{"address":"0x47cadd4d96bb9576801daea369e6e2e56fee0d19","blockHash":"0x578c778886f8feab07fd44aba45fecf7151034fd471f02b64ae4c876c910e518","blockNumber":"0xd00316","data":"0x00000000000000000000000000000000000000000000000000000000000000010000000000000000000000000000000000000000000000000000000000000001","logIndex":"0x0","removed":false,"topics":["0xc3d58168c5ae7397731d063d5bbf3d657854427343f4c083240f7aacaa2d0f62","0x0000000000000000000000007c78b18f496d3d37c44de09da4a5a76eb34b7e74","0x0000000000000000000000000000000000000000000000000000000000000000","0x000000000000000000000000c73c20a1e5c084607957a7e0674c1e8896b89a6d"],"transactionHash":"0x17ea892e5ad5b03e8ef63c1d6a7e031139fea1164f6f51287e9afb569c9c45bb","transactionIndex":"0x0"},{"address":"0x47cadd4d96bb9576801daea369e6e2e56fee0d19","blockHash":"0x578c778886f8feab07fd44aba45fecf7151034fd471f02b64ae4c876c910e518","blockNumber":"0xd00316","data":"0x","logIndex":"0x1","removed":false,"topics":["0xe9274a84b19e9428826de6bae8c48329354f8f0e73f771b97cae2d9dccd45a27","0x000000000000000000000000c73c20a1e5c084607957a7e0674c1e8896b89a6d","0x0000000000000000000000000000000000000000000000000000000000000001"],"transactionHash":"0x17ea892e5ad5b03e8ef63c1d6a7e031139fea1164f6f51287e9afb569c9c45bb","transactionIndex":"0x0"},{"address":"0x47cadd4d96bb9576801daea369e6e2e56fee0d19","blockHash":"0x578c778886f8feab07fd44aba45fecf7151034fd471f02b64ae4c876c910e518","blockNumber":"0xd00316","data":"0x000000000000000000000000000000000000000000000000000000000000002000000000000000000000000000000000000000000000000000000000000000c000000000000000000000000000000000000000000000000000000000000000e00000000000000000000000007c78b18f496d3d37c44de09da4a5a76eb34b7e740000000000000000000000000000000000000000000000000000000065243e61000000000000000000000000000000000000000000000000000000000000000000000000000000000000000000000000000000000000000000000000000000000000000000000000000000000000000000000000000000000000000000000000000000000000000000000000000000000000000000000000000000000000002437336363653063382d383761622d346134392d383532322d36383362626630326334356100000000000000000000000000000000000000000000000000000000","logIndex":"0x2","removed":false,"topics":["0x11476367c7a4c3dca965f71aed27a373321f502ce956baa94266644456f735c8","0x000000000000000000000000c73c20a1e5c084607957a7e0674c1e8896b89a6d","0x0000000000000000000000000000000000000000000000000000000000000001"],"transactionHash":"0x17ea892e5ad5b03e8ef63c1d6a7e031139fea1164f6f51287e9afb569c9c45bb","transactionIndex":"0x0"}],"logsBloom":"0x00000000000000000100000000000000000000001000000004000008000000000000000000000000000000000000000000000000000000000000000000042000000000000000000000000000000000000010000000042000040000000000000020000000028000000000000000000800000000000000000001000000000000000080000000000000000000000000000000000000000000000000000400000100000000000000000000000000000000000000000000400000000000000000000000000000000000000000000000000000000000000008000000000000000060000000000000000000000000000000000000000000000000000000080000020000","status":"0x1","transactionHash":"0x17ea892e5ad5b03e8ef63c1d6a7e031139fea1164f6f51287e9afb569c9c45bb"}}}