{"block":{"difficulty":"0x2","extraData":"0xd98301090a846765746889676f312e31352e3133856c696e7578000000000000dfd96a1d0254bb1b84a8a81f8823cc279b8baae242c22e7bdf164106ea4fcb886c569a73ebe8f756987083668cdb9615b87fdd060350364d9b6289aa462216e601","gasLimit":"0x1c9c380","gasUsed":"0x1d205","hash":"0xf45922288a3401946e67ed3798470df64959d7c874ea4587420036391d65ad4d","logsBloom":"0x40000000000000000000000000000000000000000001008800000000000000000000000000000000000000000002000000000000000000000000000000200000840000000040000000000008000000000000808000002004000000000000000000000001000000000000000100000000000000000000000000000010000000000000000000000000000000000000100000000000000000000008000000000000020000000000000000000000000000000000000001000020000100000000000000000002000000000000000000000000000000000000000000000000000000000010000000009000000000000000000000000000000000000000000000000000","miner":"0x0000000000000000000000000000000000000000","mixHash":"0x0000000000000000000000000000000000000000000000000000000000000000","nonce":"0x0000000000000000","number":"0xd00349","parentHash":"0x01ed3bdf9c8e0b187907c31f07fe120e4bbcb554a79d16ec55406bcf97798b55","receiptsRoot":"0xd7ee2ef9357e86ad42462376544fd8dda8196b33e5b461fbe5f87570d9bbc579","sha3Uncles":"0x1dcc4de8dec75d7aab85b567b6ccd41ad312451b948a7413f0a142fd40d49347","size":"0x3d8","stateRoot":"0xcfbae2f5b1dff8c19b62b0aa36d4bee22151e2e5f0339674964f2a72747a6eb0","timestamp":"0x65243e70","totalDifficulty":"0x1a00693","transactions":[{"blockHash":"0xf45922288a3401946e67ed3798470df64959d7c874ea4587420036391d65ad4d","blockNumber":"0xd00349","from":"0xb0e4e3a2ff0e3efe8e5e2d1ff6ed3f81dc52bd47","gas":"0x1e956","gasPrice":"0x2faf080","hash":"0x9907a800b5f9010d9ae3b00988f7094f062cb98b5093b0ee0aba33091b25bc78","index":"0xd00348","input":"0x414bf389000000000000000000000000deaddeaddeaddeaddeaddeaddeaddeaddead1111000000000000000000000000201eba5cc46d216ce6dc03f6a759e8e766e956ae00000000000000000000000000000000000000000000000000000000000001f4000000000000000000000000b0e4e3a2ff0e3efe8e5e2d1ff6ed3f81dc52bd470000000000000000000000000000000000000000000000000000000065243e9000000000000000000000000000000000000000000000000000017970b794f000000000000000000000000000000000000000000000000000000000000009dce60000000000000000000000000000000000000000000000000000000000000000","l1BlockNumber":"0x11774e7","l1Timestamp":"0x65243e70","l1TxOrigin":null,"nonce":"0x10f7","queueIndex":null,"queueOrigin":"sequencer","r":"0xfb36005509ddbfa8c42ed36d2ed629698796a4bb26b434f646c93efcc0883bcd","rawTransaction":"0xf9016e8210f78402faf0808301e95694319b69888b0d11cec22caa5034e25fffbdc8842180b90104414bf389000000000000000000000000deaddeaddeaddeaddeaddeaddeaddeaddead1111000000000000000000000000201eba5cc46d216ce6dc03f6a759e8e766e956ae00000000000000000000000000000000000000000000000000000000000001f4000000000000000000000000b0e4e3a2ff0e3efe8e5e2d1ff6ed3f81dc52bd470000000000000000000000000000000000000000000000000000000065243e9000000000000000000000000000000000000000000000000000017970b794f000000000000000000000000000000000000000000000000000000000000009dce60000000000000000000000000000000000000000000000000000000000000000822733a0fb36005509ddbfa8c42ed36d2ed629698796a4bb26b434f646c93efcc0883bcda002c180495efb0dae23f2496f3b0797e38cc6f2e06d02962a0dd0d8ee716f2918","s":"0x2c180495efb0dae23f2496f3b0797e38cc6f2e06d02962a0dd0d8ee716f2918","to":"0x319b69888b0d11cec22caa5034e25fffbdc88421","transactionIndex":"0x0","v":"0x2733","value":"0x0"}],"transactionsRoot":"0x3b55dd8baedfd92d173d753a4727eeb8b2b0b7904e40c18755ebb7be23a22750","uncles":[]},"receipts":{"0x9907a800b5f9010d9ae3b00988f7094f062cb98b5093b0ee0aba33091b25bc78":{"blockHash":"0xf45922288a3401946e67ed3798470df64959d7c874ea4587420036391d65ad4d","blockNumber":"0xd00349","from":"0xb0e4e3a2ff0e3efe8e5e2d1ff6ed3f81dc52bd47","gas":"0x1e956","gasPrice":"0x2faf080","hash":"0x9907a800b5f9010d9ae3b00988f7094f062cb98b5093b0ee0aba33091b25bc78","index":"0xd00348","input":"0x414bf389000000000000000000000000deaddeaddeaddeaddeaddeaddeaddeaddead1111000000000000000000000000201eba5cc46d216ce6dc03f6a759e8e766e956ae00000000000000000000000000000000000000000000000000000000000001f4000000000000000000000000b0e4e3a2ff0e3efe8e5e2d1ff6ed3f81dc52bd470000000000000000000000000000000000000000000000000000000065243e9000000000000000000000000000000000000000000000000000017970b794f000000000000000000000000000000000000000000000000000000000000009dce60000000000000000000000000000000000000000000000000000000000000000","l1BlockNumber":"0x11774e7","l1Timestamp":"0x65243e70","l1TxOrigin":null,"nonce":"0x10f7","queueIndex":null,"queueOrigin":"sequencer","r":"0xfb36005509ddbfa8c42ed36d2ed629698796a4bb26b434f646c93efcc0883bcd","rawTransaction":"0xf9016e8210f78402faf0808301e95694319b69888b0d11cec22caa5034e25fffbdc8842180b90104414bf389000000000000000000000000deaddeaddeaddeaddeaddeaddeaddeaddead1111000000000000000000000000201eba5cc46d216ce6dc03f6a759e8e766e956ae00000000000000000000000000000000000000000000000000000000000001f4000000000000000000000000b0e4e3a2ff0e3efe8e5e2d1ff6ed3f81dc52bd470000000000000000000000000000000000000000000000000000000065243e9000000000000000000000000000000000000000000000000000017970b794f000000000000000000000000000000000000000000000000000000000000009dce60000000000000000000000000000000000000000000000000000000000000000822733a0fb36005509ddbfa8c42ed36d2ed629698796a4bb26b434f646c93efcc0883bcda002c180495efb0dae23f2496f3b0797e38cc6f2e06d02962a0dd0d8ee716f2918","s":"0x2c180495efb0dae23f2496f3b0797e38cc6f2e06d02962a0dd0d8ee716f2918","to":"0x319b69888b0d11cec22caa5034e25fffbdc88421","transactionIndex":"0x0","v":"0x2733","value":"0x0","contractAddress":null,"cumulativeGasUsed":"0x1d205","daFee":"0x0","daGasPrice":"0x0","daGasUsed":"0x12c","gasUsed":"0x1d205","l1Fee":"0x19709d787180660","l1FeeScalar":"1","l1GasPrice":"0x38a987f04864","l1GasUsed":"0x72f","logs":[{"address":"0x201eba5cc46d216ce6dc03f6a759e8e766e956ae","blockHash":"0xf45922288a3401946e67ed3798470df64959d7c874ea4587420036391d65ad4d","blockNumber":"0xd00349","data":"0x00000000000000000000000000000000000000000000000000000000000a106e","logIndex":"0x0","removed":false,"topics":["0xddf252ad1be2c89b69c2b068fc378daa952ba7f163c4a11628f55a4df523b3ef","0x000000000000000000000000628f7131cf43e88ebe3921ae78c4ba0c31872bd4","0x000000000000000000000000b0e4e3a2ff0e3efe8e5e2d1ff6ed3f81dc52bd47"],"transactionHash":"0x9907a800b5f9010d9ae3b00988f7094f062cb98b5093b0ee0aba33091b25bc78","transactionIndex":"0x0"},{"address":"0xdeaddeaddeaddeaddeaddeaddeaddeaddead1111","blockHash":"0xf45922288a3401946e67ed3798470df64959d7c874ea4587420036391d65ad4d","blockNumber":"0xd00349","data":"0x00000000000000000000000000000000000000000000000000017970b794f000","logIndex":"0x1","removed":false,"topics":["0xddf252ad1be2c89b69c2b068fc378daa952ba7f163c4a11628f55a4df523b3ef","0x000000000000000000000000b0e4e3a2ff0e3efe8e5e2d1ff6ed3f81dc52bd47","0x000000000000000000000000628f7131cf43e88ebe3921ae78c4ba0c31872bd4"],"transactionHash":"0x9907a800b5f9010d9ae3b00988f7094f062cb98b5093b0ee0aba33091b25bc78","transactionIndex":"0x0"},{"address":"0xdeaddeaddeaddeaddeaddeaddeaddeaddead1111","blockHash":"0xf45922288a3401946e67ed3798470df64959d7c874ea4587420036391d65ad4d","blockNumber":"0xd00349","data":"0xfffffffffffffffffffffffffffffffffffffffffffffffffadcffa18ed63fff","logIndex":"0x2","removed":false,"topics":["0x8c5be1e5ebec7d5bd14f71427d1e84f3dd0314c0f7b2291e5b200ac8c7c3b925","0x000000000000000000000000b0e4e3a2ff0e3efe8e5e2d1ff6ed3f81dc52bd47","0x000000000000000000000000319b69888b0d11cec22caa5034e25fffbdc88421"],"transactionHash":"0x9907a800b5f9010d9ae3b00988f7094f062cb98b5093b0ee0aba33091b25bc78","transactionIndex":"0x0"},{"address":"0x628f7131cf43e88ebe3921ae78c4ba0c31872bd4","blockHash":"0xf45922288a3401946e67ed3798470df64959d7c874ea4587420036391d65ad4d","blockNumber":"0xd00349","data":"0xfffffffffffffffffffffffffffffffffffffffffffffffffffffffffff5ef9200000000000000000000000000000000000000000000000000017970b794f00000000000000000000000000000000000000061f9da8daf94c72adc474cdd805200000000000000000000000000000000000000000000000000002c65dde06c2000000000000000000000000000000000000000000000000000000000000317700000000000000000000000000000000000000000000000000000000000000000000000000000000000000000000000000000000000000000000000106d1b9180","logIndex":"0x3","removed":false,"topics":["0x19b47279256b2a23a1665c810c8d55a1758940ee09377d4f8d26497a3577dc83","0x000000000000000000000000319b69888b0d11cec22caa5034e25fffbdc88421","0x000000000000000000000000b0e4e3a2ff0e3efe8e5e2d1ff6ed3f81dc52bd47"],"transactionHash":"0x9907a800b5f9010d9ae3b00988f7094f062cb98b5093b0ee0aba33091b25bc78","transactionIndex":"0x0"}],"logsBloom":"0x40000000000000000000000000000000000000000001008800000000000000000000000000000000000000000002000000000000000000000000000000200000840000000040000000000008000000000000808000002004000000000000000000000001000000000000000100000000000000000000000000000010000000000000000000000000000000000000100000000000000000000008000000000000020000000000000000000000000000000000000001000020000100000000000000000002000000000000000000000000000000000000000000000000000000000010000000009000000000000000000000000000000000000000000000000000","status":"0x1","transactionHash":"0x9907a800b5f9010d9ae3b00988f7094f062cb98b5093b0ee0aba33091b25bc78"}}}