{"block":{"difficulty":"0x2","extraData":"0xd98301090a846765746889676f312e31352e3133856c696e757800000000000068866a477f68a86b3e0b39d6c147e22df8ce98d6e20574711fc6c4a7e33c687d77a334185878e1cc1ebdaa9464ffd6b2baac64bfa93aa446a4fec49f18b156ec01","gasLimit":"0x1c9c380","gasUsed":"0x1fc88","hash":"0xd92492ea6e3b264bdef275f7504ca545d9f4855e2bcd35e84d3345f5d2fea8ad","logsBloom":"0x0000000000000000000000000000000000004000000100880000000000000000000000000000000000000000000200000000000000200000000000000020000004800000004400000000000800000000000000c000002000000000000000000000000000000000000000000000000000000008900000800000000010000000000000000000000000000000000000000000000000000000000000000000000000020000000000000000000000000000000000000001000000000000000000000000000202000000000000000000000000002000000000000000000000000000000010000000000000000000000000000000000000000010000000000000000000","miner":"0x0000000000000000000000000000000000000000","mixHash":"0x0000000000000000000000000000000000000000000000000000000000000000","nonce":"0x0000000000000000","number":"0xd00278","parentHash":"0x3420bd941de53048f2a1618d64ec12c80a1705a2c8a8919365e67171d2fb6db5","receiptsRoot":"0x93ee3617901861fcb411b633eeb5faf3f38a9dbe38545c0264cbfb84f81de46c","sha3Uncles":"0x1dcc4de8dec75d7aab85b567b6ccd41ad312451b948a7413f0a142fd40d49347","size":"0x3d8","stateRoot":"0x88525bf7183c2db522a3d154651630307408a89b00afe20f838dca7234ba6927","timestamp":"0x65243e11","totalDifficulty":"0x1a004f1","transactions":[{"blockHash":"0xd92492ea6e3b264bdef275f7504ca545d9f4855e2bcd35e84d3345f5d2fea8ad","blockNumber":"0xd00278","from":"0x2557672fe5510e6c9f98c225264cb723bde5503b","gas":"0x21487","gasPrice":"0x2faf080","hash":"0x251a334abd2a062e9e81bea4a3bfa5052aa339097b20da76bd2872eb5bfb1d5b","index":"0xd00277","input":"0x414bf389000000000000000000000000201eba5cc46d216ce6dc03f6a759e8e766e956ae00000000000000000000000009bc4e0d864854c6afb6eb9a9cdf58ac190d0df900000000000000000000000000000000000000000000000000000000000000640000000000000000000000002557672fe5510e6c9f98c225264cb723bde5503b0000000000000000000000000000000000000000000000000000000065243e3000000000000000000000000000000000000000000000000000000000000f424000000000000000000000000000000000000000000000000000000000000ef5020000000000000000000000000000000000000000000000000000000000000000","l1BlockNumber":"0x11774df","l1Timestamp":"0x65243e11","l1TxOrigin":null,"nonce":"0x1241","queueIndex":null,"queueOrigin":"sequencer","r":"0xf0f826ddd30ec2702e7ce97ef725dd7614deae42d0a6862290056b2a4f7f5473","rawTransaction":"0xf9016e8212418402faf0808302148794319b69888b0d11cec22caa5034e25fffbdc8842180b90104414bf389000000000000000000000000201eba5cc46d216ce6dc03f6a759e8e766e956ae00000000000000000000000009bc4e0d864854c6afb6eb9a9cdf58ac190d0df900000000000000000000000000000000000000000000000000000000000000640000000000000000000000002557672fe5510e6c9f98c225264cb723bde5503b0000000000000000000000000000000000000000000000000000000065243e3000000000000000000000000000000000000000000000000000000000000f424000000000000000000000000000000000000000000000000000000000000ef5020000000000000000000000000000000000000000000000000000000000000000822734a0f0f826ddd30ec2702e7ce97ef725dd7614deae42d0a6862290056b2a4f7f5473a0768d0fd2d3dbd1f038fc3381ba902936387636814af1d51903f84a7580e62944","s":"0x768d0fd2d3dbd1f038fc3381ba902936387636814af1d51903f84a7580e62944","to":"0x319b69888b0d11cec22caa5034e25fffbdc88421","transactionIndex":"0x0","v":"0x2734","value":"0x0"}],"transactionsRoot":"0xe3e8e82a6a11c1319ff566692a9696a72ad99138ff89f019a704a057b0d67c0f","uncles":[]},"receipts":{"0x251a334abd2a062e9e81bea4a3bfa5052aa339097b20da76bd2872eb5bfb1d5b":{"blockHash":"0xd92492ea6e3b264bdef275f7504ca545d9f4855e2bcd35e84d3345f5d2fea8ad","blockNumber":"0xd00278","from":"0x2557672fe5510e6c9f98c225264cb723bde5503b","gas":"0x21487","gasPrice":"0x2faf080","hash":"0x251a334abd2a062e9e81bea4a3bfa5052aa339097b20da76bd2872eb5bfb1d5b","index":"0xd00277","input":"0x414bf389000000000000000000000000201eba5cc46d216ce6dc03f6a759e8e766e956ae00000000000000000000000009bc4e0d864854c6afb6eb9a9cdf58ac190d0df900000000000000000000000000000000000000000000000000000000000000640000000000000000000000002557672fe5510e6c9f98c225264cb723bde5503b0000000000000000000000000000000000000000000000000000000065243e3000000000000000000000000000000000000000000000000000000000000f424000000000000000000000000000000000000000000000000000000000000ef5020000000000000000000000000000000000000000000000000000000000000000","l1BlockNumber":"0x11774df","l1Timestamp":"0x65243e11","l1TxOrigin":null,"nonce":"0x1241","queueIndex":null,"queueOrigin":"sequencer","r":"0xf0f826ddd30ec2702e7ce97ef725dd7614deae42d0a6862290056b2a4f7f5473","rawTransaction":"0xf9016e8212418402faf0808302148794319b69888b0d11cec22caa5034e25fffbdc8842180b90104414bf389000000000000000000000000201eba5cc46d216ce6dc03f6a759e8e766e956ae00000000000000000000000009bc4e0d864854c6afb6eb9a9cdf58ac190d0df900000000000000000000000000000000000000000000000000000000000000640000000000000000000000002557672fe5510e6c9f98c225264cb723bde5503b0000000000000000000000000000000000000000000000000000000065243e3000000000000000000000000000000000000000000000000000000000000f424000000000000000000000000000000000000000000000000000000000000ef5020000000000000000000000000000000000000000000000000000000000000000822734a0f0f826ddd30ec2702e7ce97ef725dd7614deae42d0a6862290056b2a4f7f5473a0768d0fd2d3dbd1f038fc3381ba902936387636814af1d51903f84a7580e62944","s":"0x768d0fd2d3dbd1f038fc3381ba902936387636814af1d51903f84a7580e62944","to":"0x319b69888b0d11cec22caa5034e25fffbdc88421","transactionIndex":"0x0","v":"0x2734","value":"0x0","contractAddress":null,"cumulativeGasUsed":"0x1fc88","daFee":"0x0","daGasPrice":"0x0","daGasUsed":"0x12c","gasUsed":"0x1fc88","l1Fee":"0x19709d787180660","l1FeeScalar":"1","l1GasPrice":"0x38a987f04864","l1GasUsed":"0x72f","logs":[{"address":"0x09bc4e0d864854c6afb6eb9a9cdf58ac190d0df9","blockHash":"0xd92492ea6e3b264bdef275f7504ca545d9f4855e2bcd35e84d3345f5d2fea8ad","blockNumber":"0xd00278","data":"0x00000000000000000000000000000000000000000000000000000000000f4327","logIndex":"0x0","removed":false,"topics":["0xddf252ad1be2c89b69c2b068fc378daa952ba7f163c4a11628f55a4df523b3ef","0x0000000000000000000000006488f911c6cd86c289aa319c5a826dcf8f1ca065","0x0000000000000000000000002557672fe5510e6c9f98c225264cb723bde5503b"],"transactionHash":"0x251a334abd2a062e9e81bea4a3bfa5052aa339097b20da76bd2872eb5bfb1d5b","transactionIndex":"0x0"},{"address":"0x201eba5cc46d216ce6dc03f6a759e8e766e956ae","blockHash":"0xd92492ea6e3b264bdef275f7504ca545d9f4855e2bcd35e84d3345f5d2fea8ad","blockNumber":"0xd00278","data":"0x00000000000000000000000000000000000000000000000000000000000f4240","logIndex":"0x1","removed":false,"topics":["0xddf252ad1be2c89b69c2b068fc378daa952ba7f163c4a11628f55a4df523b3ef","0x0000000000000000000000002557672fe5510e6c9f98c225264cb723bde5503b","0x0000000000000000000000006488f911c6cd86c289aa319c5a826dcf8f1ca065"],"transactionHash":"0x251a334abd2a062e9e81bea4a3bfa5052aa339097b20da76bd2872eb5bfb1d5b","transactionIndex":"0x0"},{"address":"0x201eba5cc46d216ce6dc03f6a759e8e766e956ae","blockHash":"0xd92492ea6e3b264bdef275f7504ca545d9f4855e2bcd35e84d3345f5d2fea8ad","blockNumber":"0xd00278","data":"0xffffffffffffffffffffffffffffffffffffffffffffffffffffffff7fc06d2f","logIndex":"0x2","removed":false,"topics":["0x8c5be1e5ebec7d5bd14f71427d1e84f3dd0314c0f7b2291e5b200ac8c7c3b925","0x0000000000000000000000002557672fe5510e6c9f98c225264cb723bde5503b","0x000000000000000000000000319b69888b0d11cec22caa5034e25fffbdc88421"],"transactionHash":"0x251a334abd2a062e9e81bea4a3bfa5052aa339097b20da76bd2872eb5bfb1d5b","transactionIndex":"0x0"},{"address":"0x6488f911c6cd86c289aa319c5a826dcf8f1ca065","blockHash":"0xd92492ea6e3b264bdef275f7504ca545d9f4855e2bcd35e84d3345f5d2fea8ad","blockNumber":"0xd00278","data":"0xfffffffffffffffffffffffffffffffffffffffffffffffffffffffffff0bcd900000000000000000000000000000000000000000000000000000000000f42400000000000000000000000000000000000000000fff521b1cfc0ccb0350996bc0000000000000000000000000000000000000000000000000000aa91ae904e92fffffffffffffffffffffffffffffffffffffffffffffffffffffffffffffffc00000000000000000000000000000000000000000000000000000000000000000000000000000000000000000000000000000000000000000000000000000021","logIndex":"0x3","removed":false,"topics":["0x19b47279256b2a23a1665c810c8d55a1758940ee09377d4f8d26497a3577dc83","0x000000000000000000000000319b69888b0d11cec22caa5034e25fffbdc88421","0x0000000000000000000000002557672fe5510e6c9f98c225264cb723bde5503b"],"transactionHash":"0x251a334abd2a062e9e81bea4a3bfa5052aa339097b20da76bd2872eb5bfb1d5b","transactionIndex":"0x0"}],"logsBloom":"0x0000000000000000000000000000000000004000000100880000000000000000000000000000000000000000000200000000000000200000000000000020000004800000004400000000000800000000000000c000002000000000000000000000000000000000000000000000000000000008900000800000000010000000000000000000000000000000000000000000000000000000000000000000000000020000000000000000000000000000000000000001000000000000000000000000000202000000000000000000000000002000000000000000000000000000000010000000000000000000000000000000000000000010000000000000000000","status":"0x1","transactionHash":"0x251a334abd2a062e9e81bea4a3bfa5052aa339097b20da76bd2872eb5bfb1d5b"}}}