{"block":{"difficulty":"0x2","extraData":"0xd98301090a846765746889676f312e31352e3133856c696e7578000000000000277d3f6c95f4373be513d2cec2c7c77c9d7496417056b085c8a95c6f4f2c7693709b9260a455ce74156fa0deec27ec3fcc7a4492724e190a87ed150cf859242801","gasLimit":"0x1c9c380","gasUsed":"0x7bbb","hash":"0xc1cd8ed3bdcb7fdf3cd67eb3ab8d0df580d0175d3937eba7e9d75f61b16d49c7","logsBloom":"0x00000000000000000000000000000000000000000000000000000000000000000000000000000000000000000000000000000000000000000000000000000000000000000000000000000000000000000000000000000000000000000000000000000000000000000000000000000000000000000000000000000000000000000000000000000000000000000000000000000000000000000000000000000000000000000000000000000000000000000000000000000000000000000000000000000000000000000000000000000000000000000000000000000000000000000000000000000000000000000000000000000000000000000000000000000000","miner":"0x0000000000000000000000000000000000000000","mixHash":"0x0000000000000000000000000000000000000000000000000000000000000000","nonce":"0x0000000000000000","number":"0xd0013c","parentHash":"0x114a2b175949d8db3f4e75dcfba2ff884c9a1169c295c42cc4e8b3dd8fd8130c","receiptsRoot":"0x42c25915d79e73adcf298d6fd771673eeb59bfe06c82681fb2fbffd8a52d3744","sha3Uncles":"0x1dcc4de8dec75d7aab85b567b6ccd41ad312451b948a7413f0a142fd40d49347","size":"0x314","stateRoot":"0xa0071efc498365f850dd93c73892dbc855cdebf08cb7e17bb4c406a71937385f","timestamp":"0x65243d63","totalDifficulty":"0x1a00279","transactions":[{"blockHash":"0xc1cd8ed3bdcb7fdf3cd67eb3ab8d0df580d0175d3937eba7e9d75f61b16d49c7","blockNumber":"0xd0013c","from":"0x206f2077b9fa2c618745066046bcadaacf6bc1a7","gas":"0x13880","gasPrice":"0x2faf080","hash":"0x1102e8b7e49193e2e528dbf8d58ba6eafe3f7921df5b6d7488efd340065ae661","index":"0xd0013b","input":"0x7ff15f3e00000000000000000000000000000000000000000000000000000000000000010000000000000000000000000000000000000000000000000000028110821fc0","l1BlockNumber":"0x11774d1","l1Timestamp":"0x65243d63","l1TxOrigin":null,"nonce":"0xbc4","queueIndex":null,"queueOrigin":"sequencer","r":"0xb928f7d45fd643c35e0ef09268d333956abf5098eab5c636a274ef9011e98402","rawTransaction":"0xf8ad820bc48402faf0808301388094690ef4bf1f67012c53e95627001156e7b1cdadab80b8447ff15f3e00000000000000000000000000000000000000000000000000000000000000010000000000000000000000000000000000000000000000000000028110821fc0822733a0b928f7d45fd643c35e0ef09268d333956abf5098eab5c636a274ef9011e98402a04215a04982022f32117002d2ad7f1e657524facd7e37d1a46accd0a573056c1e","s":"0x4215a04982022f32117002d2ad7f1e657524facd7e37d1a46accd0a573056c1e","to":"0x690ef4bf1f67012c53e95627001156e7b1cdadab","transactionIndex":"0x0","v":"0x2733","value":"0x0"}],"transactionsRoot":"0x3ddf86c87853b9cc85eafdc47c3043e4b3f8abe8b2577e216691cddb652c9d4f","uncles":[]},"receipts":{"0x1102e8b7e49193e2e528dbf8d58ba6eafe3f7921df5b6d7488efd340065ae661":{"blockHash":"0xc1cd8ed3bdcb7fdf3cd67eb3ab8d0df580d0175d3937eba7e9d75f61b16d49c7","blockNumber":"0xd0013c","from":"0x206f2077b9fa2c618745066046bcadaacf6bc1a7","gas":"0x13880","gasPrice":"0x2faf080","hash":"0x1102e8b7e49193e2e528dbf8d58ba6eafe3f7921df5b6d7488efd340065ae661","index":"0xd0013b","input":"0x7ff15f3e00000000000000000000000000000000000000000000000000000000000000010000000000000000000000000000000000000000000000000000028110821fc0","l1BlockNumber":"0x11774d1","l1Timestamp":"0x65243d63","l1TxOrigin":null,"nonce":"0xbc4","queueIndex":null,"queueOrigin":"sequencer","r":"0xb928f7d45fd643c35e0ef09268d333956abf5098eab5c636a274ef9011e98402","rawTransaction":"0xf8ad820bc48402faf0808301388094690ef4bf1f67012c53e95627001156e7b1cdadab80b8447ff15f3e00000000000000000000000000000000000000000000000000000000000000010000000000000000000000000000000000000000000000000000028110821fc0822733a0b928f7d45fd643c35e0ef09268d333956abf5098eab5c636a274ef9011e98402a04215a04982022f32117002d2ad7f1e657524facd7e37d1a46accd0a573056c1e","s":"0x4215a04982022f32117002d2ad7f1e657524facd7e37d1a46accd0a573056c1e","to":"0x690ef4bf1f67012c53e95627001156e7b1cdadab","transactionIndex":"0x0","v":"0x2733","value":"0x0","contractAddress":null,"cumulativeGasUsed":"0x7bbb","daFee":"0x0","daGasPrice":"0x0","daGasUsed":"0x6a","gasUsed":"0x7bbb","l1Fee":"0x1a09f6380cb9fe0","l1FeeScalar":"1","l1GasPrice":"0x39ff1464e55c","l1GasUsed":"0x72f","logs":[],"logsBloom":"0x00000000000000000000000000000000000000000000000000000000000000000000000000000000000000000000000000000000000000000000000000000000000000000000000000000000000000000000000000000000000000000000000000000000000000000000000000000000000000000000000000000000000000000000000000000000000000000000000000000000000000000000000000000000000000000000000000000000000000000000000000000000000000000000000000000000000000000000000000000000000000000000000000000000000000000000000000000000000000000000000000000000000000000000000000000000","status":"0x1","transactionHash":"0x1102e8b7e49193e2e528dbf8d58ba6eafe3f7921df5b6d7488efd340065ae661"}}}