{"block":{"difficulty":"0x2","extraData":"0xd98301090a846765746889676f312e31352e3133856c696e757800000000000070c89e751509143a85591466cc575500897d86efd6076daad5266879057eda01381559e84e42bc50e92b918f089b14cfa42cb5df19824017693a023d7a00109b00","gasLimit":"0x1c9c380","gasUsed":"0x1e01b","hash":"0xcde4fc1902e74755d0fb1354993395d1763a9c3caa62600965689f2505dd42a8","logsBloom":"0x00000000000000000000000000000000000000000000000000000000000000000000000000000000000000000000000000000000000000000000000000000000000000000000000000000000000000000000000000000000000000000000000000000000000000000000000000000000000000000000000000000000000000000000000000000000000000000000000000000000000000000000000000000000000000000000000000000000000000000000000000000000000000000000000000000000000000000000000000000000000000000000000000000000000000000000000000000000000000000000000000000000000000000000000000000000","miner":"0x0000000000000000000000000000000000000000","mixHash":"0x0000000000000000000000000000000000000000000000000000000000000000","nonce":"0x0000000000000000","number":"0xcff3cf","parentHash":"0x9bce8a29cbcff22ca4110ed63207399ade3ec6bc01eebf44f9763e0bd5ce2557","receiptsRoot":"0xab49f00f6dd26a701cac44e308850a545d691beddefe8fc0245a138c6527b778","sha3Uncles":"0x1dcc4de8dec75d7aab85b567b6ccd41ad312451b948a7413f0a142fd40d49347","size":"0x3d8","stateRoot":"0x53af45ddf4fc8695c467be39ea4d3f70851d47ed960ddcaf345d10c2e86ef610","timestamp":"0x6524375c","totalDifficulty":"0x19fe79f","transactions":[{"blockHash":"0xcde4fc1902e74755d0fb1354993395d1763a9c3caa62600965689f2505dd42a8","blockNumber":"0xcff3cf","from":"0x8748fc8806281c907c87788d3111be348f68f7cc","gas":"0x1e5b1","gasPrice":"0x2faf080","hash":"0x86d98161c2872f98ec7ec771a874f65b89815875bd5263455fca82f69fb9ab8a","index":"0xcff3ce","input":"0x414bf38900000000000000000000000078c1b0c915c4faa5fffa6cabf0219da63d7f4cb8000000000000000000000000201eba5cc46d216ce6dc03f6a759e8e766e956ae00000000000000000000000000000000000000000000000000000000000001f40000000000000000000000008748fc8806281c907c87788d3111be348f68f7cc000000000000000000000000000000000000000000000000000000006524377c0000000000000000000000000000000000000000000000001c4f89310dcc000000000000000000000000000000000000000000000000000000000000000b573d0000000000000000000000000000000000000000000000000000000000000000","l1BlockNumber":"0x1177450","l1Timestamp":"0x6524375c","l1TxOrigin":null,"nonce":"0xd4c","queueIndex":null,"queueOrigin":"sequencer","r":"0xc1c8aab799e1bd1e8004980fac4bbb87612cff74b6169bd83189bb357327db85","rawTransaction":"0xf9016e820d4c8402faf0808301e5b194319b69888b0d11cec22caa5034e25fffbdc8842180b90104414bf38900000000000000000000000078c1b0c915c4faa5fffa6cabf0219da63d7f4cb8000000000000000000000000201eba5cc46d216ce6dc03f6a759e8e766e956ae00000000000000000000000000000000000000000000000000000000000001f40000000000000000000000008748fc8806281c907c87788d3111be348f68f7cc000000000000000000000000000000000000000000000000000000006524377c0000000000000000000000000000000000000000000000001c4f89310dcc000000000000000000000000000000000000000000000000000000000000000b573d0000000000000000000000000000000000000000000000000000000000000000822734a0c1c8aab799e1bd1e8004980fac4bbb87612cff74b6169bd83189bb357327db85a058faf665773bc9afba52855dcb4e2f6b34ac39b0f3b8b7371f955921d0b46bca","s":"0x58faf665773bc9afba52855dcb4e2f6b34ac39b0f3b8b7371f955921d0b46bca","to":"0x319b69888b0d11cec22caa5034e25fffbdc88421","transactionIndex":"0x0","v":"0x2734","value":"0x0"}],"transactionsRoot":"0xd709f82585628cb007a00a5664a187fcb5326e6af3d251cad69ab1f4a9798e59","uncles":[]},"receipts":{"0x86d98161c2872f98ec7ec771a874f65b89815875bd5263455fca82f69fb9ab8a":{"blockHash":"0xcde4fc1902e74755d0fb1354993395d1763a9c3caa62600965689f2505dd42a8","blockNumber":"0xcff3cf","from":"0x8748fc8806281c907c87788d3111be348f68f7cc","gas":"0x1e5b1","gasPrice":"0x2faf080","hash":"0x86d98161c2872f98ec7ec771a874f65b89815875bd5263455fca82f69fb9ab8a","index":"0xcff3ce","input":"0x414bf38900000000000000000000000078c1b0c915c4faa5fffa6cabf0219da63d7f4cb8000000000000000000000000201eba5cc46d216ce6dc03f6a759e8e766e956ae00000000000000000000000000000000000000000000000000000000000001f40000000000000000000000008748fc8806281c907c87788d3111be348f68f7cc000000000000000000000000000000000000000000000000000000006524377c0000000000000000000000000000000000000000000000001c4f89310dcc000000000000000000000000000000000000000000000000000000000000000b573d0000000000000000000000000000000000000000000000000000000000000000","l1BlockNumber":"0x1177450","l1Timestamp":"0x6524375c","l1TxOrigin":null,"nonce":"0xd4c","queueIndex":null,"queueOrigin":"sequencer","r":"0xc1c8aab799e1bd1e8004980fac4bbb87612cff74b6169bd83189bb357327db85","rawTransaction":"0xf9016e820d4c8402faf0808301e5b194319b69888b0d11cec22caa5034e25fffbdc8842180b90104414bf38900000000000000000000000078c1b0c915c4faa5fffa6cabf0219da63d7f4cb8000000000000000000000000201eba5cc46d216ce6dc03f6a759e8e766e956ae00000000000000000000000000000000000000000000000000000000000001f40000000000000000000000008748fc8806281c907c87788d3111be348f68f7cc000000000000000000000000000000000000000000000000000000006524377c0000000000000000000000000000000000000000000000001c4f89310dcc000000000000000000000000000000000000000000000000000000000000000b573d0000000000000000000000000000000000000000000000000000000000000000822734a0c1c8aab799e1bd1e8004980fac4bbb87612cff74b6169bd83189bb357327db85a058faf665773bc9afba52855dcb4e2f6b34ac39b0f3b8b7371f955921d0b46bca","s":"0x58faf665773bc9afba52855dcb4e2f6b34ac39b0f3b8b7371f955921d0b46bca","to":"0x319b69888b0d11cec22caa5034e25fffbdc88421","transactionIndex":"0x0","v":"0x2734","value":"0x0","contractAddress":null,"cumulativeGasUsed":"0x1e01b","daFee":"0x0","daGasPrice":"0x0","daGasUsed":"0x12c","gasUsed":"0x1e01b","l1Fee":"0x1c5145ff7a866d0","l1FeeScalar":"1","l1GasPrice":"0x3f1249c65230","l1GasUsed":"0x72f","logs":[],"logsBloom":"0x00000000000000000000000000000000000000000000000000000000000000000000000000000000000000000000000000000000000000000000000000000000000000000000000000000000000000000000000000000000000000000000000000000000000000000000000000000000000000000000000000000000000000000000000000000000000000000000000000000000000000000000000000000000000000000000000000000000000000000000000000000000000000000000000000000000000000000000000000000000000000000000000000000000000000000000000000000000000000000000000000000000000000000000000000000000","status":"0x0","transactionHash":"0x86d98161c2872f98ec7ec771a874f65b89815875bd5263455fca82f69fb9ab8a"}}}