{"block":{"difficulty":"0x2","extraData":"0xd98301090a846765746889676f312e31352e3133856c696e75780000000000005f3f837a20feaa74da49387ad2de3e4bb06bb7b714d6c3aafe145d5b61dc3a366e985c36e95f78ae2c6b03670efa4285b4c57b3742fbfbed37bfac4d8b3eb4e500","gasLimit":"0x1c9c380","gasUsed":"0x1d421","hash":"0x25b12df4a8c4ef3b832daf8b9acfbda4db238d75feded76f9dbcbd16ffa83b80","logsBloom":"0x00000000000000000000000000000000000000000001008800000000000000000004000000000000000000000002000000000000000000000000000000200000140000000040000800000008000000000000008000042000000200000000000000000000000000000000000000000080000000000000000000000010000000000000000000000000000000000000000800100000000000000000000000000040020000000000000000000000000200000000000001000000000000000000000000000002000000000000000000000000000000000000000000000010000000000010100000000000000000000000000000000000000000000000000000000000","miner":"0x0000000000000000000000000000000000000000","mixHash":"0x0000000000000000000000000000000000000000000000000000000000000000","nonce":"0x0000000000000000","number":"0xd002cf","parentHash":"0xdbaae666007915b45eb8e1aa1385adc95962b2dbfe63507861f812243f09d1de","receiptsRoot":"0xbc1d68309f312912960fbceafd809b61764ed19f4dca7ab34645ecf4254afcd0","sha3Uncles":"0x1dcc4de8dec75d7aab85b567b6ccd41ad312451b948a7413f0a142fd40d49347","size":"0x3d8","stateRoot":"0x3e3c301a145916210226d1ae64d929fe490dd8bebaa2023258d7affb36bb4efc","timestamp":"0x65243e3e","totalDifficulty":"0x1a0059f","transactions":[{"blockHash":"0x25b12df4a8c4ef3b832daf8b9acfbda4db238d75feded76f9dbcbd16ffa83b80","blockNumber":"0xd002cf","from":"0x17abf2c2b945e8b66ee192c6502f4e19fb750a8d","gas":"0x1eb85","gasPrice":"0x2faf080","hash":"0xdac2f9a14969cad6a86749cbf21a108970f2e4877d828903d449b7c31c994633","index":"0xd002ce","input":"0x414bf389000000000000000000000000201eba5cc46d216ce6dc03f6a759e8e766e956ae00000000000000000000000078c1b0c915c4faa5fffa6cabf0219da63d7f4cb800000000000000000000000000000000000000000000000000000000000001f400000000000000000000000017abf2c2b945e8b66ee192c6502f4e19fb750a8d0000000000000000000000000000000000000000000000000000000065243e5e00000000000000000000000000000000000000000000000000000000000ecd100000000000000000000000000000000000000000000000002343e19a3d547c5e0000000000000000000000000000000000000000000000000000000000000000","l1BlockNumber":"0x11774e3","l1Timestamp":"0x65243e3e","l1TxOrigin":null,"nonce":"0xb86","queueIndex":null,"queueOrigin":"sequencer","r":"0x8447ec54780e2376661075f0905df3af1b347183a5091a587a89507a6b5fed45","rawTransaction":"0xf9016e820b868402faf0808301eb8594319b69888b0d11cec22caa5034e25fffbdc8842180b90104414bf389000000000000000000000000201eba5cc46d216ce6dc03f6a759e8e766e956ae00000000000000000000000078c1b0c915c4faa5fffa6cabf0219da63d7f4cb800000000000000000000000000000000000000000000000000000000000001f400000000000000000000000017abf2c2b945e8b66ee192c6502f4e19fb750a8d0000000000000000000000000000000000000000000000000000000065243e5e00000000000000000000000000000000000000000000000000000000000ecd100000000000000000000000000000000000000000000000002343e19a3d547c5e0000000000000000000000000000000000000000000000000000000000000000822734a08447ec54780e2376661075f0905df3af1b347183a5091a587a89507a6b5fed45a059cecb28e3d6d75b9eaa742cab6689e3e816a1cf4aeaf1b947006c06736499ef","s":"0x59cecb28e3d6d75b9eaa742cab6689e3e816a1cf4aeaf1b947006c06736499ef","to":"0x319b69888b0d11cec22caa5034e25fffbdc88421","transactionIndex":"0x0","v":"0x2734","value":"0x0"}],"transactionsRoot":"0x2d443c747e342abf9d0af0c94541acb421793eba1e5f9df8a8cb2aa0b249cae8","uncles":[]},"receipts":{"0xdac2f9a14969cad6a86749cbf21a108970f2e4877d828903d449b7c31c994633":{"blockHash":"0x25b12df4a8c4ef3b832daf8b9acfbda4db238d75feded76f9dbcbd16ffa83b80","blockNumber":"0xd002cf","from":"0x17abf2c2b945e8b66ee192c6502f4e19fb750a8d","gas":"0x1eb85","gasPrice":"0x2faf080","hash":"0xdac2f9a14969cad6a86749cbf21a108970f2e4877d828903d449b7c31c994633","index":"0xd002ce","input":"0x414bf389000000000000000000000000201eba5cc46d216ce6dc03f6a759e8e766e956ae00000000000000000000000078c1b0c915c4faa5fffa6cabf0219da63d7f4cb800000000000000000000000000000000000000000000000000000000000001f400000000000000000000000017abf2c2b945e8b66ee192c6502f4e19fb750a8d0000000000000000000000000000000000000000000000000000000065243e5e00000000000000000000000000000000000000000000000000000000000ecd100000000000000000000000000000000000000000000000002343e19a3d547c5e0000000000000000000000000000000000000000000000000000000000000000","l1BlockNumber":"0x11774e3","l1Timestamp":"0x65243e3e","l1TxOrigin":null,"nonce":"0xb86","queueIndex":null,"queueOrigin":"sequencer","r":"0x8447ec54780e2376661075f0905df3af1b347183a5091a587a89507a6b5fed45","rawTransaction":"0xf9016e820b868402faf0808301eb8594319b69888b0d11cec22caa5034e25fffbdc8842180b90104414bf389000000000000000000000000201eba5cc46d216ce6dc03f6a759e8e766e956ae00000000000000000000000078c1b0c915c4faa5fffa6cabf0219da63d7f4cb800000000000000000000000000000000000000000000000000000000000001f400000000000000000000000017abf2c2b945e8b66ee192c6502f4e19fb750a8d0000000000000000000000000000000000000000000000000000000065243e5e00000000000000000000000000000000000000000000000000000000000ecd100000000000000000000000000000000000000000000000002343e19a3d547c5e0000000000000000000000000000000000000000000000000000000000000000822734a08447ec54780e2376661075f0905df3af1b347183a5091a587a89507a6b5fed45a059cecb28e3d6d75b9eaa742cab6689e3e816a1cf4aeaf1b947006c06736499ef","s":"0x59cecb28e3d6d75b9eaa742cab6689e3e816a1cf4aeaf1b947006c06736499ef","to":"0x319b69888b0d11cec22caa5034e25fffbdc88421","transactionIndex":"0x0","v":"0x2734","value":"0x0","contractAddress":null,"cumulativeGasUsed":"0x1d421","daFee":"0x0","daGasPrice":"0x0","daGasUsed":"0x12c","gasUsed":"0x1d421","l1Fee":"0x19709d787180660","l1FeeScalar":"1","l1GasPrice":"0x38a987f04864","l1GasUsed":"0x72f","logs":[{"address":"0x78c1b0c915c4faa5fffa6cabf0219da63d7f4cb8","blockHash":"0x25b12df4a8c4ef3b832daf8b9acfbda4db238d75feded76f9dbcbd16ffa83b80","blockNumber":"0xd002cf","data":"0x00000000000000000000000000000000000000000000000023fcf35b54b1a1c2","logIndex":"0x0","removed":false,"topics":["0xddf252ad1be2c89b69c2b068fc378daa952ba7f163c4a11628f55a4df523b3ef","0x000000000000000000000000d08c50f7e69e9aeb2867deff4a8053d9a855e26a","0x00000000000000000000000017abf2c2b945e8b66ee192c6502f4e19fb750a8d"],"transactionHash":"0xdac2f9a14969cad6a86749cbf21a108970f2e4877d828903d449b7c31c994633","transactionIndex":"0x0"},{"address":"0x201eba5cc46d216ce6dc03f6a759e8e766e956ae","blockHash":"0x25b12df4a8c4ef3b832daf8b9acfbda4db238d75feded76f9dbcbd16ffa83b80","blockNumber":"0xd002cf","data":"0x00000000000000000000000000000000000000000000000000000000000ecd10","logIndex":"0x1","removed":false,"topics":["0xddf252ad1be2c89b69c2b068fc378daa952ba7f163c4a11628f55a4df523b3ef","0x00000000000000000000000017abf2c2b945e8b66ee192c6502f4e19fb750a8d","0x000000000000000000000000d08c50f7e69e9aeb2867deff4a8053d9a855e26a"],"transactionHash":"0xdac2f9a14969cad6a86749cbf21a108970f2e4877d828903d449b7c31c994633","transactionIndex":"0x0"},{"address":"0x201eba5cc46d216ce6dc03f6a759e8e766e956ae","blockHash":"0x25b12df4a8c4ef3b832daf8b9acfbda4db238d75feded76f9dbcbd16ffa83b80","blockNumber":"0xd002cf","data":"0xffffffffffffffffffffffffffffffffffffffffffffffffffffffffb3edf86f","logIndex":"0x2","removed":false,"topics":["0x8c5be1e5ebec7d5bd14f71427d1e84f3dd0314c0f7b2291e5b200ac8c7c3b925","0x00000000000000000000000017abf2c2b945e8b66ee192c6502f4e19fb750a8d","0x000000000000000000000000319b69888b0d11cec22caa5034e25fffbdc88421"],"transactionHash":"0xdac2f9a14969cad6a86749cbf21a108970f2e4877d828903d449b7c31c994633","transactionIndex":"0x0"},{"address":"0xd08c50f7e69e9aeb2867deff4a8053d9a855e26a","blockHash":"0x25b12df4a8c4ef3b832daf8b9acfbda4db238d75feded76f9dbcbd16ffa83b80","blockNumber":"0xd002cf","data":"0x00000000000000000000000000000000000000000000000000000000000ecd10ffffffffffffffffffffffffffffffffffffffffffffffffdc030ca4ab4e5e3e000000000000000000000000000000000018f45f519abc0d2b12ebc9877b6fd3000000000000000000000000000000000000000000000000006787d5d3ab8a8c0000000000000000000000000000000000000000000000000000000000045dd200000000000000000000000000000000000000000000000000000000000000a40000000000000000000000000000000000000000000000000000000000000000","logIndex":"0x3","removed":false,"topics":["0x19b47279256b2a23a1665c810c8d55a1758940ee09377d4f8d26497a3577dc83","0x000000000000000000000000319b69888b0d11cec22caa5034e25fffbdc88421","0x00000000000000000000000017abf2c2b945e8b66ee192c6502f4e19fb750a8d"],"transactionHash":"0xdac2f9a14969cad6a86749cbf21a108970f2e4877d828903d449b7c31c994633","transactionIndex":"0x0"}],"logsBloom":"0x00000000000000000000000000000000000000000001008800000000000000000004000000000000000000000002000000000000000000000000000000200000140000000040000800000008000000000000008000042000000200000000000000000000000000000000000000000080000000000000000000000010000000000000000000000000000000000000000800100000000000000000000000000040020000000000000000000000000200000000000001000000000000000000000000000002000000000000000000000000000000000000000000000010000000000010100000000000000000000000000000000000000000000000000000000000","status":"0x1","transactionHash":"0xdac2f9a14969cad6a86749cbf21a108970f2e4877d828903d449b7c31c994633"}}}