{"block":{"difficulty":"0x2","extraData":"0xd98301090a846765746889676f312e31352e3133856c696e7578000000000000d14f69242f0e490490fd81141f1eaa1adb23ff725f050afe69fd784c2213180652628ac69a722c9d510a4572183c429a902f4e9c5721db2fade6de0f2e8ee2e300","gasLimit":"0x1c9c380","gasUsed":"0xffee","hash":"0x6595b73ac01a006161ffe636dd0d891a994879f7b7e806045ccc97b6db892519","logsBloom":"0x00000000000000000000000000000000000000000000000000080000000000000000000000000000000000000000000000000000002000000000000000000000000000000000000000000088000000000000004000000000000000000000000000000000000000000000000000000000000000100000000000000010000000000000000000000000000000000000000000000000000000000000000000000000000000000000000000000000000000000000000000000000000000000000000000400002000000000000000200000000008000000000000000000000000000000000000010000000000000000000000000000000000000000000000000000000","miner":"0x0000000000000000000000000000000000000000","mixHash":"0x0000000000000000000000000000000000000000000000000000000000000000","nonce":"0x0000000000000000","number":"0xd00361","parentHash":"0xae62067d7523602d755e2159de04afa8281aed4bbaf5b2714dd4ea78039e61d7","receiptsRoot":"0x2e7c3a9bfbd3aca91b49b3cb24977430dfba8b8218acb489ba64e3c8373105cd","sha3Uncles":"0x1dcc4de8dec75d7aab85b567b6ccd41ad312451b948a7413f0a142fd40d49347","size":"0x315","stateRoot":"0x0680be303f6181b516d01f538828b529f8e3c7983d4ee36078e447d7c516d097","timestamp":"0x65243e80","totalDifficulty":"0x1a006c3","transactions":[{"blockHash":"0x6595b73ac01a006161ffe636dd0d891a994879f7b7e806045ccc97b6db892519","blockNumber":"0xd00361","from":"0xf89d7b9c864f589bbf53a82105107622b35eaa40","gas":"0x15f90","gasPrice":"0x2faf080","hash":"0x8ff4c292a0cc59a0b002c958193563f9105bbec4eec2417f18a44227e38aa41f","index":"0xd00360","input":"0xa9059cbb000000000000000000000000b7f35f92cba645845209f908afbec86de38118a1000000000000000000000000000000000000000000000000000000000044aa20","l1BlockNumber":"0x11774e8","l1Timestamp":"0x65243e80","l1TxOrigin":null,"nonce":"0x161f1","queueIndex":null,"queueOrigin":"sequencer","r":"0x7d89820777f38bc260659b8c1ddf8978e1addb871e60fad37eb288038aecbf92","rawTransaction":"0xf8ae830161f18402faf08083015f909409bc4e0d864854c6afb6eb9a9cdf58ac190d0df980b844a9059cbb000000000000000000000000b7f35f92cba645845209f908afbec86de38118a1000000000000000000000000000000000000000000000000000000000044aa20822734a07d89820777f38bc260659b8c1ddf8978e1addb871e60fad37eb288038aecbf92a0187109fcb197ffc6ed109596777819b5d7c8ccbd8ed923ca68251fc198e7f16b","s":"0x187109fcb197ffc6ed109596777819b5d7c8ccbd8ed923ca68251fc198e7f16b","to":"0x09bc4e0d864854c6afb6eb9a9cdf58ac190d0df9","transactionIndex":"0x0","v":"0x2734","value":"0x0"}],"transactionsRoot":"0x5458812b51720f1440475bf5d9795c113231ab84690d0436dcb7972883cf715c","uncles":[]},"receipts":{"0x8ff4c292a0cc59a0b002c958193563f9105bbec4eec2417f18a44227e38aa41f":{"blockHash":"0x6595b73ac01a006161ffe636dd0d891a994879f7b7e806045ccc97b6db892519","blockNumber":"0xd00361","from":"0xf89d7b9c864f589bbf53a82105107622b35eaa40","gas":"0x15f90","gasPrice":"0x2faf080","hash":"0x8ff4c292a0cc59a0b002c958193563f9105bbec4eec2417f18a44227e38aa41f","index":"0xd00360","input":"0xa9059cbb000000000000000000000000b7f35f92cba645845209f908afbec86de38118a1000000000000000000000000000000000000000000000000000000000044aa20","l1BlockNumber":"0x11774e8","l1Timestamp":"0x65243e80","l1TxOrigin":null,"nonce":"0x161f1","queueIndex":null,"queueOrigin":"sequencer","r":"0x7d89820777f38bc260659b8c1ddf8978e1addb871e60fad37eb288038aecbf92","rawTransaction":"0xf8ae830161f18402faf08083015f909409bc4e0d864854c6afb6eb9a9cdf58ac190d0df980b844a9059cbb000000000000000000000000b7f35f92cba645845209f908afbec86de38118a1000000000000000000000000000000000000000000000000000000000044aa20822734a07d89820777f38bc260659b8c1ddf8978e1addb871e60fad37eb288038aecbf92a0187109fcb197ffc6ed109596777819b5d7c8ccbd8ed923ca68251fc198e7f16b","s":"0x187109fcb197ffc6ed109596777819b5d7c8ccbd8ed923ca68251fc198e7f16b","to":"0x09bc4e0d864854c6afb6eb9a9cdf58ac190d0df9","transactionIndex":"0x0","v":"0x2734","value":"0x0","contractAddress":null,"cumulativeGasUsed":"0xffee","daFee":"0x0","daGasPrice":"0x0","daGasUsed":"0x6b","gasUsed":"0xffee","l1Fee":"0x19709d787180660","l1FeeScalar":"1","l1GasPrice":"0x38a987f04864","l1GasUsed":"0x72f","logs":[{"address":"0x09bc4e0d864854c6afb6eb9a9cdf58ac190d0df9","blockHash":"0x6595b73ac01a006161ffe636dd0d891a994879f7b7e806045ccc97b6db892519","blockNumber":"0xd00361","data":"0x000000000000000000000000000000000000000000000000000000000044aa20","logIndex":"0x0","removed":false,"topics":["0xddf252ad1be2c89b69c2b068fc378daa952ba7f163c4a11628f55a4df523b3ef","0x000000000000000000000000f89d7b9c864f589bbf53a82105107622b35eaa40","0x000000000000000000000000b7f35f92cba645845209f908afbec86de38118a1"],"transactionHash":"0x8ff4c292a0cc59a0b002c958193563f9105bbec4eec2417f18a44227e38aa41f","transactionIndex":"0x0"}],"logsBloom":"0x00000000000000000000000000000000000000000000000000080000000000000000000000000000000000000000000000000000002000000000000000000000000000000000000000000088000000000000004000000000000000000000000000000000000000000000000000000000000000100000000000000010000000000000000000000000000000000000000000000000000000000000000000000000000000000000000000000000000000000000000000000000000000000000000000400002000000000000000200000000008000000000000000000000000000000000000010000000000000000000000000000000000000000000000000000000","status":"0x1","transactionHash":"0x8ff4c292a0cc59a0b002c958193563f9105bbec4eec2417f18a44227e38aa41f"}}}