{"block":{"difficulty":"0x2","extraData":"0xd98301090a846765746889676f312e31352e3133856c696e757800000000000051186dc6d047f9d52c1166332f557575e67d72e6941ebae237fea8c0703242b54fa6b0a2cbba8c871cae6cbb1b08cda17601d3299bf12c1dd57e956a67802b0901","gasLimit":"0x1c9c380","gasUsed":"0x1e3c7","hash":"0x29e4d11aec609c54eb99ac676c228b502813eee7672397613f5ae9b9b55dd972","logsBloom":"0x00000000000000000000000000000000000000000000000000000000000000000000000000000000000000000000000000000000000000000000000000000000000000000000000000000000000000000000000000000000000000000000000000000000000000000000000000000000000000000000000000000000000000000000000000000000000000000000000000000000000000000000000000000000000000000000000000000000000000000000000000000000000000000000000000000000000000000000000000000000000000000000000000000000000000000000000000000000000000000000000000000000000000000000000000000000","miner":"0x0000000000000000000000000000000000000000","mixHash":"0x0000000000000000000000000000000000000000000000000000000000000000","nonce":"0x0000000000000000","number":"0xd000f7","parentHash":"0xdebe860952ad1f22348dd6d00518abcf5d341cbdb62f7c32aac10ec99fcdae24","receiptsRoot":"0xbd80b4b59c5c408a2d9fded2f92ba2c374eeef391edf1e8fa793989696411205","sha3Uncles":"0x1dcc4de8dec75d7aab85b567b6ccd41ad312451b948a7413f0a142fd40d49347","size":"0x3d8","stateRoot":"0x210143afbaefeb7baf1f95d5733940124874c6d3979ec5d41aaa7c1d1ae5d748","timestamp":"0x65243d3f","totalDifficulty":"0x1a001ef","transactions":[{"blockHash":"0x29e4d11aec609c54eb99ac676c228b502813eee7672397613f5ae9b9b55dd972","blockNumber":"0xd000f7","from":"0x645a65e1084a1f39042802aa81baf87c86ff7fce","gas":"0x1e96c","gasPrice":"0x2faf080","hash":"0x4305ac4d666cf5c836d23891ea72b85788a6b9e87808a51601025cc9f97cff0a","index":"0xd000f6","input":"0x414bf389000000000000000000000000deaddeaddeaddeaddeaddeaddeaddeaddead1111000000000000000000000000201eba5cc46d216ce6dc03f6a759e8e766e956ae00000000000000000000000000000000000000000000000000000000000001f4000000000000000000000000645a65e1084a1f39042802aa81baf87c86ff7fce0000000000000000000000000000000000000000000000000000000065243d5c0000000000000000000000000000000000000000000000000002c0dbbfb3700000000000000000000000000000000000000000000000000000000000001256a80000000000000000000000000000000000000000000000000000000000000000","l1BlockNumber":"0x11774cd","l1Timestamp":"0x65243d3f","l1TxOrigin":null,"nonce":"0x847","queueIndex":null,"queueOrigin":"sequencer","r":"0x94ac5ddebd451450b8671b420c90d2d97ea0657f605709220fd284ac089364d0","rawTransaction":"0xf9016e8208478402faf0808301e96c94319b69888b0d11cec22caa5034e25fffbdc8842180b90104414bf389000000000000000000000000deaddeaddeaddeaddeaddeaddeaddeaddead1111000000000000000000000000201eba5cc46d216ce6dc03f6a759e8e766e956ae00000000000000000000000000000000000000000000000000000000000001f4000000000000000000000000645a65e1084a1f39042802aa81baf87c86ff7fce0000000000000000000000000000000000000000000000000000000065243d5c0000000000000000000000000000000000000000000000000002c0dbbfb3700000000000000000000000000000000000000000000000000000000000001256a80000000000000000000000000000000000000000000000000000000000000000822734a094ac5ddebd451450b8671b420c90d2d97ea0657f605709220fd284ac089364d0a0091e5c9a1e3fd54abdf245e9bd4c487a4fba8aab79c72b00b1e85f949c2c9f85","s":"0x91e5c9a1e3fd54abdf245e9bd4c487a4fba8aab79c72b00b1e85f949c2c9f85","to":"0x319b69888b0d11cec22caa5034e25fffbdc88421","transactionIndex":"0x0","v":"0x2734","value":"0x0"}],"transactionsRoot":"0x78ef69cbe2cffadad590b6f40278b09ff5c1563ed0c9567b116ff2d618a439b6","uncles":[]},"receipts":{"0x4305ac4d666cf5c836d23891ea72b85788a6b9e87808a51601025cc9f97cff0a":{"blockHash":"0x29e4d11aec609c54eb99ac676c228b502813eee7672397613f5ae9b9b55dd972","blockNumber":"0xd000f7","from":"0x645a65e1084a1f39042802aa81baf87c86ff7fce","gas":"0x1e96c","gasPrice":"0x2faf080","hash":"0x4305ac4d666cf5c836d23891ea72b85788a6b9e87808a51601025cc9f97cff0a","index":"0xd000f6","input":"0x414bf389000000000000000000000000deaddeaddeaddeaddeaddeaddeaddeaddead1111000000000000000000000000201eba5cc46d216ce6dc03f6a759e8e766e956ae00000000000000000000000000000000000000000000000000000000000001f4000000000000000000000000645a65e1084a1f39042802aa81baf87c86ff7fce0000000000000000000000000000000000000000000000000000000065243d5c0000000000000000000000000000000000000000000000000002c0dbbfb3700000000000000000000000000000000000000000000000000000000000001256a80000000000000000000000000000000000000000000000000000000000000000","l1BlockNumber":"0x11774cd","l1Timestamp":"0x65243d3f","l1TxOrigin":null,"nonce":"0x847","queueIndex":null,"queueOrigin":"sequencer","r":"0x94ac5ddebd451450b8671b420c90d2d97ea0657f605709220fd284ac089364d0","rawTransaction":"0xf9016e8208478402faf0808301e96c94319b69888b0d11cec22caa5034e25fffbdc8842180b90104414bf389000000000000000000000000deaddeaddeaddeaddeaddeaddeaddeaddead1111000000000000000000000000201eba5cc46d216ce6dc03f6a759e8e766e956ae00000000000000000000000000000000000000000000000000000000000001f4000000000000000000000000645a65e1084a1f39042802aa81baf87c86ff7fce0000000000000000000000000000000000000000000000000000000065243d5c0000000000000000000000000000000000000000000000000002c0dbbfb3700000000000000000000000000000000000000000000000000000000000001256a80000000000000000000000000000000000000000000000000000000000000000822734a094ac5ddebd451450b8671b420c90d2d97ea0657f605709220fd284ac089364d0a0091e5c9a1e3fd54abdf245e9bd4c487a4fba8aab79c72b00b1e85f949c2c9f85","s":"0x91e5c9a1e3fd54abdf245e9bd4c487a4fba8aab79c72b00b1e85f949c2c9f85","to":"0x319b69888b0d11cec22caa5034e25fffbdc88421","transactionIndex":"0x0","v":"0x2734","value":"0x0","contractAddress":null,"cumulativeGasUsed":"0x1e3c7","daFee":"0x0","daGasPrice":"0x0","daGasUsed":"0x12c","gasUsed":"0x1e3c7","l1Fee":"0x1a09f6380cb9fe0","l1FeeScalar":"1","l1GasPrice":"0x39ff1464e55c","l1GasUsed":"0x72f","logs":[],"logsBloom":"0x00000000000000000000000000000000000000000000000000000000000000000000000000000000000000000000000000000000000000000000000000000000000000000000000000000000000000000000000000000000000000000000000000000000000000000000000000000000000000000000000000000000000000000000000000000000000000000000000000000000000000000000000000000000000000000000000000000000000000000000000000000000000000000000000000000000000000000000000000000000000000000000000000000000000000000000000000000000000000000000000000000000000000000000000000000000","status":"0x0","transactionHash":"0x4305ac4d666cf5c836d23891ea72b85788a6b9e87808a51601025cc9f97cff0a"}}}