{"block":{"difficulty":"0x2","extraData":"0xd98301090a846765746889676f312e31352e3133856c696e7578000000000000122d2a61210b42d73c42e2eefa5f0a37d84e7d78ba6d643add62487e354be0655c2906a8ecd9125f9b1b65042d0e7115cf20e0220afdb532b518e9bdf9a8d0ac00","gasLimit":"0x1c9c380","gasUsed":"0x1e3c9","hash":"0x9e9db73526bc097ed733b199e8fc2a2877dcc7b7dc5794a05fef70140a2131b6","logsBloom":"0x00000000000000000000000000000000000000000000000000000000000000000000000000000000000000000000000000000000000000000000000000000000000000000000000000000000000000000000000000000000000000000000000000000000000000000000000000000000000000000000000000000000000000000000000000000000000000000000000000000000000000000000000000000000000000000000000000000000000000000000000000000000000000000000000000000000000000000000000000000000000000000000000000000000000000000000000000000000000000000000000000000000000000000000000000000000","miner":"0x0000000000000000000000000000000000000000","mixHash":"0x0000000000000000000000000000000000000000000000000000000000000000","nonce":"0x0000000000000000","number":"0xd00385","parentHash":"0x27a18da9e4697a2e5fbf2c3e938649cb96db4437f1e1373b14d2abe2dfb6f09e","receiptsRoot":"0xc23c7b3032a5dd464d9107b8e5933162a9904871c5dc0fb5bc09b3f1c84b0e39","sha3Uncles":"0x1dcc4de8dec75d7aab85b567b6ccd41ad312451b948a7413f0a142fd40d49347","size":"0x3d8","stateRoot":"0x8dbb28f96cab7423a7792dcc2de5757a2db4135de631a21fe0af8befe89a012c","timestamp":"0x65243e8f","totalDifficulty":"0x1a0070b","transactions":[{"blockHash":"0x9e9db73526bc097ed733b199e8fc2a2877dcc7b7dc5794a05fef70140a2131b6","blockNumber":"0xd00385","from":"0x56b017cee47d4a5d2e27fa7d9c2858a94793ea3e","gas":"0x1e96e","gasPrice":"0x2faf080","hash":"0x115e767451c0da4e690b185327d32cc14fbf2a723c8b9005f5c49513b2c4c671","index":"0xd00384","input":"0x414bf389000000000000000000000000deaddeaddeaddeaddeaddeaddeaddeaddead1111000000000000000000000000201eba5cc46d216ce6dc03f6a759e8e766e956ae00000000000000000000000000000000000000000000000000000000000001f400000000000000000000000056b017cee47d4a5d2e27fa7d9c2858a94793ea3e0000000000000000000000000000000000000000000000000000000065243eac0000000000000000000000000000000000000000000000000001599ba503c0000000000000000000000000000000000000000000000000000000000000090e090000000000000000000000000000000000000000000000000000000000000000","l1BlockNumber":"0x11774e9","l1Timestamp":"0x65243e8f","l1TxOrigin":null,"nonce":"0x863","queueIndex":null,"queueOrigin":"sequencer","r":"0xf332051c295326b9bdb31bc34df8893f44d4692675e5a192cbecab883a668abe","rawTransaction":"0xf9016e8208638402faf0808301e96e94319b69888b0d11cec22caa5034e25fffbdc8842180b90104414bf389000000000000000000000000deaddeaddeaddeaddeaddeaddeaddeaddead1111000000000000000000000000201eba5cc46d216ce6dc03f6a759e8e766e956ae00000000000000000000000000000000000000000000000000000000000001f400000000000000000000000056b017cee47d4a5d2e27fa7d9c2858a94793ea3e0000000000000000000000000000000000000000000000000000000065243eac0000000000000000000000000000000000000000000000000001599ba503c0000000000000000000000000000000000000000000000000000000000000090e090000000000000000000000000000000000000000000000000000000000000000822734a0f332051c295326b9bdb31bc34df8893f44d4692675e5a192cbecab883a668abea06dd819134cd528e1145a9e01fcb4a479a823aaa56b75e9cb69efb62b32d08fb3","s":"0x6dd819134cd528e1145a9e01fcb4a479a823aaa56b75e9cb69efb62b32d08fb3","to":"0x319b69888b0d11cec22caa5034e25fffbdc88421","transactionIndex":"0x0","v":"0x2734","value":"0x0"}],"transactionsRoot":"0x07e174f46fe053f9da1428b860289450965d263b468520f7c1bf9bfa639a6e29","uncles":[]},"receipts":{"0x115e767451c0da4e690b185327d32cc14fbf2a723c8b9005f5c49513b2c4c671":{"blockHash":"0x9e9db73526bc097ed733b199e8fc2a2877dcc7b7dc5794a05fef70140a2131b6","blockNumber":"0xd00385","from":"0x56b017cee47d4a5d2e27fa7d9c2858a94793ea3e","gas":"0x1e96e","gasPrice":"0x2faf080","hash":"0x115e767451c0da4e690b185327d32cc14fbf2a723c8b9005f5c49513b2c4c671","index":"0xd00384","input":"0x414bf389000000000000000000000000deaddeaddeaddeaddeaddeaddeaddeaddead1111000000000000000000000000201eba5cc46d216ce6dc03f6a759e8e766e956ae00000000000000000000000000000000000000000000000000000000000001f400000000000000000000000056b017cee47d4a5d2e27fa7d9c2858a94793ea3e0000000000000000000000000000000000000000000000000000000065243eac0000000000000000000000000000000000000000000000000001599ba503c0000000000000000000000000000000000000000000000000000000000000090e090000000000000000000000000000000000000000000000000000000000000000","l1BlockNumber":"0x11774e9","l1Timestamp":"0x65243e8f","l1TxOrigin":null,"nonce":"0x863","queueIndex":null,"queueOrigin":"sequencer","r":"0xf332051c295326b9bdb31bc34df8893f44d4692675e5a192cbecab883a668abe","rawTransaction":"0xf9016e8208638402faf0808301e96e94319b69888b0d11cec22caa5034e25fffbdc8842180b90104414bf389000000000000000000000000deaddeaddeaddeaddeaddeaddeaddeaddead1111000000000000000000000000201eba5cc46d216ce6dc03f6a759e8e766e956ae00000000000000000000000000000000000000000000000000000000000001f400000000000000000000000056b017cee47d4a5d2e27fa7d9c2858a94793ea3e0000000000000000000000000000000000000000000000000000000065243eac0000000000000000000000000000000000000000000000000001599ba503c0000000000000000000000000000000000000000000000000000000000000090e090000000000000000000000000000000000000000000000000000000000000000822734a0f332051c295326b9bdb31bc34df8893f44d4692675e5a192cbecab883a668abea06dd819134cd528e1145a9e01fcb4a479a823aaa56b75e9cb69efb62b32d08fb3","s":"0x6dd819134cd528e1145a9e01fcb4a479a823aaa56b75e9cb69efb62b32d08fb3","to":"0x319b69888b0d11cec22caa5034e25fffbdc88421","transactionIndex":"0x0","v":"0x2734","value":"0x0","contractAddress":null,"cumulativeGasUsed":"0x1e3c9","daFee":"0x0","daGasPrice":"0x0","daGasUsed":"0x12c","gasUsed":"0x1e3c9","l1Fee":"0x19709d787180660","l1FeeScalar":"1","l1GasPrice":"0x38a987f04864","l1GasUsed":"0x72f","logs":[],"logsBloom":"0x00000000000000000000000000000000000000000000000000000000000000000000000000000000000000000000000000000000000000000000000000000000000000000000000000000000000000000000000000000000000000000000000000000000000000000000000000000000000000000000000000000000000000000000000000000000000000000000000000000000000000000000000000000000000000000000000000000000000000000000000000000000000000000000000000000000000000000000000000000000000000000000000000000000000000000000000000000000000000000000000000000000000000000000000000000000","status":"0x0","transactionHash":"0x115e767451c0da4e690b185327d32cc14fbf2a723c8b9005f5c49513b2c4c671"}}}