{"block":{"difficulty":"0x2","extraData":"0xd98301090a846765746889676f312e31352e3133856c696e7578000000000000645d70808ee381fbb9c5e11c19f275122f88de157d9cfc2ac70f61ca0374260b0809057372713ee37d1162e55d898319fbcd55d1f07f416998649de5dfc84ff300","gasLimit":"0x1c9c380","gasUsed":"0x2476f","hash":"0xb5b22ebb6e3204860a47e7b18bc3b253d5db65ff8684e7542882430259b12ad9","logsBloom":"0x00000000000000000000000000800000000000000001008800000000000000000004000000000000000000000002000000000000000000000000000000200000140000000040000000000008000000000000008012042000000200000000000000000000000000000000000000000080000000000000000000000010000000000000000000000000000000000000000000100000000000000000000000000040020000000000000000000000000200000000000001000000000000000000000000000002000000000000000000000000000000000000000000000010000000000010000000000000000000000000000000000000000000000000000000000000","miner":"0x0000000000000000000000000000000000000000","mixHash":"0x0000000000000000000000000000000000000000000000000000000000000000","nonce":"0x0000000000000000","number":"0xcff383","parentHash":"0x7d2a19fe26df5addcdf96b6901c865726e91b403c1b5e309f4457dc7a3f83b85","receiptsRoot":"0x9942bbe273e9484db88a029d13484c8684a8d640918542c8e212a75cabb1bd7a","sha3Uncles":"0x1dcc4de8dec75d7aab85b567b6ccd41ad312451b948a7413f0a142fd40d49347","size":"0x3d8","stateRoot":"0xbc95c2bb300935db97551c8fd1c5eabe2e918ffa7d49f829773e5cc0df9c672c","timestamp":"0x6524373e","totalDifficulty":"0x19fe707","transactions":[{"blockHash":"0xb5b22ebb6e3204860a47e7b18bc3b253d5db65ff8684e7542882430259b12ad9","blockNumber":"0xcff383","from":"0x2bb2e09fbf55bb8df79f25ce501645e96ba61fd1","gas":"0x2609d","gasPrice":"0x2faf080","hash":"0xea3a2ccaf83f37f5925ee225f7dc81e54b675ea33ff5e2415e0cd60b67773093","index":"0xcff382","input":"0x414bf38900000000000000000000000078c1b0c915c4faa5fffa6cabf0219da63d7f4cb8000000000000000000000000201eba5cc46d216ce6dc03f6a759e8e766e956ae00000000000000000000000000000000000000000000000000000000000001f40000000000000000000000002bb2e09fbf55bb8df79f25ce501645e96ba61fd1000000000000000000000000000000000000000000000000000000006524375f00000000000000000000000000000000000000000000000021dc9f1283f4000000000000000000000000000000000000000000000000000000000000000d8ecf0000000000000000000000000000000000000000000000000000000000000000","l1BlockNumber":"0x117744e","l1Timestamp":"0x6524373e","l1TxOrigin":null,"nonce":"0x1101","queueIndex":null,"queueOrigin":"sequencer","r":"0x43c6fabbfe1c7031990f505e3e1d61ae2e29de05a2f24c750ca267f347034de6","rawTransaction":"0xf9016e8211018402faf0808302609d94319b69888b0d11cec22caa5034e25fffbdc8842180b90104414bf38900000000000000000000000078c1b0c915c4faa5fffa6cabf0219da63d7f4cb8000000000000000000000000201eba5cc46d216ce6dc03f6a759e8e766e956ae00000000000000000000000000000000000000000000000000000000000001f40000000000000000000000002bb2e09fbf55bb8df79f25ce501645e96ba61fd1000000000000000000000000000000000000000000000000000000006524375f00000000000000000000000000000000000000000000000021dc9f1283f4000000000000000000000000000000000000000000000000000000000000000d8ecf0000000000000000000000000000000000000000000000000000000000000000822733a043c6fabbfe1c7031990f505e3e1d61ae2e29de05a2f24c750ca267f347034de6a0609b61ad8c67603ae94a3f7246e7485a6e60a2a88927b9301ea376a4d8e054be","s":"0x609b61ad8c67603ae94a3f7246e7485a6e60a2a88927b9301ea376a4d8e054be","to":"0x319b69888b0d11cec22caa5034e25fffbdc88421","transactionIndex":"0x0","v":"0x2733","value":"0x0"}],"transactionsRoot":"0x0ccd95f54e882171b3ebf46079fcc6b2e53e037ec4419916e520ad5a1d316980","uncles":[]},"receipts":{"0xea3a2ccaf83f37f5925ee225f7dc81e54b675ea33ff5e2415e0cd60b67773093":{"blockHash":"0xb5b22ebb6e3204860a47e7b18bc3b253d5db65ff8684e7542882430259b12ad9","blockNumber":"0xcff383","from":"0x2bb2e09fbf55bb8df79f25ce501645e96ba61fd1","gas":"0x2609d","gasPrice":"0x2faf080","hash":"0xea3a2ccaf83f37f5925ee225f7dc81e54b675ea33ff5e2415e0cd60b67773093","index":"0xcff382","input":"0x414bf38900000000000000000000000078c1b0c915c4faa5fffa6cabf0219da63d7f4cb8000000000000000000000000201eba5cc46d216ce6dc03f6a759e8e766e956ae00000000000000000000000000000000000000000000000000000000000001f40000000000000000000000002bb2e09fbf55bb8df79f25ce501645e96ba61fd1000000000000000000000000000000000000000000000000000000006524375f00000000000000000000000000000000000000000000000021dc9f1283f4000000000000000000000000000000000000000000000000000000000000000d8ecf0000000000000000000000000000000000000000000000000000000000000000","l1BlockNumber":"0x117744e","l1Timestamp":"0x6524373e","l1TxOrigin":null,"nonce":"0x1101","queueIndex":null,"queueOrigin":"sequencer","r":"0x43c6fabbfe1c7031990f505e3e1d61ae2e29de05a2f24c750ca267f347034de6","rawTransaction":"0xf9016e8211018402faf0808302609d94319b69888b0d11cec22caa5034e25fffbdc8842180b90104414bf38900000000000000000000000078c1b0c915c4faa5fffa6cabf0219da63d7f4cb8000000000000000000000000201eba5cc46d216ce6dc03f6a759e8e766e956ae00000000000000000000000000000000000000000000000000000000000001f40000000000000000000000002bb2e09fbf55bb8df79f25ce501645e96ba61fd1000000000000000000000000000000000000000000000000000000006524375f00000000000000000000000000000000000000000000000021dc9f1283f4000000000000000000000000000000000000000000000000000000000000000d8ecf0000000000000000000000000000000000000000000000000000000000000000822733a043c6fabbfe1c7031990f505e3e1d61ae2e29de05a2f24c750ca267f347034de6a0609b61ad8c67603ae94a3f7246e7485a6e60a2a88927b9301ea376a4d8e054be","s":"0x609b61ad8c67603ae94a3f7246e7485a6e60a2a88927b9301ea376a4d8e054be","to":"0x319b69888b0d11cec22caa5034e25fffbdc88421","transactionIndex":"0x0","v":"0x2733","value":"0x0","contractAddress":null,"cumulativeGasUsed":"0x2476f","daFee":"0x0","daGasPrice":"0x0","daGasUsed":"0x12c","gasUsed":"0x2476f","l1Fee":"0x1c5145ff7a866d0","l1FeeScalar":"1","l1GasPrice":"0x3f1249c65230","l1GasUsed":"0x72f","logs":[{"address":"0x201eba5cc46d216ce6dc03f6a759e8e766e956ae","blockHash":"0xb5b22ebb6e3204860a47e7b18bc3b253d5db65ff8684e7542882430259b12ad9","blockNumber":"0xcff383","data":"0x00000000000000000000000000000000000000000000000000000000000dd5a5","logIndex":"0x0","removed":false,"topics":["0xddf252ad1be2c89b69c2b068fc378daa952ba7f163c4a11628f55a4df523b3ef","0x000000000000000000000000d08c50f7e69e9aeb2867deff4a8053d9a855e26a","0x0000000000000000000000002bb2e09fbf55bb8df79f25ce501645e96ba61fd1"],"transactionHash":"0xea3a2ccaf83f37f5925ee225f7dc81e54b675ea33ff5e2415e0cd60b67773093","transactionIndex":"0x0"},{"address":"0x78c1b0c915c4faa5fffa6cabf0219da63d7f4cb8","blockHash":"0xb5b22ebb6e3204860a47e7b18bc3b253d5db65ff8684e7542882430259b12ad9","blockNumber":"0xcff383","data":"0x00000000000000000000000000000000000000000000000021dc9f1283f40000","logIndex":"0x1","removed":false,"topics":["0xddf252ad1be2c89b69c2b068fc378daa952ba7f163c4a11628f55a4df523b3ef","0x0000000000000000000000002bb2e09fbf55bb8df79f25ce501645e96ba61fd1","0x000000000000000000000000d08c50f7e69e9aeb2867deff4a8053d9a855e26a"],"transactionHash":"0xea3a2ccaf83f37f5925ee225f7dc81e54b675ea33ff5e2415e0cd60b67773093","transactionIndex":"0x0"},{"address":"0x78c1b0c915c4faa5fffa6cabf0219da63d7f4cb8","blockHash":"0xb5b22ebb6e3204860a47e7b18bc3b253d5db65ff8684e7542882430259b12ad9","blockNumber":"0xcff383","data":"0xffffffffffffffffffffffffffffffffffffffffffffffa8582c1705705fffff","logIndex":"0x2","removed":false,"topics":["0x8c5be1e5ebec7d5bd14f71427d1e84f3dd0314c0f7b2291e5b200ac8c7c3b925","0x0000000000000000000000002bb2e09fbf55bb8df79f25ce501645e96ba61fd1","0x000000000000000000000000319b69888b0d11cec22caa5034e25fffbdc88421"],"transactionHash":"0xea3a2ccaf83f37f5925ee225f7dc81e54b675ea33ff5e2415e0cd60b67773093","transactionIndex":"0x0"},{"address":"0xd08c50f7e69e9aeb2867deff4a8053d9a855e26a","blockHash":"0xb5b22ebb6e3204860a47e7b18bc3b253d5db65ff8684e7542882430259b12ad9","blockNumber":"0xcff383","data":"0xfffffffffffffffffffffffffffffffffffffffffffffffffffffffffff22a5b00000000000000000000000000000000000000000000000021dc9f1283f4000000000000000000000000000000000000001906c67c487824a7443aee40fc98f5000000000000000000000000000000000000000000000000004794f35730b3980000000000000000000000000000000000000000000000000000000000045e0c00000000000000000000000000000000000000000000000000000000000000000000000000000000000000000000000000000000000000000001794226a72000","logIndex":"0x3","removed":false,"topics":["0x19b47279256b2a23a1665c810c8d55a1758940ee09377d4f8d26497a3577dc83","0x000000000000000000000000319b69888b0d11cec22caa5034e25fffbdc88421","0x0000000000000000000000002bb2e09fbf55bb8df79f25ce501645e96ba61fd1"],"transactionHash":"0xea3a2ccaf83f37f5925ee225f7dc81e54b675ea33ff5e2415e0cd60b67773093","transactionIndex":"0x0"}],"logsBloom":"0x00000000000000000000000000800000000000000001008800000000000000000004000000000000000000000002000000000000000000000000000000200000140000000040000000000008000000000000008012042000000200000000000000000000000000000000000000000080000000000000000000000010000000000000000000000000000000000000000000100000000000000000000000000040020000000000000000000000000200000000000001000000000000000000000000000002000000000000000000000000000000000000000000000010000000000010000000000000000000000000000000000000000000000000000000000000","status":"0x1","transactionHash":"0xea3a2ccaf83f37f5925ee225f7dc81e54b675ea33ff5e2415e0cd60b67773093"}}}