{"block":{"difficulty":"0x2","extraData":"0xd98301090a846765746889676f312e31352e3133856c696e7578000000000000596f2681de2e10bb4b8b9e1667d7241a0a94f3b49e64695a23cf858e2c1122352a4893cda7a0cddeabb1cf6927c3b80a372210a353ed9df0d5e5e1627c2db65900","gasLimit":"0x1c9c380","gasUsed":"0x1d281","hash":"0x8df90f5b13646a9966f7ad8e16757121a13141cc0c3e9ba9b412ac88d2bad809","logsBloom":"0x00000000000000000000000000000000000000000001008800000000000000000004000000000000000000000002000000000000000000000000000000200000140000000040000000000008000000020000008000042000000200000000000000000000001000000000000000000080000000000000000000000010000000000000000000000000000000000000000000100000000000000000000000000140020000000000000000000000000200000000000001000000000000000000000000000002000000000000000000000000000000000000000000000010000000000010000000000000000000000000000000000000000000000000000000000000","miner":"0x0000000000000000000000000000000000000000","mixHash":"0x0000000000000000000000000000000000000000000000000000000000000000","nonce":"0x0000000000000000","number":"0xd0016e","parentHash":"0x3d78cba3a8e6e6b1afa225e139f6352d5ea598f19c0ae0e47f8929cd824ae7b7","receiptsRoot":"0xa779ccad222a2f21a1b5f3e6d6d9c70cb650359aaf46b2c4915b16e6b6c65046","sha3Uncles":"0x1dcc4de8dec75d7aab85b567b6ccd41ad312451b948a7413f0a142fd40d49347","size":"0x3d8","stateRoot":"0xbf851155c240953642e11390591d9133f981d070c2ac8556ea798d75bee566ee","timestamp":"0x65243d77","totalDifficulty":"0x1a002dd","transactions":[{"blockHash":"0x8df90f5b13646a9966f7ad8e16757121a13141cc0c3e9ba9b412ac88d2bad809","blockNumber":"0xd0016e","from":"0x8a8c687ff189664d14da4251a6b92ecee945086d","gas":"0x1e9d4","gasPrice":"0x2faf080","hash":"0xfe87216bff0eb7d6cebf4f227cd0d28b51a7e264dda27cb25559e0ae88eba97c","index":"0xd0016d","input":"0x414bf38900000000000000000000000078c1b0c915c4faa5fffa6cabf0219da63d7f4cb8000000000000000000000000201eba5cc46d216ce6dc03f6a759e8e766e956ae00000000000000000000000000000000000000000000000000000000000001f40000000000000000000000008a8c687ff189664d14da4251a6b92ecee945086d0000000000000000000000000000000000000000000000000000000065243d990000000000000000000000000000000000000000000000001c969715ed4e000000000000000000000000000000000000000000000000000000000000000b83580000000000000000000000000000000000000000000000000000000000000000","l1BlockNumber":"0x11774d3","l1Timestamp":"0x65243d77","l1TxOrigin":null,"nonce":"0xce4","queueIndex":null,"queueOrigin":"sequencer","r":"0x62f7139c17ffab008ffc3f5abcad8ac07a78383b87b5dc2b2072e7cc946b40f0","rawTransaction":"0xf9016e820ce48402faf0808301e9d494319b69888b0d11cec22caa5034e25fffbdc8842180b90104414bf38900000000000000000000000078c1b0c915c4faa5fffa6cabf0219da63d7f4cb8000000000000000000000000201eba5cc46d216ce6dc03f6a759e8e766e956ae00000000000000000000000000000000000000000000000000000000000001f40000000000000000000000008a8c687ff189664d14da4251a6b92ecee945086d0000000000000000000000000000000000000000000000000000000065243d990000000000000000000000000000000000000000000000001c969715ed4e000000000000000000000000000000000000000000000000000000000000000b83580000000000000000000000000000000000000000000000000000000000000000822733a062f7139c17ffab008ffc3f5abcad8ac07a78383b87b5dc2b2072e7cc946b40f0a005af95a5aa4b0afc7ebfb50f9d54b91dda272d261abe8b3d692a3c75ed11a636","s":"0x5af95a5aa4b0afc7ebfb50f9d54b91dda272d261abe8b3d692a3c75ed11a636","to":"0x319b69888b0d11cec22caa5034e25fffbdc88421","transactionIndex":"0x0","v":"0x2733","value":"0x0"}],"transactionsRoot":"0x2bdb9e3652c24d988f8d94bdfdc1000a97a05cd8b814b943e3e16cdd21577375","uncles":[]},"receipts":{"0xfe87216bff0eb7d6cebf4f227cd0d28b51a7e264dda27cb25559e0ae88eba97c":{"blockHash":"0x8df90f5b13646a9966f7ad8e16757121a13141cc0c3e9ba9b412ac88d2bad809","blockNumber":"0xd0016e","from":"0x8a8c687ff189664d14da4251a6b92ecee945086d","gas":"0x1e9d4","gasPrice":"0x2faf080","hash":"0xfe87216bff0eb7d6cebf4f227cd0d28b51a7e264dda27cb25559e0ae88eba97c","index":"0xd0016d","input":"0x414bf38900000000000000000000000078c1b0c915c4faa5fffa6cabf0219da63d7f4cb8000000000000000000000000201eba5cc46d216ce6dc03f6a759e8e766e956ae00000000000000000000000000000000000000000000000000000000000001f40000000000000000000000008a8c687ff189664d14da4251a6b92ecee945086d0000000000000000000000000000000000000000000000000000000065243d990000000000000000000000000000000000000000000000001c969715ed4e000000000000000000000000000000000000000000000000000000000000000b83580000000000000000000000000000000000000000000000000000000000000000","l1BlockNumber":"0x11774d3","l1Timestamp":"0x65243d77","l1TxOrigin":null,"nonce":"0xce4","queueIndex":null,"queueOrigin":"sequencer","r":"0x62f7139c17ffab008ffc3f5abcad8ac07a78383b87b5dc2b2072e7cc946b40f0","rawTransaction":"0xf9016e820ce48402faf0808301e9d494319b69888b0d11cec22caa5034e25fffbdc8842180b90104414bf38900000000000000000000000078c1b0c915c4faa5fffa6cabf0219da63d7f4cb8000000000000000000000000201eba5cc46d216ce6dc03f6a759e8e766e956ae00000000000000000000000000000000000000000000000000000000000001f40000000000000000000000008a8c687ff189664d14da4251a6b92ecee945086d0000000000000000000000000000000000000000000000000000000065243d990000000000000000000000000000000000000000000000001c969715ed4e000000000000000000000000000000000000000000000000000000000000000b83580000000000000000000000000000000000000000000000000000000000000000822733a062f7139c17ffab008ffc3f5abcad8ac07a78383b87b5dc2b2072e7cc946b40f0a005af95a5aa4b0afc7ebfb50f9d54b91dda272d261abe8b3d692a3c75ed11a636","s":"0x5af95a5aa4b0afc7ebfb50f9d54b91dda272d261abe8b3d692a3c75ed11a636","to":"0x319b69888b0d11cec22caa5034e25fffbdc88421","transactionIndex":"0x0","v":"0x2733","value":"0x0","contractAddress":null,"cumulativeGasUsed":"0x1d281","daFee":"0x0","daGasPrice":"0x0","daGasUsed":"0x12c","gasUsed":"0x1d281","l1Fee":"0x1a09f6380cb9fe0","l1FeeScalar":"1","l1GasPrice":"0x39ff1464e55c","l1GasUsed":"0x72f","logs":[{"address":"0x201eba5cc46d216ce6dc03f6a759e8e766e956ae","blockHash":"0x8df90f5b13646a9966f7ad8e16757121a13141cc0c3e9ba9b412ac88d2bad809","blockNumber":"0xd0016e","data":"0x00000000000000000000000000000000000000000000000000000000000bbf7f","logIndex":"0x0","removed":false,"topics":["0xddf252ad1be2c89b69c2b068fc378daa952ba7f163c4a11628f55a4df523b3ef","0x000000000000000000000000d08c50f7e69e9aeb2867deff4a8053d9a855e26a","0x0000000000000000000000008a8c687ff189664d14da4251a6b92ecee945086d"],"transactionHash":"0xfe87216bff0eb7d6cebf4f227cd0d28b51a7e264dda27cb25559e0ae88eba97c","transactionIndex":"0x0"},{"address":"0x78c1b0c915c4faa5fffa6cabf0219da63d7f4cb8","blockHash":"0x8df90f5b13646a9966f7ad8e16757121a13141cc0c3e9ba9b412ac88d2bad809","blockNumber":"0xd0016e","data":"0x0000000000000000000000000000000000000000000000001c969715ed4e0000","logIndex":"0x1","removed":false,"topics":["0xddf252ad1be2c89b69c2b068fc378daa952ba7f163c4a11628f55a4df523b3ef","0x0000000000000000000000008a8c687ff189664d14da4251a6b92ecee945086d","0x000000000000000000000000d08c50f7e69e9aeb2867deff4a8053d9a855e26a"],"transactionHash":"0xfe87216bff0eb7d6cebf4f227cd0d28b51a7e264dda27cb25559e0ae88eba97c","transactionIndex":"0x0"},{"address":"0x78c1b0c915c4faa5fffa6cabf0219da63d7f4cb8","blockHash":"0x8df90f5b13646a9966f7ad8e16757121a13141cc0c3e9ba9b412ac88d2bad809","blockNumber":"0xd0016e","data":"0xffffffffffffffffffffffffffffffffffffffffffffffc103ad07e77123ffff","logIndex":"0x2","removed":false,"topics":["0x8c5be1e5ebec7d5bd14f71427d1e84f3dd0314c0f7b2291e5b200ac8c7c3b925","0x0000000000000000000000008a8c687ff189664d14da4251a6b92ecee945086d","0x000000000000000000000000319b69888b0d11cec22caa5034e25fffbdc88421"],"transactionHash":"0xfe87216bff0eb7d6cebf4f227cd0d28b51a7e264dda27cb25559e0ae88eba97c","transactionIndex":"0x0"},{"address":"0xd08c50f7e69e9aeb2867deff4a8053d9a855e26a","blockHash":"0x8df90f5b13646a9966f7ad8e16757121a13141cc0c3e9ba9b412ac88d2bad809","blockNumber":"0xd0016e","data":"0xfffffffffffffffffffffffffffffffffffffffffffffffffffffffffff440810000000000000000000000000000000000000000000000001c969715ed4e0000000000000000000000000000000000000018f419bfbb814c1e65858efcc8f6e1000000000000000000000000000000000000000000000000006787d5d3ab8a8c0000000000000000000000000000000000000000000000000000000000045dd1000000000000000000000000000000000000000000000000000000000000000000000000000000000000000000000000000000000000000000013e814a99b000","logIndex":"0x3","removed":false,"topics":["0x19b47279256b2a23a1665c810c8d55a1758940ee09377d4f8d26497a3577dc83","0x000000000000000000000000319b69888b0d11cec22caa5034e25fffbdc88421","0x0000000000000000000000008a8c687ff189664d14da4251a6b92ecee945086d"],"transactionHash":"0xfe87216bff0eb7d6cebf4f227cd0d28b51a7e264dda27cb25559e0ae88eba97c","transactionIndex":"0x0"}],"logsBloom":"0x00000000000000000000000000000000000000000001008800000000000000000004000000000000000000000002000000000000000000000000000000200000140000000040000000000008000000020000008000042000000200000000000000000000001000000000000000000080000000000000000000000010000000000000000000000000000000000000000000100000000000000000000000000140020000000000000000000000000200000000000001000000000000000000000000000002000000000000000000000000000000000000000000000010000000000010000000000000000000000000000000000000000000000000000000000000","status":"0x1","transactionHash":"0xfe87216bff0eb7d6cebf4f227cd0d28b51a7e264dda27cb25559e0ae88eba97c"}}}