{"block":{"difficulty":"0x2","extraData":"0xd98301090a846765746889676f312e31352e3133856c696e7578000000000000bf767e379851c9c3623facfa84f7fd98fa33438d0b8b3686a07016c43d46fff57da6394f679f1cf45c96d3453707389ba6544dc6ef09dcb3cf882ce2deeabe2700","gasLimit":"0x1c9c380","gasUsed":"0x5208","hash":"0x7a9f9801c6105423c3f5b46b8ad1a46d4cc40f34ed1a1e39dcab46a53444633e","logsBloom":"0x00000000000000000000000000000000000000000000000000000000000000000000000000000000000000000000000000000000000000000000000000000000000000000000000000000000000000000000000000000000000000000000000000000000000000000000000000000000000000000000000000000000000000000000000000000000000000000000000000000000000000000000000000000000000000000000000000000000000000000000000000000000000000000000000000000000000000000000000000000000000000000000000000000000000000000000000000000000000000000000000000000000000000000000000000000000","miner":"0x0000000000000000000000000000000000000000","mixHash":"0x0000000000000000000000000000000000000000000000000000000000000000","nonce":"0x0000000000000000","number":"0xd00383","parentHash":"0x153957a9cdc48996933641431b3764abdac3bd3d8604c3eb67446a52de5bfe72","receiptsRoot":"0x056b23fbba480696b65fe5a59b8f2148a1299103c4f57df839233af2cf4ca2d2","sha3Uncles":"0x1dcc4de8dec75d7aab85b567b6ccd41ad312451b948a7413f0a142fd40d49347","size":"0x2d4","stateRoot":"0x11b4ab25bc302606cc0305eea51f4a41d9f337ee63e0a1384c445668376416e0","timestamp":"0x65243e8a","totalDifficulty":"0x1a00707","transactions":[{"blockHash":"0x7a9f9801c6105423c3f5b46b8ad1a46d4cc40f34ed1a1e39dcab46a53444633e","blockNumber":"0xd00383","from":"0x5383c545e4da91018f99eb7689af898f32979e42","gas":"0x5208","gasPrice":"0x2faf080","hash":"0x63f46f49fbeca43ecbf05b70a2abf063db6f1d48a4f2c34389f4c9aaf6d8ef0d","index":"0xd00382","input":"0x","l1BlockNumber":"0x11774e9","l1Timestamp":"0x65243e8a","l1TxOrigin":null,"nonce":"0x0","queueIndex":null,"queueOrigin":"sequencer","r":"0xe08c540a38e1214e38a92451e65e2c68453d0a26e6b6f69c78a12b28da61bce0","rawTransaction":"0xf86d808402faf0808252089448a0fe401278fd98cf4304dc09960ce23800d2f6881bc16d674ec8000080822733a0e08c540a38e1214e38a92451e65e2c68453d0a26e6b6f69c78a12b28da61bce0a028ffb7bfb87c7bc6c5184cd8045e4b8a2188c43fc93808a762068e1bb92be017","s":"0x28ffb7bfb87c7bc6c5184cd8045e4b8a2188c43fc93808a762068e1bb92be017","to":"0x48a0fe401278fd98cf4304dc09960ce23800d2f6","transactionIndex":"0x0","v":"0x2733","value":"0x1bc16d674ec80000"}],"transactionsRoot":"0x9c90c81cf4bce48d3072e208ce19c53dca69d0874c0a4d8b1def4647ba0e06c3","uncles":[]},"receipts":{"0x63f46f49fbeca43ecbf05b70a2abf063db6f1d48a4f2c34389f4c9aaf6d8ef0d":{"blockHash":"0x7a9f9801c6105423c3f5b46b8ad1a46d4cc40f34ed1a1e39dcab46a53444633e","blockNumber":"0xd00383","from":"0x5383c545e4da91018f99eb7689af898f32979e42","gas":"0x5208","gasPrice":"0x2faf080","hash":"0x63f46f49fbeca43ecbf05b70a2abf063db6f1d48a4f2c34389f4c9aaf6d8ef0d","index":"0xd00382","input":"0x","l1BlockNumber":"0x11774e9","l1Timestamp":"0x65243e8a","l1TxOrigin":null,"nonce":"0x0","queueIndex":null,"queueOrigin":"sequencer","r":"0xe08c540a38e1214e38a92451e65e2c68453d0a26e6b6f69c78a12b28da61bce0","rawTransaction":"0xf86d808402faf0808252089448a0fe401278fd98cf4304dc09960ce23800d2f6881bc16d674ec8000080822733a0e08c540a38e1214e38a92451e65e2c68453d0a26e6b6f69c78a12b28da61bce0a028ffb7bfb87c7bc6c5184cd8045e4b8a2188c43fc93808a762068e1bb92be017","s":"0x28ffb7bfb87c7bc6c5184cd8045e4b8a2188c43fc93808a762068e1bb92be017","to":"0x48a0fe401278fd98cf4304dc09960ce23800d2f6","transactionIndex":"0x0","v":"0x2733","value":"0x1bc16d674ec80000","contractAddress":null,"cumulativeGasUsed":"0x5208","daFee":"0x0","daGasPrice":"0x0","daGasUsed":"0x29","gasUsed":"0x5208","l1Fee":"0x19709d787180660","l1FeeScalar":"1","l1GasPrice":"0x38a987f04864","l1GasUsed":"0x72f","logs":[],"logsBloom":"0x00000000000000000000000000000000000000000000000000000000000000000000000000000000000000000000000000000000000000000000000000000000000000000000000000000000000000000000000000000000000000000000000000000000000000000000000000000000000000000000000000000000000000000000000000000000000000000000000000000000000000000000000000000000000000000000000000000000000000000000000000000000000000000000000000000000000000000000000000000000000000000000000000000000000000000000000000000000000000000000000000000000000000000000000000000000","status":"0x1","transactionHash":"0x63f46f49fbeca43ecbf05b70a2abf063db6f1d48a4f2c34389f4c9aaf6d8ef0d"}}}