{"block":{"difficulty":"0x2","extraData":"0xd98301090a846765746889676f312e31352e3133856c696e75780000000000007d635985ce43e0ce2d261df926692420954655087b1797cfac52e374653615c87c83ac16dbd815ae8c584f0d26eb6c1af9f021d3fec9a672d2b1b36d1fdb26ee00","gasLimit":"0x1c9c380","gasUsed":"0x869f","hash":"0x00d10ae88387eeb80058e928e517b9432f2c36100c91db4391c0a60a86df69db","logsBloom":"0x00000000000000000000000000000000000000000000000000000000000000000000000000000000000000000000000000000000000000000000000000000000000000000000000000000000000000000000000000000000000000000000000000000000000000000000000000000000000000000000000000000000000000000000000000000000000000000000000000000000000000000000000000000000000000000000000000000000000000000000000000000000000000000000000000000000000000000000000000000000000000000000000000000000000000000000000000000000000000000000000000000000000000000000000000000000","miner":"0x0000000000000000000000000000000000000000","mixHash":"0x0000000000000000000000000000000000000000000000000000000000000000","nonce":"0x0000000000000000","number":"0xd00286","parentHash":"0x1819222355da2ccedd7dcf77264448db2299335df130d36c3c2fce304d79a681","receiptsRoot":"0x693234d8ce29f9e74987fc603307c4aba59a3c3c2a4c19bfd8c55342c745e46c","sha3Uncles":"0x1dcc4de8dec75d7aab85b567b6ccd41ad312451b948a7413f0a142fd40d49347","size":"0x314","stateRoot":"0xccc683b88190d6833efa62cb0cf1cf58dfb2e4f5abc273441fcd533fa914f489","timestamp":"0x65243e1b","totalDifficulty":"0x1a0050d","transactions":[{"blockHash":"0x00d10ae88387eeb80058e928e517b9432f2c36100c91db4391c0a60a86df69db","blockNumber":"0xd00286","from":"0x206f2077b9fa2c618745066046bcadaacf6bc1a7","gas":"0x13880","gasPrice":"0x2faf080","hash":"0xc59a6cffa30eb8ea7881e51f361378a2eda3150c059c92545a645a3610897bd5","index":"0xd00285","input":"0x7ff15f3e0000000000000000000000000000000000000000000000000000000000000001000000000000000000000000000000000000000000000000000002816c005d80","l1BlockNumber":"0x11774e0","l1Timestamp":"0x65243e1b","l1TxOrigin":null,"nonce":"0xbd8","queueIndex":null,"queueOrigin":"sequencer","r":"0xf9508af83916a7db58b7530dccf4081765a8c9dae443a2a050e8af006eddae93","rawTransaction":"0xf8ad820bd88402faf0808301388094690ef4bf1f67012c53e95627001156e7b1cdadab80b8447ff15f3e0000000000000000000000000000000000000000000000000000000000000001000000000000000000000000000000000000000000000000000002816c005d80822733a0f9508af83916a7db58b7530dccf4081765a8c9dae443a2a050e8af006eddae93a066d29c9ea620c2be5f26894817b5fecf967decf83292c0de94e82e077beddbd1","s":"0x66d29c9ea620c2be5f26894817b5fecf967decf83292c0de94e82e077beddbd1","to":"0x690ef4bf1f67012c53e95627001156e7b1cdadab","transactionIndex":"0x0","v":"0x2733","value":"0x0"}],"transactionsRoot":"0x9b71c1e8581dba59d861d8779070db696cf6c2ecbeb28b0fb94db31a952d5633","uncles":[]},"receipts":{"0xc59a6cffa30eb8ea7881e51f361378a2eda3150c059c92545a645a3610897bd5":{"blockHash":"0x00d10ae88387eeb80058e928e517b9432f2c36100c91db4391c0a60a86df69db","blockNumber":"0xd00286","from":"0x206f2077b9fa2c618745066046bcadaacf6bc1a7","gas":"0x13880","gasPrice":"0x2faf080","hash":"0xc59a6cffa30eb8ea7881e51f361378a2eda3150c059c92545a645a3610897bd5","index":"0xd00285","input":"0x7ff15f3e0000000000000000000000000000000000000000000000000000000000000001000000000000000000000000000000000000000000000000000002816c005d80","l1BlockNumber":"0x11774e0","l1Timestamp":"0x65243e1b","l1TxOrigin":null,"nonce":"0xbd8","queueIndex":null,"queueOrigin":"sequencer","r":"0xf9508af83916a7db58b7530dccf4081765a8c9dae443a2a050e8af006eddae93","rawTransaction":"0xf8ad820bd88402faf0808301388094690ef4bf1f67012c53e95627001156e7b1cdadab80b8447ff15f3e0000000000000000000000000000000000000000000000000000000000000001000000000000000000000000000000000000000000000000000002816c005d80822733a0f9508af83916a7db58b7530dccf4081765a8c9dae443a2a050e8af006eddae93a066d29c9ea620c2be5f26894817b5fecf967decf83292c0de94e82e077beddbd1","s":"0x66d29c9ea620c2be5f26894817b5fecf967decf83292c0de94e82e077beddbd1","to":"0x690ef4bf1f67012c53e95627001156e7b1cdadab","transactionIndex":"0x0","v":"0x2733","value":"0x0","contractAddress":null,"cumulativeGasUsed":"0x869f","daFee":"0x0","daGasPrice":"0x0","daGasUsed":"0x6a","gasUsed":"0x869f","l1Fee":"0x19709d787180660","l1FeeScalar":"1","l1GasPrice":"0x38a987f04864","l1GasUsed":"0x72f","logs":[],"logsBloom":"0x00000000000000000000000000000000000000000000000000000000000000000000000000000000000000000000000000000000000000000000000000000000000000000000000000000000000000000000000000000000000000000000000000000000000000000000000000000000000000000000000000000000000000000000000000000000000000000000000000000000000000000000000000000000000000000000000000000000000000000000000000000000000000000000000000000000000000000000000000000000000000000000000000000000000000000000000000000000000000000000000000000000000000000000000000000000","status":"0x1","transactionHash":"0xc59a6cffa30eb8ea7881e51f361378a2eda3150c059c92545a645a3610897bd5"}}}