{"block":{"difficulty":"0x2","extraData":"0xd98301090a846765746889676f312e31352e3133856c696e7578000000000000c3c03c1e9ffa4f941afb5882fd6a37061b5bd93d5ec01f89027dae2f96fc0af019d82d358b0b5e49ef95b2006bfee9119045ae568486d13e44d0fef4aa218f6900","gasLimit":"0x1c9c380","gasUsed":"0x1fc88","hash":"0x1755b154f0c35a50ae6805b3581ed60a57bc92909b893364ff092b2a016a01a2","logsBloom":"0x0000000000000000000000000000800000004000000100880000000000000000000000000000000000000000000200000000000000200000000000000020000004800000004400000000000800000000000000c000002000000000000000000000000000000000000000000000000000000000100000800000000010000000000000000000000000000000000000000000000000000000000000000000000000020008000000000000000000000000000000000001000000000000000000000000000002000000000000000000000000002000000000000000000000000000000010000000000000000000000000000000000000020010000000000000000000","miner":"0x0000000000000000000000000000000000000000","mixHash":"0x0000000000000000000000000000000000000000000000000000000000000000","nonce":"0x0000000000000000","number":"0xd002d4","parentHash":"0xff6cc91d90737e2605890710b8cc003af2fd177bdd08d39ed831a7c00658e547","receiptsRoot":"0x8b804749fd6d8ce8ebc3ca0a2e455b167e5de29e5e335325bbc327f3537ed98b","sha3Uncles":"0x1dcc4de8dec75d7aab85b567b6ccd41ad312451b948a7413f0a142fd40d49347","size":"0x3d8","stateRoot":"0x0c491da5781cd3a916000195fb7af71233a4fd26dcb492c79abb4a9e79875d35","timestamp":"0x65243e43","totalDifficulty":"0x1a005a9","transactions":[{"blockHash":"0x1755b154f0c35a50ae6805b3581ed60a57bc92909b893364ff092b2a016a01a2","blockNumber":"0xd002d4","from":"0xcc801ef377922879cf6ae3aaca2fdc9b4984535a","gas":"0x21487","gasPrice":"0x2faf080","hash":"0x9bc039b312590882f7e34d3202c124361a4d773c0a93277f32bb6bc5c9986362","index":"0xd002d3","input":"0x414bf389000000000000000000000000201eba5cc46d216ce6dc03f6a759e8e766e956ae00000000000000000000000009bc4e0d864854c6afb6eb9a9cdf58ac190d0df90000000000000000000000000000000000000000000000000000000000000064000000000000000000000000cc801ef377922879cf6ae3aaca2fdc9b4984535a0000000000000000000000000000000000000000000000000000000065243e6100000000000000000000000000000000000000000000000000000000000afc8000000000000000000000000000000000000000000000000000000000000ac4e20000000000000000000000000000000000000000000000000000000000000000","l1BlockNumber":"0x11774e3","l1Timestamp":"0x65243e43","l1TxOrigin":null,"nonce":"0xc4d","queueIndex":null,"queueOrigin":"sequencer","r":"0x8bdf17dac26334be5ceb71fa40fd6361048eea38732e86874b36550da4937fb6","rawTransaction":"0xf9016e820c4d8402faf0808302148794319b69888b0d11cec22caa5034e25fffbdc8842180b90104414bf389000000000000000000000000201eba5cc46d216ce6dc03f6a759e8e766e956ae00000000000000000000000009bc4e0d864854c6afb6eb9a9cdf58ac190d0df90000000000000000000000000000000000000000000000000000000000000064000000000000000000000000cc801ef377922879cf6ae3aaca2fdc9b4984535a0000000000000000000000000000000000000000000000000000000065243e6100000000000000000000000000000000000000000000000000000000000afc8000000000000000000000000000000000000000000000000000000000000ac4e20000000000000000000000000000000000000000000000000000000000000000822733a08bdf17dac26334be5ceb71fa40fd6361048eea38732e86874b36550da4937fb6a02be61ecc43b78622f60f21f3b05fe16f34614569ce645eaf029b33820e676ebc","s":"0x2be61ecc43b78622f60f21f3b05fe16f34614569ce645eaf029b33820e676ebc","to":"0x319b69888b0d11cec22caa5034e25fffbdc88421","transactionIndex":"0x0","v":"0x2733","value":"0x0"}],"transactionsRoot":"0x4623cbd369964d38a6024d46b59c3cd47d9f01ca3f1915b944909a09db30f61c","uncles":[]},"receipts":{"0x9bc039b312590882f7e34d3202c124361a4d773c0a93277f32bb6bc5c9986362":{"blockHash":"0x1755b154f0c35a50ae6805b3581ed60a57bc92909b893364ff092b2a016a01a2","blockNumber":"0xd002d4","from":"0xcc801ef377922879cf6ae3aaca2fdc9b4984535a","gas":"0x21487","gasPrice":"0x2faf080","hash":"0x9bc039b312590882f7e34d3202c124361a4d773c0a93277f32bb6bc5c9986362","index":"0xd002d3","input":"0x414bf389000000000000000000000000201eba5cc46d216ce6dc03f6a759e8e766e956ae00000000000000000000000009bc4e0d864854c6afb6eb9a9cdf58ac190d0df90000000000000000000000000000000000000000000000000000000000000064000000000000000000000000cc801ef377922879cf6ae3aaca2fdc9b4984535a0000000000000000000000000000000000000000000000000000000065243e6100000000000000000000000000000000000000000000000000000000000afc8000000000000000000000000000000000000000000000000000000000000ac4e20000000000000000000000000000000000000000000000000000000000000000","l1BlockNumber":"0x11774e3","l1Timestamp":"0x65243e43","l1TxOrigin":null,"nonce":"0xc4d","queueIndex":null,"queueOrigin":"sequencer","r":"0x8bdf17dac26334be5ceb71fa40fd6361048eea38732e86874b36550da4937fb6","rawTransaction":"0xf9016e820c4d8402faf0808302148794319b69888b0d11cec22caa5034e25fffbdc8842180b90104414bf389000000000000000000000000201eba5cc46d216ce6dc03f6a759e8e766e956ae00000000000000000000000009bc4e0d864854c6afb6eb9a9cdf58ac190d0df90000000000000000000000000000000000000000000000000000000000000064000000000000000000000000cc801ef377922879cf6ae3aaca2fdc9b4984535a0000000000000000000000000000000000000000000000000000000065243e6100000000000000000000000000000000000000000000000000000000000afc8000000000000000000000000000000000000000000000000000000000000ac4e20000000000000000000000000000000000000000000000000000000000000000822733a08bdf17dac26334be5ceb71fa40fd6361048eea38732e86874b36550da4937fb6a02be61ecc43b78622f60f21f3b05fe16f34614569ce645eaf029b33820e676ebc","s":"0x2be61ecc43b78622f60f21f3b05fe16f34614569ce645eaf029b33820e676ebc","to":"0x319b69888b0d11cec22caa5034e25fffbdc88421","transactionIndex":"0x0","v":"0x2733","value":"0x0","contractAddress":null,"cumulativeGasUsed":"0x1fc88","daFee":"0x0","daGasPrice":"0x0","daGasUsed":"0x12c","gasUsed":"0x1fc88","l1Fee":"0x19709d787180660","l1FeeScalar":"1","l1GasPrice":"0x38a987f04864","l1GasUsed":"0x72f","logs":[{"address":"0x09bc4e0d864854c6afb6eb9a9cdf58ac190d0df9","blockHash":"0x1755b154f0c35a50ae6805b3581ed60a57bc92909b893364ff092b2a016a01a2","blockNumber":"0xd002d4","data":"0x00000000000000000000000000000000000000000000000000000000000afd26","logIndex":"0x0","removed":false,"topics":["0xddf252ad1be2c89b69c2b068fc378daa952ba7f163c4a11628f55a4df523b3ef","0x0000000000000000000000006488f911c6cd86c289aa319c5a826dcf8f1ca065","0x000000000000000000000000cc801ef377922879cf6ae3aaca2fdc9b4984535a"],"transactionHash":"0x9bc039b312590882f7e34d3202c124361a4d773c0a93277f32bb6bc5c9986362","transactionIndex":"0x0"},{"address":"0x201eba5cc46d216ce6dc03f6a759e8e766e956ae","blockHash":"0x1755b154f0c35a50ae6805b3581ed60a57bc92909b893364ff092b2a016a01a2","blockNumber":"0xd002d4","data":"0x00000000000000000000000000000000000000000000000000000000000afc80","logIndex":"0x1","removed":false,"topics":["0xddf252ad1be2c89b69c2b068fc378daa952ba7f163c4a11628f55a4df523b3ef","0x000000000000000000000000cc801ef377922879cf6ae3aaca2fdc9b4984535a","0x0000000000000000000000006488f911c6cd86c289aa319c5a826dcf8f1ca065"],"transactionHash":"0x9bc039b312590882f7e34d3202c124361a4d773c0a93277f32bb6bc5c9986362","transactionIndex":"0x0"},{"address":"0x201eba5cc46d216ce6dc03f6a759e8e766e956ae","blockHash":"0x1755b154f0c35a50ae6805b3581ed60a57bc92909b893364ff092b2a016a01a2","blockNumber":"0xd002d4","data":"0xffffffffffffffffffffffffffffffffffffffffffffffffffffffffb0329e1f","logIndex":"0x2","removed":false,"topics":["0x8c5be1e5ebec7d5bd14f71427d1e84f3dd0314c0f7b2291e5b200ac8c7c3b925","0x000000000000000000000000cc801ef377922879cf6ae3aaca2fdc9b4984535a","0x000000000000000000000000319b69888b0d11cec22caa5034e25fffbdc88421"],"transactionHash":"0x9bc039b312590882f7e34d3202c124361a4d773c0a93277f32bb6bc5c9986362","transactionIndex":"0x0"},{"address":"0x6488f911c6cd86c289aa319c5a826dcf8f1ca065","blockHash":"0x1755b154f0c35a50ae6805b3581ed60a57bc92909b893364ff092b2a016a01a2","blockNumber":"0xd002d4","data":"0xfffffffffffffffffffffffffffffffffffffffffffffffffffffffffff502da00000000000000000000000000000000000000000000000000000000000afc800000000000000000000000000000000000000000fff521d9774f3010278c55650000000000000000000000000000000000000000000000000000aa91ae904e92fffffffffffffffffffffffffffffffffffffffffffffffffffffffffffffffc00000000000000000000000000000000000000000000000000000000000000000000000000000000000000000000000000000000000000000000000000000017","logIndex":"0x3","removed":false,"topics":["0x19b47279256b2a23a1665c810c8d55a1758940ee09377d4f8d26497a3577dc83","0x000000000000000000000000319b69888b0d11cec22caa5034e25fffbdc88421","0x000000000000000000000000cc801ef377922879cf6ae3aaca2fdc9b4984535a"],"transactionHash":"0x9bc039b312590882f7e34d3202c124361a4d773c0a93277f32bb6bc5c9986362","transactionIndex":"0x0"}],"logsBloom":"0x0000000000000000000000000000800000004000000100880000000000000000000000000000000000000000000200000000000000200000000000000020000004800000004400000000000800000000000000c000002000000000000000000000000000000000000000000000000000000000100000800000000010000000000000000000000000000000000000000000000000000000000000000000000000020008000000000000000000000000000000000001000000000000000000000000000002000000000000000000000000002000000000000000000000000000000010000000000000000000000000000000000000020010000000000000000000","status":"0x1","transactionHash":"0x9bc039b312590882f7e34d3202c124361a4d773c0a93277f32bb6bc5c9986362"}}}