{"block":{"difficulty":"0x2","extraData":"0xd98301090a846765746889676f312e31352e3133856c696e7578000000000000be49c442b6b436f236f8eb659b2ea1c58f06d3b24fa87989e7ec9546663106003ec5f83cdedda6cf9e27306ecef34984927a00d8b84045b301945ae5152cfeaf00","gasLimit":"0x1c9c380","gasUsed":"0x1d2cd","hash":"0x95d610c0749fcd29b855a3adf0ece0287f2ead20f066d51138e4b871b1fed753","logsBloom":"0x40000000000000000000000000000000000000000001008800000000000000000000000000000000000000000002000000000000000000000000000000200000840000000040000100000008000000000000008000002004000000000000000000000001000000000000000100000000000000000000000000000010000000000000000000800000000000000000000000000000000000000008000000000000020000000000000000000000000000000000000001000020000100000000000000000002000000000000000000000000000000000000000000000000000000000010000400001000000000000000000000000000000000000000000000000000","miner":"0x0000000000000000000000000000000000000000","mixHash":"0x0000000000000000000000000000000000000000000000000000000000000000","nonce":"0x0000000000000000","number":"0xcff398","parentHash":"0xb1a0ba5dffdc512d5454f6c21bd23e8d1c34bb52c9c591a6a18d01c6d2890b87","receiptsRoot":"0xa721f015dee704a111f017da5606aed02779a58d7eaab5aed01fa007d900e30e","sha3Uncles":"0x1dcc4de8dec75d7aab85b567b6ccd41ad312451b948a7413f0a142fd40d49347","size":"0x3d8","stateRoot":"0x50efec75e6a84763b9f63fd15cac7c6ad482b10582de07e3634c88fcff79252a","timestamp":"0x65243748","totalDifficulty":"0x19fe731","transactions":[{"blockHash":"0x95d610c0749fcd29b855a3adf0ece0287f2ead20f066d51138e4b871b1fed753","blockNumber":"0xcff398","from":"0xdcb8b4b35b43f0c35bcde60675de9db8d11fd24a","gas":"0x1ea2b","gasPrice":"0x2faf080","hash":"0x249f625effd0f733318e9f50f264abf5638cbc1909b30309390bfd1551c97567","index":"0xcff397","input":"0x414bf389000000000000000000000000201eba5cc46d216ce6dc03f6a759e8e766e956ae000000000000000000000000deaddeaddeaddeaddeaddeaddeaddeaddead111100000000000000000000000000000000000000000000000000000000000001f4000000000000000000000000dcb8b4b35b43f0c35bcde60675de9db8d11fd24a000000000000000000000000000000000000000000000000000000006524376700000000000000000000000000000000000000000000000000000000000ef420000000000000000000000000000000000000000000000000000227b3f26db51a0000000000000000000000000000000000000000000000000000000000000000","l1BlockNumber":"0x117744e","l1Timestamp":"0x65243748","l1TxOrigin":null,"nonce":"0x851","queueIndex":null,"queueOrigin":"sequencer","r":"0x8aba34ce8ed1be95d64a568aa1f3e31570f1ff1480c1f9a13ac37f9fb2264d81","rawTransaction":"0xf9016e8208518402faf0808301ea2b94319b69888b0d11cec22caa5034e25fffbdc8842180b90104414bf389000000000000000000000000201eba5cc46d216ce6dc03f6a759e8e766e956ae000000000000000000000000deaddeaddeaddeaddeaddeaddeaddeaddead111100000000000000000000000000000000000000000000000000000000000001f4000000000000000000000000dcb8b4b35b43f0c35bcde60675de9db8d11fd24a000000000000000000000000000000000000000000000000000000006524376700000000000000000000000000000000000000000000000000000000000ef420000000000000000000000000000000000000000000000000000227b3f26db51a0000000000000000000000000000000000000000000000000000000000000000822733a08aba34ce8ed1be95d64a568aa1f3e31570f1ff1480c1f9a13ac37f9fb2264d81a04239edcf67ad31ddbce427961711727b2d07ea70276a06f3f06b664741410dcf","s":"0x4239edcf67ad31ddbce427961711727b2d07ea70276a06f3f06b664741410dcf","to":"0x319b69888b0d11cec22caa5034e25fffbdc88421","transactionIndex":"0x0","v":"0x2733","value":"0x0"}],"transactionsRoot":"0x7d7c78028eed535e14691f956c3154ee5558822e58cec154cc6159f98a232748","uncles":[]},"receipts":{"0x249f625effd0f733318e9f50f264abf5638cbc1909b30309390bfd1551c97567":{"blockHash":"0x95d610c0749fcd29b855a3adf0ece0287f2ead20f066d51138e4b871b1fed753","blockNumber":"0xcff398","from":"0xdcb8b4b35b43f0c35bcde60675de9db8d11fd24a","gas":"0x1ea2b","gasPrice":"0x2faf080","hash":"0x249f625effd0f733318e9f50f264abf5638cbc1909b30309390bfd1551c97567","index":"0xcff397","input":"0x414bf389000000000000000000000000201eba5cc46d216ce6dc03f6a759e8e766e956ae000000000000000000000000deaddeaddeaddeaddeaddeaddeaddeaddead111100000000000000000000000000000000000000000000000000000000000001f4000000000000000000000000dcb8b4b35b43f0c35bcde60675de9db8d11fd24a000000000000000000000000000000000000000000000000000000006524376700000000000000000000000000000000000000000000000000000000000ef420000000000000000000000000000000000000000000000000000227b3f26db51a0000000000000000000000000000000000000000000000000000000000000000","l1BlockNumber":"0x117744e","l1Timestamp":"0x65243748","l1TxOrigin":null,"nonce":"0x851","queueIndex":null,"queueOrigin":"sequencer","r":"0x8aba34ce8ed1be95d64a568aa1f3e31570f1ff1480c1f9a13ac37f9fb2264d81","rawTransaction":"0xf9016e8208518402faf0808301ea2b94319b69888b0d11cec22caa5034e25fffbdc8842180b90104414bf389000000000000000000000000201eba5cc46d216ce6dc03f6a759e8e766e956ae000000000000000000000000deaddeaddeaddeaddeaddeaddeaddeaddead111100000000000000000000000000000000000000000000000000000000000001f4000000000000000000000000dcb8b4b35b43f0c35bcde60675de9db8d11fd24a000000000000000000000000000000000000000000000000000000006524376700000000000000000000000000000000000000000000000000000000000ef420000000000000000000000000000000000000000000000000000227b3f26db51a0000000000000000000000000000000000000000000000000000000000000000822733a08aba34ce8ed1be95d64a568aa1f3e31570f1ff1480c1f9a13ac37f9fb2264d81a04239edcf67ad31ddbce427961711727b2d07ea70276a06f3f06b664741410dcf","s":"0x4239edcf67ad31ddbce427961711727b2d07ea70276a06f3f06b664741410dcf","to":"0x319b69888b0d11cec22caa5034e25fffbdc88421","transactionIndex":"0x0","v":"0x2733","value":"0x0","contractAddress":null,"cumulativeGasUsed":"0x1d2cd","daFee":"0x0","daGasPrice":"0x0","daGasUsed":"0x12c","gasUsed":"0x1d2cd","l1Fee":"0x1c5145ff7a866d0","l1FeeScalar":"1","l1GasPrice":"0x3f1249c65230","l1GasUsed":"0x72f","logs":[{"address":"0xdeaddeaddeaddeaddeaddeaddeaddeaddead1111","blockHash":"0x95d610c0749fcd29b855a3adf0ece0287f2ead20f066d51138e4b871b1fed753","blockNumber":"0xcff398","data":"0x000000000000000000000000000000000000000000000000000232f6503140a3","logIndex":"0x0","removed":false,"topics":["0xddf252ad1be2c89b69c2b068fc378daa952ba7f163c4a11628f55a4df523b3ef","0x000000000000000000000000628f7131cf43e88ebe3921ae78c4ba0c31872bd4","0x000000000000000000000000dcb8b4b35b43f0c35bcde60675de9db8d11fd24a"],"transactionHash":"0x249f625effd0f733318e9f50f264abf5638cbc1909b30309390bfd1551c97567","transactionIndex":"0x0"},{"address":"0x201eba5cc46d216ce6dc03f6a759e8e766e956ae","blockHash":"0x95d610c0749fcd29b855a3adf0ece0287f2ead20f066d51138e4b871b1fed753","blockNumber":"0xcff398","data":"0x00000000000000000000000000000000000000000000000000000000000ef420","logIndex":"0x1","removed":false,"topics":["0xddf252ad1be2c89b69c2b068fc378daa952ba7f163c4a11628f55a4df523b3ef","0x000000000000000000000000dcb8b4b35b43f0c35bcde60675de9db8d11fd24a","0x000000000000000000000000628f7131cf43e88ebe3921ae78c4ba0c31872bd4"],"transactionHash":"0x249f625effd0f733318e9f50f264abf5638cbc1909b30309390bfd1551c97567","transactionIndex":"0x0"},{"address":"0x201eba5cc46d216ce6dc03f6a759e8e766e956ae","blockHash":"0x95d610c0749fcd29b855a3adf0ece0287f2ead20f066d51138e4b871b1fed753","blockNumber":"0xcff398","data":"0xffffffffffffffffffffffffffffffffffffffffffffffffffffffffc8ff307f","logIndex":"0x2","removed":false,"topics":["0x8c5be1e5ebec7d5bd14f71427d1e84f3dd0314c0f7b2291e5b200ac8c7c3b925","0x000000000000000000000000dcb8b4b35b43f0c35bcde60675de9db8d11fd24a","0x000000000000000000000000319b69888b0d11cec22caa5034e25fffbdc88421"],"transactionHash":"0x249f625effd0f733318e9f50f264abf5638cbc1909b30309390bfd1551c97567","transactionIndex":"0x0"},{"address":"0x628f7131cf43e88ebe3921ae78c4ba0c31872bd4","blockHash":"0x95d610c0749fcd29b855a3adf0ece0287f2ead20f066d51138e4b871b1fed753","blockNumber":"0xcff398","data":"0x00000000000000000000000000000000000000000000000000000000000ef420fffffffffffffffffffffffffffffffffffffffffffffffffffdcd09afcebf5d000000000000000000000000000000000000622be9bc37fd84faddc514d04afa00000000000000000000000000000000000000000000000000002c65dde06c20000000000000000000000000000000000000000000000000000000000003179800000000000000000000000000000000000000000000000000000000000000a60000000000000000000000000000000000000000000000000000000000000000","logIndex":"0x3","removed":false,"topics":["0x19b47279256b2a23a1665c810c8d55a1758940ee09377d4f8d26497a3577dc83","0x000000000000000000000000319b69888b0d11cec22caa5034e25fffbdc88421","0x000000000000000000000000dcb8b4b35b43f0c35bcde60675de9db8d11fd24a"],"transactionHash":"0x249f625effd0f733318e9f50f264abf5638cbc1909b30309390bfd1551c97567","transactionIndex":"0x0"}],"logsBloom":"0x40000000000000000000000000000000000000000001008800000000000000000000000000000000000000000002000000000000000000000000000000200000840000000040000100000008000000000000008000002004000000000000000000000001000000000000000100000000000000000000000000000010000000000000000000800000000000000000000000000000000000000008000000000000020000000000000000000000000000000000000001000020000100000000000000000002000000000000000000000000000000000000000000000000000000000010000400001000000000000000000000000000000000000000000000000000","status":"0x1","transactionHash":"0x249f625effd0f733318e9f50f264abf5638cbc1909b30309390bfd1551c97567"}}}