{"block":{"difficulty":"0x2","extraData":"0xd98301090a846765746889676f312e31352e3133856c696e757800000000000018a4f1d53756efb54274be5bb6b52bc0c936f3a267a6056fcd266c938e0733253ced77718e759e0c4c008f3b3a1d31a837691ad27942c9c8237dfde8a284132901","gasLimit":"0x1c9c380","gasUsed":"0x21ab8","hash":"0x3535be20c352cf71bef493b28f6d090874434844f188400619d5eefe2a0d6886","logsBloom":"0x00000000000000000000000000000000000000000000008800000000000000000000040000000008000000000002000000000000000000000000000000200000140004000040000000000008000000000000000000040000000000000000000000000000000000000000000000000000010000000000100000000010000000000000000000000000000000000000000000100000400000000000000100000000020000000000000000000000000000000000000021000000000000000000100000000002000000000000000000000000000000000000000000001000000000000030000000004000000000000000000000000000000000000000000000000000","miner":"0x0000000000000000000000000000000000000000","mixHash":"0x0000000000000000000000000000000000000000000000000000000000000000","nonce":"0x0000000000000000","number":"0xcff38e","parentHash":"0xa21a4a1e1cf4d61d20f9005810796a4df475de62d5e5239b1c39afe76fca7c2d","receiptsRoot":"0xa46c82cee64ee64b2bacc874502774fe9a59e74e0dbd999136b71dcead0e928e","sha3Uncles":"0x1dcc4de8dec75d7aab85b567b6ccd41ad312451b948a7413f0a142fd40d49347","size":"0x3d8","stateRoot":"0x9180453d63d3d2afdacaa239ffa963364c870138694ae34717f7b3098e7488db","timestamp":"0x65243743","totalDifficulty":"0x19fe71d","transactions":[{"blockHash":"0x3535be20c352cf71bef493b28f6d090874434844f188400619d5eefe2a0d6886","blockNumber":"0xcff38e","from":"0xc1ae5e83bcdc436f288ab84b5ef7264a9dd4305d","gas":"0x23339","gasPrice":"0x2faf080","hash":"0xf2dcda8edf5618d542039d38c614b368e4ad0df438e89d5626a8056b8bcb32ad","index":"0xcff38d","input":"0x414bf38900000000000000000000000078c1b0c915c4faa5fffa6cabf0219da63d7f4cb800000000000000000000000097174506aafcc846a40832719bd8899a588bd05c0000000000000000000000000000000000000000000000000000000000002710000000000000000000000000c1ae5e83bcdc436f288ab84b5ef7264a9dd4305d0000000000000000000000000000000000000000000000000000000065243764000000000000000000000000000000000000000000000001899bafc761fc33270000000000000000000000000000000000000000000000a96f40f472e73325b00000000000000000000000000000000000000000000000000000000000000000","l1BlockNumber":"0x117744e","l1Timestamp":"0x65243743","l1TxOrigin":null,"nonce":"0x332","queueIndex":null,"queueOrigin":"sequencer","r":"0xbe204fae86798aa15e8c2ba00ee3b96d84112fb78b63bacfd98eeae0438d1c96","rawTransaction":"0xf9016e8203328402faf0808302333994319b69888b0d11cec22caa5034e25fffbdc8842180b90104414bf38900000000000000000000000078c1b0c915c4faa5fffa6cabf0219da63d7f4cb800000000000000000000000097174506aafcc846a40832719bd8899a588bd05c0000000000000000000000000000000000000000000000000000000000002710000000000000000000000000c1ae5e83bcdc436f288ab84b5ef7264a9dd4305d0000000000000000000000000000000000000000000000000000000065243764000000000000000000000000000000000000000000000001899bafc761fc33270000000000000000000000000000000000000000000000a96f40f472e73325b00000000000000000000000000000000000000000000000000000000000000000822734a0be204fae86798aa15e8c2ba00ee3b96d84112fb78b63bacfd98eeae0438d1c96a03793fa50a97f00f8d081c5ea7dea10c5e9ddf6e7f477c429f17f0b2a7650b995","s":"0x3793fa50a97f00f8d081c5ea7dea10c5e9ddf6e7f477c429f17f0b2a7650b995","to":"0x319b69888b0d11cec22caa5034e25fffbdc88421","transactionIndex":"0x0","v":"0x2734","value":"0x0"}],"transactionsRoot":"0x8f38d350d6e884f6f732bd759927bc641e7461b4772db9b5eefab095de91d9ac","uncles":[]},"receipts":{"0xf2dcda8edf5618d542039d38c614b368e4ad0df438e89d5626a8056b8bcb32ad":{"blockHash":"0x3535be20c352cf71bef493b28f6d090874434844f188400619d5eefe2a0d6886","blockNumber":"0xcff38e","from":"0xc1ae5e83bcdc436f288ab84b5ef7264a9dd4305d","gas":"0x23339","gasPrice":"0x2faf080","hash":"0xf2dcda8edf5618d542039d38c614b368e4ad0df438e89d5626a8056b8bcb32ad","index":"0xcff38d","input":"0x414bf38900000000000000000000000078c1b0c915c4faa5fffa6cabf0219da63d7f4cb800000000000000000000000097174506aafcc846a40832719bd8899a588bd05c0000000000000000000000000000000000000000000000000000000000002710000000000000000000000000c1ae5e83bcdc436f288ab84b5ef7264a9dd4305d0000000000000000000000000000000000000000000000000000000065243764000000000000000000000000000000000000000000000001899bafc761fc33270000000000000000000000000000000000000000000000a96f40f472e73325b00000000000000000000000000000000000000000000000000000000000000000","l1BlockNumber":"0x117744e","l1Timestamp":"0x65243743","l1TxOrigin":null,"nonce":"0x332","queueIndex":null,"queueOrigin":"sequencer","r":"0xbe204fae86798aa15e8c2ba00ee3b96d84112fb78b63bacfd98eeae0438d1c96","rawTransaction":"0xf9016e8203328402faf0808302333994319b69888b0d11cec22caa5034e25fffbdc8842180b90104414bf38900000000000000000000000078c1b0c915c4faa5fffa6cabf0219da63d7f4cb800000000000000000000000097174506aafcc846a40832719bd8899a588bd05c0000000000000000000000000000000000000000000000000000000000002710000000000000000000000000c1ae5e83bcdc436f288ab84b5ef7264a9dd4305d0000000000000000000000000000000000000000000000000000000065243764000000000000000000000000000000000000000000000001899bafc761fc33270000000000000000000000000000000000000000000000a96f40f472e73325b00000000000000000000000000000000000000000000000000000000000000000822734a0be204fae86798aa15e8c2ba00ee3b96d84112fb78b63bacfd98eeae0438d1c96a03793fa50a97f00f8d081c5ea7dea10c5e9ddf6e7f477c429f17f0b2a7650b995","s":"0x3793fa50a97f00f8d081c5ea7dea10c5e9ddf6e7f477c429f17f0b2a7650b995","to":"0x319b69888b0d11cec22caa5034e25fffbdc88421","transactionIndex":"0x0","v":"0x2734","value":"0x0","contractAddress":null,"cumulativeGasUsed":"0x21ab8","daFee":"0x0","daGasPrice":"0x0","daGasUsed":"0x12c","gasUsed":"0x21ab8","l1Fee":"0x1c5145ff7a866d0","l1FeeScalar":"1","l1GasPrice":"0x3f1249c65230","l1GasUsed":"0x72f","logs":[{"address":"0x97174506aafcc846a40832719bd8899a588bd05c","blockHash":"0x3535be20c352cf71bef493b28f6d090874434844f188400619d5eefe2a0d6886","blockNumber":"0xcff38e","data":"0x0000000000000000000000000000000000000000000000b25a296d1aa286ae69","logIndex":"0x0","removed":false,"topics":["0xddf252ad1be2c89b69c2b068fc378daa952ba7f163c4a11628f55a4df523b3ef","0x0000000000000000000000003a873fe63bedad2e9f9b9b63bf8bedb5f1789167","0x000000000000000000000000c1ae5e83bcdc436f288ab84b5ef7264a9dd4305d"],"transactionHash":"0xf2dcda8edf5618d542039d38c614b368e4ad0df438e89d5626a8056b8bcb32ad","transactionIndex":"0x0"},{"address":"0x78c1b0c915c4faa5fffa6cabf0219da63d7f4cb8","blockHash":"0x3535be20c352cf71bef493b28f6d090874434844f188400619d5eefe2a0d6886","blockNumber":"0xcff38e","data":"0x000000000000000000000000000000000000000000000001899bafc761fc3327","logIndex":"0x1","removed":false,"topics":["0xddf252ad1be2c89b69c2b068fc378daa952ba7f163c4a11628f55a4df523b3ef","0x000000000000000000000000c1ae5e83bcdc436f288ab84b5ef7264a9dd4305d","0x0000000000000000000000003a873fe63bedad2e9f9b9b63bf8bedb5f1789167"],"transactionHash":"0xf2dcda8edf5618d542039d38c614b368e4ad0df438e89d5626a8056b8bcb32ad","transactionIndex":"0x0"},{"address":"0x78c1b0c915c4faa5fffa6cabf0219da63d7f4cb8","blockHash":"0x3535be20c352cf71bef493b28f6d090874434844f188400619d5eefe2a0d6886","blockNumber":"0xcff38e","data":"0xfffffffffffffffffffffffffffffffffffffffffffffe93fa9e19e73a90ccf2","logIndex":"0x2","removed":false,"topics":["0x8c5be1e5ebec7d5bd14f71427d1e84f3dd0314c0f7b2291e5b200ac8c7c3b925","0x000000000000000000000000c1ae5e83bcdc436f288ab84b5ef7264a9dd4305d","0x000000000000000000000000319b69888b0d11cec22caa5034e25fffbdc88421"],"transactionHash":"0xf2dcda8edf5618d542039d38c614b368e4ad0df438e89d5626a8056b8bcb32ad","transactionIndex":"0x0"},{"address":"0x3a873fe63bedad2e9f9b9b63bf8bedb5f1789167","blockHash":"0x3535be20c352cf71bef493b28f6d090874434844f188400619d5eefe2a0d6886","blockNumber":"0xcff38e","data":"0x000000000000000000000000000000000000000000000001899bafc761fc3327ffffffffffffffffffffffffffffffffffffffffffffff4da5d692e55d795197000000000000000000000000000000000000000ad2ff11f13c266f6877ae918700000000000000000000000000000000000000000004050e8f20b2f8a1c79e70000000000000000000000000000000000000000000000000000000000000ba160000000000000000000000000000000000000000000000000142719cb21477c40000000000000000000000000000000000000000000000000000000000000000","logIndex":"0x3","removed":false,"topics":["0x19b47279256b2a23a1665c810c8d55a1758940ee09377d4f8d26497a3577dc83","0x000000000000000000000000319b69888b0d11cec22caa5034e25fffbdc88421","0x000000000000000000000000c1ae5e83bcdc436f288ab84b5ef7264a9dd4305d"],"transactionHash":"0xf2dcda8edf5618d542039d38c614b368e4ad0df438e89d5626a8056b8bcb32ad","transactionIndex":"0x0"}],"logsBloom":"0x00000000000000000000000000000000000000000000008800000000000000000000040000000008000000000002000000000000000000000000000000200000140004000040000000000008000000000000000000040000000000000000000000000000000000000000000000000000010000000000100000000010000000000000000000000000000000000000000000100000400000000000000100000000020000000000000000000000000000000000000021000000000000000000100000000002000000000000000000000000000000000000000000001000000000000030000000004000000000000000000000000000000000000000000000000000","status":"0x1","transactionHash":"0xf2dcda8edf5618d542039d38c614b368e4ad0df438e89d5626a8056b8bcb32ad"}}}