{"block":{"difficulty":"0x2","extraData":"0xd98301090a846765746889676f312e31352e3133856c696e7578000000000000c1a6a18fff00170509b784fd75aebddcdd56961a6cc0f78ebd41aca6a992c8ca0f43eb1ba237e8847de4518950babf49cea5f00b5b1189833e0797d7bac6d11701","gasLimit":"0x1c9c380","gasUsed":"0x5208","hash":"0xdf773cb1002ac45ec9f811b3757acdf028b92be2f978f046876cb2156bb712d6","logsBloom":"0x00000000000000000000000000000000000000000000000000000000000000000000000000000000000000000000000000000000000000000000000000000000000000000000000000000000000000000000000000000000000000000000000000000000000000000000000000000000000000000000000000000000000000000000000000000000000000000000000000000000000000000000000000000000000000000000000000000000000000000000000000000000000000000000000000000000000000000000000000000000000000000000000000000000000000000000000000000000000000000000000000000000000000000000000000000000","miner":"0x0000000000000000000000000000000000000000","mixHash":"0x0000000000000000000000000000000000000000000000000000000000000000","nonce":"0x0000000000000000","number":"0xd00118","parentHash":"0x89e56d901860eaa8d7be421476dcc9e6759cc6daa331bab1dfabbf03fc172b81","receiptsRoot":"0x056b23fbba480696b65fe5a59b8f2148a1299103c4f57df839233af2cf4ca2d2","sha3Uncles":"0x1dcc4de8dec75d7aab85b567b6ccd41ad312451b948a7413f0a142fd40d49347","size":"0x2d4","stateRoot":"0x0f4e48c0f6296838df8c9baf754bfe92f34c861d142a4ce9347c26da9c13d212","timestamp":"0x65243d4e","totalDifficulty":"0x1a00231","transactions":[{"blockHash":"0xdf773cb1002ac45ec9f811b3757acdf028b92be2f978f046876cb2156bb712d6","blockNumber":"0xd00118","from":"0xabf5a69372925f0c29a119268f2cdb83c819a3df","gas":"0x5208","gasPrice":"0x2faf080","hash":"0x26daadab303706041316022b00f009364999b4ff6152539e8ec485e408316ad1","index":"0xd00117","input":"0x","l1BlockNumber":"0x11774cf","l1Timestamp":"0x65243d4e","l1TxOrigin":null,"nonce":"0x46","queueIndex":null,"queueOrigin":"sequencer","r":"0x79771d98f5217cb20fbc87cfd11c30b6ecca9005d086d42f2fd8f4a6a41a821c","rawTransaction":"0xf86d468402faf08082520894f55a2b967ddaa5049f537d8402b791901cc9d34e880c7d713b49da000080822734a079771d98f5217cb20fbc87cfd11c30b6ecca9005d086d42f2fd8f4a6a41a821ca06b972c1985adba818c1602673175abf2bf82aab2290b4542b49475bb8fa8b12a","s":"0x6b972c1985adba818c1602673175abf2bf82aab2290b4542b49475bb8fa8b12a","to":"0xf55a2b967ddaa5049f537d8402b791901cc9d34e","transactionIndex":"0x0","v":"0x2734","value":"0xc7d713b49da0000"}],"transactionsRoot":"0xb751ca4e32055d87be51fa4aebc1a096ca875e79b61bc8df7e51c4317ae4c551","uncles":[]},"receipts":{"0x26daadab303706041316022b00f009364999b4ff6152539e8ec485e408316ad1":{"blockHash":"0xdf773cb1002ac45ec9f811b3757acdf028b92be2f978f046876cb2156bb712d6","blockNumber":"0xd00118","from":"0xabf5a69372925f0c29a119268f2cdb83c819a3df","gas":"0x5208","gasPrice":"0x2faf080","hash":"0x26daadab303706041316022b00f009364999b4ff6152539e8ec485e408316ad1","index":"0xd00117","input":"0x","l1BlockNumber":"0x11774cf","l1Timestamp":"0x65243d4e","l1TxOrigin":null,"nonce":"0x46","queueIndex":null,"queueOrigin":"sequencer","r":"0x79771d98f5217cb20fbc87cfd11c30b6ecca9005d086d42f2fd8f4a6a41a821c","rawTransaction":"0xf86d468402faf08082520894f55a2b967ddaa5049f537d8402b791901cc9d34e880c7d713b49da000080822734a079771d98f5217cb20fbc87cfd11c30b6ecca9005d086d42f2fd8f4a6a41a821ca06b972c1985adba818c1602673175abf2bf82aab2290b4542b49475bb8fa8b12a","s":"0x6b972c1985adba818c1602673175abf2bf82aab2290b4542b49475bb8fa8b12a","to":"0xf55a2b967ddaa5049f537d8402b791901cc9d34e","transactionIndex":"0x0","v":"0x2734","value":"0xc7d713b49da0000","contractAddress":null,"cumulativeGasUsed":"0x5208","daFee":"0x0","daGasPrice":"0x0","daGasUsed":"0x29","gasUsed":"0x5208","l1Fee":"0x1a09f6380cb9fe0","l1FeeScalar":"1","l1GasPrice":"0x39ff1464e55c","l1GasUsed":"0x72f","logs":[],"logsBloom":"0x00000000000000000000000000000000000000000000000000000000000000000000000000000000000000000000000000000000000000000000000000000000000000000000000000000000000000000000000000000000000000000000000000000000000000000000000000000000000000000000000000000000000000000000000000000000000000000000000000000000000000000000000000000000000000000000000000000000000000000000000000000000000000000000000000000000000000000000000000000000000000000000000000000000000000000000000000000000000000000000000000000000000000000000000000000000","status":"0x1","transactionHash":"0x26daadab303706041316022b00f009364999b4ff6152539e8ec485e408316ad1"}}}