{"block":{"difficulty":"0x2","extraData":"0xd98301090a846765746889676f312e31352e3133856c696e757800000000000035183c57138889d4f8a52c7f378ec31d1d2c58f3e5f16a6348e36ed2f99f55de28a1fef992e10ef593747c4b1f81354f224e126457835c8f3bc421202d3e98aa01","gasLimit":"0x1c9c380","gasUsed":"0x204dd","hash":"0xbc6915d351f638fa6362a1160612d6e458b5900c324772b089975cf7b669bfa9","logsBloom":"0x0000000000000000000000000000000000004000000100880000000000000000000000000000000000000000000200000000000000200000000000000000000004800000004400000000000800000000000000c000002000000000000000000000000000000000000000000000000000000000100000800000000010000000000000000000000000000000000000000000000000000000000000000000000000000000000000000000000000000000000000000001000000000000000000100000000002000000000000000000000000002001000000000100000000000000000000000000000000000000000000000000000000000010000000000000000000","miner":"0x0000000000000000000000000000000000000000","mixHash":"0x0000000000000000000000000000000000000000000000000000000000000000","nonce":"0x0000000000000000","number":"0xd00323","parentHash":"0x92aff624c41bf8dd7b6df127912f5e94d7201207aa7ba69087b05da9bca6f927","receiptsRoot":"0x886d8b0490c7399051944c6ab6ff44b97abf8753acf200c7f207e54fc0b699ac","sha3Uncles":"0x1dcc4de8dec75d7aab85b567b6ccd41ad312451b948a7413f0a142fd40d49347","size":"0x3d8","stateRoot":"0x498b0609a786d7f21d8eca533d7050e179eb2a7451fb36de6312e95130421975","timestamp":"0x65243e61","totalDifficulty":"0x1a00647","transactions":[{"blockHash":"0xbc6915d351f638fa6362a1160612d6e458b5900c324772b089975cf7b669bfa9","blockNumber":"0xd00323","from":"0x3b110eb7bb3332042016eb9bf96b25302f82ae5c","gas":"0x21d08","gasPrice":"0x2faf080","hash":"0x2fd1c7ff3efa59e9d86594d3cf1906f43abee3fa90ea1d3ac68affb89eac06e3","index":"0xd00322","input":"0x414bf38900000000000000000000000009bc4e0d864854c6afb6eb9a9cdf58ac190d0df9000000000000000000000000201eba5cc46d216ce6dc03f6a759e8e766e956ae00000000000000000000000000000000000000000000000000000000000000640000000000000000000000003b110eb7bb3332042016eb9bf96b25302f82ae5c0000000000000000000000000000000000000000000000000000000065243e8100000000000000000000000000000000000000000000000000000000000de2b000000000000000000000000000000000000000000000000000000000000d9a160000000000000000000000000000000000000000000000000000000000000000","l1BlockNumber":"0x11774e6","l1Timestamp":"0x65243e61","l1TxOrigin":null,"nonce":"0x8c0","queueIndex":null,"queueOrigin":"sequencer","r":"0x911aa2f9cc15ee8d31e4442d5ee9dcfced1320666e33d7dbff206d76160645e8","rawTransaction":"0xf9016e8208c08402faf08083021d0894319b69888b0d11cec22caa5034e25fffbdc8842180b90104414bf38900000000000000000000000009bc4e0d864854c6afb6eb9a9cdf58ac190d0df9000000000000000000000000201eba5cc46d216ce6dc03f6a759e8e766e956ae00000000000000000000000000000000000000000000000000000000000000640000000000000000000000003b110eb7bb3332042016eb9bf96b25302f82ae5c0000000000000000000000000000000000000000000000000000000065243e8100000000000000000000000000000000000000000000000000000000000de2b000000000000000000000000000000000000000000000000000000000000d9a160000000000000000000000000000000000000000000000000000000000000000822733a0911aa2f9cc15ee8d31e4442d5ee9dcfced1320666e33d7dbff206d76160645e8a03e7d038b479b33a2035eee5e19733bbe31dc69d7a20bc43961df3cf5259a89a0","s":"0x3e7d038b479b33a2035eee5e19733bbe31dc69d7a20bc43961df3cf5259a89a0","to":"0x319b69888b0d11cec22caa5034e25fffbdc88421","transactionIndex":"0x0","v":"0x2733","value":"0x0"}],"transactionsRoot":"0xb46112816ede50bdcbb18bfb1c1b2885f653aa08b7f7359062cc5b6066e1e4d9","uncles":[]},"receipts":{"0x2fd1c7ff3efa59e9d86594d3cf1906f43abee3fa90ea1d3ac68affb89eac06e3":{"blockHash":"0xbc6915d351f638fa6362a1160612d6e458b5900c324772b089975cf7b669bfa9","blockNumber":"0xd00323","from":"0x3b110eb7bb3332042016eb9bf96b25302f82ae5c","gas":"0x21d08","gasPrice":"0x2faf080","hash":"0x2fd1c7ff3efa59e9d86594d3cf1906f43abee3fa90ea1d3ac68affb89eac06e3","index":"0xd00322","input":"0x414bf38900000000000000000000000009bc4e0d864854c6afb6eb9a9cdf58ac190d0df9000000000000000000000000201eba5cc46d216ce6dc03f6a759e8e766e956ae00000000000000000000000000000000000000000000000000000000000000640000000000000000000000003b110eb7bb3332042016eb9bf96b25302f82ae5c0000000000000000000000000000000000000000000000000000000065243e8100000000000000000000000000000000000000000000000000000000000de2b000000000000000000000000000000000000000000000000000000000000d9a160000000000000000000000000000000000000000000000000000000000000000","l1BlockNumber":"0x11774e6","l1Timestamp":"0x65243e61","l1TxOrigin":null,"nonce":"0x8c0","queueIndex":null,"queueOrigin":"sequencer","r":"0x911aa2f9cc15ee8d31e4442d5ee9dcfced1320666e33d7dbff206d76160645e8","rawTransaction":"0xf9016e8208c08402faf08083021d0894319b69888b0d11cec22caa5034e25fffbdc8842180b90104414bf38900000000000000000000000009bc4e0d864854c6afb6eb9a9cdf58ac190d0df9000000000000000000000000201eba5cc46d216ce6dc03f6a759e8e766e956ae00000000000000000000000000000000000000000000000000000000000000640000000000000000000000003b110eb7bb3332042016eb9bf96b25302f82ae5c0000000000000000000000000000000000000000000000000000000065243e8100000000000000000000000000000000000000000000000000000000000de2b000000000000000000000000000000000000000000000000000000000000d9a160000000000000000000000000000000000000000000000000000000000000000822733a0911aa2f9cc15ee8d31e4442d5ee9dcfced1320666e33d7dbff206d76160645e8a03e7d038b479b33a2035eee5e19733bbe31dc69d7a20bc43961df3cf5259a89a0","s":"0x3e7d038b479b33a2035eee5e19733bbe31dc69d7a20bc43961df3cf5259a89a0","to":"0x319b69888b0d11cec22caa5034e25fffbdc88421","transactionIndex":"0x0","v":"0x2733","value":"0x0","contractAddress":null,"cumulativeGasUsed":"0x204dd","daFee":"0x0","daGasPrice":"0x0","daGasUsed":"0x12c","gasUsed":"0x204dd","l1Fee":"0x19709d787180660","l1FeeScalar":"1","l1GasPrice":"0x38a987f04864","l1GasUsed":"0x72f","logs":[{"address":"0x201eba5cc46d216ce6dc03f6a759e8e766e956ae","blockHash":"0xbc6915d351f638fa6362a1160612d6e458b5900c324772b089975cf7b669bfa9","blockNumber":"0xd00323","data":"0x00000000000000000000000000000000000000000000000000000000000de127","logIndex":"0x0","removed":false,"topics":["0xddf252ad1be2c89b69c2b068fc378daa952ba7f163c4a11628f55a4df523b3ef","0x0000000000000000000000006488f911c6cd86c289aa319c5a826dcf8f1ca065","0x0000000000000000000000003b110eb7bb3332042016eb9bf96b25302f82ae5c"],"transactionHash":"0x2fd1c7ff3efa59e9d86594d3cf1906f43abee3fa90ea1d3ac68affb89eac06e3","transactionIndex":"0x0"},{"address":"0x09bc4e0d864854c6afb6eb9a9cdf58ac190d0df9","blockHash":"0xbc6915d351f638fa6362a1160612d6e458b5900c324772b089975cf7b669bfa9","blockNumber":"0xd00323","data":"0x00000000000000000000000000000000000000000000000000000000000de2b0","logIndex":"0x1","removed":false,"topics":["0xddf252ad1be2c89b69c2b068fc378daa952ba7f163c4a11628f55a4df523b3ef","0x0000000000000000000000003b110eb7bb3332042016eb9bf96b25302f82ae5c","0x0000000000000000000000006488f911c6cd86c289aa319c5a826dcf8f1ca065"],"transactionHash":"0x2fd1c7ff3efa59e9d86594d3cf1906f43abee3fa90ea1d3ac68affb89eac06e3","transactionIndex":"0x0"},{"address":"0x6488f911c6cd86c289aa319c5a826dcf8f1ca065","blockHash":"0xbc6915d351f638fa6362a1160612d6e458b5900c324772b089975cf7b669bfa9","blockNumber":"0xd00323","data":"0x00000000000000000000000000000000000000000000000000000000000de2b0fffffffffffffffffffffffffffffffffffffffffffffffffffffffffff21ed90000000000000000000000000000000000000000fff52190af9d7235718cb8b90000000000000000000000000000000000000000000000000000aa91ae904e92fffffffffffffffffffffffffffffffffffffffffffffffffffffffffffffffc000000000000000000000000000000000000000000000000000000000000001e0000000000000000000000000000000000000000000000000000000000000000","logIndex":"0x2","removed":false,"topics":["0x19b47279256b2a23a1665c810c8d55a1758940ee09377d4f8d26497a3577dc83","0x000000000000000000000000319b69888b0d11cec22caa5034e25fffbdc88421","0x0000000000000000000000003b110eb7bb3332042016eb9bf96b25302f82ae5c"],"transactionHash":"0x2fd1c7ff3efa59e9d86594d3cf1906f43abee3fa90ea1d3ac68affb89eac06e3","transactionIndex":"0x0"}],"logsBloom":"0x0000000000000000000000000000000000004000000100880000000000000000000000000000000000000000000200000000000000200000000000000000000004800000004400000000000800000000000000c000002000000000000000000000000000000000000000000000000000000000100000800000000010000000000000000000000000000000000000000000000000000000000000000000000000000000000000000000000000000000000000000001000000000000000000100000000002000000000000000000000000002001000000000100000000000000000000000000000000000000000000000000000000000010000000000000000000","status":"0x1","transactionHash":"0x2fd1c7ff3efa59e9d86594d3cf1906f43abee3fa90ea1d3ac68affb89eac06e3"}}}