{"block":{"difficulty":"0x2","extraData":"0xd98301090a846765746889676f312e31352e3133856c696e75780000000000006efcd2a6a5656d0f1961fd0e5fa49f5ba5729aacf51b122de68c2963d0e0ca0f096c4a3f390373ef342cfdf0fdcc819def4bb752c6bcb583d233de1c2a405c0800","gasLimit":"0x1c9c380","gasUsed":"0x1e213","hash":"0x9b0c3eae432698a105fecfe8f27ab139d0d9e66796ebe8b6ac12e6f616d85a13","logsBloom":"0x40000000000000000000000000000000000000000001008800000000000000000000000000000000000000000002000000000000004000000000000000200004840000000040000000000008000000000000008000002004000000000000000000000001000000000000000100000000000000000000000000000010000000000000000000000000000000000000000000000000000000000008000000000000020000000000000000000000000000000000000001000020000100000000000000000002000000000000000000000000000000000000000000000000000000000010000000001000000000000000000000000000000000000000000000200000","miner":"0x0000000000000000000000000000000000000000","mixHash":"0x0000000000000000000000000000000000000000000000000000000000000000","nonce":"0x0000000000000000","number":"0xcff3d0","parentHash":"0xcde4fc1902e74755d0fb1354993395d1763a9c3caa62600965689f2505dd42a8","receiptsRoot":"0xea934c58b319aa5dfad2f5c958a7a72601c0ee9e6d1ad1bbbccd173ffe149633","sha3Uncles":"0x1dcc4de8dec75d7aab85b567b6ccd41ad312451b948a7413f0a142fd40d49347","size":"0x3d8","stateRoot":"0x9f4080bd514cb571eccd58b50a96cd34d217d61cf66d82d84d4c1daae8f04130","timestamp":"0x6524375c","totalDifficulty":"0x19fe7a1","transactions":[{"blockHash":"0x9b0c3eae432698a105fecfe8f27ab139d0d9e66796ebe8b6ac12e6f616d85a13","blockNumber":"0xcff3d0","from":"0x2d5dbf972e5e7e90d0a91ee2038cc83662c09538","gas":"0x1f9b0","gasPrice":"0x2faf080","hash":"0x8fe2fb49e15e4ef914d5426809dc40cdf3ef52c77bfc404dd58d072d7e9424e3","index":"0xcff3cf","input":"0x414bf389000000000000000000000000201eba5cc46d216ce6dc03f6a759e8e766e956ae000000000000000000000000deaddeaddeaddeaddeaddeaddeaddeaddead111100000000000000000000000000000000000000000000000000000000000001f40000000000000000000000002d5dbf972e5e7e90d0a91ee2038cc83662c09538000000000000000000000000000000000000000000000000000000006524377d00000000000000000000000000000000000000000000000000000000000caa300000000000000000000000000000000000000000000000000001d2ec590a494b0000000000000000000000000000000000000000000000000000000000000000","l1BlockNumber":"0x1177450","l1Timestamp":"0x6524375c","l1TxOrigin":null,"nonce":"0x7e2","queueIndex":null,"queueOrigin":"sequencer","r":"0x8fb683d0a8bfd242a416b4028a6e6e71930e4141266b7e35530c03271c07f917","rawTransaction":"0xf9016e8207e28402faf0808301f9b094319b69888b0d11cec22caa5034e25fffbdc8842180b90104414bf389000000000000000000000000201eba5cc46d216ce6dc03f6a759e8e766e956ae000000000000000000000000deaddeaddeaddeaddeaddeaddeaddeaddead111100000000000000000000000000000000000000000000000000000000000001f40000000000000000000000002d5dbf972e5e7e90d0a91ee2038cc83662c09538000000000000000000000000000000000000000000000000000000006524377d00000000000000000000000000000000000000000000000000000000000caa300000000000000000000000000000000000000000000000000001d2ec590a494b0000000000000000000000000000000000000000000000000000000000000000822734a08fb683d0a8bfd242a416b4028a6e6e71930e4141266b7e35530c03271c07f917a052abd95cfaf1cf9711ff8753d1f08f64e80d4f32f6bf078f07342b2cf3403c04","s":"0x52abd95cfaf1cf9711ff8753d1f08f64e80d4f32f6bf078f07342b2cf3403c04","to":"0x319b69888b0d11cec22caa5034e25fffbdc88421","transactionIndex":"0x0","v":"0x2734","value":"0x0"}],"transactionsRoot":"0x483cb32163acbe74c87fd5c36baa032e4c493905e9f35f4cd814efa05071bb16","uncles":[]},"receipts":{"0x8fe2fb49e15e4ef914d5426809dc40cdf3ef52c77bfc404dd58d072d7e9424e3":{"blockHash":"0x9b0c3eae432698a105fecfe8f27ab139d0d9e66796ebe8b6ac12e6f616d85a13","blockNumber":"0xcff3d0","from":"0x2d5dbf972e5e7e90d0a91ee2038cc83662c09538","gas":"0x1f9b0","gasPrice":"0x2faf080","hash":"0x8fe2fb49e15e4ef914d5426809dc40cdf3ef52c77bfc404dd58d072d7e9424e3","index":"0xcff3cf","input":"0x414bf389000000000000000000000000201eba5cc46d216ce6dc03f6a759e8e766e956ae000000000000000000000000deaddeaddeaddeaddeaddeaddeaddeaddead111100000000000000000000000000000000000000000000000000000000000001f40000000000000000000000002d5dbf972e5e7e90d0a91ee2038cc83662c09538000000000000000000000000000000000000000000000000000000006524377d00000000000000000000000000000000000000000000000000000000000caa300000000000000000000000000000000000000000000000000001d2ec590a494b0000000000000000000000000000000000000000000000000000000000000000","l1BlockNumber":"0x1177450","l1Timestamp":"0x6524375c","l1TxOrigin":null,"nonce":"0x7e2","queueIndex":null,"queueOrigin":"sequencer","r":"0x8fb683d0a8bfd242a416b4028a6e6e71930e4141266b7e35530c03271c07f917","rawTransaction":"0xf9016e8207e28402faf0808301f9b094319b69888b0d11cec22caa5034e25fffbdc8842180b90104414bf389000000000000000000000000201eba5cc46d216ce6dc03f6a759e8e766e956ae000000000000000000000000deaddeaddeaddeaddeaddeaddeaddeaddead111100000000000000000000000000000000000000000000000000000000000001f40000000000000000000000002d5dbf972e5e7e90d0a91ee2038cc83662c09538000000000000000000000000000000000000000000000000000000006524377d00000000000000000000000000000000000000000000000000000000000caa300000000000000000000000000000000000000000000000000001d2ec590a494b0000000000000000000000000000000000000000000000000000000000000000822734a08fb683d0a8bfd242a416b4028a6e6e71930e4141266b7e35530c03271c07f917a052abd95cfaf1cf9711ff8753d1f08f64e80d4f32f6bf078f07342b2cf3403c04","s":"0x52abd95cfaf1cf9711ff8753d1f08f64e80d4f32f6bf078f07342b2cf3403c04","to":"0x319b69888b0d11cec22caa5034e25fffbdc88421","transactionIndex":"0x0","v":"0x2734","value":"0x0","contractAddress":null,"cumulativeGasUsed":"0x1e213","daFee":"0x0","daGasPrice":"0x0","daGasUsed":"0x12c","gasUsed":"0x1e213","l1Fee":"0x1c5145ff7a866d0","l1FeeScalar":"1","l1GasPrice":"0x3f1249c65230","l1GasUsed":"0x72f","logs":[{"address":"0xdeaddeaddeaddeaddeaddeaddeaddeaddead1111","blockHash":"0x9b0c3eae432698a105fecfe8f27ab139d0d9e66796ebe8b6ac12e6f616d85a13","blockNumber":"0xcff3d0","data":"0x0000000000000000000000000000000000000000000000000001dc73c892553d","logIndex":"0x0","removed":false,"topics":["0xddf252ad1be2c89b69c2b068fc378daa952ba7f163c4a11628f55a4df523b3ef","0x000000000000000000000000628f7131cf43e88ebe3921ae78c4ba0c31872bd4","0x0000000000000000000000002d5dbf972e5e7e90d0a91ee2038cc83662c09538"],"transactionHash":"0x8fe2fb49e15e4ef914d5426809dc40cdf3ef52c77bfc404dd58d072d7e9424e3","transactionIndex":"0x0"},{"address":"0x201eba5cc46d216ce6dc03f6a759e8e766e956ae","blockHash":"0x9b0c3eae432698a105fecfe8f27ab139d0d9e66796ebe8b6ac12e6f616d85a13","blockNumber":"0xcff3d0","data":"0x00000000000000000000000000000000000000000000000000000000000caa30","logIndex":"0x1","removed":false,"topics":["0xddf252ad1be2c89b69c2b068fc378daa952ba7f163c4a11628f55a4df523b3ef","0x0000000000000000000000002d5dbf972e5e7e90d0a91ee2038cc83662c09538","0x000000000000000000000000628f7131cf43e88ebe3921ae78c4ba0c31872bd4"],"transactionHash":"0x8fe2fb49e15e4ef914d5426809dc40cdf3ef52c77bfc404dd58d072d7e9424e3","transactionIndex":"0x0"},{"address":"0x201eba5cc46d216ce6dc03f6a759e8e766e956ae","blockHash":"0x9b0c3eae432698a105fecfe8f27ab139d0d9e66796ebe8b6ac12e6f616d85a13","blockNumber":"0xcff3d0","data":"0xffffffffffffffffffffffffffffffffffffffffffffffffffffffffcc5f245f","logIndex":"0x2","removed":false,"topics":["0x8c5be1e5ebec7d5bd14f71427d1e84f3dd0314c0f7b2291e5b200ac8c7c3b925","0x0000000000000000000000002d5dbf972e5e7e90d0a91ee2038cc83662c09538","0x000000000000000000000000319b69888b0d11cec22caa5034e25fffbdc88421"],"transactionHash":"0x8fe2fb49e15e4ef914d5426809dc40cdf3ef52c77bfc404dd58d072d7e9424e3","transactionIndex":"0x0"},{"address":"0x628f7131cf43e88ebe3921ae78c4ba0c31872bd4","blockHash":"0x9b0c3eae432698a105fecfe8f27ab139d0d9e66796ebe8b6ac12e6f616d85a13","blockNumber":"0xcff3d0","data":"0x00000000000000000000000000000000000000000000000000000000000caa30fffffffffffffffffffffffffffffffffffffffffffffffffffe238c376daac30000000000000000000000000000000000006223dd45b933e81b4f3dd1b2de4c00000000000000000000000000000000000000000000000000002c65dde06c200000000000000000000000000000000000000000000000000000000000031791000000000000000000000000000000000000000000000000000000000000008d0000000000000000000000000000000000000000000000000000000000000000","logIndex":"0x3","removed":false,"topics":["0x19b47279256b2a23a1665c810c8d55a1758940ee09377d4f8d26497a3577dc83","0x000000000000000000000000319b69888b0d11cec22caa5034e25fffbdc88421","0x0000000000000000000000002d5dbf972e5e7e90d0a91ee2038cc83662c09538"],"transactionHash":"0x8fe2fb49e15e4ef914d5426809dc40cdf3ef52c77bfc404dd58d072d7e9424e3","transactionIndex":"0x0"}],"logsBloom":"0x40000000000000000000000000000000000000000001008800000000000000000000000000000000000000000002000000000000004000000000000000200004840000000040000000000008000000000000008000002004000000000000000000000001000000000000000100000000000000000000000000000010000000000000000000000000000000000000000000000000000000000008000000000000020000000000000000000000000000000000000001000020000100000000000000000002000000000000000000000000000000000000000000000000000000000010000000001000000000000000000000000000000000000000000000200000","status":"0x1","transactionHash":"0x8fe2fb49e15e4ef914d5426809dc40cdf3ef52c77bfc404dd58d072d7e9424e3"}}}