{"block":{"difficulty":"0x2","extraData":"0xd98301090a846765746889676f312e31352e3133856c696e75780000000000000543eed9ae0cad7b608d50a886dccb3f012297ed323f20455bc97077afcbc2015afe6f9588a58a2ece9af05f358866887d954208b349ce07a0eb93bb8dbff0bf01","gasLimit":"0x1c9c380","gasUsed":"0x57612","hash":"0x1bad1ac702e7179ea28defa1c69f3a31e31c3d6d64ac2ee0d1ddda75d4c77863","logsBloom":"0x000000000104080000800000010080000000000000010000000000000240010000000000000000001000000800000400000000000000100000000000002000000000000000000000000000080400000000000080000020000004000000000000000000000200000000000000200008000000000000080004100000100001100000c00000800000000000000000000c0000000000004000000000000000000000020000000000000000800000000000000000000000000100000000000000010000010002000800000000002000020000000000000000001000000000000430000010000400000000000000000000000000000000100000040000000000000000","miner":"0x0000000000000000000000000000000000000000","mixHash":"0x0000000000000000000000000000000000000000000000000000000000000000","nonce":"0x0000000000000000","number":"0xd00090","parentHash":"0x6e051cbdfbff1488dbe129e5832263d00857c2a7dd26b5d6e5ac4f55319bf763","receiptsRoot":"0x873fe09a07f11020aa8b64e7a532c7e3b0e3b4e26f7e2de513c7821cb66ed540","sha3Uncles":"0x1dcc4de8dec75d7aab85b567b6ccd41ad312451b948a7413f0a142fd40d49347","size":"0x353","stateRoot":"0x9adb741c6f4f20057d2342647ac25e8e5052e0c6a7d6e6b493c65f790fe18b0d","timestamp":"0x65243d11","totalDifficulty":"0x1a00121","transactions":[{"blockHash":"0x1bad1ac702e7179ea28defa1c69f3a31e31c3d6d64ac2ee0d1ddda75d4c77863","blockNumber":"0xd00090","from":"0x955f17a2254c57d5ebb4a84facc9e00daf88a4d6","gas":"0x5b085","gasPrice":"0x2faf080","hash":"0x026646d373c03b1553d749830b853431c9ce12334ebc067f07e7ff45c9bb2461","index":"0xd0008f","input":"0xe8eda9df000000000000000000000000201eba5cc46d216ce6dc03f6a759e8e766e956ae0000000000000000000000000000000000000000000000000000000000ae613f000000000000000000000000955f17a2254c57d5ebb4a84facc9e00daf88a4d60000000000000000000000000000000000000000000000000000000000000000","l1BlockNumber":"0x11774ca","l1Timestamp":"0x65243d11","l1TxOrigin":null,"nonce":"0x4","queueIndex":null,"queueOrigin":"sequencer","r":"0x4fe4fa4d80f1a168bb4aabdaee00383ac36115ea89c7a5930ac642f2918732d5","rawTransaction":"0xf8eb048402faf0808305b08594cfa5ae7c2ce8fadc6426c1ff872ca45378fb7cf380b884e8eda9df000000000000000000000000201eba5cc46d216ce6dc03f6a759e8e766e956ae0000000000000000000000000000000000000000000000000000000000ae613f000000000000000000000000955f17a2254c57d5ebb4a84facc9e00daf88a4d60000000000000000000000000000000000000000000000000000000000000000822733a04fe4fa4d80f1a168bb4aabdaee00383ac36115ea89c7a5930ac642f2918732d5a041a4a11de2f101d5c1daac56f75f8c112f9aa9bb2dce295247cd60af2f33abe6","s":"0x41a4a11de2f101d5c1daac56f75f8c112f9aa9bb2dce295247cd60af2f33abe6","to":"0xcfa5ae7c2ce8fadc6426c1ff872ca45378fb7cf3","transactionIndex":"0x0","v":"0x2733","value":"0x0"}],"transactionsRoot":"0xf7a1eb3defe10a9da6bcffd17c904ef97d2afb40228a12223b5eba429cc67e99","uncles":[]},"receipts":{"0x026646d373c03b1553d749830b853431c9ce12334ebc067f07e7ff45c9bb2461":{"blockHash":"0x1bad1ac702e7179ea28defa1c69f3a31e31c3d6d64ac2ee0d1ddda75d4c77863","blockNumber":"0xd00090","from":"0x955f17a2254c57d5ebb4a84facc9e00daf88a4d6","gas":"0x5b085","gasPrice":"0x2faf080","hash":"0x026646d373c03b1553d749830b853431c9ce12334ebc067f07e7ff45c9bb2461","index":"0xd0008f","input":"0xe8eda9df000000000000000000000000201eba5cc46d216ce6dc03f6a759e8e766e956ae0000000000000000000000000000000000000000000000000000000000ae613f000000000000000000000000955f17a2254c57d5ebb4a84facc9e00daf88a4d60000000000000000000000000000000000000000000000000000000000000000","l1BlockNumber":"0x11774ca","l1Timestamp":"0x65243d11","l1TxOrigin":null,"nonce":"0x4","queueIndex":null,"queueOrigin":"sequencer","r":"0x4fe4fa4d80f1a168bb4aabdaee00383ac36115ea89c7a5930ac642f2918732d5","rawTransaction":"0xf8eb048402faf0808305b08594cfa5ae7c2ce8fadc6426c1ff872ca45378fb7cf380b884e8eda9df000000000000000000000000201eba5cc46d216ce6dc03f6a759e8e766e956ae0000000000000000000000000000000000000000000000000000000000ae613f000000000000000000000000955f17a2254c57d5ebb4a84facc9e00daf88a4d60000000000000000000000000000000000000000000000000000000000000000822733a04fe4fa4d80f1a168bb4aabdaee00383ac36115ea89c7a5930ac642f2918732d5a041a4a11de2f101d5c1daac56f75f8c112f9aa9bb2dce295247cd60af2f33abe6","s":"0x41a4a11de2f101d5c1daac56f75f8c112f9aa9bb2dce295247cd60af2f33abe6","to":"0xcfa5ae7c2ce8fadc6426c1ff872ca45378fb7cf3","transactionIndex":"0x0","v":"0x2733","value":"0x0","contractAddress":null,"cumulativeGasUsed":"0x57612","daFee":"0x0","daGasPrice":"0x0","daGasUsed":"0xa8","gasUsed":"0x57612","l1Fee":"0x1a09f6380cb9fe0","l1FeeScalar":"1","l1GasPrice":"0x39ff1464e55c","l1GasUsed":"0x72f","logs":[{"address":"0x79e2fd1c484eb9ee45001a98ce31f28918f27c41","blockHash":"0x1bad1ac702e7179ea28defa1c69f3a31e31c3d6d64ac2ee0d1ddda75d4c77863","blockNumber":"0xd00090","data":"0x00000000000000000000000000000000000000000000000000000000379ef8f6000000000000000000000000000000000000000000000000000000ca52fda9fb","logIndex":"0x0","removed":false,"topics":["0x526824944047da5b81071fb6349412005c5da81380b336103fbe5dd34556c776","0x000000000000000000000000e71cbaaa6b093fce66211e6f218780685077d8b5","0x0000000000000000000000005c75a733656c3e42e44afff1aca1913611f49230"],"transactionHash":"0x026646d373c03b1553d749830b853431c9ce12334ebc067f07e7ff45c9bb2461","transactionIndex":"0x0"},{"address":"0xe71cbaaa6b093fce66211e6f218780685077d8b5","blockHash":"0x1bad1ac702e7179ea28defa1c69f3a31e31c3d6d64ac2ee0d1ddda75d4c77863","blockNumber":"0xd00090","data":"0x0000000000000000000000000000000000000000000000000000000000032296","logIndex":"0x1","removed":false,"topics":["0xddf252ad1be2c89b69c2b068fc378daa952ba7f163c4a11628f55a4df523b3ef","0x0000000000000000000000000000000000000000000000000000000000000000","0x0000000000000000000000005c75a733656c3e42e44afff1aca1913611f49230"],"transactionHash":"0x026646d373c03b1553d749830b853431c9ce12334ebc067f07e7ff45c9bb2461","transactionIndex":"0x0"},{"address":"0x79e2fd1c484eb9ee45001a98ce31f28918f27c41","blockHash":"0x1bad1ac702e7179ea28defa1c69f3a31e31c3d6d64ac2ee0d1ddda75d4c77863","blockNumber":"0xd00090","data":"0x000000000000000000000000000000000000000000000000000000001eb38597000000000000000000000000000000000000000000000000000000ca52fe72a0","logIndex":"0x2","removed":false,"topics":["0x526824944047da5b81071fb6349412005c5da81380b336103fbe5dd34556c776","0x000000000000000000000000e71cbaaa6b093fce66211e6f218780685077d8b5","0x00000000000000000000000053b7183cff6d109189165e7ee4c1ebb922e1e6e5"],"transactionHash":"0x026646d373c03b1553d749830b853431c9ce12334ebc067f07e7ff45c9bb2461","transactionIndex":"0x0"},{"address":"0xe71cbaaa6b093fce66211e6f218780685077d8b5","blockHash":"0x1bad1ac702e7179ea28defa1c69f3a31e31c3d6d64ac2ee0d1ddda75d4c77863","blockNumber":"0xd00090","data":"0x000000000000000000000000000000000000000000000000000000000000c8a5","logIndex":"0x3","removed":false,"topics":["0xddf252ad1be2c89b69c2b068fc378daa952ba7f163c4a11628f55a4df523b3ef","0x0000000000000000000000000000000000000000000000000000000000000000","0x00000000000000000000000053b7183cff6d109189165e7ee4c1ebb922e1e6e5"],"transactionHash":"0x026646d373c03b1553d749830b853431c9ce12334ebc067f07e7ff45c9bb2461","transactionIndex":"0x0"},{"address":"0xe71cbaaa6b093fce66211e6f218780685077d8b5","blockHash":"0x1bad1ac702e7179ea28defa1c69f3a31e31c3d6d64ac2ee0d1ddda75d4c77863","blockNumber":"0xd00090","data":"0x000000000000000000000000000000000000000000000000000000000003f1190000000000000000000000000000000000000000034004b148b18690d681a04d","logIndex":"0x4","removed":false,"topics":["0x4c209b5fc8ad50758f13e2e1088ba56a560dff690a1c6fef26394f4c03821c4f","0x0000000000000000000000005c75a733656c3e42e44afff1aca1913611f49230"],"transactionHash":"0x026646d373c03b1553d749830b853431c9ce12334ebc067f07e7ff45c9bb2461","transactionIndex":"0x0"},{"address":"0xcfa5ae7c2ce8fadc6426c1ff872ca45378fb7cf3","blockHash":"0x1bad1ac702e7179ea28defa1c69f3a31e31c3d6d64ac2ee0d1ddda75d4c77863","blockNumber":"0xd00090","data":"0x0000000000000000000000000000000000000000000b0fa0b702cb3e270cf4d80000000000000000000000000000000000000000001cf389cd46047d030000000000000000000000000000000000000000000000001e3f8446609d6da630a15b0000000000000000000000000000000000000000034004b148b18690d681a04d00000000000000000000000000000000000000000346d8a804ebe282d7288576","logIndex":"0x5","removed":false,"topics":["0x804c9b842b2748a22bb64b345453a3de7ca54a6ca45ce00d415894979e22897a","0x000000000000000000000000201eba5cc46d216ce6dc03f6a759e8e766e956ae"],"transactionHash":"0x026646d373c03b1553d749830b853431c9ce12334ebc067f07e7ff45c9bb2461","transactionIndex":"0x0"},{"address":"0x201eba5cc46d216ce6dc03f6a759e8e766e956ae","blockHash":"0x1bad1ac702e7179ea28defa1c69f3a31e31c3d6d64ac2ee0d1ddda75d4c77863","blockNumber":"0xd00090","data":"0x0000000000000000000000000000000000000000000000000000000000ae613f","logIndex":"0x6","removed":false,"topics":["0xddf252ad1be2c89b69c2b068fc378daa952ba7f163c4a11628f55a4df523b3ef","0x000000000000000000000000955f17a2254c57d5ebb4a84facc9e00daf88a4d6","0x000000000000000000000000e71cbaaa6b093fce66211e6f218780685077d8b5"],"transactionHash":"0x026646d373c03b1553d749830b853431c9ce12334ebc067f07e7ff45c9bb2461","transactionIndex":"0x0"},{"address":"0x201eba5cc46d216ce6dc03f6a759e8e766e956ae","blockHash":"0x1bad1ac702e7179ea28defa1c69f3a31e31c3d6d64ac2ee0d1ddda75d4c77863","blockNumber":"0xd00090","data":"0x0000000000000000000000000000000000000000000000000000000000000000","logIndex":"0x7","removed":false,"topics":["0x8c5be1e5ebec7d5bd14f71427d1e84f3dd0314c0f7b2291e5b200ac8c7c3b925","0x000000000000000000000000955f17a2254c57d5ebb4a84facc9e00daf88a4d6","0x000000000000000000000000cfa5ae7c2ce8fadc6426c1ff872ca45378fb7cf3"],"transactionHash":"0x026646d373c03b1553d749830b853431c9ce12334ebc067f07e7ff45c9bb2461","transactionIndex":"0x0"},{"address":"0x79e2fd1c484eb9ee45001a98ce31f28918f27c41","blockHash":"0x1bad1ac702e7179ea28defa1c69f3a31e31c3d6d64ac2ee0d1ddda75d4c77863","blockNumber":"0xd00090","data":"0x0000000000000000000000000000000000000000000000000000000000ad5daf000000000000000000000000000000000000000000000000000000ca53abd04f","logIndex":"0x8","removed":false,"topics":["0x526824944047da5b81071fb6349412005c5da81380b336103fbe5dd34556c776","0x000000000000000000000000e71cbaaa6b093fce66211e6f218780685077d8b5","0x000000000000000000000000955f17a2254c57d5ebb4a84facc9e00daf88a4d6"],"transactionHash":"0x026646d373c03b1553d749830b853431c9ce12334ebc067f07e7ff45c9bb2461","transactionIndex":"0x0"},{"address":"0xe71cbaaa6b093fce66211e6f218780685077d8b5","blockHash":"0x1bad1ac702e7179ea28defa1c69f3a31e31c3d6d64ac2ee0d1ddda75d4c77863","blockNumber":"0xd00090","data":"0x0000000000000000000000000000000000000000000000000000000000ae613f","logIndex":"0x9","removed":false,"topics":["0xddf252ad1be2c89b69c2b068fc378daa952ba7f163c4a11628f55a4df523b3ef","0x0000000000000000000000000000000000000000000000000000000000000000","0x000000000000000000000000955f17a2254c57d5ebb4a84facc9e00daf88a4d6"],"transactionHash":"0x026646d373c03b1553d749830b853431c9ce12334ebc067f07e7ff45c9bb2461","transactionIndex":"0x0"},{"address":"0xe71cbaaa6b093fce66211e6f218780685077d8b5","blockHash":"0x1bad1ac702e7179ea28defa1c69f3a31e31c3d6d64ac2ee0d1ddda75d4c77863","blockNumber":"0xd00090","data":"0x0000000000000000000000000000000000000000000000000000000000ae613f0000000000000000000000000000000000000000034004b148b18690d681a04d","logIndex":"0xa","removed":false,"topics":["0x4c209b5fc8ad50758f13e2e1088ba56a560dff690a1c6fef26394f4c03821c4f","0x000000000000000000000000955f17a2254c57d5ebb4a84facc9e00daf88a4d6"],"transactionHash":"0x026646d373c03b1553d749830b853431c9ce12334ebc067f07e7ff45c9bb2461","transactionIndex":"0x0"},{"address":"0xcfa5ae7c2ce8fadc6426c1ff872ca45378fb7cf3","blockHash":"0x1bad1ac702e7179ea28defa1c69f3a31e31c3d6d64ac2ee0d1ddda75d4c77863","blockNumber":"0xd00090","data":"0x","logIndex":"0xb","removed":false,"topics":["0x00058a56ea94653cdf4f152d227ace22d4c00ad99e2a43f58cb7d9e3feb295f2","0x000000000000000000000000201eba5cc46d216ce6dc03f6a759e8e766e956ae","0x000000000000000000000000955f17a2254c57d5ebb4a84facc9e00daf88a4d6"],"transactionHash":"0x026646d373c03b1553d749830b853431c9ce12334ebc067f07e7ff45c9bb2461","transactionIndex":"0x0"},{"address":"0xcfa5ae7c2ce8fadc6426c1ff872ca45378fb7cf3","blockHash":"0x1bad1ac702e7179ea28defa1c69f3a31e31c3d6d64ac2ee0d1ddda75d4c77863","blockNumber":"0xd00090","data":"0x000000000000000000000000955f17a2254c57d5ebb4a84facc9e00daf88a4d60000000000000000000000000000000000000000000000000000000000ae613f","logIndex":"0xc","removed":false,"topics":["0xde6857219544bb5b7746f48ed30be6386fefc61b2f864cacf559893bf50fd951","0x000000000000000000000000201eba5cc46d216ce6dc03f6a759e8e766e956ae","0x000000000000000000000000955f17a2254c57d5ebb4a84facc9e00daf88a4d6","0x0000000000000000000000000000000000000000000000000000000000000000"],"transactionHash":"0x026646d373c03b1553d749830b853431c9ce12334ebc067f07e7ff45c9bb2461","transactionIndex":"0x0"}],"logsBloom":"0x000000000104080000800000010080000000000000010000000000000240010000000000000000001000000800000400000000000000100000000000002000000000000000000000000000080400000000000080000020000004000000000000000000000200000000000000200008000000000000080004100000100001100000c00000800000000000000000000c0000000000004000000000000000000000020000000000000000800000000000000000000000000100000000000000010000010002000800000000002000020000000000000000001000000000000430000010000400000000000000000000000000000000100000040000000000000000","status":"0x1","transactionHash":"0x026646d373c03b1553d749830b853431c9ce12334ebc067f07e7ff45c9bb2461"}}}