{"block":{"difficulty":"0x2","extraData":"0xd98301090a846765746889676f312e31352e3133856c696e7578000000000000d222dd299664a33b614108c0b95592fa59820ae0d61736ad9232e1ab6362f7c94fabb7433d327aff58e9fbf923571ed08567b180592dd04506c326eaaa7bcb4400","gasLimit":"0x1c9c380","gasUsed":"0x869f","hash":"0x9ebfdcdf6dee09ebd5e8b0500ce95c71a2bdeab8fc3e1129a6a07d4cb93e77ac","logsBloom":"0x00000000000000000000000000000000000000000000000000000000000000000000000000000000000000000000000000000000000000000000000000000000000000000000000000000000000000000000000000000000000000000000000000000000000000000000000000000000000000000000000000000000000000000000000000000000000000000000000000000000000000000000000000000000000000000000000000000000000000000000000000000000000000000000000000000000000000000000000000000000000000000000000000000000000000000000000000000000000000000000000000000000000000000000000000000000","miner":"0x0000000000000000000000000000000000000000","mixHash":"0x0000000000000000000000000000000000000000000000000000000000000000","nonce":"0x0000000000000000","number":"0xcff364","parentHash":"0xf1b27c62e2aa929dafedd8732f7dd7fab72fa30cd29b5698e6263bb604921119","receiptsRoot":"0x693234d8ce29f9e74987fc603307c4aba59a3c3c2a4c19bfd8c55342c745e46c","sha3Uncles":"0x1dcc4de8dec75d7aab85b567b6ccd41ad312451b948a7413f0a142fd40d49347","size":"0x314","stateRoot":"0x8da518942da6a4d416fc51a8972c181911836c1b55071f5232fe2bc44a7554dd","timestamp":"0x65243734","totalDifficulty":"0x19fe6c9","transactions":[{"blockHash":"0x9ebfdcdf6dee09ebd5e8b0500ce95c71a2bdeab8fc3e1129a6a07d4cb93e77ac","blockNumber":"0xcff364","from":"0x206f2077b9fa2c618745066046bcadaacf6bc1a7","gas":"0x13880","gasPrice":"0x2faf080","hash":"0xe9d94d76d7b95eb22ae56f0edb30fd46dfb321350f8c9d763838e0f344ad655d","index":"0xcff363","input":"0x7ff15f3e00000000000000000000000000000000000000000000000000000000000000010000000000000000000000000000000000000000000000000000027ec557cb00","l1BlockNumber":"0x117744d","l1Timestamp":"0x65243734","l1TxOrigin":null,"nonce":"0xb1c","queueIndex":null,"queueOrigin":"sequencer","r":"0xa2598802905f8b68152446f36e3c73ff05835e3a87be30e366dfe9bb74f48af6","rawTransaction":"0xf8ad820b1c8402faf0808301388094690ef4bf1f67012c53e95627001156e7b1cdadab80b8447ff15f3e00000000000000000000000000000000000000000000000000000000000000010000000000000000000000000000000000000000000000000000027ec557cb00822733a0a2598802905f8b68152446f36e3c73ff05835e3a87be30e366dfe9bb74f48af6a078337a2b3b62519e714e35c521188f9972be2b1ef1bd6d7b49b62af0500944bf","s":"0x78337a2b3b62519e714e35c521188f9972be2b1ef1bd6d7b49b62af0500944bf","to":"0x690ef4bf1f67012c53e95627001156e7b1cdadab","transactionIndex":"0x0","v":"0x2733","value":"0x0"}],"transactionsRoot":"0xa2451bda43a6bb75c11d085cafa69d7bde8abef54540ba2b65b2ef9ed6d3cbd6","uncles":[]},"receipts":{"0xe9d94d76d7b95eb22ae56f0edb30fd46dfb321350f8c9d763838e0f344ad655d":{"blockHash":"0x9ebfdcdf6dee09ebd5e8b0500ce95c71a2bdeab8fc3e1129a6a07d4cb93e77ac","blockNumber":"0xcff364","from":"0x206f2077b9fa2c618745066046bcadaacf6bc1a7","gas":"0x13880","gasPrice":"0x2faf080","hash":"0xe9d94d76d7b95eb22ae56f0edb30fd46dfb321350f8c9d763838e0f344ad655d","index":"0xcff363","input":"0x7ff15f3e00000000000000000000000000000000000000000000000000000000000000010000000000000000000000000000000000000000000000000000027ec557cb00","l1BlockNumber":"0x117744d","l1Timestamp":"0x65243734","l1TxOrigin":null,"nonce":"0xb1c","queueIndex":null,"queueOrigin":"sequencer","r":"0xa2598802905f8b68152446f36e3c73ff05835e3a87be30e366dfe9bb74f48af6","rawTransaction":"0xf8ad820b1c8402faf0808301388094690ef4bf1f67012c53e95627001156e7b1cdadab80b8447ff15f3e00000000000000000000000000000000000000000000000000000000000000010000000000000000000000000000000000000000000000000000027ec557cb00822733a0a2598802905f8b68152446f36e3c73ff05835e3a87be30e366dfe9bb74f48af6a078337a2b3b62519e714e35c521188f9972be2b1ef1bd6d7b49b62af0500944bf","s":"0x78337a2b3b62519e714e35c521188f9972be2b1ef1bd6d7b49b62af0500944bf","to":"0x690ef4bf1f67012c53e95627001156e7b1cdadab","transactionIndex":"0x0","v":"0x2733","value":"0x0","contractAddress":null,"cumulativeGasUsed":"0x869f","daFee":"0x0","daGasPrice":"0x0","daGasUsed":"0x6a","gasUsed":"0x869f","l1Fee":"0x1c5145ff7a866d0","l1FeeScalar":"1","l1GasPrice":"0x3f1249c65230","l1GasUsed":"0x72f","logs":[],"logsBloom":"0x00000000000000000000000000000000000000000000000000000000000000000000000000000000000000000000000000000000000000000000000000000000000000000000000000000000000000000000000000000000000000000000000000000000000000000000000000000000000000000000000000000000000000000000000000000000000000000000000000000000000000000000000000000000000000000000000000000000000000000000000000000000000000000000000000000000000000000000000000000000000000000000000000000000000000000000000000000000000000000000000000000000000000000000000000000000","status":"0x1","transactionHash":"0xe9d94d76d7b95eb22ae56f0edb30fd46dfb321350f8c9d763838e0f344ad655d"}}}