{"block":{"difficulty":"0x2","extraData":"0xd98301090a846765746889676f312e31352e3133856c696e7578000000000000dc5aab1799f2c5f7d3af6d992482e3d47e9b5cd6287b89bdb958803bf7c70f2276306b7488e3012f30d6cb0c8de82290adf29d074c766d434eda54d5b83d846400","gasLimit":"0x1c9c380","gasUsed":"0x24781","hash":"0xd4ab9d77dcce4265ba8218610ef7d8dc0621045d7d8843691feee3ed73fadfd3","logsBloom":"0x40000000000000000000000000000000000000000001008800000000000000000000000000000000000000000002000000000000000008000000000000200000840000000040000000000008000000000000008000002004000000000000000000000001000000000000000100000000000000000000000000000010000000000000000000000000000000000000000000000000000000000008000000000000020000000000010000000000000000000000000001000020000100000000000000000002000000000000000000000000000000000000000000000000000000000010000000001000000000001000000000000000000000000000000000000000","miner":"0x0000000000000000000000000000000000000000","mixHash":"0x0000000000000000000000000000000000000000000000000000000000000000","nonce":"0x0000000000000000","number":"0xcff391","parentHash":"0x3dcb14db2a83d6809495f99640cdfa58bddfc7bfd7910eb8c4c06b82d04b4413","receiptsRoot":"0x7abe600f054a713efa46b96a4474edfb33e3f1905e968b1fa9c1ba0053672475","sha3Uncles":"0x1dcc4de8dec75d7aab85b567b6ccd41ad312451b948a7413f0a142fd40d49347","size":"0x3d8","stateRoot":"0x35b5c8ff03f1c372cc112d7e2621edb49cb2f0f815225657bfa6f4a5fa656477","timestamp":"0x65243743","totalDifficulty":"0x19fe723","transactions":[{"blockHash":"0xd4ab9d77dcce4265ba8218610ef7d8dc0621045d7d8843691feee3ed73fadfd3","blockNumber":"0xcff391","from":"0xc4d32f4320ef290c3812fe377c9faab552d0ccc2","gas":"0x260ba","gasPrice":"0x2faf080","hash":"0x8b903c8c398a1c715d333c5e9c57eed08c17c0accb189df4d2ab94ad30b683f0","index":"0xcff390","input":"0x414bf389000000000000000000000000201eba5cc46d216ce6dc03f6a759e8e766e956ae000000000000000000000000deaddeaddeaddeaddeaddeaddeaddeaddead111100000000000000000000000000000000000000000000000000000000000001f4000000000000000000000000c4d32f4320ef290c3812fe377c9faab552d0ccc20000000000000000000000000000000000000000000000000000000065243765000000000000000000000000000000000000000000000000000000000011da500000000000000000000000000000000000000000000000000002935bf170e43a0000000000000000000000000000000000000000000000000000000000000000","l1BlockNumber":"0x117744e","l1Timestamp":"0x65243743","l1TxOrigin":null,"nonce":"0x1124","queueIndex":null,"queueOrigin":"sequencer","r":"0xe4ce38aeb05fa5ce0c35a06c0dcf279cbfe98fea2bd2c525610d2b2727a27029","rawTransaction":"0xf9016e8211248402faf080830260ba94319b69888b0d11cec22caa5034e25fffbdc8842180b90104414bf389000000000000000000000000201eba5cc46d216ce6dc03f6a759e8e766e956ae000000000000000000000000deaddeaddeaddeaddeaddeaddeaddeaddead111100000000000000000000000000000000000000000000000000000000000001f4000000000000000000000000c4d32f4320ef290c3812fe377c9faab552d0ccc20000000000000000000000000000000000000000000000000000000065243765000000000000000000000000000000000000000000000000000000000011da500000000000000000000000000000000000000000000000000002935bf170e43a0000000000000000000000000000000000000000000000000000000000000000822734a0e4ce38aeb05fa5ce0c35a06c0dcf279cbfe98fea2bd2c525610d2b2727a27029a07bd3bb3107f00ecbed021598a4995df2b8a04095d7ad82f01ff40d0f3a17ac27","s":"0x7bd3bb3107f00ecbed021598a4995df2b8a04095d7ad82f01ff40d0f3a17ac27","to":"0x319b69888b0d11cec22caa5034e25fffbdc88421","transactionIndex":"0x0","v":"0x2734","value":"0x0"}],"transactionsRoot":"0x82ad44dce7de19404c817d843bfcf9ec167bcadba2fa5eb6fbf624c2956c626c","uncles":[]},"receipts":{"0x8b903c8c398a1c715d333c5e9c57eed08c17c0accb189df4d2ab94ad30b683f0":{"blockHash":"0xd4ab9d77dcce4265ba8218610ef7d8dc0621045d7d8843691feee3ed73fadfd3","blockNumber":"0xcff391","from":"0xc4d32f4320ef290c3812fe377c9faab552d0ccc2","gas":"0x260ba","gasPrice":"0x2faf080","hash":"0x8b903c8c398a1c715d333c5e9c57eed08c17c0accb189df4d2ab94ad30b683f0","index":"0xcff390","input":"0x414bf389000000000000000000000000201eba5cc46d216ce6dc03f6a759e8e766e956ae000000000000000000000000deaddeaddeaddeaddeaddeaddeaddeaddead111100000000000000000000000000000000000000000000000000000000000001f4000000000000000000000000c4d32f4320ef290c3812fe377c9faab552d0ccc20000000000000000000000000000000000000000000000000000000065243765000000000000000000000000000000000000000000000000000000000011da500000000000000000000000000000000000000000000000000002935bf170e43a0000000000000000000000000000000000000000000000000000000000000000","l1BlockNumber":"0x117744e","l1Timestamp":"0x65243743","l1TxOrigin":null,"nonce":"0x1124","queueIndex":null,"queueOrigin":"sequencer","r":"0xe4ce38aeb05fa5ce0c35a06c0dcf279cbfe98fea2bd2c525610d2b2727a27029","rawTransaction":"0xf9016e8211248402faf080830260ba94319b69888b0d11cec22caa5034e25fffbdc8842180b90104414bf389000000000000000000000000201eba5cc46d216ce6dc03f6a759e8e766e956ae000000000000000000000000deaddeaddeaddeaddeaddeaddeaddeaddead111100000000000000000000000000000000000000000000000000000000000001f4000000000000000000000000c4d32f4320ef290c3812fe377c9faab552d0ccc20000000000000000000000000000000000000000000000000000000065243765000000000000000000000000000000000000000000000000000000000011da500000000000000000000000000000000000000000000000000002935bf170e43a0000000000000000000000000000000000000000000000000000000000000000822734a0e4ce38aeb05fa5ce0c35a06c0dcf279cbfe98fea2bd2c525610d2b2727a27029a07bd3bb3107f00ecbed021598a4995df2b8a04095d7ad82f01ff40d0f3a17ac27","s":"0x7bd3bb3107f00ecbed021598a4995df2b8a04095d7ad82f01ff40d0f3a17ac27","to":"0x319b69888b0d11cec22caa5034e25fffbdc88421","transactionIndex":"0x0","v":"0x2734","value":"0x0","contractAddress":null,"cumulativeGasUsed":"0x24781","daFee":"0x0","daGasPrice":"0x0","daGasUsed":"0x12c","gasUsed":"0x24781","l1Fee":"0x1c5145ff7a866d0","l1FeeScalar":"1","l1GasPrice":"0x3f1249c65230","l1GasUsed":"0x72f","logs":[{"address":"0xdeaddeaddeaddeaddeaddeaddeaddeaddead1111","blockHash":"0xd4ab9d77dcce4265ba8218610ef7d8dc0621045d7d8843691feee3ed73fadfd3","blockNumber":"0xcff391","data":"0x0000000000000000000000000000000000000000000000000002a0d0c21f9a85","logIndex":"0x0","removed":false,"topics":["0xddf252ad1be2c89b69c2b068fc378daa952ba7f163c4a11628f55a4df523b3ef","0x000000000000000000000000628f7131cf43e88ebe3921ae78c4ba0c31872bd4","0x000000000000000000000000c4d32f4320ef290c3812fe377c9faab552d0ccc2"],"transactionHash":"0x8b903c8c398a1c715d333c5e9c57eed08c17c0accb189df4d2ab94ad30b683f0","transactionIndex":"0x0"},{"address":"0x201eba5cc46d216ce6dc03f6a759e8e766e956ae","blockHash":"0xd4ab9d77dcce4265ba8218610ef7d8dc0621045d7d8843691feee3ed73fadfd3","blockNumber":"0xcff391","data":"0x000000000000000000000000000000000000000000000000000000000011da50","logIndex":"0x1","removed":false,"topics":["0xddf252ad1be2c89b69c2b068fc378daa952ba7f163c4a11628f55a4df523b3ef","0x000000000000000000000000c4d32f4320ef290c3812fe377c9faab552d0ccc2","0x000000000000000000000000628f7131cf43e88ebe3921ae78c4ba0c31872bd4"],"transactionHash":"0x8b903c8c398a1c715d333c5e9c57eed08c17c0accb189df4d2ab94ad30b683f0","transactionIndex":"0x0"},{"address":"0x201eba5cc46d216ce6dc03f6a759e8e766e956ae","blockHash":"0xd4ab9d77dcce4265ba8218610ef7d8dc0621045d7d8843691feee3ed73fadfd3","blockNumber":"0xcff391","data":"0xffffffffffffffffffffffffffffffffffffffffffffffffffffffff8ac10bdf","logIndex":"0x2","removed":false,"topics":["0x8c5be1e5ebec7d5bd14f71427d1e84f3dd0314c0f7b2291e5b200ac8c7c3b925","0x000000000000000000000000c4d32f4320ef290c3812fe377c9faab552d0ccc2","0x000000000000000000000000319b69888b0d11cec22caa5034e25fffbdc88421"],"transactionHash":"0x8b903c8c398a1c715d333c5e9c57eed08c17c0accb189df4d2ab94ad30b683f0","transactionIndex":"0x0"},{"address":"0x628f7131cf43e88ebe3921ae78c4ba0c31872bd4","blockHash":"0xd4ab9d77dcce4265ba8218610ef7d8dc0621045d7d8843691feee3ed73fadfd3","blockNumber":"0xcff391","data":"0x000000000000000000000000000000000000000000000000000000000011da50fffffffffffffffffffffffffffffffffffffffffffffffffffd5f2f3de0657b0000000000000000000000000000000000006237eb9b200b45a84fc40f44b20100000000000000000000000000000000000000000000000000002c65dde06c2000000000000000000000000000000000000000000000000000000000000317a100000000000000000000000000000000000000000000000000000000000000c60000000000000000000000000000000000000000000000000000000000000000","logIndex":"0x3","removed":false,"topics":["0x19b47279256b2a23a1665c810c8d55a1758940ee09377d4f8d26497a3577dc83","0x000000000000000000000000319b69888b0d11cec22caa5034e25fffbdc88421","0x000000000000000000000000c4d32f4320ef290c3812fe377c9faab552d0ccc2"],"transactionHash":"0x8b903c8c398a1c715d333c5e9c57eed08c17c0accb189df4d2ab94ad30b683f0","transactionIndex":"0x0"}],"logsBloom":"0x40000000000000000000000000000000000000000001008800000000000000000000000000000000000000000002000000000000000008000000000000200000840000000040000000000008000000000000008000002004000000000000000000000001000000000000000100000000000000000000000000000010000000000000000000000000000000000000000000000000000000000008000000000000020000000000010000000000000000000000000001000020000100000000000000000002000000000000000000000000000000000000000000000000000000000010000000001000000000001000000000000000000000000000000000000000","status":"0x1","transactionHash":"0x8b903c8c398a1c715d333c5e9c57eed08c17c0accb189df4d2ab94ad30b683f0"}}}