{"block":{"difficulty":"0x2","extraData":"0xd98301090a846765746889676f312e31352e3133856c696e75780000000000002f53c41e4bb2eebe06cc32e933ffa049fbc1e55b1c3db8465fbddf162cc3275f5b7e53be3294865bfece48f5fd4e6f8d57a98cb808045cd5510e3827c1cff6ec01","gasLimit":"0x1c9c380","gasUsed":"0x26ff4","hash":"0x91d029aab13c44a805a04a160fe7f8f607d7616b7caa7a444b57baa5c03aca0e","logsBloom":"0x0000000000000000000000000100000000000000000100000000000000000000040000000000000000000000000000000000400000200044008200000020000000000000000000000000000800400040000000c00000200020000000000000000000000000100000000200000000000000000010000000000000001000400000004000000000000020000000000000010000000000400000000000000000000002000120000000000000000000000000000000000000a000000000000000000000000002000000000000000000000000000000000000000000000000000000000010000000004000000000000000100000000020000000000000000000000000","miner":"0x0000000000000000000000000000000000000000","mixHash":"0x0000000000000000000000000000000000000000000000000000000000000000","nonce":"0x0000000000000000","number":"0xcff3d2","parentHash":"0xcf53d100febfd3ac1a17214773adb9a851265aff144f5670ed7dcce067ef9157","receiptsRoot":"0x692d8f64bef493dc9dc0cc2bc941ec4f427b3de182d957e436758da5a5c26255","sha3Uncles":"0x1dcc4de8dec75d7aab85b567b6ccd41ad312451b948a7413f0a142fd40d49347","size":"0x3f8","stateRoot":"0xeed4c784d1d568b88ffac14a77caef716329f796774f6dea542af5516bc72fe8","timestamp":"0x6524375c","totalDifficulty":"0x19fe7a5","transactions":[{"blockHash":"0x91d029aab13c44a805a04a160fe7f8f607d7616b7caa7a444b57baa5c03aca0e","blockNumber":"0xcff3d2","from":"0x89d58350332f0369724dd996a4bbe6b0791cf079","gas":"0x3cdea","gasPrice":"0x2faf080","hash":"0xed0b2b7b58daa469a7302f5e0a56b3023b94ca54dfb9abb9a316ecb73707077e","index":"0xcff3d1","input":"0x75ceafe6000000000000000000000000000000000000000000000000000000000000002000000000000000000000000000000000000000000000000000000000000000a000000000000000000000000089d58350332f0369724dd996a4bbe6b0791cf07900000000000000000000000000000000000000000000000000000000000186a000000000000000000000000000000000000000000000000000000000000184d30000000000000000000000000000000000000000000000000000000065243981000000000000000000000000000000000000000000000000000000000000002b201eba5cc46d216ce6dc03f6a759e8e766e956ae0001f409bc4e0d864854c6afb6eb9a9cdf58ac190d0df9000000000000000000000000000000000000000000","l1BlockNumber":"0x1177450","l1Timestamp":"0x6524375c","l1TxOrigin":null,"nonce":"0x21ec","queueIndex":null,"queueOrigin":"sequencer","r":"0x5bcd46497b5c2e3cdd045610f159207ecef4c36ccf26ebf629fe93069be08a97","rawTransaction":"0xf9018e8221ec8402faf0808303cdea9425c030116feb2e7bba054b9de0915e5f51b03e3180b9012475ceafe6000000000000000000000000000000000000000000000000000000000000002000000000000000000000000000000000000000000000000000000000000000a000000000000000000000000089d58350332f0369724dd996a4bbe6b0791cf07900000000000000000000000000000000000000000000000000000000000186a000000000000000000000000000000000000000000000000000000000000184d30000000000000000000000000000000000000000000000000000000065243981000000000000000000000000000000000000000000000000000000000000002b201eba5cc46d216ce6dc03f6a759e8e766e956ae0001f409bc4e0d864854c6afb6eb9a9cdf58ac190d0df9000000000000000000000000000000000000000000822734a05bcd46497b5c2e3cdd045610f159207ecef4c36ccf26ebf629fe93069be08a97a06c0566d7bf69b8a4f11fbf2a1c6c074a2baaa2415d968a5a00ca1d17260599d6","s":"0x6c0566d7bf69b8a4f11fbf2a1c6c074a2baaa2415d968a5a00ca1d17260599d6","to":"0x25c030116feb2e7bba054b9de0915e5f51b03e31","transactionIndex":"0x0","v":"0x2734","value":"0x0"}],"transactionsRoot":"0x434a7c0f43130ad1a85d906f6f40ad268d03cc1b3d71da5d2272c71e4be21b17","uncles":[]},"receipts":{"0xed0b2b7b58daa469a7302f5e0a56b3023b94ca54dfb9abb9a316ecb73707077e":{"blockHash":"0x91d029aab13c44a805a04a160fe7f8f607d7616b7caa7a444b57baa5c03aca0e","blockNumber":"0xcff3d2","from":"0x89d58350332f0369724dd996a4bbe6b0791cf079","gas":"0x3cdea","gasPrice":"0x2faf080","hash":"0xed0b2b7b58daa469a7302f5e0a56b3023b94ca54dfb9abb9a316ecb73707077e","index":"0xcff3d1","input":"0x75ceafe6000000000000000000000000000000000000000000000000000000000000002000000000000000000000000000000000000000000000000000000000000000a000000000000000000000000089d58350332f0369724dd996a4bbe6b0791cf07900000000000000000000000000000000000000000000000000000000000186a000000000000000000000000000000000000000000000000000000000000184d30000000000000000000000000000000000000000000000000000000065243981000000000000000000000000000000000000000000000000000000000000002b201eba5cc46d216ce6dc03f6a759e8e766e956ae0001f409bc4e0d864854c6afb6eb9a9cdf58ac190d0df9000000000000000000000000000000000000000000","l1BlockNumber":"0x1177450","l1Timestamp":"0x6524375c","l1TxOrigin":null,"nonce":"0x21ec","queueIndex":null,"queueOrigin":"sequencer","r":"0x5bcd46497b5c2e3cdd045610f159207ecef4c36ccf26ebf629fe93069be08a97","rawTransaction":"0xf9018e8221ec8402faf0808303cdea9425c030116feb2e7bba054b9de0915e5f51b03e3180b9012475ceafe6000000000000000000000000000000000000000000000000000000000000002000000000000000000000000000000000000000000000000000000000000000a000000000000000000000000089d58350332f0369724dd996a4bbe6b0791cf07900000000000000000000000000000000000000000000000000000000000186a000000000000000000000000000000000000000000000000000000000000184d30000000000000000000000000000000000000000000000000000000065243981000000000000000000000000000000000000000000000000000000000000002b201eba5cc46d216ce6dc03f6a759e8e766e956ae0001f409bc4e0d864854c6afb6eb9a9cdf58ac190d0df9000000000000000000000000000000000000000000822734a05bcd46497b5c2e3cdd045610f159207ecef4c36ccf26ebf629fe93069be08a97a06c0566d7bf69b8a4f11fbf2a1c6c074a2baaa2415d968a5a00ca1d17260599d6","s":"0x6c0566d7bf69b8a4f11fbf2a1c6c074a2baaa2415d968a5a00ca1d17260599d6","to":"0x25c030116feb2e7bba054b9de0915e5f51b03e31","transactionIndex":"0x0","v":"0x2734","value":"0x0","contractAddress":null,"cumulativeGasUsed":"0x26ff4","daFee":"0x0","daGasPrice":"0x0","daGasUsed":"0x14c","gasUsed":"0x26ff4","l1Fee":"0x1c5145ff7a866d0","l1FeeScalar":"1","l1GasPrice":"0x3f1249c65230","l1GasUsed":"0x72f","logs":[{"address":"0x09bc4e0d864854c6afb6eb9a9cdf58ac190d0df9","blockHash":"0x91d029aab13c44a805a04a160fe7f8f607d7616b7caa7a444b57baa5c03aca0e","blockNumber":"0xcff3d2","data":"0x00000000000000000000000000000000000000000000000000000000000186c7","logIndex":"0x0","removed":false,"topics":["0xddf252ad1be2c89b69c2b068fc378daa952ba7f163c4a11628f55a4df523b3ef","0x000000000000000000000000c865dd3421a6dd706688955fe727c802a98c1df9","0x00000000000000000000000089d58350332f0369724dd996a4bbe6b0791cf079"],"transactionHash":"0xed0b2b7b58daa469a7302f5e0a56b3023b94ca54dfb9abb9a316ecb73707077e","transactionIndex":"0x0"},{"address":"0x201eba5cc46d216ce6dc03f6a759e8e766e956ae","blockHash":"0x91d029aab13c44a805a04a160fe7f8f607d7616b7caa7a444b57baa5c03aca0e","blockNumber":"0xcff3d2","data":"0x00000000000000000000000000000000000000000000000000000000000186a0","logIndex":"0x1","removed":false,"topics":["0xddf252ad1be2c89b69c2b068fc378daa952ba7f163c4a11628f55a4df523b3ef","0x00000000000000000000000089d58350332f0369724dd996a4bbe6b0791cf079","0x000000000000000000000000c865dd3421a6dd706688955fe727c802a98c1df9"],"transactionHash":"0xed0b2b7b58daa469a7302f5e0a56b3023b94ca54dfb9abb9a316ecb73707077e","transactionIndex":"0x0"},{"address":"0x201eba5cc46d216ce6dc03f6a759e8e766e956ae","blockHash":"0x91d029aab13c44a805a04a160fe7f8f607d7616b7caa7a444b57baa5c03aca0e","blockNumber":"0xcff3d2","data":"0x000000000000000000000000000000000000000000000000000000000021a747","logIndex":"0x2","removed":false,"topics":["0x8c5be1e5ebec7d5bd14f71427d1e84f3dd0314c0f7b2291e5b200ac8c7c3b925","0x00000000000000000000000089d58350332f0369724dd996a4bbe6b0791cf079","0x00000000000000000000000025c030116feb2e7bba054b9de0915e5f51b03e31"],"transactionHash":"0xed0b2b7b58daa469a7302f5e0a56b3023b94ca54dfb9abb9a316ecb73707077e","transactionIndex":"0x0"},{"address":"0xc865dd3421a6dd706688955fe727c802a98c1df9","blockHash":"0x91d029aab13c44a805a04a160fe7f8f607d7616b7caa7a444b57baa5c03aca0e","blockNumber":"0xcff3d2","data":"0x000000000000000000000000000000000000000000000000000000000000000000000000000000000000000000000000000000000000000000000000000186c700000000000000000000000000000000000000000000000000000000000186a0fffffffffffffffffffffffffffffffffffffffffffffffffffffffffffffff7","logIndex":"0x3","removed":false,"topics":["0x0fe977d619f8172f7fdbe8bb8928ef80952817d96936509f67d66346bc4cd10f","0x00000000000000000000000009bc4e0d864854c6afb6eb9a9cdf58ac190d0df9","0x000000000000000000000000201eba5cc46d216ce6dc03f6a759e8e766e956ae","0x00000000000000000000000000000000000000000000000000000000000001f4"],"transactionHash":"0xed0b2b7b58daa469a7302f5e0a56b3023b94ca54dfb9abb9a316ecb73707077e","transactionIndex":"0x0"}],"logsBloom":"0x0000000000000000000000000100000000000000000100000000000000000000040000000000000000000000000000000000400000200044008200000020000000000000000000000000000800400040000000c00000200020000000000000000000000000100000000200000000000000000010000000000000001000400000004000000000000020000000000000010000000000400000000000000000000002000120000000000000000000000000000000000000a000000000000000000000000002000000000000000000000000000000000000000000000000000000000010000000004000000000000000100000000020000000000000000000000000","status":"0x1","transactionHash":"0xed0b2b7b58daa469a7302f5e0a56b3023b94ca54dfb9abb9a316ecb73707077e"}}}