{"block":{"difficulty":"0x2","extraData":"0xd98301090a846765746889676f312e31352e3133856c696e75780000000000007dabc60673d404a381d2cbe2c24ab2d45ff2873e14bdd5851acd161511e7891823f0a4c36ff5c72d5c30837390d26afb6ecaf0970d3f6470d47c491cdffd667d01","gasLimit":"0x1c9c380","gasUsed":"0x1dd1c","hash":"0x9c9077fe40c7194197053c9759bfe45e0e3c7322ae373b2c4cbc630f1dea5378","logsBloom":"0x00000000000000000000000000000000000000000001001000000000000000000800000000000000000000000002000002000000000000000000000000200000040000000040000000000408000000000000008000002000000000000000000000000000000000000000000100000000000000000000000000000010000100000000000000000000000000000000040000020000000000000000000040000000020000000000000000000080000000000000000000000000004100000000000000000002000000000000000000000000000000000000000000000000000000000010000000001000000000000000004000000000000000000000001000000000","miner":"0x0000000000000000000000000000000000000000","mixHash":"0x0000000000000000000000000000000000000000000000000000000000000000","nonce":"0x0000000000000000","number":"0xd002d1","parentHash":"0xd3dcf7592314443ef9ac1addd432026e3a1608d8dd2582352eb6b0f1c674e5e1","receiptsRoot":"0xed17d1589fadac888e26cb1c7286e993f139430a25edffe829047f9549299311","sha3Uncles":"0x1dcc4de8dec75d7aab85b567b6ccd41ad312451b948a7413f0a142fd40d49347","size":"0x3d8","stateRoot":"0xb1cb6409bdc6db9968898f7ccde3ce709ceb7142afe4e415e2f276ba30853fd4","timestamp":"0x65243e3e","totalDifficulty":"0x1a005a3","transactions":[{"blockHash":"0x9c9077fe40c7194197053c9759bfe45e0e3c7322ae373b2c4cbc630f1dea5378","blockNumber":"0xd002d1","from":"0xe7c8d1ef1be2a2b7fee80e984e9e17cee4d89132","gas":"0x1f4a9","gasPrice":"0x2faf080","hash":"0xb1b7d564c65638b02701dc42411e37cc77c34f604972f24c377624c3bb9feb12","index":"0xd002d0","input":"0x414bf389000000000000000000000000201eba5cc46d216ce6dc03f6a759e8e766e956ae000000000000000000000000deaddeaddeaddeaddeaddeaddeaddeaddead111100000000000000000000000000000000000000000000000000000000000001f4000000000000000000000000e7c8d1ef1be2a2b7fee80e984e9e17cee4d891320000000000000000000000000000000000000000000000000000000065243e5f00000000000000000000000000000000000000000000000000000000001312d00000000000000000000000000000000000000000000000000002c1e83380712a0000000000000000000000000000000000000000000000000000000000000000","l1BlockNumber":"0x11774e3","l1Timestamp":"0x65243e3e","l1TxOrigin":null,"nonce":"0xe1d","queueIndex":null,"queueOrigin":"sequencer","r":"0x10c069a6ed85bbea4ab2d9011edfee5038d5ee37c45edc1c9db582049484ef13","rawTransaction":"0xf9016e820e1d8402faf0808301f4a9945989fb161568b9f133edf5cf6787f5597762797f80b90104414bf389000000000000000000000000201eba5cc46d216ce6dc03f6a759e8e766e956ae000000000000000000000000deaddeaddeaddeaddeaddeaddeaddeaddead111100000000000000000000000000000000000000000000000000000000000001f4000000000000000000000000e7c8d1ef1be2a2b7fee80e984e9e17cee4d891320000000000000000000000000000000000000000000000000000000065243e5f00000000000000000000000000000000000000000000000000000000001312d00000000000000000000000000000000000000000000000000002c1e83380712a0000000000000000000000000000000000000000000000000000000000000000822734a010c069a6ed85bbea4ab2d9011edfee5038d5ee37c45edc1c9db582049484ef13a06f4b55549cd6bfa9e3ed55ab169a5bd4a891ddab10bf0a15201a951c5e9dc1ab","s":"0x6f4b55549cd6bfa9e3ed55ab169a5bd4a891ddab10bf0a15201a951c5e9dc1ab","to":"0x5989fb161568b9f133edf5cf6787f5597762797f","transactionIndex":"0x0","v":"0x2734","value":"0x0"}],"transactionsRoot":"0x82b103939f440770f91e48b296e6dd3a9fcc0c7c07069719ba51abd308eb00d7","uncles":[]},"receipts":{"0xb1b7d564c65638b02701dc42411e37cc77c34f604972f24c377624c3bb9feb12":{"blockHash":"0x9c9077fe40c7194197053c9759bfe45e0e3c7322ae373b2c4cbc630f1dea5378","blockNumber":"0xd002d1","from":"0xe7c8d1ef1be2a2b7fee80e984e9e17cee4d89132","gas":"0x1f4a9","gasPrice":"0x2faf080","hash":"0xb1b7d564c65638b02701dc42411e37cc77c34f604972f24c377624c3bb9feb12","index":"0xd002d0","input":"0x414bf389000000000000000000000000201eba5cc46d216ce6dc03f6a759e8e766e956ae000000000000000000000000deaddeaddeaddeaddeaddeaddeaddeaddead111100000000000000000000000000000000000000000000000000000000000001f4000000000000000000000000e7c8d1ef1be2a2b7fee80e984e9e17cee4d891320000000000000000000000000000000000000000000000000000000065243e5f00000000000000000000000000000000000000000000000000000000001312d00000000000000000000000000000000000000000000000000002c1e83380712a0000000000000000000000000000000000000000000000000000000000000000","l1BlockNumber":"0x11774e3","l1Timestamp":"0x65243e3e","l1TxOrigin":null,"nonce":"0xe1d","queueIndex":null,"queueOrigin":"sequencer","r":"0x10c069a6ed85bbea4ab2d9011edfee5038d5ee37c45edc1c9db582049484ef13","rawTransaction":"0xf9016e820e1d8402faf0808301f4a9945989fb161568b9f133edf5cf6787f5597762797f80b90104414bf389000000000000000000000000201eba5cc46d216ce6dc03f6a759e8e766e956ae000000000000000000000000deaddeaddeaddeaddeaddeaddeaddeaddead111100000000000000000000000000000000000000000000000000000000000001f4000000000000000000000000e7c8d1ef1be2a2b7fee80e984e9e17cee4d891320000000000000000000000000000000000000000000000000000000065243e5f00000000000000000000000000000000000000000000000000000000001312d00000000000000000000000000000000000000000000000000002c1e83380712a0000000000000000000000000000000000000000000000000000000000000000822734a010c069a6ed85bbea4ab2d9011edfee5038d5ee37c45edc1c9db582049484ef13a06f4b55549cd6bfa9e3ed55ab169a5bd4a891ddab10bf0a15201a951c5e9dc1ab","s":"0x6f4b55549cd6bfa9e3ed55ab169a5bd4a891ddab10bf0a15201a951c5e9dc1ab","to":"0x5989fb161568b9f133edf5cf6787f5597762797f","transactionIndex":"0x0","v":"0x2734","value":"0x0","contractAddress":null,"cumulativeGasUsed":"0x1dd1c","daFee":"0x0","daGasPrice":"0x0","daGasUsed":"0x12c","gasUsed":"0x1dd1c","l1Fee":"0x19709d787180660","l1FeeScalar":"1","l1GasPrice":"0x38a987f04864","l1GasUsed":"0x72f","logs":[{"address":"0xdeaddeaddeaddeaddeaddeaddeaddeaddead1111","blockHash":"0x9c9077fe40c7194197053c9759bfe45e0e3c7322ae373b2c4cbc630f1dea5378","blockNumber":"0xd002d1","data":"0x0000000000000000000000000000000000000000000000000002d050348d8326","logIndex":"0x0","removed":false,"topics":["0xddf252ad1be2c89b69c2b068fc378daa952ba7f163c4a11628f55a4df523b3ef","0x000000000000000000000000a125af1a4704044501fe12ca9567ef1550e430e8","0x000000000000000000000000e7c8d1ef1be2a2b7fee80e984e9e17cee4d89132"],"transactionHash":"0xb1b7d564c65638b02701dc42411e37cc77c34f604972f24c377624c3bb9feb12","transactionIndex":"0x0"},{"address":"0x201eba5cc46d216ce6dc03f6a759e8e766e956ae","blockHash":"0x9c9077fe40c7194197053c9759bfe45e0e3c7322ae373b2c4cbc630f1dea5378","blockNumber":"0xd002d1","data":"0x00000000000000000000000000000000000000000000000000000000001312d0","logIndex":"0x1","removed":false,"topics":["0xddf252ad1be2c89b69c2b068fc378daa952ba7f163c4a11628f55a4df523b3ef","0x000000000000000000000000e7c8d1ef1be2a2b7fee80e984e9e17cee4d89132","0x000000000000000000000000a125af1a4704044501fe12ca9567ef1550e430e8"],"transactionHash":"0xb1b7d564c65638b02701dc42411e37cc77c34f604972f24c377624c3bb9feb12","transactionIndex":"0x0"},{"address":"0x201eba5cc46d216ce6dc03f6a759e8e766e956ae","blockHash":"0x9c9077fe40c7194197053c9759bfe45e0e3c7322ae373b2c4cbc630f1dea5378","blockNumber":"0xd002d1","data":"0xfffffffffffffffffffffffffffffffffffffffffffffffffffffffff717b9ff","logIndex":"0x2","removed":false,"topics":["0x8c5be1e5ebec7d5bd14f71427d1e84f3dd0314c0f7b2291e5b200ac8c7c3b925","0x000000000000000000000000e7c8d1ef1be2a2b7fee80e984e9e17cee4d89132","0x0000000000000000000000005989fb161568b9f133edf5cf6787f5597762797f"],"transactionHash":"0xb1b7d564c65638b02701dc42411e37cc77c34f604972f24c377624c3bb9feb12","transactionIndex":"0x0"},{"address":"0xa125af1a4704044501fe12ca9567ef1550e430e8","blockHash":"0x9c9077fe40c7194197053c9759bfe45e0e3c7322ae373b2c4cbc630f1dea5378","blockNumber":"0xd002d1","data":"0x00000000000000000000000000000000000000000000000000000000001312d0fffffffffffffffffffffffffffffffffffffffffffffffffffd2fafcb727cda000000000000000000000000000000000000625996332c577e2eab96523a396a00000000000000000000000000000000000000000000000000c2e1d164a152b300000000000000000000000000000000000000000000000000000000000317bc00000000000000000000000000000000000000000000000000000000000000d40000000000000000000000000000000000000000000000000000000000000000","logIndex":"0x3","removed":false,"topics":["0x19b47279256b2a23a1665c810c8d55a1758940ee09377d4f8d26497a3577dc83","0x0000000000000000000000005989fb161568b9f133edf5cf6787f5597762797f","0x000000000000000000000000e7c8d1ef1be2a2b7fee80e984e9e17cee4d89132"],"transactionHash":"0xb1b7d564c65638b02701dc42411e37cc77c34f604972f24c377624c3bb9feb12","transactionIndex":"0x0"}],"logsBloom":"0x00000000000000000000000000000000000000000001001000000000000000000800000000000000000000000002000002000000000000000000000000200000040000000040000000000408000000000000008000002000000000000000000000000000000000000000000100000000000000000000000000000010000100000000000000000000000000000000040000020000000000000000000040000000020000000000000000000080000000000000000000000000004100000000000000000002000000000000000000000000000000000000000000000000000000000010000000001000000000000000004000000000000000000000001000000000","status":"0x1","transactionHash":"0xb1b7d564c65638b02701dc42411e37cc77c34f604972f24c377624c3bb9feb12"}}}