{"block":{"difficulty":"0x2","extraData":"0xd98301090a846765746889676f312e31352e3133856c696e757800000000000061b942d484cef517fa59e0aa217875240c764771f20716bb64a777038b7588006c7649b59e1e7412dc9e451d12020522f7fbc7b36a4ae59b3a95ff3800fb383601","gasLimit":"0x1c9c380","gasUsed":"0x35de8","hash":"0xc95a320beae76f5c83c0e149f5a70017f6f23fcb137db6488d89341971fb19f2","logsBloom":"0x00000000000000000000002006000000000000004000000000020000000000000000000010000000000000000000000000080000002000020240000000000000100000000000000000000008000000000000004000440000000000000000000000000000020000000000000001020800000000100004040000008010000000000000080000000400000000080100000000108000000001100000000040000000010000004008000000000000000040000000000000000008000300000000000000000002000000010000000000000000800000000000000000000002000020000000080000040000000000000000000000020000400000000000000040000000","miner":"0x0000000000000000000000000000000000000000","mixHash":"0x0000000000000000000000000000000000000000000000000000000000000000","nonce":"0x0000000000000000","number":"0xd002a0","parentHash":"0x2c43acdafe39cf17904b469f2eca5253288760e5457e6cd41d8c77c9a48f76ae","receiptsRoot":"0x236d7c1e4d1f00bc9d8f3392da79cb680271e7534ce693397bc71af58215f2c4","sha3Uncles":"0x1dcc4de8dec75d7aab85b567b6ccd41ad312451b948a7413f0a142fd40d49347","size":"0x656","stateRoot":"0x9ddd6aa110ae8142e15def6e3d8e68211495f00fa674c0da19af203a549241ff","timestamp":"0x65243e25","totalDifficulty":"0x1a00541","transactions":[{"blockHash":"0xc95a320beae76f5c83c0e149f5a70017f6f23fcb137db6488d89341971fb19f2","blockNumber":"0xd002a0","from":"0x3f31dd2e7166376da4a8d998c6abe2a3f7906bf1","gas":"0x536d0","gasPrice":"0x30291a0","hash":"0x6e6fce859f7ecf204a2a009bc6b81f5fa45a028f9bc51ff47864a023d7814575","index":"0xd0029f","input":"0xac9650d80000000000000000000000000000000000000000000000000000000000000020000000000000000000000000000000000000000000000000000000000000000400000000000000000000000000000000000000000000000000000000000000800000000000000000000000000000000000000000000000000000000000000160000000000000000000000000000000000000000000000000000000000000022000000000000000000000000000000000000000000000000000000000000002a000000000000000000000000000000000000000000000000000000000000000a40c49ccbe00000000000000000000000000000000000000000000000000000000000133a7000000000000000000000000000000000000000000000000000002e627de364d00000000000000000000000000000000000000000000000000000000000173ac0000000000000000000000000000000000000000000000000381c1835b5f6c5e00000000000000000000000000000000000000000000000000000000652442c1000000000000000000000000000000000000000000000000000000000000000000000000000000000000000000000000000000000000000000000084fc6f786500000000000000000000000000000000000000000000000000000000000133a7000000000000000000000000000000000000000000000000000000000000000000000000000000000000000000000000ffffffffffffffffffffffffffffffff00000000000000000000000000000000ffffffffffffffffffffffffffffffff000000000000000000000000000000000000000000000000000000000000000000000000000000000000000000000000000000000000000000000044cf3f26d60000000000000000000000000000000000000000000000000381c1835b5f6c5e0000000000000000000000003f31dd2e7166376da4a8d998c6abe2a3f7906bf1000000000000000000000000000000000000000000000000000000000000000000000000000000000000000000000000000000000000000000000064df2ab5bb00000000000000000000000009bc4e0d864854c6afb6eb9a9cdf58ac190d0df900000000000000000000000000000000000000000000000000000000000173ac0000000000000000000000003f31dd2e7166376da4a8d998c6abe2a3f7906bf100000000000000000000000000000000000000000000000000000000","l1BlockNumber":"0x11774e1","l1Timestamp":"0x65243e25","l1TxOrigin":null,"nonce":"0x35","queueIndex":null,"queueOrigin":"sequencer","r":"0x8808fa2b1a74419b262e16f96988d67a41a33d05b08a6cda00a30a0847ed8761","rawTransaction":"0xf903ec3584030291a0830536d094218bf598d1453383e2f4aa7b14ffb9bfb102d63780b90384ac9650d80000000000000000000000000000000000000000000000000000000000000020000000000000000000000000000000000000000000000000000000000000000400000000000000000000000000000000000000000000000000000000000000800000000000000000000000000000000000000000000000000000000000000160000000000000000000000000000000000000000000000000000000000000022000000000000000000000000000000000000000000000000000000000000002a000000000000000000000000000000000000000000000000000000000000000a40c49ccbe00000000000000000000000000000000000000000000000000000000000133a7000000000000000000000000000000000000000000000000000002e627de364d00000000000000000000000000000000000000000000000000000000000173ac0000000000000000000000000000000000000000000000000381c1835b5f6c5e00000000000000000000000000000000000000000000000000000000652442c1000000000000000000000000000000000000000000000000000000000000000000000000000000000000000000000000000000000000000000000084fc6f786500000000000000000000000000000000000000000000000000000000000133a7000000000000000000000000000000000000000000000000000000000000000000000000000000000000000000000000ffffffffffffffffffffffffffffffff00000000000000000000000000000000ffffffffffffffffffffffffffffffff000000000000000000000000000000000000000000000000000000000000000000000000000000000000000000000000000000000000000000000044cf3f26d60000000000000000000000000000000000000000000000000381c1835b5f6c5e0000000000000000000000003f31dd2e7166376da4a8d998c6abe2a3f7906bf1000000000000000000000000000000000000000000000000000000000000000000000000000000000000000000000000000000000000000000000064df2ab5bb00000000000000000000000009bc4e0d864854c6afb6eb9a9cdf58ac190d0df900000000000000000000000000000000000000000000000000000000000173ac0000000000000000000000003f31dd2e7166376da4a8d998c6abe2a3f7906bf100000000000000000000000000000000000000000000000000000000822733a08808fa2b1a74419b262e16f96988d67a41a33d05b08a6cda00a30a0847ed8761a04b430ebb6c7f7283b047ae3b708b0effbc77c2473aafe0370e0178aa1a50e32d","s":"0x4b430ebb6c7f7283b047ae3b708b0effbc77c2473aafe0370e0178aa1a50e32d","to":"0x218bf598d1453383e2f4aa7b14ffb9bfb102d637","transactionIndex":"0x0","v":"0x2733","value":"0x0"}],"transactionsRoot":"0x00eef8011d39f000eb8a913a848c3545bbfb50d5aced1e99fba784aefbb2047d","uncles":[]},"receipts":{"0x6e6fce859f7ecf204a2a009bc6b81f5fa45a028f9bc51ff47864a023d7814575":{"blockHash":"0xc95a320beae76f5c83c0e149f5a70017f6f23fcb137db6488d89341971fb19f2","blockNumber":"0xd002a0","from":"0x3f31dd2e7166376da4a8d998c6abe2a3f7906bf1","gas":"0x536d0","gasPrice":"0x30291a0","hash":"0x6e6fce859f7ecf204a2a009bc6b81f5fa45a028f9bc51ff47864a023d7814575","index":"0xd0029f","input":"0xac9650d80000000000000000000000000000000000000000000000000000000000000020000000000000000000000000000000000000000000000000000000000000000400000000000000000000000000000000000000000000000000000000000000800000000000000000000000000000000000000000000000000000000000000160000000000000000000000000000000000000000000000000000000000000022000000000000000000000000000000000000000000000000000000000000002a000000000000000000000000000000000000000000000000000000000000000a40c49ccbe00000000000000000000000000000000000000000000000000000000000133a7000000000000000000000000000000000000000000000000000002e627de364d00000000000000000000000000000000000000000000000000000000000173ac0000000000000000000000000000000000000000000000000381c1835b5f6c5e00000000000000000000000000000000000000000000000000000000652442c1000000000000000000000000000000000000000000000000000000000000000000000000000000000000000000000000000000000000000000000084fc6f786500000000000000000000000000000000000000000000000000000000000133a7000000000000000000000000000000000000000000000000000000000000000000000000000000000000000000000000ffffffffffffffffffffffffffffffff00000000000000000000000000000000ffffffffffffffffffffffffffffffff000000000000000000000000000000000000000000000000000000000000000000000000000000000000000000000000000000000000000000000044cf3f26d60000000000000000000000000000000000000000000000000381c1835b5f6c5e0000000000000000000000003f31dd2e7166376da4a8d998c6abe2a3f7906bf1000000000000000000000000000000000000000000000000000000000000000000000000000000000000000000000000000000000000000000000064df2ab5bb00000000000000000000000009bc4e0d864854c6afb6eb9a9cdf58ac190d0df900000000000000000000000000000000000000000000000000000000000173ac0000000000000000000000003f31dd2e7166376da4a8d998c6abe2a3f7906bf100000000000000000000000000000000000000000000000000000000","l1BlockNumber":"0x11774e1","l1Timestamp":"0x65243e25","l1TxOrigin":null,"nonce":"0x35","queueIndex":null,"queueOrigin":"sequencer","r":"0x8808fa2b1a74419b262e16f96988d67a41a33d05b08a6cda00a30a0847ed8761","rawTransaction":"0xf903ec3584030291a0830536d094218bf598d1453383e2f4aa7b14ffb9bfb102d63780b90384ac9650d80000000000000000000000000000000000000000000000000000000000000020000000000000000000000000000000000000000000000000000000000000000400000000000000000000000000000000000000000000000000000000000000800000000000000000000000000000000000000000000000000000000000000160000000000000000000000000000000000000000000000000000000000000022000000000000000000000000000000000000000000000000000000000000002a000000000000000000000000000000000000000000000000000000000000000a40c49ccbe00000000000000000000000000000000000000000000000000000000000133a7000000000000000000000000000000000000000000000000000002e627de364d00000000000000000000000000000000000000000000000000000000000173ac0000000000000000000000000000000000000000000000000381c1835b5f6c5e00000000000000000000000000000000000000000000000000000000652442c1000000000000000000000000000000000000000000000000000000000000000000000000000000000000000000000000000000000000000000000084fc6f786500000000000000000000000000000000000000000000000000000000000133a7000000000000000000000000000000000000000000000000000000000000000000000000000000000000000000000000ffffffffffffffffffffffffffffffff00000000000000000000000000000000ffffffffffffffffffffffffffffffff000000000000000000000000000000000000000000000000000000000000000000000000000000000000000000000000000000000000000000000044cf3f26d60000000000000000000000000000000000000000000000000381c1835b5f6c5e0000000000000000000000003f31dd2e7166376da4a8d998c6abe2a3f7906bf1000000000000000000000000000000000000000000000000000000000000000000000000000000000000000000000000000000000000000000000064df2ab5bb00000000000000000000000009bc4e0d864854c6afb6eb9a9cdf58ac190d0df900000000000000000000000000000000000000000000000000000000000173ac0000000000000000000000003f31dd2e7166376da4a8d998c6abe2a3f7906bf100000000000000000000000000000000000000000000000000000000822733a08808fa2b1a74419b262e16f96988d67a41a33d05b08a6cda00a30a0847ed8761a04b430ebb6c7f7283b047ae3b708b0effbc77c2473aafe0370e0178aa1a50e32d","s":"0x4b430ebb6c7f7283b047ae3b708b0effbc77c2473aafe0370e0178aa1a50e32d","to":"0x218bf598d1453383e2f4aa7b14ffb9bfb102d637","transactionIndex":"0x0","v":"0x2733","value":"0x0","contractAddress":null,"cumulativeGasUsed":"0x35de8","daFee":"0x0","daGasPrice":"0x0","daGasUsed":"0x3aa","gasUsed":"0x35de8","l1Fee":"0x19709d787180660","l1FeeScalar":"1","l1GasPrice":"0x38a987f04864","l1GasUsed":"0x72f","logs":[{"address":"0x1858d52cf57c07a018171d7a1e68dc081f17144f","blockHash":"0xc95a320beae76f5c83c0e149f5a70017f6f23fcb137db6488d89341971fb19f2","blockNumber":"0xd002a0","data":"0x000000000000000000000000000000000000000000000000000002e627de364d000000000000000000000000000000000000000000000000000000000001869f00000000000000000000000000000000000000000000000003b0252aa301e279","logIndex":"0x0","removed":false,"topics":["0x0c396cd989a39f4459b5fa1aed6a9a8dcdbc45908acfd67e028cd568da98982c","0x000000000000000000000000218bf598d1453383e2f4aa7b14ffb9bfb102d637","0x00000000000000000000000000000000000000000000000000000000000459ca","0x00000000000000000000000000000000000000000000000000000000000461fe"],"transactionHash":"0x6e6fce859f7ecf204a2a009bc6b81f5fa45a028f9bc51ff47864a023d7814575","transactionIndex":"0x0"},{"address":"0x218bf598d1453383e2f4aa7b14ffb9bfb102d637","blockHash":"0xc95a320beae76f5c83c0e149f5a70017f6f23fcb137db6488d89341971fb19f2","blockNumber":"0xd002a0","data":"0x000000000000000000000000000000000000000000000000000002e627de364d000000000000000000000000000000000000000000000000000000000001869f00000000000000000000000000000000000000000000000003b0252aa301e279","logIndex":"0x1","removed":false,"topics":["0x26f6a048ee9138f2c0ce266f322cb99228e8d619ae2bff30c67f8dcf9d2377b4","0x00000000000000000000000000000000000000000000000000000000000133a7"],"transactionHash":"0x6e6fce859f7ecf204a2a009bc6b81f5fa45a028f9bc51ff47864a023d7814575","transactionIndex":"0x0"},{"address":"0x09bc4e0d864854c6afb6eb9a9cdf58ac190d0df9","blockHash":"0xc95a320beae76f5c83c0e149f5a70017f6f23fcb137db6488d89341971fb19f2","blockNumber":"0xd002a0","data":"0x000000000000000000000000000000000000000000000000000000000001869f","logIndex":"0x2","removed":false,"topics":["0xddf252ad1be2c89b69c2b068fc378daa952ba7f163c4a11628f55a4df523b3ef","0x0000000000000000000000001858d52cf57c07a018171d7a1e68dc081f17144f","0x000000000000000000000000218bf598d1453383e2f4aa7b14ffb9bfb102d637"],"transactionHash":"0x6e6fce859f7ecf204a2a009bc6b81f5fa45a028f9bc51ff47864a023d7814575","transactionIndex":"0x0"},{"address":"0x78c1b0c915c4faa5fffa6cabf0219da63d7f4cb8","blockHash":"0xc95a320beae76f5c83c0e149f5a70017f6f23fcb137db6488d89341971fb19f2","blockNumber":"0xd002a0","data":"0x00000000000000000000000000000000000000000000000003b0252aa301e279","logIndex":"0x3","removed":false,"topics":["0xddf252ad1be2c89b69c2b068fc378daa952ba7f163c4a11628f55a4df523b3ef","0x0000000000000000000000001858d52cf57c07a018171d7a1e68dc081f17144f","0x000000000000000000000000218bf598d1453383e2f4aa7b14ffb9bfb102d637"],"transactionHash":"0x6e6fce859f7ecf204a2a009bc6b81f5fa45a028f9bc51ff47864a023d7814575","transactionIndex":"0x0"},{"address":"0x1858d52cf57c07a018171d7a1e68dc081f17144f","blockHash":"0xc95a320beae76f5c83c0e149f5a70017f6f23fcb137db6488d89341971fb19f2","blockNumber":"0xd002a0","data":"0x000000000000000000000000218bf598d1453383e2f4aa7b14ffb9bfb102d637000000000000000000000000000000000000000000000000000000000001869f00000000000000000000000000000000000000000000000003b0252aa301e279","logIndex":"0x4","removed":false,"topics":["0x70935338e69775456a85ddef226c395fb668b63fa0115f5f20610b388e6ca9c0","0x000000000000000000000000218bf598d1453383e2f4aa7b14ffb9bfb102d637","0x00000000000000000000000000000000000000000000000000000000000459ca","0x00000000000000000000000000000000000000000000000000000000000461fe"],"transactionHash":"0x6e6fce859f7ecf204a2a009bc6b81f5fa45a028f9bc51ff47864a023d7814575","transactionIndex":"0x0"},{"address":"0x218bf598d1453383e2f4aa7b14ffb9bfb102d637","blockHash":"0xc95a320beae76f5c83c0e149f5a70017f6f23fcb137db6488d89341971fb19f2","blockNumber":"0xd002a0","data":"0x000000000000000000000000218bf598d1453383e2f4aa7b14ffb9bfb102d637000000000000000000000000000000000000000000000000000000000001869f00000000000000000000000000000000000000000000000003b0252aa301e279","logIndex":"0x5","removed":false,"topics":["0x40d0efd1a53d60ecbf40971b9daf7dc90178c3aadc7aab1765632738fa8b8f01","0x00000000000000000000000000000000000000000000000000000000000133a7"],"transactionHash":"0x6e6fce859f7ecf204a2a009bc6b81f5fa45a028f9bc51ff47864a023d7814575","transactionIndex":"0x0"},{"address":"0x78c1b0c915c4faa5fffa6cabf0219da63d7f4cb8","blockHash":"0xc95a320beae76f5c83c0e149f5a70017f6f23fcb137db6488d89341971fb19f2","blockNumber":"0xd002a0","data":"0x00000000000000000000000000000000000000000000000003b0252aa301e279","logIndex":"0x6","removed":false,"topics":["0xddf252ad1be2c89b69c2b068fc378daa952ba7f163c4a11628f55a4df523b3ef","0x000000000000000000000000218bf598d1453383e2f4aa7b14ffb9bfb102d637","0x0000000000000000000000000000000000000000000000000000000000000000"],"transactionHash":"0x6e6fce859f7ecf204a2a009bc6b81f5fa45a028f9bc51ff47864a023d7814575","transactionIndex":"0x0"},{"address":"0x78c1b0c915c4faa5fffa6cabf0219da63d7f4cb8","blockHash":"0xc95a320beae76f5c83c0e149f5a70017f6f23fcb137db6488d89341971fb19f2","blockNumber":"0xd002a0","data":"0x00000000000000000000000000000000000000000000000003b0252aa301e279","logIndex":"0x7","removed":false,"topics":["0x7fcf532c15f0a6db0bd6d0e038bea71d30d808c7d98cb3bf7268a95bf5081b65","0x000000000000000000000000218bf598d1453383e2f4aa7b14ffb9bfb102d637"],"transactionHash":"0x6e6fce859f7ecf204a2a009bc6b81f5fa45a028f9bc51ff47864a023d7814575","transactionIndex":"0x0"},{"address":"0x09bc4e0d864854c6afb6eb9a9cdf58ac190d0df9","blockHash":"0xc95a320beae76f5c83c0e149f5a70017f6f23fcb137db6488d89341971fb19f2","blockNumber":"0xd002a0","data":"0x000000000000000000000000000000000000000000000000000000000001869f","logIndex":"0x8","removed":false,"topics":["0xddf252ad1be2c89b69c2b068fc378daa952ba7f163c4a11628f55a4df523b3ef","0x000000000000000000000000218bf598d1453383e2f4aa7b14ffb9bfb102d637","0x0000000000000000000000003f31dd2e7166376da4a8d998c6abe2a3f7906bf1"],"transactionHash":"0x6e6fce859f7ecf204a2a009bc6b81f5fa45a028f9bc51ff47864a023d7814575","transactionIndex":"0x0"}],"logsBloom":"0x00000000000000000000002006000000000000004000000000020000000000000000000010000000000000000000000000080000002000020240000000000000100000000000000000000008000000000000004000440000000000000000000000000000020000000000000001020800000000100004040000008010000000000000080000000400000000080100000000108000000001100000000040000000010000004008000000000000000040000000000000000008000300000000000000000002000000010000000000000000800000000000000000000002000020000000080000040000000000000000000000020000400000000000000040000000","status":"0x1","transactionHash":"0x6e6fce859f7ecf204a2a009bc6b81f5fa45a028f9bc51ff47864a023d7814575"}}}