{"block":{"difficulty":"0x2","extraData":"0xd98301090a846765746889676f312e31352e3133856c696e757800000000000039e0931053780d21a626840543201ce7bdc1adc22c44f36abd3d221e8d6635654d55c727c8d850908625ad90f48ff90ae3fdd58b8d64841632fa78bc892a97f201","gasLimit":"0x1c9c380","gasUsed":"0x23c29","hash":"0x8261d1acd627ed637547823f07a03e3a9b7bac8aba9c751acd11dece904c7811","logsBloom":"0x20000000200000000000000001400000000020000001000000000000000000000000000000000000000000000000000000000000000000040080000000200000100000020000000800010008000000000000008000042000200000000000000000000000000000000000000000000000000000000000004000000010004000004050000000000000000000000000000000100000004000400000000000000000020001000000000000100000000000000000000000000000000000000000000000000002000100000000000000000000000000000000000000010000000000000010000000000004000000000000000000000020000000000000000000000000","miner":"0x0000000000000000000000000000000000000000","mixHash":"0x0000000000000000000000000000000000000000000000000000000000000000","nonce":"0x0000000000000000","number":"0xd00272","parentHash":"0xab115faae10f91bcbf2e9d9004cd3ed2a6ea06ffbe6313be9ae0e4262afa8055","receiptsRoot":"0x058d2072b3eeba16169f71f6da1c7d551689f93bfbac017d9e0b96e654b8cafb","sha3Uncles":"0x1dcc4de8dec75d7aab85b567b6ccd41ad312451b948a7413f0a142fd40d49347","size":"0x3f8","stateRoot":"0x39cc9eb523e2eb17675e94357ff46b70d8fd7abc2d5042bf98922277d3bd603e","timestamp":"0x65243e0c","totalDifficulty":"0x1a004e5","transactions":[{"blockHash":"0x8261d1acd627ed637547823f07a03e3a9b7bac8aba9c751acd11dece904c7811","blockNumber":"0xd00272","from":"0xf3c81bf5cdbc9834726a201eca01597f634e9e7d","gas":"0x254a9","gasPrice":"0x2faf080","hash":"0xc11e460320933569ee1ae34130e763dd27f4d78f930f1602db040f43e70b6f8b","index":"0xd00271","input":"0x75ceafe6000000000000000000000000000000000000000000000000000000000000002000000000000000000000000000000000000000000000000000000000000000a0000000000000000000000000f3c81bf5cdbc9834726a201eca01597f634e9e7d000000000000000000000000000000000000000000000000233fe48ae17e000000000000000000000000000000000000000000000000000000000000000e24680000000000000000000000000000000000000000000000000000000065243e2c000000000000000000000000000000000000000000000000000000000000002b78c1b0c915c4faa5fffa6cabf0219da63d7f4cb8000bb8201eba5cc46d216ce6dc03f6a759e8e766e956ae000000000000000000000000000000000000000000","l1BlockNumber":"0x11774df","l1Timestamp":"0x65243e0c","l1TxOrigin":null,"nonce":"0x103a","queueIndex":null,"queueOrigin":"sequencer","r":"0x1af57631a7e0a53ff5da1a41d38155584053372b7dcb71ccadd6979d85712226","rawTransaction":"0xf9018e82103a8402faf080830254a99425c030116feb2e7bba054b9de0915e5f51b03e3180b9012475ceafe6000000000000000000000000000000000000000000000000000000000000002000000000000000000000000000000000000000000000000000000000000000a0000000000000000000000000f3c81bf5cdbc9834726a201eca01597f634e9e7d000000000000000000000000000000000000000000000000233fe48ae17e000000000000000000000000000000000000000000000000000000000000000e24680000000000000000000000000000000000000000000000000000000065243e2c000000000000000000000000000000000000000000000000000000000000002b78c1b0c915c4faa5fffa6cabf0219da63d7f4cb8000bb8201eba5cc46d216ce6dc03f6a759e8e766e956ae000000000000000000000000000000000000000000822734a01af57631a7e0a53ff5da1a41d38155584053372b7dcb71ccadd6979d85712226a02981f54895b1e78c527a57c44aa2f1c3b20d9ae1d16331e8340b664a80ef293b","s":"0x2981f54895b1e78c527a57c44aa2f1c3b20d9ae1d16331e8340b664a80ef293b","to":"0x25c030116feb2e7bba054b9de0915e5f51b03e31","transactionIndex":"0x0","v":"0x2734","value":"0x0"}],"transactionsRoot":"0x5d89ae4668514459706040067b4ecfc90d76b0d444d449707a99e7aaa55fc907","uncles":[]},"receipts":{"0xc11e460320933569ee1ae34130e763dd27f4d78f930f1602db040f43e70b6f8b":{"blockHash":"0x8261d1acd627ed637547823f07a03e3a9b7bac8aba9c751acd11dece904c7811","blockNumber":"0xd00272","from":"0xf3c81bf5cdbc9834726a201eca01597f634e9e7d","gas":"0x254a9","gasPrice":"0x2faf080","hash":"0xc11e460320933569ee1ae34130e763dd27f4d78f930f1602db040f43e70b6f8b","index":"0xd00271","input":"0x75ceafe6000000000000000000000000000000000000000000000000000000000000002000000000000000000000000000000000000000000000000000000000000000a0000000000000000000000000f3c81bf5cdbc9834726a201eca01597f634e9e7d000000000000000000000000000000000000000000000000233fe48ae17e000000000000000000000000000000000000000000000000000000000000000e24680000000000000000000000000000000000000000000000000000000065243e2c000000000000000000000000000000000000000000000000000000000000002b78c1b0c915c4faa5fffa6cabf0219da63d7f4cb8000bb8201eba5cc46d216ce6dc03f6a759e8e766e956ae000000000000000000000000000000000000000000","l1BlockNumber":"0x11774df","l1Timestamp":"0x65243e0c","l1TxOrigin":null,"nonce":"0x103a","queueIndex":null,"queueOrigin":"sequencer","r":"0x1af57631a7e0a53ff5da1a41d38155584053372b7dcb71ccadd6979d85712226","rawTransaction":"0xf9018e82103a8402faf080830254a99425c030116feb2e7bba054b9de0915e5f51b03e3180b9012475ceafe6000000000000000000000000000000000000000000000000000000000000002000000000000000000000000000000000000000000000000000000000000000a0000000000000000000000000f3c81bf5cdbc9834726a201eca01597f634e9e7d000000000000000000000000000000000000000000000000233fe48ae17e000000000000000000000000000000000000000000000000000000000000000e24680000000000000000000000000000000000000000000000000000000065243e2c000000000000000000000000000000000000000000000000000000000000002b78c1b0c915c4faa5fffa6cabf0219da63d7f4cb8000bb8201eba5cc46d216ce6dc03f6a759e8e766e956ae000000000000000000000000000000000000000000822734a01af57631a7e0a53ff5da1a41d38155584053372b7dcb71ccadd6979d85712226a02981f54895b1e78c527a57c44aa2f1c3b20d9ae1d16331e8340b664a80ef293b","s":"0x2981f54895b1e78c527a57c44aa2f1c3b20d9ae1d16331e8340b664a80ef293b","to":"0x25c030116feb2e7bba054b9de0915e5f51b03e31","transactionIndex":"0x0","v":"0x2734","value":"0x0","contractAddress":null,"cumulativeGasUsed":"0x23c29","daFee":"0x0","daGasPrice":"0x0","daGasUsed":"0x14c","gasUsed":"0x23c29","l1Fee":"0x19709d787180660","l1FeeScalar":"1","l1GasPrice":"0x38a987f04864","l1GasUsed":"0x72f","logs":[{"address":"0x201eba5cc46d216ce6dc03f6a759e8e766e956ae","blockHash":"0x8261d1acd627ed637547823f07a03e3a9b7bac8aba9c751acd11dece904c7811","blockNumber":"0xd00272","data":"0x00000000000000000000000000000000000000000000000000000000000e6e4b","logIndex":"0x0","removed":false,"topics":["0xddf252ad1be2c89b69c2b068fc378daa952ba7f163c4a11628f55a4df523b3ef","0x000000000000000000000000cddf50c3dfac95939167eff4c05d38781f549ea9","0x000000000000000000000000f3c81bf5cdbc9834726a201eca01597f634e9e7d"],"transactionHash":"0xc11e460320933569ee1ae34130e763dd27f4d78f930f1602db040f43e70b6f8b","transactionIndex":"0x0"},{"address":"0x78c1b0c915c4faa5fffa6cabf0219da63d7f4cb8","blockHash":"0x8261d1acd627ed637547823f07a03e3a9b7bac8aba9c751acd11dece904c7811","blockNumber":"0xd00272","data":"0x000000000000000000000000000000000000000000000000233fe48ae1652801","logIndex":"0x1","removed":false,"topics":["0xddf252ad1be2c89b69c2b068fc378daa952ba7f163c4a11628f55a4df523b3ef","0x000000000000000000000000f3c81bf5cdbc9834726a201eca01597f634e9e7d","0x000000000000000000000000cddf50c3dfac95939167eff4c05d38781f549ea9"],"transactionHash":"0xc11e460320933569ee1ae34130e763dd27f4d78f930f1602db040f43e70b6f8b","transactionIndex":"0x0"},{"address":"0x78c1b0c915c4faa5fffa6cabf0219da63d7f4cb8","blockHash":"0x8261d1acd627ed637547823f07a03e3a9b7bac8aba9c751acd11dece904c7811","blockNumber":"0xd00272","data":"0xfffffffffffffffffffffffffffffffffffffffffffffff5123cec1f656721db","logIndex":"0x2","removed":false,"topics":["0x8c5be1e5ebec7d5bd14f71427d1e84f3dd0314c0f7b2291e5b200ac8c7c3b925","0x000000000000000000000000f3c81bf5cdbc9834726a201eca01597f634e9e7d","0x00000000000000000000000025c030116feb2e7bba054b9de0915e5f51b03e31"],"transactionHash":"0xc11e460320933569ee1ae34130e763dd27f4d78f930f1602db040f43e70b6f8b","transactionIndex":"0x0"},{"address":"0xcddf50c3dfac95939167eff4c05d38781f549ea9","blockHash":"0x8261d1acd627ed637547823f07a03e3a9b7bac8aba9c751acd11dece904c7811","blockNumber":"0xd00272","data":"0x000000000000000000000000000000000000000000000000000000000000000000000000000000000000000000000000000000000000000000000000000e6e4b000000000000000000000000000000000000000000000000233fe48ae16528010000000000000000000000000000000000000000000000000000000000045dde","logIndex":"0x3","removed":false,"topics":["0x0fe977d619f8172f7fdbe8bb8928ef80952817d96936509f67d66346bc4cd10f","0x000000000000000000000000201eba5cc46d216ce6dc03f6a759e8e766e956ae","0x00000000000000000000000078c1b0c915c4faa5fffa6cabf0219da63d7f4cb8","0x0000000000000000000000000000000000000000000000000000000000000bb8"],"transactionHash":"0xc11e460320933569ee1ae34130e763dd27f4d78f930f1602db040f43e70b6f8b","transactionIndex":"0x0"}],"logsBloom":"0x20000000200000000000000001400000000020000001000000000000000000000000000000000000000000000000000000000000000000040080000000200000100000020000000800010008000000000000008000042000200000000000000000000000000000000000000000000000000000000000004000000010004000004050000000000000000000000000000000100000004000400000000000000000020001000000000000100000000000000000000000000000000000000000000000000002000100000000000000000000000000000000000000010000000000000010000000000004000000000000000000000020000000000000000000000000","status":"0x1","transactionHash":"0xc11e460320933569ee1ae34130e763dd27f4d78f930f1602db040f43e70b6f8b"}}}