{"block":{"difficulty":"0x2","extraData":"0xd98301090a846765746889676f312e31352e3133856c696e757800000000000045ac258724367feb48713f3aceac720a41c941813512c01fd1318f9ff0664aaa5d2b70aee3aff8ff6bccbaf8f9b123e49828e530e38ce2aa6b1761b40eb4c7c400","gasLimit":"0x1c9c380","gasUsed":"0x5208","hash":"0x9dd6a6d3705c62a42dd0d19b630e240e501ba0b95263a2dd4a60a226a375002a","logsBloom":"0x00000000000000000000000000000000000000000000000000000000000000000000000000000000000000000000000000000000000000000000000000000000000000000000000000000000000000000000000000000000000000000000000000000000000000000000000000000000000000000000000000000000000000000000000000000000000000000000000000000000000000000000000000000000000000000000000000000000000000000000000000000000000000000000000000000000000000000000000000000000000000000000000000000000000000000000000000000000000000000000000000000000000000000000000000000000","miner":"0x0000000000000000000000000000000000000000","mixHash":"0x0000000000000000000000000000000000000000000000000000000000000000","nonce":"0x0000000000000000","number":"0xd000ab","parentHash":"0x90f5e000ff1970a3dcbbc8a8270c52ef764ac7ab6a2c4cfe31e7875ae4e26619","receiptsRoot":"0x056b23fbba480696b65fe5a59b8f2148a1299103c4f57df839233af2cf4ca2d2","sha3Uncles":"0x1dcc4de8dec75d7aab85b567b6ccd41ad312451b948a7413f0a142fd40d49347","size":"0x2d4","stateRoot":"0x112bfcb39b3cc9ee03856e5326d29398e572f72c9a382f2e2d1c04896bbcc1e0","timestamp":"0x65243d1b","totalDifficulty":"0x1a00157","transactions":[{"blockHash":"0x9dd6a6d3705c62a42dd0d19b630e240e501ba0b95263a2dd4a60a226a375002a","blockNumber":"0xd000ab","from":"0x08af4c1ce3e4fbaf2e70fa224cf0e46fb4daad69","gas":"0x5208","gasPrice":"0x2faf080","hash":"0x6ebb4e19065bc9810d290a948c10e52feeaff44d5e308e7e1977e90e3d00de5b","index":"0xd000aa","input":"0x","l1BlockNumber":"0x11774cb","l1Timestamp":"0x65243d1b","l1TxOrigin":null,"nonce":"0x53","queueIndex":null,"queueOrigin":"sequencer","r":"0xe9529ec3a1720748701195fedbaef19691bc4c0ede8c69ee1d2d810b21bf631e","rawTransaction":"0xf86d538402faf08082520894f55a2b967ddaa5049f537d8402b791901cc9d34e880c7d713b49da000080822734a0e9529ec3a1720748701195fedbaef19691bc4c0ede8c69ee1d2d810b21bf631ea03b436c3b61ac7aaab9941c95c229bb439d4fdea33f591188e4a359e3a5a4c2e3","s":"0x3b436c3b61ac7aaab9941c95c229bb439d4fdea33f591188e4a359e3a5a4c2e3","to":"0xf55a2b967ddaa5049f537d8402b791901cc9d34e","transactionIndex":"0x0","v":"0x2734","value":"0xc7d713b49da0000"}],"transactionsRoot":"0x1bc9b9bad90002bae444852a05c630778f2abe6dd32aea81ddefff8eb0a3aa51","uncles":[]},"receipts":{"0x6ebb4e19065bc9810d290a948c10e52feeaff44d5e308e7e1977e90e3d00de5b":{"blockHash":"0x9dd6a6d3705c62a42dd0d19b630e240e501ba0b95263a2dd4a60a226a375002a","blockNumber":"0xd000ab","from":"0x08af4c1ce3e4fbaf2e70fa224cf0e46fb4daad69","gas":"0x5208","gasPrice":"0x2faf080","hash":"0x6ebb4e19065bc9810d290a948c10e52feeaff44d5e308e7e1977e90e3d00de5b","index":"0xd000aa","input":"0x","l1BlockNumber":"0x11774cb","l1Timestamp":"0x65243d1b","l1TxOrigin":null,"nonce":"0x53","queueIndex":null,"queueOrigin":"sequencer","r":"0xe9529ec3a1720748701195fedbaef19691bc4c0ede8c69ee1d2d810b21bf631e","rawTransaction":"0xf86d538402faf08082520894f55a2b967ddaa5049f537d8402b791901cc9d34e880c7d713b49da000080822734a0e9529ec3a1720748701195fedbaef19691bc4c0ede8c69ee1d2d810b21bf631ea03b436c3b61ac7aaab9941c95c229bb439d4fdea33f591188e4a359e3a5a4c2e3","s":"0x3b436c3b61ac7aaab9941c95c229bb439d4fdea33f591188e4a359e3a5a4c2e3","to":"0xf55a2b967ddaa5049f537d8402b791901cc9d34e","transactionIndex":"0x0","v":"0x2734","value":"0xc7d713b49da0000","contractAddress":null,"cumulativeGasUsed":"0x5208","daFee":"0x0","daGasPrice":"0x0","daGasUsed":"0x29","gasUsed":"0x5208","l1Fee":"0x1a09f6380cb9fe0","l1FeeScalar":"1","l1GasPrice":"0x39ff1464e55c","l1GasUsed":"0x72f","logs":[],"logsBloom":"0x00000000000000000000000000000000000000000000000000000000000000000000000000000000000000000000000000000000000000000000000000000000000000000000000000000000000000000000000000000000000000000000000000000000000000000000000000000000000000000000000000000000000000000000000000000000000000000000000000000000000000000000000000000000000000000000000000000000000000000000000000000000000000000000000000000000000000000000000000000000000000000000000000000000000000000000000000000000000000000000000000000000000000000000000000000000","status":"0x1","transactionHash":"0x6ebb4e19065bc9810d290a948c10e52feeaff44d5e308e7e1977e90e3d00de5b"}}}