{"block":{"difficulty":"0x2","extraData":"0xd98301090a846765746889676f312e31352e3133856c696e75780000000000008b00cc59122663eced120e2b0457559c7b5df5885233401ec16cf4719b564da24c3a23c64ab1ea3b300ce5dd34eb1a3a58c5dbd6babf0a2200dde7cadf2f1d8300","gasLimit":"0x1c9c380","gasUsed":"0x1e455","hash":"0xadafc3c46ce1fa4c8d7098c0b2a458146faa1201e386a84d27930bcd583b9a2c","logsBloom":"0x00000000000000000000000000000000000000000000000000000000000000000000000000000000000000000000000000000000000000000000000000000000000000000000000000000000000000000000000000000000000000000000000000000000000000000000000000000000000000000000000000000000000000000000000000000000000000000000000000000000000000000000000000000000000000000000000000000000000000000000000000000000000000000000000000000000000000000000000000000000000000000000000000000000000000000000000000000000000000000000000000000000000000000000000000000000","miner":"0x0000000000000000000000000000000000000000","mixHash":"0x0000000000000000000000000000000000000000000000000000000000000000","nonce":"0x0000000000000000","number":"0xd002a7","parentHash":"0x2adce18f7797a13cbcfa8c7951c3959876147c637e2c60d60c5f17495cdc1870","receiptsRoot":"0x673d856cb46221f6395de9cde25ac7220a6ac51603727280c9d6551620e26df9","sha3Uncles":"0x1dcc4de8dec75d7aab85b567b6ccd41ad312451b948a7413f0a142fd40d49347","size":"0x3d8","stateRoot":"0xb9e374101bd15e870482fd0b54cc3ac34efc2d0ec48e650ed508494d26752e9a","timestamp":"0x65243e2a","totalDifficulty":"0x1a0054f","transactions":[{"blockHash":"0xadafc3c46ce1fa4c8d7098c0b2a458146faa1201e386a84d27930bcd583b9a2c","blockNumber":"0xd002a7","from":"0x36576f14836da6fa2f73dd894bacf2af5549877f","gas":"0x1e9fd","gasPrice":"0x2faf080","hash":"0x7a139ec90bb040a977330d51781d484b3fa488a1397f58f451df0370178ace9b","index":"0xd002a6","input":"0x414bf38900000000000000000000000078c1b0c915c4faa5fffa6cabf0219da63d7f4cb8000000000000000000000000201eba5cc46d216ce6dc03f6a759e8e766e956ae00000000000000000000000000000000000000000000000000000000000001f400000000000000000000000036576f14836da6fa2f73dd894bacf2af5549877f0000000000000000000000000000000000000000000000000000000065243e480000000000000000000000000000000000000000000000001ecf063ce95e000000000000000000000000000000000000000000000000000000000000000c67a70000000000000000000000000000000000000000000000000000000000000000","l1BlockNumber":"0x11774e1","l1Timestamp":"0x65243e2a","l1TxOrigin":null,"nonce":"0x694","queueIndex":null,"queueOrigin":"sequencer","r":"0x2e141b71686108bf31c899506ffc7cecf93d618c8707e4195f27d04eefb5e936","rawTransaction":"0xf9016e8206948402faf0808301e9fd94319b69888b0d11cec22caa5034e25fffbdc8842180b90104414bf38900000000000000000000000078c1b0c915c4faa5fffa6cabf0219da63d7f4cb8000000000000000000000000201eba5cc46d216ce6dc03f6a759e8e766e956ae00000000000000000000000000000000000000000000000000000000000001f400000000000000000000000036576f14836da6fa2f73dd894bacf2af5549877f0000000000000000000000000000000000000000000000000000000065243e480000000000000000000000000000000000000000000000001ecf063ce95e000000000000000000000000000000000000000000000000000000000000000c67a70000000000000000000000000000000000000000000000000000000000000000822734a02e141b71686108bf31c899506ffc7cecf93d618c8707e4195f27d04eefb5e936a057a79736fbbaf0ad038e421009674facc99e3ab926b67d82a4f7c3349e49c951","s":"0x57a79736fbbaf0ad038e421009674facc99e3ab926b67d82a4f7c3349e49c951","to":"0x319b69888b0d11cec22caa5034e25fffbdc88421","transactionIndex":"0x0","v":"0x2734","value":"0x0"}],"transactionsRoot":"0xa252e87117790b6af0ffe8f3874a78353cb6e8c07af0a90a0cd5d198ae1604bc","uncles":[]},"receipts":{"0x7a139ec90bb040a977330d51781d484b3fa488a1397f58f451df0370178ace9b":{"blockHash":"0xadafc3c46ce1fa4c8d7098c0b2a458146faa1201e386a84d27930bcd583b9a2c","blockNumber":"0xd002a7","from":"0x36576f14836da6fa2f73dd894bacf2af5549877f","gas":"0x1e9fd","gasPrice":"0x2faf080","hash":"0x7a139ec90bb040a977330d51781d484b3fa488a1397f58f451df0370178ace9b","index":"0xd002a6","input":"0x414bf38900000000000000000000000078c1b0c915c4faa5fffa6cabf0219da63d7f4cb8000000000000000000000000201eba5cc46d216ce6dc03f6a759e8e766e956ae00000000000000000000000000000000000000000000000000000000000001f400000000000000000000000036576f14836da6fa2f73dd894bacf2af5549877f0000000000000000000000000000000000000000000000000000000065243e480000000000000000000000000000000000000000000000001ecf063ce95e000000000000000000000000000000000000000000000000000000000000000c67a70000000000000000000000000000000000000000000000000000000000000000","l1BlockNumber":"0x11774e1","l1Timestamp":"0x65243e2a","l1TxOrigin":null,"nonce":"0x694","queueIndex":null,"queueOrigin":"sequencer","r":"0x2e141b71686108bf31c899506ffc7cecf93d618c8707e4195f27d04eefb5e936","rawTransaction":"0xf9016e8206948402faf0808301e9fd94319b69888b0d11cec22caa5034e25fffbdc8842180b90104414bf38900000000000000000000000078c1b0c915c4faa5fffa6cabf0219da63d7f4cb8000000000000000000000000201eba5cc46d216ce6dc03f6a759e8e766e956ae00000000000000000000000000000000000000000000000000000000000001f400000000000000000000000036576f14836da6fa2f73dd894bacf2af5549877f0000000000000000000000000000000000000000000000000000000065243e480000000000000000000000000000000000000000000000001ecf063ce95e000000000000000000000000000000000000000000000000000000000000000c67a70000000000000000000000000000000000000000000000000000000000000000822734a02e141b71686108bf31c899506ffc7cecf93d618c8707e4195f27d04eefb5e936a057a79736fbbaf0ad038e421009674facc99e3ab926b67d82a4f7c3349e49c951","s":"0x57a79736fbbaf0ad038e421009674facc99e3ab926b67d82a4f7c3349e49c951","to":"0x319b69888b0d11cec22caa5034e25fffbdc88421","transactionIndex":"0x0","v":"0x2734","value":"0x0","contractAddress":null,"cumulativeGasUsed":"0x1e455","daFee":"0x0","daGasPrice":"0x0","daGasUsed":"0x12c","gasUsed":"0x1e455","l1Fee":"0x19709d787180660","l1FeeScalar":"1","l1GasPrice":"0x38a987f04864","l1GasUsed":"0x72f","logs":[],"logsBloom":"0x00000000000000000000000000000000000000000000000000000000000000000000000000000000000000000000000000000000000000000000000000000000000000000000000000000000000000000000000000000000000000000000000000000000000000000000000000000000000000000000000000000000000000000000000000000000000000000000000000000000000000000000000000000000000000000000000000000000000000000000000000000000000000000000000000000000000000000000000000000000000000000000000000000000000000000000000000000000000000000000000000000000000000000000000000000000","status":"0x0","transactionHash":"0x7a139ec90bb040a977330d51781d484b3fa488a1397f58f451df0370178ace9b"}}}