{"block":{"difficulty":"0x2","extraData":"0xd98301090a846765746889676f312e31352e3133856c696e7578000000000000d1d36bdfb1fc3d83adaa6e5f9085112ec5a8d55586310b1fbae469695e8629b43fc6e268897ff48a4bdfcb3caa1f6e5f18f979d243d76d625ecbca312614c59501","gasLimit":"0x1c9c380","gasUsed":"0x229e2","hash":"0xc5938886b78e0a3b442ebbfde9b7c2a5de9d4453bb4982b30a2462c55713292f","logsBloom":"0x00000000000000000000000000000000000000000000008800000000000000000000040000000000000000000002000000000000000000000000000000200000140004000040000000000008000000000000000000040000000000000000000000000000000000000000000000000000010000000000100000000010000000000000000000000000000000000000000000100000400000000000000100000000020000000000000004000000000000000000000021000000000000000000000400000002000000000000000040000000000000000000000000001000000000000010000000004000000000000000000000000000000000000000000000000000","miner":"0x0000000000000000000000000000000000000000","mixHash":"0x0000000000000000000000000000000000000000000000000000000000000000","nonce":"0x0000000000000000","number":"0xd001c2","parentHash":"0x2ec0603b85a7263147b75fc71206e4db0221343302063a2f9733fe87e9501fe0","receiptsRoot":"0x54de9724ad5740c94e51742b15adfd1243c51d09b1ef731b0f55ca16fee5915f","sha3Uncles":"0x1dcc4de8dec75d7aab85b567b6ccd41ad312451b948a7413f0a142fd40d49347","size":"0x3d8","stateRoot":"0x1e469b73372ba87bebfd6943c10764a73bfe221097f2850d2912349111e3dad1","timestamp":"0x65243daa","totalDifficulty":"0x1a00385","transactions":[{"blockHash":"0xc5938886b78e0a3b442ebbfde9b7c2a5de9d4453bb4982b30a2462c55713292f","blockNumber":"0xd001c2","from":"0xfb0c8f623ece6222ceef56adb60ece0b7dc4026c","gas":"0x242a1","gasPrice":"0x2faf080","hash":"0xbf5e847269938722106e5064d1d5b1db9e001b4df32792647dc90502e48da99c","index":"0xd001c1","input":"0x414bf38900000000000000000000000078c1b0c915c4faa5fffa6cabf0219da63d7f4cb800000000000000000000000097174506aafcc846a40832719bd8899a588bd05c0000000000000000000000000000000000000000000000000000000000002710000000000000000000000000fb0c8f623ece6222ceef56adb60ece0b7dc4026c0000000000000000000000000000000000000000000000000000000065243dc9000000000000000000000000000000000000000000000001aafe02ee403e5b820000000000000000000000000000000000000000000000b7b1978b081dd9d2c40000000000000000000000000000000000000000000000000000000000000000","l1BlockNumber":"0x11774d7","l1Timestamp":"0x65243daa","l1TxOrigin":null,"nonce":"0x3a7","queueIndex":null,"queueOrigin":"sequencer","r":"0xdcd186180bc58626cdf655f8aaa384ebef135f6da371c0fdd3908e8aa0691bd0","rawTransaction":"0xf9016e8203a78402faf080830242a194319b69888b0d11cec22caa5034e25fffbdc8842180b90104414bf38900000000000000000000000078c1b0c915c4faa5fffa6cabf0219da63d7f4cb800000000000000000000000097174506aafcc846a40832719bd8899a588bd05c0000000000000000000000000000000000000000000000000000000000002710000000000000000000000000fb0c8f623ece6222ceef56adb60ece0b7dc4026c0000000000000000000000000000000000000000000000000000000065243dc9000000000000000000000000000000000000000000000001aafe02ee403e5b820000000000000000000000000000000000000000000000b7b1978b081dd9d2c40000000000000000000000000000000000000000000000000000000000000000822733a0dcd186180bc58626cdf655f8aaa384ebef135f6da371c0fdd3908e8aa0691bd0a0559100822f780c8c90d7c72fa0b0a9649327f47f01d8aa9c82b14408682bb86e","s":"0x559100822f780c8c90d7c72fa0b0a9649327f47f01d8aa9c82b14408682bb86e","to":"0x319b69888b0d11cec22caa5034e25fffbdc88421","transactionIndex":"0x0","v":"0x2733","value":"0x0"}],"transactionsRoot":"0xa7edeb948c572b08c6374df61c1b9b0726516f74012a0f0fd894a7d37cad14de","uncles":[]},"receipts":{"0xbf5e847269938722106e5064d1d5b1db9e001b4df32792647dc90502e48da99c":{"blockHash":"0xc5938886b78e0a3b442ebbfde9b7c2a5de9d4453bb4982b30a2462c55713292f","blockNumber":"0xd001c2","from":"0xfb0c8f623ece6222ceef56adb60ece0b7dc4026c","gas":"0x242a1","gasPrice":"0x2faf080","hash":"0xbf5e847269938722106e5064d1d5b1db9e001b4df32792647dc90502e48da99c","index":"0xd001c1","input":"0x414bf38900000000000000000000000078c1b0c915c4faa5fffa6cabf0219da63d7f4cb800000000000000000000000097174506aafcc846a40832719bd8899a588bd05c0000000000000000000000000000000000000000000000000000000000002710000000000000000000000000fb0c8f623ece6222ceef56adb60ece0b7dc4026c0000000000000000000000000000000000000000000000000000000065243dc9000000000000000000000000000000000000000000000001aafe02ee403e5b820000000000000000000000000000000000000000000000b7b1978b081dd9d2c40000000000000000000000000000000000000000000000000000000000000000","l1BlockNumber":"0x11774d7","l1Timestamp":"0x65243daa","l1TxOrigin":null,"nonce":"0x3a7","queueIndex":null,"queueOrigin":"sequencer","r":"0xdcd186180bc58626cdf655f8aaa384ebef135f6da371c0fdd3908e8aa0691bd0","rawTransaction":"0xf9016e8203a78402faf080830242a194319b69888b0d11cec22caa5034e25fffbdc8842180b90104414bf38900000000000000000000000078c1b0c915c4faa5fffa6cabf0219da63d7f4cb800000000000000000000000097174506aafcc846a40832719bd8899a588bd05c0000000000000000000000000000000000000000000000000000000000002710000000000000000000000000fb0c8f623ece6222ceef56adb60ece0b7dc4026c0000000000000000000000000000000000000000000000000000000065243dc9000000000000000000000000000000000000000000000001aafe02ee403e5b820000000000000000000000000000000000000000000000b7b1978b081dd9d2c40000000000000000000000000000000000000000000000000000000000000000822733a0dcd186180bc58626cdf655f8aaa384ebef135f6da371c0fdd3908e8aa0691bd0a0559100822f780c8c90d7c72fa0b0a9649327f47f01d8aa9c82b14408682bb86e","s":"0x559100822f780c8c90d7c72fa0b0a9649327f47f01d8aa9c82b14408682bb86e","to":"0x319b69888b0d11cec22caa5034e25fffbdc88421","transactionIndex":"0x0","v":"0x2733","value":"0x0","contractAddress":null,"cumulativeGasUsed":"0x229e2","daFee":"0x0","daGasPrice":"0x0","daGasUsed":"0x12c","gasUsed":"0x229e2","l1Fee":"0x19709d787180660","l1FeeScalar":"1","l1GasPrice":"0x38a987f04864","l1GasUsed":"0x72f","logs":[{"address":"0x97174506aafcc846a40832719bd8899a588bd05c","blockHash":"0xc5938886b78e0a3b442ebbfde9b7c2a5de9d4453bb4982b30a2462c55713292f","blockNumber":"0xd001c2","data":"0x0000000000000000000000000000000000000000000000c15c9f84e01f6c0648","logIndex":"0x0","removed":false,"topics":["0xddf252ad1be2c89b69c2b068fc378daa952ba7f163c4a11628f55a4df523b3ef","0x0000000000000000000000003a873fe63bedad2e9f9b9b63bf8bedb5f1789167","0x000000000000000000000000fb0c8f623ece6222ceef56adb60ece0b7dc4026c"],"transactionHash":"0xbf5e847269938722106e5064d1d5b1db9e001b4df32792647dc90502e48da99c","transactionIndex":"0x0"},{"address":"0x78c1b0c915c4faa5fffa6cabf0219da63d7f4cb8","blockHash":"0xc5938886b78e0a3b442ebbfde9b7c2a5de9d4453bb4982b30a2462c55713292f","blockNumber":"0xd001c2","data":"0x000000000000000000000000000000000000000000000001aafe02ee403e5b82","logIndex":"0x1","removed":false,"topics":["0xddf252ad1be2c89b69c2b068fc378daa952ba7f163c4a11628f55a4df523b3ef","0x000000000000000000000000fb0c8f623ece6222ceef56adb60ece0b7dc4026c","0x0000000000000000000000003a873fe63bedad2e9f9b9b63bf8bedb5f1789167"],"transactionHash":"0xbf5e847269938722106e5064d1d5b1db9e001b4df32792647dc90502e48da99c","transactionIndex":"0x0"},{"address":"0x78c1b0c915c4faa5fffa6cabf0219da63d7f4cb8","blockHash":"0xc5938886b78e0a3b442ebbfde9b7c2a5de9d4453bb4982b30a2462c55713292f","blockNumber":"0xd001c2","data":"0xfffffffffffffffffffffffffffffffffffffffffffffe48a73f41c457863bee","logIndex":"0x2","removed":false,"topics":["0x8c5be1e5ebec7d5bd14f71427d1e84f3dd0314c0f7b2291e5b200ac8c7c3b925","0x000000000000000000000000fb0c8f623ece6222ceef56adb60ece0b7dc4026c","0x000000000000000000000000319b69888b0d11cec22caa5034e25fffbdc88421"],"transactionHash":"0xbf5e847269938722106e5064d1d5b1db9e001b4df32792647dc90502e48da99c","transactionIndex":"0x0"},{"address":"0x3a873fe63bedad2e9f9b9b63bf8bedb5f1789167","blockHash":"0xc5938886b78e0a3b442ebbfde9b7c2a5de9d4453bb4982b30a2462c55713292f","blockNumber":"0xd001c2","data":"0x000000000000000000000000000000000000000000000001aafe02ee403e5b82ffffffffffffffffffffffffffffffffffffffffffffff3ea3607b1fe093f9b8000000000000000000000000000000000000000ad225e877e6cfb9ff7feb068700000000000000000000000000000000000000000004050e8f20b2f8a1c79e70000000000000000000000000000000000000000000000000000000000000ba0f000000000000000000000000000000000000000000000000015dcac2e9ad75d90000000000000000000000000000000000000000000000000000000000000000","logIndex":"0x3","removed":false,"topics":["0x19b47279256b2a23a1665c810c8d55a1758940ee09377d4f8d26497a3577dc83","0x000000000000000000000000319b69888b0d11cec22caa5034e25fffbdc88421","0x000000000000000000000000fb0c8f623ece6222ceef56adb60ece0b7dc4026c"],"transactionHash":"0xbf5e847269938722106e5064d1d5b1db9e001b4df32792647dc90502e48da99c","transactionIndex":"0x0"}],"logsBloom":"0x00000000000000000000000000000000000000000000008800000000000000000000040000000000000000000002000000000000000000000000000000200000140004000040000000000008000000000000000000040000000000000000000000000000000000000000000000000000010000000000100000000010000000000000000000000000000000000000000000100000400000000000000100000000020000000000000004000000000000000000000021000000000000000000000400000002000000000000000040000000000000000000000000001000000000000010000000004000000000000000000000000000000000000000000000000000","status":"0x1","transactionHash":"0xbf5e847269938722106e5064d1d5b1db9e001b4df32792647dc90502e48da99c"}}}