{"block":{"difficulty":"0x2","extraData":"0xd98301090a846765746889676f312e31352e3133856c696e7578000000000000fa5c1a29c4f5f9c8e38d54a94d15dea09972cfeefe7591d83ffdc50af184fa8000f2b6840ab8f8a6eda70e13d5e1e284cc9300671b6645c7ae7e0ef401afe1f801","gasLimit":"0x1c9c380","gasUsed":"0x228bc","hash":"0x03df4d92c60cfef64de09062c4e48827dd4499e7d340904db40b5d513ed5c5b8","logsBloom":"0x0000000000000000000000000000000000000000000000880000000000000000000000000000000000000000000200000000000000200000000000000000000004000000004000000000000a001000004000004000000000000000000000000000000000400000000000000100000000000000100000000000000012000002000000000000000000000000000000000000000000000000000000000000000000000000000000000000000000000000000000000001020002000100000000000000000002000000000000000000000000000000000000000000000000000000000800000000001000000000000000000000000000000000000000000000000000","miner":"0x0000000000000000000000000000000000000000","mixHash":"0x0000000000000000000000000000000000000000000000000000000000000000","nonce":"0x0000000000000000","number":"0xd0031d","parentHash":"0x144803138e2839d21f26bc6ccfa199bc1d4f4d21682eb020df6b59af3d383f88","receiptsRoot":"0xf322e12ac4ce2ddf60fba72625171752b1da87d421d87cc07c77dd1ea34434b3","sha3Uncles":"0x1dcc4de8dec75d7aab85b567b6ccd41ad312451b948a7413f0a142fd40d49347","size":"0x3d9","stateRoot":"0xdc418b09ff4126ee370430476d6f80cd927aeb0d5640b752e9d50155b84204ce","timestamp":"0x65243e61","totalDifficulty":"0x1a0063b","transactions":[{"blockHash":"0x03df4d92c60cfef64de09062c4e48827dd4499e7d340904db40b5d513ed5c5b8","blockNumber":"0xd0031d","from":"0xdff45a3a21f00f7edfb28816e8589c337421cc91","gas":"0xf4240","gasPrice":"0x69f4060","hash":"0x4cdec41bfff64943411950c391b1990f1216122210d48f0bb06b32dcc275d589","index":"0xd0031c","input":"0xdb3e219800000000000000000000000009bc4e0d864854c6afb6eb9a9cdf58ac190d0df9000000000000000000000000deaddeaddeaddeaddeaddeaddeaddeaddead111100000000000000000000000000000000000000000000000000000000000001f4000000000000000000000000dff45a3a21f00f7edfb28816e8589c337421cc91000000000000000000000000000000000000000000000000000002c726d6a8180000000000000000000000000000000000000000000000000214e8348c4f0000000000000000000000000000000000000000000000000000000000000e1f34cf0000000000000000000000000000000000005db6b1234ec3aaaad88e3f55fc35","l1BlockNumber":"0x11774e6","l1Timestamp":"0x65243e61","l1TxOrigin":null,"nonce":"0x2adf2","queueIndex":null,"queueOrigin":"sequencer","r":"0x9d24dd81fb0863ddcd5286f5402318afbf54aa093c81b9a34e6573100d7221bf","rawTransaction":"0xf9016f8302adf284069f4060830f424094319b69888b0d11cec22caa5034e25fffbdc8842180b90104db3e219800000000000000000000000009bc4e0d864854c6afb6eb9a9cdf58ac190d0df9000000000000000000000000deaddeaddeaddeaddeaddeaddeaddeaddead111100000000000000000000000000000000000000000000000000000000000001f4000000000000000000000000dff45a3a21f00f7edfb28816e8589c337421cc91000000000000000000000000000000000000000000000000000002c726d6a8180000000000000000000000000000000000000000000000000214e8348c4f0000000000000000000000000000000000000000000000000000000000000e1f34cf0000000000000000000000000000000000005db6b1234ec3aaaad88e3f55fc35822734a09d24dd81fb0863ddcd5286f5402318afbf54aa093c81b9a34e6573100d7221bfa0146f3be127f7a432ab4947d933282b5960070f5fd0250dfca701430c26162229","s":"0x146f3be127f7a432ab4947d933282b5960070f5fd0250dfca701430c26162229","to":"0x319b69888b0d11cec22caa5034e25fffbdc88421","transactionIndex":"0x0","v":"0x2734","value":"0x0"}],"transactionsRoot":"0xf61231f69f12ff23b4cb39e51c36d6b6d1fc80474cc99e103567aaff26f55d22","uncles":[]},"receipts":{"0x4cdec41bfff64943411950c391b1990f1216122210d48f0bb06b32dcc275d589":{"blockHash":"0x03df4d92c60cfef64de09062c4e48827dd4499e7d340904db40b5d513ed5c5b8","blockNumber":"0xd0031d","from":"0xdff45a3a21f00f7edfb28816e8589c337421cc91","gas":"0xf4240","gasPrice":"0x69f4060","hash":"0x4cdec41bfff64943411950c391b1990f1216122210d48f0bb06b32dcc275d589","index":"0xd0031c","input":"0xdb3e219800000000000000000000000009bc4e0d864854c6afb6eb9a9cdf58ac190d0df9000000000000000000000000deaddeaddeaddeaddeaddeaddeaddeaddead111100000000000000000000000000000000000000000000000000000000000001f4000000000000000000000000dff45a3a21f00f7edfb28816e8589c337421cc91000000000000000000000000000000000000000000000000000002c726d6a8180000000000000000000000000000000000000000000000000214e8348c4f0000000000000000000000000000000000000000000000000000000000000e1f34cf0000000000000000000000000000000000005db6b1234ec3aaaad88e3f55fc35","l1BlockNumber":"0x11774e6","l1Timestamp":"0x65243e61","l1TxOrigin":null,"nonce":"0x2adf2","queueIndex":null,"queueOrigin":"sequencer","r":"0x9d24dd81fb0863ddcd5286f5402318afbf54aa093c81b9a34e6573100d7221bf","rawTransaction":"0xf9016f8302adf284069f4060830f424094319b69888b0d11cec22caa5034e25fffbdc8842180b90104db3e219800000000000000000000000009bc4e0d864854c6afb6eb9a9cdf58ac190d0df9000000000000000000000000deaddeaddeaddeaddeaddeaddeaddeaddead111100000000000000000000000000000000000000000000000000000000000001f4000000000000000000000000dff45a3a21f00f7edfb28816e8589c337421cc91000000000000000000000000000000000000000000000000000002c726d6a8180000000000000000000000000000000000000000000000000214e8348c4f0000000000000000000000000000000000000000000000000000000000000e1f34cf0000000000000000000000000000000000005db6b1234ec3aaaad88e3f55fc35822734a09d24dd81fb0863ddcd5286f5402318afbf54aa093c81b9a34e6573100d7221bfa0146f3be127f7a432ab4947d933282b5960070f5fd0250dfca701430c26162229","s":"0x146f3be127f7a432ab4947d933282b5960070f5fd0250dfca701430c26162229","to":"0x319b69888b0d11cec22caa5034e25fffbdc88421","transactionIndex":"0x0","v":"0x2734","value":"0x0","contractAddress":null,"cumulativeGasUsed":"0x228bc","daFee":"0x0","daGasPrice":"0x0","daGasUsed":"0x12d","gasUsed":"0x228bc","l1Fee":"0x19709d787180660","l1FeeScalar":"1","l1GasPrice":"0x38a987f04864","l1GasUsed":"0x72f","logs":[{"address":"0xdeaddeaddeaddeaddeaddeaddeaddeaddead1111","blockHash":"0x03df4d92c60cfef64de09062c4e48827dd4499e7d340904db40b5d513ed5c5b8","blockNumber":"0xd0031d","data":"0x0000000000000000000000000000000000000000000000000214e8348c4f0000","logIndex":"0x0","removed":false,"topics":["0xddf252ad1be2c89b69c2b068fc378daa952ba7f163c4a11628f55a4df523b3ef","0x000000000000000000000000ee12e312878b74b2c17d80516128d7868f80365b","0x000000000000000000000000dff45a3a21f00f7edfb28816e8589c337421cc91"],"transactionHash":"0x4cdec41bfff64943411950c391b1990f1216122210d48f0bb06b32dcc275d589","transactionIndex":"0x0"},{"address":"0x09bc4e0d864854c6afb6eb9a9cdf58ac190d0df9","blockHash":"0x03df4d92c60cfef64de09062c4e48827dd4499e7d340904db40b5d513ed5c5b8","blockNumber":"0xd0031d","data":"0x000000000000000000000000000000000000000000000000000000000e1eaa01","logIndex":"0x1","removed":false,"topics":["0xddf252ad1be2c89b69c2b068fc378daa952ba7f163c4a11628f55a4df523b3ef","0x000000000000000000000000dff45a3a21f00f7edfb28816e8589c337421cc91","0x000000000000000000000000ee12e312878b74b2c17d80516128d7868f80365b"],"transactionHash":"0x4cdec41bfff64943411950c391b1990f1216122210d48f0bb06b32dcc275d589","transactionIndex":"0x0"},{"address":"0xee12e312878b74b2c17d80516128d7868f80365b","blockHash":"0x03df4d92c60cfef64de09062c4e48827dd4499e7d340904db40b5d513ed5c5b8","blockNumber":"0xd0031d","data":"0x000000000000000000000000000000000000000000000000000000000e1eaa01fffffffffffffffffffffffffffffffffffffffffffffffffdeb17cb73b100000000000000000000000000000000000000006250ed9df54b604ec9f8ba0bf935000000000000000000000000000000000000000000000000012738453d43c52c00000000000000000000000000000000000000000000000000000000000317b50000000000000000000000000000000000000000000000000000000000009d4f0000000000000000000000000000000000000000000000000000000000000000","logIndex":"0x2","removed":false,"topics":["0x19b47279256b2a23a1665c810c8d55a1758940ee09377d4f8d26497a3577dc83","0x000000000000000000000000319b69888b0d11cec22caa5034e25fffbdc88421","0x000000000000000000000000dff45a3a21f00f7edfb28816e8589c337421cc91"],"transactionHash":"0x4cdec41bfff64943411950c391b1990f1216122210d48f0bb06b32dcc275d589","transactionIndex":"0x0"}],"logsBloom":"0x0000000000000000000000000000000000000000000000880000000000000000000000000000000000000000000200000000000000200000000000000000000004000000004000000000000a001000004000004000000000000000000000000000000000400000000000000100000000000000100000000000000012000002000000000000000000000000000000000000000000000000000000000000000000000000000000000000000000000000000000000001020002000100000000000000000002000000000000000000000000000000000000000000000000000000000800000000001000000000000000000000000000000000000000000000000000","status":"0x1","transactionHash":"0x4cdec41bfff64943411950c391b1990f1216122210d48f0bb06b32dcc275d589"}}}