{"block":{"difficulty":"0x2","extraData":"0xd98301090a846765746889676f312e31352e3133856c696e7578000000000000717666e405f8423ffb0cab65165b3739fc7e951b882ddfaf60683ccdba4b31c974081a87a9ca0517cd223b3707286d876f096e0ec0cd60e41412389fb8c2c4f601","gasLimit":"0x1c9c380","gasUsed":"0x2fadb","hash":"0x0b0f7c667fe9b5177fe82ab836167de77e343b1ec439bfb3996e3e0bb6ba11ef","logsBloom":"0x002000000000000000000000a000000000000000000100001000100000000000000000000000000000000000000000000000000000200000000000000080002004000000000000000000000800000022000000c00400201400000020000000000000000000000000000000000008000000000010000000000000001000808000000000000008000000000000000000000000000000200008000000400000000000000000000000000000000000000000000000000000002000000000000000000000000200000000000000400000000000000000000000100000000000000c080000000000000000000000000000000000000000000000000000000000000000","miner":"0x0000000000000000000000000000000000000000","mixHash":"0x0000000000000000000000000000000000000000000000000000000000000000","nonce":"0x0000000000000000","number":"0xcff392","parentHash":"0xd4ab9d77dcce4265ba8218610ef7d8dc0621045d7d8843691feee3ed73fadfd3","receiptsRoot":"0x533fafbabd9eb92a22fa76d385342426b317f65227a616929f4d61e713aff85f","sha3Uncles":"0x1dcc4de8dec75d7aab85b567b6ccd41ad312451b948a7413f0a142fd40d49347","size":"0x3f8","stateRoot":"0xe5056984d8a984845f8625f1e9bd942b9baed9eb209b790bfebd14616ef02dd8","timestamp":"0x65243743","totalDifficulty":"0x19fe725","transactions":[{"blockHash":"0x0b0f7c667fe9b5177fe82ab836167de77e343b1ec439bfb3996e3e0bb6ba11ef","blockNumber":"0xcff392","from":"0x1d9e4e66bdee948989f2f56e418bf8741356fd5d","gas":"0x32e1c","gasPrice":"0x2faf080","hash":"0x20e2620dfac3cdc54b87f10939e518c5ff8a04dd1d76e24ad4fbbc84da609030","index":"0xcff391","input":"0x38ed17390000000000000000000000000000000000000000000000000000000000056d7e00000000000000000000000000000000000000000000000000000000000534d400000000000000000000000000000000000000000000000000000000000000a00000000000000000000000001d9e4e66bdee948989f2f56e418bf8741356fd5d0000000000000000000000000000000000000000000000000000000065243e3c000000000000000000000000000000000000000000000000000000000000000300000000000000000000000009bc4e0d864854c6afb6eb9a9cdf58ac190d0df9000000000000000000000000a67abd316df323682b016dd03feb4f4dd6e98e35000000000000000000000000201eba5cc46d216ce6dc03f6a759e8e766e956ae","l1BlockNumber":"0x117744e","l1Timestamp":"0x65243743","l1TxOrigin":null,"nonce":"0x154","queueIndex":null,"queueOrigin":"sequencer","r":"0x775fa5c57c4795d691a0178874b3a39198ca56687f50f2ce9882d6788978caba","rawTransaction":"0xf9018e8201548402faf08083032e1c948129d7960c0389566860115aa048e3639bf1b59880b9012438ed17390000000000000000000000000000000000000000000000000000000000056d7e00000000000000000000000000000000000000000000000000000000000534d400000000000000000000000000000000000000000000000000000000000000a00000000000000000000000001d9e4e66bdee948989f2f56e418bf8741356fd5d0000000000000000000000000000000000000000000000000000000065243e3c000000000000000000000000000000000000000000000000000000000000000300000000000000000000000009bc4e0d864854c6afb6eb9a9cdf58ac190d0df9000000000000000000000000a67abd316df323682b016dd03feb4f4dd6e98e35000000000000000000000000201eba5cc46d216ce6dc03f6a759e8e766e956ae822734a0775fa5c57c4795d691a0178874b3a39198ca56687f50f2ce9882d6788978cabaa05104d71c901e236ebffe74ef9bbe9bd1eb00db09b4419bc58bab509a8d4f4c3e","s":"0x5104d71c901e236ebffe74ef9bbe9bd1eb00db09b4419bc58bab509a8d4f4c3e","to":"0x8129d7960c0389566860115aa048e3639bf1b598","transactionIndex":"0x0","v":"0x2734","value":"0x0"}],"transactionsRoot":"0x4b35cfd69d7278208397508d85daa7ad06a76b965ae9d2266d6e93f755c4456c","uncles":[]},"receipts":{"0x20e2620dfac3cdc54b87f10939e518c5ff8a04dd1d76e24ad4fbbc84da609030":{"blockHash":"0x0b0f7c667fe9b5177fe82ab836167de77e343b1ec439bfb3996e3e0bb6ba11ef","blockNumber":"0xcff392","from":"0x1d9e4e66bdee948989f2f56e418bf8741356fd5d","gas":"0x32e1c","gasPrice":"0x2faf080","hash":"0x20e2620dfac3cdc54b87f10939e518c5ff8a04dd1d76e24ad4fbbc84da609030","index":"0xcff391","input":"0x38ed17390000000000000000000000000000000000000000000000000000000000056d7e00000000000000000000000000000000000000000000000000000000000534d400000000000000000000000000000000000000000000000000000000000000a00000000000000000000000001d9e4e66bdee948989f2f56e418bf8741356fd5d0000000000000000000000000000000000000000000000000000000065243e3c000000000000000000000000000000000000000000000000000000000000000300000000000000000000000009bc4e0d864854c6afb6eb9a9cdf58ac190d0df9000000000000000000000000a67abd316df323682b016dd03feb4f4dd6e98e35000000000000000000000000201eba5cc46d216ce6dc03f6a759e8e766e956ae","l1BlockNumber":"0x117744e","l1Timestamp":"0x65243743","l1TxOrigin":null,"nonce":"0x154","queueIndex":null,"queueOrigin":"sequencer","r":"0x775fa5c57c4795d691a0178874b3a39198ca56687f50f2ce9882d6788978caba","rawTransaction":"0xf9018e8201548402faf08083032e1c948129d7960c0389566860115aa048e3639bf1b59880b9012438ed17390000000000000000000000000000000000000000000000000000000000056d7e00000000000000000000000000000000000000000000000000000000000534d400000000000000000000000000000000000000000000000000000000000000a00000000000000000000000001d9e4e66bdee948989f2f56e418bf8741356fd5d0000000000000000000000000000000000000000000000000000000065243e3c000000000000000000000000000000000000000000000000000000000000000300000000000000000000000009bc4e0d864854c6afb6eb9a9cdf58ac190d0df9000000000000000000000000a67abd316df323682b016dd03feb4f4dd6e98e35000000000000000000000000201eba5cc46d216ce6dc03f6a759e8e766e956ae822734a0775fa5c57c4795d691a0178874b3a39198ca56687f50f2ce9882d6788978cabaa05104d71c901e236ebffe74ef9bbe9bd1eb00db09b4419bc58bab509a8d4f4c3e","s":"0x5104d71c901e236ebffe74ef9bbe9bd1eb00db09b4419bc58bab509a8d4f4c3e","to":"0x8129d7960c0389566860115aa048e3639bf1b598","transactionIndex":"0x0","v":"0x2734","value":"0x0","contractAddress":null,"cumulativeGasUsed":"0x2fadb","daFee":"0x0","daGasPrice":"0x0","daGasUsed":"0x14c","gasUsed":"0x2fadb","l1Fee":"0x1c5145ff7a866d0","l1FeeScalar":"1","l1GasPrice":"0x3f1249c65230","l1GasUsed":"0x72f","logs":[{"address":"0x09bc4e0d864854c6afb6eb9a9cdf58ac190d0df9","blockHash":"0x0b0f7c667fe9b5177fe82ab836167de77e343b1ec439bfb3996e3e0bb6ba11ef","blockNumber":"0xcff392","data":"0x0000000000000000000000000000000000000000000000000000000000056d7e","logIndex":"0x0","removed":false,"topics":["0xddf252ad1be2c89b69c2b068fc378daa952ba7f163c4a11628f55a4df523b3ef","0x0000000000000000000000001d9e4e66bdee948989f2f56e418bf8741356fd5d","0x000000000000000000000000d3211f93c431cf1b33b929746a34c63243274e20"],"transactionHash":"0x20e2620dfac3cdc54b87f10939e518c5ff8a04dd1d76e24ad4fbbc84da609030","transactionIndex":"0x0"},{"address":"0xa67abd316df323682b016dd03feb4f4dd6e98e35","blockHash":"0x0b0f7c667fe9b5177fe82ab836167de77e343b1ec439bfb3996e3e0bb6ba11ef","blockNumber":"0xcff392","data":"0x0000000000000000000000000000000000000000000000000ca66eb4ed7609b3","logIndex":"0x1","removed":false,"topics":["0xddf252ad1be2c89b69c2b068fc378daa952ba7f163c4a11628f55a4df523b3ef","0x000000000000000000000000d3211f93c431cf1b33b929746a34c63243274e20","0x0000000000000000000000005494919da5e7b76d23709467a1ccf178b458a783"],"transactionHash":"0x20e2620dfac3cdc54b87f10939e518c5ff8a04dd1d76e24ad4fbbc84da609030","transactionIndex":"0x0"},{"address":"0xd3211f93c431cf1b33b929746a34c63243274e20","blockHash":"0x0b0f7c667fe9b5177fe82ab836167de77e343b1ec439bfb3996e3e0bb6ba11ef","blockNumber":"0xcff392","data":"0x000000000000000000000000000000000000000000000000000000003add7e5a0000000000000000000000000000000000000000000000897d3181f852159834","logIndex":"0x2","removed":false,"topics":["0x1c411e9a96e071241c2f21f7726b17ae89e3cab4c78be50e062b03a9fffbbad1"],"transactionHash":"0x20e2620dfac3cdc54b87f10939e518c5ff8a04dd1d76e24ad4fbbc84da609030","transactionIndex":"0x0"},{"address":"0xd3211f93c431cf1b33b929746a34c63243274e20","blockHash":"0x0b0f7c667fe9b5177fe82ab836167de77e343b1ec439bfb3996e3e0bb6ba11ef","blockNumber":"0xcff392","data":"0x0000000000000000000000000000000000000000000000000000000000056d7e000000000000000000000000000000000000000000000000000000000000000000000000000000000000000000000000000000000000000000000000000000000000000000000000000000000000000000000000000000000ca66eb4ed7609b3","logIndex":"0x3","removed":false,"topics":["0xd78ad95fa46c994b6551d0da85fc275fe613ce37657fb8d5e3d130840159d822","0x0000000000000000000000008129d7960c0389566860115aa048e3639bf1b598","0x0000000000000000000000005494919da5e7b76d23709467a1ccf178b458a783"],"transactionHash":"0x20e2620dfac3cdc54b87f10939e518c5ff8a04dd1d76e24ad4fbbc84da609030","transactionIndex":"0x0"},{"address":"0x201eba5cc46d216ce6dc03f6a759e8e766e956ae","blockHash":"0x0b0f7c667fe9b5177fe82ab836167de77e343b1ec439bfb3996e3e0bb6ba11ef","blockNumber":"0xcff392","data":"0x0000000000000000000000000000000000000000000000000000000000053cd7","logIndex":"0x4","removed":false,"topics":["0xddf252ad1be2c89b69c2b068fc378daa952ba7f163c4a11628f55a4df523b3ef","0x0000000000000000000000005494919da5e7b76d23709467a1ccf178b458a783","0x0000000000000000000000001d9e4e66bdee948989f2f56e418bf8741356fd5d"],"transactionHash":"0x20e2620dfac3cdc54b87f10939e518c5ff8a04dd1d76e24ad4fbbc84da609030","transactionIndex":"0x0"},{"address":"0x5494919da5e7b76d23709467a1ccf178b458a783","blockHash":"0x0b0f7c667fe9b5177fe82ab836167de77e343b1ec439bfb3996e3e0bb6ba11ef","blockNumber":"0xcff392","data":"0x000000000000000000000000000000000000000000000000000000003bbee95300000000000000000000000000000000000000000000008ffcec1fe861ce5553","logIndex":"0x5","removed":false,"topics":["0x1c411e9a96e071241c2f21f7726b17ae89e3cab4c78be50e062b03a9fffbbad1"],"transactionHash":"0x20e2620dfac3cdc54b87f10939e518c5ff8a04dd1d76e24ad4fbbc84da609030","transactionIndex":"0x0"},{"address":"0x5494919da5e7b76d23709467a1ccf178b458a783","blockHash":"0x0b0f7c667fe9b5177fe82ab836167de77e343b1ec439bfb3996e3e0bb6ba11ef","blockNumber":"0xcff392","data":"0x00000000000000000000000000000000000000000000000000000000000000000000000000000000000000000000000000000000000000000ca66eb4ed7609b30000000000000000000000000000000000000000000000000000000000053cd70000000000000000000000000000000000000000000000000000000000000000","logIndex":"0x6","removed":false,"topics":["0xd78ad95fa46c994b6551d0da85fc275fe613ce37657fb8d5e3d130840159d822","0x0000000000000000000000008129d7960c0389566860115aa048e3639bf1b598","0x0000000000000000000000001d9e4e66bdee948989f2f56e418bf8741356fd5d"],"transactionHash":"0x20e2620dfac3cdc54b87f10939e518c5ff8a04dd1d76e24ad4fbbc84da609030","transactionIndex":"0x0"}],"logsBloom":"0x002000000000000000000000a000000000000000000100001000100000000000000000000000000000000000000000000000000000200000000000000080002004000000000000000000000800000022000000c00400201400000020000000000000000000000000000000000008000000000010000000000000001000808000000000000008000000000000000000000000000000200008000000400000000000000000000000000000000000000000000000000000002000000000000000000000000200000000000000400000000000000000000000100000000000000c080000000000000000000000000000000000000000000000000000000000000000","status":"0x1","transactionHash":"0x20e2620dfac3cdc54b87f10939e518c5ff8a04dd1d76e24ad4fbbc84da609030"}}}