{"block":{"difficulty":"0x2","extraData":"0xd98301090a846765746889676f312e31352e3133856c696e757800000000000050698680469c6b5a3264e3c254098f41365892b07f4c3aedc32b9d90bfbe20893dae62b450c134579afd475e44ac91c6089e62c22510413867082fe41213914401","gasLimit":"0x1c9c380","gasUsed":"0x204dd","hash":"0x64c58152f60a1902bd28351f2ddeeeb6132e89c88fa8802545547581a4e0439c","logsBloom":"0x0000000000000000000000000000000000004000000100880000000000000000000000000000000000000000000200000000000000200000000000000000000004800000004400000000000802000000000000c000002000000000000000000000000000000000000000000000000000000000100000800000000010000000000000000000000000000000000000000000000000000000000000000000000000000000000000000000000000000000000000000001000000000000000000000000000002000000000000000000000000002000000000000000000000000000000000008000000000000000000000000000000000000010000000002000000000","miner":"0x0000000000000000000000000000000000000000","mixHash":"0x0000000000000000000000000000000000000000000000000000000000000000","nonce":"0x0000000000000000","number":"0xd00182","parentHash":"0x30dafb12cf1842a7d955e4dbe8311a05397fd3130ecda7f1d4215f5f1f922083","receiptsRoot":"0x8c077cbd6a2ea630b5bf3f59c72e6f22873bd9ee5c9383b2fdd15ae3ecd745dc","sha3Uncles":"0x1dcc4de8dec75d7aab85b567b6ccd41ad312451b948a7413f0a142fd40d49347","size":"0x3d8","stateRoot":"0x856dea99114a645bcd53d6a0e54bdf509bcd0d043e8ac95db1d1c586270ca3b7","timestamp":"0x65243d81","totalDifficulty":"0x1a00305","transactions":[{"blockHash":"0x64c58152f60a1902bd28351f2ddeeeb6132e89c88fa8802545547581a4e0439c","blockNumber":"0xd00182","from":"0xb31cd7f9aa848657fd8af68513016d50956120c2","gas":"0x21d08","gasPrice":"0x2faf080","hash":"0x0d86549018d4446c4dd891c2d4e6bcadb11c01d819255a3ee8f313f8daf34edb","index":"0xd00181","input":"0x414bf38900000000000000000000000009bc4e0d864854c6afb6eb9a9cdf58ac190d0df9000000000000000000000000201eba5cc46d216ce6dc03f6a759e8e766e956ae0000000000000000000000000000000000000000000000000000000000000064000000000000000000000000b31cd7f9aa848657fd8af68513016d50956120c20000000000000000000000000000000000000000000000000000000065243da100000000000000000000000000000000000000000000000000000000001360f0000000000000000000000000000000000000000000000000000000000012fb9d0000000000000000000000000000000000000000000000000000000000000000","l1BlockNumber":"0x11774d3","l1Timestamp":"0x65243d81","l1TxOrigin":null,"nonce":"0x1209","queueIndex":null,"queueOrigin":"sequencer","r":"0xd98361b96fab8de2d4c9d41e7485b778327cc97d7ae2329b7b207a73b86d50d6","rawTransaction":"0xf9016e8212098402faf08083021d0894319b69888b0d11cec22caa5034e25fffbdc8842180b90104414bf38900000000000000000000000009bc4e0d864854c6afb6eb9a9cdf58ac190d0df9000000000000000000000000201eba5cc46d216ce6dc03f6a759e8e766e956ae0000000000000000000000000000000000000000000000000000000000000064000000000000000000000000b31cd7f9aa848657fd8af68513016d50956120c20000000000000000000000000000000000000000000000000000000065243da100000000000000000000000000000000000000000000000000000000001360f0000000000000000000000000000000000000000000000000000000000012fb9d0000000000000000000000000000000000000000000000000000000000000000822733a0d98361b96fab8de2d4c9d41e7485b778327cc97d7ae2329b7b207a73b86d50d6a07e1775ae7da7e009a855fcb3e8b0ba2bf1db9c88cec10a357bc1012a6ad76d59","s":"0x7e1775ae7da7e009a855fcb3e8b0ba2bf1db9c88cec10a357bc1012a6ad76d59","to":"0x319b69888b0d11cec22caa5034e25fffbdc88421","transactionIndex":"0x0","v":"0x2733","value":"0x0"}],"transactionsRoot":"0x5aa06b93a92f03ddf624da5b1b68de87c9d3409a4c722f718556307a33379a32","uncles":[]},"receipts":{"0x0d86549018d4446c4dd891c2d4e6bcadb11c01d819255a3ee8f313f8daf34edb":{"blockHash":"0x64c58152f60a1902bd28351f2ddeeeb6132e89c88fa8802545547581a4e0439c","blockNumber":"0xd00182","from":"0xb31cd7f9aa848657fd8af68513016d50956120c2","gas":"0x21d08","gasPrice":"0x2faf080","hash":"0x0d86549018d4446c4dd891c2d4e6bcadb11c01d819255a3ee8f313f8daf34edb","index":"0xd00181","input":"0x414bf38900000000000000000000000009bc4e0d864854c6afb6eb9a9cdf58ac190d0df9000000000000000000000000201eba5cc46d216ce6dc03f6a759e8e766e956ae0000000000000000000000000000000000000000000000000000000000000064000000000000000000000000b31cd7f9aa848657fd8af68513016d50956120c20000000000000000000000000000000000000000000000000000000065243da100000000000000000000000000000000000000000000000000000000001360f0000000000000000000000000000000000000000000000000000000000012fb9d0000000000000000000000000000000000000000000000000000000000000000","l1BlockNumber":"0x11774d3","l1Timestamp":"0x65243d81","l1TxOrigin":null,"nonce":"0x1209","queueIndex":null,"queueOrigin":"sequencer","r":"0xd98361b96fab8de2d4c9d41e7485b778327cc97d7ae2329b7b207a73b86d50d6","rawTransaction":"0xf9016e8212098402faf08083021d0894319b69888b0d11cec22caa5034e25fffbdc8842180b90104414bf38900000000000000000000000009bc4e0d864854c6afb6eb9a9cdf58ac190d0df9000000000000000000000000201eba5cc46d216ce6dc03f6a759e8e766e956ae0000000000000000000000000000000000000000000000000000000000000064000000000000000000000000b31cd7f9aa848657fd8af68513016d50956120c20000000000000000000000000000000000000000000000000000000065243da100000000000000000000000000000000000000000000000000000000001360f0000000000000000000000000000000000000000000000000000000000012fb9d0000000000000000000000000000000000000000000000000000000000000000822733a0d98361b96fab8de2d4c9d41e7485b778327cc97d7ae2329b7b207a73b86d50d6a07e1775ae7da7e009a855fcb3e8b0ba2bf1db9c88cec10a357bc1012a6ad76d59","s":"0x7e1775ae7da7e009a855fcb3e8b0ba2bf1db9c88cec10a357bc1012a6ad76d59","to":"0x319b69888b0d11cec22caa5034e25fffbdc88421","transactionIndex":"0x0","v":"0x2733","value":"0x0","contractAddress":null,"cumulativeGasUsed":"0x204dd","daFee":"0x0","daGasPrice":"0x0","daGasUsed":"0x12c","gasUsed":"0x204dd","l1Fee":"0x1a09f6380cb9fe0","l1FeeScalar":"1","l1GasPrice":"0x39ff1464e55c","l1GasUsed":"0x72f","logs":[{"address":"0x201eba5cc46d216ce6dc03f6a759e8e766e956ae","blockHash":"0x64c58152f60a1902bd28351f2ddeeeb6132e89c88fa8802545547581a4e0439c","blockNumber":"0xd00182","data":"0x0000000000000000000000000000000000000000000000000000000000135ecb","logIndex":"0x0","removed":false,"topics":["0xddf252ad1be2c89b69c2b068fc378daa952ba7f163c4a11628f55a4df523b3ef","0x0000000000000000000000006488f911c6cd86c289aa319c5a826dcf8f1ca065","0x000000000000000000000000b31cd7f9aa848657fd8af68513016d50956120c2"],"transactionHash":"0x0d86549018d4446c4dd891c2d4e6bcadb11c01d819255a3ee8f313f8daf34edb","transactionIndex":"0x0"},{"address":"0x09bc4e0d864854c6afb6eb9a9cdf58ac190d0df9","blockHash":"0x64c58152f60a1902bd28351f2ddeeeb6132e89c88fa8802545547581a4e0439c","blockNumber":"0xd00182","data":"0x00000000000000000000000000000000000000000000000000000000001360f0","logIndex":"0x1","removed":false,"topics":["0xddf252ad1be2c89b69c2b068fc378daa952ba7f163c4a11628f55a4df523b3ef","0x000000000000000000000000b31cd7f9aa848657fd8af68513016d50956120c2","0x0000000000000000000000006488f911c6cd86c289aa319c5a826dcf8f1ca065"],"transactionHash":"0x0d86549018d4446c4dd891c2d4e6bcadb11c01d819255a3ee8f313f8daf34edb","transactionIndex":"0x0"},{"address":"0x6488f911c6cd86c289aa319c5a826dcf8f1ca065","blockHash":"0x64c58152f60a1902bd28351f2ddeeeb6132e89c88fa8802545547581a4e0439c","blockNumber":"0xd00182","data":"0x00000000000000000000000000000000000000000000000000000000001360f0ffffffffffffffffffffffffffffffffffffffffffffffffffffffffffeca1350000000000000000000000000000000000000000fff520325f1fc37311a5d29d0000000000000000000000000000000000000000000000000000aa91ae904e92fffffffffffffffffffffffffffffffffffffffffffffffffffffffffffffffc00000000000000000000000000000000000000000000000000000000000000290000000000000000000000000000000000000000000000000000000000000000","logIndex":"0x2","removed":false,"topics":["0x19b47279256b2a23a1665c810c8d55a1758940ee09377d4f8d26497a3577dc83","0x000000000000000000000000319b69888b0d11cec22caa5034e25fffbdc88421","0x000000000000000000000000b31cd7f9aa848657fd8af68513016d50956120c2"],"transactionHash":"0x0d86549018d4446c4dd891c2d4e6bcadb11c01d819255a3ee8f313f8daf34edb","transactionIndex":"0x0"}],"logsBloom":"0x0000000000000000000000000000000000004000000100880000000000000000000000000000000000000000000200000000000000200000000000000000000004800000004400000000000802000000000000c000002000000000000000000000000000000000000000000000000000000000100000800000000010000000000000000000000000000000000000000000000000000000000000000000000000000000000000000000000000000000000000000001000000000000000000000000000002000000000000000000000000002000000000000000000000000000000000008000000000000000000000000000000000000010000000002000000000","status":"0x1","transactionHash":"0x0d86549018d4446c4dd891c2d4e6bcadb11c01d819255a3ee8f313f8daf34edb"}}}