{"block":{"difficulty":"0x2","extraData":"0xd98301090a846765746889676f312e31352e3133856c696e7578000000000000162b79694d9329fb03adc80d08bae48899a812ca644a3e5ed18ce7a4c031c87d46b3a565b6f684907ae7677b007381844afebbd3156c67e1a8506975a230c6ca00","gasLimit":"0x1c9c380","gasUsed":"0x1d076","hash":"0x0efd6ccc9d1f796b54a97b7372e0e9a32655f8bc73a3d0580508a95c3e4c2910","logsBloom":"0x00000000000000000000000000000010000000000000008800000000000000000000040000000000000000000002000000000000000000000000000000200000140004000040000000000008000000000000000000040000000400000000000000000000000000000000000000000000010000000000100000000010000000000000000000000000000000000000000000100000400000000000000100000000020000000000000000000000000000000000000021000000000000000000000000000002000000000000000000000000000000000000000000001000000000000010000000004000000000000080000000000000000000000000000000000000","miner":"0x0000000000000000000000000000000000000000","mixHash":"0x0000000000000000000000000000000000000000000000000000000000000000","nonce":"0x0000000000000000","number":"0xd002d5","parentHash":"0x1755b154f0c35a50ae6805b3581ed60a57bc92909b893364ff092b2a016a01a2","receiptsRoot":"0xa6070f398f8d6f3ce3b53f16fca2b4474f19c00452b48b375c563b4ed8d42c70","sha3Uncles":"0x1dcc4de8dec75d7aab85b567b6ccd41ad312451b948a7413f0a142fd40d49347","size":"0x3d8","stateRoot":"0x19a5e6e77dda35b410e6deb71911f809e06fe008f1003b95cb10271368889584","timestamp":"0x65243e43","totalDifficulty":"0x1a005ab","transactions":[{"blockHash":"0x0efd6ccc9d1f796b54a97b7372e0e9a32655f8bc73a3d0580508a95c3e4c2910","blockNumber":"0xd002d5","from":"0xbb2a9ded77888f8edf5102fdd5df5e46953172e4","gas":"0x1facb","gasPrice":"0x2faf080","hash":"0x2ceadc635086fc3787486eb635be7874f5178ca2538f1adaa452c3508fab700d","index":"0xd002d4","input":"0x414bf38900000000000000000000000097174506aafcc846a40832719bd8899a588bd05c00000000000000000000000078c1b0c915c4faa5fffa6cabf0219da63d7f4cb80000000000000000000000000000000000000000000000000000000000002710000000000000000000000000bb2a9ded77888f8edf5102fdd5df5e46953172e40000000000000000000000000000000000000000000000000000000065243e610000000000000000000000000000000000000000000000dfa80a0ed4aa277221000000000000000000000000000000000000000000000001cc0ecd6674e05cdb0000000000000000000000000000000000000000000000000000000000000000","l1BlockNumber":"0x11774e3","l1Timestamp":"0x65243e43","l1TxOrigin":null,"nonce":"0x3a3","queueIndex":null,"queueOrigin":"sequencer","r":"0x41ebee19c45f324d565e398da53b8a4018b988d5b5b6806de7fb4d2d8871bce4","rawTransaction":"0xf9016e8203a38402faf0808301facb94319b69888b0d11cec22caa5034e25fffbdc8842180b90104414bf38900000000000000000000000097174506aafcc846a40832719bd8899a588bd05c00000000000000000000000078c1b0c915c4faa5fffa6cabf0219da63d7f4cb80000000000000000000000000000000000000000000000000000000000002710000000000000000000000000bb2a9ded77888f8edf5102fdd5df5e46953172e40000000000000000000000000000000000000000000000000000000065243e610000000000000000000000000000000000000000000000dfa80a0ed4aa277221000000000000000000000000000000000000000000000001cc0ecd6674e05cdb0000000000000000000000000000000000000000000000000000000000000000822734a041ebee19c45f324d565e398da53b8a4018b988d5b5b6806de7fb4d2d8871bce4a02036363144a86c2c1970fdf5cec05391d81422ac69d4bb184825f17bdfb73b85","s":"0x2036363144a86c2c1970fdf5cec05391d81422ac69d4bb184825f17bdfb73b85","to":"0x319b69888b0d11cec22caa5034e25fffbdc88421","transactionIndex":"0x0","v":"0x2734","value":"0x0"}],"transactionsRoot":"0x09944f743b47b12de0fd02d38832d8692f7dd9b3c517f83688622c0b5511bc1e","uncles":[]},"receipts":{"0x2ceadc635086fc3787486eb635be7874f5178ca2538f1adaa452c3508fab700d":{"blockHash":"0x0efd6ccc9d1f796b54a97b7372e0e9a32655f8bc73a3d0580508a95c3e4c2910","blockNumber":"0xd002d5","from":"0xbb2a9ded77888f8edf5102fdd5df5e46953172e4","gas":"0x1facb","gasPrice":"0x2faf080","hash":"0x2ceadc635086fc3787486eb635be7874f5178ca2538f1adaa452c3508fab700d","index":"0xd002d4","input":"0x414bf38900000000000000000000000097174506aafcc846a40832719bd8899a588bd05c00000000000000000000000078c1b0c915c4faa5fffa6cabf0219da63d7f4cb80000000000000000000000000000000000000000000000000000000000002710000000000000000000000000bb2a9ded77888f8edf5102fdd5df5e46953172e40000000000000000000000000000000000000000000000000000000065243e610000000000000000000000000000000000000000000000dfa80a0ed4aa277221000000000000000000000000000000000000000000000001cc0ecd6674e05cdb0000000000000000000000000000000000000000000000000000000000000000","l1BlockNumber":"0x11774e3","l1Timestamp":"0x65243e43","l1TxOrigin":null,"nonce":"0x3a3","queueIndex":null,"queueOrigin":"sequencer","r":"0x41ebee19c45f324d565e398da53b8a4018b988d5b5b6806de7fb4d2d8871bce4","rawTransaction":"0xf9016e8203a38402faf0808301facb94319b69888b0d11cec22caa5034e25fffbdc8842180b90104414bf38900000000000000000000000097174506aafcc846a40832719bd8899a588bd05c00000000000000000000000078c1b0c915c4faa5fffa6cabf0219da63d7f4cb80000000000000000000000000000000000000000000000000000000000002710000000000000000000000000bb2a9ded77888f8edf5102fdd5df5e46953172e40000000000000000000000000000000000000000000000000000000065243e610000000000000000000000000000000000000000000000dfa80a0ed4aa277221000000000000000000000000000000000000000000000001cc0ecd6674e05cdb0000000000000000000000000000000000000000000000000000000000000000822734a041ebee19c45f324d565e398da53b8a4018b988d5b5b6806de7fb4d2d8871bce4a02036363144a86c2c1970fdf5cec05391d81422ac69d4bb184825f17bdfb73b85","s":"0x2036363144a86c2c1970fdf5cec05391d81422ac69d4bb184825f17bdfb73b85","to":"0x319b69888b0d11cec22caa5034e25fffbdc88421","transactionIndex":"0x0","v":"0x2734","value":"0x0","contractAddress":null,"cumulativeGasUsed":"0x1d076","daFee":"0x0","daGasPrice":"0x0","daGasUsed":"0x12c","gasUsed":"0x1d076","l1Fee":"0x19709d787180660","l1FeeScalar":"1","l1GasPrice":"0x38a987f04864","l1GasUsed":"0x72f","logs":[{"address":"0x78c1b0c915c4faa5fffa6cabf0219da63d7f4cb8","blockHash":"0x0efd6ccc9d1f796b54a97b7372e0e9a32655f8bc73a3d0580508a95c3e4c2910","blockNumber":"0xd002d5","data":"0x000000000000000000000000000000000000000000000001e44579e51cb646cc","logIndex":"0x0","removed":false,"topics":["0xddf252ad1be2c89b69c2b068fc378daa952ba7f163c4a11628f55a4df523b3ef","0x0000000000000000000000003a873fe63bedad2e9f9b9b63bf8bedb5f1789167","0x000000000000000000000000bb2a9ded77888f8edf5102fdd5df5e46953172e4"],"transactionHash":"0x2ceadc635086fc3787486eb635be7874f5178ca2538f1adaa452c3508fab700d","transactionIndex":"0x0"},{"address":"0x97174506aafcc846a40832719bd8899a588bd05c","blockHash":"0x0efd6ccc9d1f796b54a97b7372e0e9a32655f8bc73a3d0580508a95c3e4c2910","blockNumber":"0xd002d5","data":"0x0000000000000000000000000000000000000000000000dfa80a0ed4aa277221","logIndex":"0x1","removed":false,"topics":["0xddf252ad1be2c89b69c2b068fc378daa952ba7f163c4a11628f55a4df523b3ef","0x000000000000000000000000bb2a9ded77888f8edf5102fdd5df5e46953172e4","0x0000000000000000000000003a873fe63bedad2e9f9b9b63bf8bedb5f1789167"],"transactionHash":"0x2ceadc635086fc3787486eb635be7874f5178ca2538f1adaa452c3508fab700d","transactionIndex":"0x0"},{"address":"0x97174506aafcc846a40832719bd8899a588bd05c","blockHash":"0x0efd6ccc9d1f796b54a97b7372e0e9a32655f8bc73a3d0580508a95c3e4c2910","blockNumber":"0xd002d5","data":"0xfffffffffffffffffffffffffffffffffffffffffffef7fbcc8a698833b71639","logIndex":"0x2","removed":false,"topics":["0x8c5be1e5ebec7d5bd14f71427d1e84f3dd0314c0f7b2291e5b200ac8c7c3b925","0x000000000000000000000000bb2a9ded77888f8edf5102fdd5df5e46953172e4","0x000000000000000000000000319b69888b0d11cec22caa5034e25fffbdc88421"],"transactionHash":"0x2ceadc635086fc3787486eb635be7874f5178ca2538f1adaa452c3508fab700d","transactionIndex":"0x0"},{"address":"0x3a873fe63bedad2e9f9b9b63bf8bedb5f1789167","blockHash":"0x0efd6ccc9d1f796b54a97b7372e0e9a32655f8bc73a3d0580508a95c3e4c2910","blockNumber":"0xd002d5","data":"0xfffffffffffffffffffffffffffffffffffffffffffffffe1bba861ae349b9340000000000000000000000000000000000000000000000dfa80a0ed4aa277221000000000000000000000000000000000000000ad1c02c296c10f4def043d86300000000000000000000000000000000000000000004050e8f20b2f8a1c79e70000000000000000000000000000000000000000000000000000000000000ba0d0000000000000000000000000000000000000000000000000000000000000000000000000000000000000000000000000000000000000000b73825bb0c6c42b8","logIndex":"0x3","removed":false,"topics":["0x19b47279256b2a23a1665c810c8d55a1758940ee09377d4f8d26497a3577dc83","0x000000000000000000000000319b69888b0d11cec22caa5034e25fffbdc88421","0x000000000000000000000000bb2a9ded77888f8edf5102fdd5df5e46953172e4"],"transactionHash":"0x2ceadc635086fc3787486eb635be7874f5178ca2538f1adaa452c3508fab700d","transactionIndex":"0x0"}],"logsBloom":"0x00000000000000000000000000000010000000000000008800000000000000000000040000000000000000000002000000000000000000000000000000200000140004000040000000000008000000000000000000040000000400000000000000000000000000000000000000000000010000000000100000000010000000000000000000000000000000000000000000100000400000000000000100000000020000000000000000000000000000000000000021000000000000000000000000000002000000000000000000000000000000000000000000001000000000000010000000004000000000000080000000000000000000000000000000000000","status":"0x1","transactionHash":"0x2ceadc635086fc3787486eb635be7874f5178ca2538f1adaa452c3508fab700d"}}}