{"block":{"difficulty":"0x2","extraData":"0xd98301090a846765746889676f312e31352e3133856c696e7578000000000000ff8b5eac18026010023f2fed7c9e55f897e8cb62682e84074f329311ce10097010fa141e0dc046c49fecb4b4d7e9295201d7c0d6d74b91fdf331b4d2d06923de00","gasLimit":"0x1c9c380","gasUsed":"0x1e14f","hash":"0xc659c2b2145c90b3ab2d08cfd804f3c26d61ce8f929847b59c3fafb485e77c9a","logsBloom":"0x50000000000001000000000000000000000000000001008800000000000000000000000000000000000000000002000000000000000000000000000000200000840000000040000000000008000000000000008000002004000000000000000000000001000000000000000100000000000000000000000000000010000000000000000000000000000000000000000000000000000000000008000000000000020000000000000000000000000000000000000001000020000100000000000000000002000000000000000000000000000000000000000000000000002000000010000000001000000000000000000000000000000000000000000000000000","miner":"0x0000000000000000000000000000000000000000","mixHash":"0x0000000000000000000000000000000000000000000000000000000000000000","nonce":"0x0000000000000000","number":"0xd00b20","parentHash":"0x741e5bdd0972bf058776d11291cb9a6136dfe196e8827d652a314194b30b1f0c","receiptsRoot":"0xb5c8fee36ec56c5515071f7fe91210b98d55d78b21d8798d89bf2231418bb926","sha3Uncles":"0x1dcc4de8dec75d7aab85b567b6ccd41ad312451b948a7413f0a142fd40d49347","size":"0x3d8","stateRoot":"0xd25ccdd737ef040d9d1d09e218a74ba27bc396feb212ea9266918de12831c03a","timestamp":"0x65244211","totalDifficulty":"0x1a01641","transactions":[{"blockHash":"0xc659c2b2145c90b3ab2d08cfd804f3c26d61ce8f929847b59c3fafb485e77c9a","blockNumber":"0xd00b20","from":"0x452b3327792d0b75eebf1d2b49fd34f1f6917ba6","gas":"0x1f8de","gasPrice":"0x2faf080","hash":"0x84290be9697e1c3c1593c3495871974ef01989115bb8d076a141a909e2c14cd8","index":"0xd00b1f","input":"0x414bf389000000000000000000000000deaddeaddeaddeaddeaddeaddeaddeaddead1111000000000000000000000000201eba5cc46d216ce6dc03f6a759e8e766e956ae00000000000000000000000000000000000000000000000000000000000001f4000000000000000000000000452b3327792d0b75eebf1d2b49fd34f1f6917ba6000000000000000000000000000000000000000000000000000000006524422f0000000000000000000000000000000000000000000000000001d8efef48800000000000000000000000000000000000000000000000000000000000000c3acf0000000000000000000000000000000000000000000000000000000000000000","l1BlockNumber":"0x1177534","l1Timestamp":"0x65244211","l1TxOrigin":null,"nonce":"0xaa9","queueIndex":null,"queueOrigin":"sequencer","r":"0xea5dacec8e509f763885e0bb35348ce740a5c54aa4563e4fc5262ebcb2cacdce","rawTransaction":"0xf9016e820aa98402faf0808301f8de94319b69888b0d11cec22caa5034e25fffbdc8842180b90104414bf389000000000000000000000000deaddeaddeaddeaddeaddeaddeaddeaddead1111000000000000000000000000201eba5cc46d216ce6dc03f6a759e8e766e956ae00000000000000000000000000000000000000000000000000000000000001f4000000000000000000000000452b3327792d0b75eebf1d2b49fd34f1f6917ba6000000000000000000000000000000000000000000000000000000006524422f0000000000000000000000000000000000000000000000000001d8efef48800000000000000000000000000000000000000000000000000000000000000c3acf0000000000000000000000000000000000000000000000000000000000000000822733a0ea5dacec8e509f763885e0bb35348ce740a5c54aa4563e4fc5262ebcb2cacdcea03318f6c0023032e4a88c8eb10ec4ac62e1880e4a17314a1bf88ae448b54a1da9","s":"0x3318f6c0023032e4a88c8eb10ec4ac62e1880e4a17314a1bf88ae448b54a1da9","to":"0x319b69888b0d11cec22caa5034e25fffbdc88421","transactionIndex":"0x0","v":"0x2733","value":"0x0"}],"transactionsRoot":"0x9bb2ce53f6ea647842fa448d114f5e65def2e3b8f57a264be6fa8aff6a6c60e4","uncles":[]},"receipts":{"0x84290be9697e1c3c1593c3495871974ef01989115bb8d076a141a909e2c14cd8":{"blockHash":"0xc659c2b2145c90b3ab2d08cfd804f3c26d61ce8f929847b59c3fafb485e77c9a","blockNumber":"0xd00b20","from":"0x452b3327792d0b75eebf1d2b49fd34f1f6917ba6","gas":"0x1f8de","gasPrice":"0x2faf080","hash":"0x84290be9697e1c3c1593c3495871974ef01989115bb8d076a141a909e2c14cd8","index":"0xd00b1f","input":"0x414bf389000000000000000000000000deaddeaddeaddeaddeaddeaddeaddeaddead1111000000000000000000000000201eba5cc46d216ce6dc03f6a759e8e766e956ae00000000000000000000000000000000000000000000000000000000000001f4000000000000000000000000452b3327792d0b75eebf1d2b49fd34f1f6917ba6000000000000000000000000000000000000000000000000000000006524422f0000000000000000000000000000000000000000000000000001d8efef48800000000000000000000000000000000000000000000000000000000000000c3acf0000000000000000000000000000000000000000000000000000000000000000","l1BlockNumber":"0x1177534","l1Timestamp":"0x65244211","l1TxOrigin":null,"nonce":"0xaa9","queueIndex":null,"queueOrigin":"sequencer","r":"0xea5dacec8e509f763885e0bb35348ce740a5c54aa4563e4fc5262ebcb2cacdce","rawTransaction":"0xf9016e820aa98402faf0808301f8de94319b69888b0d11cec22caa5034e25fffbdc8842180b90104414bf389000000000000000000000000deaddeaddeaddeaddeaddeaddeaddeaddead1111000000000000000000000000201eba5cc46d216ce6dc03f6a759e8e766e956ae00000000000000000000000000000000000000000000000000000000000001f4000000000000000000000000452b3327792d0b75eebf1d2b49fd34f1f6917ba6000000000000000000000000000000000000000000000000000000006524422f0000000000000000000000000000000000000000000000000001d8efef48800000000000000000000000000000000000000000000000000000000000000c3acf0000000000000000000000000000000000000000000000000000000000000000822733a0ea5dacec8e509f763885e0bb35348ce740a5c54aa4563e4fc5262ebcb2cacdcea03318f6c0023032e4a88c8eb10ec4ac62e1880e4a17314a1bf88ae448b54a1da9","s":"0x3318f6c0023032e4a88c8eb10ec4ac62e1880e4a17314a1bf88ae448b54a1da9","to":"0x319b69888b0d11cec22caa5034e25fffbdc88421","transactionIndex":"0x0","v":"0x2733","value":"0x0","contractAddress":null,"cumulativeGasUsed":"0x1e14f","daFee":"0x0","daGasPrice":"0x0","daGasUsed":"0x12c","gasUsed":"0x1e14f","l1Fee":"0x1911132b46ddf60","l1FeeScalar":"1","l1GasPrice":"0x37d4bc06bddc","l1GasUsed":"0x72f","logs":[{"address":"0x201eba5cc46d216ce6dc03f6a759e8e766e956ae","blockHash":"0xc659c2b2145c90b3ab2d08cfd804f3c26d61ce8f929847b59c3fafb485e77c9a","blockNumber":"0xd00b20","data":"0x00000000000000000000000000000000000000000000000000000000000c7ab4","logIndex":"0x0","removed":false,"topics":["0xddf252ad1be2c89b69c2b068fc378daa952ba7f163c4a11628f55a4df523b3ef","0x000000000000000000000000628f7131cf43e88ebe3921ae78c4ba0c31872bd4","0x000000000000000000000000452b3327792d0b75eebf1d2b49fd34f1f6917ba6"],"transactionHash":"0x84290be9697e1c3c1593c3495871974ef01989115bb8d076a141a909e2c14cd8","transactionIndex":"0x0"},{"address":"0xdeaddeaddeaddeaddeaddeaddeaddeaddead1111","blockHash":"0xc659c2b2145c90b3ab2d08cfd804f3c26d61ce8f929847b59c3fafb485e77c9a","blockNumber":"0xd00b20","data":"0x0000000000000000000000000000000000000000000000000001d8efef488000","logIndex":"0x1","removed":false,"topics":["0xddf252ad1be2c89b69c2b068fc378daa952ba7f163c4a11628f55a4df523b3ef","0x000000000000000000000000452b3327792d0b75eebf1d2b49fd34f1f6917ba6","0x000000000000000000000000628f7131cf43e88ebe3921ae78c4ba0c31872bd4"],"transactionHash":"0x84290be9697e1c3c1593c3495871974ef01989115bb8d076a141a909e2c14cd8","transactionIndex":"0x0"},{"address":"0xdeaddeaddeaddeaddeaddeaddeaddeaddead1111","blockHash":"0xc659c2b2145c90b3ab2d08cfd804f3c26d61ce8f929847b59c3fafb485e77c9a","blockNumber":"0xd00b20","data":"0xfffffffffffffffffffffffffffffffffffffffffffffffffcdf21282781efff","logIndex":"0x2","removed":false,"topics":["0x8c5be1e5ebec7d5bd14f71427d1e84f3dd0314c0f7b2291e5b200ac8c7c3b925","0x000000000000000000000000452b3327792d0b75eebf1d2b49fd34f1f6917ba6","0x000000000000000000000000319b69888b0d11cec22caa5034e25fffbdc88421"],"transactionHash":"0x84290be9697e1c3c1593c3495871974ef01989115bb8d076a141a909e2c14cd8","transactionIndex":"0x0"},{"address":"0x628f7131cf43e88ebe3921ae78c4ba0c31872bd4","blockHash":"0xc659c2b2145c90b3ab2d08cfd804f3c26d61ce8f929847b59c3fafb485e77c9a","blockNumber":"0xd00b20","data":"0xfffffffffffffffffffffffffffffffffffffffffffffffffffffffffff3854c0000000000000000000000000000000000000000000000000001d8efef488000000000000000000000000000000000000000627e715ba2057f0801b0cfc610e700000000000000000000000000000000000000000000000000002c65dde06c2000000000000000000000000000000000000000000000000000000000000317d9000000000000000000000000000000000000000000000000000000000000000000000000000000000000000000000000000000000000000000000014950cf400","logIndex":"0x3","removed":false,"topics":["0x19b47279256b2a23a1665c810c8d55a1758940ee09377d4f8d26497a3577dc83","0x000000000000000000000000319b69888b0d11cec22caa5034e25fffbdc88421","0x000000000000000000000000452b3327792d0b75eebf1d2b49fd34f1f6917ba6"],"transactionHash":"0x84290be9697e1c3c1593c3495871974ef01989115bb8d076a141a909e2c14cd8","transactionIndex":"0x0"}],"logsBloom":"0x50000000000001000000000000000000000000000001008800000000000000000000000000000000000000000002000000000000000000000000000000200000840000000040000000000008000000000000008000002004000000000000000000000001000000000000000100000000000000000000000000000010000000000000000000000000000000000000000000000000000000000008000000000000020000000000000000000000000000000000000001000020000100000000000000000002000000000000000000000000000000000000000000000000002000000010000000001000000000000000000000000000000000000000000000000000","status":"0x1","transactionHash":"0x84290be9697e1c3c1593c3495871974ef01989115bb8d076a141a909e2c14cd8"}}}