{"block":{"difficulty":"0x2","extraData":"0xd98301090a846765746889676f312e31352e3133856c696e7578000000000000069f7ae2ad3d38a17b96322e06d6bd33137c877fb0fcfdc72dfcbfe8f877f22f12f35d37202729bcb303b96ac480afccdc4390d0111f1dc7dfa8dbe87b5c575600","gasLimit":"0x1c9c380","gasUsed":"0x1fc88","hash":"0x24777aee9e16b7d12b5954033cdee65f98e3f954c66b8ac721134f29936a9d81","logsBloom":"0x0000000000000000000000000000000000004000000100880000000000000000000000000000000000000000000200000000000000200000000000000020000004800000004400000000000800000080000400c000002000000000000000000000000000000000000000000000000000000000100000800000000010000000000000000000000000000000000000000000000000000080000000000000000000020000000000000000000000000000000000000001000000000000000000000000000002000000000000000000000000002000000000000000000000000000000010000000000000000000000000000000000000000010000000000000000000","miner":"0x0000000000000000000000000000000000000000","mixHash":"0x0000000000000000000000000000000000000000000000000000000000000000","nonce":"0x0000000000000000","number":"0xcff37b","parentHash":"0x0378f2177aff49967e44b6e2f00c618e64b0ceba6d4f489e69fbfe7fc2a785e9","receiptsRoot":"0x89fcc7b2b5d243f72e9235fb9d65f02994edf36b9ca3da6664a1f3eb0c3af4bc","sha3Uncles":"0x1dcc4de8dec75d7aab85b567b6ccd41ad312451b948a7413f0a142fd40d49347","size":"0x3d8","stateRoot":"0x3e312d7e823a586d7cbf808e3fef7ae691396f2e335c1440d319837fbf6d81dd","timestamp":"0x6524373e","totalDifficulty":"0x19fe6f7","transactions":[{"blockHash":"0x24777aee9e16b7d12b5954033cdee65f98e3f954c66b8ac721134f29936a9d81","blockNumber":"0xcff37b","from":"0xdd7d40975e16d3e5759119d61024b9ea193da664","gas":"0x21487","gasPrice":"0x2faf080","hash":"0xace7bc2fcb886226abd11af8259b17a1327339bd218423ae6c26919a75a46db0","index":"0xcff37a","input":"0x414bf389000000000000000000000000201eba5cc46d216ce6dc03f6a759e8e766e956ae00000000000000000000000009bc4e0d864854c6afb6eb9a9cdf58ac190d0df90000000000000000000000000000000000000000000000000000000000000064000000000000000000000000dd7d40975e16d3e5759119d61024b9ea193da664000000000000000000000000000000000000000000000000000000006524375d00000000000000000000000000000000000000000000000000000000000dbba000000000000000000000000000000000000000000000000000000000000d761c0000000000000000000000000000000000000000000000000000000000000000","l1BlockNumber":"0x117744d","l1Timestamp":"0x6524373e","l1TxOrigin":null,"nonce":"0x962","queueIndex":null,"queueOrigin":"sequencer","r":"0x95726dd93031d58a016f833cc439ac24ebca37dcc15a8ef96879ae719aafa9bb","rawTransaction":"0xf9016e8209628402faf0808302148794319b69888b0d11cec22caa5034e25fffbdc8842180b90104414bf389000000000000000000000000201eba5cc46d216ce6dc03f6a759e8e766e956ae00000000000000000000000009bc4e0d864854c6afb6eb9a9cdf58ac190d0df90000000000000000000000000000000000000000000000000000000000000064000000000000000000000000dd7d40975e16d3e5759119d61024b9ea193da664000000000000000000000000000000000000000000000000000000006524375d00000000000000000000000000000000000000000000000000000000000dbba000000000000000000000000000000000000000000000000000000000000d761c0000000000000000000000000000000000000000000000000000000000000000822734a095726dd93031d58a016f833cc439ac24ebca37dcc15a8ef96879ae719aafa9bba01e3d5bfc82f9e74c65bac83a5b1e55237be042ad75935c0053363e293747114d","s":"0x1e3d5bfc82f9e74c65bac83a5b1e55237be042ad75935c0053363e293747114d","to":"0x319b69888b0d11cec22caa5034e25fffbdc88421","transactionIndex":"0x0","v":"0x2734","value":"0x0"}],"transactionsRoot":"0xe38305052e594a8eaeaf29aca01e58cb06119c51edde445cd35864c3b8bd5237","uncles":[]},"receipts":{"0xace7bc2fcb886226abd11af8259b17a1327339bd218423ae6c26919a75a46db0":{"blockHash":"0x24777aee9e16b7d12b5954033cdee65f98e3f954c66b8ac721134f29936a9d81","blockNumber":"0xcff37b","from":"0xdd7d40975e16d3e5759119d61024b9ea193da664","gas":"0x21487","gasPrice":"0x2faf080","hash":"0xace7bc2fcb886226abd11af8259b17a1327339bd218423ae6c26919a75a46db0","index":"0xcff37a","input":"0x414bf389000000000000000000000000201eba5cc46d216ce6dc03f6a759e8e766e956ae00000000000000000000000009bc4e0d864854c6afb6eb9a9cdf58ac190d0df90000000000000000000000000000000000000000000000000000000000000064000000000000000000000000dd7d40975e16d3e5759119d61024b9ea193da664000000000000000000000000000000000000000000000000000000006524375d00000000000000000000000000000000000000000000000000000000000dbba000000000000000000000000000000000000000000000000000000000000d761c0000000000000000000000000000000000000000000000000000000000000000","l1BlockNumber":"0x117744d","l1Timestamp":"0x6524373e","l1TxOrigin":null,"nonce":"0x962","queueIndex":null,"queueOrigin":"sequencer","r":"0x95726dd93031d58a016f833cc439ac24ebca37dcc15a8ef96879ae719aafa9bb","rawTransaction":"0xf9016e8209628402faf0808302148794319b69888b0d11cec22caa5034e25fffbdc8842180b90104414bf389000000000000000000000000201eba5cc46d216ce6dc03f6a759e8e766e956ae00000000000000000000000009bc4e0d864854c6afb6eb9a9cdf58ac190d0df90000000000000000000000000000000000000000000000000000000000000064000000000000000000000000dd7d40975e16d3e5759119d61024b9ea193da664000000000000000000000000000000000000000000000000000000006524375d00000000000000000000000000000000000000000000000000000000000dbba000000000000000000000000000000000000000000000000000000000000d761c0000000000000000000000000000000000000000000000000000000000000000822734a095726dd93031d58a016f833cc439ac24ebca37dcc15a8ef96879ae719aafa9bba01e3d5bfc82f9e74c65bac83a5b1e55237be042ad75935c0053363e293747114d","s":"0x1e3d5bfc82f9e74c65bac83a5b1e55237be042ad75935c0053363e293747114d","to":"0x319b69888b0d11cec22caa5034e25fffbdc88421","transactionIndex":"0x0","v":"0x2734","value":"0x0","contractAddress":null,"cumulativeGasUsed":"0x1fc88","daFee":"0x0","daGasPrice":"0x0","daGasUsed":"0x12c","gasUsed":"0x1fc88","l1Fee":"0x1c5145ff7a866d0","l1FeeScalar":"1","l1GasPrice":"0x3f1249c65230","l1GasUsed":"0x72f","logs":[{"address":"0x09bc4e0d864854c6afb6eb9a9cdf58ac190d0df9","blockHash":"0x24777aee9e16b7d12b5954033cdee65f98e3f954c66b8ac721134f29936a9d81","blockNumber":"0xcff37b","data":"0x00000000000000000000000000000000000000000000000000000000000dbc71","logIndex":"0x0","removed":false,"topics":["0xddf252ad1be2c89b69c2b068fc378daa952ba7f163c4a11628f55a4df523b3ef","0x0000000000000000000000006488f911c6cd86c289aa319c5a826dcf8f1ca065","0x000000000000000000000000dd7d40975e16d3e5759119d61024b9ea193da664"],"transactionHash":"0xace7bc2fcb886226abd11af8259b17a1327339bd218423ae6c26919a75a46db0","transactionIndex":"0x0"},{"address":"0x201eba5cc46d216ce6dc03f6a759e8e766e956ae","blockHash":"0x24777aee9e16b7d12b5954033cdee65f98e3f954c66b8ac721134f29936a9d81","blockNumber":"0xcff37b","data":"0x00000000000000000000000000000000000000000000000000000000000dbba0","logIndex":"0x1","removed":false,"topics":["0xddf252ad1be2c89b69c2b068fc378daa952ba7f163c4a11628f55a4df523b3ef","0x000000000000000000000000dd7d40975e16d3e5759119d61024b9ea193da664","0x0000000000000000000000006488f911c6cd86c289aa319c5a826dcf8f1ca065"],"transactionHash":"0xace7bc2fcb886226abd11af8259b17a1327339bd218423ae6c26919a75a46db0","transactionIndex":"0x0"},{"address":"0x201eba5cc46d216ce6dc03f6a759e8e766e956ae","blockHash":"0x24777aee9e16b7d12b5954033cdee65f98e3f954c66b8ac721134f29936a9d81","blockNumber":"0xcff37b","data":"0xffffffffffffffffffffffffffffffffffffffffffffffffffffffffc1c07bcf","logIndex":"0x2","removed":false,"topics":["0x8c5be1e5ebec7d5bd14f71427d1e84f3dd0314c0f7b2291e5b200ac8c7c3b925","0x000000000000000000000000dd7d40975e16d3e5759119d61024b9ea193da664","0x000000000000000000000000319b69888b0d11cec22caa5034e25fffbdc88421"],"transactionHash":"0xace7bc2fcb886226abd11af8259b17a1327339bd218423ae6c26919a75a46db0","transactionIndex":"0x0"},{"address":"0x6488f911c6cd86c289aa319c5a826dcf8f1ca065","blockHash":"0x24777aee9e16b7d12b5954033cdee65f98e3f954c66b8ac721134f29936a9d81","blockNumber":"0xcff37b","data":"0xfffffffffffffffffffffffffffffffffffffffffffffffffffffffffff2438f00000000000000000000000000000000000000000000000000000000000dbba00000000000000000000000000000000000000000fff5185655879ce08423cde70000000000000000000000000000000000000000000000000000aa91ae904e92fffffffffffffffffffffffffffffffffffffffffffffffffffffffffffffffc0000000000000000000000000000000000000000000000000000000000000000000000000000000000000000000000000000000000000000000000000000001d","logIndex":"0x3","removed":false,"topics":["0x19b47279256b2a23a1665c810c8d55a1758940ee09377d4f8d26497a3577dc83","0x000000000000000000000000319b69888b0d11cec22caa5034e25fffbdc88421","0x000000000000000000000000dd7d40975e16d3e5759119d61024b9ea193da664"],"transactionHash":"0xace7bc2fcb886226abd11af8259b17a1327339bd218423ae6c26919a75a46db0","transactionIndex":"0x0"}],"logsBloom":"0x0000000000000000000000000000000000004000000100880000000000000000000000000000000000000000000200000000000000200000000000000020000004800000004400000000000800000080000400c000002000000000000000000000000000000000000000000000000000000000100000800000000010000000000000000000000000000000000000000000000000000080000000000000000000020000000000000000000000000000000000000001000000000000000000000000000002000000000000000000000000002000000000000000000000000000000010000000000000000000000000000000000000000010000000000000000000","status":"0x1","transactionHash":"0xace7bc2fcb886226abd11af8259b17a1327339bd218423ae6c26919a75a46db0"}}}