{"block":{"difficulty":"0x2","extraData":"0xd98301090a846765746889676f312e31352e3133856c696e7578000000000000f31e08655decd815971be11f77ee4b1b24297c3b1618f8c7f41b484f888384a0364955541e1989d6048a448e299563c72ca2121417313a38b27bb12eb312115e01","gasLimit":"0x1c9c380","gasUsed":"0x1de0d","hash":"0x59dbd66b2e2fe9ea62ef0f2ceb3eca9f256dee11c86ad351d9f54745d18be10e","logsBloom":"0x40000000000000000000000000000000000000000001008800000000000000000008000000000000008000000002000000000000000000000000000000200000840100000040000000000008000000000000008000002004000000000000000000000001000000000000000100000000000000000000000000000010000000000000000000000000000000000000000000000000000000000008000000000000020000000000000000000000000000000000000001000020000100000000000000000002000000000000000000000000000000000000000000000000000000000010000000001000000000000000000000000000000000000000000000000000","miner":"0x0000000000000000000000000000000000000000","mixHash":"0x0000000000000000000000000000000000000000000000000000000000000000","nonce":"0x0000000000000000","number":"0xd00378","parentHash":"0x255509529d32cf89debc8be25adb6963f3fd807a34749129fdcf08d7b7ebef9f","receiptsRoot":"0x10e8d322f81d28e375f22b967ab0d7b79131a0264a28d837761d39135aa08d05","sha3Uncles":"0x1dcc4de8dec75d7aab85b567b6ccd41ad312451b948a7413f0a142fd40d49347","size":"0x3d8","stateRoot":"0xbad42f56c5498d78b16b1806f8c94b72b031798d7cd3e64790f47fddeeccfe86","timestamp":"0x65243e85","totalDifficulty":"0x1a006f1","transactions":[{"blockHash":"0x59dbd66b2e2fe9ea62ef0f2ceb3eca9f256dee11c86ad351d9f54745d18be10e","blockNumber":"0xd00378","from":"0x5129d18c90e1a9ac1b4d211ab71815b7a1213f5b","gas":"0x1f599","gasPrice":"0x2faf080","hash":"0x90ede0aa44b98ebb2464701885bbe34b0c1460b82df615a847d7ffc4d2c1e77b","index":"0xd00377","input":"0x414bf389000000000000000000000000201eba5cc46d216ce6dc03f6a759e8e766e956ae000000000000000000000000deaddeaddeaddeaddeaddeaddeaddeaddead111100000000000000000000000000000000000000000000000000000000000001f40000000000000000000000005129d18c90e1a9ac1b4d211ab71815b7a1213f5b0000000000000000000000000000000000000000000000000000000065243ea70000000000000000000000000000000000000000000000000000000000107ac000000000000000000000000000000000000000000000000000025c1ccf9df2b90000000000000000000000000000000000000000000000000000000000000000","l1BlockNumber":"0x11774e9","l1Timestamp":"0x65243e85","l1TxOrigin":null,"nonce":"0x78d","queueIndex":null,"queueOrigin":"sequencer","r":"0x75271cface60864f5b36a73c02622ad2f4706af18d802b6911775c2428828fb6","rawTransaction":"0xf9016e82078d8402faf0808301f59994319b69888b0d11cec22caa5034e25fffbdc8842180b90104414bf389000000000000000000000000201eba5cc46d216ce6dc03f6a759e8e766e956ae000000000000000000000000deaddeaddeaddeaddeaddeaddeaddeaddead111100000000000000000000000000000000000000000000000000000000000001f40000000000000000000000005129d18c90e1a9ac1b4d211ab71815b7a1213f5b0000000000000000000000000000000000000000000000000000000065243ea70000000000000000000000000000000000000000000000000000000000107ac000000000000000000000000000000000000000000000000000025c1ccf9df2b90000000000000000000000000000000000000000000000000000000000000000822734a075271cface60864f5b36a73c02622ad2f4706af18d802b6911775c2428828fb6a07b75ff4eeb1c6ecb75c229ce7653886699bca74604b13748ac63d8ec8501db7b","s":"0x7b75ff4eeb1c6ecb75c229ce7653886699bca74604b13748ac63d8ec8501db7b","to":"0x319b69888b0d11cec22caa5034e25fffbdc88421","transactionIndex":"0x0","v":"0x2734","value":"0x0"}],"transactionsRoot":"0x57d596c30836fcd0440e43110979b53c685e75962fec82392cc7a6668db613bc","uncles":[]},"receipts":{"0x90ede0aa44b98ebb2464701885bbe34b0c1460b82df615a847d7ffc4d2c1e77b":{"blockHash":"0x59dbd66b2e2fe9ea62ef0f2ceb3eca9f256dee11c86ad351d9f54745d18be10e","blockNumber":"0xd00378","from":"0x5129d18c90e1a9ac1b4d211ab71815b7a1213f5b","gas":"0x1f599","gasPrice":"0x2faf080","hash":"0x90ede0aa44b98ebb2464701885bbe34b0c1460b82df615a847d7ffc4d2c1e77b","index":"0xd00377","input":"0x414bf389000000000000000000000000201eba5cc46d216ce6dc03f6a759e8e766e956ae000000000000000000000000deaddeaddeaddeaddeaddeaddeaddeaddead111100000000000000000000000000000000000000000000000000000000000001f40000000000000000000000005129d18c90e1a9ac1b4d211ab71815b7a1213f5b0000000000000000000000000000000000000000000000000000000065243ea70000000000000000000000000000000000000000000000000000000000107ac000000000000000000000000000000000000000000000000000025c1ccf9df2b90000000000000000000000000000000000000000000000000000000000000000","l1BlockNumber":"0x11774e9","l1Timestamp":"0x65243e85","l1TxOrigin":null,"nonce":"0x78d","queueIndex":null,"queueOrigin":"sequencer","r":"0x75271cface60864f5b36a73c02622ad2f4706af18d802b6911775c2428828fb6","rawTransaction":"0xf9016e82078d8402faf0808301f59994319b69888b0d11cec22caa5034e25fffbdc8842180b90104414bf389000000000000000000000000201eba5cc46d216ce6dc03f6a759e8e766e956ae000000000000000000000000deaddeaddeaddeaddeaddeaddeaddeaddead111100000000000000000000000000000000000000000000000000000000000001f40000000000000000000000005129d18c90e1a9ac1b4d211ab71815b7a1213f5b0000000000000000000000000000000000000000000000000000000065243ea70000000000000000000000000000000000000000000000000000000000107ac000000000000000000000000000000000000000000000000000025c1ccf9df2b90000000000000000000000000000000000000000000000000000000000000000822734a075271cface60864f5b36a73c02622ad2f4706af18d802b6911775c2428828fb6a07b75ff4eeb1c6ecb75c229ce7653886699bca74604b13748ac63d8ec8501db7b","s":"0x7b75ff4eeb1c6ecb75c229ce7653886699bca74604b13748ac63d8ec8501db7b","to":"0x319b69888b0d11cec22caa5034e25fffbdc88421","transactionIndex":"0x0","v":"0x2734","value":"0x0","contractAddress":null,"cumulativeGasUsed":"0x1de0d","daFee":"0x0","daGasPrice":"0x0","daGasUsed":"0x12c","gasUsed":"0x1de0d","l1Fee":"0x19709d787180660","l1FeeScalar":"1","l1GasPrice":"0x38a987f04864","l1GasUsed":"0x72f","logs":[{"address":"0xdeaddeaddeaddeaddeaddeaddeaddeaddead1111","blockHash":"0x59dbd66b2e2fe9ea62ef0f2ceb3eca9f256dee11c86ad351d9f54745d18be10e","blockNumber":"0xd00378","data":"0x00000000000000000000000000000000000000000000000000026870fda66564","logIndex":"0x0","removed":false,"topics":["0xddf252ad1be2c89b69c2b068fc378daa952ba7f163c4a11628f55a4df523b3ef","0x000000000000000000000000628f7131cf43e88ebe3921ae78c4ba0c31872bd4","0x0000000000000000000000005129d18c90e1a9ac1b4d211ab71815b7a1213f5b"],"transactionHash":"0x90ede0aa44b98ebb2464701885bbe34b0c1460b82df615a847d7ffc4d2c1e77b","transactionIndex":"0x0"},{"address":"0x201eba5cc46d216ce6dc03f6a759e8e766e956ae","blockHash":"0x59dbd66b2e2fe9ea62ef0f2ceb3eca9f256dee11c86ad351d9f54745d18be10e","blockNumber":"0xd00378","data":"0x0000000000000000000000000000000000000000000000000000000000107ac0","logIndex":"0x1","removed":false,"topics":["0xddf252ad1be2c89b69c2b068fc378daa952ba7f163c4a11628f55a4df523b3ef","0x0000000000000000000000005129d18c90e1a9ac1b4d211ab71815b7a1213f5b","0x000000000000000000000000628f7131cf43e88ebe3921ae78c4ba0c31872bd4"],"transactionHash":"0x90ede0aa44b98ebb2464701885bbe34b0c1460b82df615a847d7ffc4d2c1e77b","transactionIndex":"0x0"},{"address":"0x201eba5cc46d216ce6dc03f6a759e8e766e956ae","blockHash":"0x59dbd66b2e2fe9ea62ef0f2ceb3eca9f256dee11c86ad351d9f54745d18be10e","blockNumber":"0xd00378","data":"0xffffffffffffffffffffffffffffffffffffffffffffffffffffffffcdb3deef","logIndex":"0x2","removed":false,"topics":["0x8c5be1e5ebec7d5bd14f71427d1e84f3dd0314c0f7b2291e5b200ac8c7c3b925","0x0000000000000000000000005129d18c90e1a9ac1b4d211ab71815b7a1213f5b","0x000000000000000000000000319b69888b0d11cec22caa5034e25fffbdc88421"],"transactionHash":"0x90ede0aa44b98ebb2464701885bbe34b0c1460b82df615a847d7ffc4d2c1e77b","transactionIndex":"0x0"},{"address":"0x628f7131cf43e88ebe3921ae78c4ba0c31872bd4","blockHash":"0x59dbd66b2e2fe9ea62ef0f2ceb3eca9f256dee11c86ad351d9f54745d18be10e","blockNumber":"0xd00378","data":"0x0000000000000000000000000000000000000000000000000000000000107ac0fffffffffffffffffffffffffffffffffffffffffffffffffffd978f02599a9c00000000000000000000000000000000000061dad5b988f236aa24fa8acb5d8a00000000000000000000000000000000000000000000000000002c65dde06c20000000000000000000000000000000000000000000000000000000000003175700000000000000000000000000000000000000000000000000000000000000b70000000000000000000000000000000000000000000000000000000000000000","logIndex":"0x3","removed":false,"topics":["0x19b47279256b2a23a1665c810c8d55a1758940ee09377d4f8d26497a3577dc83","0x000000000000000000000000319b69888b0d11cec22caa5034e25fffbdc88421","0x0000000000000000000000005129d18c90e1a9ac1b4d211ab71815b7a1213f5b"],"transactionHash":"0x90ede0aa44b98ebb2464701885bbe34b0c1460b82df615a847d7ffc4d2c1e77b","transactionIndex":"0x0"}],"logsBloom":"0x40000000000000000000000000000000000000000001008800000000000000000008000000000000008000000002000000000000000000000000000000200000840100000040000000000008000000000000008000002004000000000000000000000001000000000000000100000000000000000000000000000010000000000000000000000000000000000000000000000000000000000008000000000000020000000000000000000000000000000000000001000020000100000000000000000002000000000000000000000000000000000000000000000000000000000010000000001000000000000000000000000000000000000000000000000000","status":"0x1","transactionHash":"0x90ede0aa44b98ebb2464701885bbe34b0c1460b82df615a847d7ffc4d2c1e77b"}}}