{"block":{"difficulty":"0x2","extraData":"0xd98301090a846765746889676f312e31352e3133856c696e757800000000000086e89ca5309a802706a4c9a46be7eb0b6623451d81b2c137262ff52a64fed6264e184c55972364398c59e14a385068bb74efe8772e10b79ee8bc22dd8fbb84de00","gasLimit":"0x1c9c380","gasUsed":"0x1d299","hash":"0xf474d4efd3199d01f05a564d40764f5a27079fa2aa1cd1c95b7c8b56d939e01d","logsBloom":"0x00000000000000000000000000000000000000000001008800000000000000000004000000000000000000000002000000000000000000000000000000200000140000000040000000000008000000800004008000042000000200000000000000000000000000000000000000000080000000000000000000000010000000000000000000000000000000000000000000100000000000000000000000000040020000000000000000000000000200000000000001000000000000000000000000000002000000000000000001000000000000000000000000000010000000000010000000000000000000000000000000000000000000000000000000000000","miner":"0x0000000000000000000000000000000000000000","mixHash":"0x0000000000000000000000000000000000000000000000000000000000000000","nonce":"0x0000000000000000","number":"0xd00160","parentHash":"0xe7c72347e38158befcb52bdf6d4c6c2c28c6512d7d98481d8fd34f3cef4d5f30","receiptsRoot":"0xc7f43aa2782a28dae7a3147af7a3fd8286e65c3061e24ba9481e41ffb973bf47","sha3Uncles":"0x1dcc4de8dec75d7aab85b567b6ccd41ad312451b948a7413f0a142fd40d49347","size":"0x3d8","stateRoot":"0x963bb3c4cabb8c22bec32e89472a48c40ccd54e49e4826db0bd01a087ed11c5a","timestamp":"0x65243d72","totalDifficulty":"0x1a002c1","transactions":[{"blockHash":"0xf474d4efd3199d01f05a564d40764f5a27079fa2aa1cd1c95b7c8b56d939e01d","blockNumber":"0xd00160","from":"0x97d65bedb25dff58fea1282382304a4907fb9fe7","gas":"0x1e9ec","gasPrice":"0x2faf080","hash":"0x975d8daf774236fb03ae601d18579a07032f26bf77c6bf63a7963b69f4067c5c","index":"0xd0015f","input":"0x414bf38900000000000000000000000078c1b0c915c4faa5fffa6cabf0219da63d7f4cb8000000000000000000000000201eba5cc46d216ce6dc03f6a759e8e766e956ae00000000000000000000000000000000000000000000000000000000000001f400000000000000000000000097d65bedb25dff58fea1282382304a4907fb9fe70000000000000000000000000000000000000000000000000000000065243d9200000000000000000000000000000000000000000000000026948b455b96000000000000000000000000000000000000000000000000000000000000000f89730000000000000000000000000000000000000000000000000000000000000000","l1BlockNumber":"0x11774d2","l1Timestamp":"0x65243d72","l1TxOrigin":null,"nonce":"0xcd9","queueIndex":null,"queueOrigin":"sequencer","r":"0xde6a9fe0adb68a73f18ddca5bdd9b29bf5a8ee3741935084fda33f660cf050f8","rawTransaction":"0xf9016e820cd98402faf0808301e9ec94319b69888b0d11cec22caa5034e25fffbdc8842180b90104414bf38900000000000000000000000078c1b0c915c4faa5fffa6cabf0219da63d7f4cb8000000000000000000000000201eba5cc46d216ce6dc03f6a759e8e766e956ae00000000000000000000000000000000000000000000000000000000000001f400000000000000000000000097d65bedb25dff58fea1282382304a4907fb9fe70000000000000000000000000000000000000000000000000000000065243d9200000000000000000000000000000000000000000000000026948b455b96000000000000000000000000000000000000000000000000000000000000000f89730000000000000000000000000000000000000000000000000000000000000000822733a0de6a9fe0adb68a73f18ddca5bdd9b29bf5a8ee3741935084fda33f660cf050f8a0278d4510d9dc25c9dca6cddd6df02434a7d6acf995e596d5f881432923c33d7a","s":"0x278d4510d9dc25c9dca6cddd6df02434a7d6acf995e596d5f881432923c33d7a","to":"0x319b69888b0d11cec22caa5034e25fffbdc88421","transactionIndex":"0x0","v":"0x2733","value":"0x0"}],"transactionsRoot":"0x5190db0dd697d44b284498d0c829fc60f8962e732f04a775f0fbda9ac06bbb93","uncles":[]},"receipts":{"0x975d8daf774236fb03ae601d18579a07032f26bf77c6bf63a7963b69f4067c5c":{"blockHash":"0xf474d4efd3199d01f05a564d40764f5a27079fa2aa1cd1c95b7c8b56d939e01d","blockNumber":"0xd00160","from":"0x97d65bedb25dff58fea1282382304a4907fb9fe7","gas":"0x1e9ec","gasPrice":"0x2faf080","hash":"0x975d8daf774236fb03ae601d18579a07032f26bf77c6bf63a7963b69f4067c5c","index":"0xd0015f","input":"0x414bf38900000000000000000000000078c1b0c915c4faa5fffa6cabf0219da63d7f4cb8000000000000000000000000201eba5cc46d216ce6dc03f6a759e8e766e956ae00000000000000000000000000000000000000000000000000000000000001f400000000000000000000000097d65bedb25dff58fea1282382304a4907fb9fe70000000000000000000000000000000000000000000000000000000065243d9200000000000000000000000000000000000000000000000026948b455b96000000000000000000000000000000000000000000000000000000000000000f89730000000000000000000000000000000000000000000000000000000000000000","l1BlockNumber":"0x11774d2","l1Timestamp":"0x65243d72","l1TxOrigin":null,"nonce":"0xcd9","queueIndex":null,"queueOrigin":"sequencer","r":"0xde6a9fe0adb68a73f18ddca5bdd9b29bf5a8ee3741935084fda33f660cf050f8","rawTransaction":"0xf9016e820cd98402faf0808301e9ec94319b69888b0d11cec22caa5034e25fffbdc8842180b90104414bf38900000000000000000000000078c1b0c915c4faa5fffa6cabf0219da63d7f4cb8000000000000000000000000201eba5cc46d216ce6dc03f6a759e8e766e956ae00000000000000000000000000000000000000000000000000000000000001f400000000000000000000000097d65bedb25dff58fea1282382304a4907fb9fe70000000000000000000000000000000000000000000000000000000065243d9200000000000000000000000000000000000000000000000026948b455b96000000000000000000000000000000000000000000000000000000000000000f89730000000000000000000000000000000000000000000000000000000000000000822733a0de6a9fe0adb68a73f18ddca5bdd9b29bf5a8ee3741935084fda33f660cf050f8a0278d4510d9dc25c9dca6cddd6df02434a7d6acf995e596d5f881432923c33d7a","s":"0x278d4510d9dc25c9dca6cddd6df02434a7d6acf995e596d5f881432923c33d7a","to":"0x319b69888b0d11cec22caa5034e25fffbdc88421","transactionIndex":"0x0","v":"0x2733","value":"0x0","contractAddress":null,"cumulativeGasUsed":"0x1d299","daFee":"0x0","daGasPrice":"0x0","daGasUsed":"0x12c","gasUsed":"0x1d299","l1Fee":"0x1a09f6380cb9fe0","l1FeeScalar":"1","l1GasPrice":"0x39ff1464e55c","l1GasUsed":"0x72f","logs":[{"address":"0x201eba5cc46d216ce6dc03f6a759e8e766e956ae","blockHash":"0xf474d4efd3199d01f05a564d40764f5a27079fa2aa1cd1c95b7c8b56d939e01d","blockNumber":"0xd00160","data":"0x00000000000000000000000000000000000000000000000000000000000fda3a","logIndex":"0x0","removed":false,"topics":["0xddf252ad1be2c89b69c2b068fc378daa952ba7f163c4a11628f55a4df523b3ef","0x000000000000000000000000d08c50f7e69e9aeb2867deff4a8053d9a855e26a","0x00000000000000000000000097d65bedb25dff58fea1282382304a4907fb9fe7"],"transactionHash":"0x975d8daf774236fb03ae601d18579a07032f26bf77c6bf63a7963b69f4067c5c","transactionIndex":"0x0"},{"address":"0x78c1b0c915c4faa5fffa6cabf0219da63d7f4cb8","blockHash":"0xf474d4efd3199d01f05a564d40764f5a27079fa2aa1cd1c95b7c8b56d939e01d","blockNumber":"0xd00160","data":"0x00000000000000000000000000000000000000000000000026948b455b960000","logIndex":"0x1","removed":false,"topics":["0xddf252ad1be2c89b69c2b068fc378daa952ba7f163c4a11628f55a4df523b3ef","0x00000000000000000000000097d65bedb25dff58fea1282382304a4907fb9fe7","0x000000000000000000000000d08c50f7e69e9aeb2867deff4a8053d9a855e26a"],"transactionHash":"0x975d8daf774236fb03ae601d18579a07032f26bf77c6bf63a7963b69f4067c5c","transactionIndex":"0x0"},{"address":"0x78c1b0c915c4faa5fffa6cabf0219da63d7f4cb8","blockHash":"0xf474d4efd3199d01f05a564d40764f5a27079fa2aa1cd1c95b7c8b56d939e01d","blockNumber":"0xd00160","data":"0xffffffffffffffffffffffffffffffffffffffffffffffc7920e3922f0e1ffff","logIndex":"0x2","removed":false,"topics":["0x8c5be1e5ebec7d5bd14f71427d1e84f3dd0314c0f7b2291e5b200ac8c7c3b925","0x00000000000000000000000097d65bedb25dff58fea1282382304a4907fb9fe7","0x000000000000000000000000319b69888b0d11cec22caa5034e25fffbdc88421"],"transactionHash":"0x975d8daf774236fb03ae601d18579a07032f26bf77c6bf63a7963b69f4067c5c","transactionIndex":"0x0"},{"address":"0xd08c50f7e69e9aeb2867deff4a8053d9a855e26a","blockHash":"0xf474d4efd3199d01f05a564d40764f5a27079fa2aa1cd1c95b7c8b56d939e01d","blockNumber":"0xd00160","data":"0xfffffffffffffffffffffffffffffffffffffffffffffffffffffffffff025c600000000000000000000000000000000000000000000000026948b455b960000000000000000000000000000000000000018f47debe9c518b4908721bd7769ac000000000000000000000000000000000000000000000000006787d5d3ab8a8c0000000000000000000000000000000000000000000000000000000000045dd200000000000000000000000000000000000000000000000000000000000000000000000000000000000000000000000000000000000000000001add3c31ef000","logIndex":"0x3","removed":false,"topics":["0x19b47279256b2a23a1665c810c8d55a1758940ee09377d4f8d26497a3577dc83","0x000000000000000000000000319b69888b0d11cec22caa5034e25fffbdc88421","0x00000000000000000000000097d65bedb25dff58fea1282382304a4907fb9fe7"],"transactionHash":"0x975d8daf774236fb03ae601d18579a07032f26bf77c6bf63a7963b69f4067c5c","transactionIndex":"0x0"}],"logsBloom":"0x00000000000000000000000000000000000000000001008800000000000000000004000000000000000000000002000000000000000000000000000000200000140000000040000000000008000000800004008000042000000200000000000000000000000000000000000000000080000000000000000000000010000000000000000000000000000000000000000000100000000000000000000000000040020000000000000000000000000200000000000001000000000000000000000000000002000000000000000001000000000000000000000000000010000000000010000000000000000000000000000000000000000000000000000000000000","status":"0x1","transactionHash":"0x975d8daf774236fb03ae601d18579a07032f26bf77c6bf63a7963b69f4067c5c"}}}