{"block":{"difficulty":"0x2","extraData":"0xd98301090a846765746889676f312e31352e3133856c696e75780000000000009ecaac6f42493159e39be4991a5859a896956fcb8495e173978c7232f61e114220cc18e413c79a3c24cc1bf034cdbc6cf44b6dd69d7abc8e6e7eaf9438a92baa01","gasLimit":"0x1c9c380","gasUsed":"0x204dd","hash":"0x5e272a34ca9c0232d52e549512abcc5df0fbcfb1964a99420f1ca4afa2b80906","logsBloom":"0x0000000000000000000000000000000000004000000100880000000000000000100000000000200000000000000200000000000000200000000000000000000004800000004400000000000800000000000000c000002000000001000000000000000000000000000000000000000000000000100000800000000010000000000000000000000000000000000000000000000000000000000000000000000000000000000000000000000000000000000000000001000000000000000000000000000002000000000000000000000000002000000000000000000000000000000000000000000000000000000000000000000000000010000000000000000000","miner":"0x0000000000000000000000000000000000000000","mixHash":"0x0000000000000000000000000000000000000000000000000000000000000000","nonce":"0x0000000000000000","number":"0xd0013f","parentHash":"0x087e77ce733f478b690666c7f9eecbf9054eb287603d5096e47ef22315a44e07","receiptsRoot":"0x5008cc1d83a0b6dfad87972402dca1f6559a8744692123270ac4f40aac0d7f56","sha3Uncles":"0x1dcc4de8dec75d7aab85b567b6ccd41ad312451b948a7413f0a142fd40d49347","size":"0x3d8","stateRoot":"0x181328b69a899b2eb3d2644213d6a8aa792da4d775368f6ec866844c684c7ec3","timestamp":"0x65243d63","totalDifficulty":"0x1a0027f","transactions":[{"blockHash":"0x5e272a34ca9c0232d52e549512abcc5df0fbcfb1964a99420f1ca4afa2b80906","blockNumber":"0xd0013f","from":"0xfd45341e1dd1136b3def77bd1261ccd8a11898f8","gas":"0x21d08","gasPrice":"0x2faf080","hash":"0xa3fa662d81ef84484e1792620f2918957bf71f89cd9810cad175cc846d9bb285","index":"0xd0013e","input":"0x414bf38900000000000000000000000009bc4e0d864854c6afb6eb9a9cdf58ac190d0df9000000000000000000000000201eba5cc46d216ce6dc03f6a759e8e766e956ae0000000000000000000000000000000000000000000000000000000000000064000000000000000000000000fd45341e1dd1136b3def77bd1261ccd8a11898f80000000000000000000000000000000000000000000000000000000065243d81000000000000000000000000000000000000000000000000000000000010c8e0000000000000000000000000000000000000000000000000000000000010711e0000000000000000000000000000000000000000000000000000000000000000","l1BlockNumber":"0x11774d1","l1Timestamp":"0x65243d63","l1TxOrigin":null,"nonce":"0x1124","queueIndex":null,"queueOrigin":"sequencer","r":"0x8429b14a9525fa4ccf2f201e53889f786a15f5b83e680946bd3118f73b5493e6","rawTransaction":"0xf9016e8211248402faf08083021d0894319b69888b0d11cec22caa5034e25fffbdc8842180b90104414bf38900000000000000000000000009bc4e0d864854c6afb6eb9a9cdf58ac190d0df9000000000000000000000000201eba5cc46d216ce6dc03f6a759e8e766e956ae0000000000000000000000000000000000000000000000000000000000000064000000000000000000000000fd45341e1dd1136b3def77bd1261ccd8a11898f80000000000000000000000000000000000000000000000000000000065243d81000000000000000000000000000000000000000000000000000000000010c8e0000000000000000000000000000000000000000000000000000000000010711e0000000000000000000000000000000000000000000000000000000000000000822734a08429b14a9525fa4ccf2f201e53889f786a15f5b83e680946bd3118f73b5493e6a0020b45110afab19a77fa4bef3d7702b02ce19b70b6eac3fef5446da05a27a70c","s":"0x20b45110afab19a77fa4bef3d7702b02ce19b70b6eac3fef5446da05a27a70c","to":"0x319b69888b0d11cec22caa5034e25fffbdc88421","transactionIndex":"0x0","v":"0x2734","value":"0x0"}],"transactionsRoot":"0x27c70758abb6e8216ef46706956e499dfc2bb41ebe716069a2767ae58238a230","uncles":[]},"receipts":{"0xa3fa662d81ef84484e1792620f2918957bf71f89cd9810cad175cc846d9bb285":{"blockHash":"0x5e272a34ca9c0232d52e549512abcc5df0fbcfb1964a99420f1ca4afa2b80906","blockNumber":"0xd0013f","from":"0xfd45341e1dd1136b3def77bd1261ccd8a11898f8","gas":"0x21d08","gasPrice":"0x2faf080","hash":"0xa3fa662d81ef84484e1792620f2918957bf71f89cd9810cad175cc846d9bb285","index":"0xd0013e","input":"0x414bf38900000000000000000000000009bc4e0d864854c6afb6eb9a9cdf58ac190d0df9000000000000000000000000201eba5cc46d216ce6dc03f6a759e8e766e956ae0000000000000000000000000000000000000000000000000000000000000064000000000000000000000000fd45341e1dd1136b3def77bd1261ccd8a11898f80000000000000000000000000000000000000000000000000000000065243d81000000000000000000000000000000000000000000000000000000000010c8e0000000000000000000000000000000000000000000000000000000000010711e0000000000000000000000000000000000000000000000000000000000000000","l1BlockNumber":"0x11774d1","l1Timestamp":"0x65243d63","l1TxOrigin":null,"nonce":"0x1124","queueIndex":null,"queueOrigin":"sequencer","r":"0x8429b14a9525fa4ccf2f201e53889f786a15f5b83e680946bd3118f73b5493e6","rawTransaction":"0xf9016e8211248402faf08083021d0894319b69888b0d11cec22caa5034e25fffbdc8842180b90104414bf38900000000000000000000000009bc4e0d864854c6afb6eb9a9cdf58ac190d0df9000000000000000000000000201eba5cc46d216ce6dc03f6a759e8e766e956ae0000000000000000000000000000000000000000000000000000000000000064000000000000000000000000fd45341e1dd1136b3def77bd1261ccd8a11898f80000000000000000000000000000000000000000000000000000000065243d81000000000000000000000000000000000000000000000000000000000010c8e0000000000000000000000000000000000000000000000000000000000010711e0000000000000000000000000000000000000000000000000000000000000000822734a08429b14a9525fa4ccf2f201e53889f786a15f5b83e680946bd3118f73b5493e6a0020b45110afab19a77fa4bef3d7702b02ce19b70b6eac3fef5446da05a27a70c","s":"0x20b45110afab19a77fa4bef3d7702b02ce19b70b6eac3fef5446da05a27a70c","to":"0x319b69888b0d11cec22caa5034e25fffbdc88421","transactionIndex":"0x0","v":"0x2734","value":"0x0","contractAddress":null,"cumulativeGasUsed":"0x204dd","daFee":"0x0","daGasPrice":"0x0","daGasUsed":"0x12c","gasUsed":"0x204dd","l1Fee":"0x1a09f6380cb9fe0","l1FeeScalar":"1","l1GasPrice":"0x39ff1464e55c","l1GasUsed":"0x72f","logs":[{"address":"0x201eba5cc46d216ce6dc03f6a759e8e766e956ae","blockHash":"0x5e272a34ca9c0232d52e549512abcc5df0fbcfb1964a99420f1ca4afa2b80906","blockNumber":"0xd0013f","data":"0x000000000000000000000000000000000000000000000000000000000010c705","logIndex":"0x0","removed":false,"topics":["0xddf252ad1be2c89b69c2b068fc378daa952ba7f163c4a11628f55a4df523b3ef","0x0000000000000000000000006488f911c6cd86c289aa319c5a826dcf8f1ca065","0x000000000000000000000000fd45341e1dd1136b3def77bd1261ccd8a11898f8"],"transactionHash":"0xa3fa662d81ef84484e1792620f2918957bf71f89cd9810cad175cc846d9bb285","transactionIndex":"0x0"},{"address":"0x09bc4e0d864854c6afb6eb9a9cdf58ac190d0df9","blockHash":"0x5e272a34ca9c0232d52e549512abcc5df0fbcfb1964a99420f1ca4afa2b80906","blockNumber":"0xd0013f","data":"0x000000000000000000000000000000000000000000000000000000000010c8e0","logIndex":"0x1","removed":false,"topics":["0xddf252ad1be2c89b69c2b068fc378daa952ba7f163c4a11628f55a4df523b3ef","0x000000000000000000000000fd45341e1dd1136b3def77bd1261ccd8a11898f8","0x0000000000000000000000006488f911c6cd86c289aa319c5a826dcf8f1ca065"],"transactionHash":"0xa3fa662d81ef84484e1792620f2918957bf71f89cd9810cad175cc846d9bb285","transactionIndex":"0x0"},{"address":"0x6488f911c6cd86c289aa319c5a826dcf8f1ca065","blockHash":"0x5e272a34ca9c0232d52e549512abcc5df0fbcfb1964a99420f1ca4afa2b80906","blockNumber":"0xd0013f","data":"0x000000000000000000000000000000000000000000000000000000000010c8e0ffffffffffffffffffffffffffffffffffffffffffffffffffffffffffef38fb0000000000000000000000000000000000000000fff5209c90998080369f17930000000000000000000000000000000000000000000000000000aa91ae904e92fffffffffffffffffffffffffffffffffffffffffffffffffffffffffffffffc00000000000000000000000000000000000000000000000000000000000000240000000000000000000000000000000000000000000000000000000000000000","logIndex":"0x2","removed":false,"topics":["0x19b47279256b2a23a1665c810c8d55a1758940ee09377d4f8d26497a3577dc83","0x000000000000000000000000319b69888b0d11cec22caa5034e25fffbdc88421","0x000000000000000000000000fd45341e1dd1136b3def77bd1261ccd8a11898f8"],"transactionHash":"0xa3fa662d81ef84484e1792620f2918957bf71f89cd9810cad175cc846d9bb285","transactionIndex":"0x0"}],"logsBloom":"0x0000000000000000000000000000000000004000000100880000000000000000100000000000200000000000000200000000000000200000000000000000000004800000004400000000000800000000000000c000002000000001000000000000000000000000000000000000000000000000100000800000000010000000000000000000000000000000000000000000000000000000000000000000000000000000000000000000000000000000000000000001000000000000000000000000000002000000000000000000000000002000000000000000000000000000000000000000000000000000000000000000000000000010000000000000000000","status":"0x1","transactionHash":"0xa3fa662d81ef84484e1792620f2918957bf71f89cd9810cad175cc846d9bb285"}}}