{"block":{"difficulty":"0x2","extraData":"0xd98301090a846765746889676f312e31352e3133856c696e75780000000000008dbcb79c3783ff39628056a506ef182f3bb2b2e759155ab288af2067a2733b2563688865586b139dd255ab54b5d350dc39de30955544facaa614dbb0ce4c9d7b00","gasLimit":"0x1c9c380","gasUsed":"0x204dd","hash":"0xecf93f0d92875f428a50e5d251730de604686338da9e53c6751f34bed242d080","logsBloom":"0x0000000000000000000000000000000000004000000100880000000000000000000000000000000000000000000200000000000000200000000000000000000004800000004400000000000800800000000000c000002000000000000000000000000000000000800000000000000000000000100000800000000010000000000000000000000000000000000000000000000000000000000000000000000000000000000000000000000000000000000000000001000000000000000000100000000002000000000000000000000000002000000000000000000000000000000000000000000000000000000000000000000000000010000000000000000000","miner":"0x0000000000000000000000000000000000000000","mixHash":"0x0000000000000000000000000000000000000000000000000000000000000000","nonce":"0x0000000000000000","number":"0xd0035d","parentHash":"0xe3127b657b706f57a9aa75d424e43657fd101d9ff06a4d345de14d1c0dd46ced","receiptsRoot":"0x38e9d30601397c763176a1e726ff7f0c587443aeb6b44d863da8edfdc5d552e7","sha3Uncles":"0x1dcc4de8dec75d7aab85b567b6ccd41ad312451b948a7413f0a142fd40d49347","size":"0x3d8","stateRoot":"0x24da91460f39af782ef9e9534592f3dccf1e2a559f23140d60cccdc1712e3756","timestamp":"0x65243e7a","totalDifficulty":"0x1a006bb","transactions":[{"blockHash":"0xecf93f0d92875f428a50e5d251730de604686338da9e53c6751f34bed242d080","blockNumber":"0xd0035d","from":"0x4aac07ff271bcf0105c45569e16f7d2738fe1522","gas":"0x21d08","gasPrice":"0x2faf080","hash":"0x91f86f8a0a259b175d338b6f514e102da853c83b05ad4fcabfb2a615734de312","index":"0xd0035c","input":"0x414bf38900000000000000000000000009bc4e0d864854c6afb6eb9a9cdf58ac190d0df9000000000000000000000000201eba5cc46d216ce6dc03f6a759e8e766e956ae00000000000000000000000000000000000000000000000000000000000000640000000000000000000000004aac07ff271bcf0105c45569e16f7d2738fe15220000000000000000000000000000000000000000000000000000000065243e9b000000000000000000000000000000000000000000000000000000000012769000000000000000000000000000000000000000000000000000000000001216070000000000000000000000000000000000000000000000000000000000000000","l1BlockNumber":"0x11774e8","l1Timestamp":"0x65243e7a","l1TxOrigin":null,"nonce":"0x1118","queueIndex":null,"queueOrigin":"sequencer","r":"0x6288b85b6bc726e1dbae8e768662215a0111f3f056b68e94694269b2a6adf707","rawTransaction":"0xf9016e8211188402faf08083021d0894319b69888b0d11cec22caa5034e25fffbdc8842180b90104414bf38900000000000000000000000009bc4e0d864854c6afb6eb9a9cdf58ac190d0df9000000000000000000000000201eba5cc46d216ce6dc03f6a759e8e766e956ae00000000000000000000000000000000000000000000000000000000000000640000000000000000000000004aac07ff271bcf0105c45569e16f7d2738fe15220000000000000000000000000000000000000000000000000000000065243e9b000000000000000000000000000000000000000000000000000000000012769000000000000000000000000000000000000000000000000000000000001216070000000000000000000000000000000000000000000000000000000000000000822733a06288b85b6bc726e1dbae8e768662215a0111f3f056b68e94694269b2a6adf707a05de00e53ceb64d6ab4f779fbb05f9ce83f398c9913811e25d700f23b50e78b39","s":"0x5de00e53ceb64d6ab4f779fbb05f9ce83f398c9913811e25d700f23b50e78b39","to":"0x319b69888b0d11cec22caa5034e25fffbdc88421","transactionIndex":"0x0","v":"0x2733","value":"0x0"}],"transactionsRoot":"0x69383dc7164680fcf5c59c5f5e1bbd30e352430117d7732105eb4f054f5759c8","uncles":[]},"receipts":{"0x91f86f8a0a259b175d338b6f514e102da853c83b05ad4fcabfb2a615734de312":{"blockHash":"0xecf93f0d92875f428a50e5d251730de604686338da9e53c6751f34bed242d080","blockNumber":"0xd0035d","from":"0x4aac07ff271bcf0105c45569e16f7d2738fe1522","gas":"0x21d08","gasPrice":"0x2faf080","hash":"0x91f86f8a0a259b175d338b6f514e102da853c83b05ad4fcabfb2a615734de312","index":"0xd0035c","input":"0x414bf38900000000000000000000000009bc4e0d864854c6afb6eb9a9cdf58ac190d0df9000000000000000000000000201eba5cc46d216ce6dc03f6a759e8e766e956ae00000000000000000000000000000000000000000000000000000000000000640000000000000000000000004aac07ff271bcf0105c45569e16f7d2738fe15220000000000000000000000000000000000000000000000000000000065243e9b000000000000000000000000000000000000000000000000000000000012769000000000000000000000000000000000000000000000000000000000001216070000000000000000000000000000000000000000000000000000000000000000","l1BlockNumber":"0x11774e8","l1Timestamp":"0x65243e7a","l1TxOrigin":null,"nonce":"0x1118","queueIndex":null,"queueOrigin":"sequencer","r":"0x6288b85b6bc726e1dbae8e768662215a0111f3f056b68e94694269b2a6adf707","rawTransaction":"0xf9016e8211188402faf08083021d0894319b69888b0d11cec22caa5034e25fffbdc8842180b90104414bf38900000000000000000000000009bc4e0d864854c6afb6eb9a9cdf58ac190d0df9000000000000000000000000201eba5cc46d216ce6dc03f6a759e8e766e956ae00000000000000000000000000000000000000000000000000000000000000640000000000000000000000004aac07ff271bcf0105c45569e16f7d2738fe15220000000000000000000000000000000000000000000000000000000065243e9b000000000000000000000000000000000000000000000000000000000012769000000000000000000000000000000000000000000000000000000000001216070000000000000000000000000000000000000000000000000000000000000000822733a06288b85b6bc726e1dbae8e768662215a0111f3f056b68e94694269b2a6adf707a05de00e53ceb64d6ab4f779fbb05f9ce83f398c9913811e25d700f23b50e78b39","s":"0x5de00e53ceb64d6ab4f779fbb05f9ce83f398c9913811e25d700f23b50e78b39","to":"0x319b69888b0d11cec22caa5034e25fffbdc88421","transactionIndex":"0x0","v":"0x2733","value":"0x0","contractAddress":null,"cumulativeGasUsed":"0x204dd","daFee":"0x0","daGasPrice":"0x0","daGasUsed":"0x12c","gasUsed":"0x204dd","l1Fee":"0x19709d787180660","l1FeeScalar":"1","l1GasPrice":"0x38a987f04864","l1GasUsed":"0x72f","logs":[{"address":"0x201eba5cc46d216ce6dc03f6a759e8e766e956ae","blockHash":"0xecf93f0d92875f428a50e5d251730de604686338da9e53c6751f34bed242d080","blockNumber":"0xd0035d","data":"0x0000000000000000000000000000000000000000000000000000000000127485","logIndex":"0x0","removed":false,"topics":["0xddf252ad1be2c89b69c2b068fc378daa952ba7f163c4a11628f55a4df523b3ef","0x0000000000000000000000006488f911c6cd86c289aa319c5a826dcf8f1ca065","0x0000000000000000000000004aac07ff271bcf0105c45569e16f7d2738fe1522"],"transactionHash":"0x91f86f8a0a259b175d338b6f514e102da853c83b05ad4fcabfb2a615734de312","transactionIndex":"0x0"},{"address":"0x09bc4e0d864854c6afb6eb9a9cdf58ac190d0df9","blockHash":"0xecf93f0d92875f428a50e5d251730de604686338da9e53c6751f34bed242d080","blockNumber":"0xd0035d","data":"0x0000000000000000000000000000000000000000000000000000000000127690","logIndex":"0x1","removed":false,"topics":["0xddf252ad1be2c89b69c2b068fc378daa952ba7f163c4a11628f55a4df523b3ef","0x0000000000000000000000004aac07ff271bcf0105c45569e16f7d2738fe1522","0x0000000000000000000000006488f911c6cd86c289aa319c5a826dcf8f1ca065"],"transactionHash":"0x91f86f8a0a259b175d338b6f514e102da853c83b05ad4fcabfb2a615734de312","transactionIndex":"0x0"},{"address":"0x6488f911c6cd86c289aa319c5a826dcf8f1ca065","blockHash":"0xecf93f0d92875f428a50e5d251730de604686338da9e53c6751f34bed242d080","blockNumber":"0xd0035d","data":"0x0000000000000000000000000000000000000000000000000000000000127690ffffffffffffffffffffffffffffffffffffffffffffffffffffffffffed8b7b0000000000000000000000000000000000000000fff52160e0bf3ebe6f194cc70000000000000000000000000000000000000000000000000000aa91ae904e92fffffffffffffffffffffffffffffffffffffffffffffffffffffffffffffffc00000000000000000000000000000000000000000000000000000000000000270000000000000000000000000000000000000000000000000000000000000000","logIndex":"0x2","removed":false,"topics":["0x19b47279256b2a23a1665c810c8d55a1758940ee09377d4f8d26497a3577dc83","0x000000000000000000000000319b69888b0d11cec22caa5034e25fffbdc88421","0x0000000000000000000000004aac07ff271bcf0105c45569e16f7d2738fe1522"],"transactionHash":"0x91f86f8a0a259b175d338b6f514e102da853c83b05ad4fcabfb2a615734de312","transactionIndex":"0x0"}],"logsBloom":"0x0000000000000000000000000000000000004000000100880000000000000000000000000000000000000000000200000000000000200000000000000000000004800000004400000000000800800000000000c000002000000000000000000000000000000000800000000000000000000000100000800000000010000000000000000000000000000000000000000000000000000000000000000000000000000000000000000000000000000000000000000001000000000000000000100000000002000000000000000000000000002000000000000000000000000000000000000000000000000000000000000000000000000010000000000000000000","status":"0x1","transactionHash":"0x91f86f8a0a259b175d338b6f514e102da853c83b05ad4fcabfb2a615734de312"}}}