{"block":{"difficulty":"0x2","extraData":"0xd98301090a846765746889676f312e31352e3133856c696e7578000000000000475646f1c7901483d10bdfba68f6f6d9a3103c2055b9d5c2f3d3179ba5aebf881701cf14ffc04d09d80573a0b24e17e4c29c15b416c4efec1030658d2443c66900","gasLimit":"0x1c9c380","gasUsed":"0x21730","hash":"0x1af0d79627d8c9ba7b0ad00f8e9861f62367cf6ab147559499fc148bea0870cd","logsBloom":"0x00000000000000000000000000000000000000000000008800000000000000000000044000000000000000000002000000000000000000000000000000200000140004000040000000000008000000000000000000040000000000000000000000000000000000000000000000000000010000000000100000000010000000000000000000000000000000000000000000100000400000000000000100000000020000000000000000000001000000000000000021000000000000000000000000000002000000000000000000000000000000000000000000001020000000000010000000004000000000000000000000000000000000000000000000000000","miner":"0x0000000000000000000000000000000000000000","mixHash":"0x0000000000000000000000000000000000000000000000000000000000000000","nonce":"0x0000000000000000","number":"0xd0032f","parentHash":"0x17df9142968b59a314726de079d01b7ac48d2ac44ac481d6bb25de691f03a9e8","receiptsRoot":"0x03a6e792ad420dce25bec2ae77f9b35bc35ce291c8399dcebed5e7ea3ee56f0c","sha3Uncles":"0x1dcc4de8dec75d7aab85b567b6ccd41ad312451b948a7413f0a142fd40d49347","size":"0x3d8","stateRoot":"0xac3e305fccd69866680a939d23366455d4b06ddf632c5e2dbcc91d278c4a7071","timestamp":"0x65243e66","totalDifficulty":"0x1a0065f","transactions":[{"blockHash":"0x1af0d79627d8c9ba7b0ad00f8e9861f62367cf6ab147559499fc148bea0870cd","blockNumber":"0xd0032f","from":"0x7764ade22e72e579be53168bbec7af594c8bc12b","gas":"0x242af","gasPrice":"0x2faf080","hash":"0x2db1b3a492f5875bc5fdbb35b1c6f1eeee7cfd0ab6d1a9c40a60397ab0eff585","index":"0xd0032e","input":"0x414bf38900000000000000000000000078c1b0c915c4faa5fffa6cabf0219da63d7f4cb800000000000000000000000097174506aafcc846a40832719bd8899a588bd05c00000000000000000000000000000000000000000000000000000000000027100000000000000000000000007764ade22e72e579be53168bbec7af594c8bc12b0000000000000000000000000000000000000000000000000000000065243e850000000000000000000000000000000000000000000000022dc6aa93a6b082da0000000000000000000000000000000000000000000000efddc1949fa05f5ff90000000000000000000000000000000000000000000000000000000000000000","l1BlockNumber":"0x11774e6","l1Timestamp":"0x65243e66","l1TxOrigin":null,"nonce":"0x439","queueIndex":null,"queueOrigin":"sequencer","r":"0x9e2f7b84fdeb5ee0e82ebacacb88a9905be9fc4b3bd1c35e2784d58ecea59c0d","rawTransaction":"0xf9016e8204398402faf080830242af94319b69888b0d11cec22caa5034e25fffbdc8842180b90104414bf38900000000000000000000000078c1b0c915c4faa5fffa6cabf0219da63d7f4cb800000000000000000000000097174506aafcc846a40832719bd8899a588bd05c00000000000000000000000000000000000000000000000000000000000027100000000000000000000000007764ade22e72e579be53168bbec7af594c8bc12b0000000000000000000000000000000000000000000000000000000065243e850000000000000000000000000000000000000000000000022dc6aa93a6b082da0000000000000000000000000000000000000000000000efddc1949fa05f5ff90000000000000000000000000000000000000000000000000000000000000000822733a09e2f7b84fdeb5ee0e82ebacacb88a9905be9fc4b3bd1c35e2784d58ecea59c0da04a59fd5fcdf7b4cb1a8ff1ca9b037c407bc797d6e6245f2f605fb0a2356cf099","s":"0x4a59fd5fcdf7b4cb1a8ff1ca9b037c407bc797d6e6245f2f605fb0a2356cf099","to":"0x319b69888b0d11cec22caa5034e25fffbdc88421","transactionIndex":"0x0","v":"0x2733","value":"0x0"}],"transactionsRoot":"0x03e5cb2fbe6101a405bccd25875fbfe6c23267ec4bb1b403ef6faebda1d607a4","uncles":[]},"receipts":{"0x2db1b3a492f5875bc5fdbb35b1c6f1eeee7cfd0ab6d1a9c40a60397ab0eff585":{"blockHash":"0x1af0d79627d8c9ba7b0ad00f8e9861f62367cf6ab147559499fc148bea0870cd","blockNumber":"0xd0032f","from":"0x7764ade22e72e579be53168bbec7af594c8bc12b","gas":"0x242af","gasPrice":"0x2faf080","hash":"0x2db1b3a492f5875bc5fdbb35b1c6f1eeee7cfd0ab6d1a9c40a60397ab0eff585","index":"0xd0032e","input":"0x414bf38900000000000000000000000078c1b0c915c4faa5fffa6cabf0219da63d7f4cb800000000000000000000000097174506aafcc846a40832719bd8899a588bd05c00000000000000000000000000000000000000000000000000000000000027100000000000000000000000007764ade22e72e579be53168bbec7af594c8bc12b0000000000000000000000000000000000000000000000000000000065243e850000000000000000000000000000000000000000000000022dc6aa93a6b082da0000000000000000000000000000000000000000000000efddc1949fa05f5ff90000000000000000000000000000000000000000000000000000000000000000","l1BlockNumber":"0x11774e6","l1Timestamp":"0x65243e66","l1TxOrigin":null,"nonce":"0x439","queueIndex":null,"queueOrigin":"sequencer","r":"0x9e2f7b84fdeb5ee0e82ebacacb88a9905be9fc4b3bd1c35e2784d58ecea59c0d","rawTransaction":"0xf9016e8204398402faf080830242af94319b69888b0d11cec22caa5034e25fffbdc8842180b90104414bf38900000000000000000000000078c1b0c915c4faa5fffa6cabf0219da63d7f4cb800000000000000000000000097174506aafcc846a40832719bd8899a588bd05c00000000000000000000000000000000000000000000000000000000000027100000000000000000000000007764ade22e72e579be53168bbec7af594c8bc12b0000000000000000000000000000000000000000000000000000000065243e850000000000000000000000000000000000000000000000022dc6aa93a6b082da0000000000000000000000000000000000000000000000efddc1949fa05f5ff90000000000000000000000000000000000000000000000000000000000000000822733a09e2f7b84fdeb5ee0e82ebacacb88a9905be9fc4b3bd1c35e2784d58ecea59c0da04a59fd5fcdf7b4cb1a8ff1ca9b037c407bc797d6e6245f2f605fb0a2356cf099","s":"0x4a59fd5fcdf7b4cb1a8ff1ca9b037c407bc797d6e6245f2f605fb0a2356cf099","to":"0x319b69888b0d11cec22caa5034e25fffbdc88421","transactionIndex":"0x0","v":"0x2733","value":"0x0","contractAddress":null,"cumulativeGasUsed":"0x21730","daFee":"0x0","daGasPrice":"0x0","daGasUsed":"0x12c","gasUsed":"0x21730","l1Fee":"0x19709d787180660","l1FeeScalar":"1","l1GasPrice":"0x38a987f04864","l1GasUsed":"0x72f","logs":[{"address":"0x97174506aafcc846a40832719bd8899a588bd05c","blockHash":"0x1af0d79627d8c9ba7b0ad00f8e9861f62367cf6ab147559499fc148bea0870cd","blockNumber":"0xd0032f","data":"0x0000000000000000000000000000000000000000000000fc7da35913d13bf93c","logIndex":"0x0","removed":false,"topics":["0xddf252ad1be2c89b69c2b068fc378daa952ba7f163c4a11628f55a4df523b3ef","0x0000000000000000000000003a873fe63bedad2e9f9b9b63bf8bedb5f1789167","0x0000000000000000000000007764ade22e72e579be53168bbec7af594c8bc12b"],"transactionHash":"0x2db1b3a492f5875bc5fdbb35b1c6f1eeee7cfd0ab6d1a9c40a60397ab0eff585","transactionIndex":"0x0"},{"address":"0x78c1b0c915c4faa5fffa6cabf0219da63d7f4cb8","blockHash":"0x1af0d79627d8c9ba7b0ad00f8e9861f62367cf6ab147559499fc148bea0870cd","blockNumber":"0xd0032f","data":"0x0000000000000000000000000000000000000000000000022dc6aa93a6b082da","logIndex":"0x1","removed":false,"topics":["0xddf252ad1be2c89b69c2b068fc378daa952ba7f163c4a11628f55a4df523b3ef","0x0000000000000000000000007764ade22e72e579be53168bbec7af594c8bc12b","0x0000000000000000000000003a873fe63bedad2e9f9b9b63bf8bedb5f1789167"],"transactionHash":"0x2db1b3a492f5875bc5fdbb35b1c6f1eeee7cfd0ab6d1a9c40a60397ab0eff585","transactionIndex":"0x0"},{"address":"0x78c1b0c915c4faa5fffa6cabf0219da63d7f4cb8","blockHash":"0x1af0d79627d8c9ba7b0ad00f8e9861f62367cf6ab147559499fc148bea0870cd","blockNumber":"0xd0032f","data":"0xfffffffffffffffffffffffffffffffffffffffffffffe1302db534bd89ad1ff","logIndex":"0x2","removed":false,"topics":["0x8c5be1e5ebec7d5bd14f71427d1e84f3dd0314c0f7b2291e5b200ac8c7c3b925","0x0000000000000000000000007764ade22e72e579be53168bbec7af594c8bc12b","0x000000000000000000000000319b69888b0d11cec22caa5034e25fffbdc88421"],"transactionHash":"0x2db1b3a492f5875bc5fdbb35b1c6f1eeee7cfd0ab6d1a9c40a60397ab0eff585","transactionIndex":"0x0"},{"address":"0x3a873fe63bedad2e9f9b9b63bf8bedb5f1789167","blockHash":"0x1af0d79627d8c9ba7b0ad00f8e9861f62367cf6ab147559499fc148bea0870cd","blockNumber":"0xd0032f","data":"0x0000000000000000000000000000000000000000000000022dc6aa93a6b082daffffffffffffffffffffffffffffffffffffffffffffff03825ca6ec2ec406c4000000000000000000000000000000000000000ad197cadfe05e1fd6eacd9e1900000000000000000000000000000000000000000004050e8f20b2f8a1c79e70000000000000000000000000000000000000000000000000000000000000ba0b00000000000000000000000000000000000000000000000001c8ee1d24fce0e10000000000000000000000000000000000000000000000000000000000000000","logIndex":"0x3","removed":false,"topics":["0x19b47279256b2a23a1665c810c8d55a1758940ee09377d4f8d26497a3577dc83","0x000000000000000000000000319b69888b0d11cec22caa5034e25fffbdc88421","0x0000000000000000000000007764ade22e72e579be53168bbec7af594c8bc12b"],"transactionHash":"0x2db1b3a492f5875bc5fdbb35b1c6f1eeee7cfd0ab6d1a9c40a60397ab0eff585","transactionIndex":"0x0"}],"logsBloom":"0x00000000000000000000000000000000000000000000008800000000000000000000044000000000000000000002000000000000000000000000000000200000140004000040000000000008000000000000000000040000000000000000000000000000000000000000000000000000010000000000100000000010000000000000000000000000000000000000000000100000400000000000000100000000020000000000000000000001000000000000000021000000000000000000000000000002000000000000000000000000000000000000000000001020000000000010000000004000000000000000000000000000000000000000000000000000","status":"0x1","transactionHash":"0x2db1b3a492f5875bc5fdbb35b1c6f1eeee7cfd0ab6d1a9c40a60397ab0eff585"}}}