{"block":{"difficulty":"0x2","extraData":"0xd98301090a846765746889676f312e31352e3133856c696e75780000000000008b343bd268deee8ab246e68eeb7aa50d44e7d25962e4be464d3d4c59ad513da67e158dd8a39fc075bfd3a1cf1ceca7e6215f0a23f6f4b56df8ab319c771888a801","gasLimit":"0x1c9c380","gasUsed":"0x1d2c1","hash":"0x519c42f5a9c348b32b4cbd2609049df6e77416f0fe5d4cb0d2406ecf5b0cff04","logsBloom":"0x40000000000000000000000000000000000000000041008800000000000000000000000000000000000000000002000000000000000000000000000000200000840000000040000000000008000000000000008000002004000000000000000000000001000000000000000100000000000000000000000000010010000000000000000000000000000000000000000000000000000000000008000000000000020000000000000000000000000000000000000001000021000100000000000000000002000000000000000000000000000000000000000000000000000000000010000000001000000000000000000000000000000000000000000000000000","miner":"0x0000000000000000000000000000000000000000","mixHash":"0x0000000000000000000000000000000000000000000000000000000000000000","nonce":"0x0000000000000000","number":"0xd0034c","parentHash":"0xbb6b04965c8d45995aca8dd971f7d8a156bd72e532b6c41a49f9b32268107211","receiptsRoot":"0x37b40a2eaf3a18e11dcd59a0f8389161c729c0fa5a8d7170cf4e23796022d73e","sha3Uncles":"0x1dcc4de8dec75d7aab85b567b6ccd41ad312451b948a7413f0a142fd40d49347","size":"0x3d8","stateRoot":"0x3887d460f813192f274e1125903ec2d68d96f58f163534e96676c677f0ebfe83","timestamp":"0x65243e70","totalDifficulty":"0x1a00699","transactions":[{"blockHash":"0x519c42f5a9c348b32b4cbd2609049df6e77416f0fe5d4cb0d2406ecf5b0cff04","blockNumber":"0xd0034c","from":"0x143d7081e1b73aaf298e0cda9ba28aeca2890200","gas":"0x1ea1f","gasPrice":"0x2faf080","hash":"0x038bf410d5497f6f8c468bcd18c145376ed7af5d51b1d8831c16b5853060a5da","index":"0xd0034b","input":"0x414bf389000000000000000000000000201eba5cc46d216ce6dc03f6a759e8e766e956ae000000000000000000000000deaddeaddeaddeaddeaddeaddeaddeaddead111100000000000000000000000000000000000000000000000000000000000001f4000000000000000000000000143d7081e1b73aaf298e0cda9ba28aeca28902000000000000000000000000000000000000000000000000000000000065243e91000000000000000000000000000000000000000000000000000000000011b340000000000000000000000000000000000000000000000000000289b8dd9006c20000000000000000000000000000000000000000000000000000000000000000","l1BlockNumber":"0x11774e7","l1Timestamp":"0x65243e70","l1TxOrigin":null,"nonce":"0xea2","queueIndex":null,"queueOrigin":"sequencer","r":"0xa441763a9e3411c450fd0849960e844c488106a1a5d31fce2670f6b9fd1df1e5","rawTransaction":"0xf9016e820ea28402faf0808301ea1f94319b69888b0d11cec22caa5034e25fffbdc8842180b90104414bf389000000000000000000000000201eba5cc46d216ce6dc03f6a759e8e766e956ae000000000000000000000000deaddeaddeaddeaddeaddeaddeaddeaddead111100000000000000000000000000000000000000000000000000000000000001f4000000000000000000000000143d7081e1b73aaf298e0cda9ba28aeca28902000000000000000000000000000000000000000000000000000000000065243e91000000000000000000000000000000000000000000000000000000000011b340000000000000000000000000000000000000000000000000000289b8dd9006c20000000000000000000000000000000000000000000000000000000000000000822734a0a441763a9e3411c450fd0849960e844c488106a1a5d31fce2670f6b9fd1df1e5a07b850ed1b1dc29d4a2286afbe79b216cf13bba5d6b296c50abe8ecd1b439d5a5","s":"0x7b850ed1b1dc29d4a2286afbe79b216cf13bba5d6b296c50abe8ecd1b439d5a5","to":"0x319b69888b0d11cec22caa5034e25fffbdc88421","transactionIndex":"0x0","v":"0x2734","value":"0x0"}],"transactionsRoot":"0x5a9bcc907f6f1e39837ec5ebd3d676437fb23898ecf4a80dcc39d2c7302847b5","uncles":[]},"receipts":{"0x038bf410d5497f6f8c468bcd18c145376ed7af5d51b1d8831c16b5853060a5da":{"blockHash":"0x519c42f5a9c348b32b4cbd2609049df6e77416f0fe5d4cb0d2406ecf5b0cff04","blockNumber":"0xd0034c","from":"0x143d7081e1b73aaf298e0cda9ba28aeca2890200","gas":"0x1ea1f","gasPrice":"0x2faf080","hash":"0x038bf410d5497f6f8c468bcd18c145376ed7af5d51b1d8831c16b5853060a5da","index":"0xd0034b","input":"0x414bf389000000000000000000000000201eba5cc46d216ce6dc03f6a759e8e766e956ae000000000000000000000000deaddeaddeaddeaddeaddeaddeaddeaddead111100000000000000000000000000000000000000000000000000000000000001f4000000000000000000000000143d7081e1b73aaf298e0cda9ba28aeca28902000000000000000000000000000000000000000000000000000000000065243e91000000000000000000000000000000000000000000000000000000000011b340000000000000000000000000000000000000000000000000000289b8dd9006c20000000000000000000000000000000000000000000000000000000000000000","l1BlockNumber":"0x11774e7","l1Timestamp":"0x65243e70","l1TxOrigin":null,"nonce":"0xea2","queueIndex":null,"queueOrigin":"sequencer","r":"0xa441763a9e3411c450fd0849960e844c488106a1a5d31fce2670f6b9fd1df1e5","rawTransaction":"0xf9016e820ea28402faf0808301ea1f94319b69888b0d11cec22caa5034e25fffbdc8842180b90104414bf389000000000000000000000000201eba5cc46d216ce6dc03f6a759e8e766e956ae000000000000000000000000deaddeaddeaddeaddeaddeaddeaddeaddead111100000000000000000000000000000000000000000000000000000000000001f4000000000000000000000000143d7081e1b73aaf298e0cda9ba28aeca28902000000000000000000000000000000000000000000000000000000000065243e91000000000000000000000000000000000000000000000000000000000011b340000000000000000000000000000000000000000000000000000289b8dd9006c20000000000000000000000000000000000000000000000000000000000000000822734a0a441763a9e3411c450fd0849960e844c488106a1a5d31fce2670f6b9fd1df1e5a07b850ed1b1dc29d4a2286afbe79b216cf13bba5d6b296c50abe8ecd1b439d5a5","s":"0x7b850ed1b1dc29d4a2286afbe79b216cf13bba5d6b296c50abe8ecd1b439d5a5","to":"0x319b69888b0d11cec22caa5034e25fffbdc88421","transactionIndex":"0x0","v":"0x2734","value":"0x0","contractAddress":null,"cumulativeGasUsed":"0x1d2c1","daFee":"0x0","daGasPrice":"0x0","daGasUsed":"0x12c","gasUsed":"0x1d2c1","l1Fee":"0x19709d787180660","l1FeeScalar":"1","l1GasPrice":"0x38a987f04864","l1GasUsed":"0x72f","logs":[{"address":"0xdeaddeaddeaddeaddeaddeaddeaddeaddead1111","blockHash":"0x519c42f5a9c348b32b4cbd2609049df6e77416f0fe5d4cb0d2406ecf5b0cff04","blockNumber":"0xd0034c","data":"0x000000000000000000000000000000000000000000000000000296fb5505e78d","logIndex":"0x0","removed":false,"topics":["0xddf252ad1be2c89b69c2b068fc378daa952ba7f163c4a11628f55a4df523b3ef","0x000000000000000000000000628f7131cf43e88ebe3921ae78c4ba0c31872bd4","0x000000000000000000000000143d7081e1b73aaf298e0cda9ba28aeca2890200"],"transactionHash":"0x038bf410d5497f6f8c468bcd18c145376ed7af5d51b1d8831c16b5853060a5da","transactionIndex":"0x0"},{"address":"0x201eba5cc46d216ce6dc03f6a759e8e766e956ae","blockHash":"0x519c42f5a9c348b32b4cbd2609049df6e77416f0fe5d4cb0d2406ecf5b0cff04","blockNumber":"0xd0034c","data":"0x000000000000000000000000000000000000000000000000000000000011b340","logIndex":"0x1","removed":false,"topics":["0xddf252ad1be2c89b69c2b068fc378daa952ba7f163c4a11628f55a4df523b3ef","0x000000000000000000000000143d7081e1b73aaf298e0cda9ba28aeca2890200","0x000000000000000000000000628f7131cf43e88ebe3921ae78c4ba0c31872bd4"],"transactionHash":"0x038bf410d5497f6f8c468bcd18c145376ed7af5d51b1d8831c16b5853060a5da","transactionIndex":"0x0"},{"address":"0x201eba5cc46d216ce6dc03f6a759e8e766e956ae","blockHash":"0x519c42f5a9c348b32b4cbd2609049df6e77416f0fe5d4cb0d2406ecf5b0cff04","blockNumber":"0xd0034c","data":"0xffffffffffffffffffffffffffffffffffffffffffffffffffffffff9c247e2f","logIndex":"0x2","removed":false,"topics":["0x8c5be1e5ebec7d5bd14f71427d1e84f3dd0314c0f7b2291e5b200ac8c7c3b925","0x000000000000000000000000143d7081e1b73aaf298e0cda9ba28aeca2890200","0x000000000000000000000000319b69888b0d11cec22caa5034e25fffbdc88421"],"transactionHash":"0x038bf410d5497f6f8c468bcd18c145376ed7af5d51b1d8831c16b5853060a5da","transactionIndex":"0x0"},{"address":"0x628f7131cf43e88ebe3921ae78c4ba0c31872bd4","blockHash":"0x519c42f5a9c348b32b4cbd2609049df6e77416f0fe5d4cb0d2406ecf5b0cff04","blockNumber":"0xd0034c","data":"0x000000000000000000000000000000000000000000000000000000000011b340fffffffffffffffffffffffffffffffffffffffffffffffffffd6904aafa187300000000000000000000000000000000000061eaebc6cabf57a7f954bae4a7ce00000000000000000000000000000000000000000000000000002c65dde06c20000000000000000000000000000000000000000000000000000000000003176400000000000000000000000000000000000000000000000000000000000000c50000000000000000000000000000000000000000000000000000000000000000","logIndex":"0x3","removed":false,"topics":["0x19b47279256b2a23a1665c810c8d55a1758940ee09377d4f8d26497a3577dc83","0x000000000000000000000000319b69888b0d11cec22caa5034e25fffbdc88421","0x000000000000000000000000143d7081e1b73aaf298e0cda9ba28aeca2890200"],"transactionHash":"0x038bf410d5497f6f8c468bcd18c145376ed7af5d51b1d8831c16b5853060a5da","transactionIndex":"0x0"}],"logsBloom":"0x40000000000000000000000000000000000000000041008800000000000000000000000000000000000000000002000000000000000000000000000000200000840000000040000000000008000000000000008000002004000000000000000000000001000000000000000100000000000000000000000000010010000000000000000000000000000000000000000000000000000000000008000000000000020000000000000000000000000000000000000001000021000100000000000000000002000000000000000000000000000000000000000000000000000000000010000000001000000000000000000000000000000000000000000000000000","status":"0x1","transactionHash":"0x038bf410d5497f6f8c468bcd18c145376ed7af5d51b1d8831c16b5853060a5da"}}}