{"block":{"difficulty":"0x2","extraData":"0xd98301090a846765746889676f312e31352e3133856c696e75780000000000009b2092c8206bd5a0cfbc4bd9b14301bcdf4357d53a65159fb2bf9a12d9a7e3824a5daf50bf356917d076bd9d453cec30713986f17664aebbe019df3f31619fb800","gasLimit":"0x1c9c380","gasUsed":"0x868a","hash":"0x33d530ef3e15a0c0065aad582d966410acf5c3601789308f5506f3707f4bf2a0","logsBloom":"0x00000000040000000000000000000000000000000004000000000000000000000000000000000000000000000000000000000000000000000000000000000000000000000000000000000008000000000000000000000000000000000000000000000000000000000000000100000000000000000000000000000010000000000000000000000000000000000000000000000000000000000000000000000000000100000000000000000000000000000000000000000000000100000000000000000003000000000000000000000000000000000000000000000000200000000000000000001000000000000001000000000000000000000000000000000000","miner":"0x0000000000000000000000000000000000000000","mixHash":"0x0000000000000000000000000000000000000000000000000000000000000000","nonce":"0x0000000000000000","number":"0xd00203","parentHash":"0x159c7ba912366442cbe49d76683f739fdc30bd8beae1f8bec263af88ba528143","receiptsRoot":"0x565ebb953904be56fb04e17c774d4fd34663a1f3c7ab4f3c7c4fae147e12d10f","sha3Uncles":"0x1dcc4de8dec75d7aab85b567b6ccd41ad312451b948a7413f0a142fd40d49347","size":"0x312","stateRoot":"0x73503cfe61cba64ef984e352d3691876734b08a0cce006c622bd564de31a1fed","timestamp":"0x65243dc8","totalDifficulty":"0x1a00407","transactions":[{"blockHash":"0x33d530ef3e15a0c0065aad582d966410acf5c3601789308f5506f3707f4bf2a0","blockNumber":"0xd00203","from":"0x0ed94ddc597721a976d86a5d2be11d0d445dffb9","gas":"0x868a","gasPrice":"0x2faf080","hash":"0xcc1dc7da5ee68acb1db9e003a3b378851f897f7ef227bdd43bb9d90848349215","index":"0xd00202","input":"0xa9059cbb000000000000000000000000e4edb277e41dc89ab076a1f049f4a3efa700bce8000000000000000000000000000000000000000000000000059ee52d7a6a733d","l1BlockNumber":"0x11774d9","l1Timestamp":"0x65243dc8","l1TxOrigin":null,"nonce":"0xd2","queueIndex":null,"queueOrigin":"sequencer","r":"0xca8c07c23b00c97732d0b7b328f3a987c3efa3f16b8e35d39f5263433549b937","rawTransaction":"0xf8ab81d28402faf08082868a94deaddeaddeaddeaddeaddeaddeaddeaddead111180b844a9059cbb000000000000000000000000e4edb277e41dc89ab076a1f049f4a3efa700bce8000000000000000000000000000000000000000000000000059ee52d7a6a733d822734a0ca8c07c23b00c97732d0b7b328f3a987c3efa3f16b8e35d39f5263433549b937a07a98f3a03ec7488e6030f10d189e740074e97ab0c4ede1efea9eab20fe81372d","s":"0x7a98f3a03ec7488e6030f10d189e740074e97ab0c4ede1efea9eab20fe81372d","to":"0xdeaddeaddeaddeaddeaddeaddeaddeaddead1111","transactionIndex":"0x0","v":"0x2734","value":"0x0"}],"transactionsRoot":"0x588b50414a15cba580a86c50e2de1c1da38f9cf1c7e233fd3e52de63d79c69d9","uncles":[]},"receipts":{"0xcc1dc7da5ee68acb1db9e003a3b378851f897f7ef227bdd43bb9d90848349215":{"blockHash":"0x33d530ef3e15a0c0065aad582d966410acf5c3601789308f5506f3707f4bf2a0","blockNumber":"0xd00203","from":"0x0ed94ddc597721a976d86a5d2be11d0d445dffb9","gas":"0x868a","gasPrice":"0x2faf080","hash":"0xcc1dc7da5ee68acb1db9e003a3b378851f897f7ef227bdd43bb9d90848349215","index":"0xd00202","input":"0xa9059cbb000000000000000000000000e4edb277e41dc89ab076a1f049f4a3efa700bce8000000000000000000000000000000000000000000000000059ee52d7a6a733d","l1BlockNumber":"0x11774d9","l1Timestamp":"0x65243dc8","l1TxOrigin":null,"nonce":"0xd2","queueIndex":null,"queueOrigin":"sequencer","r":"0xca8c07c23b00c97732d0b7b328f3a987c3efa3f16b8e35d39f5263433549b937","rawTransaction":"0xf8ab81d28402faf08082868a94deaddeaddeaddeaddeaddeaddeaddeaddead111180b844a9059cbb000000000000000000000000e4edb277e41dc89ab076a1f049f4a3efa700bce8000000000000000000000000000000000000000000000000059ee52d7a6a733d822734a0ca8c07c23b00c97732d0b7b328f3a987c3efa3f16b8e35d39f5263433549b937a07a98f3a03ec7488e6030f10d189e740074e97ab0c4ede1efea9eab20fe81372d","s":"0x7a98f3a03ec7488e6030f10d189e740074e97ab0c4ede1efea9eab20fe81372d","to":"0xdeaddeaddeaddeaddeaddeaddeaddeaddead1111","transactionIndex":"0x0","v":"0x2734","value":"0x0","contractAddress":null,"cumulativeGasUsed":"0x868a","daFee":"0x0","daGasPrice":"0x0","daGasUsed":"0x68","gasUsed":"0x868a","l1Fee":"0x19709d787180660","l1FeeScalar":"1","l1GasPrice":"0x38a987f04864","l1GasUsed":"0x72f","logs":[{"address":"0xdeaddeaddeaddeaddeaddeaddeaddeaddead1111","blockHash":"0x33d530ef3e15a0c0065aad582d966410acf5c3601789308f5506f3707f4bf2a0","blockNumber":"0xd00203","data":"0x000000000000000000000000000000000000000000000000059ee52d7a6a733d","logIndex":"0x0","removed":false,"topics":["0xddf252ad1be2c89b69c2b068fc378daa952ba7f163c4a11628f55a4df523b3ef","0x0000000000000000000000000ed94ddc597721a976d86a5d2be11d0d445dffb9","0x000000000000000000000000e4edb277e41dc89ab076a1f049f4a3efa700bce8"],"transactionHash":"0xcc1dc7da5ee68acb1db9e003a3b378851f897f7ef227bdd43bb9d90848349215","transactionIndex":"0x0"}],"logsBloom":"0x00000000040000000000000000000000000000000004000000000000000000000000000000000000000000000000000000000000000000000000000000000000000000000000000000000008000000000000000000000000000000000000000000000000000000000000000100000000000000000000000000000010000000000000000000000000000000000000000000000000000000000000000000000000000100000000000000000000000000000000000000000000000100000000000000000003000000000000000000000000000000000000000000000000200000000000000000001000000000000001000000000000000000000000000000000000","status":"0x1","transactionHash":"0xcc1dc7da5ee68acb1db9e003a3b378851f897f7ef227bdd43bb9d90848349215"}}}