{"block":{"difficulty":"0x2","extraData":"0xd98301090a846765746889676f312e31352e3133856c696e7578000000000000d3aa75f89567e604f23e4192d27d2666bae6d6ad1530112e895a30a6a75f9b0b2e820e02737558397d91c87382e4cfdf1e96e43113683d8cf578a52ef35b7b8901","gasLimit":"0x1c9c380","gasUsed":"0x34e48","hash":"0xc9146001ffa24a95f96595ab7947e1dcc461b85489c21e13d33bbb2a2bb8d47e","logsBloom":"0x00000000000000000000000002000000000000004000000008000000000000000000000010000000000000000000000000080000002004020240000000000000100000000000000000200008000000000000004000440020000000000000000000000000020000000000000000000800000008100004040000008010000000000000080000000000000000080000000000108000000001000000000000000000010000004008040000080000000040000000000000000008000300000000000000000002000000010000000000000000800000000000000000000002040020000000080000040000000000000000040000020000400000000000000040000000","miner":"0x0000000000000000000000000000000000000000","mixHash":"0x0000000000000000000000000000000000000000000000000000000000000000","nonce":"0x0000000000000000","number":"0xd0022a","parentHash":"0x5b8594480a9f246dc607cb863086548675907f3673d4857e9109d586fe2e3958","receiptsRoot":"0xcf1bc48536e3617f536686b923de72c53aa3a6563b1f381c7f4f71117bcb4949","sha3Uncles":"0x1dcc4de8dec75d7aab85b567b6ccd41ad312451b948a7413f0a142fd40d49347","size":"0x656","stateRoot":"0xeaecd12a78b3fa866bff06abd42c86f9e200afeba1da6c92c29bd9c3e7c781df","timestamp":"0x65243de1","totalDifficulty":"0x1a00455","transactions":[{"blockHash":"0xc9146001ffa24a95f96595ab7947e1dcc461b85489c21e13d33bbb2a2bb8d47e","blockNumber":"0xd0022a","from":"0x3f31dd2e7166376da4a8d998c6abe2a3f7906bf1","gas":"0x4a3dc","gasPrice":"0x30291a0","hash":"0xd223a28dcbbe61cf6b7a64ae25d54562c10e4afab9157fa7abda9db54341c3be","index":"0xd00229","input":"0xac9650d80000000000000000000000000000000000000000000000000000000000000020000000000000000000000000000000000000000000000000000000000000000400000000000000000000000000000000000000000000000000000000000000800000000000000000000000000000000000000000000000000000000000000160000000000000000000000000000000000000000000000000000000000000022000000000000000000000000000000000000000000000000000000000000002a000000000000000000000000000000000000000000000000000000000000000a40c49ccbe00000000000000000000000000000000000000000000000000000000000121ed00000000000000000000000000000000000000000000000000000e7711af139c00000000000000000000000000000000000000000000000000000000000298e20000000000000000000000000000000000000000000000001c4b25e8d45f1ebe000000000000000000000000000000000000000000000000000000006524427d000000000000000000000000000000000000000000000000000000000000000000000000000000000000000000000000000000000000000000000084fc6f786500000000000000000000000000000000000000000000000000000000000121ed000000000000000000000000000000000000000000000000000000000000000000000000000000000000000000000000ffffffffffffffffffffffffffffffff00000000000000000000000000000000ffffffffffffffffffffffffffffffff000000000000000000000000000000000000000000000000000000000000000000000000000000000000000000000000000000000000000000000044cf3f26d60000000000000000000000000000000000000000000000001c4c0ad5f1cd1bb20000000000000000000000003f31dd2e7166376da4a8d998c6abe2a3f7906bf1000000000000000000000000000000000000000000000000000000000000000000000000000000000000000000000000000000000000000000000064df2ab5bb00000000000000000000000009bc4e0d864854c6afb6eb9a9cdf58ac190d0df9000000000000000000000000000000000000000000000000000000000002991f0000000000000000000000003f31dd2e7166376da4a8d998c6abe2a3f7906bf100000000000000000000000000000000000000000000000000000000","l1BlockNumber":"0x11774db","l1Timestamp":"0x65243de1","l1TxOrigin":null,"nonce":"0x33","queueIndex":null,"queueOrigin":"sequencer","r":"0xbecf604dfcf64cb7de3f26d73aec695ff9f8387d2e59c8aab79b6205e9b0be33","rawTransaction":"0xf903ec3384030291a08304a3dc94218bf598d1453383e2f4aa7b14ffb9bfb102d63780b90384ac9650d80000000000000000000000000000000000000000000000000000000000000020000000000000000000000000000000000000000000000000000000000000000400000000000000000000000000000000000000000000000000000000000000800000000000000000000000000000000000000000000000000000000000000160000000000000000000000000000000000000000000000000000000000000022000000000000000000000000000000000000000000000000000000000000002a000000000000000000000000000000000000000000000000000000000000000a40c49ccbe00000000000000000000000000000000000000000000000000000000000121ed00000000000000000000000000000000000000000000000000000e7711af139c00000000000000000000000000000000000000000000000000000000000298e20000000000000000000000000000000000000000000000001c4b25e8d45f1ebe000000000000000000000000000000000000000000000000000000006524427d000000000000000000000000000000000000000000000000000000000000000000000000000000000000000000000000000000000000000000000084fc6f786500000000000000000000000000000000000000000000000000000000000121ed000000000000000000000000000000000000000000000000000000000000000000000000000000000000000000000000ffffffffffffffffffffffffffffffff00000000000000000000000000000000ffffffffffffffffffffffffffffffff000000000000000000000000000000000000000000000000000000000000000000000000000000000000000000000000000000000000000000000044cf3f26d60000000000000000000000000000000000000000000000001c4c0ad5f1cd1bb20000000000000000000000003f31dd2e7166376da4a8d998c6abe2a3f7906bf1000000000000000000000000000000000000000000000000000000000000000000000000000000000000000000000000000000000000000000000064df2ab5bb00000000000000000000000009bc4e0d864854c6afb6eb9a9cdf58ac190d0df9000000000000000000000000000000000000000000000000000000000002991f0000000000000000000000003f31dd2e7166376da4a8d998c6abe2a3f7906bf100000000000000000000000000000000000000000000000000000000822733a0becf604dfcf64cb7de3f26d73aec695ff9f8387d2e59c8aab79b6205e9b0be33a071eaef7fdc99c32044eb4f9f4321badd6ef9f6e89ff934950d4ce77e48690247","s":"0x71eaef7fdc99c32044eb4f9f4321badd6ef9f6e89ff934950d4ce77e48690247","to":"0x218bf598d1453383e2f4aa7b14ffb9bfb102d637","transactionIndex":"0x0","v":"0x2733","value":"0x0"}],"transactionsRoot":"0xccf06cc3a96dc9e74ac0038000c4a536ef2195fd883bd9883678b795046f40c9","uncles":[]},"receipts":{"0xd223a28dcbbe61cf6b7a64ae25d54562c10e4afab9157fa7abda9db54341c3be":{"blockHash":"0xc9146001ffa24a95f96595ab7947e1dcc461b85489c21e13d33bbb2a2bb8d47e","blockNumber":"0xd0022a","from":"0x3f31dd2e7166376da4a8d998c6abe2a3f7906bf1","gas":"0x4a3dc","gasPrice":"0x30291a0","hash":"0xd223a28dcbbe61cf6b7a64ae25d54562c10e4afab9157fa7abda9db54341c3be","index":"0xd00229","input":"0xac9650d80000000000000000000000000000000000000000000000000000000000000020000000000000000000000000000000000000000000000000000000000000000400000000000000000000000000000000000000000000000000000000000000800000000000000000000000000000000000000000000000000000000000000160000000000000000000000000000000000000000000000000000000000000022000000000000000000000000000000000000000000000000000000000000002a000000000000000000000000000000000000000000000000000000000000000a40c49ccbe00000000000000000000000000000000000000000000000000000000000121ed00000000000000000000000000000000000000000000000000000e7711af139c00000000000000000000000000000000000000000000000000000000000298e20000000000000000000000000000000000000000000000001c4b25e8d45f1ebe000000000000000000000000000000000000000000000000000000006524427d000000000000000000000000000000000000000000000000000000000000000000000000000000000000000000000000000000000000000000000084fc6f786500000000000000000000000000000000000000000000000000000000000121ed000000000000000000000000000000000000000000000000000000000000000000000000000000000000000000000000ffffffffffffffffffffffffffffffff00000000000000000000000000000000ffffffffffffffffffffffffffffffff000000000000000000000000000000000000000000000000000000000000000000000000000000000000000000000000000000000000000000000044cf3f26d60000000000000000000000000000000000000000000000001c4c0ad5f1cd1bb20000000000000000000000003f31dd2e7166376da4a8d998c6abe2a3f7906bf1000000000000000000000000000000000000000000000000000000000000000000000000000000000000000000000000000000000000000000000064df2ab5bb00000000000000000000000009bc4e0d864854c6afb6eb9a9cdf58ac190d0df9000000000000000000000000000000000000000000000000000000000002991f0000000000000000000000003f31dd2e7166376da4a8d998c6abe2a3f7906bf100000000000000000000000000000000000000000000000000000000","l1BlockNumber":"0x11774db","l1Timestamp":"0x65243de1","l1TxOrigin":null,"nonce":"0x33","queueIndex":null,"queueOrigin":"sequencer","r":"0xbecf604dfcf64cb7de3f26d73aec695ff9f8387d2e59c8aab79b6205e9b0be33","rawTransaction":"0xf903ec3384030291a08304a3dc94218bf598d1453383e2f4aa7b14ffb9bfb102d63780b90384ac9650d80000000000000000000000000000000000000000000000000000000000000020000000000000000000000000000000000000000000000000000000000000000400000000000000000000000000000000000000000000000000000000000000800000000000000000000000000000000000000000000000000000000000000160000000000000000000000000000000000000000000000000000000000000022000000000000000000000000000000000000000000000000000000000000002a000000000000000000000000000000000000000000000000000000000000000a40c49ccbe00000000000000000000000000000000000000000000000000000000000121ed00000000000000000000000000000000000000000000000000000e7711af139c00000000000000000000000000000000000000000000000000000000000298e20000000000000000000000000000000000000000000000001c4b25e8d45f1ebe000000000000000000000000000000000000000000000000000000006524427d000000000000000000000000000000000000000000000000000000000000000000000000000000000000000000000000000000000000000000000084fc6f786500000000000000000000000000000000000000000000000000000000000121ed000000000000000000000000000000000000000000000000000000000000000000000000000000000000000000000000ffffffffffffffffffffffffffffffff00000000000000000000000000000000ffffffffffffffffffffffffffffffff000000000000000000000000000000000000000000000000000000000000000000000000000000000000000000000000000000000000000000000044cf3f26d60000000000000000000000000000000000000000000000001c4c0ad5f1cd1bb20000000000000000000000003f31dd2e7166376da4a8d998c6abe2a3f7906bf1000000000000000000000000000000000000000000000000000000000000000000000000000000000000000000000000000000000000000000000064df2ab5bb00000000000000000000000009bc4e0d864854c6afb6eb9a9cdf58ac190d0df9000000000000000000000000000000000000000000000000000000000002991f0000000000000000000000003f31dd2e7166376da4a8d998c6abe2a3f7906bf100000000000000000000000000000000000000000000000000000000822733a0becf604dfcf64cb7de3f26d73aec695ff9f8387d2e59c8aab79b6205e9b0be33a071eaef7fdc99c32044eb4f9f4321badd6ef9f6e89ff934950d4ce77e48690247","s":"0x71eaef7fdc99c32044eb4f9f4321badd6ef9f6e89ff934950d4ce77e48690247","to":"0x218bf598d1453383e2f4aa7b14ffb9bfb102d637","transactionIndex":"0x0","v":"0x2733","value":"0x0","contractAddress":null,"cumulativeGasUsed":"0x34e48","daFee":"0x0","daGasPrice":"0x0","daGasUsed":"0x3aa","gasUsed":"0x34e48","l1Fee":"0x19709d787180660","l1FeeScalar":"1","l1GasPrice":"0x38a987f04864","l1GasUsed":"0x72f","logs":[{"address":"0x1858d52cf57c07a018171d7a1e68dc081f17144f","blockHash":"0xc9146001ffa24a95f96595ab7947e1dcc461b85489c21e13d33bbb2a2bb8d47e","blockNumber":"0xd0022a","data":"0x00000000000000000000000000000000000000000000000000000e7711af139c000000000000000000000000000000000000000000000000000000000002f7700000000000000000000000000000000000000000000000001d329ccfa3ee6522","logIndex":"0x0","removed":false,"topics":["0x0c396cd989a39f4459b5fa1aed6a9a8dcdbc45908acfd67e028cd568da98982c","0x000000000000000000000000218bf598d1453383e2f4aa7b14ffb9bfb102d637","0x000000000000000000000000000000000000000000000000000000000004574a","0x0000000000000000000000000000000000000000000000000000000000045f74"],"transactionHash":"0xd223a28dcbbe61cf6b7a64ae25d54562c10e4afab9157fa7abda9db54341c3be","transactionIndex":"0x0"},{"address":"0x218bf598d1453383e2f4aa7b14ffb9bfb102d637","blockHash":"0xc9146001ffa24a95f96595ab7947e1dcc461b85489c21e13d33bbb2a2bb8d47e","blockNumber":"0xd0022a","data":"0x00000000000000000000000000000000000000000000000000000e7711af139c000000000000000000000000000000000000000000000000000000000002f7700000000000000000000000000000000000000000000000001d329ccfa3ee6522","logIndex":"0x1","removed":false,"topics":["0x26f6a048ee9138f2c0ce266f322cb99228e8d619ae2bff30c67f8dcf9d2377b4","0x00000000000000000000000000000000000000000000000000000000000121ed"],"transactionHash":"0xd223a28dcbbe61cf6b7a64ae25d54562c10e4afab9157fa7abda9db54341c3be","transactionIndex":"0x0"},{"address":"0x09bc4e0d864854c6afb6eb9a9cdf58ac190d0df9","blockHash":"0xc9146001ffa24a95f96595ab7947e1dcc461b85489c21e13d33bbb2a2bb8d47e","blockNumber":"0xd0022a","data":"0x000000000000000000000000000000000000000000000000000000000002f7ad","logIndex":"0x2","removed":false,"topics":["0xddf252ad1be2c89b69c2b068fc378daa952ba7f163c4a11628f55a4df523b3ef","0x0000000000000000000000001858d52cf57c07a018171d7a1e68dc081f17144f","0x000000000000000000000000218bf598d1453383e2f4aa7b14ffb9bfb102d637"],"transactionHash":"0xd223a28dcbbe61cf6b7a64ae25d54562c10e4afab9157fa7abda9db54341c3be","transactionIndex":"0x0"},{"address":"0x78c1b0c915c4faa5fffa6cabf0219da63d7f4cb8","blockHash":"0xc9146001ffa24a95f96595ab7947e1dcc461b85489c21e13d33bbb2a2bb8d47e","blockNumber":"0xd0022a","data":"0x0000000000000000000000000000000000000000000000001d3381bcc15c6216","logIndex":"0x3","removed":false,"topics":["0xddf252ad1be2c89b69c2b068fc378daa952ba7f163c4a11628f55a4df523b3ef","0x0000000000000000000000001858d52cf57c07a018171d7a1e68dc081f17144f","0x000000000000000000000000218bf598d1453383e2f4aa7b14ffb9bfb102d637"],"transactionHash":"0xd223a28dcbbe61cf6b7a64ae25d54562c10e4afab9157fa7abda9db54341c3be","transactionIndex":"0x0"},{"address":"0x1858d52cf57c07a018171d7a1e68dc081f17144f","blockHash":"0xc9146001ffa24a95f96595ab7947e1dcc461b85489c21e13d33bbb2a2bb8d47e","blockNumber":"0xd0022a","data":"0x000000000000000000000000218bf598d1453383e2f4aa7b14ffb9bfb102d637000000000000000000000000000000000000000000000000000000000002f7ad0000000000000000000000000000000000000000000000001d3381bcc15c6216","logIndex":"0x4","removed":false,"topics":["0x70935338e69775456a85ddef226c395fb668b63fa0115f5f20610b388e6ca9c0","0x000000000000000000000000218bf598d1453383e2f4aa7b14ffb9bfb102d637","0x000000000000000000000000000000000000000000000000000000000004574a","0x0000000000000000000000000000000000000000000000000000000000045f74"],"transactionHash":"0xd223a28dcbbe61cf6b7a64ae25d54562c10e4afab9157fa7abda9db54341c3be","transactionIndex":"0x0"},{"address":"0x218bf598d1453383e2f4aa7b14ffb9bfb102d637","blockHash":"0xc9146001ffa24a95f96595ab7947e1dcc461b85489c21e13d33bbb2a2bb8d47e","blockNumber":"0xd0022a","data":"0x000000000000000000000000218bf598d1453383e2f4aa7b14ffb9bfb102d637000000000000000000000000000000000000000000000000000000000002f7ad0000000000000000000000000000000000000000000000001d3381bcc15c6216","logIndex":"0x5","removed":false,"topics":["0x40d0efd1a53d60ecbf40971b9daf7dc90178c3aadc7aab1765632738fa8b8f01","0x00000000000000000000000000000000000000000000000000000000000121ed"],"transactionHash":"0xd223a28dcbbe61cf6b7a64ae25d54562c10e4afab9157fa7abda9db54341c3be","transactionIndex":"0x0"},{"address":"0x78c1b0c915c4faa5fffa6cabf0219da63d7f4cb8","blockHash":"0xc9146001ffa24a95f96595ab7947e1dcc461b85489c21e13d33bbb2a2bb8d47e","blockNumber":"0xd0022a","data":"0x0000000000000000000000000000000000000000000000001d3381bcc15c6216","logIndex":"0x6","removed":false,"topics":["0xddf252ad1be2c89b69c2b068fc378daa952ba7f163c4a11628f55a4df523b3ef","0x000000000000000000000000218bf598d1453383e2f4aa7b14ffb9bfb102d637","0x0000000000000000000000000000000000000000000000000000000000000000"],"transactionHash":"0xd223a28dcbbe61cf6b7a64ae25d54562c10e4afab9157fa7abda9db54341c3be","transactionIndex":"0x0"},{"address":"0x78c1b0c915c4faa5fffa6cabf0219da63d7f4cb8","blockHash":"0xc9146001ffa24a95f96595ab7947e1dcc461b85489c21e13d33bbb2a2bb8d47e","blockNumber":"0xd0022a","data":"0x0000000000000000000000000000000000000000000000001d3381bcc15c6216","logIndex":"0x7","removed":false,"topics":["0x7fcf532c15f0a6db0bd6d0e038bea71d30d808c7d98cb3bf7268a95bf5081b65","0x000000000000000000000000218bf598d1453383e2f4aa7b14ffb9bfb102d637"],"transactionHash":"0xd223a28dcbbe61cf6b7a64ae25d54562c10e4afab9157fa7abda9db54341c3be","transactionIndex":"0x0"},{"address":"0x09bc4e0d864854c6afb6eb9a9cdf58ac190d0df9","blockHash":"0xc9146001ffa24a95f96595ab7947e1dcc461b85489c21e13d33bbb2a2bb8d47e","blockNumber":"0xd0022a","data":"0x000000000000000000000000000000000000000000000000000000000002f7ad","logIndex":"0x8","removed":false,"topics":["0xddf252ad1be2c89b69c2b068fc378daa952ba7f163c4a11628f55a4df523b3ef","0x000000000000000000000000218bf598d1453383e2f4aa7b14ffb9bfb102d637","0x0000000000000000000000003f31dd2e7166376da4a8d998c6abe2a3f7906bf1"],"transactionHash":"0xd223a28dcbbe61cf6b7a64ae25d54562c10e4afab9157fa7abda9db54341c3be","transactionIndex":"0x0"}],"logsBloom":"0x00000000000000000000000002000000000000004000000008000000000000000000000010000000000000000000000000080000002004020240000000000000100000000000000000200008000000000000004000440020000000000000000000000000020000000000000000000800000008100004040000008010000000000000080000000000000000080000000000108000000001000000000000000000010000004008040000080000000040000000000000000008000300000000000000000002000000010000000000000000800000000000000000000002040020000000080000040000000000000000040000020000400000000000000040000000","status":"0x1","transactionHash":"0xd223a28dcbbe61cf6b7a64ae25d54562c10e4afab9157fa7abda9db54341c3be"}}}