{"block":{"difficulty":"0x2","extraData":"0xd98301090a846765746889676f312e31352e3133856c696e7578000000000000153429382c240a8f2accfbaffae1ec7542de8d1d86c3efa7fc51dcad354917e563de0cc8f66c30d4dd76a86a67c9b6013616517d6cd0e288fa88c27862dc9fb901","gasLimit":"0x1c9c380","gasUsed":"0x229ca","hash":"0xd5b71fb1fed85d7dca2e6e1b7b1121ff9fb89c05ecf55d789cb1ef362542c602","logsBloom":"0x00000000000000000000000000000000000000000000008800000000000000000000040000000000000000000002000000000000000000000000000000200000142004000040000000000008000000000000000000040000000000000000000000000000000000000000000000000000010000000000100000000010000000000000000000000000000000000000000000100000400000000000000100002000020000000000000000000000000000000000000021000000000000000000000080000002000000000000000000000000000000000000000000001000000000000010000000004000000000000000000000000000000000000000000000000000","miner":"0x0000000000000000000000000000000000000000","mixHash":"0x0000000000000000000000000000000000000000000000000000000000000000","nonce":"0x0000000000000000","number":"0xcff37d","parentHash":"0x78bc869265a8ffb5e08922cd3c07b5c6dfc066adb64e38fdd0f679c6c3eb6de4","receiptsRoot":"0xcedf913c58a2c23d1902ca1ef994667b6c6cbc2eec9c7f5c2480173f0f5beaa5","sha3Uncles":"0x1dcc4de8dec75d7aab85b567b6ccd41ad312451b948a7413f0a142fd40d49347","size":"0x3d8","stateRoot":"0xe4bcbf691ea608950e571593904003c0aa1d6832ec02ffa0bef419e89aa04fcf","timestamp":"0x6524373e","totalDifficulty":"0x19fe6fb","transactions":[{"blockHash":"0xd5b71fb1fed85d7dca2e6e1b7b1121ff9fb89c05ecf55d789cb1ef362542c602","blockNumber":"0xcff37d","from":"0x758ba35e02eefabd1cf7ed3bcd5bb048cbac90a4","gas":"0x24289","gasPrice":"0x2faf080","hash":"0xf04687b14890d15d194b70d18a46bd0422cddcd2f6cc5971c9aebe78ab483499","index":"0xcff37c","input":"0x414bf38900000000000000000000000078c1b0c915c4faa5fffa6cabf0219da63d7f4cb800000000000000000000000097174506aafcc846a40832719bd8899a588bd05c0000000000000000000000000000000000000000000000000000000000002710000000000000000000000000758ba35e02eefabd1cf7ed3bcd5bb048cbac90a4000000000000000000000000000000000000000000000000000000006524375d000000000000000000000000000000000000000000000000b9020873a8c2fddb00000000000000000000000000000000000000000000004fa2073b0851d8c61f0000000000000000000000000000000000000000000000000000000000000000","l1BlockNumber":"0x117744d","l1Timestamp":"0x6524373e","l1TxOrigin":null,"nonce":"0x354","queueIndex":null,"queueOrigin":"sequencer","r":"0x8a6547747dbcd68bddfc85f80d222c2c1be6092686ccbe7edbdb81fe9baf512a","rawTransaction":"0xf9016e8203548402faf0808302428994319b69888b0d11cec22caa5034e25fffbdc8842180b90104414bf38900000000000000000000000078c1b0c915c4faa5fffa6cabf0219da63d7f4cb800000000000000000000000097174506aafcc846a40832719bd8899a588bd05c0000000000000000000000000000000000000000000000000000000000002710000000000000000000000000758ba35e02eefabd1cf7ed3bcd5bb048cbac90a4000000000000000000000000000000000000000000000000000000006524375d000000000000000000000000000000000000000000000000b9020873a8c2fddb00000000000000000000000000000000000000000000004fa2073b0851d8c61f0000000000000000000000000000000000000000000000000000000000000000822734a08a6547747dbcd68bddfc85f80d222c2c1be6092686ccbe7edbdb81fe9baf512aa006b27dda40a4400fe9b189ac9cc0068f61d54d3ab7277b7ef25e51f289e1b920","s":"0x6b27dda40a4400fe9b189ac9cc0068f61d54d3ab7277b7ef25e51f289e1b920","to":"0x319b69888b0d11cec22caa5034e25fffbdc88421","transactionIndex":"0x0","v":"0x2734","value":"0x0"}],"transactionsRoot":"0x3b64271d44f2b617bcb7486fbd892b625a1afa269be9ef230888251ab74d55de","uncles":[]},"receipts":{"0xf04687b14890d15d194b70d18a46bd0422cddcd2f6cc5971c9aebe78ab483499":{"blockHash":"0xd5b71fb1fed85d7dca2e6e1b7b1121ff9fb89c05ecf55d789cb1ef362542c602","blockNumber":"0xcff37d","from":"0x758ba35e02eefabd1cf7ed3bcd5bb048cbac90a4","gas":"0x24289","gasPrice":"0x2faf080","hash":"0xf04687b14890d15d194b70d18a46bd0422cddcd2f6cc5971c9aebe78ab483499","index":"0xcff37c","input":"0x414bf38900000000000000000000000078c1b0c915c4faa5fffa6cabf0219da63d7f4cb800000000000000000000000097174506aafcc846a40832719bd8899a588bd05c0000000000000000000000000000000000000000000000000000000000002710000000000000000000000000758ba35e02eefabd1cf7ed3bcd5bb048cbac90a4000000000000000000000000000000000000000000000000000000006524375d000000000000000000000000000000000000000000000000b9020873a8c2fddb00000000000000000000000000000000000000000000004fa2073b0851d8c61f0000000000000000000000000000000000000000000000000000000000000000","l1BlockNumber":"0x117744d","l1Timestamp":"0x6524373e","l1TxOrigin":null,"nonce":"0x354","queueIndex":null,"queueOrigin":"sequencer","r":"0x8a6547747dbcd68bddfc85f80d222c2c1be6092686ccbe7edbdb81fe9baf512a","rawTransaction":"0xf9016e8203548402faf0808302428994319b69888b0d11cec22caa5034e25fffbdc8842180b90104414bf38900000000000000000000000078c1b0c915c4faa5fffa6cabf0219da63d7f4cb800000000000000000000000097174506aafcc846a40832719bd8899a588bd05c0000000000000000000000000000000000000000000000000000000000002710000000000000000000000000758ba35e02eefabd1cf7ed3bcd5bb048cbac90a4000000000000000000000000000000000000000000000000000000006524375d000000000000000000000000000000000000000000000000b9020873a8c2fddb00000000000000000000000000000000000000000000004fa2073b0851d8c61f0000000000000000000000000000000000000000000000000000000000000000822734a08a6547747dbcd68bddfc85f80d222c2c1be6092686ccbe7edbdb81fe9baf512aa006b27dda40a4400fe9b189ac9cc0068f61d54d3ab7277b7ef25e51f289e1b920","s":"0x6b27dda40a4400fe9b189ac9cc0068f61d54d3ab7277b7ef25e51f289e1b920","to":"0x319b69888b0d11cec22caa5034e25fffbdc88421","transactionIndex":"0x0","v":"0x2734","value":"0x0","contractAddress":null,"cumulativeGasUsed":"0x229ca","daFee":"0x0","daGasPrice":"0x0","daGasUsed":"0x12c","gasUsed":"0x229ca","l1Fee":"0x1c5145ff7a866d0","l1FeeScalar":"1","l1GasPrice":"0x3f1249c65230","l1GasUsed":"0x72f","logs":[{"address":"0x97174506aafcc846a40832719bd8899a588bd05c","blockHash":"0xd5b71fb1fed85d7dca2e6e1b7b1121ff9fb89c05ecf55d789cb1ef362542c602","blockNumber":"0xcff37d","data":"0x000000000000000000000000000000000000000000000053d2fa23312dbbc314","logIndex":"0x0","removed":false,"topics":["0xddf252ad1be2c89b69c2b068fc378daa952ba7f163c4a11628f55a4df523b3ef","0x0000000000000000000000003a873fe63bedad2e9f9b9b63bf8bedb5f1789167","0x000000000000000000000000758ba35e02eefabd1cf7ed3bcd5bb048cbac90a4"],"transactionHash":"0xf04687b14890d15d194b70d18a46bd0422cddcd2f6cc5971c9aebe78ab483499","transactionIndex":"0x0"},{"address":"0x78c1b0c915c4faa5fffa6cabf0219da63d7f4cb8","blockHash":"0xd5b71fb1fed85d7dca2e6e1b7b1121ff9fb89c05ecf55d789cb1ef362542c602","blockNumber":"0xcff37d","data":"0x000000000000000000000000000000000000000000000000b9020873a8c2fddb","logIndex":"0x1","removed":false,"topics":["0xddf252ad1be2c89b69c2b068fc378daa952ba7f163c4a11628f55a4df523b3ef","0x000000000000000000000000758ba35e02eefabd1cf7ed3bcd5bb048cbac90a4","0x0000000000000000000000003a873fe63bedad2e9f9b9b63bf8bedb5f1789167"],"transactionHash":"0xf04687b14890d15d194b70d18a46bd0422cddcd2f6cc5971c9aebe78ab483499","transactionIndex":"0x0"},{"address":"0x78c1b0c915c4faa5fffa6cabf0219da63d7f4cb8","blockHash":"0xd5b71fb1fed85d7dca2e6e1b7b1121ff9fb89c05ecf55d789cb1ef362542c602","blockNumber":"0xcff37d","data":"0xfffffffffffffffffffffffffffffffffffffffffffffe7d6c8fd3c873f62998","logIndex":"0x2","removed":false,"topics":["0x8c5be1e5ebec7d5bd14f71427d1e84f3dd0314c0f7b2291e5b200ac8c7c3b925","0x000000000000000000000000758ba35e02eefabd1cf7ed3bcd5bb048cbac90a4","0x000000000000000000000000319b69888b0d11cec22caa5034e25fffbdc88421"],"transactionHash":"0xf04687b14890d15d194b70d18a46bd0422cddcd2f6cc5971c9aebe78ab483499","transactionIndex":"0x0"},{"address":"0x3a873fe63bedad2e9f9b9b63bf8bedb5f1789167","blockHash":"0xd5b71fb1fed85d7dca2e6e1b7b1121ff9fb89c05ecf55d789cb1ef362542c602","blockNumber":"0xcff37d","data":"0x000000000000000000000000000000000000000000000000b9020873a8c2fddbffffffffffffffffffffffffffffffffffffffffffffffac2d05dcced2443cec000000000000000000000000000000000000000ad2edad0e975f4040d7fa0a6f00000000000000000000000000000000000000000004050e8f20b2f8a1c79e70000000000000000000000000000000000000000000000000000000000000ba1500000000000000000000000000000000000000000000000000978efa39e250460000000000000000000000000000000000000000000000000000000000000000","logIndex":"0x3","removed":false,"topics":["0x19b47279256b2a23a1665c810c8d55a1758940ee09377d4f8d26497a3577dc83","0x000000000000000000000000319b69888b0d11cec22caa5034e25fffbdc88421","0x000000000000000000000000758ba35e02eefabd1cf7ed3bcd5bb048cbac90a4"],"transactionHash":"0xf04687b14890d15d194b70d18a46bd0422cddcd2f6cc5971c9aebe78ab483499","transactionIndex":"0x0"}],"logsBloom":"0x00000000000000000000000000000000000000000000008800000000000000000000040000000000000000000002000000000000000000000000000000200000142004000040000000000008000000000000000000040000000000000000000000000000000000000000000000000000010000000000100000000010000000000000000000000000000000000000000000100000400000000000000100002000020000000000000000000000000000000000000021000000000000000000000080000002000000000000000000000000000000000000000000001000000000000010000000004000000000000000000000000000000000000000000000000000","status":"0x1","transactionHash":"0xf04687b14890d15d194b70d18a46bd0422cddcd2f6cc5971c9aebe78ab483499"}}}