{"block":{"difficulty":"0x2","extraData":"0xd98301090a846765746889676f312e31352e3133856c696e7578000000000000d327097c45ebc4d549c13e66ab0c2f997f50df36c7e53b8fc005d40ac64852d311a3b974fc96784bc0ee0e8469ad15f6c81b9a7c34796d3e479ba3956fd3b4ca01","gasLimit":"0x1c9c380","gasUsed":"0x1fc88","hash":"0x2867f599fd4191de9178c31d3dc96525415c5c586fb1e72c1ac1c16d8cc496a5","logsBloom":"0x0000000000000000000000000000000000004000000100880000000000000000000000000000000000000000000200000000000000200000000000000020000004800400004402000000000840000000000000c000002000000000000000000000000000000000000000000000000000000000100000800000000010000000000000000000000000000000000000000000000000000000000000000000000000020000000000000000000000000000000000000001000000000000000000000000000002000000000000000000000000002000000000000000000000000000000010000000000000000000000000000000000000000010000000000000000000","miner":"0x0000000000000000000000000000000000000000","mixHash":"0x0000000000000000000000000000000000000000000000000000000000000000","nonce":"0x0000000000000000","number":"0xd0012f","parentHash":"0x0ff210ef5d0e85cf6fee856efd0f070c6f8c3ebb5102ab07926c9bcc94855bf8","receiptsRoot":"0xfaa11033fb78f401e81c6f206dffd0f1f4b238689cd586d6bf1212c1b26759df","sha3Uncles":"0x1dcc4de8dec75d7aab85b567b6ccd41ad312451b948a7413f0a142fd40d49347","size":"0x3d8","stateRoot":"0xa2c042a28ea843ef2618e96c585d46397275e141c07878404bb491dc41c9861e","timestamp":"0x65243d59","totalDifficulty":"0x1a0025f","transactions":[{"blockHash":"0x2867f599fd4191de9178c31d3dc96525415c5c586fb1e72c1ac1c16d8cc496a5","blockNumber":"0xd0012f","from":"0xeec105f527d4b95597e14ba0ba859d7d242aa766","gas":"0x21487","gasPrice":"0x2faf080","hash":"0x4e5943c8bb9979bfe9cb4a7ec5a4b418a75add9694ac89987cad24d3176af4fa","index":"0xd0012e","input":"0x414bf389000000000000000000000000201eba5cc46d216ce6dc03f6a759e8e766e956ae00000000000000000000000009bc4e0d864854c6afb6eb9a9cdf58ac190d0df90000000000000000000000000000000000000000000000000000000000000064000000000000000000000000eec105f527d4b95597e14ba0ba859d7d242aa7660000000000000000000000000000000000000000000000000000000065243d7b00000000000000000000000000000000000000000000000000000000000f424000000000000000000000000000000000000000000000000000000000000ef5020000000000000000000000000000000000000000000000000000000000000000","l1BlockNumber":"0x11774d0","l1Timestamp":"0x65243d59","l1TxOrigin":null,"nonce":"0xdfe","queueIndex":null,"queueOrigin":"sequencer","r":"0x31530727d24693cc8dcf966b79c940e70b1a87e13f435aa849d914613e2e24a9","rawTransaction":"0xf9016e820dfe8402faf0808302148794319b69888b0d11cec22caa5034e25fffbdc8842180b90104414bf389000000000000000000000000201eba5cc46d216ce6dc03f6a759e8e766e956ae00000000000000000000000009bc4e0d864854c6afb6eb9a9cdf58ac190d0df90000000000000000000000000000000000000000000000000000000000000064000000000000000000000000eec105f527d4b95597e14ba0ba859d7d242aa7660000000000000000000000000000000000000000000000000000000065243d7b00000000000000000000000000000000000000000000000000000000000f424000000000000000000000000000000000000000000000000000000000000ef5020000000000000000000000000000000000000000000000000000000000000000822734a031530727d24693cc8dcf966b79c940e70b1a87e13f435aa849d914613e2e24a9a041dbfc7194b12978a5f48ef25b02ddd317c38c248741204cc17f8c322b40d760","s":"0x41dbfc7194b12978a5f48ef25b02ddd317c38c248741204cc17f8c322b40d760","to":"0x319b69888b0d11cec22caa5034e25fffbdc88421","transactionIndex":"0x0","v":"0x2734","value":"0x0"}],"transactionsRoot":"0x51dd5143fd4927d0016eb0384774e1cc64cba5d1fad346a2c2c14500c0f2ad95","uncles":[]},"receipts":{"0x4e5943c8bb9979bfe9cb4a7ec5a4b418a75add9694ac89987cad24d3176af4fa":{"blockHash":"0x2867f599fd4191de9178c31d3dc96525415c5c586fb1e72c1ac1c16d8cc496a5","blockNumber":"0xd0012f","from":"0xeec105f527d4b95597e14ba0ba859d7d242aa766","gas":"0x21487","gasPrice":"0x2faf080","hash":"0x4e5943c8bb9979bfe9cb4a7ec5a4b418a75add9694ac89987cad24d3176af4fa","index":"0xd0012e","input":"0x414bf389000000000000000000000000201eba5cc46d216ce6dc03f6a759e8e766e956ae00000000000000000000000009bc4e0d864854c6afb6eb9a9cdf58ac190d0df90000000000000000000000000000000000000000000000000000000000000064000000000000000000000000eec105f527d4b95597e14ba0ba859d7d242aa7660000000000000000000000000000000000000000000000000000000065243d7b00000000000000000000000000000000000000000000000000000000000f424000000000000000000000000000000000000000000000000000000000000ef5020000000000000000000000000000000000000000000000000000000000000000","l1BlockNumber":"0x11774d0","l1Timestamp":"0x65243d59","l1TxOrigin":null,"nonce":"0xdfe","queueIndex":null,"queueOrigin":"sequencer","r":"0x31530727d24693cc8dcf966b79c940e70b1a87e13f435aa849d914613e2e24a9","rawTransaction":"0xf9016e820dfe8402faf0808302148794319b69888b0d11cec22caa5034e25fffbdc8842180b90104414bf389000000000000000000000000201eba5cc46d216ce6dc03f6a759e8e766e956ae00000000000000000000000009bc4e0d864854c6afb6eb9a9cdf58ac190d0df90000000000000000000000000000000000000000000000000000000000000064000000000000000000000000eec105f527d4b95597e14ba0ba859d7d242aa7660000000000000000000000000000000000000000000000000000000065243d7b00000000000000000000000000000000000000000000000000000000000f424000000000000000000000000000000000000000000000000000000000000ef5020000000000000000000000000000000000000000000000000000000000000000822734a031530727d24693cc8dcf966b79c940e70b1a87e13f435aa849d914613e2e24a9a041dbfc7194b12978a5f48ef25b02ddd317c38c248741204cc17f8c322b40d760","s":"0x41dbfc7194b12978a5f48ef25b02ddd317c38c248741204cc17f8c322b40d760","to":"0x319b69888b0d11cec22caa5034e25fffbdc88421","transactionIndex":"0x0","v":"0x2734","value":"0x0","contractAddress":null,"cumulativeGasUsed":"0x1fc88","daFee":"0x0","daGasPrice":"0x0","daGasUsed":"0x12c","gasUsed":"0x1fc88","l1Fee":"0x1a09f6380cb9fe0","l1FeeScalar":"1","l1GasPrice":"0x39ff1464e55c","l1GasUsed":"0x72f","logs":[{"address":"0x09bc4e0d864854c6afb6eb9a9cdf58ac190d0df9","blockHash":"0x2867f599fd4191de9178c31d3dc96525415c5c586fb1e72c1ac1c16d8cc496a5","blockNumber":"0xd0012f","data":"0x00000000000000000000000000000000000000000000000000000000000f4327","logIndex":"0x0","removed":false,"topics":["0xddf252ad1be2c89b69c2b068fc378daa952ba7f163c4a11628f55a4df523b3ef","0x0000000000000000000000006488f911c6cd86c289aa319c5a826dcf8f1ca065","0x000000000000000000000000eec105f527d4b95597e14ba0ba859d7d242aa766"],"transactionHash":"0x4e5943c8bb9979bfe9cb4a7ec5a4b418a75add9694ac89987cad24d3176af4fa","transactionIndex":"0x0"},{"address":"0x201eba5cc46d216ce6dc03f6a759e8e766e956ae","blockHash":"0x2867f599fd4191de9178c31d3dc96525415c5c586fb1e72c1ac1c16d8cc496a5","blockNumber":"0xd0012f","data":"0x00000000000000000000000000000000000000000000000000000000000f4240","logIndex":"0x1","removed":false,"topics":["0xddf252ad1be2c89b69c2b068fc378daa952ba7f163c4a11628f55a4df523b3ef","0x000000000000000000000000eec105f527d4b95597e14ba0ba859d7d242aa766","0x0000000000000000000000006488f911c6cd86c289aa319c5a826dcf8f1ca065"],"transactionHash":"0x4e5943c8bb9979bfe9cb4a7ec5a4b418a75add9694ac89987cad24d3176af4fa","transactionIndex":"0x0"},{"address":"0x201eba5cc46d216ce6dc03f6a759e8e766e956ae","blockHash":"0x2867f599fd4191de9178c31d3dc96525415c5c586fb1e72c1ac1c16d8cc496a5","blockNumber":"0xd0012f","data":"0xffffffffffffffffffffffffffffffffffffffffffffffffffffffffa1cfe8af","logIndex":"0x2","removed":false,"topics":["0x8c5be1e5ebec7d5bd14f71427d1e84f3dd0314c0f7b2291e5b200ac8c7c3b925","0x000000000000000000000000eec105f527d4b95597e14ba0ba859d7d242aa766","0x000000000000000000000000319b69888b0d11cec22caa5034e25fffbdc88421"],"transactionHash":"0x4e5943c8bb9979bfe9cb4a7ec5a4b418a75add9694ac89987cad24d3176af4fa","transactionIndex":"0x0"},{"address":"0x6488f911c6cd86c289aa319c5a826dcf8f1ca065","blockHash":"0x2867f599fd4191de9178c31d3dc96525415c5c586fb1e72c1ac1c16d8cc496a5","blockNumber":"0xd0012f","data":"0xfffffffffffffffffffffffffffffffffffffffffffffffffffffffffff0bcd900000000000000000000000000000000000000000000000000000000000f42400000000000000000000000000000000000000000fff52079f895a2d147cdda970000000000000000000000000000000000000000000000000000aa91ae904e92fffffffffffffffffffffffffffffffffffffffffffffffffffffffffffffffc00000000000000000000000000000000000000000000000000000000000000000000000000000000000000000000000000000000000000000000000000000021","logIndex":"0x3","removed":false,"topics":["0x19b47279256b2a23a1665c810c8d55a1758940ee09377d4f8d26497a3577dc83","0x000000000000000000000000319b69888b0d11cec22caa5034e25fffbdc88421","0x000000000000000000000000eec105f527d4b95597e14ba0ba859d7d242aa766"],"transactionHash":"0x4e5943c8bb9979bfe9cb4a7ec5a4b418a75add9694ac89987cad24d3176af4fa","transactionIndex":"0x0"}],"logsBloom":"0x0000000000000000000000000000000000004000000100880000000000000000000000000000000000000000000200000000000000200000000000000020000004800400004402000000000840000000000000c000002000000000000000000000000000000000000000000000000000000000100000800000000010000000000000000000000000000000000000000000000000000000000000000000000000020000000000000000000000000000000000000001000000000000000000000000000002000000000000000000000000002000000000000000000000000000000010000000000000000000000000000000000000000010000000000000000000","status":"0x1","transactionHash":"0x4e5943c8bb9979bfe9cb4a7ec5a4b418a75add9694ac89987cad24d3176af4fa"}}}