{"block":{"difficulty":"0x2","extraData":"0xd98301090a846765746889676f312e31352e3133856c696e7578000000000000ebfec9e981a3bcd87f1d23fc4df3e2296f7aece0035817bcdc4cbe0e18b2c39d1a0c62180ca2da14873221498be8bb767987dd5a084998fdb72178f518d7e5e300","gasLimit":"0x1c9c380","gasUsed":"0x1e203","hash":"0x58a91cd706e04fd79f22bd80f7aa9796fb253a2a06f239396e9a6318653cc390","logsBloom":"0x40000000000000000000000000000000000000000001008800000000000000000000000000000000000000000002000000000000000000000000000000200000840000008040000000000008000000000000008000002004000000000000000000000001000000000000000100000000000000000000000000000010000000000000000000000000000000000000000000000000000000000008000000000400060000000000000000000000000000000000000001000020000100000000000000000002000000000000000000000000000000000000000000000000000000000010000000001000000000000000000000000000000000000000000000000000","miner":"0x0000000000000000000000000000000000000000","mixHash":"0x0000000000000000000000000000000000000000000000000000000000000000","nonce":"0x0000000000000000","number":"0xd00104","parentHash":"0x771c3bfe4ff744acd3ac7e47ef03c5481bfdd71b14e996ca1d22823f7ef76181","receiptsRoot":"0x23ec950d50567858dd89a8c2de7f045505e337dd0f320a9f4848dc155041f2cb","sha3Uncles":"0x1dcc4de8dec75d7aab85b567b6ccd41ad312451b948a7413f0a142fd40d49347","size":"0x3d8","stateRoot":"0xe84842eb16fc3a0acf2d6f6ac80655768bf85d48926aedf2656ac64d94614049","timestamp":"0x65243d44","totalDifficulty":"0x1a00209","transactions":[{"blockHash":"0x58a91cd706e04fd79f22bd80f7aa9796fb253a2a06f239396e9a6318653cc390","blockNumber":"0xd00104","from":"0x7185cccf4d8169d88ece6a6ef3d418a2097d0629","gas":"0x1f99f","gasPrice":"0x2faf080","hash":"0x5469c48ce0aa9a9e4f4b4993619b00119156293c0736dec8cc1f0869dfe98e00","index":"0xd00103","input":"0x414bf389000000000000000000000000201eba5cc46d216ce6dc03f6a759e8e766e956ae000000000000000000000000deaddeaddeaddeaddeaddeaddeaddeaddead111100000000000000000000000000000000000000000000000000000000000001f40000000000000000000000007185cccf4d8169d88ece6a6ef3d418a2097d06290000000000000000000000000000000000000000000000000000000065243d6200000000000000000000000000000000000000000000000000000000000ecd10000000000000000000000000000000000000000000000000000221731c8af5b30000000000000000000000000000000000000000000000000000000000000000","l1BlockNumber":"0x11774ce","l1Timestamp":"0x65243d44","l1TxOrigin":null,"nonce":"0xf71","queueIndex":null,"queueOrigin":"sequencer","r":"0x5be85d5709a3bf00a773870c75bb37b483100e4f345eaa4533d13d22a970495e","rawTransaction":"0xf9016e820f718402faf0808301f99f94319b69888b0d11cec22caa5034e25fffbdc8842180b90104414bf389000000000000000000000000201eba5cc46d216ce6dc03f6a759e8e766e956ae000000000000000000000000deaddeaddeaddeaddeaddeaddeaddeaddead111100000000000000000000000000000000000000000000000000000000000001f40000000000000000000000007185cccf4d8169d88ece6a6ef3d418a2097d06290000000000000000000000000000000000000000000000000000000065243d6200000000000000000000000000000000000000000000000000000000000ecd10000000000000000000000000000000000000000000000000000221731c8af5b30000000000000000000000000000000000000000000000000000000000000000822734a05be85d5709a3bf00a773870c75bb37b483100e4f345eaa4533d13d22a970495ea04eda3526f897415adcf8c1223b332669f71eb082b7268b9320bf7262dd4d106a","s":"0x4eda3526f897415adcf8c1223b332669f71eb082b7268b9320bf7262dd4d106a","to":"0x319b69888b0d11cec22caa5034e25fffbdc88421","transactionIndex":"0x0","v":"0x2734","value":"0x0"}],"transactionsRoot":"0x7170a8ce6b21a7c94c0291f7041d15934e0b1227ef8ae945205e19d0aacfd3db","uncles":[]},"receipts":{"0x5469c48ce0aa9a9e4f4b4993619b00119156293c0736dec8cc1f0869dfe98e00":{"blockHash":"0x58a91cd706e04fd79f22bd80f7aa9796fb253a2a06f239396e9a6318653cc390","blockNumber":"0xd00104","from":"0x7185cccf4d8169d88ece6a6ef3d418a2097d0629","gas":"0x1f99f","gasPrice":"0x2faf080","hash":"0x5469c48ce0aa9a9e4f4b4993619b00119156293c0736dec8cc1f0869dfe98e00","index":"0xd00103","input":"0x414bf389000000000000000000000000201eba5cc46d216ce6dc03f6a759e8e766e956ae000000000000000000000000deaddeaddeaddeaddeaddeaddeaddeaddead111100000000000000000000000000000000000000000000000000000000000001f40000000000000000000000007185cccf4d8169d88ece6a6ef3d418a2097d06290000000000000000000000000000000000000000000000000000000065243d6200000000000000000000000000000000000000000000000000000000000ecd10000000000000000000000000000000000000000000000000000221731c8af5b30000000000000000000000000000000000000000000000000000000000000000","l1BlockNumber":"0x11774ce","l1Timestamp":"0x65243d44","l1TxOrigin":null,"nonce":"0xf71","queueIndex":null,"queueOrigin":"sequencer","r":"0x5be85d5709a3bf00a773870c75bb37b483100e4f345eaa4533d13d22a970495e","rawTransaction":"0xf9016e820f718402faf0808301f99f94319b69888b0d11cec22caa5034e25fffbdc8842180b90104414bf389000000000000000000000000201eba5cc46d216ce6dc03f6a759e8e766e956ae000000000000000000000000deaddeaddeaddeaddeaddeaddeaddeaddead111100000000000000000000000000000000000000000000000000000000000001f40000000000000000000000007185cccf4d8169d88ece6a6ef3d418a2097d06290000000000000000000000000000000000000000000000000000000065243d6200000000000000000000000000000000000000000000000000000000000ecd10000000000000000000000000000000000000000000000000000221731c8af5b30000000000000000000000000000000000000000000000000000000000000000822734a05be85d5709a3bf00a773870c75bb37b483100e4f345eaa4533d13d22a970495ea04eda3526f897415adcf8c1223b332669f71eb082b7268b9320bf7262dd4d106a","s":"0x4eda3526f897415adcf8c1223b332669f71eb082b7268b9320bf7262dd4d106a","to":"0x319b69888b0d11cec22caa5034e25fffbdc88421","transactionIndex":"0x0","v":"0x2734","value":"0x0","contractAddress":null,"cumulativeGasUsed":"0x1e203","daFee":"0x0","daGasPrice":"0x0","daGasUsed":"0x12c","gasUsed":"0x1e203","l1Fee":"0x1a09f6380cb9fe0","l1FeeScalar":"1","l1GasPrice":"0x39ff1464e55c","l1GasUsed":"0x72f","logs":[{"address":"0xdeaddeaddeaddeaddeaddeaddeaddeaddead1111","blockHash":"0x58a91cd706e04fd79f22bd80f7aa9796fb253a2a06f239396e9a6318653cc390","blockNumber":"0xd00104","data":"0x00000000000000000000000000000000000000000000000000022c94cec20a64","logIndex":"0x0","removed":false,"topics":["0xddf252ad1be2c89b69c2b068fc378daa952ba7f163c4a11628f55a4df523b3ef","0x000000000000000000000000628f7131cf43e88ebe3921ae78c4ba0c31872bd4","0x0000000000000000000000007185cccf4d8169d88ece6a6ef3d418a2097d0629"],"transactionHash":"0x5469c48ce0aa9a9e4f4b4993619b00119156293c0736dec8cc1f0869dfe98e00","transactionIndex":"0x0"},{"address":"0x201eba5cc46d216ce6dc03f6a759e8e766e956ae","blockHash":"0x58a91cd706e04fd79f22bd80f7aa9796fb253a2a06f239396e9a6318653cc390","blockNumber":"0xd00104","data":"0x00000000000000000000000000000000000000000000000000000000000ecd10","logIndex":"0x1","removed":false,"topics":["0xddf252ad1be2c89b69c2b068fc378daa952ba7f163c4a11628f55a4df523b3ef","0x0000000000000000000000007185cccf4d8169d88ece6a6ef3d418a2097d0629","0x000000000000000000000000628f7131cf43e88ebe3921ae78c4ba0c31872bd4"],"transactionHash":"0x5469c48ce0aa9a9e4f4b4993619b00119156293c0736dec8cc1f0869dfe98e00","transactionIndex":"0x0"},{"address":"0x201eba5cc46d216ce6dc03f6a759e8e766e956ae","blockHash":"0x58a91cd706e04fd79f22bd80f7aa9796fb253a2a06f239396e9a6318653cc390","blockNumber":"0xd00104","data":"0xffffffffffffffffffffffffffffffffffffffffffffffffffffffff93aab16f","logIndex":"0x2","removed":false,"topics":["0x8c5be1e5ebec7d5bd14f71427d1e84f3dd0314c0f7b2291e5b200ac8c7c3b925","0x0000000000000000000000007185cccf4d8169d88ece6a6ef3d418a2097d0629","0x000000000000000000000000319b69888b0d11cec22caa5034e25fffbdc88421"],"transactionHash":"0x5469c48ce0aa9a9e4f4b4993619b00119156293c0736dec8cc1f0869dfe98e00","transactionIndex":"0x0"},{"address":"0x628f7131cf43e88ebe3921ae78c4ba0c31872bd4","blockHash":"0x58a91cd706e04fd79f22bd80f7aa9796fb253a2a06f239396e9a6318653cc390","blockNumber":"0xd00104","data":"0x00000000000000000000000000000000000000000000000000000000000ecd10fffffffffffffffffffffffffffffffffffffffffffffffffffdd36b313df59c000000000000000000000000000000000000621da050196fafcbbb39f01efe5c00000000000000000000000000000000000000000000000000002c65dde06c20000000000000000000000000000000000000000000000000000000000003178c00000000000000000000000000000000000000000000000000000000000000a40000000000000000000000000000000000000000000000000000000000000000","logIndex":"0x3","removed":false,"topics":["0x19b47279256b2a23a1665c810c8d55a1758940ee09377d4f8d26497a3577dc83","0x000000000000000000000000319b69888b0d11cec22caa5034e25fffbdc88421","0x0000000000000000000000007185cccf4d8169d88ece6a6ef3d418a2097d0629"],"transactionHash":"0x5469c48ce0aa9a9e4f4b4993619b00119156293c0736dec8cc1f0869dfe98e00","transactionIndex":"0x0"}],"logsBloom":"0x40000000000000000000000000000000000000000001008800000000000000000000000000000000000000000002000000000000000000000000000000200000840000008040000000000008000000000000008000002004000000000000000000000001000000000000000100000000000000000000000000000010000000000000000000000000000000000000000000000000000000000008000000000400060000000000000000000000000000000000000001000020000100000000000000000002000000000000000000000000000000000000000000000000000000000010000000001000000000000000000000000000000000000000000000000000","status":"0x1","transactionHash":"0x5469c48ce0aa9a9e4f4b4993619b00119156293c0736dec8cc1f0869dfe98e00"}}}