{"block":{"difficulty":"0x2","extraData":"0xd98301090a846765746889676f312e31352e3133856c696e7578000000000000c9f472a32cb036ec1b5e2cb212d580201d69e5f6f80f011792b52196d07a35192c2e4b78693ecba983f854cca0490eced5768ab15ea73f16fae51d0a21ce896300","gasLimit":"0x1c9c380","gasUsed":"0x204dd","hash":"0xce8cf9b10ec065bda9d95f4cf4b3ff5e31263209d6e7261240866db265910a8b","logsBloom":"0x0000000000000000000000000000000000004000000100880000000000000000000000000000000000000000200200000000000000200000004000000000000004800000004400000000000800000000000000c000002000000000000000000000000000000000000000000000000000000000100000800000000010008000000000000000000000000000000000000000000000000000000000000000000000000000000000000000000000000000000000000001000000000000000000000000000002000000000000000000000000002000000000000000000000000000000000000000000000000000000000000000000000000010000000000000000000","miner":"0x0000000000000000000000000000000000000000","mixHash":"0x0000000000000000000000000000000000000000000000000000000000000000","nonce":"0x0000000000000000","number":"0xcff386","parentHash":"0xad760cea43a9e9b6708c57f9fc53da27e658ff0cf900ad0033f9f5fa40950800","receiptsRoot":"0x09009dfceee000dd31ef9c1c5d59d08669eab0c7cbdb276ec88f530dfb443fba","sha3Uncles":"0x1dcc4de8dec75d7aab85b567b6ccd41ad312451b948a7413f0a142fd40d49347","size":"0x3d8","stateRoot":"0xec344efa882d82aa5c4fdb6e6a8432b74b450f2b684c97464e7584d437618672","timestamp":"0x65243743","totalDifficulty":"0x19fe70d","transactions":[{"blockHash":"0xce8cf9b10ec065bda9d95f4cf4b3ff5e31263209d6e7261240866db265910a8b","blockNumber":"0xcff386","from":"0x09760b795016a0126e36381939f23cf9c99c751b","gas":"0x21d08","gasPrice":"0x2faf080","hash":"0x22ff8405a0eb4d63e52d69b5e0399fbf62a338769a9c47245f2a1ac2ed6dd987","index":"0xcff385","input":"0x414bf38900000000000000000000000009bc4e0d864854c6afb6eb9a9cdf58ac190d0df9000000000000000000000000201eba5cc46d216ce6dc03f6a759e8e766e956ae000000000000000000000000000000000000000000000000000000000000006400000000000000000000000009760b795016a0126e36381939f23cf9c99c751b000000000000000000000000000000000000000000000000000000006524376100000000000000000000000000000000000000000000000000000000000d949000000000000000000000000000000000000000000000000000000000000d4d8d0000000000000000000000000000000000000000000000000000000000000000","l1BlockNumber":"0x117744e","l1Timestamp":"0x65243743","l1TxOrigin":null,"nonce":"0x104c","queueIndex":null,"queueOrigin":"sequencer","r":"0x77c39a51d12010d2b67f902e404cc4dd1e3765003c45fb2740ebe152ec417386","rawTransaction":"0xf9016e82104c8402faf08083021d0894319b69888b0d11cec22caa5034e25fffbdc8842180b90104414bf38900000000000000000000000009bc4e0d864854c6afb6eb9a9cdf58ac190d0df9000000000000000000000000201eba5cc46d216ce6dc03f6a759e8e766e956ae000000000000000000000000000000000000000000000000000000000000006400000000000000000000000009760b795016a0126e36381939f23cf9c99c751b000000000000000000000000000000000000000000000000000000006524376100000000000000000000000000000000000000000000000000000000000d949000000000000000000000000000000000000000000000000000000000000d4d8d0000000000000000000000000000000000000000000000000000000000000000822733a077c39a51d12010d2b67f902e404cc4dd1e3765003c45fb2740ebe152ec417386a03ff154412e43e98a5c488d9f2a59cb8a54265ea1d32dd8dd0cf87d5625a3e58c","s":"0x3ff154412e43e98a5c488d9f2a59cb8a54265ea1d32dd8dd0cf87d5625a3e58c","to":"0x319b69888b0d11cec22caa5034e25fffbdc88421","transactionIndex":"0x0","v":"0x2733","value":"0x0"}],"transactionsRoot":"0x18bdefaa0979619bd91f31f8f58afa93c83cce567dd92b4787c0ca99c654a711","uncles":[]},"receipts":{"0x22ff8405a0eb4d63e52d69b5e0399fbf62a338769a9c47245f2a1ac2ed6dd987":{"blockHash":"0xce8cf9b10ec065bda9d95f4cf4b3ff5e31263209d6e7261240866db265910a8b","blockNumber":"0xcff386","from":"0x09760b795016a0126e36381939f23cf9c99c751b","gas":"0x21d08","gasPrice":"0x2faf080","hash":"0x22ff8405a0eb4d63e52d69b5e0399fbf62a338769a9c47245f2a1ac2ed6dd987","index":"0xcff385","input":"0x414bf38900000000000000000000000009bc4e0d864854c6afb6eb9a9cdf58ac190d0df9000000000000000000000000201eba5cc46d216ce6dc03f6a759e8e766e956ae000000000000000000000000000000000000000000000000000000000000006400000000000000000000000009760b795016a0126e36381939f23cf9c99c751b000000000000000000000000000000000000000000000000000000006524376100000000000000000000000000000000000000000000000000000000000d949000000000000000000000000000000000000000000000000000000000000d4d8d0000000000000000000000000000000000000000000000000000000000000000","l1BlockNumber":"0x117744e","l1Timestamp":"0x65243743","l1TxOrigin":null,"nonce":"0x104c","queueIndex":null,"queueOrigin":"sequencer","r":"0x77c39a51d12010d2b67f902e404cc4dd1e3765003c45fb2740ebe152ec417386","rawTransaction":"0xf9016e82104c8402faf08083021d0894319b69888b0d11cec22caa5034e25fffbdc8842180b90104414bf38900000000000000000000000009bc4e0d864854c6afb6eb9a9cdf58ac190d0df9000000000000000000000000201eba5cc46d216ce6dc03f6a759e8e766e956ae000000000000000000000000000000000000000000000000000000000000006400000000000000000000000009760b795016a0126e36381939f23cf9c99c751b000000000000000000000000000000000000000000000000000000006524376100000000000000000000000000000000000000000000000000000000000d949000000000000000000000000000000000000000000000000000000000000d4d8d0000000000000000000000000000000000000000000000000000000000000000822733a077c39a51d12010d2b67f902e404cc4dd1e3765003c45fb2740ebe152ec417386a03ff154412e43e98a5c488d9f2a59cb8a54265ea1d32dd8dd0cf87d5625a3e58c","s":"0x3ff154412e43e98a5c488d9f2a59cb8a54265ea1d32dd8dd0cf87d5625a3e58c","to":"0x319b69888b0d11cec22caa5034e25fffbdc88421","transactionIndex":"0x0","v":"0x2733","value":"0x0","contractAddress":null,"cumulativeGasUsed":"0x204dd","daFee":"0x0","daGasPrice":"0x0","daGasUsed":"0x12c","gasUsed":"0x204dd","l1Fee":"0x1c5145ff7a866d0","l1FeeScalar":"1","l1GasPrice":"0x3f1249c65230","l1GasUsed":"0x72f","logs":[{"address":"0x201eba5cc46d216ce6dc03f6a759e8e766e956ae","blockHash":"0xce8cf9b10ec065bda9d95f4cf4b3ff5e31263209d6e7261240866db265910a8b","blockNumber":"0xcff386","data":"0x00000000000000000000000000000000000000000000000000000000000d930e","logIndex":"0x0","removed":false,"topics":["0xddf252ad1be2c89b69c2b068fc378daa952ba7f163c4a11628f55a4df523b3ef","0x0000000000000000000000006488f911c6cd86c289aa319c5a826dcf8f1ca065","0x00000000000000000000000009760b795016a0126e36381939f23cf9c99c751b"],"transactionHash":"0x22ff8405a0eb4d63e52d69b5e0399fbf62a338769a9c47245f2a1ac2ed6dd987","transactionIndex":"0x0"},{"address":"0x09bc4e0d864854c6afb6eb9a9cdf58ac190d0df9","blockHash":"0xce8cf9b10ec065bda9d95f4cf4b3ff5e31263209d6e7261240866db265910a8b","blockNumber":"0xcff386","data":"0x00000000000000000000000000000000000000000000000000000000000d9490","logIndex":"0x1","removed":false,"topics":["0xddf252ad1be2c89b69c2b068fc378daa952ba7f163c4a11628f55a4df523b3ef","0x00000000000000000000000009760b795016a0126e36381939f23cf9c99c751b","0x0000000000000000000000006488f911c6cd86c289aa319c5a826dcf8f1ca065"],"transactionHash":"0x22ff8405a0eb4d63e52d69b5e0399fbf62a338769a9c47245f2a1ac2ed6dd987","transactionIndex":"0x0"},{"address":"0x6488f911c6cd86c289aa319c5a826dcf8f1ca065","blockHash":"0xce8cf9b10ec065bda9d95f4cf4b3ff5e31263209d6e7261240866db265910a8b","blockNumber":"0xcff386","data":"0x00000000000000000000000000000000000000000000000000000000000d9490fffffffffffffffffffffffffffffffffffffffffffffffffffffffffff26cf20000000000000000000000000000000000000000fff51841f5f5c7eef9567add0000000000000000000000000000000000000000000000000000aa91ae904e92fffffffffffffffffffffffffffffffffffffffffffffffffffffffffffffffc000000000000000000000000000000000000000000000000000000000000001d0000000000000000000000000000000000000000000000000000000000000000","logIndex":"0x2","removed":false,"topics":["0x19b47279256b2a23a1665c810c8d55a1758940ee09377d4f8d26497a3577dc83","0x000000000000000000000000319b69888b0d11cec22caa5034e25fffbdc88421","0x00000000000000000000000009760b795016a0126e36381939f23cf9c99c751b"],"transactionHash":"0x22ff8405a0eb4d63e52d69b5e0399fbf62a338769a9c47245f2a1ac2ed6dd987","transactionIndex":"0x0"}],"logsBloom":"0x0000000000000000000000000000000000004000000100880000000000000000000000000000000000000000200200000000000000200000004000000000000004800000004400000000000800000000000000c000002000000000000000000000000000000000000000000000000000000000100000800000000010008000000000000000000000000000000000000000000000000000000000000000000000000000000000000000000000000000000000000001000000000000000000000000000002000000000000000000000000002000000000000000000000000000000000000000000000000000000000000000000000000010000000000000000000","status":"0x1","transactionHash":"0x22ff8405a0eb4d63e52d69b5e0399fbf62a338769a9c47245f2a1ac2ed6dd987"}}}