{"block":{"difficulty":"0x2","extraData":"0xd98301090a846765746889676f312e31352e3133856c696e7578000000000000cc51f4de282519056197830678ed25f3613baf7746dea73004f78d41fd5223ea36e8c3c91b52b18831fa3da8495ebbc0b33ee5fe716d6e44a61b3fbdaed1118c01","gasLimit":"0x1c9c380","gasUsed":"0x1d421","hash":"0xd5180382ba82cb0888f53dba8ed2b47ae2ff9765167253834249359259d5ca13","logsBloom":"0x00000000008000000000000000000000000000000001008800000000000000000004000000000000000000000002000000000000000001000000000200200000140000000040000000000008000000000000008000042000000200000000000000000000000000000000000000000080000000000000000000000010000000000000000000000000000000000000000000100000000000000000000000000040020000000000000000000000000200000000000001000000000000000000000000000002000000000000000000000000000000000000000000000010000000000010000000000000000000000000000000000000000000000000000000000000","miner":"0x0000000000000000000000000000000000000000","mixHash":"0x0000000000000000000000000000000000000000000000000000000000000000","nonce":"0x0000000000000000","number":"0xd00071","parentHash":"0x0bee37d018f8db07e52f3c26d8a76c3ebb026fac9416626b143a2f1163223d1f","receiptsRoot":"0x07094d1e88dd1cbe5f68a35573d53bc99ba69b375d393b73906d0bc680130e0d","sha3Uncles":"0x1dcc4de8dec75d7aab85b567b6ccd41ad312451b948a7413f0a142fd40d49347","size":"0x3d8","stateRoot":"0x8c4bc73d091978044650b0d83b10a87af625a24eefaa28d1000a8f5fe8887430","timestamp":"0x65243d01","totalDifficulty":"0x1a000e3","transactions":[{"blockHash":"0xd5180382ba82cb0888f53dba8ed2b47ae2ff9765167253834249359259d5ca13","blockNumber":"0xd00071","from":"0xa041f4819d7673dd51f92d8db10f64f53633ba13","gas":"0x1fae0","gasPrice":"0x2faf080","hash":"0x87df63edd3f31f1b8568b97b4a70766111d1c9daf2eb0f0a3811fbeb281d0b6d","index":"0xd00070","input":"0x414bf389000000000000000000000000201eba5cc46d216ce6dc03f6a759e8e766e956ae00000000000000000000000078c1b0c915c4faa5fffa6cabf0219da63d7f4cb800000000000000000000000000000000000000000000000000000000000001f4000000000000000000000000a041f4819d7673dd51f92d8db10f64f53633ba130000000000000000000000000000000000000000000000000000000065243d1f00000000000000000000000000000000000000000000000000000000000be6e00000000000000000000000000000000000000000000000001c5b5b4c0cf894110000000000000000000000000000000000000000000000000000000000000000","l1BlockNumber":"0x11774c8","l1Timestamp":"0x65243d01","l1TxOrigin":null,"nonce":"0x751","queueIndex":null,"queueOrigin":"sequencer","r":"0x624c8ee677b352b32730dacbe7ac915d14d5fc7e8a8f89dbe08e1e6a47f3ce50","rawTransaction":"0xf9016e8207518402faf0808301fae094319b69888b0d11cec22caa5034e25fffbdc8842180b90104414bf389000000000000000000000000201eba5cc46d216ce6dc03f6a759e8e766e956ae00000000000000000000000078c1b0c915c4faa5fffa6cabf0219da63d7f4cb800000000000000000000000000000000000000000000000000000000000001f4000000000000000000000000a041f4819d7673dd51f92d8db10f64f53633ba130000000000000000000000000000000000000000000000000000000065243d1f00000000000000000000000000000000000000000000000000000000000be6e00000000000000000000000000000000000000000000000001c5b5b4c0cf894110000000000000000000000000000000000000000000000000000000000000000822733a0624c8ee677b352b32730dacbe7ac915d14d5fc7e8a8f89dbe08e1e6a47f3ce50a030ac2ef8b5be87cdbb96ee4f7686df763fe13d0969108d00e237a82fa5e74cb5","s":"0x30ac2ef8b5be87cdbb96ee4f7686df763fe13d0969108d00e237a82fa5e74cb5","to":"0x319b69888b0d11cec22caa5034e25fffbdc88421","transactionIndex":"0x0","v":"0x2733","value":"0x0"}],"transactionsRoot":"0x8aea8e789701ac2b0ff39761aa3785a5b59c81628a82c96628e168d78859dd0f","uncles":[]},"receipts":{"0x87df63edd3f31f1b8568b97b4a70766111d1c9daf2eb0f0a3811fbeb281d0b6d":{"blockHash":"0xd5180382ba82cb0888f53dba8ed2b47ae2ff9765167253834249359259d5ca13","blockNumber":"0xd00071","from":"0xa041f4819d7673dd51f92d8db10f64f53633ba13","gas":"0x1fae0","gasPrice":"0x2faf080","hash":"0x87df63edd3f31f1b8568b97b4a70766111d1c9daf2eb0f0a3811fbeb281d0b6d","index":"0xd00070","input":"0x414bf389000000000000000000000000201eba5cc46d216ce6dc03f6a759e8e766e956ae00000000000000000000000078c1b0c915c4faa5fffa6cabf0219da63d7f4cb800000000000000000000000000000000000000000000000000000000000001f4000000000000000000000000a041f4819d7673dd51f92d8db10f64f53633ba130000000000000000000000000000000000000000000000000000000065243d1f00000000000000000000000000000000000000000000000000000000000be6e00000000000000000000000000000000000000000000000001c5b5b4c0cf894110000000000000000000000000000000000000000000000000000000000000000","l1BlockNumber":"0x11774c8","l1Timestamp":"0x65243d01","l1TxOrigin":null,"nonce":"0x751","queueIndex":null,"queueOrigin":"sequencer","r":"0x624c8ee677b352b32730dacbe7ac915d14d5fc7e8a8f89dbe08e1e6a47f3ce50","rawTransaction":"0xf9016e8207518402faf0808301fae094319b69888b0d11cec22caa5034e25fffbdc8842180b90104414bf389000000000000000000000000201eba5cc46d216ce6dc03f6a759e8e766e956ae00000000000000000000000078c1b0c915c4faa5fffa6cabf0219da63d7f4cb800000000000000000000000000000000000000000000000000000000000001f4000000000000000000000000a041f4819d7673dd51f92d8db10f64f53633ba130000000000000000000000000000000000000000000000000000000065243d1f00000000000000000000000000000000000000000000000000000000000be6e00000000000000000000000000000000000000000000000001c5b5b4c0cf894110000000000000000000000000000000000000000000000000000000000000000822733a0624c8ee677b352b32730dacbe7ac915d14d5fc7e8a8f89dbe08e1e6a47f3ce50a030ac2ef8b5be87cdbb96ee4f7686df763fe13d0969108d00e237a82fa5e74cb5","s":"0x30ac2ef8b5be87cdbb96ee4f7686df763fe13d0969108d00e237a82fa5e74cb5","to":"0x319b69888b0d11cec22caa5034e25fffbdc88421","transactionIndex":"0x0","v":"0x2733","value":"0x0","contractAddress":null,"cumulativeGasUsed":"0x1d421","daFee":"0x0","daGasPrice":"0x0","daGasUsed":"0x12c","gasUsed":"0x1d421","l1Fee":"0x1a09f6380cb9fe0","l1FeeScalar":"1","l1GasPrice":"0x39ff1464e55c","l1GasUsed":"0x72f","logs":[{"address":"0x78c1b0c915c4faa5fffa6cabf0219da63d7f4cb8","blockHash":"0xd5180382ba82cb0888f53dba8ed2b47ae2ff9765167253834249359259d5ca13","blockNumber":"0xd00071","data":"0x0000000000000000000000000000000000000000000000001cf03715bdc9859c","logIndex":"0x0","removed":false,"topics":["0xddf252ad1be2c89b69c2b068fc378daa952ba7f163c4a11628f55a4df523b3ef","0x000000000000000000000000d08c50f7e69e9aeb2867deff4a8053d9a855e26a","0x000000000000000000000000a041f4819d7673dd51f92d8db10f64f53633ba13"],"transactionHash":"0x87df63edd3f31f1b8568b97b4a70766111d1c9daf2eb0f0a3811fbeb281d0b6d","transactionIndex":"0x0"},{"address":"0x201eba5cc46d216ce6dc03f6a759e8e766e956ae","blockHash":"0xd5180382ba82cb0888f53dba8ed2b47ae2ff9765167253834249359259d5ca13","blockNumber":"0xd00071","data":"0x00000000000000000000000000000000000000000000000000000000000be6e0","logIndex":"0x1","removed":false,"topics":["0xddf252ad1be2c89b69c2b068fc378daa952ba7f163c4a11628f55a4df523b3ef","0x000000000000000000000000a041f4819d7673dd51f92d8db10f64f53633ba13","0x000000000000000000000000d08c50f7e69e9aeb2867deff4a8053d9a855e26a"],"transactionHash":"0x87df63edd3f31f1b8568b97b4a70766111d1c9daf2eb0f0a3811fbeb281d0b6d","transactionIndex":"0x0"},{"address":"0x201eba5cc46d216ce6dc03f6a759e8e766e956ae","blockHash":"0xd5180382ba82cb0888f53dba8ed2b47ae2ff9765167253834249359259d5ca13","blockNumber":"0xd00071","data":"0xffffffffffffffffffffffffffffffffffffffffffffffffffffffffd059355f","logIndex":"0x2","removed":false,"topics":["0x8c5be1e5ebec7d5bd14f71427d1e84f3dd0314c0f7b2291e5b200ac8c7c3b925","0x000000000000000000000000a041f4819d7673dd51f92d8db10f64f53633ba13","0x000000000000000000000000319b69888b0d11cec22caa5034e25fffbdc88421"],"transactionHash":"0x87df63edd3f31f1b8568b97b4a70766111d1c9daf2eb0f0a3811fbeb281d0b6d","transactionIndex":"0x0"},{"address":"0xd08c50f7e69e9aeb2867deff4a8053d9a855e26a","blockHash":"0xd5180382ba82cb0888f53dba8ed2b47ae2ff9765167253834249359259d5ca13","blockNumber":"0xd00071","data":"0x00000000000000000000000000000000000000000000000000000000000be6e0ffffffffffffffffffffffffffffffffffffffffffffffffe30fc8ea42367a64000000000000000000000000000000000018f458ed6e456d13fee25ac0648634000000000000000000000000000000000000000000000000006787d5d3ab8a8c0000000000000000000000000000000000000000000000000000000000045dd200000000000000000000000000000000000000000000000000000000000000840000000000000000000000000000000000000000000000000000000000000000","logIndex":"0x3","removed":false,"topics":["0x19b47279256b2a23a1665c810c8d55a1758940ee09377d4f8d26497a3577dc83","0x000000000000000000000000319b69888b0d11cec22caa5034e25fffbdc88421","0x000000000000000000000000a041f4819d7673dd51f92d8db10f64f53633ba13"],"transactionHash":"0x87df63edd3f31f1b8568b97b4a70766111d1c9daf2eb0f0a3811fbeb281d0b6d","transactionIndex":"0x0"}],"logsBloom":"0x00000000008000000000000000000000000000000001008800000000000000000004000000000000000000000002000000000000000001000000000200200000140000000040000000000008000000000000008000042000000200000000000000000000000000000000000000000080000000000000000000000010000000000000000000000000000000000000000000100000000000000000000000000040020000000000000000000000000200000000000001000000000000000000000000000002000000000000000000000000000000000000000000000010000000000010000000000000000000000000000000000000000000000000000000000000","status":"0x1","transactionHash":"0x87df63edd3f31f1b8568b97b4a70766111d1c9daf2eb0f0a3811fbeb281d0b6d"}}}