{"block":{"difficulty":"0x2","extraData":"0xd98301090a846765746889676f312e31352e3133856c696e7578000000000000d4563f50418f4152121b9778d89465890ce91a486100be31b22824c76b987e29654b27bfb51b84937ae6d0c419253703f8c1bd4d734d8bf5fd7df9f9f1d25f4600","gasLimit":"0x1c9c380","gasUsed":"0x1d2b6","hash":"0x5cfca976eeaf8efc10c15b4c0860c1f12e884a06537720ae35ccb6c1edc3cb34","logsBloom":"0x40000000000000000000000000000000000000000001008800000000000000000000000000000000000000000002000000000000000000000000000000200000840000000040000000000008000000000000008000002004000000000000000000000001000000000000000100000000000000004000000000000010000000000000000000000400000000000000000000000000000000000008000000000000020000000000000000000000000000000000000001000020000100000000000000000002000000400000000000000000000000000000000000000000000000000010000000001000000000000000000000000000000000000000000000000000","miner":"0x0000000000000000000000000000000000000000","mixHash":"0x0000000000000000000000000000000000000000000000000000000000000000","nonce":"0x0000000000000000","number":"0xd0027b","parentHash":"0x020874009718753644bebb67c9b290d49941d3697c8a226f0fa757c89929aef4","receiptsRoot":"0x9788c890a18ec40461fa53fad512ee04e55fcc5d38fe0206c39ef30ca93ead09","sha3Uncles":"0x1dcc4de8dec75d7aab85b567b6ccd41ad312451b948a7413f0a142fd40d49347","size":"0x3d8","stateRoot":"0xd4dd92f87fce88a1abc3cb12974fd8f2e7205db64426748e947ad1911a57d8e2","timestamp":"0x65243e11","totalDifficulty":"0x1a004f7","transactions":[{"blockHash":"0x5cfca976eeaf8efc10c15b4c0860c1f12e884a06537720ae35ccb6c1edc3cb34","blockNumber":"0xd0027b","from":"0x9a7dccd517be15c3fe5f35d1ef3ecf14ac5967dd","gas":"0x27216","gasPrice":"0x2faf080","hash":"0x92b9fa83937437bf24d2e19a65695fc6dce735c9c15d8dbda8cff99dedca56dd","index":"0xd0027a","input":"0x414bf389000000000000000000000000201eba5cc46d216ce6dc03f6a759e8e766e956ae000000000000000000000000deaddeaddeaddeaddeaddeaddeaddeaddead111100000000000000000000000000000000000000000000000000000000000001f40000000000000000000000009a7dccd517be15c3fe5f35d1ef3ecf14ac5967dd0000000000000000000000000000000000000000000000000000000065243e3100000000000000000000000000000000000000000000000000000000001117000000000000000000000000000000000000000000000000000002771227c2d7370000000000000000000000000000000000000000000000000000000000000000","l1BlockNumber":"0x11774df","l1Timestamp":"0x65243e11","l1TxOrigin":null,"nonce":"0xa55","queueIndex":null,"queueOrigin":"sequencer","r":"0x51ffede1bf0cbe7d4dde955dca3b2fb70aae9d424d4ac14666d798f6b1429939","rawTransaction":"0xf9016e820a558402faf0808302721694319b69888b0d11cec22caa5034e25fffbdc8842180b90104414bf389000000000000000000000000201eba5cc46d216ce6dc03f6a759e8e766e956ae000000000000000000000000deaddeaddeaddeaddeaddeaddeaddeaddead111100000000000000000000000000000000000000000000000000000000000001f40000000000000000000000009a7dccd517be15c3fe5f35d1ef3ecf14ac5967dd0000000000000000000000000000000000000000000000000000000065243e3100000000000000000000000000000000000000000000000000000000001117000000000000000000000000000000000000000000000000000002771227c2d7370000000000000000000000000000000000000000000000000000000000000000822733a051ffede1bf0cbe7d4dde955dca3b2fb70aae9d424d4ac14666d798f6b1429939a02807b0fa8d33971cd830f2bfdfbe2b7790d0557b51ebc03329598a6d24882800","s":"0x2807b0fa8d33971cd830f2bfdfbe2b7790d0557b51ebc03329598a6d24882800","to":"0x319b69888b0d11cec22caa5034e25fffbdc88421","transactionIndex":"0x0","v":"0x2733","value":"0x0"}],"transactionsRoot":"0xc3369c36301a0da04b85cf7b2ec0dfc543815440b576254240334cb900120c93","uncles":[]},"receipts":{"0x92b9fa83937437bf24d2e19a65695fc6dce735c9c15d8dbda8cff99dedca56dd":{"blockHash":"0x5cfca976eeaf8efc10c15b4c0860c1f12e884a06537720ae35ccb6c1edc3cb34","blockNumber":"0xd0027b","from":"0x9a7dccd517be15c3fe5f35d1ef3ecf14ac5967dd","gas":"0x27216","gasPrice":"0x2faf080","hash":"0x92b9fa83937437bf24d2e19a65695fc6dce735c9c15d8dbda8cff99dedca56dd","index":"0xd0027a","input":"0x414bf389000000000000000000000000201eba5cc46d216ce6dc03f6a759e8e766e956ae000000000000000000000000deaddeaddeaddeaddeaddeaddeaddeaddead111100000000000000000000000000000000000000000000000000000000000001f40000000000000000000000009a7dccd517be15c3fe5f35d1ef3ecf14ac5967dd0000000000000000000000000000000000000000000000000000000065243e3100000000000000000000000000000000000000000000000000000000001117000000000000000000000000000000000000000000000000000002771227c2d7370000000000000000000000000000000000000000000000000000000000000000","l1BlockNumber":"0x11774df","l1Timestamp":"0x65243e11","l1TxOrigin":null,"nonce":"0xa55","queueIndex":null,"queueOrigin":"sequencer","r":"0x51ffede1bf0cbe7d4dde955dca3b2fb70aae9d424d4ac14666d798f6b1429939","rawTransaction":"0xf9016e820a558402faf0808302721694319b69888b0d11cec22caa5034e25fffbdc8842180b90104414bf389000000000000000000000000201eba5cc46d216ce6dc03f6a759e8e766e956ae000000000000000000000000deaddeaddeaddeaddeaddeaddeaddeaddead111100000000000000000000000000000000000000000000000000000000000001f40000000000000000000000009a7dccd517be15c3fe5f35d1ef3ecf14ac5967dd0000000000000000000000000000000000000000000000000000000065243e3100000000000000000000000000000000000000000000000000000000001117000000000000000000000000000000000000000000000000000002771227c2d7370000000000000000000000000000000000000000000000000000000000000000822733a051ffede1bf0cbe7d4dde955dca3b2fb70aae9d424d4ac14666d798f6b1429939a02807b0fa8d33971cd830f2bfdfbe2b7790d0557b51ebc03329598a6d24882800","s":"0x2807b0fa8d33971cd830f2bfdfbe2b7790d0557b51ebc03329598a6d24882800","to":"0x319b69888b0d11cec22caa5034e25fffbdc88421","transactionIndex":"0x0","v":"0x2733","value":"0x0","contractAddress":null,"cumulativeGasUsed":"0x1d2b6","daFee":"0x0","daGasPrice":"0x0","daGasUsed":"0x12c","gasUsed":"0x1d2b6","l1Fee":"0x19709d787180660","l1FeeScalar":"1","l1GasPrice":"0x38a987f04864","l1GasUsed":"0x72f","logs":[{"address":"0xdeaddeaddeaddeaddeaddeaddeaddeaddead1111","blockHash":"0x5cfca976eeaf8efc10c15b4c0860c1f12e884a06537720ae35ccb6c1edc3cb34","blockNumber":"0xd0027b","data":"0x000000000000000000000000000000000000000000000000000284859c4ce721","logIndex":"0x0","removed":false,"topics":["0xddf252ad1be2c89b69c2b068fc378daa952ba7f163c4a11628f55a4df523b3ef","0x000000000000000000000000628f7131cf43e88ebe3921ae78c4ba0c31872bd4","0x0000000000000000000000009a7dccd517be15c3fe5f35d1ef3ecf14ac5967dd"],"transactionHash":"0x92b9fa83937437bf24d2e19a65695fc6dce735c9c15d8dbda8cff99dedca56dd","transactionIndex":"0x0"},{"address":"0x201eba5cc46d216ce6dc03f6a759e8e766e956ae","blockHash":"0x5cfca976eeaf8efc10c15b4c0860c1f12e884a06537720ae35ccb6c1edc3cb34","blockNumber":"0xd0027b","data":"0x0000000000000000000000000000000000000000000000000000000000111700","logIndex":"0x1","removed":false,"topics":["0xddf252ad1be2c89b69c2b068fc378daa952ba7f163c4a11628f55a4df523b3ef","0x0000000000000000000000009a7dccd517be15c3fe5f35d1ef3ecf14ac5967dd","0x000000000000000000000000628f7131cf43e88ebe3921ae78c4ba0c31872bd4"],"transactionHash":"0x92b9fa83937437bf24d2e19a65695fc6dce735c9c15d8dbda8cff99dedca56dd","transactionIndex":"0x0"},{"address":"0x201eba5cc46d216ce6dc03f6a759e8e766e956ae","blockHash":"0x5cfca976eeaf8efc10c15b4c0860c1f12e884a06537720ae35ccb6c1edc3cb34","blockNumber":"0xd0027b","data":"0xffffffffffffffffffffffffffffffffffffffffffffffffffffffffbd0b311f","logIndex":"0x2","removed":false,"topics":["0x8c5be1e5ebec7d5bd14f71427d1e84f3dd0314c0f7b2291e5b200ac8c7c3b925","0x0000000000000000000000009a7dccd517be15c3fe5f35d1ef3ecf14ac5967dd","0x000000000000000000000000319b69888b0d11cec22caa5034e25fffbdc88421"],"transactionHash":"0x92b9fa83937437bf24d2e19a65695fc6dce735c9c15d8dbda8cff99dedca56dd","transactionIndex":"0x0"},{"address":"0x628f7131cf43e88ebe3921ae78c4ba0c31872bd4","blockHash":"0x5cfca976eeaf8efc10c15b4c0860c1f12e884a06537720ae35ccb6c1edc3cb34","blockNumber":"0xd0027b","data":"0x0000000000000000000000000000000000000000000000000000000000111700fffffffffffffffffffffffffffffffffffffffffffffffffffd7b7a63b318df000000000000000000000000000000000000624131208a58168b527e923366d700000000000000000000000000000000000000000000000000002c69f6c7ad9d00000000000000000000000000000000000000000000000000000000000317a800000000000000000000000000000000000000000000000000000000000000be0000000000000000000000000000000000000000000000000000000000000000","logIndex":"0x3","removed":false,"topics":["0x19b47279256b2a23a1665c810c8d55a1758940ee09377d4f8d26497a3577dc83","0x000000000000000000000000319b69888b0d11cec22caa5034e25fffbdc88421","0x0000000000000000000000009a7dccd517be15c3fe5f35d1ef3ecf14ac5967dd"],"transactionHash":"0x92b9fa83937437bf24d2e19a65695fc6dce735c9c15d8dbda8cff99dedca56dd","transactionIndex":"0x0"}],"logsBloom":"0x40000000000000000000000000000000000000000001008800000000000000000000000000000000000000000002000000000000000000000000000000200000840000000040000000000008000000000000008000002004000000000000000000000001000000000000000100000000000000004000000000000010000000000000000000000400000000000000000000000000000000000008000000000000020000000000000000000000000000000000000001000020000100000000000000000002000000400000000000000000000000000000000000000000000000000010000000001000000000000000000000000000000000000000000000000000","status":"0x1","transactionHash":"0x92b9fa83937437bf24d2e19a65695fc6dce735c9c15d8dbda8cff99dedca56dd"}}}