{"block":{"difficulty":"0x2","extraData":"0xd98301090a846765746889676f312e31352e3133856c696e7578000000000000403aedcea13579ee81a7caaf45927d9105f07d7cfb0247d814e551c62f8119943764f2d8df8d64e31622ae2900c02f3dde778fd022dbda81169e668122d10c7f00","gasLimit":"0x1c9c380","gasUsed":"0x1d2b9","hash":"0xdaeef0fe882f72362fbfc9f6bc244cc7695bef4a6bd5aca3747cc41e207f4ba6","logsBloom":"0x40000000000000000000000000000000000000000001008800000000000000000000000000000000000000000002000000000000000000000000040000200400840000000040000000000008000000000000008000002004000000000000000000000001000000000000000100000000000000000000000000000010000000000000000000000000000000000000000000000000000000000008000000000000020000000000000000000000000000000000000001000020000100000000000000000002000000000000000000000000000000000000000000000000000000000010000000001000000000000000000000000000000000000000000000000000","miner":"0x0000000000000000000000000000000000000000","mixHash":"0x0000000000000000000000000000000000000000000000000000000000000000","nonce":"0x0000000000000000","number":"0xd0012a","parentHash":"0x84bbd23e2217d964f3eedbe5804e843a72f9d6bd363d1393e365dbf2051b2906","receiptsRoot":"0x63fafffb30447b1af78c19bbf6aef3da331bf28bcadf54c9de4b911726b3e73d","sha3Uncles":"0x1dcc4de8dec75d7aab85b567b6ccd41ad312451b948a7413f0a142fd40d49347","size":"0x3d8","stateRoot":"0x9033be0e0274f05054fb0a9d094dc3d4963caa85560e7781c8ee00da04f62ad9","timestamp":"0x65243d59","totalDifficulty":"0x1a00255","transactions":[{"blockHash":"0xdaeef0fe882f72362fbfc9f6bc244cc7695bef4a6bd5aca3747cc41e207f4ba6","blockNumber":"0xd0012a","from":"0xd61451b9c73a4fdbac68c246cec478d9aa8b5195","gas":"0x1f599","gasPrice":"0x2faf080","hash":"0x5f243093e0b26e12390246d62bf0aa18859091840097cbeb86b9c4506a900322","index":"0xd00129","input":"0x414bf389000000000000000000000000201eba5cc46d216ce6dc03f6a759e8e766e956ae000000000000000000000000deaddeaddeaddeaddeaddeaddeaddeaddead111100000000000000000000000000000000000000000000000000000000000001f4000000000000000000000000d61451b9c73a4fdbac68c246cec478d9aa8b51950000000000000000000000000000000000000000000000000000000065243d7900000000000000000000000000000000000000000000000000000000000fb770000000000000000000000000000000000000000000000000000242075082a9270000000000000000000000000000000000000000000000000000000000000000","l1BlockNumber":"0x11774d0","l1Timestamp":"0x65243d59","l1TxOrigin":null,"nonce":"0xf15","queueIndex":null,"queueOrigin":"sequencer","r":"0x599fc4a15ac3b4512f4b2816146c43d5f5574af4f284a20f16b8278fe944ceff","rawTransaction":"0xf9016e820f158402faf0808301f59994319b69888b0d11cec22caa5034e25fffbdc8842180b90104414bf389000000000000000000000000201eba5cc46d216ce6dc03f6a759e8e766e956ae000000000000000000000000deaddeaddeaddeaddeaddeaddeaddeaddead111100000000000000000000000000000000000000000000000000000000000001f4000000000000000000000000d61451b9c73a4fdbac68c246cec478d9aa8b51950000000000000000000000000000000000000000000000000000000065243d7900000000000000000000000000000000000000000000000000000000000fb770000000000000000000000000000000000000000000000000000242075082a9270000000000000000000000000000000000000000000000000000000000000000822734a0599fc4a15ac3b4512f4b2816146c43d5f5574af4f284a20f16b8278fe944ceffa032802d0fc6d877491a2ae5c6141beb4671ee72ddcf0d7bbb926fffd40d6767f1","s":"0x32802d0fc6d877491a2ae5c6141beb4671ee72ddcf0d7bbb926fffd40d6767f1","to":"0x319b69888b0d11cec22caa5034e25fffbdc88421","transactionIndex":"0x0","v":"0x2734","value":"0x0"}],"transactionsRoot":"0xde8175eeb8e7658a22695bf9df541dd7c6201cc46b3331809ffc4b54353e6218","uncles":[]},"receipts":{"0x5f243093e0b26e12390246d62bf0aa18859091840097cbeb86b9c4506a900322":{"blockHash":"0xdaeef0fe882f72362fbfc9f6bc244cc7695bef4a6bd5aca3747cc41e207f4ba6","blockNumber":"0xd0012a","from":"0xd61451b9c73a4fdbac68c246cec478d9aa8b5195","gas":"0x1f599","gasPrice":"0x2faf080","hash":"0x5f243093e0b26e12390246d62bf0aa18859091840097cbeb86b9c4506a900322","index":"0xd00129","input":"0x414bf389000000000000000000000000201eba5cc46d216ce6dc03f6a759e8e766e956ae000000000000000000000000deaddeaddeaddeaddeaddeaddeaddeaddead111100000000000000000000000000000000000000000000000000000000000001f4000000000000000000000000d61451b9c73a4fdbac68c246cec478d9aa8b51950000000000000000000000000000000000000000000000000000000065243d7900000000000000000000000000000000000000000000000000000000000fb770000000000000000000000000000000000000000000000000000242075082a9270000000000000000000000000000000000000000000000000000000000000000","l1BlockNumber":"0x11774d0","l1Timestamp":"0x65243d59","l1TxOrigin":null,"nonce":"0xf15","queueIndex":null,"queueOrigin":"sequencer","r":"0x599fc4a15ac3b4512f4b2816146c43d5f5574af4f284a20f16b8278fe944ceff","rawTransaction":"0xf9016e820f158402faf0808301f59994319b69888b0d11cec22caa5034e25fffbdc8842180b90104414bf389000000000000000000000000201eba5cc46d216ce6dc03f6a759e8e766e956ae000000000000000000000000deaddeaddeaddeaddeaddeaddeaddeaddead111100000000000000000000000000000000000000000000000000000000000001f4000000000000000000000000d61451b9c73a4fdbac68c246cec478d9aa8b51950000000000000000000000000000000000000000000000000000000065243d7900000000000000000000000000000000000000000000000000000000000fb770000000000000000000000000000000000000000000000000000242075082a9270000000000000000000000000000000000000000000000000000000000000000822734a0599fc4a15ac3b4512f4b2816146c43d5f5574af4f284a20f16b8278fe944ceffa032802d0fc6d877491a2ae5c6141beb4671ee72ddcf0d7bbb926fffd40d6767f1","s":"0x32802d0fc6d877491a2ae5c6141beb4671ee72ddcf0d7bbb926fffd40d6767f1","to":"0x319b69888b0d11cec22caa5034e25fffbdc88421","transactionIndex":"0x0","v":"0x2734","value":"0x0","contractAddress":null,"cumulativeGasUsed":"0x1d2b9","daFee":"0x0","daGasPrice":"0x0","daGasUsed":"0x12c","gasUsed":"0x1d2b9","l1Fee":"0x1a09f6380cb9fe0","l1FeeScalar":"1","l1GasPrice":"0x39ff1464e55c","l1GasUsed":"0x72f","logs":[{"address":"0xdeaddeaddeaddeaddeaddeaddeaddeaddead1111","blockHash":"0xdaeef0fe882f72362fbfc9f6bc244cc7695bef4a6bd5aca3747cc41e207f4ba6","blockNumber":"0xd0012a","data":"0x00000000000000000000000000000000000000000000000000024e70d80f2911","logIndex":"0x0","removed":false,"topics":["0xddf252ad1be2c89b69c2b068fc378daa952ba7f163c4a11628f55a4df523b3ef","0x000000000000000000000000628f7131cf43e88ebe3921ae78c4ba0c31872bd4","0x000000000000000000000000d61451b9c73a4fdbac68c246cec478d9aa8b5195"],"transactionHash":"0x5f243093e0b26e12390246d62bf0aa18859091840097cbeb86b9c4506a900322","transactionIndex":"0x0"},{"address":"0x201eba5cc46d216ce6dc03f6a759e8e766e956ae","blockHash":"0xdaeef0fe882f72362fbfc9f6bc244cc7695bef4a6bd5aca3747cc41e207f4ba6","blockNumber":"0xd0012a","data":"0x00000000000000000000000000000000000000000000000000000000000fb770","logIndex":"0x1","removed":false,"topics":["0xddf252ad1be2c89b69c2b068fc378daa952ba7f163c4a11628f55a4df523b3ef","0x000000000000000000000000d61451b9c73a4fdbac68c246cec478d9aa8b5195","0x000000000000000000000000628f7131cf43e88ebe3921ae78c4ba0c31872bd4"],"transactionHash":"0x5f243093e0b26e12390246d62bf0aa18859091840097cbeb86b9c4506a900322","transactionIndex":"0x0"},{"address":"0x201eba5cc46d216ce6dc03f6a759e8e766e956ae","blockHash":"0xdaeef0fe882f72362fbfc9f6bc244cc7695bef4a6bd5aca3747cc41e207f4ba6","blockNumber":"0xd0012a","data":"0xffffffffffffffffffffffffffffffffffffffffffffffffffffffff9a57383f","logIndex":"0x2","removed":false,"topics":["0x8c5be1e5ebec7d5bd14f71427d1e84f3dd0314c0f7b2291e5b200ac8c7c3b925","0x000000000000000000000000d61451b9c73a4fdbac68c246cec478d9aa8b5195","0x000000000000000000000000319b69888b0d11cec22caa5034e25fffbdc88421"],"transactionHash":"0x5f243093e0b26e12390246d62bf0aa18859091840097cbeb86b9c4506a900322","transactionIndex":"0x0"},{"address":"0x628f7131cf43e88ebe3921ae78c4ba0c31872bd4","blockHash":"0xdaeef0fe882f72362fbfc9f6bc244cc7695bef4a6bd5aca3747cc41e207f4ba6","blockNumber":"0xd0012a","data":"0x00000000000000000000000000000000000000000000000000000000000fb770fffffffffffffffffffffffffffffffffffffffffffffffffffdb18f27f0d6ef00000000000000000000000000000000000062112a4714304e69fe58dd75c0aa00000000000000000000000000000000000000000000000000002c65dde06c20000000000000000000000000000000000000000000000000000000000003178200000000000000000000000000000000000000000000000000000000000000af0000000000000000000000000000000000000000000000000000000000000000","logIndex":"0x3","removed":false,"topics":["0x19b47279256b2a23a1665c810c8d55a1758940ee09377d4f8d26497a3577dc83","0x000000000000000000000000319b69888b0d11cec22caa5034e25fffbdc88421","0x000000000000000000000000d61451b9c73a4fdbac68c246cec478d9aa8b5195"],"transactionHash":"0x5f243093e0b26e12390246d62bf0aa18859091840097cbeb86b9c4506a900322","transactionIndex":"0x0"}],"logsBloom":"0x40000000000000000000000000000000000000000001008800000000000000000000000000000000000000000002000000000000000000000000040000200400840000000040000000000008000000000000008000002004000000000000000000000001000000000000000100000000000000000000000000000010000000000000000000000000000000000000000000000000000000000008000000000000020000000000000000000000000000000000000001000020000100000000000000000002000000000000000000000000000000000000000000000000000000000010000000001000000000000000000000000000000000000000000000000000","status":"0x1","transactionHash":"0x5f243093e0b26e12390246d62bf0aa18859091840097cbeb86b9c4506a900322"}}}