{"block":{"difficulty":"0x2","extraData":"0xd98301090a846765746889676f312e31352e3133856c696e757800000000000073a7ddddcc9a85ca719fe41848ab172cdb1fbf3dd48d4471ec99ee1a49613fa556bd27db1ac08cb27794d0940c221035827d8e374246e822ff3268297e7fd63c01","gasLimit":"0x1c9c380","gasUsed":"0x254ee","hash":"0x2dff131838305afeabb7d33d4b0aefc93e5305c5b8d51637f62c6f08a7b1109d","logsBloom":"0x00000000000000000000000000000000000000020001008800000000000000000004000000000000000000000002000000000000000000000000000000200000140000000040000000000008000000000000008000042000000200000000000000040000000000000000000000000080000000000000000000000010000000000000000000000000000000000000000000100000000000000000000000000040020000000000000000000000000200000000000001000000000000000000000000000002000000000000000000000000000000000080000000000010000000000010000000000000000000000000000000000000000000000000000000000000","miner":"0x0000000000000000000000000000000000000000","mixHash":"0x0000000000000000000000000000000000000000000000000000000000000000","nonce":"0x0000000000000000","number":"0xd00105","parentHash":"0x58a91cd706e04fd79f22bd80f7aa9796fb253a2a06f239396e9a6318653cc390","receiptsRoot":"0xc6079673d5f3439715b2b901e84c653f571bf08d25406b5289628ddb4c7028d6","sha3Uncles":"0x1dcc4de8dec75d7aab85b567b6ccd41ad312451b948a7413f0a142fd40d49347","size":"0x3d8","stateRoot":"0x7e6600d171eca2a9119879ad3d2207636b5318be206553a6f615b1dcd743d902","timestamp":"0x65243d44","totalDifficulty":"0x1a0020b","transactions":[{"blockHash":"0x2dff131838305afeabb7d33d4b0aefc93e5305c5b8d51637f62c6f08a7b1109d","blockNumber":"0xd00105","from":"0xfa79106e9f5e62929848ee965b8fba1ec1f93325","gas":"0x26e53","gasPrice":"0x2faf080","hash":"0x2a70e77540bba00c455c629ff0a723142969b47a94b136edb3a2a423771c6fc5","index":"0xd00104","input":"0x414bf38900000000000000000000000078c1b0c915c4faa5fffa6cabf0219da63d7f4cb8000000000000000000000000201eba5cc46d216ce6dc03f6a759e8e766e956ae00000000000000000000000000000000000000000000000000000000000001f4000000000000000000000000fa79106e9f5e62929848ee965b8fba1ec1f933250000000000000000000000000000000000000000000000000000000065243d620000000000000000000000000000000000000000000000001ecf063ce95e000000000000000000000000000000000000000000000000000000000000000c688b0000000000000000000000000000000000000000000000000000000000000000","l1BlockNumber":"0x11774ce","l1Timestamp":"0x65243d44","l1TxOrigin":null,"nonce":"0x1405","queueIndex":null,"queueOrigin":"sequencer","r":"0xaae1e5f4e6a416085b88ccba8cdc2dcc67178f5ae0ce4c7def98ef653283b054","rawTransaction":"0xf9016e8214058402faf08083026e5394319b69888b0d11cec22caa5034e25fffbdc8842180b90104414bf38900000000000000000000000078c1b0c915c4faa5fffa6cabf0219da63d7f4cb8000000000000000000000000201eba5cc46d216ce6dc03f6a759e8e766e956ae00000000000000000000000000000000000000000000000000000000000001f4000000000000000000000000fa79106e9f5e62929848ee965b8fba1ec1f933250000000000000000000000000000000000000000000000000000000065243d620000000000000000000000000000000000000000000000001ecf063ce95e000000000000000000000000000000000000000000000000000000000000000c688b0000000000000000000000000000000000000000000000000000000000000000822733a0aae1e5f4e6a416085b88ccba8cdc2dcc67178f5ae0ce4c7def98ef653283b054a01381ce59c6489d8c868d63ec5bad54488aba5a68e7fd5da63a65cb40e09574a1","s":"0x1381ce59c6489d8c868d63ec5bad54488aba5a68e7fd5da63a65cb40e09574a1","to":"0x319b69888b0d11cec22caa5034e25fffbdc88421","transactionIndex":"0x0","v":"0x2733","value":"0x0"}],"transactionsRoot":"0x24870c288adec49f99cbe4c12d74b5b7f7af7dcfa6bfd70152ede4fbe939ae27","uncles":[]},"receipts":{"0x2a70e77540bba00c455c629ff0a723142969b47a94b136edb3a2a423771c6fc5":{"blockHash":"0x2dff131838305afeabb7d33d4b0aefc93e5305c5b8d51637f62c6f08a7b1109d","blockNumber":"0xd00105","from":"0xfa79106e9f5e62929848ee965b8fba1ec1f93325","gas":"0x26e53","gasPrice":"0x2faf080","hash":"0x2a70e77540bba00c455c629ff0a723142969b47a94b136edb3a2a423771c6fc5","index":"0xd00104","input":"0x414bf38900000000000000000000000078c1b0c915c4faa5fffa6cabf0219da63d7f4cb8000000000000000000000000201eba5cc46d216ce6dc03f6a759e8e766e956ae00000000000000000000000000000000000000000000000000000000000001f4000000000000000000000000fa79106e9f5e62929848ee965b8fba1ec1f933250000000000000000000000000000000000000000000000000000000065243d620000000000000000000000000000000000000000000000001ecf063ce95e000000000000000000000000000000000000000000000000000000000000000c688b0000000000000000000000000000000000000000000000000000000000000000","l1BlockNumber":"0x11774ce","l1Timestamp":"0x65243d44","l1TxOrigin":null,"nonce":"0x1405","queueIndex":null,"queueOrigin":"sequencer","r":"0xaae1e5f4e6a416085b88ccba8cdc2dcc67178f5ae0ce4c7def98ef653283b054","rawTransaction":"0xf9016e8214058402faf08083026e5394319b69888b0d11cec22caa5034e25fffbdc8842180b90104414bf38900000000000000000000000078c1b0c915c4faa5fffa6cabf0219da63d7f4cb8000000000000000000000000201eba5cc46d216ce6dc03f6a759e8e766e956ae00000000000000000000000000000000000000000000000000000000000001f4000000000000000000000000fa79106e9f5e62929848ee965b8fba1ec1f933250000000000000000000000000000000000000000000000000000000065243d620000000000000000000000000000000000000000000000001ecf063ce95e000000000000000000000000000000000000000000000000000000000000000c688b0000000000000000000000000000000000000000000000000000000000000000822733a0aae1e5f4e6a416085b88ccba8cdc2dcc67178f5ae0ce4c7def98ef653283b054a01381ce59c6489d8c868d63ec5bad54488aba5a68e7fd5da63a65cb40e09574a1","s":"0x1381ce59c6489d8c868d63ec5bad54488aba5a68e7fd5da63a65cb40e09574a1","to":"0x319b69888b0d11cec22caa5034e25fffbdc88421","transactionIndex":"0x0","v":"0x2733","value":"0x0","contractAddress":null,"cumulativeGasUsed":"0x254ee","daFee":"0x0","daGasPrice":"0x0","daGasUsed":"0x12c","gasUsed":"0x254ee","l1Fee":"0x1a09f6380cb9fe0","l1FeeScalar":"1","l1GasPrice":"0x39ff1464e55c","l1GasUsed":"0x72f","logs":[{"address":"0x201eba5cc46d216ce6dc03f6a759e8e766e956ae","blockHash":"0x2dff131838305afeabb7d33d4b0aefc93e5305c5b8d51637f62c6f08a7b1109d","blockNumber":"0xd00105","data":"0x00000000000000000000000000000000000000000000000000000000000ca95f","logIndex":"0x0","removed":false,"topics":["0xddf252ad1be2c89b69c2b068fc378daa952ba7f163c4a11628f55a4df523b3ef","0x000000000000000000000000d08c50f7e69e9aeb2867deff4a8053d9a855e26a","0x000000000000000000000000fa79106e9f5e62929848ee965b8fba1ec1f93325"],"transactionHash":"0x2a70e77540bba00c455c629ff0a723142969b47a94b136edb3a2a423771c6fc5","transactionIndex":"0x0"},{"address":"0x78c1b0c915c4faa5fffa6cabf0219da63d7f4cb8","blockHash":"0x2dff131838305afeabb7d33d4b0aefc93e5305c5b8d51637f62c6f08a7b1109d","blockNumber":"0xd00105","data":"0x0000000000000000000000000000000000000000000000001ecf063ce95e0000","logIndex":"0x1","removed":false,"topics":["0xddf252ad1be2c89b69c2b068fc378daa952ba7f163c4a11628f55a4df523b3ef","0x000000000000000000000000fa79106e9f5e62929848ee965b8fba1ec1f93325","0x000000000000000000000000d08c50f7e69e9aeb2867deff4a8053d9a855e26a"],"transactionHash":"0x2a70e77540bba00c455c629ff0a723142969b47a94b136edb3a2a423771c6fc5","transactionIndex":"0x0"},{"address":"0x78c1b0c915c4faa5fffa6cabf0219da63d7f4cb8","blockHash":"0x2dff131838305afeabb7d33d4b0aefc93e5305c5b8d51637f62c6f08a7b1109d","blockNumber":"0xd00105","data":"0xffffffffffffffffffffffffffffffffffffffffffffffa3273c3a6124f7ffff","logIndex":"0x2","removed":false,"topics":["0x8c5be1e5ebec7d5bd14f71427d1e84f3dd0314c0f7b2291e5b200ac8c7c3b925","0x000000000000000000000000fa79106e9f5e62929848ee965b8fba1ec1f93325","0x000000000000000000000000319b69888b0d11cec22caa5034e25fffbdc88421"],"transactionHash":"0x2a70e77540bba00c455c629ff0a723142969b47a94b136edb3a2a423771c6fc5","transactionIndex":"0x0"},{"address":"0xd08c50f7e69e9aeb2867deff4a8053d9a855e26a","blockHash":"0x2dff131838305afeabb7d33d4b0aefc93e5305c5b8d51637f62c6f08a7b1109d","blockNumber":"0xd00105","data":"0xfffffffffffffffffffffffffffffffffffffffffffffffffffffffffff356a10000000000000000000000000000000000000000000000001ecf063ce95e0000000000000000000000000000000000000018f3d583eea3dd6ba56889932fb0eb000000000000000000000000000000000000000000000000006787d5d3ab8a8c0000000000000000000000000000000000000000000000000000000000045dd000000000000000000000000000000000000000000000000000000000000000000000000000000000000000000000000000000000000000000001573e48f03000","logIndex":"0x3","removed":false,"topics":["0x19b47279256b2a23a1665c810c8d55a1758940ee09377d4f8d26497a3577dc83","0x000000000000000000000000319b69888b0d11cec22caa5034e25fffbdc88421","0x000000000000000000000000fa79106e9f5e62929848ee965b8fba1ec1f93325"],"transactionHash":"0x2a70e77540bba00c455c629ff0a723142969b47a94b136edb3a2a423771c6fc5","transactionIndex":"0x0"}],"logsBloom":"0x00000000000000000000000000000000000000020001008800000000000000000004000000000000000000000002000000000000000000000000000000200000140000000040000000000008000000000000008000042000000200000000000000040000000000000000000000000080000000000000000000000010000000000000000000000000000000000000000000100000000000000000000000000040020000000000000000000000000200000000000001000000000000000000000000000002000000000000000000000000000000000080000000000010000000000010000000000000000000000000000000000000000000000000000000000000","status":"0x1","transactionHash":"0x2a70e77540bba00c455c629ff0a723142969b47a94b136edb3a2a423771c6fc5"}}}