{"block":{"difficulty":"0x2","extraData":"0xd98301090a846765746889676f312e31352e3133856c696e757800000000000019f2ea4724f7d09490122a0352d3e32c5dd0909c3c46b3ca540cd70cb0d6b28e08fc99a1ca4f6df6f1d18c99607a3715909b1afeb0ecb7fe78310bb0b55d151d01","gasLimit":"0x1c9c380","gasUsed":"0x1e04f","hash":"0xd0049a6757d34e5425861fa00b92e19f59e96cc1120d2a1c97f6de1b922eefd3","logsBloom":"0x00000000000000000000000000000000000000000004008800000000000000080000000000000000000000000002000000000000000000000000000000200000140000000040000000000008001000804000000000040000000000000000000000000000000000000000000100000000000000000000000000000012000000000000000000000000000000000800000000100002000000000000000000000000020000000000000000000000000000000000000001000000000100000000000000000002000000000000000000000000000000000000000000000000000000000010000000001000000000000000000000000000000000000000100000000000","miner":"0x0000000000000000000000000000000000000000","mixHash":"0x0000000000000000000000000000000000000000000000000000000000000000","nonce":"0x0000000000000000","number":"0xd00320","parentHash":"0x7e3466b589853c2985f66b775bd64d344b7577b9392a8a28de0f627e75f5f511","receiptsRoot":"0x43ce3dae9f7f1acf8a666a6400a972d642a03ce466f3b4d8fb95ac069273d262","sha3Uncles":"0x1dcc4de8dec75d7aab85b567b6ccd41ad312451b948a7413f0a142fd40d49347","size":"0x3d9","stateRoot":"0xaadaa61f973ca01953367fb06be6e5f767154a0d71a520cb52c5ff024525a998","timestamp":"0x65243e61","totalDifficulty":"0x1a00641","transactions":[{"blockHash":"0xd0049a6757d34e5425861fa00b92e19f59e96cc1120d2a1c97f6de1b922eefd3","blockNumber":"0xd00320","from":"0xdff45a3a21f00f7edfb28816e8589c337421cc91","gas":"0xf4240","gasPrice":"0x69f4060","hash":"0x82ca83336de7f72969dc3f8435a1fae85daa69fd49c9876bb86de31fee65669a","index":"0xd0031f","input":"0x414bf38900000000000000000000000078c1b0c915c4faa5fffa6cabf0219da63d7f4cb8000000000000000000000000deaddeaddeaddeaddeaddeaddeaddeaddead111100000000000000000000000000000000000000000000000000000000000001f4000000000000000000000000dff45a3a21f00f7edfb28816e8589c337421cc91000000000000000000000000000000000000000000000000000002c726d6a81800000000000000000000000000000000000000000000021e19e0c9bab240000000000000000000000000000000000000000000000000000020caa67a99744000000000000000000000000000000000000000000003bbb39dc0b649630deef0a5","l1BlockNumber":"0x11774e6","l1Timestamp":"0x65243e61","l1TxOrigin":null,"nonce":"0x2adf5","queueIndex":null,"queueOrigin":"sequencer","r":"0xdc96df179ecfc0ff83609237e9b2f975f73fbdeef2c118cebf8f7eedc6ccfdf7","rawTransaction":"0xf9016f8302adf584069f4060830f424094319b69888b0d11cec22caa5034e25fffbdc8842180b90104414bf38900000000000000000000000078c1b0c915c4faa5fffa6cabf0219da63d7f4cb8000000000000000000000000deaddeaddeaddeaddeaddeaddeaddeaddead111100000000000000000000000000000000000000000000000000000000000001f4000000000000000000000000dff45a3a21f00f7edfb28816e8589c337421cc91000000000000000000000000000000000000000000000000000002c726d6a81800000000000000000000000000000000000000000000021e19e0c9bab240000000000000000000000000000000000000000000000000000020caa67a99744000000000000000000000000000000000000000000003bbb39dc0b649630deef0a5822733a0dc96df179ecfc0ff83609237e9b2f975f73fbdeef2c118cebf8f7eedc6ccfdf7a0204027e0eada8e2e2fdba9645aab05c7ebf3bffb365e97c6a7c0849d712408bf","s":"0x204027e0eada8e2e2fdba9645aab05c7ebf3bffb365e97c6a7c0849d712408bf","to":"0x319b69888b0d11cec22caa5034e25fffbdc88421","transactionIndex":"0x0","v":"0x2733","value":"0x0"}],"transactionsRoot":"0xfd65d6f3ecd0ee27752c011bea8a6987bb3b5bd9dc25997cbf5b3880fc8d3ccc","uncles":[]},"receipts":{"0x82ca83336de7f72969dc3f8435a1fae85daa69fd49c9876bb86de31fee65669a":{"blockHash":"0xd0049a6757d34e5425861fa00b92e19f59e96cc1120d2a1c97f6de1b922eefd3","blockNumber":"0xd00320","from":"0xdff45a3a21f00f7edfb28816e8589c337421cc91","gas":"0xf4240","gasPrice":"0x69f4060","hash":"0x82ca83336de7f72969dc3f8435a1fae85daa69fd49c9876bb86de31fee65669a","index":"0xd0031f","input":"0x414bf38900000000000000000000000078c1b0c915c4faa5fffa6cabf0219da63d7f4cb8000000000000000000000000deaddeaddeaddeaddeaddeaddeaddeaddead111100000000000000000000000000000000000000000000000000000000000001f4000000000000000000000000dff45a3a21f00f7edfb28816e8589c337421cc91000000000000000000000000000000000000000000000000000002c726d6a81800000000000000000000000000000000000000000000021e19e0c9bab240000000000000000000000000000000000000000000000000000020caa67a99744000000000000000000000000000000000000000000003bbb39dc0b649630deef0a5","l1BlockNumber":"0x11774e6","l1Timestamp":"0x65243e61","l1TxOrigin":null,"nonce":"0x2adf5","queueIndex":null,"queueOrigin":"sequencer","r":"0xdc96df179ecfc0ff83609237e9b2f975f73fbdeef2c118cebf8f7eedc6ccfdf7","rawTransaction":"0xf9016f8302adf584069f4060830f424094319b69888b0d11cec22caa5034e25fffbdc8842180b90104414bf38900000000000000000000000078c1b0c915c4faa5fffa6cabf0219da63d7f4cb8000000000000000000000000deaddeaddeaddeaddeaddeaddeaddeaddead111100000000000000000000000000000000000000000000000000000000000001f4000000000000000000000000dff45a3a21f00f7edfb28816e8589c337421cc91000000000000000000000000000000000000000000000000000002c726d6a81800000000000000000000000000000000000000000000021e19e0c9bab240000000000000000000000000000000000000000000000000000020caa67a99744000000000000000000000000000000000000000000003bbb39dc0b649630deef0a5822733a0dc96df179ecfc0ff83609237e9b2f975f73fbdeef2c118cebf8f7eedc6ccfdf7a0204027e0eada8e2e2fdba9645aab05c7ebf3bffb365e97c6a7c0849d712408bf","s":"0x204027e0eada8e2e2fdba9645aab05c7ebf3bffb365e97c6a7c0849d712408bf","to":"0x319b69888b0d11cec22caa5034e25fffbdc88421","transactionIndex":"0x0","v":"0x2733","value":"0x0","contractAddress":null,"cumulativeGasUsed":"0x1e04f","daFee":"0x0","daGasPrice":"0x0","daGasUsed":"0x12d","gasUsed":"0x1e04f","l1Fee":"0x19709d787180660","l1FeeScalar":"1","l1GasPrice":"0x38a987f04864","l1GasUsed":"0x72f","logs":[{"address":"0xdeaddeaddeaddeaddeaddeaddeaddeaddead1111","blockHash":"0xd0049a6757d34e5425861fa00b92e19f59e96cc1120d2a1c97f6de1b922eefd3","blockNumber":"0xd00320","data":"0x00000000000000000000000000000000000000000000000020cbe8beb31efef0","logIndex":"0x0","removed":false,"topics":["0xddf252ad1be2c89b69c2b068fc378daa952ba7f163c4a11628f55a4df523b3ef","0x00000000000000000000000054169896d28dec0ffabe3b16f90f71323774949f","0x000000000000000000000000dff45a3a21f00f7edfb28816e8589c337421cc91"],"transactionHash":"0x82ca83336de7f72969dc3f8435a1fae85daa69fd49c9876bb86de31fee65669a","transactionIndex":"0x0"},{"address":"0x78c1b0c915c4faa5fffa6cabf0219da63d7f4cb8","blockHash":"0xd0049a6757d34e5425861fa00b92e19f59e96cc1120d2a1c97f6de1b922eefd3","blockNumber":"0xd00320","data":"0x00000000000000000000000000000000000000000000021e19e0c9bab2400000","logIndex":"0x1","removed":false,"topics":["0xddf252ad1be2c89b69c2b068fc378daa952ba7f163c4a11628f55a4df523b3ef","0x000000000000000000000000dff45a3a21f00f7edfb28816e8589c337421cc91","0x00000000000000000000000054169896d28dec0ffabe3b16f90f71323774949f"],"transactionHash":"0x82ca83336de7f72969dc3f8435a1fae85daa69fd49c9876bb86de31fee65669a","transactionIndex":"0x0"},{"address":"0x78c1b0c915c4faa5fffa6cabf0219da63d7f4cb8","blockHash":"0xd0049a6757d34e5425861fa00b92e19f59e96cc1120d2a1c97f6de1b922eefd3","blockNumber":"0xd00320","data":"0x00000000000000000000000000000000000000001feb335091b2eba2911c0000","logIndex":"0x2","removed":false,"topics":["0x8c5be1e5ebec7d5bd14f71427d1e84f3dd0314c0f7b2291e5b200ac8c7c3b925","0x000000000000000000000000dff45a3a21f00f7edfb28816e8589c337421cc91","0x000000000000000000000000319b69888b0d11cec22caa5034e25fffbdc88421"],"transactionHash":"0x82ca83336de7f72969dc3f8435a1fae85daa69fd49c9876bb86de31fee65669a","transactionIndex":"0x0"},{"address":"0x54169896d28dec0ffabe3b16f90f71323774949f","blockHash":"0xd0049a6757d34e5425861fa00b92e19f59e96cc1120d2a1c97f6de1b922eefd3","blockNumber":"0xd00320","data":"0x00000000000000000000000000000000000000000000021e19e0c9bab2400000ffffffffffffffffffffffffffffffffffffffffffffffffdf3417414ce10110000000000000000000000000000000000000000003ef8f24872f638f236855aa000000000000000000000000000000000000000000006282171fd01b3b41c5c6fffffffffffffffffffffffffffffffffffffffffffffffffffffffffffeb9ce00000000000000000000000000000000000000000000000017979cfe362a00000000000000000000000000000000000000000000000000000000000000000000","logIndex":"0x3","removed":false,"topics":["0x19b47279256b2a23a1665c810c8d55a1758940ee09377d4f8d26497a3577dc83","0x000000000000000000000000319b69888b0d11cec22caa5034e25fffbdc88421","0x000000000000000000000000dff45a3a21f00f7edfb28816e8589c337421cc91"],"transactionHash":"0x82ca83336de7f72969dc3f8435a1fae85daa69fd49c9876bb86de31fee65669a","transactionIndex":"0x0"}],"logsBloom":"0x00000000000000000000000000000000000000000004008800000000000000080000000000000000000000000002000000000000000000000000000000200000140000000040000000000008001000804000000000040000000000000000000000000000000000000000000100000000000000000000000000000012000000000000000000000000000000000800000000100002000000000000000000000000020000000000000000000000000000000000000001000000000100000000000000000002000000000000000000000000000000000000000000000000000000000010000000001000000000000000000000000000000000000000100000000000","status":"0x1","transactionHash":"0x82ca83336de7f72969dc3f8435a1fae85daa69fd49c9876bb86de31fee65669a"}}}