{"block":{"difficulty":"0x2","extraData":"0xd98301090a846765746889676f312e31352e3133856c696e7578000000000000b9489b7350757860a34dc80723d3370ab5cb2bd32f7eb5a53363eeb3006d1bca0f1e0d584fa7364ad4f7c9f9d773717ed6d1719e7cdc38aa95eb5e1ff5344bd100","gasLimit":"0x1c9c380","gasUsed":"0x233c1","hash":"0x0378f2177aff49967e44b6e2f00c618e64b0ceba6d4f489e69fbfe7fc2a785e9","logsBloom":"0x00040000000010000000000000000080000000000001000000000000000000000000000000000000000000000002000000000000000000000000000000200000140000000040000000000008000000000000008000042000000000000000000000000000000000000000000000010000000000000000000000000010000000000000000100000000000000000000040000100000040000000000000040000000020000000000000000000000000000000000000000000000004000000000000000000042000000000000000000000000010000000000000000000000000000000010000000000000000000000000000000000000000000000000002000000000","miner":"0x0000000000000000000000000000000000000000","mixHash":"0x0000000000000000000000000000000000000000000000000000000000000000","nonce":"0x0000000000000000","number":"0xcff37a","parentHash":"0x56e3033f133aebdcef0df1db7e3cf62ce7349f1988466eeb66c38bc8a2fd8019","receiptsRoot":"0xefa17d06dc1c0f6e13d4ea019b813900c16108b34988b0e6e669c9c1a1811235","sha3Uncles":"0x1dcc4de8dec75d7aab85b567b6ccd41ad312451b948a7413f0a142fd40d49347","size":"0x3d8","stateRoot":"0x70f1412965acf30f4200cc8d02524d1c1a02027fc5649f12165eba4ac9f0fdf5","timestamp":"0x6524373e","totalDifficulty":"0x19fe6f5","transactions":[{"blockHash":"0x0378f2177aff49967e44b6e2f00c618e64b0ceba6d4f489e69fbfe7fc2a785e9","blockNumber":"0xcff37a","from":"0xa79886a38db123bbd817b5d2ee8a549e15865578","gas":"0x24ca4","gasPrice":"0x2faf080","hash":"0xbd70f426d7544c012e99a67df8dc6b2ac5b53880e3b82ba03897ee54509c5e75","index":"0xcff379","input":"0x414bf38900000000000000000000000078c1b0c915c4faa5fffa6cabf0219da63d7f4cb8000000000000000000000000201eba5cc46d216ce6dc03f6a759e8e766e956ae00000000000000000000000000000000000000000000000000000000000001f4000000000000000000000000a79886a38db123bbd817b5d2ee8a549e15865578000000000000000000000000000000000000000000000000000000006524375d0000000000000000000000000000000000000000000000001825b8c7f52e0000000000000000000000000000000000000000000000000000000000000009b1790000000000000000000000000000000000000000000000000000000000000000","l1BlockNumber":"0x117744d","l1Timestamp":"0x6524373e","l1TxOrigin":null,"nonce":"0xf53","queueIndex":null,"queueOrigin":"sequencer","r":"0x12ac0807e14f55e43ea9925aa8105bcd65a45b73bbaac8ce1af8485f15720213","rawTransaction":"0xf9016e820f538402faf08083024ca4945989fb161568b9f133edf5cf6787f5597762797f80b90104414bf38900000000000000000000000078c1b0c915c4faa5fffa6cabf0219da63d7f4cb8000000000000000000000000201eba5cc46d216ce6dc03f6a759e8e766e956ae00000000000000000000000000000000000000000000000000000000000001f4000000000000000000000000a79886a38db123bbd817b5d2ee8a549e15865578000000000000000000000000000000000000000000000000000000006524375d0000000000000000000000000000000000000000000000001825b8c7f52e0000000000000000000000000000000000000000000000000000000000000009b1790000000000000000000000000000000000000000000000000000000000000000822734a012ac0807e14f55e43ea9925aa8105bcd65a45b73bbaac8ce1af8485f15720213a0101660b8cb982935ae4bd3156d44efac1f17c29b6ba832379407170b38a43063","s":"0x101660b8cb982935ae4bd3156d44efac1f17c29b6ba832379407170b38a43063","to":"0x5989fb161568b9f133edf5cf6787f5597762797f","transactionIndex":"0x0","v":"0x2734","value":"0x0"}],"transactionsRoot":"0xb0f918a65b34282a18453f65816c5227a6a6f6dea8df39fd528fa0a267e9a382","uncles":[]},"receipts":{"0xbd70f426d7544c012e99a67df8dc6b2ac5b53880e3b82ba03897ee54509c5e75":{"blockHash":"0x0378f2177aff49967e44b6e2f00c618e64b0ceba6d4f489e69fbfe7fc2a785e9","blockNumber":"0xcff37a","from":"0xa79886a38db123bbd817b5d2ee8a549e15865578","gas":"0x24ca4","gasPrice":"0x2faf080","hash":"0xbd70f426d7544c012e99a67df8dc6b2ac5b53880e3b82ba03897ee54509c5e75","index":"0xcff379","input":"0x414bf38900000000000000000000000078c1b0c915c4faa5fffa6cabf0219da63d7f4cb8000000000000000000000000201eba5cc46d216ce6dc03f6a759e8e766e956ae00000000000000000000000000000000000000000000000000000000000001f4000000000000000000000000a79886a38db123bbd817b5d2ee8a549e15865578000000000000000000000000000000000000000000000000000000006524375d0000000000000000000000000000000000000000000000001825b8c7f52e0000000000000000000000000000000000000000000000000000000000000009b1790000000000000000000000000000000000000000000000000000000000000000","l1BlockNumber":"0x117744d","l1Timestamp":"0x6524373e","l1TxOrigin":null,"nonce":"0xf53","queueIndex":null,"queueOrigin":"sequencer","r":"0x12ac0807e14f55e43ea9925aa8105bcd65a45b73bbaac8ce1af8485f15720213","rawTransaction":"0xf9016e820f538402faf08083024ca4945989fb161568b9f133edf5cf6787f5597762797f80b90104414bf38900000000000000000000000078c1b0c915c4faa5fffa6cabf0219da63d7f4cb8000000000000000000000000201eba5cc46d216ce6dc03f6a759e8e766e956ae00000000000000000000000000000000000000000000000000000000000001f4000000000000000000000000a79886a38db123bbd817b5d2ee8a549e15865578000000000000000000000000000000000000000000000000000000006524375d0000000000000000000000000000000000000000000000001825b8c7f52e0000000000000000000000000000000000000000000000000000000000000009b1790000000000000000000000000000000000000000000000000000000000000000822734a012ac0807e14f55e43ea9925aa8105bcd65a45b73bbaac8ce1af8485f15720213a0101660b8cb982935ae4bd3156d44efac1f17c29b6ba832379407170b38a43063","s":"0x101660b8cb982935ae4bd3156d44efac1f17c29b6ba832379407170b38a43063","to":"0x5989fb161568b9f133edf5cf6787f5597762797f","transactionIndex":"0x0","v":"0x2734","value":"0x0","contractAddress":null,"cumulativeGasUsed":"0x233c1","daFee":"0x0","daGasPrice":"0x0","daGasUsed":"0x12c","gasUsed":"0x233c1","l1Fee":"0x1c5145ff7a866d0","l1FeeScalar":"1","l1GasPrice":"0x3f1249c65230","l1GasUsed":"0x72f","logs":[{"address":"0x201eba5cc46d216ce6dc03f6a759e8e766e956ae","blockHash":"0x0378f2177aff49967e44b6e2f00c618e64b0ceba6d4f489e69fbfe7fc2a785e9","blockNumber":"0xcff37a","data":"0x000000000000000000000000000000000000000000000000000000000009e41e","logIndex":"0x0","removed":false,"topics":["0xddf252ad1be2c89b69c2b068fc378daa952ba7f163c4a11628f55a4df523b3ef","0x000000000000000000000000262255f4770aebe2d0c8b97a46287dcecc2a0aff","0x000000000000000000000000a79886a38db123bbd817b5d2ee8a549e15865578"],"transactionHash":"0xbd70f426d7544c012e99a67df8dc6b2ac5b53880e3b82ba03897ee54509c5e75","transactionIndex":"0x0"},{"address":"0x78c1b0c915c4faa5fffa6cabf0219da63d7f4cb8","blockHash":"0x0378f2177aff49967e44b6e2f00c618e64b0ceba6d4f489e69fbfe7fc2a785e9","blockNumber":"0xcff37a","data":"0x0000000000000000000000000000000000000000000000001825b8c7f52e0000","logIndex":"0x1","removed":false,"topics":["0xddf252ad1be2c89b69c2b068fc378daa952ba7f163c4a11628f55a4df523b3ef","0x000000000000000000000000a79886a38db123bbd817b5d2ee8a549e15865578","0x000000000000000000000000262255f4770aebe2d0c8b97a46287dcecc2a0aff"],"transactionHash":"0xbd70f426d7544c012e99a67df8dc6b2ac5b53880e3b82ba03897ee54509c5e75","transactionIndex":"0x0"},{"address":"0x78c1b0c915c4faa5fffa6cabf0219da63d7f4cb8","blockHash":"0x0378f2177aff49967e44b6e2f00c618e64b0ceba6d4f489e69fbfe7fc2a785e9","blockNumber":"0xcff37a","data":"0xfffffffffffffffffffffffffffffffffffffffffffffff7e1a99976657fffff","logIndex":"0x2","removed":false,"topics":["0x8c5be1e5ebec7d5bd14f71427d1e84f3dd0314c0f7b2291e5b200ac8c7c3b925","0x000000000000000000000000a79886a38db123bbd817b5d2ee8a549e15865578","0x0000000000000000000000005989fb161568b9f133edf5cf6787f5597762797f"],"transactionHash":"0xbd70f426d7544c012e99a67df8dc6b2ac5b53880e3b82ba03897ee54509c5e75","transactionIndex":"0x0"},{"address":"0x262255f4770aebe2d0c8b97a46287dcecc2a0aff","blockHash":"0x0378f2177aff49967e44b6e2f00c618e64b0ceba6d4f489e69fbfe7fc2a785e9","blockNumber":"0xcff37a","data":"0xfffffffffffffffffffffffffffffffffffffffffffffffffffffffffff61be20000000000000000000000000000000000000000000000001825b8c7f52e0000000000000000000000000000000000000018fe4b6a75bc99ad042c27282ec62b00000000000000000000000000000000000000000000000024ba1f486431beb00000000000000000000000000000000000000000000000000000000000045df1000000000000000000000000000000000000000000000000000000000000000000000000000000000000000000000000000000000000000000010d074decb000","logIndex":"0x3","removed":false,"topics":["0x19b47279256b2a23a1665c810c8d55a1758940ee09377d4f8d26497a3577dc83","0x0000000000000000000000005989fb161568b9f133edf5cf6787f5597762797f","0x000000000000000000000000a79886a38db123bbd817b5d2ee8a549e15865578"],"transactionHash":"0xbd70f426d7544c012e99a67df8dc6b2ac5b53880e3b82ba03897ee54509c5e75","transactionIndex":"0x0"}],"logsBloom":"0x00040000000010000000000000000080000000000001000000000000000000000000000000000000000000000002000000000000000000000000000000200000140000000040000000000008000000000000008000042000000000000000000000000000000000000000000000010000000000000000000000000010000000000000000100000000000000000000040000100000040000000000000040000000020000000000000000000000000000000000000000000000004000000000000000000042000000000000000000000000010000000000000000000000000000000010000000000000000000000000000000000000000000000000002000000000","status":"0x1","transactionHash":"0xbd70f426d7544c012e99a67df8dc6b2ac5b53880e3b82ba03897ee54509c5e75"}}}