{"block":{"difficulty":"0x2","extraData":"0xd98301090a846765746889676f312e31352e3133856c696e7578000000000000cc71d4c33321827e9bf3010e17e79aa58b37c81d50f4675056ac20204f1ce9ad5c2ad7c0ad6d496a937552b2100d2c3fb27a66841284c2330bdf17fe4e02763600","gasLimit":"0x1c9c380","gasUsed":"0x1d783","hash":"0x9b23a9e0d5f69c4dfc3e39895d7ada4729e76822a84eb333710c560009012d49","logsBloom":"0x00040000000010000000000000000000000000000001000000000000000000000000000000000000010000000002000000002000000000000000000000200000140000000040000000000008000000000000008000042000000000000000000000000000000000000000000000010000000000000000000000000010000000000000000100000000000000000000040000100000040000000000000040000000020000000000000000000000000000000000000000000000004000000000000000000002000000000000000000000000000000000000000000000000000000000010000000001000000000000000000000000000000000000000002000000000","miner":"0x0000000000000000000000000000000000000000","mixHash":"0x0000000000000000000000000000000000000000000000000000000000000000","nonce":"0x0000000000000000","number":"0xd00b1c","parentHash":"0xae4055c6e3dc15e4dca3c6231388a65bbe05fd7230d54c50f74a9bd7c25f9f95","receiptsRoot":"0xf28f32ce2ed1d813c7c7ab02e3184d7b9ab412d65b4561d6f3f3b4b235a53b5e","sha3Uncles":"0x1dcc4de8dec75d7aab85b567b6ccd41ad312451b948a7413f0a142fd40d49347","size":"0x3d8","stateRoot":"0x994f4cf3dcf01195c36b5defbc1d621d4d32dc84eb4ead7bf982af9e7ac0447b","timestamp":"0x6524420c","totalDifficulty":"0x1a01639","transactions":[{"blockHash":"0x9b23a9e0d5f69c4dfc3e39895d7ada4729e76822a84eb333710c560009012d49","blockNumber":"0xd00b1c","from":"0x3ac8372bdd8dd2535a3186335a7c5164bb17b2fb","gas":"0x1eeef","gasPrice":"0x2faf080","hash":"0x377f3bedb4dea41ec7ea238dcb3a18a2d85a4daa29984998e619f1c6d7f14f6d","index":"0xd00b1b","input":"0x414bf38900000000000000000000000078c1b0c915c4faa5fffa6cabf0219da63d7f4cb8000000000000000000000000201eba5cc46d216ce6dc03f6a759e8e766e956ae00000000000000000000000000000000000000000000000000000000000001f40000000000000000000000003ac8372bdd8dd2535a3186335a7c5164bb17b2fb000000000000000000000000000000000000000000000000000000006524422e00000000000000000000000000000000000000000000000015181ff25a9800000000000000000000000000000000000000000000000000000000000000087dc50000000000000000000000000000000000000000000000000000000000000000","l1BlockNumber":"0x1177534","l1Timestamp":"0x6524420c","l1TxOrigin":null,"nonce":"0x9a3","queueIndex":null,"queueOrigin":"sequencer","r":"0xd149b3032a7f0a7126534d1dc0f4170f5ceae4d16687a10366548d46f0df7baf","rawTransaction":"0xf9016e8209a38402faf0808301eeef945989fb161568b9f133edf5cf6787f5597762797f80b90104414bf38900000000000000000000000078c1b0c915c4faa5fffa6cabf0219da63d7f4cb8000000000000000000000000201eba5cc46d216ce6dc03f6a759e8e766e956ae00000000000000000000000000000000000000000000000000000000000001f40000000000000000000000003ac8372bdd8dd2535a3186335a7c5164bb17b2fb000000000000000000000000000000000000000000000000000000006524422e00000000000000000000000000000000000000000000000015181ff25a9800000000000000000000000000000000000000000000000000000000000000087dc50000000000000000000000000000000000000000000000000000000000000000822734a0d149b3032a7f0a7126534d1dc0f4170f5ceae4d16687a10366548d46f0df7bafa01cf7a31c67e52d6a730a4d030032091365ca619bfb85ac60877038a27a030c33","s":"0x1cf7a31c67e52d6a730a4d030032091365ca619bfb85ac60877038a27a030c33","to":"0x5989fb161568b9f133edf5cf6787f5597762797f","transactionIndex":"0x0","v":"0x2734","value":"0x0"}],"transactionsRoot":"0xb0fae225d9ab1250238ab8c0022595a6af3df950bfce0a39a42a77f39f905cc8","uncles":[]},"receipts":{"0x377f3bedb4dea41ec7ea238dcb3a18a2d85a4daa29984998e619f1c6d7f14f6d":{"blockHash":"0x9b23a9e0d5f69c4dfc3e39895d7ada4729e76822a84eb333710c560009012d49","blockNumber":"0xd00b1c","from":"0x3ac8372bdd8dd2535a3186335a7c5164bb17b2fb","gas":"0x1eeef","gasPrice":"0x2faf080","hash":"0x377f3bedb4dea41ec7ea238dcb3a18a2d85a4daa29984998e619f1c6d7f14f6d","index":"0xd00b1b","input":"0x414bf38900000000000000000000000078c1b0c915c4faa5fffa6cabf0219da63d7f4cb8000000000000000000000000201eba5cc46d216ce6dc03f6a759e8e766e956ae00000000000000000000000000000000000000000000000000000000000001f40000000000000000000000003ac8372bdd8dd2535a3186335a7c5164bb17b2fb000000000000000000000000000000000000000000000000000000006524422e00000000000000000000000000000000000000000000000015181ff25a9800000000000000000000000000000000000000000000000000000000000000087dc50000000000000000000000000000000000000000000000000000000000000000","l1BlockNumber":"0x1177534","l1Timestamp":"0x6524420c","l1TxOrigin":null,"nonce":"0x9a3","queueIndex":null,"queueOrigin":"sequencer","r":"0xd149b3032a7f0a7126534d1dc0f4170f5ceae4d16687a10366548d46f0df7baf","rawTransaction":"0xf9016e8209a38402faf0808301eeef945989fb161568b9f133edf5cf6787f5597762797f80b90104414bf38900000000000000000000000078c1b0c915c4faa5fffa6cabf0219da63d7f4cb8000000000000000000000000201eba5cc46d216ce6dc03f6a759e8e766e956ae00000000000000000000000000000000000000000000000000000000000001f40000000000000000000000003ac8372bdd8dd2535a3186335a7c5164bb17b2fb000000000000000000000000000000000000000000000000000000006524422e00000000000000000000000000000000000000000000000015181ff25a9800000000000000000000000000000000000000000000000000000000000000087dc50000000000000000000000000000000000000000000000000000000000000000822734a0d149b3032a7f0a7126534d1dc0f4170f5ceae4d16687a10366548d46f0df7bafa01cf7a31c67e52d6a730a4d030032091365ca619bfb85ac60877038a27a030c33","s":"0x1cf7a31c67e52d6a730a4d030032091365ca619bfb85ac60877038a27a030c33","to":"0x5989fb161568b9f133edf5cf6787f5597762797f","transactionIndex":"0x0","v":"0x2734","value":"0x0","contractAddress":null,"cumulativeGasUsed":"0x1d783","daFee":"0x0","daGasPrice":"0x0","daGasUsed":"0x12c","gasUsed":"0x1d783","l1Fee":"0x1911132b46ddf60","l1FeeScalar":"1","l1GasPrice":"0x37d4bc06bddc","l1GasUsed":"0x72f","logs":[{"address":"0x201eba5cc46d216ce6dc03f6a759e8e766e956ae","blockHash":"0x9b23a9e0d5f69c4dfc3e39895d7ada4729e76822a84eb333710c560009012d49","blockNumber":"0xd00b1c","data":"0x000000000000000000000000000000000000000000000000000000000008aa22","logIndex":"0x0","removed":false,"topics":["0xddf252ad1be2c89b69c2b068fc378daa952ba7f163c4a11628f55a4df523b3ef","0x000000000000000000000000262255f4770aebe2d0c8b97a46287dcecc2a0aff","0x0000000000000000000000003ac8372bdd8dd2535a3186335a7c5164bb17b2fb"],"transactionHash":"0x377f3bedb4dea41ec7ea238dcb3a18a2d85a4daa29984998e619f1c6d7f14f6d","transactionIndex":"0x0"},{"address":"0x78c1b0c915c4faa5fffa6cabf0219da63d7f4cb8","blockHash":"0x9b23a9e0d5f69c4dfc3e39895d7ada4729e76822a84eb333710c560009012d49","blockNumber":"0xd00b1c","data":"0x00000000000000000000000000000000000000000000000015181ff25a980000","logIndex":"0x1","removed":false,"topics":["0xddf252ad1be2c89b69c2b068fc378daa952ba7f163c4a11628f55a4df523b3ef","0x0000000000000000000000003ac8372bdd8dd2535a3186335a7c5164bb17b2fb","0x000000000000000000000000262255f4770aebe2d0c8b97a46287dcecc2a0aff"],"transactionHash":"0x377f3bedb4dea41ec7ea238dcb3a18a2d85a4daa29984998e619f1c6d7f14f6d","transactionIndex":"0x0"},{"address":"0x78c1b0c915c4faa5fffa6cabf0219da63d7f4cb8","blockHash":"0x9b23a9e0d5f69c4dfc3e39895d7ada4729e76822a84eb333710c560009012d49","blockNumber":"0xd00b1c","data":"0xfffffffffffffffffffffffffffffffffffffffffffffffab73178789eebffff","logIndex":"0x2","removed":false,"topics":["0x8c5be1e5ebec7d5bd14f71427d1e84f3dd0314c0f7b2291e5b200ac8c7c3b925","0x0000000000000000000000003ac8372bdd8dd2535a3186335a7c5164bb17b2fb","0x0000000000000000000000005989fb161568b9f133edf5cf6787f5597762797f"],"transactionHash":"0x377f3bedb4dea41ec7ea238dcb3a18a2d85a4daa29984998e619f1c6d7f14f6d","transactionIndex":"0x0"},{"address":"0x262255f4770aebe2d0c8b97a46287dcecc2a0aff","blockHash":"0x9b23a9e0d5f69c4dfc3e39895d7ada4729e76822a84eb333710c560009012d49","blockNumber":"0xd00b1c","data":"0xfffffffffffffffffffffffffffffffffffffffffffffffffffffffffff755de00000000000000000000000000000000000000000000000015181ff25a980000000000000000000000000000000000000018f5643c9afedd5f6fe64cb6ea0aa7000000000000000000000000000000000000000000000000255b6ea00034c78b0000000000000000000000000000000000000000000000000000000000045dd500000000000000000000000000000000000000000000000000000000000000000000000000000000000000000000000000000000000000000000eb037035c000","logIndex":"0x3","removed":false,"topics":["0x19b47279256b2a23a1665c810c8d55a1758940ee09377d4f8d26497a3577dc83","0x0000000000000000000000005989fb161568b9f133edf5cf6787f5597762797f","0x0000000000000000000000003ac8372bdd8dd2535a3186335a7c5164bb17b2fb"],"transactionHash":"0x377f3bedb4dea41ec7ea238dcb3a18a2d85a4daa29984998e619f1c6d7f14f6d","transactionIndex":"0x0"}],"logsBloom":"0x00040000000010000000000000000000000000000001000000000000000000000000000000000000010000000002000000002000000000000000000000200000140000000040000000000008000000000000008000042000000000000000000000000000000000000000000000010000000000000000000000000010000000000000000100000000000000000000040000100000040000000000000040000000020000000000000000000000000000000000000000000000004000000000000000000002000000000000000000000000000000000000000000000000000000000010000000001000000000000000000000000000000000000000002000000000","status":"0x1","transactionHash":"0x377f3bedb4dea41ec7ea238dcb3a18a2d85a4daa29984998e619f1c6d7f14f6d"}}}