{"block":{"difficulty":"0x2","extraData":"0xd98301090a846765746889676f312e31352e3133856c696e7578000000000000d73b6fe2f08f0fd716c95fb9dbaa7c0d72d2b19165851faf0f769c27f78ac62c7e856d780e23e8cdcebda0287e66082a46cf1059f6524febcf3da2f088b0164b01","gasLimit":"0x1c9c380","gasUsed":"0x1d1e7","hash":"0xecd44c3ce720b00c53d6e3658be3c7d05a25790f4fe3831c146c8175abaf8b86","logsBloom":"0x40000000000000000000000000000000000000000001008800000000000000000000000000000000000000000002000000000000000000000000000000200000840000000040000000000008000000000000008000002004000000000000000000000001000000000000000100000000000000800000000000000010000000000000000000000000000000000000000000000000000000000008000000100000020000000000000000000000000000000000000001000020000100000000000000000002000000000000000000000000000000000000000000000000000000000010000100001000000000000000000000000000000000000000000000000000","miner":"0x0000000000000000000000000000000000000000","mixHash":"0x0000000000000000000000000000000000000000000000000000000000000000","nonce":"0x0000000000000000","number":"0xd00b21","parentHash":"0xc659c2b2145c90b3ab2d08cfd804f3c26d61ce8f929847b59c3fafb485e77c9a","receiptsRoot":"0xe2e17431ac751119aa52bc211efcc5e9c255a10e2f21c5d7a6d49122bc980869","sha3Uncles":"0x1dcc4de8dec75d7aab85b567b6ccd41ad312451b948a7413f0a142fd40d49347","size":"0x3d8","stateRoot":"0xf6731c6be0c818e29236ff05ac44e277aaac7506b0423a02b890cd7b38970aba","timestamp":"0x65244211","totalDifficulty":"0x1a01643","transactions":[{"blockHash":"0xecd44c3ce720b00c53d6e3658be3c7d05a25790f4fe3831c146c8175abaf8b86","blockNumber":"0xd00b21","from":"0xbd48d0466d5a5148b91cdc8b54197f6a6a5a1a9c","gas":"0x1f8c6","gasPrice":"0x2faf080","hash":"0x6852f2039ab97dfc97be79a09fe0038b6f1872fa61dea1f8fb428208bf87bb8b","index":"0xd00b20","input":"0x414bf389000000000000000000000000deaddeaddeaddeaddeaddeaddeaddeaddead1111000000000000000000000000201eba5cc46d216ce6dc03f6a759e8e766e956ae00000000000000000000000000000000000000000000000000000000000001f4000000000000000000000000bd48d0466d5a5148b91cdc8b54197f6a6a5a1a9c000000000000000000000000000000000000000000000000000000006524422f0000000000000000000000000000000000000000000000000001902d7bb3800000000000000000000000000000000000000000000000000000000000000a59510000000000000000000000000000000000000000000000000000000000000000","l1BlockNumber":"0x1177534","l1Timestamp":"0x65244211","l1TxOrigin":null,"nonce":"0xe2a","queueIndex":null,"queueOrigin":"sequencer","r":"0xb0947658a3c7f38a5c21102aacf6b42ca16517f6ae5b897aea24f9e8bbd355e1","rawTransaction":"0xf9016e820e2a8402faf0808301f8c694319b69888b0d11cec22caa5034e25fffbdc8842180b90104414bf389000000000000000000000000deaddeaddeaddeaddeaddeaddeaddeaddead1111000000000000000000000000201eba5cc46d216ce6dc03f6a759e8e766e956ae00000000000000000000000000000000000000000000000000000000000001f4000000000000000000000000bd48d0466d5a5148b91cdc8b54197f6a6a5a1a9c000000000000000000000000000000000000000000000000000000006524422f0000000000000000000000000000000000000000000000000001902d7bb3800000000000000000000000000000000000000000000000000000000000000a59510000000000000000000000000000000000000000000000000000000000000000822734a0b0947658a3c7f38a5c21102aacf6b42ca16517f6ae5b897aea24f9e8bbd355e1a02f257601c4061bc48fb5b615f501aae6a2b6e81fc24273d0a0fc5e7c941def76","s":"0x2f257601c4061bc48fb5b615f501aae6a2b6e81fc24273d0a0fc5e7c941def76","to":"0x319b69888b0d11cec22caa5034e25fffbdc88421","transactionIndex":"0x0","v":"0x2734","value":"0x0"}],"transactionsRoot":"0x25f114f493251b3358745abbe912ec45c156ae1e6c653b723aa53fbde13f1f8e","uncles":[]},"receipts":{"0x6852f2039ab97dfc97be79a09fe0038b6f1872fa61dea1f8fb428208bf87bb8b":{"blockHash":"0xecd44c3ce720b00c53d6e3658be3c7d05a25790f4fe3831c146c8175abaf8b86","blockNumber":"0xd00b21","from":"0xbd48d0466d5a5148b91cdc8b54197f6a6a5a1a9c","gas":"0x1f8c6","gasPrice":"0x2faf080","hash":"0x6852f2039ab97dfc97be79a09fe0038b6f1872fa61dea1f8fb428208bf87bb8b","index":"0xd00b20","input":"0x414bf389000000000000000000000000deaddeaddeaddeaddeaddeaddeaddeaddead1111000000000000000000000000201eba5cc46d216ce6dc03f6a759e8e766e956ae00000000000000000000000000000000000000000000000000000000000001f4000000000000000000000000bd48d0466d5a5148b91cdc8b54197f6a6a5a1a9c000000000000000000000000000000000000000000000000000000006524422f0000000000000000000000000000000000000000000000000001902d7bb3800000000000000000000000000000000000000000000000000000000000000a59510000000000000000000000000000000000000000000000000000000000000000","l1BlockNumber":"0x1177534","l1Timestamp":"0x65244211","l1TxOrigin":null,"nonce":"0xe2a","queueIndex":null,"queueOrigin":"sequencer","r":"0xb0947658a3c7f38a5c21102aacf6b42ca16517f6ae5b897aea24f9e8bbd355e1","rawTransaction":"0xf9016e820e2a8402faf0808301f8c694319b69888b0d11cec22caa5034e25fffbdc8842180b90104414bf389000000000000000000000000deaddeaddeaddeaddeaddeaddeaddeaddead1111000000000000000000000000201eba5cc46d216ce6dc03f6a759e8e766e956ae00000000000000000000000000000000000000000000000000000000000001f4000000000000000000000000bd48d0466d5a5148b91cdc8b54197f6a6a5a1a9c000000000000000000000000000000000000000000000000000000006524422f0000000000000000000000000000000000000000000000000001902d7bb3800000000000000000000000000000000000000000000000000000000000000a59510000000000000000000000000000000000000000000000000000000000000000822734a0b0947658a3c7f38a5c21102aacf6b42ca16517f6ae5b897aea24f9e8bbd355e1a02f257601c4061bc48fb5b615f501aae6a2b6e81fc24273d0a0fc5e7c941def76","s":"0x2f257601c4061bc48fb5b615f501aae6a2b6e81fc24273d0a0fc5e7c941def76","to":"0x319b69888b0d11cec22caa5034e25fffbdc88421","transactionIndex":"0x0","v":"0x2734","value":"0x0","contractAddress":null,"cumulativeGasUsed":"0x1d1e7","daFee":"0x0","daGasPrice":"0x0","daGasUsed":"0x12c","gasUsed":"0x1d1e7","l1Fee":"0x1911132b46ddf60","l1FeeScalar":"1","l1GasPrice":"0x37d4bc06bddc","l1GasUsed":"0x72f","logs":[{"address":"0x201eba5cc46d216ce6dc03f6a759e8e766e956ae","blockHash":"0xecd44c3ce720b00c53d6e3658be3c7d05a25790f4fe3831c146c8175abaf8b86","blockNumber":"0xd00b21","data":"0x00000000000000000000000000000000000000000000000000000000000a8d1b","logIndex":"0x0","removed":false,"topics":["0xddf252ad1be2c89b69c2b068fc378daa952ba7f163c4a11628f55a4df523b3ef","0x000000000000000000000000628f7131cf43e88ebe3921ae78c4ba0c31872bd4","0x000000000000000000000000bd48d0466d5a5148b91cdc8b54197f6a6a5a1a9c"],"transactionHash":"0x6852f2039ab97dfc97be79a09fe0038b6f1872fa61dea1f8fb428208bf87bb8b","transactionIndex":"0x0"},{"address":"0xdeaddeaddeaddeaddeaddeaddeaddeaddead1111","blockHash":"0xecd44c3ce720b00c53d6e3658be3c7d05a25790f4fe3831c146c8175abaf8b86","blockNumber":"0xd00b21","data":"0x0000000000000000000000000000000000000000000000000001902d7bb38000","logIndex":"0x1","removed":false,"topics":["0xddf252ad1be2c89b69c2b068fc378daa952ba7f163c4a11628f55a4df523b3ef","0x000000000000000000000000bd48d0466d5a5148b91cdc8b54197f6a6a5a1a9c","0x000000000000000000000000628f7131cf43e88ebe3921ae78c4ba0c31872bd4"],"transactionHash":"0x6852f2039ab97dfc97be79a09fe0038b6f1872fa61dea1f8fb428208bf87bb8b","transactionIndex":"0x0"},{"address":"0xdeaddeaddeaddeaddeaddeaddeaddeaddead1111","blockHash":"0xecd44c3ce720b00c53d6e3658be3c7d05a25790f4fe3831c146c8175abaf8b86","blockNumber":"0xd00b21","data":"0xfffffffffffffffffffffffffffffffffffffffffffffffffbe82e2e1d2b8fff","logIndex":"0x2","removed":false,"topics":["0x8c5be1e5ebec7d5bd14f71427d1e84f3dd0314c0f7b2291e5b200ac8c7c3b925","0x000000000000000000000000bd48d0466d5a5148b91cdc8b54197f6a6a5a1a9c","0x000000000000000000000000319b69888b0d11cec22caa5034e25fffbdc88421"],"transactionHash":"0x6852f2039ab97dfc97be79a09fe0038b6f1872fa61dea1f8fb428208bf87bb8b","transactionIndex":"0x0"},{"address":"0x628f7131cf43e88ebe3921ae78c4ba0c31872bd4","blockHash":"0xecd44c3ce720b00c53d6e3658be3c7d05a25790f4fe3831c146c8175abaf8b86","blockNumber":"0xd00b21","data":"0xfffffffffffffffffffffffffffffffffffffffffffffffffffffffffff572e50000000000000000000000000000000000000000000000000001902d7bb38000000000000000000000000000000000000000628773a4a7d59b7c01a7d024169500000000000000000000000000000000000000000000000000002c65dde06c2000000000000000000000000000000000000000000000000000000000000317e00000000000000000000000000000000000000000000000000000000000000000000000000000000000000000000000000000000000000000000000116a6d6c00","logIndex":"0x3","removed":false,"topics":["0x19b47279256b2a23a1665c810c8d55a1758940ee09377d4f8d26497a3577dc83","0x000000000000000000000000319b69888b0d11cec22caa5034e25fffbdc88421","0x000000000000000000000000bd48d0466d5a5148b91cdc8b54197f6a6a5a1a9c"],"transactionHash":"0x6852f2039ab97dfc97be79a09fe0038b6f1872fa61dea1f8fb428208bf87bb8b","transactionIndex":"0x0"}],"logsBloom":"0x40000000000000000000000000000000000000000001008800000000000000000000000000000000000000000002000000000000000000000000000000200000840000000040000000000008000000000000008000002004000000000000000000000001000000000000000100000000000000800000000000000010000000000000000000000000000000000000000000000000000000000008000000100000020000000000000000000000000000000000000001000020000100000000000000000002000000000000000000000000000000000000000000000000000000000010000100001000000000000000000000000000000000000000000000000000","status":"0x1","transactionHash":"0x6852f2039ab97dfc97be79a09fe0038b6f1872fa61dea1f8fb428208bf87bb8b"}}}