{"block":{"difficulty":"0x2","extraData":"0xd98301090a846765746889676f312e31352e3133856c696e757800000000000004bed33147365c728db88fa1529fedc20b6cc3647a543c6606517d433f0e0595772362774f08abe6bfbd70f914132ad0488f7fe9f1ab83ff78f54dd69a8291cb01","gasLimit":"0x1c9c380","gasUsed":"0x204dd","hash":"0x8c3ae8cbcdcb6471898f35da575f5293dea1a3888f646f226953d4f3b7106210","logsBloom":"0x0000000000000000000000000000000000004000000100880000000000000000000000000000000000000000000200000000000000200000000000000000000004800000004400000000000800000000000000c000002200000000000000000000000000000000000000000000000000000000100000800000000010000000000000000000000000000000000000000000000000000000000000000000000000000000000000000000000000000000000000000001000000000000000000000000000002000000000000000000000800002000000000000000000000000000000080000000000000000000000000000000000000000010000000000000000000","miner":"0x0000000000000000000000000000000000000000","mixHash":"0x0000000000000000000000000000000000000000000000000000000000000000","nonce":"0x0000000000000000","number":"0xd0028e","parentHash":"0x107c46e6e5cd7eb1d651f110988c2830aff1d4523dc92469ac977e5a23be0a58","receiptsRoot":"0xf52212ad732bf9095f5f5a5a1568877356b1f305ea900b011fbed735ab7fb68c","sha3Uncles":"0x1dcc4de8dec75d7aab85b567b6ccd41ad312451b948a7413f0a142fd40d49347","size":"0x3d8","stateRoot":"0x5df1a46f1a25125a839c1de5c116a1004782bacd1cf985520159e13abcb78d9a","timestamp":"0x65243e20","totalDifficulty":"0x1a0051d","transactions":[{"blockHash":"0x8c3ae8cbcdcb6471898f35da575f5293dea1a3888f646f226953d4f3b7106210","blockNumber":"0xd0028e","from":"0x66b35ff174b4ecb8ee566e903cc291b2e384c6bb","gas":"0x21d08","gasPrice":"0x2faf080","hash":"0xb1f871e5c014453025e8c9456fcf490ebdd7c7f6084f03a6104d841af0ae5f37","index":"0xd0028d","input":"0x414bf38900000000000000000000000009bc4e0d864854c6afb6eb9a9cdf58ac190d0df9000000000000000000000000201eba5cc46d216ce6dc03f6a759e8e766e956ae000000000000000000000000000000000000000000000000000000000000006400000000000000000000000066b35ff174b4ecb8ee566e903cc291b2e384c6bb0000000000000000000000000000000000000000000000000000000065243e3e00000000000000000000000000000000000000000000000000000000000bbfd000000000000000000000000000000000000000000000000000000000000b82610000000000000000000000000000000000000000000000000000000000000000","l1BlockNumber":"0x11774e0","l1Timestamp":"0x65243e20","l1TxOrigin":null,"nonce":"0xf5a","queueIndex":null,"queueOrigin":"sequencer","r":"0x8b82a98219132a74b14304786a4eeb212d895ec885137b023bf56d7a7ceb1bd","rawTransaction":"0xf9016e820f5a8402faf08083021d0894319b69888b0d11cec22caa5034e25fffbdc8842180b90104414bf38900000000000000000000000009bc4e0d864854c6afb6eb9a9cdf58ac190d0df9000000000000000000000000201eba5cc46d216ce6dc03f6a759e8e766e956ae000000000000000000000000000000000000000000000000000000000000006400000000000000000000000066b35ff174b4ecb8ee566e903cc291b2e384c6bb0000000000000000000000000000000000000000000000000000000065243e3e00000000000000000000000000000000000000000000000000000000000bbfd000000000000000000000000000000000000000000000000000000000000b82610000000000000000000000000000000000000000000000000000000000000000822734a008b82a98219132a74b14304786a4eeb212d895ec885137b023bf56d7a7ceb1bda04b6b2537a4efda3ec4d2109c02f0be7ca15967422fdd716e2c021b3f418d8a65","s":"0x4b6b2537a4efda3ec4d2109c02f0be7ca15967422fdd716e2c021b3f418d8a65","to":"0x319b69888b0d11cec22caa5034e25fffbdc88421","transactionIndex":"0x0","v":"0x2734","value":"0x0"}],"transactionsRoot":"0xa64219666bd5b6790987870aba7b8c7192ee57321714fb2cd3352daca9778dcf","uncles":[]},"receipts":{"0xb1f871e5c014453025e8c9456fcf490ebdd7c7f6084f03a6104d841af0ae5f37":{"blockHash":"0x8c3ae8cbcdcb6471898f35da575f5293dea1a3888f646f226953d4f3b7106210","blockNumber":"0xd0028e","from":"0x66b35ff174b4ecb8ee566e903cc291b2e384c6bb","gas":"0x21d08","gasPrice":"0x2faf080","hash":"0xb1f871e5c014453025e8c9456fcf490ebdd7c7f6084f03a6104d841af0ae5f37","index":"0xd0028d","input":"0x414bf38900000000000000000000000009bc4e0d864854c6afb6eb9a9cdf58ac190d0df9000000000000000000000000201eba5cc46d216ce6dc03f6a759e8e766e956ae000000000000000000000000000000000000000000000000000000000000006400000000000000000000000066b35ff174b4ecb8ee566e903cc291b2e384c6bb0000000000000000000000000000000000000000000000000000000065243e3e00000000000000000000000000000000000000000000000000000000000bbfd000000000000000000000000000000000000000000000000000000000000b82610000000000000000000000000000000000000000000000000000000000000000","l1BlockNumber":"0x11774e0","l1Timestamp":"0x65243e20","l1TxOrigin":null,"nonce":"0xf5a","queueIndex":null,"queueOrigin":"sequencer","r":"0x8b82a98219132a74b14304786a4eeb212d895ec885137b023bf56d7a7ceb1bd","rawTransaction":"0xf9016e820f5a8402faf08083021d0894319b69888b0d11cec22caa5034e25fffbdc8842180b90104414bf38900000000000000000000000009bc4e0d864854c6afb6eb9a9cdf58ac190d0df9000000000000000000000000201eba5cc46d216ce6dc03f6a759e8e766e956ae000000000000000000000000000000000000000000000000000000000000006400000000000000000000000066b35ff174b4ecb8ee566e903cc291b2e384c6bb0000000000000000000000000000000000000000000000000000000065243e3e00000000000000000000000000000000000000000000000000000000000bbfd000000000000000000000000000000000000000000000000000000000000b82610000000000000000000000000000000000000000000000000000000000000000822734a008b82a98219132a74b14304786a4eeb212d895ec885137b023bf56d7a7ceb1bda04b6b2537a4efda3ec4d2109c02f0be7ca15967422fdd716e2c021b3f418d8a65","s":"0x4b6b2537a4efda3ec4d2109c02f0be7ca15967422fdd716e2c021b3f418d8a65","to":"0x319b69888b0d11cec22caa5034e25fffbdc88421","transactionIndex":"0x0","v":"0x2734","value":"0x0","contractAddress":null,"cumulativeGasUsed":"0x204dd","daFee":"0x0","daGasPrice":"0x0","daGasUsed":"0x12c","gasUsed":"0x204dd","l1Fee":"0x19709d787180660","l1FeeScalar":"1","l1GasPrice":"0x38a987f04864","l1GasUsed":"0x72f","logs":[{"address":"0x201eba5cc46d216ce6dc03f6a759e8e766e956ae","blockHash":"0x8c3ae8cbcdcb6471898f35da575f5293dea1a3888f646f226953d4f3b7106210","blockNumber":"0xd0028e","data":"0x00000000000000000000000000000000000000000000000000000000000bbe83","logIndex":"0x0","removed":false,"topics":["0xddf252ad1be2c89b69c2b068fc378daa952ba7f163c4a11628f55a4df523b3ef","0x0000000000000000000000006488f911c6cd86c289aa319c5a826dcf8f1ca065","0x00000000000000000000000066b35ff174b4ecb8ee566e903cc291b2e384c6bb"],"transactionHash":"0xb1f871e5c014453025e8c9456fcf490ebdd7c7f6084f03a6104d841af0ae5f37","transactionIndex":"0x0"},{"address":"0x09bc4e0d864854c6afb6eb9a9cdf58ac190d0df9","blockHash":"0x8c3ae8cbcdcb6471898f35da575f5293dea1a3888f646f226953d4f3b7106210","blockNumber":"0xd0028e","data":"0x00000000000000000000000000000000000000000000000000000000000bbfd0","logIndex":"0x1","removed":false,"topics":["0xddf252ad1be2c89b69c2b068fc378daa952ba7f163c4a11628f55a4df523b3ef","0x00000000000000000000000066b35ff174b4ecb8ee566e903cc291b2e384c6bb","0x0000000000000000000000006488f911c6cd86c289aa319c5a826dcf8f1ca065"],"transactionHash":"0xb1f871e5c014453025e8c9456fcf490ebdd7c7f6084f03a6104d841af0ae5f37","transactionIndex":"0x0"},{"address":"0x6488f911c6cd86c289aa319c5a826dcf8f1ca065","blockHash":"0x8c3ae8cbcdcb6471898f35da575f5293dea1a3888f646f226953d4f3b7106210","blockNumber":"0xd0028e","data":"0x00000000000000000000000000000000000000000000000000000000000bbfd0fffffffffffffffffffffffffffffffffffffffffffffffffffffffffff4417d0000000000000000000000000000000000000000fff521aeda118ccdeb9e45600000000000000000000000000000000000000000000000000000aa91ae904e92fffffffffffffffffffffffffffffffffffffffffffffffffffffffffffffffc00000000000000000000000000000000000000000000000000000000000000190000000000000000000000000000000000000000000000000000000000000000","logIndex":"0x2","removed":false,"topics":["0x19b47279256b2a23a1665c810c8d55a1758940ee09377d4f8d26497a3577dc83","0x000000000000000000000000319b69888b0d11cec22caa5034e25fffbdc88421","0x00000000000000000000000066b35ff174b4ecb8ee566e903cc291b2e384c6bb"],"transactionHash":"0xb1f871e5c014453025e8c9456fcf490ebdd7c7f6084f03a6104d841af0ae5f37","transactionIndex":"0x0"}],"logsBloom":"0x0000000000000000000000000000000000004000000100880000000000000000000000000000000000000000000200000000000000200000000000000000000004800000004400000000000800000000000000c000002200000000000000000000000000000000000000000000000000000000100000800000000010000000000000000000000000000000000000000000000000000000000000000000000000000000000000000000000000000000000000000001000000000000000000000000000002000000000000000000000800002000000000000000000000000000000080000000000000000000000000000000000000000010000000000000000000","status":"0x1","transactionHash":"0xb1f871e5c014453025e8c9456fcf490ebdd7c7f6084f03a6104d841af0ae5f37"}}}