{"block":{"difficulty":"0x2","extraData":"0xd98301090a846765746889676f312e31352e3133856c696e7578000000000000f6389c007292bed4f4c025e9b99bf85e3eb2759427a602f39f69cd4a0c8c62e44aca5f316d0c4594822b35139d5cbe139daef1efff709be6c30fbafae3b7d7d400","gasLimit":"0x1c9c380","gasUsed":"0x237ef","hash":"0x4a3eaaabb6fdbbd9ee60a70e5e4427c940a685dde87b14987bac283f96971377","logsBloom":"0x00040000000010000000000000000000000000000001000000000000000000000000000000000000000000000002000000000000000000000000000000200000140000000040000000000008000000000000008000042000000000000000000000000000002000000000000000010000000000000000000020000010000000000000000100000000000000000000040000100000040000000000000040000000020000100000000000000000000000000000000000000000004000000000000000000002000000000000000000000000000000000000000000000000000000000010000000000000000000000000000000000000000000000000002000000000","miner":"0x0000000000000000000000000000000000000000","mixHash":"0x0000000000000000000000000000000000000000000000000000000000000000","nonce":"0x0000000000000000","number":"0xd0020a","parentHash":"0x46b27f7632c97752f8e819b51455889a44a269e9d944d08a4ad073b7ea4670b1","receiptsRoot":"0xe626e97d2629aff2a56060398d274d712a83a03255f30a9a42aa4eb7bc0ab4fd","sha3Uncles":"0x1dcc4de8dec75d7aab85b567b6ccd41ad312451b948a7413f0a142fd40d49347","size":"0x3d8","stateRoot":"0x29e30723ad43c93ce7b9e86f09da4337c6b30391989d8ac78fc80418c15841a3","timestamp":"0x65243dcd","totalDifficulty":"0x1a00415","transactions":[{"blockHash":"0x4a3eaaabb6fdbbd9ee60a70e5e4427c940a685dde87b14987bac283f96971377","blockNumber":"0xd0020a","from":"0xb05293a1099d14da0656da30f7aad459361e5b3b","gas":"0x250e3","gasPrice":"0x2faf080","hash":"0xfb93074e10c8d7554f9143720df90fd53d8c5d5ba4b3c94295ead7a821d4b033","index":"0xd00209","input":"0x414bf38900000000000000000000000078c1b0c915c4faa5fffa6cabf0219da63d7f4cb8000000000000000000000000201eba5cc46d216ce6dc03f6a759e8e766e956ae00000000000000000000000000000000000000000000000000000000000001f4000000000000000000000000b05293a1099d14da0656da30f7aad459361e5b3b0000000000000000000000000000000000000000000000000000000065243dee00000000000000000000000000000000000000000000000021077563e56e000000000000000000000000000000000000000000000000000000000000000d46490000000000000000000000000000000000000000000000000000000000000000","l1BlockNumber":"0x11774da","l1Timestamp":"0x65243dcd","l1TxOrigin":null,"nonce":"0xf1b","queueIndex":null,"queueOrigin":"sequencer","r":"0xd7fe8a5c90c5056d2acb01296209e6f0ca091e56fc9ecc0d57521591b912ea1","rawTransaction":"0xf9016e820f1b8402faf080830250e3945989fb161568b9f133edf5cf6787f5597762797f80b90104414bf38900000000000000000000000078c1b0c915c4faa5fffa6cabf0219da63d7f4cb8000000000000000000000000201eba5cc46d216ce6dc03f6a759e8e766e956ae00000000000000000000000000000000000000000000000000000000000001f4000000000000000000000000b05293a1099d14da0656da30f7aad459361e5b3b0000000000000000000000000000000000000000000000000000000065243dee00000000000000000000000000000000000000000000000021077563e56e000000000000000000000000000000000000000000000000000000000000000d46490000000000000000000000000000000000000000000000000000000000000000822734a00d7fe8a5c90c5056d2acb01296209e6f0ca091e56fc9ecc0d57521591b912ea1a00cd2021d3f54a4db6e70bc91fd7285423d5c4d52e937984fdac693b39b119649","s":"0xcd2021d3f54a4db6e70bc91fd7285423d5c4d52e937984fdac693b39b119649","to":"0x5989fb161568b9f133edf5cf6787f5597762797f","transactionIndex":"0x0","v":"0x2734","value":"0x0"}],"transactionsRoot":"0xdc7bf132125f1bbe6a9cd78777feabef56d988d62a659b38cb2bf9dd8d59d5b1","uncles":[]},"receipts":{"0xfb93074e10c8d7554f9143720df90fd53d8c5d5ba4b3c94295ead7a821d4b033":{"blockHash":"0x4a3eaaabb6fdbbd9ee60a70e5e4427c940a685dde87b14987bac283f96971377","blockNumber":"0xd0020a","from":"0xb05293a1099d14da0656da30f7aad459361e5b3b","gas":"0x250e3","gasPrice":"0x2faf080","hash":"0xfb93074e10c8d7554f9143720df90fd53d8c5d5ba4b3c94295ead7a821d4b033","index":"0xd00209","input":"0x414bf38900000000000000000000000078c1b0c915c4faa5fffa6cabf0219da63d7f4cb8000000000000000000000000201eba5cc46d216ce6dc03f6a759e8e766e956ae00000000000000000000000000000000000000000000000000000000000001f4000000000000000000000000b05293a1099d14da0656da30f7aad459361e5b3b0000000000000000000000000000000000000000000000000000000065243dee00000000000000000000000000000000000000000000000021077563e56e000000000000000000000000000000000000000000000000000000000000000d46490000000000000000000000000000000000000000000000000000000000000000","l1BlockNumber":"0x11774da","l1Timestamp":"0x65243dcd","l1TxOrigin":null,"nonce":"0xf1b","queueIndex":null,"queueOrigin":"sequencer","r":"0xd7fe8a5c90c5056d2acb01296209e6f0ca091e56fc9ecc0d57521591b912ea1","rawTransaction":"0xf9016e820f1b8402faf080830250e3945989fb161568b9f133edf5cf6787f5597762797f80b90104414bf38900000000000000000000000078c1b0c915c4faa5fffa6cabf0219da63d7f4cb8000000000000000000000000201eba5cc46d216ce6dc03f6a759e8e766e956ae00000000000000000000000000000000000000000000000000000000000001f4000000000000000000000000b05293a1099d14da0656da30f7aad459361e5b3b0000000000000000000000000000000000000000000000000000000065243dee00000000000000000000000000000000000000000000000021077563e56e000000000000000000000000000000000000000000000000000000000000000d46490000000000000000000000000000000000000000000000000000000000000000822734a00d7fe8a5c90c5056d2acb01296209e6f0ca091e56fc9ecc0d57521591b912ea1a00cd2021d3f54a4db6e70bc91fd7285423d5c4d52e937984fdac693b39b119649","s":"0xcd2021d3f54a4db6e70bc91fd7285423d5c4d52e937984fdac693b39b119649","to":"0x5989fb161568b9f133edf5cf6787f5597762797f","transactionIndex":"0x0","v":"0x2734","value":"0x0","contractAddress":null,"cumulativeGasUsed":"0x237ef","daFee":"0x0","daGasPrice":"0x0","daGasUsed":"0x12c","gasUsed":"0x237ef","l1Fee":"0x19709d787180660","l1FeeScalar":"1","l1GasPrice":"0x38a987f04864","l1GasUsed":"0x72f","logs":[{"address":"0x201eba5cc46d216ce6dc03f6a759e8e766e956ae","blockHash":"0x4a3eaaabb6fdbbd9ee60a70e5e4427c940a685dde87b14987bac283f96971377","blockNumber":"0xd0020a","data":"0x00000000000000000000000000000000000000000000000000000000000d8ba4","logIndex":"0x0","removed":false,"topics":["0xddf252ad1be2c89b69c2b068fc378daa952ba7f163c4a11628f55a4df523b3ef","0x000000000000000000000000262255f4770aebe2d0c8b97a46287dcecc2a0aff","0x000000000000000000000000b05293a1099d14da0656da30f7aad459361e5b3b"],"transactionHash":"0xfb93074e10c8d7554f9143720df90fd53d8c5d5ba4b3c94295ead7a821d4b033","transactionIndex":"0x0"},{"address":"0x78c1b0c915c4faa5fffa6cabf0219da63d7f4cb8","blockHash":"0x4a3eaaabb6fdbbd9ee60a70e5e4427c940a685dde87b14987bac283f96971377","blockNumber":"0xd0020a","data":"0x00000000000000000000000000000000000000000000000021077563e56e0000","logIndex":"0x1","removed":false,"topics":["0xddf252ad1be2c89b69c2b068fc378daa952ba7f163c4a11628f55a4df523b3ef","0x000000000000000000000000b05293a1099d14da0656da30f7aad459361e5b3b","0x000000000000000000000000262255f4770aebe2d0c8b97a46287dcecc2a0aff"],"transactionHash":"0xfb93074e10c8d7554f9143720df90fd53d8c5d5ba4b3c94295ead7a821d4b033","transactionIndex":"0x0"},{"address":"0x78c1b0c915c4faa5fffa6cabf0219da63d7f4cb8","blockHash":"0x4a3eaaabb6fdbbd9ee60a70e5e4427c940a685dde87b14987bac283f96971377","blockNumber":"0xd0020a","data":"0xfffffffffffffffffffffffffffffffffffffffffffffff993c27bbbe3b7ffff","logIndex":"0x2","removed":false,"topics":["0x8c5be1e5ebec7d5bd14f71427d1e84f3dd0314c0f7b2291e5b200ac8c7c3b925","0x000000000000000000000000b05293a1099d14da0656da30f7aad459361e5b3b","0x0000000000000000000000005989fb161568b9f133edf5cf6787f5597762797f"],"transactionHash":"0xfb93074e10c8d7554f9143720df90fd53d8c5d5ba4b3c94295ead7a821d4b033","transactionIndex":"0x0"},{"address":"0x262255f4770aebe2d0c8b97a46287dcecc2a0aff","blockHash":"0x4a3eaaabb6fdbbd9ee60a70e5e4427c940a685dde87b14987bac283f96971377","blockNumber":"0xd0020a","data":"0xfffffffffffffffffffffffffffffffffffffffffffffffffffffffffff2745c00000000000000000000000000000000000000000000000021077563e56e0000000000000000000000000000000000000018fa71c669ba4163738e1ddd90ae600000000000000000000000000000000000000000000000002523519d0e12ca8e0000000000000000000000000000000000000000000000000000000000045de5000000000000000000000000000000000000000000000000000000000000000000000000000000000000000000000000000000000000000000016ffb4746b000","logIndex":"0x3","removed":false,"topics":["0x19b47279256b2a23a1665c810c8d55a1758940ee09377d4f8d26497a3577dc83","0x0000000000000000000000005989fb161568b9f133edf5cf6787f5597762797f","0x000000000000000000000000b05293a1099d14da0656da30f7aad459361e5b3b"],"transactionHash":"0xfb93074e10c8d7554f9143720df90fd53d8c5d5ba4b3c94295ead7a821d4b033","transactionIndex":"0x0"}],"logsBloom":"0x00040000000010000000000000000000000000000001000000000000000000000000000000000000000000000002000000000000000000000000000000200000140000000040000000000008000000000000008000042000000000000000000000000000002000000000000000010000000000000000000020000010000000000000000100000000000000000000040000100000040000000000000040000000020000100000000000000000000000000000000000000000004000000000000000000002000000000000000000000000000000000000000000000000000000000010000000000000000000000000000000000000000000000000002000000000","status":"0x1","transactionHash":"0xfb93074e10c8d7554f9143720df90fd53d8c5d5ba4b3c94295ead7a821d4b033"}}}