{"block":{"difficulty":"0x2","extraData":"0xd98301090a846765746889676f312e31352e3133856c696e7578000000000000521c1ee630880cf7059308a2c9fbad2bb0a8d9e28ca1f8e92f7dd9f23a1eb87f5c7e444c648090dc4c839ca2b44957810e0c9a931a8a8d34294c894fea2f506b01","gasLimit":"0x1c9c380","gasUsed":"0x1e1d9","hash":"0xa0efd5276d88f107eca7a120e8c178c622e697ed202dbb02f0a4ccec266d6535","logsBloom":"0x00000000000000000000000000000000000000000001008800000000000000000004000000000000000000000002000000000000000000000000000000200000140000000040000000000008000000000000008000042000000200000000000000000000000080000000000000000080000000000000000000000010000000000000000000000000000000000000000000100000000000000000000000000040024000000000000000000000100200000000000001000000000000000000000000000002000000000000000000000000000000000000000000000010000000000010000000000000000000000000000000000000000000000000000000000000","miner":"0x0000000000000000000000000000000000000000","mixHash":"0x0000000000000000000000000000000000000000000000000000000000000000","nonce":"0x0000000000000000","number":"0xd00312","parentHash":"0x103bd21ccda46bdf14a9c6f1a8352a6c9bd8cd82fdea66cb2126685bd7ed0fcc","receiptsRoot":"0xa9b6b093d67e30e2aa2732a5bd5e7f0f28b7f6a5bebbef3151310e99cc97d3d8","sha3Uncles":"0x1dcc4de8dec75d7aab85b567b6ccd41ad312451b948a7413f0a142fd40d49347","size":"0x3d8","stateRoot":"0xc9891d9cdc6d5ac7ac9d5630986f1fbcd265422ea9a402890e20c162cb0e2a42","timestamp":"0x65243e5c","totalDifficulty":"0x1a00625","transactions":[{"blockHash":"0xa0efd5276d88f107eca7a120e8c178c622e697ed202dbb02f0a4ccec266d6535","blockNumber":"0xd00312","from":"0xac5f094a6dae5e512f070d4d2589a1894b479c96","gas":"0x1f96a","gasPrice":"0x2faf080","hash":"0xe8bc59d1f6f6acdbdaa3c0a7902420edfa7a38d1a45ce045cc5404c780697def","index":"0xd00311","input":"0x414bf38900000000000000000000000078c1b0c915c4faa5fffa6cabf0219da63d7f4cb8000000000000000000000000201eba5cc46d216ce6dc03f6a759e8e766e956ae00000000000000000000000000000000000000000000000000000000000001f4000000000000000000000000ac5f094a6dae5e512f070d4d2589a1894b479c960000000000000000000000000000000000000000000000000000000065243e7c0000000000000000000000000000000000000000000000001db2cea96b56000000000000000000000000000000000000000000000000000000000000000bf4090000000000000000000000000000000000000000000000000000000000000000","l1BlockNumber":"0x11774e5","l1Timestamp":"0x65243e5c","l1TxOrigin":null,"nonce":"0x10b3","queueIndex":null,"queueOrigin":"sequencer","r":"0xb986de0b29f8133796280d02c3825d9dec5000f5833adc5a4f36eeb6b03183c7","rawTransaction":"0xf9016e8210b38402faf0808301f96a94319b69888b0d11cec22caa5034e25fffbdc8842180b90104414bf38900000000000000000000000078c1b0c915c4faa5fffa6cabf0219da63d7f4cb8000000000000000000000000201eba5cc46d216ce6dc03f6a759e8e766e956ae00000000000000000000000000000000000000000000000000000000000001f4000000000000000000000000ac5f094a6dae5e512f070d4d2589a1894b479c960000000000000000000000000000000000000000000000000000000065243e7c0000000000000000000000000000000000000000000000001db2cea96b56000000000000000000000000000000000000000000000000000000000000000bf4090000000000000000000000000000000000000000000000000000000000000000822734a0b986de0b29f8133796280d02c3825d9dec5000f5833adc5a4f36eeb6b03183c7a00a7f7b0c4152c225c98a1f9491bc4b03f967da93a80a7b7115f5bf49cda43f3c","s":"0xa7f7b0c4152c225c98a1f9491bc4b03f967da93a80a7b7115f5bf49cda43f3c","to":"0x319b69888b0d11cec22caa5034e25fffbdc88421","transactionIndex":"0x0","v":"0x2734","value":"0x0"}],"transactionsRoot":"0x33fa1d8ecbff65a8b8c2ca7d8ce57d61605c9752d5771de3d8ef2e5da63d0267","uncles":[]},"receipts":{"0xe8bc59d1f6f6acdbdaa3c0a7902420edfa7a38d1a45ce045cc5404c780697def":{"blockHash":"0xa0efd5276d88f107eca7a120e8c178c622e697ed202dbb02f0a4ccec266d6535","blockNumber":"0xd00312","from":"0xac5f094a6dae5e512f070d4d2589a1894b479c96","gas":"0x1f96a","gasPrice":"0x2faf080","hash":"0xe8bc59d1f6f6acdbdaa3c0a7902420edfa7a38d1a45ce045cc5404c780697def","index":"0xd00311","input":"0x414bf38900000000000000000000000078c1b0c915c4faa5fffa6cabf0219da63d7f4cb8000000000000000000000000201eba5cc46d216ce6dc03f6a759e8e766e956ae00000000000000000000000000000000000000000000000000000000000001f4000000000000000000000000ac5f094a6dae5e512f070d4d2589a1894b479c960000000000000000000000000000000000000000000000000000000065243e7c0000000000000000000000000000000000000000000000001db2cea96b56000000000000000000000000000000000000000000000000000000000000000bf4090000000000000000000000000000000000000000000000000000000000000000","l1BlockNumber":"0x11774e5","l1Timestamp":"0x65243e5c","l1TxOrigin":null,"nonce":"0x10b3","queueIndex":null,"queueOrigin":"sequencer","r":"0xb986de0b29f8133796280d02c3825d9dec5000f5833adc5a4f36eeb6b03183c7","rawTransaction":"0xf9016e8210b38402faf0808301f96a94319b69888b0d11cec22caa5034e25fffbdc8842180b90104414bf38900000000000000000000000078c1b0c915c4faa5fffa6cabf0219da63d7f4cb8000000000000000000000000201eba5cc46d216ce6dc03f6a759e8e766e956ae00000000000000000000000000000000000000000000000000000000000001f4000000000000000000000000ac5f094a6dae5e512f070d4d2589a1894b479c960000000000000000000000000000000000000000000000000000000065243e7c0000000000000000000000000000000000000000000000001db2cea96b56000000000000000000000000000000000000000000000000000000000000000bf4090000000000000000000000000000000000000000000000000000000000000000822734a0b986de0b29f8133796280d02c3825d9dec5000f5833adc5a4f36eeb6b03183c7a00a7f7b0c4152c225c98a1f9491bc4b03f967da93a80a7b7115f5bf49cda43f3c","s":"0xa7f7b0c4152c225c98a1f9491bc4b03f967da93a80a7b7115f5bf49cda43f3c","to":"0x319b69888b0d11cec22caa5034e25fffbdc88421","transactionIndex":"0x0","v":"0x2734","value":"0x0","contractAddress":null,"cumulativeGasUsed":"0x1e1d9","daFee":"0x0","daGasPrice":"0x0","daGasUsed":"0x12c","gasUsed":"0x1e1d9","l1Fee":"0x19709d787180660","l1FeeScalar":"1","l1GasPrice":"0x38a987f04864","l1GasUsed":"0x72f","logs":[{"address":"0x201eba5cc46d216ce6dc03f6a759e8e766e956ae","blockHash":"0xa0efd5276d88f107eca7a120e8c178c622e697ed202dbb02f0a4ccec266d6535","blockNumber":"0xd00312","data":"0x00000000000000000000000000000000000000000000000000000000000c327d","logIndex":"0x0","removed":false,"topics":["0xddf252ad1be2c89b69c2b068fc378daa952ba7f163c4a11628f55a4df523b3ef","0x000000000000000000000000d08c50f7e69e9aeb2867deff4a8053d9a855e26a","0x000000000000000000000000ac5f094a6dae5e512f070d4d2589a1894b479c96"],"transactionHash":"0xe8bc59d1f6f6acdbdaa3c0a7902420edfa7a38d1a45ce045cc5404c780697def","transactionIndex":"0x0"},{"address":"0x78c1b0c915c4faa5fffa6cabf0219da63d7f4cb8","blockHash":"0xa0efd5276d88f107eca7a120e8c178c622e697ed202dbb02f0a4ccec266d6535","blockNumber":"0xd00312","data":"0x0000000000000000000000000000000000000000000000001db2cea96b560000","logIndex":"0x1","removed":false,"topics":["0xddf252ad1be2c89b69c2b068fc378daa952ba7f163c4a11628f55a4df523b3ef","0x000000000000000000000000ac5f094a6dae5e512f070d4d2589a1894b479c96","0x000000000000000000000000d08c50f7e69e9aeb2867deff4a8053d9a855e26a"],"transactionHash":"0xe8bc59d1f6f6acdbdaa3c0a7902420edfa7a38d1a45ce045cc5404c780697def","transactionIndex":"0x0"},{"address":"0x78c1b0c915c4faa5fffa6cabf0219da63d7f4cb8","blockHash":"0xa0efd5276d88f107eca7a120e8c178c622e697ed202dbb02f0a4ccec266d6535","blockNumber":"0xd00312","data":"0xffffffffffffffffffffffffffffffffffffffffffffffb3cae22a24435dffff","logIndex":"0x2","removed":false,"topics":["0x8c5be1e5ebec7d5bd14f71427d1e84f3dd0314c0f7b2291e5b200ac8c7c3b925","0x000000000000000000000000ac5f094a6dae5e512f070d4d2589a1894b479c96","0x000000000000000000000000319b69888b0d11cec22caa5034e25fffbdc88421"],"transactionHash":"0xe8bc59d1f6f6acdbdaa3c0a7902420edfa7a38d1a45ce045cc5404c780697def","transactionIndex":"0x0"},{"address":"0xd08c50f7e69e9aeb2867deff4a8053d9a855e26a","blockHash":"0xa0efd5276d88f107eca7a120e8c178c622e697ed202dbb02f0a4ccec266d6535","blockNumber":"0xd00312","data":"0xfffffffffffffffffffffffffffffffffffffffffffffffffffffffffff3cd830000000000000000000000000000000000000000000000001db2cea96b560000000000000000000000000000000000000018f5f3ea6c6f4a7b68ea5ea2b30c60000000000000000000000000000000000000000000000000006787d5d3ab8a8c0000000000000000000000000000000000000000000000000000000000045dd7000000000000000000000000000000000000000000000000000000000000000000000000000000000000000000000000000000000000000000014adfc9c4f000","logIndex":"0x3","removed":false,"topics":["0x19b47279256b2a23a1665c810c8d55a1758940ee09377d4f8d26497a3577dc83","0x000000000000000000000000319b69888b0d11cec22caa5034e25fffbdc88421","0x000000000000000000000000ac5f094a6dae5e512f070d4d2589a1894b479c96"],"transactionHash":"0xe8bc59d1f6f6acdbdaa3c0a7902420edfa7a38d1a45ce045cc5404c780697def","transactionIndex":"0x0"}],"logsBloom":"0x00000000000000000000000000000000000000000001008800000000000000000004000000000000000000000002000000000000000000000000000000200000140000000040000000000008000000000000008000042000000200000000000000000000000080000000000000000080000000000000000000000010000000000000000000000000000000000000000000100000000000000000000000000040024000000000000000000000100200000000000001000000000000000000000000000002000000000000000000000000000000000000000000000010000000000010000000000000000000000000000000000000000000000000000000000000","status":"0x1","transactionHash":"0xe8bc59d1f6f6acdbdaa3c0a7902420edfa7a38d1a45ce045cc5404c780697def"}}}