{"block":{"difficulty":"0x2","extraData":"0xd98301090a846765746889676f312e31352e3133856c696e7578000000000000a22f75fff30829e590b6032d7fe5eb6cc1d7ef6bfafd65b7367be683d3bc5d975fbe9b4570f82699e89d3dbc06ea894a6f08973b29875372129504f55b9fb16501","gasLimit":"0x1c9c380","gasUsed":"0x1fc88","hash":"0x7656597c90611d680a4b858554b907602fb1526a4f867150cf5d101745e2a0f7","logsBloom":"0x0000000000000000000000000000000000004000000100880000000000000000000000000000000000000000000200000000000000200000004000000020000004800000004400000000000800000000000000c000002000000000000000000000000000000000000000000000000000000000100000800000000010000000000000000000000000000000000000000000000000000000000000000000000000020000000000000000000000000000000000000001000000000000000000000000000002000000000000000000000000002000000000000000080000000000000010000000000000010000000000000000000000000010000000000000000000","miner":"0x0000000000000000000000000000000000000000","mixHash":"0x0000000000000000000000000000000000000000000000000000000000000000","nonce":"0x0000000000000000","number":"0xd001cd","parentHash":"0xfdd4982b00e2271d9ace2240f751e1950c334deb7a9070351e49f5c71d3fc7cf","receiptsRoot":"0xad68429c4532190d4554faf2dba8941d7ccfa8654a60517264045646d1cb9911","sha3Uncles":"0x1dcc4de8dec75d7aab85b567b6ccd41ad312451b948a7413f0a142fd40d49347","size":"0x3d8","stateRoot":"0x2ba4d6ecd080e96b8e40a712fe42689e42221625e817d386622ebf307046ce65","timestamp":"0x65243daf","totalDifficulty":"0x1a0039b","transactions":[{"blockHash":"0x7656597c90611d680a4b858554b907602fb1526a4f867150cf5d101745e2a0f7","blockNumber":"0xd001cd","from":"0x78426aef612a323ba73df704fef1d6b0f82153c8","gas":"0x21487","gasPrice":"0x2faf080","hash":"0x68c9f30a6f21cda8304a2ff43cba20b24ab1e9b11a05e139a782fb42f848270d","index":"0xd001cc","input":"0x414bf389000000000000000000000000201eba5cc46d216ce6dc03f6a759e8e766e956ae00000000000000000000000009bc4e0d864854c6afb6eb9a9cdf58ac190d0df9000000000000000000000000000000000000000000000000000000000000006400000000000000000000000078426aef612a323ba73df704fef1d6b0f82153c80000000000000000000000000000000000000000000000000000000065243dce0000000000000000000000000000000000000000000000000000000000120160000000000000000000000000000000000000000000000000000000000011a63b0000000000000000000000000000000000000000000000000000000000000000","l1BlockNumber":"0x11774d7","l1Timestamp":"0x65243daf","l1TxOrigin":null,"nonce":"0x91b","queueIndex":null,"queueOrigin":"sequencer","r":"0xcbd641722411827a3f70b00d6fda5f032d9fa5a1a272bcd9aef79006202d8b50","rawTransaction":"0xf9016e82091b8402faf0808302148794319b69888b0d11cec22caa5034e25fffbdc8842180b90104414bf389000000000000000000000000201eba5cc46d216ce6dc03f6a759e8e766e956ae00000000000000000000000009bc4e0d864854c6afb6eb9a9cdf58ac190d0df9000000000000000000000000000000000000000000000000000000000000006400000000000000000000000078426aef612a323ba73df704fef1d6b0f82153c80000000000000000000000000000000000000000000000000000000065243dce0000000000000000000000000000000000000000000000000000000000120160000000000000000000000000000000000000000000000000000000000011a63b0000000000000000000000000000000000000000000000000000000000000000822733a0cbd641722411827a3f70b00d6fda5f032d9fa5a1a272bcd9aef79006202d8b50a03a1fab565d2b560f49b995487b632e04bf97688c21bd6c2150b2f250e6530fd5","s":"0x3a1fab565d2b560f49b995487b632e04bf97688c21bd6c2150b2f250e6530fd5","to":"0x319b69888b0d11cec22caa5034e25fffbdc88421","transactionIndex":"0x0","v":"0x2733","value":"0x0"}],"transactionsRoot":"0xbab318e66034e5f6d2486f75c63d59b80f9eda993665d3eecde5c12ac2957e24","uncles":[]},"receipts":{"0x68c9f30a6f21cda8304a2ff43cba20b24ab1e9b11a05e139a782fb42f848270d":{"blockHash":"0x7656597c90611d680a4b858554b907602fb1526a4f867150cf5d101745e2a0f7","blockNumber":"0xd001cd","from":"0x78426aef612a323ba73df704fef1d6b0f82153c8","gas":"0x21487","gasPrice":"0x2faf080","hash":"0x68c9f30a6f21cda8304a2ff43cba20b24ab1e9b11a05e139a782fb42f848270d","index":"0xd001cc","input":"0x414bf389000000000000000000000000201eba5cc46d216ce6dc03f6a759e8e766e956ae00000000000000000000000009bc4e0d864854c6afb6eb9a9cdf58ac190d0df9000000000000000000000000000000000000000000000000000000000000006400000000000000000000000078426aef612a323ba73df704fef1d6b0f82153c80000000000000000000000000000000000000000000000000000000065243dce0000000000000000000000000000000000000000000000000000000000120160000000000000000000000000000000000000000000000000000000000011a63b0000000000000000000000000000000000000000000000000000000000000000","l1BlockNumber":"0x11774d7","l1Timestamp":"0x65243daf","l1TxOrigin":null,"nonce":"0x91b","queueIndex":null,"queueOrigin":"sequencer","r":"0xcbd641722411827a3f70b00d6fda5f032d9fa5a1a272bcd9aef79006202d8b50","rawTransaction":"0xf9016e82091b8402faf0808302148794319b69888b0d11cec22caa5034e25fffbdc8842180b90104414bf389000000000000000000000000201eba5cc46d216ce6dc03f6a759e8e766e956ae00000000000000000000000009bc4e0d864854c6afb6eb9a9cdf58ac190d0df9000000000000000000000000000000000000000000000000000000000000006400000000000000000000000078426aef612a323ba73df704fef1d6b0f82153c80000000000000000000000000000000000000000000000000000000065243dce0000000000000000000000000000000000000000000000000000000000120160000000000000000000000000000000000000000000000000000000000011a63b0000000000000000000000000000000000000000000000000000000000000000822733a0cbd641722411827a3f70b00d6fda5f032d9fa5a1a272bcd9aef79006202d8b50a03a1fab565d2b560f49b995487b632e04bf97688c21bd6c2150b2f250e6530fd5","s":"0x3a1fab565d2b560f49b995487b632e04bf97688c21bd6c2150b2f250e6530fd5","to":"0x319b69888b0d11cec22caa5034e25fffbdc88421","transactionIndex":"0x0","v":"0x2733","value":"0x0","contractAddress":null,"cumulativeGasUsed":"0x1fc88","daFee":"0x0","daGasPrice":"0x0","daGasUsed":"0x12c","gasUsed":"0x1fc88","l1Fee":"0x19709d787180660","l1FeeScalar":"1","l1GasPrice":"0x38a987f04864","l1GasUsed":"0x72f","logs":[{"address":"0x09bc4e0d864854c6afb6eb9a9cdf58ac190d0df9","blockHash":"0x7656597c90611d680a4b858554b907602fb1526a4f867150cf5d101745e2a0f7","blockNumber":"0xd001cd","data":"0x0000000000000000000000000000000000000000000000000000000000120271","logIndex":"0x0","removed":false,"topics":["0xddf252ad1be2c89b69c2b068fc378daa952ba7f163c4a11628f55a4df523b3ef","0x0000000000000000000000006488f911c6cd86c289aa319c5a826dcf8f1ca065","0x00000000000000000000000078426aef612a323ba73df704fef1d6b0f82153c8"],"transactionHash":"0x68c9f30a6f21cda8304a2ff43cba20b24ab1e9b11a05e139a782fb42f848270d","transactionIndex":"0x0"},{"address":"0x201eba5cc46d216ce6dc03f6a759e8e766e956ae","blockHash":"0x7656597c90611d680a4b858554b907602fb1526a4f867150cf5d101745e2a0f7","blockNumber":"0xd001cd","data":"0x0000000000000000000000000000000000000000000000000000000000120160","logIndex":"0x1","removed":false,"topics":["0xddf252ad1be2c89b69c2b068fc378daa952ba7f163c4a11628f55a4df523b3ef","0x00000000000000000000000078426aef612a323ba73df704fef1d6b0f82153c8","0x0000000000000000000000006488f911c6cd86c289aa319c5a826dcf8f1ca065"],"transactionHash":"0x68c9f30a6f21cda8304a2ff43cba20b24ab1e9b11a05e139a782fb42f848270d","transactionIndex":"0x0"},{"address":"0x201eba5cc46d216ce6dc03f6a759e8e766e956ae","blockHash":"0x7656597c90611d680a4b858554b907602fb1526a4f867150cf5d101745e2a0f7","blockNumber":"0xd001cd","data":"0xffffffffffffffffffffffffffffffffffffffffffffffffffffffffc38ed32f","logIndex":"0x2","removed":false,"topics":["0x8c5be1e5ebec7d5bd14f71427d1e84f3dd0314c0f7b2291e5b200ac8c7c3b925","0x00000000000000000000000078426aef612a323ba73df704fef1d6b0f82153c8","0x000000000000000000000000319b69888b0d11cec22caa5034e25fffbdc88421"],"transactionHash":"0x68c9f30a6f21cda8304a2ff43cba20b24ab1e9b11a05e139a782fb42f848270d","transactionIndex":"0x0"},{"address":"0x6488f911c6cd86c289aa319c5a826dcf8f1ca065","blockHash":"0x7656597c90611d680a4b858554b907602fb1526a4f867150cf5d101745e2a0f7","blockNumber":"0xd001cd","data":"0xffffffffffffffffffffffffffffffffffffffffffffffffffffffffffedfd8f00000000000000000000000000000000000000000000000000000000001201600000000000000000000000000000000000000000fff52139f6c8e20eb68ed77e0000000000000000000000000000000000000000000000000000aa91ae904e92fffffffffffffffffffffffffffffffffffffffffffffffffffffffffffffffc00000000000000000000000000000000000000000000000000000000000000000000000000000000000000000000000000000000000000000000000000000026","logIndex":"0x3","removed":false,"topics":["0x19b47279256b2a23a1665c810c8d55a1758940ee09377d4f8d26497a3577dc83","0x000000000000000000000000319b69888b0d11cec22caa5034e25fffbdc88421","0x00000000000000000000000078426aef612a323ba73df704fef1d6b0f82153c8"],"transactionHash":"0x68c9f30a6f21cda8304a2ff43cba20b24ab1e9b11a05e139a782fb42f848270d","transactionIndex":"0x0"}],"logsBloom":"0x0000000000000000000000000000000000004000000100880000000000000000000000000000000000000000000200000000000000200000004000000020000004800000004400000000000800000000000000c000002000000000000000000000000000000000000000000000000000000000100000800000000010000000000000000000000000000000000000000000000000000000000000000000000000020000000000000000000000000000000000000001000000000000000000000000000002000000000000000000000000002000000000000000080000000000000010000000000000010000000000000000000000000010000000000000000000","status":"0x1","transactionHash":"0x68c9f30a6f21cda8304a2ff43cba20b24ab1e9b11a05e139a782fb42f848270d"}}}