{"block":{"difficulty":"0x2","extraData":"0xd98301090a846765746889676f312e31352e3133856c696e75780000000000008aa0a4b173361a4fd064cfa692cc7fb1febdd518712efc55f9bcd7c6ac83e13b1ac891bc588b48601dbe4075e357f77e1542a3e8eed296e84563ba55e9d2205e00","gasLimit":"0x1c9c380","gasUsed":"0x23940","hash":"0xe7e681a2b57ccacf66b7d76ec37c9b1190dc639a411166ce5d856ac7ecf73449","logsBloom":"0x00000000000000000000000000000000000000000001001000000000000000000800000000000000000000000002000080000000000000000000000000200000040000000040000000000408000000000000008000002000000000000800000000000000000000000000000100000000000000000000000000000010000000000000000000000000000000000000040000020000000000000000000040000000020000000000000000000000000000000000000000000000004100000000000000000002000000000000000000000000000000000000000000000000000000000010000000001000000000000000004000000000000000000000001000020000","miner":"0x0000000000000000000000000000000000000000","mixHash":"0x0000000000000000000000000000000000000000000000000000000000000000","nonce":"0x0000000000000000","number":"0xd002b8","parentHash":"0x2e84f86000a6da49245c8ec875080662d5e304b3fab4375399b7649b14459559","receiptsRoot":"0x4b693da300f5ef7f05d3626069f15574bd1a3ed0f46b05374ca19d754c772b3a","sha3Uncles":"0x1dcc4de8dec75d7aab85b567b6ccd41ad312451b948a7413f0a142fd40d49347","size":"0x3d8","stateRoot":"0xceb0fff2884f19a012372b4b932df0401454ed9b6166e982db5ee74c7a64130a","timestamp":"0x65243e2f","totalDifficulty":"0x1a00571","transactions":[{"blockHash":"0xe7e681a2b57ccacf66b7d76ec37c9b1190dc639a411166ce5d856ac7ecf73449","blockNumber":"0xd002b8","from":"0xf6b0b75afff2490ec86dab21a417bd6cf6ce651b","gas":"0x25243","gasPrice":"0x2faf080","hash":"0x032527c6bc699f60b300b927d414569c443bcfbc13841175bbc99fdee064bc9c","index":"0xd002b7","input":"0x414bf389000000000000000000000000201eba5cc46d216ce6dc03f6a759e8e766e956ae000000000000000000000000deaddeaddeaddeaddeaddeaddeaddeaddead111100000000000000000000000000000000000000000000000000000000000001f4000000000000000000000000f6b0b75afff2490ec86dab21a417bd6cf6ce651b0000000000000000000000000000000000000000000000000000000065243e5100000000000000000000000000000000000000000000000000000000000ea60000000000000000000000000000000000000000000000000000021e2305d819830000000000000000000000000000000000000000000000000000000000000000","l1BlockNumber":"0x11774e2","l1Timestamp":"0x65243e2f","l1TxOrigin":null,"nonce":"0x7c8","queueIndex":null,"queueOrigin":"sequencer","r":"0xdc3b69500c938f0e8c2f5a709ced8001b4f0e52bcc35a7c149a1cf90af097a94","rawTransaction":"0xf9016e8207c88402faf08083025243945989fb161568b9f133edf5cf6787f5597762797f80b90104414bf389000000000000000000000000201eba5cc46d216ce6dc03f6a759e8e766e956ae000000000000000000000000deaddeaddeaddeaddeaddeaddeaddeaddead111100000000000000000000000000000000000000000000000000000000000001f4000000000000000000000000f6b0b75afff2490ec86dab21a417bd6cf6ce651b0000000000000000000000000000000000000000000000000000000065243e5100000000000000000000000000000000000000000000000000000000000ea60000000000000000000000000000000000000000000000000000021e2305d819830000000000000000000000000000000000000000000000000000000000000000822733a0dc3b69500c938f0e8c2f5a709ced8001b4f0e52bcc35a7c149a1cf90af097a94a07242e018275ad31b5802553b4d151f06789142dee0cc1def11e3b328703f1027","s":"0x7242e018275ad31b5802553b4d151f06789142dee0cc1def11e3b328703f1027","to":"0x5989fb161568b9f133edf5cf6787f5597762797f","transactionIndex":"0x0","v":"0x2733","value":"0x0"}],"transactionsRoot":"0xbfda07bacf1ce371cc371e07224d5f70217c7fa33982051b9cfb3d752163a223","uncles":[]},"receipts":{"0x032527c6bc699f60b300b927d414569c443bcfbc13841175bbc99fdee064bc9c":{"blockHash":"0xe7e681a2b57ccacf66b7d76ec37c9b1190dc639a411166ce5d856ac7ecf73449","blockNumber":"0xd002b8","from":"0xf6b0b75afff2490ec86dab21a417bd6cf6ce651b","gas":"0x25243","gasPrice":"0x2faf080","hash":"0x032527c6bc699f60b300b927d414569c443bcfbc13841175bbc99fdee064bc9c","index":"0xd002b7","input":"0x414bf389000000000000000000000000201eba5cc46d216ce6dc03f6a759e8e766e956ae000000000000000000000000deaddeaddeaddeaddeaddeaddeaddeaddead111100000000000000000000000000000000000000000000000000000000000001f4000000000000000000000000f6b0b75afff2490ec86dab21a417bd6cf6ce651b0000000000000000000000000000000000000000000000000000000065243e5100000000000000000000000000000000000000000000000000000000000ea60000000000000000000000000000000000000000000000000000021e2305d819830000000000000000000000000000000000000000000000000000000000000000","l1BlockNumber":"0x11774e2","l1Timestamp":"0x65243e2f","l1TxOrigin":null,"nonce":"0x7c8","queueIndex":null,"queueOrigin":"sequencer","r":"0xdc3b69500c938f0e8c2f5a709ced8001b4f0e52bcc35a7c149a1cf90af097a94","rawTransaction":"0xf9016e8207c88402faf08083025243945989fb161568b9f133edf5cf6787f5597762797f80b90104414bf389000000000000000000000000201eba5cc46d216ce6dc03f6a759e8e766e956ae000000000000000000000000deaddeaddeaddeaddeaddeaddeaddeaddead111100000000000000000000000000000000000000000000000000000000000001f4000000000000000000000000f6b0b75afff2490ec86dab21a417bd6cf6ce651b0000000000000000000000000000000000000000000000000000000065243e5100000000000000000000000000000000000000000000000000000000000ea60000000000000000000000000000000000000000000000000000021e2305d819830000000000000000000000000000000000000000000000000000000000000000822733a0dc3b69500c938f0e8c2f5a709ced8001b4f0e52bcc35a7c149a1cf90af097a94a07242e018275ad31b5802553b4d151f06789142dee0cc1def11e3b328703f1027","s":"0x7242e018275ad31b5802553b4d151f06789142dee0cc1def11e3b328703f1027","to":"0x5989fb161568b9f133edf5cf6787f5597762797f","transactionIndex":"0x0","v":"0x2733","value":"0x0","contractAddress":null,"cumulativeGasUsed":"0x23940","daFee":"0x0","daGasPrice":"0x0","daGasUsed":"0x12c","gasUsed":"0x23940","l1Fee":"0x19709d787180660","l1FeeScalar":"1","l1GasPrice":"0x38a987f04864","l1GasUsed":"0x72f","logs":[{"address":"0xdeaddeaddeaddeaddeaddeaddeaddeaddead1111","blockHash":"0xe7e681a2b57ccacf66b7d76ec37c9b1190dc639a411166ce5d856ac7ecf73449","blockNumber":"0xd002b8","data":"0x00000000000000000000000000000000000000000000000000022933693a8cf9","logIndex":"0x0","removed":false,"topics":["0xddf252ad1be2c89b69c2b068fc378daa952ba7f163c4a11628f55a4df523b3ef","0x000000000000000000000000a125af1a4704044501fe12ca9567ef1550e430e8","0x000000000000000000000000f6b0b75afff2490ec86dab21a417bd6cf6ce651b"],"transactionHash":"0x032527c6bc699f60b300b927d414569c443bcfbc13841175bbc99fdee064bc9c","transactionIndex":"0x0"},{"address":"0x201eba5cc46d216ce6dc03f6a759e8e766e956ae","blockHash":"0xe7e681a2b57ccacf66b7d76ec37c9b1190dc639a411166ce5d856ac7ecf73449","blockNumber":"0xd002b8","data":"0x00000000000000000000000000000000000000000000000000000000000ea600","logIndex":"0x1","removed":false,"topics":["0xddf252ad1be2c89b69c2b068fc378daa952ba7f163c4a11628f55a4df523b3ef","0x000000000000000000000000f6b0b75afff2490ec86dab21a417bd6cf6ce651b","0x000000000000000000000000a125af1a4704044501fe12ca9567ef1550e430e8"],"transactionHash":"0x032527c6bc699f60b300b927d414569c443bcfbc13841175bbc99fdee064bc9c","transactionIndex":"0x0"},{"address":"0x201eba5cc46d216ce6dc03f6a759e8e766e956ae","blockHash":"0xe7e681a2b57ccacf66b7d76ec37c9b1190dc639a411166ce5d856ac7ecf73449","blockNumber":"0xd002b8","data":"0xfffffffffffffffffffffffffffffffffffffffffffffffffffffffffa09f7ef","logIndex":"0x2","removed":false,"topics":["0x8c5be1e5ebec7d5bd14f71427d1e84f3dd0314c0f7b2291e5b200ac8c7c3b925","0x000000000000000000000000f6b0b75afff2490ec86dab21a417bd6cf6ce651b","0x0000000000000000000000005989fb161568b9f133edf5cf6787f5597762797f"],"transactionHash":"0x032527c6bc699f60b300b927d414569c443bcfbc13841175bbc99fdee064bc9c","transactionIndex":"0x0"},{"address":"0xa125af1a4704044501fe12ca9567ef1550e430e8","blockHash":"0xe7e681a2b57ccacf66b7d76ec37c9b1190dc639a411166ce5d856ac7ecf73449","blockNumber":"0xd002b8","data":"0x00000000000000000000000000000000000000000000000000000000000ea600fffffffffffffffffffffffffffffffffffffffffffffffffffdd6cc96c57307000000000000000000000000000000000000625997d7f88f2d11af207e14243500000000000000000000000000000000000000000000000000c2e1d164a152b300000000000000000000000000000000000000000000000000000000000317bc00000000000000000000000000000000000000000000000000000000000000a30000000000000000000000000000000000000000000000000000000000000000","logIndex":"0x3","removed":false,"topics":["0x19b47279256b2a23a1665c810c8d55a1758940ee09377d4f8d26497a3577dc83","0x0000000000000000000000005989fb161568b9f133edf5cf6787f5597762797f","0x000000000000000000000000f6b0b75afff2490ec86dab21a417bd6cf6ce651b"],"transactionHash":"0x032527c6bc699f60b300b927d414569c443bcfbc13841175bbc99fdee064bc9c","transactionIndex":"0x0"}],"logsBloom":"0x00000000000000000000000000000000000000000001001000000000000000000800000000000000000000000002000080000000000000000000000000200000040000000040000000000408000000000000008000002000000000000800000000000000000000000000000100000000000000000000000000000010000000000000000000000000000000000000040000020000000000000000000040000000020000000000000000000000000000000000000000000000004100000000000000000002000000000000000000000000000000000000000000000000000000000010000000001000000000000000004000000000000000000000001000020000","status":"0x1","transactionHash":"0x032527c6bc699f60b300b927d414569c443bcfbc13841175bbc99fdee064bc9c"}}}