{"block":{"difficulty":"0x2","extraData":"0xd98301090a846765746889676f312e31352e3133856c696e757800000000000075721adda5bf5b76ea6cdf66e4542c6c5de2715c11af84b2938623265d0a132c009ced8db13c9931feb0b5069e3b44631ade62d65329c422486ad44c46f0585400","gasLimit":"0x1c9c380","gasUsed":"0x5208","hash":"0x107c46e6e5cd7eb1d651f110988c2830aff1d4523dc92469ac977e5a23be0a58","logsBloom":"0x00000000000000000000000000000000000000000000000000000000000000000000000000000000000000000000000000000000000000000000000000000000000000000000000000000000000000000000000000000000000000000000000000000000000000000000000000000000000000000000000000000000000000000000000000000000000000000000000000000000000000000000000000000000000000000000000000000000000000000000000000000000000000000000000000000000000000000000000000000000000000000000000000000000000000000000000000000000000000000000000000000000000000000000000000000000","miner":"0x0000000000000000000000000000000000000000","mixHash":"0x0000000000000000000000000000000000000000000000000000000000000000","nonce":"0x0000000000000000","number":"0xd0028d","parentHash":"0x3a62efc1c13d4f38cfff60a590b739ca0cdf9af107a0a8b223f2f6607d85434a","receiptsRoot":"0x056b23fbba480696b65fe5a59b8f2148a1299103c4f57df839233af2cf4ca2d2","sha3Uncles":"0x1dcc4de8dec75d7aab85b567b6ccd41ad312451b948a7413f0a142fd40d49347","size":"0x2cd","stateRoot":"0x9d6064689f8deb2d38a38d0f771e0c7ac48aad0e41615d5973444e319f2411e7","timestamp":"0x65243e20","totalDifficulty":"0x1a0051b","transactions":[{"blockHash":"0x107c46e6e5cd7eb1d651f110988c2830aff1d4523dc92469ac977e5a23be0a58","blockNumber":"0xd0028d","from":"0xb52e9bccd899d3c5ef91256aff62ccc163109667","gas":"0x5208","gasPrice":"0x2faf080","hash":"0x56d7f735e1e79e3619f50fcd2a7019a6d769bf588557479bd5b2b6ffcb599e34","index":"0xd0028c","input":"0x","l1BlockNumber":"0x11774e0","l1Timestamp":"0x65243e20","l1TxOrigin":null,"nonce":"0xb0","queueIndex":null,"queueOrigin":"sequencer","r":"0x965083144de4c89cf6dcb6e8302160af0dda4390c5e05ff4a1d9a09b17845c12","rawTransaction":"0xf86681b08402faf08082520894f5443467e8aa88138a721d72ae815c842ee5c38b8080822734a0965083144de4c89cf6dcb6e8302160af0dda4390c5e05ff4a1d9a09b17845c12a015f9a8b422fdd045657477e056a6b3c6385c43201d05171cd76e095acd917304","s":"0x15f9a8b422fdd045657477e056a6b3c6385c43201d05171cd76e095acd917304","to":"0xf5443467e8aa88138a721d72ae815c842ee5c38b","transactionIndex":"0x0","v":"0x2734","value":"0x0"}],"transactionsRoot":"0xba699adbc339667c55cbd18112f346f850e51a9d77d0132f16b4bd44fd5b6e5a","uncles":[]},"receipts":{"0x56d7f735e1e79e3619f50fcd2a7019a6d769bf588557479bd5b2b6ffcb599e34":{"blockHash":"0x107c46e6e5cd7eb1d651f110988c2830aff1d4523dc92469ac977e5a23be0a58","blockNumber":"0xd0028d","from":"0xb52e9bccd899d3c5ef91256aff62ccc163109667","gas":"0x5208","gasPrice":"0x2faf080","hash":"0x56d7f735e1e79e3619f50fcd2a7019a6d769bf588557479bd5b2b6ffcb599e34","index":"0xd0028c","input":"0x","l1BlockNumber":"0x11774e0","l1Timestamp":"0x65243e20","l1TxOrigin":null,"nonce":"0xb0","queueIndex":null,"queueOrigin":"sequencer","r":"0x965083144de4c89cf6dcb6e8302160af0dda4390c5e05ff4a1d9a09b17845c12","rawTransaction":"0xf86681b08402faf08082520894f5443467e8aa88138a721d72ae815c842ee5c38b8080822734a0965083144de4c89cf6dcb6e8302160af0dda4390c5e05ff4a1d9a09b17845c12a015f9a8b422fdd045657477e056a6b3c6385c43201d05171cd76e095acd917304","s":"0x15f9a8b422fdd045657477e056a6b3c6385c43201d05171cd76e095acd917304","to":"0xf5443467e8aa88138a721d72ae815c842ee5c38b","transactionIndex":"0x0","v":"0x2734","value":"0x0","contractAddress":null,"cumulativeGasUsed":"0x5208","daFee":"0x0","daGasPrice":"0x0","daGasUsed":"0x22","gasUsed":"0x5208","l1Fee":"0x19709d787180660","l1FeeScalar":"1","l1GasPrice":"0x38a987f04864","l1GasUsed":"0x72f","logs":[],"logsBloom":"0x00000000000000000000000000000000000000000000000000000000000000000000000000000000000000000000000000000000000000000000000000000000000000000000000000000000000000000000000000000000000000000000000000000000000000000000000000000000000000000000000000000000000000000000000000000000000000000000000000000000000000000000000000000000000000000000000000000000000000000000000000000000000000000000000000000000000000000000000000000000000000000000000000000000000000000000000000000000000000000000000000000000000000000000000000000000","status":"0x1","transactionHash":"0x56d7f735e1e79e3619f50fcd2a7019a6d769bf588557479bd5b2b6ffcb599e34"}}}