{"block":{"difficulty":"0x2","extraData":"0xd98301090a846765746889676f312e31352e3133856c696e75780000000000000e22efbcbc8e9f1abfe67fb539dc21e5ac0f4f635b8b44ef69f4b7cbfb6d47a170200e865438a930782202ccddfca5a0a305834a73868888b991602fd1b602e300","gasLimit":"0x1c9c380","gasUsed":"0x1e365","hash":"0xcb9441e9b1037f847620fcf3a3ff1392bdd9a7e889c986ec6f592d74ef5c3138","logsBloom":"0x00000000000000000000000000000000000000000001008800000000000000000004000000000000000000000002800000000000000000000000000000200000140000000040000000000008000000000000008000042000000200040000000000000000000000000000000000000080000000000000000000000010000000000000000000000000000000000000000000100000000000000000000000000040020000000000000000000000000200000000000001000000000000000000000000000002000000000000000000000000000000000000000000000010000000000010000000000000000000000000000000000000000000800000000000000000","miner":"0x0000000000000000000000000000000000000000","mixHash":"0x0000000000000000000000000000000000000000000000000000000000000000","nonce":"0x0000000000000000","number":"0xcff365","parentHash":"0x9ebfdcdf6dee09ebd5e8b0500ce95c71a2bdeab8fc3e1129a6a07d4cb93e77ac","receiptsRoot":"0xa1e6193b08a95c4d6ccbfd1844168453eb35fc6740440dc6024ef655561a649e","sha3Uncles":"0x1dcc4de8dec75d7aab85b567b6ccd41ad312451b948a7413f0a142fd40d49347","size":"0x3d8","stateRoot":"0x5e4fcf2ba1417c7fcddeecec868f3492cc1f42593f6e9a6f9d353abff58cae92","timestamp":"0x65243734","totalDifficulty":"0x19fe6cb","transactions":[{"blockHash":"0xcb9441e9b1037f847620fcf3a3ff1392bdd9a7e889c986ec6f592d74ef5c3138","blockNumber":"0xcff365","from":"0xe70b949a7b2652dee21068f2501912d8f09f7701","gas":"0x1fb07","gasPrice":"0x2faf080","hash":"0x2075dcfec9bdb18f4eefaa4bb5ba4c4b3c30fb9ad51e2ebd08b6acf1d6067fe1","index":"0xcff364","input":"0x414bf389000000000000000000000000201eba5cc46d216ce6dc03f6a759e8e766e956ae00000000000000000000000078c1b0c915c4faa5fffa6cabf0219da63d7f4cb800000000000000000000000000000000000000000000000000000000000001f4000000000000000000000000e70b949a7b2652dee21068f2501912d8f09f770100000000000000000000000000000000000000000000000000000000652437540000000000000000000000000000000000000000000000000000000000118c300000000000000000000000000000000000000000000000002a108c4caf75d4b30000000000000000000000000000000000000000000000000000000000000000","l1BlockNumber":"0x117744d","l1Timestamp":"0x65243734","l1TxOrigin":null,"nonce":"0xf17","queueIndex":null,"queueOrigin":"sequencer","r":"0xd374ec0bd1b616a8e849a77ffa0df3e02c7f926be8c624201b0f3fb90971e9d2","rawTransaction":"0xf9016e820f178402faf0808301fb0794319b69888b0d11cec22caa5034e25fffbdc8842180b90104414bf389000000000000000000000000201eba5cc46d216ce6dc03f6a759e8e766e956ae00000000000000000000000078c1b0c915c4faa5fffa6cabf0219da63d7f4cb800000000000000000000000000000000000000000000000000000000000001f4000000000000000000000000e70b949a7b2652dee21068f2501912d8f09f770100000000000000000000000000000000000000000000000000000000652437540000000000000000000000000000000000000000000000000000000000118c300000000000000000000000000000000000000000000000002a108c4caf75d4b30000000000000000000000000000000000000000000000000000000000000000822733a0d374ec0bd1b616a8e849a77ffa0df3e02c7f926be8c624201b0f3fb90971e9d2a03e7e82bdf701c6db4be2b7fa6cbff9a372c62f6b77a30a0b37724ab1d20e2eb2","s":"0x3e7e82bdf701c6db4be2b7fa6cbff9a372c62f6b77a30a0b37724ab1d20e2eb2","to":"0x319b69888b0d11cec22caa5034e25fffbdc88421","transactionIndex":"0x0","v":"0x2733","value":"0x0"}],"transactionsRoot":"0x5f502c29eef1114cf096b76b2f17840260862aaac16d7213f1bdaa5daeb507f1","uncles":[]},"receipts":{"0x2075dcfec9bdb18f4eefaa4bb5ba4c4b3c30fb9ad51e2ebd08b6acf1d6067fe1":{"blockHash":"0xcb9441e9b1037f847620fcf3a3ff1392bdd9a7e889c986ec6f592d74ef5c3138","blockNumber":"0xcff365","from":"0xe70b949a7b2652dee21068f2501912d8f09f7701","gas":"0x1fb07","gasPrice":"0x2faf080","hash":"0x2075dcfec9bdb18f4eefaa4bb5ba4c4b3c30fb9ad51e2ebd08b6acf1d6067fe1","index":"0xcff364","input":"0x414bf389000000000000000000000000201eba5cc46d216ce6dc03f6a759e8e766e956ae00000000000000000000000078c1b0c915c4faa5fffa6cabf0219da63d7f4cb800000000000000000000000000000000000000000000000000000000000001f4000000000000000000000000e70b949a7b2652dee21068f2501912d8f09f770100000000000000000000000000000000000000000000000000000000652437540000000000000000000000000000000000000000000000000000000000118c300000000000000000000000000000000000000000000000002a108c4caf75d4b30000000000000000000000000000000000000000000000000000000000000000","l1BlockNumber":"0x117744d","l1Timestamp":"0x65243734","l1TxOrigin":null,"nonce":"0xf17","queueIndex":null,"queueOrigin":"sequencer","r":"0xd374ec0bd1b616a8e849a77ffa0df3e02c7f926be8c624201b0f3fb90971e9d2","rawTransaction":"0xf9016e820f178402faf0808301fb0794319b69888b0d11cec22caa5034e25fffbdc8842180b90104414bf389000000000000000000000000201eba5cc46d216ce6dc03f6a759e8e766e956ae00000000000000000000000078c1b0c915c4faa5fffa6cabf0219da63d7f4cb800000000000000000000000000000000000000000000000000000000000001f4000000000000000000000000e70b949a7b2652dee21068f2501912d8f09f770100000000000000000000000000000000000000000000000000000000652437540000000000000000000000000000000000000000000000000000000000118c300000000000000000000000000000000000000000000000002a108c4caf75d4b30000000000000000000000000000000000000000000000000000000000000000822733a0d374ec0bd1b616a8e849a77ffa0df3e02c7f926be8c624201b0f3fb90971e9d2a03e7e82bdf701c6db4be2b7fa6cbff9a372c62f6b77a30a0b37724ab1d20e2eb2","s":"0x3e7e82bdf701c6db4be2b7fa6cbff9a372c62f6b77a30a0b37724ab1d20e2eb2","to":"0x319b69888b0d11cec22caa5034e25fffbdc88421","transactionIndex":"0x0","v":"0x2733","value":"0x0","contractAddress":null,"cumulativeGasUsed":"0x1e365","daFee":"0x0","daGasPrice":"0x0","daGasUsed":"0x12c","gasUsed":"0x1e365","l1Fee":"0x1c5145ff7a866d0","l1FeeScalar":"1","l1GasPrice":"0x3f1249c65230","l1GasUsed":"0x72f","logs":[{"address":"0x78c1b0c915c4faa5fffa6cabf0219da63d7f4cb8","blockHash":"0xcb9441e9b1037f847620fcf3a3ff1392bdd9a7e889c986ec6f592d74ef5c3138","blockNumber":"0xcff365","data":"0x0000000000000000000000000000000000000000000000002aec50780bdb803a","logIndex":"0x0","removed":false,"topics":["0xddf252ad1be2c89b69c2b068fc378daa952ba7f163c4a11628f55a4df523b3ef","0x000000000000000000000000d08c50f7e69e9aeb2867deff4a8053d9a855e26a","0x000000000000000000000000e70b949a7b2652dee21068f2501912d8f09f7701"],"transactionHash":"0x2075dcfec9bdb18f4eefaa4bb5ba4c4b3c30fb9ad51e2ebd08b6acf1d6067fe1","transactionIndex":"0x0"},{"address":"0x201eba5cc46d216ce6dc03f6a759e8e766e956ae","blockHash":"0xcb9441e9b1037f847620fcf3a3ff1392bdd9a7e889c986ec6f592d74ef5c3138","blockNumber":"0xcff365","data":"0x0000000000000000000000000000000000000000000000000000000000118c30","logIndex":"0x1","removed":false,"topics":["0xddf252ad1be2c89b69c2b068fc378daa952ba7f163c4a11628f55a4df523b3ef","0x000000000000000000000000e70b949a7b2652dee21068f2501912d8f09f7701","0x000000000000000000000000d08c50f7e69e9aeb2867deff4a8053d9a855e26a"],"transactionHash":"0x2075dcfec9bdb18f4eefaa4bb5ba4c4b3c30fb9ad51e2ebd08b6acf1d6067fe1","transactionIndex":"0x0"},{"address":"0x201eba5cc46d216ce6dc03f6a759e8e766e956ae","blockHash":"0xcb9441e9b1037f847620fcf3a3ff1392bdd9a7e889c986ec6f592d74ef5c3138","blockNumber":"0xcff365","data":"0xffffffffffffffffffffffffffffffffffffffffffffffffffffffff9631d17f","logIndex":"0x2","removed":false,"topics":["0x8c5be1e5ebec7d5bd14f71427d1e84f3dd0314c0f7b2291e5b200ac8c7c3b925","0x000000000000000000000000e70b949a7b2652dee21068f2501912d8f09f7701","0x000000000000000000000000319b69888b0d11cec22caa5034e25fffbdc88421"],"transactionHash":"0x2075dcfec9bdb18f4eefaa4bb5ba4c4b3c30fb9ad51e2ebd08b6acf1d6067fe1","transactionIndex":"0x0"},{"address":"0xd08c50f7e69e9aeb2867deff4a8053d9a855e26a","blockHash":"0xcb9441e9b1037f847620fcf3a3ff1392bdd9a7e889c986ec6f592d74ef5c3138","blockNumber":"0xcff365","data":"0x0000000000000000000000000000000000000000000000000000000000118c30ffffffffffffffffffffffffffffffffffffffffffffffffd513af87f4247fc60000000000000000000000000000000000190771b23ee35c3aa3449597600d58000000000000000000000000000000000000000000000000004794f35730b3980000000000000000000000000000000000000000000000000000000000045e0e00000000000000000000000000000000000000000000000000000000000000c30000000000000000000000000000000000000000000000000000000000000000","logIndex":"0x3","removed":false,"topics":["0x19b47279256b2a23a1665c810c8d55a1758940ee09377d4f8d26497a3577dc83","0x000000000000000000000000319b69888b0d11cec22caa5034e25fffbdc88421","0x000000000000000000000000e70b949a7b2652dee21068f2501912d8f09f7701"],"transactionHash":"0x2075dcfec9bdb18f4eefaa4bb5ba4c4b3c30fb9ad51e2ebd08b6acf1d6067fe1","transactionIndex":"0x0"}],"logsBloom":"0x00000000000000000000000000000000000000000001008800000000000000000004000000000000000000000002800000000000000000000000000000200000140000000040000000000008000000000000008000042000000200040000000000000000000000000000000000000080000000000000000000000010000000000000000000000000000000000000000000100000000000000000000000000040020000000000000000000000000200000000000001000000000000000000000000000002000000000000000000000000000000000000000000000010000000000010000000000000000000000000000000000000000000800000000000000000","status":"0x1","transactionHash":"0x2075dcfec9bdb18f4eefaa4bb5ba4c4b3c30fb9ad51e2ebd08b6acf1d6067fe1"}}}