{"block":{"difficulty":"0x2","extraData":"0xd98301090a846765746889676f312e31352e3133856c696e7578000000000000935639de56ac1a35d92ab5ae6d330ce47d4306133cf7c55b310de9c3e7457c5a2a9957f1175b10d4f2e5923aed0ffd7ca9a01d9be284c26a42834197f3dba2fc00","gasLimit":"0x1c9c380","gasUsed":"0x2efad","hash":"0x5af4a0d050ec4092913b9ad3eda14f54ef65932b4ca26e27f00f2b3577643034","logsBloom":"0x00000000000000000000000000000000000000004000000000000000000000000000000000000000000000000000000000000000000000000000000000000000000000000000000000000000000000000000000000000000000000000000000000040000000000000000100000000000800000000000000000000000000000000000000000000000000000000000000000000000000040000000000000000000000000000000000000000000000000000000000000000000000000000000000000000000000000000000000000000000000000000000000000000000000000000000000000000000000080000000000000000000000000000000000000000000","miner":"0x0000000000000000000000000000000000000000","mixHash":"0x0000000000000000000000000000000000000000000000000000000000000000","nonce":"0x0000000000000000","number":"0xd00073","parentHash":"0x652ee9265d44ec2a48c83b8df3e3f7ecae1c1598ec9b4ba1e5ec4b6fe59d00f2","receiptsRoot":"0x66b30f61fec1edb13d3151c9c4d7489db48ebe3e13cd48a4e09d324dcf41d57c","sha3Uncles":"0x1dcc4de8dec75d7aab85b567b6ccd41ad312451b948a7413f0a142fd40d49347","size":"0x2fa","stateRoot":"0xe213c23bdf2e65561f9decf91dceb1216da437a6b68a2cb29955e92451c71c39","timestamp":"0x65243d01","totalDifficulty":"0x1a000e7","transactions":[{"blockHash":"0x5af4a0d050ec4092913b9ad3eda14f54ef65932b4ca26e27f00f2b3577643034","blockNumber":"0xd00073","from":"0x67da1731f3d6db2c564152bcc270b95a312f855b","gas":"0x2f9af","gasPrice":"0x2faf080","hash":"0x596f7731f7fc804bb7562c5b68b79b1fefd2fd8667d79e1cd506d2248240eee7","index":"0xd00072","input":"0x4c85b42500000000000000000000000073bc785b57067107ec34e13cfb122084f44aa8be","l1BlockNumber":"0x11774c9","l1Timestamp":"0x65243d01","l1TxOrigin":null,"nonce":"0x21","queueIndex":null,"queueOrigin":"sequencer","r":"0x4867698b906e88257c8d2b9449d867e8290b64f56ef5d493c103ab5d89d0b785","rawTransaction":"0xf892218402faf0808302f9af9453167401aeebff5677c31e1dda945628422d7ed2880f43fc2c04ee0000a44c85b42500000000000000000000000073bc785b57067107ec34e13cfb122084f44aa8be822733a04867698b906e88257c8d2b9449d867e8290b64f56ef5d493c103ab5d89d0b785a0342793f5e70e22a1fb7917c86f9b8f581e17d65b5d04a963f2fb6a1d7bbbc5b0","s":"0x342793f5e70e22a1fb7917c86f9b8f581e17d65b5d04a963f2fb6a1d7bbbc5b0","to":"0x53167401aeebff5677c31e1dda945628422d7ed2","transactionIndex":"0x0","v":"0x2733","value":"0xf43fc2c04ee0000"}],"transactionsRoot":"0xb128d9cbcf06788f9293f34efde50a3cf155deb28afe8f2df5ae1556628dad9b","uncles":[]},"receipts":{"0x596f7731f7fc804bb7562c5b68b79b1fefd2fd8667d79e1cd506d2248240eee7":{"blockHash":"0x5af4a0d050ec4092913b9ad3eda14f54ef65932b4ca26e27f00f2b3577643034","blockNumber":"0xd00073","from":"0x67da1731f3d6db2c564152bcc270b95a312f855b","gas":"0x2f9af","gasPrice":"0x2faf080","hash":"0x596f7731f7fc804bb7562c5b68b79b1fefd2fd8667d79e1cd506d2248240eee7","index":"0xd00072","input":"0x4c85b42500000000000000000000000073bc785b57067107ec34e13cfb122084f44aa8be","l1BlockNumber":"0x11774c9","l1Timestamp":"0x65243d01","l1TxOrigin":null,"nonce":"0x21","queueIndex":null,"queueOrigin":"sequencer","r":"0x4867698b906e88257c8d2b9449d867e8290b64f56ef5d493c103ab5d89d0b785","rawTransaction":"0xf892218402faf0808302f9af9453167401aeebff5677c31e1dda945628422d7ed2880f43fc2c04ee0000a44c85b42500000000000000000000000073bc785b57067107ec34e13cfb122084f44aa8be822733a04867698b906e88257c8d2b9449d867e8290b64f56ef5d493c103ab5d89d0b785a0342793f5e70e22a1fb7917c86f9b8f581e17d65b5d04a963f2fb6a1d7bbbc5b0","s":"0x342793f5e70e22a1fb7917c86f9b8f581e17d65b5d04a963f2fb6a1d7bbbc5b0","to":"0x53167401aeebff5677c31e1dda945628422d7ed2","transactionIndex":"0x0","v":"0x2733","value":"0xf43fc2c04ee0000","contractAddress":null,"cumulativeGasUsed":"0x2efad","daFee":"0x0","daGasPrice":"0x0","daGasUsed":"0x4f","gasUsed":"0x2efad","l1Fee":"0x1a09f6380cb9fe0","l1FeeScalar":"1","l1GasPrice":"0x39ff1464e55c","l1GasUsed":"0x72f","logs":[{"address":"0x53167401aeebff5677c31e1dda945628422d7ed2","blockHash":"0x5af4a0d050ec4092913b9ad3eda14f54ef65932b4ca26e27f00f2b3577643034","blockNumber":"0xd00073","data":"0x00000000000000000000000067da1731f3d6db2c564152bcc270b95a312f855b00000000000000000000000073bc785b57067107ec34e13cfb122084f44aa8be000000000000000000000000000000000000000000000000000000000000000100000000000000000000000000000000000000000000000000000000000000010000000000000000000000000000000000000000000000000de0b6b3a7640000000000000000000000000000000000000000000000000000006a94d74f43000000000000000000000000000000000000000000000000000000b1a2bc2ec50000000000000000000000000000000000000000000000000000002386f26fc10000000000000000000000000000000000000000000000000000002386f26fc100000000000000000000000000000000000000000000000000000000000000000001000000000000000000000000000000000000000000000000000000000000000700000000000000000000000000000000000000000000000000000000000000000000000000000000000000000000000000000000000000000000000000000001","logIndex":"0x0","removed":false,"topics":["0x0bd0eb03ae3622020e1cc9e94570c94b9e276bc263af8ac1c42747b11074f5fc"],"transactionHash":"0x596f7731f7fc804bb7562c5b68b79b1fefd2fd8667d79e1cd506d2248240eee7","transactionIndex":"0x0"}],"logsBloom":"0x00000000000000000000000000000000000000004000000000000000000000000000000000000000000000000000000000000000000000000000000000000000000000000000000000000000000000000000000000000000000000000000000000040000000000000000100000000000800000000000000000000000000000000000000000000000000000000000000000000000000040000000000000000000000000000000000000000000000000000000000000000000000000000000000000000000000000000000000000000000000000000000000000000000000000000000000000000000000080000000000000000000000000000000000000000000","status":"0x1","transactionHash":"0x596f7731f7fc804bb7562c5b68b79b1fefd2fd8667d79e1cd506d2248240eee7"}}}