{"block":{"difficulty":"0x2","extraData":"0xd98301090a846765746889676f312e31352e3133856c696e75780000000000004433a123f90a18764b8897f550940e3986ea8c4fab3cd237258ff4bcaa1aa60f31fc650dfb8dd818fed7cbf99490dd75bd2d71fb348d6ce0850d022473d4bd0401","gasLimit":"0x1c9c380","gasUsed":"0x259e1","hash":"0x655b52db6bfb5ca6cc19f6f5d692bf85210689f4e0cd718566158d66ca8b2553","logsBloom":"0x00000000000000000000000000000000000000000001008800000000000000000004000000000000000000000002000000000000000000000000000000200000140000000040000000000008000000000000008000042000000200000000000000000000000000000000000000000080000000000000000000000010000000000000000000000000000000000000000000100000000000000000000000000040020000000000000000000000010200000000000001000000000000000000000000000002200000400000000000000000000000000000000000000010000000000010000000000000000000000000000000000000000000000000000000000000","miner":"0x0000000000000000000000000000000000000000","mixHash":"0x0000000000000000000000000000000000000000000000000000000000000000","nonce":"0x0000000000000000","number":"0xcff388","parentHash":"0x6a9a81e13e7b7eedee8e5af1ca5f03374d383937e04f9ab842248802eb92d557","receiptsRoot":"0x34ba6218a79fc98c032e5bc91229308408508266e8356e00f2d3616c1215055b","sha3Uncles":"0x1dcc4de8dec75d7aab85b567b6ccd41ad312451b948a7413f0a142fd40d49347","size":"0x3d8","stateRoot":"0xc317acabb6f176c734895b5b0f02dac4f41067526f03721031658ce8b87b6dc4","timestamp":"0x65243743","totalDifficulty":"0x19fe711","transactions":[{"blockHash":"0x655b52db6bfb5ca6cc19f6f5d692bf85210689f4e0cd718566158d66ca8b2553","blockNumber":"0xcff388","from":"0x3ae1d13350f7e93918225bcda0810a3a6736b433","gas":"0x27364","gasPrice":"0x2faf080","hash":"0x3b0fd753bad566d0329f1cff72b635d7f179a2271b4801fae52cdf25aca6fc08","index":"0xcff387","input":"0x414bf389000000000000000000000000201eba5cc46d216ce6dc03f6a759e8e766e956ae00000000000000000000000078c1b0c915c4faa5fffa6cabf0219da63d7f4cb800000000000000000000000000000000000000000000000000000000000001f40000000000000000000000003ae1d13350f7e93918225bcda0810a3a6736b433000000000000000000000000000000000000000000000000000000006524376200000000000000000000000000000000000000000000000000000000001388000000000000000000000000000000000000000000000000002eccfaa489e2e5390000000000000000000000000000000000000000000000000000000000000000","l1BlockNumber":"0x117744e","l1Timestamp":"0x65243743","l1TxOrigin":null,"nonce":"0x1161","queueIndex":null,"queueOrigin":"sequencer","r":"0x388bae25581312d43510c587bf2d3d14b05d2c13c1d39f6cf8975b36c2a0537c","rawTransaction":"0xf9016e8211618402faf0808302736494319b69888b0d11cec22caa5034e25fffbdc8842180b90104414bf389000000000000000000000000201eba5cc46d216ce6dc03f6a759e8e766e956ae00000000000000000000000078c1b0c915c4faa5fffa6cabf0219da63d7f4cb800000000000000000000000000000000000000000000000000000000000001f40000000000000000000000003ae1d13350f7e93918225bcda0810a3a6736b433000000000000000000000000000000000000000000000000000000006524376200000000000000000000000000000000000000000000000000000000001388000000000000000000000000000000000000000000000000002eccfaa489e2e5390000000000000000000000000000000000000000000000000000000000000000822734a0388bae25581312d43510c587bf2d3d14b05d2c13c1d39f6cf8975b36c2a0537ca0509795c6e57799a0efa70b2bd9a2917ea16b81b64d20329c1ea614a6620fb917","s":"0x509795c6e57799a0efa70b2bd9a2917ea16b81b64d20329c1ea614a6620fb917","to":"0x319b69888b0d11cec22caa5034e25fffbdc88421","transactionIndex":"0x0","v":"0x2734","value":"0x0"}],"transactionsRoot":"0x88e943f79337f1e251622a63163ec6be6370689aaecca2ef75bfcb497b7e2d68","uncles":[]},"receipts":{"0x3b0fd753bad566d0329f1cff72b635d7f179a2271b4801fae52cdf25aca6fc08":{"blockHash":"0x655b52db6bfb5ca6cc19f6f5d692bf85210689f4e0cd718566158d66ca8b2553","blockNumber":"0xcff388","from":"0x3ae1d13350f7e93918225bcda0810a3a6736b433","gas":"0x27364","gasPrice":"0x2faf080","hash":"0x3b0fd753bad566d0329f1cff72b635d7f179a2271b4801fae52cdf25aca6fc08","index":"0xcff387","input":"0x414bf389000000000000000000000000201eba5cc46d216ce6dc03f6a759e8e766e956ae00000000000000000000000078c1b0c915c4faa5fffa6cabf0219da63d7f4cb800000000000000000000000000000000000000000000000000000000000001f40000000000000000000000003ae1d13350f7e93918225bcda0810a3a6736b433000000000000000000000000000000000000000000000000000000006524376200000000000000000000000000000000000000000000000000000000001388000000000000000000000000000000000000000000000000002eccfaa489e2e5390000000000000000000000000000000000000000000000000000000000000000","l1BlockNumber":"0x117744e","l1Timestamp":"0x65243743","l1TxOrigin":null,"nonce":"0x1161","queueIndex":null,"queueOrigin":"sequencer","r":"0x388bae25581312d43510c587bf2d3d14b05d2c13c1d39f6cf8975b36c2a0537c","rawTransaction":"0xf9016e8211618402faf0808302736494319b69888b0d11cec22caa5034e25fffbdc8842180b90104414bf389000000000000000000000000201eba5cc46d216ce6dc03f6a759e8e766e956ae00000000000000000000000078c1b0c915c4faa5fffa6cabf0219da63d7f4cb800000000000000000000000000000000000000000000000000000000000001f40000000000000000000000003ae1d13350f7e93918225bcda0810a3a6736b433000000000000000000000000000000000000000000000000000000006524376200000000000000000000000000000000000000000000000000000000001388000000000000000000000000000000000000000000000000002eccfaa489e2e5390000000000000000000000000000000000000000000000000000000000000000822734a0388bae25581312d43510c587bf2d3d14b05d2c13c1d39f6cf8975b36c2a0537ca0509795c6e57799a0efa70b2bd9a2917ea16b81b64d20329c1ea614a6620fb917","s":"0x509795c6e57799a0efa70b2bd9a2917ea16b81b64d20329c1ea614a6620fb917","to":"0x319b69888b0d11cec22caa5034e25fffbdc88421","transactionIndex":"0x0","v":"0x2734","value":"0x0","contractAddress":null,"cumulativeGasUsed":"0x259e1","daFee":"0x0","daGasPrice":"0x0","daGasUsed":"0x12c","gasUsed":"0x259e1","l1Fee":"0x1c5145ff7a866d0","l1FeeScalar":"1","l1GasPrice":"0x3f1249c65230","l1GasUsed":"0x72f","logs":[{"address":"0x78c1b0c915c4faa5fffa6cabf0219da63d7f4cb8","blockHash":"0x655b52db6bfb5ca6cc19f6f5d692bf85210689f4e0cd718566158d66ca8b2553","blockNumber":"0xcff388","data":"0x0000000000000000000000000000000000000000000000002fc17d2548c82dd2","logIndex":"0x0","removed":false,"topics":["0xddf252ad1be2c89b69c2b068fc378daa952ba7f163c4a11628f55a4df523b3ef","0x000000000000000000000000d08c50f7e69e9aeb2867deff4a8053d9a855e26a","0x0000000000000000000000003ae1d13350f7e93918225bcda0810a3a6736b433"],"transactionHash":"0x3b0fd753bad566d0329f1cff72b635d7f179a2271b4801fae52cdf25aca6fc08","transactionIndex":"0x0"},{"address":"0x201eba5cc46d216ce6dc03f6a759e8e766e956ae","blockHash":"0x655b52db6bfb5ca6cc19f6f5d692bf85210689f4e0cd718566158d66ca8b2553","blockNumber":"0xcff388","data":"0x0000000000000000000000000000000000000000000000000000000000138800","logIndex":"0x1","removed":false,"topics":["0xddf252ad1be2c89b69c2b068fc378daa952ba7f163c4a11628f55a4df523b3ef","0x0000000000000000000000003ae1d13350f7e93918225bcda0810a3a6736b433","0x000000000000000000000000d08c50f7e69e9aeb2867deff4a8053d9a855e26a"],"transactionHash":"0x3b0fd753bad566d0329f1cff72b635d7f179a2271b4801fae52cdf25aca6fc08","transactionIndex":"0x0"},{"address":"0x201eba5cc46d216ce6dc03f6a759e8e766e956ae","blockHash":"0x655b52db6bfb5ca6cc19f6f5d692bf85210689f4e0cd718566158d66ca8b2553","blockNumber":"0xcff388","data":"0xffffffffffffffffffffffffffffffffffffffffffffffffffffffff86ddb72f","logIndex":"0x2","removed":false,"topics":["0x8c5be1e5ebec7d5bd14f71427d1e84f3dd0314c0f7b2291e5b200ac8c7c3b925","0x0000000000000000000000003ae1d13350f7e93918225bcda0810a3a6736b433","0x000000000000000000000000319b69888b0d11cec22caa5034e25fffbdc88421"],"transactionHash":"0x3b0fd753bad566d0329f1cff72b635d7f179a2271b4801fae52cdf25aca6fc08","transactionIndex":"0x0"},{"address":"0xd08c50f7e69e9aeb2867deff4a8053d9a855e26a","blockHash":"0x655b52db6bfb5ca6cc19f6f5d692bf85210689f4e0cd718566158d66ca8b2553","blockNumber":"0xcff388","data":"0x0000000000000000000000000000000000000000000000000000000000138800ffffffffffffffffffffffffffffffffffffffffffffffffd03e82dab737d22e000000000000000000000000000000000019061bb205ba85f7f09c3adf0afc87000000000000000000000000000000000000000000000000004794fbb84032d40000000000000000000000000000000000000000000000000000000000045e0a00000000000000000000000000000000000000000000000000000000000000d90000000000000000000000000000000000000000000000000000000000000000","logIndex":"0x3","removed":false,"topics":["0x19b47279256b2a23a1665c810c8d55a1758940ee09377d4f8d26497a3577dc83","0x000000000000000000000000319b69888b0d11cec22caa5034e25fffbdc88421","0x0000000000000000000000003ae1d13350f7e93918225bcda0810a3a6736b433"],"transactionHash":"0x3b0fd753bad566d0329f1cff72b635d7f179a2271b4801fae52cdf25aca6fc08","transactionIndex":"0x0"}],"logsBloom":"0x00000000000000000000000000000000000000000001008800000000000000000004000000000000000000000002000000000000000000000000000000200000140000000040000000000008000000000000008000042000000200000000000000000000000000000000000000000080000000000000000000000010000000000000000000000000000000000000000000100000000000000000000000000040020000000000000000000000010200000000000001000000000000000000000000000002200000400000000000000000000000000000000000000010000000000010000000000000000000000000000000000000000000000000000000000000","status":"0x1","transactionHash":"0x3b0fd753bad566d0329f1cff72b635d7f179a2271b4801fae52cdf25aca6fc08"}}}