{"block":{"difficulty":"0x2","extraData":"0xd98301090a846765746889676f312e31352e3133856c696e75780000000000000910aeccc2bbb2700e8d50dcaf9c66d3fee5616071879afec071b794d0f8d4d7500a2175b309c948df7885a5b00efc849fb7ef13618b741bacfe158451e73cc601","gasLimit":"0x1c9c380","gasUsed":"0x1fc88","hash":"0x5ac14fa13f5aa725fa2838c423a919e39300f945082532653dde1e1762eee2b4","logsBloom":"0x0000000000000000000000000000000000004000000100880000000000000000000000000000000000000000000200000000000000200000000000000120000004800000004400000000000800000000000000c000002000000000000000000000000000000000000000000000000000000000100000800000000010000000000100000000000000000000000000000000000000000000000000000000000000020000000000000000000000000000000000000001000000000000000000000000000002000000000000000000000000002040000000000000000000000000000010000000000000000000000000000000000000000010000000000000000000","miner":"0x0000000000000000000000000000000000000000","mixHash":"0x0000000000000000000000000000000000000000000000000000000000000000","nonce":"0x0000000000000000","number":"0xd00068","parentHash":"0x6fa6fd9bacd64f76bd85589d7c4e337bb4c2a239f4ecab77a4b8ec3d66bdd394","receiptsRoot":"0xb73402f71a1a5bcdfdf8381f0a31560c787a2044db043dd0db0bc503bb1c6f2e","sha3Uncles":"0x1dcc4de8dec75d7aab85b567b6ccd41ad312451b948a7413f0a142fd40d49347","size":"0x3d8","stateRoot":"0x53e7cc4145a2624c57b65a89ea311cb0d1bd44aef80c01ba915c562fe06d5788","timestamp":"0x65243cfc","totalDifficulty":"0x1a000d1","transactions":[{"blockHash":"0x5ac14fa13f5aa725fa2838c423a919e39300f945082532653dde1e1762eee2b4","blockNumber":"0xd00068","from":"0x1834fa7a4801a039b8660106c9c480a41ff9f5f8","gas":"0x21487","gasPrice":"0x2faf080","hash":"0x3d2af92c729701ccabde4bfe5bb5641b66506ca7fd9617c1075d03c3704500ae","index":"0xd00067","input":"0x414bf389000000000000000000000000201eba5cc46d216ce6dc03f6a759e8e766e956ae00000000000000000000000009bc4e0d864854c6afb6eb9a9cdf58ac190d0df900000000000000000000000000000000000000000000000000000000000000640000000000000000000000001834fa7a4801a039b8660106c9c480a41ff9f5f80000000000000000000000000000000000000000000000000000000065243d1c00000000000000000000000000000000000000000000000000000000000e57e000000000000000000000000000000000000000000000000000000000000e0f450000000000000000000000000000000000000000000000000000000000000000","l1BlockNumber":"0x11774c8","l1Timestamp":"0x65243cfc","l1TxOrigin":null,"nonce":"0x1186","queueIndex":null,"queueOrigin":"sequencer","r":"0x9198dcb47539f222170cd232b7314e01603b0008c93647228e97d9464b720d22","rawTransaction":"0xf9016e8211868402faf0808302148794319b69888b0d11cec22caa5034e25fffbdc8842180b90104414bf389000000000000000000000000201eba5cc46d216ce6dc03f6a759e8e766e956ae00000000000000000000000009bc4e0d864854c6afb6eb9a9cdf58ac190d0df900000000000000000000000000000000000000000000000000000000000000640000000000000000000000001834fa7a4801a039b8660106c9c480a41ff9f5f80000000000000000000000000000000000000000000000000000000065243d1c00000000000000000000000000000000000000000000000000000000000e57e000000000000000000000000000000000000000000000000000000000000e0f450000000000000000000000000000000000000000000000000000000000000000822734a09198dcb47539f222170cd232b7314e01603b0008c93647228e97d9464b720d22a06c67065bf20ab1cce5be20b54482ebfda025600af13d5a90a064259b43752ed0","s":"0x6c67065bf20ab1cce5be20b54482ebfda025600af13d5a90a064259b43752ed0","to":"0x319b69888b0d11cec22caa5034e25fffbdc88421","transactionIndex":"0x0","v":"0x2734","value":"0x0"}],"transactionsRoot":"0xde3f571e0d40d1fca4e0558e655a7320eaea6cb6f5f075f827c36298abf3079c","uncles":[]},"receipts":{"0x3d2af92c729701ccabde4bfe5bb5641b66506ca7fd9617c1075d03c3704500ae":{"blockHash":"0x5ac14fa13f5aa725fa2838c423a919e39300f945082532653dde1e1762eee2b4","blockNumber":"0xd00068","from":"0x1834fa7a4801a039b8660106c9c480a41ff9f5f8","gas":"0x21487","gasPrice":"0x2faf080","hash":"0x3d2af92c729701ccabde4bfe5bb5641b66506ca7fd9617c1075d03c3704500ae","index":"0xd00067","input":"0x414bf389000000000000000000000000201eba5cc46d216ce6dc03f6a759e8e766e956ae00000000000000000000000009bc4e0d864854c6afb6eb9a9cdf58ac190d0df900000000000000000000000000000000000000000000000000000000000000640000000000000000000000001834fa7a4801a039b8660106c9c480a41ff9f5f80000000000000000000000000000000000000000000000000000000065243d1c00000000000000000000000000000000000000000000000000000000000e57e000000000000000000000000000000000000000000000000000000000000e0f450000000000000000000000000000000000000000000000000000000000000000","l1BlockNumber":"0x11774c8","l1Timestamp":"0x65243cfc","l1TxOrigin":null,"nonce":"0x1186","queueIndex":null,"queueOrigin":"sequencer","r":"0x9198dcb47539f222170cd232b7314e01603b0008c93647228e97d9464b720d22","rawTransaction":"0xf9016e8211868402faf0808302148794319b69888b0d11cec22caa5034e25fffbdc8842180b90104414bf389000000000000000000000000201eba5cc46d216ce6dc03f6a759e8e766e956ae00000000000000000000000009bc4e0d864854c6afb6eb9a9cdf58ac190d0df900000000000000000000000000000000000000000000000000000000000000640000000000000000000000001834fa7a4801a039b8660106c9c480a41ff9f5f80000000000000000000000000000000000000000000000000000000065243d1c00000000000000000000000000000000000000000000000000000000000e57e000000000000000000000000000000000000000000000000000000000000e0f450000000000000000000000000000000000000000000000000000000000000000822734a09198dcb47539f222170cd232b7314e01603b0008c93647228e97d9464b720d22a06c67065bf20ab1cce5be20b54482ebfda025600af13d5a90a064259b43752ed0","s":"0x6c67065bf20ab1cce5be20b54482ebfda025600af13d5a90a064259b43752ed0","to":"0x319b69888b0d11cec22caa5034e25fffbdc88421","transactionIndex":"0x0","v":"0x2734","value":"0x0","contractAddress":null,"cumulativeGasUsed":"0x1fc88","daFee":"0x0","daGasPrice":"0x0","daGasUsed":"0x12c","gasUsed":"0x1fc88","l1Fee":"0x1a09f6380cb9fe0","l1FeeScalar":"1","l1GasPrice":"0x39ff1464e55c","l1GasUsed":"0x72f","logs":[{"address":"0x09bc4e0d864854c6afb6eb9a9cdf58ac190d0df9","blockHash":"0x5ac14fa13f5aa725fa2838c423a919e39300f945082532653dde1e1762eee2b4","blockNumber":"0xd00068","data":"0x00000000000000000000000000000000000000000000000000000000000e58ba","logIndex":"0x0","removed":false,"topics":["0xddf252ad1be2c89b69c2b068fc378daa952ba7f163c4a11628f55a4df523b3ef","0x0000000000000000000000006488f911c6cd86c289aa319c5a826dcf8f1ca065","0x0000000000000000000000001834fa7a4801a039b8660106c9c480a41ff9f5f8"],"transactionHash":"0x3d2af92c729701ccabde4bfe5bb5641b66506ca7fd9617c1075d03c3704500ae","transactionIndex":"0x0"},{"address":"0x201eba5cc46d216ce6dc03f6a759e8e766e956ae","blockHash":"0x5ac14fa13f5aa725fa2838c423a919e39300f945082532653dde1e1762eee2b4","blockNumber":"0xd00068","data":"0x00000000000000000000000000000000000000000000000000000000000e57e0","logIndex":"0x1","removed":false,"topics":["0xddf252ad1be2c89b69c2b068fc378daa952ba7f163c4a11628f55a4df523b3ef","0x0000000000000000000000001834fa7a4801a039b8660106c9c480a41ff9f5f8","0x0000000000000000000000006488f911c6cd86c289aa319c5a826dcf8f1ca065"],"transactionHash":"0x3d2af92c729701ccabde4bfe5bb5641b66506ca7fd9617c1075d03c3704500ae","transactionIndex":"0x0"},{"address":"0x201eba5cc46d216ce6dc03f6a759e8e766e956ae","blockHash":"0x5ac14fa13f5aa725fa2838c423a919e39300f945082532653dde1e1762eee2b4","blockNumber":"0xd00068","data":"0xffffffffffffffffffffffffffffffffffffffffffffffffffffffff8468716f","logIndex":"0x2","removed":false,"topics":["0x8c5be1e5ebec7d5bd14f71427d1e84f3dd0314c0f7b2291e5b200ac8c7c3b925","0x0000000000000000000000001834fa7a4801a039b8660106c9c480a41ff9f5f8","0x000000000000000000000000319b69888b0d11cec22caa5034e25fffbdc88421"],"transactionHash":"0x3d2af92c729701ccabde4bfe5bb5641b66506ca7fd9617c1075d03c3704500ae","transactionIndex":"0x0"},{"address":"0x6488f911c6cd86c289aa319c5a826dcf8f1ca065","blockHash":"0x5ac14fa13f5aa725fa2838c423a919e39300f945082532653dde1e1762eee2b4","blockNumber":"0xd00068","data":"0xfffffffffffffffffffffffffffffffffffffffffffffffffffffffffff1a74600000000000000000000000000000000000000000000000000000000000e57e00000000000000000000000000000000000000000fff52019e99a0341c07f783f0000000000000000000000000000000000000000000000000000aa91ae904e92fffffffffffffffffffffffffffffffffffffffffffffffffffffffffffffffc0000000000000000000000000000000000000000000000000000000000000000000000000000000000000000000000000000000000000000000000000000001f","logIndex":"0x3","removed":false,"topics":["0x19b47279256b2a23a1665c810c8d55a1758940ee09377d4f8d26497a3577dc83","0x000000000000000000000000319b69888b0d11cec22caa5034e25fffbdc88421","0x0000000000000000000000001834fa7a4801a039b8660106c9c480a41ff9f5f8"],"transactionHash":"0x3d2af92c729701ccabde4bfe5bb5641b66506ca7fd9617c1075d03c3704500ae","transactionIndex":"0x0"}],"logsBloom":"0x0000000000000000000000000000000000004000000100880000000000000000000000000000000000000000000200000000000000200000000000000120000004800000004400000000000800000000000000c000002000000000000000000000000000000000000000000000000000000000100000800000000010000000000100000000000000000000000000000000000000000000000000000000000000020000000000000000000000000000000000000001000000000000000000000000000002000000000000000000000000002040000000000000000000000000000010000000000000000000000000000000000000000010000000000000000000","status":"0x1","transactionHash":"0x3d2af92c729701ccabde4bfe5bb5641b66506ca7fd9617c1075d03c3704500ae"}}}