{"block":{"difficulty":"0x2","extraData":"0xd98301090a846765746889676f312e31352e3133856c696e7578000000000000e2028810131e7619551f8841329d48ac10959e65d6de0b2e75c71bd1328320556a5386feb0d35dd085b67b9e06423d691534c29102564f2e3d4bdee6b6bd015a00","gasLimit":"0x1c9c380","gasUsed":"0x43d24","hash":"0x710b5a291c31f59ec169487bd23aedf5f0f347963ec7503d6bf10d88da41f193","logsBloom":"0x00000000000000000000000000000000000000020000000000000008000000000000000000000000000000000000000000000000000002000000000000042000000000000000001000000200000000000010000000040000000000000000000020000000028000000000000000000800000000000000000001000000000000000080000000000000000000000200000000000000000000000000000000000000000000000000000200000000000000000000000000000000000000000000000000000000000000000000000000000000000000000008000000000000000060000000000000000000000000000000000000000040000000000000080000000000","miner":"0x0000000000000000000000000000000000000000","mixHash":"0x0000000000000000000000000000000000000000000000000000000000000000","nonce":"0x0000000000000000","number":"0xd0024f","parentHash":"0xd72215d49e14b0434f3a3acada99261796bb9b0af7a9c3628817a448486bfa37","receiptsRoot":"0x33272d39496fcd62d16627c1951003f2a5af4775c4ddf322f67c85851f7cd1da","sha3Uncles":"0x1dcc4de8dec75d7aab85b567b6ccd41ad312451b948a7413f0a142fd40d49347","size":"0x4fe","stateRoot":"0xcebd8b5b34fd05c18804eed425472a29467830d118a700fa3a446fa9cf7d20cf","timestamp":"0x65243df7","totalDifficulty":"0x1a0049f","transactions":[{"blockHash":"0x710b5a291c31f59ec169487bd23aedf5f0f347963ec7503d6bf10d88da41f193","blockNumber":"0xd0024f","from":"0x317d1d7b3105787cadc571a9296bafe7d89b90b7","gas":"0x45974","gasPrice":"0x2faf080","hash":"0xe95d99f29d90f1b75925cf0b90f8f4e4ccccd7752470087f20dbce667c5edb8f","index":"0xd0024e","input":"0xc29eddc5000000000000000000000000317d1d7b3105787cadc571a9296bafe7d89b90b70000000000000000000000000000000000000000000000000000000000000001000000000000000000000000000000000000000000000000000000000000000000000000000000000000000000000000000000000000000000000000000000c0000000000000000000000000000000000000000000000000000000000000012000000000000000000000000000000000000000000000000000000000000001a0000000000000000000000000000000000000000000000000000000000000002175696e7432353620666f6c6c6f776572732c20737472696e672063726561746564000000000000000000000000000000000000000000000000000000000000000000000000000000000000000000000000000000000000000000000000000042697066733a2f2f6261666b72656963696e3771663363643262637a78373775636e3670736d7937746c736e72787876646f69377674746d79616233657661676d796d0000000000000000000000000000000000000000000000000000000000000000000000000000000000000000000000000000000000000000000000000041c6071f7756ffc7e23eea3710d89ef41ce92ba556a322b2ad3d86674152473c4a03857dac9fc8d643583805965eda25658541762693e32f3eb028f28dc9d4d33b1c00000000000000000000000000000000000000000000000000000000000000","l1BlockNumber":"0x11774dd","l1Timestamp":"0x65243df7","l1TxOrigin":null,"nonce":"0x1","queueIndex":null,"queueOrigin":"sequencer","r":"0x1f4f8650ac9ecbcc49cae4bc67e77e7e59932564908a27e824ff0c706663e07b","rawTransaction":"0xf90294018402faf0808304597494065e959ffd4c76ae2e0d31cfcf91c0c9834472ec8802c68af0bb140000b90224c29eddc5000000000000000000000000317d1d7b3105787cadc571a9296bafe7d89b90b70000000000000000000000000000000000000000000000000000000000000001000000000000000000000000000000000000000000000000000000000000000000000000000000000000000000000000000000000000000000000000000000c0000000000000000000000000000000000000000000000000000000000000012000000000000000000000000000000000000000000000000000000000000001a0000000000000000000000000000000000000000000000000000000000000002175696e7432353620666f6c6c6f776572732c20737472696e672063726561746564000000000000000000000000000000000000000000000000000000000000000000000000000000000000000000000000000000000000000000000000000042697066733a2f2f6261666b72656963696e3771663363643262637a78373775636e3670736d7937746c736e72787876646f69377674746d79616233657661676d796d0000000000000000000000000000000000000000000000000000000000000000000000000000000000000000000000000000000000000000000000000041c6071f7756ffc7e23eea3710d89ef41ce92ba556a322b2ad3d86674152473c4a03857dac9fc8d643583805965eda25658541762693e32f3eb028f28dc9d4d33b1c00000000000000000000000000000000000000000000000000000000000000822734a01f4f8650ac9ecbcc49cae4bc67e77e7e59932564908a27e824ff0c706663e07ba00bb94f6a61bdf3f19bae856d24ad40e2012b3cc5f584a6d824ba05208f85dde5","s":"0xbb94f6a61bdf3f19bae856d24ad40e2012b3cc5f584a6d824ba05208f85dde5","to":"0x065e959ffd4c76ae2e0d31cfcf91c0c9834472ec","transactionIndex":"0x0","v":"0x2734","value":"0x2c68af0bb140000"}],"transactionsRoot":"0x34a225cf73ba881dbb36df3847408467bc00e7dd3060f2d1ab8c48abe6e6a0fc","uncles":[]},"receipts":{"0xe95d99f29d90f1b75925cf0b90f8f4e4ccccd7752470087f20dbce667c5edb8f":{"blockHash":"0x710b5a291c31f59ec169487bd23aedf5f0f347963ec7503d6bf10d88da41f193","blockNumber":"0xd0024f","from":"0x317d1d7b3105787cadc571a9296bafe7d89b90b7","gas":"0x45974","gasPrice":"0x2faf080","hash":"0xe95d99f29d90f1b75925cf0b90f8f4e4ccccd7752470087f20dbce667c5edb8f","index":"0xd0024e","input":"0xc29eddc5000000000000000000000000317d1d7b3105787cadc571a9296bafe7d89b90b70000000000000000000000000000000000000000000000000000000000000001000000000000000000000000000000000000000000000000000000000000000000000000000000000000000000000000000000000000000000000000000000c0000000000000000000000000000000000000000000000000000000000000012000000000000000000000000000000000000000000000000000000000000001a0000000000000000000000000000000000000000000000000000000000000002175696e7432353620666f6c6c6f776572732c20737472696e672063726561746564000000000000000000000000000000000000000000000000000000000000000000000000000000000000000000000000000000000000000000000000000042697066733a2f2f6261666b72656963696e3771663363643262637a78373775636e3670736d7937746c736e72787876646f69377674746d79616233657661676d796d0000000000000000000000000000000000000000000000000000000000000000000000000000000000000000000000000000000000000000000000000041c6071f7756ffc7e23eea3710d89ef41ce92ba556a322b2ad3d86674152473c4a03857dac9fc8d643583805965eda25658541762693e32f3eb028f28dc9d4d33b1c00000000000000000000000000000000000000000000000000000000000000","l1BlockNumber":"0x11774dd","l1Timestamp":"0x65243df7","l1TxOrigin":null,"nonce":"0x1","queueIndex":null,"queueOrigin":"sequencer","r":"0x1f4f8650ac9ecbcc49cae4bc67e77e7e59932564908a27e824ff0c706663e07b","rawTransaction":"0xf90294018402faf0808304597494065e959ffd4c76ae2e0d31cfcf91c0c9834472ec8802c68af0bb140000b90224c29eddc5000000000000000000000000317d1d7b3105787cadc571a9296bafe7d89b90b70000000000000000000000000000000000000000000000000000000000000001000000000000000000000000000000000000000000000000000000000000000000000000000000000000000000000000000000000000000000000000000000c0000000000000000000000000000000000000000000000000000000000000012000000000000000000000000000000000000000000000000000000000000001a0000000000000000000000000000000000000000000000000000000000000002175696e7432353620666f6c6c6f776572732c20737472696e672063726561746564000000000000000000000000000000000000000000000000000000000000000000000000000000000000000000000000000000000000000000000000000042697066733a2f2f6261666b72656963696e3771663363643262637a78373775636e3670736d7937746c736e72787876646f69377674746d79616233657661676d796d0000000000000000000000000000000000000000000000000000000000000000000000000000000000000000000000000000000000000000000000000041c6071f7756ffc7e23eea3710d89ef41ce92ba556a322b2ad3d86674152473c4a03857dac9fc8d643583805965eda25658541762693e32f3eb028f28dc9d4d33b1c00000000000000000000000000000000000000000000000000000000000000822734a01f4f8650ac9ecbcc49cae4bc67e77e7e59932564908a27e824ff0c706663e07ba00bb94f6a61bdf3f19bae856d24ad40e2012b3cc5f584a6d824ba05208f85dde5","s":"0xbb94f6a61bdf3f19bae856d24ad40e2012b3cc5f584a6d824ba05208f85dde5","to":"0x065e959ffd4c76ae2e0d31cfcf91c0c9834472ec","transactionIndex":"0x0","v":"0x2734","value":"0x2c68af0bb140000","contractAddress":null,"cumulativeGasUsed":"0x43d24","daFee":"0x0","daGasPrice":"0x0","daGasUsed":"0x252","gasUsed":"0x43d24","l1Fee":"0x19709d787180660","l1FeeScalar":"1","l1GasPrice":"0x38a987f04864","l1GasUsed":"0x72f","logs":[{"address":"0x3803856585a7fbc6a3bca94a0b9c49a48af90dd3","blockHash":"0x710b5a291c31f59ec169487bd23aedf5f0f347963ec7503d6bf10d88da41f193","blockNumber":"0xd0024f","data":"0x00000000000000000000000000000000000000000000000000000000000000010000000000000000000000000000000000000000000000000000000000000001","logIndex":"0x0","removed":false,"topics":["0xc3d58168c5ae7397731d063d5bbf3d657854427343f4c083240f7aacaa2d0f62","0x000000000000000000000000065e959ffd4c76ae2e0d31cfcf91c0c9834472ec","0x0000000000000000000000000000000000000000000000000000000000000000","0x000000000000000000000000317d1d7b3105787cadc571a9296bafe7d89b90b7"],"transactionHash":"0xe95d99f29d90f1b75925cf0b90f8f4e4ccccd7752470087f20dbce667c5edb8f","transactionIndex":"0x0"},{"address":"0x3803856585a7fbc6a3bca94a0b9c49a48af90dd3","blockHash":"0x710b5a291c31f59ec169487bd23aedf5f0f347963ec7503d6bf10d88da41f193","blockNumber":"0xd0024f","data":"0x","logIndex":"0x1","removed":false,"topics":["0xe9274a84b19e9428826de6bae8c48329354f8f0e73f771b97cae2d9dccd45a27","0x000000000000000000000000317d1d7b3105787cadc571a9296bafe7d89b90b7","0x0000000000000000000000000000000000000000000000000000000000000001"],"transactionHash":"0xe95d99f29d90f1b75925cf0b90f8f4e4ccccd7752470087f20dbce667c5edb8f","transactionIndex":"0x0"},{"address":"0x3803856585a7fbc6a3bca94a0b9c49a48af90dd3","blockHash":"0x710b5a291c31f59ec169487bd23aedf5f0f347963ec7503d6bf10d88da41f193","blockNumber":"0xd0024f","data":"0x000000000000000000000000000000000000000000000000000000000000002000000000000000000000000000000000000000000000000000000000000000c00000000000000000000000000000000000000000000000000000000000000120000000000000000000000000065e959ffd4c76ae2e0d31cfcf91c0c9834472ec0000000000000000000000000000000000000000000000000000000065243df700000000000000000000000000000000000000000000000000000000000000000000000000000000000000000000000000000000000000000000000000000000000000000000000000000000000000000000000000000000000000000000002175696e7432353620666f6c6c6f776572732c20737472696e672063726561746564000000000000000000000000000000000000000000000000000000000000000000000000000000000000000000000000000000000000000000000000000042697066733a2f2f6261666b72656963696e3771663363643262637a78373775636e3670736d7937746c736e72787876646f69377674746d79616233657661676d796d000000000000000000000000000000000000000000000000000000000000","logIndex":"0x2","removed":false,"topics":["0x11476367c7a4c3dca965f71aed27a373321f502ce956baa94266644456f735c8","0x000000000000000000000000317d1d7b3105787cadc571a9296bafe7d89b90b7","0x0000000000000000000000000000000000000000000000000000000000000001"],"transactionHash":"0xe95d99f29d90f1b75925cf0b90f8f4e4ccccd7752470087f20dbce667c5edb8f","transactionIndex":"0x0"}],"logsBloom":"0x00000000000000000000000000000000000000020000000000000008000000000000000000000000000000000000000000000000000002000000000000042000000000000000001000000200000000000010000000040000000000000000000020000000028000000000000000000800000000000000000001000000000000000080000000000000000000000200000000000000000000000000000000000000000000000000000200000000000000000000000000000000000000000000000000000000000000000000000000000000000000000008000000000000000060000000000000000000000000000000000000000040000000000000080000000000","status":"0x1","transactionHash":"0xe95d99f29d90f1b75925cf0b90f8f4e4ccccd7752470087f20dbce667c5edb8f"}}}