{"block":{"difficulty":"0x2","extraData":"0xd98301090a846765746889676f312e31352e3133856c696e7578000000000000c6fa5f891cc1332cdde5370e34707bd6ada1a61f3c1e7933b2c2117d278642840d220e88f742f17ce86b62507c26cdc5693885a3ce256b3024574d3298557fbe01","gasLimit":"0x1c9c380","gasUsed":"0x229f0","hash":"0xa36be0592d03bbb311140661d117d446d0711d85eab2a7f61aa4a3386da5e58a","logsBloom":"0x00000000000000000400000000000000000000000000008800000000000000000000040000000000000000000002000000000000000000000000000000200000140004000040000000000008000000000000000000040000000004000000000000000000000000000000000000000000010000000000100000000010000000000000000000000000000000000000000000100000400000000000000100000000020000000000000000000000000000000000000021000000000000000000000000000002000000000000000000000000000000000000000000001000000000000010000100004000000000000000000000000000000000000000000000000000","miner":"0x0000000000000000000000000000000000000000","mixHash":"0x0000000000000000000000000000000000000000000000000000000000000000","nonce":"0x0000000000000000","number":"0xd000af","parentHash":"0x7b4c41cd70a8f2932c4561514eaaa92cb25167b138f4454955dc01ce1ae94bd2","receiptsRoot":"0xcf49491ee0c6e2e86f1c0118392a752c2f5d3b8458f3df0a6dcd84edc30d9b9e","sha3Uncles":"0x1dcc4de8dec75d7aab85b567b6ccd41ad312451b948a7413f0a142fd40d49347","size":"0x3d8","stateRoot":"0x5f588e5f62db2c67a7f0d03d0ab39f3752ee418e0251f307a914f6a285232795","timestamp":"0x65243d1b","totalDifficulty":"0x1a0015f","transactions":[{"blockHash":"0xa36be0592d03bbb311140661d117d446d0711d85eab2a7f61aa4a3386da5e58a","blockNumber":"0xd000af","from":"0xedcad805f6649df4a594938908d0aa2c58133409","gas":"0x242af","gasPrice":"0x2faf080","hash":"0x6a39f55fd27c8d4651cfd05c4c01b2b382ae86cdf5524099248953d2a6494ad8","index":"0xd000ae","input":"0x414bf38900000000000000000000000078c1b0c915c4faa5fffa6cabf0219da63d7f4cb800000000000000000000000097174506aafcc846a40832719bd8899a588bd05c0000000000000000000000000000000000000000000000000000000000002710000000000000000000000000edcad805f6649df4a594938908d0aa2c581334090000000000000000000000000000000000000000000000000000000065243d3c000000000000000000000000000000000000000000000001fe244f97e62cd65a0000000000000000000000000000000000000000000000dba1a3561aa40292e60000000000000000000000000000000000000000000000000000000000000000","l1BlockNumber":"0x11774cb","l1Timestamp":"0x65243d1b","l1TxOrigin":null,"nonce":"0x4c5","queueIndex":null,"queueOrigin":"sequencer","r":"0xb546017a33947f1f2f746caf4448db904908ae64b5da25881e21be9037f23efc","rawTransaction":"0xf9016e8204c58402faf080830242af94319b69888b0d11cec22caa5034e25fffbdc8842180b90104414bf38900000000000000000000000078c1b0c915c4faa5fffa6cabf0219da63d7f4cb800000000000000000000000097174506aafcc846a40832719bd8899a588bd05c0000000000000000000000000000000000000000000000000000000000002710000000000000000000000000edcad805f6649df4a594938908d0aa2c581334090000000000000000000000000000000000000000000000000000000065243d3c000000000000000000000000000000000000000000000001fe244f97e62cd65a0000000000000000000000000000000000000000000000dba1a3561aa40292e60000000000000000000000000000000000000000000000000000000000000000822734a0b546017a33947f1f2f746caf4448db904908ae64b5da25881e21be9037f23efca07e8b7d821629d96913a8c092e062a575346dd5662e4457b94d22e25f15e9dd3b","s":"0x7e8b7d821629d96913a8c092e062a575346dd5662e4457b94d22e25f15e9dd3b","to":"0x319b69888b0d11cec22caa5034e25fffbdc88421","transactionIndex":"0x0","v":"0x2734","value":"0x0"}],"transactionsRoot":"0xcec7ae68f4cad055bbaba8be1fdcca7bd1da996d8aff99da95991f6c781e6d1e","uncles":[]},"receipts":{"0x6a39f55fd27c8d4651cfd05c4c01b2b382ae86cdf5524099248953d2a6494ad8":{"blockHash":"0xa36be0592d03bbb311140661d117d446d0711d85eab2a7f61aa4a3386da5e58a","blockNumber":"0xd000af","from":"0xedcad805f6649df4a594938908d0aa2c58133409","gas":"0x242af","gasPrice":"0x2faf080","hash":"0x6a39f55fd27c8d4651cfd05c4c01b2b382ae86cdf5524099248953d2a6494ad8","index":"0xd000ae","input":"0x414bf38900000000000000000000000078c1b0c915c4faa5fffa6cabf0219da63d7f4cb800000000000000000000000097174506aafcc846a40832719bd8899a588bd05c0000000000000000000000000000000000000000000000000000000000002710000000000000000000000000edcad805f6649df4a594938908d0aa2c581334090000000000000000000000000000000000000000000000000000000065243d3c000000000000000000000000000000000000000000000001fe244f97e62cd65a0000000000000000000000000000000000000000000000dba1a3561aa40292e60000000000000000000000000000000000000000000000000000000000000000","l1BlockNumber":"0x11774cb","l1Timestamp":"0x65243d1b","l1TxOrigin":null,"nonce":"0x4c5","queueIndex":null,"queueOrigin":"sequencer","r":"0xb546017a33947f1f2f746caf4448db904908ae64b5da25881e21be9037f23efc","rawTransaction":"0xf9016e8204c58402faf080830242af94319b69888b0d11cec22caa5034e25fffbdc8842180b90104414bf38900000000000000000000000078c1b0c915c4faa5fffa6cabf0219da63d7f4cb800000000000000000000000097174506aafcc846a40832719bd8899a588bd05c0000000000000000000000000000000000000000000000000000000000002710000000000000000000000000edcad805f6649df4a594938908d0aa2c581334090000000000000000000000000000000000000000000000000000000065243d3c000000000000000000000000000000000000000000000001fe244f97e62cd65a0000000000000000000000000000000000000000000000dba1a3561aa40292e60000000000000000000000000000000000000000000000000000000000000000822734a0b546017a33947f1f2f746caf4448db904908ae64b5da25881e21be9037f23efca07e8b7d821629d96913a8c092e062a575346dd5662e4457b94d22e25f15e9dd3b","s":"0x7e8b7d821629d96913a8c092e062a575346dd5662e4457b94d22e25f15e9dd3b","to":"0x319b69888b0d11cec22caa5034e25fffbdc88421","transactionIndex":"0x0","v":"0x2734","value":"0x0","contractAddress":null,"cumulativeGasUsed":"0x229f0","daFee":"0x0","daGasPrice":"0x0","daGasUsed":"0x12c","gasUsed":"0x229f0","l1Fee":"0x1a09f6380cb9fe0","l1FeeScalar":"1","l1GasPrice":"0x39ff1464e55c","l1GasUsed":"0x72f","logs":[{"address":"0x97174506aafcc846a40832719bd8899a588bd05c","blockHash":"0xa36be0592d03bbb311140661d117d446d0711d85eab2a7f61aa4a3386da5e58a","blockNumber":"0xd000af","data":"0x0000000000000000000000000000000000000000000000e730e1d3e625e7c30e","logIndex":"0x0","removed":false,"topics":["0xddf252ad1be2c89b69c2b068fc378daa952ba7f163c4a11628f55a4df523b3ef","0x0000000000000000000000003a873fe63bedad2e9f9b9b63bf8bedb5f1789167","0x000000000000000000000000edcad805f6649df4a594938908d0aa2c58133409"],"transactionHash":"0x6a39f55fd27c8d4651cfd05c4c01b2b382ae86cdf5524099248953d2a6494ad8","transactionIndex":"0x0"},{"address":"0x78c1b0c915c4faa5fffa6cabf0219da63d7f4cb8","blockHash":"0xa36be0592d03bbb311140661d117d446d0711d85eab2a7f61aa4a3386da5e58a","blockNumber":"0xd000af","data":"0x000000000000000000000000000000000000000000000001fe244f97e62cd65a","logIndex":"0x1","removed":false,"topics":["0xddf252ad1be2c89b69c2b068fc378daa952ba7f163c4a11628f55a4df523b3ef","0x000000000000000000000000edcad805f6649df4a594938908d0aa2c58133409","0x0000000000000000000000003a873fe63bedad2e9f9b9b63bf8bedb5f1789167"],"transactionHash":"0x6a39f55fd27c8d4651cfd05c4c01b2b382ae86cdf5524099248953d2a6494ad8","transactionIndex":"0x0"},{"address":"0x78c1b0c915c4faa5fffa6cabf0219da63d7f4cb8","blockHash":"0xa36be0592d03bbb311140661d117d446d0711d85eab2a7f61aa4a3386da5e58a","blockNumber":"0xd000af","data":"0xfffffffffffffffffffffffffffffffffffffffffffffd9e7b004d32fdfd2f23","logIndex":"0x2","removed":false,"topics":["0x8c5be1e5ebec7d5bd14f71427d1e84f3dd0314c0f7b2291e5b200ac8c7c3b925","0x000000000000000000000000edcad805f6649df4a594938908d0aa2c58133409","0x000000000000000000000000319b69888b0d11cec22caa5034e25fffbdc88421"],"transactionHash":"0x6a39f55fd27c8d4651cfd05c4c01b2b382ae86cdf5524099248953d2a6494ad8","transactionIndex":"0x0"},{"address":"0x3a873fe63bedad2e9f9b9b63bf8bedb5f1789167","blockHash":"0xa36be0592d03bbb311140661d117d446d0711d85eab2a7f61aa4a3386da5e58a","blockNumber":"0xd000af","data":"0x000000000000000000000000000000000000000000000001fe244f97e62cd65affffffffffffffffffffffffffffffffffffffffffffff18cf1e2c19da183cf2000000000000000000000000000000000000000ad32dff90032819f8944fbec700000000000000000000000000000000000000000004050e8f20b2f8a1c79e70000000000000000000000000000000000000000000000000000000000000ba1700000000000000000000000000000000000000000000000001a1e87f764ab0d00000000000000000000000000000000000000000000000000000000000000000","logIndex":"0x3","removed":false,"topics":["0x19b47279256b2a23a1665c810c8d55a1758940ee09377d4f8d26497a3577dc83","0x000000000000000000000000319b69888b0d11cec22caa5034e25fffbdc88421","0x000000000000000000000000edcad805f6649df4a594938908d0aa2c58133409"],"transactionHash":"0x6a39f55fd27c8d4651cfd05c4c01b2b382ae86cdf5524099248953d2a6494ad8","transactionIndex":"0x0"}],"logsBloom":"0x00000000000000000400000000000000000000000000008800000000000000000000040000000000000000000002000000000000000000000000000000200000140004000040000000000008000000000000000000040000000004000000000000000000000000000000000000000000010000000000100000000010000000000000000000000000000000000000000000100000400000000000000100000000020000000000000000000000000000000000000021000000000000000000000000000002000000000000000000000000000000000000000000001000000000000010000100004000000000000000000000000000000000000000000000000000","status":"0x1","transactionHash":"0x6a39f55fd27c8d4651cfd05c4c01b2b382ae86cdf5524099248953d2a6494ad8"}}}