{"block":{"difficulty":"0x2","extraData":"0xd98301090a846765746889676f312e31352e3133856c696e75780000000000005bef2499ab1b1c7b281e4486ae453ee1f62c345425acade97479f818234180ce7a08622aad26128c315ef67fcffdadd12bd3cb1bf6bb20a7944056ffbba8b6bf01","gasLimit":"0x1c9c380","gasUsed":"0x1eac5","hash":"0x915609b0c0183c759f1a8d6dd4ca21c2b665009aa4b9c77569782ecf88caa0a4","logsBloom":"0x00000000000000000000000000000000000000000001008800000000000000000000000000000000000000000002000000080000000000000000000000200000040000000040000400000008001000004000008000002000000000010000000000000000000000000000000100000000000000000000000000000012000000008000000000000000000000000000000000000000000000000000000000000000020000000000000000000008000000000000000001000000000100000000000000000002000000000000000000000000000000000000000000000000000000000010000000001000000000000000000000000000000002000000000000000000","miner":"0x0000000000000000000000000000000000000000","mixHash":"0x0000000000000000000000000000000000000000000000000000000000000000","nonce":"0x0000000000000000","number":"0xd00300","parentHash":"0x9dc28e02415528211e77c316fd75a7916765d15164f51e0bcc90a2b3f8ba49e2","receiptsRoot":"0x2ebd780907fa91697512f7e96e128c04fb70429694d548e450f488885b43a1d7","sha3Uncles":"0x1dcc4de8dec75d7aab85b567b6ccd41ad312451b948a7413f0a142fd40d49347","size":"0x3d9","stateRoot":"0x7fa5342cc4568c0057a0097a1fb983a7c0513af456346c8c6414bd8794f78e2b","timestamp":"0x65243e52","totalDifficulty":"0x1a00601","transactions":[{"blockHash":"0x915609b0c0183c759f1a8d6dd4ca21c2b665009aa4b9c77569782ecf88caa0a4","blockNumber":"0xd00300","from":"0xdff45a3a21f00f7edfb28816e8589c337421cc91","gas":"0xf4240","gasPrice":"0x69f4060","hash":"0x6a6196c9a81ed8f3b0b74cbfad52fadd846121dd941e056a39230394561ccef3","index":"0xd002ff","input":"0xdb3e2198000000000000000000000000201eba5cc46d216ce6dc03f6a759e8e766e956ae000000000000000000000000deaddeaddeaddeaddeaddeaddeaddeaddead111100000000000000000000000000000000000000000000000000000000000009c4000000000000000000000000dff45a3a21f00f7edfb28816e8589c337421cc91000000000000000000000000000000000000000000000000000002c726d645a800000000000000000000000000000000000000000000000006f05b59d3b20000000000000000000000000000000000000000000000000000000000002f0f331e0000000000000000000000000000000000005dba2a7c323461ef3eca27c5b944","l1BlockNumber":"0x11774e5","l1Timestamp":"0x65243e52","l1TxOrigin":null,"nonce":"0x2adef","queueIndex":null,"queueOrigin":"sequencer","r":"0x1bdd924b6b425e173d89e0cb9abd5c9a729cf34e19fa5f2781157aa307a2db6","rawTransaction":"0xf9016f8302adef84069f4060830f424094319b69888b0d11cec22caa5034e25fffbdc8842180b90104db3e2198000000000000000000000000201eba5cc46d216ce6dc03f6a759e8e766e956ae000000000000000000000000deaddeaddeaddeaddeaddeaddeaddeaddead111100000000000000000000000000000000000000000000000000000000000009c4000000000000000000000000dff45a3a21f00f7edfb28816e8589c337421cc91000000000000000000000000000000000000000000000000000002c726d645a800000000000000000000000000000000000000000000000006f05b59d3b20000000000000000000000000000000000000000000000000000000000002f0f331e0000000000000000000000000000000000005dba2a7c323461ef3eca27c5b944822734a001bdd924b6b425e173d89e0cb9abd5c9a729cf34e19fa5f2781157aa307a2db6a079765132e8936904a30052ee84a70e5363a3c23a3619c89619c7948ab035c079","s":"0x79765132e8936904a30052ee84a70e5363a3c23a3619c89619c7948ab035c079","to":"0x319b69888b0d11cec22caa5034e25fffbdc88421","transactionIndex":"0x0","v":"0x2734","value":"0x0"}],"transactionsRoot":"0x012ca66f28b7291e2b82a6e39256097f6cc3afbe02c26a961f45dff9d4ade3cf","uncles":[]},"receipts":{"0x6a6196c9a81ed8f3b0b74cbfad52fadd846121dd941e056a39230394561ccef3":{"blockHash":"0x915609b0c0183c759f1a8d6dd4ca21c2b665009aa4b9c77569782ecf88caa0a4","blockNumber":"0xd00300","from":"0xdff45a3a21f00f7edfb28816e8589c337421cc91","gas":"0xf4240","gasPrice":"0x69f4060","hash":"0x6a6196c9a81ed8f3b0b74cbfad52fadd846121dd941e056a39230394561ccef3","index":"0xd002ff","input":"0xdb3e2198000000000000000000000000201eba5cc46d216ce6dc03f6a759e8e766e956ae000000000000000000000000deaddeaddeaddeaddeaddeaddeaddeaddead111100000000000000000000000000000000000000000000000000000000000009c4000000000000000000000000dff45a3a21f00f7edfb28816e8589c337421cc91000000000000000000000000000000000000000000000000000002c726d645a800000000000000000000000000000000000000000000000006f05b59d3b20000000000000000000000000000000000000000000000000000000000002f0f331e0000000000000000000000000000000000005dba2a7c323461ef3eca27c5b944","l1BlockNumber":"0x11774e5","l1Timestamp":"0x65243e52","l1TxOrigin":null,"nonce":"0x2adef","queueIndex":null,"queueOrigin":"sequencer","r":"0x1bdd924b6b425e173d89e0cb9abd5c9a729cf34e19fa5f2781157aa307a2db6","rawTransaction":"0xf9016f8302adef84069f4060830f424094319b69888b0d11cec22caa5034e25fffbdc8842180b90104db3e2198000000000000000000000000201eba5cc46d216ce6dc03f6a759e8e766e956ae000000000000000000000000deaddeaddeaddeaddeaddeaddeaddeaddead111100000000000000000000000000000000000000000000000000000000000009c4000000000000000000000000dff45a3a21f00f7edfb28816e8589c337421cc91000000000000000000000000000000000000000000000000000002c726d645a800000000000000000000000000000000000000000000000006f05b59d3b20000000000000000000000000000000000000000000000000000000000002f0f331e0000000000000000000000000000000000005dba2a7c323461ef3eca27c5b944822734a001bdd924b6b425e173d89e0cb9abd5c9a729cf34e19fa5f2781157aa307a2db6a079765132e8936904a30052ee84a70e5363a3c23a3619c89619c7948ab035c079","s":"0x79765132e8936904a30052ee84a70e5363a3c23a3619c89619c7948ab035c079","to":"0x319b69888b0d11cec22caa5034e25fffbdc88421","transactionIndex":"0x0","v":"0x2734","value":"0x0","contractAddress":null,"cumulativeGasUsed":"0x1eac5","daFee":"0x0","daGasPrice":"0x0","daGasUsed":"0x12d","gasUsed":"0x1eac5","l1Fee":"0x19709d787180660","l1FeeScalar":"1","l1GasPrice":"0x38a987f04864","l1GasUsed":"0x72f","logs":[{"address":"0xdeaddeaddeaddeaddeaddeaddeaddeaddead1111","blockHash":"0x915609b0c0183c759f1a8d6dd4ca21c2b665009aa4b9c77569782ecf88caa0a4","blockNumber":"0xd00300","data":"0x00000000000000000000000000000000000000000000000006f05b59d3b20000","logIndex":"0x0","removed":false,"topics":["0xddf252ad1be2c89b69c2b068fc378daa952ba7f163c4a11628f55a4df523b3ef","0x000000000000000000000000425732f412f2a922156cf3c135a516c18f977cc1","0x000000000000000000000000dff45a3a21f00f7edfb28816e8589c337421cc91"],"transactionHash":"0x6a6196c9a81ed8f3b0b74cbfad52fadd846121dd941e056a39230394561ccef3","transactionIndex":"0x0"},{"address":"0x201eba5cc46d216ce6dc03f6a759e8e766e956ae","blockHash":"0x915609b0c0183c759f1a8d6dd4ca21c2b665009aa4b9c77569782ecf88caa0a4","blockNumber":"0xd00300","data":"0x000000000000000000000000000000000000000000000000000000002f0d6493","logIndex":"0x1","removed":false,"topics":["0xddf252ad1be2c89b69c2b068fc378daa952ba7f163c4a11628f55a4df523b3ef","0x000000000000000000000000dff45a3a21f00f7edfb28816e8589c337421cc91","0x000000000000000000000000425732f412f2a922156cf3c135a516c18f977cc1"],"transactionHash":"0x6a6196c9a81ed8f3b0b74cbfad52fadd846121dd941e056a39230394561ccef3","transactionIndex":"0x0"},{"address":"0x201eba5cc46d216ce6dc03f6a759e8e766e956ae","blockHash":"0x915609b0c0183c759f1a8d6dd4ca21c2b665009aa4b9c77569782ecf88caa0a4","blockNumber":"0xd00300","data":"0x000000000000000000000000000000000000000000000000002370ca45fd9349","logIndex":"0x2","removed":false,"topics":["0x8c5be1e5ebec7d5bd14f71427d1e84f3dd0314c0f7b2291e5b200ac8c7c3b925","0x000000000000000000000000dff45a3a21f00f7edfb28816e8589c337421cc91","0x000000000000000000000000319b69888b0d11cec22caa5034e25fffbdc88421"],"transactionHash":"0x6a6196c9a81ed8f3b0b74cbfad52fadd846121dd941e056a39230394561ccef3","transactionIndex":"0x0"},{"address":"0x425732f412f2a922156cf3c135a516c18f977cc1","blockHash":"0x915609b0c0183c759f1a8d6dd4ca21c2b665009aa4b9c77569782ecf88caa0a4","blockNumber":"0xd00300","data":"0x000000000000000000000000000000000000000000000000000000002f0d6493fffffffffffffffffffffffffffffffffffffffffffffffff90fa4a62c4e0000000000000000000000000000000000000000626db895b9d10cf333d0aa56526d000000000000000000000000000000000000000000000000038d2cc4e14f929e00000000000000000000000000000000000000000000000000000000000317cc000000000000000000000000000000000000000000000000000000000009a2e50000000000000000000000000000000000000000000000000000000000000000","logIndex":"0x3","removed":false,"topics":["0x19b47279256b2a23a1665c810c8d55a1758940ee09377d4f8d26497a3577dc83","0x000000000000000000000000319b69888b0d11cec22caa5034e25fffbdc88421","0x000000000000000000000000dff45a3a21f00f7edfb28816e8589c337421cc91"],"transactionHash":"0x6a6196c9a81ed8f3b0b74cbfad52fadd846121dd941e056a39230394561ccef3","transactionIndex":"0x0"}],"logsBloom":"0x00000000000000000000000000000000000000000001008800000000000000000000000000000000000000000002000000080000000000000000000000200000040000000040000400000008001000004000008000002000000000010000000000000000000000000000000100000000000000000000000000000012000000008000000000000000000000000000000000000000000000000000000000000000020000000000000000000008000000000000000001000000000100000000000000000002000000000000000000000000000000000000000000000000000000000010000000001000000000000000000000000000000002000000000000000000","status":"0x1","transactionHash":"0x6a6196c9a81ed8f3b0b74cbfad52fadd846121dd941e056a39230394561ccef3"}}}