{"block":{"difficulty":"0x2","extraData":"0xd98301090a846765746889676f312e31352e3133856c696e757800000000000040d05694c9a3373adc00e3cf88fa33ee9d1a2bd9ec85095fad335f8f4e8968900e1243f2cad4582d0ff215aeac1d1dcd2c4ff68e6d2ee2487993931f427c5e1200","gasLimit":"0x1c9c380","gasUsed":"0x86ab","hash":"0xdd410eb61da8dccdb5bb44e38a27c8506c09ebeaeec60e544b759a74631532bb","logsBloom":"0x00000000000000000000000000000000000000000000000000000000000000000000000000000000000000000000000000000000000000000000000000000000000000000000000000000000000000000000000000000000000000000000000000000000000000000000000000000000000000000000000000000000000000000000000000000000000000000000000000000000000000000000000000000000000000000000000000000000000000000000000000000000000000000000000000000000000000000000000000000000000000000000000000000000000000000000000000000000000000000000000000000000000000000000000000000000","miner":"0x0000000000000000000000000000000000000000","mixHash":"0x0000000000000000000000000000000000000000000000000000000000000000","nonce":"0x0000000000000000","number":"0xd00222","parentHash":"0x05040849494752b171bde781ca94c76cb8060db0c89bb52c740e08eedc279f7c","receiptsRoot":"0xec67c581eefa6fbddab8b8bda0315b2d70f5913ba74b029249f49831b00ebc7e","sha3Uncles":"0x1dcc4de8dec75d7aab85b567b6ccd41ad312451b948a7413f0a142fd40d49347","size":"0x314","stateRoot":"0xc1c162b56100e29d572df95faa438af7341728b956d5d5997f20aee36b968b2b","timestamp":"0x65243dd7","totalDifficulty":"0x1a00445","transactions":[{"blockHash":"0xdd410eb61da8dccdb5bb44e38a27c8506c09ebeaeec60e544b759a74631532bb","blockNumber":"0xd00222","from":"0x206f2077b9fa2c618745066046bcadaacf6bc1a7","gas":"0x13880","gasPrice":"0x2faf080","hash":"0xdcef8da8c5f478e441ac615afae14684260377aa36e0bf1fc65000a23c5d485c","index":"0xd00221","input":"0x7ff15f3e0000000000000000000000000000000000000000000000000000000000000001000000000000000000000000000000000000000000000000000002817ac88b80","l1BlockNumber":"0x11774db","l1Timestamp":"0x65243dd7","l1TxOrigin":null,"nonce":"0xbd1","queueIndex":null,"queueOrigin":"sequencer","r":"0xb9c7532e5639bb3b842d42bd4d5c6a357ab0ebca2993cd4c534e0ab1bbf262f9","rawTransaction":"0xf8ad820bd18402faf0808301388094690ef4bf1f67012c53e95627001156e7b1cdadab80b8447ff15f3e0000000000000000000000000000000000000000000000000000000000000001000000000000000000000000000000000000000000000000000002817ac88b80822734a0b9c7532e5639bb3b842d42bd4d5c6a357ab0ebca2993cd4c534e0ab1bbf262f9a01989c27f7b5567eb523e5a46fd0ff82466ac1ffb2fdacec178dc739cfb4c0498","s":"0x1989c27f7b5567eb523e5a46fd0ff82466ac1ffb2fdacec178dc739cfb4c0498","to":"0x690ef4bf1f67012c53e95627001156e7b1cdadab","transactionIndex":"0x0","v":"0x2734","value":"0x0"}],"transactionsRoot":"0x8028b51eb7b0320b0a5672f22848063b9fec7b610c7fd75b8eb9911ead38c32b","uncles":[]},"receipts":{"0xdcef8da8c5f478e441ac615afae14684260377aa36e0bf1fc65000a23c5d485c":{"blockHash":"0xdd410eb61da8dccdb5bb44e38a27c8506c09ebeaeec60e544b759a74631532bb","blockNumber":"0xd00222","from":"0x206f2077b9fa2c618745066046bcadaacf6bc1a7","gas":"0x13880","gasPrice":"0x2faf080","hash":"0xdcef8da8c5f478e441ac615afae14684260377aa36e0bf1fc65000a23c5d485c","index":"0xd00221","input":"0x7ff15f3e0000000000000000000000000000000000000000000000000000000000000001000000000000000000000000000000000000000000000000000002817ac88b80","l1BlockNumber":"0x11774db","l1Timestamp":"0x65243dd7","l1TxOrigin":null,"nonce":"0xbd1","queueIndex":null,"queueOrigin":"sequencer","r":"0xb9c7532e5639bb3b842d42bd4d5c6a357ab0ebca2993cd4c534e0ab1bbf262f9","rawTransaction":"0xf8ad820bd18402faf0808301388094690ef4bf1f67012c53e95627001156e7b1cdadab80b8447ff15f3e0000000000000000000000000000000000000000000000000000000000000001000000000000000000000000000000000000000000000000000002817ac88b80822734a0b9c7532e5639bb3b842d42bd4d5c6a357ab0ebca2993cd4c534e0ab1bbf262f9a01989c27f7b5567eb523e5a46fd0ff82466ac1ffb2fdacec178dc739cfb4c0498","s":"0x1989c27f7b5567eb523e5a46fd0ff82466ac1ffb2fdacec178dc739cfb4c0498","to":"0x690ef4bf1f67012c53e95627001156e7b1cdadab","transactionIndex":"0x0","v":"0x2734","value":"0x0","contractAddress":null,"cumulativeGasUsed":"0x86ab","daFee":"0x0","daGasPrice":"0x0","daGasUsed":"0x6a","gasUsed":"0x86ab","l1Fee":"0x19709d787180660","l1FeeScalar":"1","l1GasPrice":"0x38a987f04864","l1GasUsed":"0x72f","logs":[],"logsBloom":"0x00000000000000000000000000000000000000000000000000000000000000000000000000000000000000000000000000000000000000000000000000000000000000000000000000000000000000000000000000000000000000000000000000000000000000000000000000000000000000000000000000000000000000000000000000000000000000000000000000000000000000000000000000000000000000000000000000000000000000000000000000000000000000000000000000000000000000000000000000000000000000000000000000000000000000000000000000000000000000000000000000000000000000000000000000000000","status":"0x1","transactionHash":"0xdcef8da8c5f478e441ac615afae14684260377aa36e0bf1fc65000a23c5d485c"}}}