{"block":{"difficulty":"0x2","extraData":"0xd98301090a846765746889676f312e31352e3133856c696e75780000000000003736c2155a740eda6ae01045241d68d552160e553e7d3817694ab5d27d7d190025d42e4dacc330df87e048f53eb794ff6cbe0e2018255d50f063c1565c4c76cf00","gasLimit":"0x1c9c380","gasUsed":"0x1e1e5","hash":"0xf0557df3d29d332bd20bdb06d9a036de88c8e54da93cf681108a23fc696be94b","logsBloom":"0x00000000000000000000000000000000000000000001008800000000000000000004000000000000000000000002000000000000000000000000000000200000140000000040000000000008000000000000008000042000000200000000000000000000000000008000000000000080000000000000000000000090000000000000000000000000000000000000000000100000000000000000000000000040020000000000000000000000000200000800000001000000000000000000000000000002000000000000000000000000000000000000000000000010000000000010000000000000000000000000000000000000000000000000000000000000","miner":"0x0000000000000000000000000000000000000000","mixHash":"0x0000000000000000000000000000000000000000000000000000000000000000","nonce":"0x0000000000000000","number":"0xd001d3","parentHash":"0x041c7d355fa29fe073451757a0261d2613afb2f24847a275784ab4b6d87b6ed7","receiptsRoot":"0x51d970bdd1117f986b7ce8a26eabbf158ebcec9fba39a43f0b5d9b187d4a7487","sha3Uncles":"0x1dcc4de8dec75d7aab85b567b6ccd41ad312451b948a7413f0a142fd40d49347","size":"0x3d8","stateRoot":"0x28c38b34ec4902203a31a48cad9ebe6e13a414f87695644856b8c170a8d66cd2","timestamp":"0x65243db4","totalDifficulty":"0x1a003a7","transactions":[{"blockHash":"0xf0557df3d29d332bd20bdb06d9a036de88c8e54da93cf681108a23fc696be94b","blockNumber":"0xd001d3","from":"0x131444e5e5852922074ded7b1c9d3501a8dd3dea","gas":"0x1f977","gasPrice":"0x2faf080","hash":"0xd6d1b80b6f35e917c5914c630280fe7a28e6c245aae806fb2be13332d16e0f6c","index":"0xd001d2","input":"0x414bf38900000000000000000000000078c1b0c915c4faa5fffa6cabf0219da63d7f4cb8000000000000000000000000201eba5cc46d216ce6dc03f6a759e8e766e956ae00000000000000000000000000000000000000000000000000000000000001f4000000000000000000000000131444e5e5852922074ded7b1c9d3501a8dd3dea0000000000000000000000000000000000000000000000000000000065243dd300000000000000000000000000000000000000000000000018fae27693b4000000000000000000000000000000000000000000000000000000000000000a0ee10000000000000000000000000000000000000000000000000000000000000000","l1BlockNumber":"0x11774d7","l1Timestamp":"0x65243db4","l1TxOrigin":null,"nonce":"0x1352","queueIndex":null,"queueOrigin":"sequencer","r":"0xeeab37b503c5c7b3f4598a0dd11ffefb4e4965aaa4225e3493b7e32e6447c702","rawTransaction":"0xf9016e8213528402faf0808301f97794319b69888b0d11cec22caa5034e25fffbdc8842180b90104414bf38900000000000000000000000078c1b0c915c4faa5fffa6cabf0219da63d7f4cb8000000000000000000000000201eba5cc46d216ce6dc03f6a759e8e766e956ae00000000000000000000000000000000000000000000000000000000000001f4000000000000000000000000131444e5e5852922074ded7b1c9d3501a8dd3dea0000000000000000000000000000000000000000000000000000000065243dd300000000000000000000000000000000000000000000000018fae27693b4000000000000000000000000000000000000000000000000000000000000000a0ee10000000000000000000000000000000000000000000000000000000000000000822734a0eeab37b503c5c7b3f4598a0dd11ffefb4e4965aaa4225e3493b7e32e6447c702a071cff64abbc124f4705dc47af376d36cf03045ec0025f3e2ee7b6c0166ad39fd","s":"0x71cff64abbc124f4705dc47af376d36cf03045ec0025f3e2ee7b6c0166ad39fd","to":"0x319b69888b0d11cec22caa5034e25fffbdc88421","transactionIndex":"0x0","v":"0x2734","value":"0x0"}],"transactionsRoot":"0x67d931c27426cbf299efa3ac6564ada7685be715b46160f10cb8a307e032639c","uncles":[]},"receipts":{"0xd6d1b80b6f35e917c5914c630280fe7a28e6c245aae806fb2be13332d16e0f6c":{"blockHash":"0xf0557df3d29d332bd20bdb06d9a036de88c8e54da93cf681108a23fc696be94b","blockNumber":"0xd001d3","from":"0x131444e5e5852922074ded7b1c9d3501a8dd3dea","gas":"0x1f977","gasPrice":"0x2faf080","hash":"0xd6d1b80b6f35e917c5914c630280fe7a28e6c245aae806fb2be13332d16e0f6c","index":"0xd001d2","input":"0x414bf38900000000000000000000000078c1b0c915c4faa5fffa6cabf0219da63d7f4cb8000000000000000000000000201eba5cc46d216ce6dc03f6a759e8e766e956ae00000000000000000000000000000000000000000000000000000000000001f4000000000000000000000000131444e5e5852922074ded7b1c9d3501a8dd3dea0000000000000000000000000000000000000000000000000000000065243dd300000000000000000000000000000000000000000000000018fae27693b4000000000000000000000000000000000000000000000000000000000000000a0ee10000000000000000000000000000000000000000000000000000000000000000","l1BlockNumber":"0x11774d7","l1Timestamp":"0x65243db4","l1TxOrigin":null,"nonce":"0x1352","queueIndex":null,"queueOrigin":"sequencer","r":"0xeeab37b503c5c7b3f4598a0dd11ffefb4e4965aaa4225e3493b7e32e6447c702","rawTransaction":"0xf9016e8213528402faf0808301f97794319b69888b0d11cec22caa5034e25fffbdc8842180b90104414bf38900000000000000000000000078c1b0c915c4faa5fffa6cabf0219da63d7f4cb8000000000000000000000000201eba5cc46d216ce6dc03f6a759e8e766e956ae00000000000000000000000000000000000000000000000000000000000001f4000000000000000000000000131444e5e5852922074ded7b1c9d3501a8dd3dea0000000000000000000000000000000000000000000000000000000065243dd300000000000000000000000000000000000000000000000018fae27693b4000000000000000000000000000000000000000000000000000000000000000a0ee10000000000000000000000000000000000000000000000000000000000000000822734a0eeab37b503c5c7b3f4598a0dd11ffefb4e4965aaa4225e3493b7e32e6447c702a071cff64abbc124f4705dc47af376d36cf03045ec0025f3e2ee7b6c0166ad39fd","s":"0x71cff64abbc124f4705dc47af376d36cf03045ec0025f3e2ee7b6c0166ad39fd","to":"0x319b69888b0d11cec22caa5034e25fffbdc88421","transactionIndex":"0x0","v":"0x2734","value":"0x0","contractAddress":null,"cumulativeGasUsed":"0x1e1e5","daFee":"0x0","daGasPrice":"0x0","daGasUsed":"0x12c","gasUsed":"0x1e1e5","l1Fee":"0x19709d787180660","l1FeeScalar":"1","l1GasPrice":"0x38a987f04864","l1GasUsed":"0x72f","logs":[{"address":"0x201eba5cc46d216ce6dc03f6a759e8e766e956ae","blockHash":"0xf0557df3d29d332bd20bdb06d9a036de88c8e54da93cf681108a23fc696be94b","blockNumber":"0xd001d3","data":"0x00000000000000000000000000000000000000000000000000000000000a436e","logIndex":"0x0","removed":false,"topics":["0xddf252ad1be2c89b69c2b068fc378daa952ba7f163c4a11628f55a4df523b3ef","0x000000000000000000000000d08c50f7e69e9aeb2867deff4a8053d9a855e26a","0x000000000000000000000000131444e5e5852922074ded7b1c9d3501a8dd3dea"],"transactionHash":"0xd6d1b80b6f35e917c5914c630280fe7a28e6c245aae806fb2be13332d16e0f6c","transactionIndex":"0x0"},{"address":"0x78c1b0c915c4faa5fffa6cabf0219da63d7f4cb8","blockHash":"0xf0557df3d29d332bd20bdb06d9a036de88c8e54da93cf681108a23fc696be94b","blockNumber":"0xd001d3","data":"0x00000000000000000000000000000000000000000000000018fae27693b40000","logIndex":"0x1","removed":false,"topics":["0xddf252ad1be2c89b69c2b068fc378daa952ba7f163c4a11628f55a4df523b3ef","0x000000000000000000000000131444e5e5852922074ded7b1c9d3501a8dd3dea","0x000000000000000000000000d08c50f7e69e9aeb2867deff4a8053d9a855e26a"],"transactionHash":"0xd6d1b80b6f35e917c5914c630280fe7a28e6c245aae806fb2be13332d16e0f6c","transactionIndex":"0x0"},{"address":"0x78c1b0c915c4faa5fffa6cabf0219da63d7f4cb8","blockHash":"0xf0557df3d29d332bd20bdb06d9a036de88c8e54da93cf681108a23fc696be94b","blockNumber":"0xd001d3","data":"0xffffffffffffffffffffffffffffffffffffffffffffffa2c1ed6b0e789dffff","logIndex":"0x2","removed":false,"topics":["0x8c5be1e5ebec7d5bd14f71427d1e84f3dd0314c0f7b2291e5b200ac8c7c3b925","0x000000000000000000000000131444e5e5852922074ded7b1c9d3501a8dd3dea","0x000000000000000000000000319b69888b0d11cec22caa5034e25fffbdc88421"],"transactionHash":"0xd6d1b80b6f35e917c5914c630280fe7a28e6c245aae806fb2be13332d16e0f6c","transactionIndex":"0x0"},{"address":"0xd08c50f7e69e9aeb2867deff4a8053d9a855e26a","blockHash":"0xf0557df3d29d332bd20bdb06d9a036de88c8e54da93cf681108a23fc696be94b","blockNumber":"0xd001d3","data":"0xfffffffffffffffffffffffffffffffffffffffffffffffffffffffffff5bc9200000000000000000000000000000000000000000000000018fae27693b40000000000000000000000000000000000000018f4ab008a7525cec5ade6bf98d857000000000000000000000000000000000000000000000000006787d5d3ab8a8c0000000000000000000000000000000000000000000000000000000000045dd300000000000000000000000000000000000000000000000000000000000000000000000000000000000000000000000000000000000000000001164e2d4d2000","logIndex":"0x3","removed":false,"topics":["0x19b47279256b2a23a1665c810c8d55a1758940ee09377d4f8d26497a3577dc83","0x000000000000000000000000319b69888b0d11cec22caa5034e25fffbdc88421","0x000000000000000000000000131444e5e5852922074ded7b1c9d3501a8dd3dea"],"transactionHash":"0xd6d1b80b6f35e917c5914c630280fe7a28e6c245aae806fb2be13332d16e0f6c","transactionIndex":"0x0"}],"logsBloom":"0x00000000000000000000000000000000000000000001008800000000000000000004000000000000000000000002000000000000000000000000000000200000140000000040000000000008000000000000008000042000000200000000000000000000000000008000000000000080000000000000000000000090000000000000000000000000000000000000000000100000000000000000000000000040020000000000000000000000000200000800000001000000000000000000000000000002000000000000000000000000000000000000000000000010000000000010000000000000000000000000000000000000000000000000000000000000","status":"0x1","transactionHash":"0xd6d1b80b6f35e917c5914c630280fe7a28e6c245aae806fb2be13332d16e0f6c"}}}