{"block":{"difficulty":"0x2","extraData":"0xd98301090a846765746889676f312e31352e3133856c696e75780000000000002496341d4669d69c84ae5616ee098641bb64aa86c3374f2d71292e39009572f04bea46ad60f6b447f5bd43ed76db0fb2aac394163fe5430719203b931ce5d0d601","gasLimit":"0x1c9c380","gasUsed":"0x1d421","hash":"0x07088bbb9d31fb935e52c484fd852534867d8879a797c1c9c371611439b05801","logsBloom":"0x00000000000000000000000000000000000000000001008800000000000000000004000000000000000000000002000000000000000002000000000000200000140000000040000000000008000000000000008000042000000200000000000000000000000000000000000000000080000000000000000000000010000000000000000000000000000000000000000000100000000000000000000000000040020000000000000000000000000200400000000001000000000000000000000000000002000000000000000000000000000000000100000000000010000000000010000000000000000000000000000000000000000000000000000000000000","miner":"0x0000000000000000000000000000000000000000","mixHash":"0x0000000000000000000000000000000000000000000000000000000000000000","nonce":"0x0000000000000000","number":"0xd0006a","parentHash":"0x123c7706436b027a1d5b3baca23b2f6f58f05194f1386e14e35805ecb8d43186","receiptsRoot":"0x3a94446da7e89dc4c97309b2af62a33a78c44d4e4f76bb8a9d4c1b4649aac165","sha3Uncles":"0x1dcc4de8dec75d7aab85b567b6ccd41ad312451b948a7413f0a142fd40d49347","size":"0x3d8","stateRoot":"0x7b2d75d4eb04e29acf38c2ce88e848b8454b1e344f12e722ff1ad73c68e6c732","timestamp":"0x65243cfc","totalDifficulty":"0x1a000d5","transactions":[{"blockHash":"0x07088bbb9d31fb935e52c484fd852534867d8879a797c1c9c371611439b05801","blockNumber":"0xd0006a","from":"0xaa0a5494b934c747b79de91a4db9f5acad3d8cdb","gas":"0x1eb85","gasPrice":"0x2faf080","hash":"0x986beee985f9bef32bb654b384e4dd044b9e87b66231575cc8d52f8efd7f6841","index":"0xd00069","input":"0x414bf389000000000000000000000000201eba5cc46d216ce6dc03f6a759e8e766e956ae00000000000000000000000078c1b0c915c4faa5fffa6cabf0219da63d7f4cb800000000000000000000000000000000000000000000000000000000000001f4000000000000000000000000aa0a5494b934c747b79de91a4db9f5acad3d8cdb0000000000000000000000000000000000000000000000000000000065243d1d00000000000000000000000000000000000000000000000000000000000c83200000000000000000000000000000000000000000000000001dd050f78bac4a6e0000000000000000000000000000000000000000000000000000000000000000","l1BlockNumber":"0x11774c8","l1Timestamp":"0x65243cfc","l1TxOrigin":null,"nonce":"0xa02","queueIndex":null,"queueOrigin":"sequencer","r":"0x1e59c80d92c3bf15726304061ecf8a968c67f04ddbfd3abf18c211ff37f5064e","rawTransaction":"0xf9016e820a028402faf0808301eb8594319b69888b0d11cec22caa5034e25fffbdc8842180b90104414bf389000000000000000000000000201eba5cc46d216ce6dc03f6a759e8e766e956ae00000000000000000000000078c1b0c915c4faa5fffa6cabf0219da63d7f4cb800000000000000000000000000000000000000000000000000000000000001f4000000000000000000000000aa0a5494b934c747b79de91a4db9f5acad3d8cdb0000000000000000000000000000000000000000000000000000000065243d1d00000000000000000000000000000000000000000000000000000000000c83200000000000000000000000000000000000000000000000001dd050f78bac4a6e0000000000000000000000000000000000000000000000000000000000000000822734a01e59c80d92c3bf15726304061ecf8a968c67f04ddbfd3abf18c211ff37f5064ea05998499df78662d6b0019e05dfed88830ce7241d24d49a861d6c5038ad7bdb6a","s":"0x5998499df78662d6b0019e05dfed88830ce7241d24d49a861d6c5038ad7bdb6a","to":"0x319b69888b0d11cec22caa5034e25fffbdc88421","transactionIndex":"0x0","v":"0x2734","value":"0x0"}],"transactionsRoot":"0xe010f35c3e46ebcf4af7365a51004b27de1535895eb72d9d5c27b4403894a0cc","uncles":[]},"receipts":{"0x986beee985f9bef32bb654b384e4dd044b9e87b66231575cc8d52f8efd7f6841":{"blockHash":"0x07088bbb9d31fb935e52c484fd852534867d8879a797c1c9c371611439b05801","blockNumber":"0xd0006a","from":"0xaa0a5494b934c747b79de91a4db9f5acad3d8cdb","gas":"0x1eb85","gasPrice":"0x2faf080","hash":"0x986beee985f9bef32bb654b384e4dd044b9e87b66231575cc8d52f8efd7f6841","index":"0xd00069","input":"0x414bf389000000000000000000000000201eba5cc46d216ce6dc03f6a759e8e766e956ae00000000000000000000000078c1b0c915c4faa5fffa6cabf0219da63d7f4cb800000000000000000000000000000000000000000000000000000000000001f4000000000000000000000000aa0a5494b934c747b79de91a4db9f5acad3d8cdb0000000000000000000000000000000000000000000000000000000065243d1d00000000000000000000000000000000000000000000000000000000000c83200000000000000000000000000000000000000000000000001dd050f78bac4a6e0000000000000000000000000000000000000000000000000000000000000000","l1BlockNumber":"0x11774c8","l1Timestamp":"0x65243cfc","l1TxOrigin":null,"nonce":"0xa02","queueIndex":null,"queueOrigin":"sequencer","r":"0x1e59c80d92c3bf15726304061ecf8a968c67f04ddbfd3abf18c211ff37f5064e","rawTransaction":"0xf9016e820a028402faf0808301eb8594319b69888b0d11cec22caa5034e25fffbdc8842180b90104414bf389000000000000000000000000201eba5cc46d216ce6dc03f6a759e8e766e956ae00000000000000000000000078c1b0c915c4faa5fffa6cabf0219da63d7f4cb800000000000000000000000000000000000000000000000000000000000001f4000000000000000000000000aa0a5494b934c747b79de91a4db9f5acad3d8cdb0000000000000000000000000000000000000000000000000000000065243d1d00000000000000000000000000000000000000000000000000000000000c83200000000000000000000000000000000000000000000000001dd050f78bac4a6e0000000000000000000000000000000000000000000000000000000000000000822734a01e59c80d92c3bf15726304061ecf8a968c67f04ddbfd3abf18c211ff37f5064ea05998499df78662d6b0019e05dfed88830ce7241d24d49a861d6c5038ad7bdb6a","s":"0x5998499df78662d6b0019e05dfed88830ce7241d24d49a861d6c5038ad7bdb6a","to":"0x319b69888b0d11cec22caa5034e25fffbdc88421","transactionIndex":"0x0","v":"0x2734","value":"0x0","contractAddress":null,"cumulativeGasUsed":"0x1d421","daFee":"0x0","daGasPrice":"0x0","daGasUsed":"0x12c","gasUsed":"0x1d421","l1Fee":"0x1a09f6380cb9fe0","l1FeeScalar":"1","l1GasPrice":"0x39ff1464e55c","l1GasUsed":"0x72f","logs":[{"address":"0x78c1b0c915c4faa5fffa6cabf0219da63d7f4cb8","blockHash":"0x07088bbb9d31fb935e52c484fd852534867d8879a797c1c9c371611439b05801","blockNumber":"0xd0006a","data":"0x0000000000000000000000000000000000000000000000001e6c13ecec9075bf","logIndex":"0x0","removed":false,"topics":["0xddf252ad1be2c89b69c2b068fc378daa952ba7f163c4a11628f55a4df523b3ef","0x000000000000000000000000d08c50f7e69e9aeb2867deff4a8053d9a855e26a","0x000000000000000000000000aa0a5494b934c747b79de91a4db9f5acad3d8cdb"],"transactionHash":"0x986beee985f9bef32bb654b384e4dd044b9e87b66231575cc8d52f8efd7f6841","transactionIndex":"0x0"},{"address":"0x201eba5cc46d216ce6dc03f6a759e8e766e956ae","blockHash":"0x07088bbb9d31fb935e52c484fd852534867d8879a797c1c9c371611439b05801","blockNumber":"0xd0006a","data":"0x00000000000000000000000000000000000000000000000000000000000c8320","logIndex":"0x1","removed":false,"topics":["0xddf252ad1be2c89b69c2b068fc378daa952ba7f163c4a11628f55a4df523b3ef","0x000000000000000000000000aa0a5494b934c747b79de91a4db9f5acad3d8cdb","0x000000000000000000000000d08c50f7e69e9aeb2867deff4a8053d9a855e26a"],"transactionHash":"0x986beee985f9bef32bb654b384e4dd044b9e87b66231575cc8d52f8efd7f6841","transactionIndex":"0x0"},{"address":"0x201eba5cc46d216ce6dc03f6a759e8e766e956ae","blockHash":"0x07088bbb9d31fb935e52c484fd852534867d8879a797c1c9c371611439b05801","blockNumber":"0xd0006a","data":"0xffffffffffffffffffffffffffffffffffffffffffffffffffffffffbdf56a0f","logIndex":"0x2","removed":false,"topics":["0x8c5be1e5ebec7d5bd14f71427d1e84f3dd0314c0f7b2291e5b200ac8c7c3b925","0x000000000000000000000000aa0a5494b934c747b79de91a4db9f5acad3d8cdb","0x000000000000000000000000319b69888b0d11cec22caa5034e25fffbdc88421"],"transactionHash":"0x986beee985f9bef32bb654b384e4dd044b9e87b66231575cc8d52f8efd7f6841","transactionIndex":"0x0"},{"address":"0xd08c50f7e69e9aeb2867deff4a8053d9a855e26a","blockHash":"0x07088bbb9d31fb935e52c484fd852534867d8879a797c1c9c371611439b05801","blockNumber":"0xd0006a","data":"0x00000000000000000000000000000000000000000000000000000000000c8320ffffffffffffffffffffffffffffffffffffffffffffffffe193ec13136f8a41000000000000000000000000000000000018f452486836dac4246eadae9b761a000000000000000000000000000000000000000000000000006787d5d3ab8a8c0000000000000000000000000000000000000000000000000000000000045dd2000000000000000000000000000000000000000000000000000000000000008b0000000000000000000000000000000000000000000000000000000000000000","logIndex":"0x3","removed":false,"topics":["0x19b47279256b2a23a1665c810c8d55a1758940ee09377d4f8d26497a3577dc83","0x000000000000000000000000319b69888b0d11cec22caa5034e25fffbdc88421","0x000000000000000000000000aa0a5494b934c747b79de91a4db9f5acad3d8cdb"],"transactionHash":"0x986beee985f9bef32bb654b384e4dd044b9e87b66231575cc8d52f8efd7f6841","transactionIndex":"0x0"}],"logsBloom":"0x00000000000000000000000000000000000000000001008800000000000000000004000000000000000000000002000000000000000002000000000000200000140000000040000000000008000000000000008000042000000200000000000000000000000000000000000000000080000000000000000000000010000000000000000000000000000000000000000000100000000000000000000000000040020000000000000000000000000200400000000001000000000000000000000000000002000000000000000000000000000000000100000000000010000000000010000000000000000000000000000000000000000000000000000000000000","status":"0x1","transactionHash":"0x986beee985f9bef32bb654b384e4dd044b9e87b66231575cc8d52f8efd7f6841"}}}