{"block":{"difficulty":"0x2","extraData":"0xd98301090a846765746889676f312e31352e3133856c696e757800000000000037b84a0e6efef3bfeffa37062c34b2663ee1b3b38804c2b092a9a977a144be7c207089f49cb66c99e98646e944694748e83e44c440f43dbbbf21e609c11490bf01","gasLimit":"0x1c9c380","gasUsed":"0x26ff4","hash":"0x56e3033f133aebdcef0df1db7e3cf62ce7349f1988466eeb66c38bc8a2fd8019","logsBloom":"0x0000000000000000000000000100000000000000000100000000000000000000040000000000000000000000000000000000400000200044008200000020000000000000000000000000000800400040000000c00000200020000000000000000000000000100000000200000000000000000010000000000000001000400000004000000000000020000000000000010000000000400000000000000000000002000120000000000000000000000000000000000000a000000000000000000000000002000000000000000000000000000000000000000000000000000000000010000000004000000000000000100000000020000000000000000000000000","miner":"0x0000000000000000000000000000000000000000","mixHash":"0x0000000000000000000000000000000000000000000000000000000000000000","nonce":"0x0000000000000000","number":"0xcff379","parentHash":"0x0f46e894bcc3c52ab55700af388eabb896f243ee5aa737c20b9d881dd2004145","receiptsRoot":"0xb76497b4000873e2353e3c304c4bd34ce68b507964a94e8fc86660e2ff38c56c","sha3Uncles":"0x1dcc4de8dec75d7aab85b567b6ccd41ad312451b948a7413f0a142fd40d49347","size":"0x3f8","stateRoot":"0x04f14ea0cf2359453af95d3f497ede6b103cac9aaf2c438d0ad2edd88d6f19ea","timestamp":"0x6524373e","totalDifficulty":"0x19fe6f3","transactions":[{"blockHash":"0x56e3033f133aebdcef0df1db7e3cf62ce7349f1988466eeb66c38bc8a2fd8019","blockNumber":"0xcff379","from":"0x89d58350332f0369724dd996a4bbe6b0791cf079","gas":"0x3cdea","gasPrice":"0x2faf080","hash":"0x443a801b3c9301158de8bbd43a2df5b1520c5b90d4418a6996fa15315780eb83","index":"0xcff378","input":"0x75ceafe6000000000000000000000000000000000000000000000000000000000000002000000000000000000000000000000000000000000000000000000000000000a000000000000000000000000089d58350332f0369724dd996a4bbe6b0791cf07900000000000000000000000000000000000000000000000000000000000186a000000000000000000000000000000000000000000000000000000000000184d3000000000000000000000000000000000000000000000000000000006524397f000000000000000000000000000000000000000000000000000000000000002b201eba5cc46d216ce6dc03f6a759e8e766e956ae0001f409bc4e0d864854c6afb6eb9a9cdf58ac190d0df9000000000000000000000000000000000000000000","l1BlockNumber":"0x117744d","l1Timestamp":"0x6524373e","l1TxOrigin":null,"nonce":"0x21e7","queueIndex":null,"queueOrigin":"sequencer","r":"0xff90aee3e1c19ee9a65f24e193e632f8cf7ddf8b66bf0f266936b65b1b2ab531","rawTransaction":"0xf9018e8221e78402faf0808303cdea9425c030116feb2e7bba054b9de0915e5f51b03e3180b9012475ceafe6000000000000000000000000000000000000000000000000000000000000002000000000000000000000000000000000000000000000000000000000000000a000000000000000000000000089d58350332f0369724dd996a4bbe6b0791cf07900000000000000000000000000000000000000000000000000000000000186a000000000000000000000000000000000000000000000000000000000000184d3000000000000000000000000000000000000000000000000000000006524397f000000000000000000000000000000000000000000000000000000000000002b201eba5cc46d216ce6dc03f6a759e8e766e956ae0001f409bc4e0d864854c6afb6eb9a9cdf58ac190d0df9000000000000000000000000000000000000000000822733a0ff90aee3e1c19ee9a65f24e193e632f8cf7ddf8b66bf0f266936b65b1b2ab531a017d2da9349216a414f4959a8f77b75a088f19b7162909a65bbe9dbd5fe88c0d9","s":"0x17d2da9349216a414f4959a8f77b75a088f19b7162909a65bbe9dbd5fe88c0d9","to":"0x25c030116feb2e7bba054b9de0915e5f51b03e31","transactionIndex":"0x0","v":"0x2733","value":"0x0"}],"transactionsRoot":"0xa5e1159c0a0f6ccda5e00e5a4de575c9880bbcdad7fd156290ba5c32697a9e03","uncles":[]},"receipts":{"0x443a801b3c9301158de8bbd43a2df5b1520c5b90d4418a6996fa15315780eb83":{"blockHash":"0x56e3033f133aebdcef0df1db7e3cf62ce7349f1988466eeb66c38bc8a2fd8019","blockNumber":"0xcff379","from":"0x89d58350332f0369724dd996a4bbe6b0791cf079","gas":"0x3cdea","gasPrice":"0x2faf080","hash":"0x443a801b3c9301158de8bbd43a2df5b1520c5b90d4418a6996fa15315780eb83","index":"0xcff378","input":"0x75ceafe6000000000000000000000000000000000000000000000000000000000000002000000000000000000000000000000000000000000000000000000000000000a000000000000000000000000089d58350332f0369724dd996a4bbe6b0791cf07900000000000000000000000000000000000000000000000000000000000186a000000000000000000000000000000000000000000000000000000000000184d3000000000000000000000000000000000000000000000000000000006524397f000000000000000000000000000000000000000000000000000000000000002b201eba5cc46d216ce6dc03f6a759e8e766e956ae0001f409bc4e0d864854c6afb6eb9a9cdf58ac190d0df9000000000000000000000000000000000000000000","l1BlockNumber":"0x117744d","l1Timestamp":"0x6524373e","l1TxOrigin":null,"nonce":"0x21e7","queueIndex":null,"queueOrigin":"sequencer","r":"0xff90aee3e1c19ee9a65f24e193e632f8cf7ddf8b66bf0f266936b65b1b2ab531","rawTransaction":"0xf9018e8221e78402faf0808303cdea9425c030116feb2e7bba054b9de0915e5f51b03e3180b9012475ceafe6000000000000000000000000000000000000000000000000000000000000002000000000000000000000000000000000000000000000000000000000000000a000000000000000000000000089d58350332f0369724dd996a4bbe6b0791cf07900000000000000000000000000000000000000000000000000000000000186a000000000000000000000000000000000000000000000000000000000000184d3000000000000000000000000000000000000000000000000000000006524397f000000000000000000000000000000000000000000000000000000000000002b201eba5cc46d216ce6dc03f6a759e8e766e956ae0001f409bc4e0d864854c6afb6eb9a9cdf58ac190d0df9000000000000000000000000000000000000000000822733a0ff90aee3e1c19ee9a65f24e193e632f8cf7ddf8b66bf0f266936b65b1b2ab531a017d2da9349216a414f4959a8f77b75a088f19b7162909a65bbe9dbd5fe88c0d9","s":"0x17d2da9349216a414f4959a8f77b75a088f19b7162909a65bbe9dbd5fe88c0d9","to":"0x25c030116feb2e7bba054b9de0915e5f51b03e31","transactionIndex":"0x0","v":"0x2733","value":"0x0","contractAddress":null,"cumulativeGasUsed":"0x26ff4","daFee":"0x0","daGasPrice":"0x0","daGasUsed":"0x14c","gasUsed":"0x26ff4","l1Fee":"0x1c5145ff7a866d0","l1FeeScalar":"1","l1GasPrice":"0x3f1249c65230","l1GasUsed":"0x72f","logs":[{"address":"0x09bc4e0d864854c6afb6eb9a9cdf58ac190d0df9","blockHash":"0x56e3033f133aebdcef0df1db7e3cf62ce7349f1988466eeb66c38bc8a2fd8019","blockNumber":"0xcff379","data":"0x00000000000000000000000000000000000000000000000000000000000186c7","logIndex":"0x0","removed":false,"topics":["0xddf252ad1be2c89b69c2b068fc378daa952ba7f163c4a11628f55a4df523b3ef","0x000000000000000000000000c865dd3421a6dd706688955fe727c802a98c1df9","0x00000000000000000000000089d58350332f0369724dd996a4bbe6b0791cf079"],"transactionHash":"0x443a801b3c9301158de8bbd43a2df5b1520c5b90d4418a6996fa15315780eb83","transactionIndex":"0x0"},{"address":"0x201eba5cc46d216ce6dc03f6a759e8e766e956ae","blockHash":"0x56e3033f133aebdcef0df1db7e3cf62ce7349f1988466eeb66c38bc8a2fd8019","blockNumber":"0xcff379","data":"0x00000000000000000000000000000000000000000000000000000000000186a0","logIndex":"0x1","removed":false,"topics":["0xddf252ad1be2c89b69c2b068fc378daa952ba7f163c4a11628f55a4df523b3ef","0x00000000000000000000000089d58350332f0369724dd996a4bbe6b0791cf079","0x000000000000000000000000c865dd3421a6dd706688955fe727c802a98c1df9"],"transactionHash":"0x443a801b3c9301158de8bbd43a2df5b1520c5b90d4418a6996fa15315780eb83","transactionIndex":"0x0"},{"address":"0x201eba5cc46d216ce6dc03f6a759e8e766e956ae","blockHash":"0x56e3033f133aebdcef0df1db7e3cf62ce7349f1988466eeb66c38bc8a2fd8019","blockNumber":"0xcff379","data":"0x0000000000000000000000000000000000000000000000000000000000294867","logIndex":"0x2","removed":false,"topics":["0x8c5be1e5ebec7d5bd14f71427d1e84f3dd0314c0f7b2291e5b200ac8c7c3b925","0x00000000000000000000000089d58350332f0369724dd996a4bbe6b0791cf079","0x00000000000000000000000025c030116feb2e7bba054b9de0915e5f51b03e31"],"transactionHash":"0x443a801b3c9301158de8bbd43a2df5b1520c5b90d4418a6996fa15315780eb83","transactionIndex":"0x0"},{"address":"0xc865dd3421a6dd706688955fe727c802a98c1df9","blockHash":"0x56e3033f133aebdcef0df1db7e3cf62ce7349f1988466eeb66c38bc8a2fd8019","blockNumber":"0xcff379","data":"0x000000000000000000000000000000000000000000000000000000000000000000000000000000000000000000000000000000000000000000000000000186c700000000000000000000000000000000000000000000000000000000000186a0fffffffffffffffffffffffffffffffffffffffffffffffffffffffffffffff7","logIndex":"0x3","removed":false,"topics":["0x0fe977d619f8172f7fdbe8bb8928ef80952817d96936509f67d66346bc4cd10f","0x00000000000000000000000009bc4e0d864854c6afb6eb9a9cdf58ac190d0df9","0x000000000000000000000000201eba5cc46d216ce6dc03f6a759e8e766e956ae","0x00000000000000000000000000000000000000000000000000000000000001f4"],"transactionHash":"0x443a801b3c9301158de8bbd43a2df5b1520c5b90d4418a6996fa15315780eb83","transactionIndex":"0x0"}],"logsBloom":"0x0000000000000000000000000100000000000000000100000000000000000000040000000000000000000000000000000000400000200044008200000020000000000000000000000000000800400040000000c00000200020000000000000000000000000100000000200000000000000000010000000000000001000400000004000000000000020000000000000010000000000400000000000000000000002000120000000000000000000000000000000000000a000000000000000000000000002000000000000000000000000000000000000000000000000000000000010000000004000000000000000100000000020000000000000000000000000","status":"0x1","transactionHash":"0x443a801b3c9301158de8bbd43a2df5b1520c5b90d4418a6996fa15315780eb83"}}}