{"block":{"difficulty":"0x2","extraData":"0xd98301090a846765746889676f312e31352e3133856c696e75780000000000001799c38fd9d58c7763b24e7cb018aa78fdaad5c8596c40c2d10d12dd758910744fae2813549727741bb3f97249fc8cf4223e1a21ec512b62e539a8db3051341400","gasLimit":"0x1c9c380","gasUsed":"0x1e33f","hash":"0x84f906375866656feedc23f735e91a8c1a042ea768b0864d46dca7da476ed172","logsBloom":"0x00000000000000000000000000000000000000000001008800000000000000000004000000000000000000000002000000000000000000000000000000200000140000000040000000000008000000000000008000042000000200000000000000000000000000000000000000000080000000000000000000000010000000000000000000000000000000000000000000100000000000000000000000000040020000000000000000000000000200000000000001000000000000000000000000000006000000000000000000000000000000000000000000000010000000000010000000000000000000000000000000000000000000000000000000000800","miner":"0x0000000000000000000000000000000000000000","mixHash":"0x0000000000000000000000000000000000000000000000000000000000000000","nonce":"0x0000000000000000","number":"0xd00224","parentHash":"0xee4b91a62e481952e4b8972bb014df9eb8b27dc407fa9c353dd84cb194465677","receiptsRoot":"0x06d368bd4e1f7d01942850fa2afb1d10377065d4385720ab4aaff5a63301ab4a","sha3Uncles":"0x1dcc4de8dec75d7aab85b567b6ccd41ad312451b948a7413f0a142fd40d49347","size":"0x3d8","stateRoot":"0x9eff08110171fb062155b9936668fa76905964ee0c97c054bff7d424fa7f8cbb","timestamp":"0x65243ddc","totalDifficulty":"0x1a00449","transactions":[{"blockHash":"0x84f906375866656feedc23f735e91a8c1a042ea768b0864d46dca7da476ed172","blockNumber":"0xd00224","from":"0xb5b2fbfdffadadc1b61c8b72398afa12eaa3a652","gas":"0x1fae0","gasPrice":"0x2faf080","hash":"0x12bb69afe60c056437d562242a8a72bc5df8e73d8271b083ea8daf7f9ac889a7","index":"0xd00223","input":"0x414bf389000000000000000000000000201eba5cc46d216ce6dc03f6a759e8e766e956ae00000000000000000000000078c1b0c915c4faa5fffa6cabf0219da63d7f4cb800000000000000000000000000000000000000000000000000000000000001f4000000000000000000000000b5b2fbfdffadadc1b61c8b72398afa12eaa3a6520000000000000000000000000000000000000000000000000000000065243dfa000000000000000000000000000000000000000000000000000000000013fd300000000000000000000000000000000000000000000000002fa06721aad29d4b0000000000000000000000000000000000000000000000000000000000000000","l1BlockNumber":"0x11774db","l1Timestamp":"0x65243ddc","l1TxOrigin":null,"nonce":"0xe0b","queueIndex":null,"queueOrigin":"sequencer","r":"0x5fb3ed11c996dd082fc499e53f30310d359f742044f6e09a65f00e2c902483fa","rawTransaction":"0xf9016e820e0b8402faf0808301fae094319b69888b0d11cec22caa5034e25fffbdc8842180b90104414bf389000000000000000000000000201eba5cc46d216ce6dc03f6a759e8e766e956ae00000000000000000000000078c1b0c915c4faa5fffa6cabf0219da63d7f4cb800000000000000000000000000000000000000000000000000000000000001f4000000000000000000000000b5b2fbfdffadadc1b61c8b72398afa12eaa3a6520000000000000000000000000000000000000000000000000000000065243dfa000000000000000000000000000000000000000000000000000000000013fd300000000000000000000000000000000000000000000000002fa06721aad29d4b0000000000000000000000000000000000000000000000000000000000000000822734a05fb3ed11c996dd082fc499e53f30310d359f742044f6e09a65f00e2c902483faa0517f1e1031c69c31ba476dfa598e5aa1fe318f33b02176e9e7e153af5bf314d2","s":"0x517f1e1031c69c31ba476dfa598e5aa1fe318f33b02176e9e7e153af5bf314d2","to":"0x319b69888b0d11cec22caa5034e25fffbdc88421","transactionIndex":"0x0","v":"0x2734","value":"0x0"}],"transactionsRoot":"0x2520c913543e2bf3a78cb13e3b42ff5e73b8148fe44ddf918013c9c15eec00e8","uncles":[]},"receipts":{"0x12bb69afe60c056437d562242a8a72bc5df8e73d8271b083ea8daf7f9ac889a7":{"blockHash":"0x84f906375866656feedc23f735e91a8c1a042ea768b0864d46dca7da476ed172","blockNumber":"0xd00224","from":"0xb5b2fbfdffadadc1b61c8b72398afa12eaa3a652","gas":"0x1fae0","gasPrice":"0x2faf080","hash":"0x12bb69afe60c056437d562242a8a72bc5df8e73d8271b083ea8daf7f9ac889a7","index":"0xd00223","input":"0x414bf389000000000000000000000000201eba5cc46d216ce6dc03f6a759e8e766e956ae00000000000000000000000078c1b0c915c4faa5fffa6cabf0219da63d7f4cb800000000000000000000000000000000000000000000000000000000000001f4000000000000000000000000b5b2fbfdffadadc1b61c8b72398afa12eaa3a6520000000000000000000000000000000000000000000000000000000065243dfa000000000000000000000000000000000000000000000000000000000013fd300000000000000000000000000000000000000000000000002fa06721aad29d4b0000000000000000000000000000000000000000000000000000000000000000","l1BlockNumber":"0x11774db","l1Timestamp":"0x65243ddc","l1TxOrigin":null,"nonce":"0xe0b","queueIndex":null,"queueOrigin":"sequencer","r":"0x5fb3ed11c996dd082fc499e53f30310d359f742044f6e09a65f00e2c902483fa","rawTransaction":"0xf9016e820e0b8402faf0808301fae094319b69888b0d11cec22caa5034e25fffbdc8842180b90104414bf389000000000000000000000000201eba5cc46d216ce6dc03f6a759e8e766e956ae00000000000000000000000078c1b0c915c4faa5fffa6cabf0219da63d7f4cb800000000000000000000000000000000000000000000000000000000000001f4000000000000000000000000b5b2fbfdffadadc1b61c8b72398afa12eaa3a6520000000000000000000000000000000000000000000000000000000065243dfa000000000000000000000000000000000000000000000000000000000013fd300000000000000000000000000000000000000000000000002fa06721aad29d4b0000000000000000000000000000000000000000000000000000000000000000822734a05fb3ed11c996dd082fc499e53f30310d359f742044f6e09a65f00e2c902483faa0517f1e1031c69c31ba476dfa598e5aa1fe318f33b02176e9e7e153af5bf314d2","s":"0x517f1e1031c69c31ba476dfa598e5aa1fe318f33b02176e9e7e153af5bf314d2","to":"0x319b69888b0d11cec22caa5034e25fffbdc88421","transactionIndex":"0x0","v":"0x2734","value":"0x0","contractAddress":null,"cumulativeGasUsed":"0x1e33f","daFee":"0x0","daGasPrice":"0x0","daGasUsed":"0x12c","gasUsed":"0x1e33f","l1Fee":"0x19709d787180660","l1FeeScalar":"1","l1GasPrice":"0x38a987f04864","l1GasUsed":"0x72f","logs":[{"address":"0x78c1b0c915c4faa5fffa6cabf0219da63d7f4cb8","blockHash":"0x84f906375866656feedc23f735e91a8c1a042ea768b0864d46dca7da476ed172","blockNumber":"0xd00224","data":"0x00000000000000000000000000000000000000000000000030993a3740983804","logIndex":"0x0","removed":false,"topics":["0xddf252ad1be2c89b69c2b068fc378daa952ba7f163c4a11628f55a4df523b3ef","0x000000000000000000000000d08c50f7e69e9aeb2867deff4a8053d9a855e26a","0x000000000000000000000000b5b2fbfdffadadc1b61c8b72398afa12eaa3a652"],"transactionHash":"0x12bb69afe60c056437d562242a8a72bc5df8e73d8271b083ea8daf7f9ac889a7","transactionIndex":"0x0"},{"address":"0x201eba5cc46d216ce6dc03f6a759e8e766e956ae","blockHash":"0x84f906375866656feedc23f735e91a8c1a042ea768b0864d46dca7da476ed172","blockNumber":"0xd00224","data":"0x000000000000000000000000000000000000000000000000000000000013fd30","logIndex":"0x1","removed":false,"topics":["0xddf252ad1be2c89b69c2b068fc378daa952ba7f163c4a11628f55a4df523b3ef","0x000000000000000000000000b5b2fbfdffadadc1b61c8b72398afa12eaa3a652","0x000000000000000000000000d08c50f7e69e9aeb2867deff4a8053d9a855e26a"],"transactionHash":"0x12bb69afe60c056437d562242a8a72bc5df8e73d8271b083ea8daf7f9ac889a7","transactionIndex":"0x0"},{"address":"0x201eba5cc46d216ce6dc03f6a759e8e766e956ae","blockHash":"0x84f906375866656feedc23f735e91a8c1a042ea768b0864d46dca7da476ed172","blockNumber":"0xd00224","data":"0xffffffffffffffffffffffffffffffffffffffffffffffffffffffff9e6baf0f","logIndex":"0x2","removed":false,"topics":["0x8c5be1e5ebec7d5bd14f71427d1e84f3dd0314c0f7b2291e5b200ac8c7c3b925","0x000000000000000000000000b5b2fbfdffadadc1b61c8b72398afa12eaa3a652","0x000000000000000000000000319b69888b0d11cec22caa5034e25fffbdc88421"],"transactionHash":"0x12bb69afe60c056437d562242a8a72bc5df8e73d8271b083ea8daf7f9ac889a7","transactionIndex":"0x0"},{"address":"0xd08c50f7e69e9aeb2867deff4a8053d9a855e26a","blockHash":"0x84f906375866656feedc23f735e91a8c1a042ea768b0864d46dca7da476ed172","blockNumber":"0xd00224","data":"0x000000000000000000000000000000000000000000000000000000000013fd30ffffffffffffffffffffffffffffffffffffffffffffffffcf66c5c8bf67c7fc000000000000000000000000000000000018f40daf51a1893275a8edb3ef01d6000000000000000000000000000000000000000000000000006787d5d3ab8a8c0000000000000000000000000000000000000000000000000000000000045dd100000000000000000000000000000000000000000000000000000000000000de0000000000000000000000000000000000000000000000000000000000000000","logIndex":"0x3","removed":false,"topics":["0x19b47279256b2a23a1665c810c8d55a1758940ee09377d4f8d26497a3577dc83","0x000000000000000000000000319b69888b0d11cec22caa5034e25fffbdc88421","0x000000000000000000000000b5b2fbfdffadadc1b61c8b72398afa12eaa3a652"],"transactionHash":"0x12bb69afe60c056437d562242a8a72bc5df8e73d8271b083ea8daf7f9ac889a7","transactionIndex":"0x0"}],"logsBloom":"0x00000000000000000000000000000000000000000001008800000000000000000004000000000000000000000002000000000000000000000000000000200000140000000040000000000008000000000000008000042000000200000000000000000000000000000000000000000080000000000000000000000010000000000000000000000000000000000000000000100000000000000000000000000040020000000000000000000000000200000000000001000000000000000000000000000006000000000000000000000000000000000000000000000010000000000010000000000000000000000000000000000000000000000000000000000800","status":"0x1","transactionHash":"0x12bb69afe60c056437d562242a8a72bc5df8e73d8271b083ea8daf7f9ac889a7"}}}