{"block":{"difficulty":"0x2","extraData":"0xd98301090a846765746889676f312e31352e3133856c696e75780000000000006f25f14888ff648bde447e4b7cc0c075ea76cf43617afffd4183e1be13a1d21d758b220268ead4a3a1e4e4fbe040540f2ff6ff1c4f3c1f753ede56057a0ac09a00","gasLimit":"0x1c9c380","gasUsed":"0x1e14b","hash":"0x3a0ce1f52310cb3646615e158e19b70009a8ee2879799b3b634e6b5e6b335fd5","logsBloom":"0x40000000000000000000000000000000000000000001008800000000000000000000000000000000000000000002000000000000000000400000000000200000840000000040000000000008000000000000008000002004000000000000000000000001000000000000000100000000000000000000000000000010000000000020004000000000000000000000000000000000000000000008000000000000020000000000000000000000000000000000000001000020000100000000000000000002000000000000000000000000000000000000000000000000000000000010000000001000000000000000000000000000000000000000000000000000","miner":"0x0000000000000000000000000000000000000000","mixHash":"0x0000000000000000000000000000000000000000000000000000000000000000","nonce":"0x0000000000000000","number":"0xd0016c","parentHash":"0xb921553c1834c099804bc1acb784317ec1c79ff1184c7417e121155e49efa8c6","receiptsRoot":"0xd1de474b5d697fdef53de5e2a3efb2f9d946a5f4027aec23a322106c716426cf","sha3Uncles":"0x1dcc4de8dec75d7aab85b567b6ccd41ad312451b948a7413f0a142fd40d49347","size":"0x3d8","stateRoot":"0x458ff839760667fcbc1ea5e00858e602331dd8094e2399f7655c3d4831fcc4c7","timestamp":"0x65243d77","totalDifficulty":"0x1a002d9","transactions":[{"blockHash":"0x3a0ce1f52310cb3646615e158e19b70009a8ee2879799b3b634e6b5e6b335fd5","blockNumber":"0xd0016c","from":"0x1dffe75006ff6dcaa6edc90fc8771cf7a2b45ae7","gas":"0x1f8da","gasPrice":"0x2faf080","hash":"0x43e646d492f066f6418c057469623c33b80584bd56b06bb16655f10418bd238f","index":"0xd0016b","input":"0x414bf389000000000000000000000000deaddeaddeaddeaddeaddeaddeaddeaddead1111000000000000000000000000201eba5cc46d216ce6dc03f6a759e8e766e956ae00000000000000000000000000000000000000000000000000000000000001f40000000000000000000000001dffe75006ff6dcaa6edc90fc8771cf7a2b45ae70000000000000000000000000000000000000000000000000000000065243d9700000000000000000000000000000000000000000000000000025844398d400000000000000000000000000000000000000000000000000000000000000fa5f60000000000000000000000000000000000000000000000000000000000000000","l1BlockNumber":"0x11774d2","l1Timestamp":"0x65243d77","l1TxOrigin":null,"nonce":"0xe09","queueIndex":null,"queueOrigin":"sequencer","r":"0x80e99021216c2f7f95d3c6ebaeb9eeefa69993fa3e89c88b94608571bf2f9bb6","rawTransaction":"0xf9016e820e098402faf0808301f8da94319b69888b0d11cec22caa5034e25fffbdc8842180b90104414bf389000000000000000000000000deaddeaddeaddeaddeaddeaddeaddeaddead1111000000000000000000000000201eba5cc46d216ce6dc03f6a759e8e766e956ae00000000000000000000000000000000000000000000000000000000000001f40000000000000000000000001dffe75006ff6dcaa6edc90fc8771cf7a2b45ae70000000000000000000000000000000000000000000000000000000065243d9700000000000000000000000000000000000000000000000000025844398d400000000000000000000000000000000000000000000000000000000000000fa5f60000000000000000000000000000000000000000000000000000000000000000822734a080e99021216c2f7f95d3c6ebaeb9eeefa69993fa3e89c88b94608571bf2f9bb6a0583f32332200e404955602386e0ed47638c902b97a05e3e6eb3996dc2c907cbe","s":"0x583f32332200e404955602386e0ed47638c902b97a05e3e6eb3996dc2c907cbe","to":"0x319b69888b0d11cec22caa5034e25fffbdc88421","transactionIndex":"0x0","v":"0x2734","value":"0x0"}],"transactionsRoot":"0x93afa65a7674307608bbd5655e238ec213f8a8ef5bbbd1832a27c8b309ef82d3","uncles":[]},"receipts":{"0x43e646d492f066f6418c057469623c33b80584bd56b06bb16655f10418bd238f":{"blockHash":"0x3a0ce1f52310cb3646615e158e19b70009a8ee2879799b3b634e6b5e6b335fd5","blockNumber":"0xd0016c","from":"0x1dffe75006ff6dcaa6edc90fc8771cf7a2b45ae7","gas":"0x1f8da","gasPrice":"0x2faf080","hash":"0x43e646d492f066f6418c057469623c33b80584bd56b06bb16655f10418bd238f","index":"0xd0016b","input":"0x414bf389000000000000000000000000deaddeaddeaddeaddeaddeaddeaddeaddead1111000000000000000000000000201eba5cc46d216ce6dc03f6a759e8e766e956ae00000000000000000000000000000000000000000000000000000000000001f40000000000000000000000001dffe75006ff6dcaa6edc90fc8771cf7a2b45ae70000000000000000000000000000000000000000000000000000000065243d9700000000000000000000000000000000000000000000000000025844398d400000000000000000000000000000000000000000000000000000000000000fa5f60000000000000000000000000000000000000000000000000000000000000000","l1BlockNumber":"0x11774d2","l1Timestamp":"0x65243d77","l1TxOrigin":null,"nonce":"0xe09","queueIndex":null,"queueOrigin":"sequencer","r":"0x80e99021216c2f7f95d3c6ebaeb9eeefa69993fa3e89c88b94608571bf2f9bb6","rawTransaction":"0xf9016e820e098402faf0808301f8da94319b69888b0d11cec22caa5034e25fffbdc8842180b90104414bf389000000000000000000000000deaddeaddeaddeaddeaddeaddeaddeaddead1111000000000000000000000000201eba5cc46d216ce6dc03f6a759e8e766e956ae00000000000000000000000000000000000000000000000000000000000001f40000000000000000000000001dffe75006ff6dcaa6edc90fc8771cf7a2b45ae70000000000000000000000000000000000000000000000000000000065243d9700000000000000000000000000000000000000000000000000025844398d400000000000000000000000000000000000000000000000000000000000000fa5f60000000000000000000000000000000000000000000000000000000000000000822734a080e99021216c2f7f95d3c6ebaeb9eeefa69993fa3e89c88b94608571bf2f9bb6a0583f32332200e404955602386e0ed47638c902b97a05e3e6eb3996dc2c907cbe","s":"0x583f32332200e404955602386e0ed47638c902b97a05e3e6eb3996dc2c907cbe","to":"0x319b69888b0d11cec22caa5034e25fffbdc88421","transactionIndex":"0x0","v":"0x2734","value":"0x0","contractAddress":null,"cumulativeGasUsed":"0x1e14b","daFee":"0x0","daGasPrice":"0x0","daGasUsed":"0x12c","gasUsed":"0x1e14b","l1Fee":"0x1a09f6380cb9fe0","l1FeeScalar":"1","l1GasPrice":"0x39ff1464e55c","l1GasUsed":"0x72f","logs":[{"address":"0x201eba5cc46d216ce6dc03f6a759e8e766e956ae","blockHash":"0x3a0ce1f52310cb3646615e158e19b70009a8ee2879799b3b634e6b5e6b335fd5","blockNumber":"0xd0016c","data":"0x00000000000000000000000000000000000000000000000000000000000ff7b8","logIndex":"0x0","removed":false,"topics":["0xddf252ad1be2c89b69c2b068fc378daa952ba7f163c4a11628f55a4df523b3ef","0x000000000000000000000000628f7131cf43e88ebe3921ae78c4ba0c31872bd4","0x0000000000000000000000001dffe75006ff6dcaa6edc90fc8771cf7a2b45ae7"],"transactionHash":"0x43e646d492f066f6418c057469623c33b80584bd56b06bb16655f10418bd238f","transactionIndex":"0x0"},{"address":"0xdeaddeaddeaddeaddeaddeaddeaddeaddead1111","blockHash":"0x3a0ce1f52310cb3646615e158e19b70009a8ee2879799b3b634e6b5e6b335fd5","blockNumber":"0xd0016c","data":"0x00000000000000000000000000000000000000000000000000025844398d4000","logIndex":"0x1","removed":false,"topics":["0xddf252ad1be2c89b69c2b068fc378daa952ba7f163c4a11628f55a4df523b3ef","0x0000000000000000000000001dffe75006ff6dcaa6edc90fc8771cf7a2b45ae7","0x000000000000000000000000628f7131cf43e88ebe3921ae78c4ba0c31872bd4"],"transactionHash":"0x43e646d492f066f6418c057469623c33b80584bd56b06bb16655f10418bd238f","transactionIndex":"0x0"},{"address":"0xdeaddeaddeaddeaddeaddeaddeaddeaddead1111","blockHash":"0x3a0ce1f52310cb3646615e158e19b70009a8ee2879799b3b634e6b5e6b335fd5","blockNumber":"0xd0016c","data":"0xfffffffffffffffffffffffffffffffffffffffffffffffffb6e6dcbf4b7afff","logIndex":"0x2","removed":false,"topics":["0x8c5be1e5ebec7d5bd14f71427d1e84f3dd0314c0f7b2291e5b200ac8c7c3b925","0x0000000000000000000000001dffe75006ff6dcaa6edc90fc8771cf7a2b45ae7","0x000000000000000000000000319b69888b0d11cec22caa5034e25fffbdc88421"],"transactionHash":"0x43e646d492f066f6418c057469623c33b80584bd56b06bb16655f10418bd238f","transactionIndex":"0x0"},{"address":"0x628f7131cf43e88ebe3921ae78c4ba0c31872bd4","blockHash":"0x3a0ce1f52310cb3646615e158e19b70009a8ee2879799b3b634e6b5e6b335fd5","blockNumber":"0xd0016c","data":"0xfffffffffffffffffffffffffffffffffffffffffffffffffffffffffff0084800000000000000000000000000000000000000000000000000025844398d4000000000000000000000000000000000000000621a36378676846f96de927a656300000000000000000000000000000000000000000000000000002c65dde06c20000000000000000000000000000000000000000000000000000000000003178900000000000000000000000000000000000000000000000000000000000000000000000000000000000000000000000000000000000000000000001a1fa42200","logIndex":"0x3","removed":false,"topics":["0x19b47279256b2a23a1665c810c8d55a1758940ee09377d4f8d26497a3577dc83","0x000000000000000000000000319b69888b0d11cec22caa5034e25fffbdc88421","0x0000000000000000000000001dffe75006ff6dcaa6edc90fc8771cf7a2b45ae7"],"transactionHash":"0x43e646d492f066f6418c057469623c33b80584bd56b06bb16655f10418bd238f","transactionIndex":"0x0"}],"logsBloom":"0x40000000000000000000000000000000000000000001008800000000000000000000000000000000000000000002000000000000000000400000000000200000840000000040000000000008000000000000008000002004000000000000000000000001000000000000000100000000000000000000000000000010000000000020004000000000000000000000000000000000000000000008000000000000020000000000000000000000000000000000000001000020000100000000000000000002000000000000000000000000000000000000000000000000000000000010000000001000000000000000000000000000000000000000000000000000","status":"0x1","transactionHash":"0x43e646d492f066f6418c057469623c33b80584bd56b06bb16655f10418bd238f"}}}