{"block":{"difficulty":"0x2","extraData":"0xd98301090a846765746889676f312e31352e3133856c696e7578000000000000ac643e11902057b2fb8b67c645e4a72851dbd5daadee77bf85cfd1fadd6a082221640ec52b239ffec616e2929c355c6a24d60b1776dcad4b47bd318ec2d11cd100","gasLimit":"0x1c9c380","gasUsed":"0x2471d","hash":"0x42075b03c22d2b6d32300b5bf8a4709c10930ac6c999e130a98fc1140d78b7be","logsBloom":"0x40000000000000000000000000000000000000000001008800000000000008000000000000000000000000000002000000000000000000000000000000200000840000000040000000000008000000000000008000002004000000000000000000000001000000000000000100000000000000000000000000000010040000000000000000000000000000000000000000000000000000000008000000000000020000000000000000000000000000000000000001010020000100000000000000000002000000000000000000000000000000000000000000000000000000000010000000001000000000000000000000000000000000000000000000000000","miner":"0x0000000000000000000000000000000000000000","mixHash":"0x0000000000000000000000000000000000000000000000000000000000000000","nonce":"0x0000000000000000","number":"0xd001d6","parentHash":"0x1732f127e7faadccdc18b402462008af7b10588be1103c41d7aea885eb3bb5fd","receiptsRoot":"0xfc7c7635f150a61f1c9973297aaa16fc27fe6d2591654497e42b3e5132f01f1e","sha3Uncles":"0x1dcc4de8dec75d7aab85b567b6ccd41ad312451b948a7413f0a142fd40d49347","size":"0x3d8","stateRoot":"0xfd4ebccb2666699df7502aff6a4ff22d97a166213dbc24a20346609d904a813c","timestamp":"0x65243db4","totalDifficulty":"0x1a003ad","transactions":[{"blockHash":"0x42075b03c22d2b6d32300b5bf8a4709c10930ac6c999e130a98fc1140d78b7be","blockNumber":"0xd001d6","from":"0xcf1b54f3e07a5c0b00561f1b58ffd0818a73d816","gas":"0x2604a","gasPrice":"0x2faf080","hash":"0x1322731775ec707160f60dbb4ffed505c4b60e56eb3f1b3865e03d2aa44f56e0","index":"0xd001d5","input":"0x414bf389000000000000000000000000deaddeaddeaddeaddeaddeaddeaddeaddead1111000000000000000000000000201eba5cc46d216ce6dc03f6a759e8e766e956ae00000000000000000000000000000000000000000000000000000000000001f4000000000000000000000000cf1b54f3e07a5c0b00561f1b58ffd0818a73d8160000000000000000000000000000000000000000000000000000000065243dd40000000000000000000000000000000000000000000000000001eb208c2dc00000000000000000000000000000000000000000000000000000000000000cbe1d0000000000000000000000000000000000000000000000000000000000000000","l1BlockNumber":"0x11774d7","l1Timestamp":"0x65243db4","l1TxOrigin":null,"nonce":"0x117c","queueIndex":null,"queueOrigin":"sequencer","r":"0xa802561bbfd89f56aa478dfe0ef83abce7270a9094b777d7df269eed128a8a97","rawTransaction":"0xf9016e82117c8402faf0808302604a94319b69888b0d11cec22caa5034e25fffbdc8842180b90104414bf389000000000000000000000000deaddeaddeaddeaddeaddeaddeaddeaddead1111000000000000000000000000201eba5cc46d216ce6dc03f6a759e8e766e956ae00000000000000000000000000000000000000000000000000000000000001f4000000000000000000000000cf1b54f3e07a5c0b00561f1b58ffd0818a73d8160000000000000000000000000000000000000000000000000000000065243dd40000000000000000000000000000000000000000000000000001eb208c2dc00000000000000000000000000000000000000000000000000000000000000cbe1d0000000000000000000000000000000000000000000000000000000000000000822734a0a802561bbfd89f56aa478dfe0ef83abce7270a9094b777d7df269eed128a8a97a0559063ae6369e07fe27821b404b0746fb60947d504edd034fc29e5c3d7eeecb5","s":"0x559063ae6369e07fe27821b404b0746fb60947d504edd034fc29e5c3d7eeecb5","to":"0x319b69888b0d11cec22caa5034e25fffbdc88421","transactionIndex":"0x0","v":"0x2734","value":"0x0"}],"transactionsRoot":"0x50f818e55654eb9c8963a965e9625f431da482cecf4de33a3e51e450f3e3a62b","uncles":[]},"receipts":{"0x1322731775ec707160f60dbb4ffed505c4b60e56eb3f1b3865e03d2aa44f56e0":{"blockHash":"0x42075b03c22d2b6d32300b5bf8a4709c10930ac6c999e130a98fc1140d78b7be","blockNumber":"0xd001d6","from":"0xcf1b54f3e07a5c0b00561f1b58ffd0818a73d816","gas":"0x2604a","gasPrice":"0x2faf080","hash":"0x1322731775ec707160f60dbb4ffed505c4b60e56eb3f1b3865e03d2aa44f56e0","index":"0xd001d5","input":"0x414bf389000000000000000000000000deaddeaddeaddeaddeaddeaddeaddeaddead1111000000000000000000000000201eba5cc46d216ce6dc03f6a759e8e766e956ae00000000000000000000000000000000000000000000000000000000000001f4000000000000000000000000cf1b54f3e07a5c0b00561f1b58ffd0818a73d8160000000000000000000000000000000000000000000000000000000065243dd40000000000000000000000000000000000000000000000000001eb208c2dc00000000000000000000000000000000000000000000000000000000000000cbe1d0000000000000000000000000000000000000000000000000000000000000000","l1BlockNumber":"0x11774d7","l1Timestamp":"0x65243db4","l1TxOrigin":null,"nonce":"0x117c","queueIndex":null,"queueOrigin":"sequencer","r":"0xa802561bbfd89f56aa478dfe0ef83abce7270a9094b777d7df269eed128a8a97","rawTransaction":"0xf9016e82117c8402faf0808302604a94319b69888b0d11cec22caa5034e25fffbdc8842180b90104414bf389000000000000000000000000deaddeaddeaddeaddeaddeaddeaddeaddead1111000000000000000000000000201eba5cc46d216ce6dc03f6a759e8e766e956ae00000000000000000000000000000000000000000000000000000000000001f4000000000000000000000000cf1b54f3e07a5c0b00561f1b58ffd0818a73d8160000000000000000000000000000000000000000000000000000000065243dd40000000000000000000000000000000000000000000000000001eb208c2dc00000000000000000000000000000000000000000000000000000000000000cbe1d0000000000000000000000000000000000000000000000000000000000000000822734a0a802561bbfd89f56aa478dfe0ef83abce7270a9094b777d7df269eed128a8a97a0559063ae6369e07fe27821b404b0746fb60947d504edd034fc29e5c3d7eeecb5","s":"0x559063ae6369e07fe27821b404b0746fb60947d504edd034fc29e5c3d7eeecb5","to":"0x319b69888b0d11cec22caa5034e25fffbdc88421","transactionIndex":"0x0","v":"0x2734","value":"0x0","contractAddress":null,"cumulativeGasUsed":"0x2471d","daFee":"0x0","daGasPrice":"0x0","daGasUsed":"0x12c","gasUsed":"0x2471d","l1Fee":"0x19709d787180660","l1FeeScalar":"1","l1GasPrice":"0x38a987f04864","l1GasUsed":"0x72f","logs":[{"address":"0x201eba5cc46d216ce6dc03f6a759e8e766e956ae","blockHash":"0x42075b03c22d2b6d32300b5bf8a4709c10930ac6c999e130a98fc1140d78b7be","blockNumber":"0xd001d6","data":"0x00000000000000000000000000000000000000000000000000000000000d00b0","logIndex":"0x0","removed":false,"topics":["0xddf252ad1be2c89b69c2b068fc378daa952ba7f163c4a11628f55a4df523b3ef","0x000000000000000000000000628f7131cf43e88ebe3921ae78c4ba0c31872bd4","0x000000000000000000000000cf1b54f3e07a5c0b00561f1b58ffd0818a73d816"],"transactionHash":"0x1322731775ec707160f60dbb4ffed505c4b60e56eb3f1b3865e03d2aa44f56e0","transactionIndex":"0x0"},{"address":"0xdeaddeaddeaddeaddeaddeaddeaddeaddead1111","blockHash":"0x42075b03c22d2b6d32300b5bf8a4709c10930ac6c999e130a98fc1140d78b7be","blockNumber":"0xd001d6","data":"0x0000000000000000000000000000000000000000000000000001eb208c2dc000","logIndex":"0x1","removed":false,"topics":["0xddf252ad1be2c89b69c2b068fc378daa952ba7f163c4a11628f55a4df523b3ef","0x000000000000000000000000cf1b54f3e07a5c0b00561f1b58ffd0818a73d816","0x000000000000000000000000628f7131cf43e88ebe3921ae78c4ba0c31872bd4"],"transactionHash":"0x1322731775ec707160f60dbb4ffed505c4b60e56eb3f1b3865e03d2aa44f56e0","transactionIndex":"0x0"},{"address":"0xdeaddeaddeaddeaddeaddeaddeaddeaddead1111","blockHash":"0x42075b03c22d2b6d32300b5bf8a4709c10930ac6c999e130a98fc1140d78b7be","blockNumber":"0xd001d6","data":"0xfffffffffffffffffffffffffffffffffffffffffffffffffaaa0d7a20c1ffff","logIndex":"0x2","removed":false,"topics":["0x8c5be1e5ebec7d5bd14f71427d1e84f3dd0314c0f7b2291e5b200ac8c7c3b925","0x000000000000000000000000cf1b54f3e07a5c0b00561f1b58ffd0818a73d816","0x000000000000000000000000319b69888b0d11cec22caa5034e25fffbdc88421"],"transactionHash":"0x1322731775ec707160f60dbb4ffed505c4b60e56eb3f1b3865e03d2aa44f56e0","transactionIndex":"0x0"},{"address":"0x628f7131cf43e88ebe3921ae78c4ba0c31872bd4","blockHash":"0x42075b03c22d2b6d32300b5bf8a4709c10930ac6c999e130a98fc1140d78b7be","blockNumber":"0xd001d6","data":"0xfffffffffffffffffffffffffffffffffffffffffffffffffffffffffff2ff500000000000000000000000000000000000000000000000000001eb208c2dc000000000000000000000000000000000000000625486bb154f1859bca7ea6b9de100000000000000000000000000000000000000000000000000002c7598b3bf7a00000000000000000000000000000000000000000000000000000000000317b80000000000000000000000000000000000000000000000000000000000000000000000000000000000000000000000000000000000000000000000155fb4d600","logIndex":"0x3","removed":false,"topics":["0x19b47279256b2a23a1665c810c8d55a1758940ee09377d4f8d26497a3577dc83","0x000000000000000000000000319b69888b0d11cec22caa5034e25fffbdc88421","0x000000000000000000000000cf1b54f3e07a5c0b00561f1b58ffd0818a73d816"],"transactionHash":"0x1322731775ec707160f60dbb4ffed505c4b60e56eb3f1b3865e03d2aa44f56e0","transactionIndex":"0x0"}],"logsBloom":"0x40000000000000000000000000000000000000000001008800000000000008000000000000000000000000000002000000000000000000000000000000200000840000000040000000000008000000000000008000002004000000000000000000000001000000000000000100000000000000000000000000000010040000000000000000000000000000000000000000000000000000000008000000000000020000000000000000000000000000000000000001010020000100000000000000000002000000000000000000000000000000000000000000000000000000000010000000001000000000000000000000000000000000000000000000000000","status":"0x1","transactionHash":"0x1322731775ec707160f60dbb4ffed505c4b60e56eb3f1b3865e03d2aa44f56e0"}}}