{"block":{"difficulty":"0x2","extraData":"0xd98301090a846765746889676f312e31352e3133856c696e757800000000000054f504f16c665ed291c6fbd649d40a1f3f7cc2dbabe175eb3e2005c60b01b4640c7eaac8958fad0a20bb448426e39d0101e09d242cd1b100b2ddb1dca91d08c601","gasLimit":"0x1c9c380","gasUsed":"0x25458","hash":"0x4c6c83f78e9e8a658ffa310ab98116b6ff91952cfd3f0d954b9a124976a9c77b","logsBloom":"0x40000000000000000000000000000000000000000001008800000000000000000000000000000000000000000002000000000000000000000000000000200000840000000040000000000008000000000000008000002004000000000000000000000001000000000000000100000000000000000000000000000010000000000000000000000000000000000000000000000100000000000028000000000000020000000000000000000000000000000000000001000020000100000000000000000002000000000000000000000000000000000000000000000000000000000010000000001000000000000000000000000000000000000000000000000000","miner":"0x0000000000000000000000000000000000000000","mixHash":"0x0000000000000000000000000000000000000000000000000000000000000000","nonce":"0x0000000000000000","number":"0xcff37e","parentHash":"0xd5b71fb1fed85d7dca2e6e1b7b1121ff9fb89c05ecf55d789cb1ef362542c602","receiptsRoot":"0xbf4fe983c9a59093ec316f09781cdd13ae41d887e8e18e9f8f98255f48b26f72","sha3Uncles":"0x1dcc4de8dec75d7aab85b567b6ccd41ad312451b948a7413f0a142fd40d49347","size":"0x3d8","stateRoot":"0xeab52c46836e12365742336038351540c55cdccf20ca12ce8e7a7c74225986aa","timestamp":"0x6524373e","totalDifficulty":"0x19fe6fd","transactions":[{"blockHash":"0x4c6c83f78e9e8a658ffa310ab98116b6ff91952cfd3f0d954b9a124976a9c77b","blockNumber":"0xcff37e","from":"0x26b3a5a875e9fcf8c766dda981e5157acdc7252a","gas":"0x26dbb","gasPrice":"0x2faf080","hash":"0xc7495db7d22d4c310f8a4626c30d6ffb3ba1e2315bf94d5f7fd425a11dc75d47","index":"0xcff37d","input":"0x414bf389000000000000000000000000deaddeaddeaddeaddeaddeaddeaddeaddead1111000000000000000000000000201eba5cc46d216ce6dc03f6a759e8e766e956ae00000000000000000000000000000000000000000000000000000000000001f400000000000000000000000026b3a5a875e9fcf8c766dda981e5157acdc7252a000000000000000000000000000000000000000000000000000000006524375e0000000000000000000000000000000000000000000000000001d8efef48800000000000000000000000000000000000000000000000000000000000000c41120000000000000000000000000000000000000000000000000000000000000000","l1BlockNumber":"0x117744d","l1Timestamp":"0x6524373e","l1TxOrigin":null,"nonce":"0xcfc","queueIndex":null,"queueOrigin":"sequencer","r":"0x32dfc610b6815a6b1ded386d4154563f909365a6a51237ac62f2d2520bf7a337","rawTransaction":"0xf9016e820cfc8402faf08083026dbb94319b69888b0d11cec22caa5034e25fffbdc8842180b90104414bf389000000000000000000000000deaddeaddeaddeaddeaddeaddeaddeaddead1111000000000000000000000000201eba5cc46d216ce6dc03f6a759e8e766e956ae00000000000000000000000000000000000000000000000000000000000001f400000000000000000000000026b3a5a875e9fcf8c766dda981e5157acdc7252a000000000000000000000000000000000000000000000000000000006524375e0000000000000000000000000000000000000000000000000001d8efef48800000000000000000000000000000000000000000000000000000000000000c41120000000000000000000000000000000000000000000000000000000000000000822733a032dfc610b6815a6b1ded386d4154563f909365a6a51237ac62f2d2520bf7a337a04dd26b6e26d3c4ac527413505545d2481540edca2b33159218572880a4064db7","s":"0x4dd26b6e26d3c4ac527413505545d2481540edca2b33159218572880a4064db7","to":"0x319b69888b0d11cec22caa5034e25fffbdc88421","transactionIndex":"0x0","v":"0x2733","value":"0x0"}],"transactionsRoot":"0xb3929751cda5ea5eeca30b507710799a75e03519bd785e7d8a0b95ba74a135e0","uncles":[]},"receipts":{"0xc7495db7d22d4c310f8a4626c30d6ffb3ba1e2315bf94d5f7fd425a11dc75d47":{"blockHash":"0x4c6c83f78e9e8a658ffa310ab98116b6ff91952cfd3f0d954b9a124976a9c77b","blockNumber":"0xcff37e","from":"0x26b3a5a875e9fcf8c766dda981e5157acdc7252a","gas":"0x26dbb","gasPrice":"0x2faf080","hash":"0xc7495db7d22d4c310f8a4626c30d6ffb3ba1e2315bf94d5f7fd425a11dc75d47","index":"0xcff37d","input":"0x414bf389000000000000000000000000deaddeaddeaddeaddeaddeaddeaddeaddead1111000000000000000000000000201eba5cc46d216ce6dc03f6a759e8e766e956ae00000000000000000000000000000000000000000000000000000000000001f400000000000000000000000026b3a5a875e9fcf8c766dda981e5157acdc7252a000000000000000000000000000000000000000000000000000000006524375e0000000000000000000000000000000000000000000000000001d8efef48800000000000000000000000000000000000000000000000000000000000000c41120000000000000000000000000000000000000000000000000000000000000000","l1BlockNumber":"0x117744d","l1Timestamp":"0x6524373e","l1TxOrigin":null,"nonce":"0xcfc","queueIndex":null,"queueOrigin":"sequencer","r":"0x32dfc610b6815a6b1ded386d4154563f909365a6a51237ac62f2d2520bf7a337","rawTransaction":"0xf9016e820cfc8402faf08083026dbb94319b69888b0d11cec22caa5034e25fffbdc8842180b90104414bf389000000000000000000000000deaddeaddeaddeaddeaddeaddeaddeaddead1111000000000000000000000000201eba5cc46d216ce6dc03f6a759e8e766e956ae00000000000000000000000000000000000000000000000000000000000001f400000000000000000000000026b3a5a875e9fcf8c766dda981e5157acdc7252a000000000000000000000000000000000000000000000000000000006524375e0000000000000000000000000000000000000000000000000001d8efef48800000000000000000000000000000000000000000000000000000000000000c41120000000000000000000000000000000000000000000000000000000000000000822733a032dfc610b6815a6b1ded386d4154563f909365a6a51237ac62f2d2520bf7a337a04dd26b6e26d3c4ac527413505545d2481540edca2b33159218572880a4064db7","s":"0x4dd26b6e26d3c4ac527413505545d2481540edca2b33159218572880a4064db7","to":"0x319b69888b0d11cec22caa5034e25fffbdc88421","transactionIndex":"0x0","v":"0x2733","value":"0x0","contractAddress":null,"cumulativeGasUsed":"0x25458","daFee":"0x0","daGasPrice":"0x0","daGasUsed":"0x12c","gasUsed":"0x25458","l1Fee":"0x1c5145ff7a866d0","l1FeeScalar":"1","l1GasPrice":"0x3f1249c65230","l1GasUsed":"0x72f","logs":[{"address":"0x201eba5cc46d216ce6dc03f6a759e8e766e956ae","blockHash":"0x4c6c83f78e9e8a658ffa310ab98116b6ff91952cfd3f0d954b9a124976a9c77b","blockNumber":"0xcff37e","data":"0x00000000000000000000000000000000000000000000000000000000000c8118","logIndex":"0x0","removed":false,"topics":["0xddf252ad1be2c89b69c2b068fc378daa952ba7f163c4a11628f55a4df523b3ef","0x000000000000000000000000628f7131cf43e88ebe3921ae78c4ba0c31872bd4","0x00000000000000000000000026b3a5a875e9fcf8c766dda981e5157acdc7252a"],"transactionHash":"0xc7495db7d22d4c310f8a4626c30d6ffb3ba1e2315bf94d5f7fd425a11dc75d47","transactionIndex":"0x0"},{"address":"0xdeaddeaddeaddeaddeaddeaddeaddeaddead1111","blockHash":"0x4c6c83f78e9e8a658ffa310ab98116b6ff91952cfd3f0d954b9a124976a9c77b","blockNumber":"0xcff37e","data":"0x0000000000000000000000000000000000000000000000000001d8efef488000","logIndex":"0x1","removed":false,"topics":["0xddf252ad1be2c89b69c2b068fc378daa952ba7f163c4a11628f55a4df523b3ef","0x00000000000000000000000026b3a5a875e9fcf8c766dda981e5157acdc7252a","0x000000000000000000000000628f7131cf43e88ebe3921ae78c4ba0c31872bd4"],"transactionHash":"0xc7495db7d22d4c310f8a4626c30d6ffb3ba1e2315bf94d5f7fd425a11dc75d47","transactionIndex":"0x0"},{"address":"0xdeaddeaddeaddeaddeaddeaddeaddeaddead1111","blockHash":"0x4c6c83f78e9e8a658ffa310ab98116b6ff91952cfd3f0d954b9a124976a9c77b","blockNumber":"0xcff37e","data":"0xfffffffffffffffffffffffffffffffffffffffffffffffffc1d8f5688eb9fff","logIndex":"0x2","removed":false,"topics":["0x8c5be1e5ebec7d5bd14f71427d1e84f3dd0314c0f7b2291e5b200ac8c7c3b925","0x00000000000000000000000026b3a5a875e9fcf8c766dda981e5157acdc7252a","0x000000000000000000000000319b69888b0d11cec22caa5034e25fffbdc88421"],"transactionHash":"0xc7495db7d22d4c310f8a4626c30d6ffb3ba1e2315bf94d5f7fd425a11dc75d47","transactionIndex":"0x0"},{"address":"0x628f7131cf43e88ebe3921ae78c4ba0c31872bd4","blockHash":"0x4c6c83f78e9e8a658ffa310ab98116b6ff91952cfd3f0d954b9a124976a9c77b","blockNumber":"0xcff37e","data":"0xfffffffffffffffffffffffffffffffffffffffffffffffffffffffffff37ee80000000000000000000000000000000000000000000000000001d8efef488000000000000000000000000000000000000000626532d7c154ab4604ad5b8b292700000000000000000000000000000000000000000000000000002d389d96d5e700000000000000000000000000000000000000000000000000000000000317c5000000000000000000000000000000000000000000000000000000000000000000000000000000000000000000000000000000000000000000000014950cf400","logIndex":"0x3","removed":false,"topics":["0x19b47279256b2a23a1665c810c8d55a1758940ee09377d4f8d26497a3577dc83","0x000000000000000000000000319b69888b0d11cec22caa5034e25fffbdc88421","0x00000000000000000000000026b3a5a875e9fcf8c766dda981e5157acdc7252a"],"transactionHash":"0xc7495db7d22d4c310f8a4626c30d6ffb3ba1e2315bf94d5f7fd425a11dc75d47","transactionIndex":"0x0"}],"logsBloom":"0x40000000000000000000000000000000000000000001008800000000000000000000000000000000000000000002000000000000000000000000000000200000840000000040000000000008000000000000008000002004000000000000000000000001000000000000000100000000000000000000000000000010000000000000000000000000000000000000000000000100000000000028000000000000020000000000000000000000000000000000000001000020000100000000000000000002000000000000000000000000000000000000000000000000000000000010000000001000000000000000000000000000000000000000000000000000","status":"0x1","transactionHash":"0xc7495db7d22d4c310f8a4626c30d6ffb3ba1e2315bf94d5f7fd425a11dc75d47"}}}