{"block":{"difficulty":"0x2","extraData":"0xd98301090a846765746889676f312e31352e3133856c696e7578000000000000c495932fb74619b6d14e810b29d4e01c5357b606e0c6e494ce9aa60177237cc955ecf3216a8808dc1f755f6ab5e98c2ffcec187edce84a0df034d7b0fc951c2100","gasLimit":"0x1c9c380","gasUsed":"0x869f","hash":"0xf4ee7f117caae131b32fa7dd8838515aad9f1a5dcf831ee8d2b20f012692dbbc","logsBloom":"0x00000000000000000000000000000000000000000000000000000000000000000000000000000000000000000000000000000000000000000000000000000000000000000000000000000000000000000000000000000000000000000000000000000000000000000000000000000000000000000000000000000000000000000000000000000000000000000000000000000000000000000000000000000000000000000000000000000000000000000000000000000000000000000000000000000000000000000000000000000000000000000000000000000000000000000000000000000000000000000000000000000000000000000000000000000000","miner":"0x0000000000000000000000000000000000000000","mixHash":"0x0000000000000000000000000000000000000000000000000000000000000000","nonce":"0x0000000000000000","number":"0xd0037c","parentHash":"0x90f40cc1f3b38308e314956e42f374978247356955582f580d3ad8e085e48f07","receiptsRoot":"0x693234d8ce29f9e74987fc603307c4aba59a3c3c2a4c19bfd8c55342c745e46c","sha3Uncles":"0x1dcc4de8dec75d7aab85b567b6ccd41ad312451b948a7413f0a142fd40d49347","size":"0x314","stateRoot":"0x055a8d1e13203eee2729cab446ba66c8bc13ece28607c1282b3cab05a8cc76a5","timestamp":"0x65243e8a","totalDifficulty":"0x1a006f9","transactions":[{"blockHash":"0xf4ee7f117caae131b32fa7dd8838515aad9f1a5dcf831ee8d2b20f012692dbbc","blockNumber":"0xd0037c","from":"0x206f2077b9fa2c618745066046bcadaacf6bc1a7","gas":"0x13880","gasPrice":"0x2faf080","hash":"0xf76ec9e2585c941f65d39586abcab72e16b0a82508a694e9dfde78697a2d412f","index":"0xd0037b","input":"0x7ff15f3e000000000000000000000000000000000000000000000000000000000000000100000000000000000000000000000000000000000000000000000281cf107900","l1BlockNumber":"0x11774e9","l1Timestamp":"0x65243e8a","l1TxOrigin":null,"nonce":"0xbe4","queueIndex":null,"queueOrigin":"sequencer","r":"0x5ec82e2ecd342601d4b624b914ca914627952814e4aa5a62f07a5bedf547d1ed","rawTransaction":"0xf8ad820be48402faf0808301388094690ef4bf1f67012c53e95627001156e7b1cdadab80b8447ff15f3e000000000000000000000000000000000000000000000000000000000000000100000000000000000000000000000000000000000000000000000281cf107900822734a05ec82e2ecd342601d4b624b914ca914627952814e4aa5a62f07a5bedf547d1eda0497cd19a58bed1eb2df2b3d5342d66bfe7716745a581829a5f10b61b742c62ba","s":"0x497cd19a58bed1eb2df2b3d5342d66bfe7716745a581829a5f10b61b742c62ba","to":"0x690ef4bf1f67012c53e95627001156e7b1cdadab","transactionIndex":"0x0","v":"0x2734","value":"0x0"}],"transactionsRoot":"0x83c9c186b18b830a1b7e4223029f480b2085163325fb61fd5d2eb771e76c86e1","uncles":[]},"receipts":{"0xf76ec9e2585c941f65d39586abcab72e16b0a82508a694e9dfde78697a2d412f":{"blockHash":"0xf4ee7f117caae131b32fa7dd8838515aad9f1a5dcf831ee8d2b20f012692dbbc","blockNumber":"0xd0037c","from":"0x206f2077b9fa2c618745066046bcadaacf6bc1a7","gas":"0x13880","gasPrice":"0x2faf080","hash":"0xf76ec9e2585c941f65d39586abcab72e16b0a82508a694e9dfde78697a2d412f","index":"0xd0037b","input":"0x7ff15f3e000000000000000000000000000000000000000000000000000000000000000100000000000000000000000000000000000000000000000000000281cf107900","l1BlockNumber":"0x11774e9","l1Timestamp":"0x65243e8a","l1TxOrigin":null,"nonce":"0xbe4","queueIndex":null,"queueOrigin":"sequencer","r":"0x5ec82e2ecd342601d4b624b914ca914627952814e4aa5a62f07a5bedf547d1ed","rawTransaction":"0xf8ad820be48402faf0808301388094690ef4bf1f67012c53e95627001156e7b1cdadab80b8447ff15f3e000000000000000000000000000000000000000000000000000000000000000100000000000000000000000000000000000000000000000000000281cf107900822734a05ec82e2ecd342601d4b624b914ca914627952814e4aa5a62f07a5bedf547d1eda0497cd19a58bed1eb2df2b3d5342d66bfe7716745a581829a5f10b61b742c62ba","s":"0x497cd19a58bed1eb2df2b3d5342d66bfe7716745a581829a5f10b61b742c62ba","to":"0x690ef4bf1f67012c53e95627001156e7b1cdadab","transactionIndex":"0x0","v":"0x2734","value":"0x0","contractAddress":null,"cumulativeGasUsed":"0x869f","daFee":"0x0","daGasPrice":"0x0","daGasUsed":"0x6a","gasUsed":"0x869f","l1Fee":"0x19709d787180660","l1FeeScalar":"1","l1GasPrice":"0x38a987f04864","l1GasUsed":"0x72f","logs":[],"logsBloom":"0x00000000000000000000000000000000000000000000000000000000000000000000000000000000000000000000000000000000000000000000000000000000000000000000000000000000000000000000000000000000000000000000000000000000000000000000000000000000000000000000000000000000000000000000000000000000000000000000000000000000000000000000000000000000000000000000000000000000000000000000000000000000000000000000000000000000000000000000000000000000000000000000000000000000000000000000000000000000000000000000000000000000000000000000000000000000","status":"0x1","transactionHash":"0xf76ec9e2585c941f65d39586abcab72e16b0a82508a694e9dfde78697a2d412f"}}}