{"block":{"difficulty":"0x2","extraData":"0xd98301090a846765746889676f312e31352e3133856c696e7578000000000000df207d7580eb7d709d0bee4de133e58dcebe6fe620e5489c551c853cd70fab360d15045c813d4970538f0c4a15fa5688efa8a225fa49dcb3223e3befae61007200","gasLimit":"0x1c9c380","gasUsed":"0x20bcc","hash":"0xc05dc5507c0d7e96c8af66300efc838d35e64195b1a0f611cd1ffbfb7fbc1a14","logsBloom":"0x00000000000000000000000000000000000000400000008800000000000000000000040000000000000000000002000000000000000000000000000000200000140004000040000000000008000000000000000000040000000000000000000000000000000000000000000000000000010000000000100001000010000000000000000000000000000000000000000000100000400000000000000100000000020000000000000000000000000000000000000021000000020000000000000000000002000000000000000000000000000000000000000000001000000000000010000000004000000000000000000000000000000000000000000000000000","miner":"0x0000000000000000000000000000000000000000","mixHash":"0x0000000000000000000000000000000000000000000000000000000000000000","nonce":"0x0000000000000000","number":"0xd00b19","parentHash":"0x49bc594c7990067f805af592f312d9d3488ecbdbe30487d90a9a6caeafc86547","receiptsRoot":"0xe85d210ab21d54146f9b1d7cf324d34bd5909933ae9bda49486e76db276a3b19","sha3Uncles":"0x1dcc4de8dec75d7aab85b567b6ccd41ad312451b948a7413f0a142fd40d49347","size":"0x3d8","stateRoot":"0xc2b63ec2fc2bc82b9692fc5f0048835e88d1b5975313efd2bdfa9f28ba9a2923","timestamp":"0x6524420c","totalDifficulty":"0x1a01633","transactions":[{"blockHash":"0xc05dc5507c0d7e96c8af66300efc838d35e64195b1a0f611cd1ffbfb7fbc1a14","blockNumber":"0xd00b19","from":"0x40957e5943776fddb23d6e1f855d84f28ae2419b","gas":"0x22411","gasPrice":"0x2faf080","hash":"0xefc2c002d17403e11b88b3e76e2c97c76d9d580af1a48cfddc03d8f62ee1e8fc","index":"0xd00b18","input":"0x414bf38900000000000000000000000078c1b0c915c4faa5fffa6cabf0219da63d7f4cb800000000000000000000000097174506aafcc846a40832719bd8899a588bd05c000000000000000000000000000000000000000000000000000000000000271000000000000000000000000040957e5943776fddb23d6e1f855d84f28ae2419b000000000000000000000000000000000000000000000000000000006524422c0000000000000000000000000000000000000000000000000edcf177d37ad60300000000000000000000000000000000000000000000000663a3edb3c42a2f4a0000000000000000000000000000000000000000000000000000000000000000","l1BlockNumber":"0x1177534","l1Timestamp":"0x6524420c","l1TxOrigin":null,"nonce":"0x34f","queueIndex":null,"queueOrigin":"sequencer","r":"0x3e9be159f7007c9953e0d306849d0877a682f3cf54115d9cb08e7892aa680ac","rawTransaction":"0xf9016e82034f8402faf0808302241194319b69888b0d11cec22caa5034e25fffbdc8842180b90104414bf38900000000000000000000000078c1b0c915c4faa5fffa6cabf0219da63d7f4cb800000000000000000000000097174506aafcc846a40832719bd8899a588bd05c000000000000000000000000000000000000000000000000000000000000271000000000000000000000000040957e5943776fddb23d6e1f855d84f28ae2419b000000000000000000000000000000000000000000000000000000006524422c0000000000000000000000000000000000000000000000000edcf177d37ad60300000000000000000000000000000000000000000000000663a3edb3c42a2f4a0000000000000000000000000000000000000000000000000000000000000000822734a003e9be159f7007c9953e0d306849d0877a682f3cf54115d9cb08e7892aa680aca05759e91c4a79fc354f957f38bb25357a35a920bd09a19223b56f0d0abf24085d","s":"0x5759e91c4a79fc354f957f38bb25357a35a920bd09a19223b56f0d0abf24085d","to":"0x319b69888b0d11cec22caa5034e25fffbdc88421","transactionIndex":"0x0","v":"0x2734","value":"0x0"}],"transactionsRoot":"0x951869429c0e60d32f0e575f4d55bb19ca7a67a079f0b86612ad91370eaed0b0","uncles":[]},"receipts":{"0xefc2c002d17403e11b88b3e76e2c97c76d9d580af1a48cfddc03d8f62ee1e8fc":{"blockHash":"0xc05dc5507c0d7e96c8af66300efc838d35e64195b1a0f611cd1ffbfb7fbc1a14","blockNumber":"0xd00b19","from":"0x40957e5943776fddb23d6e1f855d84f28ae2419b","gas":"0x22411","gasPrice":"0x2faf080","hash":"0xefc2c002d17403e11b88b3e76e2c97c76d9d580af1a48cfddc03d8f62ee1e8fc","index":"0xd00b18","input":"0x414bf38900000000000000000000000078c1b0c915c4faa5fffa6cabf0219da63d7f4cb800000000000000000000000097174506aafcc846a40832719bd8899a588bd05c000000000000000000000000000000000000000000000000000000000000271000000000000000000000000040957e5943776fddb23d6e1f855d84f28ae2419b000000000000000000000000000000000000000000000000000000006524422c0000000000000000000000000000000000000000000000000edcf177d37ad60300000000000000000000000000000000000000000000000663a3edb3c42a2f4a0000000000000000000000000000000000000000000000000000000000000000","l1BlockNumber":"0x1177534","l1Timestamp":"0x6524420c","l1TxOrigin":null,"nonce":"0x34f","queueIndex":null,"queueOrigin":"sequencer","r":"0x3e9be159f7007c9953e0d306849d0877a682f3cf54115d9cb08e7892aa680ac","rawTransaction":"0xf9016e82034f8402faf0808302241194319b69888b0d11cec22caa5034e25fffbdc8842180b90104414bf38900000000000000000000000078c1b0c915c4faa5fffa6cabf0219da63d7f4cb800000000000000000000000097174506aafcc846a40832719bd8899a588bd05c000000000000000000000000000000000000000000000000000000000000271000000000000000000000000040957e5943776fddb23d6e1f855d84f28ae2419b000000000000000000000000000000000000000000000000000000006524422c0000000000000000000000000000000000000000000000000edcf177d37ad60300000000000000000000000000000000000000000000000663a3edb3c42a2f4a0000000000000000000000000000000000000000000000000000000000000000822734a003e9be159f7007c9953e0d306849d0877a682f3cf54115d9cb08e7892aa680aca05759e91c4a79fc354f957f38bb25357a35a920bd09a19223b56f0d0abf24085d","s":"0x5759e91c4a79fc354f957f38bb25357a35a920bd09a19223b56f0d0abf24085d","to":"0x319b69888b0d11cec22caa5034e25fffbdc88421","transactionIndex":"0x0","v":"0x2734","value":"0x0","contractAddress":null,"cumulativeGasUsed":"0x20bcc","daFee":"0x0","daGasPrice":"0x0","daGasUsed":"0x12c","gasUsed":"0x20bcc","l1Fee":"0x1911132b46ddf60","l1FeeScalar":"1","l1GasPrice":"0x37d4bc06bddc","l1GasUsed":"0x72f","logs":[{"address":"0x97174506aafcc846a40832719bd8899a588bd05c","blockHash":"0xc05dc5507c0d7e96c8af66300efc838d35e64195b1a0f611cd1ffbfb7fbc1a14","blockNumber":"0xd00b19","data":"0x000000000000000000000000000000000000000000000006b9ba07afc103fbe3","logIndex":"0x0","removed":false,"topics":["0xddf252ad1be2c89b69c2b068fc378daa952ba7f163c4a11628f55a4df523b3ef","0x0000000000000000000000003a873fe63bedad2e9f9b9b63bf8bedb5f1789167","0x00000000000000000000000040957e5943776fddb23d6e1f855d84f28ae2419b"],"transactionHash":"0xefc2c002d17403e11b88b3e76e2c97c76d9d580af1a48cfddc03d8f62ee1e8fc","transactionIndex":"0x0"},{"address":"0x78c1b0c915c4faa5fffa6cabf0219da63d7f4cb8","blockHash":"0xc05dc5507c0d7e96c8af66300efc838d35e64195b1a0f611cd1ffbfb7fbc1a14","blockNumber":"0xd00b19","data":"0x0000000000000000000000000000000000000000000000000edcf177d37ad603","logIndex":"0x1","removed":false,"topics":["0xddf252ad1be2c89b69c2b068fc378daa952ba7f163c4a11628f55a4df523b3ef","0x00000000000000000000000040957e5943776fddb23d6e1f855d84f28ae2419b","0x0000000000000000000000003a873fe63bedad2e9f9b9b63bf8bedb5f1789167"],"transactionHash":"0xefc2c002d17403e11b88b3e76e2c97c76d9d580af1a48cfddc03d8f62ee1e8fc","transactionIndex":"0x0"},{"address":"0x78c1b0c915c4faa5fffa6cabf0219da63d7f4cb8","blockHash":"0xc05dc5507c0d7e96c8af66300efc838d35e64195b1a0f611cd1ffbfb7fbc1a14","blockNumber":"0xd00b19","data":"0xfffffffffffffffffffffffffffffffffffffffffffffe84c0043b5b2d206f0a","logIndex":"0x2","removed":false,"topics":["0x8c5be1e5ebec7d5bd14f71427d1e84f3dd0314c0f7b2291e5b200ac8c7c3b925","0x00000000000000000000000040957e5943776fddb23d6e1f855d84f28ae2419b","0x000000000000000000000000319b69888b0d11cec22caa5034e25fffbdc88421"],"transactionHash":"0xefc2c002d17403e11b88b3e76e2c97c76d9d580af1a48cfddc03d8f62ee1e8fc","transactionIndex":"0x0"},{"address":"0x3a873fe63bedad2e9f9b9b63bf8bedb5f1789167","blockHash":"0xc05dc5507c0d7e96c8af66300efc838d35e64195b1a0f611cd1ffbfb7fbc1a14","blockNumber":"0xd00b19","data":"0x0000000000000000000000000000000000000000000000000edcf177d37ad603fffffffffffffffffffffffffffffffffffffffffffffff94645f8503efc041d000000000000000000000000000000000000000ad12be6d5ed9f68b1d668dbc300000000000000000000000000000000000000000004050e8f20b2f8a1c79e70000000000000000000000000000000000000000000000000000000000000ba08000000000000000000000000000000000000000000000000000c2d026e7314c10000000000000000000000000000000000000000000000000000000000000000","logIndex":"0x3","removed":false,"topics":["0x19b47279256b2a23a1665c810c8d55a1758940ee09377d4f8d26497a3577dc83","0x000000000000000000000000319b69888b0d11cec22caa5034e25fffbdc88421","0x00000000000000000000000040957e5943776fddb23d6e1f855d84f28ae2419b"],"transactionHash":"0xefc2c002d17403e11b88b3e76e2c97c76d9d580af1a48cfddc03d8f62ee1e8fc","transactionIndex":"0x0"}],"logsBloom":"0x00000000000000000000000000000000000000400000008800000000000000000000040000000000000000000002000000000000000000000000000000200000140004000040000000000008000000000000000000040000000000000000000000000000000000000000000000000000010000000000100001000010000000000000000000000000000000000000000000100000400000000000000100000000020000000000000000000000000000000000000021000000020000000000000000000002000000000000000000000000000000000000000000001000000000000010000000004000000000000000000000000000000000000000000000000000","status":"0x1","transactionHash":"0xefc2c002d17403e11b88b3e76e2c97c76d9d580af1a48cfddc03d8f62ee1e8fc"}}}