{"block":{"difficulty":"0x2","extraData":"0xd98301090a846765746889676f312e31352e3133856c696e757800000000000056d653439e938c170ac611c19383876f786d6fcb62417f772edf2059a5e3de8663a73d50f0ac98d4ba678f11c7a4f1733156f7bbd6e395f44c63c7def244e64100","gasLimit":"0x1c9c380","gasUsed":"0x1d017","hash":"0xdb976640551862ef239f6a72b3c63a627fb3bb401e5b71f2808dde9c37a7f59e","logsBloom":"0x00000000000000000000000000000000000000000001008800000000000000000804000000000000000000000002000000000000000000000000000000200000140000000040000000000008000000000000008000042000000200000000000000200000000000000000000000000080000000000000000000000010000000000000000000000000000000000000000000100000000000000000000000000040020000000000000000000000000200000000000001000000000000000000000000000002000000000000000000000000000000000000000000000010000000000010000000000000000000000000000000000000000000010000000000000000","miner":"0x0000000000000000000000000000000000000000","mixHash":"0x0000000000000000000000000000000000000000000000000000000000000000","nonce":"0x0000000000000000","number":"0xd000f4","parentHash":"0x39abdf08b7569e5538c248ca09c0ed723b10dda0ef866676403f64812a2e940c","receiptsRoot":"0x792094fb99693f45c9f07a65ad37b3ea9789bc499c1c417a051cf77ab760c0d8","sha3Uncles":"0x1dcc4de8dec75d7aab85b567b6ccd41ad312451b948a7413f0a142fd40d49347","size":"0x3d8","stateRoot":"0x35597b749eca65aa1e08d255067f4440737ee806f4d00378ce9e12c478cb948c","timestamp":"0x65243d3a","totalDifficulty":"0x1a001e9","transactions":[{"blockHash":"0xdb976640551862ef239f6a72b3c63a627fb3bb401e5b71f2808dde9c37a7f59e","blockNumber":"0xd000f4","from":"0x8c4dbaa698c9374f77057feb8a2c99fc11869833","gas":"0x2634f","gasPrice":"0x2faf080","hash":"0x4449dc643068a1e5f4a75f80ea4aa38c8f995cf8b7651fa598c578161919df3c","index":"0xd000f3","input":"0x414bf389000000000000000000000000201eba5cc46d216ce6dc03f6a759e8e766e956ae00000000000000000000000078c1b0c915c4faa5fffa6cabf0219da63d7f4cb800000000000000000000000000000000000000000000000000000000000001f40000000000000000000000008c4dbaa698c9374f77057feb8a2c99fc118698330000000000000000000000000000000000000000000000000000000065243d5c00000000000000000000000000000000000000000000000000000000000f90600000000000000000000000000000000000000000000000002513582c996cbcc10000000000000000000000000000000000000000000000000000000000000000","l1BlockNumber":"0x11774cd","l1Timestamp":"0x65243d3a","l1TxOrigin":null,"nonce":"0x12ba","queueIndex":null,"queueOrigin":"sequencer","r":"0xfe934e1c68ff294b8445fcba3fa930689d4ddffc5f2a5005037aa14736766b43","rawTransaction":"0xf9016e8212ba8402faf0808302634f94319b69888b0d11cec22caa5034e25fffbdc8842180b90104414bf389000000000000000000000000201eba5cc46d216ce6dc03f6a759e8e766e956ae00000000000000000000000078c1b0c915c4faa5fffa6cabf0219da63d7f4cb800000000000000000000000000000000000000000000000000000000000001f40000000000000000000000008c4dbaa698c9374f77057feb8a2c99fc118698330000000000000000000000000000000000000000000000000000000065243d5c00000000000000000000000000000000000000000000000000000000000f90600000000000000000000000000000000000000000000000002513582c996cbcc10000000000000000000000000000000000000000000000000000000000000000822734a0fe934e1c68ff294b8445fcba3fa930689d4ddffc5f2a5005037aa14736766b43a07cf29f03abe31cadf0c8e4318c96bb4669d5690eb82bcb1f033415fb462b48af","s":"0x7cf29f03abe31cadf0c8e4318c96bb4669d5690eb82bcb1f033415fb462b48af","to":"0x319b69888b0d11cec22caa5034e25fffbdc88421","transactionIndex":"0x0","v":"0x2734","value":"0x0"}],"transactionsRoot":"0x5f049a1c273cde15e612d816dd1f4070d97f0a07744a9cb6bc214c461d692437","uncles":[]},"receipts":{"0x4449dc643068a1e5f4a75f80ea4aa38c8f995cf8b7651fa598c578161919df3c":{"blockHash":"0xdb976640551862ef239f6a72b3c63a627fb3bb401e5b71f2808dde9c37a7f59e","blockNumber":"0xd000f4","from":"0x8c4dbaa698c9374f77057feb8a2c99fc11869833","gas":"0x2634f","gasPrice":"0x2faf080","hash":"0x4449dc643068a1e5f4a75f80ea4aa38c8f995cf8b7651fa598c578161919df3c","index":"0xd000f3","input":"0x414bf389000000000000000000000000201eba5cc46d216ce6dc03f6a759e8e766e956ae00000000000000000000000078c1b0c915c4faa5fffa6cabf0219da63d7f4cb800000000000000000000000000000000000000000000000000000000000001f40000000000000000000000008c4dbaa698c9374f77057feb8a2c99fc118698330000000000000000000000000000000000000000000000000000000065243d5c00000000000000000000000000000000000000000000000000000000000f90600000000000000000000000000000000000000000000000002513582c996cbcc10000000000000000000000000000000000000000000000000000000000000000","l1BlockNumber":"0x11774cd","l1Timestamp":"0x65243d3a","l1TxOrigin":null,"nonce":"0x12ba","queueIndex":null,"queueOrigin":"sequencer","r":"0xfe934e1c68ff294b8445fcba3fa930689d4ddffc5f2a5005037aa14736766b43","rawTransaction":"0xf9016e8212ba8402faf0808302634f94319b69888b0d11cec22caa5034e25fffbdc8842180b90104414bf389000000000000000000000000201eba5cc46d216ce6dc03f6a759e8e766e956ae00000000000000000000000078c1b0c915c4faa5fffa6cabf0219da63d7f4cb800000000000000000000000000000000000000000000000000000000000001f40000000000000000000000008c4dbaa698c9374f77057feb8a2c99fc118698330000000000000000000000000000000000000000000000000000000065243d5c00000000000000000000000000000000000000000000000000000000000f90600000000000000000000000000000000000000000000000002513582c996cbcc10000000000000000000000000000000000000000000000000000000000000000822734a0fe934e1c68ff294b8445fcba3fa930689d4ddffc5f2a5005037aa14736766b43a07cf29f03abe31cadf0c8e4318c96bb4669d5690eb82bcb1f033415fb462b48af","s":"0x7cf29f03abe31cadf0c8e4318c96bb4669d5690eb82bcb1f033415fb462b48af","to":"0x319b69888b0d11cec22caa5034e25fffbdc88421","transactionIndex":"0x0","v":"0x2734","value":"0x0","contractAddress":null,"cumulativeGasUsed":"0x1d017","daFee":"0x0","daGasPrice":"0x0","daGasUsed":"0x12c","gasUsed":"0x1d017","l1Fee":"0x1a09f6380cb9fe0","l1FeeScalar":"1","l1GasPrice":"0x39ff1464e55c","l1GasUsed":"0x72f","logs":[{"address":"0x78c1b0c915c4faa5fffa6cabf0219da63d7f4cb8","blockHash":"0xdb976640551862ef239f6a72b3c63a627fb3bb401e5b71f2808dde9c37a7f59e","blockNumber":"0xd000f4","data":"0x00000000000000000000000000000000000000000000000025d5c410e6feabea","logIndex":"0x0","removed":false,"topics":["0xddf252ad1be2c89b69c2b068fc378daa952ba7f163c4a11628f55a4df523b3ef","0x000000000000000000000000d08c50f7e69e9aeb2867deff4a8053d9a855e26a","0x0000000000000000000000008c4dbaa698c9374f77057feb8a2c99fc11869833"],"transactionHash":"0x4449dc643068a1e5f4a75f80ea4aa38c8f995cf8b7651fa598c578161919df3c","transactionIndex":"0x0"},{"address":"0x201eba5cc46d216ce6dc03f6a759e8e766e956ae","blockHash":"0xdb976640551862ef239f6a72b3c63a627fb3bb401e5b71f2808dde9c37a7f59e","blockNumber":"0xd000f4","data":"0x00000000000000000000000000000000000000000000000000000000000f9060","logIndex":"0x1","removed":false,"topics":["0xddf252ad1be2c89b69c2b068fc378daa952ba7f163c4a11628f55a4df523b3ef","0x0000000000000000000000008c4dbaa698c9374f77057feb8a2c99fc11869833","0x000000000000000000000000d08c50f7e69e9aeb2867deff4a8053d9a855e26a"],"transactionHash":"0x4449dc643068a1e5f4a75f80ea4aa38c8f995cf8b7651fa598c578161919df3c","transactionIndex":"0x0"},{"address":"0x201eba5cc46d216ce6dc03f6a759e8e766e956ae","blockHash":"0xdb976640551862ef239f6a72b3c63a627fb3bb401e5b71f2808dde9c37a7f59e","blockNumber":"0xd000f4","data":"0xffffffffffffffffffffffffffffffffffffffffffffffffffffffff8085b8ff","logIndex":"0x2","removed":false,"topics":["0x8c5be1e5ebec7d5bd14f71427d1e84f3dd0314c0f7b2291e5b200ac8c7c3b925","0x0000000000000000000000008c4dbaa698c9374f77057feb8a2c99fc11869833","0x000000000000000000000000319b69888b0d11cec22caa5034e25fffbdc88421"],"transactionHash":"0x4449dc643068a1e5f4a75f80ea4aa38c8f995cf8b7651fa598c578161919df3c","transactionIndex":"0x0"},{"address":"0xd08c50f7e69e9aeb2867deff4a8053d9a855e26a","blockHash":"0xdb976640551862ef239f6a72b3c63a627fb3bb401e5b71f2808dde9c37a7f59e","blockNumber":"0xd000f4","data":"0x00000000000000000000000000000000000000000000000000000000000f9060ffffffffffffffffffffffffffffffffffffffffffffffffda2a3bef19015416000000000000000000000000000000000018f3ad88978cb1b5f147b996a6a18e000000000000000000000000000000000000000000000000006787d5d3ab8a8c0000000000000000000000000000000000000000000000000000000000045dd000000000000000000000000000000000000000000000000000000000000000ad0000000000000000000000000000000000000000000000000000000000000000","logIndex":"0x3","removed":false,"topics":["0x19b47279256b2a23a1665c810c8d55a1758940ee09377d4f8d26497a3577dc83","0x000000000000000000000000319b69888b0d11cec22caa5034e25fffbdc88421","0x0000000000000000000000008c4dbaa698c9374f77057feb8a2c99fc11869833"],"transactionHash":"0x4449dc643068a1e5f4a75f80ea4aa38c8f995cf8b7651fa598c578161919df3c","transactionIndex":"0x0"}],"logsBloom":"0x00000000000000000000000000000000000000000001008800000000000000000804000000000000000000000002000000000000000000000000000000200000140000000040000000000008000000000000008000042000000200000000000000200000000000000000000000000080000000000000000000000010000000000000000000000000000000000000000000100000000000000000000000000040020000000000000000000000000200000000000001000000000000000000000000000002000000000000000000000000000000000000000000000010000000000010000000000000000000000000000000000000000000010000000000000000","status":"0x1","transactionHash":"0x4449dc643068a1e5f4a75f80ea4aa38c8f995cf8b7651fa598c578161919df3c"}}}