{"block":{"difficulty":"0x2","extraData":"0xd98301090a846765746889676f312e31352e3133856c696e7578000000000000fb2c729ff8bc63cea8de019da59b7a55b104078ec82b4e5338b478ec73518b0554dcdb4ff18ccb127a03bae896f8e63939994994649d03aee288e43f3399526b01","gasLimit":"0x1c9c380","gasUsed":"0x1dd39","hash":"0xaa422c549200f70acf6d10f13172bc926c90f0cc4c13b99575176d772da1f74a","logsBloom":"0x40000000000000000000000000000000000000000001008800000000000000000000000000000000000000000002000000000000000000000000000000200000840000000040000000000088000000000000008000002004000000000000000000000201000000000000000100000000000000000000000000000010000000000000000000000000000000000000000000000000000000000008000000000000020000000008000000000000000000000000000001000020000100000000000000000002000000000000000000000000000000000000000000000000000000000010000000001000000000000000000000000000000000000000000000000000","miner":"0x0000000000000000000000000000000000000000","mixHash":"0x0000000000000000000000000000000000000000000000000000000000000000","nonce":"0x0000000000000000","number":"0xd000a9","parentHash":"0x47f6dd3544d6d1aee095c9657ccd9723b01791370358b1f73fee807dfaa45eaf","receiptsRoot":"0x5df9c4ad2e30344426a010b353fcc70c5908a0d89f56b2fe06a9742d0bceabbf","sha3Uncles":"0x1dcc4de8dec75d7aab85b567b6ccd41ad312451b948a7413f0a142fd40d49347","size":"0x3d8","stateRoot":"0xa15a44600902f24f3240fdee51b1f800b131cc9e5548fcbd037084e257bbe0b2","timestamp":"0x65243d1b","totalDifficulty":"0x1a00153","transactions":[{"blockHash":"0xaa422c549200f70acf6d10f13172bc926c90f0cc4c13b99575176d772da1f74a","blockNumber":"0xd000a9","from":"0x1d774083c5af11dfd993148d5e4d05cf039ff800","gas":"0x1f4b8","gasPrice":"0x2faf080","hash":"0x56677bfb9eddbe3a021a911ccfbdb4e890b58cb97da09e8db5fb0e83c962515a","index":"0xd000a8","input":"0x414bf389000000000000000000000000deaddeaddeaddeaddeaddeaddeaddeaddead1111000000000000000000000000201eba5cc46d216ce6dc03f6a759e8e766e956ae00000000000000000000000000000000000000000000000000000000000001f40000000000000000000000001d774083c5af11dfd993148d5e4d05cf039ff8000000000000000000000000000000000000000000000000000000000065243d390000000000000000000000000000000000000000000000000002189a146ae00000000000000000000000000000000000000000000000000000000000000e12cf0000000000000000000000000000000000000000000000000000000000000000","l1BlockNumber":"0x11774cb","l1Timestamp":"0x65243d1b","l1TxOrigin":null,"nonce":"0x5cd","queueIndex":null,"queueOrigin":"sequencer","r":"0x14fb09ab91eb00ee5c0500318bed5349928b8d77257843dd7037c709dc16552f","rawTransaction":"0xf9016e8205cd8402faf0808301f4b894319b69888b0d11cec22caa5034e25fffbdc8842180b90104414bf389000000000000000000000000deaddeaddeaddeaddeaddeaddeaddeaddead1111000000000000000000000000201eba5cc46d216ce6dc03f6a759e8e766e956ae00000000000000000000000000000000000000000000000000000000000001f40000000000000000000000001d774083c5af11dfd993148d5e4d05cf039ff8000000000000000000000000000000000000000000000000000000000065243d390000000000000000000000000000000000000000000000000002189a146ae00000000000000000000000000000000000000000000000000000000000000e12cf0000000000000000000000000000000000000000000000000000000000000000822734a014fb09ab91eb00ee5c0500318bed5349928b8d77257843dd7037c709dc16552fa03ff7f2cb6f201959d2bade0ac67ae5d38ec2a273f64a88088c6e140df77746ef","s":"0x3ff7f2cb6f201959d2bade0ac67ae5d38ec2a273f64a88088c6e140df77746ef","to":"0x319b69888b0d11cec22caa5034e25fffbdc88421","transactionIndex":"0x0","v":"0x2734","value":"0x0"}],"transactionsRoot":"0xd09298fa5dcc77d8f3800317893274691648df8b01f253e246f15f69648a3a7a","uncles":[]},"receipts":{"0x56677bfb9eddbe3a021a911ccfbdb4e890b58cb97da09e8db5fb0e83c962515a":{"blockHash":"0xaa422c549200f70acf6d10f13172bc926c90f0cc4c13b99575176d772da1f74a","blockNumber":"0xd000a9","from":"0x1d774083c5af11dfd993148d5e4d05cf039ff800","gas":"0x1f4b8","gasPrice":"0x2faf080","hash":"0x56677bfb9eddbe3a021a911ccfbdb4e890b58cb97da09e8db5fb0e83c962515a","index":"0xd000a8","input":"0x414bf389000000000000000000000000deaddeaddeaddeaddeaddeaddeaddeaddead1111000000000000000000000000201eba5cc46d216ce6dc03f6a759e8e766e956ae00000000000000000000000000000000000000000000000000000000000001f40000000000000000000000001d774083c5af11dfd993148d5e4d05cf039ff8000000000000000000000000000000000000000000000000000000000065243d390000000000000000000000000000000000000000000000000002189a146ae00000000000000000000000000000000000000000000000000000000000000e12cf0000000000000000000000000000000000000000000000000000000000000000","l1BlockNumber":"0x11774cb","l1Timestamp":"0x65243d1b","l1TxOrigin":null,"nonce":"0x5cd","queueIndex":null,"queueOrigin":"sequencer","r":"0x14fb09ab91eb00ee5c0500318bed5349928b8d77257843dd7037c709dc16552f","rawTransaction":"0xf9016e8205cd8402faf0808301f4b894319b69888b0d11cec22caa5034e25fffbdc8842180b90104414bf389000000000000000000000000deaddeaddeaddeaddeaddeaddeaddeaddead1111000000000000000000000000201eba5cc46d216ce6dc03f6a759e8e766e956ae00000000000000000000000000000000000000000000000000000000000001f40000000000000000000000001d774083c5af11dfd993148d5e4d05cf039ff8000000000000000000000000000000000000000000000000000000000065243d390000000000000000000000000000000000000000000000000002189a146ae00000000000000000000000000000000000000000000000000000000000000e12cf0000000000000000000000000000000000000000000000000000000000000000822734a014fb09ab91eb00ee5c0500318bed5349928b8d77257843dd7037c709dc16552fa03ff7f2cb6f201959d2bade0ac67ae5d38ec2a273f64a88088c6e140df77746ef","s":"0x3ff7f2cb6f201959d2bade0ac67ae5d38ec2a273f64a88088c6e140df77746ef","to":"0x319b69888b0d11cec22caa5034e25fffbdc88421","transactionIndex":"0x0","v":"0x2734","value":"0x0","contractAddress":null,"cumulativeGasUsed":"0x1dd39","daFee":"0x0","daGasPrice":"0x0","daGasUsed":"0x12c","gasUsed":"0x1dd39","l1Fee":"0x1a09f6380cb9fe0","l1FeeScalar":"1","l1GasPrice":"0x39ff1464e55c","l1GasUsed":"0x72f","logs":[{"address":"0x201eba5cc46d216ce6dc03f6a759e8e766e956ae","blockHash":"0xaa422c549200f70acf6d10f13172bc926c90f0cc4c13b99575176d772da1f74a","blockNumber":"0xd000a9","data":"0x00000000000000000000000000000000000000000000000000000000000e5c56","logIndex":"0x0","removed":false,"topics":["0xddf252ad1be2c89b69c2b068fc378daa952ba7f163c4a11628f55a4df523b3ef","0x000000000000000000000000628f7131cf43e88ebe3921ae78c4ba0c31872bd4","0x0000000000000000000000001d774083c5af11dfd993148d5e4d05cf039ff800"],"transactionHash":"0x56677bfb9eddbe3a021a911ccfbdb4e890b58cb97da09e8db5fb0e83c962515a","transactionIndex":"0x0"},{"address":"0xdeaddeaddeaddeaddeaddeaddeaddeaddead1111","blockHash":"0xaa422c549200f70acf6d10f13172bc926c90f0cc4c13b99575176d772da1f74a","blockNumber":"0xd000a9","data":"0x0000000000000000000000000000000000000000000000000002189a146ae000","logIndex":"0x1","removed":false,"topics":["0xddf252ad1be2c89b69c2b068fc378daa952ba7f163c4a11628f55a4df523b3ef","0x0000000000000000000000001d774083c5af11dfd993148d5e4d05cf039ff800","0x000000000000000000000000628f7131cf43e88ebe3921ae78c4ba0c31872bd4"],"transactionHash":"0x56677bfb9eddbe3a021a911ccfbdb4e890b58cb97da09e8db5fb0e83c962515a","transactionIndex":"0x0"},{"address":"0xdeaddeaddeaddeaddeaddeaddeaddeaddead1111","blockHash":"0xaa422c549200f70acf6d10f13172bc926c90f0cc4c13b99575176d772da1f74a","blockNumber":"0xd000a9","data":"0xfffffffffffffffffffffffffffffffffffffffffffffffffe4ff4596cdd5fff","logIndex":"0x2","removed":false,"topics":["0x8c5be1e5ebec7d5bd14f71427d1e84f3dd0314c0f7b2291e5b200ac8c7c3b925","0x0000000000000000000000001d774083c5af11dfd993148d5e4d05cf039ff800","0x000000000000000000000000319b69888b0d11cec22caa5034e25fffbdc88421"],"transactionHash":"0x56677bfb9eddbe3a021a911ccfbdb4e890b58cb97da09e8db5fb0e83c962515a","transactionIndex":"0x0"},{"address":"0x628f7131cf43e88ebe3921ae78c4ba0c31872bd4","blockHash":"0xaa422c549200f70acf6d10f13172bc926c90f0cc4c13b99575176d772da1f74a","blockNumber":"0xd000a9","data":"0xfffffffffffffffffffffffffffffffffffffffffffffffffffffffffff1a3aa0000000000000000000000000000000000000000000000000002189a146ae00000000000000000000000000000000000000061cdb33bd84cedb86718e304e65c00000000000000000000000000000000000000000000000000002c65dde06c20000000000000000000000000000000000000000000000000000000000003174c0000000000000000000000000000000000000000000000000000000000000000000000000000000000000000000000000000000000000000000000175a588b00","logIndex":"0x3","removed":false,"topics":["0x19b47279256b2a23a1665c810c8d55a1758940ee09377d4f8d26497a3577dc83","0x000000000000000000000000319b69888b0d11cec22caa5034e25fffbdc88421","0x0000000000000000000000001d774083c5af11dfd993148d5e4d05cf039ff800"],"transactionHash":"0x56677bfb9eddbe3a021a911ccfbdb4e890b58cb97da09e8db5fb0e83c962515a","transactionIndex":"0x0"}],"logsBloom":"0x40000000000000000000000000000000000000000001008800000000000000000000000000000000000000000002000000000000000000000000000000200000840000000040000000000088000000000000008000002004000000000000000000000201000000000000000100000000000000000000000000000010000000000000000000000000000000000000000000000000000000000008000000000000020000000008000000000000000000000000000001000020000100000000000000000002000000000000000000000000000000000000000000000000000000000010000000001000000000000000000000000000000000000000000000000000","status":"0x1","transactionHash":"0x56677bfb9eddbe3a021a911ccfbdb4e890b58cb97da09e8db5fb0e83c962515a"}}}