{"block":{"difficulty":"0x2","extraData":"0xd98301090a846765746889676f312e31352e3133856c696e7578000000000000cd7d15a4a86f0b601a8faa678cad7bc65004f1d673ae390a6f57d75061f790352b00df92627b40c03dd867f658fb3e34f3217ff55e722cd5d5b4f8dd565e607701","gasLimit":"0x1c9c380","gasUsed":"0x21982","hash":"0x74f0494c9cd38670bec9baa24809150663ba563e84cbf7df3daf69f962df4cdd","logsBloom":"0x0000000000000000000000000000000000000000000000880000000000000000000000000000000000000000000200000000000000200000000000000000000004000000004000000000000a001000004000004000000000000000000000000000000000400000000000000100000000000000100000000000000012000002000000000000000000000000000000000000000000000000000000000000000000000000000000000000000000000000000000000001020002000100000000000000000002000000000000000000000000000000000000000000000000000000000800000000001000000000000000000000000000000000000000000000000000","miner":"0x0000000000000000000000000000000000000000","mixHash":"0x0000000000000000000000000000000000000000000000000000000000000000","nonce":"0x0000000000000000","number":"0xd0032a","parentHash":"0x08a11bbde62ca7d1b8e432389fe2191e1afcbeaafec25974e42075c9c12286a3","receiptsRoot":"0x1e2f2cce33861851860638d7ca1a8382a0fdfb2664e4720eba9ce8d9948df25a","sha3Uncles":"0x1dcc4de8dec75d7aab85b567b6ccd41ad312451b948a7413f0a142fd40d49347","size":"0x3d9","stateRoot":"0x6e5b30d502673eee6f2816cabe8f6780a35cd4beeca5bd016ef64a6cb610651c","timestamp":"0x65243e61","totalDifficulty":"0x1a00655","transactions":[{"blockHash":"0x74f0494c9cd38670bec9baa24809150663ba563e84cbf7df3daf69f962df4cdd","blockNumber":"0xd0032a","from":"0xdff45a3a21f00f7edfb28816e8589c337421cc91","gas":"0xf4240","gasPrice":"0x69f4060","hash":"0x0fa8b062f64876dc9149f8db2655be2b1516a85955f40a154ac1cf8de9341d54","index":"0xd00329","input":"0xdb3e219800000000000000000000000009bc4e0d864854c6afb6eb9a9cdf58ac190d0df9000000000000000000000000deaddeaddeaddeaddeaddeaddeaddeaddead111100000000000000000000000000000000000000000000000000000000000001f4000000000000000000000000dff45a3a21f00f7edfb28816e8589c337421cc91000000000000000000000000000000000000000000000000000002c726d6b62800000000000000000000000000000000000000000000000006f05b59d3b20000000000000000000000000000000000000000000000000000000000002f166f010000000000000000000000000000000000005db2f71805a380ae1723ba96775c","l1BlockNumber":"0x11774e6","l1Timestamp":"0x65243e61","l1TxOrigin":null,"nonce":"0x2adf8","queueIndex":null,"queueOrigin":"sequencer","r":"0x842c7e8567802f6498aed33ea334a962d3a1a9a6ddc471fa8f527de5212eaac","rawTransaction":"0xf9016f8302adf884069f4060830f424094319b69888b0d11cec22caa5034e25fffbdc8842180b90104db3e219800000000000000000000000009bc4e0d864854c6afb6eb9a9cdf58ac190d0df9000000000000000000000000deaddeaddeaddeaddeaddeaddeaddeaddead111100000000000000000000000000000000000000000000000000000000000001f4000000000000000000000000dff45a3a21f00f7edfb28816e8589c337421cc91000000000000000000000000000000000000000000000000000002c726d6b62800000000000000000000000000000000000000000000000006f05b59d3b20000000000000000000000000000000000000000000000000000000000002f166f010000000000000000000000000000000000005db2f71805a380ae1723ba96775c822734a00842c7e8567802f6498aed33ea334a962d3a1a9a6ddc471fa8f527de5212eaaca027d37422432c5ff64a639cea08259403929336704d54f739ed783f9bcf73c592","s":"0x27d37422432c5ff64a639cea08259403929336704d54f739ed783f9bcf73c592","to":"0x319b69888b0d11cec22caa5034e25fffbdc88421","transactionIndex":"0x0","v":"0x2734","value":"0x0"}],"transactionsRoot":"0xf9d3df09d5a6aaec61a3f4170cbeafe5ddfb2519d8324aa373e8e639cfaa3b72","uncles":[]},"receipts":{"0x0fa8b062f64876dc9149f8db2655be2b1516a85955f40a154ac1cf8de9341d54":{"blockHash":"0x74f0494c9cd38670bec9baa24809150663ba563e84cbf7df3daf69f962df4cdd","blockNumber":"0xd0032a","from":"0xdff45a3a21f00f7edfb28816e8589c337421cc91","gas":"0xf4240","gasPrice":"0x69f4060","hash":"0x0fa8b062f64876dc9149f8db2655be2b1516a85955f40a154ac1cf8de9341d54","index":"0xd00329","input":"0xdb3e219800000000000000000000000009bc4e0d864854c6afb6eb9a9cdf58ac190d0df9000000000000000000000000deaddeaddeaddeaddeaddeaddeaddeaddead111100000000000000000000000000000000000000000000000000000000000001f4000000000000000000000000dff45a3a21f00f7edfb28816e8589c337421cc91000000000000000000000000000000000000000000000000000002c726d6b62800000000000000000000000000000000000000000000000006f05b59d3b20000000000000000000000000000000000000000000000000000000000002f166f010000000000000000000000000000000000005db2f71805a380ae1723ba96775c","l1BlockNumber":"0x11774e6","l1Timestamp":"0x65243e61","l1TxOrigin":null,"nonce":"0x2adf8","queueIndex":null,"queueOrigin":"sequencer","r":"0x842c7e8567802f6498aed33ea334a962d3a1a9a6ddc471fa8f527de5212eaac","rawTransaction":"0xf9016f8302adf884069f4060830f424094319b69888b0d11cec22caa5034e25fffbdc8842180b90104db3e219800000000000000000000000009bc4e0d864854c6afb6eb9a9cdf58ac190d0df9000000000000000000000000deaddeaddeaddeaddeaddeaddeaddeaddead111100000000000000000000000000000000000000000000000000000000000001f4000000000000000000000000dff45a3a21f00f7edfb28816e8589c337421cc91000000000000000000000000000000000000000000000000000002c726d6b62800000000000000000000000000000000000000000000000006f05b59d3b20000000000000000000000000000000000000000000000000000000000002f166f010000000000000000000000000000000000005db2f71805a380ae1723ba96775c822734a00842c7e8567802f6498aed33ea334a962d3a1a9a6ddc471fa8f527de5212eaaca027d37422432c5ff64a639cea08259403929336704d54f739ed783f9bcf73c592","s":"0x27d37422432c5ff64a639cea08259403929336704d54f739ed783f9bcf73c592","to":"0x319b69888b0d11cec22caa5034e25fffbdc88421","transactionIndex":"0x0","v":"0x2734","value":"0x0","contractAddress":null,"cumulativeGasUsed":"0x21982","daFee":"0x0","daGasPrice":"0x0","daGasUsed":"0x12d","gasUsed":"0x21982","l1Fee":"0x19709d787180660","l1FeeScalar":"1","l1GasPrice":"0x38a987f04864","l1GasUsed":"0x72f","logs":[{"address":"0xdeaddeaddeaddeaddeaddeaddeaddeaddead1111","blockHash":"0x74f0494c9cd38670bec9baa24809150663ba563e84cbf7df3daf69f962df4cdd","blockNumber":"0xd0032a","data":"0x00000000000000000000000000000000000000000000000006f05b59d3b20000","logIndex":"0x0","removed":false,"topics":["0xddf252ad1be2c89b69c2b068fc378daa952ba7f163c4a11628f55a4df523b3ef","0x000000000000000000000000ee12e312878b74b2c17d80516128d7868f80365b","0x000000000000000000000000dff45a3a21f00f7edfb28816e8589c337421cc91"],"transactionHash":"0x0fa8b062f64876dc9149f8db2655be2b1516a85955f40a154ac1cf8de9341d54","transactionIndex":"0x0"},{"address":"0x09bc4e0d864854c6afb6eb9a9cdf58ac190d0df9","blockHash":"0x74f0494c9cd38670bec9baa24809150663ba563e84cbf7df3daf69f962df4cdd","blockNumber":"0xd0032a","data":"0x000000000000000000000000000000000000000000000000000000002f14a02f","logIndex":"0x1","removed":false,"topics":["0xddf252ad1be2c89b69c2b068fc378daa952ba7f163c4a11628f55a4df523b3ef","0x000000000000000000000000dff45a3a21f00f7edfb28816e8589c337421cc91","0x000000000000000000000000ee12e312878b74b2c17d80516128d7868f80365b"],"transactionHash":"0x0fa8b062f64876dc9149f8db2655be2b1516a85955f40a154ac1cf8de9341d54","transactionIndex":"0x0"},{"address":"0xee12e312878b74b2c17d80516128d7868f80365b","blockHash":"0x74f0494c9cd38670bec9baa24809150663ba563e84cbf7df3daf69f962df4cdd","blockNumber":"0xd0032a","data":"0x000000000000000000000000000000000000000000000000000000002f14a02ffffffffffffffffffffffffffffffffffffffffffffffffff90fa4a62c4e0000000000000000000000000000000000000000624ae93f91e0bf3c5bfc3bd7031d000000000000000000000000000000000000000000000000012738453d43c52c00000000000000000000000000000000000000000000000000000000000317b00000000000000000000000000000000000000000000000000000000000020c870000000000000000000000000000000000000000000000000000000000000000","logIndex":"0x2","removed":false,"topics":["0x19b47279256b2a23a1665c810c8d55a1758940ee09377d4f8d26497a3577dc83","0x000000000000000000000000319b69888b0d11cec22caa5034e25fffbdc88421","0x000000000000000000000000dff45a3a21f00f7edfb28816e8589c337421cc91"],"transactionHash":"0x0fa8b062f64876dc9149f8db2655be2b1516a85955f40a154ac1cf8de9341d54","transactionIndex":"0x0"}],"logsBloom":"0x0000000000000000000000000000000000000000000000880000000000000000000000000000000000000000000200000000000000200000000000000000000004000000004000000000000a001000004000004000000000000000000000000000000000400000000000000100000000000000100000000000000012000002000000000000000000000000000000000000000000000000000000000000000000000000000000000000000000000000000000000001020002000100000000000000000002000000000000000000000000000000000000000000000000000000000800000000001000000000000000000000000000000000000000000000000000","status":"0x1","transactionHash":"0x0fa8b062f64876dc9149f8db2655be2b1516a85955f40a154ac1cf8de9341d54"}}}