{"block":{"difficulty":"0x2","extraData":"0xd98301090a846765746889676f312e31352e3133856c696e75780000000000004e191cee8d98cebd0555ad6adc6c1c4c11e339ee87d6a933a20a45bc63cce5157221bd645d92eb594e25e2c44a34cb9f19a82db2150e930ccc5d75b5ac839b0600","gasLimit":"0x1c9c380","gasUsed":"0x204dd","hash":"0xafe7f305b65b4ac380e577aec77beaeed46c0c6bcdaf542e9eef797b8502cb8f","logsBloom":"0x0000000000000001000000000000000000004000000100880000000000000000000000000000000000000000000200000000000000200000000000000000000004800000004400000000000800000000000000c000002000000000000000000000000000000000000400000000000000000000100000800000000010000000000000000000000000000000000000000000000000000000000000000000000000000000100000000000000000000000000000000001000000000000000000000000000002000000000000000000000000002000000000000000000000000000000000000000000000000000000000000000000000000010000000000000000000","miner":"0x0000000000000000000000000000000000000000","mixHash":"0x0000000000000000000000000000000000000000000000000000000000000000","nonce":"0x0000000000000000","number":"0xd0007f","parentHash":"0x2d5d839239aadf9935c76d4d660610f01a6ec3101d9278139a8a84d353b1142b","receiptsRoot":"0xe9c38a95026d96fee615dd69bbe79b654507ded0c880e0771bea71df6e3806ee","sha3Uncles":"0x1dcc4de8dec75d7aab85b567b6ccd41ad312451b948a7413f0a142fd40d49347","size":"0x3d8","stateRoot":"0xf44955863fdeeabb89b4eef0e46fc8243b8b4ac2836a8015ee57e505b1b15441","timestamp":"0x65243d06","totalDifficulty":"0x1a000ff","transactions":[{"blockHash":"0xafe7f305b65b4ac380e577aec77beaeed46c0c6bcdaf542e9eef797b8502cb8f","blockNumber":"0xd0007f","from":"0x39096e74f558dfcb23d8dd493942d65b2ed25807","gas":"0x21d08","gasPrice":"0x2faf080","hash":"0x285449850af6f503807c76b8f9805739d3097ceed9c0f90e596ee2ce22c7eec8","index":"0xd0007e","input":"0x414bf38900000000000000000000000009bc4e0d864854c6afb6eb9a9cdf58ac190d0df9000000000000000000000000201eba5cc46d216ce6dc03f6a759e8e766e956ae000000000000000000000000000000000000000000000000000000000000006400000000000000000000000039096e74f558dfcb23d8dd493942d65b2ed258070000000000000000000000000000000000000000000000000000000065243d2600000000000000000000000000000000000000000000000000000000000cd14000000000000000000000000000000000000000000000000000000000000c8e3c0000000000000000000000000000000000000000000000000000000000000000","l1BlockNumber":"0x11774c9","l1Timestamp":"0x65243d06","l1TxOrigin":null,"nonce":"0x78d","queueIndex":null,"queueOrigin":"sequencer","r":"0xdcc35cd7b0963d5f9fc3b51ecadb87b167fa077556b99a888793b1e92bf47683","rawTransaction":"0xf9016e82078d8402faf08083021d0894319b69888b0d11cec22caa5034e25fffbdc8842180b90104414bf38900000000000000000000000009bc4e0d864854c6afb6eb9a9cdf58ac190d0df9000000000000000000000000201eba5cc46d216ce6dc03f6a759e8e766e956ae000000000000000000000000000000000000000000000000000000000000006400000000000000000000000039096e74f558dfcb23d8dd493942d65b2ed258070000000000000000000000000000000000000000000000000000000065243d2600000000000000000000000000000000000000000000000000000000000cd14000000000000000000000000000000000000000000000000000000000000c8e3c0000000000000000000000000000000000000000000000000000000000000000822733a0dcc35cd7b0963d5f9fc3b51ecadb87b167fa077556b99a888793b1e92bf47683a041f92e4f65472ed9d249344c40d20667b93be12c00ee8335f81f892c45d66528","s":"0x41f92e4f65472ed9d249344c40d20667b93be12c00ee8335f81f892c45d66528","to":"0x319b69888b0d11cec22caa5034e25fffbdc88421","transactionIndex":"0x0","v":"0x2733","value":"0x0"}],"transactionsRoot":"0xa03c1820f0299d89b027820405e6d99bb0597e87082b5d11d5fe7b59baac8fbd","uncles":[]},"receipts":{"0x285449850af6f503807c76b8f9805739d3097ceed9c0f90e596ee2ce22c7eec8":{"blockHash":"0xafe7f305b65b4ac380e577aec77beaeed46c0c6bcdaf542e9eef797b8502cb8f","blockNumber":"0xd0007f","from":"0x39096e74f558dfcb23d8dd493942d65b2ed25807","gas":"0x21d08","gasPrice":"0x2faf080","hash":"0x285449850af6f503807c76b8f9805739d3097ceed9c0f90e596ee2ce22c7eec8","index":"0xd0007e","input":"0x414bf38900000000000000000000000009bc4e0d864854c6afb6eb9a9cdf58ac190d0df9000000000000000000000000201eba5cc46d216ce6dc03f6a759e8e766e956ae000000000000000000000000000000000000000000000000000000000000006400000000000000000000000039096e74f558dfcb23d8dd493942d65b2ed258070000000000000000000000000000000000000000000000000000000065243d2600000000000000000000000000000000000000000000000000000000000cd14000000000000000000000000000000000000000000000000000000000000c8e3c0000000000000000000000000000000000000000000000000000000000000000","l1BlockNumber":"0x11774c9","l1Timestamp":"0x65243d06","l1TxOrigin":null,"nonce":"0x78d","queueIndex":null,"queueOrigin":"sequencer","r":"0xdcc35cd7b0963d5f9fc3b51ecadb87b167fa077556b99a888793b1e92bf47683","rawTransaction":"0xf9016e82078d8402faf08083021d0894319b69888b0d11cec22caa5034e25fffbdc8842180b90104414bf38900000000000000000000000009bc4e0d864854c6afb6eb9a9cdf58ac190d0df9000000000000000000000000201eba5cc46d216ce6dc03f6a759e8e766e956ae000000000000000000000000000000000000000000000000000000000000006400000000000000000000000039096e74f558dfcb23d8dd493942d65b2ed258070000000000000000000000000000000000000000000000000000000065243d2600000000000000000000000000000000000000000000000000000000000cd14000000000000000000000000000000000000000000000000000000000000c8e3c0000000000000000000000000000000000000000000000000000000000000000822733a0dcc35cd7b0963d5f9fc3b51ecadb87b167fa077556b99a888793b1e92bf47683a041f92e4f65472ed9d249344c40d20667b93be12c00ee8335f81f892c45d66528","s":"0x41f92e4f65472ed9d249344c40d20667b93be12c00ee8335f81f892c45d66528","to":"0x319b69888b0d11cec22caa5034e25fffbdc88421","transactionIndex":"0x0","v":"0x2733","value":"0x0","contractAddress":null,"cumulativeGasUsed":"0x204dd","daFee":"0x0","daGasPrice":"0x0","daGasUsed":"0x12c","gasUsed":"0x204dd","l1Fee":"0x1a09f6380cb9fe0","l1FeeScalar":"1","l1GasPrice":"0x39ff1464e55c","l1GasUsed":"0x72f","logs":[{"address":"0x201eba5cc46d216ce6dc03f6a759e8e766e956ae","blockHash":"0xafe7f305b65b4ac380e577aec77beaeed46c0c6bcdaf542e9eef797b8502cb8f","blockNumber":"0xd0007f","data":"0x00000000000000000000000000000000000000000000000000000000000ccfd5","logIndex":"0x0","removed":false,"topics":["0xddf252ad1be2c89b69c2b068fc378daa952ba7f163c4a11628f55a4df523b3ef","0x0000000000000000000000006488f911c6cd86c289aa319c5a826dcf8f1ca065","0x00000000000000000000000039096e74f558dfcb23d8dd493942d65b2ed25807"],"transactionHash":"0x285449850af6f503807c76b8f9805739d3097ceed9c0f90e596ee2ce22c7eec8","transactionIndex":"0x0"},{"address":"0x09bc4e0d864854c6afb6eb9a9cdf58ac190d0df9","blockHash":"0xafe7f305b65b4ac380e577aec77beaeed46c0c6bcdaf542e9eef797b8502cb8f","blockNumber":"0xd0007f","data":"0x00000000000000000000000000000000000000000000000000000000000cd140","logIndex":"0x1","removed":false,"topics":["0xddf252ad1be2c89b69c2b068fc378daa952ba7f163c4a11628f55a4df523b3ef","0x00000000000000000000000039096e74f558dfcb23d8dd493942d65b2ed25807","0x0000000000000000000000006488f911c6cd86c289aa319c5a826dcf8f1ca065"],"transactionHash":"0x285449850af6f503807c76b8f9805739d3097ceed9c0f90e596ee2ce22c7eec8","transactionIndex":"0x0"},{"address":"0x6488f911c6cd86c289aa319c5a826dcf8f1ca065","blockHash":"0xafe7f305b65b4ac380e577aec77beaeed46c0c6bcdaf542e9eef797b8502cb8f","blockNumber":"0xd0007f","data":"0x00000000000000000000000000000000000000000000000000000000000cd140fffffffffffffffffffffffffffffffffffffffffffffffffffffffffff3302b0000000000000000000000000000000000000000fff520532c162e52f34a0f7d0000000000000000000000000000000000000000000000000000aa91ae904e92fffffffffffffffffffffffffffffffffffffffffffffffffffffffffffffffc000000000000000000000000000000000000000000000000000000000000001b0000000000000000000000000000000000000000000000000000000000000000","logIndex":"0x2","removed":false,"topics":["0x19b47279256b2a23a1665c810c8d55a1758940ee09377d4f8d26497a3577dc83","0x000000000000000000000000319b69888b0d11cec22caa5034e25fffbdc88421","0x00000000000000000000000039096e74f558dfcb23d8dd493942d65b2ed25807"],"transactionHash":"0x285449850af6f503807c76b8f9805739d3097ceed9c0f90e596ee2ce22c7eec8","transactionIndex":"0x0"}],"logsBloom":"0x0000000000000001000000000000000000004000000100880000000000000000000000000000000000000000000200000000000000200000000000000000000004800000004400000000000800000000000000c000002000000000000000000000000000000000000400000000000000000000100000800000000010000000000000000000000000000000000000000000000000000000000000000000000000000000100000000000000000000000000000000001000000000000000000000000000002000000000000000000000000002000000000000000000000000000000000000000000000000000000000000000000000000010000000000000000000","status":"0x1","transactionHash":"0x285449850af6f503807c76b8f9805739d3097ceed9c0f90e596ee2ce22c7eec8"}}}