{"block":{"difficulty":"0x2","extraData":"0xd98301090a846765746889676f312e31352e3133856c696e7578000000000000d900b466c303badf4019472bfd9830638496f14be82a04eaf5992f0fe603abc65c204cefc3f5bc23594307a958108df75e0de6e4a68dca4dbb2417feca03a7cd01","gasLimit":"0x1c9c380","gasUsed":"0x1e1d5","hash":"0x64638e295b26dfc10f350741e538caecf96570e6af511e1d34a5482530fd71bf","logsBloom":"0x00000000000000000000000000000000000000000001008800000000000000000004000000000100000000000002000000000000000000000000000000200000140000000040000000000008000000000000008000042000000200000000000000000000000000000000000000000080000000200000000000000010000000000000000000002000000000000000000000100000000000000000000000000040020000000000000000000000000200000000000001000000000000000000000000000002000000000000000000000000000000000000000000000010000000000010000000000000000000000000000000000000000000000000000000000000","miner":"0x0000000000000000000000000000000000000000","mixHash":"0x0000000000000000000000000000000000000000000000000000000000000000","nonce":"0x0000000000000000","number":"0xd0025f","parentHash":"0xd19386c5554818640df78688bbcc4ccef81a3d2e9b18549856872c2806bbb91d","receiptsRoot":"0x71b05cd42e3ff18aa48ede63255794d631436e0c3ddc15bb2b8986ee37a31dca","sha3Uncles":"0x1dcc4de8dec75d7aab85b567b6ccd41ad312451b948a7413f0a142fd40d49347","size":"0x3d8","stateRoot":"0x37e0b7623cb3e2a234993478cea16c3e921026817494c568dc39f2a8d63aeea5","timestamp":"0x65243e01","totalDifficulty":"0x1a004bf","transactions":[{"blockHash":"0x64638e295b26dfc10f350741e538caecf96570e6af511e1d34a5482530fd71bf","blockNumber":"0xd0025f","from":"0x86307115307a3dfe17ec65b02c1983509b64d348","gas":"0x1f966","gasPrice":"0x2faf080","hash":"0x68976f5e2be1f2e91c867763b40b429f012e7a4176235fad56b6d7d9559f0492","index":"0xd0025e","input":"0x414bf38900000000000000000000000078c1b0c915c4faa5fffa6cabf0219da63d7f4cb8000000000000000000000000201eba5cc46d216ce6dc03f6a759e8e766e956ae00000000000000000000000000000000000000000000000000000000000001f400000000000000000000000086307115307a3dfe17ec65b02c1983509b64d3480000000000000000000000000000000000000000000000000000000065243e230000000000000000000000000000000000000000000000001aec43b8b042000000000000000000000000000000000000000000000000000000000000000ad7590000000000000000000000000000000000000000000000000000000000000000","l1BlockNumber":"0x11774de","l1Timestamp":"0x65243e01","l1TxOrigin":null,"nonce":"0x9b2","queueIndex":null,"queueOrigin":"sequencer","r":"0x8b00066cc1cb2e174d209cb4e16db8c54342b74bd1537692c99d1c53ee9318ab","rawTransaction":"0xf9016e8209b28402faf0808301f96694319b69888b0d11cec22caa5034e25fffbdc8842180b90104414bf38900000000000000000000000078c1b0c915c4faa5fffa6cabf0219da63d7f4cb8000000000000000000000000201eba5cc46d216ce6dc03f6a759e8e766e956ae00000000000000000000000000000000000000000000000000000000000001f400000000000000000000000086307115307a3dfe17ec65b02c1983509b64d3480000000000000000000000000000000000000000000000000000000065243e230000000000000000000000000000000000000000000000001aec43b8b042000000000000000000000000000000000000000000000000000000000000000ad7590000000000000000000000000000000000000000000000000000000000000000822733a08b00066cc1cb2e174d209cb4e16db8c54342b74bd1537692c99d1c53ee9318aba021eb9704cbf3c5244509037b269bd8c738097b73a3cb7eaf88d3d888993764f1","s":"0x21eb9704cbf3c5244509037b269bd8c738097b73a3cb7eaf88d3d888993764f1","to":"0x319b69888b0d11cec22caa5034e25fffbdc88421","transactionIndex":"0x0","v":"0x2733","value":"0x0"}],"transactionsRoot":"0x94a3f9e57b3f8be13bbefdac9435c18f259450d1cbd96c25a43baf100f5d04a3","uncles":[]},"receipts":{"0x68976f5e2be1f2e91c867763b40b429f012e7a4176235fad56b6d7d9559f0492":{"blockHash":"0x64638e295b26dfc10f350741e538caecf96570e6af511e1d34a5482530fd71bf","blockNumber":"0xd0025f","from":"0x86307115307a3dfe17ec65b02c1983509b64d348","gas":"0x1f966","gasPrice":"0x2faf080","hash":"0x68976f5e2be1f2e91c867763b40b429f012e7a4176235fad56b6d7d9559f0492","index":"0xd0025e","input":"0x414bf38900000000000000000000000078c1b0c915c4faa5fffa6cabf0219da63d7f4cb8000000000000000000000000201eba5cc46d216ce6dc03f6a759e8e766e956ae00000000000000000000000000000000000000000000000000000000000001f400000000000000000000000086307115307a3dfe17ec65b02c1983509b64d3480000000000000000000000000000000000000000000000000000000065243e230000000000000000000000000000000000000000000000001aec43b8b042000000000000000000000000000000000000000000000000000000000000000ad7590000000000000000000000000000000000000000000000000000000000000000","l1BlockNumber":"0x11774de","l1Timestamp":"0x65243e01","l1TxOrigin":null,"nonce":"0x9b2","queueIndex":null,"queueOrigin":"sequencer","r":"0x8b00066cc1cb2e174d209cb4e16db8c54342b74bd1537692c99d1c53ee9318ab","rawTransaction":"0xf9016e8209b28402faf0808301f96694319b69888b0d11cec22caa5034e25fffbdc8842180b90104414bf38900000000000000000000000078c1b0c915c4faa5fffa6cabf0219da63d7f4cb8000000000000000000000000201eba5cc46d216ce6dc03f6a759e8e766e956ae00000000000000000000000000000000000000000000000000000000000001f400000000000000000000000086307115307a3dfe17ec65b02c1983509b64d3480000000000000000000000000000000000000000000000000000000065243e230000000000000000000000000000000000000000000000001aec43b8b042000000000000000000000000000000000000000000000000000000000000000ad7590000000000000000000000000000000000000000000000000000000000000000822733a08b00066cc1cb2e174d209cb4e16db8c54342b74bd1537692c99d1c53ee9318aba021eb9704cbf3c5244509037b269bd8c738097b73a3cb7eaf88d3d888993764f1","s":"0x21eb9704cbf3c5244509037b269bd8c738097b73a3cb7eaf88d3d888993764f1","to":"0x319b69888b0d11cec22caa5034e25fffbdc88421","transactionIndex":"0x0","v":"0x2733","value":"0x0","contractAddress":null,"cumulativeGasUsed":"0x1e1d5","daFee":"0x0","daGasPrice":"0x0","daGasUsed":"0x12c","gasUsed":"0x1e1d5","l1Fee":"0x19709d787180660","l1FeeScalar":"1","l1GasPrice":"0x38a987f04864","l1GasUsed":"0x72f","logs":[{"address":"0x201eba5cc46d216ce6dc03f6a759e8e766e956ae","blockHash":"0x64638e295b26dfc10f350741e538caecf96570e6af511e1d34a5482530fd71bf","blockNumber":"0xd0025f","data":"0x00000000000000000000000000000000000000000000000000000000000b0ffd","logIndex":"0x0","removed":false,"topics":["0xddf252ad1be2c89b69c2b068fc378daa952ba7f163c4a11628f55a4df523b3ef","0x000000000000000000000000d08c50f7e69e9aeb2867deff4a8053d9a855e26a","0x00000000000000000000000086307115307a3dfe17ec65b02c1983509b64d348"],"transactionHash":"0x68976f5e2be1f2e91c867763b40b429f012e7a4176235fad56b6d7d9559f0492","transactionIndex":"0x0"},{"address":"0x78c1b0c915c4faa5fffa6cabf0219da63d7f4cb8","blockHash":"0x64638e295b26dfc10f350741e538caecf96570e6af511e1d34a5482530fd71bf","blockNumber":"0xd0025f","data":"0x0000000000000000000000000000000000000000000000001aec43b8b0420000","logIndex":"0x1","removed":false,"topics":["0xddf252ad1be2c89b69c2b068fc378daa952ba7f163c4a11628f55a4df523b3ef","0x00000000000000000000000086307115307a3dfe17ec65b02c1983509b64d348","0x000000000000000000000000d08c50f7e69e9aeb2867deff4a8053d9a855e26a"],"transactionHash":"0x68976f5e2be1f2e91c867763b40b429f012e7a4176235fad56b6d7d9559f0492","transactionIndex":"0x0"},{"address":"0x78c1b0c915c4faa5fffa6cabf0219da63d7f4cb8","blockHash":"0x64638e295b26dfc10f350741e538caecf96570e6af511e1d34a5482530fd71bf","blockNumber":"0xd0025f","data":"0xffffffffffffffffffffffffffffffffffffffffffffffd5119fede0c125ffff","logIndex":"0x2","removed":false,"topics":["0x8c5be1e5ebec7d5bd14f71427d1e84f3dd0314c0f7b2291e5b200ac8c7c3b925","0x00000000000000000000000086307115307a3dfe17ec65b02c1983509b64d348","0x000000000000000000000000319b69888b0d11cec22caa5034e25fffbdc88421"],"transactionHash":"0x68976f5e2be1f2e91c867763b40b429f012e7a4176235fad56b6d7d9559f0492","transactionIndex":"0x0"},{"address":"0xd08c50f7e69e9aeb2867deff4a8053d9a855e26a","blockHash":"0x64638e295b26dfc10f350741e538caecf96570e6af511e1d34a5482530fd71bf","blockNumber":"0xd0025f","data":"0xfffffffffffffffffffffffffffffffffffffffffffffffffffffffffff4f0030000000000000000000000000000000000000000000000001aec43b8b0420000000000000000000000000000000000000018f47255b0cba3011271e100fb9c51000000000000000000000000000000000000000000000000006787d5d3ab8a8c0000000000000000000000000000000000000000000000000000000000045dd2000000000000000000000000000000000000000000000000000000000000000000000000000000000000000000000000000000000000000000012bf38bd8d000","logIndex":"0x3","removed":false,"topics":["0x19b47279256b2a23a1665c810c8d55a1758940ee09377d4f8d26497a3577dc83","0x000000000000000000000000319b69888b0d11cec22caa5034e25fffbdc88421","0x00000000000000000000000086307115307a3dfe17ec65b02c1983509b64d348"],"transactionHash":"0x68976f5e2be1f2e91c867763b40b429f012e7a4176235fad56b6d7d9559f0492","transactionIndex":"0x0"}],"logsBloom":"0x00000000000000000000000000000000000000000001008800000000000000000004000000000100000000000002000000000000000000000000000000200000140000000040000000000008000000000000008000042000000200000000000000000000000000000000000000000080000000200000000000000010000000000000000000002000000000000000000000100000000000000000000000000040020000000000000000000000000200000000000001000000000000000000000000000002000000000000000000000000000000000000000000000010000000000010000000000000000000000000000000000000000000000000000000000000","status":"0x1","transactionHash":"0x68976f5e2be1f2e91c867763b40b429f012e7a4176235fad56b6d7d9559f0492"}}}