{"block":{"difficulty":"0x2","extraData":"0xd98301090a846765746889676f312e31352e3133856c696e75780000000000001d1a7d3da136dc5eac08381ed177efe1b6eef58329ca8dc75f9acc362881d3002f15c125017ddc7bc446c5c2c7e8e1fa978566625aae20da9d46d9c884fb50d200","gasLimit":"0x1c9c380","gasUsed":"0x86ab","hash":"0xe837928ec7602bcd0d2d3c6d1fd411f258022e6e9c3ae134878c7b31731022ee","logsBloom":"0x00000000000000000000000000000000000000000000000000000000000000000000000000000000000000000000000000000000000000000000000000000000000000000000000000000000000000000000000000000000000000000000000000000000000000000000000000000000000000000000000000000000000000000000000000000000000000000000000000000000000000000000000000000000000000000000000000000000000000000000000000000000000000000000000000000000000000000000000000000000000000000000000000000000000000000000000000000000000000000000000000000000000000000000000000000000","miner":"0x0000000000000000000000000000000000000000","mixHash":"0x0000000000000000000000000000000000000000000000000000000000000000","nonce":"0x0000000000000000","number":"0xd000c2","parentHash":"0x78c78636fdea3df3a459496540501625a204eb212f291ad687fc82fdddd25bf7","receiptsRoot":"0xec67c581eefa6fbddab8b8bda0315b2d70f5913ba74b029249f49831b00ebc7e","sha3Uncles":"0x1dcc4de8dec75d7aab85b567b6ccd41ad312451b948a7413f0a142fd40d49347","size":"0x314","stateRoot":"0x4f519a07d71afb8b38cb7af82242668cbed18d9f04fc6f430803224b42bec447","timestamp":"0x65243d25","totalDifficulty":"0x1a00185","transactions":[{"blockHash":"0xe837928ec7602bcd0d2d3c6d1fd411f258022e6e9c3ae134878c7b31731022ee","blockNumber":"0xd000c2","from":"0x206f2077b9fa2c618745066046bcadaacf6bc1a7","gas":"0x13880","gasPrice":"0x2faf080","hash":"0xf9de147cd735b47da2ffa1aac1796a161b184d97a5e63bbc168cf3e770f62b95","index":"0xd000c1","input":"0x7ff15f3e00000000000000000000000000000000000000000000000000000000000000010000000000000000000000000000000000000000000000000000028185cf6bc0","l1BlockNumber":"0x11774cb","l1Timestamp":"0x65243d25","l1TxOrigin":null,"nonce":"0xbbd","queueIndex":null,"queueOrigin":"sequencer","r":"0x31415ca515e5db96cc4aa76fe12e9c4cb149f97b83e38656ba5a862f6afce095","rawTransaction":"0xf8ad820bbd8402faf0808301388094690ef4bf1f67012c53e95627001156e7b1cdadab80b8447ff15f3e00000000000000000000000000000000000000000000000000000000000000010000000000000000000000000000000000000000000000000000028185cf6bc0822734a031415ca515e5db96cc4aa76fe12e9c4cb149f97b83e38656ba5a862f6afce095a070805065811c0d9883402fee7c11da9f04a25e1699e7dcffea9f0e24b6cfc76c","s":"0x70805065811c0d9883402fee7c11da9f04a25e1699e7dcffea9f0e24b6cfc76c","to":"0x690ef4bf1f67012c53e95627001156e7b1cdadab","transactionIndex":"0x0","v":"0x2734","value":"0x0"}],"transactionsRoot":"0xc9bbe261d65a663c2bcfd2915233f64f2a0a270f219bd64a9d4b2e021153422f","uncles":[]},"receipts":{"0xf9de147cd735b47da2ffa1aac1796a161b184d97a5e63bbc168cf3e770f62b95":{"blockHash":"0xe837928ec7602bcd0d2d3c6d1fd411f258022e6e9c3ae134878c7b31731022ee","blockNumber":"0xd000c2","from":"0x206f2077b9fa2c618745066046bcadaacf6bc1a7","gas":"0x13880","gasPrice":"0x2faf080","hash":"0xf9de147cd735b47da2ffa1aac1796a161b184d97a5e63bbc168cf3e770f62b95","index":"0xd000c1","input":"0x7ff15f3e00000000000000000000000000000000000000000000000000000000000000010000000000000000000000000000000000000000000000000000028185cf6bc0","l1BlockNumber":"0x11774cb","l1Timestamp":"0x65243d25","l1TxOrigin":null,"nonce":"0xbbd","queueIndex":null,"queueOrigin":"sequencer","r":"0x31415ca515e5db96cc4aa76fe12e9c4cb149f97b83e38656ba5a862f6afce095","rawTransaction":"0xf8ad820bbd8402faf0808301388094690ef4bf1f67012c53e95627001156e7b1cdadab80b8447ff15f3e00000000000000000000000000000000000000000000000000000000000000010000000000000000000000000000000000000000000000000000028185cf6bc0822734a031415ca515e5db96cc4aa76fe12e9c4cb149f97b83e38656ba5a862f6afce095a070805065811c0d9883402fee7c11da9f04a25e1699e7dcffea9f0e24b6cfc76c","s":"0x70805065811c0d9883402fee7c11da9f04a25e1699e7dcffea9f0e24b6cfc76c","to":"0x690ef4bf1f67012c53e95627001156e7b1cdadab","transactionIndex":"0x0","v":"0x2734","value":"0x0","contractAddress":null,"cumulativeGasUsed":"0x86ab","daFee":"0x0","daGasPrice":"0x0","daGasUsed":"0x6a","gasUsed":"0x86ab","l1Fee":"0x1a09f6380cb9fe0","l1FeeScalar":"1","l1GasPrice":"0x39ff1464e55c","l1GasUsed":"0x72f","logs":[],"logsBloom":"0x00000000000000000000000000000000000000000000000000000000000000000000000000000000000000000000000000000000000000000000000000000000000000000000000000000000000000000000000000000000000000000000000000000000000000000000000000000000000000000000000000000000000000000000000000000000000000000000000000000000000000000000000000000000000000000000000000000000000000000000000000000000000000000000000000000000000000000000000000000000000000000000000000000000000000000000000000000000000000000000000000000000000000000000000000000000","status":"0x1","transactionHash":"0xf9de147cd735b47da2ffa1aac1796a161b184d97a5e63bbc168cf3e770f62b95"}}}