{"block":{"difficulty":"0x2","extraData":"0xd98301090a846765746889676f312e31352e3133856c696e757800000000000047b9f70f0c75ca1cb9648e9651339e269cfb6a324d6652c68d0dfa13d3998932041de5d0d003047486523838944aa28f8e779256f9137baafb1f0af666c873d900","gasLimit":"0x1c9c380","gasUsed":"0x1c4d2","hash":"0xfcc574d9cddedd33caac5fb39a9b72dec6b620834b6717da5e40ee44eac78438","logsBloom":"0x00000000000000000010000000000000000000000000001000100000001000000000000000000080000000000000008000000800000000010000000000000240000000000000000040000008000000000000000000000000000000000000000110000000020000000000000000800800080000000000000000000010010000000000000000000000000001000000000000800000000000000020000000300000000400000000000001000000010000000000200000000000000000000000000000000002000000000000000400000000000002100000000000000000020020001000000000000000000000000000000000000000000000000000000000000000","miner":"0x0000000000000000000000000000000000000000","mixHash":"0x0000000000000000000000000000000000000000000000000000000000000000","nonce":"0x0000000000000000","number":"0xd0036b","parentHash":"0x87e2cf6d99828b6632c896cf514a3f27958ddc5c3b0514dc582b2d68c5acf6e3","receiptsRoot":"0x4a878136275a440e83cc9bdbdcba9b759cd0caee6dc0c86ea959290932b587d2","sha3Uncles":"0x1dcc4de8dec75d7aab85b567b6ccd41ad312451b948a7413f0a142fd40d49347","size":"0x375","stateRoot":"0x80aa205e4df03b846e8281fa6bf55ba01f11a3daa7a7e605ca1c034c408830a0","timestamp":"0x65243e80","totalDifficulty":"0x1a006d7","transactions":[{"blockHash":"0xfcc574d9cddedd33caac5fb39a9b72dec6b620834b6717da5e40ee44eac78438","blockNumber":"0xd0036b","from":"0xc0e9918a7c0ceefe4e76171a7fd8a3649624a65f","gas":"0x1cfc2","gasPrice":"0x30291a0","hash":"0x83c415a94ed8c9b97915c4e9335d87afbf699732750d178208a1a5c2450e058a","index":"0xd0036a","input":"0x32b7006d000000000000000000000000deaddeaddeaddeaddeaddeaddeaddeaddead0000000000000000000000000000000000000000000000000000001b5b1bf4c54000000000000000000000000000000000000000000000000000000000000000000000000000000000000000000000000000000000000000000000000000000000800000000000000000000000000000000000000000000000000000000000000000","l1BlockNumber":"0x11774e9","l1Timestamp":"0x65243e80","l1TxOrigin":null,"nonce":"0x30","queueIndex":null,"queueOrigin":"sequencer","r":"0xdaaeeedeeb294f1ec5b45d16f1b4be98cc47f8def7cc10b4817e3b7819e6ff5","rawTransaction":"0xf9010b3084030291a08301cfc294420000000000000000000000000000000000001080b8a432b7006d000000000000000000000000deaddeaddeaddeaddeaddeaddeaddeaddead0000000000000000000000000000000000000000000000000000001b5b1bf4c54000000000000000000000000000000000000000000000000000000000000000000000000000000000000000000000000000000000000000000000000000000000800000000000000000000000000000000000000000000000000000000000000000822733a00daaeeedeeb294f1ec5b45d16f1b4be98cc47f8def7cc10b4817e3b7819e6ff5a068f95d53909c0d69fc7b2662ab52345988cf7e8636cf3a8df2bcfaa58b3fafaa","s":"0x68f95d53909c0d69fc7b2662ab52345988cf7e8636cf3a8df2bcfaa58b3fafaa","to":"0x4200000000000000000000000000000000000010","transactionIndex":"0x0","v":"0x2733","value":"0x0"}],"transactionsRoot":"0xa7b6b29a0a2af8f805489b2e07214c7fe4147ec54f74cc0cfb10b3a24d1e7f27","uncles":[]},"receipts":{"0x83c415a94ed8c9b97915c4e9335d87afbf699732750d178208a1a5c2450e058a":{"blockHash":"0xfcc574d9cddedd33caac5fb39a9b72dec6b620834b6717da5e40ee44eac78438","blockNumber":"0xd0036b","from":"0xc0e9918a7c0ceefe4e76171a7fd8a3649624a65f","gas":"0x1cfc2","gasPrice":"0x30291a0","hash":"0x83c415a94ed8c9b97915c4e9335d87afbf699732750d178208a1a5c2450e058a","index":"0xd0036a","input":"0x32b7006d000000000000000000000000deaddeaddeaddeaddeaddeaddeaddeaddead0000000000000000000000000000000000000000000000000000001b5b1bf4c54000000000000000000000000000000000000000000000000000000000000000000000000000000000000000000000000000000000000000000000000000000000800000000000000000000000000000000000000000000000000000000000000000","l1BlockNumber":"0x11774e9","l1Timestamp":"0x65243e80","l1TxOrigin":null,"nonce":"0x30","queueIndex":null,"queueOrigin":"sequencer","r":"0xdaaeeedeeb294f1ec5b45d16f1b4be98cc47f8def7cc10b4817e3b7819e6ff5","rawTransaction":"0xf9010b3084030291a08301cfc294420000000000000000000000000000000000001080b8a432b7006d000000000000000000000000deaddeaddeaddeaddeaddeaddeaddeaddead0000000000000000000000000000000000000000000000000000001b5b1bf4c54000000000000000000000000000000000000000000000000000000000000000000000000000000000000000000000000000000000000000000000000000000000800000000000000000000000000000000000000000000000000000000000000000822733a00daaeeedeeb294f1ec5b45d16f1b4be98cc47f8def7cc10b4817e3b7819e6ff5a068f95d53909c0d69fc7b2662ab52345988cf7e8636cf3a8df2bcfaa58b3fafaa","s":"0x68f95d53909c0d69fc7b2662ab52345988cf7e8636cf3a8df2bcfaa58b3fafaa","to":"0x4200000000000000000000000000000000000010","transactionIndex":"0x0","v":"0x2733","value":"0x0","contractAddress":null,"cumulativeGasUsed":"0x1c4d2","daFee":"0x0","daGasPrice":"0x0","daGasUsed":"0xc8","gasUsed":"0x1c4d2","l1Fee":"0x19709d787180660","l1FeeScalar":"1","l1GasPrice":"0x38a987f04864","l1GasUsed":"0x72f","logs":[{"address":"0xdeaddeaddeaddeaddeaddeaddeaddeaddead0000","blockHash":"0xfcc574d9cddedd33caac5fb39a9b72dec6b620834b6717da5e40ee44eac78438","blockNumber":"0xd0036b","data":"0x000000000000000000000000000000000000000000000000001b5b1bf4c54000","logIndex":"0x0","removed":false,"topics":["0xddf252ad1be2c89b69c2b068fc378daa952ba7f163c4a11628f55a4df523b3ef","0x000000000000000000000000c0e9918a7c0ceefe4e76171a7fd8a3649624a65f","0x0000000000000000000000000000000000000000000000000000000000000000"],"transactionHash":"0x83c415a94ed8c9b97915c4e9335d87afbf699732750d178208a1a5c2450e058a","transactionIndex":"0x0"},{"address":"0xdeaddeaddeaddeaddeaddeaddeaddeaddead0000","blockHash":"0xfcc574d9cddedd33caac5fb39a9b72dec6b620834b6717da5e40ee44eac78438","blockNumber":"0xd0036b","data":"0x000000000000000000000000000000000000000000000000001b5b1bf4c54000","logIndex":"0x1","removed":false,"topics":["0xcc16f5dbb4873280815c1ee09dbd06736cffcc184412cf7a71a0fdb75d397ca5","0x000000000000000000000000c0e9918a7c0ceefe4e76171a7fd8a3649624a65f"],"transactionHash":"0x83c415a94ed8c9b97915c4e9335d87afbf699732750d178208a1a5c2450e058a","transactionIndex":"0x0"},{"address":"0x4200000000000000000000000000000000000007","blockHash":"0xfcc574d9cddedd33caac5fb39a9b72dec6b620834b6717da5e40ee44eac78438","blockNumber":"0xd0036b","data":"0x000000000000000000000000420000000000000000000000000000000000001000000000000000000000000000000000000000000000000000000000000000800000000000000000000000000000000000000000000000000000000000037abc000000000000000000000000000000000000000000000000000000000000000000000000000000000000000000000000000000000000000000000000000000a4f82b418e000000000000000000000000c0e9918a7c0ceefe4e76171a7fd8a3649624a65f000000000000000000000000c0e9918a7c0ceefe4e76171a7fd8a3649624a65f000000000000000000000000000000000000000000000000001b5b1bf4c540000000000000000000000000000000000000000000000000000000000000000080000000000000000000000000000000000000000000000000000000000000000000000000000000000000000000000000000000000000000000000000","logIndex":"0x2","removed":false,"topics":["0xcb0f7ffd78f9aee47a248fae8db181db6eee833039123e026dcbff529522e52a","0x00000000000000000000000095fc37a27a2f68e3a647cdc081f0a89bb47c3012"],"transactionHash":"0x83c415a94ed8c9b97915c4e9335d87afbf699732750d178208a1a5c2450e058a","transactionIndex":"0x0"},{"address":"0x4200000000000000000000000000000000000010","blockHash":"0xfcc574d9cddedd33caac5fb39a9b72dec6b620834b6717da5e40ee44eac78438","blockNumber":"0xd0036b","data":"0x000000000000000000000000c0e9918a7c0ceefe4e76171a7fd8a3649624a65f000000000000000000000000000000000000000000000000001b5b1bf4c5400000000000000000000000000000000000000000000000000000000000000000600000000000000000000000000000000000000000000000000000000000000000","logIndex":"0x3","removed":false,"topics":["0x73d170910aba9e6d50b102db522b1dbcd796216f5128b445aa2135272886497e","0x0000000000000000000000003c3a81e81dc49a522a592e7622a7e711c06bf354","0x000000000000000000000000deaddeaddeaddeaddeaddeaddeaddeaddead0000","0x000000000000000000000000c0e9918a7c0ceefe4e76171a7fd8a3649624a65f"],"transactionHash":"0x83c415a94ed8c9b97915c4e9335d87afbf699732750d178208a1a5c2450e058a","transactionIndex":"0x0"}],"logsBloom":"0x00000000000000000010000000000000000000000000001000100000001000000000000000000080000000000000008000000800000000010000000000000240000000000000000040000008000000000000000000000000000000000000000110000000020000000000000000800800080000000000000000000010010000000000000000000000000001000000000000800000000000000020000000300000000400000000000001000000010000000000200000000000000000000000000000000002000000000000000400000000000002100000000000000000020020001000000000000000000000000000000000000000000000000000000000000000","status":"0x1","transactionHash":"0x83c415a94ed8c9b97915c4e9335d87afbf699732750d178208a1a5c2450e058a"}}}