{"block":{"difficulty":"0x2","extraData":"0xd98301090a846765746889676f312e31352e3133856c696e75780000000000003f9f43c23e172d0963bc710e785a575bc55929c0f93b349cf7abe13c38e0ede75ac5123b520cb9a3cd0f2dee871606da54f8fa3785dee12cc4120e9aa1558d9701","gasLimit":"0x1c9c380","gasUsed":"0x6e679","hash":"0x588ecb21e83699233f31d2eb895718d94067e2af06af7c3f6514b5b821ae0726","logsBloom":"0x00040000200010000000100002000000000000000001000000000000000000000000000000000000000000400000000000000000000100000200080000200000100000000000000000000008000000000001008000042000000000000000000400000000020000020000000000010800000000000004000000000010000000000010000108000000004000800000000000108000040000000004000000000000020000000000002000000000000000000000200000000000000000000000000000020002000000000080083000000000000000000000000000000000000020400010080000040010000000004000000000000008000000080000002000004000","miner":"0x0000000000000000000000000000000000000000","mixHash":"0x0000000000000000000000000000000000000000000000000000000000000000","nonce":"0x0000000000000000","number":"0xd00207","parentHash":"0x88108562debd0d61107501447ee16e99d802998576b69c9554a8a6988a46b6db","receiptsRoot":"0xcb8319e2511519fba9613acfd1665c476117b5de3e271fd65bbf71fa1c6787e2","sha3Uncles":"0x1dcc4de8dec75d7aab85b567b6ccd41ad312451b948a7413f0a142fd40d49347","size":"0x3d6","stateRoot":"0x762653dd75cb35eed4aa46d35caf758cb05863fbcadb3e04546af39d62667ccc","timestamp":"0x65243dcd","totalDifficulty":"0x1a0040f","transactions":[{"blockHash":"0x588ecb21e83699233f31d2eb895718d94067e2af06af7c3f6514b5b821ae0726","blockNumber":"0xd00207","from":"0xd510e5719e13fe6b8a4085a1c908abf42a274e38","gas":"0x8573d","gasPrice":"0x2faf080","hash":"0x105e77c5782481067242fecb02708510152546bb37783030b17204a2b1973361","index":"0xd00206","input":"0x8e3c92e40000000000000000000000000000000000000000000000000000000000000869000000000000000000000000000000000000000000000000002386f26fc10000000000000000000000000000d510e5719e13fe6b8a4085a1c908abf42a274e380000000000000000000000001ee3ae551188661553882fdc75f8f62eaa6726ad0000000000000000000000000000000000000000000000000000000000000000000000000000000000000000000000000000000000000000000000000000000000000000000000000000000000000000000000000000000000000000000000000000000000000000000000000000000000000000000000000000000000000000","l1BlockNumber":"0x11774d9","l1Timestamp":"0x65243dcd","l1TxOrigin":null,"nonce":"0x1a","queueIndex":null,"queueOrigin":"sequencer","r":"0x1e3c2d6946953684931df871fa8bcda13bf52214cfe481251a1951055d7a5c15","rawTransaction":"0xf9016c1a8402faf0808308573d94fc13ebe7feb9595d70195e9168aa7f3ace15362180b901048e3c92e40000000000000000000000000000000000000000000000000000000000000869000000000000000000000000000000000000000000000000002386f26fc10000000000000000000000000000d510e5719e13fe6b8a4085a1c908abf42a274e380000000000000000000000001ee3ae551188661553882fdc75f8f62eaa6726ad0000000000000000000000000000000000000000000000000000000000000000000000000000000000000000000000000000000000000000000000000000000000000000000000000000000000000000000000000000000000000000000000000000000000000000000000000000000000000000000000000000000000000000822733a01e3c2d6946953684931df871fa8bcda13bf52214cfe481251a1951055d7a5c15a06d6d06d28879734626f9e8ab404ac436d14ff14e8fb3db92e03d2f48f63ecfad","s":"0x6d6d06d28879734626f9e8ab404ac436d14ff14e8fb3db92e03d2f48f63ecfad","to":"0xfc13ebe7feb9595d70195e9168aa7f3ace153621","transactionIndex":"0x0","v":"0x2733","value":"0x0"}],"transactionsRoot":"0xcbdb7f0c3ea1d295e818ea0b238d658c57d9f3d16198ce37abd3d897795c16e1","uncles":[]},"receipts":{"0x105e77c5782481067242fecb02708510152546bb37783030b17204a2b1973361":{"blockHash":"0x588ecb21e83699233f31d2eb895718d94067e2af06af7c3f6514b5b821ae0726","blockNumber":"0xd00207","from":"0xd510e5719e13fe6b8a4085a1c908abf42a274e38","gas":"0x8573d","gasPrice":"0x2faf080","hash":"0x105e77c5782481067242fecb02708510152546bb37783030b17204a2b1973361","index":"0xd00206","input":"0x8e3c92e40000000000000000000000000000000000000000000000000000000000000869000000000000000000000000000000000000000000000000002386f26fc10000000000000000000000000000d510e5719e13fe6b8a4085a1c908abf42a274e380000000000000000000000001ee3ae551188661553882fdc75f8f62eaa6726ad0000000000000000000000000000000000000000000000000000000000000000000000000000000000000000000000000000000000000000000000000000000000000000000000000000000000000000000000000000000000000000000000000000000000000000000000000000000000000000000000000000000000000000","l1BlockNumber":"0x11774d9","l1Timestamp":"0x65243dcd","l1TxOrigin":null,"nonce":"0x1a","queueIndex":null,"queueOrigin":"sequencer","r":"0x1e3c2d6946953684931df871fa8bcda13bf52214cfe481251a1951055d7a5c15","rawTransaction":"0xf9016c1a8402faf0808308573d94fc13ebe7feb9595d70195e9168aa7f3ace15362180b901048e3c92e40000000000000000000000000000000000000000000000000000000000000869000000000000000000000000000000000000000000000000002386f26fc10000000000000000000000000000d510e5719e13fe6b8a4085a1c908abf42a274e380000000000000000000000001ee3ae551188661553882fdc75f8f62eaa6726ad0000000000000000000000000000000000000000000000000000000000000000000000000000000000000000000000000000000000000000000000000000000000000000000000000000000000000000000000000000000000000000000000000000000000000000000000000000000000000000000000000000000000000000822733a01e3c2d6946953684931df871fa8bcda13bf52214cfe481251a1951055d7a5c15a06d6d06d28879734626f9e8ab404ac436d14ff14e8fb3db92e03d2f48f63ecfad","s":"0x6d6d06d28879734626f9e8ab404ac436d14ff14e8fb3db92e03d2f48f63ecfad","to":"0xfc13ebe7feb9595d70195e9168aa7f3ace153621","transactionIndex":"0x0","v":"0x2733","value":"0x0","contractAddress":null,"cumulativeGasUsed":"0x6e679","daFee":"0x0","daGasPrice":"0x0","daGasUsed":"0x12a","gasUsed":"0x6e679","l1Fee":"0x19709d787180660","l1FeeScalar":"1","l1GasPrice":"0x38a987f04864","l1GasUsed":"0x72f","logs":[{"address":"0x262255f4770aebe2d0c8b97a46287dcecc2a0aff","blockHash":"0x588ecb21e83699233f31d2eb895718d94067e2af06af7c3f6514b5b821ae0726","blockNumber":"0xd00207","data":"0x000000000000000000000000000000000000000000000000000000000000000000000000000000000000000000000000000000000000000000000000000000000000000000000000000000000000000000000000000000000000000000000000","logIndex":"0x0","removed":false,"topics":["0x0c396cd989a39f4459b5fa1aed6a9a8dcdbc45908acfd67e028cd568da98982c","0x0000000000000000000000001ee3ae551188661553882fdc75f8f62eaa6726ad","0x000000000000000000000000000000000000000000000000000000000004482c","0x00000000000000000000000000000000000000000000000000000000000469ce"],"transactionHash":"0x105e77c5782481067242fecb02708510152546bb37783030b17204a2b1973361","transactionIndex":"0x0"},{"address":"0x201eba5cc46d216ce6dc03f6a759e8e766e956ae","blockHash":"0x588ecb21e83699233f31d2eb895718d94067e2af06af7c3f6514b5b821ae0726","blockNumber":"0xd00207","data":"0x0000000000000000000000000000000000000000000000000000000000000002","logIndex":"0x1","removed":false,"topics":["0xddf252ad1be2c89b69c2b068fc378daa952ba7f163c4a11628f55a4df523b3ef","0x000000000000000000000000262255f4770aebe2d0c8b97a46287dcecc2a0aff","0x0000000000000000000000001ee3ae551188661553882fdc75f8f62eaa6726ad"],"transactionHash":"0x105e77c5782481067242fecb02708510152546bb37783030b17204a2b1973361","transactionIndex":"0x0"},{"address":"0x262255f4770aebe2d0c8b97a46287dcecc2a0aff","blockHash":"0x588ecb21e83699233f31d2eb895718d94067e2af06af7c3f6514b5b821ae0726","blockNumber":"0xd00207","data":"0x0000000000000000000000001ee3ae551188661553882fdc75f8f62eaa6726ad00000000000000000000000000000000000000000000000000000000000000020000000000000000000000000000000000000000000000000000000000000000","logIndex":"0x2","removed":false,"topics":["0x70935338e69775456a85ddef226c395fb668b63fa0115f5f20610b388e6ca9c0","0x0000000000000000000000001ee3ae551188661553882fdc75f8f62eaa6726ad","0x000000000000000000000000000000000000000000000000000000000004482c","0x00000000000000000000000000000000000000000000000000000000000469ce"],"transactionHash":"0x105e77c5782481067242fecb02708510152546bb37783030b17204a2b1973361","transactionIndex":"0x0"},{"address":"0x1ee3ae551188661553882fdc75f8f62eaa6726ad","blockHash":"0x588ecb21e83699233f31d2eb895718d94067e2af06af7c3f6514b5b821ae0726","blockNumber":"0xd00207","data":"0x000000000000000000000000000000000000000000000000000000000000000f00000000000000000000000000000000000000000000000000000000000000020000000000000000000000000000000000000000000000000000000000000000","logIndex":"0x3","removed":false,"topics":["0x4606b8a47eb284e8e80929101ece6ab5fe8d4f8735acc56bd0c92ca872f2cfe7"],"transactionHash":"0x105e77c5782481067242fecb02708510152546bb37783030b17204a2b1973361","transactionIndex":"0x0"},{"address":"0x262255f4770aebe2d0c8b97a46287dcecc2a0aff","blockHash":"0x588ecb21e83699233f31d2eb895718d94067e2af06af7c3f6514b5b821ae0726","blockNumber":"0xd00207","data":"0x000000000000000000000000000000000000000000000000000000000000000000000000000000000000000000000000000000000000000000000000000000000000000000000000000000000000000000000000000000000000000000000000","logIndex":"0x4","removed":false,"topics":["0x0c396cd989a39f4459b5fa1aed6a9a8dcdbc45908acfd67e028cd568da98982c","0x0000000000000000000000001ee3ae551188661553882fdc75f8f62eaa6726ad","0x000000000000000000000000000000000000000000000000000000000004482c","0x00000000000000000000000000000000000000000000000000000000000458ee"],"transactionHash":"0x105e77c5782481067242fecb02708510152546bb37783030b17204a2b1973361","transactionIndex":"0x0"},{"address":"0x262255f4770aebe2d0c8b97a46287dcecc2a0aff","blockHash":"0x588ecb21e83699233f31d2eb895718d94067e2af06af7c3f6514b5b821ae0726","blockNumber":"0xd00207","data":"0x0000000000000000000000001ee3ae551188661553882fdc75f8f62eaa6726ad00000000000000000000000000000000000000000000000000000000000000000000000000000000000000000000000000000000000000000000000000000000","logIndex":"0x5","removed":false,"topics":["0x70935338e69775456a85ddef226c395fb668b63fa0115f5f20610b388e6ca9c0","0x0000000000000000000000001ee3ae551188661553882fdc75f8f62eaa6726ad","0x000000000000000000000000000000000000000000000000000000000004482c","0x00000000000000000000000000000000000000000000000000000000000458ee"],"transactionHash":"0x105e77c5782481067242fecb02708510152546bb37783030b17204a2b1973361","transactionIndex":"0x0"},{"address":"0x1ee3ae551188661553882fdc75f8f62eaa6726ad","blockHash":"0x588ecb21e83699233f31d2eb895718d94067e2af06af7c3f6514b5b821ae0726","blockNumber":"0xd00207","data":"0x000000000000000000000000000000000000000000000000000000000000000f00000000000000000000000000000000000000000000000000000000000000000000000000000000000000000000000000000000000000000000000000000000","logIndex":"0x6","removed":false,"topics":["0x4606b8a47eb284e8e80929101ece6ab5fe8d4f8735acc56bd0c92ca872f2cfe7"],"transactionHash":"0x105e77c5782481067242fecb02708510152546bb37783030b17204a2b1973361","transactionIndex":"0x0"},{"address":"0x201eba5cc46d216ce6dc03f6a759e8e766e956ae","blockHash":"0x588ecb21e83699233f31d2eb895718d94067e2af06af7c3f6514b5b821ae0726","blockNumber":"0xd00207","data":"0x0000000000000000000000000000000000000000000000000000000000000869","logIndex":"0x7","removed":false,"topics":["0xddf252ad1be2c89b69c2b068fc378daa952ba7f163c4a11628f55a4df523b3ef","0x000000000000000000000000d510e5719e13fe6b8a4085a1c908abf42a274e38","0x0000000000000000000000001ee3ae551188661553882fdc75f8f62eaa6726ad"],"transactionHash":"0x105e77c5782481067242fecb02708510152546bb37783030b17204a2b1973361","transactionIndex":"0x0"},{"address":"0x201eba5cc46d216ce6dc03f6a759e8e766e956ae","blockHash":"0x588ecb21e83699233f31d2eb895718d94067e2af06af7c3f6514b5b821ae0726","blockNumber":"0xd00207","data":"0x0000000000000000000000000000000000000000000000000000000000194ee2","logIndex":"0x8","removed":false,"topics":["0x8c5be1e5ebec7d5bd14f71427d1e84f3dd0314c0f7b2291e5b200ac8c7c3b925","0x000000000000000000000000d510e5719e13fe6b8a4085a1c908abf42a274e38","0x0000000000000000000000001ee3ae551188661553882fdc75f8f62eaa6726ad"],"transactionHash":"0x105e77c5782481067242fecb02708510152546bb37783030b17204a2b1973361","transactionIndex":"0x0"},{"address":"0x78c1b0c915c4faa5fffa6cabf0219da63d7f4cb8","blockHash":"0x588ecb21e83699233f31d2eb895718d94067e2af06af7c3f6514b5b821ae0726","blockNumber":"0xd00207","data":"0x000000000000000000000000000000000000000000000000002386f26fc10000","logIndex":"0x9","removed":false,"topics":["0xddf252ad1be2c89b69c2b068fc378daa952ba7f163c4a11628f55a4df523b3ef","0x000000000000000000000000d510e5719e13fe6b8a4085a1c908abf42a274e38","0x0000000000000000000000001ee3ae551188661553882fdc75f8f62eaa6726ad"],"transactionHash":"0x105e77c5782481067242fecb02708510152546bb37783030b17204a2b1973361","transactionIndex":"0x0"},{"address":"0x78c1b0c915c4faa5fffa6cabf0219da63d7f4cb8","blockHash":"0x588ecb21e83699233f31d2eb895718d94067e2af06af7c3f6514b5b821ae0726","blockNumber":"0xd00207","data":"0x0000000000000000000000000000000000000000000000003666a33b1f880000","logIndex":"0xa","removed":false,"topics":["0x8c5be1e5ebec7d5bd14f71427d1e84f3dd0314c0f7b2291e5b200ac8c7c3b925","0x000000000000000000000000d510e5719e13fe6b8a4085a1c908abf42a274e38","0x0000000000000000000000001ee3ae551188661553882fdc75f8f62eaa6726ad"],"transactionHash":"0x105e77c5782481067242fecb02708510152546bb37783030b17204a2b1973361","transactionIndex":"0x0"},{"address":"0x201eba5cc46d216ce6dc03f6a759e8e766e956ae","blockHash":"0x588ecb21e83699233f31d2eb895718d94067e2af06af7c3f6514b5b821ae0726","blockNumber":"0xd00207","data":"0x000000000000000000000000000000000000000000000000000000000000087e","logIndex":"0xb","removed":false,"topics":["0xddf252ad1be2c89b69c2b068fc378daa952ba7f163c4a11628f55a4df523b3ef","0x0000000000000000000000001ee3ae551188661553882fdc75f8f62eaa6726ad","0x000000000000000000000000262255f4770aebe2d0c8b97a46287dcecc2a0aff"],"transactionHash":"0x105e77c5782481067242fecb02708510152546bb37783030b17204a2b1973361","transactionIndex":"0x0"},{"address":"0x78c1b0c915c4faa5fffa6cabf0219da63d7f4cb8","blockHash":"0x588ecb21e83699233f31d2eb895718d94067e2af06af7c3f6514b5b821ae0726","blockNumber":"0xd00207","data":"0x000000000000000000000000000000000000000000000000002386f26fbfdfcc","logIndex":"0xc","removed":false,"topics":["0xddf252ad1be2c89b69c2b068fc378daa952ba7f163c4a11628f55a4df523b3ef","0x0000000000000000000000001ee3ae551188661553882fdc75f8f62eaa6726ad","0x000000000000000000000000262255f4770aebe2d0c8b97a46287dcecc2a0aff"],"transactionHash":"0x105e77c5782481067242fecb02708510152546bb37783030b17204a2b1973361","transactionIndex":"0x0"},{"address":"0x262255f4770aebe2d0c8b97a46287dcecc2a0aff","blockHash":"0x588ecb21e83699233f31d2eb895718d94067e2af06af7c3f6514b5b821ae0726","blockNumber":"0xd00207","data":"0x0000000000000000000000001ee3ae551188661553882fdc75f8f62eaa6726ad00000000000000000000000000000000000000000000000000000005dbf2de3c000000000000000000000000000000000000000000000000000000000000087e000000000000000000000000000000000000000000000000002386f26fbfdfcc","logIndex":"0xd","removed":false,"topics":["0x7a53080ba414158be7ec69b987b5fb7d07dee101fe85488f0853ae16239d0bde","0x0000000000000000000000001ee3ae551188661553882fdc75f8f62eaa6726ad","0x000000000000000000000000000000000000000000000000000000000004482c","0x00000000000000000000000000000000000000000000000000000000000469ce"],"transactionHash":"0x105e77c5782481067242fecb02708510152546bb37783030b17204a2b1973361","transactionIndex":"0x0"},{"address":"0x1ee3ae551188661553882fdc75f8f62eaa6726ad","blockHash":"0x588ecb21e83699233f31d2eb895718d94067e2af06af7c3f6514b5b821ae0726","blockNumber":"0xd00207","data":"0x0000000000000000000000000000000000000000000000000034cc77d0a7e765","logIndex":"0xe","removed":false,"topics":["0xddf252ad1be2c89b69c2b068fc378daa952ba7f163c4a11628f55a4df523b3ef","0x0000000000000000000000000000000000000000000000000000000000000000","0x000000000000000000000000d510e5719e13fe6b8a4085a1c908abf42a274e38"],"transactionHash":"0x105e77c5782481067242fecb02708510152546bb37783030b17204a2b1973361","transactionIndex":"0x0"},{"address":"0x1ee3ae551188661553882fdc75f8f62eaa6726ad","blockHash":"0x588ecb21e83699233f31d2eb895718d94067e2af06af7c3f6514b5b821ae0726","blockNumber":"0xd00207","data":"0x0000000000000000000000000000000000000000000000000034cc77d0a7e7650000000000000000000000000000000000000000000000000000000000000869000000000000000000000000000000000000000000000000002386f26fc10000","logIndex":"0xf","removed":false,"topics":["0x4e2ca0515ed1aef1395f66b5303bb5d6f1bf9d61a353fa53f73f8ac9973fa9f6","0x000000000000000000000000d510e5719e13fe6b8a4085a1c908abf42a274e38","0x000000000000000000000000d510e5719e13fe6b8a4085a1c908abf42a274e38"],"transactionHash":"0x105e77c5782481067242fecb02708510152546bb37783030b17204a2b1973361","transactionIndex":"0x0"}],"logsBloom":"0x00040000200010000000100002000000000000000001000000000000000000000000000000000000000000400000000000000000000100000200080000200000100000000000000000000008000000000001008000042000000000000000000400000000020000020000000000010800000000000004000000000010000000000010000108000000004000800000000000108000040000000004000000000000020000000000002000000000000000000000200000000000000000000000000000020002000000000080083000000000000000000000000000000000000020400010080000040010000000004000000000000008000000080000002000004000","status":"0x1","transactionHash":"0x105e77c5782481067242fecb02708510152546bb37783030b17204a2b1973361"}}}