{"block":{"difficulty":"0x2","extraData":"0xd98301090a846765746889676f312e31352e3133856c696e7578000000000000af3250711d711959ef11514acd1ba0aeaac7a1cee5cc26929d706f317aabbcb90b7acff94dbade5d584a2c0b39d4a3c98161647941fc0ca869c5453d4e451c5401","gasLimit":"0x1c9c380","gasUsed":"0x204dd","hash":"0xc5f1cfc801772e7f3a0de5bedde15d1d1461dce55b8c75e3d297d06f5592cd02","logsBloom":"0x0000000000000000000000000000000000004000000100880000000000000000000000000000000000000000000200000000000000200000001000000000000404800000004400000000000800000000000000c000002000000000000000000000000000000000000000000000000000000000100000800000000010000000000000000000000000000000000000000000000000000000000000000000000000000000000000000000000000000000000000000001000000000000000000000000000002000000080000000000000000002000000000000000000000000000000000000000000000000000000000000000000000000010000000000000000000","miner":"0x0000000000000000000000000000000000000000","mixHash":"0x0000000000000000000000000000000000000000000000000000000000000000","nonce":"0x0000000000000000","number":"0xcff39a","parentHash":"0xe79c2702389bf77079723f4bf9e9db11b035363fcc878533834c3005ee55d115","receiptsRoot":"0x1227214b41ecf792c0228d508f73efb5dfe3870f4420c692b01a6d40c4166462","sha3Uncles":"0x1dcc4de8dec75d7aab85b567b6ccd41ad312451b948a7413f0a142fd40d49347","size":"0x3d8","stateRoot":"0x50cb118caac766f2bb2a6b49c695fd079db7885bd4dbef6abc7e05ad3d49a94f","timestamp":"0x65243748","totalDifficulty":"0x19fe735","transactions":[{"blockHash":"0xc5f1cfc801772e7f3a0de5bedde15d1d1461dce55b8c75e3d297d06f5592cd02","blockNumber":"0xcff39a","from":"0xce5a69ecf48fc9f4b26afce7413c068f0e6f946d","gas":"0x21d08","gasPrice":"0x2faf080","hash":"0x0078b03c08b6ae0b0efe6fa1909068b43061efcd9019ecb7ad6672f4c47d033a","index":"0xcff399","input":"0x414bf38900000000000000000000000009bc4e0d864854c6afb6eb9a9cdf58ac190d0df9000000000000000000000000201eba5cc46d216ce6dc03f6a759e8e766e956ae0000000000000000000000000000000000000000000000000000000000000064000000000000000000000000ce5a69ecf48fc9f4b26afce7413c068f0e6f946d0000000000000000000000000000000000000000000000000000000065243767000000000000000000000000000000000000000000000000000000000014c08000000000000000000000000000000000000000000000000000000000001453fe0000000000000000000000000000000000000000000000000000000000000000","l1BlockNumber":"0x117744f","l1Timestamp":"0x65243748","l1TxOrigin":null,"nonce":"0x7a9","queueIndex":null,"queueOrigin":"sequencer","r":"0xf851466942f06b7c13583f0af431b94a962fa280e66fd5295c88a51e7aa00f03","rawTransaction":"0xf9016e8207a98402faf08083021d0894319b69888b0d11cec22caa5034e25fffbdc8842180b90104414bf38900000000000000000000000009bc4e0d864854c6afb6eb9a9cdf58ac190d0df9000000000000000000000000201eba5cc46d216ce6dc03f6a759e8e766e956ae0000000000000000000000000000000000000000000000000000000000000064000000000000000000000000ce5a69ecf48fc9f4b26afce7413c068f0e6f946d0000000000000000000000000000000000000000000000000000000065243767000000000000000000000000000000000000000000000000000000000014c08000000000000000000000000000000000000000000000000000000000001453fe0000000000000000000000000000000000000000000000000000000000000000822734a0f851466942f06b7c13583f0af431b94a962fa280e66fd5295c88a51e7aa00f03a05f12448a245bb1e5258d63c5514774b969f9b257c04bff07778d076dd9735999","s":"0x5f12448a245bb1e5258d63c5514774b969f9b257c04bff07778d076dd9735999","to":"0x319b69888b0d11cec22caa5034e25fffbdc88421","transactionIndex":"0x0","v":"0x2734","value":"0x0"}],"transactionsRoot":"0xb635b9dc57855be7b792e1fc1a62ea91f924451d8ccbb3db6b6bcac1e719f8d6","uncles":[]},"receipts":{"0x0078b03c08b6ae0b0efe6fa1909068b43061efcd9019ecb7ad6672f4c47d033a":{"blockHash":"0xc5f1cfc801772e7f3a0de5bedde15d1d1461dce55b8c75e3d297d06f5592cd02","blockNumber":"0xcff39a","from":"0xce5a69ecf48fc9f4b26afce7413c068f0e6f946d","gas":"0x21d08","gasPrice":"0x2faf080","hash":"0x0078b03c08b6ae0b0efe6fa1909068b43061efcd9019ecb7ad6672f4c47d033a","index":"0xcff399","input":"0x414bf38900000000000000000000000009bc4e0d864854c6afb6eb9a9cdf58ac190d0df9000000000000000000000000201eba5cc46d216ce6dc03f6a759e8e766e956ae0000000000000000000000000000000000000000000000000000000000000064000000000000000000000000ce5a69ecf48fc9f4b26afce7413c068f0e6f946d0000000000000000000000000000000000000000000000000000000065243767000000000000000000000000000000000000000000000000000000000014c08000000000000000000000000000000000000000000000000000000000001453fe0000000000000000000000000000000000000000000000000000000000000000","l1BlockNumber":"0x117744f","l1Timestamp":"0x65243748","l1TxOrigin":null,"nonce":"0x7a9","queueIndex":null,"queueOrigin":"sequencer","r":"0xf851466942f06b7c13583f0af431b94a962fa280e66fd5295c88a51e7aa00f03","rawTransaction":"0xf9016e8207a98402faf08083021d0894319b69888b0d11cec22caa5034e25fffbdc8842180b90104414bf38900000000000000000000000009bc4e0d864854c6afb6eb9a9cdf58ac190d0df9000000000000000000000000201eba5cc46d216ce6dc03f6a759e8e766e956ae0000000000000000000000000000000000000000000000000000000000000064000000000000000000000000ce5a69ecf48fc9f4b26afce7413c068f0e6f946d0000000000000000000000000000000000000000000000000000000065243767000000000000000000000000000000000000000000000000000000000014c08000000000000000000000000000000000000000000000000000000000001453fe0000000000000000000000000000000000000000000000000000000000000000822734a0f851466942f06b7c13583f0af431b94a962fa280e66fd5295c88a51e7aa00f03a05f12448a245bb1e5258d63c5514774b969f9b257c04bff07778d076dd9735999","s":"0x5f12448a245bb1e5258d63c5514774b969f9b257c04bff07778d076dd9735999","to":"0x319b69888b0d11cec22caa5034e25fffbdc88421","transactionIndex":"0x0","v":"0x2734","value":"0x0","contractAddress":null,"cumulativeGasUsed":"0x204dd","daFee":"0x0","daGasPrice":"0x0","daGasUsed":"0x12c","gasUsed":"0x204dd","l1Fee":"0x1c5145ff7a866d0","l1FeeScalar":"1","l1GasPrice":"0x3f1249c65230","l1GasUsed":"0x72f","logs":[{"address":"0x201eba5cc46d216ce6dc03f6a759e8e766e956ae","blockHash":"0xc5f1cfc801772e7f3a0de5bedde15d1d1461dce55b8c75e3d297d06f5592cd02","blockNumber":"0xcff39a","data":"0x000000000000000000000000000000000000000000000000000000000014be33","logIndex":"0x0","removed":false,"topics":["0xddf252ad1be2c89b69c2b068fc378daa952ba7f163c4a11628f55a4df523b3ef","0x0000000000000000000000006488f911c6cd86c289aa319c5a826dcf8f1ca065","0x000000000000000000000000ce5a69ecf48fc9f4b26afce7413c068f0e6f946d"],"transactionHash":"0x0078b03c08b6ae0b0efe6fa1909068b43061efcd9019ecb7ad6672f4c47d033a","transactionIndex":"0x0"},{"address":"0x09bc4e0d864854c6afb6eb9a9cdf58ac190d0df9","blockHash":"0xc5f1cfc801772e7f3a0de5bedde15d1d1461dce55b8c75e3d297d06f5592cd02","blockNumber":"0xcff39a","data":"0x000000000000000000000000000000000000000000000000000000000014c080","logIndex":"0x1","removed":false,"topics":["0xddf252ad1be2c89b69c2b068fc378daa952ba7f163c4a11628f55a4df523b3ef","0x000000000000000000000000ce5a69ecf48fc9f4b26afce7413c068f0e6f946d","0x0000000000000000000000006488f911c6cd86c289aa319c5a826dcf8f1ca065"],"transactionHash":"0x0078b03c08b6ae0b0efe6fa1909068b43061efcd9019ecb7ad6672f4c47d033a","transactionIndex":"0x0"},{"address":"0x6488f911c6cd86c289aa319c5a826dcf8f1ca065","blockHash":"0xc5f1cfc801772e7f3a0de5bedde15d1d1461dce55b8c75e3d297d06f5592cd02","blockNumber":"0xcff39a","data":"0x000000000000000000000000000000000000000000000000000000000014c080ffffffffffffffffffffffffffffffffffffffffffffffffffffffffffeb41cd0000000000000000000000000000000000000000fff5184bd1557520bededda90000000000000000000000000000000000000000000000000000aa91ae904e92fffffffffffffffffffffffffffffffffffffffffffffffffffffffffffffffc000000000000000000000000000000000000000000000000000000000000002c0000000000000000000000000000000000000000000000000000000000000000","logIndex":"0x2","removed":false,"topics":["0x19b47279256b2a23a1665c810c8d55a1758940ee09377d4f8d26497a3577dc83","0x000000000000000000000000319b69888b0d11cec22caa5034e25fffbdc88421","0x000000000000000000000000ce5a69ecf48fc9f4b26afce7413c068f0e6f946d"],"transactionHash":"0x0078b03c08b6ae0b0efe6fa1909068b43061efcd9019ecb7ad6672f4c47d033a","transactionIndex":"0x0"}],"logsBloom":"0x0000000000000000000000000000000000004000000100880000000000000000000000000000000000000000000200000000000000200000001000000000000404800000004400000000000800000000000000c000002000000000000000000000000000000000000000000000000000000000100000800000000010000000000000000000000000000000000000000000000000000000000000000000000000000000000000000000000000000000000000000001000000000000000000000000000002000000080000000000000000002000000000000000000000000000000000000000000000000000000000000000000000000010000000000000000000","status":"0x1","transactionHash":"0x0078b03c08b6ae0b0efe6fa1909068b43061efcd9019ecb7ad6672f4c47d033a"}}}