{"block":{"difficulty":"0x2","extraData":"0xd98301090a846765746889676f312e31352e3133856c696e7578000000000000f5b34f7ed4285bb8a93e5991de2f0e3d300cba2fbdc34870d7963b899940c18e6b811220c40198c4def2b90bf96d7cb69ace6cf0046ab500fa642265faf1da5a00","gasLimit":"0x1c9c380","gasUsed":"0x1d2cb","hash":"0x0ff210ef5d0e85cf6fee856efd0f070c6f8c3ebb5102ab07926c9bcc94855bf8","logsBloom":"0x40000000000000000000000000000000000000000001008800000000000000000000000000000000000000000002000000000000000000000000000000200000840000000040000000000008000000000000008000002004000000000000000000000001000000000000000100000000000000000000020000200010000200000000000000000000000000000000000000000000000000000008000000000000020000000000000000000000000000000000000001000020000100000000000000000002000000000000000000000000000000000000000000000000000000000010000000001000000000000000000000000000000000000000000000000000","miner":"0x0000000000000000000000000000000000000000","mixHash":"0x0000000000000000000000000000000000000000000000000000000000000000","nonce":"0x0000000000000000","number":"0xd0012e","parentHash":"0x115279fc932d855d91e8436575b2fbe915bf134033f99df7268fdd0da85838c9","receiptsRoot":"0xd61d232a7ee0d98bd897168c7b4f5c0adfcf2cd07756a4ce87f4e6e2a3ad4a16","sha3Uncles":"0x1dcc4de8dec75d7aab85b567b6ccd41ad312451b948a7413f0a142fd40d49347","size":"0x3d8","stateRoot":"0xac75e6ef937ac91300d0ea0faece63e2ba1ad95b92466216cda7c091e355f216","timestamp":"0x65243d59","totalDifficulty":"0x1a0025d","transactions":[{"blockHash":"0x0ff210ef5d0e85cf6fee856efd0f070c6f8c3ebb5102ab07926c9bcc94855bf8","blockNumber":"0xd0012e","from":"0x8819a4df8831d9ead771018209a2d1a9ef299841","gas":"0x1ea3a","gasPrice":"0x2faf080","hash":"0xed2da63ba67cc739ee89a98b9982341abe6ea0a5c7e8b9784bb759b76708b55d","index":"0xd0012d","input":"0x414bf389000000000000000000000000201eba5cc46d216ce6dc03f6a759e8e766e956ae000000000000000000000000deaddeaddeaddeaddeaddeaddeaddeaddead111100000000000000000000000000000000000000000000000000000000000001f40000000000000000000000008819a4df8831d9ead771018209a2d1a9ef2998410000000000000000000000000000000000000000000000000000000065243d7a00000000000000000000000000000000000000000000000000000000001339e00000000000000000000000000000000000000000000000000002c235b5dbfe0a0000000000000000000000000000000000000000000000000000000000000000","l1BlockNumber":"0x11774d0","l1Timestamp":"0x65243d59","l1TxOrigin":null,"nonce":"0x978","queueIndex":null,"queueOrigin":"sequencer","r":"0xd10a61a67231aec59913a769f19786bb816c351de97203e4ae4fcf8f55b60ef1","rawTransaction":"0xf9016e8209788402faf0808301ea3a94319b69888b0d11cec22caa5034e25fffbdc8842180b90104414bf389000000000000000000000000201eba5cc46d216ce6dc03f6a759e8e766e956ae000000000000000000000000deaddeaddeaddeaddeaddeaddeaddeaddead111100000000000000000000000000000000000000000000000000000000000001f40000000000000000000000008819a4df8831d9ead771018209a2d1a9ef2998410000000000000000000000000000000000000000000000000000000065243d7a00000000000000000000000000000000000000000000000000000000001339e00000000000000000000000000000000000000000000000000002c235b5dbfe0a0000000000000000000000000000000000000000000000000000000000000000822734a0d10a61a67231aec59913a769f19786bb816c351de97203e4ae4fcf8f55b60ef1a0536b08d58d6ea1871a49c1cddeea98f76262f4a1dd1072fde5a0571698a59cf9","s":"0x536b08d58d6ea1871a49c1cddeea98f76262f4a1dd1072fde5a0571698a59cf9","to":"0x319b69888b0d11cec22caa5034e25fffbdc88421","transactionIndex":"0x0","v":"0x2734","value":"0x0"}],"transactionsRoot":"0xed102fc4ef70b0a62db6ebdf07c23c834d98a9b773b6e87383fec4c0457360e1","uncles":[]},"receipts":{"0xed2da63ba67cc739ee89a98b9982341abe6ea0a5c7e8b9784bb759b76708b55d":{"blockHash":"0x0ff210ef5d0e85cf6fee856efd0f070c6f8c3ebb5102ab07926c9bcc94855bf8","blockNumber":"0xd0012e","from":"0x8819a4df8831d9ead771018209a2d1a9ef299841","gas":"0x1ea3a","gasPrice":"0x2faf080","hash":"0xed2da63ba67cc739ee89a98b9982341abe6ea0a5c7e8b9784bb759b76708b55d","index":"0xd0012d","input":"0x414bf389000000000000000000000000201eba5cc46d216ce6dc03f6a759e8e766e956ae000000000000000000000000deaddeaddeaddeaddeaddeaddeaddeaddead111100000000000000000000000000000000000000000000000000000000000001f40000000000000000000000008819a4df8831d9ead771018209a2d1a9ef2998410000000000000000000000000000000000000000000000000000000065243d7a00000000000000000000000000000000000000000000000000000000001339e00000000000000000000000000000000000000000000000000002c235b5dbfe0a0000000000000000000000000000000000000000000000000000000000000000","l1BlockNumber":"0x11774d0","l1Timestamp":"0x65243d59","l1TxOrigin":null,"nonce":"0x978","queueIndex":null,"queueOrigin":"sequencer","r":"0xd10a61a67231aec59913a769f19786bb816c351de97203e4ae4fcf8f55b60ef1","rawTransaction":"0xf9016e8209788402faf0808301ea3a94319b69888b0d11cec22caa5034e25fffbdc8842180b90104414bf389000000000000000000000000201eba5cc46d216ce6dc03f6a759e8e766e956ae000000000000000000000000deaddeaddeaddeaddeaddeaddeaddeaddead111100000000000000000000000000000000000000000000000000000000000001f40000000000000000000000008819a4df8831d9ead771018209a2d1a9ef2998410000000000000000000000000000000000000000000000000000000065243d7a00000000000000000000000000000000000000000000000000000000001339e00000000000000000000000000000000000000000000000000002c235b5dbfe0a0000000000000000000000000000000000000000000000000000000000000000822734a0d10a61a67231aec59913a769f19786bb816c351de97203e4ae4fcf8f55b60ef1a0536b08d58d6ea1871a49c1cddeea98f76262f4a1dd1072fde5a0571698a59cf9","s":"0x536b08d58d6ea1871a49c1cddeea98f76262f4a1dd1072fde5a0571698a59cf9","to":"0x319b69888b0d11cec22caa5034e25fffbdc88421","transactionIndex":"0x0","v":"0x2734","value":"0x0","contractAddress":null,"cumulativeGasUsed":"0x1d2cb","daFee":"0x0","daGasPrice":"0x0","daGasUsed":"0x12c","gasUsed":"0x1d2cb","l1Fee":"0x1a09f6380cb9fe0","l1FeeScalar":"1","l1GasPrice":"0x39ff1464e55c","l1GasUsed":"0x72f","logs":[{"address":"0xdeaddeaddeaddeaddeaddeaddeaddeaddead1111","blockHash":"0x0ff210ef5d0e85cf6fee856efd0f070c6f8c3ebb5102ab07926c9bcc94855bf8","blockNumber":"0xd0012e","data":"0x0000000000000000000000000000000000000000000000000002d14660fe8d25","logIndex":"0x0","removed":false,"topics":["0xddf252ad1be2c89b69c2b068fc378daa952ba7f163c4a11628f55a4df523b3ef","0x000000000000000000000000628f7131cf43e88ebe3921ae78c4ba0c31872bd4","0x0000000000000000000000008819a4df8831d9ead771018209a2d1a9ef299841"],"transactionHash":"0xed2da63ba67cc739ee89a98b9982341abe6ea0a5c7e8b9784bb759b76708b55d","transactionIndex":"0x0"},{"address":"0x201eba5cc46d216ce6dc03f6a759e8e766e956ae","blockHash":"0x0ff210ef5d0e85cf6fee856efd0f070c6f8c3ebb5102ab07926c9bcc94855bf8","blockNumber":"0xd0012e","data":"0x00000000000000000000000000000000000000000000000000000000001339e0","logIndex":"0x1","removed":false,"topics":["0xddf252ad1be2c89b69c2b068fc378daa952ba7f163c4a11628f55a4df523b3ef","0x0000000000000000000000008819a4df8831d9ead771018209a2d1a9ef299841","0x000000000000000000000000628f7131cf43e88ebe3921ae78c4ba0c31872bd4"],"transactionHash":"0xed2da63ba67cc739ee89a98b9982341abe6ea0a5c7e8b9784bb759b76708b55d","transactionIndex":"0x0"},{"address":"0x201eba5cc46d216ce6dc03f6a759e8e766e956ae","blockHash":"0x0ff210ef5d0e85cf6fee856efd0f070c6f8c3ebb5102ab07926c9bcc94855bf8","blockNumber":"0xd0012e","data":"0xffffffffffffffffffffffffffffffffffffffffffffffffffffffffc1ee699f","logIndex":"0x2","removed":false,"topics":["0x8c5be1e5ebec7d5bd14f71427d1e84f3dd0314c0f7b2291e5b200ac8c7c3b925","0x0000000000000000000000008819a4df8831d9ead771018209a2d1a9ef299841","0x000000000000000000000000319b69888b0d11cec22caa5034e25fffbdc88421"],"transactionHash":"0xed2da63ba67cc739ee89a98b9982341abe6ea0a5c7e8b9784bb759b76708b55d","transactionIndex":"0x0"},{"address":"0x628f7131cf43e88ebe3921ae78c4ba0c31872bd4","blockHash":"0x0ff210ef5d0e85cf6fee856efd0f070c6f8c3ebb5102ab07926c9bcc94855bf8","blockNumber":"0xd0012e","data":"0x00000000000000000000000000000000000000000000000000000000001339e0fffffffffffffffffffffffffffffffffffffffffffffffffffd2eb99f0172db00000000000000000000000000000000000061fe188bd01f455563ea895f8eb600000000000000000000000000000000000000000000000000002c65dde06c20000000000000000000000000000000000000000000000000000000000003177300000000000000000000000000000000000000000000000000000000000000d60000000000000000000000000000000000000000000000000000000000000000","logIndex":"0x3","removed":false,"topics":["0x19b47279256b2a23a1665c810c8d55a1758940ee09377d4f8d26497a3577dc83","0x000000000000000000000000319b69888b0d11cec22caa5034e25fffbdc88421","0x0000000000000000000000008819a4df8831d9ead771018209a2d1a9ef299841"],"transactionHash":"0xed2da63ba67cc739ee89a98b9982341abe6ea0a5c7e8b9784bb759b76708b55d","transactionIndex":"0x0"}],"logsBloom":"0x40000000000000000000000000000000000000000001008800000000000000000000000000000000000000000002000000000000000000000000000000200000840000000040000000000008000000000000008000002004000000000000000000000001000000000000000100000000000000000000020000200010000200000000000000000000000000000000000000000000000000000008000000000000020000000000000000000000000000000000000001000020000100000000000000000002000000000000000000000000000000000000000000000000000000000010000000001000000000000000000000000000000000000000000000000000","status":"0x1","transactionHash":"0xed2da63ba67cc739ee89a98b9982341abe6ea0a5c7e8b9784bb759b76708b55d"}}}