{"block":{"difficulty":"0x2","extraData":"0xd98301090a846765746889676f312e31352e3133856c696e75780000000000006f7dcb7f4fb577cedc8b2473bd3ffdfd3b45935ee3f18884f74de13f4c027760217ece9fb9f058b99b399a68f5cd5119d319ed9f67df60d755eee244718512c501","gasLimit":"0x1c9c380","gasUsed":"0x204d1","hash":"0x9821dd22aacf80a24efdfefeb5c71503ecd3cdf7c5fb9231b5b44710fd261bcf","logsBloom":"0x0000000000000000000000000000000000004000000100880000000000000000000000000000000000000000000200000000000000200000000000000000000004800000004400000000000800000000000000c000002000000000000000000000000000000000000000002000000000000000100000800800000010000000000000000000000000000000000000000000000000000000000000000000000000000000000000000000000000000000100000000001000000000000000000000000000002000000000000000000000000002000000000000000000000000000000000000000000000000000000000000000000000000010000000000000000000","miner":"0x0000000000000000000000000000000000000000","mixHash":"0x0000000000000000000000000000000000000000000000000000000000000000","nonce":"0x0000000000000000","number":"0xd001aa","parentHash":"0x1a633fd11a6f92cf7ba0c0fffb8dde47079b6fabfcef807307ab61445fcfc5e9","receiptsRoot":"0x49e61012a2ce6671f678fd4a82f3ff55b200476f574fc12ecaed0f5aec0ba7aa","sha3Uncles":"0x1dcc4de8dec75d7aab85b567b6ccd41ad312451b948a7413f0a142fd40d49347","size":"0x3d8","stateRoot":"0x4b3942dbd70255d182cab6ea8567468e3f7bbc2a689bf2f0d236eb42ce8d8b8b","timestamp":"0x65243d9b","totalDifficulty":"0x1a00355","transactions":[{"blockHash":"0x9821dd22aacf80a24efdfefeb5c71503ecd3cdf7c5fb9231b5b44710fd261bcf","blockNumber":"0xd001aa","from":"0x4c0453f3d2ac032ba1b34bafbee0347e41929700","gas":"0x21cfc","gasPrice":"0x2faf080","hash":"0x2d3bbe030e19af08c3ac7a62a4d98d84708a3a3db9e200e788b2ce63ef126075","index":"0xd001a9","input":"0x414bf38900000000000000000000000009bc4e0d864854c6afb6eb9a9cdf58ac190d0df9000000000000000000000000201eba5cc46d216ce6dc03f6a759e8e766e956ae00000000000000000000000000000000000000000000000000000000000000640000000000000000000000004c0453f3d2ac032ba1b34bafbee0347e419297000000000000000000000000000000000000000000000000000000000065243dbb00000000000000000000000000000000000000000000000000000000000f906000000000000000000000000000000000000000000000000000000000000f3eff0000000000000000000000000000000000000000000000000000000000000000","l1BlockNumber":"0x11774d5","l1Timestamp":"0x65243d9b","l1TxOrigin":null,"nonce":"0xa56","queueIndex":null,"queueOrigin":"sequencer","r":"0xd0263e23c8814ab05b1f880ddaa744122153953d27037f74c455a940ca44313","rawTransaction":"0xf9016e820a568402faf08083021cfc94319b69888b0d11cec22caa5034e25fffbdc8842180b90104414bf38900000000000000000000000009bc4e0d864854c6afb6eb9a9cdf58ac190d0df9000000000000000000000000201eba5cc46d216ce6dc03f6a759e8e766e956ae00000000000000000000000000000000000000000000000000000000000000640000000000000000000000004c0453f3d2ac032ba1b34bafbee0347e419297000000000000000000000000000000000000000000000000000000000065243dbb00000000000000000000000000000000000000000000000000000000000f906000000000000000000000000000000000000000000000000000000000000f3eff0000000000000000000000000000000000000000000000000000000000000000822733a00d0263e23c8814ab05b1f880ddaa744122153953d27037f74c455a940ca44313a0100aa3533c0eaa12dd75b4470fd7ba9c8df0927f53f968fc236c2ff935795a5d","s":"0x100aa3533c0eaa12dd75b4470fd7ba9c8df0927f53f968fc236c2ff935795a5d","to":"0x319b69888b0d11cec22caa5034e25fffbdc88421","transactionIndex":"0x0","v":"0x2733","value":"0x0"}],"transactionsRoot":"0x401c6024bf36ad560652b76adab8dc58ae98283763ac81754c088c32c6a7f742","uncles":[]},"receipts":{"0x2d3bbe030e19af08c3ac7a62a4d98d84708a3a3db9e200e788b2ce63ef126075":{"blockHash":"0x9821dd22aacf80a24efdfefeb5c71503ecd3cdf7c5fb9231b5b44710fd261bcf","blockNumber":"0xd001aa","from":"0x4c0453f3d2ac032ba1b34bafbee0347e41929700","gas":"0x21cfc","gasPrice":"0x2faf080","hash":"0x2d3bbe030e19af08c3ac7a62a4d98d84708a3a3db9e200e788b2ce63ef126075","index":"0xd001a9","input":"0x414bf38900000000000000000000000009bc4e0d864854c6afb6eb9a9cdf58ac190d0df9000000000000000000000000201eba5cc46d216ce6dc03f6a759e8e766e956ae00000000000000000000000000000000000000000000000000000000000000640000000000000000000000004c0453f3d2ac032ba1b34bafbee0347e419297000000000000000000000000000000000000000000000000000000000065243dbb00000000000000000000000000000000000000000000000000000000000f906000000000000000000000000000000000000000000000000000000000000f3eff0000000000000000000000000000000000000000000000000000000000000000","l1BlockNumber":"0x11774d5","l1Timestamp":"0x65243d9b","l1TxOrigin":null,"nonce":"0xa56","queueIndex":null,"queueOrigin":"sequencer","r":"0xd0263e23c8814ab05b1f880ddaa744122153953d27037f74c455a940ca44313","rawTransaction":"0xf9016e820a568402faf08083021cfc94319b69888b0d11cec22caa5034e25fffbdc8842180b90104414bf38900000000000000000000000009bc4e0d864854c6afb6eb9a9cdf58ac190d0df9000000000000000000000000201eba5cc46d216ce6dc03f6a759e8e766e956ae00000000000000000000000000000000000000000000000000000000000000640000000000000000000000004c0453f3d2ac032ba1b34bafbee0347e419297000000000000000000000000000000000000000000000000000000000065243dbb00000000000000000000000000000000000000000000000000000000000f906000000000000000000000000000000000000000000000000000000000000f3eff0000000000000000000000000000000000000000000000000000000000000000822733a00d0263e23c8814ab05b1f880ddaa744122153953d27037f74c455a940ca44313a0100aa3533c0eaa12dd75b4470fd7ba9c8df0927f53f968fc236c2ff935795a5d","s":"0x100aa3533c0eaa12dd75b4470fd7ba9c8df0927f53f968fc236c2ff935795a5d","to":"0x319b69888b0d11cec22caa5034e25fffbdc88421","transactionIndex":"0x0","v":"0x2733","value":"0x0","contractAddress":null,"cumulativeGasUsed":"0x204d1","daFee":"0x0","daGasPrice":"0x0","daGasUsed":"0x12c","gasUsed":"0x204d1","l1Fee":"0x1a09f6380cb9fe0","l1FeeScalar":"1","l1GasPrice":"0x39ff1464e55c","l1GasUsed":"0x72f","logs":[{"address":"0x201eba5cc46d216ce6dc03f6a759e8e766e956ae","blockHash":"0x9821dd22aacf80a24efdfefeb5c71503ecd3cdf7c5fb9231b5b44710fd261bcf","blockNumber":"0xd001aa","data":"0x00000000000000000000000000000000000000000000000000000000000f8ea7","logIndex":"0x0","removed":false,"topics":["0xddf252ad1be2c89b69c2b068fc378daa952ba7f163c4a11628f55a4df523b3ef","0x0000000000000000000000006488f911c6cd86c289aa319c5a826dcf8f1ca065","0x0000000000000000000000004c0453f3d2ac032ba1b34bafbee0347e41929700"],"transactionHash":"0x2d3bbe030e19af08c3ac7a62a4d98d84708a3a3db9e200e788b2ce63ef126075","transactionIndex":"0x0"},{"address":"0x09bc4e0d864854c6afb6eb9a9cdf58ac190d0df9","blockHash":"0x9821dd22aacf80a24efdfefeb5c71503ecd3cdf7c5fb9231b5b44710fd261bcf","blockNumber":"0xd001aa","data":"0x00000000000000000000000000000000000000000000000000000000000f9060","logIndex":"0x1","removed":false,"topics":["0xddf252ad1be2c89b69c2b068fc378daa952ba7f163c4a11628f55a4df523b3ef","0x0000000000000000000000004c0453f3d2ac032ba1b34bafbee0347e41929700","0x0000000000000000000000006488f911c6cd86c289aa319c5a826dcf8f1ca065"],"transactionHash":"0x2d3bbe030e19af08c3ac7a62a4d98d84708a3a3db9e200e788b2ce63ef126075","transactionIndex":"0x0"},{"address":"0x6488f911c6cd86c289aa319c5a826dcf8f1ca065","blockHash":"0x9821dd22aacf80a24efdfefeb5c71503ecd3cdf7c5fb9231b5b44710fd261bcf","blockNumber":"0xd001aa","data":"0x00000000000000000000000000000000000000000000000000000000000f9060fffffffffffffffffffffffffffffffffffffffffffffffffffffffffff071590000000000000000000000000000000000000000fff521071e617937856cde110000000000000000000000000000000000000000000000000000aa91ae904e92fffffffffffffffffffffffffffffffffffffffffffffffffffffffffffffffc00000000000000000000000000000000000000000000000000000000000000210000000000000000000000000000000000000000000000000000000000000000","logIndex":"0x2","removed":false,"topics":["0x19b47279256b2a23a1665c810c8d55a1758940ee09377d4f8d26497a3577dc83","0x000000000000000000000000319b69888b0d11cec22caa5034e25fffbdc88421","0x0000000000000000000000004c0453f3d2ac032ba1b34bafbee0347e41929700"],"transactionHash":"0x2d3bbe030e19af08c3ac7a62a4d98d84708a3a3db9e200e788b2ce63ef126075","transactionIndex":"0x0"}],"logsBloom":"0x0000000000000000000000000000000000004000000100880000000000000000000000000000000000000000000200000000000000200000000000000000000004800000004400000000000800000000000000c000002000000000000000000000000000000000000000002000000000000000100000800800000010000000000000000000000000000000000000000000000000000000000000000000000000000000000000000000000000000000100000000001000000000000000000000000000002000000000000000000000000002000000000000000000000000000000000000000000000000000000000000000000000000010000000000000000000","status":"0x1","transactionHash":"0x2d3bbe030e19af08c3ac7a62a4d98d84708a3a3db9e200e788b2ce63ef126075"}}}