{"block":{"difficulty":"0x2","extraData":"0xd98301090a846765746889676f312e31352e3133856c696e7578000000000000884a5e22ff2ddabe79ebbe89d5836b6e408edf067d8698f8c1a30b97ce8f78240bc8b623f49b44ce78a7aa9bea94b1227a75107d9c130cf9f5db1c6b8e9fa6fb01","gasLimit":"0x1c9c380","gasUsed":"0x23c29","hash":"0x71c822bce350b1eb0959134ab13bdd73dcc8bbdcb15d27c72b18ed54d5aab9c8","logsBloom":"0x00000000200000000000000001400000000020000001000000000000000000000000000000000000000000000000000000000000000000040080000000200000100000020000000800010008000000000000008000042000200000000000000000000000000000000000000000000000000000000000004000000010084000004050000000000000000000000000000000500000004000000000000000000000020001000000000000100000000000000000000000000000000000000000000000000002000000000000000000000000000000000000000001010000000000000010000000000004000000000000000000000020000000000000000000000000","miner":"0x0000000000000000000000000000000000000000","mixHash":"0x0000000000000000000000000000000000000000000000000000000000000000","nonce":"0x0000000000000000","number":"0xd00247","parentHash":"0x7989fd1374d3753d9dc8ea3e2023984001f3b610e1585f9d7633498b1cb465c0","receiptsRoot":"0xefd3f41a50f6435c42dd6aa18cc2e9daf78216249815ca8c815b2c96d50bf582","sha3Uncles":"0x1dcc4de8dec75d7aab85b567b6ccd41ad312451b948a7413f0a142fd40d49347","size":"0x3f8","stateRoot":"0x6eee31a0a768bfe9d7b824e22a5b8a64a039edb541bba00dd19bde33186ef663","timestamp":"0x65243df2","totalDifficulty":"0x1a0048f","transactions":[{"blockHash":"0x71c822bce350b1eb0959134ab13bdd73dcc8bbdcb15d27c72b18ed54d5aab9c8","blockNumber":"0xd00247","from":"0x1fa4f514939e1cd95fb2e9585e1c9fba20c6bf01","gas":"0x254a9","gasPrice":"0x2faf080","hash":"0x22941aabaf08ab690093dc5f21d68dd04089653347c28b768eb4ea76e540b5b5","index":"0xd00246","input":"0x75ceafe6000000000000000000000000000000000000000000000000000000000000002000000000000000000000000000000000000000000000000000000000000000a00000000000000000000000001fa4f514939e1cd95fb2e9585e1c9fba20c6bf010000000000000000000000000000000000000000000000001aec43b8b042000000000000000000000000000000000000000000000000000000000000000acd310000000000000000000000000000000000000000000000000000000065243e11000000000000000000000000000000000000000000000000000000000000002b78c1b0c915c4faa5fffa6cabf0219da63d7f4cb8000bb8201eba5cc46d216ce6dc03f6a759e8e766e956ae000000000000000000000000000000000000000000","l1BlockNumber":"0x11774dc","l1Timestamp":"0x65243df2","l1TxOrigin":null,"nonce":"0xdf6","queueIndex":null,"queueOrigin":"sequencer","r":"0xebcbf57fef8b2e45d169d39967575f680f4722b2ee789c3eae935e3107a10a8b","rawTransaction":"0xf9018e820df68402faf080830254a99425c030116feb2e7bba054b9de0915e5f51b03e3180b9012475ceafe6000000000000000000000000000000000000000000000000000000000000002000000000000000000000000000000000000000000000000000000000000000a00000000000000000000000001fa4f514939e1cd95fb2e9585e1c9fba20c6bf010000000000000000000000000000000000000000000000001aec43b8b042000000000000000000000000000000000000000000000000000000000000000acd310000000000000000000000000000000000000000000000000000000065243e11000000000000000000000000000000000000000000000000000000000000002b78c1b0c915c4faa5fffa6cabf0219da63d7f4cb8000bb8201eba5cc46d216ce6dc03f6a759e8e766e956ae000000000000000000000000000000000000000000822734a0ebcbf57fef8b2e45d169d39967575f680f4722b2ee789c3eae935e3107a10a8ba01f61629eab6fa1aec38a5d5b3091282ba50ad41cc786016b3b0e043669cb0a3f","s":"0x1f61629eab6fa1aec38a5d5b3091282ba50ad41cc786016b3b0e043669cb0a3f","to":"0x25c030116feb2e7bba054b9de0915e5f51b03e31","transactionIndex":"0x0","v":"0x2734","value":"0x0"}],"transactionsRoot":"0xd8617b30f600fef40b74eca9957dd68047a8f2c64753341ac7200163f7bb2815","uncles":[]},"receipts":{"0x22941aabaf08ab690093dc5f21d68dd04089653347c28b768eb4ea76e540b5b5":{"blockHash":"0x71c822bce350b1eb0959134ab13bdd73dcc8bbdcb15d27c72b18ed54d5aab9c8","blockNumber":"0xd00247","from":"0x1fa4f514939e1cd95fb2e9585e1c9fba20c6bf01","gas":"0x254a9","gasPrice":"0x2faf080","hash":"0x22941aabaf08ab690093dc5f21d68dd04089653347c28b768eb4ea76e540b5b5","index":"0xd00246","input":"0x75ceafe6000000000000000000000000000000000000000000000000000000000000002000000000000000000000000000000000000000000000000000000000000000a00000000000000000000000001fa4f514939e1cd95fb2e9585e1c9fba20c6bf010000000000000000000000000000000000000000000000001aec43b8b042000000000000000000000000000000000000000000000000000000000000000acd310000000000000000000000000000000000000000000000000000000065243e11000000000000000000000000000000000000000000000000000000000000002b78c1b0c915c4faa5fffa6cabf0219da63d7f4cb8000bb8201eba5cc46d216ce6dc03f6a759e8e766e956ae000000000000000000000000000000000000000000","l1BlockNumber":"0x11774dc","l1Timestamp":"0x65243df2","l1TxOrigin":null,"nonce":"0xdf6","queueIndex":null,"queueOrigin":"sequencer","r":"0xebcbf57fef8b2e45d169d39967575f680f4722b2ee789c3eae935e3107a10a8b","rawTransaction":"0xf9018e820df68402faf080830254a99425c030116feb2e7bba054b9de0915e5f51b03e3180b9012475ceafe6000000000000000000000000000000000000000000000000000000000000002000000000000000000000000000000000000000000000000000000000000000a00000000000000000000000001fa4f514939e1cd95fb2e9585e1c9fba20c6bf010000000000000000000000000000000000000000000000001aec43b8b042000000000000000000000000000000000000000000000000000000000000000acd310000000000000000000000000000000000000000000000000000000065243e11000000000000000000000000000000000000000000000000000000000000002b78c1b0c915c4faa5fffa6cabf0219da63d7f4cb8000bb8201eba5cc46d216ce6dc03f6a759e8e766e956ae000000000000000000000000000000000000000000822734a0ebcbf57fef8b2e45d169d39967575f680f4722b2ee789c3eae935e3107a10a8ba01f61629eab6fa1aec38a5d5b3091282ba50ad41cc786016b3b0e043669cb0a3f","s":"0x1f61629eab6fa1aec38a5d5b3091282ba50ad41cc786016b3b0e043669cb0a3f","to":"0x25c030116feb2e7bba054b9de0915e5f51b03e31","transactionIndex":"0x0","v":"0x2734","value":"0x0","contractAddress":null,"cumulativeGasUsed":"0x23c29","daFee":"0x0","daGasPrice":"0x0","daGasUsed":"0x14c","gasUsed":"0x23c29","l1Fee":"0x19709d787180660","l1FeeScalar":"1","l1GasPrice":"0x38a987f04864","l1GasUsed":"0x72f","logs":[{"address":"0x201eba5cc46d216ce6dc03f6a759e8e766e956ae","blockHash":"0x71c822bce350b1eb0959134ab13bdd73dcc8bbdcb15d27c72b18ed54d5aab9c8","blockNumber":"0xd00247","data":"0x00000000000000000000000000000000000000000000000000000000000b05a0","logIndex":"0x0","removed":false,"topics":["0xddf252ad1be2c89b69c2b068fc378daa952ba7f163c4a11628f55a4df523b3ef","0x000000000000000000000000cddf50c3dfac95939167eff4c05d38781f549ea9","0x0000000000000000000000001fa4f514939e1cd95fb2e9585e1c9fba20c6bf01"],"transactionHash":"0x22941aabaf08ab690093dc5f21d68dd04089653347c28b768eb4ea76e540b5b5","transactionIndex":"0x0"},{"address":"0x78c1b0c915c4faa5fffa6cabf0219da63d7f4cb8","blockHash":"0x71c822bce350b1eb0959134ab13bdd73dcc8bbdcb15d27c72b18ed54d5aab9c8","blockNumber":"0xd00247","data":"0x0000000000000000000000000000000000000000000000001aec43b8b0291be5","logIndex":"0x1","removed":false,"topics":["0xddf252ad1be2c89b69c2b068fc378daa952ba7f163c4a11628f55a4df523b3ef","0x0000000000000000000000001fa4f514939e1cd95fb2e9585e1c9fba20c6bf01","0x000000000000000000000000cddf50c3dfac95939167eff4c05d38781f549ea9"],"transactionHash":"0x22941aabaf08ab690093dc5f21d68dd04089653347c28b768eb4ea76e540b5b5","transactionIndex":"0x0"},{"address":"0x78c1b0c915c4faa5fffa6cabf0219da63d7f4cb8","blockHash":"0x71c822bce350b1eb0959134ab13bdd73dcc8bbdcb15d27c72b18ed54d5aab9c8","blockNumber":"0xd00247","data":"0xfffffffffffffffffffffffffffffffffffffffffffffff2f1ac70066c172ab2","logIndex":"0x2","removed":false,"topics":["0x8c5be1e5ebec7d5bd14f71427d1e84f3dd0314c0f7b2291e5b200ac8c7c3b925","0x0000000000000000000000001fa4f514939e1cd95fb2e9585e1c9fba20c6bf01","0x00000000000000000000000025c030116feb2e7bba054b9de0915e5f51b03e31"],"transactionHash":"0x22941aabaf08ab690093dc5f21d68dd04089653347c28b768eb4ea76e540b5b5","transactionIndex":"0x0"},{"address":"0xcddf50c3dfac95939167eff4c05d38781f549ea9","blockHash":"0x71c822bce350b1eb0959134ab13bdd73dcc8bbdcb15d27c72b18ed54d5aab9c8","blockNumber":"0xd00247","data":"0x000000000000000000000000000000000000000000000000000000000000000000000000000000000000000000000000000000000000000000000000000b05a00000000000000000000000000000000000000000000000001aec43b8b0291be50000000000000000000000000000000000000000000000000000000000045dde","logIndex":"0x3","removed":false,"topics":["0x0fe977d619f8172f7fdbe8bb8928ef80952817d96936509f67d66346bc4cd10f","0x000000000000000000000000201eba5cc46d216ce6dc03f6a759e8e766e956ae","0x00000000000000000000000078c1b0c915c4faa5fffa6cabf0219da63d7f4cb8","0x0000000000000000000000000000000000000000000000000000000000000bb8"],"transactionHash":"0x22941aabaf08ab690093dc5f21d68dd04089653347c28b768eb4ea76e540b5b5","transactionIndex":"0x0"}],"logsBloom":"0x00000000200000000000000001400000000020000001000000000000000000000000000000000000000000000000000000000000000000040080000000200000100000020000000800010008000000000000008000042000200000000000000000000000000000000000000000000000000000000000004000000010084000004050000000000000000000000000000000500000004000000000000000000000020001000000000000100000000000000000000000000000000000000000000000000002000000000000000000000000000000000000000001010000000000000010000000000004000000000000000000000020000000000000000000000000","status":"0x1","transactionHash":"0x22941aabaf08ab690093dc5f21d68dd04089653347c28b768eb4ea76e540b5b5"}}}