{"block":{"difficulty":"0x2","extraData":"0xd98301090a846765746889676f312e31352e3133856c696e75780000000000000156a02f3eff68852f11285b5f48186bed28df5313525439c83032dfd22b98de5bf8a1b2f591521c8db0a93ff9dd0e93e2084adea9711969d0e245e98fb2237501","gasLimit":"0x1c9c380","gasUsed":"0x86ab","hash":"0x78bc869265a8ffb5e08922cd3c07b5c6dfc066adb64e38fdd0f679c6c3eb6de4","logsBloom":"0x00000000000000000000000000000000000000000000000000000000000000000000000000000000000000000000000000000000000000000000000000000000000000000000000000000000000000000000000000000000000000000000000000000000000000000000000000000000000000000000000000000000000000000000000000000000000000000000000000000000000000000000000000000000000000000000000000000000000000000000000000000000000000000000000000000000000000000000000000000000000000000000000000000000000000000000000000000000000000000000000000000000000000000000000000000000","miner":"0x0000000000000000000000000000000000000000","mixHash":"0x0000000000000000000000000000000000000000000000000000000000000000","nonce":"0x0000000000000000","number":"0xcff37c","parentHash":"0x24777aee9e16b7d12b5954033cdee65f98e3f954c66b8ac721134f29936a9d81","receiptsRoot":"0xec67c581eefa6fbddab8b8bda0315b2d70f5913ba74b029249f49831b00ebc7e","sha3Uncles":"0x1dcc4de8dec75d7aab85b567b6ccd41ad312451b948a7413f0a142fd40d49347","size":"0x314","stateRoot":"0x2939369c3286b517d786d09cae210820bfd09bd7741c84434502cb3705868be4","timestamp":"0x6524373e","totalDifficulty":"0x19fe6f9","transactions":[{"blockHash":"0x78bc869265a8ffb5e08922cd3c07b5c6dfc066adb64e38fdd0f679c6c3eb6de4","blockNumber":"0xcff37c","from":"0x206f2077b9fa2c618745066046bcadaacf6bc1a7","gas":"0x13880","gasPrice":"0x2faf080","hash":"0x46c96f8c108806979eb5d086017dcbc2aace4cb4720b3ada07b5edf4fa92203a","index":"0xcff37b","input":"0x7ff15f3e00000000000000000000000000000000000000000000000000000000000000010000000000000000000000000000000000000000000000000000027edd018840","l1BlockNumber":"0x117744d","l1Timestamp":"0x6524373e","l1TxOrigin":null,"nonce":"0xb1d","queueIndex":null,"queueOrigin":"sequencer","r":"0x8f728d9cf245b1a18ef0557f33c3aa38ae5b9cc16c2bf7bfb0fe87df886cda9b","rawTransaction":"0xf8ad820b1d8402faf0808301388094690ef4bf1f67012c53e95627001156e7b1cdadab80b8447ff15f3e00000000000000000000000000000000000000000000000000000000000000010000000000000000000000000000000000000000000000000000027edd018840822733a08f728d9cf245b1a18ef0557f33c3aa38ae5b9cc16c2bf7bfb0fe87df886cda9ba032be1fe10f45c1002ad5aac6d7cc8f34ec38c69715ca4c87aaecc6bba860c207","s":"0x32be1fe10f45c1002ad5aac6d7cc8f34ec38c69715ca4c87aaecc6bba860c207","to":"0x690ef4bf1f67012c53e95627001156e7b1cdadab","transactionIndex":"0x0","v":"0x2733","value":"0x0"}],"transactionsRoot":"0xda54d6460b66fe52a13578d7b4936855007ba8eca5ff25cbb789cdf2e496fc62","uncles":[]},"receipts":{"0x46c96f8c108806979eb5d086017dcbc2aace4cb4720b3ada07b5edf4fa92203a":{"blockHash":"0x78bc869265a8ffb5e08922cd3c07b5c6dfc066adb64e38fdd0f679c6c3eb6de4","blockNumber":"0xcff37c","from":"0x206f2077b9fa2c618745066046bcadaacf6bc1a7","gas":"0x13880","gasPrice":"0x2faf080","hash":"0x46c96f8c108806979eb5d086017dcbc2aace4cb4720b3ada07b5edf4fa92203a","index":"0xcff37b","input":"0x7ff15f3e00000000000000000000000000000000000000000000000000000000000000010000000000000000000000000000000000000000000000000000027edd018840","l1BlockNumber":"0x117744d","l1Timestamp":"0x6524373e","l1TxOrigin":null,"nonce":"0xb1d","queueIndex":null,"queueOrigin":"sequencer","r":"0x8f728d9cf245b1a18ef0557f33c3aa38ae5b9cc16c2bf7bfb0fe87df886cda9b","rawTransaction":"0xf8ad820b1d8402faf0808301388094690ef4bf1f67012c53e95627001156e7b1cdadab80b8447ff15f3e00000000000000000000000000000000000000000000000000000000000000010000000000000000000000000000000000000000000000000000027edd018840822733a08f728d9cf245b1a18ef0557f33c3aa38ae5b9cc16c2bf7bfb0fe87df886cda9ba032be1fe10f45c1002ad5aac6d7cc8f34ec38c69715ca4c87aaecc6bba860c207","s":"0x32be1fe10f45c1002ad5aac6d7cc8f34ec38c69715ca4c87aaecc6bba860c207","to":"0x690ef4bf1f67012c53e95627001156e7b1cdadab","transactionIndex":"0x0","v":"0x2733","value":"0x0","contractAddress":null,"cumulativeGasUsed":"0x86ab","daFee":"0x0","daGasPrice":"0x0","daGasUsed":"0x6a","gasUsed":"0x86ab","l1Fee":"0x1c5145ff7a866d0","l1FeeScalar":"1","l1GasPrice":"0x3f1249c65230","l1GasUsed":"0x72f","logs":[],"logsBloom":"0x00000000000000000000000000000000000000000000000000000000000000000000000000000000000000000000000000000000000000000000000000000000000000000000000000000000000000000000000000000000000000000000000000000000000000000000000000000000000000000000000000000000000000000000000000000000000000000000000000000000000000000000000000000000000000000000000000000000000000000000000000000000000000000000000000000000000000000000000000000000000000000000000000000000000000000000000000000000000000000000000000000000000000000000000000000000","status":"0x1","transactionHash":"0x46c96f8c108806979eb5d086017dcbc2aace4cb4720b3ada07b5edf4fa92203a"}}}