{"block":{"difficulty":"0x2","extraData":"0xd98301090a846765746889676f312e31352e3133856c696e757800000000000011b68e724724a7d830523765a05e09bbcc5fe26b4419d09d44765984cd8a2e0f178cfb5e862c183572857202a9b351668127df1c80714acf84298cf71a54962000","gasLimit":"0x1c9c380","gasUsed":"0x229e4","hash":"0x8824148a4ff17ca0c742f3fe40a38f80b510a7ce13e4f558fe79af6538a27421","logsBloom":"0x00000000000000000000000000000000000000000000008800000000000000000000040000000000000000000002000000000000000000000000000000200000140004000040000000000008000000000000000000040000000000000000000000000000000000000000000000000000010000000000100000000010000000000000000000000000000000000002000000100000400004000000000100000000020000000000000000000000000000000000000021000000000000000000000000000002000000000000000000000400000000000000000000001000000000000010000000004000000000000000000000000000000000000000000000000000","miner":"0x0000000000000000000000000000000000000000","mixHash":"0x0000000000000000000000000000000000000000000000000000000000000000","nonce":"0x0000000000000000","number":"0xd00226","parentHash":"0x7fbb3594f120258238238e406a3cf83112618714390fb8d1974ab6bb7e77cb78","receiptsRoot":"0x421ff6f1631b925ba448def5c209f425e4749e6d7b29fc4933e2a3c48edf20d0","sha3Uncles":"0x1dcc4de8dec75d7aab85b567b6ccd41ad312451b948a7413f0a142fd40d49347","size":"0x3d8","stateRoot":"0x1831e3f482e775ef84ccaec76d5012a47326a0334288ee190a1a4444dbe71db3","timestamp":"0x65243ddc","totalDifficulty":"0x1a0044d","transactions":[{"blockHash":"0x8824148a4ff17ca0c742f3fe40a38f80b510a7ce13e4f558fe79af6538a27421","blockNumber":"0xd00226","from":"0xa162a09a624143d23236d0303c5402b729377fd0","gas":"0x242a3","gasPrice":"0x2faf080","hash":"0x23dd655748b745b74b9b52ace45eeff14b0785dca51b5e59aef4adf96e46c482","index":"0xd00225","input":"0x414bf38900000000000000000000000078c1b0c915c4faa5fffa6cabf0219da63d7f4cb800000000000000000000000097174506aafcc846a40832719bd8899a588bd05c0000000000000000000000000000000000000000000000000000000000002710000000000000000000000000a162a09a624143d23236d0303c5402b729377fd00000000000000000000000000000000000000000000000000000000065243dfe0000000000000000000000000000000000000000000000019f352f5e4b2a2a830000000000000000000000000000000000000000000000b29c8940f1c30464c80000000000000000000000000000000000000000000000000000000000000000","l1BlockNumber":"0x11774db","l1Timestamp":"0x65243ddc","l1TxOrigin":null,"nonce":"0x2e1","queueIndex":null,"queueOrigin":"sequencer","r":"0x2b7eaa59cdea428a99b245c936b64e9e7a5d87e951c3c904e80d974c8a26c8b8","rawTransaction":"0xf9016e8202e18402faf080830242a394319b69888b0d11cec22caa5034e25fffbdc8842180b90104414bf38900000000000000000000000078c1b0c915c4faa5fffa6cabf0219da63d7f4cb800000000000000000000000097174506aafcc846a40832719bd8899a588bd05c0000000000000000000000000000000000000000000000000000000000002710000000000000000000000000a162a09a624143d23236d0303c5402b729377fd00000000000000000000000000000000000000000000000000000000065243dfe0000000000000000000000000000000000000000000000019f352f5e4b2a2a830000000000000000000000000000000000000000000000b29c8940f1c30464c80000000000000000000000000000000000000000000000000000000000000000822734a02b7eaa59cdea428a99b245c936b64e9e7a5d87e951c3c904e80d974c8a26c8b8a061eb630204c23c32b30deea063e2134142e7d243aee552540f9b4bdf3aa8996a","s":"0x61eb630204c23c32b30deea063e2134142e7d243aee552540f9b4bdf3aa8996a","to":"0x319b69888b0d11cec22caa5034e25fffbdc88421","transactionIndex":"0x0","v":"0x2734","value":"0x0"}],"transactionsRoot":"0x0eed96dbd0d947df0ddc1ecf656cce98769b3933dcfe9f87f3db665c302f7551","uncles":[]},"receipts":{"0x23dd655748b745b74b9b52ace45eeff14b0785dca51b5e59aef4adf96e46c482":{"blockHash":"0x8824148a4ff17ca0c742f3fe40a38f80b510a7ce13e4f558fe79af6538a27421","blockNumber":"0xd00226","from":"0xa162a09a624143d23236d0303c5402b729377fd0","gas":"0x242a3","gasPrice":"0x2faf080","hash":"0x23dd655748b745b74b9b52ace45eeff14b0785dca51b5e59aef4adf96e46c482","index":"0xd00225","input":"0x414bf38900000000000000000000000078c1b0c915c4faa5fffa6cabf0219da63d7f4cb800000000000000000000000097174506aafcc846a40832719bd8899a588bd05c0000000000000000000000000000000000000000000000000000000000002710000000000000000000000000a162a09a624143d23236d0303c5402b729377fd00000000000000000000000000000000000000000000000000000000065243dfe0000000000000000000000000000000000000000000000019f352f5e4b2a2a830000000000000000000000000000000000000000000000b29c8940f1c30464c80000000000000000000000000000000000000000000000000000000000000000","l1BlockNumber":"0x11774db","l1Timestamp":"0x65243ddc","l1TxOrigin":null,"nonce":"0x2e1","queueIndex":null,"queueOrigin":"sequencer","r":"0x2b7eaa59cdea428a99b245c936b64e9e7a5d87e951c3c904e80d974c8a26c8b8","rawTransaction":"0xf9016e8202e18402faf080830242a394319b69888b0d11cec22caa5034e25fffbdc8842180b90104414bf38900000000000000000000000078c1b0c915c4faa5fffa6cabf0219da63d7f4cb800000000000000000000000097174506aafcc846a40832719bd8899a588bd05c0000000000000000000000000000000000000000000000000000000000002710000000000000000000000000a162a09a624143d23236d0303c5402b729377fd00000000000000000000000000000000000000000000000000000000065243dfe0000000000000000000000000000000000000000000000019f352f5e4b2a2a830000000000000000000000000000000000000000000000b29c8940f1c30464c80000000000000000000000000000000000000000000000000000000000000000822734a02b7eaa59cdea428a99b245c936b64e9e7a5d87e951c3c904e80d974c8a26c8b8a061eb630204c23c32b30deea063e2134142e7d243aee552540f9b4bdf3aa8996a","s":"0x61eb630204c23c32b30deea063e2134142e7d243aee552540f9b4bdf3aa8996a","to":"0x319b69888b0d11cec22caa5034e25fffbdc88421","transactionIndex":"0x0","v":"0x2734","value":"0x0","contractAddress":null,"cumulativeGasUsed":"0x229e4","daFee":"0x0","daGasPrice":"0x0","daGasUsed":"0x12c","gasUsed":"0x229e4","l1Fee":"0x19709d787180660","l1FeeScalar":"1","l1GasPrice":"0x38a987f04864","l1GasUsed":"0x72f","logs":[{"address":"0x97174506aafcc846a40832719bd8899a588bd05c","blockHash":"0x8824148a4ff17ca0c742f3fe40a38f80b510a7ce13e4f558fe79af6538a27421","blockNumber":"0xd00226","data":"0x0000000000000000000000000000000000000000000000bc031736e389e9ad75","logIndex":"0x0","removed":false,"topics":["0xddf252ad1be2c89b69c2b068fc378daa952ba7f163c4a11628f55a4df523b3ef","0x0000000000000000000000003a873fe63bedad2e9f9b9b63bf8bedb5f1789167","0x000000000000000000000000a162a09a624143d23236d0303c5402b729377fd0"],"transactionHash":"0x23dd655748b745b74b9b52ace45eeff14b0785dca51b5e59aef4adf96e46c482","transactionIndex":"0x0"},{"address":"0x78c1b0c915c4faa5fffa6cabf0219da63d7f4cb8","blockHash":"0x8824148a4ff17ca0c742f3fe40a38f80b510a7ce13e4f558fe79af6538a27421","blockNumber":"0xd00226","data":"0x0000000000000000000000000000000000000000000000019f352f5e4b2a2a83","logIndex":"0x1","removed":false,"topics":["0xddf252ad1be2c89b69c2b068fc378daa952ba7f163c4a11628f55a4df523b3ef","0x000000000000000000000000a162a09a624143d23236d0303c5402b729377fd0","0x0000000000000000000000003a873fe63bedad2e9f9b9b63bf8bedb5f1789167"],"transactionHash":"0x23dd655748b745b74b9b52ace45eeff14b0785dca51b5e59aef4adf96e46c482","transactionIndex":"0x0"},{"address":"0x78c1b0c915c4faa5fffa6cabf0219da63d7f4cb8","blockHash":"0x8824148a4ff17ca0c742f3fe40a38f80b510a7ce13e4f558fe79af6538a27421","blockNumber":"0xd00226","data":"0xfffffffffffffffffffffffffffffffffffffffffffffebd6cd8461c0a4f0ace","logIndex":"0x2","removed":false,"topics":["0x8c5be1e5ebec7d5bd14f71427d1e84f3dd0314c0f7b2291e5b200ac8c7c3b925","0x000000000000000000000000a162a09a624143d23236d0303c5402b729377fd0","0x000000000000000000000000319b69888b0d11cec22caa5034e25fffbdc88421"],"transactionHash":"0x23dd655748b745b74b9b52ace45eeff14b0785dca51b5e59aef4adf96e46c482","transactionIndex":"0x0"},{"address":"0x3a873fe63bedad2e9f9b9b63bf8bedb5f1789167","blockHash":"0x8824148a4ff17ca0c742f3fe40a38f80b510a7ce13e4f558fe79af6538a27421","blockNumber":"0xd00226","data":"0x0000000000000000000000000000000000000000000000019f352f5e4b2a2a83ffffffffffffffffffffffffffffffffffffffffffffff43fce8c91c7616528b000000000000000000000000000000000000000ad20db7a75a642266622ffe8100000000000000000000000000000000000000000004050e8f20b2f8a1c79e70000000000000000000000000000000000000000000000000000000000000ba0f000000000000000000000000000000000000000000000000015423608ec8050d0000000000000000000000000000000000000000000000000000000000000000","logIndex":"0x3","removed":false,"topics":["0x19b47279256b2a23a1665c810c8d55a1758940ee09377d4f8d26497a3577dc83","0x000000000000000000000000319b69888b0d11cec22caa5034e25fffbdc88421","0x000000000000000000000000a162a09a624143d23236d0303c5402b729377fd0"],"transactionHash":"0x23dd655748b745b74b9b52ace45eeff14b0785dca51b5e59aef4adf96e46c482","transactionIndex":"0x0"}],"logsBloom":"0x00000000000000000000000000000000000000000000008800000000000000000000040000000000000000000002000000000000000000000000000000200000140004000040000000000008000000000000000000040000000000000000000000000000000000000000000000000000010000000000100000000010000000000000000000000000000000000002000000100000400004000000000100000000020000000000000000000000000000000000000021000000000000000000000000000002000000000000000000000400000000000000000000001000000000000010000000004000000000000000000000000000000000000000000000000000","status":"0x1","transactionHash":"0x23dd655748b745b74b9b52ace45eeff14b0785dca51b5e59aef4adf96e46c482"}}}