{"block":{"difficulty":"0x2","extraData":"0xd98301090a846765746889676f312e31352e3133856c696e75780000000000009d87ce7bd0d5b1e6ed0de475d32be56b2ecb3a76c41da1d7f48212143227d8f408bf52f00f6280c8373bd5dbffa4f5d393f4f43b942780ff2229d0aee14f735700","gasLimit":"0x1c9c380","gasUsed":"0x1d783","hash":"0xc07488edada2ac8d13ceab01d6c6a3fb0b88379dcde9dab712a79c658ec4446a","logsBloom":"0x00040000000010000000000000000000000000000001000000000000000000000000000000000000000000000002000000000000000000000000000000200000940000000040000000000008000000000000008000042000000000000000000000000000000000000000000000090000000000000000000000000010000000000000000100000000000000000000040000100000040000000000000040100000020000000000000000000000000000000000000000000000004000000000000000000002000000000000000000000000000000000000000000000000000000000010000000000000000000000000000000000000000000000000002000000000","miner":"0x0000000000000000000000000000000000000000","mixHash":"0x0000000000000000000000000000000000000000000000000000000000000000","nonce":"0x0000000000000000","number":"0xd00b1a","parentHash":"0xc05dc5507c0d7e96c8af66300efc838d35e64195b1a0f611cd1ffbfb7fbc1a14","receiptsRoot":"0x687a57ce4cc00674bdc9356d408a201de4f3cf3d2e862ccea605ced9326bc2f6","sha3Uncles":"0x1dcc4de8dec75d7aab85b567b6ccd41ad312451b948a7413f0a142fd40d49347","size":"0x3d8","stateRoot":"0x7040e5c5cd678e8cdccfadf5e32275fccc3df0f453cb7e04955cbf36a0b436e2","timestamp":"0x6524420c","totalDifficulty":"0x1a01635","transactions":[{"blockHash":"0xc07488edada2ac8d13ceab01d6c6a3fb0b88379dcde9dab712a79c658ec4446a","blockNumber":"0xd00b1a","from":"0x1932b6669df54089cc996f9bd92a851195d2ff8f","gas":"0x1eeef","gasPrice":"0x2faf080","hash":"0x1b072c7d3223b61b97419978f678af3b1b9787de4719a71c67d2b77095a0f5a0","index":"0xd00b19","input":"0x414bf38900000000000000000000000078c1b0c915c4faa5fffa6cabf0219da63d7f4cb8000000000000000000000000201eba5cc46d216ce6dc03f6a759e8e766e956ae00000000000000000000000000000000000000000000000000000000000001f40000000000000000000000001932b6669df54089cc996f9bd92a851195d2ff8f000000000000000000000000000000000000000000000000000000006524422c0000000000000000000000000000000000000000000000001feb3dd06766000000000000000000000000000000000000000000000000000000000000000cd9420000000000000000000000000000000000000000000000000000000000000000","l1BlockNumber":"0x1177534","l1Timestamp":"0x6524420c","l1TxOrigin":null,"nonce":"0xa49","queueIndex":null,"queueOrigin":"sequencer","r":"0x83e487a7a2d4c3b62405fde55b21acea4ece692ce75c9ca5133495afca819007","rawTransaction":"0xf9016e820a498402faf0808301eeef945989fb161568b9f133edf5cf6787f5597762797f80b90104414bf38900000000000000000000000078c1b0c915c4faa5fffa6cabf0219da63d7f4cb8000000000000000000000000201eba5cc46d216ce6dc03f6a759e8e766e956ae00000000000000000000000000000000000000000000000000000000000001f40000000000000000000000001932b6669df54089cc996f9bd92a851195d2ff8f000000000000000000000000000000000000000000000000000000006524422c0000000000000000000000000000000000000000000000001feb3dd06766000000000000000000000000000000000000000000000000000000000000000cd9420000000000000000000000000000000000000000000000000000000000000000822733a083e487a7a2d4c3b62405fde55b21acea4ece692ce75c9ca5133495afca819007a07614d2ad500c7c8bfb9dae4c4ab9b5cebb4d71de7cc42f108dfe667381d5923e","s":"0x7614d2ad500c7c8bfb9dae4c4ab9b5cebb4d71de7cc42f108dfe667381d5923e","to":"0x5989fb161568b9f133edf5cf6787f5597762797f","transactionIndex":"0x0","v":"0x2733","value":"0x0"}],"transactionsRoot":"0xfe14f4425157c4bb6c267ee6b321dc0769422d43c4bf0249051e05066445bb2e","uncles":[]},"receipts":{"0x1b072c7d3223b61b97419978f678af3b1b9787de4719a71c67d2b77095a0f5a0":{"blockHash":"0xc07488edada2ac8d13ceab01d6c6a3fb0b88379dcde9dab712a79c658ec4446a","blockNumber":"0xd00b1a","from":"0x1932b6669df54089cc996f9bd92a851195d2ff8f","gas":"0x1eeef","gasPrice":"0x2faf080","hash":"0x1b072c7d3223b61b97419978f678af3b1b9787de4719a71c67d2b77095a0f5a0","index":"0xd00b19","input":"0x414bf38900000000000000000000000078c1b0c915c4faa5fffa6cabf0219da63d7f4cb8000000000000000000000000201eba5cc46d216ce6dc03f6a759e8e766e956ae00000000000000000000000000000000000000000000000000000000000001f40000000000000000000000001932b6669df54089cc996f9bd92a851195d2ff8f000000000000000000000000000000000000000000000000000000006524422c0000000000000000000000000000000000000000000000001feb3dd06766000000000000000000000000000000000000000000000000000000000000000cd9420000000000000000000000000000000000000000000000000000000000000000","l1BlockNumber":"0x1177534","l1Timestamp":"0x6524420c","l1TxOrigin":null,"nonce":"0xa49","queueIndex":null,"queueOrigin":"sequencer","r":"0x83e487a7a2d4c3b62405fde55b21acea4ece692ce75c9ca5133495afca819007","rawTransaction":"0xf9016e820a498402faf0808301eeef945989fb161568b9f133edf5cf6787f5597762797f80b90104414bf38900000000000000000000000078c1b0c915c4faa5fffa6cabf0219da63d7f4cb8000000000000000000000000201eba5cc46d216ce6dc03f6a759e8e766e956ae00000000000000000000000000000000000000000000000000000000000001f40000000000000000000000001932b6669df54089cc996f9bd92a851195d2ff8f000000000000000000000000000000000000000000000000000000006524422c0000000000000000000000000000000000000000000000001feb3dd06766000000000000000000000000000000000000000000000000000000000000000cd9420000000000000000000000000000000000000000000000000000000000000000822733a083e487a7a2d4c3b62405fde55b21acea4ece692ce75c9ca5133495afca819007a07614d2ad500c7c8bfb9dae4c4ab9b5cebb4d71de7cc42f108dfe667381d5923e","s":"0x7614d2ad500c7c8bfb9dae4c4ab9b5cebb4d71de7cc42f108dfe667381d5923e","to":"0x5989fb161568b9f133edf5cf6787f5597762797f","transactionIndex":"0x0","v":"0x2733","value":"0x0","contractAddress":null,"cumulativeGasUsed":"0x1d783","daFee":"0x0","daGasPrice":"0x0","daGasUsed":"0x12c","gasUsed":"0x1d783","l1Fee":"0x1911132b46ddf60","l1FeeScalar":"1","l1GasPrice":"0x37d4bc06bddc","l1GasUsed":"0x72f","logs":[{"address":"0x201eba5cc46d216ce6dc03f6a759e8e766e956ae","blockHash":"0xc07488edada2ac8d13ceab01d6c6a3fb0b88379dcde9dab712a79c658ec4446a","blockNumber":"0xd00b1a","data":"0x00000000000000000000000000000000000000000000000000000000000d1c63","logIndex":"0x0","removed":false,"topics":["0xddf252ad1be2c89b69c2b068fc378daa952ba7f163c4a11628f55a4df523b3ef","0x000000000000000000000000262255f4770aebe2d0c8b97a46287dcecc2a0aff","0x0000000000000000000000001932b6669df54089cc996f9bd92a851195d2ff8f"],"transactionHash":"0x1b072c7d3223b61b97419978f678af3b1b9787de4719a71c67d2b77095a0f5a0","transactionIndex":"0x0"},{"address":"0x78c1b0c915c4faa5fffa6cabf0219da63d7f4cb8","blockHash":"0xc07488edada2ac8d13ceab01d6c6a3fb0b88379dcde9dab712a79c658ec4446a","blockNumber":"0xd00b1a","data":"0x0000000000000000000000000000000000000000000000001feb3dd067660000","logIndex":"0x1","removed":false,"topics":["0xddf252ad1be2c89b69c2b068fc378daa952ba7f163c4a11628f55a4df523b3ef","0x0000000000000000000000001932b6669df54089cc996f9bd92a851195d2ff8f","0x000000000000000000000000262255f4770aebe2d0c8b97a46287dcecc2a0aff"],"transactionHash":"0x1b072c7d3223b61b97419978f678af3b1b9787de4719a71c67d2b77095a0f5a0","transactionIndex":"0x0"},{"address":"0x78c1b0c915c4faa5fffa6cabf0219da63d7f4cb8","blockHash":"0xc07488edada2ac8d13ceab01d6c6a3fb0b88379dcde9dab712a79c658ec4446a","blockNumber":"0xd00b1a","data":"0xfffffffffffffffffffffffffffffffffffffffffffffff96e4a280a0629ffff","logIndex":"0x2","removed":false,"topics":["0x8c5be1e5ebec7d5bd14f71427d1e84f3dd0314c0f7b2291e5b200ac8c7c3b925","0x0000000000000000000000001932b6669df54089cc996f9bd92a851195d2ff8f","0x0000000000000000000000005989fb161568b9f133edf5cf6787f5597762797f"],"transactionHash":"0x1b072c7d3223b61b97419978f678af3b1b9787de4719a71c67d2b77095a0f5a0","transactionIndex":"0x0"},{"address":"0x262255f4770aebe2d0c8b97a46287dcecc2a0aff","blockHash":"0xc07488edada2ac8d13ceab01d6c6a3fb0b88379dcde9dab712a79c658ec4446a","blockNumber":"0xd00b1a","data":"0xfffffffffffffffffffffffffffffffffffffffffffffffffffffffffff2e39d0000000000000000000000000000000000000000000000001feb3dd067660000000000000000000000000000000000000018f563ac1faf8d37437d37ab022991000000000000000000000000000000000000000000000000255b6ea00034c78b0000000000000000000000000000000000000000000000000000000000045dd500000000000000000000000000000000000000000000000000000000000000000000000000000000000000000000000000000000000000000001639cc81b7000","logIndex":"0x3","removed":false,"topics":["0x19b47279256b2a23a1665c810c8d55a1758940ee09377d4f8d26497a3577dc83","0x0000000000000000000000005989fb161568b9f133edf5cf6787f5597762797f","0x0000000000000000000000001932b6669df54089cc996f9bd92a851195d2ff8f"],"transactionHash":"0x1b072c7d3223b61b97419978f678af3b1b9787de4719a71c67d2b77095a0f5a0","transactionIndex":"0x0"}],"logsBloom":"0x00040000000010000000000000000000000000000001000000000000000000000000000000000000000000000002000000000000000000000000000000200000940000000040000000000008000000000000008000042000000000000000000000000000000000000000000000090000000000000000000000000010000000000000000100000000000000000000040000100000040000000000000040100000020000000000000000000000000000000000000000000000004000000000000000000002000000000000000000000000000000000000000000000000000000000010000000000000000000000000000000000000000000000000002000000000","status":"0x1","transactionHash":"0x1b072c7d3223b61b97419978f678af3b1b9787de4719a71c67d2b77095a0f5a0"}}}