{"block":{"difficulty":"0x2","extraData":"0xd98301090a846765746889676f312e31352e3133856c696e7578000000000000706c93c83d26ee73f81081a52de4bb453a078bdc14b1d142a04e38cd29efc66d406611bb2d1e64b3c14479b41f50c6fafb697fd586d4a7ab035e25972eb7bb3a01","gasLimit":"0x1c9c380","gasUsed":"0x1e3bf","hash":"0xf5b8d1f0f6484377a8c6157417176fd403a66067fb2cc95c6b30b75add23bc20","logsBloom":"0x00000000000000000000000000000000000000000000000000000000000000000000000000000000000000000000000000000000000000000000000000000000000000000000000000000000000000000000000000000000000000000000000000000000000000000000000000000000000000000000000000000000000000000000000000000000000000000000000000000000000000000000000000000000000000000000000000000000000000000000000000000000000000000000000000000000000000000000000000000000000000000000000000000000000000000000000000000000000000000000000000000000000000000000000000000000","miner":"0x0000000000000000000000000000000000000000","mixHash":"0x0000000000000000000000000000000000000000000000000000000000000000","nonce":"0x0000000000000000","number":"0xd00114","parentHash":"0x4e569720b22bcdc22f0cd9769b50fc7852effb3b4873edd07dea9aaa1ff6f2ae","receiptsRoot":"0x6b360bdc546b7f0054ab4cd77a5e208ba6c0860d391a963a6fa7361cfbc31ae2","sha3Uncles":"0x1dcc4de8dec75d7aab85b567b6ccd41ad312451b948a7413f0a142fd40d49347","size":"0x3d8","stateRoot":"0x560ab1c508e79387ee07d050f3d290a71968864be6dd3cabec0c7d3702221796","timestamp":"0x65243d4e","totalDifficulty":"0x1a00229","transactions":[{"blockHash":"0xf5b8d1f0f6484377a8c6157417176fd403a66067fb2cc95c6b30b75add23bc20","blockNumber":"0xd00114","from":"0xa46d978d2f5c8b4a6391955ac9000e673416f8f7","gas":"0x1e964","gasPrice":"0x2faf080","hash":"0xab38be81f0850299f1f8203b57e2f4adafd26482da240ee98b4276ef6f4ddca7","index":"0xd00113","input":"0x414bf389000000000000000000000000deaddeaddeaddeaddeaddeaddeaddeaddead1111000000000000000000000000201eba5cc46d216ce6dc03f6a759e8e766e956ae00000000000000000000000000000000000000000000000000000000000001f4000000000000000000000000a46d978d2f5c8b4a6391955ac9000e673416f8f70000000000000000000000000000000000000000000000000000000065243d6c0000000000000000000000000000000000000000000000000001e2083dbb200000000000000000000000000000000000000000000000000000000000000c93e40000000000000000000000000000000000000000000000000000000000000000","l1BlockNumber":"0x11774cf","l1Timestamp":"0x65243d4e","l1TxOrigin":null,"nonce":"0x12a5","queueIndex":null,"queueOrigin":"sequencer","r":"0x436e47e525bd5cde59f28e25545f2d94bd75b53a365fa32477a1e24b673d79a4","rawTransaction":"0xf9016e8212a58402faf0808301e96494319b69888b0d11cec22caa5034e25fffbdc8842180b90104414bf389000000000000000000000000deaddeaddeaddeaddeaddeaddeaddeaddead1111000000000000000000000000201eba5cc46d216ce6dc03f6a759e8e766e956ae00000000000000000000000000000000000000000000000000000000000001f4000000000000000000000000a46d978d2f5c8b4a6391955ac9000e673416f8f70000000000000000000000000000000000000000000000000000000065243d6c0000000000000000000000000000000000000000000000000001e2083dbb200000000000000000000000000000000000000000000000000000000000000c93e40000000000000000000000000000000000000000000000000000000000000000822733a0436e47e525bd5cde59f28e25545f2d94bd75b53a365fa32477a1e24b673d79a4a06b8d8afde26b74c44dc519a4b3b6d86c813c9e8397e5e4e89b203fe666f0ea12","s":"0x6b8d8afde26b74c44dc519a4b3b6d86c813c9e8397e5e4e89b203fe666f0ea12","to":"0x319b69888b0d11cec22caa5034e25fffbdc88421","transactionIndex":"0x0","v":"0x2733","value":"0x0"}],"transactionsRoot":"0x88ee4af94770e7caf3bc7ee3b4502e6f208b00e68f19fd1ef55b983e8b1a00eb","uncles":[]},"receipts":{"0xab38be81f0850299f1f8203b57e2f4adafd26482da240ee98b4276ef6f4ddca7":{"blockHash":"0xf5b8d1f0f6484377a8c6157417176fd403a66067fb2cc95c6b30b75add23bc20","blockNumber":"0xd00114","from":"0xa46d978d2f5c8b4a6391955ac9000e673416f8f7","gas":"0x1e964","gasPrice":"0x2faf080","hash":"0xab38be81f0850299f1f8203b57e2f4adafd26482da240ee98b4276ef6f4ddca7","index":"0xd00113","input":"0x414bf389000000000000000000000000deaddeaddeaddeaddeaddeaddeaddeaddead1111000000000000000000000000201eba5cc46d216ce6dc03f6a759e8e766e956ae00000000000000000000000000000000000000000000000000000000000001f4000000000000000000000000a46d978d2f5c8b4a6391955ac9000e673416f8f70000000000000000000000000000000000000000000000000000000065243d6c0000000000000000000000000000000000000000000000000001e2083dbb200000000000000000000000000000000000000000000000000000000000000c93e40000000000000000000000000000000000000000000000000000000000000000","l1BlockNumber":"0x11774cf","l1Timestamp":"0x65243d4e","l1TxOrigin":null,"nonce":"0x12a5","queueIndex":null,"queueOrigin":"sequencer","r":"0x436e47e525bd5cde59f28e25545f2d94bd75b53a365fa32477a1e24b673d79a4","rawTransaction":"0xf9016e8212a58402faf0808301e96494319b69888b0d11cec22caa5034e25fffbdc8842180b90104414bf389000000000000000000000000deaddeaddeaddeaddeaddeaddeaddeaddead1111000000000000000000000000201eba5cc46d216ce6dc03f6a759e8e766e956ae00000000000000000000000000000000000000000000000000000000000001f4000000000000000000000000a46d978d2f5c8b4a6391955ac9000e673416f8f70000000000000000000000000000000000000000000000000000000065243d6c0000000000000000000000000000000000000000000000000001e2083dbb200000000000000000000000000000000000000000000000000000000000000c93e40000000000000000000000000000000000000000000000000000000000000000822733a0436e47e525bd5cde59f28e25545f2d94bd75b53a365fa32477a1e24b673d79a4a06b8d8afde26b74c44dc519a4b3b6d86c813c9e8397e5e4e89b203fe666f0ea12","s":"0x6b8d8afde26b74c44dc519a4b3b6d86c813c9e8397e5e4e89b203fe666f0ea12","to":"0x319b69888b0d11cec22caa5034e25fffbdc88421","transactionIndex":"0x0","v":"0x2733","value":"0x0","contractAddress":null,"cumulativeGasUsed":"0x1e3bf","daFee":"0x0","daGasPrice":"0x0","daGasUsed":"0x12c","gasUsed":"0x1e3bf","l1Fee":"0x1a09f6380cb9fe0","l1FeeScalar":"1","l1GasPrice":"0x39ff1464e55c","l1GasUsed":"0x72f","logs":[],"logsBloom":"0x00000000000000000000000000000000000000000000000000000000000000000000000000000000000000000000000000000000000000000000000000000000000000000000000000000000000000000000000000000000000000000000000000000000000000000000000000000000000000000000000000000000000000000000000000000000000000000000000000000000000000000000000000000000000000000000000000000000000000000000000000000000000000000000000000000000000000000000000000000000000000000000000000000000000000000000000000000000000000000000000000000000000000000000000000000000","status":"0x0","transactionHash":"0xab38be81f0850299f1f8203b57e2f4adafd26482da240ee98b4276ef6f4ddca7"}}}