{"block":{"difficulty":"0x2","extraData":"0xd98301090a846765746889676f312e31352e3133856c696e7578000000000000dbe5ddc7b233bd28588219e4404c25a8ff3c1ab7ee6f9f660a2343b5514befb24c43c1d010e25fa554820cc3416380a10848ff3d159f05ff074e50486fa6e75b01","gasLimit":"0x1c9c380","gasUsed":"0x23c29","hash":"0x1acb2a06f484418077ed763d00d67a4ba77350d51e3702fb7e2f35fcc74bc0c5","logsBloom":"0x00000400200000000000000001400000000020000001000000000000000000200000000000000000000000000000000000000000000000040080000000200000100000020000000800014008000000000000008000042000200000000000000000000000000000000000000000000000000000000000004000000010004000004050000000000000000000000000000000100000004000000000000000000000020001000000000000100000000000000000000000000000000000000000000000000002000000000000000000000000000000000000000000010000000000000010000000000004000000000000000000000020000000000000000000000000","miner":"0x0000000000000000000000000000000000000000","mixHash":"0x0000000000000000000000000000000000000000000000000000000000000000","nonce":"0x0000000000000000","number":"0xd000e1","parentHash":"0xbb95672c4138dbef3dbca64b210926f0b86114004a3e58761f92e8e71dba79e9","receiptsRoot":"0x85782a7c1b89127b87e8a54986734913cb504fbb8aca08299e081477ea0ceb99","sha3Uncles":"0x1dcc4de8dec75d7aab85b567b6ccd41ad312451b948a7413f0a142fd40d49347","size":"0x3f8","stateRoot":"0x5d051d0b37f89756826ed9de4b45755cc3fec4af4dcd5109f01f9d7e48c43af1","timestamp":"0x65243d2f","totalDifficulty":"0x1a001c3","transactions":[{"blockHash":"0x1acb2a06f484418077ed763d00d67a4ba77350d51e3702fb7e2f35fcc74bc0c5","blockNumber":"0xd000e1","from":"0x6bea7d7196973b2cc32cf27a70669ec4de7dd1ce","gas":"0x254a9","gasPrice":"0x2faf080","hash":"0x51bee3a9cfaa18578b53df9ee2aad579d628de060af016fd61bc78783273cbd3","index":"0xd000e0","input":"0x75ceafe6000000000000000000000000000000000000000000000000000000000000002000000000000000000000000000000000000000000000000000000000000000a00000000000000000000000006bea7d7196973b2cc32cf27a70669ec4de7dd1ce00000000000000000000000000000000000000000000000026948b455b96000000000000000000000000000000000000000000000000000000000000000f7a7e0000000000000000000000000000000000000000000000000000000065243d4f000000000000000000000000000000000000000000000000000000000000002b78c1b0c915c4faa5fffa6cabf0219da63d7f4cb8000bb8201eba5cc46d216ce6dc03f6a759e8e766e956ae000000000000000000000000000000000000000000","l1BlockNumber":"0x11774cc","l1Timestamp":"0x65243d2f","l1TxOrigin":null,"nonce":"0xc69","queueIndex":null,"queueOrigin":"sequencer","r":"0xfaf3828f0a4dfe60a7a05aa2c608ab8849c60d5c0d73b51d6206688d44e8d5aa","rawTransaction":"0xf9018e820c698402faf080830254a99425c030116feb2e7bba054b9de0915e5f51b03e3180b9012475ceafe6000000000000000000000000000000000000000000000000000000000000002000000000000000000000000000000000000000000000000000000000000000a00000000000000000000000006bea7d7196973b2cc32cf27a70669ec4de7dd1ce00000000000000000000000000000000000000000000000026948b455b96000000000000000000000000000000000000000000000000000000000000000f7a7e0000000000000000000000000000000000000000000000000000000065243d4f000000000000000000000000000000000000000000000000000000000000002b78c1b0c915c4faa5fffa6cabf0219da63d7f4cb8000bb8201eba5cc46d216ce6dc03f6a759e8e766e956ae000000000000000000000000000000000000000000822734a0faf3828f0a4dfe60a7a05aa2c608ab8849c60d5c0d73b51d6206688d44e8d5aaa02b8c51e2c28e963e574ce4d5d984ef142b7289ab03836c5123d61450602bbae4","s":"0x2b8c51e2c28e963e574ce4d5d984ef142b7289ab03836c5123d61450602bbae4","to":"0x25c030116feb2e7bba054b9de0915e5f51b03e31","transactionIndex":"0x0","v":"0x2734","value":"0x0"}],"transactionsRoot":"0x4eefff851ab3ee71e001574fc09b4dbebf8400ce62dfb7c253b187fbf1be527c","uncles":[]},"receipts":{"0x51bee3a9cfaa18578b53df9ee2aad579d628de060af016fd61bc78783273cbd3":{"blockHash":"0x1acb2a06f484418077ed763d00d67a4ba77350d51e3702fb7e2f35fcc74bc0c5","blockNumber":"0xd000e1","from":"0x6bea7d7196973b2cc32cf27a70669ec4de7dd1ce","gas":"0x254a9","gasPrice":"0x2faf080","hash":"0x51bee3a9cfaa18578b53df9ee2aad579d628de060af016fd61bc78783273cbd3","index":"0xd000e0","input":"0x75ceafe6000000000000000000000000000000000000000000000000000000000000002000000000000000000000000000000000000000000000000000000000000000a00000000000000000000000006bea7d7196973b2cc32cf27a70669ec4de7dd1ce00000000000000000000000000000000000000000000000026948b455b96000000000000000000000000000000000000000000000000000000000000000f7a7e0000000000000000000000000000000000000000000000000000000065243d4f000000000000000000000000000000000000000000000000000000000000002b78c1b0c915c4faa5fffa6cabf0219da63d7f4cb8000bb8201eba5cc46d216ce6dc03f6a759e8e766e956ae000000000000000000000000000000000000000000","l1BlockNumber":"0x11774cc","l1Timestamp":"0x65243d2f","l1TxOrigin":null,"nonce":"0xc69","queueIndex":null,"queueOrigin":"sequencer","r":"0xfaf3828f0a4dfe60a7a05aa2c608ab8849c60d5c0d73b51d6206688d44e8d5aa","rawTransaction":"0xf9018e820c698402faf080830254a99425c030116feb2e7bba054b9de0915e5f51b03e3180b9012475ceafe6000000000000000000000000000000000000000000000000000000000000002000000000000000000000000000000000000000000000000000000000000000a00000000000000000000000006bea7d7196973b2cc32cf27a70669ec4de7dd1ce00000000000000000000000000000000000000000000000026948b455b96000000000000000000000000000000000000000000000000000000000000000f7a7e0000000000000000000000000000000000000000000000000000000065243d4f000000000000000000000000000000000000000000000000000000000000002b78c1b0c915c4faa5fffa6cabf0219da63d7f4cb8000bb8201eba5cc46d216ce6dc03f6a759e8e766e956ae000000000000000000000000000000000000000000822734a0faf3828f0a4dfe60a7a05aa2c608ab8849c60d5c0d73b51d6206688d44e8d5aaa02b8c51e2c28e963e574ce4d5d984ef142b7289ab03836c5123d61450602bbae4","s":"0x2b8c51e2c28e963e574ce4d5d984ef142b7289ab03836c5123d61450602bbae4","to":"0x25c030116feb2e7bba054b9de0915e5f51b03e31","transactionIndex":"0x0","v":"0x2734","value":"0x0","contractAddress":null,"cumulativeGasUsed":"0x23c29","daFee":"0x0","daGasPrice":"0x0","daGasUsed":"0x14c","gasUsed":"0x23c29","l1Fee":"0x1a09f6380cb9fe0","l1FeeScalar":"1","l1GasPrice":"0x39ff1464e55c","l1GasUsed":"0x72f","logs":[{"address":"0x201eba5cc46d216ce6dc03f6a759e8e766e956ae","blockHash":"0x1acb2a06f484418077ed763d00d67a4ba77350d51e3702fb7e2f35fcc74bc0c5","blockNumber":"0xd000e1","data":"0x00000000000000000000000000000000000000000000000000000000000fcb5c","logIndex":"0x0","removed":false,"topics":["0xddf252ad1be2c89b69c2b068fc378daa952ba7f163c4a11628f55a4df523b3ef","0x000000000000000000000000cddf50c3dfac95939167eff4c05d38781f549ea9","0x0000000000000000000000006bea7d7196973b2cc32cf27a70669ec4de7dd1ce"],"transactionHash":"0x51bee3a9cfaa18578b53df9ee2aad579d628de060af016fd61bc78783273cbd3","transactionIndex":"0x0"},{"address":"0x78c1b0c915c4faa5fffa6cabf0219da63d7f4cb8","blockHash":"0x1acb2a06f484418077ed763d00d67a4ba77350d51e3702fb7e2f35fcc74bc0c5","blockNumber":"0xd000e1","data":"0x00000000000000000000000000000000000000000000000026948b455b7d2cda","logIndex":"0x1","removed":false,"topics":["0xddf252ad1be2c89b69c2b068fc378daa952ba7f163c4a11628f55a4df523b3ef","0x0000000000000000000000006bea7d7196973b2cc32cf27a70669ec4de7dd1ce","0x000000000000000000000000cddf50c3dfac95939167eff4c05d38781f549ea9"],"transactionHash":"0x51bee3a9cfaa18578b53df9ee2aad579d628de060af016fd61bc78783273cbd3","transactionIndex":"0x0"},{"address":"0x78c1b0c915c4faa5fffa6cabf0219da63d7f4cb8","blockHash":"0x1acb2a06f484418077ed763d00d67a4ba77350d51e3702fb7e2f35fcc74bc0c5","blockNumber":"0xd000e1","data":"0xfffffffffffffffffffffffffffffffffffffffffffffff672bbd98c335fa9db","logIndex":"0x2","removed":false,"topics":["0x8c5be1e5ebec7d5bd14f71427d1e84f3dd0314c0f7b2291e5b200ac8c7c3b925","0x0000000000000000000000006bea7d7196973b2cc32cf27a70669ec4de7dd1ce","0x00000000000000000000000025c030116feb2e7bba054b9de0915e5f51b03e31"],"transactionHash":"0x51bee3a9cfaa18578b53df9ee2aad579d628de060af016fd61bc78783273cbd3","transactionIndex":"0x0"},{"address":"0xcddf50c3dfac95939167eff4c05d38781f549ea9","blockHash":"0x1acb2a06f484418077ed763d00d67a4ba77350d51e3702fb7e2f35fcc74bc0c5","blockNumber":"0xd000e1","data":"0x000000000000000000000000000000000000000000000000000000000000000000000000000000000000000000000000000000000000000000000000000fcb5c00000000000000000000000000000000000000000000000026948b455b7d2cda0000000000000000000000000000000000000000000000000000000000045dde","logIndex":"0x3","removed":false,"topics":["0x0fe977d619f8172f7fdbe8bb8928ef80952817d96936509f67d66346bc4cd10f","0x000000000000000000000000201eba5cc46d216ce6dc03f6a759e8e766e956ae","0x00000000000000000000000078c1b0c915c4faa5fffa6cabf0219da63d7f4cb8","0x0000000000000000000000000000000000000000000000000000000000000bb8"],"transactionHash":"0x51bee3a9cfaa18578b53df9ee2aad579d628de060af016fd61bc78783273cbd3","transactionIndex":"0x0"}],"logsBloom":"0x00000400200000000000000001400000000020000001000000000000000000200000000000000000000000000000000000000000000000040080000000200000100000020000000800014008000000000000008000042000200000000000000000000000000000000000000000000000000000000000004000000010004000004050000000000000000000000000000000100000004000000000000000000000020001000000000000100000000000000000000000000000000000000000000000000002000000000000000000000000000000000000000000010000000000000010000000000004000000000000000000000020000000000000000000000000","status":"0x1","transactionHash":"0x51bee3a9cfaa18578b53df9ee2aad579d628de060af016fd61bc78783273cbd3"}}}