{"block":{"difficulty":"0x2","extraData":"0xd98301090a846765746889676f312e31352e3133856c696e7578000000000000f05edaa4bea73884f3cafeb4c9d162e163c977cb8a972987df0d880134c8a8e62abe7a7a1ddf21a3da8cb52477047e816e687cc1b8c95ccb9e03e916b6cc979e00","gasLimit":"0x1c9c380","gasUsed":"0x1fc88","hash":"0x03b04a7b08fc656cef95399d9440d95f7e6f6837f8d2a044b50a8a17020ec4cc","logsBloom":"0x0000000000000000000000000000000800004000000100a80000000000000000000000000000000000000000000200000000000000200000000000000020000004800000004400000000000800000000000000c000002000000000000000000000000000000000000000000000000000000000100000800000000010000000000100000000000000000000000000000000000000000000000000000000000000020000000000000000000000000000000000000001000000000000000000000000000002000000000000000000000000002000000000000000000000000000000010000000000000000000000000000000000000000010000000000000000000","miner":"0x0000000000000000000000000000000000000000","mixHash":"0x0000000000000000000000000000000000000000000000000000000000000000","nonce":"0x0000000000000000","number":"0xd00122","parentHash":"0x7500a2dee255d17d311d53c70cd99645f4d1f312651911916c3a1c8eeacaaf2f","receiptsRoot":"0xfc2f154d31383ad62240f3bec09dbc5efc96848c2ebe1fff1d72aabfc2058488","sha3Uncles":"0x1dcc4de8dec75d7aab85b567b6ccd41ad312451b948a7413f0a142fd40d49347","size":"0x3d8","stateRoot":"0x8cf799255b9d671681b9aabdd078cfecea3f92ae4c938fe6fd3cfb3c7220f945","timestamp":"0x65243d54","totalDifficulty":"0x1a00245","transactions":[{"blockHash":"0x03b04a7b08fc656cef95399d9440d95f7e6f6837f8d2a044b50a8a17020ec4cc","blockNumber":"0xd00122","from":"0xc9e5ab2a0a0d23384e1714e230c6424c9b5fbb69","gas":"0x21487","gasPrice":"0x2faf080","hash":"0x110a2475f4b22c0ded3a9f386e164db45c0da96a2e3d9dece2e5de928c39fe96","index":"0xd00121","input":"0x414bf389000000000000000000000000201eba5cc46d216ce6dc03f6a759e8e766e956ae00000000000000000000000009bc4e0d864854c6afb6eb9a9cdf58ac190d0df90000000000000000000000000000000000000000000000000000000000000064000000000000000000000000c9e5ab2a0a0d23384e1714e230c6424c9b5fbb690000000000000000000000000000000000000000000000000000000065243d75000000000000000000000000000000000000000000000000000000000013af100000000000000000000000000000000000000000000000000000000000134b6d0000000000000000000000000000000000000000000000000000000000000000","l1BlockNumber":"0x11774cf","l1Timestamp":"0x65243d54","l1TxOrigin":null,"nonce":"0xc7e","queueIndex":null,"queueOrigin":"sequencer","r":"0xc23f30bcc78e448627ba98265044e8b19f0c55681d0b9d9a4341740e38f36f97","rawTransaction":"0xf9016e820c7e8402faf0808302148794319b69888b0d11cec22caa5034e25fffbdc8842180b90104414bf389000000000000000000000000201eba5cc46d216ce6dc03f6a759e8e766e956ae00000000000000000000000009bc4e0d864854c6afb6eb9a9cdf58ac190d0df90000000000000000000000000000000000000000000000000000000000000064000000000000000000000000c9e5ab2a0a0d23384e1714e230c6424c9b5fbb690000000000000000000000000000000000000000000000000000000065243d75000000000000000000000000000000000000000000000000000000000013af100000000000000000000000000000000000000000000000000000000000134b6d0000000000000000000000000000000000000000000000000000000000000000822733a0c23f30bcc78e448627ba98265044e8b19f0c55681d0b9d9a4341740e38f36f97a01f635fde123420de8ae5b7bebd4cb6fb8137a2b657a946396a033de521415305","s":"0x1f635fde123420de8ae5b7bebd4cb6fb8137a2b657a946396a033de521415305","to":"0x319b69888b0d11cec22caa5034e25fffbdc88421","transactionIndex":"0x0","v":"0x2733","value":"0x0"}],"transactionsRoot":"0xc8c06f23a353b71d9828bdf55cc483799aa61558195aa656c94702a172a01686","uncles":[]},"receipts":{"0x110a2475f4b22c0ded3a9f386e164db45c0da96a2e3d9dece2e5de928c39fe96":{"blockHash":"0x03b04a7b08fc656cef95399d9440d95f7e6f6837f8d2a044b50a8a17020ec4cc","blockNumber":"0xd00122","from":"0xc9e5ab2a0a0d23384e1714e230c6424c9b5fbb69","gas":"0x21487","gasPrice":"0x2faf080","hash":"0x110a2475f4b22c0ded3a9f386e164db45c0da96a2e3d9dece2e5de928c39fe96","index":"0xd00121","input":"0x414bf389000000000000000000000000201eba5cc46d216ce6dc03f6a759e8e766e956ae00000000000000000000000009bc4e0d864854c6afb6eb9a9cdf58ac190d0df90000000000000000000000000000000000000000000000000000000000000064000000000000000000000000c9e5ab2a0a0d23384e1714e230c6424c9b5fbb690000000000000000000000000000000000000000000000000000000065243d75000000000000000000000000000000000000000000000000000000000013af100000000000000000000000000000000000000000000000000000000000134b6d0000000000000000000000000000000000000000000000000000000000000000","l1BlockNumber":"0x11774cf","l1Timestamp":"0x65243d54","l1TxOrigin":null,"nonce":"0xc7e","queueIndex":null,"queueOrigin":"sequencer","r":"0xc23f30bcc78e448627ba98265044e8b19f0c55681d0b9d9a4341740e38f36f97","rawTransaction":"0xf9016e820c7e8402faf0808302148794319b69888b0d11cec22caa5034e25fffbdc8842180b90104414bf389000000000000000000000000201eba5cc46d216ce6dc03f6a759e8e766e956ae00000000000000000000000009bc4e0d864854c6afb6eb9a9cdf58ac190d0df90000000000000000000000000000000000000000000000000000000000000064000000000000000000000000c9e5ab2a0a0d23384e1714e230c6424c9b5fbb690000000000000000000000000000000000000000000000000000000065243d75000000000000000000000000000000000000000000000000000000000013af100000000000000000000000000000000000000000000000000000000000134b6d0000000000000000000000000000000000000000000000000000000000000000822733a0c23f30bcc78e448627ba98265044e8b19f0c55681d0b9d9a4341740e38f36f97a01f635fde123420de8ae5b7bebd4cb6fb8137a2b657a946396a033de521415305","s":"0x1f635fde123420de8ae5b7bebd4cb6fb8137a2b657a946396a033de521415305","to":"0x319b69888b0d11cec22caa5034e25fffbdc88421","transactionIndex":"0x0","v":"0x2733","value":"0x0","contractAddress":null,"cumulativeGasUsed":"0x1fc88","daFee":"0x0","daGasPrice":"0x0","daGasUsed":"0x12c","gasUsed":"0x1fc88","l1Fee":"0x1a09f6380cb9fe0","l1FeeScalar":"1","l1GasPrice":"0x39ff1464e55c","l1GasUsed":"0x72f","logs":[{"address":"0x09bc4e0d864854c6afb6eb9a9cdf58ac190d0df9","blockHash":"0x03b04a7b08fc656cef95399d9440d95f7e6f6837f8d2a044b50a8a17020ec4cc","blockNumber":"0xd00122","data":"0x000000000000000000000000000000000000000000000000000000000013b03b","logIndex":"0x0","removed":false,"topics":["0xddf252ad1be2c89b69c2b068fc378daa952ba7f163c4a11628f55a4df523b3ef","0x0000000000000000000000006488f911c6cd86c289aa319c5a826dcf8f1ca065","0x000000000000000000000000c9e5ab2a0a0d23384e1714e230c6424c9b5fbb69"],"transactionHash":"0x110a2475f4b22c0ded3a9f386e164db45c0da96a2e3d9dece2e5de928c39fe96","transactionIndex":"0x0"},{"address":"0x201eba5cc46d216ce6dc03f6a759e8e766e956ae","blockHash":"0x03b04a7b08fc656cef95399d9440d95f7e6f6837f8d2a044b50a8a17020ec4cc","blockNumber":"0xd00122","data":"0x000000000000000000000000000000000000000000000000000000000013af10","logIndex":"0x1","removed":false,"topics":["0xddf252ad1be2c89b69c2b068fc378daa952ba7f163c4a11628f55a4df523b3ef","0x000000000000000000000000c9e5ab2a0a0d23384e1714e230c6424c9b5fbb69","0x0000000000000000000000006488f911c6cd86c289aa319c5a826dcf8f1ca065"],"transactionHash":"0x110a2475f4b22c0ded3a9f386e164db45c0da96a2e3d9dece2e5de928c39fe96","transactionIndex":"0x0"},{"address":"0x201eba5cc46d216ce6dc03f6a759e8e766e956ae","blockHash":"0x03b04a7b08fc656cef95399d9440d95f7e6f6837f8d2a044b50a8a17020ec4cc","blockNumber":"0xd00122","data":"0xffffffffffffffffffffffffffffffffffffffffffffffffffffffffab2daccf","logIndex":"0x2","removed":false,"topics":["0x8c5be1e5ebec7d5bd14f71427d1e84f3dd0314c0f7b2291e5b200ac8c7c3b925","0x000000000000000000000000c9e5ab2a0a0d23384e1714e230c6424c9b5fbb69","0x000000000000000000000000319b69888b0d11cec22caa5034e25fffbdc88421"],"transactionHash":"0x110a2475f4b22c0ded3a9f386e164db45c0da96a2e3d9dece2e5de928c39fe96","transactionIndex":"0x0"},{"address":"0x6488f911c6cd86c289aa319c5a826dcf8f1ca065","blockHash":"0x03b04a7b08fc656cef95399d9440d95f7e6f6837f8d2a044b50a8a17020ec4cc","blockNumber":"0xd00122","data":"0xffffffffffffffffffffffffffffffffffffffffffffffffffffffffffec4fc5000000000000000000000000000000000000000000000000000000000013af100000000000000000000000000000000000000000fff520826ee97ff5210b68200000000000000000000000000000000000000000000000000000aa91ae904e92fffffffffffffffffffffffffffffffffffffffffffffffffffffffffffffffc0000000000000000000000000000000000000000000000000000000000000000000000000000000000000000000000000000000000000000000000000000002a","logIndex":"0x3","removed":false,"topics":["0x19b47279256b2a23a1665c810c8d55a1758940ee09377d4f8d26497a3577dc83","0x000000000000000000000000319b69888b0d11cec22caa5034e25fffbdc88421","0x000000000000000000000000c9e5ab2a0a0d23384e1714e230c6424c9b5fbb69"],"transactionHash":"0x110a2475f4b22c0ded3a9f386e164db45c0da96a2e3d9dece2e5de928c39fe96","transactionIndex":"0x0"}],"logsBloom":"0x0000000000000000000000000000000800004000000100a80000000000000000000000000000000000000000000200000000000000200000000000000020000004800000004400000000000800000000000000c000002000000000000000000000000000000000000000000000000000000000100000800000000010000000000100000000000000000000000000000000000000000000000000000000000000020000000000000000000000000000000000000001000000000000000000000000000002000000000000000000000000002000000000000000000000000000000010000000000000000000000000000000000000000010000000000000000000","status":"0x1","transactionHash":"0x110a2475f4b22c0ded3a9f386e164db45c0da96a2e3d9dece2e5de928c39fe96"}}}