{"block":{"difficulty":"0x2","extraData":"0xd98301090a846765746889676f312e31352e3133856c696e75780000000000008f14e21f878750c3e58a4d6370a9bbf69a9b67834e97e0899e08889e3e57c14e638842194786cbdff6e96f6a623dc6919d7c9544a3c29b2d37bed107ddfb3b6c01","gasLimit":"0x1c9c380","gasUsed":"0x1fc88","hash":"0xb54ceb6a9a83c170d48115980dfedbd2f67f181588a6d76ad19b4ebfced56003","logsBloom":"0x0000000000000000000000000000000000004000000100880000000000000000000000000000000000000000000200000000000000220000000000000020000004800000204400000000080800000000000000c000002000000000000000000000000000000000000000000000000000000000100000800000000010000000000000000000000000000000000000000000000000000000000000000000000000020000000000000000000000000000000000000001000000000000000000000000000002000000000000000000000000002000000000000000000000000000000010000000000000000000000000000000000000000010000000000000000000","miner":"0x0000000000000000000000000000000000000000","mixHash":"0x0000000000000000000000000000000000000000000000000000000000000000","nonce":"0x0000000000000000","number":"0xd002c6","parentHash":"0x7988e31f4f3634c03885240faa99e0148910a4e3d014ca8cab1266d828cfcf80","receiptsRoot":"0x755baf819c2450fcbef2c056d48a063c11886216b0ff805c4dcf0c05f514d96e","sha3Uncles":"0x1dcc4de8dec75d7aab85b567b6ccd41ad312451b948a7413f0a142fd40d49347","size":"0x3d8","stateRoot":"0xf37c43a2d6bfc3ff3ca8216241b4bc1905d1a25c02aec003beb3a76e274ac8cb","timestamp":"0x65243e39","totalDifficulty":"0x1a0058d","transactions":[{"blockHash":"0xb54ceb6a9a83c170d48115980dfedbd2f67f181588a6d76ad19b4ebfced56003","blockNumber":"0xd002c6","from":"0x2605c77fd47caec8dfeae7ec40c42427b131721b","gas":"0x21487","gasPrice":"0x2faf080","hash":"0x19e9225f426685bfcef87c35cb318862bdf1156b32e9a9ef416093c25fb42b21","index":"0xd002c5","input":"0x414bf389000000000000000000000000201eba5cc46d216ce6dc03f6a759e8e766e956ae00000000000000000000000009bc4e0d864854c6afb6eb9a9cdf58ac190d0df900000000000000000000000000000000000000000000000000000000000000640000000000000000000000002605c77fd47caec8dfeae7ec40c42427b131721b0000000000000000000000000000000000000000000000000000000065243e5800000000000000000000000000000000000000000000000000000000000fde8000000000000000000000000000000000000000000000000000000000000f8e2c0000000000000000000000000000000000000000000000000000000000000000","l1BlockNumber":"0x11774e2","l1Timestamp":"0x65243e39","l1TxOrigin":null,"nonce":"0x1093","queueIndex":null,"queueOrigin":"sequencer","r":"0x10f256bc6c35301a6e824645528a76a90b62b6555cbb35dd6d94ec6e978d6735","rawTransaction":"0xf9016e8210938402faf0808302148794319b69888b0d11cec22caa5034e25fffbdc8842180b90104414bf389000000000000000000000000201eba5cc46d216ce6dc03f6a759e8e766e956ae00000000000000000000000009bc4e0d864854c6afb6eb9a9cdf58ac190d0df900000000000000000000000000000000000000000000000000000000000000640000000000000000000000002605c77fd47caec8dfeae7ec40c42427b131721b0000000000000000000000000000000000000000000000000000000065243e5800000000000000000000000000000000000000000000000000000000000fde8000000000000000000000000000000000000000000000000000000000000f8e2c0000000000000000000000000000000000000000000000000000000000000000822734a010f256bc6c35301a6e824645528a76a90b62b6555cbb35dd6d94ec6e978d6735a055e39e789213a91b509793c9f4a35414b04b6abaa6916c2839a9a6fe68222ac3","s":"0x55e39e789213a91b509793c9f4a35414b04b6abaa6916c2839a9a6fe68222ac3","to":"0x319b69888b0d11cec22caa5034e25fffbdc88421","transactionIndex":"0x0","v":"0x2734","value":"0x0"}],"transactionsRoot":"0x8b975278afe363a950f30bcb937cfaf5193d355bf52bf84bc3583039905bc6f0","uncles":[]},"receipts":{"0x19e9225f426685bfcef87c35cb318862bdf1156b32e9a9ef416093c25fb42b21":{"blockHash":"0xb54ceb6a9a83c170d48115980dfedbd2f67f181588a6d76ad19b4ebfced56003","blockNumber":"0xd002c6","from":"0x2605c77fd47caec8dfeae7ec40c42427b131721b","gas":"0x21487","gasPrice":"0x2faf080","hash":"0x19e9225f426685bfcef87c35cb318862bdf1156b32e9a9ef416093c25fb42b21","index":"0xd002c5","input":"0x414bf389000000000000000000000000201eba5cc46d216ce6dc03f6a759e8e766e956ae00000000000000000000000009bc4e0d864854c6afb6eb9a9cdf58ac190d0df900000000000000000000000000000000000000000000000000000000000000640000000000000000000000002605c77fd47caec8dfeae7ec40c42427b131721b0000000000000000000000000000000000000000000000000000000065243e5800000000000000000000000000000000000000000000000000000000000fde8000000000000000000000000000000000000000000000000000000000000f8e2c0000000000000000000000000000000000000000000000000000000000000000","l1BlockNumber":"0x11774e2","l1Timestamp":"0x65243e39","l1TxOrigin":null,"nonce":"0x1093","queueIndex":null,"queueOrigin":"sequencer","r":"0x10f256bc6c35301a6e824645528a76a90b62b6555cbb35dd6d94ec6e978d6735","rawTransaction":"0xf9016e8210938402faf0808302148794319b69888b0d11cec22caa5034e25fffbdc8842180b90104414bf389000000000000000000000000201eba5cc46d216ce6dc03f6a759e8e766e956ae00000000000000000000000009bc4e0d864854c6afb6eb9a9cdf58ac190d0df900000000000000000000000000000000000000000000000000000000000000640000000000000000000000002605c77fd47caec8dfeae7ec40c42427b131721b0000000000000000000000000000000000000000000000000000000065243e5800000000000000000000000000000000000000000000000000000000000fde8000000000000000000000000000000000000000000000000000000000000f8e2c0000000000000000000000000000000000000000000000000000000000000000822734a010f256bc6c35301a6e824645528a76a90b62b6555cbb35dd6d94ec6e978d6735a055e39e789213a91b509793c9f4a35414b04b6abaa6916c2839a9a6fe68222ac3","s":"0x55e39e789213a91b509793c9f4a35414b04b6abaa6916c2839a9a6fe68222ac3","to":"0x319b69888b0d11cec22caa5034e25fffbdc88421","transactionIndex":"0x0","v":"0x2734","value":"0x0","contractAddress":null,"cumulativeGasUsed":"0x1fc88","daFee":"0x0","daGasPrice":"0x0","daGasUsed":"0x12c","gasUsed":"0x1fc88","l1Fee":"0x19709d787180660","l1FeeScalar":"1","l1GasPrice":"0x38a987f04864","l1GasUsed":"0x72f","logs":[{"address":"0x09bc4e0d864854c6afb6eb9a9cdf58ac190d0df9","blockHash":"0xb54ceb6a9a83c170d48115980dfedbd2f67f181588a6d76ad19b4ebfced56003","blockNumber":"0xd002c6","data":"0x00000000000000000000000000000000000000000000000000000000000fdf71","logIndex":"0x0","removed":false,"topics":["0xddf252ad1be2c89b69c2b068fc378daa952ba7f163c4a11628f55a4df523b3ef","0x0000000000000000000000006488f911c6cd86c289aa319c5a826dcf8f1ca065","0x0000000000000000000000002605c77fd47caec8dfeae7ec40c42427b131721b"],"transactionHash":"0x19e9225f426685bfcef87c35cb318862bdf1156b32e9a9ef416093c25fb42b21","transactionIndex":"0x0"},{"address":"0x201eba5cc46d216ce6dc03f6a759e8e766e956ae","blockHash":"0xb54ceb6a9a83c170d48115980dfedbd2f67f181588a6d76ad19b4ebfced56003","blockNumber":"0xd002c6","data":"0x00000000000000000000000000000000000000000000000000000000000fde80","logIndex":"0x1","removed":false,"topics":["0xddf252ad1be2c89b69c2b068fc378daa952ba7f163c4a11628f55a4df523b3ef","0x0000000000000000000000002605c77fd47caec8dfeae7ec40c42427b131721b","0x0000000000000000000000006488f911c6cd86c289aa319c5a826dcf8f1ca065"],"transactionHash":"0x19e9225f426685bfcef87c35cb318862bdf1156b32e9a9ef416093c25fb42b21","transactionIndex":"0x0"},{"address":"0x201eba5cc46d216ce6dc03f6a759e8e766e956ae","blockHash":"0xb54ceb6a9a83c170d48115980dfedbd2f67f181588a6d76ad19b4ebfced56003","blockNumber":"0xd002c6","data":"0xffffffffffffffffffffffffffffffffffffffffffffffffffffffff8ec09b1f","logIndex":"0x2","removed":false,"topics":["0x8c5be1e5ebec7d5bd14f71427d1e84f3dd0314c0f7b2291e5b200ac8c7c3b925","0x0000000000000000000000002605c77fd47caec8dfeae7ec40c42427b131721b","0x000000000000000000000000319b69888b0d11cec22caa5034e25fffbdc88421"],"transactionHash":"0x19e9225f426685bfcef87c35cb318862bdf1156b32e9a9ef416093c25fb42b21","transactionIndex":"0x0"},{"address":"0x6488f911c6cd86c289aa319c5a826dcf8f1ca065","blockHash":"0xb54ceb6a9a83c170d48115980dfedbd2f67f181588a6d76ad19b4ebfced56003","blockNumber":"0xd002c6","data":"0xfffffffffffffffffffffffffffffffffffffffffffffffffffffffffff0208f00000000000000000000000000000000000000000000000000000000000fde800000000000000000000000000000000000000000fff5219b2e48e9bc4395c1860000000000000000000000000000000000000000000000000000aa91ae904e92fffffffffffffffffffffffffffffffffffffffffffffffffffffffffffffffc00000000000000000000000000000000000000000000000000000000000000000000000000000000000000000000000000000000000000000000000000000022","logIndex":"0x3","removed":false,"topics":["0x19b47279256b2a23a1665c810c8d55a1758940ee09377d4f8d26497a3577dc83","0x000000000000000000000000319b69888b0d11cec22caa5034e25fffbdc88421","0x0000000000000000000000002605c77fd47caec8dfeae7ec40c42427b131721b"],"transactionHash":"0x19e9225f426685bfcef87c35cb318862bdf1156b32e9a9ef416093c25fb42b21","transactionIndex":"0x0"}],"logsBloom":"0x0000000000000000000000000000000000004000000100880000000000000000000000000000000000000000000200000000000000220000000000000020000004800000204400000000080800000000000000c000002000000000000000000000000000000000000000000000000000000000100000800000000010000000000000000000000000000000000000000000000000000000000000000000000000020000000000000000000000000000000000000001000000000000000000000000000002000000000000000000000000002000000000000000000000000000000010000000000000000000000000000000000000000010000000000000000000","status":"0x1","transactionHash":"0x19e9225f426685bfcef87c35cb318862bdf1156b32e9a9ef416093c25fb42b21"}}}