{"block":{"difficulty":"0x2","extraData":"0xd98301090a846765746889676f312e31352e3133856c696e7578000000000000fff34877b666693cca260a61c134c56e482beac21dc91f50747f3aa87e01b7bc2ab255c0c1c1e054ce9fb412bffb8c2de078dbd990be6a350041fef6e98312c200","gasLimit":"0x1c9c380","gasUsed":"0x1e211","hash":"0xf5f3b46bdd29140d0fa7d4648478d1201555002515d6ecdbc65a4501d2ad3798","logsBloom":"0x40000008000000000000000000000000000000000001008800000000000000000000000000000000000000000002000000000000000000000000000000200000840000040040000000000008000000000000008000002004000000000000000000000001000000000000000100000000000000000000000000000010000000000000000000000000000000000000000000000000000000000008000000000000020000000000000000000000000000000000000001000020000100000000000000000002000000000000000000000000000000000000000000000000000000000010000000001000000000000400000000000000000000000000000000000000","miner":"0x0000000000000000000000000000000000000000","mixHash":"0x0000000000000000000000000000000000000000000000000000000000000000","nonce":"0x0000000000000000","number":"0xd00133","parentHash":"0x92ae3bf7001de600dc8566ff2ba30693f0cb02116c4ca046a0917e2c2405fc26","receiptsRoot":"0x117216d096437cd46cce4a6aa63a1a7269e3367a4d1f694a72c7a7a91ded2c51","sha3Uncles":"0x1dcc4de8dec75d7aab85b567b6ccd41ad312451b948a7413f0a142fd40d49347","size":"0x3d8","stateRoot":"0x59219709460f904de2db80a4eeef8abc104146fcf85da10711e0a38843c95ba5","timestamp":"0x65243d5e","totalDifficulty":"0x1a00267","transactions":[{"blockHash":"0xf5f3b46bdd29140d0fa7d4648478d1201555002515d6ecdbc65a4501d2ad3798","blockNumber":"0xd00133","from":"0xe1d5a6d4e9cbde4a39b9ba28ed81201565495573","gas":"0x1f9ae","gasPrice":"0x2faf080","hash":"0xcae347d5e42d0721e5f000c7961e61a00c67fd90aeb5c27f02968e3fad1f934d","index":"0xd00132","input":"0x414bf389000000000000000000000000201eba5cc46d216ce6dc03f6a759e8e766e956ae000000000000000000000000deaddeaddeaddeaddeaddeaddeaddeaddead111100000000000000000000000000000000000000000000000000000000000001f4000000000000000000000000e1d5a6d4e9cbde4a39b9ba28ed812015654955730000000000000000000000000000000000000000000000000000000065243d7c00000000000000000000000000000000000000000000000000000000001339e00000000000000000000000000000000000000000000000000002c1410f0fdca90000000000000000000000000000000000000000000000000000000000000000","l1BlockNumber":"0x11774d0","l1Timestamp":"0x65243d5e","l1TxOrigin":null,"nonce":"0x1137","queueIndex":null,"queueOrigin":"sequencer","r":"0xfc2ab351cdc1894a0cc43c87d18f3d3913ad55ed61f5dc6c0b07f88c6ff2193e","rawTransaction":"0xf9016e8211378402faf0808301f9ae94319b69888b0d11cec22caa5034e25fffbdc8842180b90104414bf389000000000000000000000000201eba5cc46d216ce6dc03f6a759e8e766e956ae000000000000000000000000deaddeaddeaddeaddeaddeaddeaddeaddead111100000000000000000000000000000000000000000000000000000000000001f4000000000000000000000000e1d5a6d4e9cbde4a39b9ba28ed812015654955730000000000000000000000000000000000000000000000000000000065243d7c00000000000000000000000000000000000000000000000000000000001339e00000000000000000000000000000000000000000000000000002c1410f0fdca90000000000000000000000000000000000000000000000000000000000000000822734a0fc2ab351cdc1894a0cc43c87d18f3d3913ad55ed61f5dc6c0b07f88c6ff2193ea029f024610c6d4b4def71a8775ad2d3566b218e7dfb65dfe513c2e973d5b9894f","s":"0x29f024610c6d4b4def71a8775ad2d3566b218e7dfb65dfe513c2e973d5b9894f","to":"0x319b69888b0d11cec22caa5034e25fffbdc88421","transactionIndex":"0x0","v":"0x2734","value":"0x0"}],"transactionsRoot":"0xfcc30d33ff51871ae99cce1687f8704dd5b9b5022c23aaf8a5875f7213a075e1","uncles":[]},"receipts":{"0xcae347d5e42d0721e5f000c7961e61a00c67fd90aeb5c27f02968e3fad1f934d":{"blockHash":"0xf5f3b46bdd29140d0fa7d4648478d1201555002515d6ecdbc65a4501d2ad3798","blockNumber":"0xd00133","from":"0xe1d5a6d4e9cbde4a39b9ba28ed81201565495573","gas":"0x1f9ae","gasPrice":"0x2faf080","hash":"0xcae347d5e42d0721e5f000c7961e61a00c67fd90aeb5c27f02968e3fad1f934d","index":"0xd00132","input":"0x414bf389000000000000000000000000201eba5cc46d216ce6dc03f6a759e8e766e956ae000000000000000000000000deaddeaddeaddeaddeaddeaddeaddeaddead111100000000000000000000000000000000000000000000000000000000000001f4000000000000000000000000e1d5a6d4e9cbde4a39b9ba28ed812015654955730000000000000000000000000000000000000000000000000000000065243d7c00000000000000000000000000000000000000000000000000000000001339e00000000000000000000000000000000000000000000000000002c1410f0fdca90000000000000000000000000000000000000000000000000000000000000000","l1BlockNumber":"0x11774d0","l1Timestamp":"0x65243d5e","l1TxOrigin":null,"nonce":"0x1137","queueIndex":null,"queueOrigin":"sequencer","r":"0xfc2ab351cdc1894a0cc43c87d18f3d3913ad55ed61f5dc6c0b07f88c6ff2193e","rawTransaction":"0xf9016e8211378402faf0808301f9ae94319b69888b0d11cec22caa5034e25fffbdc8842180b90104414bf389000000000000000000000000201eba5cc46d216ce6dc03f6a759e8e766e956ae000000000000000000000000deaddeaddeaddeaddeaddeaddeaddeaddead111100000000000000000000000000000000000000000000000000000000000001f4000000000000000000000000e1d5a6d4e9cbde4a39b9ba28ed812015654955730000000000000000000000000000000000000000000000000000000065243d7c00000000000000000000000000000000000000000000000000000000001339e00000000000000000000000000000000000000000000000000002c1410f0fdca90000000000000000000000000000000000000000000000000000000000000000822734a0fc2ab351cdc1894a0cc43c87d18f3d3913ad55ed61f5dc6c0b07f88c6ff2193ea029f024610c6d4b4def71a8775ad2d3566b218e7dfb65dfe513c2e973d5b9894f","s":"0x29f024610c6d4b4def71a8775ad2d3566b218e7dfb65dfe513c2e973d5b9894f","to":"0x319b69888b0d11cec22caa5034e25fffbdc88421","transactionIndex":"0x0","v":"0x2734","value":"0x0","contractAddress":null,"cumulativeGasUsed":"0x1e211","daFee":"0x0","daGasPrice":"0x0","daGasUsed":"0x12c","gasUsed":"0x1e211","l1Fee":"0x1a09f6380cb9fe0","l1FeeScalar":"1","l1GasPrice":"0x39ff1464e55c","l1GasUsed":"0x72f","logs":[{"address":"0xdeaddeaddeaddeaddeaddeaddeaddeaddead1111","blockHash":"0xf5f3b46bdd29140d0fa7d4648478d1201555002515d6ecdbc65a4501d2ad3798","blockNumber":"0xd00133","data":"0x0000000000000000000000000000000000000000000000000002cfa5a6e12a4f","logIndex":"0x0","removed":false,"topics":["0xddf252ad1be2c89b69c2b068fc378daa952ba7f163c4a11628f55a4df523b3ef","0x000000000000000000000000628f7131cf43e88ebe3921ae78c4ba0c31872bd4","0x000000000000000000000000e1d5a6d4e9cbde4a39b9ba28ed81201565495573"],"transactionHash":"0xcae347d5e42d0721e5f000c7961e61a00c67fd90aeb5c27f02968e3fad1f934d","transactionIndex":"0x0"},{"address":"0x201eba5cc46d216ce6dc03f6a759e8e766e956ae","blockHash":"0xf5f3b46bdd29140d0fa7d4648478d1201555002515d6ecdbc65a4501d2ad3798","blockNumber":"0xd00133","data":"0x00000000000000000000000000000000000000000000000000000000001339e0","logIndex":"0x1","removed":false,"topics":["0xddf252ad1be2c89b69c2b068fc378daa952ba7f163c4a11628f55a4df523b3ef","0x000000000000000000000000e1d5a6d4e9cbde4a39b9ba28ed81201565495573","0x000000000000000000000000628f7131cf43e88ebe3921ae78c4ba0c31872bd4"],"transactionHash":"0xcae347d5e42d0721e5f000c7961e61a00c67fd90aeb5c27f02968e3fad1f934d","transactionIndex":"0x0"},{"address":"0x201eba5cc46d216ce6dc03f6a759e8e766e956ae","blockHash":"0xf5f3b46bdd29140d0fa7d4648478d1201555002515d6ecdbc65a4501d2ad3798","blockNumber":"0xd00133","data":"0xffffffffffffffffffffffffffffffffffffffffffffffffffffffff8b08ea4f","logIndex":"0x2","removed":false,"topics":["0x8c5be1e5ebec7d5bd14f71427d1e84f3dd0314c0f7b2291e5b200ac8c7c3b925","0x000000000000000000000000e1d5a6d4e9cbde4a39b9ba28ed81201565495573","0x000000000000000000000000319b69888b0d11cec22caa5034e25fffbdc88421"],"transactionHash":"0xcae347d5e42d0721e5f000c7961e61a00c67fd90aeb5c27f02968e3fad1f934d","transactionIndex":"0x0"},{"address":"0x628f7131cf43e88ebe3921ae78c4ba0c31872bd4","blockHash":"0xf5f3b46bdd29140d0fa7d4648478d1201555002515d6ecdbc65a4501d2ad3798","blockNumber":"0xd00133","data":"0x00000000000000000000000000000000000000000000000000000000001339e0fffffffffffffffffffffffffffffffffffffffffffffffffffd305a591ed5b100000000000000000000000000000000000061e1c7deaca1afe791f80d2a6b9e00000000000000000000000000000000000000000000000000002c65dde06c20000000000000000000000000000000000000000000000000000000000003175c00000000000000000000000000000000000000000000000000000000000000d60000000000000000000000000000000000000000000000000000000000000000","logIndex":"0x3","removed":false,"topics":["0x19b47279256b2a23a1665c810c8d55a1758940ee09377d4f8d26497a3577dc83","0x000000000000000000000000319b69888b0d11cec22caa5034e25fffbdc88421","0x000000000000000000000000e1d5a6d4e9cbde4a39b9ba28ed81201565495573"],"transactionHash":"0xcae347d5e42d0721e5f000c7961e61a00c67fd90aeb5c27f02968e3fad1f934d","transactionIndex":"0x0"}],"logsBloom":"0x40000008000000000000000000000000000000000001008800000000000000000000000000000000000000000002000000000000000000000000000000200000840000040040000000000008000000000000008000002004000000000000000000000001000000000000000100000000000000000000000000000010000000000000000000000000000000000000000000000000000000000008000000000000020000000000000000000000000000000000000001000020000100000000000000000002000000000000000000000000000000000000000000000000000000000010000000001000000000000400000000000000000000000000000000000000","status":"0x1","transactionHash":"0xcae347d5e42d0721e5f000c7961e61a00c67fd90aeb5c27f02968e3fad1f934d"}}}