{"block":{"difficulty":"0x2","extraData":"0xd98301090a846765746889676f312e31352e3133856c696e757800000000000061a616619fc2d8869d992fd1a10cad8c1939ec598590c4829cb6eb965d2376bc630712d6caf9aa0b1a1c47362968e62dd6d3b37ac84ad7ab687cbe7f08d2654201","gasLimit":"0x1c9c380","gasUsed":"0x3d3d7","hash":"0xfe3bb8267f48b9b6e9d9dadf653153da979b6e5ad90007f36e7e395b59b785d6","logsBloom":"0x00000000000000000000100800000000000000000001000001002000000000000000000000010000000400000020000000000000080000000200000011200000100000000000000000000008000000000000008000042000000000008000000000000000020000000000000000000800020a00000000000000000010000000000000000008000000000000000000080000100001000000000000000000000000020000000000000000000000000400008400000000000000000008000000000000200002000000020000080210000000000000000000000000000000000020000010000080000000090000000000000000000040000000400000000000002000","miner":"0x0000000000000000000000000000000000000000","mixHash":"0x0000000000000000000000000000000000000000000000000000000000000000","nonce":"0x0000000000000000","number":"0xd00056","parentHash":"0x110d7a616763e76a86b8c24dfb6def1d3dca47e4dfa384cf9c8ac34ed7fb2537","receiptsRoot":"0xdc17aee0ce0174dcf82bc0e9009f2e4bd1ec6d75cabfcab13938f3e66b069fe1","sha3Uncles":"0x1dcc4de8dec75d7aab85b567b6ccd41ad312451b948a7413f0a142fd40d49347","size":"0x49e","stateRoot":"0x46085b05c85564e97740fa4488b26dd68e066080ec16d2f8b922cd5659c10765","timestamp":"0x65243cf2","totalDifficulty":"0x1a000ad","transactions":[{"blockHash":"0xfe3bb8267f48b9b6e9d9dadf653153da979b6e5ad90007f36e7e395b59b785d6","blockNumber":"0xd00056","from":"0x5fba920a9bb31f90074756ca737acbb2d9c9afd6","gas":"0x648fc","gasPrice":"0x2faf080","hash":"0xbcccb256a7d7d5c9636b3a7651ea6e26fd6f6f2ad15d6c78741b7047cad7596c","index":"0xd00055","input":"0xac9650d8000000000000000000000000000000000000000000000000000000000000002000000000000000000000000000000000000000000000000000000000000000020000000000000000000000000000000000000000000000000000000000000040000000000000000000000000000000000000000000000000000000000000014000000000000000000000000000000000000000000000000000000000000000c4cbd89416000000000000000000000000000000000000000000000000000000000000aa840000000000000000000000000000000000000000000000000000000000061a800000000000000000000000000000000000000000000000001fe040acce0e8e4b00000000000000000000000000000000000000000000000000000000000603100000000000000000000000000000000000000000000000001f65d94e0d86a852000000000000000000000000000000000000000000000000000000006955b90000000000000000000000000000000000000000000000000000000000000000000000000000000000000000000000000000000000000000000000000412210e8a00000000000000000000000000000000000000000000000000000000","l1BlockNumber":"0x11774c7","l1Timestamp":"0x65243cf2","l1TxOrigin":null,"nonce":"0x5e","queueIndex":null,"queueOrigin":"sequencer","r":"0xc23c98384e7033cf998b26b098ee90bd299045449f9c5c78798f42354def3f24","rawTransaction":"0xf902345e8402faf080830648fc94611575ee1fbd4f7915d0eabcc518ed396ff78f0c881fe040acce0e8e4bb901c4ac9650d8000000000000000000000000000000000000000000000000000000000000002000000000000000000000000000000000000000000000000000000000000000020000000000000000000000000000000000000000000000000000000000000040000000000000000000000000000000000000000000000000000000000000014000000000000000000000000000000000000000000000000000000000000000c4cbd89416000000000000000000000000000000000000000000000000000000000000aa840000000000000000000000000000000000000000000000000000000000061a800000000000000000000000000000000000000000000000001fe040acce0e8e4b00000000000000000000000000000000000000000000000000000000000603100000000000000000000000000000000000000000000000001f65d94e0d86a852000000000000000000000000000000000000000000000000000000006955b90000000000000000000000000000000000000000000000000000000000000000000000000000000000000000000000000000000000000000000000000412210e8a00000000000000000000000000000000000000000000000000000000822734a0c23c98384e7033cf998b26b098ee90bd299045449f9c5c78798f42354def3f24a02c611cdec70f103619b20a99e564c4f94da34ef22e43c4ef63b66619c2766a09","s":"0x2c611cdec70f103619b20a99e564c4f94da34ef22e43c4ef63b66619c2766a09","to":"0x611575ee1fbd4f7915d0eabcc518ed396ff78f0c","transactionIndex":"0x0","v":"0x2734","value":"0x1fe040acce0e8e4b"}],"transactionsRoot":"0xb8273fe20e43af731fb07353a39f2460fa2e8812973ecc5725868b4f8d371553","uncles":[]},"receipts":{"0xbcccb256a7d7d5c9636b3a7651ea6e26fd6f6f2ad15d6c78741b7047cad7596c":{"blockHash":"0xfe3bb8267f48b9b6e9d9dadf653153da979b6e5ad90007f36e7e395b59b785d6","blockNumber":"0xd00056","from":"0x5fba920a9bb31f90074756ca737acbb2d9c9afd6","gas":"0x648fc","gasPrice":"0x2faf080","hash":"0xbcccb256a7d7d5c9636b3a7651ea6e26fd6f6f2ad15d6c78741b7047cad7596c","index":"0xd00055","input":"0xac9650d8000000000000000000000000000000000000000000000000000000000000002000000000000000000000000000000000000000000000000000000000000000020000000000000000000000000000000000000000000000000000000000000040000000000000000000000000000000000000000000000000000000000000014000000000000000000000000000000000000000000000000000000000000000c4cbd89416000000000000000000000000000000000000000000000000000000000000aa840000000000000000000000000000000000000000000000000000000000061a800000000000000000000000000000000000000000000000001fe040acce0e8e4b00000000000000000000000000000000000000000000000000000000000603100000000000000000000000000000000000000000000000001f65d94e0d86a852000000000000000000000000000000000000000000000000000000006955b90000000000000000000000000000000000000000000000000000000000000000000000000000000000000000000000000000000000000000000000000412210e8a00000000000000000000000000000000000000000000000000000000","l1BlockNumber":"0x11774c7","l1Timestamp":"0x65243cf2","l1TxOrigin":null,"nonce":"0x5e","queueIndex":null,"queueOrigin":"sequencer","r":"0xc23c98384e7033cf998b26b098ee90bd299045449f9c5c78798f42354def3f24","rawTransaction":"0xf902345e8402faf080830648fc94611575ee1fbd4f7915d0eabcc518ed396ff78f0c881fe040acce0e8e4bb901c4ac9650d8000000000000000000000000000000000000000000000000000000000000002000000000000000000000000000000000000000000000000000000000000000020000000000000000000000000000000000000000000000000000000000000040000000000000000000000000000000000000000000000000000000000000014000000000000000000000000000000000000000000000000000000000000000c4cbd89416000000000000000000000000000000000000000000000000000000000000aa840000000000000000000000000000000000000000000000000000000000061a800000000000000000000000000000000000000000000000001fe040acce0e8e4b00000000000000000000000000000000000000000000000000000000000603100000000000000000000000000000000000000000000000001f65d94e0d86a852000000000000000000000000000000000000000000000000000000006955b90000000000000000000000000000000000000000000000000000000000000000000000000000000000000000000000000000000000000000000000000412210e8a00000000000000000000000000000000000000000000000000000000822734a0c23c98384e7033cf998b26b098ee90bd299045449f9c5c78798f42354def3f24a02c611cdec70f103619b20a99e564c4f94da34ef22e43c4ef63b66619c2766a09","s":"0x2c611cdec70f103619b20a99e564c4f94da34ef22e43c4ef63b66619c2766a09","to":"0x611575ee1fbd4f7915d0eabcc518ed396ff78f0c","transactionIndex":"0x0","v":"0x2734","value":"0x1fe040acce0e8e4b","contractAddress":null,"cumulativeGasUsed":"0x3d3d7","daFee":"0x0","daGasPrice":"0x0","daGasUsed":"0x1f2","gasUsed":"0x3d3d7","l1Fee":"0x1a09f6380cb9fe0","l1FeeScalar":"1","l1GasPrice":"0x39ff1464e55c","l1GasUsed":"0x72f","logs":[{"address":"0x201eba5cc46d216ce6dc03f6a759e8e766e956ae","blockHash":"0xfe3bb8267f48b9b6e9d9dadf653153da979b6e5ad90007f36e7e395b59b785d6","blockNumber":"0xd00056","data":"0x0000000000000000000000000000000000000000000000000000000000061a80","logIndex":"0x0","removed":false,"topics":["0xddf252ad1be2c89b69c2b068fc378daa952ba7f163c4a11628f55a4df523b3ef","0x0000000000000000000000005fba920a9bb31f90074756ca737acbb2d9c9afd6","0x000000000000000000000000526b6aec7b922c4268d7fc14a755e233457078cc"],"transactionHash":"0xbcccb256a7d7d5c9636b3a7651ea6e26fd6f6f2ad15d6c78741b7047cad7596c","transactionIndex":"0x0"},{"address":"0x201eba5cc46d216ce6dc03f6a759e8e766e956ae","blockHash":"0xfe3bb8267f48b9b6e9d9dadf653153da979b6e5ad90007f36e7e395b59b785d6","blockNumber":"0xd00056","data":"0x000000000000000000000000000000000000000000000000000000000014102f","logIndex":"0x1","removed":false,"topics":["0x8c5be1e5ebec7d5bd14f71427d1e84f3dd0314c0f7b2291e5b200ac8c7c3b925","0x0000000000000000000000005fba920a9bb31f90074756ca737acbb2d9c9afd6","0x000000000000000000000000611575ee1fbd4f7915d0eabcc518ed396ff78f0c"],"transactionHash":"0xbcccb256a7d7d5c9636b3a7651ea6e26fd6f6f2ad15d6c78741b7047cad7596c","transactionIndex":"0x0"},{"address":"0x78c1b0c915c4faa5fffa6cabf0219da63d7f4cb8","blockHash":"0xfe3bb8267f48b9b6e9d9dadf653153da979b6e5ad90007f36e7e395b59b785d6","blockNumber":"0xd00056","data":"0x0000000000000000000000000000000000000000000000001fe040ac9e79c291","logIndex":"0x2","removed":false,"topics":["0xddf252ad1be2c89b69c2b068fc378daa952ba7f163c4a11628f55a4df523b3ef","0x0000000000000000000000000000000000000000000000000000000000000000","0x000000000000000000000000611575ee1fbd4f7915d0eabcc518ed396ff78f0c"],"transactionHash":"0xbcccb256a7d7d5c9636b3a7651ea6e26fd6f6f2ad15d6c78741b7047cad7596c","transactionIndex":"0x0"},{"address":"0x78c1b0c915c4faa5fffa6cabf0219da63d7f4cb8","blockHash":"0xfe3bb8267f48b9b6e9d9dadf653153da979b6e5ad90007f36e7e395b59b785d6","blockNumber":"0xd00056","data":"0x0000000000000000000000000000000000000000000000001fe040ac9e79c291","logIndex":"0x3","removed":false,"topics":["0xe1fffcc4923d04b559f4d29a8bfc6cda04eb5b0d3c460751c2402c5c5cc9109c","0x000000000000000000000000611575ee1fbd4f7915d0eabcc518ed396ff78f0c"],"transactionHash":"0xbcccb256a7d7d5c9636b3a7651ea6e26fd6f6f2ad15d6c78741b7047cad7596c","transactionIndex":"0x0"},{"address":"0x78c1b0c915c4faa5fffa6cabf0219da63d7f4cb8","blockHash":"0xfe3bb8267f48b9b6e9d9dadf653153da979b6e5ad90007f36e7e395b59b785d6","blockNumber":"0xd00056","data":"0x0000000000000000000000000000000000000000000000001fe040ac9e79c291","logIndex":"0x4","removed":false,"topics":["0xddf252ad1be2c89b69c2b068fc378daa952ba7f163c4a11628f55a4df523b3ef","0x000000000000000000000000611575ee1fbd4f7915d0eabcc518ed396ff78f0c","0x000000000000000000000000526b6aec7b922c4268d7fc14a755e233457078cc"],"transactionHash":"0xbcccb256a7d7d5c9636b3a7651ea6e26fd6f6f2ad15d6c78741b7047cad7596c","transactionIndex":"0x0"},{"address":"0x526b6aec7b922c4268d7fc14a755e233457078cc","blockHash":"0xfe3bb8267f48b9b6e9d9dadf653153da979b6e5ad90007f36e7e395b59b785d6","blockNumber":"0xd00056","data":"0x000000000000000000000000611575ee1fbd4f7915d0eabcc518ed396ff78f0c0000000000000000000000000000000000000000000000000000000039979d780000000000000000000000000000000000000000000000000000000000061a800000000000000000000000000000000000000000000000001fe040ac9e79c291","logIndex":"0x5","removed":false,"topics":["0x7a53080ba414158be7ec69b987b5fb7d07dee101fe85488f0853ae16239d0bde","0x000000000000000000000000611575ee1fbd4f7915d0eabcc518ed396ff78f0c","0x00000000000000000000000000000000000000000000000000000000000457b8","0x0000000000000000000000000000000000000000000000000000000000046050"],"transactionHash":"0xbcccb256a7d7d5c9636b3a7651ea6e26fd6f6f2ad15d6c78741b7047cad7596c","transactionIndex":"0x0"},{"address":"0x611575ee1fbd4f7915d0eabcc518ed396ff78f0c","blockHash":"0xfe3bb8267f48b9b6e9d9dadf653153da979b6e5ad90007f36e7e395b59b785d6","blockNumber":"0xd00056","data":"0x000000000000000000000000526b6aec7b922c4268d7fc14a755e233457078cc0000000000000000000000000000000000000000000000000000000039979d780000000000000000000000000000000000000000000000000000000000061a800000000000000000000000000000000000000000000000001fe040ac9e79c291","logIndex":"0x6","removed":false,"topics":["0xf565fdd70b3936f0ae8efc41c2e0822f9de5ecb4dc162b153b129ec4bb9cd93c","0x000000000000000000000000000000000000000000000000000000000000aa84"],"transactionHash":"0xbcccb256a7d7d5c9636b3a7651ea6e26fd6f6f2ad15d6c78741b7047cad7596c","transactionIndex":"0x0"}],"logsBloom":"0x00000000000000000000100800000000000000000001000001002000000000000000000000010000000400000020000000000000080000000200000011200000100000000000000000000008000000000000008000042000000000008000000000000000020000000000000000000800020a00000000000000000010000000000000000008000000000000000000080000100001000000000000000000000000020000000000000000000000000400008400000000000000000008000000000000200002000000020000080210000000000000000000000000000000000020000010000080000000090000000000000000000040000000400000000000002000","status":"0x1","transactionHash":"0xbcccb256a7d7d5c9636b3a7651ea6e26fd6f6f2ad15d6c78741b7047cad7596c"}}}