{"block":{"difficulty":"0x2","extraData":"0xd98301090a846765746889676f312e31352e3133856c696e7578000000000000be803768504d53a7f2dae937063bfc5c809a2f4611526335dabf2545a806011a5b645af4d30a8f85c6d36634f1a11aaf0d082d9718af38881de03aa277446f8301","gasLimit":"0x1c9c380","gasUsed":"0xa74e","hash":"0xad760cea43a9e9b6708c57f9fc53da27e658ff0cf900ad0033f9f5fa40950800","logsBloom":"0x00000000040000000000000000000000000000000004000000000000000000000000000000000000000000000000000000000000002000000080000000200000000000000000000000000000000000000000004000000000000000000000000000000000000000000000000000000000000000100000000000000000004000000000000000000000000000000000000000000000000000000000000000000000020001000000000000000000000000000000000000000000000000000000000000000001000000000000000000000000000000000000000000000000000000000010000000000000000000000000000000000000000000000000000000000000","miner":"0x0000000000000000000000000000000000000000","mixHash":"0x0000000000000000000000000000000000000000000000000000000000000000","nonce":"0x0000000000000000","number":"0xcff385","parentHash":"0xa50112b337f3e5d908ec16453c168107615478cd3c56d5d9cb557780d92b9729","receiptsRoot":"0x2aab5bd8ccc0b6f1fabbef055963d0239629ba5ab1a05d16191776ef2871341b","sha3Uncles":"0x1dcc4de8dec75d7aab85b567b6ccd41ad312451b948a7413f0a142fd40d49347","size":"0x312","stateRoot":"0x8017c1cb03ada58d389d30f6c92fdc210860acf5e6aaf7bcf23cfdcf36f66dee","timestamp":"0x65243743","totalDifficulty":"0x19fe70b","transactions":[{"blockHash":"0xad760cea43a9e9b6708c57f9fc53da27e658ff0cf900ad0033f9f5fa40950800","blockNumber":"0xcff385","from":"0x0ed94ddc597721a976d86a5d2be11d0d445dffb9","gas":"0xa804","gasPrice":"0x2faf080","hash":"0xf8ac28e65073510197158f63c33b8aaccc06b4017e06373df3413a7e25c467ac","index":"0xcff384","input":"0x095ea7b300000000000000000000000025c030116feb2e7bba054b9de0915e5f51b03e310000000000000000000000000000000000000000000000000000000000f8fb72","l1BlockNumber":"0x117744e","l1Timestamp":"0x65243743","l1TxOrigin":null,"nonce":"0xbf","queueIndex":null,"queueOrigin":"sequencer","r":"0xc1d30dd5459fefdd9d0e78c48f651386906303745e800b01f79ada13d65d7e22","rawTransaction":"0xf8ab81bf8402faf08082a8049409bc4e0d864854c6afb6eb9a9cdf58ac190d0df980b844095ea7b300000000000000000000000025c030116feb2e7bba054b9de0915e5f51b03e310000000000000000000000000000000000000000000000000000000000f8fb72822734a0c1d30dd5459fefdd9d0e78c48f651386906303745e800b01f79ada13d65d7e22a05e88563eb702eb90c5a8d7697445f6f5aaefecd5b15e94c256ab5f901ebd6392","s":"0x5e88563eb702eb90c5a8d7697445f6f5aaefecd5b15e94c256ab5f901ebd6392","to":"0x09bc4e0d864854c6afb6eb9a9cdf58ac190d0df9","transactionIndex":"0x0","v":"0x2734","value":"0x0"}],"transactionsRoot":"0x6b9955c91b5ed0516992757411b8d2e9034a3441d4e4826f58fb7c84083c8e9e","uncles":[]},"receipts":{"0xf8ac28e65073510197158f63c33b8aaccc06b4017e06373df3413a7e25c467ac":{"blockHash":"0xad760cea43a9e9b6708c57f9fc53da27e658ff0cf900ad0033f9f5fa40950800","blockNumber":"0xcff385","from":"0x0ed94ddc597721a976d86a5d2be11d0d445dffb9","gas":"0xa804","gasPrice":"0x2faf080","hash":"0xf8ac28e65073510197158f63c33b8aaccc06b4017e06373df3413a7e25c467ac","index":"0xcff384","input":"0x095ea7b300000000000000000000000025c030116feb2e7bba054b9de0915e5f51b03e310000000000000000000000000000000000000000000000000000000000f8fb72","l1BlockNumber":"0x117744e","l1Timestamp":"0x65243743","l1TxOrigin":null,"nonce":"0xbf","queueIndex":null,"queueOrigin":"sequencer","r":"0xc1d30dd5459fefdd9d0e78c48f651386906303745e800b01f79ada13d65d7e22","rawTransaction":"0xf8ab81bf8402faf08082a8049409bc4e0d864854c6afb6eb9a9cdf58ac190d0df980b844095ea7b300000000000000000000000025c030116feb2e7bba054b9de0915e5f51b03e310000000000000000000000000000000000000000000000000000000000f8fb72822734a0c1d30dd5459fefdd9d0e78c48f651386906303745e800b01f79ada13d65d7e22a05e88563eb702eb90c5a8d7697445f6f5aaefecd5b15e94c256ab5f901ebd6392","s":"0x5e88563eb702eb90c5a8d7697445f6f5aaefecd5b15e94c256ab5f901ebd6392","to":"0x09bc4e0d864854c6afb6eb9a9cdf58ac190d0df9","transactionIndex":"0x0","v":"0x2734","value":"0x0","contractAddress":null,"cumulativeGasUsed":"0xa74e","daFee":"0x0","daGasPrice":"0x0","daGasUsed":"0x68","gasUsed":"0xa74e","l1Fee":"0x1c5145ff7a866d0","l1FeeScalar":"1","l1GasPrice":"0x3f1249c65230","l1GasUsed":"0x72f","logs":[{"address":"0x09bc4e0d864854c6afb6eb9a9cdf58ac190d0df9","blockHash":"0xad760cea43a9e9b6708c57f9fc53da27e658ff0cf900ad0033f9f5fa40950800","blockNumber":"0xcff385","data":"0x0000000000000000000000000000000000000000000000000000000000f8fb72","logIndex":"0x0","removed":false,"topics":["0x8c5be1e5ebec7d5bd14f71427d1e84f3dd0314c0f7b2291e5b200ac8c7c3b925","0x0000000000000000000000000ed94ddc597721a976d86a5d2be11d0d445dffb9","0x00000000000000000000000025c030116feb2e7bba054b9de0915e5f51b03e31"],"transactionHash":"0xf8ac28e65073510197158f63c33b8aaccc06b4017e06373df3413a7e25c467ac","transactionIndex":"0x0"}],"logsBloom":"0x00000000040000000000000000000000000000000004000000000000000000000000000000000000000000000000000000000000002000000080000000200000000000000000000000000000000000000000004000000000000000000000000000000000000000000000000000000000000000100000000000000000004000000000000000000000000000000000000000000000000000000000000000000000020001000000000000000000000000000000000000000000000000000000000000000001000000000000000000000000000000000000000000000000000000000010000000000000000000000000000000000000000000000000000000000000","status":"0x1","transactionHash":"0xf8ac28e65073510197158f63c33b8aaccc06b4017e06373df3413a7e25c467ac"}}}