{"block":{"difficulty":"0x2","extraData":"0xd98301090a846765746889676f312e31352e3133856c696e7578000000000000b1998e80b7b1975eac38ece29f068a730b2d51576620aaf2aff034da91258803704a9e187cbd7f675b6f5f978286aa1a3a012a24aac74096a0a6ccc40d36674901","gasLimit":"0x1c9c380","gasUsed":"0x527a1","hash":"0xa4adba9302ec47604ba79b3fcb7e709b47ab96ae0b0fa3d9d66497e721e7c824","logsBloom":"0x00001000000040000000100000000000000000000001000000000000000000000000000000000000000000000000000000000000000000002400000000200000100000000000000000000008000000000000008000042000000100008020000000000020420000000000000000000800010000000800000000000010000000000100080009000001000000000000000004100001000000000000000000000000020000004008000000800000000000000000000200000000000000000000000000000002000000008000080000000000800000000000000000000000000020000010000000000000000000000000000008000000400000400000000040010800","miner":"0x0000000000000000000000000000000000000000","mixHash":"0x0000000000000000000000000000000000000000000000000000000000000000","nonce":"0x0000000000000000","number":"0xcff38f","parentHash":"0x3535be20c352cf71bef493b28f6d090874434844f188400619d5eefe2a0d6886","receiptsRoot":"0x10535b607cf1504b4b248fa92319815b74a6576b2e24143b37a50fb4195bf20f","sha3Uncles":"0x1dcc4de8dec75d7aab85b567b6ccd41ad312451b948a7413f0a142fd40d49347","size":"0x53d","stateRoot":"0x4e3335aa92626f8dd15dcf3b7e0d85e8fdb67f74c97bfa2801d1688698dc407a","timestamp":"0x65243743","totalDifficulty":"0x19fe71f","transactions":[{"blockHash":"0xa4adba9302ec47604ba79b3fcb7e709b47ab96ae0b0fa3d9d66497e721e7c824","blockNumber":"0xcff38f","from":"0xe3fe821a54e4f2471fe12e96c811a9e23e39b691","gas":"0x8522d","gasPrice":"0x2faf080","hash":"0xa002d26bd713af3678d7772b596ddc00c379de9253f80d34ba841c2423735f6d","index":"0xcff38e","input":"0xac9650d800000000000000000000000000000000000000000000000000000000000000200000000000000000000000000000000000000000000000000000000000000002000000000000000000000000000000000000000000000000000000000000004000000000000000000000000000000000000000000000000000000000000001e0000000000000000000000000000000000000000000000000000000000000016488316456000000000000000000000000201eba5cc46d216ce6dc03f6a759e8e766e956ae00000000000000000000000078c1b0c915c4faa5fffa6cabf0219da63d7f4cb800000000000000000000000000000000000000000000000000000000000000640000000000000000000000000000000000000000000000000000000000045dce0000000000000000000000000000000000000000000000000000000000045de10000000000000000000000000000000000000000000000000000000000000c3e0000000000000000000000000000000000000000000000000023864714c8fdb900000000000000000000000000000000000000000000000000000000000000000000000000000000000000000000000000000000000000000000000000000000000000000000000000000000e3fe821a54e4f2471fe12e96c811a9e23e39b6910000000000000000000000000000000000000000000000000000000065243be400000000000000000000000000000000000000000000000000000000000000000000000000000000000000000000000000000000000000000000000463f5daa500000000000000000000000000000000000000000000000000000000","l1BlockNumber":"0x117744e","l1Timestamp":"0x65243743","l1TxOrigin":null,"nonce":"0x4e","queueIndex":null,"queueOrigin":"sequencer","r":"0x18a930fbb216122731d679f4a2593391f0cff2011b65416d1b5d9ee98813b64d","rawTransaction":"0xf902d34e8402faf0808308522d94218bf598d1453383e2f4aa7b14ffb9bfb102d6378723864714c8fdb9b90264ac9650d800000000000000000000000000000000000000000000000000000000000000200000000000000000000000000000000000000000000000000000000000000002000000000000000000000000000000000000000000000000000000000000004000000000000000000000000000000000000000000000000000000000000001e0000000000000000000000000000000000000000000000000000000000000016488316456000000000000000000000000201eba5cc46d216ce6dc03f6a759e8e766e956ae00000000000000000000000078c1b0c915c4faa5fffa6cabf0219da63d7f4cb800000000000000000000000000000000000000000000000000000000000000640000000000000000000000000000000000000000000000000000000000045dce0000000000000000000000000000000000000000000000000000000000045de10000000000000000000000000000000000000000000000000000000000000c3e0000000000000000000000000000000000000000000000000023864714c8fdb900000000000000000000000000000000000000000000000000000000000000000000000000000000000000000000000000000000000000000000000000000000000000000000000000000000e3fe821a54e4f2471fe12e96c811a9e23e39b6910000000000000000000000000000000000000000000000000000000065243be400000000000000000000000000000000000000000000000000000000000000000000000000000000000000000000000000000000000000000000000463f5daa500000000000000000000000000000000000000000000000000000000822733a018a930fbb216122731d679f4a2593391f0cff2011b65416d1b5d9ee98813b64da07804723ea8941670bc971c600e95a572839be8345904f57a3d30e974ec09b2f4","s":"0x7804723ea8941670bc971c600e95a572839be8345904f57a3d30e974ec09b2f4","to":"0x218bf598d1453383e2f4aa7b14ffb9bfb102d637","transactionIndex":"0x0","v":"0x2733","value":"0x23864714c8fdb9"}],"transactionsRoot":"0xa6ff643d1f0df23b0c1002c99040c54cc0c90c9b74d07bd8a4508e73ac7ce4f0","uncles":[]},"receipts":{"0xa002d26bd713af3678d7772b596ddc00c379de9253f80d34ba841c2423735f6d":{"blockHash":"0xa4adba9302ec47604ba79b3fcb7e709b47ab96ae0b0fa3d9d66497e721e7c824","blockNumber":"0xcff38f","from":"0xe3fe821a54e4f2471fe12e96c811a9e23e39b691","gas":"0x8522d","gasPrice":"0x2faf080","hash":"0xa002d26bd713af3678d7772b596ddc00c379de9253f80d34ba841c2423735f6d","index":"0xcff38e","input":"0xac9650d800000000000000000000000000000000000000000000000000000000000000200000000000000000000000000000000000000000000000000000000000000002000000000000000000000000000000000000000000000000000000000000004000000000000000000000000000000000000000000000000000000000000001e0000000000000000000000000000000000000000000000000000000000000016488316456000000000000000000000000201eba5cc46d216ce6dc03f6a759e8e766e956ae00000000000000000000000078c1b0c915c4faa5fffa6cabf0219da63d7f4cb800000000000000000000000000000000000000000000000000000000000000640000000000000000000000000000000000000000000000000000000000045dce0000000000000000000000000000000000000000000000000000000000045de10000000000000000000000000000000000000000000000000000000000000c3e0000000000000000000000000000000000000000000000000023864714c8fdb900000000000000000000000000000000000000000000000000000000000000000000000000000000000000000000000000000000000000000000000000000000000000000000000000000000e3fe821a54e4f2471fe12e96c811a9e23e39b6910000000000000000000000000000000000000000000000000000000065243be400000000000000000000000000000000000000000000000000000000000000000000000000000000000000000000000000000000000000000000000463f5daa500000000000000000000000000000000000000000000000000000000","l1BlockNumber":"0x117744e","l1Timestamp":"0x65243743","l1TxOrigin":null,"nonce":"0x4e","queueIndex":null,"queueOrigin":"sequencer","r":"0x18a930fbb216122731d679f4a2593391f0cff2011b65416d1b5d9ee98813b64d","rawTransaction":"0xf902d34e8402faf0808308522d94218bf598d1453383e2f4aa7b14ffb9bfb102d6378723864714c8fdb9b90264ac9650d800000000000000000000000000000000000000000000000000000000000000200000000000000000000000000000000000000000000000000000000000000002000000000000000000000000000000000000000000000000000000000000004000000000000000000000000000000000000000000000000000000000000001e0000000000000000000000000000000000000000000000000000000000000016488316456000000000000000000000000201eba5cc46d216ce6dc03f6a759e8e766e956ae00000000000000000000000078c1b0c915c4faa5fffa6cabf0219da63d7f4cb800000000000000000000000000000000000000000000000000000000000000640000000000000000000000000000000000000000000000000000000000045dce0000000000000000000000000000000000000000000000000000000000045de10000000000000000000000000000000000000000000000000000000000000c3e0000000000000000000000000000000000000000000000000023864714c8fdb900000000000000000000000000000000000000000000000000000000000000000000000000000000000000000000000000000000000000000000000000000000000000000000000000000000e3fe821a54e4f2471fe12e96c811a9e23e39b6910000000000000000000000000000000000000000000000000000000065243be400000000000000000000000000000000000000000000000000000000000000000000000000000000000000000000000000000000000000000000000463f5daa500000000000000000000000000000000000000000000000000000000822733a018a930fbb216122731d679f4a2593391f0cff2011b65416d1b5d9ee98813b64da07804723ea8941670bc971c600e95a572839be8345904f57a3d30e974ec09b2f4","s":"0x7804723ea8941670bc971c600e95a572839be8345904f57a3d30e974ec09b2f4","to":"0x218bf598d1453383e2f4aa7b14ffb9bfb102d637","transactionIndex":"0x0","v":"0x2733","value":"0x23864714c8fdb9","contractAddress":null,"cumulativeGasUsed":"0x527a1","daFee":"0x0","daGasPrice":"0x0","daGasUsed":"0x291","gasUsed":"0x527a1","l1Fee":"0x1c5145ff7a866d0","l1FeeScalar":"1","l1GasPrice":"0x3f1249c65230","l1GasUsed":"0x72f","logs":[{"address":"0x201eba5cc46d216ce6dc03f6a759e8e766e956ae","blockHash":"0xa4adba9302ec47604ba79b3fcb7e709b47ab96ae0b0fa3d9d66497e721e7c824","blockNumber":"0xcff38f","data":"0x0000000000000000000000000000000000000000000000000000000000000c3e","logIndex":"0x0","removed":false,"topics":["0xddf252ad1be2c89b69c2b068fc378daa952ba7f163c4a11628f55a4df523b3ef","0x000000000000000000000000e3fe821a54e4f2471fe12e96c811a9e23e39b691","0x000000000000000000000000d145db1dfc3fcd2e999b47f3a02c85bd7750ed09"],"transactionHash":"0xa002d26bd713af3678d7772b596ddc00c379de9253f80d34ba841c2423735f6d","transactionIndex":"0x0"},{"address":"0x201eba5cc46d216ce6dc03f6a759e8e766e956ae","blockHash":"0xa4adba9302ec47604ba79b3fcb7e709b47ab96ae0b0fa3d9d66497e721e7c824","blockNumber":"0xcff38f","data":"0x00000000000000000000000000000000000000000000000000000000000a527a","logIndex":"0x1","removed":false,"topics":["0x8c5be1e5ebec7d5bd14f71427d1e84f3dd0314c0f7b2291e5b200ac8c7c3b925","0x000000000000000000000000e3fe821a54e4f2471fe12e96c811a9e23e39b691","0x000000000000000000000000218bf598d1453383e2f4aa7b14ffb9bfb102d637"],"transactionHash":"0xa002d26bd713af3678d7772b596ddc00c379de9253f80d34ba841c2423735f6d","transactionIndex":"0x0"},{"address":"0x78c1b0c915c4faa5fffa6cabf0219da63d7f4cb8","blockHash":"0xa4adba9302ec47604ba79b3fcb7e709b47ab96ae0b0fa3d9d66497e721e7c824","blockNumber":"0xcff38f","data":"0x0000000000000000000000000000000000000000000000000023864714c8fdb9","logIndex":"0x2","removed":false,"topics":["0xddf252ad1be2c89b69c2b068fc378daa952ba7f163c4a11628f55a4df523b3ef","0x0000000000000000000000000000000000000000000000000000000000000000","0x000000000000000000000000218bf598d1453383e2f4aa7b14ffb9bfb102d637"],"transactionHash":"0xa002d26bd713af3678d7772b596ddc00c379de9253f80d34ba841c2423735f6d","transactionIndex":"0x0"},{"address":"0x78c1b0c915c4faa5fffa6cabf0219da63d7f4cb8","blockHash":"0xa4adba9302ec47604ba79b3fcb7e709b47ab96ae0b0fa3d9d66497e721e7c824","blockNumber":"0xcff38f","data":"0x0000000000000000000000000000000000000000000000000023864714c8fdb9","logIndex":"0x3","removed":false,"topics":["0xe1fffcc4923d04b559f4d29a8bfc6cda04eb5b0d3c460751c2402c5c5cc9109c","0x000000000000000000000000218bf598d1453383e2f4aa7b14ffb9bfb102d637"],"transactionHash":"0xa002d26bd713af3678d7772b596ddc00c379de9253f80d34ba841c2423735f6d","transactionIndex":"0x0"},{"address":"0x78c1b0c915c4faa5fffa6cabf0219da63d7f4cb8","blockHash":"0xa4adba9302ec47604ba79b3fcb7e709b47ab96ae0b0fa3d9d66497e721e7c824","blockNumber":"0xcff38f","data":"0x0000000000000000000000000000000000000000000000000023864714c8fdb9","logIndex":"0x4","removed":false,"topics":["0xddf252ad1be2c89b69c2b068fc378daa952ba7f163c4a11628f55a4df523b3ef","0x000000000000000000000000218bf598d1453383e2f4aa7b14ffb9bfb102d637","0x000000000000000000000000d145db1dfc3fcd2e999b47f3a02c85bd7750ed09"],"transactionHash":"0xa002d26bd713af3678d7772b596ddc00c379de9253f80d34ba841c2423735f6d","transactionIndex":"0x0"},{"address":"0xd145db1dfc3fcd2e999b47f3a02c85bd7750ed09","blockHash":"0xa4adba9302ec47604ba79b3fcb7e709b47ab96ae0b0fa3d9d66497e721e7c824","blockNumber":"0xcff38f","data":"0x000000000000000000000000218bf598d1453383e2f4aa7b14ffb9bfb102d63700000000000000000000000000000000000000000000000000000ac36190ab1d0000000000000000000000000000000000000000000000000000000000000c3e0000000000000000000000000000000000000000000000000023864714c8fdb9","logIndex":"0x5","removed":false,"topics":["0x7a53080ba414158be7ec69b987b5fb7d07dee101fe85488f0853ae16239d0bde","0x000000000000000000000000218bf598d1453383e2f4aa7b14ffb9bfb102d637","0x0000000000000000000000000000000000000000000000000000000000045dce","0x0000000000000000000000000000000000000000000000000000000000045de1"],"transactionHash":"0xa002d26bd713af3678d7772b596ddc00c379de9253f80d34ba841c2423735f6d","transactionIndex":"0x0"},{"address":"0x218bf598d1453383e2f4aa7b14ffb9bfb102d637","blockHash":"0xa4adba9302ec47604ba79b3fcb7e709b47ab96ae0b0fa3d9d66497e721e7c824","blockNumber":"0xcff38f","data":"0x","logIndex":"0x6","removed":false,"topics":["0xddf252ad1be2c89b69c2b068fc378daa952ba7f163c4a11628f55a4df523b3ef","0x0000000000000000000000000000000000000000000000000000000000000000","0x000000000000000000000000e3fe821a54e4f2471fe12e96c811a9e23e39b691","0x000000000000000000000000000000000000000000000000000000000001339b"],"transactionHash":"0xa002d26bd713af3678d7772b596ddc00c379de9253f80d34ba841c2423735f6d","transactionIndex":"0x0"},{"address":"0x218bf598d1453383e2f4aa7b14ffb9bfb102d637","blockHash":"0xa4adba9302ec47604ba79b3fcb7e709b47ab96ae0b0fa3d9d66497e721e7c824","blockNumber":"0xcff38f","data":"0x00000000000000000000000000000000000000000000000000000ac36190ab1d0000000000000000000000000000000000000000000000000000000000000c3e0000000000000000000000000000000000000000000000000023864714c8fdb9","logIndex":"0x7","removed":false,"topics":["0x3067048beee31b25b2f1681f88dac838c8bba36af25bfb2b7cf7473a5847e35f","0x000000000000000000000000000000000000000000000000000000000001339b"],"transactionHash":"0xa002d26bd713af3678d7772b596ddc00c379de9253f80d34ba841c2423735f6d","transactionIndex":"0x0"}],"logsBloom":"0x00001000000040000000100000000000000000000001000000000000000000000000000000000000000000000000000000000000000000002400000000200000100000000000000000000008000000000000008000042000000100008020000000000020420000000000000000000800010000000800000000000010000000000100080009000001000000000000000004100001000000000000000000000000020000004008000000800000000000000000000200000000000000000000000000000002000000008000080000000000800000000000000000000000000020000010000000000000000000000000000008000000400000400000000040010800","status":"0x1","transactionHash":"0xa002d26bd713af3678d7772b596ddc00c379de9253f80d34ba841c2423735f6d"}}}