{"block":{"difficulty":"0x2","extraData":"0xd98301090a846765746889676f312e31352e3133856c696e757800000000000067018341f99ad62ad6bd25a07435f8dc155cb2b9a5769a4e8fa3aeb36d172a901695fff29818c647cf5a0f159a98fa0037c5091ae9813156c23cf7a7dd5539ee01","gasLimit":"0x1c9c380","gasUsed":"0x1eaa7","hash":"0x7e3466b589853c2985f66b775bd64d344b7577b9392a8a28de0f627e75f5f511","logsBloom":"0x00000000000000000000000000000000000000000001008800000000000000000000000000000000000000000002000000080000000000000000000000200000040000000040000400000008001000004000008000002000000000010000000000000000000000000000000100000000000000000000000000000012000000008000000000000000000000000000000000000000000000000000000000000000020000000000000000000008000000000000000001000000000100000000000000000002000000000000000000000000000000000000000000000000000000000010000000001000000000000000000000000000000002000000000000000000","miner":"0x0000000000000000000000000000000000000000","mixHash":"0x0000000000000000000000000000000000000000000000000000000000000000","nonce":"0x0000000000000000","number":"0xd0031f","parentHash":"0x01a1ef7fe498aeb01228e0aba3c3abbb3c8b0c3f01d9954d9c59ee6ec9c5520b","receiptsRoot":"0x41d29aeb1282d7e67acfc6f45c9c7bbffee761bb0e7202fe9ca8c3c08b16ce31","sha3Uncles":"0x1dcc4de8dec75d7aab85b567b6ccd41ad312451b948a7413f0a142fd40d49347","size":"0x3d9","stateRoot":"0x34edc54aac1ab8e01d7c998d791f58125196f14b0201620ae4b52e19ef0d1ea6","timestamp":"0x65243e61","totalDifficulty":"0x1a0063f","transactions":[{"blockHash":"0x7e3466b589853c2985f66b775bd64d344b7577b9392a8a28de0f627e75f5f511","blockNumber":"0xd0031f","from":"0xdff45a3a21f00f7edfb28816e8589c337421cc91","gas":"0xf4240","gasPrice":"0x69f4060","hash":"0x5f1f5f7046471c8b87bf1f91c6cadf9993f5f8fec9d4b5f2febb4843581cc1e3","index":"0xd0031e","input":"0xdb3e2198000000000000000000000000201eba5cc46d216ce6dc03f6a759e8e766e956ae000000000000000000000000deaddeaddeaddeaddeaddeaddeaddeaddead111100000000000000000000000000000000000000000000000000000000000009c4000000000000000000000000dff45a3a21f00f7edfb28816e8589c337421cc91000000000000000000000000000000000000000000000000000002c726d6a8180000000000000000000000000000000000000000000000000de0b6b3a7640000000000000000000000000000000000000000000000000000000000005e2401470000000000000000000000000000000000005db75f9a653e58eadb17b51d67e8","l1BlockNumber":"0x11774e6","l1Timestamp":"0x65243e61","l1TxOrigin":null,"nonce":"0x2adf4","queueIndex":null,"queueOrigin":"sequencer","r":"0x2dd69388fd8f7fc5ff7f19dbea22a2a37d57431f5993d91743f4713c3892d831","rawTransaction":"0xf9016f8302adf484069f4060830f424094319b69888b0d11cec22caa5034e25fffbdc8842180b90104db3e2198000000000000000000000000201eba5cc46d216ce6dc03f6a759e8e766e956ae000000000000000000000000deaddeaddeaddeaddeaddeaddeaddeaddead111100000000000000000000000000000000000000000000000000000000000009c4000000000000000000000000dff45a3a21f00f7edfb28816e8589c337421cc91000000000000000000000000000000000000000000000000000002c726d6a8180000000000000000000000000000000000000000000000000de0b6b3a7640000000000000000000000000000000000000000000000000000000000005e2401470000000000000000000000000000000000005db75f9a653e58eadb17b51d67e8822734a02dd69388fd8f7fc5ff7f19dbea22a2a37d57431f5993d91743f4713c3892d831a05197a676d594ff82595c2d31bcfd5a21fc9904e897db5b12294a803b628ca80d","s":"0x5197a676d594ff82595c2d31bcfd5a21fc9904e897db5b12294a803b628ca80d","to":"0x319b69888b0d11cec22caa5034e25fffbdc88421","transactionIndex":"0x0","v":"0x2734","value":"0x0"}],"transactionsRoot":"0xe309385dc80d0683ce8bb3aa88b52a463ce6cc4bc221956d3e7084153c114a04","uncles":[]},"receipts":{"0x5f1f5f7046471c8b87bf1f91c6cadf9993f5f8fec9d4b5f2febb4843581cc1e3":{"blockHash":"0x7e3466b589853c2985f66b775bd64d344b7577b9392a8a28de0f627e75f5f511","blockNumber":"0xd0031f","from":"0xdff45a3a21f00f7edfb28816e8589c337421cc91","gas":"0xf4240","gasPrice":"0x69f4060","hash":"0x5f1f5f7046471c8b87bf1f91c6cadf9993f5f8fec9d4b5f2febb4843581cc1e3","index":"0xd0031e","input":"0xdb3e2198000000000000000000000000201eba5cc46d216ce6dc03f6a759e8e766e956ae000000000000000000000000deaddeaddeaddeaddeaddeaddeaddeaddead111100000000000000000000000000000000000000000000000000000000000009c4000000000000000000000000dff45a3a21f00f7edfb28816e8589c337421cc91000000000000000000000000000000000000000000000000000002c726d6a8180000000000000000000000000000000000000000000000000de0b6b3a7640000000000000000000000000000000000000000000000000000000000005e2401470000000000000000000000000000000000005db75f9a653e58eadb17b51d67e8","l1BlockNumber":"0x11774e6","l1Timestamp":"0x65243e61","l1TxOrigin":null,"nonce":"0x2adf4","queueIndex":null,"queueOrigin":"sequencer","r":"0x2dd69388fd8f7fc5ff7f19dbea22a2a37d57431f5993d91743f4713c3892d831","rawTransaction":"0xf9016f8302adf484069f4060830f424094319b69888b0d11cec22caa5034e25fffbdc8842180b90104db3e2198000000000000000000000000201eba5cc46d216ce6dc03f6a759e8e766e956ae000000000000000000000000deaddeaddeaddeaddeaddeaddeaddeaddead111100000000000000000000000000000000000000000000000000000000000009c4000000000000000000000000dff45a3a21f00f7edfb28816e8589c337421cc91000000000000000000000000000000000000000000000000000002c726d6a8180000000000000000000000000000000000000000000000000de0b6b3a7640000000000000000000000000000000000000000000000000000000000005e2401470000000000000000000000000000000000005db75f9a653e58eadb17b51d67e8822734a02dd69388fd8f7fc5ff7f19dbea22a2a37d57431f5993d91743f4713c3892d831a05197a676d594ff82595c2d31bcfd5a21fc9904e897db5b12294a803b628ca80d","s":"0x5197a676d594ff82595c2d31bcfd5a21fc9904e897db5b12294a803b628ca80d","to":"0x319b69888b0d11cec22caa5034e25fffbdc88421","transactionIndex":"0x0","v":"0x2734","value":"0x0","contractAddress":null,"cumulativeGasUsed":"0x1eaa7","daFee":"0x0","daGasPrice":"0x0","daGasUsed":"0x12d","gasUsed":"0x1eaa7","l1Fee":"0x19709d787180660","l1FeeScalar":"1","l1GasPrice":"0x38a987f04864","l1GasUsed":"0x72f","logs":[{"address":"0xdeaddeaddeaddeaddeaddeaddeaddeaddead1111","blockHash":"0x7e3466b589853c2985f66b775bd64d344b7577b9392a8a28de0f627e75f5f511","blockNumber":"0xd0031f","data":"0x0000000000000000000000000000000000000000000000000de0b6b3a7640000","logIndex":"0x0","removed":false,"topics":["0xddf252ad1be2c89b69c2b068fc378daa952ba7f163c4a11628f55a4df523b3ef","0x000000000000000000000000425732f412f2a922156cf3c135a516c18f977cc1","0x000000000000000000000000dff45a3a21f00f7edfb28816e8589c337421cc91"],"transactionHash":"0x5f1f5f7046471c8b87bf1f91c6cadf9993f5f8fec9d4b5f2febb4843581cc1e3","transactionIndex":"0x0"},{"address":"0x201eba5cc46d216ce6dc03f6a759e8e766e956ae","blockHash":"0x7e3466b589853c2985f66b775bd64d344b7577b9392a8a28de0f627e75f5f511","blockNumber":"0xd0031f","data":"0x000000000000000000000000000000000000000000000000000000005e2063fa","logIndex":"0x1","removed":false,"topics":["0xddf252ad1be2c89b69c2b068fc378daa952ba7f163c4a11628f55a4df523b3ef","0x000000000000000000000000dff45a3a21f00f7edfb28816e8589c337421cc91","0x000000000000000000000000425732f412f2a922156cf3c135a516c18f977cc1"],"transactionHash":"0x5f1f5f7046471c8b87bf1f91c6cadf9993f5f8fec9d4b5f2febb4843581cc1e3","transactionIndex":"0x0"},{"address":"0x201eba5cc46d216ce6dc03f6a759e8e766e956ae","blockHash":"0x7e3466b589853c2985f66b775bd64d344b7577b9392a8a28de0f627e75f5f511","blockNumber":"0xd0031f","data":"0x000000000000000000000000000000000000000000000000002370c9e7dd2f4f","logIndex":"0x2","removed":false,"topics":["0x8c5be1e5ebec7d5bd14f71427d1e84f3dd0314c0f7b2291e5b200ac8c7c3b925","0x000000000000000000000000dff45a3a21f00f7edfb28816e8589c337421cc91","0x000000000000000000000000319b69888b0d11cec22caa5034e25fffbdc88421"],"transactionHash":"0x5f1f5f7046471c8b87bf1f91c6cadf9993f5f8fec9d4b5f2febb4843581cc1e3","transactionIndex":"0x0"},{"address":"0x425732f412f2a922156cf3c135a516c18f977cc1","blockHash":"0x7e3466b589853c2985f66b775bd64d344b7577b9392a8a28de0f627e75f5f511","blockNumber":"0xd0031f","data":"0x000000000000000000000000000000000000000000000000000000005e2063fafffffffffffffffffffffffffffffffffffffffffffffffff21f494c589c00000000000000000000000000000000000000006269d03bac0fabbf8aea0b40f179000000000000000000000000000000000000000000000000038d2cc4e14f929e00000000000000000000000000000000000000000000000000000000000317c900000000000000000000000000000000000000000000000000000000001346f00000000000000000000000000000000000000000000000000000000000000000","logIndex":"0x3","removed":false,"topics":["0x19b47279256b2a23a1665c810c8d55a1758940ee09377d4f8d26497a3577dc83","0x000000000000000000000000319b69888b0d11cec22caa5034e25fffbdc88421","0x000000000000000000000000dff45a3a21f00f7edfb28816e8589c337421cc91"],"transactionHash":"0x5f1f5f7046471c8b87bf1f91c6cadf9993f5f8fec9d4b5f2febb4843581cc1e3","transactionIndex":"0x0"}],"logsBloom":"0x00000000000000000000000000000000000000000001008800000000000000000000000000000000000000000002000000080000000000000000000000200000040000000040000400000008001000004000008000002000000000010000000000000000000000000000000100000000000000000000000000000012000000008000000000000000000000000000000000000000000000000000000000000000020000000000000000000008000000000000000001000000000100000000000000000002000000000000000000000000000000000000000000000000000000000010000000001000000000000000000000000000000002000000000000000000","status":"0x1","transactionHash":"0x5f1f5f7046471c8b87bf1f91c6cadf9993f5f8fec9d4b5f2febb4843581cc1e3"}}}